{
    "contractName": "ERC20DividendCheckpoint",
    "abi": [
        {
            "constant": false,
            "inputs": [
                {
                    "name": "_investors",
                    "type": "address[]"
                },
                {
                    "name": "_withholding",
                    "type": "uint256"
                }
            ],
            "name": "setWithholdingFixed",
            "outputs": [],
            "payable": false,
            "stateMutability": "nonpayable",
            "type": "function"
        },
        {
            "constant": true,
            "inputs": [],
            "name": "EXCLUDED_ADDRESS_LIMIT",
            "outputs": [
                {
                    "name": "",
                    "type": "uint256"
                }
            ],
            "payable": false,
            "stateMutability": "view",
            "type": "function"
        },
        {
            "constant": true,
            "inputs": [],
            "name": "getInitFunction",
            "outputs": [
                {
                    "name": "",
                    "type": "bytes4"
                }
            ],
            "payable": false,
            "stateMutability": "pure",
            "type": "function"
        },
        {
            "constant": true,
            "inputs": [
                {
                    "name": "_dividendIndex",
                    "type": "uint256"
                }
            ],
            "name": "getDividendData",
            "outputs": [
                {
                    "name": "created",
                    "type": "uint256"
                },
                {
                    "name": "maturity",
                    "type": "uint256"
                },
                {
                    "name": "expiry",
                    "type": "uint256"
                },
                {
                    "name": "amount",
                    "type": "uint256"
                },
                {
                    "name": "claimedAmount",
                    "type": "uint256"
                },
                {
                    "name": "name",
                    "type": "bytes32"
                }
            ],
            "payable": false,
            "stateMutability": "view",
            "type": "function"
        },
        {
            "constant": false,
            "inputs": [
                {
                    "name": "_dividendIndex",
                    "type": "uint256"
                }
            ],
            "name": "pullDividendPayment",
            "outputs": [],
            "payable": false,
            "stateMutability": "nonpayable",
            "type": "function"
        },
        {
            "constant": true,
            "inputs": [],
            "name": "CHECKPOINT",
            "outputs": [
                {
                    "name": "",
                    "type": "bytes32"
                }
            ],
            "payable": false,
            "stateMutability": "view",
            "type": "function"
        },
        {
            "constant": false,
            "inputs": [
                {
                    "name": "_dividendIndex",
                    "type": "uint256"
                },
                {
                    "name": "_payees",
                    "type": "address[]"
                }
            ],
            "name": "pushDividendPaymentToAddresses",
            "outputs": [],
            "payable": false,
            "stateMutability": "nonpayable",
            "type": "function"
        },
        {
            "constant": true,
            "inputs": [
                {
                    "name": "_investor",
                    "type": "address"
                },
                {
                    "name": "_dividendIndex",
                    "type": "uint256"
                }
            ],
            "name": "isClaimed",
            "outputs": [
                {
                    "name": "",
                    "type": "bool"
                }
            ],
            "payable": false,
            "stateMutability": "view",
            "type": "function"
        },
        {
            "constant": true,
            "inputs": [
                {
                    "name": "_dividendIndex",
                    "type": "uint256"
                },
                {
                    "name": "_payee",
                    "type": "address"
                }
            ],
            "name": "calculateDividend",
            "outputs": [
                {
                    "name": "",
                    "type": "uint256"
                },
                {
                    "name": "",
                    "type": "uint256"
                }
            ],
            "payable": false,
            "stateMutability": "view",
            "type": "function"
        },
        {
            "constant": true,
            "inputs": [],
            "name": "MANAGE",
            "outputs": [
                {
                    "name": "",
                    "type": "bytes32"
                }
            ],
            "payable": false,
            "stateMutability": "view",
            "type": "function"
        },
        {
            "constant": true,
            "inputs": [
                {
                    "name": "_checkpointId",
                    "type": "uint256"
                }
            ],
            "name": "getDividendIndex",
            "outputs": [
                {
                    "name": "",
                    "type": "uint256[]"
                }
            ],
            "payable": false,
            "stateMutability": "view",
            "type": "function"
        },
        {
            "constant": false,
            "inputs": [
                {
                    "name": "_amount",
                    "type": "uint256"
                }
            ],
            "name": "takeFee",
            "outputs": [
                {
                    "name": "",
                    "type": "bool"
                }
            ],
            "payable": false,
            "stateMutability": "nonpayable",
            "type": "function"
        },
        {
            "constant": true,
            "inputs": [],
            "name": "polyToken",
            "outputs": [
                {
                    "name": "",
                    "type": "address"
                }
            ],
            "payable": false,
            "stateMutability": "view",
            "type": "function"
        },
        {
            "constant": true,
            "inputs": [
                {
                    "name": "",
                    "type": "address"
                }
            ],
            "name": "withholdingTax",
            "outputs": [
                {
                    "name": "",
                    "type": "uint256"
                }
            ],
            "payable": false,
            "stateMutability": "view",
            "type": "function"
        },
        {
            "constant": true,
            "inputs": [
                {
                    "name": "_checkpointId",
                    "type": "uint256"
                }
            ],
            "name": "getCheckpointData",
            "outputs": [
                {
                    "name": "investors",
                    "type": "address[]"
                },
                {
                    "name": "balances",
                    "type": "uint256[]"
                },
                {
                    "name": "withholdings",
                    "type": "uint256[]"
                }
            ],
            "payable": false,
            "stateMutability": "view",
            "type": "function"
        },
        {
            "constant": true,
            "inputs": [],
            "name": "DISTRIBUTE",
            "outputs": [
                {
                    "name": "",
                    "type": "bytes32"
                }
            ],
            "payable": false,
            "stateMutability": "view",
            "type": "function"
        },
        {
            "constant": true,
            "inputs": [
                {
                    "name": "",
                    "type": "uint256"
                }
            ],
            "name": "dividends",
            "outputs": [
                {
                    "name": "checkpointId",
                    "type": "uint256"
                },
                {
                    "name": "created",
                    "type": "uint256"
                },
                {
                    "name": "maturity",
                    "type": "uint256"
                },
                {
                    "name": "expiry",
                    "type": "uint256"
                },
                {
                    "name": "amount",
                    "type": "uint256"
                },
                {
                    "name": "claimedAmount",
                    "type": "uint256"
                },
                {
                    "name": "totalSupply",
                    "type": "uint256"
                },
                {
                    "name": "reclaimed",
                    "type": "bool"
                },
                {
                    "name": "totalWithheld",
                    "type": "uint256"
                },
                {
                    "name": "totalWithheldWithdrawn",
                    "type": "uint256"
                },
                {
                    "name": "name",
                    "type": "bytes32"
                }
            ],
            "payable": false,
            "stateMutability": "view",
            "type": "function"
        },
        {
            "constant": true,
            "inputs": [
                {
                    "name": "_investor",
                    "type": "address"
                },
                {
                    "name": "_dividendIndex",
                    "type": "uint256"
                }
            ],
            "name": "isExcluded",
            "outputs": [
                {
                    "name": "",
                    "type": "bool"
                }
            ],
            "payable": false,
            "stateMutability": "view",
            "type": "function"
        },
        {
            "constant": false,
            "inputs": [
                {
                    "name": "_investors",
                    "type": "address[]"
                },
                {
                    "name": "_withholding",
                    "type": "uint256[]"
                }
            ],
            "name": "setWithholding",
            "outputs": [],
            "payable": false,
            "stateMutability": "nonpayable",
            "type": "function"
        },
        {
            "constant": true,
            "inputs": [
                {
                    "name": "",
                    "type": "uint256"
                }
            ],
            "name": "dividendTokens",
            "outputs": [
                {
                    "name": "",
                    "type": "address"
                }
            ],
            "payable": false,
            "stateMutability": "view",
            "type": "function"
        },
        {
            "constant": true,
            "inputs": [],
            "name": "getDividendsData",
            "outputs": [
                {
                    "name": "createds",
                    "type": "uint256[]"
                },
                {
                    "name": "maturitys",
                    "type": "uint256[]"
                },
                {
                    "name": "expirys",
                    "type": "uint256[]"
                },
                {
                    "name": "amounts",
                    "type": "uint256[]"
                },
                {
                    "name": "claimedAmounts",
                    "type": "uint256[]"
                },
                {
                    "name": "names",
                    "type": "bytes32[]"
                }
            ],
            "payable": false,
            "stateMutability": "view",
            "type": "function"
        },
        {
            "constant": true,
            "inputs": [],
            "name": "securityToken",
            "outputs": [
                {
                    "name": "",
                    "type": "address"
                }
            ],
            "payable": false,
            "stateMutability": "view",
            "type": "function"
        },
        {
            "constant": true,
            "inputs": [
                {
                    "name": "",
                    "type": "uint256"
                }
            ],
            "name": "excluded",
            "outputs": [
                {
                    "name": "",
                    "type": "address"
                }
            ],
            "payable": false,
            "stateMutability": "view",
            "type": "function"
        },
        {
            "constant": true,
            "inputs": [],
            "name": "getPermissions",
            "outputs": [
                {
                    "name": "",
                    "type": "bytes32[]"
                }
            ],
            "payable": false,
            "stateMutability": "view",
            "type": "function"
        },
        {
            "constant": true,
            "inputs": [],
            "name": "factory",
            "outputs": [
                {
                    "name": "",
                    "type": "address"
                }
            ],
            "payable": false,
            "stateMutability": "view",
            "type": "function"
        },
        {
            "constant": false,
            "inputs": [
                {
                    "name": "_excluded",
                    "type": "address[]"
                }
            ],
            "name": "setDefaultExcluded",
            "outputs": [],
            "payable": false,
            "stateMutability": "nonpayable",
            "type": "function"
        },
        {
            "constant": true,
            "inputs": [],
            "name": "FEE_ADMIN",
            "outputs": [
                {
                    "name": "",
                    "type": "bytes32"
                }
            ],
            "payable": false,
            "stateMutability": "view",
            "type": "function"
        },
        {
            "constant": false,
            "inputs": [
                {
                    "name": "_dividendIndex",
                    "type": "uint256"
                },
                {
                    "name": "_start",
                    "type": "uint256"
                },
                {
                    "name": "_iterations",
                    "type": "uint256"
                }
            ],
            "name": "pushDividendPayment",
            "outputs": [],
            "payable": false,
            "stateMutability": "nonpayable",
            "type": "function"
        },
        {
            "constant": true,
            "inputs": [],
            "name": "getDefaultExcluded",
            "outputs": [
                {
                    "name": "",
                    "type": "address[]"
                }
            ],
            "payable": false,
            "stateMutability": "view",
            "type": "function"
        },
        {
            "constant": true,
            "inputs": [
                {
                    "name": "_dividendIndex",
                    "type": "uint256"
                }
            ],
            "name": "getDividendProgress",
            "outputs": [
                {
                    "name": "investors",
                    "type": "address[]"
                },
                {
                    "name": "resultClaimed",
                    "type": "bool[]"
                },
                {
                    "name": "resultExcluded",
                    "type": "bool[]"
                },
                {
                    "name": "resultWithheld",
                    "type": "uint256[]"
                },
                {
                    "name": "resultBalance",
                    "type": "uint256[]"
                },
                {
                    "name": "resultAmount",
                    "type": "uint256[]"
                }
            ],
            "payable": false,
            "stateMutability": "view",
            "type": "function"
        },
        {
            "constant": false,
            "inputs": [],
            "name": "createCheckpoint",
            "outputs": [
                {
                    "name": "",
                    "type": "uint256"
                }
            ],
            "payable": false,
            "stateMutability": "nonpayable",
            "type": "function"
        },
        {
            "inputs": [
                {
                    "name": "_securityToken",
                    "type": "address"
                },
                {
                    "name": "_polyAddress",
                    "type": "address"
                }
            ],
            "payable": false,
            "stateMutability": "nonpayable",
            "type": "constructor"
        },
        {
            "anonymous": false,
            "inputs": [
                {
                    "indexed": true,
                    "name": "_depositor",
                    "type": "address"
                },
                {
                    "indexed": false,
                    "name": "_checkpointId",
                    "type": "uint256"
                },
                {
                    "indexed": false,
                    "name": "_created",
                    "type": "uint256"
                },
                {
                    "indexed": false,
                    "name": "_maturity",
                    "type": "uint256"
                },
                {
                    "indexed": false,
                    "name": "_expiry",
                    "type": "uint256"
                },
                {
                    "indexed": true,
                    "name": "_token",
                    "type": "address"
                },
                {
                    "indexed": false,
                    "name": "_amount",
                    "type": "uint256"
                },
                {
                    "indexed": false,
                    "name": "_totalSupply",
                    "type": "uint256"
                },
                {
                    "indexed": false,
                    "name": "_dividendIndex",
                    "type": "uint256"
                },
                {
                    "indexed": true,
                    "name": "_name",
                    "type": "bytes32"
                }
            ],
            "name": "ERC20DividendDeposited",
            "type": "event"
        },
        {
            "anonymous": false,
            "inputs": [
                {
                    "indexed": true,
                    "name": "_payee",
                    "type": "address"
                },
                {
                    "indexed": true,
                    "name": "_dividendIndex",
                    "type": "uint256"
                },
                {
                    "indexed": true,
                    "name": "_token",
                    "type": "address"
                },
                {
                    "indexed": false,
                    "name": "_amount",
                    "type": "uint256"
                },
                {
                    "indexed": false,
                    "name": "_withheld",
                    "type": "uint256"
                }
            ],
            "name": "ERC20DividendClaimed",
            "type": "event"
        },
        {
            "anonymous": false,
            "inputs": [
                {
                    "indexed": true,
                    "name": "_claimer",
                    "type": "address"
                },
                {
                    "indexed": true,
                    "name": "_dividendIndex",
                    "type": "uint256"
                },
                {
                    "indexed": true,
                    "name": "_token",
                    "type": "address"
                },
                {
                    "indexed": false,
                    "name": "_claimedAmount",
                    "type": "uint256"
                }
            ],
            "name": "ERC20DividendReclaimed",
            "type": "event"
        },
        {
            "anonymous": false,
            "inputs": [
                {
                    "indexed": true,
                    "name": "_claimer",
                    "type": "address"
                },
                {
                    "indexed": true,
                    "name": "_dividendIndex",
                    "type": "uint256"
                },
                {
                    "indexed": true,
                    "name": "_token",
                    "type": "address"
                },
                {
                    "indexed": false,
                    "name": "_withheldAmount",
                    "type": "uint256"
                }
            ],
            "name": "ERC20DividendWithholdingWithdrawn",
            "type": "event"
        },
        {
            "anonymous": false,
            "inputs": [
                {
                    "indexed": false,
                    "name": "_excluded",
                    "type": "address[]"
                },
                {
                    "indexed": false,
                    "name": "_timestamp",
                    "type": "uint256"
                }
            ],
            "name": "SetDefaultExcludedAddresses",
            "type": "event"
        },
        {
            "anonymous": false,
            "inputs": [
                {
                    "indexed": false,
                    "name": "_investors",
                    "type": "address[]"
                },
                {
                    "indexed": false,
                    "name": "_withholding",
                    "type": "uint256[]"
                },
                {
                    "indexed": false,
                    "name": "_timestamp",
                    "type": "uint256"
                }
            ],
            "name": "SetWithholding",
            "type": "event"
        },
        {
            "anonymous": false,
            "inputs": [
                {
                    "indexed": false,
                    "name": "_investors",
                    "type": "address[]"
                },
                {
                    "indexed": false,
                    "name": "_withholding",
                    "type": "uint256"
                },
                {
                    "indexed": false,
                    "name": "_timestamp",
                    "type": "uint256"
                }
            ],
            "name": "SetWithholdingFixed",
            "type": "event"
        },
        {
            "constant": false,
            "inputs": [
                {
                    "name": "_maturity",
                    "type": "uint256"
                },
                {
                    "name": "_expiry",
                    "type": "uint256"
                },
                {
                    "name": "_token",
                    "type": "address"
                },
                {
                    "name": "_amount",
                    "type": "uint256"
                },
                {
                    "name": "_name",
                    "type": "bytes32"
                }
            ],
            "name": "createDividend",
            "outputs": [],
            "payable": false,
            "stateMutability": "nonpayable",
            "type": "function"
        },
        {
            "constant": false,
            "inputs": [
                {
                    "name": "_maturity",
                    "type": "uint256"
                },
                {
                    "name": "_expiry",
                    "type": "uint256"
                },
                {
                    "name": "_token",
                    "type": "address"
                },
                {
                    "name": "_amount",
                    "type": "uint256"
                },
                {
                    "name": "_checkpointId",
                    "type": "uint256"
                },
                {
                    "name": "_name",
                    "type": "bytes32"
                }
            ],
            "name": "createDividendWithCheckpoint",
            "outputs": [],
            "payable": false,
            "stateMutability": "nonpayable",
            "type": "function"
        },
        {
            "constant": false,
            "inputs": [
                {
                    "name": "_maturity",
                    "type": "uint256"
                },
                {
                    "name": "_expiry",
                    "type": "uint256"
                },
                {
                    "name": "_token",
                    "type": "address"
                },
                {
                    "name": "_amount",
                    "type": "uint256"
                },
                {
                    "name": "_excluded",
                    "type": "address[]"
                },
                {
                    "name": "_name",
                    "type": "bytes32"
                }
            ],
            "name": "createDividendWithExclusions",
            "outputs": [],
            "payable": false,
            "stateMutability": "nonpayable",
            "type": "function"
        },
        {
            "constant": false,
            "inputs": [
                {
                    "name": "_maturity",
                    "type": "uint256"
                },
                {
                    "name": "_expiry",
                    "type": "uint256"
                },
                {
                    "name": "_token",
                    "type": "address"
                },
                {
                    "name": "_amount",
                    "type": "uint256"
                },
                {
                    "name": "_checkpointId",
                    "type": "uint256"
                },
                {
                    "name": "_excluded",
                    "type": "address[]"
                },
                {
                    "name": "_name",
                    "type": "bytes32"
                }
            ],
            "name": "createDividendWithCheckpointAndExclusions",
            "outputs": [],
            "payable": false,
            "stateMutability": "nonpayable",
            "type": "function"
        },
        {
            "constant": false,
            "inputs": [
                {
                    "name": "_dividendIndex",
                    "type": "uint256"
                }
            ],
            "name": "reclaimDividend",
            "outputs": [],
            "payable": false,
            "stateMutability": "nonpayable",
            "type": "function"
        },
        {
            "constant": false,
            "inputs": [
                {
                    "name": "_dividendIndex",
                    "type": "uint256"
                }
            ],
            "name": "withdrawWithholding",
            "outputs": [],
            "payable": false,
            "stateMutability": "nonpayable",
            "type": "function"
        }
    ],
    "bytecode": "0x6080604052609660015534801561001557600080fd5b5060405160408061553983398101604052805160209091015160068054600160a060020a03938416600160a060020a03199182161790915560058054821633179055600780549390921692169190911790556154c3806100766000396000f3006080604052600436106101b35763ffffffff60e060020a6000350416630945812e81146101b85780630a29f591146102115780631613ec9d1461023857806322018ce71461028257806328d1feda146102f457806330008b481461033f578063333cffe51461035757806335d806f81461036f57806343647a62146103845780634d58e413146103f8578063562beba8146104525780635bea0e1c1461048a5780635bf341c1146104c75780635daff64e146104dc5780635f7619a4146105445780636e742c771461055c5780636faa22a51461058c5780637a3e23fd146105bd5780637b4a223b146105de57806380fef5af146106d4578063814b3fe0146106e957806381e97b66146107595780638596e6e61461077d57806395ec5bbe1461080b578063aa8b76ea14610823578063ac121dbf1461083b578063b7e1fd9b146109fd578063b84dfbd214610a2a578063bee2ddc214610a3f578063c3a07df614610a57578063c45a015514610a6c578063cc1556dc14610a81578063d70afa9614610ad6578063e1726faa14610aeb578063f1e9d10014610b09578063fa67a7bb14610b1e578063ff0b9c9014610b36575b600080fd5b3480156101c457600080fd5b506040805160206004803580820135838102808601850190965280855261020f953695939460249493850192918291850190849080828437509497505093359450610b4b9350505050565b005b34801561021d57600080fd5b50610226610e0d565b60408051918252519081900360200190f35b34801561024457600080fd5b5061024d610e13565b604080517fffffffff000000000000000000000000000000000000000000000000000000009092168252519081900360200190f35b34801561028e57600080fd5b50604080516020600460843581810135838102808601850190965280855261020f958335956024803596604435600160a060020a031696606435963696919560a4959490910192829190850190849080828437509497505093359450610e199350505050565b34801561030057600080fd5b5061030c60043561103b565b604080519687526020870195909552858501939093526060850191909152608084015260a0830152519081900360c00190f35b34801561034b57600080fd5b5061020f60043561111f565b34801561036357600080fd5b5061020f6004356113ff565b34801561037b57600080fd5b506102266117f6565b34801561039057600080fd5b506040805160a4356004818101356020818102858101820190965281855261020f958335956024803596600160a060020a03604435169660643596608435963696929560c49590940192829185019084908082843750949750509335945061181a9350505050565b34801561040457600080fd5b5060408051602060046024803582810135848102808701860190975280865261020f968435963696604495919490910192918291850190849080828437509497506119ad9650505050505050565b34801561045e57600080fd5b50610476600160a060020a0360043516602435611dd0565b604080519115158252519081900360200190f35b34801561049657600080fd5b506104ae600435600160a060020a0360243516611e5d565b6040805192835260208301919091528051918290030190f35b3480156104d357600080fd5b50610226612040565b3480156104e857600080fd5b506104f4600435612050565b60408051602080825283518183015283519192839290830191858101910280838360005b83811015610530578181015183820152602001610518565b505050509050019250505060405180910390f35b34801561055057600080fd5b50610476600435612135565b34801561056857600080fd5b5061020f600435602435600160a060020a036044351660643560843560a43561244d565b34801561059857600080fd5b506105a1612645565b60408051600160a060020a039092168252519081900360200190f35b3480156105c957600080fd5b50610226600160a060020a0360043516612654565b3480156105ea57600080fd5b506105f6600435612666565b60405180806020018060200180602001848103845287818151815260200191508051906020019060200280838360005b8381101561063e578181015183820152602001610626565b50505050905001848103835286818151815260200191508051906020019060200280838360005b8381101561067d578181015183820152602001610665565b50505050905001848103825285818151815260200191508051906020019060200280838360005b838110156106bc5781810151838201526020016106a4565b50505050905001965050505050505060405180910390f35b3480156106e057600080fd5b506102266129c9565b3480156106f557600080fd5b506107016004356129db565b604080519b8c5260208c019a909a528a8a019890985260608a0196909652608089019490945260a088019290925260c0870152151560e086015261010085015261012084015261014083015251908190036101600190f35b34801561076557600080fd5b50610476600160a060020a0360043516602435612a48565b34801561078957600080fd5b506040805160206004803580820135838102808601850190965280855261020f95369593946024949385019291829185019084908082843750506040805187358901803560208181028481018201909552818452989b9a998901989297509082019550935083925085019084908082843750949750612ad49650505050505050565b34801561081757600080fd5b506105a1600435612e53565b34801561082f57600080fd5b5061020f600435612e6e565b34801561084757600080fd5b50610850613373565b6040518080602001806020018060200180602001806020018060200187810387528d818151815260200191508051906020019060200280838360005b838110156108a457818101518382015260200161088c565b5050505090500187810386528c818151815260200191508051906020019060200280838360005b838110156108e35781810151838201526020016108cb565b5050505090500187810385528b818151815260200191508051906020019060200280838360005b8381101561092257818101518382015260200161090a565b5050505090500187810384528a818151815260200191508051906020019060200280838360005b83811015610961578181015183820152602001610949565b50505050905001878103835289818151815260200191508051906020019060200280838360005b838110156109a0578181015183820152602001610988565b50505050905001878103825288818151815260200191508051906020019060200280838360005b838110156109df5781810151838201526020016109c7565b505050509050019c5050505050505050505050505060405180910390f35b348015610a0957600080fd5b5061020f600435602435600160a060020a0360443516606435608435613563565b348015610a3657600080fd5b506105a161374f565b348015610a4b57600080fd5b506105a160043561375e565b348015610a6357600080fd5b506104f4613786565b348015610a7857600080fd5b506105a1613801565b348015610a8d57600080fd5b506040805160206004803580820135838102808601850190965280855261020f953695939460249493850192918291850190849080828437509497506138109650505050505050565b348015610ae257600080fd5b50610226613bdc565b348015610af757600080fd5b5061020f600435602435604435613c00565b348015610b1557600080fd5b506104f461410c565b348015610b2a57600080fd5b5061085060043561416e565b348015610b4257600080fd5b50610226614622565b600060d060020a654d414e41474502600080600660009054906101000a9004600160a060020a0316600160a060020a0316638da5cb5b6040518163ffffffff1660e060020a028152600401602060405180830381600087803b158015610bb057600080fd5b505af1158015610bc4573d6000803e3d6000fd5b505050506040513d6020811015610bda57600080fd5b505160055433600160a060020a039283168114945091161490508180610bfd5750805b80610c8d57506006546040805160e060020a638658b8b9028152336004820152306024820152604481018690529051600160a060020a0390921691638658b8b9916064808201926020929091908290030181600087803b158015610c6057600080fd5b505af1158015610c74573d6000803e3d6000fd5b505050506040513d6020811015610c8a57600080fd5b50515b1515610cd1576040805160e560020a62461bcd0281526020600482015260176024820152600080516020615478833981519152604482015290519081900360640190fd5b670de0b6b3a7640000851115610d31576040805160e560020a62461bcd02815260206004820152601960248201527f496e636f72726563742077697468686f6c64696e672074617800000000000000604482015290519081900360640190fd5b7f3587f82979516528f7ce51509410f4d49aaed2fe4c2661c07a02cc17ea1410278686426040518080602001848152602001838152602001828103825285818151815260200191508051906020019060200280838360005b83811015610da1578181015183820152602001610d89565b5050505090500194505050505060405180910390a1600093505b8551841015610e055784600460008887815181101515610dd757fe5b6020908102909101810151600160a060020a0316825281019190915260400160002055600190930192610dbb565b505050505050565b60015481565b60005b90565b600060d060020a654d414e41474502600080600660009054906101000a9004600160a060020a0316600160a060020a0316638da5cb5b6040518163ffffffff1660e060020a028152600401602060405180830381600087803b158015610e7e57600080fd5b505af1158015610e92573d6000803e3d6000fd5b505050506040513d6020811015610ea857600080fd5b505160055433600160a060020a039283168114945091161490508180610ecb5750805b80610f5b57506006546040805160e060020a638658b8b9028152336004820152306024820152604481018690529051600160a060020a0390921691638658b8b9916064808201926020929091908290030181600087803b158015610f2e57600080fd5b505af1158015610f42573d6000803e3d6000fd5b505050506040513d6020811015610f5857600080fd5b50515b1515610f9f576040805160e560020a62461bcd0281526020600482015260176024820152600080516020615478833981519152604482015290519081900360640190fd5b600660009054906101000a9004600160a060020a0316600160a060020a031663ff0b9c906040518163ffffffff1660e060020a028152600401602060405180830381600087803b158015610ff257600080fd5b505af1158015611006573d6000803e3d6000fd5b505050506040513d602081101561101c57600080fd5b5051935061102f8a8a8a8a888b8b614843565b50505050505050505050565b60008060008060008060028781548110151561105357fe5b90600052602060002090600e020160010154955060028781548110151561107657fe5b90600052602060002090600e020160020154945060028781548110151561109957fe5b90600052602060002090600e02016003015493506002878154811015156110bc57fe5b90600052602060002090600e02016004015492506002878154811015156110df57fe5b90600052602060002090600e020160050154915060028781548110151561110257fe5b90600052602060002090600e0201600d0154905091939550919395565b6002546000908290811061116b576040805160e560020a62461bcd0281526020600482015260106024820152600080516020615438833981519152604482015290519081900360640190fd5b600280548290811061117957fe5b600091825260209091206007600e90920201015460ff16156111e5576040805160e560020a62461bcd02815260206004820152601260248201527f4469766964656e64207265636c61696d65640000000000000000000000000000604482015290519081900360640190fd5b60028054829081106111f357fe5b90600052602060002090600e020160020154421015151561125e576040805160e560020a62461bcd02815260206004820152601b60248201527f4469766964656e64206d6174757269747920696e206675747572650000000000604482015290519081900360640190fd5b600280548290811061126c57fe5b90600052602060002090600e020160030154421015156112d6576040805160e560020a62461bcd02815260206004820152601760248201527f4469766964656e642065787069727920696e2070617374000000000000000000604482015290519081900360640190fd5b60028054849081106112e457fe5b60009182526020808320338452600a600e90930201918201905260409091205490925060ff161561135f576040805160e560020a62461bcd02815260206004820152601860248201527f4469766964656e6420616c726561647920636c61696d65640000000000000000604482015290519081900360640190fd5b336000908152600b8301602052604090205460ff16156113ef576040805160e560020a62461bcd02815260206004820152602160248201527f6d73672e73656e646572206578636c756465642066726f6d204469766964656e60448201527f6400000000000000000000000000000000000000000000000000000000000000606482015290519081900360840190fd5b6113fa3383856150a5565b505050565b600080600060d060020a654d414e41474502600080600660009054906101000a9004600160a060020a0316600160a060020a0316638da5cb5b6040518163ffffffff1660e060020a028152600401602060405180830381600087803b15801561146757600080fd5b505af115801561147b573d6000803e3d6000fd5b505050506040513d602081101561149157600080fd5b505160055433600160a060020a0392831681149450911614905081806114b45750805b8061154457506006546040805160e060020a638658b8b9028152336004820152306024820152604481018690529051600160a060020a0390921691638658b8b9916064808201926020929091908290030181600087803b15801561151757600080fd5b505af115801561152b573d6000803e3d6000fd5b505050506040513d602081101561154157600080fd5b50515b1515611588576040805160e560020a62461bcd0281526020600482015260176024820152600080516020615478833981519152604482015290519081900360640190fd5b60025487106115cf576040805160e560020a62461bcd0281526020600482015260106024820152600080516020615438833981519152604482015290519081900360640190fd5b60028054889081106115dd57fe5b90600052602060002090600e02019550611608866009015487600801546152b490919063ffffffff16565b60088701546009880155600654604080517f8da5cb5b0000000000000000000000000000000000000000000000000000000081529051929750600160a060020a0390911691638da5cb5b916004808201926020929091908290030181600087803b15801561167557600080fd5b505af1158015611689573d6000803e3d6000fd5b505050506040513d602081101561169f57600080fd5b50516000888152602081815260408083205481517fa9059cbb000000000000000000000000000000000000000000000000000000008152600160a060020a038087166004830152602482018c9052925195995091169363a9059cbb93604480840194938390030190829087803b15801561171857600080fd5b505af115801561172c573d6000803e3d6000fd5b505050506040513d602081101561174257600080fd5b5051151561179a576040805160e560020a62461bcd02815260206004820152600f60248201527f7472616e73666572206661696c65640000000000000000000000000000000000604482015290519081900360640190fd5b600087815260208181526040918290205482518881529251600160a060020a03918216938b93928916927f31342482aee689b025c9cbe348134fefee05df6d6ac65a91dd6b0abdf454539f92918290030190a450505050505050565b7f434845434b504f494e540000000000000000000000000000000000000000000081565b60d060020a654d414e41474502600080600660009054906101000a9004600160a060020a0316600160a060020a0316638da5cb5b6040518163ffffffff1660e060020a028152600401602060405180830381600087803b15801561187d57600080fd5b505af1158015611891573d6000803e3d6000fd5b505050506040513d60208110156118a757600080fd5b505160055433600160a060020a0392831681149450911614905081806118ca5750805b8061195a57506006546040805160e060020a638658b8b9028152336004820152306024820152604481018690529051600160a060020a0390921691638658b8b9916064808201926020929091908290030181600087803b15801561192d57600080fd5b505af1158015611941573d6000803e3d6000fd5b505050506040513d602081101561195757600080fd5b50515b151561199e576040805160e560020a62461bcd0281526020600482015260176024820152600080516020615478833981519152604482015290519081900360640190fd5b61102f8a8a8a8a8a8a8a614843565b600080600080516020615458833981519152600080600660009054906101000a9004600160a060020a0316600160a060020a0316638da5cb5b6040518163ffffffff1660e060020a028152600401602060405180830381600087803b158015611a1557600080fd5b505af1158015611a29573d6000803e3d6000fd5b505050506040513d6020811015611a3f57600080fd5b505160055433600160a060020a039283168114945091161490508180611a625750805b80611af257506006546040805160e060020a638658b8b9028152336004820152306024820152604481018690529051600160a060020a0390921691638658b8b9916064808201926020929091908290030181600087803b158015611ac557600080fd5b505af1158015611ad9573d6000803e3d6000fd5b505050506040513d6020811015611aef57600080fd5b50515b1515611b36576040805160e560020a62461bcd0281526020600482015260176024820152600080516020615478833981519152604482015290519081900360640190fd5b60025487908110611b7f576040805160e560020a62461bcd0281526020600482015260106024820152600080516020615438833981519152604482015290519081900360640190fd5b6002805482908110611b8d57fe5b600091825260209091206007600e90920201015460ff1615611bf9576040805160e560020a62461bcd02815260206004820152601260248201527f4469766964656e64207265636c61696d65640000000000000000000000000000604482015290519081900360640190fd5b6002805482908110611c0757fe5b90600052602060002090600e0201600201544210151515611c72576040805160e560020a62461bcd02815260206004820152601b60248201527f4469766964656e64206d6174757269747920696e206675747572650000000000604482015290519081900360640190fd5b6002805482908110611c8057fe5b90600052602060002090600e02016003015442101515611cea576040805160e560020a62461bcd02815260206004820152601760248201527f4469766964656e642065787069727920696e2070617374000000000000000000604482015290519081900360640190fd5b6002805489908110611cf857fe5b90600052602060002090600e02019550600094505b8651851015611dc65785600a0160008887815181101515611d2a57fe5b6020908102909101810151600160a060020a031682528101919091526040016000205460ff16158015611d94575085600b0160008887815181101515611d6c57fe5b6020908102909101810151600160a060020a031682528101919091526040016000205460ff16155b15611dbb57611dbb8786815181101515611daa57fe5b90602001906020020151878a6150a5565b600190940193611d0d565b5050505050505050565b6002546000908210611e1a576040805160e560020a62461bcd0281526020600482015260106024820152600080516020615438833981519152604482015290519081900360640190fd5b6002805483908110611e2857fe5b60009182526020808320600160a060020a0387168452600a600e90930201919091019052604090205460ff1690505b92915050565b60008060008060008060028054905088101515611eb2576040805160e560020a62461bcd0281526020600482015260106024820152600080516020615438833981519152604482015290519081900360640190fd5b6002805489908110611ec057fe5b60009182526020808320600160a060020a038b168452600a600e90930201918201905260409091205490945060ff1680611f145750600160a060020a0387166000908152600b8501602052604090205460ff165b15611f255760009550859450612035565b6006548454604080517f4ee2cd7e000000000000000000000000000000000000000000000000000000008152600160a060020a038b81166004830152602482019390935290519190921691634ee2cd7e9160448083019260209291908290030181600087803b158015611f9757600080fd5b505af1158015611fab573d6000803e3d6000fd5b505050506040513d6020811015611fc157600080fd5b505160068501546004860154919450611ff191611fe590869063ffffffff6152c616565b9063ffffffff6152ef16565b600160a060020a03881660009081526004602052604090205490925061202c90670de0b6b3a764000090611fe590859063ffffffff6152c616565b90508181955095505b505050509250929050565b60d060020a654d414e4147450281565b606060008082815b60025483101561209c578560028481548110151561207257fe5b90600052602060002090600e0201600001541415612091576001909301925b600190920191612058565b836040519080825280602002602001820160405280156120c6578160200160208202803883390190505b50915060009350600090505b60025481101561212c57856002828154811015156120ec57fe5b90600052602060002090600e02016000015414156121245780828581518110151561211357fe5b602090810290910101526001909301925b6001016120d2565b50949350505050565b60007f4645455f41444d494e0000000000000000000000000000000000000000000000600080600660009054906101000a9004600160a060020a0316600160a060020a0316638da5cb5b6040518163ffffffff1660e060020a028152600401602060405180830381600087803b1580156121ae57600080fd5b505af11580156121c2573d6000803e3d6000fd5b505050506040513d60208110156121d857600080fd5b505160055433600160a060020a0392831681149450911614905081806121fb5750805b8061228b57506006546040805160e060020a638658b8b9028152336004820152306024820152604481018690529051600160a060020a0390921691638658b8b9916064808201926020929091908290030181600087803b15801561225e57600080fd5b505af1158015612272573d6000803e3d6000fd5b505050506040513d602081101561228857600080fd5b50515b15156122cf576040805160e560020a62461bcd0281526020600482015260176024820152600080516020615478833981519152604482015290519081900360640190fd5b600754600654600554604080517f8da5cb5b0000000000000000000000000000000000000000000000000000000081529051600160a060020a03948516946323b872dd948116931691638da5cb5b9160048083019260209291908290030181600087803b15801561233f57600080fd5b505af1158015612353573d6000803e3d6000fd5b505050506040513d602081101561236957600080fd5b50516040805160e060020a63ffffffff8616028152600160a060020a039384166004820152929091166024830152604482018990525160648083019260209291908290030181600087803b1580156123c057600080fd5b505af11580156123d4573d6000803e3d6000fd5b505050506040513d60208110156123ea57600080fd5b50511515612442576040805160e560020a62461bcd02815260206004820152601260248201527f556e61626c6520746f2074616b65206665650000000000000000000000000000604482015290519081900360640190fd5b506001949350505050565b60d060020a654d414e41474502600080600660009054906101000a9004600160a060020a0316600160a060020a0316638da5cb5b6040518163ffffffff1660e060020a028152600401602060405180830381600087803b1580156124b057600080fd5b505af11580156124c4573d6000803e3d6000fd5b505050506040513d60208110156124da57600080fd5b505160055433600160a060020a0392831681149450911614905081806124fd5750805b8061258d57506006546040805160e060020a638658b8b9028152336004820152306024820152604481018690529051600160a060020a0390921691638658b8b9916064808201926020929091908290030181600087803b15801561256057600080fd5b505af1158015612574573d6000803e3d6000fd5b505050506040513d602081101561258a57600080fd5b50515b15156125d1576040805160e560020a62461bcd0281526020600482015260176024820152600080516020615478833981519152604482015290519081900360640190fd5b61263a8989898989600380548060200260200160405190810160405280929190818152602001828054801561262f57602002820191906000526020600020905b8154600160a060020a03168152600190910190602001808311612611575b50505050508a614843565b505050505050505050565b600754600160a060020a031681565b60046020526000908152604090205481565b60608060606000600660009054906101000a9004600160a060020a0316600160a060020a0316635488cc806040518163ffffffff1660e060020a028152600401602060405180830381600087803b1580156126c057600080fd5b505af11580156126d4573d6000803e3d6000fd5b505050506040513d60208110156126ea57600080fd5b5051851115612743576040805160e560020a62461bcd02815260206004820152601260248201527f496e76616c696420636865636b706f696e740000000000000000000000000000604482015290519081900360640190fd5b600654604080517f3f553586000000000000000000000000000000000000000000000000000000008152600481018890529051600160a060020a0390921691633f5535869160248082019260009290919082900301818387803b1580156127a957600080fd5b505af11580156127bd573d6000803e3d6000fd5b505050506040513d6000823e601f3d908101601f1916820160405260208110156127e657600080fd5b8101908080516401000000008111156127fe57600080fd5b8201602081018481111561281157600080fd5b815185602082028301116401000000008211171561282e57600080fd5b505092919050505093508351604051908082528060200260200182016040528015612863578160200160208202803883390190505b5092508351604051908082528060200260200182016040528015612891578160200160208202803883390190505b5091505b83518110156129c1576006548451600160a060020a0390911690634ee2cd7e908690849081106128c157fe5b90602001906020020151876040518363ffffffff1660e060020a0281526004018083600160a060020a0316600160a060020a0316815260200182815260200192505050602060405180830381600087803b15801561291e57600080fd5b505af1158015612932573d6000803e3d6000fd5b505050506040513d602081101561294857600080fd5b5051835184908390811061295857fe5b60209081029091010152835160049060009086908490811061297657fe5b90602001906020020151600160a060020a0316600160a060020a031681526020019081526020016000205482828151811015156129af57fe5b60209081029091010152600101612895565b509193909250565b60008051602061545883398151915281565b60028054829081106129e957fe5b60009182526020909120600e9091020180546001820154600283015460038401546004850154600586015460068701546007880154600889015460098a0154600d909a0154989a5096989597949693959294919360ff9091169290918b565b6002546000908210612a92576040805160e560020a62461bcd0281526020600482015260106024820152600080516020615438833981519152604482015290519081900360640190fd5b6002805483908110612aa057fe5b60009182526020808320600160a060020a0387168452600b600e90930201919091019052604090205460ff16905092915050565b600060d060020a654d414e41474502600080600660009054906101000a9004600160a060020a0316600160a060020a0316638da5cb5b6040518163ffffffff1660e060020a028152600401602060405180830381600087803b158015612b3957600080fd5b505af1158015612b4d573d6000803e3d6000fd5b505050506040513d6020811015612b6357600080fd5b505160055433600160a060020a039283168114945091161490508180612b865750805b80612c1657506006546040805160e060020a638658b8b9028152336004820152306024820152604481018690529051600160a060020a0390921691638658b8b9916064808201926020929091908290030181600087803b158015612be957600080fd5b505af1158015612bfd573d6000803e3d6000fd5b505050506040513d6020811015612c1357600080fd5b50515b1515612c5a576040805160e560020a62461bcd0281526020600482015260176024820152600080516020615478833981519152604482015290519081900360640190fd5b8451865114612cb3576040805160e560020a62461bcd02815260206004820152601860248201527f4d69736d61746368656420696e707574206c656e677468730000000000000000604482015290519081900360640190fd5b7f8e6f19b496a634d6fb5faea10ece2675995b6f7a0946a7509885eb76889e1213868642604051808060200180602001848152602001838103835286818151815260200191508051906020019060200280838360005b83811015612d21578181015183820152602001612d09565b50505050905001838103825285818151815260200191508051906020019060200280838360005b83811015612d60578181015183820152602001612d48565b505050509050019550505050505060405180910390a1600093505b8551841015610e0557670de0b6b3a76400008585815181101515612d9b57fe5b602090810290910101511115612dfb576040805160e560020a62461bcd02815260206004820152601960248201527f496e636f72726563742077697468686f6c64696e672074617800000000000000604482015290519081900360640190fd5b8484815181101515612e0957fe5b90602001906020020151600460008887815181101515612e2557fe5b6020908102909101810151600160a060020a0316825281019190915260400160002055600190930192612d7b565b600060208190529081526040902054600160a060020a031681565b600080600060d060020a654d414e41474502600080600660009054906101000a9004600160a060020a0316600160a060020a0316638da5cb5b6040518163ffffffff1660e060020a028152600401602060405180830381600087803b158015612ed657600080fd5b505af1158015612eea573d6000803e3d6000fd5b505050506040513d6020811015612f0057600080fd5b505160055433600160a060020a039283168114945091161490508180612f235750805b80612fb357506006546040805160e060020a638658b8b9028152336004820152306024820152604481018690529051600160a060020a0390921691638658b8b9916064808201926020929091908290030181600087803b158015612f8657600080fd5b505af1158015612f9a573d6000803e3d6000fd5b505050506040513d6020811015612fb057600080fd5b50515b1515612ff7576040805160e560020a62461bcd0281526020600482015260176024820152600080516020615478833981519152604482015290519081900360640190fd5b600254871061303e576040805160e560020a62461bcd0281526020600482015260106024820152600080516020615438833981519152604482015290519081900360640190fd5b600280548890811061304c57fe5b90600052602060002090600e02016003015442101515156130b7576040805160e560020a62461bcd02815260206004820152601960248201527f4469766964656e642065787069727920696e2066757475726500000000000000604482015290519081900360640190fd5b60028054889081106130c557fe5b600091825260209091206007600e90920201015460ff1615613131576040805160e560020a62461bcd02815260206004820152600f60248201527f616c726561647920636c61696d65640000000000000000000000000000000000604482015290519081900360640190fd5b600160028881548110151561314257fe5b60009182526020909120600e90910201600701805460ff1916911515919091179055600280548890811061317257fe5b90600052602060002090600e0201955061319d866005015487600401546152b490919063ffffffff16565b9450600660009054906101000a9004600160a060020a0316600160a060020a0316638da5cb5b6040518163ffffffff1660e060020a028152600401602060405180830381600087803b1580156131f257600080fd5b505af1158015613206573d6000803e3d6000fd5b505050506040513d602081101561321c57600080fd5b50516000888152602081815260408083205481517fa9059cbb000000000000000000000000000000000000000000000000000000008152600160a060020a038087166004830152602482018c9052925195995091169363a9059cbb93604480840194938390030190829087803b15801561329557600080fd5b505af11580156132a9573d6000803e3d6000fd5b505050506040513d60208110156132bf57600080fd5b50511515613317576040805160e560020a62461bcd02815260206004820152600f60248201527f7472616e73666572206661696c65640000000000000000000000000000000000604482015290519081900360640190fd5b600087815260208181526040918290205482518881529251600160a060020a03918216938b93928916927f9766d0325a2a3c017f6cf974bfd1bd0b26e705570ce8250fe5e078a3e832d52d92918290030190a450505050505050565b60608060608060608060006002805490506040519080825280602002602001820160405280156133ad578160200160208202803883390190505b5060025460408051828152602080840282010190915291985080156133dc578160200160208202803883390190505b50600254604080518281526020808402820101909152919750801561340b578160200160208202803883390190505b50600254604080518281526020808402820101909152919650801561343a578160200160208202803883390190505b506002546040805182815260208084028201019091529195508015613469578160200160208202803883390190505b506002546040805182815260208084028201019091529194508015613498578160200160208202803883390190505b509150600090505b60025481101561355a576134b38161103b565b8c878151811015156134c157fe5b9060200190602002018c888151811015156134d857fe5b9060200190602002018c898151811015156134ef57fe5b9060200190602002018c8a81518110151561350657fe5b9060200190602002018c8b81518110151561351d57fe5b9060200190602002018c8c81518110151561353457fe5b6020908102909101019590955294909352939092529290925291909152526001016134a0565b50909192939495565b60d060020a654d414e41474502600080600660009054906101000a9004600160a060020a0316600160a060020a0316638da5cb5b6040518163ffffffff1660e060020a028152600401602060405180830381600087803b1580156135c657600080fd5b505af11580156135da573d6000803e3d6000fd5b505050506040513d60208110156135f057600080fd5b505160055433600160a060020a0392831681149450911614905081806136135750805b806136a357506006546040805160e060020a638658b8b9028152336004820152306024820152604481018690529051600160a060020a0390921691638658b8b9916064808201926020929091908290030181600087803b15801561367657600080fd5b505af115801561368a573d6000803e3d6000fd5b505050506040513d60208110156136a057600080fd5b50515b15156136e7576040805160e560020a62461bcd0281526020600482015260176024820152600080516020615478833981519152604482015290519081900360640190fd5b611dc688888888600380548060200260200160405190810160405280929190818152602001828054801561374457602002820191906000526020600020905b8154600160a060020a03168152600190910190602001808311613726575b505050505089610e19565b600654600160a060020a031681565b600380548290811061376c57fe5b600091825260209091200154600160a060020a0316905081565b6040805160028082526060808301845292839291906020830190803883390190505090506000805160206154588339815191528160008151811015156137c857fe5b60209081029091010152805160d060020a654d414e4147450290829060019081106137ef57fe5b602090810290910101529050805b5090565b600554600160a060020a031681565b60008060d060020a654d414e41474502600080600660009054906101000a9004600160a060020a0316600160a060020a0316638da5cb5b6040518163ffffffff1660e060020a028152600401602060405180830381600087803b15801561387657600080fd5b505af115801561388a573d6000803e3d6000fd5b505050506040513d60208110156138a057600080fd5b505160055433600160a060020a0392831681149450911614905081806138c35750805b8061395357506006546040805160e060020a638658b8b9028152336004820152306024820152604481018690529051600160a060020a0390921691638658b8b9916064808201926020929091908290030181600087803b15801561392657600080fd5b505af115801561393a573d6000803e3d6000fd5b505050506040513d602081101561395057600080fd5b50515b1515613997576040805160e560020a62461bcd0281526020600482015260176024820152600080516020615478833981519152604482015290519081900360640190fd5b600154865111156139f2576040805160e560020a62461bcd02815260206004820152601b60248201527f546f6f206d616e79206578636c75646564206164647265737365730000000000604482015290519081900360640190fd5b600094505b8551851015613b38578551600090879087908110613a1157fe5b60209081029091010151600160a060020a03161415613a7a576040805160e560020a62461bcd02815260206004820152600f60248201527f496e76616c696420616464726573730000000000000000000000000000000000604482015290519081900360640190fd5b8460010193505b8551841015613b2d578584815181101515613a9857fe5b90602001906020020151600160a060020a03168686815181101515613ab957fe5b60209081029091010151600160a060020a03161415613b22576040805160e560020a62461bcd02815260206004820152601960248201527f4475706c6963617465206578636c756465206164647265737300000000000000604482015290519081900360640190fd5b600190930192613a81565b6001909401936139f7565b8551613b4b90600390602089019061539e565b507f6f7d61057c8835d8bd9272c926f638242a70f6441466ae91cd272872ed84151f60034260405180806020018381526020018281038252848181548152602001915080548015613bc557602002820191906000526020600020905b8154600160a060020a03168152600190910190602001808311613ba7575b5050935050505060405180910390a1505050505050565b7f4645455f41444d494e000000000000000000000000000000000000000000000081565b60008060606000806000600080516020615458833981519152600080600660009054906101000a9004600160a060020a0316600160a060020a0316638da5cb5b6040518163ffffffff1660e060020a028152600401602060405180830381600087803b158015613c6f57600080fd5b505af1158015613c83573d6000803e3d6000fd5b505050506040513d6020811015613c9957600080fd5b505160055433600160a060020a039283168114945091161490508180613cbc5750805b80613d4c57506006546040805160e060020a638658b8b9028152336004820152306024820152604481018690529051600160a060020a0390921691638658b8b9916064808201926020929091908290030181600087803b158015613d1f57600080fd5b505af1158015613d33573d6000803e3d6000fd5b505050506040513d6020811015613d4957600080fd5b50515b1515613d90576040805160e560020a62461bcd0281526020600482015260176024820152600080516020615478833981519152604482015290519081900360640190fd5b6002548c908110613dd9576040805160e560020a62461bcd0281526020600482015260106024820152600080516020615438833981519152604482015290519081900360640190fd5b6002805482908110613de757fe5b600091825260209091206007600e90920201015460ff1615613e53576040805160e560020a62461bcd02815260206004820152601260248201527f4469766964656e64207265636c61696d65640000000000000000000000000000604482015290519081900360640190fd5b6002805482908110613e6157fe5b90600052602060002090600e0201600201544210151515613ecc576040805160e560020a62461bcd02815260206004820152601b60248201527f4469766964656e64206d6174757269747920696e206675747572650000000000604482015290519081900360640190fd5b6002805482908110613eda57fe5b90600052602060002090600e02016003015442101515613f44576040805160e560020a62461bcd02815260206004820152601760248201527f4469766964656e642065787069727920696e2070617374000000000000000000604482015290519081900360640190fd5b600280548e908110613f5257fe5b600091825260208220600e909102018054600654604080517f3f553586000000000000000000000000000000000000000000000000000000008152600481018490529051939e50919c50600160a060020a031692633f5535869260248084019382900301818387803b158015613fc757600080fd5b505af1158015613fdb573d6000803e3d6000fd5b505050506040513d6000823e601f3d908101601f19168201604052602081101561400457600080fd5b81019080805164010000000081111561401c57600080fd5b8201602081018481111561402f57600080fd5b815185602082028301116401000000008211171561404c57600080fd5b50508051909b506140719350915061406c90508e8e63ffffffff61530416565b615311565b96508b95505b868610156140fd57878681518110151561408d57fe5b6020908102909101810151600160a060020a0381166000908152600a8d0190925260409091205490955060ff161580156140e25750600160a060020a0385166000908152600b8b01602052604090205460ff16155b156140f2576140f2858b8f6150a5565b600190950194614077565b50505050505050505050505050565b6060600380548060200260200160405190810160405280929190818152602001828054801561416457602002820191906000526020600020905b8154600160a060020a03168152600190910190602001808311614146575b5050505050905090565b60608060608060608060008060006002805490508a1015156141c8576040805160e560020a62461bcd0281526020600482015260106024820152600080516020615438833981519152604482015290519081900360640190fd5b600280548b9081106141d657fe5b600091825260208220600e909102018054600654604080517f3f553586000000000000000000000000000000000000000000000000000000008152600481018490529051939750919550600160a060020a031692633f5535869260248084019382900301818387803b15801561424b57600080fd5b505af115801561425f573d6000803e3d6000fd5b505050506040513d6000823e601f3d908101601f19168201604052602081101561428857600080fd5b8101908080516401000000008111156142a057600080fd5b820160208101848111156142b357600080fd5b81518560208202830111640100000000821117156142d057600080fd5b505092919050505098508851604051908082528060200260200182016040528015614305578160200160208202803883390190505b5097508851604051908082528060200260200182016040528015614333578160200160208202803883390190505b5096508851604051908082528060200260200182016040528015614361578160200160208202803883390190505b509550885160405190808252806020026020018201604052801561438f578160200160208202803883390190505b50945088516040519080825280602002602001820160405280156143bd578160200160208202803883390190505b5093505b88518110156146165782600a0160008a838151811015156143de57fe5b6020908102909101810151600160a060020a0316825281019190915260400160002054885160ff9091169089908390811061441557fe5b9115156020928302909101909101528851600b8401906000908b908490811061443a57fe5b6020908102909101810151600160a060020a0316825281019190915260400160002054875160ff9091169088908390811061447157fe5b9115156020928302909101909101526006548951600160a060020a0390911690634ee2cd7e908b90849081106144a357fe5b9060200190602002015185600001546040518363ffffffff1660e060020a0281526004018083600160a060020a0316600160a060020a0316815260200182815260200192505050602060405180830381600087803b15801561450457600080fd5b505af1158015614518573d6000803e3d6000fd5b505050506040513d602081101561452e57600080fd5b5051855186908390811061453e57fe5b60209081029091010152865187908290811061455657fe5b90602001906020020151151561460e5782600c0160008a8381518110151561457a57fe5b90602001906020020151600160a060020a0316600160a060020a031681526020019081526020016000205486828151811015156145b357fe5b90602001906020020181815250506145f58360060154611fe5856004015488858151811015156145df57fe5b602090810290910101519063ffffffff6152c616565b848281518110151561460357fe5b602090810290910101525b6001016143c1565b50505091939550919395565b60007f434845434b504f494e5400000000000000000000000000000000000000000000600080600660009054906101000a9004600160a060020a0316600160a060020a0316638da5cb5b6040518163ffffffff1660e060020a028152600401602060405180830381600087803b15801561469b57600080fd5b505af11580156146af573d6000803e3d6000fd5b505050506040513d60208110156146c557600080fd5b505160055433600160a060020a0392831681149450911614905081806146e85750805b8061477857506006546040805160e060020a638658b8b9028152336004820152306024820152604481018690529051600160a060020a0390921691638658b8b9916064808201926020929091908290030181600087803b15801561474b57600080fd5b505af115801561475f573d6000803e3d6000fd5b505050506040513d602081101561477557600080fd5b50515b15156147bc576040805160e560020a62461bcd0281526020600482015260176024820152600080516020615478833981519152604482015290519081900360640190fd5b600660009054906101000a9004600160a060020a0316600160a060020a031663ff0b9c906040518163ffffffff1660e060020a028152600401602060405180830381600087803b15801561480f57600080fd5b505af1158015614823573d6000803e3d6000fd5b505050506040513d602081101561483957600080fd5b5051935050505090565b6006546001548351600160a060020a039092169160009182918291829111156148b6576040805160e560020a62461bcd02815260206004820152601b60248201527f546f6f206d616e7920616464726573736573206578636c756465640000000000604482015290519081900360640190fd5b8b8b1161490d576040805160e560020a62461bcd02815260206004820152601660248201527f457870697279206265666f7265206d6174757269747900000000000000000000604482015290519081900360640190fd5b428b11614964576040805160e560020a62461bcd02815260206004820152600e60248201527f45787069727920696e2070617374000000000000000000000000000000000000604482015290519081900360640190fd5b600089116149bc576040805160e560020a62461bcd02815260206004820152601060248201527f4e6f206469766964656e642073656e7400000000000000000000000000000000604482015290519081900360640190fd5b600160a060020a038a161515614a1c576040805160e560020a62461bcd02815260206004820152600d60248201527f496e76616c696420746f6b656e00000000000000000000000000000000000000604482015290519081900360640190fd5b84600160a060020a0316635488cc806040518163ffffffff1660e060020a028152600401602060405180830381600087803b158015614a5a57600080fd5b505af1158015614a6e573d6000803e3d6000fd5b505050506040513d6020811015614a8457600080fd5b5051881115614add576040805160e560020a62461bcd02815260206004820152601260248201527f496e76616c696420636865636b706f696e740000000000000000000000000000604482015290519081900360640190fd5b604080517f23b872dd000000000000000000000000000000000000000000000000000000008152336004820152306024820152604481018b90529051600160a060020a038c16916323b872dd9160648083019260209291908290030181600087803b158015614b4b57600080fd5b505af1158015614b5f573d6000803e3d6000fd5b505050506040513d6020811015614b7557600080fd5b50511515614bcd576040805160e560020a62461bcd02815260206004820152601560248201527f696e737566666963656e7420616c6c6f77616e63650000000000000000000000604482015290519081900360640190fd5b7fff000000000000000000000000000000000000000000000000000000000000007f0100000000000000000000000000000000000000000000000000000000000000600088901a02161515614c2157600080fd5b600280549050935084600160a060020a031663981b24d0896040518263ffffffff1660e060020a02815260040180828152602001915050602060405180830381600087803b158015614c7257600080fd5b505af1158015614c86573d6000803e3d6000fd5b505050506040513d6020811015614c9c57600080fd5b81019080805190602001909291905050509250600091506002610160604051908101604052808a81526020014281526020018e81526020018d81526020018b81526020016000815260200160008152602001600015158152602001600081526020016000815260200188600019168152509080600181540180825580915050906001820390600052602060002090600e020160009091929091909150600082015181600001556020820151816001015560408201518160020155606082015181600301556080820151816004015560a0820151816005015560c0820151816006015560e08201518160070160006101000a81548160ff0219169083151502179055506101008201518160080155610120820151816009015561014082015181600d0190600019169055505050600090505b865181101561501e578651600090889083908110614de757fe5b60209081029091010151600160a060020a03161415614e50576040805160e560020a62461bcd02815260206004820152600f60248201527f496e76616c696420616464726573730000000000000000000000000000000000604482015290519081900360640190fd5b6002805485908110614e5e57fe5b90600052602060002090600e0201600b0160008883815181101515614e7f57fe5b6020908102909101810151600160a060020a031682528101919091526040016000205460ff1615614efa576040805160e560020a62461bcd02815260206004820152601560248201527f6475706564206578636c75646520616464726573730000000000000000000000604482015290519081900360640190fd5b614fb085600160a060020a0316634ee2cd7e8984815181101515614f1a57fe5b906020019060200201518b6040518363ffffffff1660e060020a0281526004018083600160a060020a0316600160a060020a0316815260200182815260200192505050602060405180830381600087803b158015614f7757600080fd5b505af1158015614f8b573d6000803e3d6000fd5b505050506040513d6020811015614fa157600080fd5b5051839063ffffffff61530416565b91506001600285815481101515614fc357fe5b90600052602060002090600e0201600b0160008984815181101515614fe457fe5b602090810291909101810151600160a060020a03168252810191909152604001600020805460ff1916911515919091179055600101614dcd565b61502e838363ffffffff6152b416565b600280548690811061503c57fe5b60009182526020808320600e92909202909101600601929092558581529081905260409020805473ffffffffffffffffffffffffffffffffffffffff1916600160a060020a038c16179055615097888d8d8d8d888a8d615329565b505050505050505050505050565b60008060006150b48487611e5d565b600160a060020a0388166000908152600a880160205260409020805460ff19166001179055600587015491945092506150f490849063ffffffff61530416565b6005860155615109838363ffffffff6152b416565b90506000811115610e05576000848152602081815260408083205481517fa9059cbb000000000000000000000000000000000000000000000000000000008152600160a060020a038b81166004830152602482018790529251929091169363a9059cbb9360448084019491939192918390030190829087803b15801561518e57600080fd5b505af11580156151a2573d6000803e3d6000fd5b505050506040513d60208110156151b857600080fd5b50511515615210576040805160e560020a62461bcd02815260206004820152600f60248201527f7472616e73666572206661696c65640000000000000000000000000000000000604482015290519081900360640190fd5b600082111561525157600885015461522e908363ffffffff61530416565b6008860155600160a060020a0386166000908152600c8601602052604090208290555b600084815260208181526040918290205482518681529182018590528251600160a060020a03918216938893928b16927fced5aaa2960f7fd397627b6d68ccb25eae2d3db92a459182962e6f9b5786241a929081900390910190a4505050505050565b6000828211156152c057fe5b50900390565b60008215156152d757506000611e57565b508181028183828115156152e757fe5b0414611e5757fe5b600081838115156152fc57fe5b049392505050565b81810182811015611e5757fe5b60008183106153205781615322565b825b9392505050565b60408051898152426020820152808201899052606081018890526080810186905260a0810185905260c0810184905290518291600160a060020a0388169133917f66944b9b992875f1854a548c80939651e27d9b825c50b81aee55a2882807e116919081900360e00190a45050505050505050565b828054828255906000526020600020908101928215615400579160200282015b82811115615400578251825473ffffffffffffffffffffffffffffffffffffffff1916600160a060020a039091161782556020909201916001909101906153be565b506137fd92610e169250905b808211156137fd57805473ffffffffffffffffffffffffffffffffffffffff1916815560010161540c5600496e76616c6964206469766964656e640000000000000000000000000000000044495354524942555445000000000000000000000000000000000000000000005065726d697373696f6e20636865636b206661696c6564000000000000000000a165627a7a723058200bf0fcd6609bcc0646574f76df9969796131e814771d15e05ebb7fe625ed462a0029",
    "source": "pragma solidity ^0.4.24;\r\n\r\nimport \"./DividendCheckpoint.sol\";\r\nimport \"./ERC20DividendCheckpointStorage.sol\";\r\nimport \"../../interfaces/IOwnable.sol\";\r\nimport \"../../interfaces/IERC20.sol\";\r\n\r\n/**\r\n * @title Checkpoint module for issuing ERC20 dividends\r\n */\r\ncontract ERC20DividendCheckpoint is ERC20DividendCheckpointStorage, DividendCheckpoint {\r\n    using SafeMath for uint256;\r\n\r\n    event ERC20DividendDeposited(\r\n        address indexed _depositor,\r\n        uint256 _checkpointId,\r\n        uint256 _created,\r\n        uint256 _maturity,\r\n        uint256 _expiry,\r\n        address indexed _token,\r\n        uint256 _amount,\r\n        uint256 _totalSupply,\r\n        uint256 _dividendIndex,\r\n        bytes32 indexed _name\r\n    );\r\n    event ERC20DividendClaimed(\r\n        address indexed _payee,\r\n        uint256 indexed _dividendIndex,\r\n        address indexed _token,\r\n        uint256 _amount,\r\n        uint256 _withheld\r\n    );\r\n    event ERC20DividendReclaimed(\r\n        address indexed _claimer,\r\n        uint256 indexed _dividendIndex,\r\n        address indexed _token,\r\n        uint256 _claimedAmount\r\n    );\r\n    event ERC20DividendWithholdingWithdrawn(\r\n        address indexed _claimer,\r\n        uint256 indexed _dividendIndex,\r\n        address indexed _token,\r\n        uint256 _withheldAmount\r\n    );\r\n\r\n    /**\r\n     * @notice Constructor\r\n     * @param _securityToken Address of the security token\r\n     * @param _polyAddress Address of the polytoken\r\n     */\r\n    constructor (address _securityToken, address _polyAddress) public\r\n    Module(_securityToken, _polyAddress)\r\n    {\r\n    }\r\n\r\n    /**\r\n     * @notice Creates a dividend and checkpoint for the dividend\r\n     * @param _maturity Time from which dividend can be paid\r\n     * @param _expiry Time until dividend can no longer be paid, and can be reclaimed by issuer\r\n     * @param _token Address of ERC20 token in which dividend is to be denominated\r\n     * @param _amount Amount of specified token for dividend\r\n     * @param _name Name/Title for identification\r\n     */\r\n    function createDividend(\r\n        uint256 _maturity,\r\n        uint256 _expiry,\r\n        address _token,\r\n        uint256 _amount,\r\n        bytes32 _name\r\n    )\r\n        external\r\n        withPerm(MANAGE)\r\n    {\r\n        createDividendWithExclusions(_maturity, _expiry, _token, _amount, excluded, _name);\r\n    }\r\n\r\n    /**\r\n     * @notice Creates a dividend with a provided checkpoint\r\n     * @param _maturity Time from which dividend can be paid\r\n     * @param _expiry Time until dividend can no longer be paid, and can be reclaimed by issuer\r\n     * @param _token Address of ERC20 token in which dividend is to be denominated\r\n     * @param _amount Amount of specified token for dividend\r\n     * @param _checkpointId Checkpoint id from which to create dividends\r\n     * @param _name Name/Title for identification\r\n     */\r\n    function createDividendWithCheckpoint(\r\n        uint256 _maturity,\r\n        uint256 _expiry,\r\n        address _token,\r\n        uint256 _amount,\r\n        uint256 _checkpointId,\r\n        bytes32 _name\r\n    )\r\n        external\r\n        withPerm(MANAGE)\r\n    {\r\n        _createDividendWithCheckpointAndExclusions(_maturity, _expiry, _token, _amount, _checkpointId, excluded, _name);\r\n    }\r\n\r\n    /**\r\n     * @notice Creates a dividend and checkpoint for the dividend\r\n     * @param _maturity Time from which dividend can be paid\r\n     * @param _expiry Time until dividend can no longer be paid, and can be reclaimed by issuer\r\n     * @param _token Address of ERC20 token in which dividend is to be denominated\r\n     * @param _amount Amount of specified token for dividend\r\n     * @param _excluded List of addresses to exclude\r\n     * @param _name Name/Title for identification\r\n     */\r\n    function createDividendWithExclusions(\r\n        uint256 _maturity,\r\n        uint256 _expiry,\r\n        address _token,\r\n        uint256 _amount,\r\n        address[] _excluded,\r\n        bytes32 _name\r\n    )\r\n        public\r\n        withPerm(MANAGE)\r\n    {\r\n        uint256 checkpointId = ISecurityToken(securityToken).createCheckpoint();\r\n        _createDividendWithCheckpointAndExclusions(_maturity, _expiry, _token, _amount, checkpointId, _excluded, _name);\r\n    }\r\n\r\n    /**\r\n     * @notice Creates a dividend with a provided checkpoint\r\n     * @param _maturity Time from which dividend can be paid\r\n     * @param _expiry Time until dividend can no longer be paid, and can be reclaimed by issuer\r\n     * @param _token Address of ERC20 token in which dividend is to be denominated\r\n     * @param _amount Amount of specified token for dividend\r\n     * @param _checkpointId Checkpoint id from which to create dividends\r\n     * @param _excluded List of addresses to exclude\r\n     * @param _name Name/Title for identification\r\n     */\r\n    function createDividendWithCheckpointAndExclusions(\r\n        uint256 _maturity,\r\n        uint256 _expiry,\r\n        address _token,\r\n        uint256 _amount,\r\n        uint256 _checkpointId,\r\n        address[] _excluded,\r\n        bytes32 _name\r\n    )\r\n        public\r\n        withPerm(MANAGE)\r\n    {\r\n        _createDividendWithCheckpointAndExclusions(_maturity, _expiry, _token, _amount, _checkpointId, _excluded, _name);\r\n    }\r\n\r\n    /**\r\n     * @notice Creates a dividend with a provided checkpoint\r\n     * @param _maturity Time from which dividend can be paid\r\n     * @param _expiry Time until dividend can no longer be paid, and can be reclaimed by issuer\r\n     * @param _token Address of ERC20 token in which dividend is to be denominated\r\n     * @param _amount Amount of specified token for dividend\r\n     * @param _checkpointId Checkpoint id from which to create dividends\r\n     * @param _excluded List of addresses to exclude\r\n     * @param _name Name/Title for identification\r\n     */\r\n    function _createDividendWithCheckpointAndExclusions(\r\n        uint256 _maturity,\r\n        uint256 _expiry,\r\n        address _token,\r\n        uint256 _amount,\r\n        uint256 _checkpointId,\r\n        address[] _excluded,\r\n        bytes32 _name\r\n    )\r\n        internal\r\n    {\r\n        ISecurityToken securityTokenInstance = ISecurityToken(securityToken);\r\n        require(_excluded.length <= EXCLUDED_ADDRESS_LIMIT, \"Too many addresses excluded\");\r\n        require(_expiry > _maturity, \"Expiry before maturity\");\r\n        /*solium-disable-next-line security/no-block-members*/\r\n        require(_expiry > now, \"Expiry in past\");\r\n        require(_amount > 0, \"No dividend sent\");\r\n        require(_token != address(0), \"Invalid token\");\r\n        require(_checkpointId <= securityTokenInstance.currentCheckpointId(), \"Invalid checkpoint\");\r\n        require(IERC20(_token).transferFrom(msg.sender, address(this), _amount), \"insufficent allowance\");\r\n        require(_name[0] != 0);\r\n        uint256 dividendIndex = dividends.length;\r\n        uint256 currentSupply = securityTokenInstance.totalSupplyAt(_checkpointId);\r\n        uint256 excludedSupply = 0;\r\n        dividends.push(\r\n          Dividend(\r\n            _checkpointId,\r\n            now, /*solium-disable-line security/no-block-members*/\r\n            _maturity,\r\n            _expiry,\r\n            _amount,\r\n            0,\r\n            0,\r\n            false,\r\n            0,\r\n            0,\r\n            _name\r\n          )\r\n        );\r\n\r\n        for (uint256 j = 0; j < _excluded.length; j++) {\r\n            require (_excluded[j] != address(0), \"Invalid address\");\r\n            require(!dividends[dividendIndex].dividendExcluded[_excluded[j]], \"duped exclude address\");\r\n            excludedSupply = excludedSupply.add(securityTokenInstance.balanceOfAt(_excluded[j], _checkpointId));\r\n            dividends[dividendIndex].dividendExcluded[_excluded[j]] = true;\r\n        }\r\n\r\n        dividends[dividendIndex].totalSupply = currentSupply.sub(excludedSupply);\r\n        dividendTokens[dividendIndex] = _token;\r\n        _emitERC20DividendDepositedEvent(_checkpointId, _maturity, _expiry, _token, _amount, currentSupply, dividendIndex, _name);\r\n    }\r\n\r\n    /**\r\n     * @notice Emits the ERC20DividendDeposited event.\r\n     * Seperated into a different function as a workaround for stack too deep error\r\n     */\r\n    function _emitERC20DividendDepositedEvent(\r\n        uint256 _checkpointId,\r\n        uint256 _maturity,\r\n        uint256 _expiry,\r\n        address _token,\r\n        uint256 _amount,\r\n        uint256 currentSupply,\r\n        uint256 dividendIndex,\r\n        bytes32 _name\r\n    )\r\n        internal\r\n    {\r\n        /*solium-disable-next-line security/no-block-members*/\r\n        emit ERC20DividendDeposited(msg.sender, _checkpointId, now, _maturity, _expiry, _token, _amount, currentSupply, dividendIndex, _name);\r\n    }\r\n\r\n    /**\r\n     * @notice Internal function for paying dividends\r\n     * @param _payee Address of investor\r\n     * @param _dividend Storage with previously issued dividends\r\n     * @param _dividendIndex Dividend to pay\r\n     */\r\n    function _payDividend(address _payee, Dividend storage _dividend, uint256 _dividendIndex) internal {\r\n        (uint256 claim, uint256 withheld) = calculateDividend(_dividendIndex, _payee);\r\n        _dividend.claimed[_payee] = true;\r\n        _dividend.claimedAmount = claim.add(_dividend.claimedAmount);\r\n        uint256 claimAfterWithheld = claim.sub(withheld);\r\n        if (claimAfterWithheld > 0) {\r\n            require(IERC20(dividendTokens[_dividendIndex]).transfer(_payee, claimAfterWithheld), \"transfer failed\");\r\n            if (withheld > 0) {\r\n                _dividend.totalWithheld = _dividend.totalWithheld.add(withheld);\r\n                _dividend.withheld[_payee] = withheld;\r\n            }\r\n            emit ERC20DividendClaimed(_payee, _dividendIndex, dividendTokens[_dividendIndex], claim, withheld);\r\n        }\r\n    }\r\n\r\n    /**\r\n     * @notice Issuer can reclaim remaining unclaimed dividend amounts, for expired dividends\r\n     * @param _dividendIndex Dividend to reclaim\r\n     */\r\n    function reclaimDividend(uint256 _dividendIndex) external withPerm(MANAGE) {\r\n        require(_dividendIndex < dividends.length, \"Invalid dividend\");\r\n        /*solium-disable-next-line security/no-block-members*/\r\n        require(now >= dividends[_dividendIndex].expiry, \"Dividend expiry in future\");\r\n        require(!dividends[_dividendIndex].reclaimed, \"already claimed\");\r\n        dividends[_dividendIndex].reclaimed = true;\r\n        Dividend storage dividend = dividends[_dividendIndex];\r\n        uint256 remainingAmount = dividend.amount.sub(dividend.claimedAmount);\r\n        address owner = IOwnable(securityToken).owner();\r\n        require(IERC20(dividendTokens[_dividendIndex]).transfer(owner, remainingAmount), \"transfer failed\");\r\n        emit ERC20DividendReclaimed(owner, _dividendIndex, dividendTokens[_dividendIndex], remainingAmount);\r\n    }\r\n\r\n    /**\r\n     * @notice Allows issuer to withdraw withheld tax\r\n     * @param _dividendIndex Dividend to withdraw from\r\n     */\r\n    function withdrawWithholding(uint256 _dividendIndex) external withPerm(MANAGE) {\r\n        require(_dividendIndex < dividends.length, \"Invalid dividend\");\r\n        Dividend storage dividend = dividends[_dividendIndex];\r\n        uint256 remainingWithheld = dividend.totalWithheld.sub(dividend.totalWithheldWithdrawn);\r\n        dividend.totalWithheldWithdrawn = dividend.totalWithheld;\r\n        address owner = IOwnable(securityToken).owner();\r\n        require(IERC20(dividendTokens[_dividendIndex]).transfer(owner, remainingWithheld), \"transfer failed\");\r\n        emit ERC20DividendWithholdingWithdrawn(owner, _dividendIndex, dividendTokens[_dividendIndex], remainingWithheld);\r\n    }\r\n\r\n}\r\n",
    "sourcePath": "/Users/polymath/polymath-core/contracts/modules/Checkpoint/ERC20DividendCheckpoint.sol",
    "compiler": {
        "name": "solc",
        "version": "0.4.24+commit.e67f0147.Emscripten.clang"
    },
    "schemaVersion": "2.0.1",
    "updatedAt": "2019-01-07T14:03:27.965Z"
}