{
    "contractName": "EtherDividendCheckpoint",
    "abi": [
        {
            "constant": false,
            "inputs": [
                {
                    "name": "_investors",
                    "type": "address[]"
                },
                {
                    "name": "_withholding",
                    "type": "uint256"
                }
            ],
            "name": "setWithholdingFixed",
            "outputs": [],
            "payable": false,
            "stateMutability": "nonpayable",
            "type": "function"
        },
        {
            "constant": true,
            "inputs": [],
            "name": "EXCLUDED_ADDRESS_LIMIT",
            "outputs": [
                {
                    "name": "",
                    "type": "uint256"
                }
            ],
            "payable": false,
            "stateMutability": "view",
            "type": "function"
        },
        {
            "constant": true,
            "inputs": [],
            "name": "getInitFunction",
            "outputs": [
                {
                    "name": "",
                    "type": "bytes4"
                }
            ],
            "payable": false,
            "stateMutability": "pure",
            "type": "function"
        },
        {
            "constant": true,
            "inputs": [
                {
                    "name": "_dividendIndex",
                    "type": "uint256"
                }
            ],
            "name": "getDividendData",
            "outputs": [
                {
                    "name": "created",
                    "type": "uint256"
                },
                {
                    "name": "maturity",
                    "type": "uint256"
                },
                {
                    "name": "expiry",
                    "type": "uint256"
                },
                {
                    "name": "amount",
                    "type": "uint256"
                },
                {
                    "name": "claimedAmount",
                    "type": "uint256"
                },
                {
                    "name": "name",
                    "type": "bytes32"
                }
            ],
            "payable": false,
            "stateMutability": "view",
            "type": "function"
        },
        {
            "constant": false,
            "inputs": [
                {
                    "name": "_dividendIndex",
                    "type": "uint256"
                }
            ],
            "name": "pullDividendPayment",
            "outputs": [],
            "payable": false,
            "stateMutability": "nonpayable",
            "type": "function"
        },
        {
            "constant": true,
            "inputs": [],
            "name": "CHECKPOINT",
            "outputs": [
                {
                    "name": "",
                    "type": "bytes32"
                }
            ],
            "payable": false,
            "stateMutability": "view",
            "type": "function"
        },
        {
            "constant": false,
            "inputs": [
                {
                    "name": "_dividendIndex",
                    "type": "uint256"
                },
                {
                    "name": "_payees",
                    "type": "address[]"
                }
            ],
            "name": "pushDividendPaymentToAddresses",
            "outputs": [],
            "payable": false,
            "stateMutability": "nonpayable",
            "type": "function"
        },
        {
            "constant": true,
            "inputs": [
                {
                    "name": "_investor",
                    "type": "address"
                },
                {
                    "name": "_dividendIndex",
                    "type": "uint256"
                }
            ],
            "name": "isClaimed",
            "outputs": [
                {
                    "name": "",
                    "type": "bool"
                }
            ],
            "payable": false,
            "stateMutability": "view",
            "type": "function"
        },
        {
            "constant": true,
            "inputs": [
                {
                    "name": "_dividendIndex",
                    "type": "uint256"
                },
                {
                    "name": "_payee",
                    "type": "address"
                }
            ],
            "name": "calculateDividend",
            "outputs": [
                {
                    "name": "",
                    "type": "uint256"
                },
                {
                    "name": "",
                    "type": "uint256"
                }
            ],
            "payable": false,
            "stateMutability": "view",
            "type": "function"
        },
        {
            "constant": true,
            "inputs": [],
            "name": "MANAGE",
            "outputs": [
                {
                    "name": "",
                    "type": "bytes32"
                }
            ],
            "payable": false,
            "stateMutability": "view",
            "type": "function"
        },
        {
            "constant": true,
            "inputs": [
                {
                    "name": "_checkpointId",
                    "type": "uint256"
                }
            ],
            "name": "getDividendIndex",
            "outputs": [
                {
                    "name": "",
                    "type": "uint256[]"
                }
            ],
            "payable": false,
            "stateMutability": "view",
            "type": "function"
        },
        {
            "constant": false,
            "inputs": [
                {
                    "name": "_amount",
                    "type": "uint256"
                }
            ],
            "name": "takeFee",
            "outputs": [
                {
                    "name": "",
                    "type": "bool"
                }
            ],
            "payable": false,
            "stateMutability": "nonpayable",
            "type": "function"
        },
        {
            "constant": true,
            "inputs": [],
            "name": "polyToken",
            "outputs": [
                {
                    "name": "",
                    "type": "address"
                }
            ],
            "payable": false,
            "stateMutability": "view",
            "type": "function"
        },
        {
            "constant": true,
            "inputs": [
                {
                    "name": "",
                    "type": "address"
                }
            ],
            "name": "withholdingTax",
            "outputs": [
                {
                    "name": "",
                    "type": "uint256"
                }
            ],
            "payable": false,
            "stateMutability": "view",
            "type": "function"
        },
        {
            "constant": true,
            "inputs": [
                {
                    "name": "_checkpointId",
                    "type": "uint256"
                }
            ],
            "name": "getCheckpointData",
            "outputs": [
                {
                    "name": "investors",
                    "type": "address[]"
                },
                {
                    "name": "balances",
                    "type": "uint256[]"
                },
                {
                    "name": "withholdings",
                    "type": "uint256[]"
                }
            ],
            "payable": false,
            "stateMutability": "view",
            "type": "function"
        },
        {
            "constant": true,
            "inputs": [],
            "name": "DISTRIBUTE",
            "outputs": [
                {
                    "name": "",
                    "type": "bytes32"
                }
            ],
            "payable": false,
            "stateMutability": "view",
            "type": "function"
        },
        {
            "constant": true,
            "inputs": [
                {
                    "name": "",
                    "type": "uint256"
                }
            ],
            "name": "dividends",
            "outputs": [
                {
                    "name": "checkpointId",
                    "type": "uint256"
                },
                {
                    "name": "created",
                    "type": "uint256"
                },
                {
                    "name": "maturity",
                    "type": "uint256"
                },
                {
                    "name": "expiry",
                    "type": "uint256"
                },
                {
                    "name": "amount",
                    "type": "uint256"
                },
                {
                    "name": "claimedAmount",
                    "type": "uint256"
                },
                {
                    "name": "totalSupply",
                    "type": "uint256"
                },
                {
                    "name": "reclaimed",
                    "type": "bool"
                },
                {
                    "name": "totalWithheld",
                    "type": "uint256"
                },
                {
                    "name": "totalWithheldWithdrawn",
                    "type": "uint256"
                },
                {
                    "name": "name",
                    "type": "bytes32"
                }
            ],
            "payable": false,
            "stateMutability": "view",
            "type": "function"
        },
        {
            "constant": true,
            "inputs": [
                {
                    "name": "_investor",
                    "type": "address"
                },
                {
                    "name": "_dividendIndex",
                    "type": "uint256"
                }
            ],
            "name": "isExcluded",
            "outputs": [
                {
                    "name": "",
                    "type": "bool"
                }
            ],
            "payable": false,
            "stateMutability": "view",
            "type": "function"
        },
        {
            "constant": false,
            "inputs": [
                {
                    "name": "_investors",
                    "type": "address[]"
                },
                {
                    "name": "_withholding",
                    "type": "uint256[]"
                }
            ],
            "name": "setWithholding",
            "outputs": [],
            "payable": false,
            "stateMutability": "nonpayable",
            "type": "function"
        },
        {
            "constant": true,
            "inputs": [],
            "name": "getDividendsData",
            "outputs": [
                {
                    "name": "createds",
                    "type": "uint256[]"
                },
                {
                    "name": "maturitys",
                    "type": "uint256[]"
                },
                {
                    "name": "expirys",
                    "type": "uint256[]"
                },
                {
                    "name": "amounts",
                    "type": "uint256[]"
                },
                {
                    "name": "claimedAmounts",
                    "type": "uint256[]"
                },
                {
                    "name": "names",
                    "type": "bytes32[]"
                }
            ],
            "payable": false,
            "stateMutability": "view",
            "type": "function"
        },
        {
            "constant": true,
            "inputs": [],
            "name": "securityToken",
            "outputs": [
                {
                    "name": "",
                    "type": "address"
                }
            ],
            "payable": false,
            "stateMutability": "view",
            "type": "function"
        },
        {
            "constant": true,
            "inputs": [
                {
                    "name": "",
                    "type": "uint256"
                }
            ],
            "name": "excluded",
            "outputs": [
                {
                    "name": "",
                    "type": "address"
                }
            ],
            "payable": false,
            "stateMutability": "view",
            "type": "function"
        },
        {
            "constant": true,
            "inputs": [],
            "name": "getPermissions",
            "outputs": [
                {
                    "name": "",
                    "type": "bytes32[]"
                }
            ],
            "payable": false,
            "stateMutability": "view",
            "type": "function"
        },
        {
            "constant": true,
            "inputs": [],
            "name": "factory",
            "outputs": [
                {
                    "name": "",
                    "type": "address"
                }
            ],
            "payable": false,
            "stateMutability": "view",
            "type": "function"
        },
        {
            "constant": false,
            "inputs": [
                {
                    "name": "_excluded",
                    "type": "address[]"
                }
            ],
            "name": "setDefaultExcluded",
            "outputs": [],
            "payable": false,
            "stateMutability": "nonpayable",
            "type": "function"
        },
        {
            "constant": true,
            "inputs": [],
            "name": "FEE_ADMIN",
            "outputs": [
                {
                    "name": "",
                    "type": "bytes32"
                }
            ],
            "payable": false,
            "stateMutability": "view",
            "type": "function"
        },
        {
            "constant": false,
            "inputs": [
                {
                    "name": "_dividendIndex",
                    "type": "uint256"
                },
                {
                    "name": "_start",
                    "type": "uint256"
                },
                {
                    "name": "_iterations",
                    "type": "uint256"
                }
            ],
            "name": "pushDividendPayment",
            "outputs": [],
            "payable": false,
            "stateMutability": "nonpayable",
            "type": "function"
        },
        {
            "constant": true,
            "inputs": [],
            "name": "getDefaultExcluded",
            "outputs": [
                {
                    "name": "",
                    "type": "address[]"
                }
            ],
            "payable": false,
            "stateMutability": "view",
            "type": "function"
        },
        {
            "constant": true,
            "inputs": [
                {
                    "name": "_dividendIndex",
                    "type": "uint256"
                }
            ],
            "name": "getDividendProgress",
            "outputs": [
                {
                    "name": "investors",
                    "type": "address[]"
                },
                {
                    "name": "resultClaimed",
                    "type": "bool[]"
                },
                {
                    "name": "resultExcluded",
                    "type": "bool[]"
                },
                {
                    "name": "resultWithheld",
                    "type": "uint256[]"
                },
                {
                    "name": "resultBalance",
                    "type": "uint256[]"
                },
                {
                    "name": "resultAmount",
                    "type": "uint256[]"
                }
            ],
            "payable": false,
            "stateMutability": "view",
            "type": "function"
        },
        {
            "constant": false,
            "inputs": [],
            "name": "createCheckpoint",
            "outputs": [
                {
                    "name": "",
                    "type": "uint256"
                }
            ],
            "payable": false,
            "stateMutability": "nonpayable",
            "type": "function"
        },
        {
            "inputs": [
                {
                    "name": "_securityToken",
                    "type": "address"
                },
                {
                    "name": "_polyAddress",
                    "type": "address"
                }
            ],
            "payable": false,
            "stateMutability": "nonpayable",
            "type": "constructor"
        },
        {
            "anonymous": false,
            "inputs": [
                {
                    "indexed": true,
                    "name": "_depositor",
                    "type": "address"
                },
                {
                    "indexed": false,
                    "name": "_checkpointId",
                    "type": "uint256"
                },
                {
                    "indexed": false,
                    "name": "_created",
                    "type": "uint256"
                },
                {
                    "indexed": false,
                    "name": "_maturity",
                    "type": "uint256"
                },
                {
                    "indexed": false,
                    "name": "_expiry",
                    "type": "uint256"
                },
                {
                    "indexed": false,
                    "name": "_amount",
                    "type": "uint256"
                },
                {
                    "indexed": false,
                    "name": "_totalSupply",
                    "type": "uint256"
                },
                {
                    "indexed": true,
                    "name": "_dividendIndex",
                    "type": "uint256"
                },
                {
                    "indexed": true,
                    "name": "_name",
                    "type": "bytes32"
                }
            ],
            "name": "EtherDividendDeposited",
            "type": "event"
        },
        {
            "anonymous": false,
            "inputs": [
                {
                    "indexed": true,
                    "name": "_payee",
                    "type": "address"
                },
                {
                    "indexed": true,
                    "name": "_dividendIndex",
                    "type": "uint256"
                },
                {
                    "indexed": false,
                    "name": "_amount",
                    "type": "uint256"
                },
                {
                    "indexed": false,
                    "name": "_withheld",
                    "type": "uint256"
                }
            ],
            "name": "EtherDividendClaimed",
            "type": "event"
        },
        {
            "anonymous": false,
            "inputs": [
                {
                    "indexed": true,
                    "name": "_claimer",
                    "type": "address"
                },
                {
                    "indexed": true,
                    "name": "_dividendIndex",
                    "type": "uint256"
                },
                {
                    "indexed": false,
                    "name": "_claimedAmount",
                    "type": "uint256"
                }
            ],
            "name": "EtherDividendReclaimed",
            "type": "event"
        },
        {
            "anonymous": false,
            "inputs": [
                {
                    "indexed": true,
                    "name": "_payee",
                    "type": "address"
                },
                {
                    "indexed": true,
                    "name": "_dividendIndex",
                    "type": "uint256"
                },
                {
                    "indexed": false,
                    "name": "_amount",
                    "type": "uint256"
                },
                {
                    "indexed": false,
                    "name": "_withheld",
                    "type": "uint256"
                }
            ],
            "name": "EtherDividendClaimFailed",
            "type": "event"
        },
        {
            "anonymous": false,
            "inputs": [
                {
                    "indexed": true,
                    "name": "_claimer",
                    "type": "address"
                },
                {
                    "indexed": true,
                    "name": "_dividendIndex",
                    "type": "uint256"
                },
                {
                    "indexed": false,
                    "name": "_withheldAmount",
                    "type": "uint256"
                }
            ],
            "name": "EtherDividendWithholdingWithdrawn",
            "type": "event"
        },
        {
            "anonymous": false,
            "inputs": [
                {
                    "indexed": false,
                    "name": "_excluded",
                    "type": "address[]"
                },
                {
                    "indexed": false,
                    "name": "_timestamp",
                    "type": "uint256"
                }
            ],
            "name": "SetDefaultExcludedAddresses",
            "type": "event"
        },
        {
            "anonymous": false,
            "inputs": [
                {
                    "indexed": false,
                    "name": "_investors",
                    "type": "address[]"
                },
                {
                    "indexed": false,
                    "name": "_withholding",
                    "type": "uint256[]"
                },
                {
                    "indexed": false,
                    "name": "_timestamp",
                    "type": "uint256"
                }
            ],
            "name": "SetWithholding",
            "type": "event"
        },
        {
            "anonymous": false,
            "inputs": [
                {
                    "indexed": false,
                    "name": "_investors",
                    "type": "address[]"
                },
                {
                    "indexed": false,
                    "name": "_withholding",
                    "type": "uint256"
                },
                {
                    "indexed": false,
                    "name": "_timestamp",
                    "type": "uint256"
                }
            ],
            "name": "SetWithholdingFixed",
            "type": "event"
        },
        {
            "constant": false,
            "inputs": [
                {
                    "name": "_maturity",
                    "type": "uint256"
                },
                {
                    "name": "_expiry",
                    "type": "uint256"
                },
                {
                    "name": "_name",
                    "type": "bytes32"
                }
            ],
            "name": "createDividend",
            "outputs": [],
            "payable": true,
            "stateMutability": "payable",
            "type": "function"
        },
        {
            "constant": false,
            "inputs": [
                {
                    "name": "_maturity",
                    "type": "uint256"
                },
                {
                    "name": "_expiry",
                    "type": "uint256"
                },
                {
                    "name": "_checkpointId",
                    "type": "uint256"
                },
                {
                    "name": "_name",
                    "type": "bytes32"
                }
            ],
            "name": "createDividendWithCheckpoint",
            "outputs": [],
            "payable": true,
            "stateMutability": "payable",
            "type": "function"
        },
        {
            "constant": false,
            "inputs": [
                {
                    "name": "_maturity",
                    "type": "uint256"
                },
                {
                    "name": "_expiry",
                    "type": "uint256"
                },
                {
                    "name": "_excluded",
                    "type": "address[]"
                },
                {
                    "name": "_name",
                    "type": "bytes32"
                }
            ],
            "name": "createDividendWithExclusions",
            "outputs": [],
            "payable": true,
            "stateMutability": "payable",
            "type": "function"
        },
        {
            "constant": false,
            "inputs": [
                {
                    "name": "_maturity",
                    "type": "uint256"
                },
                {
                    "name": "_expiry",
                    "type": "uint256"
                },
                {
                    "name": "_checkpointId",
                    "type": "uint256"
                },
                {
                    "name": "_excluded",
                    "type": "address[]"
                },
                {
                    "name": "_name",
                    "type": "bytes32"
                }
            ],
            "name": "createDividendWithCheckpointAndExclusions",
            "outputs": [],
            "payable": true,
            "stateMutability": "payable",
            "type": "function"
        },
        {
            "constant": false,
            "inputs": [
                {
                    "name": "_dividendIndex",
                    "type": "uint256"
                }
            ],
            "name": "reclaimDividend",
            "outputs": [],
            "payable": false,
            "stateMutability": "nonpayable",
            "type": "function"
        },
        {
            "constant": false,
            "inputs": [
                {
                    "name": "_dividendIndex",
                    "type": "uint256"
                }
            ],
            "name": "withdrawWithholding",
            "outputs": [],
            "payable": false,
            "stateMutability": "nonpayable",
            "type": "function"
        }
    ],
    "bytecode": "0x6080604052609660005534801561001557600080fd5b5060405160408061507783398101604052805160209091015160058054600160a060020a03938416600160a060020a0319918216179091556004805482163317905560068054939092169216919091179055615001806100766000396000f3006080604052600436106101a85763ffffffff60e060020a6000350416630945812e81146101ad5780630a29f591146102065780631613ec9d1461022d57806328d1feda1461027757806330008b48146102c2578063333cffe5146102da57806335d806f8146102f25780634d58e41314610307578063562beba8146103615780635bea0e1c146103995780635bf341c1146103d65780635daff64e146103eb5780635f7619a4146104535780636faa22a51461046b5780637a3e23fd1461049c5780637b4a223b146104bd57806380fef5af146105b3578063814b3fe0146105c857806381e97b66146106385780638596e6e61461065c578063aa8b76ea146106ea578063ac121dbf14610702578063b84dfbd2146108c4578063bea1c041146108d9578063bee2ddc214610932578063c3a07df61461094a578063c45a01551461095f578063cc1556dc14610974578063d70afa96146109c9578063dcef4b5d146109de578063e1726faa146109f2578063f1e9d10014610a10578063f4be43f414610a25578063f58b5bae14610a36578063fa67a7bb14610a89578063ff0b9c9014610aa1575b600080fd5b3480156101b957600080fd5b5060408051602060048035808201358381028086018501909652808552610204953695939460249493850192918291850190849080828437509497505093359450610ab69350505050565b005b34801561021257600080fd5b5061021b610d78565b60408051918252519081900360200190f35b34801561023957600080fd5b50610242610d7e565b604080517fffffffff000000000000000000000000000000000000000000000000000000009092168252519081900360200190f35b34801561028357600080fd5b5061028f600435610d84565b604080519687526020870195909552858501939093526060850191909152608084015260a0830152519081900360c00190f35b3480156102ce57600080fd5b50610204600435610e68565b3480156102e657600080fd5b50610204600435611148565b3480156102fe57600080fd5b5061021b61147f565b34801561031357600080fd5b50604080516020600460248035828101358481028087018601909752808652610204968435963696604495919490910192918291850190849080828437509497506114a39650505050505050565b34801561036d57600080fd5b50610385600160a060020a03600435166024356118c6565b604080519115158252519081900360200190f35b3480156103a557600080fd5b506103bd600435600160a060020a0360243516611953565b6040805192835260208301919091528051918290030190f35b3480156103e257600080fd5b5061021b611b36565b3480156103f757600080fd5b50610403600435611b46565b60408051602080825283518183015283519192839290830191858101910280838360005b8381101561043f578181015183820152602001610427565b505050509050019250505060405180910390f35b34801561045f57600080fd5b50610385600435611c2b565b34801561047757600080fd5b50610480611f43565b60408051600160a060020a039092168252519081900360200190f35b3480156104a857600080fd5b5061021b600160a060020a0360043516611f52565b3480156104c957600080fd5b506104d5600435611f64565b60405180806020018060200180602001848103845287818151815260200191508051906020019060200280838360005b8381101561051d578181015183820152602001610505565b50505050905001848103835286818151815260200191508051906020019060200280838360005b8381101561055c578181015183820152602001610544565b50505050905001848103825285818151815260200191508051906020019060200280838360005b8381101561059b578181015183820152602001610583565b50505050905001965050505050505060405180910390f35b3480156105bf57600080fd5b5061021b6122c7565b3480156105d457600080fd5b506105e06004356122d9565b604080519b8c5260208c019a909a528a8a019890985260608a0196909652608089019490945260a088019290925260c0870152151560e086015261010085015261012084015261014083015251908190036101600190f35b34801561064457600080fd5b50610385600160a060020a0360043516602435612346565b34801561066857600080fd5b506040805160206004803580820135838102808601850190965280855261020495369593946024949385019291829185019084908082843750506040805187358901803560208181028481018201909552818452989b9a9989019892975090820195509350839250850190849080828437509497506123d29650505050505050565b3480156106f657600080fd5b50610204600435612751565b34801561070e57600080fd5b50610717612b75565b6040518080602001806020018060200180602001806020018060200187810387528d818151815260200191508051906020019060200280838360005b8381101561076b578181015183820152602001610753565b5050505090500187810386528c818151815260200191508051906020019060200280838360005b838110156107aa578181015183820152602001610792565b5050505090500187810385528b818151815260200191508051906020019060200280838360005b838110156107e95781810151838201526020016107d1565b5050505090500187810384528a818151815260200191508051906020019060200280838360005b83811015610828578181015183820152602001610810565b50505050905001878103835289818151815260200191508051906020019060200280838360005b8381101561086757818101518382015260200161084f565b50505050905001878103825288818151815260200191508051906020019060200280838360005b838110156108a657818101518382015260200161088e565b505050509050019c5050505050505050505050505060405180910390f35b3480156108d057600080fd5b50610480612d65565b60408051606435600481810135602081810285810182019096528185526102049583359560248035966044359636969095608495929093019290918291850190849080828437509497505093359450612d749350505050565b34801561093e57600080fd5b50610480600435612f05565b34801561095657600080fd5b50610403612f2d565b34801561096b57600080fd5b50610480612fa8565b34801561098057600080fd5b506040805160206004803580820135838102808601850190965280855261020495369593946024949385019291829185019084908082843750949750612fb79650505050505050565b3480156109d557600080fd5b5061021b613383565b6102046004356024356044356064356133a7565b3480156109fe57600080fd5b5061020460043560243560443561359b565b348015610a1c57600080fd5b50610403613aa7565b610204600435602435604435613b09565b60408051602060046044358181013583810280860185019096528085526102049583359560248035963696956064959394920192918291850190849080828437509497505093359450613cef9350505050565b348015610a9557600080fd5b50610717600435613f03565b348015610aad57600080fd5b5061021b6143b7565b600060d060020a654d414e41474502600080600560009054906101000a9004600160a060020a0316600160a060020a0316638da5cb5b6040518163ffffffff1660e060020a028152600401602060405180830381600087803b158015610b1b57600080fd5b505af1158015610b2f573d6000803e3d6000fd5b505050506040513d6020811015610b4557600080fd5b505160045433600160a060020a039283168114945091161490508180610b685750805b80610bf857506005546040805160e060020a638658b8b9028152336004820152306024820152604481018690529051600160a060020a0390921691638658b8b9916064808201926020929091908290030181600087803b158015610bcb57600080fd5b505af1158015610bdf573d6000803e3d6000fd5b505050506040513d6020811015610bf557600080fd5b50515b1515610c3c576040805160e560020a62461bcd0281526020600482015260176024820152600080516020614fb6833981519152604482015290519081900360640190fd5b670de0b6b3a7640000851115610c9c576040805160e560020a62461bcd02815260206004820152601960248201527f496e636f72726563742077697468686f6c64696e672074617800000000000000604482015290519081900360640190fd5b7f3587f82979516528f7ce51509410f4d49aaed2fe4c2661c07a02cc17ea1410278686426040518080602001848152602001838152602001828103825285818151815260200191508051906020019060200280838360005b83811015610d0c578181015183820152602001610cf4565b5050505090500194505050505060405180910390a1600093505b8551841015610d705784600360008887815181101515610d4257fe5b6020908102909101810151600160a060020a0316825281019190915260400160002055600190930192610d26565b505050505050565b60005481565b60005b90565b600080600080600080600187815481101515610d9c57fe5b90600052602060002090600e0201600101549550600187815481101515610dbf57fe5b90600052602060002090600e0201600201549450600187815481101515610de257fe5b90600052602060002090600e0201600301549350600187815481101515610e0557fe5b90600052602060002090600e0201600401549250600187815481101515610e2857fe5b90600052602060002090600e0201600501549150600187815481101515610e4b57fe5b90600052602060002090600e0201600d0154905091939550919395565b60015460009082908110610eb4576040805160e560020a62461bcd0281526020600482015260106024820152600080516020614f76833981519152604482015290519081900360640190fd5b6001805482908110610ec257fe5b600091825260209091206007600e90920201015460ff1615610f2e576040805160e560020a62461bcd02815260206004820152601260248201527f4469766964656e64207265636c61696d65640000000000000000000000000000604482015290519081900360640190fd5b6001805482908110610f3c57fe5b90600052602060002090600e0201600201544210151515610fa7576040805160e560020a62461bcd02815260206004820152601b60248201527f4469766964656e64206d6174757269747920696e206675747572650000000000604482015290519081900360640190fd5b6001805482908110610fb557fe5b90600052602060002090600e0201600301544210151561101f576040805160e560020a62461bcd02815260206004820152601760248201527f4469766964656e642065787069727920696e2070617374000000000000000000604482015290519081900360640190fd5b600180548490811061102d57fe5b60009182526020808320338452600a600e90930201918201905260409091205490925060ff16156110a8576040805160e560020a62461bcd02815260206004820152601860248201527f4469766964656e6420616c726561647920636c61696d65640000000000000000604482015290519081900360640190fd5b336000908152600b8301602052604090205460ff1615611138576040805160e560020a62461bcd02815260206004820152602160248201527f6d73672e73656e646572206578636c756465642066726f6d204469766964656e60448201527f6400000000000000000000000000000000000000000000000000000000000000606482015290519081900360840190fd5b6111433383856145d8565b505050565b600080600060d060020a654d414e41474502600080600560009054906101000a9004600160a060020a0316600160a060020a0316638da5cb5b6040518163ffffffff1660e060020a028152600401602060405180830381600087803b1580156111b057600080fd5b505af11580156111c4573d6000803e3d6000fd5b505050506040513d60208110156111da57600080fd5b505160045433600160a060020a0392831681149450911614905081806111fd5750805b8061128d57506005546040805160e060020a638658b8b9028152336004820152306024820152604481018690529051600160a060020a0390921691638658b8b9916064808201926020929091908290030181600087803b15801561126057600080fd5b505af1158015611274573d6000803e3d6000fd5b505050506040513d602081101561128a57600080fd5b50515b15156112d1576040805160e560020a62461bcd0281526020600482015260176024820152600080516020614fb6833981519152604482015290519081900360640190fd5b600154871061132a576040805160e560020a62461bcd02815260206004820152601860248201527f496e636f7272656374206469766964656e6420696e6465780000000000000000604482015290519081900360640190fd5b600180548890811061133857fe5b90600052602060002090600e020195506113638660090154876008015461476690919063ffffffff16565b60088701546009880155600554604080517f8da5cb5b0000000000000000000000000000000000000000000000000000000081529051929750600160a060020a0390911691638da5cb5b916004808201926020929091908290030181600087803b1580156113d057600080fd5b505af11580156113e4573d6000803e3d6000fd5b505050506040513d60208110156113fa57600080fd5b5051604051909450600160a060020a0385169086156108fc029087906000818181858888f19350505050158015611435573d6000803e3d6000fd5b506040805186815290518891600160a060020a038716917fc817826994cc4cf2dd66758f988195f8ad3e29078e2ce7ff40fe66477eff27e89181900360200190a350505050505050565b7f434845434b504f494e540000000000000000000000000000000000000000000081565b600080600080516020614f96833981519152600080600560009054906101000a9004600160a060020a0316600160a060020a0316638da5cb5b6040518163ffffffff1660e060020a028152600401602060405180830381600087803b15801561150b57600080fd5b505af115801561151f573d6000803e3d6000fd5b505050506040513d602081101561153557600080fd5b505160045433600160a060020a0392831681149450911614905081806115585750805b806115e857506005546040805160e060020a638658b8b9028152336004820152306024820152604481018690529051600160a060020a0390921691638658b8b9916064808201926020929091908290030181600087803b1580156115bb57600080fd5b505af11580156115cf573d6000803e3d6000fd5b505050506040513d60208110156115e557600080fd5b50515b151561162c576040805160e560020a62461bcd0281526020600482015260176024820152600080516020614fb6833981519152604482015290519081900360640190fd5b60015487908110611675576040805160e560020a62461bcd0281526020600482015260106024820152600080516020614f76833981519152604482015290519081900360640190fd5b600180548290811061168357fe5b600091825260209091206007600e90920201015460ff16156116ef576040805160e560020a62461bcd02815260206004820152601260248201527f4469766964656e64207265636c61696d65640000000000000000000000000000604482015290519081900360640190fd5b60018054829081106116fd57fe5b90600052602060002090600e0201600201544210151515611768576040805160e560020a62461bcd02815260206004820152601b60248201527f4469766964656e64206d6174757269747920696e206675747572650000000000604482015290519081900360640190fd5b600180548290811061177657fe5b90600052602060002090600e020160030154421015156117e0576040805160e560020a62461bcd02815260206004820152601760248201527f4469766964656e642065787069727920696e2070617374000000000000000000604482015290519081900360640190fd5b60018054899081106117ee57fe5b90600052602060002090600e02019550600094505b86518510156118bc5785600a016000888781518110151561182057fe5b6020908102909101810151600160a060020a031682528101919091526040016000205460ff1615801561188a575085600b016000888781518110151561186257fe5b6020908102909101810151600160a060020a031682528101919091526040016000205460ff16155b156118b1576118b187868151811015156118a057fe5b90602001906020020151878a6145d8565b600190940193611803565b5050505050505050565b6001546000908210611910576040805160e560020a62461bcd0281526020600482015260106024820152600080516020614f76833981519152604482015290519081900360640190fd5b600180548390811061191e57fe5b60009182526020808320600160a060020a0387168452600a600e90930201919091019052604090205460ff1690505b92915050565b600080600080600080600180549050881015156119a8576040805160e560020a62461bcd0281526020600482015260106024820152600080516020614f76833981519152604482015290519081900360640190fd5b60018054899081106119b657fe5b60009182526020808320600160a060020a038b168452600a600e90930201918201905260409091205490945060ff1680611a0a5750600160a060020a0387166000908152600b8501602052604090205460ff165b15611a1b5760009550859450611b2b565b6005548454604080517f4ee2cd7e000000000000000000000000000000000000000000000000000000008152600160a060020a038b81166004830152602482019390935290519190921691634ee2cd7e9160448083019260209291908290030181600087803b158015611a8d57600080fd5b505af1158015611aa1573d6000803e3d6000fd5b505050506040513d6020811015611ab757600080fd5b505160068501546004860154919450611ae791611adb90869063ffffffff61477816565b9063ffffffff6147a116565b600160a060020a038816600090815260036020526040902054909250611b2290670de0b6b3a764000090611adb90859063ffffffff61477816565b90508181955095505b505050509250929050565b60d060020a654d414e4147450281565b606060008082815b600154831015611b925785600184815481101515611b6857fe5b90600052602060002090600e0201600001541415611b87576001909301925b600190920191611b4e565b83604051908082528060200260200182016040528015611bbc578160200160208202803883390190505b50915060009350600090505b600154811015611c225785600182815481101515611be257fe5b90600052602060002090600e0201600001541415611c1a57808285815181101515611c0957fe5b602090810290910101526001909301925b600101611bc8565b50949350505050565b60007f4645455f41444d494e0000000000000000000000000000000000000000000000600080600560009054906101000a9004600160a060020a0316600160a060020a0316638da5cb5b6040518163ffffffff1660e060020a028152600401602060405180830381600087803b158015611ca457600080fd5b505af1158015611cb8573d6000803e3d6000fd5b505050506040513d6020811015611cce57600080fd5b505160045433600160a060020a039283168114945091161490508180611cf15750805b80611d8157506005546040805160e060020a638658b8b9028152336004820152306024820152604481018690529051600160a060020a0390921691638658b8b9916064808201926020929091908290030181600087803b158015611d5457600080fd5b505af1158015611d68573d6000803e3d6000fd5b505050506040513d6020811015611d7e57600080fd5b50515b1515611dc5576040805160e560020a62461bcd0281526020600482015260176024820152600080516020614fb6833981519152604482015290519081900360640190fd5b60065460055460048054604080517f8da5cb5b0000000000000000000000000000000000000000000000000000000081529051600160a060020a03958616956323b872dd95811694931692638da5cb5b928082019260209290918290030181600087803b158015611e3557600080fd5b505af1158015611e49573d6000803e3d6000fd5b505050506040513d6020811015611e5f57600080fd5b50516040805160e060020a63ffffffff8616028152600160a060020a039384166004820152929091166024830152604482018990525160648083019260209291908290030181600087803b158015611eb657600080fd5b505af1158015611eca573d6000803e3d6000fd5b505050506040513d6020811015611ee057600080fd5b50511515611f38576040805160e560020a62461bcd02815260206004820152601260248201527f556e61626c6520746f2074616b65206665650000000000000000000000000000604482015290519081900360640190fd5b506001949350505050565b600654600160a060020a031681565b60036020526000908152604090205481565b60608060606000600560009054906101000a9004600160a060020a0316600160a060020a0316635488cc806040518163ffffffff1660e060020a028152600401602060405180830381600087803b158015611fbe57600080fd5b505af1158015611fd2573d6000803e3d6000fd5b505050506040513d6020811015611fe857600080fd5b5051851115612041576040805160e560020a62461bcd02815260206004820152601260248201527f496e76616c696420636865636b706f696e740000000000000000000000000000604482015290519081900360640190fd5b600554604080517f3f553586000000000000000000000000000000000000000000000000000000008152600481018890529051600160a060020a0390921691633f5535869160248082019260009290919082900301818387803b1580156120a757600080fd5b505af11580156120bb573d6000803e3d6000fd5b505050506040513d6000823e601f3d908101601f1916820160405260208110156120e457600080fd5b8101908080516401000000008111156120fc57600080fd5b8201602081018481111561210f57600080fd5b815185602082028301116401000000008211171561212c57600080fd5b505092919050505093508351604051908082528060200260200182016040528015612161578160200160208202803883390190505b509250835160405190808252806020026020018201604052801561218f578160200160208202803883390190505b5091505b83518110156122bf576005548451600160a060020a0390911690634ee2cd7e908690849081106121bf57fe5b90602001906020020151876040518363ffffffff1660e060020a0281526004018083600160a060020a0316600160a060020a0316815260200182815260200192505050602060405180830381600087803b15801561221c57600080fd5b505af1158015612230573d6000803e3d6000fd5b505050506040513d602081101561224657600080fd5b5051835184908390811061225657fe5b60209081029091010152835160039060009086908490811061227457fe5b90602001906020020151600160a060020a0316600160a060020a031681526020019081526020016000205482828151811015156122ad57fe5b60209081029091010152600101612193565b509193909250565b600080516020614f9683398151915281565b60018054829081106122e757fe5b60009182526020909120600e9091020180546001820154600283015460038401546004850154600586015460068701546007880154600889015460098a0154600d909a0154989a5096989597949693959294919360ff9091169290918b565b6001546000908210612390576040805160e560020a62461bcd0281526020600482015260106024820152600080516020614f76833981519152604482015290519081900360640190fd5b600180548390811061239e57fe5b60009182526020808320600160a060020a0387168452600b600e90930201919091019052604090205460ff16905092915050565b600060d060020a654d414e41474502600080600560009054906101000a9004600160a060020a0316600160a060020a0316638da5cb5b6040518163ffffffff1660e060020a028152600401602060405180830381600087803b15801561243757600080fd5b505af115801561244b573d6000803e3d6000fd5b505050506040513d602081101561246157600080fd5b505160045433600160a060020a0392831681149450911614905081806124845750805b8061251457506005546040805160e060020a638658b8b9028152336004820152306024820152604481018690529051600160a060020a0390921691638658b8b9916064808201926020929091908290030181600087803b1580156124e757600080fd5b505af11580156124fb573d6000803e3d6000fd5b505050506040513d602081101561251157600080fd5b50515b1515612558576040805160e560020a62461bcd0281526020600482015260176024820152600080516020614fb6833981519152604482015290519081900360640190fd5b84518651146125b1576040805160e560020a62461bcd02815260206004820152601860248201527f4d69736d61746368656420696e707574206c656e677468730000000000000000604482015290519081900360640190fd5b7f8e6f19b496a634d6fb5faea10ece2675995b6f7a0946a7509885eb76889e1213868642604051808060200180602001848152602001838103835286818151815260200191508051906020019060200280838360005b8381101561261f578181015183820152602001612607565b50505050905001838103825285818151815260200191508051906020019060200280838360005b8381101561265e578181015183820152602001612646565b505050509050019550505050505060405180910390a1600093505b8551841015610d7057670de0b6b3a7640000858581518110151561269957fe5b6020908102909101015111156126f9576040805160e560020a62461bcd02815260206004820152601960248201527f496e636f72726563742077697468686f6c64696e672074617800000000000000604482015290519081900360640190fd5b848481518110151561270757fe5b9060200190602002015160036000888781518110151561272357fe5b6020908102909101810151600160a060020a0316825281019190915260400160002055600190930192612679565b600080600060d060020a654d414e41474502600080600560009054906101000a9004600160a060020a0316600160a060020a0316638da5cb5b6040518163ffffffff1660e060020a028152600401602060405180830381600087803b1580156127b957600080fd5b505af11580156127cd573d6000803e3d6000fd5b505050506040513d60208110156127e357600080fd5b505160045433600160a060020a0392831681149450911614905081806128065750805b8061289657506005546040805160e060020a638658b8b9028152336004820152306024820152604481018690529051600160a060020a0390921691638658b8b9916064808201926020929091908290030181600087803b15801561286957600080fd5b505af115801561287d573d6000803e3d6000fd5b505050506040513d602081101561289357600080fd5b50515b15156128da576040805160e560020a62461bcd0281526020600482015260176024820152600080516020614fb6833981519152604482015290519081900360640190fd5b6001548710612933576040805160e560020a62461bcd02815260206004820152601860248201527f496e636f7272656374206469766964656e6420696e6465780000000000000000604482015290519081900360640190fd5b600180548890811061294157fe5b90600052602060002090600e02016003015442101515156129ac576040805160e560020a62461bcd02815260206004820181905260248201527f4469766964656e642065787069727920697320696e2074686520667574757265604482015290519081900360640190fd5b60018054889081106129ba57fe5b600091825260209091206007600e90920201015460ff1615612a26576040805160e560020a62461bcd02815260206004820152601b60248201527f4469766964656e6420697320616c726561647920636c61696d65640000000000604482015290519081900360640190fd5b6001805488908110612a3457fe5b600091825260209091206007600e90920201908101805460ff1916600117905560058101546004820154919750612a71919063ffffffff61476616565b9450600560009054906101000a9004600160a060020a0316600160a060020a0316638da5cb5b6040518163ffffffff1660e060020a028152600401602060405180830381600087803b158015612ac657600080fd5b505af1158015612ada573d6000803e3d6000fd5b505050506040513d6020811015612af057600080fd5b5051604051909450600160a060020a0385169086156108fc029087906000818181858888f19350505050158015612b2b573d6000803e3d6000fd5b506040805186815290518891600160a060020a038716917fcd202b969101d293ad6e4c4053b46f2bf4698ca22abcb130dc24fa3baca0dee19181900360200190a350505050505050565b6060806060806060806000600180549050604051908082528060200260200182016040528015612baf578160200160208202803883390190505b506001546040805182815260208084028201019091529198508015612bde578160200160208202803883390190505b506001546040805182815260208084028201019091529197508015612c0d578160200160208202803883390190505b506001546040805182815260208084028201019091529196508015612c3c578160200160208202803883390190505b506001546040805182815260208084028201019091529195508015612c6b578160200160208202803883390190505b506001546040805182815260208084028201019091529194508015612c9a578160200160208202803883390190505b509150600090505b600154811015612d5c57612cb581610d84565b8c87815181101515612cc357fe5b9060200190602002018c88815181101515612cda57fe5b9060200190602002018c89815181101515612cf157fe5b9060200190602002018c8a815181101515612d0857fe5b9060200190602002018c8b815181101515612d1f57fe5b9060200190602002018c8c815181101515612d3657fe5b602090810290910101959095529490935293909252929092529190915252600101612ca2565b50909192939495565b600554600160a060020a031681565b60d060020a654d414e41474502600080600560009054906101000a9004600160a060020a0316600160a060020a0316638da5cb5b6040518163ffffffff1660e060020a028152600401602060405180830381600087803b158015612dd757600080fd5b505af1158015612deb573d6000803e3d6000fd5b505050506040513d6020811015612e0157600080fd5b505160045433600160a060020a039283168114945091161490508180612e245750805b80612eb457506005546040805160e060020a638658b8b9028152336004820152306024820152604481018690529051600160a060020a0390921691638658b8b9916064808201926020929091908290030181600087803b158015612e8757600080fd5b505af1158015612e9b573d6000803e3d6000fd5b505050506040513d6020811015612eb157600080fd5b50515b1515612ef8576040805160e560020a62461bcd0281526020600482015260176024820152600080516020614fb6833981519152604482015290519081900360640190fd5b6118bc88888888886147b6565b6002805482908110612f1357fe5b600091825260209091200154600160a060020a0316905081565b604080516002808252606080830184529283929190602083019080388339019050509050600080516020614f96833981519152816000815181101515612f6f57fe5b60209081029091010152805160d060020a654d414e414745029082906001908110612f9657fe5b602090810290910101529050805b5090565b600454600160a060020a031681565b60008060d060020a654d414e41474502600080600560009054906101000a9004600160a060020a0316600160a060020a0316638da5cb5b6040518163ffffffff1660e060020a028152600401602060405180830381600087803b15801561301d57600080fd5b505af1158015613031573d6000803e3d6000fd5b505050506040513d602081101561304757600080fd5b505160045433600160a060020a03928316811494509116149050818061306a5750805b806130fa57506005546040805160e060020a638658b8b9028152336004820152306024820152604481018690529051600160a060020a0390921691638658b8b9916064808201926020929091908290030181600087803b1580156130cd57600080fd5b505af11580156130e1573d6000803e3d6000fd5b505050506040513d60208110156130f757600080fd5b50515b151561313e576040805160e560020a62461bcd0281526020600482015260176024820152600080516020614fb6833981519152604482015290519081900360640190fd5b60005486511115613199576040805160e560020a62461bcd02815260206004820152601b60248201527f546f6f206d616e79206578636c75646564206164647265737365730000000000604482015290519081900360640190fd5b600094505b85518510156132df5785516000908790879081106131b857fe5b60209081029091010151600160a060020a03161415613221576040805160e560020a62461bcd02815260206004820152600f60248201527f496e76616c696420616464726573730000000000000000000000000000000000604482015290519081900360640190fd5b8460010193505b85518410156132d457858481518110151561323f57fe5b90602001906020020151600160a060020a0316868681518110151561326057fe5b60209081029091010151600160a060020a031614156132c9576040805160e560020a62461bcd02815260206004820152601960248201527f4475706c6963617465206578636c756465206164647265737300000000000000604482015290519081900360640190fd5b600190930192613228565b60019094019361319e565b85516132f2906002906020890190614edc565b507f6f7d61057c8835d8bd9272c926f638242a70f6441466ae91cd272872ed84151f6002426040518080602001838152602001828103825284818154815260200191508054801561336c57602002820191906000526020600020905b8154600160a060020a0316815260019091019060200180831161334e575b5050935050505060405180910390a1505050505050565b7f4645455f41444d494e000000000000000000000000000000000000000000000081565b60d060020a654d414e41474502600080600560009054906101000a9004600160a060020a0316600160a060020a0316638da5cb5b6040518163ffffffff1660e060020a028152600401602060405180830381600087803b15801561340a57600080fd5b505af115801561341e573d6000803e3d6000fd5b505050506040513d602081101561343457600080fd5b505160045433600160a060020a0392831681149450911614905081806134575750805b806134e757506005546040805160e060020a638658b8b9028152336004820152306024820152604481018690529051600160a060020a0390921691638658b8b9916064808201926020929091908290030181600087803b1580156134ba57600080fd5b505af11580156134ce573d6000803e3d6000fd5b505050506040513d60208110156134e457600080fd5b50515b151561352b576040805160e560020a62461bcd0281526020600482015260176024820152600080516020614fb6833981519152604482015290519081900360640190fd5b613592878787600280548060200260200160405190810160405280929190818152602001828054801561358757602002820191906000526020600020905b8154600160a060020a03168152600190910190602001808311613569575b5050505050886147b6565b50505050505050565b60008060606000806000600080516020614f96833981519152600080600560009054906101000a9004600160a060020a0316600160a060020a0316638da5cb5b6040518163ffffffff1660e060020a028152600401602060405180830381600087803b15801561360a57600080fd5b505af115801561361e573d6000803e3d6000fd5b505050506040513d602081101561363457600080fd5b505160045433600160a060020a0392831681149450911614905081806136575750805b806136e757506005546040805160e060020a638658b8b9028152336004820152306024820152604481018690529051600160a060020a0390921691638658b8b9916064808201926020929091908290030181600087803b1580156136ba57600080fd5b505af11580156136ce573d6000803e3d6000fd5b505050506040513d60208110156136e457600080fd5b50515b151561372b576040805160e560020a62461bcd0281526020600482015260176024820152600080516020614fb6833981519152604482015290519081900360640190fd5b6001548c908110613774576040805160e560020a62461bcd0281526020600482015260106024820152600080516020614f76833981519152604482015290519081900360640190fd5b600180548290811061378257fe5b600091825260209091206007600e90920201015460ff16156137ee576040805160e560020a62461bcd02815260206004820152601260248201527f4469766964656e64207265636c61696d65640000000000000000000000000000604482015290519081900360640190fd5b60018054829081106137fc57fe5b90600052602060002090600e0201600201544210151515613867576040805160e560020a62461bcd02815260206004820152601b60248201527f4469766964656e64206d6174757269747920696e206675747572650000000000604482015290519081900360640190fd5b600180548290811061387557fe5b90600052602060002090600e020160030154421015156138df576040805160e560020a62461bcd02815260206004820152601760248201527f4469766964656e642065787069727920696e2070617374000000000000000000604482015290519081900360640190fd5b600180548e9081106138ed57fe5b600091825260208220600e909102018054600554604080517f3f553586000000000000000000000000000000000000000000000000000000008152600481018490529051939e50919c50600160a060020a031692633f5535869260248084019382900301818387803b15801561396257600080fd5b505af1158015613976573d6000803e3d6000fd5b505050506040513d6000823e601f3d908101601f19168201604052602081101561399f57600080fd5b8101908080516401000000008111156139b757600080fd5b820160208101848111156139ca57600080fd5b81518560208202830111640100000000821117156139e757600080fd5b50508051909b50613a0c93509150613a0790508e8e63ffffffff614eb716565b614ec4565b96508b95505b86861015613a98578786815181101515613a2857fe5b6020908102909101810151600160a060020a0381166000908152600a8d0190925260409091205490955060ff16158015613a7d5750600160a060020a0385166000908152600b8b01602052604090205460ff16155b15613a8d57613a8d858b8f6145d8565b600190950194613a12565b50505050505050505050505050565b60606002805480602002602001604051908101604052809291908181526020018280548015613aff57602002820191906000526020600020905b8154600160a060020a03168152600190910190602001808311613ae1575b5050505050905090565b60d060020a654d414e41474502600080600560009054906101000a9004600160a060020a0316600160a060020a0316638da5cb5b6040518163ffffffff1660e060020a028152600401602060405180830381600087803b158015613b6c57600080fd5b505af1158015613b80573d6000803e3d6000fd5b505050506040513d6020811015613b9657600080fd5b505160045433600160a060020a039283168114945091161490508180613bb95750805b80613c4957506005546040805160e060020a638658b8b9028152336004820152306024820152604481018690529051600160a060020a0390921691638658b8b9916064808201926020929091908290030181600087803b158015613c1c57600080fd5b505af1158015613c30573d6000803e3d6000fd5b505050506040513d6020811015613c4657600080fd5b50515b1515613c8d576040805160e560020a62461bcd0281526020600482015260176024820152600080516020614fb6833981519152604482015290519081900360640190fd5b610d7086866002805480602002602001604051908101604052809291908181526020018280548015613ce857602002820191906000526020600020905b8154600160a060020a03168152600190910190602001808311613cca575b5050505050875b600060d060020a654d414e41474502600080600560009054906101000a9004600160a060020a0316600160a060020a0316638da5cb5b6040518163ffffffff1660e060020a028152600401602060405180830381600087803b158015613d5457600080fd5b505af1158015613d68573d6000803e3d6000fd5b505050506040513d6020811015613d7e57600080fd5b505160045433600160a060020a039283168114945091161490508180613da15750805b80613e3157506005546040805160e060020a638658b8b9028152336004820152306024820152604481018690529051600160a060020a0390921691638658b8b9916064808201926020929091908290030181600087803b158015613e0457600080fd5b505af1158015613e18573d6000803e3d6000fd5b505050506040513d6020811015613e2e57600080fd5b50515b1515613e75576040805160e560020a62461bcd0281526020600482015260176024820152600080516020614fb6833981519152604482015290519081900360640190fd5b600560009054906101000a9004600160a060020a0316600160a060020a031663ff0b9c906040518163ffffffff1660e060020a028152600401602060405180830381600087803b158015613ec857600080fd5b505af1158015613edc573d6000803e3d6000fd5b505050506040513d6020811015613ef257600080fd5b505193506118bc88888689896147b6565b60608060608060608060008060006001805490508a101515613f5d576040805160e560020a62461bcd0281526020600482015260106024820152600080516020614f76833981519152604482015290519081900360640190fd5b600180548b908110613f6b57fe5b600091825260208220600e909102018054600554604080517f3f553586000000000000000000000000000000000000000000000000000000008152600481018490529051939750919550600160a060020a031692633f5535869260248084019382900301818387803b158015613fe057600080fd5b505af1158015613ff4573d6000803e3d6000fd5b505050506040513d6000823e601f3d908101601f19168201604052602081101561401d57600080fd5b81019080805164010000000081111561403557600080fd5b8201602081018481111561404857600080fd5b815185602082028301116401000000008211171561406557600080fd5b50509291905050509850885160405190808252806020026020018201604052801561409a578160200160208202803883390190505b50975088516040519080825280602002602001820160405280156140c8578160200160208202803883390190505b50965088516040519080825280602002602001820160405280156140f6578160200160208202803883390190505b5095508851604051908082528060200260200182016040528015614124578160200160208202803883390190505b5094508851604051908082528060200260200182016040528015614152578160200160208202803883390190505b5093505b88518110156143ab5782600a0160008a8381518110151561417357fe5b6020908102909101810151600160a060020a0316825281019190915260400160002054885160ff909116908990839081106141aa57fe5b9115156020928302909101909101528851600b8401906000908b90849081106141cf57fe5b6020908102909101810151600160a060020a0316825281019190915260400160002054875160ff9091169088908390811061420657fe5b9115156020928302909101909101526005548951600160a060020a0390911690634ee2cd7e908b908490811061423857fe5b9060200190602002015185600001546040518363ffffffff1660e060020a0281526004018083600160a060020a0316600160a060020a0316815260200182815260200192505050602060405180830381600087803b15801561429957600080fd5b505af11580156142ad573d6000803e3d6000fd5b505050506040513d60208110156142c357600080fd5b505185518690839081106142d357fe5b6020908102909101015286518790829081106142eb57fe5b9060200190602002015115156143a35782600c0160008a8381518110151561430f57fe5b90602001906020020151600160a060020a0316600160a060020a0316815260200190815260200160002054868281518110151561434857fe5b906020019060200201818152505061438a8360060154611adb8560040154888581518110151561437457fe5b602090810290910101519063ffffffff61477816565b848281518110151561439857fe5b602090810290910101525b600101614156565b50505091939550919395565b60007f434845434b504f494e5400000000000000000000000000000000000000000000600080600560009054906101000a9004600160a060020a0316600160a060020a0316638da5cb5b6040518163ffffffff1660e060020a028152600401602060405180830381600087803b15801561443057600080fd5b505af1158015614444573d6000803e3d6000fd5b505050506040513d602081101561445a57600080fd5b505160045433600160a060020a03928316811494509116149050818061447d5750805b8061450d57506005546040805160e060020a638658b8b9028152336004820152306024820152604481018690529051600160a060020a0390921691638658b8b9916064808201926020929091908290030181600087803b1580156144e057600080fd5b505af11580156144f4573d6000803e3d6000fd5b505050506040513d602081101561450a57600080fd5b50515b1515614551576040805160e560020a62461bcd0281526020600482015260176024820152600080516020614fb6833981519152604482015290519081900360640190fd5b600560009054906101000a9004600160a060020a0316600160a060020a031663ff0b9c906040518163ffffffff1660e060020a028152600401602060405180830381600087803b1580156145a457600080fd5b505af11580156145b8573d6000803e3d6000fd5b505050506040513d60208110156145ce57600080fd5b5051935050505090565b60008060006145e78487611953565b600160a060020a0388166000908152600a880160205260409020805460ff191660011790559093509150614621838363ffffffff61476616565b90506000811115610d7057604051600160a060020a0387169082156108fc029083906000818181858888f193505050501561470057600585015461466b908463ffffffff614eb716565b600586015560008211156146b157600885015461468e908363ffffffff614eb716565b6008860155600160a060020a0386166000908152600c8601602052604090208290555b8386600160a060020a03167f0cfb57b295d2603fbb329fdc2d35326148368bf26a74cbb525cdf3a71ff5cc3d8585604051808381526020018281526020019250505060405180910390a3610d70565b600160a060020a0386166000818152600a87016020908152604091829020805460ff19169055815186815290810185905281518793927fd252e7e7f5d6262d6dd8f80698d23f219cd7847a22b97c199a5984440f3c2715928290030190a3505050505050565b60008282111561477257fe5b50900390565b60008215156147895750600061194d565b5081810281838281151561479957fe5b041461194d57fe5b600081838115156147ae57fe5b049392505050565b600080600080600054865111151515614819576040805160e560020a62461bcd02815260206004820152601b60248201527f546f6f206d616e7920616464726573736573206578636c756465640000000000604482015290519081900360640190fd5b888811614870576040805160e560020a62461bcd02815260206004820152601960248201527f457870697279206973206265666f7265206d6174757269747900000000000000604482015290519081900360640190fd5b4288116148c7576040805160e560020a62461bcd02815260206004820152601560248201527f45787069727920697320696e2074686520706173740000000000000000000000604482015290519081900360640190fd5b6000341161491f576040805160e560020a62461bcd02815260206004820152601060248201527f4e6f206469766964656e642073656e7400000000000000000000000000000000604482015290519081900360640190fd5b600560009054906101000a9004600160a060020a0316600160a060020a0316635488cc806040518163ffffffff1660e060020a028152600401602060405180830381600087803b15801561497257600080fd5b505af1158015614986573d6000803e3d6000fd5b505050506040513d602081101561499c57600080fd5b50518711156149aa57600080fd5b7fff000000000000000000000000000000000000000000000000000000000000007f0100000000000000000000000000000000000000000000000000000000000000600087901a021615156149fe57600080fd5b600154600554604080517f981b24d0000000000000000000000000000000000000000000000000000000008152600481018b90529051929650600160a060020a039091169163981b24d0916024808201926020929091908290030181600087803b158015614a6b57600080fd5b505af1158015614a7f573d6000803e3d6000fd5b505050506040513d6020811015614a9557600080fd5b81019080805190602001909291905050509250600091506001610160604051908101604052808981526020014281526020018b81526020018a81526020013481526020016000815260200160008152602001600015158152602001600081526020016000815260200187600019168152509080600181540180825580915050906001820390600052602060002090600e020160009091929091909150600082015181600001556020820151816001015560408201518160020155606082015181600301556080820151816004015560a0820151816005015560c0820151816006015560e08201518160070160006101000a81548160ff0219169083151502179055506101008201518160080155610120820151816009015561014082015181600d0190600019169055505050600090505b8551811015614e1b578551600090879083908110614be057fe5b60209081029091010151600160a060020a03161415614c49576040805160e560020a62461bcd02815260206004820152600f60248201527f496e76616c696420616464726573730000000000000000000000000000000000604482015290519081900360640190fd5b6001805485908110614c5757fe5b90600052602060002090600e0201600b0160008783815181101515614c7857fe5b6020908102909101810151600160a060020a031682528101919091526040016000205460ff1615614cf3576040805160e560020a62461bcd02815260206004820152601560248201527f6475706564206578636c75646520616464726573730000000000000000000000604482015290519081900360640190fd5b6005548651614dae91600160a060020a031690634ee2cd7e90899085908110614d1857fe5b906020019060200201518a6040518363ffffffff1660e060020a0281526004018083600160a060020a0316600160a060020a0316815260200182815260200192505050602060405180830381600087803b158015614d7557600080fd5b505af1158015614d89573d6000803e3d6000fd5b505050506040513d6020811015614d9f57600080fd5b5051839063ffffffff614eb716565b915060018085815481101515614dc057fe5b90600052602060002090600e0201600b0160008884815181101515614de157fe5b602090810291909101810151600160a060020a03168252810191909152604001600020805460ff1916911515919091179055600101614bc6565b614e2b838363ffffffff61476616565b6001805486908110614e3957fe5b60009182526020918290206006600e9092020101919091556040805189815242928101929092528181018b9052606082018a905234608083015260a08201859052518691869133917f260420e15e8a0c1993b733e83ae8e5acf5f856d2e044769b63fb8126edf27285919081900360c00190a4505050505050505050565b8181018281101561194d57fe5b6000818310614ed35781614ed5565b825b9392505050565b828054828255906000526020600020908101928215614f3e579160200282015b82811115614f3e578251825473ffffffffffffffffffffffffffffffffffffffff1916600160a060020a03909116178255602090920191600190910190614efc565b50612fa492610d819250905b80821115612fa457805473ffffffffffffffffffffffffffffffffffffffff19168155600101614f4a5600496e76616c6964206469766964656e640000000000000000000000000000000044495354524942555445000000000000000000000000000000000000000000005065726d697373696f6e20636865636b206661696c6564000000000000000000a165627a7a72305820c5fb3bc6fade3c77273da31d2b43bae69e04c98f32dad403cf2aa9391f2893820029",
    "source": "pragma solidity ^0.4.24;\r\n\r\nimport \"./DividendCheckpoint.sol\";\r\nimport \"../../interfaces/IOwnable.sol\";\r\n\r\n/**\r\n * @title Checkpoint module for issuing ether dividends\r\n */\r\ncontract EtherDividendCheckpoint is DividendCheckpoint {\r\n    using SafeMath for uint256;\r\n\r\n    event EtherDividendDeposited(\r\n        address indexed _depositor,\r\n        uint256 _checkpointId,\r\n        uint256 _created,\r\n        uint256 _maturity,\r\n        uint256 _expiry,\r\n        uint256 _amount,\r\n        uint256 _totalSupply,\r\n        uint256 indexed _dividendIndex,\r\n        bytes32 indexed _name\r\n    );\r\n    event EtherDividendClaimed(address indexed _payee, uint256 indexed _dividendIndex, uint256 _amount, uint256 _withheld);\r\n    event EtherDividendReclaimed(address indexed _claimer, uint256 indexed _dividendIndex, uint256 _claimedAmount);\r\n    event EtherDividendClaimFailed(address indexed _payee, uint256 indexed _dividendIndex, uint256 _amount, uint256 _withheld);\r\n    event EtherDividendWithholdingWithdrawn(address indexed _claimer, uint256 indexed _dividendIndex, uint256 _withheldAmount);\r\n\r\n    /**\r\n     * @notice Constructor\r\n     * @param _securityToken Address of the security token\r\n     * @param _polyAddress Address of the polytoken\r\n     */\r\n    constructor (address _securityToken, address _polyAddress) public\r\n    Module(_securityToken, _polyAddress)\r\n    {\r\n    }\r\n\r\n    /**\r\n     * @notice Creates a dividend and checkpoint for the dividend, using global list of excluded addresses\r\n     * @param _maturity Time from which dividend can be paid\r\n     * @param _expiry Time until dividend can no longer be paid, and can be reclaimed by issuer\r\n     * @param _name Name/title for identification\r\n     */\r\n    function createDividend(uint256 _maturity, uint256 _expiry, bytes32 _name) external payable withPerm(MANAGE) {\r\n        createDividendWithExclusions(_maturity, _expiry, excluded, _name);\r\n    }\r\n\r\n    /**\r\n     * @notice Creates a dividend with a provided checkpoint, using global list of excluded addresses\r\n     * @param _maturity Time from which dividend can be paid\r\n     * @param _expiry Time until dividend can no longer be paid, and can be reclaimed by issuer\r\n     * @param _checkpointId Id of the checkpoint from which to issue dividend\r\n     * @param _name Name/title for identification\r\n     */\r\n    function createDividendWithCheckpoint(\r\n        uint256 _maturity,\r\n        uint256 _expiry,\r\n        uint256 _checkpointId,\r\n        bytes32 _name\r\n    )\r\n        external\r\n        payable\r\n        withPerm(MANAGE)\r\n    {\r\n        _createDividendWithCheckpointAndExclusions(_maturity, _expiry, _checkpointId, excluded, _name);\r\n    }\r\n\r\n    /**\r\n     * @notice Creates a dividend and checkpoint for the dividend, specifying explicit excluded addresses\r\n     * @param _maturity Time from which dividend can be paid\r\n     * @param _expiry Time until dividend can no longer be paid, and can be reclaimed by issuer\r\n     * @param _excluded List of addresses to exclude\r\n     * @param _name Name/title for identification\r\n     */\r\n    function createDividendWithExclusions(\r\n        uint256 _maturity,\r\n        uint256 _expiry,\r\n        address[] _excluded,\r\n        bytes32 _name\r\n    )\r\n        public\r\n        payable\r\n        withPerm(MANAGE)\r\n    {\r\n        uint256 checkpointId = ISecurityToken(securityToken).createCheckpoint();\r\n        _createDividendWithCheckpointAndExclusions(_maturity, _expiry, checkpointId, _excluded, _name);\r\n    }\r\n\r\n    /**\r\n     * @notice Creates a dividend with a provided checkpoint, specifying explicit excluded addresses\r\n     * @param _maturity Time from which dividend can be paid\r\n     * @param _expiry Time until dividend can no longer be paid, and can be reclaimed by issuer\r\n     * @param _checkpointId Id of the checkpoint from which to issue dividend\r\n     * @param _excluded List of addresses to exclude\r\n     * @param _name Name/title for identification\r\n     */\r\n    function createDividendWithCheckpointAndExclusions(\r\n        uint256 _maturity,\r\n        uint256 _expiry,\r\n        uint256 _checkpointId,\r\n        address[] _excluded,\r\n        bytes32 _name\r\n    )\r\n        public\r\n        payable\r\n        withPerm(MANAGE)\r\n    {\r\n        _createDividendWithCheckpointAndExclusions(_maturity, _expiry, _checkpointId, _excluded, _name);\r\n    }\r\n\r\n    /**\r\n     * @notice Creates a dividend with a provided checkpoint, specifying explicit excluded addresses\r\n     * @param _maturity Time from which dividend can be paid\r\n     * @param _expiry Time until dividend can no longer be paid, and can be reclaimed by issuer\r\n     * @param _checkpointId Id of the checkpoint from which to issue dividend\r\n     * @param _excluded List of addresses to exclude\r\n     * @param _name Name/title for identification\r\n     */\r\n    function _createDividendWithCheckpointAndExclusions(\r\n        uint256 _maturity,\r\n        uint256 _expiry,\r\n        uint256 _checkpointId,\r\n        address[] _excluded,\r\n        bytes32 _name\r\n    )\r\n        internal\r\n    {\r\n        require(_excluded.length <= EXCLUDED_ADDRESS_LIMIT, \"Too many addresses excluded\");\r\n        require(_expiry > _maturity, \"Expiry is before maturity\");\r\n        /*solium-disable-next-line security/no-block-members*/\r\n        require(_expiry > now, \"Expiry is in the past\");\r\n        require(msg.value > 0, \"No dividend sent\");\r\n        require(_checkpointId <= ISecurityToken(securityToken).currentCheckpointId());\r\n        require(_name[0] != 0);\r\n        uint256 dividendIndex = dividends.length;\r\n        uint256 currentSupply = ISecurityToken(securityToken).totalSupplyAt(_checkpointId);\r\n        uint256 excludedSupply = 0;\r\n        dividends.push(\r\n          Dividend(\r\n            _checkpointId,\r\n            now, /*solium-disable-line security/no-block-members*/\r\n            _maturity,\r\n            _expiry,\r\n            msg.value,\r\n            0,\r\n            0,\r\n            false,\r\n            0,\r\n            0,\r\n            _name\r\n          )\r\n        );\r\n\r\n        for (uint256 j = 0; j < _excluded.length; j++) {\r\n            require (_excluded[j] != address(0), \"Invalid address\");\r\n            require(!dividends[dividendIndex].dividendExcluded[_excluded[j]], \"duped exclude address\");\r\n            excludedSupply = excludedSupply.add(ISecurityToken(securityToken).balanceOfAt(_excluded[j], _checkpointId));\r\n            dividends[dividendIndex].dividendExcluded[_excluded[j]] = true;\r\n        }\r\n        dividends[dividendIndex].totalSupply = currentSupply.sub(excludedSupply);\r\n        /*solium-disable-next-line security/no-block-members*/\r\n        emit EtherDividendDeposited(msg.sender, _checkpointId, now, _maturity, _expiry, msg.value, currentSupply, dividendIndex, _name);\r\n    }\r\n\r\n    /**\r\n     * @notice Internal function for paying dividends\r\n     * @param _payee address of investor\r\n     * @param _dividend storage with previously issued dividends\r\n     * @param _dividendIndex Dividend to pay\r\n     */\r\n    function _payDividend(address _payee, Dividend storage _dividend, uint256 _dividendIndex) internal {\r\n        (uint256 claim, uint256 withheld) = calculateDividend(_dividendIndex, _payee);\r\n        _dividend.claimed[_payee] = true;\r\n        uint256 claimAfterWithheld = claim.sub(withheld);\r\n        if (claimAfterWithheld > 0) {\r\n            /*solium-disable-next-line security/no-send*/\r\n            if (_payee.send(claimAfterWithheld)) {\r\n                _dividend.claimedAmount = _dividend.claimedAmount.add(claim);\r\n                if (withheld > 0) {\r\n                    _dividend.totalWithheld = _dividend.totalWithheld.add(withheld);\r\n                    _dividend.withheld[_payee] = withheld;\r\n                }\r\n                emit EtherDividendClaimed(_payee, _dividendIndex, claim, withheld);\r\n            } else {\r\n                _dividend.claimed[_payee] = false;\r\n                emit EtherDividendClaimFailed(_payee, _dividendIndex, claim, withheld);\r\n            }\r\n        }\r\n    }\r\n\r\n    /**\r\n     * @notice Issuer can reclaim remaining unclaimed dividend amounts, for expired dividends\r\n     * @param _dividendIndex Dividend to reclaim\r\n     */\r\n    function reclaimDividend(uint256 _dividendIndex) external withPerm(MANAGE) {\r\n        require(_dividendIndex < dividends.length, \"Incorrect dividend index\");\r\n        /*solium-disable-next-line security/no-block-members*/\r\n        require(now >= dividends[_dividendIndex].expiry, \"Dividend expiry is in the future\");\r\n        require(!dividends[_dividendIndex].reclaimed, \"Dividend is already claimed\");\r\n        Dividend storage dividend = dividends[_dividendIndex];\r\n        dividend.reclaimed = true;\r\n        uint256 remainingAmount = dividend.amount.sub(dividend.claimedAmount);\r\n        address owner = IOwnable(securityToken).owner();\r\n        owner.transfer(remainingAmount);\r\n        emit EtherDividendReclaimed(owner, _dividendIndex, remainingAmount);\r\n    }\r\n\r\n    /**\r\n     * @notice Allows issuer to withdraw withheld tax\r\n     * @param _dividendIndex Dividend to withdraw from\r\n     */\r\n    function withdrawWithholding(uint256 _dividendIndex) external withPerm(MANAGE) {\r\n        require(_dividendIndex < dividends.length, \"Incorrect dividend index\");\r\n        Dividend storage dividend = dividends[_dividendIndex];\r\n        uint256 remainingWithheld = dividend.totalWithheld.sub(dividend.totalWithheldWithdrawn);\r\n        dividend.totalWithheldWithdrawn = dividend.totalWithheld;\r\n        address owner = IOwnable(securityToken).owner();\r\n        owner.transfer(remainingWithheld);\r\n        emit EtherDividendWithholdingWithdrawn(owner, _dividendIndex, remainingWithheld);\r\n    }\r\n\r\n}\r\n",
    "sourcePath": "/Users/polymath/polymath-core/contracts/modules/Checkpoint/EtherDividendCheckpoint.sol",
    "compiler": {
        "name": "solc",
        "version": "0.4.24+commit.e67f0147.Emscripten.clang"
    },
    "schemaVersion": "2.0.1",
    "updatedAt": "2019-01-08T14:53:24.933Z"
}