{
    "contractName": "GeneralPermissionManager",
    "abi": [
        {
            "constant": true,
            "inputs": [
                {
                    "name": "",
                    "type": "address"
                },
                {
                    "name": "",
                    "type": "address"
                },
                {
                    "name": "",
                    "type": "bytes32"
                }
            ],
            "name": "perms",
            "outputs": [
                {
                    "name": "",
                    "type": "bool"
                }
            ],
            "payable": false,
            "stateMutability": "view",
            "type": "function"
        },
        {
            "constant": false,
            "inputs": [
                {
                    "name": "_amount",
                    "type": "uint256"
                }
            ],
            "name": "takeFee",
            "outputs": [
                {
                    "name": "",
                    "type": "bool"
                }
            ],
            "payable": false,
            "stateMutability": "nonpayable",
            "type": "function"
        },
        {
            "constant": true,
            "inputs": [],
            "name": "polyToken",
            "outputs": [
                {
                    "name": "",
                    "type": "address"
                }
            ],
            "payable": false,
            "stateMutability": "view",
            "type": "function"
        },
        {
            "constant": true,
            "inputs": [],
            "name": "CHANGE_PERMISSION",
            "outputs": [
                {
                    "name": "",
                    "type": "bytes32"
                }
            ],
            "payable": false,
            "stateMutability": "view",
            "type": "function"
        },
        {
            "constant": true,
            "inputs": [
                {
                    "name": "",
                    "type": "uint256"
                }
            ],
            "name": "allDelegates",
            "outputs": [
                {
                    "name": "",
                    "type": "address"
                }
            ],
            "payable": false,
            "stateMutability": "view",
            "type": "function"
        },
        {
            "constant": true,
            "inputs": [],
            "name": "securityToken",
            "outputs": [
                {
                    "name": "",
                    "type": "address"
                }
            ],
            "payable": false,
            "stateMutability": "view",
            "type": "function"
        },
        {
            "constant": true,
            "inputs": [],
            "name": "factory",
            "outputs": [
                {
                    "name": "",
                    "type": "address"
                }
            ],
            "payable": false,
            "stateMutability": "view",
            "type": "function"
        },
        {
            "constant": true,
            "inputs": [],
            "name": "FEE_ADMIN",
            "outputs": [
                {
                    "name": "",
                    "type": "bytes32"
                }
            ],
            "payable": false,
            "stateMutability": "view",
            "type": "function"
        },
        {
            "constant": true,
            "inputs": [
                {
                    "name": "",
                    "type": "address"
                }
            ],
            "name": "delegateDetails",
            "outputs": [
                {
                    "name": "",
                    "type": "bytes32"
                }
            ],
            "payable": false,
            "stateMutability": "view",
            "type": "function"
        },
        {
            "inputs": [
                {
                    "name": "_securityToken",
                    "type": "address"
                },
                {
                    "name": "_polyAddress",
                    "type": "address"
                }
            ],
            "payable": false,
            "stateMutability": "nonpayable",
            "type": "constructor"
        },
        {
            "anonymous": false,
            "inputs": [
                {
                    "indexed": true,
                    "name": "_delegate",
                    "type": "address"
                },
                {
                    "indexed": false,
                    "name": "_module",
                    "type": "address"
                },
                {
                    "indexed": false,
                    "name": "_perm",
                    "type": "bytes32"
                },
                {
                    "indexed": false,
                    "name": "_valid",
                    "type": "bool"
                },
                {
                    "indexed": false,
                    "name": "_timestamp",
                    "type": "uint256"
                }
            ],
            "name": "ChangePermission",
            "type": "event"
        },
        {
            "anonymous": false,
            "inputs": [
                {
                    "indexed": true,
                    "name": "_delegate",
                    "type": "address"
                },
                {
                    "indexed": false,
                    "name": "_details",
                    "type": "bytes32"
                },
                {
                    "indexed": false,
                    "name": "_timestamp",
                    "type": "uint256"
                }
            ],
            "name": "AddDelegate",
            "type": "event"
        },
        {
            "constant": true,
            "inputs": [],
            "name": "getInitFunction",
            "outputs": [
                {
                    "name": "",
                    "type": "bytes4"
                }
            ],
            "payable": false,
            "stateMutability": "pure",
            "type": "function"
        },
        {
            "constant": true,
            "inputs": [
                {
                    "name": "_delegate",
                    "type": "address"
                },
                {
                    "name": "_module",
                    "type": "address"
                },
                {
                    "name": "_perm",
                    "type": "bytes32"
                }
            ],
            "name": "checkPermission",
            "outputs": [
                {
                    "name": "",
                    "type": "bool"
                }
            ],
            "payable": false,
            "stateMutability": "view",
            "type": "function"
        },
        {
            "constant": false,
            "inputs": [
                {
                    "name": "_delegate",
                    "type": "address"
                },
                {
                    "name": "_details",
                    "type": "bytes32"
                }
            ],
            "name": "addDelegate",
            "outputs": [],
            "payable": false,
            "stateMutability": "nonpayable",
            "type": "function"
        },
        {
            "constant": false,
            "inputs": [
                {
                    "name": "_delegate",
                    "type": "address"
                }
            ],
            "name": "deleteDelegate",
            "outputs": [],
            "payable": false,
            "stateMutability": "nonpayable",
            "type": "function"
        },
        {
            "constant": true,
            "inputs": [
                {
                    "name": "_potentialDelegate",
                    "type": "address"
                }
            ],
            "name": "checkDelegate",
            "outputs": [
                {
                    "name": "",
                    "type": "bool"
                }
            ],
            "payable": false,
            "stateMutability": "view",
            "type": "function"
        },
        {
            "constant": false,
            "inputs": [
                {
                    "name": "_delegate",
                    "type": "address"
                },
                {
                    "name": "_module",
                    "type": "address"
                },
                {
                    "name": "_perm",
                    "type": "bytes32"
                },
                {
                    "name": "_valid",
                    "type": "bool"
                }
            ],
            "name": "changePermission",
            "outputs": [],
            "payable": false,
            "stateMutability": "nonpayable",
            "type": "function"
        },
        {
            "constant": false,
            "inputs": [
                {
                    "name": "_delegate",
                    "type": "address"
                },
                {
                    "name": "_modules",
                    "type": "address[]"
                },
                {
                    "name": "_perms",
                    "type": "bytes32[]"
                },
                {
                    "name": "_valids",
                    "type": "bool[]"
                }
            ],
            "name": "changePermissionMulti",
            "outputs": [],
            "payable": false,
            "stateMutability": "nonpayable",
            "type": "function"
        },
        {
            "constant": true,
            "inputs": [
                {
                    "name": "_module",
                    "type": "address"
                },
                {
                    "name": "_perm",
                    "type": "bytes32"
                }
            ],
            "name": "getAllDelegatesWithPerm",
            "outputs": [
                {
                    "name": "",
                    "type": "address[]"
                }
            ],
            "payable": false,
            "stateMutability": "view",
            "type": "function"
        },
        {
            "constant": true,
            "inputs": [
                {
                    "name": "_delegate",
                    "type": "address"
                },
                {
                    "name": "_types",
                    "type": "uint8[]"
                }
            ],
            "name": "getAllModulesAndPermsFromTypes",
            "outputs": [
                {
                    "name": "",
                    "type": "address[]"
                },
                {
                    "name": "",
                    "type": "bytes32[]"
                }
            ],
            "payable": false,
            "stateMutability": "view",
            "type": "function"
        },
        {
            "constant": true,
            "inputs": [],
            "name": "getAllDelegates",
            "outputs": [
                {
                    "name": "",
                    "type": "address[]"
                }
            ],
            "payable": false,
            "stateMutability": "view",
            "type": "function"
        },
        {
            "constant": true,
            "inputs": [],
            "name": "getPermissions",
            "outputs": [
                {
                    "name": "",
                    "type": "bytes32[]"
                }
            ],
            "payable": false,
            "stateMutability": "view",
            "type": "function"
        }
    ],
    "bytecode": "0x608060405234801561001057600080fd5b50604051604080611f8683398101604052805160209091015160018054600160a060020a03938416600160a060020a0319918216179091556000805482163317905560028054939092169216919091179055611f15806100716000396000f3006080604052600436106100f85763ffffffff60e060020a6000350416631613ec9d81146100fd5780632ec0508d146101475780633a15f1811461018e5780634e0a4792146102545780635f7619a41461029257806362c90dc5146102aa5780636faa22a5146102cb57806371890352146102fc5780637922c08a1461031d5780637a4f3764146103445780638658b8b9146103a9578063885a4860146103d3578063947dd6e5146103f75780639cdae4ee1461040f578063b84dfbd214610433578063c3a07df614610448578063c45a01551461045d578063d70afa9614610472578063dec7542f14610487578063e380d343146104b6575b600080fd5b34801561010957600080fd5b506101126104d7565b604080517fffffffff000000000000000000000000000000000000000000000000000000009092168252519081900360200190f35b34801561015357600080fd5b5061018c60048035600160a060020a031690602480358082019290810135916044358082019290810135916064359081019101356104dd565b005b34801561019a57600080fd5b506101bb60048035600160a060020a03169060248035908101910135610842565b604051808060200180602001838103835285818151815260200191508051906020019060200280838360005b838110156101ff5781810151838201526020016101e7565b50505050905001838103825284818151815260200191508051906020019060200280838360005b8381101561023e578181015183820152602001610226565b5050505090500194505050505060405180910390f35b34801561026057600080fd5b5061027e600160a060020a0360043581169060243516604435610e95565b604080519115158252519081900360200190f35b34801561029e57600080fd5b5061027e600435610ebb565b3480156102b657600080fd5b5061027e600160a060020a03600435166111d7565b3480156102d757600080fd5b506102e0611268565b60408051600160a060020a039092168252519081900360200190f35b34801561030857600080fd5b5061018c600160a060020a0360043516611277565b34801561032957600080fd5b5061033261155d565b60408051918252519081900360200190f35b34801561035057600080fd5b5061035961156f565b60408051602080825283518183015283519192839290830191858101910280838360005b8381101561039557818101518382015260200161037d565b505050509050019250505060405180910390f35b3480156103b557600080fd5b5061027e600160a060020a03600435811690602435166044356115d1565b3480156103df57600080fd5b50610359600160a060020a0360043516602435611631565b34801561040357600080fd5b506102e06004356117bc565b34801561041b57600080fd5b5061018c600160a060020a03600435166024356117e4565b34801561043f57600080fd5b506102e0611b3b565b34801561045457600080fd5b50610359611b4a565b34801561046957600080fd5b506102e0611b9f565b34801561047e57600080fd5b50610332611bae565b34801561049357600080fd5b5061018c600160a060020a03600435811690602435166044356064351515611bd2565b3480156104c257600080fd5b50610332600160a060020a0360043516611dcd565b60005b90565b6000600080516020611eaa833981519152600080600160009054906101000a9004600160a060020a0316600160a060020a0316638da5cb5b6040518163ffffffff1660e060020a028152600401602060405180830381600087803b15801561054457600080fd5b505af1158015610558573d6000803e3d6000fd5b505050506040513d602081101561056e57600080fd5b505160005433600160a060020a0392831681149450911614905081806105915750805b8061062157506001546040805160e060020a638658b8b9028152336004820152306024820152604481018690529051600160a060020a0390921691638658b8b9916064808201926020929091908290030181600087803b1580156105f457600080fd5b505af1158015610608573d6000803e3d6000fd5b505050506040513d602081101561061e57600080fd5b50515b1515610665576040805160e560020a62461bcd0281526020600482015260176024820152600080516020611eca833981519152604482015290519081900360640190fd5b600160a060020a038b1615156106c5576040805160e560020a62461bcd02815260206004820152600f60248201527f696e76616c696420616464726573730000000000000000000000000000000000604482015290519081900360640190fd5b6000891161071d576040805160e560020a62461bcd02815260206004820152601760248201527f30206c656e677468206973206e6f7420616c6c6f776564000000000000000000604482015290519081900360640190fd5b888714610774576040805160e560020a62461bcd02815260206004820152601560248201527f4172726179206c656e677468206d69736d617463680000000000000000000000604482015290519081900360640190fd5b8487146107cb576040805160e560020a62461bcd02815260206004820152601560248201527f4172726179206c656e677468206d69736d617463680000000000000000000000604482015290519081900360640190fd5b600093505b868410156108355761082a8b8b8b878181106107e857fe5b90506020020135600160a060020a03168a8a88818110151561080657fe5b6020029190910135905089898981811061081c57fe5b905060200201351515611ddf565b6001909301926107d0565b5050505050505050505050565b6060806000808281818181805b8a871015610b0157600154600160a060020a031663ac90b4228d8d8a81811061087457fe5b9050602002013560ff166040518263ffffffff1660e060020a028152600401808260ff1660ff168152602001915050600060405180830381600087803b1580156108bd57600080fd5b505af11580156108d1573d6000803e3d6000fd5b505050506040513d6000823e601f3d908101601f1916820160405260208110156108fa57600080fd5b81019080805164010000000081111561091257600080fd5b8201602081018481111561092557600080fd5b815185602082028301116401000000008211171561094257600080fd5b5090995060009850505050505b8551851015610af657858581518110151561096657fe5b90602001906020020151600160a060020a031663c3a07df66040518163ffffffff1660e060020a028152600401600060405180830381600087803b1580156109ad57600080fd5b505af11580156109c1573d6000803e3d6000fd5b505050506040513d6000823e601f3d908101601f1916820160405260208110156109ea57600080fd5b810190808051640100000000811115610a0257600080fd5b82016020810184811115610a1557600080fd5b8151856020820283011164010000000082111715610a3257600080fd5b5090975060009650505050505b8351831015610aeb57600360008787815181101515610a5a57fe5b90602001906020020151600160a060020a0316600160a060020a0316815260200190815260200160002060008e600160a060020a0316600160a060020a0316815260200190815260200160002060008585815181101515610ab757fe5b602090810290910181015182528101919091526040016000205460ff1615610ae0576001909701965b600190920191610a3f565b60019094019361094f565b60019096019561084f565b87604051908082528060200260200182016040528015610b2b578160200160208202803883390190505b50915087604051908082528060200260200182016040528015610b58578160200160208202803883390190505b50905060009750600096505b8a871015610e8357600154600160a060020a031663ac90b4228d8d8a818110610b8957fe5b9050602002013560ff166040518263ffffffff1660e060020a028152600401808260ff1660ff168152602001915050600060405180830381600087803b158015610bd257600080fd5b505af1158015610be6573d6000803e3d6000fd5b505050506040513d6000823e601f3d908101601f191682016040526020811015610c0f57600080fd5b810190808051640100000000811115610c2757600080fd5b82016020810184811115610c3a57600080fd5b8151856020820283011164010000000082111715610c5757600080fd5b5090995060009850505050505b8551851015610e78578585815181101515610c7b57fe5b90602001906020020151600160a060020a031663c3a07df66040518163ffffffff1660e060020a028152600401600060405180830381600087803b158015610cc257600080fd5b505af1158015610cd6573d6000803e3d6000fd5b505050506040513d6000823e601f3d908101601f191682016040526020811015610cff57600080fd5b810190808051640100000000811115610d1757600080fd5b82016020810184811115610d2a57600080fd5b8151856020820283011164010000000082111715610d4757600080fd5b5090975060009650505050505b8351831015610e6d57600360008787815181101515610d6f57fe5b90602001906020020151600160a060020a0316600160a060020a0316815260200190815260200160002060008e600160a060020a0316600160a060020a0316815260200190815260200160002060008585815181101515610dcc57fe5b602090810290910181015182528101919091526040016000205460ff1615610e62578585815181101515610dfc57fe5b906020019060200201518289815181101515610e1457fe5b600160a060020a039092166020928302909101909101528351849084908110610e3957fe5b906020019060200201518189815181101515610e5157fe5b602090810290910101526001909701965b600190920191610d54565b600190940193610c64565b600190960195610b64565b909c909b509950505050505050505050565b600360209081526000938452604080852082529284528284209052825290205460ff1681565b60007f4645455f41444d494e0000000000000000000000000000000000000000000000600080600160009054906101000a9004600160a060020a0316600160a060020a0316638da5cb5b6040518163ffffffff1660e060020a028152600401602060405180830381600087803b158015610f3457600080fd5b505af1158015610f48573d6000803e3d6000fd5b505050506040513d6020811015610f5e57600080fd5b505160005433600160a060020a039283168114945091161490508180610f815750805b8061101157506001546040805160e060020a638658b8b9028152336004820152306024820152604481018690529051600160a060020a0390921691638658b8b9916064808201926020929091908290030181600087803b158015610fe457600080fd5b505af1158015610ff8573d6000803e3d6000fd5b505050506040513d602081101561100e57600080fd5b50515b1515611055576040805160e560020a62461bcd0281526020600482015260176024820152600080516020611eca833981519152604482015290519081900360640190fd5b60025460015460008054604080517f8da5cb5b0000000000000000000000000000000000000000000000000000000081529051600160a060020a03958616956323b872dd95811694931692638da5cb5b92600480820193602093909283900390910190829087803b1580156110c957600080fd5b505af11580156110dd573d6000803e3d6000fd5b505050506040513d60208110156110f357600080fd5b50516040805160e060020a63ffffffff8616028152600160a060020a039384166004820152929091166024830152604482018990525160648083019260209291908290030181600087803b15801561114a57600080fd5b505af115801561115e573d6000803e3d6000fd5b505050506040513d602081101561117457600080fd5b505115156111cc576040805160e560020a62461bcd02815260206004820152601260248201527f556e61626c6520746f2074616b65206665650000000000000000000000000000604482015290519081900360640190fd5b506001949350505050565b6000600160a060020a0382161515611239576040805160e560020a62461bcd02815260206004820152600f60248201527f496e76616c696420616464726573730000000000000000000000000000000000604482015290519081900360640190fd5b600160a060020a0382166000908152600460205260409020541561125f57506001611263565b5060005b919050565b600254600160a060020a031681565b6000600080516020611eaa833981519152600080600160009054906101000a9004600160a060020a0316600160a060020a0316638da5cb5b6040518163ffffffff1660e060020a028152600401602060405180830381600087803b1580156112de57600080fd5b505af11580156112f2573d6000803e3d6000fd5b505050506040513d602081101561130857600080fd5b505160005433600160a060020a03928316811494509116149050818061132b5750805b806113bb57506001546040805160e060020a638658b8b9028152336004820152306024820152604481018690529051600160a060020a0390921691638658b8b9916064808201926020929091908290030181600087803b15801561138e57600080fd5b505af11580156113a2573d6000803e3d6000fd5b505050506040513d60208110156113b857600080fd5b50515b15156113ff576040805160e560020a62461bcd0281526020600482015260176024820152600080516020611eca833981519152604482015290519081900360640190fd5b600160a060020a038516600090815260046020526040902054151561146e576040805160e560020a62461bcd02815260206004820152601760248201527f64656c656761746520646f6573206e6f74206578697374000000000000000000604482015290519081900360640190fd5b600093505b60055484101561153f5784600160a060020a031660058581548110151561149657fe5b600091825260209091200154600160a060020a03161415611534576005805460001981019081106114c357fe5b60009182526020909120015460058054600160a060020a0390921691869081106114e957fe5b6000918252602090912001805473ffffffffffffffffffffffffffffffffffffffff1916600160a060020a03929092169190911790556005805460001901906115329082611e66565b505b600190930192611473565b50505050600160a060020a0316600090815260046020526040812055565b600080516020611eaa83398151915281565b606060058054806020026020016040519081016040528092919081815260200182805480156115c757602002820191906000526020600020905b8154600160a060020a031681526001909101906020018083116115a9575b5050505050905090565b600160a060020a038316600090815260046020526040812054156116265750600160a060020a03808316600090815260036020908152604080832093871683529281528282208483529052205460ff1661162a565b5060005b9392505050565b6060600080825b6005548210156116b557600160a060020a0386166000908152600360205260408120600580549192918590811061166b57fe5b6000918252602080832090910154600160a060020a03168352828101939093526040918201812088825290925290205460ff16156116aa576001909201915b600190910190611638565b826040519080825280602002602001820160405280156116df578160200160208202803883390190505b50905060009250600091505b6005548210156117b357600160a060020a0386166000908152600360205260408120600580549192918590811061171e57fe5b6000918252602080832090910154600160a060020a03168352828101939093526040918201812088825290925290205460ff16156117a857600580548390811061176457fe5b6000918252602090912001548151600160a060020a039091169082908590811061178a57fe5b600160a060020a039092166020928302909101909101526001909201915b6001909101906116eb565b95945050505050565b60058054829081106117ca57fe5b600091825260209091200154600160a060020a0316905081565b600080516020611eaa833981519152600080600160009054906101000a9004600160a060020a0316600160a060020a0316638da5cb5b6040518163ffffffff1660e060020a028152600401602060405180830381600087803b15801561184957600080fd5b505af115801561185d573d6000803e3d6000fd5b505050506040513d602081101561187357600080fd5b505160005433600160a060020a0392831681149450911614905081806118965750805b8061192657506001546040805160e060020a638658b8b9028152336004820152306024820152604481018690529051600160a060020a0390921691638658b8b9916064808201926020929091908290030181600087803b1580156118f957600080fd5b505af115801561190d573d6000803e3d6000fd5b505050506040513d602081101561192357600080fd5b50515b151561196a576040805160e560020a62461bcd0281526020600482015260176024820152600080516020611eca833981519152604482015290519081900360640190fd5b600160a060020a03851615156119ca576040805160e560020a62461bcd02815260206004820152600f60248201527f496e76616c696420616464726573730000000000000000000000000000000000604482015290519081900360640190fd5b831515611a21576040805160e560020a62461bcd02815260206004820152601360248201527f302076616c7565206e6f7420616c6c6f77656400000000000000000000000000604482015290519081900360640190fd5b600160a060020a03851660009081526004602052604090205415611a8f576040805160e560020a62461bcd02815260206004820152600f60248201527f416c72656164792070726573656e740000000000000000000000000000000000604482015290519081900360640190fd5b600160a060020a03851660008181526004602090815260408083208890556005805460018101825593527f036b6384b5eca791c62761152d0c79bb0604c104a5fb6f4eb0703f3154bb3db0909201805473ffffffffffffffffffffffffffffffffffffffff1916841790558151878152429181019190915281517f4affee5c809be0bf6d2aaabc23c591482b6542fdfa026c6d4b96be1fc56e7202929181900390910190a25050505050565b600154600160a060020a031681565b60408051600180825281830190925260609182919060208083019080388339019050509050600080516020611eaa833981519152816000815181101515611b8d57fe5b602090810290910101529050805b5090565b600054600160a060020a031681565b7f4645455f41444d494e000000000000000000000000000000000000000000000081565b600080516020611eaa833981519152600080600160009054906101000a9004600160a060020a0316600160a060020a0316638da5cb5b6040518163ffffffff1660e060020a028152600401602060405180830381600087803b158015611c3757600080fd5b505af1158015611c4b573d6000803e3d6000fd5b505050506040513d6020811015611c6157600080fd5b505160005433600160a060020a039283168114945091161490508180611c845750805b80611d1457506001546040805160e060020a638658b8b9028152336004820152306024820152604481018690529051600160a060020a0390921691638658b8b9916064808201926020929091908290030181600087803b158015611ce757600080fd5b505af1158015611cfb573d6000803e3d6000fd5b505050506040513d6020811015611d1157600080fd5b50515b1515611d58576040805160e560020a62461bcd0281526020600482015260176024820152600080516020611eca833981519152604482015290519081900360640190fd5b600160a060020a0387161515611db8576040805160e560020a62461bcd02815260206004820152600f60248201527f696e76616c696420616464726573730000000000000000000000000000000000604482015290519081900360640190fd5b611dc487878787611ddf565b50505050505050565b60046020526000908152604090205481565b600160a060020a038084166000818152600360209081526040808320948916808452948252808320878452825291829020805486151560ff199091168117909155825193845290830186905282820152426060830152517fc83cadfc779fcf3f5f4999f4d282d87c3b19411e46ce8b6319c254358225aa489181900360800190a250505050565b815481835581811115611e8a57600083815260209020611e8a918101908301611e8f565b505050565b6104da91905b80821115611b9b5760008155600101611e9556004348414e47455f5045524d495353494f4e0000000000000000000000000000005065726d697373696f6e20636865636b206661696c6564000000000000000000a165627a7a72305820e0f31875daf164d1994f8845eceb5f3b839ed212336e7a43beefaa26fab8885e0029",
    "source": "pragma solidity ^0.4.24;\n\nimport \"./IPermissionManager.sol\";\nimport \"../Module.sol\";\n\n/**\n * @title Permission Manager module for core permissioning functionality\n */\ncontract GeneralPermissionManager is IPermissionManager, Module {\n\n    // Mapping used to hold the permissions on the modules provided to delegate, module add => delegate add => permission bytes32 => bool \n    mapping (address => mapping (address => mapping (bytes32 => bool))) public perms;\n    // Mapping hold the delagate details\n    mapping (address => bytes32) public delegateDetails;\n    // Array to track all delegates\n    address[] public allDelegates;\n\n\n    // Permission flag\n    bytes32 public constant CHANGE_PERMISSION = \"CHANGE_PERMISSION\";\n\n    /// Event emitted after any permission get changed for the delegate\n    event ChangePermission(address indexed _delegate, address _module, bytes32 _perm, bool _valid, uint256 _timestamp);\n    /// Used to notify when delegate is added in permission manager contract\n    event AddDelegate(address indexed _delegate, bytes32 _details, uint256 _timestamp);\n\n\n    /// @notice constructor\n    constructor (address _securityToken, address _polyAddress) public\n    Module(_securityToken, _polyAddress)\n    {\n    }\n\n    /**\n     * @notice Init function i.e generalise function to maintain the structure of the module contract\n     * @return bytes4\n     */\n    function getInitFunction() public pure returns (bytes4) {\n        return bytes4(0);\n    }\n\n    /**\n     * @notice Used to check the permission on delegate corresponds to module contract address\n     * @param _delegate Ethereum address of the delegate\n     * @param _module Ethereum contract address of the module\n     * @param _perm Permission flag\n     * @return bool\n     */\n    function checkPermission(address _delegate, address _module, bytes32 _perm) external view returns(bool) {\n        if (delegateDetails[_delegate] != bytes32(0)) {\n            return perms[_module][_delegate][_perm];\n        } else\n            return false;\n    }\n\n    /**\n     * @notice Used to add a delegate\n     * @param _delegate Ethereum address of the delegate\n     * @param _details Details about the delegate i.e `Belongs to financial firm`\n     */\n    function addDelegate(address _delegate, bytes32 _details) external withPerm(CHANGE_PERMISSION) {\n        require(_delegate != address(0), \"Invalid address\");\n        require(_details != bytes32(0), \"0 value not allowed\");\n        require(delegateDetails[_delegate] == bytes32(0), \"Already present\");\n        delegateDetails[_delegate] = _details;\n        allDelegates.push(_delegate);\n        /*solium-disable-next-line security/no-block-members*/\n        emit AddDelegate(_delegate, _details, now);\n    }\n\n    /**\n     * @notice Used to delete a delegate\n     * @param _delegate Ethereum address of the delegate\n     */\n    function deleteDelegate(address _delegate) external withPerm(CHANGE_PERMISSION) {\n        require(delegateDetails[_delegate] != bytes32(0), \"delegate does not exist\");\n        for (uint256 i = 0; i < allDelegates.length; i++) {\n            if (allDelegates[i] == _delegate) {\n                allDelegates[i] = allDelegates[allDelegates.length - 1];\n                allDelegates.length = allDelegates.length - 1;\n            }\n        }\n        delete delegateDetails[_delegate];\n    }\n\n    /**\n     * @notice Used to check if an address is a delegate or not\n     * @param _potentialDelegate the address of potential delegate\n     * @return bool\n     */\n    function checkDelegate(address _potentialDelegate) external view returns(bool) {\n        require(_potentialDelegate != address(0), \"Invalid address\");\n\n        if (delegateDetails[_potentialDelegate] != bytes32(0)) {\n            return true;\n        } else\n            return false;\n    }\n\n    /**\n     * @notice Used to provide/change the permission to the delegate corresponds to the module contract\n     * @param _delegate Ethereum address of the delegate\n     * @param _module Ethereum contract address of the module\n     * @param _perm Permission flag\n     * @param _valid Bool flag use to switch on/off the permission\n     * @return bool\n     */\n    function changePermission(\n        address _delegate,\n        address _module,\n        bytes32 _perm,\n        bool _valid\n    )\n    public\n    withPerm(CHANGE_PERMISSION)\n    {\n        require(_delegate != address(0), \"invalid address\");\n        _changePermission(_delegate, _module, _perm, _valid);\n    }\n\n    /**\n     * @notice Used to change one or more permissions for a single delegate at once\n     * @param _delegate Ethereum address of the delegate\n     * @param _modules Multiple module matching the multiperms, needs to be same length\n     * @param _perms Multiple permission flag needs to be changed\n     * @param _valids Bool array consist the flag to switch on/off the permission\n     * @return nothing\n     */\n    function changePermissionMulti(\n        address _delegate,\n        address[] _modules,\n        bytes32[] _perms,\n        bool[] _valids\n    )\n    external\n    withPerm(CHANGE_PERMISSION)\n    {\n        require(_delegate != address(0), \"invalid address\");\n        require(_modules.length > 0, \"0 length is not allowed\");\n        require(_modules.length == _perms.length, \"Array length mismatch\");\n        require(_valids.length == _perms.length, \"Array length mismatch\");\n        for(uint256 i = 0; i < _perms.length; i++) {\n            _changePermission(_delegate, _modules[i], _perms[i], _valids[i]);\n        }\n    }\n\n    /**\n     * @notice Used to return all delegates with a given permission and module\n     * @param _module Ethereum contract address of the module\n     * @param _perm Permission flag\n     * @return address[]\n     */\n    function getAllDelegatesWithPerm(address _module, bytes32 _perm) external view returns(address[]) {\n        uint256 counter = 0;\n        uint256 i = 0;\n        for (i = 0; i < allDelegates.length; i++) {\n            if (perms[_module][allDelegates[i]][_perm]) {\n                counter++;\n            }\n        }\n        address[] memory allDelegatesWithPerm = new address[](counter);\n        counter = 0;\n        for (i = 0; i < allDelegates.length; i++) {\n            if (perms[_module][allDelegates[i]][_perm]){\n                allDelegatesWithPerm[counter] = allDelegates[i];\n                counter++;\n            }\n        }\n        return allDelegatesWithPerm;\n    }\n\n    /**\n     * @notice Used to return all permission of a single or multiple module\n     * @dev possible that function get out of gas is there are lot of modules and perm related to them\n     * @param _delegate Ethereum address of the delegate\n     * @param _types uint8[] of types\n     * @return address[] the address array of Modules this delegate has permission\n     * @return bytes32[] the permission array of the corresponding Modules\n     */\n    function getAllModulesAndPermsFromTypes(address _delegate, uint8[] _types) external view returns(address[], bytes32[]) {\n        uint256 counter = 0;\n        // loop through _types and get their modules from securityToken->getModulesByType\n        for (uint256 i = 0; i < _types.length; i++) {\n            address[] memory _currentTypeModules = ISecurityToken(securityToken).getModulesByType(_types[i]);\n            // loop through each modules to get their perms from IModule->getPermissions\n            for (uint256 j = 0; j < _currentTypeModules.length; j++){\n                bytes32[] memory _allModulePerms = IModule(_currentTypeModules[j]).getPermissions();\n                // loop through each perm, if it is true, push results into arrays\n                for (uint256 k = 0; k < _allModulePerms.length; k++) {\n                    if (perms[_currentTypeModules[j]][_delegate][_allModulePerms[k]]) {\n                        counter ++;\n                    }\n                }\n            }\n        }\n\n        address[] memory _allModules = new address[](counter);\n        bytes32[] memory _allPerms = new bytes32[](counter);\n        counter = 0;\n\n        for (i = 0; i < _types.length; i++){\n            _currentTypeModules = ISecurityToken(securityToken).getModulesByType(_types[i]);\n            for (j = 0; j < _currentTypeModules.length; j++) {\n                _allModulePerms = IModule(_currentTypeModules[j]).getPermissions();\n                for (k = 0; k < _allModulePerms.length; k++) {\n                    if (perms[_currentTypeModules[j]][_delegate][_allModulePerms[k]]) {\n                        _allModules[counter] = _currentTypeModules[j];\n                        _allPerms[counter] = _allModulePerms[k];\n                        counter++;\n                    }\n                }\n            }\n        }\n\n        return(_allModules, _allPerms);\n    }\n\n    /**\n     * @notice Used to provide/change the permission to the delegate corresponds to the module contract\n     * @param _delegate Ethereum address of the delegate\n     * @param _module Ethereum contract address of the module\n     * @param _perm Permission flag\n     * @param _valid Bool flag use to switch on/off the permission\n     * @return bool\n     */\n    function _changePermission(\n        address _delegate,\n        address _module,\n        bytes32 _perm,\n        bool _valid\n    )\n     internal\n    {\n        perms[_module][_delegate][_perm] = _valid;\n        /*solium-disable-next-line security/no-block-members*/\n        emit ChangePermission(_delegate, _module, _perm, _valid, now);\n    }\n\n    /**\n     * @notice Used to get all delegates\n     * @return address[]\n     */\n    function getAllDelegates() external view returns(address[]) {\n        return allDelegates;\n    }\n    \n    /**\n    * @notice Returns the Permission flag related the `this` contract\n    * @return Array of permission flags\n    */\n    function getPermissions() public view returns(bytes32[]) {\n        bytes32[] memory allPermissions = new bytes32[](1);\n        allPermissions[0] = CHANGE_PERMISSION;\n        return allPermissions;\n    }\n\n}\n",
    "sourcePath": "/Users/polymath/polymath-core/contracts/modules/PermissionManager/GeneralPermissionManager.sol",
    "compiler": {
        "name": "solc",
        "version": "0.4.24+commit.e67f0147.Emscripten.clang"
    },
    "schemaVersion": "2.0.1",
    "updatedAt": "2019-01-08T14:53:24.965Z"
}