{
  "contractName": "CappedSTOFactory",
  "abi": [
    {
      "constant": true,
      "inputs": [],
      "name": "name",
      "outputs": [
        {
          "name": "",
          "type": "bytes32"
        }
      ],
      "payable": false,
      "stateMutability": "view",
      "type": "function"
    },
    {
      "constant": false,
      "inputs": [
        {
          "name": "_module",
          "type": "address"
        }
      ],
      "name": "upgrade",
      "outputs": [],
      "payable": false,
      "stateMutability": "nonpayable",
      "type": "function"
    },
    {
      "constant": false,
      "inputs": [
        {
          "name": "_setupCost",
          "type": "uint256"
        }
      ],
      "name": "changeSetupCost",
      "outputs": [],
      "payable": false,
      "stateMutability": "nonpayable",
      "type": "function"
    },
    {
      "constant": false,
      "inputs": [
        {
          "name": "_tagsData",
          "type": "bytes32[]"
        }
      ],
      "name": "changeTags",
      "outputs": [],
      "payable": false,
      "stateMutability": "nonpayable",
      "type": "function"
    },
    {
      "constant": false,
      "inputs": [],
      "name": "setupCostInPoly",
      "outputs": [
        {
          "name": "",
          "type": "uint256"
        }
      ],
      "payable": false,
      "stateMutability": "nonpayable",
      "type": "function"
    },
    {
      "constant": false,
      "inputs": [
        {
          "name": "_title",
          "type": "string"
        }
      ],
      "name": "changeTitle",
      "outputs": [],
      "payable": false,
      "stateMutability": "nonpayable",
      "type": "function"
    },
    {
      "constant": false,
      "inputs": [
        {
          "name": "_version",
          "type": "string"
        },
        {
          "name": "_logicContract",
          "type": "address"
        },
        {
          "name": "_upgradeData",
          "type": "bytes"
        }
      ],
      "name": "setLogicContract",
      "outputs": [],
      "payable": false,
      "stateMutability": "nonpayable",
      "type": "function"
    },
    {
      "constant": true,
      "inputs": [],
      "name": "isCostInPoly",
      "outputs": [
        {
          "name": "",
          "type": "bool"
        }
      ],
      "payable": false,
      "stateMutability": "view",
      "type": "function"
    },
    {
      "constant": true,
      "inputs": [],
      "name": "title",
      "outputs": [
        {
          "name": "",
          "type": "string"
        }
      ],
      "payable": false,
      "stateMutability": "view",
      "type": "function"
    },
    {
      "constant": true,
      "inputs": [],
      "name": "version",
      "outputs": [
        {
          "name": "",
          "type": "string"
        }
      ],
      "payable": false,
      "stateMutability": "view",
      "type": "function"
    },
    {
      "constant": true,
      "inputs": [],
      "name": "latestUpgrade",
      "outputs": [
        {
          "name": "",
          "type": "uint256"
        }
      ],
      "payable": false,
      "stateMutability": "view",
      "type": "function"
    },
    {
      "constant": true,
      "inputs": [
        {
          "name": "",
          "type": "uint256"
        }
      ],
      "name": "logicContracts",
      "outputs": [
        {
          "name": "version",
          "type": "string"
        },
        {
          "name": "logicContract",
          "type": "address"
        },
        {
          "name": "upgradeData",
          "type": "bytes"
        }
      ],
      "payable": false,
      "stateMutability": "view",
      "type": "function"
    },
    {
      "constant": false,
      "inputs": [],
      "name": "renounceOwnership",
      "outputs": [],
      "payable": false,
      "stateMutability": "nonpayable",
      "type": "function"
    },
    {
      "constant": true,
      "inputs": [],
      "name": "description",
      "outputs": [
        {
          "name": "",
          "type": "string"
        }
      ],
      "payable": false,
      "stateMutability": "view",
      "type": "function"
    },
    {
      "constant": true,
      "inputs": [],
      "name": "polymathRegistry",
      "outputs": [
        {
          "name": "",
          "type": "address"
        }
      ],
      "payable": false,
      "stateMutability": "view",
      "type": "function"
    },
    {
      "constant": true,
      "inputs": [],
      "name": "setupCost",
      "outputs": [
        {
          "name": "",
          "type": "uint256"
        }
      ],
      "payable": false,
      "stateMutability": "view",
      "type": "function"
    },
    {
      "constant": true,
      "inputs": [],
      "name": "getLowerSTVersionBounds",
      "outputs": [
        {
          "name": "",
          "type": "uint8[]"
        }
      ],
      "payable": false,
      "stateMutability": "view",
      "type": "function"
    },
    {
      "constant": false,
      "inputs": [
        {
          "name": "_name",
          "type": "bytes32"
        }
      ],
      "name": "changeName",
      "outputs": [],
      "payable": false,
      "stateMutability": "nonpayable",
      "type": "function"
    },
    {
      "constant": true,
      "inputs": [],
      "name": "owner",
      "outputs": [
        {
          "name": "",
          "type": "address"
        }
      ],
      "payable": false,
      "stateMutability": "view",
      "type": "function"
    },
    {
      "constant": true,
      "inputs": [],
      "name": "isOwner",
      "outputs": [
        {
          "name": "",
          "type": "bool"
        }
      ],
      "payable": false,
      "stateMutability": "view",
      "type": "function"
    },
    {
      "constant": true,
      "inputs": [],
      "name": "getTags",
      "outputs": [
        {
          "name": "",
          "type": "bytes32[]"
        }
      ],
      "payable": false,
      "stateMutability": "view",
      "type": "function"
    },
    {
      "constant": true,
      "inputs": [
        {
          "name": "",
          "type": "address"
        },
        {
          "name": "",
          "type": "address"
        }
      ],
      "name": "modules",
      "outputs": [
        {
          "name": "",
          "type": "uint256"
        }
      ],
      "payable": false,
      "stateMutability": "view",
      "type": "function"
    },
    {
      "constant": true,
      "inputs": [
        {
          "name": "",
          "type": "address"
        }
      ],
      "name": "moduleToSecurityToken",
      "outputs": [
        {
          "name": "",
          "type": "address"
        }
      ],
      "payable": false,
      "stateMutability": "view",
      "type": "function"
    },
    {
      "constant": true,
      "inputs": [],
      "name": "getTypes",
      "outputs": [
        {
          "name": "",
          "type": "uint8[]"
        }
      ],
      "payable": false,
      "stateMutability": "view",
      "type": "function"
    },
    {
      "constant": false,
      "inputs": [
        {
          "name": "_setupCost",
          "type": "uint256"
        },
        {
          "name": "_isCostInPoly",
          "type": "bool"
        }
      ],
      "name": "changeCostAndType",
      "outputs": [],
      "payable": false,
      "stateMutability": "nonpayable",
      "type": "function"
    },
    {
      "constant": false,
      "inputs": [
        {
          "name": "_upgrade",
          "type": "uint256"
        },
        {
          "name": "_version",
          "type": "string"
        },
        {
          "name": "_logicContract",
          "type": "address"
        },
        {
          "name": "_upgradeData",
          "type": "bytes"
        }
      ],
      "name": "updateLogicContract",
      "outputs": [],
      "payable": false,
      "stateMutability": "nonpayable",
      "type": "function"
    },
    {
      "constant": false,
      "inputs": [
        {
          "name": "_description",
          "type": "string"
        }
      ],
      "name": "changeDescription",
      "outputs": [],
      "payable": false,
      "stateMutability": "nonpayable",
      "type": "function"
    },
    {
      "constant": false,
      "inputs": [
        {
          "name": "newOwner",
          "type": "address"
        }
      ],
      "name": "transferOwnership",
      "outputs": [],
      "payable": false,
      "stateMutability": "nonpayable",
      "type": "function"
    },
    {
      "constant": true,
      "inputs": [],
      "name": "getUpperSTVersionBounds",
      "outputs": [
        {
          "name": "",
          "type": "uint8[]"
        }
      ],
      "payable": false,
      "stateMutability": "view",
      "type": "function"
    },
    {
      "constant": false,
      "inputs": [
        {
          "name": "_boundType",
          "type": "string"
        },
        {
          "name": "_newVersion",
          "type": "uint8[]"
        }
      ],
      "name": "changeSTVersionBounds",
      "outputs": [],
      "payable": false,
      "stateMutability": "nonpayable",
      "type": "function"
    },
    {
      "inputs": [
        {
          "name": "_setupCost",
          "type": "uint256"
        },
        {
          "name": "_logicContract",
          "type": "address"
        },
        {
          "name": "_polymathRegistry",
          "type": "address"
        },
        {
          "name": "_isCostInPoly",
          "type": "bool"
        }
      ],
      "payable": false,
      "stateMutability": "nonpayable",
      "type": "constructor"
    },
    {
      "anonymous": false,
      "inputs": [
        {
          "indexed": false,
          "name": "_version",
          "type": "string"
        },
        {
          "indexed": false,
          "name": "_upgrade",
          "type": "uint256"
        },
        {
          "indexed": false,
          "name": "_logicContract",
          "type": "address"
        },
        {
          "indexed": false,
          "name": "_upgradeData",
          "type": "bytes"
        }
      ],
      "name": "LogicContractSet",
      "type": "event"
    },
    {
      "anonymous": false,
      "inputs": [
        {
          "indexed": true,
          "name": "_module",
          "type": "address"
        },
        {
          "indexed": true,
          "name": "_securityToken",
          "type": "address"
        },
        {
          "indexed": true,
          "name": "_version",
          "type": "uint256"
        }
      ],
      "name": "ModuleUpgraded",
      "type": "event"
    },
    {
      "anonymous": false,
      "inputs": [
        {
          "indexed": true,
          "name": "previousOwner",
          "type": "address"
        },
        {
          "indexed": true,
          "name": "newOwner",
          "type": "address"
        }
      ],
      "name": "OwnershipTransferred",
      "type": "event"
    },
    {
      "anonymous": false,
      "inputs": [
        {
          "indexed": false,
          "name": "_oldSetupCost",
          "type": "uint256"
        },
        {
          "indexed": false,
          "name": "_newSetupCost",
          "type": "uint256"
        }
      ],
      "name": "ChangeSetupCost",
      "type": "event"
    },
    {
      "anonymous": false,
      "inputs": [
        {
          "indexed": false,
          "name": "_isOldCostInPoly",
          "type": "bool"
        },
        {
          "indexed": false,
          "name": "_isNewCostInPoly",
          "type": "bool"
        }
      ],
      "name": "ChangeCostType",
      "type": "event"
    },
    {
      "anonymous": false,
      "inputs": [
        {
          "indexed": false,
          "name": "_module",
          "type": "address"
        },
        {
          "indexed": true,
          "name": "_moduleName",
          "type": "bytes32"
        },
        {
          "indexed": true,
          "name": "_moduleFactory",
          "type": "address"
        },
        {
          "indexed": false,
          "name": "_creator",
          "type": "address"
        },
        {
          "indexed": false,
          "name": "_setupCost",
          "type": "uint256"
        },
        {
          "indexed": false,
          "name": "_setupCostInPoly",
          "type": "uint256"
        }
      ],
      "name": "GenerateModuleFromFactory",
      "type": "event"
    },
    {
      "anonymous": false,
      "inputs": [
        {
          "indexed": false,
          "name": "_boundType",
          "type": "string"
        },
        {
          "indexed": false,
          "name": "_major",
          "type": "uint8"
        },
        {
          "indexed": false,
          "name": "_minor",
          "type": "uint8"
        },
        {
          "indexed": false,
          "name": "_patch",
          "type": "uint8"
        }
      ],
      "name": "ChangeSTVersionBound",
      "type": "event"
    },
    {
      "constant": false,
      "inputs": [
        {
          "name": "_data",
          "type": "bytes"
        }
      ],
      "name": "deploy",
      "outputs": [
        {
          "name": "",
          "type": "address"
        }
      ],
      "payable": false,
      "stateMutability": "nonpayable",
      "type": "function"
    }
  ],
  "bytecode": "0x60806040523480156200001157600080fd5b50604051608080620050f0833981018060405260808110156200003357600080fd5b50805160208083015160408085015160609095015181518083018352600581527f332e312e300000000000000000000000000000000000000000000000000000009481019490945260008054600160a060020a03191633178082559251959693959394919391928792879287928792869285928592600160a060020a039190911691907f8be0079c531659141344cd1fd0a4f28419497f9722a3daafe3b4186f6b6457e0908290a360099290925560018054600160a060020a031916600160a060020a039283161790556008805460ff19169215159290921790915583166200017d57604080517f08c379a000000000000000000000000000000000000000000000000000000000815260206004820152600f60248201527f496e76616c696420616464726573730000000000000000000000000000000000604482015290519081900360640190fd5b600e80546000908152600b602090815260408083206001018054600160a060020a031916600160a060020a038916179055925482529190208651620001c592880190620004e2565b50507f43617070656453544f0000000000000000000000000000000000000000000000600355505060408051808201909152600a8082527f4361707065642053544f00000000000000000000000000000000000000000000602090920191825262000235935060049250620004e2565b50604051806101600160405280610139815260200162004fb7610139913980516200026991600591602090910190620004e2565b50600680546001818101835560208083047ff652222313e28459528d920b65115c16c04f3efc82aaedc97be59f3f377c0d3f9081018054601f95861661010090810a600381810260ff92830219909416939093179093558754808701895585810485018054918916830a6008810290860219909216919091179055875480870190985593870490920180549690951690920a600581029202199094161790915560078054808301825560008281527f43617070656400000000000000000000000000000000000000000000000000007fa66cc928b5edb82af9bd49922954155ab7b0942694bea4ce44661d9a8736c68892830155825480850184557f455448000000000000000000000000000000000000000000000000000000000090830155825480850184557f504f4c59000000000000000000000000000000000000000000000000000000009083015582549384019092557f53544f0000000000000000000000000000000000000000000000000000000000920191909155620003ff91908064010000000062002b3b620004c782021704565b604080517f6c6f776572426f756e64000000000000000000000000000000000000000000008152600a81810152905190819003602a019020805462ffffff9290921662ffffff199092169190911790556200046c600360008064010000000062002b3b620004c782021704565b604080517f7570706572426f756e64000000000000000000000000000000000000000000008152600a81810152905190819003602a019020805462ffffff9290921662ffffff19909216919091179055506200058792505050565b60ff9081169181166101000292166201000002919091171790565b828054600181600116156101000203166002900490600052602060002090601f016020900481019282601f106200052557805160ff191683800117855562000555565b8280016001018555821562000555579182015b828111156200055557825182559160200191906001019062000538565b506200056392915062000567565b5090565b6200058491905b808211156200056357600081556001016200056e565b90565b614a2080620005976000396000f3fe60806040523480156200001157600080fd5b5060043610620002175760003560e060020a9004806377282b70116200012d578063a76a0cad11620000b5578063e6120413116200007f578063e6120413146200094a578063f2fde38b14620009f6578063f78629991462000a1f578063fb9724561462000a295762000217565b8063a76a0cad1462000810578063b4579d601462000839578063c97767f01462000843578063d26633e0146200086b5762000217565b80638da5cb5b11620000f75780638da5cb5b14620007c15780638f32d59b14620007cb578063995d9ab714620007d5578063a01fe64614620007df5762000217565b806377282b7014620007315780637e363ffa146200073b5780638677768f1462000745578063898855ed14620007a15762000217565b80633c1fdaa511620001b157806360fece01116200017b57806360fece0114620005f65780636b68e1441462000600578063715018a6146200071d5780637284e41614620007275762000217565b80633c1fdaa51462000474578063436846b8146200054c5780634a79d50c146200056a57806354fd4d5014620005ec5762000217565b80630c4c2d8f11620001f35780630c4c2d8f14620002f5578063265a721814620003155780632d0aa22e14620003be5780632dbe07c714620003c85762000217565b8062774360146200021c57806306fdde0314620002ae5780630900f01014620002ca575b600080fd5b62000292600480360360208110156200023457600080fd5b8101906020810181356401000000008111156200025057600080fd5b8201836020820111156200026357600080fd5b803590602001918460018302840111640100000000831117156200028657600080fd5b50909250905062000af4565b60408051600160a060020a039092168252519081900360200190f35b620002b862000cee565b60408051918252519081900360200190f35b620002f360048036036020811015620002e257600080fd5b5035600160a060020a031662000cf4565b005b620002f3600480360360208110156200030d57600080fd5b503562000fd8565b620002f3600480360360208110156200032d57600080fd5b8101906020810181356401000000008111156200034957600080fd5b8201836020820111156200035c57600080fd5b803590602001918460208302840111640100000000831117156200037f57600080fd5b9190808060200260200160405190810160405280939291908181526020018383602002808284376000920191909152509295506200102e945050505050565b620002b8620010a4565b620002f360048036036020811015620003e057600080fd5b810190602081018135640100000000811115620003fc57600080fd5b8201836020820111156200040f57600080fd5b803590602001918460018302840111640100000000831117156200043257600080fd5b91908080601f01602080910402602001604051908101604052809392919081815260200183838082843760009201919091525092955062001272945050505050565b620002f3600480360360608110156200048c57600080fd5b810190602081018135640100000000811115620004a857600080fd5b820183602082011115620004bb57600080fd5b80359060200191846001830284011164010000000083111715620004de57600080fd5b91939092600160a060020a03833516926040810190602001356401000000008111156200050a57600080fd5b8201836020820111156200051d57600080fd5b803590602001918460018302840111640100000000831117156200054057600080fd5b509092509050620012e4565b6200055662001552565b604080519115158252519081900360200190f35b620005746200155b565b6040805160208082528351818301528351919283929083019185019080838360005b83811015620005b057818101518382015260200162000596565b50505050905090810190601f168015620005de5780820380516001836020036101000a031916815260200191505b509250505060405180910390f35b62000574620015ed565b620002b862001693565b62000620600480360360208110156200061857600080fd5b503562001699565b604051808060200184600160a060020a0316600160a060020a0316815260200180602001838103835286818151815260200191508051906020019080838360005b838110156200067b57818101518382015260200162000661565b50505050905090810190601f168015620006a95780820380516001836020036101000a031916815260200191505b50838103825284518152845160209182019186019080838360005b83811015620006de578181015183820152602001620006c4565b50505050905090810190601f1680156200070c5780820380516001836020036101000a031916815260200191505b509550505050505060405180910390f35b620002f3620017e6565b6200057462001851565b62000292620018af565b620002b8620018be565b6200074f620018c4565b60408051602080825283518183015283519192839290830191858101910280838360005b838110156200078d57818101518382015260200162000773565b505050509050019250505060405180910390f35b620002f360048036036020811015620007b957600080fd5b503562001915565b6200029262001973565b6200055662001982565b6200074f62001993565b620002b860048036036040811015620007f757600080fd5b50600160a060020a0381358116916020013516620019ec565b62000292600480360360208110156200082857600080fd5b5035600160a060020a031662001a09565b6200074f62001a24565b620002f3600480360360408110156200085b57600080fd5b5080359060200135151562001a9b565b620002f3600480360360808110156200088357600080fd5b81359190810190604081016020820135640100000000811115620008a657600080fd5b820183602082011115620008b957600080fd5b80359060200191846001830284011164010000000083111715620008dc57600080fd5b91939092600160a060020a03833516926040810190602001356401000000008111156200090857600080fd5b8201836020820111156200091b57600080fd5b803590602001918460018302840111640100000000831117156200093e57600080fd5b50909250905062001b49565b620002f3600480360360208110156200096257600080fd5b8101906020810181356401000000008111156200097e57600080fd5b8201836020820111156200099157600080fd5b80359060200191846001830284011164010000000083111715620009b457600080fd5b91908080601f01602080910402602001604051908101604052809392919081815260200183838082843760009201919091525092955062001e6d945050505050565b620002f36004803603602081101562000a0e57600080fd5b5035600160a060020a031662001edf565b6200074f62001f01565b620002f36004803603604081101562000a4157600080fd5b81019060208101813564010000000081111562000a5d57600080fd5b82018360208201111562000a7057600080fd5b8035906020019184600183028401116401000000008311171562000a9357600080fd5b91939092909160208101903564010000000081111562000ab257600080fd5b82018360208201111562000ac557600080fd5b8035906020019184602083028401116401000000008311171562000ae857600080fd5b50909250905062001f4d565b600e546000908152600b60209081526040808320600154825160e060020a63bf40fac102815260048101859052600960248201527f506f6c79546f6b656e000000000000000000000000000000000000000000000060448201529251859492933393600160a060020a039093169263bf40fac192606480840193829003018186803b15801562000b8357600080fd5b505afa15801562000b98573d6000803e3d6000fd5b505050506040513d602081101562000baf57600080fd5b5051600e546000908152600b602052604090819020600101549051600160a060020a039091169062000be1906200309d565b600160a060020a0380851660208301528381166040830152821660608201526080808252855460026000196101006001841615020190911604908201819052819060a08201908790801562000c7a5780601f1062000c4e5761010080835404028352916020019162000c7a565b820191906000526020600020905b81548152906001019060200180831162000c5c57829003601f168201915b505095505050505050604051809103906000f08015801562000ca0573d6000803e3d6000fd5b50905062000ce58185858080601f0160208091040260200160405190810160405280939291908181526020018383808284376000920191909152506200249692505050565b90505b92915050565b60035481565b600160a060020a038181166000908152600d602052604090205416331462000d66576040805160e560020a62461bcd02815260206004820152601060248201527f496e636f72726563742063616c6c657200000000000000000000000000000000604482015290519081900360640190fd5b336000908152600c60209081526040808320600160a060020a0385168452909152902054600e5460019091019081111562000deb576040805160e560020a62461bcd02815260206004820152601160248201527f496e636f72726563742076657273696f6e000000000000000000000000000000604482015290519081900360640190fd5b6000818152600b60205260409081902060018082015492517f958a41dd000000000000000000000000000000000000000000000000000000008152600160a060020a03938416602482018190526060600483019081528454600260001995821615610100029590950116849004606484018190529588169563958a41dd959492939285019282916044820191608401908790801562000ece5780601f1062000ea25761010080835404028352916020019162000ece565b820191906000526020600020905b81548152906001019060200180831162000eb057829003601f168201915b505083810382528454600260001961010060018416150201909116048082526020909101908590801562000f465780601f1062000f1a5761010080835404028352916020019162000f46565b820191906000526020600020905b81548152906001019060200180831162000f2857829003601f168201915b505095505050505050600060405180830381600087803b15801562000f6a57600080fd5b505af115801562000f7f573d6000803e3d6000fd5b5050336000818152600c60209081526040808320600160a060020a038916808552925280832087905551869550929350917f6b272426dd4b3366b853f4e32bb7fce7392e461688b7a8bf942bd61f756f1d0f9190a45050565b62000fe262001982565b62000fec57600080fd5b600954604080519182526020820183905280517f599b244d21db9af3e5c0ec6cd4af8b4c6085c9ac647c72f008f8c40d0d7cd1be9281900390910190a1600955565b6200103862001982565b6200104257600080fd5b60008151116200108b576040805160e560020a62461bcd02815260206004820152600c6024820152600080516020620049d5833981519152604482015290519081900360640190fd5b8051620010a0906007906020840190620030ab565b5050565b60085460009060ff1615620010bd57506009546200126f565b600154604080518082018252601381527f537461626c65506f6c795573644f7261636c65000000000000000000000000006020808301918252925160e060020a63bf40fac102815260048101938452825160248201528251600095600160a060020a03169463bf40fac1949390928392604490910191908083838b5b838110156200115357818101518382015260200162001139565b50505050905090810190601f168015620011815780820380516001836020036101000a031916815260200191505b509250505060206040518083038186803b1580156200119f57600080fd5b505afa158015620011b4573d6000803e3d6000fd5b505050506040513d6020811015620011cb57600080fd5b5051604080517f98d5fdca0000000000000000000000000000000000000000000000000000000081529051600160a060020a03909216916398d5fdca916004808201926020929091908290030181600087803b1580156200122b57600080fd5b505af115801562001240573d6000803e3d6000fd5b505050506040513d60208110156200125757600080fd5b50516009549091506200126b9082620024f6565b9150505b90565b6200127c62001982565b6200128657600080fd5b6000815111620012cf576040805160e560020a62461bcd02815260206004820152600c6024820152600080516020620049d5833981519152604482015290519081900360640190fd5b8051620010a0906004906020840190620030fb565b620012ee62001982565b620012f857600080fd5b600b6000600e5481526020019081526020016000206000016040516020018082805460018160011615610100020316600290048015620013725780601f106200134f57610100808354040283529182019162001372565b820191906000526020600020905b8154815290600101906020018083116200135d575b505091505060405160208183030381529060405280519060200120858560405160200180838380828437808301925050509250505060405160208183030381529060405280519060200120141562001403576040805160e560020a62461bcd02815260206004820152600c6024820152600080516020620049b5833981519152604482015290519081900360640190fd5b600e546000908152600b6020526040902060010154600160a060020a03848116911614156200146b576040805160e560020a62461bcd02815260206004820152600c6024820152600080516020620049b5833981519152604482015290519081900360640190fd5b600160a060020a038316620014ca576040805160e560020a62461bcd02815260206004820152600f60248201527f496e76616c696420616464726573730000000000000000000000000000000000604482015290519081900360640190fd5b600e805460010190819055604080516020601f88018190048102820181019092528681526200154b9291889088908190840183828082843760009201919091525050604080516020601f8901819004810282018101909252878152899350915087908790819084018382808284376000920191909152506200252b92505050565b5050505050565b60085460ff1681565b6004805460408051602060026001851615610100026000190190941693909304601f81018490048402820184019092528181529291830182828015620015e55780601f10620015b957610100808354040283529160200191620015e5565b820191906000526020600020905b815481529060010190602001808311620015c757829003601f168201915b505050505081565b600e546000908152600b602090815260409182902080548351601f6002600019610100600186161502019093169290920491820184900484028101840190945280845260609392830182828015620016895780601f106200165d5761010080835404028352916020019162001689565b820191906000526020600020905b8154815290600101906020018083116200166b57829003601f168201915b5050505050905090565b600e5481565b600b6020908152600091825260409182902080548351601f60026000196101006001861615020190931692909204918201849004840281018401909452808452909291839190830182828015620017345780601f10620017085761010080835404028352916020019162001734565b820191906000526020600020905b8154815290600101906020018083116200171657829003601f168201915b505050506001838101546002808601805460408051602061010097841615979097026000190190921693909304601f81018690048602820186019093528281529596600160a060020a03909316959294509192830182828015620017dc5780601f10620017b057610100808354040283529160200191620017dc565b820191906000526020600020905b815481529060010190602001808311620017be57829003601f168201915b5050505050905083565b620017f062001982565b620017fa57600080fd5b60008054604051600160a060020a03909116907f8be0079c531659141344cd1fd0a4f28419497f9722a3daafe3b4186f6b6457e0908390a36000805473ffffffffffffffffffffffffffffffffffffffff19169055565b6005805460408051602060026001851615610100026000190190941693909304601f81018490048402820184019092528181529291830182828015620015e55780601f10620015b957610100808354040283529160200191620015e5565b600154600160a060020a031681565b60095481565b604080517f6c6f776572426f756e64000000000000000000000000000000000000000000008152600a81810152905190819003602a01902054606090620019109062ffffff16620027f5565b905090565b6200191f62001982565b6200192957600080fd5b806200196e576040805160e560020a62461bcd02815260206004820152600c6024820152600080516020620049d5833981519152604482015290519081900360640190fd5b600355565b600054600160a060020a031690565b600054600160a060020a0316331490565b606060078054806020026020016040519081016040528092919081815260200182805480156200168957602002820191906000526020600020905b815481526020019060010190808311620019ce575050505050905090565b600c60209081526000928352604080842090915290825290205481565b600d60205260009081526040902054600160a060020a031681565b606060068054806020026020016040519081016040528092919081815260200182805480156200168957602002820191906000526020600020906000905b825461010083900a900460ff1681526020600192830181810494850194909303909202910180841162001a625790505050505050905090565b62001aa562001982565b62001aaf57600080fd5b600954604080519182526020820184905280517f599b244d21db9af3e5c0ec6cd4af8b4c6085c9ac647c72f008f8c40d0d7cd1be9281900390910190a16008546040805160ff90921615158252821515602083015280517f243562d4d8acd21cf96c899dfa0c26774212a5181e5e40f852c7e6b66b7b96db9281900390910190a16009919091556008805460ff1916911515919091179055565b62001b5362001982565b62001b5d57600080fd5b600e5486111562001bb8576040805160e560020a62461bcd02815260206004820152600f60248201527f496e76616c696420757067726164650000000000000000000000000000000000604482015290519081900360640190fd5b851562001d3557600b6000600188038152602001908152602001600020600001604051602001808280546001816001161561010002031660029004801562001c3a5780601f1062001c1757610100808354040283529182019162001c3a565b820191906000526020600020905b81548152906001019060200180831162001c25575b505091505060405160208183030381529060405280519060200120858560405160200180838380828437808301925050509250505060405160208183030381529060405280519060200120141562001ccb576040805160e560020a62461bcd02815260206004820152600c6024820152600080516020620049b5833981519152604482015290519081900360640190fd5b60001986016000908152600b6020526040902060010154600160a060020a038481169116141562001d35576040805160e560020a62461bcd02815260206004820152600c6024820152600080516020620049b5833981519152604482015290519081900360640190fd5b600160a060020a03831662001d94576040805160e560020a62461bcd02815260206004820152600f60248201527f496e76616c696420616464726573730000000000000000000000000000000000604482015290519081900360640190fd5b6004811162001ded576040805160e560020a62461bcd02815260206004820152600f60248201527f496e76616c696420557067726164650000000000000000000000000000000000604482015290519081900360640190fd5b62001e658686868080601f01602080910402602001604051908101604052809392919081815260200183838082843760009201919091525050604080516020601f8901819004810282018101909252878152899350915087908790819084018382808284376000920191909152506200252b92505050565b505050505050565b62001e7762001982565b62001e8157600080fd5b600081511162001eca576040805160e560020a62461bcd02815260206004820152600c6024820152600080516020620049d5833981519152604482015290519081900360640190fd5b8051620010a0906005906020840190620030fb565b62001ee962001982565b62001ef357600080fd5b62001efe816200289d565b50565b604080517f7570706572426f756e64000000000000000000000000000000000000000000008152600a81810152905190819003602a01902054606090620019109062ffffff16620027f5565b62001f5762001982565b62001f6157600080fd5b60405160200180807f6c6f776572426f756e6400000000000000000000000000000000000000000000815250600a01905060405160208183030381529060405280519060200120848460405160200180838380828437808301925050509250505060405160208183030381529060405280519060200120148062002059575060405160200180807f7570706572426f756e6400000000000000000000000000000000000000000000815250600a01905060405160208183030381529060405280519060200120848460405160200180838380828437808301925050509250505060405160208183030381529060405280519060200120145b620020ae576040805160e560020a62461bcd02815260206004820152601260248201527f496e76616c696420626f756e6420747970650000000000000000000000000000604482015290519081900360640190fd5b6003811462002107576040805160e560020a62461bcd02815260206004820152600f60248201527f496e76616c69642076657273696f6e0000000000000000000000000000000000604482015290519081900360640190fd5b600062ffffff16600a858560405180838380828437919091019485525050604051928390036020019092205462ffffff169290921491506200233190505760606200217f600a868660405180838380828437919091019485525050604051928390036020019092205462ffffff169150620027f59050565b905060405160200180807f6c6f776572426f756e6400000000000000000000000000000000000000000000815250600a0190506040516020818303038152906040528051906020012085856040516020018083838082843780830192505050925050506040516020818303038152906040528051906020012014156200229a576200223f83838080602002602001604051908101604052809392919081815260200183836020028082843760009201919091525085925062002919915050565b62002294576040805160e560020a62461bcd02815260206004820152600f60248201527f496e76616c69642076657273696f6e0000000000000000000000000000000000604482015290519081900360640190fd5b6200232f565b620022da83838080602002602001604051908101604052809392919081815260200183836020028082843760009201919091525085925062002a2f915050565b6200232f576040805160e560020a62461bcd02815260206004820152600f60248201527f496e76616c69642076657273696f6e0000000000000000000000000000000000604482015290519081900360640190fd5b505b62002383828260008181106200234357fe5b9050602002013560ff16838360018181106200235b57fe5b9050602002013560ff16848460028181106200237357fe5b9050602002013560ff1662002b3b565b600a85856040518083838082843791909101948552505060405192839003602001909220805462ffffff9490941662ffffff1990941693909317909255507f5b67e16edaf7fc70c8d065ea6e70b97ed944d98fe593b04d682216615a3b04db905084848484600081620023f257fe5b9050602002013560ff16858560018181106200240a57fe5b9050602002013560ff16868660028181106200242257fe5b9050602002013560ff1660405180806020018560ff1660ff1681526020018460ff1660ff1681526020018360ff1660ff1681526020018281038252878782818152602001925080828437600083820152604051601f909101601f19169092018290039850909650505050505050a150505050565b620024a2828262002b56565b50600160a060020a03166000818152600d60209081526040808320805473ffffffffffffffffffffffffffffffffffffffff191633908117909155600e54908452600c835281842094845293909152902055565b6000816200251b6200251185670de0b6b3a764000062002dfb565b6002850462002e26565b816200252357fe5b049392505050565b6000848152600b6020908152604090912084516200254c92860190620030fb565b506000848152600b6020908152604090912060018101805473ffffffffffffffffffffffffffffffffffffffff1916600160a060020a03861617905582516200259e92600290920191840190620030fb565b506001546040805160e060020a63bf40fac1028152602060048201819052600e60248301527f4d6f64756c65526567697374727900000000000000000000000000000000000060448301529151600093600160a060020a03169263bf40fac19260648082019391829003018186803b1580156200261a57600080fd5b505afa1580156200262f573d6000803e3d6000fd5b505050506040513d60208110156200264657600080fd5b5051604080517fcf5f591d0000000000000000000000000000000000000000000000000000000081523060048201529051919250600160a060020a0383169163cf5f591d9160248082019260009290919082900301818387803b158015620026ad57600080fd5b505af1158015620026c2573d6000803e3d6000fd5b505050507fbcda874f53511fb6338990baf12d53b3bcef8cb0247ba5f7673450267395515a84868585604051808060200185815260200184600160a060020a0316600160a060020a0316815260200180602001838103835287818151815260200191508051906020019080838360005b838110156200274c57818101518382015260200162002732565b50505050905090810190601f1680156200277a5780820380516001836020036101000a031916815260200191505b50838103825284518152845160209182019186019080838360005b83811015620027af57818101518382015260200162002795565b50505050905090810190601f168015620027dd5780820380516001836020036101000a031916815260200191505b50965050505050505060405180910390a15050505050565b6040805160038082526080820190925260609182919060208201838038833950508151919250506201000062ffffff8516049082906000906200283457fe5b60ff90921660209283029190910190910152805161010062ffffff85160490829060019081106200286157fe5b602002602001019060ff16908160ff168152505082816002815181106200288457fe5b60ff909216602092830291909101909101529050919050565b600160a060020a038116620028b157600080fd5b60008054604051600160a060020a03808516939216917f8be0079c531659141344cd1fd0a4f28419497f9722a3daafe3b4186f6b6457e091a36000805473ffffffffffffffffffffffffffffffffffffffff1916600160a060020a0392909216919091179055565b600082516003146200292a57600080fd5b81516003146200293957600080fd5b60005b83518160ff16101562002a2557828160ff16815181106200295957fe5b602002602001015160ff16848260ff16815181106200297457fe5b602002602001015160ff1614156200298c5762002a1c565b828160ff16815181106200299c57fe5b602002602001015160ff16848260ff1681518110620029b757fe5b602002602001015160ff161015620029d457600191505062000ce8565b828160ff1681518110620029e457fe5b602002602001015160ff16848260ff1681518110620029ff57fe5b602002602001015160ff16111562002a1c57600091505062000ce8565b6001016200293c565b5060019392505050565b6000825160031462002a4057600080fd5b815160031462002a4f57600080fd5b60005b83518160ff16101562002a2557828160ff168151811062002a6f57fe5b602002602001015160ff16848260ff168151811062002a8a57fe5b602002602001015160ff16141562002aa25762002b32565b828160ff168151811062002ab257fe5b602002602001015160ff16848260ff168151811062002acd57fe5b602002602001015160ff16111562002aea57600191505062000ce8565b828160ff168151811062002afa57fe5b602002602001015160ff16848260ff168151811062002b1557fe5b602002602001015160ff16101562002b3257600091505062000ce8565b60010162002a52565b60ff9081169181166101000292166201000002919091171790565b600062002b6262002e39565b9050600083600160a060020a0316631613ec9d6040518163ffffffff1660e060020a02815260040160206040518083038186803b15801562002ba357600080fd5b505afa15801562002bb8573d6000803e3d6000fd5b505050506040513d602081101562002bcf57600080fd5b505190507bffffffffffffffffffffffffffffffffffffffffffffffffffffffff1981161562002d9c577bffffffffffffffffffffffffffffffffffffffffffffffffffffffff19811662002c248462002ffa565b7bffffffffffffffffffffffffffffffffffffffffffffffffffffffff19161462002c99576040805160e560020a62461bcd02815260206004820152601a60248201527f50726f76696465642064617461206973206e6f742076616c6964000000000000604482015290519081900360640190fd5b600084600160a060020a0316846040518082805190602001908083835b6020831062002cd75780518252601f19909201916020918201910162002cb6565b6001836020036101000a0380198251168184511680821785525050505050509050019150506000604051808303816000865af19150503d806000811462002d3b576040519150601f19603f3d011682016040523d82523d6000602084013e62002d40565b606091505b505090508062002d9a576040805160e560020a62461bcd02815260206004820152601b60248201527f556e7375636365737366756c20696e697469616c697a6174696f6e0000000000604482015290519081900360640190fd5b505b60035460095460408051600160a060020a03881681523360208201528082019290925260608201859052513092917fb68b4973fbce93f056103272c1f3f53b607527138d7e323b7b94f7ac169ebf77919081900360800190a350505050565b60008262002e0c5750600062000ce8565b8282028284828162002e1a57fe5b041462000ce557600080fd5b60008282018381101562000ce557600080fd5b60008062002e46620010a4565b6001546040805160e060020a63bf40fac1028152602060048201819052600960248301527f506f6c79546f6b656e000000000000000000000000000000000000000000000060448301529151939450600093600160a060020a039093169263bf40fac192606480840193919291829003018186803b15801562002ec857600080fd5b505afa15801562002edd573d6000803e3d6000fd5b505050506040513d602081101562002ef457600080fd5b50519050811562002ff45780600160a060020a03166323b872dd3362002f1962001973565b856040518463ffffffff1660e060020a0281526004018084600160a060020a0316600160a060020a0316815260200183600160a060020a0316600160a060020a031681526020018281526020019350505050602060405180830381600087803b15801562002f8657600080fd5b505af115801562002f9b573d6000803e3d6000fd5b505050506040513d602081101562002fb257600080fd5b505162002ff45760405160e560020a62461bcd028152600401808060200182810382526025815260200180620049906025913960400191505060405180910390fd5b50905090565b60008060048351106200300f57600462003012565b82515b905060005b818110156200309657806008028482815181106200303157fe5b60209101015160029190910a7f0100000000000000000000000000000000000000000000000000000000000000918290049091027fff000000000000000000000000000000000000000000000000000000000000001604929092179160010162003017565b5050919050565b611805806200318b83390190565b828054828255906000526020600020908101928215620030e9579160200282015b82811115620030e9578251825591602001919060010190620030cc565b50620030f79291506200316d565b5090565b828054600181600116156101000203166002900490600052602060002090601f016020900481019282601f106200313e57805160ff1916838001178555620030e9565b82800160010185558215620030e95791820182811115620030e9578251825591602001919060010190620030cc565b6200126f91905b80821115620030f757600081556001016200317456fe60806040526000805460ff19169055600f805460a060020a60ff02191690553480156200002b57600080fd5b506040516200180538038062001805833981018060405260808110156200005157600080fd5b8101908080516401000000008111156200006a57600080fd5b820160208101848111156200007e57600080fd5b81516401000000008111828201871017156200009957600080fd5b505060208201516040830151606090930151600e8054600160a060020a03808516600160a060020a031992831617909255600d8054821633908117909155600f805493881693909216929092179055600160105592955090935090620001089064010000000062000188810204565b600160a060020a03811662000169576040517f08c379a00000000000000000000000000000000000000000000000000000000081526004018080602001828103825260278152602001806200175d6027913960400191505060405180910390fd5b6200017e848264010000000062000220810204565b5050505062000645565b600160a060020a038116620001fe57604080517f08c379a000000000000000000000000000000000000000000000000000000000815260206004820152601860248201527f416464726573732073686f756c64206e6f742062652030780000000000000000604482015290519081900360640190fd5b60138054600160a060020a031916600160a060020a0392909216919091179055565b601254600160a060020a03828116911614801590620002475750600160a060020a03811615155b6200029e576040517f08c379a0000000000000000000000000000000000000000000000000000000008152600401808060200182810382526046815260200180620017846046913960600191505060405180910390fd5b620002b78164010000000062000f406200059a82021704565b6200030e576040517f08c379a000000000000000000000000000000000000000000000000000000000815260040180806020018281038252603b815260200180620017ca603b913960400191505060405180910390fd5b60008251116200036a576040517f08c379a00000000000000000000000000000000000000000000000000000000081526004018080602001828103825260228152602001806200173b6022913960400191505060405180910390fd5b816040516020018082805190602001908083835b602083106200039f5780518252601f1990920191602091820191016200037e565b6001836020036101000a03801982511681845116808217855250505050505090500191505060405160208183030381529060405280519060200120601160405160200180828054600181600116156101000203166002900480156200043e5780601f106200041b5761010080835404028352918201916200043e565b820191906000526020600020905b81548152906001019060200180831162000429575b5050915050604051602081830303815290604052805190602001201415620004c757604080517f08c379a000000000000000000000000000000000000000000000000000000000815260206004820152601d60248201527f4e65772076657273696f6e20657175616c7320746f2063757272656e74000000604482015290519081900360640190fd5b8151620004dc906011906020850190620005a0565b5060128054600160a060020a031916600160a060020a03831690811790915560408051602080825285518183015285517f8e05e0e35ff592971ca8b477d4285a33a61ded208d644042667b78693a472f5e938793928392918301919085019080838360005b838110156200055b57818101518382015260200162000541565b50505050905090810190601f168015620005895780820380516001836020036101000a031916815260200191505b509250505060405180910390a25050565b3b151590565b828054600181600116156101000203166002900490600052602060002090601f016020900481019282601f10620005e357805160ff191683800117855562000613565b8280016001018555821562000613579182015b8281111562000613578251825591602001919060010190620005f6565b506200062192915062000625565b5090565b6200064291905b808211156200062157600081556001016200062c565b90565b6110e680620006556000396000f3fe60806040526004361061019e576000357c0100000000000000000000000000000000000000000000000000000000900480636faa22a5116100ee578063b84dfbd2116100a7578063d143a37911610081578063d143a3791461058e578063d7e64c00146105bb578063f1739cae146105d0578063fd6ea7c1146106035761019e565b8063b84dfbd214610537578063c45a01551461054c578063c4d2c6bd146105615761019e565b80636faa22a5146103ff57806378e97925146104145780638d4e408314610429578063958a41dd1461043e578063983d27371461050d578063b2cca39d146105225761019e565b8063521eb2731161015b5780635c60da1b116101355780635c60da1b1461038d5780635c975abb146103a257806363b20117146103b75780636f7bc9be146103cc5761019e565b8063521eb2731461026857806354fd4d501461027d5780635a8b1a9f146103075761019e565b8063025313a2146101a85780632a0acc6a146101d95780632c4e722e146102005780632df413e2146102155780633197cbb61461023e578063355274ea14610253575b6101a6610618565b005b3480156101b457600080fd5b506101bd61062a565b60408051600160a060020a039092168252519081900360200190f35b3480156101e557600080fd5b506101ee610667565b60408051918252519081900360200190f35b34801561020c57600080fd5b506101ee61068b565b34801561022157600080fd5b5061022a610691565b604080519115158252519081900360200190f35b34801561024a57600080fd5b506101ee61069a565b34801561025f57600080fd5b506101ee6106a0565b34801561027457600080fd5b506101bd6106a6565b34801561028957600080fd5b506102926106b5565b6040805160208082528351818301528351919283929083019185019080838360005b838110156102cc5781810151838201526020016102b4565b50505050905090810190601f1680156102f95780820380516001836020036101000a031916815260200191505b509250505060405180910390f35b34801561031357600080fd5b506101a66004803603604081101561032a57600080fd5b81019060208101813564010000000081111561034557600080fd5b82018360208201111561035757600080fd5b8035906020019184600183028401116401000000008311171561037957600080fd5b919350915035600160a060020a031661076a565b34801561039957600080fd5b506101bd6107de565b3480156103ae57600080fd5b5061022a610809565b3480156103c357600080fd5b506101ee61082a565b3480156103d857600080fd5b506101ee600480360360208110156103ef57600080fd5b5035600160a060020a0316610830565b34801561040b57600080fd5b506101bd610842565b34801561042057600080fd5b506101ee610851565b34801561043557600080fd5b5061022a610857565b6101a66004803603606081101561045457600080fd5b81019060208101813564010000000081111561046f57600080fd5b82018360208201111561048157600080fd5b803590602001918460018302840111640100000000831117156104a357600080fd5b91939092600160a060020a03833516926040810190602001356401000000008111156104ce57600080fd5b8201836020820111156104e057600080fd5b8035906020019184600183028401116401000000008311171561050257600080fd5b509092509050610865565b34801561051957600080fd5b506101ee61090f565b34801561052e57600080fd5b506101ee610933565b34801561054357600080fd5b506101bd610939565b34801561055857600080fd5b506101bd610948565b34801561056d57600080fd5b506101ee6004803603602081101561058457600080fd5b503560ff16610957565b34801561059a57600080fd5b5061022a600480360360208110156105b157600080fd5b503560ff16610969565b3480156105c757600080fd5b506101ee61097e565b3480156105dc57600080fd5b506101a6600480360360208110156105f357600080fd5b5035600160a060020a0316610984565b34801561060f57600080fd5b5061022a610a67565b610628610623610a70565b610a7f565b565b6000610634610aa3565b600160a060020a031633600160a060020a0316141561065c57610655610aa3565b9050610664565b610664610618565b90565b7f41444d494e00000000000000000000000000000000000000000000000000000081565b60015481565b60005460ff1681565b60075481565b60025481565b600a54600160a060020a031681565b60606106bf610aa3565b600160a060020a031633600160a060020a0316141561065c576011805460408051602060026001851615610100026000190190941693909304601f8101849004840282018401909252818152929183018282801561075e5780601f106107335761010080835404028352916020019161075e565b820191906000526020600020905b81548152906001019060200180831161074157829003601f168201915b50505050509050610664565b610772610aa3565b600160a060020a031633600160a060020a031614156107d1576107cc83838080601f016020809104026020016040519081016040528093929190818152602001838380828437600092019190915250859250610ab2915050565b6107d9565b6107d9610618565b505050565b60006107e8610aa3565b600160a060020a031633600160a060020a0316141561065c57610655610a70565b600f5474010000000000000000000000000000000000000000900460ff1681565b600b5481565b60036020526000908152604090205481565b600f54600160a060020a031681565b60065481565b600c54610100900460ff1681565b61086d610aa3565b600160a060020a031633600160a060020a03161415610900576108fb85858080601f01602080910402602001604051908101604052809392919081815260200183838082843760009201919091525050604080516020601f880181900481028201810190925286815288935091508690869081908401838280828437600092019190915250610dba92505050565b610908565b610908610618565b5050505050565b7f4f50455241544f5200000000000000000000000000000000000000000000000081565b60085481565b600e54600160a060020a031681565b600d54600160a060020a031681565b60056020526000908152604090205481565b60046020526000908152604090205460ff1681565b60095481565b61098c610aa3565b600160a060020a031633600160a060020a03161415610a5c57600160a060020a038116610a03576040805160e560020a62461bcd02815260206004820152601860248201527f416464726573732073686f756c64206e6f742062652030780000000000000000604482015290519081900360640190fd5b7f5a3e66efaa1e445ebd894728a69d6959842ea1e97bd79b892797106e270efcd9610a2c610aa3565b60408051600160a060020a03928316815291841660208301528051918290030190a1610a5781610eb3565b610a64565b610a64610618565b50565b600c5460ff1681565b601254600160a060020a031690565b3660008037600080366000845af43d6000803e808015610a9e573d6000f35b3d6000fd5b601354600160a060020a031690565b601254600160a060020a03828116911614801590610ad85750600160a060020a03811615155b610b165760405160e560020a62461bcd02815260040180806020018281038252604681526020018061103a6046913960600191505060405180910390fd5b610b1f81610f40565b610b5d5760405160e560020a62461bcd02815260040180806020018281038252603b815260200180611080603b913960400191505060405180910390fd5b6000825111610ba05760405160e560020a62461bcd028152600401808060200182810382526022815260200180610fdf6022913960400191505060405180910390fd5b816040516020018082805190602001908083835b60208310610bd35780518252601f199092019160209182019101610bb4565b6001836020036101000a0380198251168184511680821785525050505050509050019150506040516020818303038152906040528051906020012060116040516020018082805460018160011615610100020316600290048015610c6e5780601f10610c4c576101008083540402835291820191610c6e565b820191906000526020600020905b815481529060010190602001808311610c5a575b5050915050604051602081830303815290604052805190602001201415610cdf576040805160e560020a62461bcd02815260206004820152601d60248201527f4e65772076657273696f6e20657175616c7320746f2063757272656e74000000604482015290519081900360640190fd5b8151610cf2906011906020850190610f46565b506012805473ffffffffffffffffffffffffffffffffffffffff1916600160a060020a03831690811790915560408051602080825285518183015285517f8e05e0e35ff592971ca8b477d4285a33a61ded208d644042667b78693a472f5e938793928392918301919085019080838360005b83811015610d7c578181015183820152602001610d64565b50505050905090810190601f168015610da95780820380516001836020036101000a031916815260200191505b509250505060405180910390a25050565b610dc48383610ab2565b600030600160a060020a031634836040518082805190602001908083835b60208310610e015780518252601f199092019160209182019101610de2565b6001836020036101000a03801982511681845116808217855250505050505090500191505060006040518083038185875af1925050503d8060008114610e63576040519150601f19603f3d011682016040523d82523d6000602084013e610e68565b606091505b50508091505080610ead5760405160e560020a62461bcd0281526004018080602001828103825260398152602001806110016039913960400191505060405180910390fd5b50505050565b600160a060020a038116610f11576040805160e560020a62461bcd02815260206004820152601860248201527f416464726573732073686f756c64206e6f742062652030780000000000000000604482015290519081900360640190fd5b6013805473ffffffffffffffffffffffffffffffffffffffff1916600160a060020a0392909216919091179055565b3b151590565b828054600181600116156101000203166002900490600052602060002090601f016020900481019282601f10610f8757805160ff1916838001178555610fb4565b82800160010185558215610fb4579182015b82811115610fb4578251825591602001919060010190610f99565b50610fc0929150610fc4565b5090565b61066491905b80821115610fc05760008155600101610fca56fe56657273696f6e2073686f756c64206e6f7420626520656d70747920737472696e674661696c20696e20657865637574696e67207468652066756e6374696f6e206f6620696d706c656d656e746174696f6e20636f6e74726163744f6c642061646472657373206973206e6f7420616c6c6f77656420616e6420696d706c656d656e746174696f6e20616464726573732073686f756c64206e6f7420626520307843616e6e6f742073657420612070726f787920696d706c656d656e746174696f6e20746f2061206e6f6e2d636f6e74726163742061646472657373a165627a7a723058208daae6ea33726b097cf9b171411a55a3c977db6c845b1bbaeee43cd11d7c1c0d002956657273696f6e2073686f756c64206e6f7420626520656d70747920737472696e67496d706c656d656e746174696f6e20616464726573732073686f756c64206e6f742062652030784f6c642061646472657373206973206e6f7420616c6c6f77656420616e6420696d706c656d656e746174696f6e20616464726573732073686f756c64206e6f7420626520307843616e6e6f742073657420612070726f787920696d706c656d656e746174696f6e20746f2061206e6f6e2d636f6e74726163742061646472657373496e73756666696369656e7420616c6c6f77616e636520666f72206d6f64756c652066656553616d652076657273696f6e0000000000000000000000000000000000000000496e76616c696420746578740000000000000000000000000000000000000000a165627a7a72305820d06a0723fd5d5b11528a12bcd430a3ad059db0c7092594540bb7b2f38da25e1e00295468697320736d61727420636f6e747261637420637265617465732061206d6178696d756d206e756d626572206f6620746f6b656e732028692e652e206861726420636170292077686963682074686520746f74616c20616767726567617465206f6620746f6b656e7320616371756972656420627920616c6c20696e766573746f72732063616e6e6f74206578636565642e20536563757269747920746f6b656e73206172652073656e7420746f2074686520696e766573746f722075706f6e20726563657074696f6e206f66207468652066756e64732028455448206f7220504f4c59292c20616e6420616e7920736563757269747920746f6b656e73206c6566742075706f6e207465726d696e6174696f6e206f6620746865206f66666572696e672077696c6c206e6f74206265206d696e7465642e",
  "source": "pragma solidity 0.5.8;\n\nimport \"../../UpgradableModuleFactory.sol\";\nimport \"./CappedSTOProxy.sol\";\n\n/**\n * @title Factory for deploying CappedSTO module\n */\ncontract CappedSTOFactory is UpgradableModuleFactory {\n\n    /**\n     * @notice Constructor\n     * @param _setupCost Setup cost of the module\n      * @param _logicContract Contract address that contains the logic related to `description`\n     * @param _polymathRegistry Address of the Polymath registry\n     * @param _isCostInPoly true = cost in Poly, false = USD\n     */\n    constructor (\n        uint256 _setupCost,\n        address _logicContract,\n        address _polymathRegistry,\n        bool _isCostInPoly\n    )\n        public\n        UpgradableModuleFactory(\"3.1.0\", _setupCost, _logicContract, _polymathRegistry, _isCostInPoly)\n    {\n        name = \"CappedSTO\";\n        title = \"Capped STO\";\n        description = \"This smart contract creates a maximum number of tokens (i.e. hard cap) which the total aggregate of tokens acquired by all investors cannot exceed. Security tokens are sent to the investor upon reception of the funds (ETH or POLY), and any security tokens left upon termination of the offering will not be minted.\";\n        typesData.push(3);\n        typesData.push(8); // Extra type which will allow module to hold and send securityTokens without being added in KYC data\n        typesData.push(5); // Allow burn type \n        tagsData.push(\"Capped\");\n        tagsData.push(\"ETH\");\n        tagsData.push(\"POLY\");\n        tagsData.push(\"STO\");\n        compatibleSTVersionRange[\"lowerBound\"] = VersionUtils.pack(uint8(3), uint8(0), uint8(0));\n        compatibleSTVersionRange[\"upperBound\"] = VersionUtils.pack(uint8(3), uint8(0), uint8(0));\n    }\n\n    /**\n     * @notice Used to launch the Module with the help of factory\n     * @param _data Data used for the intialization of the module factory variables\n     * @return address Contract address of the Module\n     */\n    function deploy(bytes calldata _data) external returns(address) {\n        address cappedSTO = address(new CappedSTOProxy(logicContracts[latestUpgrade].version, msg.sender, polymathRegistry.getAddress(\"PolyToken\"), logicContracts[latestUpgrade].logicContract));\n        _initializeModule(cappedSTO, _data);\n        return cappedSTO;\n    }\n\n}\n",
  "sourcePath": "/Users/federicoelgarte/Polymath/polymath-core/contracts/modules/STO/Capped/CappedSTOFactory.sol",
  "compiler": {
    "name": "solc",
    "version": "0.5.8+commit.23d335f2.Emscripten.clang"
  },
  "schemaVersion": "3.0.2",
  "updatedAt": "2019-09-03T13:52:34.543Z",
  "devdoc": {
    "methods": {
      "changeCostAndType(uint256,bool)": {
        "params": {
          "_isCostInPoly": "new setup cost currency. USD or POLY",
          "_setupCost": "new setup cost"
        }
      },
      "changeDescription(string)": {
        "params": {
          "_description": "New description that will replace the old one."
        }
      },
      "changeName(bytes32)": {
        "params": {
          "_name": "New name that will replace the old one."
        }
      },
      "changeSTVersionBounds(string,uint8[])": {
        "params": {
          "_boundType": "Type of bound",
          "_newVersion": "new version array"
        }
      },
      "changeSetupCost(uint256)": {
        "params": {
          "_setupCost": "new setup cost"
        }
      },
      "changeTags(bytes32[])": {
        "params": {
          "_tagsData": "New list of tags"
        }
      },
      "changeTitle(string)": {
        "params": {
          "_title": "New Title that will replace the old one."
        }
      },
      "constructor": {
        "params": {
          "_isCostInPoly": "true = cost in Poly, false = USD",
          "_logicContract": "Contract address that contains the logic related to `description`",
          "_polymathRegistry": "Address of the Polymath registry",
          "_setupCost": "Setup cost of the module"
        }
      },
      "deploy(bytes)": {
        "params": {
          "_data": "Data used for the intialization of the module factory variables"
        },
        "return": "address Contract address of the Module"
      },
      "getLowerSTVersionBounds()": {
        "return": "lower bound"
      },
      "getUpperSTVersionBounds()": {
        "return": "upper bound"
      },
      "isOwner()": {
        "return": "true if `msg.sender` is the owner of the contract."
      },
      "owner()": {
        "return": "the address of the owner."
      },
      "renounceOwnership()": {
        "details": "Allows the current owner to relinquish control of the contract. It will not be possible to call the functions with the `onlyOwner` modifier anymore."
      },
      "setLogicContract(string,address,bytes)": {
        "params": {
          "_logicContract": "Address of deployed module logic contract referenced from proxy",
          "_upgradeData": "Data to be passed in call to upgradeToAndCall when a token upgrades its module",
          "_version": "Version of upgraded module"
        }
      },
      "transferOwnership(address)": {
        "details": "Allows the current owner to transfer control of the contract to a newOwner.",
        "params": {
          "newOwner": "The address to transfer ownership to."
        }
      },
      "updateLogicContract(uint256,string,address,bytes)": {
        "params": {
          "_logicContract": "Address of deployed module logic contract referenced from proxy",
          "_upgrade": "logic contract to upgrade",
          "_upgradeData": "Data to be passed in call to upgradeToAndCall when a token upgrades its module",
          "_version": "Version of upgraded module"
        }
      },
      "upgrade(address)": {
        "params": {
          "_module": "Address of (proxy) module to be upgraded"
        }
      }
    },
    "title": "Factory for deploying CappedSTO module"
  },
  "userdoc": {
    "methods": {
      "changeCostAndType(uint256,bool)": {
        "notice": "Used to change the currency and amount of setup cost"
      },
      "changeDescription(string)": {
        "notice": "Updates the description of the ModuleFactory"
      },
      "changeName(bytes32)": {
        "notice": "Updates the name of the ModuleFactory"
      },
      "changeSTVersionBounds(string,uint8[])": {
        "notice": "Function use to change the lower and upper bound of the compatible version st"
      },
      "changeSetupCost(uint256)": {
        "notice": "Used to change the fee of the setup cost"
      },
      "changeTags(bytes32[])": {
        "notice": "Updates the tags of the ModuleFactory"
      },
      "changeTitle(string)": {
        "notice": "Updates the title of the ModuleFactory"
      },
      "constructor": "Constructor",
      "deploy(bytes)": {
        "notice": "Used to launch the Module with the help of factory"
      },
      "getLowerSTVersionBounds()": {
        "notice": "Used to get the lower bound"
      },
      "getTags()": {
        "notice": "Get the tags related to the module factory"
      },
      "getTypes()": {
        "notice": "Type of the Module factory"
      },
      "getUpperSTVersionBounds()": {
        "notice": "Used to get the upper bound"
      },
      "renounceOwnership()": {
        "notice": "Renouncing ownership will leave the contract without an owner, thereby removing any functionality that is only available to the owner."
      },
      "setLogicContract(string,address,bytes)": {
        "notice": "Used to upgrade the module factory"
      },
      "setupCostInPoly()": {
        "notice": "Get the setup cost of the module"
      },
      "updateLogicContract(uint256,string,address,bytes)": {
        "notice": "Used to update an existing token logic contract"
      },
      "upgrade(address)": {
        "notice": "Used by a security token to upgrade a given module"
      },
      "version()": {
        "notice": "Get the version related to the module factory"
      }
    }
  }
}