{
  "contractName": "CappedSTOFactory",
  "abi": [
    {
      "constant": true,
      "inputs": [],
      "name": "monthlySubscriptionCost",
      "outputs": [
        {
          "name": "",
          "type": "uint256"
        }
      ],
      "payable": false,
      "stateMutability": "view",
      "type": "function"
    },
    {
      "constant": true,
      "inputs": [],
      "name": "name",
      "outputs": [
        {
          "name": "",
          "type": "bytes32"
        }
      ],
      "payable": false,
      "stateMutability": "view",
      "type": "function"
    },
    {
      "constant": true,
      "inputs": [],
      "name": "getName",
      "outputs": [
        {
          "name": "",
          "type": "bytes32"
        }
      ],
      "payable": false,
      "stateMutability": "view",
      "type": "function"
    },
    {
      "constant": false,
      "inputs": [
        {
          "name": "_newTitle",
          "type": "string"
        }
      ],
      "name": "changeTitle",
      "outputs": [],
      "payable": false,
      "stateMutability": "nonpayable",
      "type": "function"
    },
    {
      "constant": false,
      "inputs": [
        {
          "name": "_newSubscriptionCost",
          "type": "uint256"
        }
      ],
      "name": "changeFactorySubscriptionFee",
      "outputs": [],
      "payable": false,
      "stateMutability": "nonpayable",
      "type": "function"
    },
    {
      "constant": true,
      "inputs": [],
      "name": "title",
      "outputs": [
        {
          "name": "",
          "type": "string"
        }
      ],
      "payable": false,
      "stateMutability": "view",
      "type": "function"
    },
    {
      "constant": true,
      "inputs": [],
      "name": "version",
      "outputs": [
        {
          "name": "",
          "type": "string"
        }
      ],
      "payable": false,
      "stateMutability": "view",
      "type": "function"
    },
    {
      "constant": false,
      "inputs": [
        {
          "name": "_newSetupCost",
          "type": "uint256"
        }
      ],
      "name": "changeFactorySetupFee",
      "outputs": [],
      "payable": false,
      "stateMutability": "nonpayable",
      "type": "function"
    },
    {
      "constant": false,
      "inputs": [
        {
          "name": "_newVersion",
          "type": "string"
        }
      ],
      "name": "changeVersion",
      "outputs": [],
      "payable": false,
      "stateMutability": "nonpayable",
      "type": "function"
    },
    {
      "constant": true,
      "inputs": [],
      "name": "polyToken",
      "outputs": [
        {
          "name": "",
          "type": "address"
        }
      ],
      "payable": false,
      "stateMutability": "view",
      "type": "function"
    },
    {
      "constant": false,
      "inputs": [],
      "name": "renounceOwnership",
      "outputs": [],
      "payable": false,
      "stateMutability": "nonpayable",
      "type": "function"
    },
    {
      "constant": true,
      "inputs": [],
      "name": "description",
      "outputs": [
        {
          "name": "",
          "type": "string"
        }
      ],
      "payable": false,
      "stateMutability": "view",
      "type": "function"
    },
    {
      "constant": true,
      "inputs": [],
      "name": "setupCost",
      "outputs": [
        {
          "name": "",
          "type": "uint256"
        }
      ],
      "payable": false,
      "stateMutability": "view",
      "type": "function"
    },
    {
      "constant": true,
      "inputs": [],
      "name": "getLowerSTVersionBounds",
      "outputs": [
        {
          "name": "",
          "type": "uint8[]"
        }
      ],
      "payable": false,
      "stateMutability": "view",
      "type": "function"
    },
    {
      "constant": false,
      "inputs": [
        {
          "name": "_newName",
          "type": "bytes32"
        }
      ],
      "name": "changeName",
      "outputs": [],
      "payable": false,
      "stateMutability": "nonpayable",
      "type": "function"
    },
    {
      "constant": true,
      "inputs": [],
      "name": "owner",
      "outputs": [
        {
          "name": "",
          "type": "address"
        }
      ],
      "payable": false,
      "stateMutability": "view",
      "type": "function"
    },
    {
      "constant": true,
      "inputs": [],
      "name": "getSetupCost",
      "outputs": [
        {
          "name": "",
          "type": "uint256"
        }
      ],
      "payable": false,
      "stateMutability": "view",
      "type": "function"
    },
    {
      "constant": false,
      "inputs": [
        {
          "name": "_newUsageCost",
          "type": "uint256"
        }
      ],
      "name": "changeFactoryUsageFee",
      "outputs": [],
      "payable": false,
      "stateMutability": "nonpayable",
      "type": "function"
    },
    {
      "constant": true,
      "inputs": [],
      "name": "usageCost",
      "outputs": [
        {
          "name": "",
          "type": "uint256"
        }
      ],
      "payable": false,
      "stateMutability": "view",
      "type": "function"
    },
    {
      "constant": false,
      "inputs": [
        {
          "name": "_newDesc",
          "type": "string"
        }
      ],
      "name": "changeDescription",
      "outputs": [],
      "payable": false,
      "stateMutability": "nonpayable",
      "type": "function"
    },
    {
      "constant": false,
      "inputs": [
        {
          "name": "_newOwner",
          "type": "address"
        }
      ],
      "name": "transferOwnership",
      "outputs": [],
      "payable": false,
      "stateMutability": "nonpayable",
      "type": "function"
    },
    {
      "constant": true,
      "inputs": [],
      "name": "getUpperSTVersionBounds",
      "outputs": [
        {
          "name": "",
          "type": "uint8[]"
        }
      ],
      "payable": false,
      "stateMutability": "view",
      "type": "function"
    },
    {
      "constant": false,
      "inputs": [
        {
          "name": "_boundType",
          "type": "string"
        },
        {
          "name": "_newVersion",
          "type": "uint8[]"
        }
      ],
      "name": "changeSTVersionBounds",
      "outputs": [],
      "payable": false,
      "stateMutability": "nonpayable",
      "type": "function"
    },
    {
      "inputs": [
        {
          "name": "_polyAddress",
          "type": "address"
        },
        {
          "name": "_setupCost",
          "type": "uint256"
        },
        {
          "name": "_usageCost",
          "type": "uint256"
        },
        {
          "name": "_subscriptionCost",
          "type": "uint256"
        }
      ],
      "payable": false,
      "stateMutability": "nonpayable",
      "type": "constructor"
    },
    {
      "anonymous": false,
      "inputs": [
        {
          "indexed": true,
          "name": "previousOwner",
          "type": "address"
        }
      ],
      "name": "OwnershipRenounced",
      "type": "event"
    },
    {
      "anonymous": false,
      "inputs": [
        {
          "indexed": true,
          "name": "previousOwner",
          "type": "address"
        },
        {
          "indexed": true,
          "name": "newOwner",
          "type": "address"
        }
      ],
      "name": "OwnershipTransferred",
      "type": "event"
    },
    {
      "anonymous": false,
      "inputs": [
        {
          "indexed": false,
          "name": "_oldSetupCost",
          "type": "uint256"
        },
        {
          "indexed": false,
          "name": "_newSetupCost",
          "type": "uint256"
        },
        {
          "indexed": false,
          "name": "_moduleFactory",
          "type": "address"
        }
      ],
      "name": "ChangeFactorySetupFee",
      "type": "event"
    },
    {
      "anonymous": false,
      "inputs": [
        {
          "indexed": false,
          "name": "_oldUsageCost",
          "type": "uint256"
        },
        {
          "indexed": false,
          "name": "_newUsageCost",
          "type": "uint256"
        },
        {
          "indexed": false,
          "name": "_moduleFactory",
          "type": "address"
        }
      ],
      "name": "ChangeFactoryUsageFee",
      "type": "event"
    },
    {
      "anonymous": false,
      "inputs": [
        {
          "indexed": false,
          "name": "_oldSubscriptionCost",
          "type": "uint256"
        },
        {
          "indexed": false,
          "name": "_newMonthlySubscriptionCost",
          "type": "uint256"
        },
        {
          "indexed": false,
          "name": "_moduleFactory",
          "type": "address"
        }
      ],
      "name": "ChangeFactorySubscriptionFee",
      "type": "event"
    },
    {
      "anonymous": false,
      "inputs": [
        {
          "indexed": false,
          "name": "_module",
          "type": "address"
        },
        {
          "indexed": true,
          "name": "_moduleName",
          "type": "bytes32"
        },
        {
          "indexed": true,
          "name": "_moduleFactory",
          "type": "address"
        },
        {
          "indexed": false,
          "name": "_creator",
          "type": "address"
        },
        {
          "indexed": false,
          "name": "_setupCost",
          "type": "uint256"
        },
        {
          "indexed": false,
          "name": "_timestamp",
          "type": "uint256"
        }
      ],
      "name": "GenerateModuleFromFactory",
      "type": "event"
    },
    {
      "anonymous": false,
      "inputs": [
        {
          "indexed": false,
          "name": "_boundType",
          "type": "string"
        },
        {
          "indexed": false,
          "name": "_major",
          "type": "uint8"
        },
        {
          "indexed": false,
          "name": "_minor",
          "type": "uint8"
        },
        {
          "indexed": false,
          "name": "_patch",
          "type": "uint8"
        }
      ],
      "name": "ChangeSTVersionBound",
      "type": "event"
    },
    {
      "constant": false,
      "inputs": [
        {
          "name": "_data",
          "type": "bytes"
        }
      ],
      "name": "deploy",
      "outputs": [
        {
          "name": "",
          "type": "address"
        }
      ],
      "payable": false,
      "stateMutability": "nonpayable",
      "type": "function"
    },
    {
      "constant": true,
      "inputs": [],
      "name": "getTypes",
      "outputs": [
        {
          "name": "",
          "type": "uint8[]"
        }
      ],
      "payable": false,
      "stateMutability": "view",
      "type": "function"
    },
    {
      "constant": true,
      "inputs": [],
      "name": "getInstructions",
      "outputs": [
        {
          "name": "",
          "type": "string"
        }
      ],
      "payable": false,
      "stateMutability": "view",
      "type": "function"
    },
    {
      "constant": true,
      "inputs": [],
      "name": "getTags",
      "outputs": [
        {
          "name": "",
          "type": "bytes32[]"
        }
      ],
      "payable": false,
      "stateMutability": "view",
      "type": "function"
    }
  ],
  "bytecode": "0x60806040523480156200001157600080fd5b50604051608080620044f58339810160408181528251602080850151838601516060909601516000805433600160a060020a03199182161790915560018054909116600160a060020a03861617905560048290556002879055600381905584860190945260058086527f322e312e300000000000000000000000000000000000000000000000000000009290950191825291949193919291620000b79160069162000258565b507f43617070656453544f000000000000000000000000000000000000000000000060075560408051808201909152600a8082527f4361707065642053544f000000000000000000000000000000000000000000006020909201918252620001229160089162000258565b50610160604051908101604052806101398152602001620043bc61013991398051620001579160059160209091019062000258565b506200017460008080640100000000620019636200023d82021704565b604080517f6c6f776572426f756e640000000000000000000000000000000000000000000081526009600a820152905190819003602a019020805462ffffff9290921662ffffff19909216919091179055620001e160008080640100000000620019636200023d82021704565b604080517f7570706572426f756e640000000000000000000000000000000000000000000081526009600a820152905190819003602a019020805462ffffff9290921662ffffff1990921691909117905550620002fd92505050565b60ff9081169181166101000292166201000002919091171790565b828054600181600116156101000203166002900490600052602060002090601f016020900481019282601f106200029b57805160ff1916838001178555620002cb565b82800160010185558215620002cb579182015b82811115620002cb578251825591602001919060010190620002ae565b50620002d9929150620002dd565b5090565b620002fa91905b80821115620002d95760008155600101620002e4565b90565b6140af806200030d6000396000f3006080604052600436106101445763ffffffff60e060020a600035041662774360811461014957806306184a251461018557806306fdde03146101ac57806317d7de7c146101c15780632dbe07c7146101d65780633ae192bd146102315780634a79d50c1461024957806354fd4d50146102d357806358a191c3146102e857806364bb432c146103005780636faa22a514610359578063715018a61461036e5780637284e416146103835780637e363ffa146103985780638677768f146103ad578063898855ed146104125780638da5cb5b1461042a578063995d9ab71461043f578063a5e9d7c914610454578063aac67b0514610469578063b4579d6014610481578063d54c472614610496578063e0d54970146104ab578063e6120413146104c0578063f2fde38b14610519578063f78629991461053a578063fb9724561461054f575b600080fd5b34801561015557600080fd5b50610169600480356024810191013561057b565b60408051600160a060020a039092168252519081900360200190f35b34801561019157600080fd5b5061019a61091d565b60408051918252519081900360200190f35b3480156101b857600080fd5b5061019a610923565b3480156101cd57600080fd5b5061019a610929565b3480156101e257600080fd5b506040805160206004803580820135601f810184900484028501840190955284845261022f9436949293602493928401919081908401838280828437509497506109309650505050505050565b005b34801561023d57600080fd5b5061022f6004356109b7565b34801561025557600080fd5b5061025e610a14565b6040805160208082528351818301528351919283929083019185019080838360005b83811015610298578181015183820152602001610280565b50505050905090810190601f1680156102c55780820380516001836020036101000a031916815260200191505b509250505060405180910390f35b3480156102df57600080fd5b5061025e610aa2565b3480156102f457600080fd5b5061022f600435610afd565b34801561030c57600080fd5b506040805160206004803580820135601f810184900484028501840190955284845261022f943694929360249392840191908190840183828082843750949750610b5a9650505050505050565b34801561036557600080fd5b50610169610bdd565b34801561037a57600080fd5b5061022f610bec565b34801561038f57600080fd5b5061025e610c58565b3480156103a457600080fd5b5061019a610cb3565b3480156103b957600080fd5b506103c2610cb9565b60408051602080825283518183015283519192839290830191858101910280838360005b838110156103fe5781810151838201526020016103e6565b505050509050019250505060405180910390f35b34801561041e57600080fd5b5061022f600435610d09565b34801561043657600080fd5b50610169610d7c565b34801561044b57600080fd5b506103c2610d8b565b34801561046057600080fd5b5061019a610ea4565b34801561047557600080fd5b5061022f600435610eaa565b34801561048d57600080fd5b506103c2610f07565b3480156104a257600080fd5b5061019a610f53565b3480156104b757600080fd5b5061025e610f59565b3480156104cc57600080fd5b506040805160206004803580820135601f810184900484028501840190955284845261022f943694929360249392840191908190840183828082843750949750610f7d9650505050505050565b34801561052557600080fd5b5061022f600160a060020a0360043516611000565b34801561054657600080fd5b506103c2611023565b34801561055b57600080fd5b5061022f602460048035828101929082013591813591820191013561106e565b600080600060045411156106b3576001546000805460048054604080517f23b872dd0000000000000000000000000000000000000000000000000000000081523393810193909352600160a060020a03938416602484015260448301919091525191909316926323b872dd9260648083019360209390929083900390910190829087803b15801561060b57600080fd5b505af115801561061f573d6000803e3d6000fd5b505050506040513d602081101561063557600080fd5b505115156106b3576040805160e560020a62461bcd02815260206004820152602360248201527f537566666963656e7420416c6c6f77616e6365206973206e6f742070726f766960448201527f6465640000000000000000000000000000000000000000000000000000000000606482015290519081900360840190fd5b6001543390600160a060020a03166106c961197e565b600160a060020a03928316815291166020820152604080519182900301906000f0801580156106fc573d6000803e3d6000fd5b50905080600160a060020a0316631613ec9d6040518163ffffffff1660e060020a028152600401602060405180830381600087803b15801561073d57600080fd5b505af1158015610751573d6000803e3d6000fd5b505050506040513d602081101561076757600080fd5b5051604080516020601f87018190048102820181019092528581527bffffffffffffffffffffffffffffffffffffffffffffffffffffffff19909216916107c2918790879081908401838280828437506115ad945050505050565b7bffffffffffffffffffffffffffffffffffffffffffffffffffffffff191614610836576040805160e560020a62461bcd02815260206004820152600c60248201527f496e76616c696420646174610000000000000000000000000000000000000000604482015290519081900360640190fd5b80600160a060020a03168484604051808383808284378201915050925050506000604051808303816000865af191505015156108bc576040805160e560020a62461bcd02815260206004820152601260248201527f556e7375636365737366756c6c2063616c6c0000000000000000000000000000604482015290519081900360640190fd5b306108c5610929565b60045460408051600160a060020a038616815233602082015280820192909252426060830152517fb68b4973fbce93f056103272c1f3f53b607527138d7e323b7b94f7ac169ebf779181900360800190a39392505050565b60035481565b60075481565b6007545b90565b600054600160a060020a0316331461094757600080fd5b80516000106109a0576040805160e560020a62461bcd02815260206004820152600d60248201527f496e76616c6964207469746c6500000000000000000000000000000000000000604482015290519081900360640190fd5b80516109b390600890602084019061198e565b5050565b600054600160a060020a031633146109ce57600080fd5b60035460408051918252602082018390523082820152517fb14468ff50b0c356f5373be0ef0791de71449aaf8ac5ca096049b7ac79d0b1139181900360600190a1600355565b6008805460408051602060026001851615610100026000190190941693909304601f81018490048402820184019092528181529291830182828015610a9a5780601f10610a6f57610100808354040283529160200191610a9a565b820191906000526020600020905b815481529060010190602001808311610a7d57829003601f168201915b505050505081565b6006805460408051602060026001851615610100026000190190941693909304601f81018490048402820184019092528181529291830182828015610a9a5780601f10610a6f57610100808354040283529160200191610a9a565b600054600160a060020a03163314610b1457600080fd5b60045460408051918252602082018390523082820152517f9672983540fb671cd7c0c946255b4dc769a3e557a25ef91ca7c98995c8d694b69181900360600190a1600455565b600054600160a060020a03163314610b7157600080fd5b8051600010610bca576040805160e560020a62461bcd02815260206004820152600f60248201527f496e76616c69642076657273696f6e0000000000000000000000000000000000604482015290519081900360640190fd5b80516109b390600690602084019061198e565b600154600160a060020a031681565b600054600160a060020a03163314610c0357600080fd5b60008054604051600160a060020a03909116917ff8df31144d9c2f0f6b59d69b8b98abd5459d07f2742c4df920b25aae33c6482091a26000805473ffffffffffffffffffffffffffffffffffffffff19169055565b6005805460408051602060026001851615610100026000190190941693909304601f81018490048402820184019092528181529291830182828015610a9a5780601f10610a6f57610100808354040283529160200191610a9a565b60045481565b604080517f6c6f776572426f756e640000000000000000000000000000000000000000000081526009600a820152905190819003602a01902054606090610d049062ffffff1661162e565b905090565b600054600160a060020a03163314610d2057600080fd5b801515610d77576040805160e560020a62461bcd02815260206004820152600c60248201527f496e76616c6964206e616d650000000000000000000000000000000000000000604482015290519081900360640190fd5b600755565b600054600160a060020a031681565b60408051600480825260a08201909252606091829190602082016080803883390190505090507f4361707065640000000000000000000000000000000000000000000000000000816000815181101515610de157fe5b6020908102909101015280517f4e6f6e2d726566756e6461626c650000000000000000000000000000000000009082906001908110610e1c57fe5b6020908102909101015280517f504f4c59000000000000000000000000000000000000000000000000000000009082906002908110610e5757fe5b6020908102909101015280517f45544800000000000000000000000000000000000000000000000000000000009082906003908110610e9257fe5b602090810290910101529050805b5090565b60045490565b600054600160a060020a03163314610ec157600080fd5b60025460408051918252602082018390523082820152517fc39ec4e85127e00b5b203f9c40814616d5977d8de85e6e0717e5ca4b0896206c9181900360600190a1600255565b604080516001808252818301909252606091829190602080830190803883390190505090506003816000815181101515610f3d57fe5b60ff909216602092830290910190910152905090565b60025481565b6060610160604051908101604052806101328152602001613f526101329139905090565b600054600160a060020a03163314610f9457600080fd5b8051600010610fed576040805160e560020a62461bcd02815260206004820152601360248201527f496e76616c6964206465736372697074696f6e00000000000000000000000000604482015290519081900360640190fd5b80516109b390600590602084019061198e565b600054600160a060020a0316331461101757600080fd5b611020816116d3565b50565b604080517f7570706572426f756e640000000000000000000000000000000000000000000081526009600a820152905190819003602a01902054606090610d049062ffffff1661162e565b600054606090600160a060020a0316331461108857600080fd5b60405160200180807f6c6f776572426f756e6400000000000000000000000000000000000000000000815250600a0190506040516020818303038152906040526040518082805190602001908083835b602083106110f75780518252601f1990920191602091820191016110d8565b51815160209384036101000a600019018019909216911617905260405191909301819003812094508993508892019050808383808284378201915050925050506040516020818303038152906040526040518082805190602001908083835b602083106111755780518252601f199092019160209182019101611156565b6001836020036101000a03801982511681845116808217855250505050505090500191505060405180910390206000191614806112cd575060405160200180807f7570706572426f756e6400000000000000000000000000000000000000000000815250600a0190506040516020818303038152906040526040518082805190602001908083835b6020831061121c5780518252601f1990920191602091820191016111fd565b51815160209384036101000a600019018019909216911617905260405191909301819003812094508993508892019050808383808284378201915050925050506040516020818303038152906040526040518082805190602001908083835b6020831061129a5780518252601f19909201916020918201910161127b565b6001836020036101000a038019825116818451168082178552505050505050905001915050604051809103902060001916145b1515611323576040805160e560020a62461bcd02815260206004820152601a60248201527f4d75737420626520612076616c696420626f756e642074797065000000000000604482015290519081900360640190fd5b6003821461133057600080fd5b600062ffffff1660098686604051808383808284379091019485525050604051928390036020019092205462ffffff169290921491506114569050576113a160098686604051808383808284379091019485525050604051928390036020019092205462ffffff16915061162e9050565b90506113da8184848080602002602001604051908101604052809392919081815260200183836020028082843750611750945050505050565b1515611456576040805160e560020a62461bcd02815260206004820152602260248201527f4661696c65642062656361757365206f6620696e2d76616c696420766572736960448201527f6f6e000000000000000000000000000000000000000000000000000000000000606482015290519081900360840190fd5b6114a78383600081811061146657fe5b9050602002013560ff1684846001818110151561147f57fe5b9050602002013560ff1685856002818110151561149857fe5b9050602002013560ff16611963565b6009868660405180838380828437909101948552505060405192839003602001909220805462ffffff9490941662ffffff1990941693909317909255507f5b67e16edaf7fc70c8d065ea6e70b97ed944d98fe593b04d682216615a3b04db905085858585600081811061151657fe5b9050602002013560ff1686866001818110151561152f57fe5b9050602002013560ff1687876002818110151561154857fe5b9050602002013560ff1660405180806020018560ff1660ff1681526020018460ff1660ff1681526020018360ff1660ff168152602001828103825287878281815260200192508082843760405192018290039850909650505050505050a15050505050565b600080600060048451106115c25760046115c5565b83515b9150600090505b818110156116275780600183030360080260020a84828151811015156115ee57fe5b90602001015160f860020a900460f860020a0260f860020a9004028360e060020a90040160e060020a02925080806001019150506115cc565b5050919050565b6040805160038082526080820190925260609182919060208201838038833950508151919250506201000062ffffff851604908290600090811061166e57fe5b60ff909216602092830290910190910152805161010062ffffff851604908290600190811061169957fe5b60ff90921660209283029091019091015280518390829060029081106116bb57fe5b60ff9092166020928302909101909101529050919050565b600160a060020a03811615156116e857600080fd5b60008054604051600160a060020a03808516939216917f8be0079c531659141344cd1fd0a4f28419497f9722a3daafe3b4186f6b6457e091a36000805473ffffffffffffffffffffffffffffffffffffffff1916600160a060020a0392909216919091179055565b600060606000808551604051908082528060200260200182016040528015611782578160200160208202803883390190505b50925060009150600090505b85518160ff16101561182e57848160ff168151811015156117ab57fe5b9060200190602002015160ff16868260ff168151811015156117c957fe5b9060200190602002015160ff161015611803576001838260ff168151811015156117ef57fe5b911515602092830290910190910152611826565b6000838260ff1681518110151561181657fe5b9115156020928302909101909101525b60010161178e565b5060005b85518160ff1610156119495760ff811615156118cb57848160ff1681518110151561185957fe5b9060200190602002015160ff16868260ff1681518110151561187757fe5b6020908102909101015160ff16116118bd5782600081518110151561189857fe5b90602001906020020151156118b257816003019150611949565b6001909101906118c6565b6000935061195a565b611941565b826001820360ff168151811015156118df57fe5b90602001906020020151156118f957600190910190611941565b848160ff1681518110151561190a57fe5b9060200190602002015160ff16868260ff1681518110151561192857fe5b6020908102909101015160ff16116118bd576001909101905b600101611832565b85518260ff16141561195a57600193505b50505092915050565b60ff9081169181166101000292166201000002919091171790565b60405161253580611a1d83390190565b828054600181600116156101000203166002900490600052602060002090601f016020900481019282601f106119cf57805160ff19168380011785556119fc565b828001600101855582156119fc579182015b828111156119fc5782518255916020019190600101906119e1565b50610ea09261092d9250905b80821115610ea05760008155600101611a0856006080604052600a805460a060020a62ffffff021916905534801561002257600080fd5b5060405160408061253583398101604052805160209091015160098054600160a060020a03938416600160a060020a03199182161790915560088054821633179055600a80549390921692169190911790556124b2806100836000396000f30060806040526004361061017c5763ffffffff60e060020a6000350416630f144a4881146101875780631040dc271461019c5780631365eaaf146101f45780631613ec9d146102665780632c4e722e146102b05780632df413e2146102d75780633197cbb614610300578063355274ea146103155780633f4ba83a1461032a578063441b9e4a1461033f5780634f93594514610359578063521eb2731461036e5780635c975abb1461039f5780635f7619a4146103b457806363b20117146103cc5780636f7bc9be146103e15780636faa22a51461040257806378e97925146104175780638456cb591461042c5780638905fd4f146104415780639a7cc13514610462578063b2cca39d1461047d578063b84dfbd214610492578063c3a07df6146104a7578063c45a01551461050c578063c4d2c6bd14610521578063cb7526791461053c578063d143a37914610554578063d70afa961461056f578063d7e64c0014610584578063ec8ac4d814610599578063ee7c0db0146105ad575b610185336105c2565b005b34801561019357600080fd5b506101856107f2565b3480156101a857600080fd5b506101b16108ee565b604080519889526020890197909752878701959095526060870193909352608086019190915260a085015260c0840152151560e083015251908190036101000190f35b34801561020057600080fd5b50604080516020600460843581810135838102808601850190965280855261018595833595602480359660443596606435963696919560a49594909101928291908501908490808284375094975050509235600160a060020a031693506109ca92505050565b34801561027257600080fd5b5061027b610ceb565b604080517fffffffff000000000000000000000000000000000000000000000000000000009092168252519081900360200190f35b3480156102bc57600080fd5b506102c5610d46565b60408051918252519081900360200190f35b3480156102e357600080fd5b506102ec610d4c565b604080519115158252519081900360200190f35b34801561030c57600080fd5b506102c5610d5c565b34801561032157600080fd5b506102c5610d62565b34801561033657600080fd5b50610185610d68565b34801561034b57600080fd5b506101856004351515610e3e565b34801561036557600080fd5b506102ec610fe3565b34801561037a57600080fd5b50610383610fee565b60408051600160a060020a039092168252519081900360200190f35b3480156103ab57600080fd5b506102ec610ffd565b3480156103c057600080fd5b506102ec60043561100d565b3480156103d857600080fd5b506102c561134d565b3480156103ed57600080fd5b506102c5600160a060020a0360043516611353565b34801561040e57600080fd5b50610383611365565b34801561042357600080fd5b506102c5611374565b34801561043857600080fd5b5061018561137a565b34801561044d57600080fd5b50610185600160a060020a03600435166114a7565b34801561046e57600080fd5b506102c560ff60043516611759565b34801561048957600080fd5b506102c5611785565b34801561049e57600080fd5b5061038361178b565b3480156104b357600080fd5b506104bc61179a565b60408051602080825283518183015283519192839290830191858101910280838360005b838110156104f85781810151838201526020016104e0565b505050509050019250505060405180910390f35b34801561051857600080fd5b506103836117ac565b34801561052d57600080fd5b506102c560ff600435166117bb565b34801561054857600080fd5b506101856004356117cd565b34801561056057600080fd5b506102ec60ff6004351661195b565b34801561057b57600080fd5b506102c5611970565b34801561059057600080fd5b506102c5611994565b610185600160a060020a03600435166105c2565b3480156105b957600080fd5b506102c561199a565b600a5460009081907501000000000000000000000000000000000000000000900460ff16156105f057600080fd5b600a805475ff00000000000000000000000000000000000000000019167501000000000000000000000000000000000000000000179081905560b060020a900460ff1615156106bf57600160a060020a03831633146106bf576040805160e560020a62461bcd02815260206004820152602d60248201527f42656e6566696369617279206164647265737320646f6573206e6f74206d617460448201527f6368206d73672e73656e64657200000000000000000000000000000000000000606482015290519081900360840190fd5b600a5460a060020a900460ff1615610721576040805160e560020a62461bcd02815260206004820152601460248201527f53686f756c64206e6f7420626520706175736564000000000000000000000000604482015290519081900360640190fd5b60008080526020527fad3228b676f7d3cd4284a5443f17f1962b36e491b30a40b2405849e597ba5fb55460ff1615156107a4576040805160e560020a62461bcd02815260206004820152601d60248201527f4d6f6465206f6620696e766573746d656e74206973206e6f7420455448000000604482015290519081900360640190fd5b3491506107b183836119a0565b90506107c3828263ffffffff611af316565b91506107ce81611b0a565b5050600a805475ff0000000000000000000000000000000000000000001916905550565b600960009054906101000a9004600160a060020a0316600160a060020a0316638da5cb5b6040518163ffffffff1660e060020a028152600401602060405180830381600087803b15801561084557600080fd5b505af1158015610859573d6000803e3d6000fd5b505050506040513d602081101561086f57600080fd5b5051600160a060020a031633146108be576040805160e560020a62461bcd0281526020600482015260136024820152600080516020612467833981519152604482015290519081900360640190fd5b6040513390303180156108fc02916000818181858888f193505050501580156108eb573d6000803e3d6000fd5b50565b600080600080600080600080600254600354600c54600b546000806001600281111561091657fe5b60ff908116825260208201929092526040016000205416610961576000805260016020527fa6eef7e35abe7026729641147f7915573c7e97b47efa546f5f6e3230263bcb495461098e565b600160008190526020527fcc69885fda6bcc1a4ace058b4a62bf5e179ea78fd58a1ccd71c22cc9b688792f545b6005546007546001600090815260205260008051602061244783398151915254969f959e50939c50919a5098509650945060ff90911692509050565b600854600160a060020a03163314610a2c576040805160e560020a62461bcd02815260206004820152601560248201527f53656e646572206973206e6f7420666163746f72790000000000000000000000604482015290519081900360640190fd5b60035415610a84576040805160e560020a62461bcd02815260206004820152601260248201527f416c726561647920636f6e666967757265640000000000000000000000000000604482015290519081900360640190fd5b60008311610b02576040805160e560020a62461bcd02815260206004820152602660248201527f52617465206f6620746f6b656e2073686f756c6420626520677265617465722060448201527f7468616e20300000000000000000000000000000000000000000000000000000606482015290519081900360840190fd5b600160a060020a0381161515610b62576040805160e560020a62461bcd02815260206004820152601d60248201527f5a65726f2061646472657373206973206e6f74207065726d6974746564000000604482015290519081900360640190fd5b428610158015610b7157508585115b1515610bc7576040805160e560020a62461bcd02815260206004820152601d60248201527f4461746520706172616d657465727320617265206e6f742076616c6964000000604482015290519081900360640190fd5b60008411610c1f576040805160e560020a62461bcd02815260206004820152601c60248201527f4361702073686f756c642062652067726561746572207468616e203000000000604482015290519081900360640190fd5b8151600114610c9e576040805160e560020a62461bcd02815260206004820152602660248201527f4974206f6e6c792073656c656374732073696e676c652066756e64207261697360448201527f6520747970650000000000000000000000000000000000000000000000000000606482015290519081900360840190fd5b60028690556003859055600c849055600b8390556006805473ffffffffffffffffffffffffffffffffffffffff1916600160a060020a038316179055610ce382611b83565b505050505050565b604080517f636f6e6669677572652875696e743235362c75696e743235362c75696e74323581527f362c75696e743235362c75696e74385b5d2c61646472657373290000000000006020820152905190819003603a01902090565b600b5481565b600a5460b060020a900460ff1681565b60035481565b600c5481565b600960009054906101000a9004600160a060020a0316600160a060020a0316638da5cb5b6040518163ffffffff1660e060020a028152600401602060405180830381600087803b158015610dbb57600080fd5b505af1158015610dcf573d6000803e3d6000fd5b505050506040513d6020811015610de557600080fd5b5051600160a060020a03163314610e34576040805160e560020a62461bcd0281526020600482015260136024820152600080516020612467833981519152604482015290519081900360640190fd5b610e3c611d3d565b565b600960009054906101000a9004600160a060020a0316600160a060020a0316638da5cb5b6040518163ffffffff1660e060020a028152600401602060405180830381600087803b158015610e9157600080fd5b505af1158015610ea5573d6000803e3d6000fd5b505050506040513d6020811015610ebb57600080fd5b5051600160a060020a03163314610f0a576040805160e560020a62461bcd0281526020600482015260136024820152600080516020612467833981519152604482015290519081900360640190fd5b600a5460b060020a900460ff1615158115151415610f72576040805160e560020a62461bcd02815260206004820152601560248201527f446f6573206e6f74206368616e67652076616c75650000000000000000000000604482015290519081900360640190fd5b600a805482151560b060020a90810276ff00000000000000000000000000000000000000000000199092169190911791829055604080519190920460ff161515815290517fea6eddcb8f2bf55dfb29aef4bd48214ef0798b9eae2e1bbb25dac99ecf6da6ae9181900360200190a150565b600c54600754101590565b600654600160a060020a031681565b600a5460a060020a900460ff1681565b60007f4645455f41444d494e0000000000000000000000000000000000000000000000600080600960009054906101000a9004600160a060020a0316600160a060020a0316638da5cb5b6040518163ffffffff1660e060020a028152600401602060405180830381600087803b15801561108657600080fd5b505af115801561109a573d6000803e3d6000fd5b505050506040513d60208110156110b057600080fd5b505160085433600160a060020a0392831681149450911614905081806110d35750805b806111795750600954604080517f8658b8b9000000000000000000000000000000000000000000000000000000008152336004820152306024820152604481018690529051600160a060020a0390921691638658b8b9916064808201926020929091908290030181600087803b15801561114c57600080fd5b505af1158015611160573d6000803e3d6000fd5b505050506040513d602081101561117657600080fd5b50515b15156111cf576040805160e560020a62461bcd02815260206004820152601760248201527f5065726d697373696f6e20636865636b206661696c6564000000000000000000604482015290519081900360640190fd5b600a54600954600854604080517f8da5cb5b0000000000000000000000000000000000000000000000000000000081529051600160a060020a03948516946323b872dd948116931691638da5cb5b9160048083019260209291908290030181600087803b15801561123f57600080fd5b505af1158015611253573d6000803e3d6000fd5b505050506040513d602081101561126957600080fd5b50516040805160e060020a63ffffffff8616028152600160a060020a039384166004820152929091166024830152604482018990525160648083019260209291908290030181600087803b1580156112c057600080fd5b505af11580156112d4573d6000803e3d6000fd5b505050506040513d60208110156112ea57600080fd5b50511515611342576040805160e560020a62461bcd02815260206004820152601260248201527f556e61626c6520746f2074616b65206665650000000000000000000000000000604482015290519081900360640190fd5b506001949350505050565b60075481565b600d6020526000908152604090205481565b600a54600160a060020a031681565b60025481565b600960009054906101000a9004600160a060020a0316600160a060020a0316638da5cb5b6040518163ffffffff1660e060020a028152600401602060405180830381600087803b1580156113cd57600080fd5b505af11580156113e1573d6000803e3d6000fd5b505050506040513d60208110156113f757600080fd5b5051600160a060020a03163314611446576040805160e560020a62461bcd0281526020600482015260136024820152600080516020612467833981519152604482015290519081900360640190fd5b600354421061149f576040805160e560020a62461bcd02815260206004820152601660248201527f53544f20686173206265656e2066696e616c697a656400000000000000000000604482015290519081900360640190fd5b610e3c611df3565b600080600960009054906101000a9004600160a060020a0316600160a060020a0316638da5cb5b6040518163ffffffff1660e060020a028152600401602060405180830381600087803b1580156114fd57600080fd5b505af1158015611511573d6000803e3d6000fd5b505050506040513d602081101561152757600080fd5b5051600160a060020a03163314611576576040805160e560020a62461bcd0281526020600482015260136024820152600080516020612467833981519152604482015290519081900360640190fd5b600160a060020a03831615156115d6576040805160e560020a62461bcd02815260206004820152600f60248201527f496e76616c696420616464726573730000000000000000000000000000000000604482015290519081900360640190fd5b604080517f70a082310000000000000000000000000000000000000000000000000000000081523060048201529051849350600160a060020a038416916370a082319160248083019260209291908290030181600087803b15801561163a57600080fd5b505af115801561164e573d6000803e3d6000fd5b505050506040513d602081101561166457600080fd5b5051604080517fa9059cbb000000000000000000000000000000000000000000000000000000008152336004820152602481018390529051919250600160a060020a0384169163a9059cbb916044808201926020929091908290030181600087803b1580156116d257600080fd5b505af11580156116e6573d6000803e3d6000fd5b505050506040513d60208110156116fc57600080fd5b50511515611754576040805160e560020a62461bcd02815260206004820152600f60248201527f5472616e73666572206661696c65640000000000000000000000000000000000604482015290519081900360640190fd5b505050565b60006001600083600281111561176b57fe5b60ff16815260208101919091526040016000205492915050565b60045481565b600954600160a060020a031681565b60408051600081526020810190915290565b600854600160a060020a031681565b60016020526000908152604090205481565b600a546000907501000000000000000000000000000000000000000000900460ff16156117f957600080fd5b600a805475ff00000000000000000000000000000000000000000019167501000000000000000000000000000000000000000000179081905560a060020a900460ff1615611891576040805160e560020a62461bcd02815260206004820152601460248201527f53686f756c64206e6f7420626520706175736564000000000000000000000000604482015290519081900360640190fd5b600160009081526020526000805160206124478339815191525460ff161515611904576040805160e560020a62461bcd02815260206004820152601e60248201527f4d6f6465206f6620696e766573746d656e74206973206e6f7420504f4c590000604482015290519081900360640190fd5b61190e33836119a0565b600654909150611938903390600160a060020a0316611933858563ffffffff611af316565b611eae565b5050600a805475ff00000000000000000000000000000000000000000019169055565b60006020819052908152604090205460ff1681565b7f4645455f41444d494e000000000000000000000000000000000000000000000081565b60055481565b60075490565b6000806119ad8484611f56565b6119b6836120e8565b925090506119ca838363ffffffff611af316565b600160009081526020526000805160206124478339815191525490935060ff1615611a4a57611a198360016000815b60ff1681526020810191909152604001600020549063ffffffff61229516565b600160008190526020527fcc69885fda6bcc1a4ace058b4a62bf5e179ea78fd58a1ccd71c22cc9b688792f55611a84565b611a588360016000806119f9565b6000805260016020527fa6eef7e35abe7026729641147f7915573c7e97b47efa546f5f6e3230263bcb49555b600754611a97908263ffffffff61229516565b600755611aa484826122a2565b60408051848152602081018390528151600160a060020a0387169233927f623b3804fa71d67900d064613da8f94b9617215ee90799290593e1745087ad18929081900390910190a35092915050565b600082821115611aff57fe5b508082035b92915050565b600654600160a060020a03166108fc611b29348463ffffffff611af316565b6040518115909202916000818181858888f19350505050158015611b51573d6000803e3d6000fd5b50604051339082156108fc029083906000818181858888f19350505050158015611b7f573d6000803e3d6000fd5b5050565b6000808251118015611b9757506003825111155b1515611bed576040805160e560020a62461bcd02815260206004820152601b60248201527f52616973652074797065206973206e6f74207370656369666965640000000000604482015290519081900360640190fd5b50600060208190527fad3228b676f7d3cd4284a5443f17f1962b36e491b30a40b2405849e597ba5fb5805460ff19908116909155600080516020612447833981519152805482169055600282527fabbb5caa7dda850e60932de0934eb1f9d0f59695050f761dc64e443e5030a569805490911690555b81518160ff161015611cc4576001600080848460ff16815181101515611c8557fe5b906020019060200201516002811115611c9a57fe5b60ff1681526020810191909152604001600020805460ff1916911515919091179055600101611c63565b7fe5724f42dd9f217c97b3768212ed6d6692c0135e252387d61b98af28fecd9b02826040518080602001828103825283818151815260200191508051906020019060200280838360005b83811015611d26578181015183820152602001611d0e565b505050509050019250505060405180910390a15050565b600a5460a060020a900460ff161515611da0576040805160e560020a62461bcd02815260206004820152601660248201527f436f6e7472616374206973206e6f742070617573656400000000000000000000604482015290519081900360640190fd5b600a805474ff0000000000000000000000000000000000000000191690556040805142815290517faaa520fdd7d2c83061d632fa017b0432407e798818af63ea908589fceda39ab79181900360200190a1565b600a5460a060020a900460ff1615611e55576040805160e560020a62461bcd02815260206004820152601260248201527f436f6e7472616374206973207061757365640000000000000000000000000000604482015290519081900360640190fd5b600a805474ff0000000000000000000000000000000000000000191660a060020a1790556040805142815290517f68b095021b1f40fe513109f513c66692f0b3219aee674a69f4efc57badb8201d9181900360200190a1565b600a54604080517f23b872dd000000000000000000000000000000000000000000000000000000008152600160a060020a038681166004830152858116602483015260448201859052915191909216916323b872dd9160648083019260209291908290030181600087803b158015611f2557600080fd5b505af1158015611f39573d6000803e3d6000fd5b505050506040513d6020811015611f4f57600080fd5b5050505050565b600160a060020a0382161515611fdb576040805160e560020a62461bcd028152602060048201526024808201527f42656e656669636961727920616464726573732073686f756c64206e6f74206260448201527f6520307800000000000000000000000000000000000000000000000000000000606482015290519081900360840190fd5b801515612058576040805160e560020a62461bcd02815260206004820152602860248201527f416d6f756e7420696e7665737465642073686f756c64206e6f7420626520657160448201527f75616c20746f2030000000000000000000000000000000000000000000000000606482015290519081900360840190fd5b600254421015801561206c57506003544211155b1515611b7f576040805160e560020a62461bcd02815260206004820152602260248201527f4f66666572696e6720697320636c6f7365642f4e6f742079657420737461727460448201527f6564000000000000000000000000000000000000000000000000000000000000606482015290519081900360840190fd5b6000806000612102600b548561231790919063ffffffff16565b925061211c83670de0b6b3a764000063ffffffff61234016565b9250600c546121368460075461229590919063ffffffff16565b111561215457600754600c546121519163ffffffff611af316565b92505b600960009054906101000a9004600160a060020a0316600160a060020a031663556f0dc76040518163ffffffff1660e060020a028152600401602060405180830381600087803b1580156121a757600080fd5b505af11580156121bb573d6000803e3d6000fd5b505050506040513d60208110156121d157600080fd5b505190506121e5838263ffffffff61234016565b92506121f7838263ffffffff61231716565b925060008311612251576040805160e560020a62461bcd02815260206004820152600b60248201527f4361702072656163686564000000000000000000000000000000000000000000604482015290519081900360640190fd5b600b5461228d906122809061227486670de0b6b3a764000063ffffffff61231716565b9063ffffffff61234016565b859063ffffffff611af316565b915050915091565b81810182811015611b0457fe5b600160a060020a0382166000908152600d602052604090205415156122cb576005805460010190555b600160a060020a0382166000908152600d60205260409020546122f4908263ffffffff61229516565b600160a060020a0383166000908152600d6020526040902055611b7f8282612355565b600082151561232857506000611b04565b5081810281838281151561233857fe5b0414611b0457fe5b6000818381151561234d57fe5b049392505050565b600954604080517f40c10f19000000000000000000000000000000000000000000000000000000008152600160a060020a03858116600483015260248201859052915191909216916340c10f199160448083019260209291908290030181600087803b1580156123c457600080fd5b505af11580156123d8573d6000803e3d6000fd5b505050506040513d60208110156123ee57600080fd5b50511515611b7f576040805160e560020a62461bcd02815260206004820152601b60248201527f4572726f7220696e206d696e74696e672074686520746f6b656e730000000000604482015290519081900360640190fd00ada5013122d395ba3c54772283fb069b10426056ef8ca54750cb9bb552a59e7d53656e646572206973206e6f74206f776e657200000000000000000000000000a165627a7a7230582048e6ebdc143121af7f998c8ab0f922307dff73920e224320ea7f8267dfc190620029496e697469616c697365732061206361707065642053544f2e20496e697420706172616d657465727320617265205f737461727454696d65202874696d652053544f20737461727473292c205f656e6454696d65202874696d652053544f20656e6473292c205f636170202863617020696e20746f6b656e7320666f722053544f292c205f726174652028504f4c592f45544820746f20746f6b656e2072617465292c205f66756e6452616973655479706520287768657468657220796f75206172652072616973696e6720696e20504f4c59206f7220455448292c205f706f6c79546f6b656e202861646472657373206f6620504f4c5920746f6b656e292c205f66756e647352656365697665722028616464726573732077686963682077696c6c20726563656976652066756e647329a165627a7a72305820ed056ba9ab331c9ab379d73f6aa0e965009da807cedd6af7d29eb3fcb77589db00295468697320736d61727420636f6e747261637420637265617465732061206d6178696d756d206e756d626572206f6620746f6b656e732028692e652e206861726420636170292077686963682074686520746f74616c20616767726567617465206f6620746f6b656e7320616371756972656420627920616c6c20696e766573746f72732063616e6e6f74206578636565642e20536563757269747920746f6b656e73206172652073656e7420746f2074686520696e766573746f722075706f6e20726563657074696f6e206f66207468652066756e64732028455448206f7220504f4c59292c20616e6420616e7920736563757269747920746f6b656e73206c6566742075706f6e207465726d696e6174696f6e206f6620746865206f66666572696e672077696c6c206e6f74206265206d696e7465642e",
  "source": "pragma solidity ^0.4.24;\n\nimport \"./CappedSTO.sol\";\nimport \"../ModuleFactory.sol\";\nimport \"../../libraries/Util.sol\";\n\n/**\n * @title Factory for deploying CappedSTO module\n */\ncontract CappedSTOFactory is ModuleFactory {\n\n    /**\n     * @notice Constructor\n     * @param _polyAddress Address of the polytoken\n     */\n    constructor (address _polyAddress, uint256 _setupCost, uint256 _usageCost, uint256 _subscriptionCost) public\n    ModuleFactory(_polyAddress, _setupCost, _usageCost, _subscriptionCost)\n    {\n        version = \"2.1.0\";\n        name = \"CappedSTO\";\n        title = \"Capped STO\";\n        description = \"This smart contract creates a maximum number of tokens (i.e. hard cap) which the total aggregate of tokens acquired by all investors cannot exceed. Security tokens are sent to the investor upon reception of the funds (ETH or POLY), and any security tokens left upon termination of the offering will not be minted.\";\n        compatibleSTVersionRange[\"lowerBound\"] = VersionUtils.pack(uint8(0), uint8(0), uint8(0));\n        compatibleSTVersionRange[\"upperBound\"] = VersionUtils.pack(uint8(0), uint8(0), uint8(0));\n    }\n\n     /**\n     * @notice Used to launch the Module with the help of factory\n     * @return address Contract address of the Module\n     */\n    function deploy(bytes _data) external returns(address) {\n        if(setupCost > 0)\n            require(polyToken.transferFrom(msg.sender, owner, setupCost), \"Sufficent Allowance is not provided\");\n        //Check valid bytes - can only call module init function\n        CappedSTO cappedSTO = new CappedSTO(msg.sender, address(polyToken));\n        //Checks that _data is valid (not calling anything it shouldn't)\n        require(Util.getSig(_data) == cappedSTO.getInitFunction(), \"Invalid data\");\n        /*solium-disable-next-line security/no-low-level-calls*/\n        require(address(cappedSTO).call(_data), \"Unsuccessfull call\");\n        /*solium-disable-next-line security/no-block-members*/\n        emit GenerateModuleFromFactory(address(cappedSTO), getName(), address(this), msg.sender, setupCost, now);\n        return address(cappedSTO);\n    }\n\n    /**\n     * @notice Type of the Module factory\n     */\n    function getTypes() external view returns(uint8[]) {\n        uint8[] memory res = new uint8[](1);\n        res[0] = 3;\n        return res;\n    }\n\n    /**\n     * @notice Returns the instructions associated with the module\n     */\n    function getInstructions() external view returns(string) {\n        /*solium-disable-next-line max-len*/\n        return \"Initialises a capped STO. Init parameters are _startTime (time STO starts), _endTime (time STO ends), _cap (cap in tokens for STO), _rate (POLY/ETH to token rate), _fundRaiseType (whether you are raising in POLY or ETH), _polyToken (address of POLY token), _fundsReceiver (address which will receive funds)\";\n    }\n\n    /**\n     * @notice Get the tags related to the module factory\n     */\n    function getTags() external view returns(bytes32[]) {\n        bytes32[] memory availableTags = new bytes32[](4);\n        availableTags[0] = \"Capped\";\n        availableTags[1] = \"Non-refundable\";\n        availableTags[2] = \"POLY\";\n        availableTags[3] = \"ETH\";\n        return availableTags;\n    }\n\n}\n",
  "sourcePath": "/Users/federicoelgarte/Polymath/polymath-core/contracts/modules/STO/CappedSTOFactory.sol",
  "compiler": {
    "name": "solc",
    "version": "0.4.24+commit.e67f0147.Emscripten.clang"
  },
  "schemaVersion": "2.0.1",
  "updatedAt": "2019-04-09T19:05:06.684Z"
}