{
  "contractName": "CappedSTO",
  "abi": [
    {
      "constant": false,
      "inputs": [],
      "name": "reclaimETH",
      "outputs": [],
      "payable": false,
      "stateMutability": "nonpayable",
      "type": "function",
      "signature": "0x0f144a48"
    },
    {
      "constant": true,
      "inputs": [],
      "name": "ADMIN",
      "outputs": [
        {
          "name": "",
          "type": "bytes32"
        }
      ],
      "payable": false,
      "stateMutability": "view",
      "type": "function",
      "signature": "0x2a0acc6a"
    },
    {
      "constant": true,
      "inputs": [],
      "name": "rate",
      "outputs": [
        {
          "name": "",
          "type": "uint256"
        }
      ],
      "payable": false,
      "stateMutability": "view",
      "type": "function",
      "signature": "0x2c4e722e"
    },
    {
      "constant": true,
      "inputs": [],
      "name": "allowBeneficialInvestments",
      "outputs": [
        {
          "name": "",
          "type": "bool"
        }
      ],
      "payable": false,
      "stateMutability": "view",
      "type": "function",
      "signature": "0x2df413e2"
    },
    {
      "constant": true,
      "inputs": [],
      "name": "endTime",
      "outputs": [
        {
          "name": "",
          "type": "uint256"
        }
      ],
      "payable": false,
      "stateMutability": "view",
      "type": "function",
      "signature": "0x3197cbb6"
    },
    {
      "constant": true,
      "inputs": [],
      "name": "cap",
      "outputs": [
        {
          "name": "",
          "type": "uint256"
        }
      ],
      "payable": false,
      "stateMutability": "view",
      "type": "function",
      "signature": "0x355274ea"
    },
    {
      "constant": false,
      "inputs": [],
      "name": "unpause",
      "outputs": [],
      "payable": false,
      "stateMutability": "nonpayable",
      "type": "function",
      "signature": "0x3f4ba83a"
    },
    {
      "constant": true,
      "inputs": [],
      "name": "wallet",
      "outputs": [
        {
          "name": "",
          "type": "address"
        }
      ],
      "payable": false,
      "stateMutability": "view",
      "type": "function",
      "signature": "0x521eb273"
    },
    {
      "constant": true,
      "inputs": [],
      "name": "paused",
      "outputs": [
        {
          "name": "",
          "type": "bool"
        }
      ],
      "payable": false,
      "stateMutability": "view",
      "type": "function",
      "signature": "0x5c975abb"
    },
    {
      "constant": true,
      "inputs": [],
      "name": "totalTokensSold",
      "outputs": [
        {
          "name": "",
          "type": "uint256"
        }
      ],
      "payable": false,
      "stateMutability": "view",
      "type": "function",
      "signature": "0x63b20117"
    },
    {
      "constant": true,
      "inputs": [
        {
          "name": "",
          "type": "address"
        }
      ],
      "name": "investors",
      "outputs": [
        {
          "name": "",
          "type": "uint256"
        }
      ],
      "payable": false,
      "stateMutability": "view",
      "type": "function",
      "signature": "0x6f7bc9be"
    },
    {
      "constant": true,
      "inputs": [],
      "name": "polyToken",
      "outputs": [
        {
          "name": "",
          "type": "address"
        }
      ],
      "payable": false,
      "stateMutability": "view",
      "type": "function",
      "signature": "0x6faa22a5"
    },
    {
      "constant": true,
      "inputs": [],
      "name": "startTime",
      "outputs": [
        {
          "name": "",
          "type": "uint256"
        }
      ],
      "payable": false,
      "stateMutability": "view",
      "type": "function",
      "signature": "0x78e97925"
    },
    {
      "constant": false,
      "inputs": [],
      "name": "pause",
      "outputs": [],
      "payable": false,
      "stateMutability": "nonpayable",
      "type": "function",
      "signature": "0x8456cb59"
    },
    {
      "constant": false,
      "inputs": [
        {
          "name": "_tokenContract",
          "type": "address"
        }
      ],
      "name": "reclaimERC20",
      "outputs": [],
      "payable": false,
      "stateMutability": "nonpayable",
      "type": "function",
      "signature": "0x8905fd4f"
    },
    {
      "constant": true,
      "inputs": [],
      "name": "OPERATOR",
      "outputs": [
        {
          "name": "",
          "type": "bytes32"
        }
      ],
      "payable": false,
      "stateMutability": "view",
      "type": "function",
      "signature": "0x983d2737"
    },
    {
      "constant": true,
      "inputs": [
        {
          "name": "_fundRaiseType",
          "type": "uint8"
        }
      ],
      "name": "getRaised",
      "outputs": [
        {
          "name": "",
          "type": "uint256"
        }
      ],
      "payable": false,
      "stateMutability": "view",
      "type": "function",
      "signature": "0x9a7cc135"
    },
    {
      "constant": true,
      "inputs": [],
      "name": "pausedTime",
      "outputs": [
        {
          "name": "",
          "type": "uint256"
        }
      ],
      "payable": false,
      "stateMutability": "view",
      "type": "function",
      "signature": "0xb2cca39d"
    },
    {
      "constant": true,
      "inputs": [],
      "name": "securityToken",
      "outputs": [
        {
          "name": "",
          "type": "address"
        }
      ],
      "payable": false,
      "stateMutability": "view",
      "type": "function",
      "signature": "0xb84dfbd2"
    },
    {
      "constant": true,
      "inputs": [],
      "name": "factory",
      "outputs": [
        {
          "name": "",
          "type": "address"
        }
      ],
      "payable": false,
      "stateMutability": "view",
      "type": "function",
      "signature": "0xc45a0155"
    },
    {
      "constant": true,
      "inputs": [
        {
          "name": "",
          "type": "uint8"
        }
      ],
      "name": "fundsRaised",
      "outputs": [
        {
          "name": "",
          "type": "uint256"
        }
      ],
      "payable": false,
      "stateMutability": "view",
      "type": "function",
      "signature": "0xc4d2c6bd"
    },
    {
      "constant": true,
      "inputs": [
        {
          "name": "",
          "type": "uint8"
        }
      ],
      "name": "fundRaiseTypes",
      "outputs": [
        {
          "name": "",
          "type": "bool"
        }
      ],
      "payable": false,
      "stateMutability": "view",
      "type": "function",
      "signature": "0xd143a379"
    },
    {
      "constant": true,
      "inputs": [],
      "name": "investorCount",
      "outputs": [
        {
          "name": "",
          "type": "uint256"
        }
      ],
      "payable": false,
      "stateMutability": "view",
      "type": "function",
      "signature": "0xd7e64c00"
    },
    {
      "constant": true,
      "inputs": [],
      "name": "getDataStore",
      "outputs": [
        {
          "name": "",
          "type": "address"
        }
      ],
      "payable": false,
      "stateMutability": "view",
      "type": "function",
      "signature": "0xfe58265e"
    },
    {
      "inputs": [
        {
          "name": "_securityToken",
          "type": "address"
        },
        {
          "name": "_polyToken",
          "type": "address"
        }
      ],
      "payable": false,
      "stateMutability": "nonpayable",
      "type": "constructor",
      "signature": "constructor"
    },
    {
      "payable": true,
      "stateMutability": "payable",
      "type": "fallback"
    },
    {
      "anonymous": false,
      "inputs": [
        {
          "indexed": true,
          "name": "purchaser",
          "type": "address"
        },
        {
          "indexed": true,
          "name": "beneficiary",
          "type": "address"
        },
        {
          "indexed": false,
          "name": "value",
          "type": "uint256"
        },
        {
          "indexed": false,
          "name": "amount",
          "type": "uint256"
        }
      ],
      "name": "TokenPurchase",
      "type": "event",
      "signature": "0x623b3804fa71d67900d064613da8f94b9617215ee90799290593e1745087ad18"
    },
    {
      "anonymous": false,
      "inputs": [
        {
          "indexed": false,
          "name": "_allowed",
          "type": "bool"
        }
      ],
      "name": "SetAllowBeneficialInvestments",
      "type": "event",
      "signature": "0xea6eddcb8f2bf55dfb29aef4bd48214ef0798b9eae2e1bbb25dac99ecf6da6ae"
    },
    {
      "anonymous": false,
      "inputs": [
        {
          "indexed": false,
          "name": "account",
          "type": "address"
        }
      ],
      "name": "Pause",
      "type": "event",
      "signature": "0x5ee71a369c8672edded508e624ffc9257fa1ae6886ef32905c18e60196bca399"
    },
    {
      "anonymous": false,
      "inputs": [
        {
          "indexed": false,
          "name": "account",
          "type": "address"
        }
      ],
      "name": "Unpause",
      "type": "event",
      "signature": "0xaeb196d352664784d1900b0e7414a8face7d29f4dae8c4b0cf68ed477423bbf4"
    },
    {
      "anonymous": false,
      "inputs": [
        {
          "indexed": false,
          "name": "_fundRaiseTypes",
          "type": "uint8[]"
        }
      ],
      "name": "SetFundRaiseTypes",
      "type": "event",
      "signature": "0xe5724f42dd9f217c97b3768212ed6d6692c0135e252387d61b98af28fecd9b02"
    },
    {
      "constant": false,
      "inputs": [
        {
          "name": "_startTime",
          "type": "uint256"
        },
        {
          "name": "_endTime",
          "type": "uint256"
        },
        {
          "name": "_cap",
          "type": "uint256"
        },
        {
          "name": "_rate",
          "type": "uint256"
        },
        {
          "name": "_fundRaiseTypes",
          "type": "uint8[]"
        },
        {
          "name": "_fundsReceiver",
          "type": "address"
        }
      ],
      "name": "configure",
      "outputs": [],
      "payable": false,
      "stateMutability": "nonpayable",
      "type": "function",
      "signature": "0x1365eaaf"
    },
    {
      "constant": true,
      "inputs": [],
      "name": "getInitFunction",
      "outputs": [
        {
          "name": "",
          "type": "bytes4"
        }
      ],
      "payable": false,
      "stateMutability": "pure",
      "type": "function",
      "signature": "0x1613ec9d"
    },
    {
      "constant": false,
      "inputs": [
        {
          "name": "_allowBeneficialInvestments",
          "type": "bool"
        }
      ],
      "name": "changeAllowBeneficialInvestments",
      "outputs": [],
      "payable": false,
      "stateMutability": "nonpayable",
      "type": "function",
      "signature": "0x441b9e4a"
    },
    {
      "constant": false,
      "inputs": [
        {
          "name": "_beneficiary",
          "type": "address"
        }
      ],
      "name": "buyTokens",
      "outputs": [],
      "payable": true,
      "stateMutability": "payable",
      "type": "function",
      "signature": "0xec8ac4d8"
    },
    {
      "constant": false,
      "inputs": [
        {
          "name": "_investedPOLY",
          "type": "uint256"
        }
      ],
      "name": "buyTokensWithPoly",
      "outputs": [],
      "payable": false,
      "stateMutability": "nonpayable",
      "type": "function",
      "signature": "0xcb752679"
    },
    {
      "constant": true,
      "inputs": [],
      "name": "capReached",
      "outputs": [
        {
          "name": "",
          "type": "bool"
        }
      ],
      "payable": false,
      "stateMutability": "view",
      "type": "function",
      "signature": "0x4f935945"
    },
    {
      "constant": true,
      "inputs": [],
      "name": "getTokensSold",
      "outputs": [
        {
          "name": "",
          "type": "uint256"
        }
      ],
      "payable": false,
      "stateMutability": "view",
      "type": "function",
      "signature": "0xee7c0db0"
    },
    {
      "constant": true,
      "inputs": [],
      "name": "getPermissions",
      "outputs": [
        {
          "name": "",
          "type": "bytes32[]"
        }
      ],
      "payable": false,
      "stateMutability": "view",
      "type": "function",
      "signature": "0xc3a07df6"
    },
    {
      "constant": true,
      "inputs": [],
      "name": "getSTODetails",
      "outputs": [
        {
          "name": "",
          "type": "uint256"
        },
        {
          "name": "",
          "type": "uint256"
        },
        {
          "name": "",
          "type": "uint256"
        },
        {
          "name": "",
          "type": "uint256"
        },
        {
          "name": "",
          "type": "uint256"
        },
        {
          "name": "",
          "type": "uint256"
        },
        {
          "name": "",
          "type": "uint256"
        },
        {
          "name": "",
          "type": "bool"
        }
      ],
      "payable": false,
      "stateMutability": "view",
      "type": "function",
      "signature": "0x1040dc27"
    }
  ],
  "bytecode": "0x60806040526000805460ff19169055600e805460a060020a60ff021916905534801561002a57600080fd5b5060405160408061227c8339810180604052604081101561004a57600080fd5b508051602090910151600d8054600160a060020a03938416600160a060020a031991821617909155600c8054821633179055600e80549390921692169190911790556001600f556121dc806100a06000396000f3fe6080604052600436106101f25760003560e060020a900480636faa22a511610111578063c3a07df6116100a4578063d143a37911610073578063d143a379146106a9578063d7e64c00146106d6578063ec8ac4d8146106eb578063ee7c0db014610711578063fe58265e14610726576101f2565b8063c3a07df6146105d8578063c45a01551461063d578063c4d2c6bd14610652578063cb7526791461067f576101f2565b8063983d2737116100e0578063983d27371461056c5780639a7cc13514610581578063b2cca39d146105ae578063b84dfbd2146105c3576101f2565b80636faa22a5146104fa57806378e979251461050f5780638456cb59146105245780638905fd4f14610539576101f2565b8063355274ea11610189578063521eb27311610158578063521eb2731461046c5780635c975abb1461049d57806363b20117146104b25780636f7bc9be146104c7576101f2565b8063355274ea146104015780633f4ba83a14610416578063441b9e4a1461042b5780634f93594514610457576101f2565b80632a0acc6a116101c55780632a0acc6a146103875780632c4e722e146103ae5780632df413e2146103c35780633197cbb6146103ec576101f2565b80630f144a48146101fd5780631040dc27146102125780631365eaaf1461026a5780631613ec9d1461033d575b6101fb3361073b565b005b34801561020957600080fd5b506101fb6108bc565b34801561021e57600080fd5b506102276108f4565b604080519889526020890197909752878701959095526060870193909352608086019190915260a085015260c0840152151560e083015251908190036101000190f35b34801561027657600080fd5b506101fb600480360360c081101561028d57600080fd5b81359160208101359160408201359160608101359181019060a0810160808201356401000000008111156102c057600080fd5b8201836020820111156102d257600080fd5b803590602001918460208302840111640100000000831117156102f457600080fd5b91908080602002602001604051908101604052809392919081815260200183836020028082843760009201919091525092955050509035600160a060020a031691506109d19050565b34801561034957600080fd5b50610352610c76565b604080517fffffffff000000000000000000000000000000000000000000000000000000009092168252519081900360200190f35b34801561039357600080fd5b5061039c610c9a565b60408051918252519081900360200190f35b3480156103ba57600080fd5b5061039c610cbe565b3480156103cf57600080fd5b506103d8610cc4565b604080519115158252519081900360200190f35b3480156103f857600080fd5b5061039c610ccd565b34801561040d57600080fd5b5061039c610cd3565b34801561042257600080fd5b506101fb610cd9565b34801561043757600080fd5b506101fb6004803603602081101561044e57600080fd5b50351515610ceb565b34801561046357600080fd5b506103d8610e18565b34801561047857600080fd5b50610481610e23565b60408051600160a060020a039092168252519081900360200190f35b3480156104a957600080fd5b506103d8610e32565b3480156104be57600080fd5b5061039c610e42565b3480156104d357600080fd5b5061039c600480360360208110156104ea57600080fd5b5035600160a060020a0316610e48565b34801561050657600080fd5b50610481610e5a565b34801561051b57600080fd5b5061039c610e69565b34801561053057600080fd5b506101fb610e6f565b34801561054557600080fd5b506101fb6004803603602081101561055c57600080fd5b5035600160a060020a0316610ed0565b34801561057857600080fd5b5061039c6110b7565b34801561058d57600080fd5b5061039c600480360360208110156105a457600080fd5b503560ff166110db565b3480156105ba57600080fd5b5061039c611107565b3480156105cf57600080fd5b5061048161110d565b3480156105e457600080fd5b506105ed61111c565b60408051602080825283518183015283519192839290830191858101910280838360005b83811015610629578181015183820152602001610611565b505050509050019250505060405180910390f35b34801561064957600080fd5b5061048161117f565b34801561065e57600080fd5b5061039c6004803603602081101561067557600080fd5b503560ff1661118e565b34801561068b57600080fd5b506101fb600480360360208110156106a257600080fd5b50356111a0565b3480156106b557600080fd5b506103d8600480360360208110156106cc57600080fd5b503560ff166112c3565b3480156106e257600080fd5b5061039c6112d8565b6101fb6004803603602081101561070157600080fd5b5035600160a060020a031661073b565b34801561071d57600080fd5b5061039c6112de565b34801561073257600080fd5b506104816112e4565b600e5460a060020a900460ff161561079d576040805160e560020a62461bcd02815260206004820152601260248201527f436f6e7472616374206973207061757365640000000000000000000000000000604482015290519081900360640190fd5b600f80546001019081905560005460ff166107fc57600160a060020a03821633146107fc5760405160e560020a62461bcd02815260040180806020018281038252602d815260200180612112602d913960400191505060405180910390fd5b6000805260046020527f17ef568e3e12ab5b9c7254a8d58478811de00f9e6eb34345acd53bf8fd09d3ec5460ff1661087e576040805160e560020a62461bcd02815260206004820152601d60248201527f4d6f6465206f6620696e766573746d656e74206973206e6f7420455448000000604482015290519081900360640190fd5b34600061088b8483611373565b905061089d828263ffffffff6114c816565b91506108a8816114e2565b5050600f5481146108b857600080fd5b5050565b6108c4611557565b6040513390303180156108fc02916000818181858888f193505050501580156108f1573d6000803e3d6000fd5b50565b600080600080600080600080600654600754600254600154600460006001600281111561091d57fe5b60ff908116825260208201929092526040016000205416610968576000805260056020527f05b8ccbb9d4d8fb16ea74ce3c29a41f1b461fbdaff4714a0d9a8eb05499746bc54610995565b600160005260056020527f1471eb6eb2c5e789fc3de43f8ce62938c7d1836ec861730447e2ada8fd81017b545b600954600b54600160005260046020526000805160206120d083398151915254969f959e50939c50919a5098509650945060ff90911692509050565b600c54600160a060020a03163314610a33576040805160e560020a62461bcd02815260206004820152601560248201527f53656e646572206973206e6f7420666163746f72790000000000000000000000604482015290519081900360640190fd5b60075415610a8b576040805160e560020a62461bcd02815260206004820152601260248201527f416c726561647920636f6e666967757265640000000000000000000000000000604482015290519081900360640190fd5b60008311610acd5760405160e560020a62461bcd0281526004018080602001828103825260268152602001806121636026913960400191505060405180910390fd5b600160a060020a038116610b2b576040805160e560020a62461bcd02815260206004820152601d60248201527f5a65726f2061646472657373206973206e6f74207065726d6974746564000000604482015290519081900360640190fd5b428610158015610b3a57508585115b610b8e576040805160e560020a62461bcd02815260206004820152601d60248201527f4461746520706172616d657465727320617265206e6f742076616c6964000000604482015290519081900360640190fd5b60008411610be6576040805160e560020a62461bcd02815260206004820152601c60248201527f4361702073686f756c642062652067726561746572207468616e203000000000604482015290519081900360640190fd5b8151600114610c295760405160e560020a62461bcd0281526004018080602001828103825260268152602001806120aa6026913960400191505060405180910390fd5b6006869055600785905560028490556001839055600a805473ffffffffffffffffffffffffffffffffffffffff1916600160a060020a038316179055610c6e82611633565b505050505050565b7f1365eaaf0000000000000000000000000000000000000000000000000000000090565b7f41444d494e00000000000000000000000000000000000000000000000000000081565b60015481565b60005460ff1681565b60075481565b60025481565b610ce1611557565b610ce96117e8565b565b7f4f50455241544f52000000000000000000000000000000000000000000000000610d16813361189c565b610d6a576040805160e560020a62461bcd02815260206004820152601260248201527f496e76616c6964207065726d697373696f6e0000000000000000000000000000604482015290519081900360640190fd5b60005460ff1615158215151415610dcb576040805160e560020a62461bcd02815260206004820152601560248201527f446f6573206e6f74206368616e67652076616c75650000000000000000000000604482015290519081900360640190fd5b6000805460ff191683151517908190556040805160ff90921615158252517fea6eddcb8f2bf55dfb29aef4bd48214ef0798b9eae2e1bbb25dac99ecf6da6ae916020908290030190a15050565b600254600b54101590565b600a54600160a060020a031681565b600e5460a060020a900460ff1681565b600b5481565b60036020526000908152604090205481565b600e54600160a060020a031681565b60065481565b6007544210610ec8576040805160e560020a62461bcd02815260206004820152601660248201527f53544f20686173206265656e2066696e616c697a656400000000000000000000604482015290519081900360640190fd5b610ce96119eb565b610ed8611557565b600160a060020a038116610f36576040805160e560020a62461bcd02815260206004820152600f60248201527f496e76616c696420616464726573730000000000000000000000000000000000604482015290519081900360640190fd5b604080517f70a0823100000000000000000000000000000000000000000000000000000000815230600482015290518291600091600160a060020a038416916370a08231916024808301926020929190829003018186803b158015610f9a57600080fd5b505afa158015610fae573d6000803e3d6000fd5b505050506040513d6020811015610fc457600080fd5b5051604080517fa9059cbb000000000000000000000000000000000000000000000000000000008152336004820152602481018390529051919250600160a060020a0384169163a9059cbb916044808201926020929091908290030181600087803b15801561103257600080fd5b505af1158015611046573d6000803e3d6000fd5b505050506040513d602081101561105c57600080fd5b50516110b2576040805160e560020a62461bcd02815260206004820152600f60248201527f5472616e73666572206661696c65640000000000000000000000000000000000604482015290519081900360640190fd5b505050565b7f4f50455241544f5200000000000000000000000000000000000000000000000081565b6000600560008360028111156110ed57fe5b60ff16815260208101919091526040016000205492915050565b60085481565b600d54600160a060020a031681565b604080516001808252818301909252606091829190602080830190803883390190505090507f4f50455241544f520000000000000000000000000000000000000000000000008160008151811061116f57fe5b6020908102919091010152905090565b600c54600160a060020a031681565b60056020526000908152604090205481565b600e5460a060020a900460ff1615611202576040805160e560020a62461bcd02815260206004820152601260248201527f436f6e7472616374206973207061757365640000000000000000000000000000604482015290519081900360640190fd5b600f805460019081019182905560005260046020526000805160206120d08339815191525460ff1661127e576040805160e560020a62461bcd02815260206004820152601e60248201527f4d6f6465206f6620696e766573746d656e74206973206e6f7420504f4c590000604482015290519081900360640190fd5b600061128a3384611373565b600a549091506112b4903390600160a060020a03166112af868563ffffffff6114c816565b6119fb565b50600f5481146108b857600080fd5b60046020526000908152604090205460ff1681565b60095481565b600b5490565b600d54604080517f660d0d670000000000000000000000000000000000000000000000000000000081529051600092600160a060020a03169163660d0d67916004808301926020929190829003018186803b15801561134257600080fd5b505afa158015611356573d6000803e3d6000fd5b505050506040513d602081101561136c57600080fd5b5051905090565b600061137f8383611aa3565b600061138a83611bd9565b9250905061139e838363ffffffff6114c816565b600160005260046020526000805160206120d08339815191525490935060ff161561141f576113ee836005600060015b60ff1681526020810191909152604001600020549063ffffffff611d8f16565b600160005260056020527f1471eb6eb2c5e789fc3de43f8ce62938c7d1836ec861730447e2ada8fd81017b55611459565b61142d8360056000806113ce565b6000805260056020527f05b8ccbb9d4d8fb16ea74ce3c29a41f1b461fbdaff4714a0d9a8eb05499746bc555b600b5461146c908263ffffffff611d8f16565b600b556114798482611da8565b60408051848152602081018390528151600160a060020a0387169233927f623b3804fa71d67900d064613da8f94b9617215ee90799290593e1745087ad18929081900390910190a35092915050565b6000828211156114d757600080fd5b508082035b92915050565b600a54600160a060020a03166108fc611501348463ffffffff6114c816565b6040518115909202916000818181858888f19350505050158015611529573d6000803e3d6000fd5b50604051339082156108fc029083906000818181858888f193505050501580156108b8573d6000803e3d6000fd5b600d60009054906101000a9004600160a060020a0316600160a060020a0316638da5cb5b6040518163ffffffff1660e060020a02815260040160206040518083038186803b1580156115a857600080fd5b505afa1580156115bc573d6000803e3d6000fd5b505050506040513d60208110156115d257600080fd5b5051600160a060020a03163314610ce9576040805160e560020a62461bcd02815260206004820152601360248201527f53656e646572206973206e6f74206f776e657200000000000000000000000000604482015290519081900360640190fd5b6000815111801561164657506003815111155b61169a576040805160e560020a62461bcd02815260206004820152601b60248201527f52616973652074797065206973206e6f74207370656369666965640000000000604482015290519081900360640190fd5b60046020527f17ef568e3e12ab5b9c7254a8d58478811de00f9e6eb34345acd53bf8fd09d3ec805460ff199081169091556000805160206120d0833981519152805482169055600260009081527f91da3fd0782e51c6b3986e9e672fd566868e71f3dbc2d6c2cd6fbb3e361af2a780549092169091555b81518160ff16101561176f57600160046000848460ff168151811061173257fe5b6020026020010151600281111561174557fe5b60ff1681526020810191909152604001600020805460ff1916911515919091179055600101611711565b507fe5724f42dd9f217c97b3768212ed6d6692c0135e252387d61b98af28fecd9b02816040518080602001828103825283818151815260200191508051906020019060200280838360005b838110156117d25781810151838201526020016117ba565b505050509050019250505060405180910390a150565b600e5460a060020a900460ff16611849576040805160e560020a62461bcd02815260206004820152601660248201527f436f6e7472616374206973206e6f742070617573656400000000000000000000604482015290519081900360640190fd5b600e805474ff0000000000000000000000000000000000000000191690556040805133815290517faeb196d352664784d1900b0e7414a8face7d29f4dae8c4b0cf68ed477423bbf49181900360200190a1565b600080600d60009054906101000a9004600160a060020a0316600160a060020a0316638da5cb5b6040518163ffffffff1660e060020a02815260040160206040518083038186803b1580156118f057600080fd5b505afa158015611904573d6000803e3d6000fd5b505050506040513d602081101561191a57600080fd5b5051600c54600160a060020a03858116928116831493501614818061193c5750805b806119e25750600d54604080517f8658b8b9000000000000000000000000000000000000000000000000000000008152600160a060020a0387811660048301523060248301526044820189905291519190921691638658b8b9916064808301926020929190829003018186803b1580156119b557600080fd5b505afa1580156119c9573d6000803e3d6000fd5b505050506040513d60208110156119df57600080fd5b50515b95945050505050565b6119f3611557565b610ce9611e1b565b600e54604080517f23b872dd000000000000000000000000000000000000000000000000000000008152600160a060020a038681166004830152858116602483015260448201859052915191909216916323b872dd9160648083019260209291908290030181600087803b158015611a7257600080fd5b505af1158015611a86573d6000803e3d6000fd5b505050506040513d6020811015611a9c57600080fd5b5050505050565b600160a060020a038216611aeb5760405160e560020a62461bcd02815260040180806020018281038252602481526020018061213f6024913960400191505060405180910390fd5b80611b2a5760405160e560020a62461bcd0281526004018080602001828103825260288152602001806121896028913960400191505060405180910390fd5b611b3382611ed6565b611b87576040805160e560020a62461bcd02815260206004820152600c60248201527f556e617574686f72697a65640000000000000000000000000000000000000000604482015290519081900360640190fd5b6006544210158015611b9b57506007544211155b6108b85760405160e560020a62461bcd0281526004018080602001828103825260228152602001806120f06022913960400191505060405180910390fd5b600080611bf160015484611f8d90919063ffffffff16565b9150611c0b82670de0b6b3a764000063ffffffff611fb416565b9150600254611c2583600b54611d8f90919063ffffffff16565b1115611c4357600b54600254611c409163ffffffff6114c816565b91505b600d54604080517f556f0dc70000000000000000000000000000000000000000000000000000000081529051600092600160a060020a03169163556f0dc7916004808301926020929190829003018186803b158015611ca157600080fd5b505afa158015611cb5573d6000803e3d6000fd5b505050506040513d6020811015611ccb57600080fd5b50519050611cdf838263ffffffff611fb416565b9250611cf1838263ffffffff611f8d16565b925060008311611d4b576040805160e560020a62461bcd02815260206004820152600b60248201527f4361702072656163686564000000000000000000000000000000000000000000604482015290519081900360640190fd5b600154611d8790611d7a90611d6e86670de0b6b3a764000063ffffffff611f8d16565b9063ffffffff611fb416565b859063ffffffff6114c816565b915050915091565b600082820183811015611da157600080fd5b9392505050565b600160a060020a038216600090815260036020526040902054611dcf576009805460010190555b600160a060020a038216600090815260036020526040902054611df8908263ffffffff611d8f16565b600160a060020a0383166000908152600360205260409020556108b88282611fd6565b600e5460a060020a900460ff1615611e7d576040805160e560020a62461bcd02815260206004820152601260248201527f436f6e7472616374206973207061757365640000000000000000000000000000604482015290519081900360640190fd5b600e805474ff0000000000000000000000000000000000000000191660a060020a1790556040805133815290517f5ee71a369c8672edded508e624ffc9257fa1ae6886ef32905c18e60196bca3999181900360200190a1565b600080611ee16112e4565b9050600081600160a060020a03166333598b00611f1e7f494e564553544f52464c4147530000000000000000000000000000000000000087612064565b6040518263ffffffff1660e060020a0281526004018082815260200191505060206040518083038186803b158015611f5557600080fd5b505afa158015611f69573d6000803e3d6000fd5b505050506040513d6020811015611f7f57600080fd5b505160021615949350505050565b600082611f9c575060006114dc565b82820282848281611fa957fe5b0414611da157600080fd5b6000808211611fc257600080fd5b6000828481611fcd57fe5b04949350505050565b600d54604080517fbb3acde9000000000000000000000000000000000000000000000000000000008152600160a060020a0385811660048301526024820185905260606044830152600060648301819052925193169263bb3acde99260a48084019391929182900301818387803b15801561205057600080fd5b505af1158015610c6e573d6000803e3d6000fd5b60408051602080820194909452600160a060020a03929092166c010000000000000000000000000282820152805180830360340181526054909201905280519101209056fe4974206f6e6c792073656c656374732073696e676c652066756e642072616973652074797065abd6e7cb50984ff9c2f3e18a2660c3353dadf4e3291deeb275dae2cd1e44fe054f66666572696e6720697320636c6f7365642f4e6f7420796574207374617274656442656e6566696369617279206164647265737320646f6573206e6f74206d61746368206d73672e73656e64657242656e656669636961727920616464726573732073686f756c64206e6f7420626520307852617465206f6620746f6b656e2073686f756c642062652067726561746572207468616e2030416d6f756e7420696e7665737465642073686f756c64206e6f7420626520657175616c20746f2030a165627a7a72305820ed18a3d5226601f75f28c86ba6884ea33fa34f158c4c6f7bea6b379a44e9d16b0029",
  "source": "pragma solidity 0.5.8;\n\nimport \"../STO.sol\";\nimport \"openzeppelin-solidity/contracts/utils/ReentrancyGuard.sol\";\nimport \"openzeppelin-solidity/contracts/math/SafeMath.sol\";\nimport \"./CappedSTOStorage.sol\";\n\n/**\n * @title STO module for standard capped crowdsale\n */\ncontract CappedSTO is CappedSTOStorage, STO, ReentrancyGuard {\n    using SafeMath for uint256;\n\n    /**\n    * Event for token purchase logging\n    * @param purchaser who paid for the tokens\n    * @param beneficiary who got the tokens\n    * @param value weis paid for purchase\n    * @param amount amount of tokens purchased\n    */\n    event TokenPurchase(address indexed purchaser, address indexed beneficiary, uint256 value, uint256 amount);\n\n    event SetAllowBeneficialInvestments(bool _allowed);\n\n    constructor(address _securityToken, address _polyToken) public Module(_securityToken, _polyToken) {\n\n    }\n\n    //////////////////////////////////\n    /**\n    * @notice fallback function ***DO NOT OVERRIDE***\n    */\n    function() external payable {\n        buyTokens(msg.sender);\n    }\n\n    /**\n     * @notice Function used to intialize the contract variables\n     * @param _startTime Unix timestamp at which offering get started\n     * @param _endTime Unix timestamp at which offering get ended\n     * @param _cap Maximum No. of token base units for sale\n     * @param _rate Token units a buyer gets multiplied by 10^18 per wei / base unit of POLY\n     * @param _fundRaiseTypes Type of currency used to collect the funds\n     * @param _fundsReceiver Ethereum account address to hold the funds\n     */\n    function configure(\n        uint256 _startTime,\n        uint256 _endTime,\n        uint256 _cap,\n        uint256 _rate,\n        FundRaiseType[] memory _fundRaiseTypes,\n        address payable _fundsReceiver\n    )\n        public\n        onlyFactory\n    {\n        require(endTime == 0, \"Already configured\");\n        require(_rate > 0, \"Rate of token should be greater than 0\");\n        require(_fundsReceiver != address(0), \"Zero address is not permitted\");\n        /*solium-disable-next-line security/no-block-members*/\n        require(_startTime >= now && _endTime > _startTime, \"Date parameters are not valid\");\n        require(_cap > 0, \"Cap should be greater than 0\");\n        require(_fundRaiseTypes.length == 1, \"It only selects single fund raise type\");\n        startTime = _startTime;\n        endTime = _endTime;\n        cap = _cap;\n        rate = _rate;\n        wallet = _fundsReceiver;\n        _setFundRaiseType(_fundRaiseTypes);\n    }\n\n    /**\n     * @notice This function returns the signature of configure function\n     */\n    function getInitFunction() public pure returns(bytes4) {\n        return this.configure.selector;\n    }\n\n    /**\n     * @notice Function to set allowBeneficialInvestments (allow beneficiary to be different to funder)\n     * @param _allowBeneficialInvestments Boolean to allow or disallow beneficial investments\n     */\n    function changeAllowBeneficialInvestments(bool _allowBeneficialInvestments) public withPerm(OPERATOR) {\n        require(_allowBeneficialInvestments != allowBeneficialInvestments, \"Does not change value\");\n        allowBeneficialInvestments = _allowBeneficialInvestments;\n        emit SetAllowBeneficialInvestments(allowBeneficialInvestments);\n    }\n\n    /**\n      * @notice Low level token purchase ***DO NOT OVERRIDE***\n      * @param _beneficiary Address performing the token purchase\n      */\n    function buyTokens(address _beneficiary) public payable whenNotPaused nonReentrant {\n        if (!allowBeneficialInvestments) {\n            require(_beneficiary == msg.sender, \"Beneficiary address does not match msg.sender\");\n        }\n\n        require(fundRaiseTypes[uint8(FundRaiseType.ETH)], \"Mode of investment is not ETH\");\n\n        uint256 weiAmount = msg.value;\n        uint256 refund = _processTx(_beneficiary, weiAmount);\n        weiAmount = weiAmount.sub(refund);\n\n        _forwardFunds(refund);\n    }\n\n    /**\n      * @notice low level token purchase\n      * @param _investedPOLY Amount of POLY invested\n      */\n    function buyTokensWithPoly(uint256 _investedPOLY) public whenNotPaused nonReentrant {\n        require(fundRaiseTypes[uint8(FundRaiseType.POLY)], \"Mode of investment is not POLY\");\n        uint256 refund = _processTx(msg.sender, _investedPOLY);\n        _forwardPoly(msg.sender, wallet, _investedPOLY.sub(refund));\n    }\n\n    /**\n    * @notice Checks whether the cap has been reached.\n    * @return bool Whether the cap was reached\n    */\n    function capReached() public view returns(bool) {\n        return totalTokensSold >= cap;\n    }\n\n    /**\n     * @notice Return the total no. of tokens sold\n     */\n    function getTokensSold() external view returns (uint256) {\n        return totalTokensSold;\n    }\n\n    /**\n     * @notice Return the permissions flag that are associated with STO\n     */\n    function getPermissions() public view returns(bytes32[] memory) {\n        bytes32[] memory allPermissions = new bytes32[](1);\n        allPermissions[0] = OPERATOR;\n        return allPermissions;\n    }\n\n    /**\n     * @notice Return the STO details\n     * @return Unixtimestamp at which offering gets start.\n     * @return Unixtimestamp at which offering ends.\n     * @return Number of token base units this STO will be allowed to sell to investors.\n     * @return Token units a buyer gets(multiplied by 10^18) per wei / base unit of POLY\n     * @return Amount of funds raised\n     * @return Number of individual investors this STO have.\n     * @return Amount of tokens get sold.\n     * @return Boolean value to justify whether the fund raise type is POLY or not, i.e true for POLY.\n     */\n    function getSTODetails() public view returns(uint256, uint256, uint256, uint256, uint256, uint256, uint256, bool) {\n        return (startTime, endTime, cap, rate, (fundRaiseTypes[uint8(FundRaiseType.POLY)]) ? fundsRaised[uint8(\n            FundRaiseType.POLY\n        )] : fundsRaised[uint8(FundRaiseType.ETH)], investorCount, totalTokensSold, (fundRaiseTypes[uint8(FundRaiseType.POLY)]));\n    }\n\n    // -----------------------------------------\n    // Internal interface (extensible)\n    // -----------------------------------------\n    /**\n      * Processing the purchase as well as verify the required validations\n      * @param _beneficiary Address performing the token purchase\n      * @param _investedAmount Value in wei involved in the purchase\n    */\n    function _processTx(address _beneficiary, uint256 _investedAmount) internal returns(uint256 refund) {\n        _preValidatePurchase(_beneficiary, _investedAmount);\n        // calculate token amount to be created\n        uint256 tokens;\n        (tokens, refund) = _getTokenAmount(_investedAmount);\n        _investedAmount = _investedAmount.sub(refund);\n\n        // update state\n        if (fundRaiseTypes[uint8(FundRaiseType.POLY)]) {\n            fundsRaised[uint8(FundRaiseType.POLY)] = fundsRaised[uint8(FundRaiseType.POLY)].add(_investedAmount);\n        } else {\n            fundsRaised[uint8(FundRaiseType.ETH)] = fundsRaised[uint8(FundRaiseType.ETH)].add(_investedAmount);\n        }\n        totalTokensSold = totalTokensSold.add(tokens);\n\n        _processPurchase(_beneficiary, tokens);\n        emit TokenPurchase(msg.sender, _beneficiary, _investedAmount, tokens);\n\n    }\n\n    /**\n    * @notice Validation of an incoming purchase.\n      Use require statements to revert state when conditions are not met. Use super to concatenate validations.\n    * @param _beneficiary Address performing the token purchase\n    * @param _investedAmount Value in wei involved in the purchase\n    */\n    function _preValidatePurchase(address _beneficiary, uint256 _investedAmount) internal view {\n        require(_beneficiary != address(0), \"Beneficiary address should not be 0x\");\n        require(_investedAmount != 0, \"Amount invested should not be equal to 0\");\n        require(_canBuy(_beneficiary), \"Unauthorized\");\n        /*solium-disable-next-line security/no-block-members*/\n        require(now >= startTime && now <= endTime, \"Offering is closed/Not yet started\");\n    }\n\n    /**\n    * @notice Source of tokens.\n      Override this method to modify the way in which the crowdsale ultimately gets and sends its tokens.\n    * @param _beneficiary Address performing the token purchase\n    * @param _tokenAmount Number of tokens to be emitted\n    */\n    function _deliverTokens(address _beneficiary, uint256 _tokenAmount) internal {\n        securityToken.issue(_beneficiary, _tokenAmount, \"\");\n    }\n\n    /**\n    * @notice Executed when a purchase has been validated and is ready to be executed. Not necessarily emits/sends tokens.\n    * @param _beneficiary Address receiving the tokens\n    * @param _tokenAmount Number of tokens to be purchased\n    */\n    function _processPurchase(address _beneficiary, uint256 _tokenAmount) internal {\n        if (investors[_beneficiary] == 0) {\n            investorCount = investorCount + 1;\n        }\n        investors[_beneficiary] = investors[_beneficiary].add(_tokenAmount);\n\n        _deliverTokens(_beneficiary, _tokenAmount);\n    }\n\n    /**\n    * @notice Overrides to extend the way in which ether is converted to tokens.\n    * @param _investedAmount Value in wei to be converted into tokens\n    * @return Number of tokens that can be purchased with the specified _investedAmount\n    * @return Remaining amount that should be refunded to the investor\n    */\n    function _getTokenAmount(uint256 _investedAmount) internal view returns(uint256 tokens, uint256 refund) {\n        tokens = _investedAmount.mul(rate);\n        tokens = tokens.div(uint256(10) ** 18);\n        if (totalTokensSold.add(tokens) > cap) {\n            tokens = cap.sub(totalTokensSold);\n        }\n        uint256 granularity = securityToken.granularity();\n        tokens = tokens.div(granularity);\n        tokens = tokens.mul(granularity);\n        require(tokens > 0, \"Cap reached\");\n        refund = _investedAmount.sub((tokens.mul(uint256(10) ** 18)).div(rate));\n    }\n\n    /**\n    * @notice Determines how ETH is stored/forwarded on purchases.\n    */\n    function _forwardFunds(uint256 _refund) internal {\n        wallet.transfer(msg.value.sub(_refund));\n        msg.sender.transfer(_refund);\n    }\n\n    /**\n     * @notice Internal function used to forward the POLY raised to beneficiary address\n     * @param _beneficiary Address of the funds reciever\n     * @param _to Address who wants to ST-20 tokens\n     * @param _fundsAmount Amount invested by _to\n     */\n    function _forwardPoly(address _beneficiary, address _to, uint256 _fundsAmount) internal {\n        polyToken.transferFrom(_beneficiary, _to, _fundsAmount);\n    }\n\n}\n",
  "sourcePath": "/Users/federicoelgarte/Polymath/polymath-core/contracts/modules/STO/Capped/CappedSTO.sol",
  "compiler": {
    "name": "solc",
    "version": "0.5.8+commit.23d335f2.Emscripten.clang"
  },
  "schemaVersion": "3.0.2",
  "updatedAt": "2019-07-19T14:56:31.230Z",
  "devdoc": {
    "methods": {
      "buyTokens(address)": {
        "params": {
          "_beneficiary": "Address performing the token purchase"
        }
      },
      "buyTokensWithPoly(uint256)": {
        "params": {
          "_investedPOLY": "Amount of POLY invested"
        }
      },
      "capReached()": {
        "return": "bool Whether the cap was reached"
      },
      "changeAllowBeneficialInvestments(bool)": {
        "params": {
          "_allowBeneficialInvestments": "Boolean to allow or disallow beneficial investments"
        }
      },
      "configure(uint256,uint256,uint256,uint256,uint8[],address)": {
        "params": {
          "_cap": "Maximum No. of token base units for sale",
          "_endTime": "Unix timestamp at which offering get ended",
          "_fundRaiseTypes": "Type of currency used to collect the funds",
          "_fundsReceiver": "Ethereum account address to hold the funds",
          "_rate": "Token units a buyer gets multiplied by 10^18 per wei / base unit of POLY",
          "_startTime": "Unix timestamp at which offering get started"
        }
      },
      "getSTODetails()": {
        "return": "Unixtimestamp at which offering gets start.Unixtimestamp at which offering ends.Number of token base units this STO will be allowed to sell to investors.Token units a buyer gets(multiplied by 10^18) per wei / base unit of POLYAmount of funds raisedNumber of individual investors this STO have.Amount of tokens get sold.Boolean value to justify whether the fund raise type is POLY or not, i.e true for POLY."
      },
      "pause()": {
        "details": "Only securityToken owner restriction applied on the super function"
      },
      "reclaimERC20(address)": {
        "details": "We duplicate here due to the overriden owner & onlyOwner",
        "params": {
          "_tokenContract": "The address of the token contract"
        }
      },
      "reclaimETH()": {
        "details": "We duplicate here due to the overriden owner & onlyOwner"
      }
    },
    "title": "STO module for standard capped crowdsale"
  },
  "userdoc": {
    "methods": {
      "buyTokens(address)": {
        "notice": "Low level token purchase ***DO NOT OVERRIDE***"
      },
      "buyTokensWithPoly(uint256)": {
        "notice": "low level token purchase"
      },
      "capReached()": {
        "notice": "Checks whether the cap has been reached."
      },
      "changeAllowBeneficialInvestments(bool)": {
        "notice": "Function to set allowBeneficialInvestments (allow beneficiary to be different to funder)"
      },
      "configure(uint256,uint256,uint256,uint256,uint8[],address)": {
        "notice": "Function used to intialize the contract variables"
      },
      "getDataStore()": {
        "notice": "used to return the data store address of securityToken"
      },
      "getInitFunction()": {
        "notice": "This function returns the signature of configure function"
      },
      "getPermissions()": {
        "notice": "Return the permissions flag that are associated with STO"
      },
      "getRaised(uint8)": {
        "notice": "Returns funds raised by the STO"
      },
      "getSTODetails()": {
        "notice": "Return the STO details"
      },
      "getTokensSold()": {
        "notice": "Return the total no. of tokens sold"
      },
      "pause()": {
        "notice": "Pause (overridden function)"
      },
      "reclaimERC20(address)": {
        "notice": "Reclaims ERC20Basic compatible tokens"
      },
      "reclaimETH()": {
        "notice": "Reclaims ETH"
      },
      "unpause()": {
        "notice": "Unpause (overridden function)"
      }
    }
  }
}