{
  "contractName": "CountTransferManager",
  "abi": [
    {
      "constant": false,
      "inputs": [],
      "name": "reclaimETH",
      "outputs": [],
      "payable": false,
      "stateMutability": "nonpayable",
      "type": "function",
      "signature": "0x0f144a48"
    },
    {
      "constant": true,
      "inputs": [
        {
          "name": "_partition",
          "type": "bytes32"
        },
        {
          "name": "_tokenHolder",
          "type": "address"
        },
        {
          "name": "",
          "type": "uint256"
        }
      ],
      "name": "getTokensByPartition",
      "outputs": [
        {
          "name": "",
          "type": "uint256"
        }
      ],
      "payable": false,
      "stateMutability": "view",
      "type": "function",
      "signature": "0x2829e651"
    },
    {
      "constant": true,
      "inputs": [],
      "name": "ADMIN",
      "outputs": [
        {
          "name": "",
          "type": "bytes32"
        }
      ],
      "payable": false,
      "stateMutability": "view",
      "type": "function",
      "signature": "0x2a0acc6a"
    },
    {
      "constant": false,
      "inputs": [],
      "name": "unpause",
      "outputs": [],
      "payable": false,
      "stateMutability": "nonpayable",
      "type": "function",
      "signature": "0x3f4ba83a"
    },
    {
      "constant": true,
      "inputs": [],
      "name": "paused",
      "outputs": [
        {
          "name": "",
          "type": "bool"
        }
      ],
      "payable": false,
      "stateMutability": "view",
      "type": "function",
      "signature": "0x5c975abb"
    },
    {
      "constant": true,
      "inputs": [],
      "name": "UNLOCKED",
      "outputs": [
        {
          "name": "",
          "type": "bytes32"
        }
      ],
      "payable": false,
      "stateMutability": "view",
      "type": "function",
      "signature": "0x6c2f0d53"
    },
    {
      "constant": true,
      "inputs": [],
      "name": "polyToken",
      "outputs": [
        {
          "name": "",
          "type": "address"
        }
      ],
      "payable": false,
      "stateMutability": "view",
      "type": "function",
      "signature": "0x6faa22a5"
    },
    {
      "constant": false,
      "inputs": [],
      "name": "pause",
      "outputs": [],
      "payable": false,
      "stateMutability": "nonpayable",
      "type": "function",
      "signature": "0x8456cb59"
    },
    {
      "constant": false,
      "inputs": [
        {
          "name": "_tokenContract",
          "type": "address"
        }
      ],
      "name": "reclaimERC20",
      "outputs": [],
      "payable": false,
      "stateMutability": "nonpayable",
      "type": "function",
      "signature": "0x8905fd4f"
    },
    {
      "constant": true,
      "inputs": [],
      "name": "OPERATOR",
      "outputs": [
        {
          "name": "",
          "type": "bytes32"
        }
      ],
      "payable": false,
      "stateMutability": "view",
      "type": "function",
      "signature": "0x983d2737"
    },
    {
      "constant": true,
      "inputs": [],
      "name": "LOCKED",
      "outputs": [
        {
          "name": "",
          "type": "bytes32"
        }
      ],
      "payable": false,
      "stateMutability": "view",
      "type": "function",
      "signature": "0xa1422f69"
    },
    {
      "constant": true,
      "inputs": [],
      "name": "maxHolderCount",
      "outputs": [
        {
          "name": "",
          "type": "uint256"
        }
      ],
      "payable": false,
      "stateMutability": "view",
      "type": "function",
      "signature": "0xae89a29e"
    },
    {
      "constant": true,
      "inputs": [],
      "name": "securityToken",
      "outputs": [
        {
          "name": "",
          "type": "address"
        }
      ],
      "payable": false,
      "stateMutability": "view",
      "type": "function",
      "signature": "0xb84dfbd2"
    },
    {
      "constant": true,
      "inputs": [],
      "name": "factory",
      "outputs": [
        {
          "name": "",
          "type": "address"
        }
      ],
      "payable": false,
      "stateMutability": "view",
      "type": "function",
      "signature": "0xc45a0155"
    },
    {
      "constant": true,
      "inputs": [],
      "name": "getDataStore",
      "outputs": [
        {
          "name": "",
          "type": "address"
        }
      ],
      "payable": false,
      "stateMutability": "view",
      "type": "function",
      "signature": "0xfe58265e"
    },
    {
      "inputs": [
        {
          "name": "_securityToken",
          "type": "address"
        },
        {
          "name": "_polyToken",
          "type": "address"
        }
      ],
      "payable": false,
      "stateMutability": "nonpayable",
      "type": "constructor",
      "signature": "constructor"
    },
    {
      "anonymous": false,
      "inputs": [
        {
          "indexed": false,
          "name": "_oldHolderCount",
          "type": "uint256"
        },
        {
          "indexed": false,
          "name": "_newHolderCount",
          "type": "uint256"
        }
      ],
      "name": "ModifyHolderCount",
      "type": "event",
      "signature": "0x99457ea455e79a3ce66ecbb56191a2ec1f39507fdb6ec11d0497aaa9668c2624"
    },
    {
      "anonymous": false,
      "inputs": [
        {
          "indexed": false,
          "name": "account",
          "type": "address"
        }
      ],
      "name": "Pause",
      "type": "event",
      "signature": "0x5ee71a369c8672edded508e624ffc9257fa1ae6886ef32905c18e60196bca399"
    },
    {
      "anonymous": false,
      "inputs": [
        {
          "indexed": false,
          "name": "account",
          "type": "address"
        }
      ],
      "name": "Unpause",
      "type": "event",
      "signature": "0xaeb196d352664784d1900b0e7414a8face7d29f4dae8c4b0cf68ed477423bbf4"
    },
    {
      "constant": false,
      "inputs": [
        {
          "name": "_from",
          "type": "address"
        },
        {
          "name": "_to",
          "type": "address"
        },
        {
          "name": "_amount",
          "type": "uint256"
        },
        {
          "name": "",
          "type": "bytes"
        }
      ],
      "name": "executeTransfer",
      "outputs": [
        {
          "name": "",
          "type": "uint8"
        }
      ],
      "payable": false,
      "stateMutability": "nonpayable",
      "type": "function",
      "signature": "0x3d321731"
    },
    {
      "constant": true,
      "inputs": [
        {
          "name": "_from",
          "type": "address"
        },
        {
          "name": "_to",
          "type": "address"
        },
        {
          "name": "_amount",
          "type": "uint256"
        },
        {
          "name": "",
          "type": "bytes"
        }
      ],
      "name": "verifyTransfer",
      "outputs": [
        {
          "name": "",
          "type": "uint8"
        },
        {
          "name": "",
          "type": "bytes32"
        }
      ],
      "payable": false,
      "stateMutability": "view",
      "type": "function",
      "signature": "0xf1d74b0f"
    },
    {
      "constant": false,
      "inputs": [
        {
          "name": "_maxHolderCount",
          "type": "uint256"
        }
      ],
      "name": "configure",
      "outputs": [],
      "payable": false,
      "stateMutability": "nonpayable",
      "type": "function",
      "signature": "0x1eb25e0a"
    },
    {
      "constant": false,
      "inputs": [
        {
          "name": "_maxHolderCount",
          "type": "uint256"
        }
      ],
      "name": "changeHolderCount",
      "outputs": [],
      "payable": false,
      "stateMutability": "nonpayable",
      "type": "function",
      "signature": "0xec8cae23"
    },
    {
      "constant": true,
      "inputs": [],
      "name": "getInitFunction",
      "outputs": [
        {
          "name": "",
          "type": "bytes4"
        }
      ],
      "payable": false,
      "stateMutability": "pure",
      "type": "function",
      "signature": "0x1613ec9d"
    },
    {
      "constant": true,
      "inputs": [],
      "name": "getPermissions",
      "outputs": [
        {
          "name": "",
          "type": "bytes32[]"
        }
      ],
      "payable": false,
      "stateMutability": "view",
      "type": "function",
      "signature": "0xc3a07df6"
    }
  ],
  "bytecode": "0x60806040526003805460a060020a60ff021916905534801561002057600080fd5b506040516040806112ed8339810180604052604081101561004057600080fd5b50805160209091015160028054600160a060020a03938416600160a060020a031991821617909155600180548216331790556003805493909216921691909117905561125c806100916000396000f3fe608060405234801561001057600080fd5b506004361061013b5760003560e060020a900480638456cb59116100bc578063b84dfbd211610080578063b84dfbd21461033a578063c3a07df614610342578063c45a01551461039a578063ec8cae23146103a2578063f1d74b0f146103bf578063fe58265e146104b05761013b565b80638456cb59146102f45780638905fd4f146102fc578063983d273714610322578063a1422f691461032a578063ae89a29e146103325761013b565b80633d321731116101035780633d321731146101f05780633f4ba83a146102a45780635c975abb146102ac5780636c2f0d53146102c85780636faa22a5146102d05761013b565b80630f144a48146101405780631613ec9d1461014a5780631eb25e0a146101875780632829e651146101a45780632a0acc6a146101e8575b600080fd5b6101486104b8565b005b6101526104f0565b604080517fffffffff000000000000000000000000000000000000000000000000000000009092168252519081900360200190f35b6101486004803603602081101561019d57600080fd5b5035610514565b6101d6600480360360608110156101ba57600080fd5b50803590600160a060020a03602082013516906040013561057b565b60408051918252519081900360200190f35b6101d6610633565b6102806004803603608081101561020657600080fd5b600160a060020a0382358116926020810135909116916040820135919081019060808101606082013564010000000081111561024157600080fd5b82018360208201111561025357600080fd5b8035906020019184600183028401116401000000008311171561027557600080fd5b509092509050610657565b6040518082600381111561029057fe5b60ff16815260200191505060405180910390f35b6101486106ee565b6102b4610700565b604080519115158252519081900360200190f35b6101d6610710565b6102d8610734565b60408051600160a060020a039092168252519081900360200190f35b610148610743565b6101486004803603602081101561031257600080fd5b5035600160a060020a0316610753565b6101d6610924565b6101d6610948565b6101d661096c565b6102d8610972565b61034a610981565b60408051602080825283518183015283519192839290830191858101910280838360005b8381101561038657818101518382015260200161036e565b505050509050019250505060405180910390f35b6102d86109e4565b610148600480360360208110156103b857600080fd5b50356109f3565b610485600480360360808110156103d557600080fd5b600160a060020a0382358116926020810135909116916040820135919081019060808101606082013564010000000081111561041057600080fd5b82018360208201111561042257600080fd5b8035906020019184600183028401116401000000008311171561044457600080fd5b91908080601f016020809104026020016040519081016040528093929190818152602001838380828437600092019190915250929550610ab5945050505050565b6040518083600381111561049557fe5b60ff1681526020018281526020019250505060405180910390f35b6102d8610c9c565b6104c0610d2b565b6040513390303180156108fc02916000818181858888f193505050501580156104ed573d6000803e3d6000fd5b50565b7f1eb25e0a0000000000000000000000000000000000000000000000000000000090565b600154600160a060020a03163314610576576040805160e560020a62461bcd02815260206004820152601560248201527f53656e646572206973206e6f7420666163746f72790000000000000000000000604482015290519081900360640190fd5b600055565b60007f554e4c4f434b4544000000000000000000000000000000000000000000000000841415610628576002546040805160e060020a6370a08231028152600160a060020a038681166004830152915191909216916370a08231916024808301926020929190829003018186803b1580156105f557600080fd5b505afa158015610609573d6000803e3d6000fd5b505050506040513d602081101561061f57600080fd5b5051905061062c565b5060005b9392505050565b7f41444d494e00000000000000000000000000000000000000000000000000000081565b6000806106e2878787600260009054906101000a9004600160a060020a0316600160a060020a0316631aab9a9f6040518163ffffffff1660e060020a02815260040160206040518083038186803b1580156106b157600080fd5b505afa1580156106c5573d6000803e3d6000fd5b505050506040513d60208110156106db57600080fd5b5051610e07565b50979650505050505050565b6106f6610d2b565b6106fe610f72565b565b60035460a060020a900460ff1681565b7f554e4c4f434b454400000000000000000000000000000000000000000000000081565b600354600160a060020a031681565b61074b610d2b565b6106fe611026565b61075b610d2b565b600160a060020a0381166107b9576040805160e560020a62461bcd02815260206004820152600f60248201527f496e76616c696420616464726573730000000000000000000000000000000000604482015290519081900360640190fd5b6040805160e060020a6370a0823102815230600482015290518291600091600160a060020a038416916370a08231916024808301926020929190829003018186803b15801561080757600080fd5b505afa15801561081b573d6000803e3d6000fd5b505050506040513d602081101561083157600080fd5b5051604080517fa9059cbb000000000000000000000000000000000000000000000000000000008152336004820152602481018390529051919250600160a060020a0384169163a9059cbb916044808201926020929091908290030181600087803b15801561089f57600080fd5b505af11580156108b3573d6000803e3d6000fd5b505050506040513d60208110156108c957600080fd5b505161091f576040805160e560020a62461bcd02815260206004820152600f60248201527f5472616e73666572206661696c65640000000000000000000000000000000000604482015290519081900360640190fd5b505050565b7f4f50455241544f5200000000000000000000000000000000000000000000000081565b7f4c4f434b4544000000000000000000000000000000000000000000000000000081565b60005481565b600254600160a060020a031681565b604080516001808252818301909252606091829190602080830190803883390190505090507f41444d494e000000000000000000000000000000000000000000000000000000816000815181106109d457fe5b6020908102919091010152905090565b600154600160a060020a031681565b7f41444d494e000000000000000000000000000000000000000000000000000000610a1e81336110e1565b610a72576040805160e560020a62461bcd02815260206004820152601260248201527f496e76616c6964207065726d697373696f6e0000000000000000000000000000604482015290519081900360640190fd5b600054604080519182526020820184905280517f99457ea455e79a3ce66ecbb56191a2ec1f39507fdb6ec11d0497aaa9668c26249281900390910190a150600055565b6000806000600260009054906101000a9004600160a060020a0316600160a060020a0316631aab9a9f6040518163ffffffff1660e060020a02815260040160206040518083038186803b158015610b0b57600080fd5b505afa158015610b1f573d6000803e3d6000fd5b505050506040513d6020811015610b3557600080fd5b505190508415801590610b5a575085600160a060020a031687600160a060020a031614155b15610c8157600160a060020a03861615801590610bf057506002546040805160e060020a6370a08231028152600160a060020a038981166004830152915191909216916370a08231916024808301926020929190829003018186803b158015610bc257600080fd5b505afa158015610bd6573d6000803e3d6000fd5b505050506040513d6020811015610bec57600080fd5b5051155b15610bf9576001015b6002546040805160e060020a6370a08231028152600160a060020a038a81166004830152915191909216916370a08231916024808301926020929190829003018186803b158015610c4957600080fd5b505afa158015610c5d573d6000803e3d6000fd5b505050506040513d6020811015610c7357600080fd5b5051851415610c8157600019015b610c8d87878784610e07565b92509250505b94509492505050565b600254604080517f660d0d670000000000000000000000000000000000000000000000000000000081529051600092600160a060020a03169163660d0d67916004808301926020929190829003018186803b158015610cfa57600080fd5b505afa158015610d0e573d6000803e3d6000fd5b505050506040513d6020811015610d2457600080fd5b5051905090565b600260009054906101000a9004600160a060020a0316600160a060020a0316638da5cb5b6040518163ffffffff1660e060020a02815260040160206040518083038186803b158015610d7c57600080fd5b505afa158015610d90573d6000803e3d6000fd5b505050506040513d6020811015610da657600080fd5b5051600160a060020a031633146106fe576040805160e560020a62461bcd02815260206004820152601360248201527f53656e646572206973206e6f74206f776e657200000000000000000000000000604482015290519081900360640190fd5b600354600090819060a060020a900460ff16610f6357826000541015610f57576002546040805160e060020a6370a08231028152600160a060020a038881166004830152915191909216916370a08231916024808301926020929190829003018186803b158015610e7757600080fd5b505afa158015610e8b573d6000803e3d6000fd5b505050506040513d6020811015610ea157600080fd5b5051151580610f2c57506002546040805160e060020a6370a08231028152600160a060020a0389811660048301529151879392909216916370a0823191602480820192602092909190829003018186803b158015610efe57600080fd5b505afa158015610f12573d6000803e3d6000fd5b505050506040513d6020811015610f2857600080fd5b5051145b15610f3d5750600190506000610c93565b50600090506c010000000000000000000000003002610c93565b50600190506000610c93565b50600195600095509350505050565b60035460a060020a900460ff16610fd3576040805160e560020a62461bcd02815260206004820152601660248201527f436f6e7472616374206973206e6f742070617573656400000000000000000000604482015290519081900360640190fd5b6003805474ff0000000000000000000000000000000000000000191690556040805133815290517faeb196d352664784d1900b0e7414a8face7d29f4dae8c4b0cf68ed477423bbf49181900360200190a1565b60035460a060020a900460ff1615611088576040805160e560020a62461bcd02815260206004820152601260248201527f436f6e7472616374206973207061757365640000000000000000000000000000604482015290519081900360640190fd5b6003805474ff0000000000000000000000000000000000000000191660a060020a1790556040805133815290517f5ee71a369c8672edded508e624ffc9257fa1ae6886ef32905c18e60196bca3999181900360200190a1565b600080600260009054906101000a9004600160a060020a0316600160a060020a0316638da5cb5b6040518163ffffffff1660e060020a02815260040160206040518083038186803b15801561113557600080fd5b505afa158015611149573d6000803e3d6000fd5b505050506040513d602081101561115f57600080fd5b5051600154600160a060020a0385811692811683149350161481806111815750805b806112275750600254604080517f8658b8b9000000000000000000000000000000000000000000000000000000008152600160a060020a0387811660048301523060248301526044820189905291519190921691638658b8b9916064808301926020929190829003018186803b1580156111fa57600080fd5b505afa15801561120e573d6000803e3d6000fd5b505050506040513d602081101561122457600080fd5b50515b9594505050505056fea165627a7a7230582094a9002075748e19355cda2e9f3ed0f38580d82dd01180ba951c64ceb771dd0e0029",
  "source": "pragma solidity 0.5.8;\n\nimport \"../TransferManager.sol\";\nimport \"./CountTransferManagerStorage.sol\";\nimport \"../../../interfaces/ISecurityToken.sol\";\n\n/**\n * @title Transfer Manager for limiting maximum number of token holders\n */\ncontract CountTransferManager is CountTransferManagerStorage, TransferManager {\n\n    event ModifyHolderCount(uint256 _oldHolderCount, uint256 _newHolderCount);\n\n    /**\n     * @notice Constructor\n     * @param _securityToken Address of the security token\n     */\n    constructor(address _securityToken, address _polyToken) public Module(_securityToken, _polyToken) {\n\n    }\n\n    /** @notice Used to verify the transfer transaction and prevent a transfer if it passes the allowed amount of token holders\n     * @param _from Address of the sender\n     * @param _to Address of the receiver\n     * @param _amount Amount to send\n     */\n    function executeTransfer(\n        address _from,\n        address _to,\n        uint256 _amount,\n        bytes calldata /*_data*/\n    )\n        external\n        returns(Result)\n    {\n        (Result success, ) = _verifyTransfer(_from, _to, _amount, securityToken.holderCount());\n        return success;\n    }\n\n    /**\n     * @notice Used to verify the transfer transaction and prevent a transfer if it passes the allowed amount of token holders\n     * @dev module.verifyTransfer is called by SecToken.canTransfer and does not receive the updated holderCount therefore\n     *      verifyTransfer has to manually account for pot. tokenholder changes (by mimicking TokenLib.adjustInvestorCount).\n     *      module.executeTransfer is called by SecToken.transfer|issue|others and receives an updated holderCount \n     *      as sectoken calls TokenLib.adjustInvestorCount before executeTransfer.\n     * @param _from Address of the sender\n     * @param _to Address of the receiver\n     * @param _amount Amount to send\n     */\n    function verifyTransfer(\n        address _from,\n        address _to,\n        uint256 _amount,\n        bytes memory /* _data */\n    )\n        public\n        view\n        returns(Result, bytes32)\n    {\n        uint256 holderCount = securityToken.holderCount();\n        if (_amount != 0 && _from != _to) {\n            // Check whether receiver is a new token holder\n            if (_to != address(0) && securityToken.balanceOf(_to) == 0) {\n                holderCount++;\n            }\n            // Check whether sender is moving all of their tokens\n            if (_amount == securityToken.balanceOf(_from)) {\n                holderCount--;\n            }\n        }\n\n        return _verifyTransfer(_from, _to, _amount, holderCount);\n    }\n\n    function _verifyTransfer(\n        address _from,\n        address _to,\n        uint256 _amount,\n        uint256 _holderCount\n    )\n        internal\n        view\n        returns(Result, bytes32)\n    {\n        if (!paused) {\n            if (maxHolderCount < _holderCount) {\n                // Allow transfers to existing maxHolders\n                if (securityToken.balanceOf(_to) != 0 || securityToken.balanceOf(_from) == _amount) {\n                    return (Result.NA, bytes32(0));\n                }\n                return (Result.INVALID, bytes32(uint256(address(this)) << 96));\n            }\n            return (Result.NA, bytes32(0));\n        }\n        return (Result.NA, bytes32(0));\n    }\n\n\n    /**\n     * @notice Used to initialize the variables of the contract\n     * @param _maxHolderCount Maximum no. of holders this module allows the SecurityToken to have\n     */\n    function configure(uint256 _maxHolderCount) public onlyFactory {\n        maxHolderCount = _maxHolderCount;\n    }\n\n    /**\n    * @notice Sets the cap for the amount of token holders there can be\n    * @param _maxHolderCount is the new maximum amount of token holders\n    */\n    function changeHolderCount(uint256 _maxHolderCount) public withPerm(ADMIN) {\n        emit ModifyHolderCount(maxHolderCount, _maxHolderCount);\n        maxHolderCount = _maxHolderCount;\n    }\n\n    /**\n     * @notice This function returns the signature of configure function\n     */\n    function getInitFunction() public pure returns(bytes4) {\n        return this.configure.selector;\n    }\n\n    /**\n     * @notice Returns the permissions flag that are associated with CountTransferManager\n     */\n    function getPermissions() public view returns(bytes32[] memory) {\n        bytes32[] memory allPermissions = new bytes32[](1);\n        allPermissions[0] = ADMIN;\n        return allPermissions;\n    }\n\n}\n",
  "sourcePath": "/Users/federicoelgarte/Polymath/polymath-core/contracts/modules/TransferManager/CTM/CountTransferManager.sol",
  "compiler": {
    "name": "solc",
    "version": "0.5.8+commit.23d335f2.Emscripten.clang"
  },
  "schemaVersion": "3.0.2",
  "updatedAt": "2019-07-19T14:56:31.192Z",
  "devdoc": {
    "methods": {
      "changeHolderCount(uint256)": {
        "params": {
          "_maxHolderCount": "is the new maximum amount of token holders"
        }
      },
      "configure(uint256)": {
        "params": {
          "_maxHolderCount": "Maximum no. of holders this module allows the SecurityToken to have"
        }
      },
      "constructor": {
        "params": {
          "_securityToken": "Address of the security token"
        }
      },
      "executeTransfer(address,address,uint256,bytes)": {
        "params": {
          "_amount": "Amount to send",
          "_from": "Address of the sender",
          "_to": "Address of the receiver"
        }
      },
      "getTokensByPartition(bytes32,address,uint256)": {
        "details": "returning the balance of token holder against the UNLOCKED partition.  This condition is valid only when the base contract doesn't implement the `getTokensByPartition()` function.  "
      },
      "reclaimERC20(address)": {
        "details": "We duplicate here due to the overriden owner & onlyOwner",
        "params": {
          "_tokenContract": "The address of the token contract"
        }
      },
      "reclaimETH()": {
        "details": "We duplicate here due to the overriden owner & onlyOwner"
      },
      "verifyTransfer(address,address,uint256,bytes)": {
        "details": "module.verifyTransfer is called by SecToken.canTransfer and does not receive the updated holderCount therefore     verifyTransfer has to manually account for pot. tokenholder changes (by mimicking TokenLib.adjustInvestorCount).     module.executeTransfer is called by SecToken.transfer|issue|others and receives an updated holderCount      as sectoken calls TokenLib.adjustInvestorCount before executeTransfer.",
        "params": {
          "_amount": "Amount to send",
          "_from": "Address of the sender",
          "_to": "Address of the receiver"
        }
      }
    },
    "title": "Transfer Manager for limiting maximum number of token holders"
  },
  "userdoc": {
    "methods": {
      "changeHolderCount(uint256)": {
        "notice": "Sets the cap for the amount of token holders there can be"
      },
      "configure(uint256)": {
        "notice": "Used to initialize the variables of the contract"
      },
      "constructor": "Constructor",
      "executeTransfer(address,address,uint256,bytes)": {
        "notice": "Used to verify the transfer transaction and prevent a transfer if it passes the allowed amount of token holders"
      },
      "getDataStore()": {
        "notice": "used to return the data store address of securityToken"
      },
      "getInitFunction()": {
        "notice": "This function returns the signature of configure function"
      },
      "getPermissions()": {
        "notice": "Returns the permissions flag that are associated with CountTransferManager"
      },
      "getTokensByPartition(bytes32,address,uint256)": {
        "notice": "return the amount of tokens for a given user as per the partition"
      },
      "pause()": {
        "notice": "Pause (overridden function)"
      },
      "reclaimERC20(address)": {
        "notice": "Reclaims ERC20Basic compatible tokens"
      },
      "reclaimETH()": {
        "notice": "Reclaims ETH"
      },
      "unpause()": {
        "notice": "Unpause (overridden function)"
      },
      "verifyTransfer(address,address,uint256,bytes)": {
        "notice": "Used to verify the transfer transaction and prevent a transfer if it passes the allowed amount of token holders"
      }
    }
  }
}