{
  "contractName": "ERC20DividendCheckpoint",
  "abi": [
    {
      "constant": false,
      "inputs": [
        {
          "name": "_investors",
          "type": "address[]"
        },
        {
          "name": "_withholding",
          "type": "uint256"
        }
      ],
      "name": "setWithholdingFixed",
      "outputs": [],
      "payable": false,
      "stateMutability": "nonpayable",
      "type": "function"
    },
    {
      "constant": true,
      "inputs": [],
      "name": "EXCLUDED_ADDRESS_LIMIT",
      "outputs": [
        {
          "name": "",
          "type": "uint256"
        }
      ],
      "payable": false,
      "stateMutability": "view",
      "type": "function"
    },
    {
      "constant": false,
      "inputs": [],
      "name": "reclaimETH",
      "outputs": [],
      "payable": false,
      "stateMutability": "nonpayable",
      "type": "function"
    },
    {
      "constant": true,
      "inputs": [],
      "name": "getInitFunction",
      "outputs": [
        {
          "name": "",
          "type": "bytes4"
        }
      ],
      "payable": false,
      "stateMutability": "pure",
      "type": "function"
    },
    {
      "constant": true,
      "inputs": [
        {
          "name": "_dividendIndex",
          "type": "uint256"
        }
      ],
      "name": "getDividendData",
      "outputs": [
        {
          "name": "created",
          "type": "uint256"
        },
        {
          "name": "maturity",
          "type": "uint256"
        },
        {
          "name": "expiry",
          "type": "uint256"
        },
        {
          "name": "amount",
          "type": "uint256"
        },
        {
          "name": "claimedAmount",
          "type": "uint256"
        },
        {
          "name": "name",
          "type": "bytes32"
        }
      ],
      "payable": false,
      "stateMutability": "view",
      "type": "function"
    },
    {
      "constant": true,
      "inputs": [],
      "name": "ADMIN",
      "outputs": [
        {
          "name": "",
          "type": "bytes32"
        }
      ],
      "payable": false,
      "stateMutability": "view",
      "type": "function"
    },
    {
      "constant": true,
      "inputs": [],
      "name": "getTreasuryWallet",
      "outputs": [
        {
          "name": "",
          "type": "address"
        }
      ],
      "payable": false,
      "stateMutability": "view",
      "type": "function"
    },
    {
      "constant": false,
      "inputs": [
        {
          "name": "_dividendIndex",
          "type": "uint256"
        }
      ],
      "name": "pullDividendPayment",
      "outputs": [],
      "payable": false,
      "stateMutability": "nonpayable",
      "type": "function"
    },
    {
      "constant": true,
      "inputs": [
        {
          "name": "",
          "type": "address"
        }
      ],
      "name": "investorWithheld",
      "outputs": [
        {
          "name": "",
          "type": "uint256"
        }
      ],
      "payable": false,
      "stateMutability": "view",
      "type": "function"
    },
    {
      "constant": false,
      "inputs": [],
      "name": "unpause",
      "outputs": [],
      "payable": false,
      "stateMutability": "nonpayable",
      "type": "function"
    },
    {
      "constant": false,
      "inputs": [
        {
          "name": "_dividendIndex",
          "type": "uint256"
        },
        {
          "name": "_payees",
          "type": "address[]"
        }
      ],
      "name": "pushDividendPaymentToAddresses",
      "outputs": [],
      "payable": false,
      "stateMutability": "nonpayable",
      "type": "function"
    },
    {
      "constant": true,
      "inputs": [],
      "name": "wallet",
      "outputs": [
        {
          "name": "",
          "type": "address"
        }
      ],
      "payable": false,
      "stateMutability": "view",
      "type": "function"
    },
    {
      "constant": true,
      "inputs": [
        {
          "name": "_investor",
          "type": "address"
        },
        {
          "name": "_dividendIndex",
          "type": "uint256"
        }
      ],
      "name": "isClaimed",
      "outputs": [
        {
          "name": "",
          "type": "bool"
        }
      ],
      "payable": false,
      "stateMutability": "view",
      "type": "function"
    },
    {
      "constant": true,
      "inputs": [
        {
          "name": "_dividendIndex",
          "type": "uint256"
        },
        {
          "name": "_payee",
          "type": "address"
        }
      ],
      "name": "calculateDividend",
      "outputs": [
        {
          "name": "",
          "type": "uint256"
        },
        {
          "name": "",
          "type": "uint256"
        }
      ],
      "payable": false,
      "stateMutability": "view",
      "type": "function"
    },
    {
      "constant": true,
      "inputs": [],
      "name": "paused",
      "outputs": [
        {
          "name": "",
          "type": "bool"
        }
      ],
      "payable": false,
      "stateMutability": "view",
      "type": "function"
    },
    {
      "constant": true,
      "inputs": [
        {
          "name": "_checkpointId",
          "type": "uint256"
        }
      ],
      "name": "getDividendIndex",
      "outputs": [
        {
          "name": "",
          "type": "uint256[]"
        }
      ],
      "payable": false,
      "stateMutability": "view",
      "type": "function"
    },
    {
      "constant": true,
      "inputs": [],
      "name": "polyToken",
      "outputs": [
        {
          "name": "",
          "type": "address"
        }
      ],
      "payable": false,
      "stateMutability": "view",
      "type": "function"
    },
    {
      "constant": false,
      "inputs": [
        {
          "name": "_dividendIndex",
          "type": "uint256"
        },
        {
          "name": "_maturity",
          "type": "uint256"
        },
        {
          "name": "_expiry",
          "type": "uint256"
        }
      ],
      "name": "updateDividendDates",
      "outputs": [],
      "payable": false,
      "stateMutability": "nonpayable",
      "type": "function"
    },
    {
      "constant": false,
      "inputs": [
        {
          "name": "_wallet",
          "type": "address"
        }
      ],
      "name": "configure",
      "outputs": [],
      "payable": false,
      "stateMutability": "nonpayable",
      "type": "function"
    },
    {
      "constant": true,
      "inputs": [
        {
          "name": "",
          "type": "address"
        }
      ],
      "name": "withholdingTax",
      "outputs": [
        {
          "name": "",
          "type": "uint256"
        }
      ],
      "payable": false,
      "stateMutability": "view",
      "type": "function"
    },
    {
      "constant": true,
      "inputs": [
        {
          "name": "_checkpointId",
          "type": "uint256"
        }
      ],
      "name": "getCheckpointData",
      "outputs": [
        {
          "name": "investors",
          "type": "address[]"
        },
        {
          "name": "balances",
          "type": "uint256[]"
        },
        {
          "name": "withholdings",
          "type": "uint256[]"
        }
      ],
      "payable": false,
      "stateMutability": "view",
      "type": "function"
    },
    {
      "constant": true,
      "inputs": [
        {
          "name": "",
          "type": "uint256"
        }
      ],
      "name": "dividends",
      "outputs": [
        {
          "name": "checkpointId",
          "type": "uint256"
        },
        {
          "name": "created",
          "type": "uint256"
        },
        {
          "name": "maturity",
          "type": "uint256"
        },
        {
          "name": "expiry",
          "type": "uint256"
        },
        {
          "name": "amount",
          "type": "uint256"
        },
        {
          "name": "claimedAmount",
          "type": "uint256"
        },
        {
          "name": "totalSupply",
          "type": "uint256"
        },
        {
          "name": "reclaimed",
          "type": "bool"
        },
        {
          "name": "totalWithheld",
          "type": "uint256"
        },
        {
          "name": "totalWithheldWithdrawn",
          "type": "uint256"
        },
        {
          "name": "name",
          "type": "bytes32"
        }
      ],
      "payable": false,
      "stateMutability": "view",
      "type": "function"
    },
    {
      "constant": true,
      "inputs": [
        {
          "name": "_investor",
          "type": "address"
        },
        {
          "name": "_dividendIndex",
          "type": "uint256"
        }
      ],
      "name": "isExcluded",
      "outputs": [
        {
          "name": "",
          "type": "bool"
        }
      ],
      "payable": false,
      "stateMutability": "view",
      "type": "function"
    },
    {
      "constant": false,
      "inputs": [],
      "name": "pause",
      "outputs": [],
      "payable": false,
      "stateMutability": "nonpayable",
      "type": "function"
    },
    {
      "constant": false,
      "inputs": [
        {
          "name": "_investors",
          "type": "address[]"
        },
        {
          "name": "_withholding",
          "type": "uint256[]"
        }
      ],
      "name": "setWithholding",
      "outputs": [],
      "payable": false,
      "stateMutability": "nonpayable",
      "type": "function"
    },
    {
      "constant": false,
      "inputs": [
        {
          "name": "_tokenContract",
          "type": "address"
        }
      ],
      "name": "reclaimERC20",
      "outputs": [],
      "payable": false,
      "stateMutability": "nonpayable",
      "type": "function"
    },
    {
      "constant": true,
      "inputs": [
        {
          "name": "",
          "type": "uint256"
        }
      ],
      "name": "dividendTokens",
      "outputs": [
        {
          "name": "",
          "type": "address"
        }
      ],
      "payable": false,
      "stateMutability": "view",
      "type": "function"
    },
    {
      "constant": true,
      "inputs": [],
      "name": "OPERATOR",
      "outputs": [
        {
          "name": "",
          "type": "bytes32"
        }
      ],
      "payable": false,
      "stateMutability": "view",
      "type": "function"
    },
    {
      "constant": false,
      "inputs": [
        {
          "name": "_wallet",
          "type": "address"
        }
      ],
      "name": "changeWallet",
      "outputs": [],
      "payable": false,
      "stateMutability": "nonpayable",
      "type": "function"
    },
    {
      "constant": true,
      "inputs": [],
      "name": "getDividendsData",
      "outputs": [
        {
          "name": "createds",
          "type": "uint256[]"
        },
        {
          "name": "maturitys",
          "type": "uint256[]"
        },
        {
          "name": "expirys",
          "type": "uint256[]"
        },
        {
          "name": "amounts",
          "type": "uint256[]"
        },
        {
          "name": "claimedAmounts",
          "type": "uint256[]"
        },
        {
          "name": "names",
          "type": "bytes32[]"
        }
      ],
      "payable": false,
      "stateMutability": "view",
      "type": "function"
    },
    {
      "constant": true,
      "inputs": [],
      "name": "securityToken",
      "outputs": [
        {
          "name": "",
          "type": "address"
        }
      ],
      "payable": false,
      "stateMutability": "view",
      "type": "function"
    },
    {
      "constant": true,
      "inputs": [
        {
          "name": "",
          "type": "uint256"
        }
      ],
      "name": "excluded",
      "outputs": [
        {
          "name": "",
          "type": "address"
        }
      ],
      "payable": false,
      "stateMutability": "view",
      "type": "function"
    },
    {
      "constant": true,
      "inputs": [],
      "name": "getPermissions",
      "outputs": [
        {
          "name": "",
          "type": "bytes32[]"
        }
      ],
      "payable": false,
      "stateMutability": "view",
      "type": "function"
    },
    {
      "constant": true,
      "inputs": [],
      "name": "factory",
      "outputs": [
        {
          "name": "",
          "type": "address"
        }
      ],
      "payable": false,
      "stateMutability": "view",
      "type": "function"
    },
    {
      "constant": false,
      "inputs": [
        {
          "name": "_excluded",
          "type": "address[]"
        }
      ],
      "name": "setDefaultExcluded",
      "outputs": [],
      "payable": false,
      "stateMutability": "nonpayable",
      "type": "function"
    },
    {
      "constant": false,
      "inputs": [
        {
          "name": "_dividendIndex",
          "type": "uint256"
        },
        {
          "name": "_start",
          "type": "uint256"
        },
        {
          "name": "_end",
          "type": "uint256"
        }
      ],
      "name": "pushDividendPayment",
      "outputs": [],
      "payable": false,
      "stateMutability": "nonpayable",
      "type": "function"
    },
    {
      "constant": true,
      "inputs": [],
      "name": "getDefaultExcluded",
      "outputs": [
        {
          "name": "",
          "type": "address[]"
        }
      ],
      "payable": false,
      "stateMutability": "view",
      "type": "function"
    },
    {
      "constant": true,
      "inputs": [
        {
          "name": "_dividendIndex",
          "type": "uint256"
        }
      ],
      "name": "getDividendProgress",
      "outputs": [
        {
          "name": "investors",
          "type": "address[]"
        },
        {
          "name": "resultClaimed",
          "type": "bool[]"
        },
        {
          "name": "resultExcluded",
          "type": "bool[]"
        },
        {
          "name": "resultWithheld",
          "type": "uint256[]"
        },
        {
          "name": "resultAmount",
          "type": "uint256[]"
        },
        {
          "name": "resultBalance",
          "type": "uint256[]"
        }
      ],
      "payable": false,
      "stateMutability": "view",
      "type": "function"
    },
    {
      "constant": true,
      "inputs": [],
      "name": "getDataStore",
      "outputs": [
        {
          "name": "",
          "type": "address"
        }
      ],
      "payable": false,
      "stateMutability": "view",
      "type": "function"
    },
    {
      "constant": false,
      "inputs": [],
      "name": "createCheckpoint",
      "outputs": [
        {
          "name": "",
          "type": "uint256"
        }
      ],
      "payable": false,
      "stateMutability": "nonpayable",
      "type": "function"
    },
    {
      "inputs": [
        {
          "name": "_securityToken",
          "type": "address"
        },
        {
          "name": "_polyToken",
          "type": "address"
        }
      ],
      "payable": false,
      "stateMutability": "nonpayable",
      "type": "constructor"
    },
    {
      "anonymous": false,
      "inputs": [
        {
          "indexed": true,
          "name": "_depositor",
          "type": "address"
        },
        {
          "indexed": false,
          "name": "_checkpointId",
          "type": "uint256"
        },
        {
          "indexed": false,
          "name": "_maturity",
          "type": "uint256"
        },
        {
          "indexed": false,
          "name": "_expiry",
          "type": "uint256"
        },
        {
          "indexed": true,
          "name": "_token",
          "type": "address"
        },
        {
          "indexed": false,
          "name": "_amount",
          "type": "uint256"
        },
        {
          "indexed": false,
          "name": "_totalSupply",
          "type": "uint256"
        },
        {
          "indexed": false,
          "name": "_dividendIndex",
          "type": "uint256"
        },
        {
          "indexed": true,
          "name": "_name",
          "type": "bytes32"
        }
      ],
      "name": "ERC20DividendDeposited",
      "type": "event"
    },
    {
      "anonymous": false,
      "inputs": [
        {
          "indexed": true,
          "name": "_payee",
          "type": "address"
        },
        {
          "indexed": true,
          "name": "_dividendIndex",
          "type": "uint256"
        },
        {
          "indexed": true,
          "name": "_token",
          "type": "address"
        },
        {
          "indexed": false,
          "name": "_amount",
          "type": "uint256"
        },
        {
          "indexed": false,
          "name": "_withheld",
          "type": "uint256"
        }
      ],
      "name": "ERC20DividendClaimed",
      "type": "event"
    },
    {
      "anonymous": false,
      "inputs": [
        {
          "indexed": true,
          "name": "_claimer",
          "type": "address"
        },
        {
          "indexed": true,
          "name": "_dividendIndex",
          "type": "uint256"
        },
        {
          "indexed": true,
          "name": "_token",
          "type": "address"
        },
        {
          "indexed": false,
          "name": "_claimedAmount",
          "type": "uint256"
        }
      ],
      "name": "ERC20DividendReclaimed",
      "type": "event"
    },
    {
      "anonymous": false,
      "inputs": [
        {
          "indexed": true,
          "name": "_claimer",
          "type": "address"
        },
        {
          "indexed": true,
          "name": "_dividendIndex",
          "type": "uint256"
        },
        {
          "indexed": true,
          "name": "_token",
          "type": "address"
        },
        {
          "indexed": false,
          "name": "_withheldAmount",
          "type": "uint256"
        }
      ],
      "name": "ERC20DividendWithholdingWithdrawn",
      "type": "event"
    },
    {
      "anonymous": false,
      "inputs": [
        {
          "indexed": false,
          "name": "_excluded",
          "type": "address[]"
        }
      ],
      "name": "SetDefaultExcludedAddresses",
      "type": "event"
    },
    {
      "anonymous": false,
      "inputs": [
        {
          "indexed": false,
          "name": "_investors",
          "type": "address[]"
        },
        {
          "indexed": false,
          "name": "_withholding",
          "type": "uint256[]"
        }
      ],
      "name": "SetWithholding",
      "type": "event"
    },
    {
      "anonymous": false,
      "inputs": [
        {
          "indexed": false,
          "name": "_investors",
          "type": "address[]"
        },
        {
          "indexed": false,
          "name": "_withholding",
          "type": "uint256"
        }
      ],
      "name": "SetWithholdingFixed",
      "type": "event"
    },
    {
      "anonymous": false,
      "inputs": [
        {
          "indexed": true,
          "name": "_oldWallet",
          "type": "address"
        },
        {
          "indexed": true,
          "name": "_newWallet",
          "type": "address"
        }
      ],
      "name": "SetWallet",
      "type": "event"
    },
    {
      "anonymous": false,
      "inputs": [
        {
          "indexed": true,
          "name": "_dividendIndex",
          "type": "uint256"
        },
        {
          "indexed": false,
          "name": "_maturity",
          "type": "uint256"
        },
        {
          "indexed": false,
          "name": "_expiry",
          "type": "uint256"
        }
      ],
      "name": "UpdateDividendDates",
      "type": "event"
    },
    {
      "anonymous": false,
      "inputs": [
        {
          "indexed": false,
          "name": "account",
          "type": "address"
        }
      ],
      "name": "Pause",
      "type": "event"
    },
    {
      "anonymous": false,
      "inputs": [
        {
          "indexed": false,
          "name": "account",
          "type": "address"
        }
      ],
      "name": "Unpause",
      "type": "event"
    },
    {
      "constant": false,
      "inputs": [
        {
          "name": "_maturity",
          "type": "uint256"
        },
        {
          "name": "_expiry",
          "type": "uint256"
        },
        {
          "name": "_token",
          "type": "address"
        },
        {
          "name": "_amount",
          "type": "uint256"
        },
        {
          "name": "_name",
          "type": "bytes32"
        }
      ],
      "name": "createDividend",
      "outputs": [],
      "payable": false,
      "stateMutability": "nonpayable",
      "type": "function"
    },
    {
      "constant": false,
      "inputs": [
        {
          "name": "_maturity",
          "type": "uint256"
        },
        {
          "name": "_expiry",
          "type": "uint256"
        },
        {
          "name": "_token",
          "type": "address"
        },
        {
          "name": "_amount",
          "type": "uint256"
        },
        {
          "name": "_checkpointId",
          "type": "uint256"
        },
        {
          "name": "_name",
          "type": "bytes32"
        }
      ],
      "name": "createDividendWithCheckpoint",
      "outputs": [],
      "payable": false,
      "stateMutability": "nonpayable",
      "type": "function"
    },
    {
      "constant": false,
      "inputs": [
        {
          "name": "_maturity",
          "type": "uint256"
        },
        {
          "name": "_expiry",
          "type": "uint256"
        },
        {
          "name": "_token",
          "type": "address"
        },
        {
          "name": "_amount",
          "type": "uint256"
        },
        {
          "name": "_excluded",
          "type": "address[]"
        },
        {
          "name": "_name",
          "type": "bytes32"
        }
      ],
      "name": "createDividendWithExclusions",
      "outputs": [],
      "payable": false,
      "stateMutability": "nonpayable",
      "type": "function"
    },
    {
      "constant": false,
      "inputs": [
        {
          "name": "_maturity",
          "type": "uint256"
        },
        {
          "name": "_expiry",
          "type": "uint256"
        },
        {
          "name": "_token",
          "type": "address"
        },
        {
          "name": "_amount",
          "type": "uint256"
        },
        {
          "name": "_checkpointId",
          "type": "uint256"
        },
        {
          "name": "_excluded",
          "type": "address[]"
        },
        {
          "name": "_name",
          "type": "bytes32"
        }
      ],
      "name": "createDividendWithCheckpointAndExclusions",
      "outputs": [],
      "payable": false,
      "stateMutability": "nonpayable",
      "type": "function"
    },
    {
      "constant": false,
      "inputs": [
        {
          "name": "_dividendIndex",
          "type": "uint256"
        }
      ],
      "name": "reclaimDividend",
      "outputs": [],
      "payable": false,
      "stateMutability": "nonpayable",
      "type": "function"
    },
    {
      "constant": false,
      "inputs": [
        {
          "name": "_dividendIndex",
          "type": "uint256"
        }
      ],
      "name": "withdrawWithholding",
      "outputs": [],
      "payable": false,
      "stateMutability": "nonpayable",
      "type": "function"
    }
  ],
  "bytecode": "0x6080604052609660025560098054600160a01b60ff021916905534801561002557600080fd5b5060405160408062004cd68339810180604052604081101561004657600080fd5b508051602090910151600880546001600160a01b039384166001600160a01b0319918216179091556007805482163317905560098054939092169216919091179055614c3e80620000986000396000f3fe608060405234801561001057600080fd5b506004361061028a5760003560e01c80637a3e23fd1161015c578063ac121dbf116100ce578063cc1556dc11610087578063cc1556dc14610dd6578063e1726faa14610e77578063f1e9d10014610ea0578063fa67a7bb14610ea8578063fe58265e14610ec5578063ff0b9c9014610ecd5761028a565b8063ac121dbf14610bae578063b7e1fd9b14610d63578063b84dfbd214610da1578063bee2ddc214610da9578063c3a07df614610dc6578063c45a015514610dce5761028a565b80638596e6e6116101205780638596e6e6146109fd5780638905fd4f14610b2057806395ec5bbe14610b46578063983d273714610b6357806398b9a2dc14610b6b578063aa8b76ea14610b915761028a565b80637a3e23fd146108335780637b4a223b14610859578063814b3fe01461095457806381e97b66146109c95780638456cb59146109f55761028a565b80633f4ba83a116102005780635c975abb116101b95780635c975abb146107235780635daff64e1461072b5780636e742c77146107985780636faa22a5146107dc57806373e9e1a3146107e457806375cb26721461080d5761028a565b80633f4ba83a1461051b57806343647a62146105235780634d58e413146105ee578063521eb27314610696578063562beba81461069e5780635bea0e1c146106de5761028a565b806328d1feda1161025257806328d1feda1461043f5780632a0acc6a1461048f5780632c035b741461049757806330008b48146104bb578063333cffe5146104d85780633f2e3165146104f55761028a565b80630945812e1461028f5780630a29f591146103345780630f144a481461034e5780631613ec9d1461035657806322018ce71461037b575b600080fd5b610332600480360360408110156102a557600080fd5b810190602081018135600160201b8111156102bf57600080fd5b8201836020820111156102d157600080fd5b803590602001918460208302840111600160201b831117156102f257600080fd5b9190808060200260200160405190810160405280939291908181526020018383602002808284376000920191909152509295505091359250610ed5915050565b005b61033c611059565b60408051918252519081900360200190f35b61033261105f565b61035e611097565b604080516001600160e01b03199092168252519081900360200190f35b610332600480360360c081101561039157600080fd5b8135916020810135916001600160a01b036040830135169160608101359181019060a081016080820135600160201b8111156103cc57600080fd5b8201836020820111156103de57600080fd5b803590602001918460208302840111600160201b831117156103ff57600080fd5b91908080602002602001604051908101604052809392919081815260200183836020028082843760009201919091525092955050913592506110a6915050565b61045c6004803603602081101561045557600080fd5b50356111a4565b604080519687526020870195909552858501939093526060850191909152608084015260a0830152519081900360c00190f35b61033c61127c565b61049f61128b565b604080516001600160a01b039092168252519081900360200190f35b610332600480360360208110156104d157600080fd5b50356113a8565b610332600480360360208110156104ee57600080fd5b50356114f8565b61033c6004803603602081101561050b57600080fd5b50356001600160a01b0316611729565b61033261173b565b610332600480360360e081101561053957600080fd5b8135916020810135916001600160a01b03604083013516916060810135916080820135919081019060c0810160a0820135600160201b81111561057b57600080fd5b82018360208201111561058d57600080fd5b803590602001918460208302840111600160201b831117156105ae57600080fd5b919080806020026020016040519081016040528093929190818152602001838360200280828437600092019190915250929550509135925061174d915050565b6103326004803603604081101561060457600080fd5b81359190810190604081016020820135600160201b81111561062557600080fd5b82018360208201111561063757600080fd5b803590602001918460208302840111600160201b8311171561065857600080fd5b9190808060200260200160405190810160405280939291908181526020018383602002808284376000920191909152509295506117b4945050505050565b61049f6118f0565b6106ca600480360360408110156106b457600080fd5b506001600160a01b0381351690602001356118ff565b604080519115158252519081900360200190f35b61070a600480360360408110156106f457600080fd5b50803590602001356001600160a01b031661198b565b6040805192835260208301919091528051918290030190f35b6106ca611b55565b6107486004803603602081101561074157600080fd5b5035611b65565b60408051602080825283518183015283519192839290830191858101910280838360005b8381101561078457818101518382015260200161076c565b505050509050019250505060405180910390f35b610332600480360360c08110156107ae57600080fd5b508035906020810135906001600160a01b036040820135169060608101359060808101359060a00135611c3f565b61049f611d09565b610332600480360360608110156107fa57600080fd5b5080359060208101359060400135611d18565b6103326004803603602081101561082357600080fd5b50356001600160a01b0316611ed7565b61033c6004803603602081101561084957600080fd5b50356001600160a01b0316611f42565b6108766004803603602081101561086f57600080fd5b5035611f54565b60405180806020018060200180602001848103845287818151815260200191508051906020019060200280838360005b838110156108be5781810151838201526020016108a6565b50505050905001848103835286818151815260200191508051906020019060200280838360005b838110156108fd5781810151838201526020016108e5565b50505050905001848103825285818151815260200191508051906020019060200280838360005b8381101561093c578181015183820152602001610924565b50505050905001965050505050505060405180910390f35b6109716004803603602081101561096a57600080fd5b5035612285565b604080519b8c5260208c019a909a528a8a019890985260608a0196909652608089019490945260a088019290925260c0870152151560e086015261010085015261012084015261014083015251908190036101600190f35b6106ca600480360360408110156109df57600080fd5b506001600160a01b0381351690602001356122f1565b61033261237c565b61033260048036036040811015610a1357600080fd5b810190602081018135600160201b811115610a2d57600080fd5b820183602082011115610a3f57600080fd5b803590602001918460208302840111600160201b83111715610a6057600080fd5b9190808060200260200160405190810160405280939291908181526020018383602002808284376000920191909152509295949360208101935035915050600160201b811115610aaf57600080fd5b820183602082011115610ac157600080fd5b803590602001918460208302840111600160201b83111715610ae257600080fd5b91908080602002602001604051908101604052809392919081815260200183836020028082843760009201919091525092955061238c945050505050565b61033260048036036020811015610b3657600080fd5b50356001600160a01b03166125c3565b61049f60048036036020811015610b5c57600080fd5b5035612773565b61033c61278e565b61033260048036036020811015610b8157600080fd5b50356001600160a01b03166127a0565b61033260048036036020811015610ba757600080fd5b50356127a8565b610bb6612aef565b6040518080602001806020018060200180602001806020018060200187810387528d818151815260200191508051906020019060200280838360005b83811015610c0a578181015183820152602001610bf2565b5050505090500187810386528c818151815260200191508051906020019060200280838360005b83811015610c49578181015183820152602001610c31565b5050505090500187810385528b818151815260200191508051906020019060200280838360005b83811015610c88578181015183820152602001610c70565b5050505090500187810384528a818151815260200191508051906020019060200280838360005b83811015610cc7578181015183820152602001610caf565b50505050905001878103835289818151815260200191508051906020019060200280838360005b83811015610d06578181015183820152602001610cee565b50505050905001878103825288818151815260200191508051906020019060200280838360005b83811015610d45578181015183820152602001610d2d565b505050509050019c5050505050505050505050505060405180910390f35b610332600480360360a0811015610d7957600080fd5b508035906020810135906001600160a01b036040820135169060608101359060800135612cc6565b61049f612d8e565b61049f60048036036020811015610dbf57600080fd5b5035612d9d565b610748612dc4565b61049f612e39565b61033260048036036020811015610dec57600080fd5b810190602081018135600160201b811115610e0657600080fd5b820183602082011115610e1857600080fd5b803590602001918460208302840111600160201b83111715610e3957600080fd5b919080806020026020016040519081016040528093929190818152602001838360200280828437600092019190915250929550612e48945050505050565b61033260048036036060811015610e8d57600080fd5b50803590602081013590604001356130c2565b6107486132bb565b610bb660048036036020811015610ebe57600080fd5b503561331d565b61049f61385d565b61033c6138d6565b600160d91b6420a226a4a702610eeb81336139b6565b610f2d5760408051600160e51b62461bcd0281526020600482015260126024820152600080516020614bb2833981519152604482015290519081900360640190fd5b670de0b6b3a7640000821115610f8d5760408051600160e51b62461bcd02815260206004820152601960248201527f496e636f72726563742077697468686f6c64696e672074617800000000000000604482015290519081900360640190fd5b7f02d4071fbc08756ffe4bca9edb3e963c0b64703f966b7aafc724acce3e09c32b83836040518080602001838152602001828103825284818151815260200191508051906020019060200280838360005b83811015610ff6578181015183820152602001610fde565b50505050905001935050505060405180910390a160005b835181101561105357826005600086848151811061102757fe5b6020908102919091018101516001600160a01b031682528101919091526040016000205560010161100d565b50505050565b60025481565b611067613aec565b6040513390303180156108fc02916000818181858888f19350505050158015611094573d6000803e3d6000fd5b50565b600160e11b633ae59339025b90565b600160d91b6420a226a4a7026110bc81336139b6565b6110fe5760408051600160e51b62461bcd0281526020600482015260126024820152600080516020614bb2833981519152604482015290519081900360640190fd5b600854604080517fff0b9c9000000000000000000000000000000000000000000000000000000000815290516000926001600160a01b03169163ff0b9c9091600480830192602092919082900301818787803b15801561115d57600080fd5b505af1158015611171573d6000803e3d6000fd5b505050506040513d602081101561118757600080fd5b5051905061119a88888888858989613bc5565b5050505050505050565b600080600080600080600387815481106111ba57fe5b90600052602060002090600e0201600101549550600387815481106111db57fe5b90600052602060002090600e0201600201549450600387815481106111fc57fe5b90600052602060002090600e02016003015493506003878154811061121d57fe5b90600052602060002090600e02016004015492506003878154811061123e57fe5b90600052602060002090600e02016005015491506003878154811061125f57fe5b90600052602060002090600e0201600d0154905091939550919395565b600160d91b6420a226a4a70281565b6001546000906001600160a01b03166113965760006112a861385d565b6001600160a01b03166321f8a7217faae8817359f3dcb67d050f44f3e49f982e0359d90ca4b5f18569926304aaece660001b6040518263ffffffff1660e01b81526004018082815260200191505060206040518083038186803b15801561130e57600080fd5b505afa158015611322573d6000803e3d6000fd5b505050506040513d602081101561133857600080fd5b505190506001600160a01b03811661138f5760408051600160e51b62461bcd02815260206004820152600f6024820152600160881b6e496e76616c6964206164647265737302604482015290519081900360640190fd5b90506110a3565b506001546001600160a01b03166110a3565b600954600160a01b900460ff16156114025760408051600160e51b62461bcd0281526020600482015260126024820152600160721b7110dbdb9d1c9858dd081a5cc81c185d5cd95902604482015290519081900360640190fd5b61140b81614514565b60006003828154811061141a57fe5b60009182526020808320338452600a600e90930201918201905260409091205490915060ff16156114955760408051600160e51b62461bcd02815260206004820152601860248201527f4469766964656e6420616c726561647920636c61696d65640000000000000000604482015290519081900360640190fd5b336000908152600b8201602052604090205460ff16156114e957604051600160e51b62461bcd028152600401808060200182810382526021815260200180614bf26021913960400191505060405180910390fd5b6114f43382846146bf565b5050565b600160c11b6727a822a920aa27a90261151181336139b6565b6115535760408051600160e51b62461bcd0281526020600482015260126024820152600080516020614bb2833981519152604482015290519081900360640190fd5b600354821061159a5760408051600160e51b62461bcd0281526020600482015260106024820152600080516020614bd2833981519152604482015290519081900360640190fd5b6000600383815481106115a957fe5b90600052602060002090600e0201905060006115d6826009015483600801546148a590919063ffffffff16565b600883015460098401556000858152602081905260409020549091506001600160a01b031663a9059cbb61160861128b565b836040518363ffffffff1660e01b815260040180836001600160a01b03166001600160a01b0316815260200182815260200192505050602060405180830381600087803b15801561165857600080fd5b505af115801561166c573d6000803e3d6000fd5b505050506040513d602081101561168257600080fd5b50516116cd5760408051600160e51b62461bcd02815260206004820152600f60248201526001608a1b6e1d1c985b9cd9995c8819985a5b195902604482015290519081900360640190fd5b6000848152602081815260409182902054600154835185815293516001600160a01b0392831694899493909216927f31342482aee689b025c9cbe348134fefee05df6d6ac65a91dd6b0abdf454539f928290030190a450505050565b60066020526000908152604090205481565b611743613aec565b61174b6148ba565b565b600160d91b6420a226a4a70261176381336139b6565b6117a55760408051600160e51b62461bcd0281526020600482015260126024820152600080516020614bb2833981519152604482015290519081900360640190fd5b61119a88888888888888613bc5565b600160c11b6727a822a920aa27a9026117cd81336139b6565b61180f5760408051600160e51b62461bcd0281526020600482015260126024820152600080516020614bb2833981519152604482015290519081900360640190fd5b61181883614514565b60006003848154811061182757fe5b600091825260208220600e9091020191505b83518110156118e95781600a01600085838151811061185457fe5b6020908102919091018101516001600160a01b031682528101919091526040016000205460ff161580156118be575081600b01600085838151811061189557fe5b6020908102919091018101516001600160a01b031682528101919091526040016000205460ff16155b156118e1576118e18482815181106118d257fe5b602002602001015183876146bf565b600101611839565b5050505050565b6001546001600160a01b031681565b60035460009082106119495760408051600160e51b62461bcd0281526020600482015260106024820152600080516020614bd2833981519152604482015290519081900360640190fd5b6003828154811061195657fe5b600091825260208083206001600160a01b0387168452600a600e90930201919091019052604090205460ff1690505b92915050565b600354600090819084106119d75760408051600160e51b62461bcd0281526020600482015260106024820152600080516020614bd2833981519152604482015290519081900360640190fd5b6000600385815481106119e657fe5b600091825260208083206001600160a01b0388168452600a600e90930201918201905260409091205490915060ff1680611a3a57506001600160a01b0384166000908152600b8201602052604090205460ff165b15611a4c575060009150819050611b4e565b600854815460408051600160e11b63277166bf0281526001600160a01b038881166004830152602482019390935290516000939290921691634ee2cd7e91604480820192602092909190829003018186803b158015611aaa57600080fd5b505afa158015611abe573d6000803e3d6000fd5b505050506040513d6020811015611ad457600080fd5b505160068301546004840154919250600091611b089190611afc90859063ffffffff61496016565b9063ffffffff61498e16565b6001600160a01b03871660009081526005602052604081205491925090611b4490670de0b6b3a764000090611afc90859063ffffffff61496016565b9195509093505050505b9250929050565b600954600160a01b900460ff1681565b60606000805b600354811015611baa578360038281548110611b8357fe5b90600052602060002090600e0201600001541415611ba2576001909101905b600101611b6b565b50606081604051908082528060200260200182016040528015611bd7578160200160208202803883390190505b50600092509050815b600354811015611c37578460038281548110611bf857fe5b90600052602060002090600e0201600001541415611c2f5780828481518110611c1d57fe5b60209081029190910101526001909201915b600101611be0565b509392505050565b600160d91b6420a226a4a702611c5581336139b6565b611c975760408051600160e51b62461bcd0281526020600482015260126024820152600080516020614bb2833981519152604482015290519081900360640190fd5b611d0087878787876004805480602002602001604051908101604052809291908181526020018280548015611cf557602002820191906000526020600020905b81546001600160a01b03168152600190910190602001808311611cd7575b505050505088613bc5565b50505050505050565b6009546001600160a01b031681565b600160d91b6420a226a4a702611d2e81336139b6565b611d705760408051600160e51b62461bcd0281526020600482015260126024820152600080516020614bb2833981519152604482015290519081900360640190fd5b6003548410611db75760408051600160e51b62461bcd0281526020600482015260106024820152600080516020614bd2833981519152604482015290519081900360640190fd5b828211611e0e5760408051600160e51b62461bcd02815260206004820152601660248201527f457870697279206265666f7265206d6174757269747900000000000000000000604482015290519081900360640190fd5b600060038581548110611e1d57fe5b90600052602060002090600e0201905042816003015411611e885760408051600160e51b62461bcd02815260206004820152601860248201527f4469766964656e6420616c726561647920657870697265640000000000000000604482015290519081900360640190fd5b60038101839055600281018490556040805185815260208101859052815187927f4d385ba2c40259cda374f5596718ac5694e5849b23572b3f59b4fd1be037a860928290030190a25050505050565b6007546001600160a01b03163314611f395760408051600160e51b62461bcd02815260206004820152601560248201527f53656e646572206973206e6f7420666163746f72790000000000000000000000604482015290519081900360640190fd5b611094816149b0565b60056020526000908152604090205481565b6060806060600860009054906101000a90046001600160a01b03166001600160a01b0316635488cc806040518163ffffffff1660e01b815260040160206040518083038186803b158015611fa757600080fd5b505afa158015611fbb573d6000803e3d6000fd5b505050506040513d6020811015611fd157600080fd5b50518411156120225760408051600160e51b62461bcd0281526020600482015260126024820152600160721b71125b9d985b1a590818da1958dadc1bda5b9d02604482015290519081900360640190fd5b60085460408051600160e11b631faa9ac30281526004810187905290516001600160a01b0390921691633f55358691602480820192600092909190829003018186803b15801561207157600080fd5b505afa158015612085573d6000803e3d6000fd5b505050506040513d6000823e601f3d908101601f1916820160405260208110156120ae57600080fd5b810190808051600160201b8111156120c557600080fd5b820160208101848111156120d857600080fd5b81518560208202830111600160201b821117156120f457600080fd5b505092919050505092508251604051908082528060200260200182016040528015612129578160200160208202803883390190505b5091508251604051908082528060200260200182016040528015612157578160200160208202803883390190505b50905060005b835181101561227d5760085484516001600160a01b0390911690634ee2cd7e9086908490811061218957fe5b6020026020010151876040518363ffffffff1660e01b815260040180836001600160a01b03166001600160a01b031681526020018281526020019250505060206040518083038186803b1580156121df57600080fd5b505afa1580156121f3573d6000803e3d6000fd5b505050506040513d602081101561220957600080fd5b5051835184908390811061221957fe5b6020026020010181815250506005600085838151811061223557fe5b60200260200101516001600160a01b03166001600160a01b031681526020019081526020016000205482828151811061226a57fe5b602090810291909101015260010161215d565b509193909250565b6003818154811061229257fe5b60009182526020909120600e9091020180546001820154600283015460038401546004850154600586015460068701546007880154600889015460098a0154600d909a0154989a5096989597949693959294919360ff9091169290918b565b600354600090821061233b5760408051600160e51b62461bcd0281526020600482015260106024820152600080516020614bd2833981519152604482015290519081900360640190fd5b6003828154811061234857fe5b600091825260208083206001600160a01b0387168452600b600e90930201919091019052604090205460ff16905092915050565b612384613aec565b61174b614a0c565b600160d91b6420a226a4a7026123a281336139b6565b6123e45760408051600160e51b62461bcd0281526020600482015260126024820152600080516020614bb2833981519152604482015290519081900360640190fd5b815183511461243d5760408051600160e51b62461bcd02815260206004820152601860248201527f4d69736d61746368656420696e707574206c656e677468730000000000000000604482015290519081900360640190fd5b7f01da14148cd0c4104d62830cfe6127c6955f1074631149adde6809b8687988d98383604051808060200180602001838103835285818151815260200191508051906020019060200280838360005b838110156124a457818101518382015260200161248c565b50505050905001838103825284818151815260200191508051906020019060200280838360005b838110156124e35781810151838201526020016124cb565b5050505090500194505050505060405180910390a160005b8351811015611053576012600a0a83828151811061251557fe5b602002602001015111156125735760408051600160e51b62461bcd02815260206004820152601960248201527f496e636f72726563742077697468686f6c64696e672074617800000000000000604482015290519081900360640190fd5b82818151811061257f57fe5b60200260200101516005600086848151811061259757fe5b6020908102919091018101516001600160a01b03168252810191909152604001600020556001016124fb565b6125cb613aec565b6001600160a01b03811661261e5760408051600160e51b62461bcd02815260206004820152600f6024820152600160881b6e496e76616c6964206164647265737302604482015290519081900360640190fd5b60408051600160e01b6370a08231028152306004820152905182916000916001600160a01b038416916370a08231916024808301926020929190829003018186803b15801561266c57600080fd5b505afa158015612680573d6000803e3d6000fd5b505050506040513d602081101561269657600080fd5b505160408051600160e01b63a9059cbb0281523360048201526024810183905290519192506001600160a01b0384169163a9059cbb916044808201926020929091908290030181600087803b1580156126ee57600080fd5b505af1158015612702573d6000803e3d6000fd5b505050506040513d602081101561271857600080fd5b505161276e5760408051600160e51b62461bcd02815260206004820152600f60248201527f5472616e73666572206661696c65640000000000000000000000000000000000604482015290519081900360640190fd5b505050565b6000602081905290815260409020546001600160a01b031681565b600160c11b6727a822a920aa27a90281565b611f39613aec565b600160c11b6727a822a920aa27a9026127c181336139b6565b6128035760408051600160e51b62461bcd0281526020600482015260126024820152600080516020614bb2833981519152604482015290519081900360640190fd5b600354821061284a5760408051600160e51b62461bcd0281526020600482015260106024820152600080516020614bd2833981519152604482015290519081900360640190fd5b6003828154811061285757fe5b90600052602060002090600e0201600301544210156128c05760408051600160e51b62461bcd02815260206004820152601960248201527f4469766964656e642065787069727920696e2066757475726500000000000000604482015290519081900360640190fd5b600382815481106128cd57fe5b600091825260209091206007600e90920201015460ff16156129395760408051600160e51b62461bcd02815260206004820152600f60248201527f616c726561647920636c61696d65640000000000000000000000000000000000604482015290519081900360640190fd5b60016003838154811061294857fe5b600091825260208220600e9190910201600701805460ff191692151592909217909155600380548490811061297957fe5b90600052602060002090600e0201905060006129a6826005015483600401546148a590919063ffffffff16565b6000858152602081905260409020549091506001600160a01b031663a9059cbb6129ce61128b565b836040518363ffffffff1660e01b815260040180836001600160a01b03166001600160a01b0316815260200182815260200192505050602060405180830381600087803b158015612a1e57600080fd5b505af1158015612a32573d6000803e3d6000fd5b505050506040513d6020811015612a4857600080fd5b5051612a935760408051600160e51b62461bcd02815260206004820152600f60248201526001608a1b6e1d1c985b9cd9995c8819985a5b195902604482015290519081900360640190fd5b6000848152602081815260409182902054600154835185815293516001600160a01b0392831694899493909216927f9766d0325a2a3c017f6cf974bfd1bd0b26e705570ce8250fe5e078a3e832d52d928290030190a450505050565b606080606080606080600380549050604051908082528060200260200182016040528015612b27578160200160208202803883390190505b506003546040805182815260208084028201019091529197508015612b56578160200160208202803883390190505b506003546040805182815260208084028201019091529196508015612b85578160200160208202803883390190505b506003546040805182815260208084028201019091529195508015612bb4578160200160208202803883390190505b506003546040805182815260208084028201019091529194508015612be3578160200160208202803883390190505b506003546040805182815260208084028201019091529193508015612c12578160200160208202803883390190505b50905060005b600354811015612cbd57612c2b816111a4565b8c8781518110612c3757fe5b602002602001018c8881518110612c4a57fe5b602002602001018c8981518110612c5d57fe5b602002602001018c8a81518110612c7057fe5b602002602001018c8b81518110612c8357fe5b602002602001018c8c81518110612c9657fe5b60209081029190910101959095529490935293909252929092529190915252600101612c18565b50909192939495565b600160d91b6420a226a4a702612cdc81336139b6565b612d1e5760408051600160e51b62461bcd0281526020600482015260126024820152600080516020614bb2833981519152604482015290519081900360640190fd5b612d86868686866004805480602002602001604051908101604052809291908181526020018280548015612d7b57602002820191906000526020600020905b81546001600160a01b03168152600190910190602001808311612d5d575b5050505050876110a6565b505050505050565b6008546001600160a01b031681565b60048181548110612daa57fe5b6000918252602090912001546001600160a01b0316905081565b604080516002808252606080830184529283929190602083019080388339019050509050600160d91b6420a226a4a70281600081518110612e0157fe5b602002602001018181525050600160c11b6727a822a920aa27a90281600181518110612e2957fe5b6020908102919091010152905090565b6007546001600160a01b031681565b600160d91b6420a226a4a702612e5e81336139b6565b612ea05760408051600160e51b62461bcd0281526020600482015260126024820152600080516020614bb2833981519152604482015290519081900360640190fd5b60025482511115612efb5760408051600160e51b62461bcd02815260206004820152601b60248201527f546f6f206d616e79206578636c75646564206164647265737365730000000000604482015290519081900360640190fd5b60005b82518110156130295760006001600160a01b0316838281518110612f1e57fe5b60200260200101516001600160a01b03161415612f7a5760408051600160e51b62461bcd02815260206004820152600f6024820152600160881b6e496e76616c6964206164647265737302604482015290519081900360640190fd5b600181015b835181101561302057838181518110612f9457fe5b60200260200101516001600160a01b0316848381518110612fb157fe5b60200260200101516001600160a01b031614156130185760408051600160e51b62461bcd02815260206004820152601960248201527f4475706c6963617465206578636c756465206164647265737300000000000000604482015290519081900360640190fd5b600101612f7f565b50600101612efe565b50815161303d906004906020850190614b32565b507fcbdf8a4bf19b153fdd0aa4aa2c292cef47adc56e05524f1d99658f03b771e2376004604051808060200182810382528381815481526020019150805480156130b057602002820191906000526020600020905b81546001600160a01b03168152600190910190602001808311613092575b50509250505060405180910390a15050565b600160c11b6727a822a920aa27a9026130db81336139b6565b61311d5760408051600160e51b62461bcd0281526020600482015260126024820152600080516020614bb2833981519152604482015290519081900360640190fd5b61312684614514565b60006003858154811061313557fe5b600091825260208220600e90910201805460085460408051600160e01b63abe191c102815260048101849052602481018a905260448101899052905193955091936060936001600160a01b039092169263abe191c19260648083019392829003018186803b1580156131a657600080fd5b505afa1580156131ba573d6000803e3d6000fd5b505050506040513d6000823e601f3d908101601f1916820160405260208110156131e357600080fd5b810190808051600160201b8111156131fa57600080fd5b8201602081018481111561320d57600080fd5b81518560208202830111600160201b8211171561322957600080fd5b50909450600093505050505b815181101561119a57600082828151811061324c57fe5b6020908102919091018101516001600160a01b0381166000908152600a880190925260409091205490915060ff161580156132a257506001600160a01b0381166000908152600b8601602052604090205460ff16155b156132b2576132b281868b6146bf565b50600101613235565b6060600480548060200260200160405190810160405280929190818152602001828054801561331357602002820191906000526020600020905b81546001600160a01b031681526001909101906020018083116132f5575b5050505050905090565b60608060608060608060038054905087106133705760408051600160e51b62461bcd0281526020600482015260106024820152600080516020614bd2833981519152604482015290519081900360640190fd5b60006003888154811061337f57fe5b600091825260208220600e90910201805460085460408051600160e11b631faa9ac302815260048101849052905193955091936001600160a01b0390911692633f553586926024808201939291829003018186803b1580156133e057600080fd5b505afa1580156133f4573d6000803e3d6000fd5b505050506040513d6000823e601f3d908101601f19168201604052602081101561341d57600080fd5b810190808051600160201b81111561343457600080fd5b8201602081018481111561344757600080fd5b81518560208202830111600160201b8211171561346357600080fd5b505092919050505097508751604051908082528060200260200182016040528015613498578160200160208202803883390190505b50965087516040519080825280602002602001820160405280156134c6578160200160208202803883390190505b50955087516040519080825280602002602001820160405280156134f4578160200160208202803883390190505b5094508751604051908082528060200260200182016040528015613522578160200160208202803883390190505b5093508751604051908082528060200260200182016040528015613550578160200160208202803883390190505b50925060005b88518110156138515782600a0160008a838151811061357157fe5b60200260200101516001600160a01b03166001600160a01b0316815260200190815260200160002060009054906101000a900460ff168882815181106135b357fe5b60200260200101901515908115158152505082600b0160008a83815181106135d757fe5b60200260200101516001600160a01b03166001600160a01b0316815260200190815260200160002060009054906101000a900460ff1687828151811061361957fe5b9115156020928302919091019091015260085489516001600160a01b0390911690634ee2cd7e908b908490811061364c57fe5b602002602001015185600001546040518363ffffffff1660e01b815260040180836001600160a01b03166001600160a01b031681526020018281526020019250505060206040518083038186803b1580156136a657600080fd5b505afa1580156136ba573d6000803e3d6000fd5b505050506040513d60208110156136d057600080fd5b505184518590839081106136e057fe5b6020026020010181815250508681815181106136f857fe5b60200260200101516138495787818151811061371057fe5b6020026020010151156137e25782600c0160008a838151811061372f57fe5b60200260200101516001600160a01b03166001600160a01b031681526020019081526020016000205486828151811061376457fe5b6020026020010181815250506137c586828151811061377f57fe5b60200260200101516137b98560060154611afc87600401548987815181106137a357fe5b602002602001015161496090919063ffffffff16565b9063ffffffff6148a516565b8582815181106137d157fe5b602002602001018181525050613849565b6000806138028c8c85815181106137f557fe5b602002602001015161198b565b915091508088848151811061381357fe5b602090810291909101015261382e828263ffffffff6148a516565b87848151811061383a57fe5b60200260200101818152505050505b600101613556565b50505091939550919395565b60085460408051600160e01b63660d0d6702815290516000926001600160a01b03169163660d0d67916004808301926020929190829003018186803b1580156138a557600080fd5b505afa1580156138b9573d6000803e3d6000fd5b505050506040513d60208110156138cf57600080fd5b5051905090565b6000600160c11b6727a822a920aa27a9026138f181336139b6565b6139335760408051600160e51b62461bcd0281526020600482015260126024820152600080516020614bb2833981519152604482015290519081900360640190fd5b600860009054906101000a90046001600160a01b03166001600160a01b031663ff0b9c906040518163ffffffff1660e01b8152600401602060405180830381600087803b15801561398357600080fd5b505af1158015613997573d6000803e3d6000fd5b505050506040513d60208110156139ad57600080fd5b505191505b5090565b600080600860009054906101000a90046001600160a01b03166001600160a01b0316638da5cb5b6040518163ffffffff1660e01b815260040160206040518083038186803b158015613a0757600080fd5b505afa158015613a1b573d6000803e3d6000fd5b505050506040513d6020811015613a3157600080fd5b50516007546001600160a01b038581169281168314935016148180613a535750805b80613ae3575060085460408051600160e01b638658b8b90281526001600160a01b0387811660048301523060248301526044820189905291519190921691638658b8b9916064808301926020929190829003018186803b158015613ab657600080fd5b505afa158015613aca573d6000803e3d6000fd5b505050506040513d6020811015613ae057600080fd5b50515b95945050505050565b600860009054906101000a90046001600160a01b03166001600160a01b0316638da5cb5b6040518163ffffffff1660e01b815260040160206040518083038186803b158015613b3a57600080fd5b505afa158015613b4e573d6000803e3d6000fd5b505050506040513d6020811015613b6457600080fd5b50516001600160a01b0316331461174b5760408051600160e51b62461bcd02815260206004820152601360248201527f53656e646572206973206e6f74206f776e657200000000000000000000000000604482015290519081900360640190fd5b60025482511115613c205760408051600160e51b62461bcd02815260206004820152601b60248201527f546f6f206d616e7920616464726573736573206578636c756465640000000000604482015290519081900360640190fd5b868611613c775760408051600160e51b62461bcd02815260206004820152601660248201527f457870697279206265666f7265206d6174757269747900000000000000000000604482015290519081900360640190fd5b428611613cce5760408051600160e51b62461bcd02815260206004820152600e60248201527f45787069727920696e2070617374000000000000000000000000000000000000604482015290519081900360640190fd5b60008411613d265760408051600160e51b62461bcd02815260206004820152601060248201527f4e6f206469766964656e642073656e7400000000000000000000000000000000604482015290519081900360640190fd5b6001600160a01b038516613d845760408051600160e51b62461bcd02815260206004820152600d60248201527f496e76616c696420746f6b656e00000000000000000000000000000000000000604482015290519081900360640190fd5b600860009054906101000a90046001600160a01b03166001600160a01b0316635488cc806040518163ffffffff1660e01b815260040160206040518083038186803b158015613dd257600080fd5b505afa158015613de6573d6000803e3d6000fd5b505050506040513d6020811015613dfc57600080fd5b5051831115613e4d5760408051600160e51b62461bcd0281526020600482015260126024820152600160721b71125b9d985b1a590818da1958dadc1bda5b9d02604482015290519081900360640190fd5b60408051600160e01b6323b872dd0281523360048201523060248201526044810186905290516001600160a01b038716916323b872dd9160648083019260209291908290030181600087803b158015613ea557600080fd5b505af1158015613eb9573d6000803e3d6000fd5b505050506040513d6020811015613ecf57600080fd5b5051613f255760408051600160e51b62461bcd02815260206004820152601560248201527f696e737566666963656e7420616c6c6f77616e63650000000000000000000000604482015290519081900360640190fd5b80613f2f57600080fd5b60035460085460408051600160e41b630981b24d0281526004810187905290516000926001600160a01b03169163981b24d0916024808301926020929190829003018186803b158015613f8157600080fd5b505afa158015613f95573d6000803e3d6000fd5b505050506040513d6020811015613fab57600080fd5b5051905080613ff85760408051600160e51b62461bcd02815260206004820152600e6024820152600160901b6d496e76616c696420737570706c7902604482015290519081900360640190fd5b604080516101608101825286815242602082019081529181018b8152606082018b8152608083018a8152600060a0850181815260c0860182815260e08701838152610100880184815261012089018581526101408a018e8152600380546001810182559088529a517fc2575a0e9e593c00f959f8c92f12db2869c3395a3b0502d05e2516446f71f85b600e909c029b8c01559a517fc2575a0e9e593c00f959f8c92f12db2869c3395a3b0502d05e2516446f71f85c8b015597517fc2575a0e9e593c00f959f8c92f12db2869c3395a3b0502d05e2516446f71f85d8a015595517fc2575a0e9e593c00f959f8c92f12db2869c3395a3b0502d05e2516446f71f85e89015593517fc2575a0e9e593c00f959f8c92f12db2869c3395a3b0502d05e2516446f71f85f88015590517fc2575a0e9e593c00f959f8c92f12db2869c3395a3b0502d05e2516446f71f860870155517fc2575a0e9e593c00f959f8c92f12db2869c3395a3b0502d05e2516446f71f86186015590517fc2575a0e9e593c00f959f8c92f12db2869c3395a3b0502d05e2516446f71f8628501805460ff191691151591909117905590517fc2575a0e9e593c00f959f8c92f12db2869c3395a3b0502d05e2516446f71f86384015590517fc2575a0e9e593c00f959f8c92f12db2869c3395a3b0502d05e2516446f71f86483015591517fc2575a0e9e593c00f959f8c92f12db2869c3395a3b0502d05e2516446f71f86890910155805b85518110156144585760006001600160a01b031686828151811061423657fe5b60200260200101516001600160a01b031614156142925760408051600160e51b62461bcd02815260206004820152600f6024820152600160881b6e496e76616c6964206164647265737302604482015290519081900360640190fd5b6003848154811061429f57fe5b90600052602060002090600e0201600b0160008783815181106142be57fe5b6020908102919091018101516001600160a01b031682528101919091526040016000205460ff161561433a5760408051600160e51b62461bcd02815260206004820152601560248201527f6475706564206578636c75646520616464726573730000000000000000000000604482015290519081900360640190fd5b60085486516143ee916001600160a01b031690634ee2cd7e9089908590811061435f57fe5b60200260200101518a6040518363ffffffff1660e01b815260040180836001600160a01b03166001600160a01b031681526020018281526020019250505060206040518083038186803b1580156143b557600080fd5b505afa1580156143c9573d6000803e3d6000fd5b505050506040513d60208110156143df57600080fd5b5051839063ffffffff614ab116565b91506001600385815481106143ff57fe5b90600052602060002090600e0201600b01600088848151811061441e57fe5b6020908102919091018101516001600160a01b03168252810191909152604001600020805460ff1916911515919091179055600101614216565b508082116144a45760408051600160e51b62461bcd02815260206004820152600e6024820152600160901b6d496e76616c696420737570706c7902604482015290519081900360640190fd5b6000818303905080600385815481106144b957fe5b60009182526020808320600e9290920290910160060192909255858152908190526040902080546001600160a01b0319166001600160a01b038b16179055614507878c8c8c8c868a8c614ac3565b5050505050505050505050565b600354811061455b5760408051600160e51b62461bcd0281526020600482015260106024820152600080516020614bd2833981519152604482015290519081900360640190fd5b6003818154811061456857fe5b600091825260209091206007600e90920201015460ff16156145d45760408051600160e51b62461bcd02815260206004820152601260248201527f4469766964656e64207265636c61696d65640000000000000000000000000000604482015290519081900360640190fd5b600381815481106145e157fe5b90600052602060002090600e02016002015442101561464a5760408051600160e51b62461bcd02815260206004820152601b60248201527f4469766964656e64206d6174757269747920696e206675747572650000000000604482015290519081900360640190fd5b6003818154811061465757fe5b90600052602060002090600e02016003015442106110945760408051600160e51b62461bcd02815260206004820152601760248201527f4469766964656e642065787069727920696e2070617374000000000000000000604482015290519081900360640190fd5b6000806146cc838661198b565b6001600160a01b0387166000908152600a870160205260409020805460ff191660011790556005860154919350915061470c90839063ffffffff614ab116565b60058501556000614723838363ffffffff6148a516565b9050801561480457600084815260208181526040808320548151600160e01b63a9059cbb0281526001600160a01b038b81166004830152602482018790529251929091169363a9059cbb9360448084019491939192918390030190829087803b15801561478f57600080fd5b505af11580156147a3573d6000803e3d6000fd5b505050506040513d60208110156147b957600080fd5b50516148045760408051600160e51b62461bcd02815260206004820152600f60248201526001608a1b6e1d1c985b9cd9995c8819985a5b195902604482015290519081900360640190fd5b811561484257600885015461481f908363ffffffff614ab116565b60088601556001600160a01b0386166000908152600c8601602052604090208290555b6000848152602081815260409182902054825186815291820185905282516001600160a01b03918216938893928b16927fced5aaa2960f7fd397627b6d68ccb25eae2d3db92a459182962e6f9b5786241a929081900390910190a4505050505050565b6000828211156148b457600080fd5b50900390565b600954600160a01b900460ff1661491b5760408051600160e51b62461bcd02815260206004820152601660248201527f436f6e7472616374206973206e6f742070617573656400000000000000000000604482015290519081900360640190fd5b60098054600160a01b60ff02191690556040805133815290517faeb196d352664784d1900b0e7414a8face7d29f4dae8c4b0cf68ed477423bbf49181900360200190a1565b60008261496f57506000611985565b8282028284828161497c57fe5b041461498757600080fd5b9392505050565b600080821161499c57600080fd5b60008284816149a757fe5b04949350505050565b6001546040516001600160a01b038084169216907f8595877311e370fe3ac87d4f6d12473603393f02ac660e68d2e5e3da5adb610c90600090a3600180546001600160a01b0319166001600160a01b0392909216919091179055565b600954600160a01b900460ff1615614a665760408051600160e51b62461bcd0281526020600482015260126024820152600160721b7110dbdb9d1c9858dd081a5cc81c185d5cd95902604482015290519081900360640190fd5b60098054600160a01b60ff021916600160a01b1790556040805133815290517f5ee71a369c8672edded508e624ffc9257fa1ae6886ef32905c18e60196bca3999181900360200190a1565b60008282018381101561498757600080fd5b6040805189815260208101899052808201889052606081018690526080810185905260a08101849052905182916001600160a01b0388169133917fc9f26fbad84e7b32db278009385cb48ff8201ed9e7cdefe89db89592953b1e9e919081900360c00190a45050505050505050565b828054828255906000526020600020908101928215614b87579160200282015b82811115614b8757825182546001600160a01b0319166001600160a01b03909116178255602090920191600190910190614b52565b506139b2926110a39250905b808211156139b25780546001600160a01b0319168155600101614b9356fe496e76616c6964207065726d697373696f6e0000000000000000000000000000496e76616c6964206469766964656e64000000000000000000000000000000006d73672e73656e646572206578636c756465642066726f6d204469766964656e64a165627a7a723058204ae4dadde34162010592461b695364e18bff7b098871da5e2eb07dc696c8e4a10029",
  "source": "pragma solidity 0.5.8;\n\nimport \"../DividendCheckpoint.sol\";\nimport \"./ERC20DividendCheckpointStorage.sol\";\nimport \"../../../../interfaces/IOwnable.sol\";\nimport \"openzeppelin-solidity/contracts/token/ERC20/IERC20.sol\";\n\n/**\n * @title Checkpoint module for issuing ERC20 dividends\n */\ncontract ERC20DividendCheckpoint is ERC20DividendCheckpointStorage, DividendCheckpoint {\n    using SafeMath for uint256;\n\n    event ERC20DividendDeposited(\n        address indexed _depositor,\n        uint256 _checkpointId,\n        uint256 _maturity,\n        uint256 _expiry,\n        address indexed _token,\n        uint256 _amount,\n        uint256 _totalSupply,\n        uint256 _dividendIndex,\n        bytes32 indexed _name\n    );\n    event ERC20DividendClaimed(address indexed _payee, uint256 indexed _dividendIndex, address indexed _token, uint256 _amount, uint256 _withheld);\n    event ERC20DividendReclaimed(address indexed _claimer, uint256 indexed _dividendIndex, address indexed _token, uint256 _claimedAmount);\n    event ERC20DividendWithholdingWithdrawn(\n        address indexed _claimer,\n        uint256 indexed _dividendIndex,\n        address indexed _token,\n        uint256 _withheldAmount\n    );\n\n    /**\n     * @notice Constructor\n     * @param _securityToken Address of the security token\n     */\n    constructor(address _securityToken, address _polyToken) public Module(_securityToken, _polyToken) {\n\n    }\n\n    /**\n     * @notice Creates a dividend and checkpoint for the dividend\n     * @param _maturity Time from which dividend can be paid\n     * @param _expiry Time until dividend can no longer be paid, and can be reclaimed by issuer\n     * @param _token Address of ERC20 token in which dividend is to be denominated\n     * @param _amount Amount of specified token for dividend\n     * @param _name Name/Title for identification\n     */\n    function createDividend(\n        uint256 _maturity,\n        uint256 _expiry,\n        address _token,\n        uint256 _amount,\n        bytes32 _name\n    )\n        external\n        withPerm(ADMIN)\n    {\n        createDividendWithExclusions(_maturity, _expiry, _token, _amount, excluded, _name);\n    }\n\n    /**\n     * @notice Creates a dividend with a provided checkpoint\n     * @param _maturity Time from which dividend can be paid\n     * @param _expiry Time until dividend can no longer be paid, and can be reclaimed by issuer\n     * @param _token Address of ERC20 token in which dividend is to be denominated\n     * @param _amount Amount of specified token for dividend\n     * @param _checkpointId Checkpoint id from which to create dividends\n     * @param _name Name/Title for identification\n     */\n    function createDividendWithCheckpoint(\n        uint256 _maturity,\n        uint256 _expiry,\n        address _token,\n        uint256 _amount,\n        uint256 _checkpointId,\n        bytes32 _name\n    )\n        external\n        withPerm(ADMIN)\n    {\n        _createDividendWithCheckpointAndExclusions(_maturity, _expiry, _token, _amount, _checkpointId, excluded, _name);\n    }\n\n    /**\n     * @notice Creates a dividend and checkpoint for the dividend\n     * @param _maturity Time from which dividend can be paid\n     * @param _expiry Time until dividend can no longer be paid, and can be reclaimed by issuer\n     * @param _token Address of ERC20 token in which dividend is to be denominated\n     * @param _amount Amount of specified token for dividend\n     * @param _excluded List of addresses to exclude\n     * @param _name Name/Title for identification\n     */\n    function createDividendWithExclusions(\n        uint256 _maturity,\n        uint256 _expiry,\n        address _token,\n        uint256 _amount,\n        address[] memory _excluded,\n        bytes32 _name\n    )\n        public\n        withPerm(ADMIN)\n    {\n        uint256 checkpointId = securityToken.createCheckpoint();\n        _createDividendWithCheckpointAndExclusions(_maturity, _expiry, _token, _amount, checkpointId, _excluded, _name);\n    }\n\n    /**\n     * @notice Creates a dividend with a provided checkpoint\n     * @param _maturity Time from which dividend can be paid\n     * @param _expiry Time until dividend can no longer be paid, and can be reclaimed by issuer\n     * @param _token Address of ERC20 token in which dividend is to be denominated\n     * @param _amount Amount of specified token for dividend\n     * @param _checkpointId Checkpoint id from which to create dividends\n     * @param _excluded List of addresses to exclude\n     * @param _name Name/Title for identification\n     */\n    function createDividendWithCheckpointAndExclusions(\n        uint256 _maturity,\n        uint256 _expiry,\n        address _token,\n        uint256 _amount,\n        uint256 _checkpointId,\n        address[] memory _excluded,\n        bytes32 _name\n    )\n        public\n        withPerm(ADMIN)\n    {\n        _createDividendWithCheckpointAndExclusions(_maturity, _expiry, _token, _amount, _checkpointId, _excluded, _name);\n    }\n\n    /**\n     * @notice Creates a dividend with a provided checkpoint\n     * @param _maturity Time from which dividend can be paid\n     * @param _expiry Time until dividend can no longer be paid, and can be reclaimed by issuer\n     * @param _token Address of ERC20 token in which dividend is to be denominated\n     * @param _amount Amount of specified token for dividend\n     * @param _checkpointId Checkpoint id from which to create dividends\n     * @param _excluded List of addresses to exclude\n     * @param _name Name/Title for identification\n     */\n    function _createDividendWithCheckpointAndExclusions(\n        uint256 _maturity,\n        uint256 _expiry,\n        address _token,\n        uint256 _amount,\n        uint256 _checkpointId,\n        address[] memory _excluded,\n        bytes32 _name\n    )\n        internal\n    {\n        require(_excluded.length <= EXCLUDED_ADDRESS_LIMIT, \"Too many addresses excluded\");\n        require(_expiry > _maturity, \"Expiry before maturity\");\n        /*solium-disable-next-line security/no-block-members*/\n        require(_expiry > now, \"Expiry in past\");\n        require(_amount > 0, \"No dividend sent\");\n        require(_token != address(0), \"Invalid token\");\n        require(_checkpointId <= securityToken.currentCheckpointId(), \"Invalid checkpoint\");\n        require(IERC20(_token).transferFrom(msg.sender, address(this), _amount), \"insufficent allowance\");\n        require(_name != bytes32(0));\n        uint256 dividendIndex = dividends.length;\n        uint256 currentSupply = securityToken.totalSupplyAt(_checkpointId);\n        require(currentSupply > 0, \"Invalid supply\");\n        uint256 excludedSupply = 0;\n        dividends.push(\n            Dividend(\n                _checkpointId,\n                now, /*solium-disable-line security/no-block-members*/\n                _maturity,\n                _expiry,\n                _amount,\n                0,\n                0,\n                false,\n                0,\n                0,\n                _name\n            )\n        );\n\n        for (uint256 j = 0; j < _excluded.length; j++) {\n            require(_excluded[j] != address(0), \"Invalid address\");\n            require(!dividends[dividendIndex].dividendExcluded[_excluded[j]], \"duped exclude address\");\n            excludedSupply = excludedSupply.add(securityToken.balanceOfAt(_excluded[j], _checkpointId));\n            dividends[dividendIndex].dividendExcluded[_excluded[j]] = true;\n        }\n        require(currentSupply > excludedSupply, \"Invalid supply\");\n        uint256 supplyForDividend = currentSupply - excludedSupply;\n        dividends[dividendIndex].totalSupply = supplyForDividend;\n        dividendTokens[dividendIndex] = _token;\n        _emitERC20DividendDepositedEvent(_checkpointId, _maturity, _expiry, _token, _amount, supplyForDividend, dividendIndex, _name);\n    }\n\n    /**\n     * @notice Emits the ERC20DividendDeposited event.\n     * Seperated into a different function as a workaround for stack too deep error\n     */\n    function _emitERC20DividendDepositedEvent(\n        uint256 _checkpointId,\n        uint256 _maturity,\n        uint256 _expiry,\n        address _token,\n        uint256 _amount,\n        uint256 currentSupply,\n        uint256 dividendIndex,\n        bytes32 _name\n    )\n        internal\n    {\n        /*solium-disable-next-line security/no-block-members*/\n        emit ERC20DividendDeposited(\n            msg.sender,\n            _checkpointId,\n            _maturity,\n            _expiry,\n            _token,\n            _amount,\n            currentSupply,\n            dividendIndex,\n            _name\n        );\n    }\n\n    /**\n     * @notice Internal function for paying dividends\n     * @param _payee Address of investor\n     * @param _dividend Storage with previously issued dividends\n     * @param _dividendIndex Dividend to pay\n     */\n    function _payDividend(address payable _payee, Dividend storage _dividend, uint256 _dividendIndex) internal {\n        (uint256 claim, uint256 withheld) = calculateDividend(_dividendIndex, _payee);\n        _dividend.claimed[_payee] = true;\n        _dividend.claimedAmount = claim.add(_dividend.claimedAmount);\n        uint256 claimAfterWithheld = claim.sub(withheld);\n        if (claimAfterWithheld > 0) {\n            require(IERC20(dividendTokens[_dividendIndex]).transfer(_payee, claimAfterWithheld), \"transfer failed\");\n        }\n        if (withheld > 0) {\n            _dividend.totalWithheld = _dividend.totalWithheld.add(withheld);\n            _dividend.withheld[_payee] = withheld;\n        }\n        emit ERC20DividendClaimed(_payee, _dividendIndex, dividendTokens[_dividendIndex], claim, withheld);\n    }\n\n    /**\n     * @notice Issuer can reclaim remaining unclaimed dividend amounts, for expired dividends\n     * @param _dividendIndex Dividend to reclaim\n     */\n    function reclaimDividend(uint256 _dividendIndex) external withPerm(OPERATOR) {\n        require(_dividendIndex < dividends.length, \"Invalid dividend\");\n        /*solium-disable-next-line security/no-block-members*/\n        require(now >= dividends[_dividendIndex].expiry, \"Dividend expiry in future\");\n        require(!dividends[_dividendIndex].reclaimed, \"already claimed\");\n        dividends[_dividendIndex].reclaimed = true;\n        Dividend storage dividend = dividends[_dividendIndex];\n        uint256 remainingAmount = dividend.amount.sub(dividend.claimedAmount);\n        require(IERC20(dividendTokens[_dividendIndex]).transfer(getTreasuryWallet(), remainingAmount), \"transfer failed\");\n        emit ERC20DividendReclaimed(wallet, _dividendIndex, dividendTokens[_dividendIndex], remainingAmount);\n    }\n\n    /**\n     * @notice Allows issuer to withdraw withheld tax\n     * @param _dividendIndex Dividend to withdraw from\n     */\n    function withdrawWithholding(uint256 _dividendIndex) external withPerm(OPERATOR) {\n        require(_dividendIndex < dividends.length, \"Invalid dividend\");\n        Dividend storage dividend = dividends[_dividendIndex];\n        uint256 remainingWithheld = dividend.totalWithheld.sub(dividend.totalWithheldWithdrawn);\n        dividend.totalWithheldWithdrawn = dividend.totalWithheld;\n        require(IERC20(dividendTokens[_dividendIndex]).transfer(getTreasuryWallet(), remainingWithheld), \"transfer failed\");\n        emit ERC20DividendWithholdingWithdrawn(wallet, _dividendIndex, dividendTokens[_dividendIndex], remainingWithheld);\n    }\n\n}\n",
  "sourcePath": "/Users/federicoelgarte/Polymath/polymath-core/contracts/modules/Checkpoint/Dividend/ERC20/ERC20DividendCheckpoint.sol",
  "compiler": {
    "name": "solc",
    "version": "0.5.8+commit.23d335f2.Emscripten.clang"
  },
  "schemaVersion": "3.0.12",
  "updatedAt": "2019-09-24T16:14:04.246Z",
  "devdoc": {
    "methods": {
      "calculateDividend(uint256,address)": {
        "params": {
          "_dividendIndex": "Dividend to calculate",
          "_payee": "Affected investor address"
        },
        "return": "claim, withheld amounts"
      },
      "changeWallet(address)": {
        "params": {
          "_wallet": "Ethereum account address to receive reclaimed dividends and tax"
        }
      },
      "configure(address)": {
        "params": {
          "_wallet": "Ethereum account address to receive reclaimed dividends and tax"
        }
      },
      "constructor": {
        "params": {
          "_securityToken": "Address of the security token"
        }
      },
      "createCheckpoint()": {
        "return": "Checkpoint ID"
      },
      "createDividend(uint256,uint256,address,uint256,bytes32)": {
        "params": {
          "_amount": "Amount of specified token for dividend",
          "_expiry": "Time until dividend can no longer be paid, and can be reclaimed by issuer",
          "_maturity": "Time from which dividend can be paid",
          "_name": "Name/Title for identification",
          "_token": "Address of ERC20 token in which dividend is to be denominated"
        }
      },
      "createDividendWithCheckpoint(uint256,uint256,address,uint256,uint256,bytes32)": {
        "params": {
          "_amount": "Amount of specified token for dividend",
          "_checkpointId": "Checkpoint id from which to create dividends",
          "_expiry": "Time until dividend can no longer be paid, and can be reclaimed by issuer",
          "_maturity": "Time from which dividend can be paid",
          "_name": "Name/Title for identification",
          "_token": "Address of ERC20 token in which dividend is to be denominated"
        }
      },
      "createDividendWithCheckpointAndExclusions(uint256,uint256,address,uint256,uint256,address[],bytes32)": {
        "params": {
          "_amount": "Amount of specified token for dividend",
          "_checkpointId": "Checkpoint id from which to create dividends",
          "_excluded": "List of addresses to exclude",
          "_expiry": "Time until dividend can no longer be paid, and can be reclaimed by issuer",
          "_maturity": "Time from which dividend can be paid",
          "_name": "Name/Title for identification",
          "_token": "Address of ERC20 token in which dividend is to be denominated"
        }
      },
      "createDividendWithExclusions(uint256,uint256,address,uint256,address[],bytes32)": {
        "params": {
          "_amount": "Amount of specified token for dividend",
          "_excluded": "List of addresses to exclude",
          "_expiry": "Time until dividend can no longer be paid, and can be reclaimed by issuer",
          "_maturity": "Time from which dividend can be paid",
          "_name": "Name/Title for identification",
          "_token": "Address of ERC20 token in which dividend is to be denominated"
        }
      },
      "getCheckpointData(uint256)": {
        "params": {
          "_checkpointId": "Checkpoint Id to query for"
        },
        "return": "address[] list of investorsuint256[] investor balancesuint256[] investor withheld percentages"
      },
      "getDefaultExcluded()": {
        "return": "List of excluded addresses"
      },
      "getDividendData(uint256)": {
        "return": "uint256 timestamp of dividend creationuint256 timestamp of dividend maturityuint256 timestamp of dividend expiryuint256 amount of dividenduint256 claimed amount of dividendbytes32 name of dividend"
      },
      "getDividendIndex(uint256)": {
        "params": {
          "_checkpointId": "Checkpoint id to query"
        },
        "return": "uint256[]"
      },
      "getDividendProgress(uint256)": {
        "params": {
          "_dividendIndex": "Dividend to withdraw from"
        },
        "return": "address[] list of investorsbool[] whether investor has claimedbool[] whether investor is excludeduint256[] amount of withheld tax (estimate if not claimed)uint256[] amount of claim (estimate if not claimeed)uint256[] investor balance"
      },
      "getDividendsData()": {
        "return": "uint256[] timestamp of dividends creationuint256[] timestamp of dividends maturityuint256[] timestamp of dividends expiryuint256[] amount of dividendsuint256[] claimed amount of dividendsbytes32[] name of dividends"
      },
      "getInitFunction()": {
        "return": "bytes4"
      },
      "getPermissions()": {
        "return": "bytes32 array"
      },
      "isClaimed(address,uint256)": {
        "params": {
          "_dividendIndex": "Dividend to withdraw from",
          "_investor": "Investor address being checked"
        },
        "return": "bool whether the address has claimed"
      },
      "isExcluded(address,uint256)": {
        "params": {
          "_dividendIndex": "Dividend to withdraw from",
          "_investor": "Investor address being checked"
        },
        "return": "bool whether the address is excluded"
      },
      "pullDividendPayment(uint256)": {
        "params": {
          "_dividendIndex": "Dividend to pull"
        }
      },
      "pushDividendPayment(uint256,uint256,uint256)": {
        "params": {
          "_dividendIndex": "Dividend to push",
          "_end": "Index in investor list at which to stop pushing dividends",
          "_start": "Index in investor list at which to start pushing dividends"
        }
      },
      "pushDividendPaymentToAddresses(uint256,address[])": {
        "params": {
          "_dividendIndex": "Dividend to push",
          "_payees": "Addresses to which to push the dividend"
        }
      },
      "reclaimDividend(uint256)": {
        "params": {
          "_dividendIndex": "Dividend to reclaim"
        }
      },
      "reclaimERC20(address)": {
        "details": "We duplicate here due to the overriden owner & onlyOwner",
        "params": {
          "_tokenContract": "The address of the token contract"
        }
      },
      "reclaimETH()": {
        "details": "We duplicate here due to the overriden owner & onlyOwner"
      },
      "setDefaultExcluded(address[])": {
        "params": {
          "_excluded": "Addresses of investors"
        }
      },
      "setWithholding(address[],uint256[])": {
        "params": {
          "_investors": "Addresses of investors",
          "_withholding": "Withholding tax for individual investors (multiplied by 10**16)"
        }
      },
      "setWithholdingFixed(address[],uint256)": {
        "params": {
          "_investors": "Addresses of investor",
          "_withholding": "Withholding tax for all investors (multiplied by 10**16)"
        }
      },
      "updateDividendDates(uint256,uint256,uint256)": {
        "details": "NB - setting the maturity of a currently matured dividend to a future datewill effectively refreeze claims on that dividend until the new maturity date passes dev NB - setting the expiry date to a past date will mean no more payments can be pulledor pushed out of a dividend",
        "params": {
          "_dividendIndex": "Dividend to withdraw from",
          "_expiry": "updated expiry date",
          "_maturity": "updated maturity date"
        }
      },
      "withdrawWithholding(uint256)": {
        "params": {
          "_dividendIndex": "Dividend to withdraw from"
        }
      }
    },
    "title": "Checkpoint module for issuing ERC20 dividends"
  },
  "userdoc": {
    "methods": {
      "calculateDividend(uint256,address)": {
        "notice": "Calculate amount of dividends claimable"
      },
      "changeWallet(address)": {
        "notice": "Function used to change wallet address"
      },
      "configure(address)": {
        "notice": "Function used to intialize the contract variables"
      },
      "constructor": "Constructor",
      "createCheckpoint()": {
        "notice": "Creates a checkpoint on the security token"
      },
      "createDividend(uint256,uint256,address,uint256,bytes32)": {
        "notice": "Creates a dividend and checkpoint for the dividend"
      },
      "createDividendWithCheckpoint(uint256,uint256,address,uint256,uint256,bytes32)": {
        "notice": "Creates a dividend with a provided checkpoint"
      },
      "createDividendWithCheckpointAndExclusions(uint256,uint256,address,uint256,uint256,address[],bytes32)": {
        "notice": "Creates a dividend with a provided checkpoint"
      },
      "createDividendWithExclusions(uint256,uint256,address,uint256,address[],bytes32)": {
        "notice": "Creates a dividend and checkpoint for the dividend"
      },
      "getCheckpointData(uint256)": {
        "notice": "Retrieves list of investors, their balances, and their current withholding tax percentage"
      },
      "getDataStore()": {
        "notice": "used to return the data store address of securityToken"
      },
      "getDefaultExcluded()": {
        "notice": "Return the default excluded addresses"
      },
      "getDividendData(uint256)": {
        "notice": "Get static dividend data"
      },
      "getDividendIndex(uint256)": {
        "notice": "Get the index according to the checkpoint id"
      },
      "getDividendProgress(uint256)": {
        "notice": "Retrieves list of investors, their claim status and whether they are excluded"
      },
      "getDividendsData()": {
        "notice": "Get static dividend data"
      },
      "getInitFunction()": {
        "notice": "Init function i.e generalise function to maintain the structure of the module contract"
      },
      "getPermissions()": {
        "notice": "Return the permissions flag that are associated with this module"
      },
      "getTreasuryWallet()": {
        "notice": "Returns the treasury wallet address"
      },
      "isClaimed(address,uint256)": {
        "notice": "Checks whether an address has claimed a dividend"
      },
      "isExcluded(address,uint256)": {
        "notice": "Checks whether an address is excluded from claiming a dividend"
      },
      "pause()": {
        "notice": "Pause (overridden function)"
      },
      "pullDividendPayment(uint256)": {
        "notice": "Investors can pull their own dividends"
      },
      "pushDividendPayment(uint256,uint256,uint256)": {
        "notice": "Issuer can push dividends using the investor list from the security token"
      },
      "pushDividendPaymentToAddresses(uint256,address[])": {
        "notice": "Issuer can push dividends to provided addresses"
      },
      "reclaimDividend(uint256)": {
        "notice": "Issuer can reclaim remaining unclaimed dividend amounts, for expired dividends"
      },
      "reclaimERC20(address)": {
        "notice": "Reclaims ERC20Basic compatible tokens"
      },
      "reclaimETH()": {
        "notice": "Reclaims ETH"
      },
      "setDefaultExcluded(address[])": {
        "notice": "Function to clear and set list of excluded addresses used for future dividends"
      },
      "setWithholding(address[],uint256[])": {
        "notice": "Function to set withholding tax rates for investors"
      },
      "setWithholdingFixed(address[],uint256)": {
        "notice": "Function to set withholding tax rates for investors"
      },
      "unpause()": {
        "notice": "Unpause (overridden function)"
      },
      "updateDividendDates(uint256,uint256,uint256)": {
        "notice": "Allows issuer to change maturity / expiry dates for dividends"
      },
      "withdrawWithholding(uint256)": {
        "notice": "Allows issuer to withdraw withheld tax"
      }
    }
  }
}