{
  "contractName": "ERC20DividendCheckpoint",
  "abi": [
    {
      "constant": false,
      "inputs": [
        {
          "name": "_investors",
          "type": "address[]"
        },
        {
          "name": "_withholding",
          "type": "uint256"
        }
      ],
      "name": "setWithholdingFixed",
      "outputs": [],
      "payable": false,
      "stateMutability": "nonpayable",
      "type": "function"
    },
    {
      "constant": true,
      "inputs": [],
      "name": "EXCLUDED_ADDRESS_LIMIT",
      "outputs": [
        {
          "name": "",
          "type": "uint256"
        }
      ],
      "payable": false,
      "stateMutability": "view",
      "type": "function"
    },
    {
      "constant": false,
      "inputs": [],
      "name": "reclaimETH",
      "outputs": [],
      "payable": false,
      "stateMutability": "nonpayable",
      "type": "function"
    },
    {
      "constant": true,
      "inputs": [],
      "name": "getInitFunction",
      "outputs": [
        {
          "name": "",
          "type": "bytes4"
        }
      ],
      "payable": false,
      "stateMutability": "pure",
      "type": "function"
    },
    {
      "constant": true,
      "inputs": [
        {
          "name": "_dividendIndex",
          "type": "uint256"
        }
      ],
      "name": "getDividendData",
      "outputs": [
        {
          "name": "created",
          "type": "uint256"
        },
        {
          "name": "maturity",
          "type": "uint256"
        },
        {
          "name": "expiry",
          "type": "uint256"
        },
        {
          "name": "amount",
          "type": "uint256"
        },
        {
          "name": "claimedAmount",
          "type": "uint256"
        },
        {
          "name": "name",
          "type": "bytes32"
        }
      ],
      "payable": false,
      "stateMutability": "view",
      "type": "function"
    },
    {
      "constant": true,
      "inputs": [],
      "name": "ADMIN",
      "outputs": [
        {
          "name": "",
          "type": "bytes32"
        }
      ],
      "payable": false,
      "stateMutability": "view",
      "type": "function"
    },
    {
      "constant": true,
      "inputs": [],
      "name": "getTreasuryWallet",
      "outputs": [
        {
          "name": "",
          "type": "address"
        }
      ],
      "payable": false,
      "stateMutability": "view",
      "type": "function"
    },
    {
      "constant": false,
      "inputs": [
        {
          "name": "_dividendIndex",
          "type": "uint256"
        }
      ],
      "name": "pullDividendPayment",
      "outputs": [],
      "payable": false,
      "stateMutability": "nonpayable",
      "type": "function"
    },
    {
      "constant": true,
      "inputs": [
        {
          "name": "",
          "type": "address"
        }
      ],
      "name": "investorWithheld",
      "outputs": [
        {
          "name": "",
          "type": "uint256"
        }
      ],
      "payable": false,
      "stateMutability": "view",
      "type": "function"
    },
    {
      "constant": false,
      "inputs": [],
      "name": "unpause",
      "outputs": [],
      "payable": false,
      "stateMutability": "nonpayable",
      "type": "function"
    },
    {
      "constant": false,
      "inputs": [
        {
          "name": "_dividendIndex",
          "type": "uint256"
        },
        {
          "name": "_payees",
          "type": "address[]"
        }
      ],
      "name": "pushDividendPaymentToAddresses",
      "outputs": [],
      "payable": false,
      "stateMutability": "nonpayable",
      "type": "function"
    },
    {
      "constant": true,
      "inputs": [],
      "name": "wallet",
      "outputs": [
        {
          "name": "",
          "type": "address"
        }
      ],
      "payable": false,
      "stateMutability": "view",
      "type": "function"
    },
    {
      "constant": true,
      "inputs": [
        {
          "name": "_investor",
          "type": "address"
        },
        {
          "name": "_dividendIndex",
          "type": "uint256"
        }
      ],
      "name": "isClaimed",
      "outputs": [
        {
          "name": "",
          "type": "bool"
        }
      ],
      "payable": false,
      "stateMutability": "view",
      "type": "function"
    },
    {
      "constant": true,
      "inputs": [
        {
          "name": "_dividendIndex",
          "type": "uint256"
        },
        {
          "name": "_payee",
          "type": "address"
        }
      ],
      "name": "calculateDividend",
      "outputs": [
        {
          "name": "",
          "type": "uint256"
        },
        {
          "name": "",
          "type": "uint256"
        }
      ],
      "payable": false,
      "stateMutability": "view",
      "type": "function"
    },
    {
      "constant": true,
      "inputs": [],
      "name": "paused",
      "outputs": [
        {
          "name": "",
          "type": "bool"
        }
      ],
      "payable": false,
      "stateMutability": "view",
      "type": "function"
    },
    {
      "constant": true,
      "inputs": [
        {
          "name": "_checkpointId",
          "type": "uint256"
        }
      ],
      "name": "getDividendIndex",
      "outputs": [
        {
          "name": "",
          "type": "uint256[]"
        }
      ],
      "payable": false,
      "stateMutability": "view",
      "type": "function"
    },
    {
      "constant": true,
      "inputs": [],
      "name": "polyToken",
      "outputs": [
        {
          "name": "",
          "type": "address"
        }
      ],
      "payable": false,
      "stateMutability": "view",
      "type": "function"
    },
    {
      "constant": false,
      "inputs": [
        {
          "name": "_dividendIndex",
          "type": "uint256"
        },
        {
          "name": "_maturity",
          "type": "uint256"
        },
        {
          "name": "_expiry",
          "type": "uint256"
        }
      ],
      "name": "updateDividendDates",
      "outputs": [],
      "payable": false,
      "stateMutability": "nonpayable",
      "type": "function"
    },
    {
      "constant": false,
      "inputs": [
        {
          "name": "_wallet",
          "type": "address"
        }
      ],
      "name": "configure",
      "outputs": [],
      "payable": false,
      "stateMutability": "nonpayable",
      "type": "function"
    },
    {
      "constant": true,
      "inputs": [
        {
          "name": "",
          "type": "address"
        }
      ],
      "name": "withholdingTax",
      "outputs": [
        {
          "name": "",
          "type": "uint256"
        }
      ],
      "payable": false,
      "stateMutability": "view",
      "type": "function"
    },
    {
      "constant": true,
      "inputs": [
        {
          "name": "_checkpointId",
          "type": "uint256"
        }
      ],
      "name": "getCheckpointData",
      "outputs": [
        {
          "name": "investors",
          "type": "address[]"
        },
        {
          "name": "balances",
          "type": "uint256[]"
        },
        {
          "name": "withholdings",
          "type": "uint256[]"
        }
      ],
      "payable": false,
      "stateMutability": "view",
      "type": "function"
    },
    {
      "constant": true,
      "inputs": [
        {
          "name": "",
          "type": "uint256"
        }
      ],
      "name": "dividends",
      "outputs": [
        {
          "name": "checkpointId",
          "type": "uint256"
        },
        {
          "name": "created",
          "type": "uint256"
        },
        {
          "name": "maturity",
          "type": "uint256"
        },
        {
          "name": "expiry",
          "type": "uint256"
        },
        {
          "name": "amount",
          "type": "uint256"
        },
        {
          "name": "claimedAmount",
          "type": "uint256"
        },
        {
          "name": "totalSupply",
          "type": "uint256"
        },
        {
          "name": "reclaimed",
          "type": "bool"
        },
        {
          "name": "totalWithheld",
          "type": "uint256"
        },
        {
          "name": "totalWithheldWithdrawn",
          "type": "uint256"
        },
        {
          "name": "name",
          "type": "bytes32"
        }
      ],
      "payable": false,
      "stateMutability": "view",
      "type": "function"
    },
    {
      "constant": true,
      "inputs": [
        {
          "name": "_investor",
          "type": "address"
        },
        {
          "name": "_dividendIndex",
          "type": "uint256"
        }
      ],
      "name": "isExcluded",
      "outputs": [
        {
          "name": "",
          "type": "bool"
        }
      ],
      "payable": false,
      "stateMutability": "view",
      "type": "function"
    },
    {
      "constant": false,
      "inputs": [],
      "name": "pause",
      "outputs": [],
      "payable": false,
      "stateMutability": "nonpayable",
      "type": "function"
    },
    {
      "constant": false,
      "inputs": [
        {
          "name": "_investors",
          "type": "address[]"
        },
        {
          "name": "_withholding",
          "type": "uint256[]"
        }
      ],
      "name": "setWithholding",
      "outputs": [],
      "payable": false,
      "stateMutability": "nonpayable",
      "type": "function"
    },
    {
      "constant": false,
      "inputs": [
        {
          "name": "_tokenContract",
          "type": "address"
        }
      ],
      "name": "reclaimERC20",
      "outputs": [],
      "payable": false,
      "stateMutability": "nonpayable",
      "type": "function"
    },
    {
      "constant": true,
      "inputs": [
        {
          "name": "",
          "type": "uint256"
        }
      ],
      "name": "dividendTokens",
      "outputs": [
        {
          "name": "",
          "type": "address"
        }
      ],
      "payable": false,
      "stateMutability": "view",
      "type": "function"
    },
    {
      "constant": true,
      "inputs": [],
      "name": "OPERATOR",
      "outputs": [
        {
          "name": "",
          "type": "bytes32"
        }
      ],
      "payable": false,
      "stateMutability": "view",
      "type": "function"
    },
    {
      "constant": false,
      "inputs": [
        {
          "name": "_wallet",
          "type": "address"
        }
      ],
      "name": "changeWallet",
      "outputs": [],
      "payable": false,
      "stateMutability": "nonpayable",
      "type": "function"
    },
    {
      "constant": true,
      "inputs": [],
      "name": "getDividendsData",
      "outputs": [
        {
          "name": "createds",
          "type": "uint256[]"
        },
        {
          "name": "maturitys",
          "type": "uint256[]"
        },
        {
          "name": "expirys",
          "type": "uint256[]"
        },
        {
          "name": "amounts",
          "type": "uint256[]"
        },
        {
          "name": "claimedAmounts",
          "type": "uint256[]"
        },
        {
          "name": "names",
          "type": "bytes32[]"
        }
      ],
      "payable": false,
      "stateMutability": "view",
      "type": "function"
    },
    {
      "constant": true,
      "inputs": [],
      "name": "securityToken",
      "outputs": [
        {
          "name": "",
          "type": "address"
        }
      ],
      "payable": false,
      "stateMutability": "view",
      "type": "function"
    },
    {
      "constant": true,
      "inputs": [
        {
          "name": "",
          "type": "uint256"
        }
      ],
      "name": "excluded",
      "outputs": [
        {
          "name": "",
          "type": "address"
        }
      ],
      "payable": false,
      "stateMutability": "view",
      "type": "function"
    },
    {
      "constant": true,
      "inputs": [],
      "name": "getPermissions",
      "outputs": [
        {
          "name": "",
          "type": "bytes32[]"
        }
      ],
      "payable": false,
      "stateMutability": "view",
      "type": "function"
    },
    {
      "constant": true,
      "inputs": [],
      "name": "factory",
      "outputs": [
        {
          "name": "",
          "type": "address"
        }
      ],
      "payable": false,
      "stateMutability": "view",
      "type": "function"
    },
    {
      "constant": false,
      "inputs": [
        {
          "name": "_excluded",
          "type": "address[]"
        }
      ],
      "name": "setDefaultExcluded",
      "outputs": [],
      "payable": false,
      "stateMutability": "nonpayable",
      "type": "function"
    },
    {
      "constant": false,
      "inputs": [
        {
          "name": "_dividendIndex",
          "type": "uint256"
        },
        {
          "name": "_start",
          "type": "uint256"
        },
        {
          "name": "_end",
          "type": "uint256"
        }
      ],
      "name": "pushDividendPayment",
      "outputs": [],
      "payable": false,
      "stateMutability": "nonpayable",
      "type": "function"
    },
    {
      "constant": true,
      "inputs": [],
      "name": "getDefaultExcluded",
      "outputs": [
        {
          "name": "",
          "type": "address[]"
        }
      ],
      "payable": false,
      "stateMutability": "view",
      "type": "function"
    },
    {
      "constant": true,
      "inputs": [
        {
          "name": "_dividendIndex",
          "type": "uint256"
        }
      ],
      "name": "getDividendProgress",
      "outputs": [
        {
          "name": "investors",
          "type": "address[]"
        },
        {
          "name": "resultClaimed",
          "type": "bool[]"
        },
        {
          "name": "resultExcluded",
          "type": "bool[]"
        },
        {
          "name": "resultWithheld",
          "type": "uint256[]"
        },
        {
          "name": "resultAmount",
          "type": "uint256[]"
        },
        {
          "name": "resultBalance",
          "type": "uint256[]"
        }
      ],
      "payable": false,
      "stateMutability": "view",
      "type": "function"
    },
    {
      "constant": true,
      "inputs": [],
      "name": "getDataStore",
      "outputs": [
        {
          "name": "",
          "type": "address"
        }
      ],
      "payable": false,
      "stateMutability": "view",
      "type": "function"
    },
    {
      "constant": false,
      "inputs": [],
      "name": "createCheckpoint",
      "outputs": [
        {
          "name": "",
          "type": "uint256"
        }
      ],
      "payable": false,
      "stateMutability": "nonpayable",
      "type": "function"
    },
    {
      "inputs": [
        {
          "name": "_securityToken",
          "type": "address"
        },
        {
          "name": "_polyToken",
          "type": "address"
        }
      ],
      "payable": false,
      "stateMutability": "nonpayable",
      "type": "constructor"
    },
    {
      "anonymous": false,
      "inputs": [
        {
          "indexed": true,
          "name": "_depositor",
          "type": "address"
        },
        {
          "indexed": false,
          "name": "_checkpointId",
          "type": "uint256"
        },
        {
          "indexed": false,
          "name": "_maturity",
          "type": "uint256"
        },
        {
          "indexed": false,
          "name": "_expiry",
          "type": "uint256"
        },
        {
          "indexed": true,
          "name": "_token",
          "type": "address"
        },
        {
          "indexed": false,
          "name": "_amount",
          "type": "uint256"
        },
        {
          "indexed": false,
          "name": "_totalSupply",
          "type": "uint256"
        },
        {
          "indexed": false,
          "name": "_dividendIndex",
          "type": "uint256"
        },
        {
          "indexed": true,
          "name": "_name",
          "type": "bytes32"
        }
      ],
      "name": "ERC20DividendDeposited",
      "type": "event"
    },
    {
      "anonymous": false,
      "inputs": [
        {
          "indexed": true,
          "name": "_payee",
          "type": "address"
        },
        {
          "indexed": true,
          "name": "_dividendIndex",
          "type": "uint256"
        },
        {
          "indexed": true,
          "name": "_token",
          "type": "address"
        },
        {
          "indexed": false,
          "name": "_amount",
          "type": "uint256"
        },
        {
          "indexed": false,
          "name": "_withheld",
          "type": "uint256"
        }
      ],
      "name": "ERC20DividendClaimed",
      "type": "event"
    },
    {
      "anonymous": false,
      "inputs": [
        {
          "indexed": true,
          "name": "_claimer",
          "type": "address"
        },
        {
          "indexed": true,
          "name": "_dividendIndex",
          "type": "uint256"
        },
        {
          "indexed": true,
          "name": "_token",
          "type": "address"
        },
        {
          "indexed": false,
          "name": "_claimedAmount",
          "type": "uint256"
        }
      ],
      "name": "ERC20DividendReclaimed",
      "type": "event"
    },
    {
      "anonymous": false,
      "inputs": [
        {
          "indexed": true,
          "name": "_claimer",
          "type": "address"
        },
        {
          "indexed": true,
          "name": "_dividendIndex",
          "type": "uint256"
        },
        {
          "indexed": true,
          "name": "_token",
          "type": "address"
        },
        {
          "indexed": false,
          "name": "_withheldAmount",
          "type": "uint256"
        }
      ],
      "name": "ERC20DividendWithholdingWithdrawn",
      "type": "event"
    },
    {
      "anonymous": false,
      "inputs": [
        {
          "indexed": false,
          "name": "_excluded",
          "type": "address[]"
        }
      ],
      "name": "SetDefaultExcludedAddresses",
      "type": "event"
    },
    {
      "anonymous": false,
      "inputs": [
        {
          "indexed": false,
          "name": "_investors",
          "type": "address[]"
        },
        {
          "indexed": false,
          "name": "_withholding",
          "type": "uint256[]"
        }
      ],
      "name": "SetWithholding",
      "type": "event"
    },
    {
      "anonymous": false,
      "inputs": [
        {
          "indexed": false,
          "name": "_investors",
          "type": "address[]"
        },
        {
          "indexed": false,
          "name": "_withholding",
          "type": "uint256"
        }
      ],
      "name": "SetWithholdingFixed",
      "type": "event"
    },
    {
      "anonymous": false,
      "inputs": [
        {
          "indexed": true,
          "name": "_oldWallet",
          "type": "address"
        },
        {
          "indexed": true,
          "name": "_newWallet",
          "type": "address"
        }
      ],
      "name": "SetWallet",
      "type": "event"
    },
    {
      "anonymous": false,
      "inputs": [
        {
          "indexed": true,
          "name": "_dividendIndex",
          "type": "uint256"
        },
        {
          "indexed": false,
          "name": "_maturity",
          "type": "uint256"
        },
        {
          "indexed": false,
          "name": "_expiry",
          "type": "uint256"
        }
      ],
      "name": "UpdateDividendDates",
      "type": "event"
    },
    {
      "anonymous": false,
      "inputs": [
        {
          "indexed": false,
          "name": "account",
          "type": "address"
        }
      ],
      "name": "Pause",
      "type": "event"
    },
    {
      "anonymous": false,
      "inputs": [
        {
          "indexed": false,
          "name": "account",
          "type": "address"
        }
      ],
      "name": "Unpause",
      "type": "event"
    },
    {
      "constant": false,
      "inputs": [
        {
          "name": "_maturity",
          "type": "uint256"
        },
        {
          "name": "_expiry",
          "type": "uint256"
        },
        {
          "name": "_token",
          "type": "address"
        },
        {
          "name": "_amount",
          "type": "uint256"
        },
        {
          "name": "_name",
          "type": "bytes32"
        }
      ],
      "name": "createDividend",
      "outputs": [],
      "payable": false,
      "stateMutability": "nonpayable",
      "type": "function"
    },
    {
      "constant": false,
      "inputs": [
        {
          "name": "_maturity",
          "type": "uint256"
        },
        {
          "name": "_expiry",
          "type": "uint256"
        },
        {
          "name": "_token",
          "type": "address"
        },
        {
          "name": "_amount",
          "type": "uint256"
        },
        {
          "name": "_checkpointId",
          "type": "uint256"
        },
        {
          "name": "_name",
          "type": "bytes32"
        }
      ],
      "name": "createDividendWithCheckpoint",
      "outputs": [],
      "payable": false,
      "stateMutability": "nonpayable",
      "type": "function"
    },
    {
      "constant": false,
      "inputs": [
        {
          "name": "_maturity",
          "type": "uint256"
        },
        {
          "name": "_expiry",
          "type": "uint256"
        },
        {
          "name": "_token",
          "type": "address"
        },
        {
          "name": "_amount",
          "type": "uint256"
        },
        {
          "name": "_excluded",
          "type": "address[]"
        },
        {
          "name": "_name",
          "type": "bytes32"
        }
      ],
      "name": "createDividendWithExclusions",
      "outputs": [],
      "payable": false,
      "stateMutability": "nonpayable",
      "type": "function"
    },
    {
      "constant": false,
      "inputs": [
        {
          "name": "_maturity",
          "type": "uint256"
        },
        {
          "name": "_expiry",
          "type": "uint256"
        },
        {
          "name": "_token",
          "type": "address"
        },
        {
          "name": "_amount",
          "type": "uint256"
        },
        {
          "name": "_checkpointId",
          "type": "uint256"
        },
        {
          "name": "_excluded",
          "type": "address[]"
        },
        {
          "name": "_name",
          "type": "bytes32"
        }
      ],
      "name": "createDividendWithCheckpointAndExclusions",
      "outputs": [],
      "payable": false,
      "stateMutability": "nonpayable",
      "type": "function"
    },
    {
      "constant": false,
      "inputs": [
        {
          "name": "_dividendIndex",
          "type": "uint256"
        }
      ],
      "name": "reclaimDividend",
      "outputs": [],
      "payable": false,
      "stateMutability": "nonpayable",
      "type": "function"
    },
    {
      "constant": false,
      "inputs": [
        {
          "name": "_dividendIndex",
          "type": "uint256"
        }
      ],
      "name": "withdrawWithholding",
      "outputs": [],
      "payable": false,
      "stateMutability": "nonpayable",
      "type": "function"
    }
  ],
  "bytecode": "0x608060405260966002556009805460a060020a60ff021916905534801561002557600080fd5b5060405160408062004ef68339810180604052604081101561004657600080fd5b50805160209091015160088054600160a060020a03938416600160a060020a0319918216179091556007805482163317905560098054939092169216919091179055614e5e80620000986000396000f3fe608060405234801561001057600080fd5b506004361061028e5760003560e060020a900480637a3e23fd11610160578063ac121dbf116100d2578063cc1556dc1161008b578063cc1556dc14610dfe578063e1726faa14610ea1578063f1e9d10014610eca578063fa67a7bb14610ed2578063fe58265e14610eef578063ff0b9c9014610ef75761028e565b8063ac121dbf14610bd6578063b7e1fd9b14610d8b578063b84dfbd214610dc9578063bee2ddc214610dd1578063c3a07df614610dee578063c45a015514610df65761028e565b80638596e6e6116101245780638596e6e614610a215780638905fd4f14610b4857806395ec5bbe14610b6e578063983d273714610b8b57806398b9a2dc14610b93578063aa8b76ea14610bb95761028e565b80637a3e23fd146108575780637b4a223b1461087d578063814b3fe01461097857806381e97b66146109ed5780638456cb5914610a195761028e565b80633f4ba83a116102045780635c975abb116101bd5780635c975abb146107475780635daff64e1461074f5780636e742c77146107bc5780636faa22a51461080057806373e9e1a31461080857806375cb2672146108315761028e565b80633f4ba83a1461053b57806343647a62146105435780634d58e41314610610578063521eb273146106ba578063562beba8146106c25780635bea0e1c146107025761028e565b806328d1feda1161025657806328d1feda1461045f5780632a0acc6a146104af5780632c035b74146104b757806330008b48146104db578063333cffe5146104f85780633f2e3165146105155761028e565b80630945812e146102935780630a29f5911461033a5780630f144a48146103545780631613ec9d1461035c57806322018ce714610399575b600080fd5b610338600480360360408110156102a957600080fd5b8101906020810181356401000000008111156102c457600080fd5b8201836020820111156102d657600080fd5b803590602001918460208302840111640100000000831117156102f857600080fd5b9190808060200260200160405190810160405280939291908181526020018383602002808284376000920191909152509295505091359250610eff915050565b005b610342611083565b60408051918252519081900360200190f35b610338611089565b6103646110c1565b604080517fffffffff000000000000000000000000000000000000000000000000000000009092168252519081900360200190f35b610338600480360360c08110156103af57600080fd5b813591602081013591600160a060020a036040830135169160608101359181019060a0810160808201356401000000008111156103eb57600080fd5b8201836020820111156103fd57600080fd5b8035906020019184602083028401116401000000008311171561041f57600080fd5b91908080602002602001604051908101604052809392919081815260200183836020028082843760009201919091525092955050913592506110e6915050565b61047c6004803603602081101561047557600080fd5b50356111e4565b604080519687526020870195909552858501939093526060850191909152608084015260a0830152519081900360c00190f35b6103426112bc565b6104bf6112cb565b60408051600160a060020a039092168252519081900360200190f35b610338600480360360208110156104f157600080fd5b50356113e4565b6103386004803603602081101561050e57600080fd5b503561153c565b6103426004803603602081101561052b57600080fd5b5035600160a060020a031661177b565b61033861178d565b610338600480360360e081101561055957600080fd5b813591602081013591600160a060020a03604083013516916060810135916080820135919081019060c0810160a082013564010000000081111561059c57600080fd5b8201836020820111156105ae57600080fd5b803590602001918460208302840111640100000000831117156105d057600080fd5b919080806020026020016040519081016040528093929190818152602001838360200280828437600092019190915250929550509135925061179f915050565b6103386004803603604081101561062657600080fd5b8135919081019060408101602082013564010000000081111561064857600080fd5b82018360208201111561065a57600080fd5b8035906020019184602083028401116401000000008311171561067c57600080fd5b919080806020026020016040519081016040528093929190818152602001838360200280828437600092019190915250929550611806945050505050565b6104bf611942565b6106ee600480360360408110156106d857600080fd5b50600160a060020a038135169060200135611951565b604080519115158252519081900360200190f35b61072e6004803603604081101561071857600080fd5b5080359060200135600160a060020a03166119dd565b6040805192835260208301919091528051918290030190f35b6106ee611bbd565b61076c6004803603602081101561076557600080fd5b5035611bcd565b60408051602080825283518183015283519192839290830191858101910280838360005b838110156107a8578181015183820152602001610790565b505050509050019250505060405180910390f35b610338600480360360c08110156107d257600080fd5b50803590602081013590600160a060020a036040820135169060608101359060808101359060a00135611ca7565b6104bf611d71565b6103386004803603606081101561081e57600080fd5b5080359060208101359060400135611d80565b6103386004803603602081101561084757600080fd5b5035600160a060020a0316611f3f565b6103426004803603602081101561086d57600080fd5b5035600160a060020a0316611faa565b61089a6004803603602081101561089357600080fd5b5035611fbc565b60405180806020018060200180602001848103845287818151815260200191508051906020019060200280838360005b838110156108e25781810151838201526020016108ca565b50505050905001848103835286818151815260200191508051906020019060200280838360005b83811015610921578181015183820152602001610909565b50505050905001848103825285818151815260200191508051906020019060200280838360005b83811015610960578181015183820152602001610948565b50505050905001965050505050505060405180910390f35b6109956004803603602081101561098e57600080fd5b5035612313565b604080519b8c5260208c019a909a528a8a019890985260608a0196909652608089019490945260a088019290925260c0870152151560e086015261010085015261012084015261014083015251908190036101600190f35b6106ee60048036036040811015610a0357600080fd5b50600160a060020a03813516906020013561237f565b61033861240a565b61033860048036036040811015610a3757600080fd5b810190602081018135640100000000811115610a5257600080fd5b820183602082011115610a6457600080fd5b80359060200191846020830284011164010000000083111715610a8657600080fd5b9190808060200260200160405190810160405280939291908181526020018383602002808284376000920191909152509295949360208101935035915050640100000000811115610ad657600080fd5b820183602082011115610ae857600080fd5b80359060200191846020830284011164010000000083111715610b0a57600080fd5b91908080602002602001604051908101604052809392919081815260200183836020028082843760009201919091525092955061241a945050505050565b61033860048036036020811015610b5e57600080fd5b5035600160a060020a0316612651565b6104bf60048036036020811015610b8457600080fd5b5035612826565b610342612841565b61033860048036036020811015610ba957600080fd5b5035600160a060020a0316612853565b61033860048036036020811015610bcf57600080fd5b503561285b565b610bde612bb0565b6040518080602001806020018060200180602001806020018060200187810387528d818151815260200191508051906020019060200280838360005b83811015610c32578181015183820152602001610c1a565b5050505090500187810386528c818151815260200191508051906020019060200280838360005b83811015610c71578181015183820152602001610c59565b5050505090500187810385528b818151815260200191508051906020019060200280838360005b83811015610cb0578181015183820152602001610c98565b5050505090500187810384528a818151815260200191508051906020019060200280838360005b83811015610cef578181015183820152602001610cd7565b50505050905001878103835289818151815260200191508051906020019060200280838360005b83811015610d2e578181015183820152602001610d16565b50505050905001878103825288818151815260200191508051906020019060200280838360005b83811015610d6d578181015183820152602001610d55565b505050509050019c5050505050505050505050505060405180910390f35b610338600480360360a0811015610da157600080fd5b50803590602081013590600160a060020a036040820135169060608101359060800135612d87565b6104bf612e4f565b6104bf60048036036020811015610de757600080fd5b5035612e5e565b61076c612e85565b6104bf612efa565b61033860048036036020811015610e1457600080fd5b810190602081018135640100000000811115610e2f57600080fd5b820183602082011115610e4157600080fd5b80359060200191846020830284011164010000000083111715610e6357600080fd5b919080806020026020016040519081016040528093929190818152602001838360200280828437600092019190915250929550612f09945050505050565b61033860048036036060811015610eb757600080fd5b508035906020810135906040013561317c565b61076c61338d565b610bde60048036036020811015610ee857600080fd5b50356133ef565b6104bf61394a565b6103426139d9565b60d960020a6420a226a4a702610f158133613abc565b610f57576040805160e560020a62461bcd0281526020600482015260126024820152600080516020614d92833981519152604482015290519081900360640190fd5b670de0b6b3a7640000821115610fb7576040805160e560020a62461bcd02815260206004820152601960248201527f496e636f72726563742077697468686f6c64696e672074617800000000000000604482015290519081900360640190fd5b7f02d4071fbc08756ffe4bca9edb3e963c0b64703f966b7aafc724acce3e09c32b83836040518080602001838152602001828103825284818151815260200191508051906020019060200280838360005b83811015611020578181015183820152602001611008565b50505050905001935050505060405180910390a160005b835181101561107d57826005600086848151811061105157fe5b602090810291909101810151600160a060020a0316825281019190915260400160002055600101611037565b50505050565b60025481565b611091613c0b565b6040513390303180156108fc02916000818181858888f193505050501580156110be573d6000803e3d6000fd5b50565b7f75cb2672000000000000000000000000000000000000000000000000000000005b90565b60d960020a6420a226a4a7026110fc8133613abc565b61113e576040805160e560020a62461bcd0281526020600482015260126024820152600080516020614d92833981519152604482015290519081900360640190fd5b600854604080517fff0b9c900000000000000000000000000000000000000000000000000000000081529051600092600160a060020a03169163ff0b9c9091600480830192602092919082900301818787803b15801561119d57600080fd5b505af11580156111b1573d6000803e3d6000fd5b505050506040513d60208110156111c757600080fd5b505190506111da88888888858989613ce7565b5050505050505050565b600080600080600080600387815481106111fa57fe5b90600052602060002090600e02016001015495506003878154811061121b57fe5b90600052602060002090600e02016002015494506003878154811061123c57fe5b90600052602060002090600e02016003015493506003878154811061125d57fe5b90600052602060002090600e02016004015492506003878154811061127e57fe5b90600052602060002090600e02016005015491506003878154811061129f57fe5b90600052602060002090600e0201600d0154905091939550919395565b60d960020a6420a226a4a70281565b600154600090600160a060020a03166113d25760006112e861394a565b600160a060020a03166321f8a7217faae8817359f3dcb67d050f44f3e49f982e0359d90ca4b5f18569926304aaece66001026040518263ffffffff1660e060020a0281526004018082815260200191505060206040518083038186803b15801561135157600080fd5b505afa158015611365573d6000803e3d6000fd5b505050506040513d602081101561137b57600080fd5b50519050600160a060020a0381166113cb576040805160e560020a62461bcd02815260206004820152600f6024820152600080516020614dd2833981519152604482015290519081900360640190fd5b90506110e3565b50600154600160a060020a03166110e3565b60095460a060020a900460ff1615611446576040805160e560020a62461bcd02815260206004820152601260248201527f436f6e7472616374206973207061757365640000000000000000000000000000604482015290519081900360640190fd5b61144f81614688565b60006003828154811061145e57fe5b60009182526020808320338452600a600e90930201918201905260409091205490915060ff16156114d9576040805160e560020a62461bcd02815260206004820152601860248201527f4469766964656e6420616c726561647920636c61696d65640000000000000000604482015290519081900360640190fd5b336000908152600b8201602052604090205460ff161561152d5760405160e560020a62461bcd028152600401808060200182810382526021815260200180614e126021913960400191505060405180910390fd5b611538338284614833565b5050565b600080516020614df28339815191526115558133613abc565b611597576040805160e560020a62461bcd0281526020600482015260126024820152600080516020614d92833981519152604482015290519081900360640190fd5b60035482106115de576040805160e560020a62461bcd0281526020600482015260106024820152600080516020614db2833981519152604482015290519081900360640190fd5b6000600383815481106115ed57fe5b90600052602060002090600e02019050600061161a82600901548360080154614a3a90919063ffffffff16565b60088301546009840155600085815260208190526040902054909150600160a060020a031663a9059cbb61164c6112cb565b836040518363ffffffff1660e060020a0281526004018083600160a060020a0316600160a060020a0316815260200182815260200192505050602060405180830381600087803b15801561169f57600080fd5b505af11580156116b3573d6000803e3d6000fd5b505050506040513d60208110156116c957600080fd5b505161171f576040805160e560020a62461bcd02815260206004820152600f60248201527f7472616e73666572206661696c65640000000000000000000000000000000000604482015290519081900360640190fd5b600084815260208181526040918290205460015483518581529351600160a060020a0392831694899493909216927f31342482aee689b025c9cbe348134fefee05df6d6ac65a91dd6b0abdf454539f928290030190a450505050565b60066020526000908152604090205481565b611795613c0b565b61179d614a4f565b565b60d960020a6420a226a4a7026117b58133613abc565b6117f7576040805160e560020a62461bcd0281526020600482015260126024820152600080516020614d92833981519152604482015290519081900360640190fd5b6111da88888888888888613ce7565b600080516020614df283398151915261181f8133613abc565b611861576040805160e560020a62461bcd0281526020600482015260126024820152600080516020614d92833981519152604482015290519081900360640190fd5b61186a83614688565b60006003848154811061187957fe5b600091825260208220600e9091020191505b835181101561193b5781600a0160008583815181106118a657fe5b602090810291909101810151600160a060020a031682528101919091526040016000205460ff16158015611910575081600b0160008583815181106118e757fe5b602090810291909101810151600160a060020a031682528101919091526040016000205460ff16155b156119335761193384828151811061192457fe5b60200260200101518387614833565b60010161188b565b5050505050565b600154600160a060020a031681565b600354600090821061199b576040805160e560020a62461bcd0281526020600482015260106024820152600080516020614db2833981519152604482015290519081900360640190fd5b600382815481106119a857fe5b60009182526020808320600160a060020a0387168452600a600e90930201919091019052604090205460ff1690505b92915050565b60035460009081908410611a29576040805160e560020a62461bcd0281526020600482015260106024820152600080516020614db2833981519152604482015290519081900360640190fd5b600060038581548110611a3857fe5b60009182526020808320600160a060020a0388168452600a600e90930201918201905260409091205490915060ff1680611a8c5750600160a060020a0384166000908152600b8201602052604090205460ff165b15611a9e575060009150819050611bb6565b6008548154604080517f4ee2cd7e000000000000000000000000000000000000000000000000000000008152600160a060020a038881166004830152602482019390935290516000939290921691634ee2cd7e91604480820192602092909190829003018186803b158015611b1257600080fd5b505afa158015611b26573d6000803e3d6000fd5b505050506040513d6020811015611b3c57600080fd5b505160068301546004840154919250600091611b709190611b6490859063ffffffff614b0316565b9063ffffffff614b3116565b600160a060020a03871660009081526005602052604081205491925090611bac90670de0b6b3a764000090611b6490859063ffffffff614b0316565b9195509093505050505b9250929050565b60095460a060020a900460ff1681565b60606000805b600354811015611c12578360038281548110611beb57fe5b90600052602060002090600e0201600001541415611c0a576001909101905b600101611bd3565b50606081604051908082528060200260200182016040528015611c3f578160200160208202803883390190505b50600092509050815b600354811015611c9f578460038281548110611c6057fe5b90600052602060002090600e0201600001541415611c975780828481518110611c8557fe5b60209081029190910101526001909201915b600101611c48565b509392505050565b60d960020a6420a226a4a702611cbd8133613abc565b611cff576040805160e560020a62461bcd0281526020600482015260126024820152600080516020614d92833981519152604482015290519081900360640190fd5b611d6887878787876004805480602002602001604051908101604052809291908181526020018280548015611d5d57602002820191906000526020600020905b8154600160a060020a03168152600190910190602001808311611d3f575b505050505088613ce7565b50505050505050565b600954600160a060020a031681565b60d960020a6420a226a4a702611d968133613abc565b611dd8576040805160e560020a62461bcd0281526020600482015260126024820152600080516020614d92833981519152604482015290519081900360640190fd5b6003548410611e1f576040805160e560020a62461bcd0281526020600482015260106024820152600080516020614db2833981519152604482015290519081900360640190fd5b828211611e76576040805160e560020a62461bcd02815260206004820152601660248201527f457870697279206265666f7265206d6174757269747900000000000000000000604482015290519081900360640190fd5b600060038581548110611e8557fe5b90600052602060002090600e0201905042816003015411611ef0576040805160e560020a62461bcd02815260206004820152601860248201527f4469766964656e6420616c726561647920657870697265640000000000000000604482015290519081900360640190fd5b60038101839055600281018490556040805185815260208101859052815187927f4d385ba2c40259cda374f5596718ac5694e5849b23572b3f59b4fd1be037a860928290030190a25050505050565b600754600160a060020a03163314611fa1576040805160e560020a62461bcd02815260206004820152601560248201527f53656e646572206973206e6f7420666163746f72790000000000000000000000604482015290519081900360640190fd5b6110be81614b53565b60056020526000908152604090205481565b6060806060600860009054906101000a9004600160a060020a0316600160a060020a0316635488cc806040518163ffffffff1660e060020a02815260040160206040518083038186803b15801561201257600080fd5b505afa158015612026573d6000803e3d6000fd5b505050506040513d602081101561203c57600080fd5b5051841115612095576040805160e560020a62461bcd02815260206004820152601260248201527f496e76616c696420636865636b706f696e740000000000000000000000000000604482015290519081900360640190fd5b600854604080517f3f553586000000000000000000000000000000000000000000000000000000008152600481018790529051600160a060020a0390921691633f55358691602480820192600092909190829003018186803b1580156120fa57600080fd5b505afa15801561210e573d6000803e3d6000fd5b505050506040513d6000823e601f3d908101601f19168201604052602081101561213757600080fd5b81019080805164010000000081111561214f57600080fd5b8201602081018481111561216257600080fd5b815185602082028301116401000000008211171561217f57600080fd5b5050929190505050925082516040519080825280602002602001820160405280156121b4578160200160208202803883390190505b50915082516040519080825280602002602001820160405280156121e2578160200160208202803883390190505b50905060005b835181101561230b576008548451600160a060020a0390911690634ee2cd7e9086908490811061221457fe5b6020026020010151876040518363ffffffff1660e060020a0281526004018083600160a060020a0316600160a060020a031681526020018281526020019250505060206040518083038186803b15801561226d57600080fd5b505afa158015612281573d6000803e3d6000fd5b505050506040513d602081101561229757600080fd5b505183518490839081106122a757fe5b602002602001018181525050600560008583815181106122c357fe5b6020026020010151600160a060020a0316600160a060020a03168152602001908152602001600020548282815181106122f857fe5b60209081029190910101526001016121e8565b509193909250565b6003818154811061232057fe5b60009182526020909120600e9091020180546001820154600283015460038401546004850154600586015460068701546007880154600889015460098a0154600d909a0154989a5096989597949693959294919360ff9091169290918b565b60035460009082106123c9576040805160e560020a62461bcd0281526020600482015260106024820152600080516020614db2833981519152604482015290519081900360640190fd5b600382815481106123d657fe5b60009182526020808320600160a060020a0387168452600b600e90930201919091019052604090205460ff16905092915050565b612412613c0b565b61179d614bbc565b60d960020a6420a226a4a7026124308133613abc565b612472576040805160e560020a62461bcd0281526020600482015260126024820152600080516020614d92833981519152604482015290519081900360640190fd5b81518351146124cb576040805160e560020a62461bcd02815260206004820152601860248201527f4d69736d61746368656420696e707574206c656e677468730000000000000000604482015290519081900360640190fd5b7f01da14148cd0c4104d62830cfe6127c6955f1074631149adde6809b8687988d98383604051808060200180602001838103835285818151815260200191508051906020019060200280838360005b8381101561253257818101518382015260200161251a565b50505050905001838103825284818151815260200191508051906020019060200280838360005b83811015612571578181015183820152602001612559565b5050505090500194505050505060405180910390a160005b835181101561107d576012600a0a8382815181106125a357fe5b60200260200101511115612601576040805160e560020a62461bcd02815260206004820152601960248201527f496e636f72726563742077697468686f6c64696e672074617800000000000000604482015290519081900360640190fd5b82818151811061260d57fe5b60200260200101516005600086848151811061262557fe5b602090810291909101810151600160a060020a0316825281019190915260400160002055600101612589565b612659613c0b565b600160a060020a0381166126a5576040805160e560020a62461bcd02815260206004820152600f6024820152600080516020614dd2833981519152604482015290519081900360640190fd5b604080517f70a0823100000000000000000000000000000000000000000000000000000000815230600482015290518291600091600160a060020a038416916370a08231916024808301926020929190829003018186803b15801561270957600080fd5b505afa15801561271d573d6000803e3d6000fd5b505050506040513d602081101561273357600080fd5b5051604080517fa9059cbb000000000000000000000000000000000000000000000000000000008152336004820152602481018390529051919250600160a060020a0384169163a9059cbb916044808201926020929091908290030181600087803b1580156127a157600080fd5b505af11580156127b5573d6000803e3d6000fd5b505050506040513d60208110156127cb57600080fd5b5051612821576040805160e560020a62461bcd02815260206004820152600f60248201527f5472616e73666572206661696c65640000000000000000000000000000000000604482015290519081900360640190fd5b505050565b600060208190529081526040902054600160a060020a031681565b600080516020614df283398151915281565b611fa1613c0b565b600080516020614df28339815191526128748133613abc565b6128b6576040805160e560020a62461bcd0281526020600482015260126024820152600080516020614d92833981519152604482015290519081900360640190fd5b60035482106128fd576040805160e560020a62461bcd0281526020600482015260106024820152600080516020614db2833981519152604482015290519081900360640190fd5b6003828154811061290a57fe5b90600052602060002090600e020160030154421015612973576040805160e560020a62461bcd02815260206004820152601960248201527f4469766964656e642065787069727920696e2066757475726500000000000000604482015290519081900360640190fd5b6003828154811061298057fe5b600091825260209091206007600e90920201015460ff16156129ec576040805160e560020a62461bcd02815260206004820152600f60248201527f616c726561647920636c61696d65640000000000000000000000000000000000604482015290519081900360640190fd5b6001600383815481106129fb57fe5b600091825260208220600e9190910201600701805460ff1916921515929092179091556003805484908110612a2c57fe5b90600052602060002090600e020190506000612a5982600501548360040154614a3a90919063ffffffff16565b600085815260208190526040902054909150600160a060020a031663a9059cbb612a816112cb565b836040518363ffffffff1660e060020a0281526004018083600160a060020a0316600160a060020a0316815260200182815260200192505050602060405180830381600087803b158015612ad457600080fd5b505af1158015612ae8573d6000803e3d6000fd5b505050506040513d6020811015612afe57600080fd5b5051612b54576040805160e560020a62461bcd02815260206004820152600f60248201527f7472616e73666572206661696c65640000000000000000000000000000000000604482015290519081900360640190fd5b600084815260208181526040918290205460015483518581529351600160a060020a0392831694899493909216927f9766d0325a2a3c017f6cf974bfd1bd0b26e705570ce8250fe5e078a3e832d52d928290030190a450505050565b606080606080606080600380549050604051908082528060200260200182016040528015612be8578160200160208202803883390190505b506003546040805182815260208084028201019091529197508015612c17578160200160208202803883390190505b506003546040805182815260208084028201019091529196508015612c46578160200160208202803883390190505b506003546040805182815260208084028201019091529195508015612c75578160200160208202803883390190505b506003546040805182815260208084028201019091529194508015612ca4578160200160208202803883390190505b506003546040805182815260208084028201019091529193508015612cd3578160200160208202803883390190505b50905060005b600354811015612d7e57612cec816111e4565b8c8781518110612cf857fe5b602002602001018c8881518110612d0b57fe5b602002602001018c8981518110612d1e57fe5b602002602001018c8a81518110612d3157fe5b602002602001018c8b81518110612d4457fe5b602002602001018c8c81518110612d5757fe5b60209081029190910101959095529490935293909252929092529190915252600101612cd9565b50909192939495565b60d960020a6420a226a4a702612d9d8133613abc565b612ddf576040805160e560020a62461bcd0281526020600482015260126024820152600080516020614d92833981519152604482015290519081900360640190fd5b612e47868686866004805480602002602001604051908101604052809291908181526020018280548015612e3c57602002820191906000526020600020905b8154600160a060020a03168152600190910190602001808311612e1e575b5050505050876110e6565b505050505050565b600854600160a060020a031681565b60048181548110612e6b57fe5b600091825260209091200154600160a060020a0316905081565b60408051600280825260608083018452928392919060208301908038833901905050905060d960020a6420a226a4a70281600081518110612ec257fe5b602002602001018181525050600080516020614df283398151915281600181518110612eea57fe5b6020908102919091010152905090565b600754600160a060020a031681565b60d960020a6420a226a4a702612f1f8133613abc565b612f61576040805160e560020a62461bcd0281526020600482015260126024820152600080516020614d92833981519152604482015290519081900360640190fd5b60025482511115612fbc576040805160e560020a62461bcd02815260206004820152601b60248201527f546f6f206d616e79206578636c75646564206164647265737365730000000000604482015290519081900360640190fd5b60005b82518110156130e3576000600160a060020a0316838281518110612fdf57fe5b6020026020010151600160a060020a03161415613034576040805160e560020a62461bcd02815260206004820152600f6024820152600080516020614dd2833981519152604482015290519081900360640190fd5b600181015b83518110156130da5783818151811061304e57fe5b6020026020010151600160a060020a031684838151811061306b57fe5b6020026020010151600160a060020a031614156130d2576040805160e560020a62461bcd02815260206004820152601960248201527f4475706c6963617465206578636c756465206164647265737300000000000000604482015290519081900360640190fd5b600101613039565b50600101612fbf565b5081516130f7906004906020850190614cf8565b507fcbdf8a4bf19b153fdd0aa4aa2c292cef47adc56e05524f1d99658f03b771e23760046040518080602001828103825283818154815260200191508054801561316a57602002820191906000526020600020905b8154600160a060020a0316815260019091019060200180831161314c575b50509250505060405180910390a15050565b600080516020614df28339815191526131958133613abc565b6131d7576040805160e560020a62461bcd0281526020600482015260126024820152600080516020614d92833981519152604482015290519081900360640190fd5b6131e084614688565b6000600385815481106131ef57fe5b600091825260208220600e909102018054600854604080517fabe191c100000000000000000000000000000000000000000000000000000000815260048101849052602481018a90526044810189905290519395509193606093600160a060020a039092169263abe191c19260648083019392829003018186803b15801561327657600080fd5b505afa15801561328a573d6000803e3d6000fd5b505050506040513d6000823e601f3d908101601f1916820160405260208110156132b357600080fd5b8101908080516401000000008111156132cb57600080fd5b820160208101848111156132de57600080fd5b81518560208202830111640100000000821117156132fb57600080fd5b50909450600093505050505b81518110156111da57600082828151811061331e57fe5b602090810291909101810151600160a060020a0381166000908152600a880190925260409091205490915060ff161580156133745750600160a060020a0381166000908152600b8601602052604090205460ff16155b156133845761338481868b614833565b50600101613307565b606060048054806020026020016040519081016040528092919081815260200182805480156133e557602002820191906000526020600020905b8154600160a060020a031681526001909101906020018083116133c7575b5050505050905090565b6060806060806060806003805490508710613442576040805160e560020a62461bcd0281526020600482015260106024820152600080516020614db2833981519152604482015290519081900360640190fd5b60006003888154811061345157fe5b600091825260208220600e909102018054600854604080517f3f5535860000000000000000000000000000000000000000000000000000000081526004810184905290519395509193600160a060020a0390911692633f553586926024808201939291829003018186803b1580156134c857600080fd5b505afa1580156134dc573d6000803e3d6000fd5b505050506040513d6000823e601f3d908101601f19168201604052602081101561350557600080fd5b81019080805164010000000081111561351d57600080fd5b8201602081018481111561353057600080fd5b815185602082028301116401000000008211171561354d57600080fd5b505092919050505097508751604051908082528060200260200182016040528015613582578160200160208202803883390190505b50965087516040519080825280602002602001820160405280156135b0578160200160208202803883390190505b50955087516040519080825280602002602001820160405280156135de578160200160208202803883390190505b509450875160405190808252806020026020018201604052801561360c578160200160208202803883390190505b509350875160405190808252806020026020018201604052801561363a578160200160208202803883390190505b50925060005b885181101561393e5782600a0160008a838151811061365b57fe5b6020026020010151600160a060020a0316600160a060020a0316815260200190815260200160002060009054906101000a900460ff1688828151811061369d57fe5b60200260200101901515908115158152505082600b0160008a83815181106136c157fe5b6020026020010151600160a060020a0316600160a060020a0316815260200190815260200160002060009054906101000a900460ff1687828151811061370357fe5b911515602092830291909101909101526008548951600160a060020a0390911690634ee2cd7e908b908490811061373657fe5b602002602001015185600001546040518363ffffffff1660e060020a0281526004018083600160a060020a0316600160a060020a031681526020018281526020019250505060206040518083038186803b15801561379357600080fd5b505afa1580156137a7573d6000803e3d6000fd5b505050506040513d60208110156137bd57600080fd5b505184518590839081106137cd57fe5b6020026020010181815250508681815181106137e557fe5b6020026020010151613936578781815181106137fd57fe5b6020026020010151156138cf5782600c0160008a838151811061381c57fe5b6020026020010151600160a060020a0316600160a060020a031681526020019081526020016000205486828151811061385157fe5b6020026020010181815250506138b286828151811061386c57fe5b60200260200101516138a68560060154611b64876004015489878151811061389057fe5b6020026020010151614b0390919063ffffffff16565b9063ffffffff614a3a16565b8582815181106138be57fe5b602002602001018181525050613936565b6000806138ef8c8c85815181106138e257fe5b60200260200101516119dd565b915091508088848151811061390057fe5b602090810291909101015261391b828263ffffffff614a3a16565b87848151811061392757fe5b60200260200101818152505050505b600101613640565b50505091939550919395565b600854604080517f660d0d670000000000000000000000000000000000000000000000000000000081529051600092600160a060020a03169163660d0d67916004808301926020929190829003018186803b1580156139a857600080fd5b505afa1580156139bc573d6000803e3d6000fd5b505050506040513d60208110156139d257600080fd5b5051905090565b6000600080516020614df28339815191526139f48133613abc565b613a36576040805160e560020a62461bcd0281526020600482015260126024820152600080516020614d92833981519152604482015290519081900360640190fd5b600860009054906101000a9004600160a060020a0316600160a060020a031663ff0b9c906040518163ffffffff1660e060020a028152600401602060405180830381600087803b158015613a8957600080fd5b505af1158015613a9d573d6000803e3d6000fd5b505050506040513d6020811015613ab357600080fd5b505191505b5090565b600080600860009054906101000a9004600160a060020a0316600160a060020a0316638da5cb5b6040518163ffffffff1660e060020a02815260040160206040518083038186803b158015613b1057600080fd5b505afa158015613b24573d6000803e3d6000fd5b505050506040513d6020811015613b3a57600080fd5b5051600754600160a060020a038581169281168314935016148180613b5c5750805b80613c025750600854604080517f8658b8b9000000000000000000000000000000000000000000000000000000008152600160a060020a0387811660048301523060248301526044820189905291519190921691638658b8b9916064808301926020929190829003018186803b158015613bd557600080fd5b505afa158015613be9573d6000803e3d6000fd5b505050506040513d6020811015613bff57600080fd5b50515b95945050505050565b600860009054906101000a9004600160a060020a0316600160a060020a0316638da5cb5b6040518163ffffffff1660e060020a02815260040160206040518083038186803b158015613c5c57600080fd5b505afa158015613c70573d6000803e3d6000fd5b505050506040513d6020811015613c8657600080fd5b5051600160a060020a0316331461179d576040805160e560020a62461bcd02815260206004820152601360248201527f53656e646572206973206e6f74206f776e657200000000000000000000000000604482015290519081900360640190fd5b60025482511115613d42576040805160e560020a62461bcd02815260206004820152601b60248201527f546f6f206d616e7920616464726573736573206578636c756465640000000000604482015290519081900360640190fd5b868611613d99576040805160e560020a62461bcd02815260206004820152601660248201527f457870697279206265666f7265206d6174757269747900000000000000000000604482015290519081900360640190fd5b428611613df0576040805160e560020a62461bcd02815260206004820152600e60248201527f45787069727920696e2070617374000000000000000000000000000000000000604482015290519081900360640190fd5b60008411613e48576040805160e560020a62461bcd02815260206004820152601060248201527f4e6f206469766964656e642073656e7400000000000000000000000000000000604482015290519081900360640190fd5b600160a060020a038516613ea6576040805160e560020a62461bcd02815260206004820152600d60248201527f496e76616c696420746f6b656e00000000000000000000000000000000000000604482015290519081900360640190fd5b600860009054906101000a9004600160a060020a0316600160a060020a0316635488cc806040518163ffffffff1660e060020a02815260040160206040518083038186803b158015613ef757600080fd5b505afa158015613f0b573d6000803e3d6000fd5b505050506040513d6020811015613f2157600080fd5b5051831115613f7a576040805160e560020a62461bcd02815260206004820152601260248201527f496e76616c696420636865636b706f696e740000000000000000000000000000604482015290519081900360640190fd5b604080517f23b872dd000000000000000000000000000000000000000000000000000000008152336004820152306024820152604481018690529051600160a060020a038716916323b872dd9160648083019260209291908290030181600087803b158015613fe857600080fd5b505af1158015613ffc573d6000803e3d6000fd5b505050506040513d602081101561401257600080fd5b5051614068576040805160e560020a62461bcd02815260206004820152601560248201527f696e737566666963656e7420616c6c6f77616e63650000000000000000000000604482015290519081900360640190fd5b8061407257600080fd5b600354600854604080517f981b24d0000000000000000000000000000000000000000000000000000000008152600481018790529051600092600160a060020a03169163981b24d0916024808301926020929190829003018186803b1580156140da57600080fd5b505afa1580156140ee573d6000803e3d6000fd5b505050506040513d602081101561410457600080fd5b505190508061415d576040805160e560020a62461bcd02815260206004820152600e60248201527f496e76616c696420737570706c79000000000000000000000000000000000000604482015290519081900360640190fd5b604080516101608101825286815242602082019081529181018b8152606082018b8152608083018a8152600060a0850181815260c0860182815260e08701838152610100880184815261012089018581526101408a018e8152600380546001810182559088529a517fc2575a0e9e593c00f959f8c92f12db2869c3395a3b0502d05e2516446f71f85b600e909c029b8c01559a517fc2575a0e9e593c00f959f8c92f12db2869c3395a3b0502d05e2516446f71f85c8b015597517fc2575a0e9e593c00f959f8c92f12db2869c3395a3b0502d05e2516446f71f85d8a015595517fc2575a0e9e593c00f959f8c92f12db2869c3395a3b0502d05e2516446f71f85e89015593517fc2575a0e9e593c00f959f8c92f12db2869c3395a3b0502d05e2516446f71f85f88015590517fc2575a0e9e593c00f959f8c92f12db2869c3395a3b0502d05e2516446f71f860870155517fc2575a0e9e593c00f959f8c92f12db2869c3395a3b0502d05e2516446f71f86186015590517fc2575a0e9e593c00f959f8c92f12db2869c3395a3b0502d05e2516446f71f8628501805460ff191691151591909117905590517fc2575a0e9e593c00f959f8c92f12db2869c3395a3b0502d05e2516446f71f86384015590517fc2575a0e9e593c00f959f8c92f12db2869c3395a3b0502d05e2516446f71f86483015591517fc2575a0e9e593c00f959f8c92f12db2869c3395a3b0502d05e2516446f71f86890910155805b85518110156145b9576000600160a060020a031686828151811061439b57fe5b6020026020010151600160a060020a031614156143f0576040805160e560020a62461bcd02815260206004820152600f6024820152600080516020614dd2833981519152604482015290519081900360640190fd5b600384815481106143fd57fe5b90600052602060002090600e0201600b01600087838151811061441c57fe5b602090810291909101810151600160a060020a031682528101919091526040016000205460ff1615614498576040805160e560020a62461bcd02815260206004820152601560248201527f6475706564206578636c75646520616464726573730000000000000000000000604482015290519081900360640190fd5b600854865161454f91600160a060020a031690634ee2cd7e908990859081106144bd57fe5b60200260200101518a6040518363ffffffff1660e060020a0281526004018083600160a060020a0316600160a060020a031681526020018281526020019250505060206040518083038186803b15801561451657600080fd5b505afa15801561452a573d6000803e3d6000fd5b505050506040513d602081101561454057600080fd5b5051839063ffffffff614c7716565b915060016003858154811061456057fe5b90600052602060002090600e0201600b01600088848151811061457f57fe5b602090810291909101810151600160a060020a03168252810191909152604001600020805460ff191691151591909117905560010161437b565b50808211614611576040805160e560020a62461bcd02815260206004820152600e60248201527f496e76616c696420737570706c79000000000000000000000000000000000000604482015290519081900360640190fd5b8082036003848154811061462157fe5b60009182526020808320600e92909202909101600601929092558481529081905260409020805473ffffffffffffffffffffffffffffffffffffffff1916600160a060020a038a1617905561467c868b8b8b8b87898b614c89565b50505050505050505050565b60035481106146cf576040805160e560020a62461bcd0281526020600482015260106024820152600080516020614db2833981519152604482015290519081900360640190fd5b600381815481106146dc57fe5b600091825260209091206007600e90920201015460ff1615614748576040805160e560020a62461bcd02815260206004820152601260248201527f4469766964656e64207265636c61696d65640000000000000000000000000000604482015290519081900360640190fd5b6003818154811061475557fe5b90600052602060002090600e0201600201544210156147be576040805160e560020a62461bcd02815260206004820152601b60248201527f4469766964656e64206d6174757269747920696e206675747572650000000000604482015290519081900360640190fd5b600381815481106147cb57fe5b90600052602060002090600e02016003015442106110be576040805160e560020a62461bcd02815260206004820152601760248201527f4469766964656e642065787069727920696e2070617374000000000000000000604482015290519081900360640190fd5b60008061484083866119dd565b600160a060020a0387166000908152600a870160205260409020805460ff191660011790556005860154919350915061488090839063ffffffff614c7716565b60058501556000614897838363ffffffff614a3a16565b90508015614999576000848152602081815260408083205481517fa9059cbb000000000000000000000000000000000000000000000000000000008152600160a060020a038b81166004830152602482018790529251929091169363a9059cbb9360448084019491939192918390030190829087803b15801561491957600080fd5b505af115801561492d573d6000803e3d6000fd5b505050506040513d602081101561494357600080fd5b5051614999576040805160e560020a62461bcd02815260206004820152600f60248201527f7472616e73666572206661696c65640000000000000000000000000000000000604482015290519081900360640190fd5b81156149d75760088501546149b4908363ffffffff614c7716565b6008860155600160a060020a0386166000908152600c8601602052604090208290555b600084815260208181526040918290205482518681529182018590528251600160a060020a03918216938893928b16927fced5aaa2960f7fd397627b6d68ccb25eae2d3db92a459182962e6f9b5786241a929081900390910190a4505050505050565b600082821115614a4957600080fd5b50900390565b60095460a060020a900460ff16614ab0576040805160e560020a62461bcd02815260206004820152601660248201527f436f6e7472616374206973206e6f742070617573656400000000000000000000604482015290519081900360640190fd5b6009805474ff0000000000000000000000000000000000000000191690556040805133815290517faeb196d352664784d1900b0e7414a8face7d29f4dae8c4b0cf68ed477423bbf49181900360200190a1565b600082614b12575060006119d7565b82820282848281614b1f57fe5b0414614b2a57600080fd5b9392505050565b6000808211614b3f57600080fd5b6000828481614b4a57fe5b04949350505050565b600154604051600160a060020a038084169216907f8595877311e370fe3ac87d4f6d12473603393f02ac660e68d2e5e3da5adb610c90600090a36001805473ffffffffffffffffffffffffffffffffffffffff1916600160a060020a0392909216919091179055565b60095460a060020a900460ff1615614c1e576040805160e560020a62461bcd02815260206004820152601260248201527f436f6e7472616374206973207061757365640000000000000000000000000000604482015290519081900360640190fd5b6009805474ff0000000000000000000000000000000000000000191660a060020a1790556040805133815290517f5ee71a369c8672edded508e624ffc9257fa1ae6886ef32905c18e60196bca3999181900360200190a1565b600082820183811015614b2a57600080fd5b6040805189815260208101899052808201889052606081018690526080810185905260a0810184905290518291600160a060020a0388169133917fc9f26fbad84e7b32db278009385cb48ff8201ed9e7cdefe89db89592953b1e9e919081900360c00190a45050505050505050565b828054828255906000526020600020908101928215614d5a579160200282015b82811115614d5a578251825473ffffffffffffffffffffffffffffffffffffffff1916600160a060020a03909116178255602090920191600190910190614d18565b50613ab8926110e39250905b80821115613ab857805473ffffffffffffffffffffffffffffffffffffffff19168155600101614d6656fe496e76616c6964207065726d697373696f6e0000000000000000000000000000496e76616c6964206469766964656e6400000000000000000000000000000000496e76616c6964206164647265737300000000000000000000000000000000004f50455241544f520000000000000000000000000000000000000000000000006d73672e73656e646572206578636c756465642066726f6d204469766964656e64a165627a7a7230582028dbec98964dba65b21aebce5096bd9f80767974e1fe1c045cf556bf1a2e1ff90029",
  "source": "pragma solidity 0.5.8;\n\nimport \"../DividendCheckpoint.sol\";\nimport \"./ERC20DividendCheckpointStorage.sol\";\nimport \"../../../../interfaces/IOwnable.sol\";\nimport \"openzeppelin-solidity/contracts/token/ERC20/IERC20.sol\";\n\n/**\n * @title Checkpoint module for issuing ERC20 dividends\n */\ncontract ERC20DividendCheckpoint is ERC20DividendCheckpointStorage, DividendCheckpoint {\n    using SafeMath for uint256;\n\n    event ERC20DividendDeposited(\n        address indexed _depositor,\n        uint256 _checkpointId,\n        uint256 _maturity,\n        uint256 _expiry,\n        address indexed _token,\n        uint256 _amount,\n        uint256 _totalSupply,\n        uint256 _dividendIndex,\n        bytes32 indexed _name\n    );\n    event ERC20DividendClaimed(address indexed _payee, uint256 indexed _dividendIndex, address indexed _token, uint256 _amount, uint256 _withheld);\n    event ERC20DividendReclaimed(address indexed _claimer, uint256 indexed _dividendIndex, address indexed _token, uint256 _claimedAmount);\n    event ERC20DividendWithholdingWithdrawn(\n        address indexed _claimer,\n        uint256 indexed _dividendIndex,\n        address indexed _token,\n        uint256 _withheldAmount\n    );\n\n    /**\n     * @notice Constructor\n     * @param _securityToken Address of the security token\n     */\n    constructor(address _securityToken, address _polyToken) public Module(_securityToken, _polyToken) {\n\n    }\n\n    /**\n     * @notice Creates a dividend and checkpoint for the dividend\n     * @param _maturity Time from which dividend can be paid\n     * @param _expiry Time until dividend can no longer be paid, and can be reclaimed by issuer\n     * @param _token Address of ERC20 token in which dividend is to be denominated\n     * @param _amount Amount of specified token for dividend\n     * @param _name Name/Title for identification\n     */\n    function createDividend(\n        uint256 _maturity,\n        uint256 _expiry,\n        address _token,\n        uint256 _amount,\n        bytes32 _name\n    )\n        external\n        withPerm(ADMIN)\n    {\n        createDividendWithExclusions(_maturity, _expiry, _token, _amount, excluded, _name);\n    }\n\n    /**\n     * @notice Creates a dividend with a provided checkpoint\n     * @param _maturity Time from which dividend can be paid\n     * @param _expiry Time until dividend can no longer be paid, and can be reclaimed by issuer\n     * @param _token Address of ERC20 token in which dividend is to be denominated\n     * @param _amount Amount of specified token for dividend\n     * @param _checkpointId Checkpoint id from which to create dividends\n     * @param _name Name/Title for identification\n     */\n    function createDividendWithCheckpoint(\n        uint256 _maturity,\n        uint256 _expiry,\n        address _token,\n        uint256 _amount,\n        uint256 _checkpointId,\n        bytes32 _name\n    )\n        external\n        withPerm(ADMIN)\n    {\n        _createDividendWithCheckpointAndExclusions(_maturity, _expiry, _token, _amount, _checkpointId, excluded, _name);\n    }\n\n    /**\n     * @notice Creates a dividend and checkpoint for the dividend\n     * @param _maturity Time from which dividend can be paid\n     * @param _expiry Time until dividend can no longer be paid, and can be reclaimed by issuer\n     * @param _token Address of ERC20 token in which dividend is to be denominated\n     * @param _amount Amount of specified token for dividend\n     * @param _excluded List of addresses to exclude\n     * @param _name Name/Title for identification\n     */\n    function createDividendWithExclusions(\n        uint256 _maturity,\n        uint256 _expiry,\n        address _token,\n        uint256 _amount,\n        address[] memory _excluded,\n        bytes32 _name\n    )\n        public\n        withPerm(ADMIN)\n    {\n        uint256 checkpointId = securityToken.createCheckpoint();\n        _createDividendWithCheckpointAndExclusions(_maturity, _expiry, _token, _amount, checkpointId, _excluded, _name);\n    }\n\n    /**\n     * @notice Creates a dividend with a provided checkpoint\n     * @param _maturity Time from which dividend can be paid\n     * @param _expiry Time until dividend can no longer be paid, and can be reclaimed by issuer\n     * @param _token Address of ERC20 token in which dividend is to be denominated\n     * @param _amount Amount of specified token for dividend\n     * @param _checkpointId Checkpoint id from which to create dividends\n     * @param _excluded List of addresses to exclude\n     * @param _name Name/Title for identification\n     */\n    function createDividendWithCheckpointAndExclusions(\n        uint256 _maturity,\n        uint256 _expiry,\n        address _token,\n        uint256 _amount,\n        uint256 _checkpointId,\n        address[] memory _excluded,\n        bytes32 _name\n    )\n        public\n        withPerm(ADMIN)\n    {\n        _createDividendWithCheckpointAndExclusions(_maturity, _expiry, _token, _amount, _checkpointId, _excluded, _name);\n    }\n\n    /**\n     * @notice Creates a dividend with a provided checkpoint\n     * @param _maturity Time from which dividend can be paid\n     * @param _expiry Time until dividend can no longer be paid, and can be reclaimed by issuer\n     * @param _token Address of ERC20 token in which dividend is to be denominated\n     * @param _amount Amount of specified token for dividend\n     * @param _checkpointId Checkpoint id from which to create dividends\n     * @param _excluded List of addresses to exclude\n     * @param _name Name/Title for identification\n     */\n    function _createDividendWithCheckpointAndExclusions(\n        uint256 _maturity,\n        uint256 _expiry,\n        address _token,\n        uint256 _amount,\n        uint256 _checkpointId,\n        address[] memory _excluded,\n        bytes32 _name\n    )\n        internal\n    {\n        require(_excluded.length <= EXCLUDED_ADDRESS_LIMIT, \"Too many addresses excluded\");\n        require(_expiry > _maturity, \"Expiry before maturity\");\n        /*solium-disable-next-line security/no-block-members*/\n        require(_expiry > now, \"Expiry in past\");\n        require(_amount > 0, \"No dividend sent\");\n        require(_token != address(0), \"Invalid token\");\n        require(_checkpointId <= securityToken.currentCheckpointId(), \"Invalid checkpoint\");\n        require(IERC20(_token).transferFrom(msg.sender, address(this), _amount), \"insufficent allowance\");\n        require(_name != bytes32(0));\n        uint256 dividendIndex = dividends.length;\n        uint256 currentSupply = securityToken.totalSupplyAt(_checkpointId);\n        require(currentSupply > 0, \"Invalid supply\");\n        uint256 excludedSupply = 0;\n        dividends.push(\n            Dividend(\n                _checkpointId,\n                now, /*solium-disable-line security/no-block-members*/\n                _maturity,\n                _expiry,\n                _amount,\n                0,\n                0,\n                false,\n                0,\n                0,\n                _name\n            )\n        );\n\n        for (uint256 j = 0; j < _excluded.length; j++) {\n            require(_excluded[j] != address(0), \"Invalid address\");\n            require(!dividends[dividendIndex].dividendExcluded[_excluded[j]], \"duped exclude address\");\n            excludedSupply = excludedSupply.add(securityToken.balanceOfAt(_excluded[j], _checkpointId));\n            dividends[dividendIndex].dividendExcluded[_excluded[j]] = true;\n        }\n        require(currentSupply > excludedSupply, \"Invalid supply\");\n        dividends[dividendIndex].totalSupply = currentSupply - excludedSupply;\n        dividendTokens[dividendIndex] = _token;\n        _emitERC20DividendDepositedEvent(_checkpointId, _maturity, _expiry, _token, _amount, currentSupply, dividendIndex, _name);\n    }\n\n    /**\n     * @notice Emits the ERC20DividendDeposited event.\n     * Seperated into a different function as a workaround for stack too deep error\n     */\n    function _emitERC20DividendDepositedEvent(\n        uint256 _checkpointId,\n        uint256 _maturity,\n        uint256 _expiry,\n        address _token,\n        uint256 _amount,\n        uint256 currentSupply,\n        uint256 dividendIndex,\n        bytes32 _name\n    )\n        internal\n    {\n        /*solium-disable-next-line security/no-block-members*/\n        emit ERC20DividendDeposited(\n            msg.sender,\n            _checkpointId,\n            _maturity,\n            _expiry,\n            _token,\n            _amount,\n            currentSupply,\n            dividendIndex,\n            _name\n        );\n    }\n\n    /**\n     * @notice Internal function for paying dividends\n     * @param _payee Address of investor\n     * @param _dividend Storage with previously issued dividends\n     * @param _dividendIndex Dividend to pay\n     */\n    function _payDividend(address payable _payee, Dividend storage _dividend, uint256 _dividendIndex) internal {\n        (uint256 claim, uint256 withheld) = calculateDividend(_dividendIndex, _payee);\n        _dividend.claimed[_payee] = true;\n        _dividend.claimedAmount = claim.add(_dividend.claimedAmount);\n        uint256 claimAfterWithheld = claim.sub(withheld);\n        if (claimAfterWithheld > 0) {\n            require(IERC20(dividendTokens[_dividendIndex]).transfer(_payee, claimAfterWithheld), \"transfer failed\");\n        }\n        if (withheld > 0) {\n            _dividend.totalWithheld = _dividend.totalWithheld.add(withheld);\n            _dividend.withheld[_payee] = withheld;\n        }\n        emit ERC20DividendClaimed(_payee, _dividendIndex, dividendTokens[_dividendIndex], claim, withheld);\n    }\n\n    /**\n     * @notice Issuer can reclaim remaining unclaimed dividend amounts, for expired dividends\n     * @param _dividendIndex Dividend to reclaim\n     */\n    function reclaimDividend(uint256 _dividendIndex) external withPerm(OPERATOR) {\n        require(_dividendIndex < dividends.length, \"Invalid dividend\");\n        /*solium-disable-next-line security/no-block-members*/\n        require(now >= dividends[_dividendIndex].expiry, \"Dividend expiry in future\");\n        require(!dividends[_dividendIndex].reclaimed, \"already claimed\");\n        dividends[_dividendIndex].reclaimed = true;\n        Dividend storage dividend = dividends[_dividendIndex];\n        uint256 remainingAmount = dividend.amount.sub(dividend.claimedAmount);\n        require(IERC20(dividendTokens[_dividendIndex]).transfer(getTreasuryWallet(), remainingAmount), \"transfer failed\");\n        emit ERC20DividendReclaimed(wallet, _dividendIndex, dividendTokens[_dividendIndex], remainingAmount);\n    }\n\n    /**\n     * @notice Allows issuer to withdraw withheld tax\n     * @param _dividendIndex Dividend to withdraw from\n     */\n    function withdrawWithholding(uint256 _dividendIndex) external withPerm(OPERATOR) {\n        require(_dividendIndex < dividends.length, \"Invalid dividend\");\n        Dividend storage dividend = dividends[_dividendIndex];\n        uint256 remainingWithheld = dividend.totalWithheld.sub(dividend.totalWithheldWithdrawn);\n        dividend.totalWithheldWithdrawn = dividend.totalWithheld;\n        require(IERC20(dividendTokens[_dividendIndex]).transfer(getTreasuryWallet(), remainingWithheld), \"transfer failed\");\n        emit ERC20DividendWithholdingWithdrawn(wallet, _dividendIndex, dividendTokens[_dividendIndex], remainingWithheld);\n    }\n\n}\n",
  "sourcePath": "/Users/federicoelgarte/Polymath/polymath-core/contracts/modules/Checkpoint/Dividend/ERC20/ERC20DividendCheckpoint.sol",
  "compiler": {
    "name": "solc",
    "version": "0.5.8+commit.23d335f2.Emscripten.clang"
  },
  "schemaVersion": "3.0.2",
  "updatedAt": "2019-06-21T16:15:52.591Z",
  "devdoc": {
    "methods": {
      "calculateDividend(uint256,address)": {
        "params": {
          "_dividendIndex": "Dividend to calculate",
          "_payee": "Affected investor address"
        },
        "return": "claim, withheld amounts"
      },
      "changeWallet(address)": {
        "params": {
          "_wallet": "Ethereum account address to receive reclaimed dividends and tax"
        }
      },
      "configure(address)": {
        "params": {
          "_wallet": "Ethereum account address to receive reclaimed dividends and tax"
        }
      },
      "constructor": {
        "params": {
          "_securityToken": "Address of the security token"
        }
      },
      "createCheckpoint()": {
        "return": "Checkpoint ID"
      },
      "createDividend(uint256,uint256,address,uint256,bytes32)": {
        "params": {
          "_amount": "Amount of specified token for dividend",
          "_expiry": "Time until dividend can no longer be paid, and can be reclaimed by issuer",
          "_maturity": "Time from which dividend can be paid",
          "_name": "Name/Title for identification",
          "_token": "Address of ERC20 token in which dividend is to be denominated"
        }
      },
      "createDividendWithCheckpoint(uint256,uint256,address,uint256,uint256,bytes32)": {
        "params": {
          "_amount": "Amount of specified token for dividend",
          "_checkpointId": "Checkpoint id from which to create dividends",
          "_expiry": "Time until dividend can no longer be paid, and can be reclaimed by issuer",
          "_maturity": "Time from which dividend can be paid",
          "_name": "Name/Title for identification",
          "_token": "Address of ERC20 token in which dividend is to be denominated"
        }
      },
      "createDividendWithCheckpointAndExclusions(uint256,uint256,address,uint256,uint256,address[],bytes32)": {
        "params": {
          "_amount": "Amount of specified token for dividend",
          "_checkpointId": "Checkpoint id from which to create dividends",
          "_excluded": "List of addresses to exclude",
          "_expiry": "Time until dividend can no longer be paid, and can be reclaimed by issuer",
          "_maturity": "Time from which dividend can be paid",
          "_name": "Name/Title for identification",
          "_token": "Address of ERC20 token in which dividend is to be denominated"
        }
      },
      "createDividendWithExclusions(uint256,uint256,address,uint256,address[],bytes32)": {
        "params": {
          "_amount": "Amount of specified token for dividend",
          "_excluded": "List of addresses to exclude",
          "_expiry": "Time until dividend can no longer be paid, and can be reclaimed by issuer",
          "_maturity": "Time from which dividend can be paid",
          "_name": "Name/Title for identification",
          "_token": "Address of ERC20 token in which dividend is to be denominated"
        }
      },
      "getCheckpointData(uint256)": {
        "params": {
          "_checkpointId": "Checkpoint Id to query for"
        },
        "return": "address[] list of investorsuint256[] investor balancesuint256[] investor withheld percentages"
      },
      "getDefaultExcluded()": {
        "return": "List of excluded addresses"
      },
      "getDividendData(uint256)": {
        "return": "uint256 timestamp of dividend creationuint256 timestamp of dividend maturityuint256 timestamp of dividend expiryuint256 amount of dividenduint256 claimed amount of dividendbytes32 name of dividend"
      },
      "getDividendIndex(uint256)": {
        "params": {
          "_checkpointId": "Checkpoint id to query"
        },
        "return": "uint256[]"
      },
      "getDividendProgress(uint256)": {
        "params": {
          "_dividendIndex": "Dividend to withdraw from"
        },
        "return": "address[] list of investorsbool[] whether investor has claimedbool[] whether investor is excludeduint256[] amount of withheld tax (estimate if not claimed)uint256[] amount of claim (estimate if not claimeed)uint256[] investor balance"
      },
      "getDividendsData()": {
        "return": "uint256[] timestamp of dividends creationuint256[] timestamp of dividends maturityuint256[] timestamp of dividends expiryuint256[] amount of dividendsuint256[] claimed amount of dividendsbytes32[] name of dividends"
      },
      "getInitFunction()": {
        "return": "bytes4"
      },
      "getPermissions()": {
        "return": "bytes32 array"
      },
      "isClaimed(address,uint256)": {
        "params": {
          "_dividendIndex": "Dividend to withdraw from"
        },
        "return": "bool whether the address has claimed"
      },
      "isExcluded(address,uint256)": {
        "params": {
          "_dividendIndex": "Dividend to withdraw from"
        },
        "return": "bool whether the address is excluded"
      },
      "pullDividendPayment(uint256)": {
        "params": {
          "_dividendIndex": "Dividend to pull"
        }
      },
      "pushDividendPayment(uint256,uint256,uint256)": {
        "params": {
          "_dividendIndex": "Dividend to push",
          "_end": "Index in investor list at which to stop pushing dividends",
          "_start": "Index in investor list at which to start pushing dividends"
        }
      },
      "pushDividendPaymentToAddresses(uint256,address[])": {
        "params": {
          "_dividendIndex": "Dividend to push",
          "_payees": "Addresses to which to push the dividend"
        }
      },
      "reclaimDividend(uint256)": {
        "params": {
          "_dividendIndex": "Dividend to reclaim"
        }
      },
      "reclaimERC20(address)": {
        "details": "We duplicate here due to the overriden owner & onlyOwner",
        "params": {
          "_tokenContract": "The address of the token contract"
        }
      },
      "reclaimETH()": {
        "details": "We duplicate here due to the overriden owner & onlyOwner"
      },
      "setDefaultExcluded(address[])": {
        "params": {
          "_excluded": "Addresses of investors"
        }
      },
      "setWithholding(address[],uint256[])": {
        "params": {
          "_investors": "Addresses of investors",
          "_withholding": "Withholding tax for individual investors (multiplied by 10**16)"
        }
      },
      "setWithholdingFixed(address[],uint256)": {
        "params": {
          "_investors": "Addresses of investor",
          "_withholding": "Withholding tax for all investors (multiplied by 10**16)"
        }
      },
      "updateDividendDates(uint256,uint256,uint256)": {
        "details": "NB - setting the maturity of a currently matured dividend to a future datewill effectively refreeze claims on that dividend until the new maturity date passes dev NB - setting the expiry date to a past date will mean no more payments can be pulledor pushed out of a dividend",
        "params": {
          "_dividendIndex": "Dividend to withdraw from",
          "_expiry": "updated expiry date",
          "_maturity": "updated maturity date"
        }
      },
      "withdrawWithholding(uint256)": {
        "params": {
          "_dividendIndex": "Dividend to withdraw from"
        }
      }
    },
    "title": "Checkpoint module for issuing ERC20 dividends"
  },
  "userdoc": {
    "methods": {
      "calculateDividend(uint256,address)": {
        "notice": "Calculate amount of dividends claimable"
      },
      "changeWallet(address)": {
        "notice": "Function used to change wallet address"
      },
      "configure(address)": {
        "notice": "Function used to intialize the contract variables"
      },
      "constructor": "Constructor",
      "createCheckpoint()": {
        "notice": "Creates a checkpoint on the security token"
      },
      "createDividend(uint256,uint256,address,uint256,bytes32)": {
        "notice": "Creates a dividend and checkpoint for the dividend"
      },
      "createDividendWithCheckpoint(uint256,uint256,address,uint256,uint256,bytes32)": {
        "notice": "Creates a dividend with a provided checkpoint"
      },
      "createDividendWithCheckpointAndExclusions(uint256,uint256,address,uint256,uint256,address[],bytes32)": {
        "notice": "Creates a dividend with a provided checkpoint"
      },
      "createDividendWithExclusions(uint256,uint256,address,uint256,address[],bytes32)": {
        "notice": "Creates a dividend and checkpoint for the dividend"
      },
      "getCheckpointData(uint256)": {
        "notice": "Retrieves list of investors, their balances, and their current withholding tax percentage"
      },
      "getDataStore()": {
        "notice": "used to return the data store address of securityToken"
      },
      "getDefaultExcluded()": {
        "notice": "Return the default excluded addresses"
      },
      "getDividendData(uint256)": {
        "notice": "Get static dividend data"
      },
      "getDividendIndex(uint256)": {
        "notice": "Get the index according to the checkpoint id"
      },
      "getDividendProgress(uint256)": {
        "notice": "Retrieves list of investors, their claim status and whether they are excluded"
      },
      "getDividendsData()": {
        "notice": "Get static dividend data"
      },
      "getInitFunction()": {
        "notice": "Init function i.e generalise function to maintain the structure of the module contract"
      },
      "getPermissions()": {
        "notice": "Return the permissions flag that are associated with this module"
      },
      "getTreasuryWallet()": {
        "notice": "Returns the treasury wallet address"
      },
      "isClaimed(address,uint256)": {
        "notice": "Checks whether an address has claimed a dividend"
      },
      "isExcluded(address,uint256)": {
        "notice": "Checks whether an address is excluded from claiming a dividend"
      },
      "pause()": {
        "notice": "Pause (overridden function)"
      },
      "pullDividendPayment(uint256)": {
        "notice": "Investors can pull their own dividends"
      },
      "pushDividendPayment(uint256,uint256,uint256)": {
        "notice": "Issuer can push dividends using the investor list from the security token"
      },
      "pushDividendPaymentToAddresses(uint256,address[])": {
        "notice": "Issuer can push dividends to provided addresses"
      },
      "reclaimDividend(uint256)": {
        "notice": "Issuer can reclaim remaining unclaimed dividend amounts, for expired dividends"
      },
      "reclaimERC20(address)": {
        "notice": "Reclaims ERC20Basic compatible tokens"
      },
      "reclaimETH()": {
        "notice": "Reclaims ETH"
      },
      "setDefaultExcluded(address[])": {
        "notice": "Function to clear and set list of excluded addresses used for future dividends"
      },
      "setWithholding(address[],uint256[])": {
        "notice": "Function to set withholding tax rates for investors"
      },
      "setWithholdingFixed(address[],uint256)": {
        "notice": "Function to set withholding tax rates for investors"
      },
      "unpause()": {
        "notice": "Unpause (overridden function)"
      },
      "updateDividendDates(uint256,uint256,uint256)": {
        "notice": "Allows issuer to change maturity / expiry dates for dividends"
      },
      "withdrawWithholding(uint256)": {
        "notice": "Allows issuer to withdraw withheld tax"
      }
    }
  }
}