{
  "contractName": "EtherDividendCheckpoint",
  "abi": [
    {
      "constant": false,
      "inputs": [
        {
          "name": "_investors",
          "type": "address[]"
        },
        {
          "name": "_withholding",
          "type": "uint256"
        }
      ],
      "name": "setWithholdingFixed",
      "outputs": [],
      "payable": false,
      "stateMutability": "nonpayable",
      "type": "function"
    },
    {
      "constant": true,
      "inputs": [],
      "name": "EXCLUDED_ADDRESS_LIMIT",
      "outputs": [
        {
          "name": "",
          "type": "uint256"
        }
      ],
      "payable": false,
      "stateMutability": "view",
      "type": "function"
    },
    {
      "constant": false,
      "inputs": [],
      "name": "reclaimETH",
      "outputs": [],
      "payable": false,
      "stateMutability": "nonpayable",
      "type": "function"
    },
    {
      "constant": true,
      "inputs": [],
      "name": "getInitFunction",
      "outputs": [
        {
          "name": "",
          "type": "bytes4"
        }
      ],
      "payable": false,
      "stateMutability": "pure",
      "type": "function"
    },
    {
      "constant": true,
      "inputs": [
        {
          "name": "_dividendIndex",
          "type": "uint256"
        }
      ],
      "name": "getDividendData",
      "outputs": [
        {
          "name": "created",
          "type": "uint256"
        },
        {
          "name": "maturity",
          "type": "uint256"
        },
        {
          "name": "expiry",
          "type": "uint256"
        },
        {
          "name": "amount",
          "type": "uint256"
        },
        {
          "name": "claimedAmount",
          "type": "uint256"
        },
        {
          "name": "name",
          "type": "bytes32"
        }
      ],
      "payable": false,
      "stateMutability": "view",
      "type": "function"
    },
    {
      "constant": false,
      "inputs": [
        {
          "name": "_dividendIndex",
          "type": "uint256"
        }
      ],
      "name": "pullDividendPayment",
      "outputs": [],
      "payable": false,
      "stateMutability": "nonpayable",
      "type": "function"
    },
    {
      "constant": true,
      "inputs": [],
      "name": "CHECKPOINT",
      "outputs": [
        {
          "name": "",
          "type": "bytes32"
        }
      ],
      "payable": false,
      "stateMutability": "view",
      "type": "function"
    },
    {
      "constant": false,
      "inputs": [],
      "name": "unpause",
      "outputs": [],
      "payable": false,
      "stateMutability": "nonpayable",
      "type": "function"
    },
    {
      "constant": false,
      "inputs": [
        {
          "name": "_dividendIndex",
          "type": "uint256"
        },
        {
          "name": "_payees",
          "type": "address[]"
        }
      ],
      "name": "pushDividendPaymentToAddresses",
      "outputs": [],
      "payable": false,
      "stateMutability": "nonpayable",
      "type": "function"
    },
    {
      "constant": true,
      "inputs": [],
      "name": "wallet",
      "outputs": [
        {
          "name": "",
          "type": "address"
        }
      ],
      "payable": false,
      "stateMutability": "view",
      "type": "function"
    },
    {
      "constant": true,
      "inputs": [
        {
          "name": "_investor",
          "type": "address"
        },
        {
          "name": "_dividendIndex",
          "type": "uint256"
        }
      ],
      "name": "isClaimed",
      "outputs": [
        {
          "name": "",
          "type": "bool"
        }
      ],
      "payable": false,
      "stateMutability": "view",
      "type": "function"
    },
    {
      "constant": true,
      "inputs": [
        {
          "name": "_dividendIndex",
          "type": "uint256"
        },
        {
          "name": "_payee",
          "type": "address"
        }
      ],
      "name": "calculateDividend",
      "outputs": [
        {
          "name": "",
          "type": "uint256"
        },
        {
          "name": "",
          "type": "uint256"
        }
      ],
      "payable": false,
      "stateMutability": "view",
      "type": "function"
    },
    {
      "constant": true,
      "inputs": [],
      "name": "MANAGE",
      "outputs": [
        {
          "name": "",
          "type": "bytes32"
        }
      ],
      "payable": false,
      "stateMutability": "view",
      "type": "function"
    },
    {
      "constant": true,
      "inputs": [],
      "name": "paused",
      "outputs": [
        {
          "name": "",
          "type": "bool"
        }
      ],
      "payable": false,
      "stateMutability": "view",
      "type": "function"
    },
    {
      "constant": true,
      "inputs": [
        {
          "name": "_checkpointId",
          "type": "uint256"
        }
      ],
      "name": "getDividendIndex",
      "outputs": [
        {
          "name": "",
          "type": "uint256[]"
        }
      ],
      "payable": false,
      "stateMutability": "view",
      "type": "function"
    },
    {
      "constant": false,
      "inputs": [
        {
          "name": "_amount",
          "type": "uint256"
        }
      ],
      "name": "takeFee",
      "outputs": [
        {
          "name": "",
          "type": "bool"
        }
      ],
      "payable": false,
      "stateMutability": "nonpayable",
      "type": "function"
    },
    {
      "constant": true,
      "inputs": [],
      "name": "polyToken",
      "outputs": [
        {
          "name": "",
          "type": "address"
        }
      ],
      "payable": false,
      "stateMutability": "view",
      "type": "function"
    },
    {
      "constant": false,
      "inputs": [
        {
          "name": "_dividendIndex",
          "type": "uint256"
        },
        {
          "name": "_maturity",
          "type": "uint256"
        },
        {
          "name": "_expiry",
          "type": "uint256"
        }
      ],
      "name": "updateDividendDates",
      "outputs": [],
      "payable": false,
      "stateMutability": "nonpayable",
      "type": "function"
    },
    {
      "constant": false,
      "inputs": [
        {
          "name": "_wallet",
          "type": "address"
        }
      ],
      "name": "configure",
      "outputs": [],
      "payable": false,
      "stateMutability": "nonpayable",
      "type": "function"
    },
    {
      "constant": true,
      "inputs": [
        {
          "name": "",
          "type": "address"
        }
      ],
      "name": "withholdingTax",
      "outputs": [
        {
          "name": "",
          "type": "uint256"
        }
      ],
      "payable": false,
      "stateMutability": "view",
      "type": "function"
    },
    {
      "constant": true,
      "inputs": [
        {
          "name": "_checkpointId",
          "type": "uint256"
        }
      ],
      "name": "getCheckpointData",
      "outputs": [
        {
          "name": "investors",
          "type": "address[]"
        },
        {
          "name": "balances",
          "type": "uint256[]"
        },
        {
          "name": "withholdings",
          "type": "uint256[]"
        }
      ],
      "payable": false,
      "stateMutability": "view",
      "type": "function"
    },
    {
      "constant": true,
      "inputs": [],
      "name": "DISTRIBUTE",
      "outputs": [
        {
          "name": "",
          "type": "bytes32"
        }
      ],
      "payable": false,
      "stateMutability": "view",
      "type": "function"
    },
    {
      "constant": true,
      "inputs": [
        {
          "name": "",
          "type": "uint256"
        }
      ],
      "name": "dividends",
      "outputs": [
        {
          "name": "checkpointId",
          "type": "uint256"
        },
        {
          "name": "created",
          "type": "uint256"
        },
        {
          "name": "maturity",
          "type": "uint256"
        },
        {
          "name": "expiry",
          "type": "uint256"
        },
        {
          "name": "amount",
          "type": "uint256"
        },
        {
          "name": "claimedAmount",
          "type": "uint256"
        },
        {
          "name": "totalSupply",
          "type": "uint256"
        },
        {
          "name": "reclaimed",
          "type": "bool"
        },
        {
          "name": "totalWithheld",
          "type": "uint256"
        },
        {
          "name": "totalWithheldWithdrawn",
          "type": "uint256"
        },
        {
          "name": "name",
          "type": "bytes32"
        }
      ],
      "payable": false,
      "stateMutability": "view",
      "type": "function"
    },
    {
      "constant": true,
      "inputs": [
        {
          "name": "_investor",
          "type": "address"
        },
        {
          "name": "_dividendIndex",
          "type": "uint256"
        }
      ],
      "name": "isExcluded",
      "outputs": [
        {
          "name": "",
          "type": "bool"
        }
      ],
      "payable": false,
      "stateMutability": "view",
      "type": "function"
    },
    {
      "constant": false,
      "inputs": [],
      "name": "pause",
      "outputs": [],
      "payable": false,
      "stateMutability": "nonpayable",
      "type": "function"
    },
    {
      "constant": false,
      "inputs": [
        {
          "name": "_investors",
          "type": "address[]"
        },
        {
          "name": "_withholding",
          "type": "uint256[]"
        }
      ],
      "name": "setWithholding",
      "outputs": [],
      "payable": false,
      "stateMutability": "nonpayable",
      "type": "function"
    },
    {
      "constant": false,
      "inputs": [
        {
          "name": "_tokenContract",
          "type": "address"
        }
      ],
      "name": "reclaimERC20",
      "outputs": [],
      "payable": false,
      "stateMutability": "nonpayable",
      "type": "function"
    },
    {
      "constant": false,
      "inputs": [
        {
          "name": "_wallet",
          "type": "address"
        }
      ],
      "name": "changeWallet",
      "outputs": [],
      "payable": false,
      "stateMutability": "nonpayable",
      "type": "function"
    },
    {
      "constant": true,
      "inputs": [],
      "name": "getDividendsData",
      "outputs": [
        {
          "name": "createds",
          "type": "uint256[]"
        },
        {
          "name": "maturitys",
          "type": "uint256[]"
        },
        {
          "name": "expirys",
          "type": "uint256[]"
        },
        {
          "name": "amounts",
          "type": "uint256[]"
        },
        {
          "name": "claimedAmounts",
          "type": "uint256[]"
        },
        {
          "name": "names",
          "type": "bytes32[]"
        }
      ],
      "payable": false,
      "stateMutability": "view",
      "type": "function"
    },
    {
      "constant": true,
      "inputs": [],
      "name": "securityToken",
      "outputs": [
        {
          "name": "",
          "type": "address"
        }
      ],
      "payable": false,
      "stateMutability": "view",
      "type": "function"
    },
    {
      "constant": true,
      "inputs": [
        {
          "name": "",
          "type": "uint256"
        }
      ],
      "name": "excluded",
      "outputs": [
        {
          "name": "",
          "type": "address"
        }
      ],
      "payable": false,
      "stateMutability": "view",
      "type": "function"
    },
    {
      "constant": true,
      "inputs": [],
      "name": "getPermissions",
      "outputs": [
        {
          "name": "",
          "type": "bytes32[]"
        }
      ],
      "payable": false,
      "stateMutability": "view",
      "type": "function"
    },
    {
      "constant": true,
      "inputs": [],
      "name": "factory",
      "outputs": [
        {
          "name": "",
          "type": "address"
        }
      ],
      "payable": false,
      "stateMutability": "view",
      "type": "function"
    },
    {
      "constant": false,
      "inputs": [
        {
          "name": "_excluded",
          "type": "address[]"
        }
      ],
      "name": "setDefaultExcluded",
      "outputs": [],
      "payable": false,
      "stateMutability": "nonpayable",
      "type": "function"
    },
    {
      "constant": true,
      "inputs": [],
      "name": "FEE_ADMIN",
      "outputs": [
        {
          "name": "",
          "type": "bytes32"
        }
      ],
      "payable": false,
      "stateMutability": "view",
      "type": "function"
    },
    {
      "constant": false,
      "inputs": [
        {
          "name": "_dividendIndex",
          "type": "uint256"
        },
        {
          "name": "_start",
          "type": "uint256"
        },
        {
          "name": "_iterations",
          "type": "uint256"
        }
      ],
      "name": "pushDividendPayment",
      "outputs": [],
      "payable": false,
      "stateMutability": "nonpayable",
      "type": "function"
    },
    {
      "constant": true,
      "inputs": [],
      "name": "getDefaultExcluded",
      "outputs": [
        {
          "name": "",
          "type": "address[]"
        }
      ],
      "payable": false,
      "stateMutability": "view",
      "type": "function"
    },
    {
      "constant": true,
      "inputs": [
        {
          "name": "_dividendIndex",
          "type": "uint256"
        }
      ],
      "name": "getDividendProgress",
      "outputs": [
        {
          "name": "investors",
          "type": "address[]"
        },
        {
          "name": "resultClaimed",
          "type": "bool[]"
        },
        {
          "name": "resultExcluded",
          "type": "bool[]"
        },
        {
          "name": "resultWithheld",
          "type": "uint256[]"
        },
        {
          "name": "resultAmount",
          "type": "uint256[]"
        },
        {
          "name": "resultBalance",
          "type": "uint256[]"
        }
      ],
      "payable": false,
      "stateMutability": "view",
      "type": "function"
    },
    {
      "constant": false,
      "inputs": [],
      "name": "createCheckpoint",
      "outputs": [
        {
          "name": "",
          "type": "uint256"
        }
      ],
      "payable": false,
      "stateMutability": "nonpayable",
      "type": "function"
    },
    {
      "inputs": [
        {
          "name": "_securityToken",
          "type": "address"
        },
        {
          "name": "_polyAddress",
          "type": "address"
        }
      ],
      "payable": false,
      "stateMutability": "nonpayable",
      "type": "constructor"
    },
    {
      "anonymous": false,
      "inputs": [
        {
          "indexed": true,
          "name": "_depositor",
          "type": "address"
        },
        {
          "indexed": false,
          "name": "_checkpointId",
          "type": "uint256"
        },
        {
          "indexed": false,
          "name": "_created",
          "type": "uint256"
        },
        {
          "indexed": false,
          "name": "_maturity",
          "type": "uint256"
        },
        {
          "indexed": false,
          "name": "_expiry",
          "type": "uint256"
        },
        {
          "indexed": false,
          "name": "_amount",
          "type": "uint256"
        },
        {
          "indexed": false,
          "name": "_totalSupply",
          "type": "uint256"
        },
        {
          "indexed": true,
          "name": "_dividendIndex",
          "type": "uint256"
        },
        {
          "indexed": true,
          "name": "_name",
          "type": "bytes32"
        }
      ],
      "name": "EtherDividendDeposited",
      "type": "event"
    },
    {
      "anonymous": false,
      "inputs": [
        {
          "indexed": true,
          "name": "_payee",
          "type": "address"
        },
        {
          "indexed": true,
          "name": "_dividendIndex",
          "type": "uint256"
        },
        {
          "indexed": false,
          "name": "_amount",
          "type": "uint256"
        },
        {
          "indexed": false,
          "name": "_withheld",
          "type": "uint256"
        }
      ],
      "name": "EtherDividendClaimed",
      "type": "event"
    },
    {
      "anonymous": false,
      "inputs": [
        {
          "indexed": true,
          "name": "_claimer",
          "type": "address"
        },
        {
          "indexed": true,
          "name": "_dividendIndex",
          "type": "uint256"
        },
        {
          "indexed": false,
          "name": "_claimedAmount",
          "type": "uint256"
        }
      ],
      "name": "EtherDividendReclaimed",
      "type": "event"
    },
    {
      "anonymous": false,
      "inputs": [
        {
          "indexed": true,
          "name": "_payee",
          "type": "address"
        },
        {
          "indexed": true,
          "name": "_dividendIndex",
          "type": "uint256"
        },
        {
          "indexed": false,
          "name": "_amount",
          "type": "uint256"
        },
        {
          "indexed": false,
          "name": "_withheld",
          "type": "uint256"
        }
      ],
      "name": "EtherDividendClaimFailed",
      "type": "event"
    },
    {
      "anonymous": false,
      "inputs": [
        {
          "indexed": true,
          "name": "_claimer",
          "type": "address"
        },
        {
          "indexed": true,
          "name": "_dividendIndex",
          "type": "uint256"
        },
        {
          "indexed": false,
          "name": "_withheldAmount",
          "type": "uint256"
        }
      ],
      "name": "EtherDividendWithholdingWithdrawn",
      "type": "event"
    },
    {
      "anonymous": false,
      "inputs": [
        {
          "indexed": false,
          "name": "_excluded",
          "type": "address[]"
        },
        {
          "indexed": false,
          "name": "_timestamp",
          "type": "uint256"
        }
      ],
      "name": "SetDefaultExcludedAddresses",
      "type": "event"
    },
    {
      "anonymous": false,
      "inputs": [
        {
          "indexed": false,
          "name": "_investors",
          "type": "address[]"
        },
        {
          "indexed": false,
          "name": "_withholding",
          "type": "uint256[]"
        },
        {
          "indexed": false,
          "name": "_timestamp",
          "type": "uint256"
        }
      ],
      "name": "SetWithholding",
      "type": "event"
    },
    {
      "anonymous": false,
      "inputs": [
        {
          "indexed": false,
          "name": "_investors",
          "type": "address[]"
        },
        {
          "indexed": false,
          "name": "_withholding",
          "type": "uint256"
        },
        {
          "indexed": false,
          "name": "_timestamp",
          "type": "uint256"
        }
      ],
      "name": "SetWithholdingFixed",
      "type": "event"
    },
    {
      "anonymous": false,
      "inputs": [
        {
          "indexed": true,
          "name": "_oldWallet",
          "type": "address"
        },
        {
          "indexed": true,
          "name": "_newWallet",
          "type": "address"
        },
        {
          "indexed": false,
          "name": "_timestamp",
          "type": "uint256"
        }
      ],
      "name": "SetWallet",
      "type": "event"
    },
    {
      "anonymous": false,
      "inputs": [
        {
          "indexed": true,
          "name": "_dividendIndex",
          "type": "uint256"
        },
        {
          "indexed": false,
          "name": "_maturity",
          "type": "uint256"
        },
        {
          "indexed": false,
          "name": "_expiry",
          "type": "uint256"
        }
      ],
      "name": "UpdateDividendDates",
      "type": "event"
    },
    {
      "anonymous": false,
      "inputs": [
        {
          "indexed": false,
          "name": "_timestammp",
          "type": "uint256"
        }
      ],
      "name": "Pause",
      "type": "event"
    },
    {
      "anonymous": false,
      "inputs": [
        {
          "indexed": false,
          "name": "_timestamp",
          "type": "uint256"
        }
      ],
      "name": "Unpause",
      "type": "event"
    },
    {
      "constant": false,
      "inputs": [
        {
          "name": "_maturity",
          "type": "uint256"
        },
        {
          "name": "_expiry",
          "type": "uint256"
        },
        {
          "name": "_name",
          "type": "bytes32"
        }
      ],
      "name": "createDividend",
      "outputs": [],
      "payable": true,
      "stateMutability": "payable",
      "type": "function"
    },
    {
      "constant": false,
      "inputs": [
        {
          "name": "_maturity",
          "type": "uint256"
        },
        {
          "name": "_expiry",
          "type": "uint256"
        },
        {
          "name": "_checkpointId",
          "type": "uint256"
        },
        {
          "name": "_name",
          "type": "bytes32"
        }
      ],
      "name": "createDividendWithCheckpoint",
      "outputs": [],
      "payable": true,
      "stateMutability": "payable",
      "type": "function"
    },
    {
      "constant": false,
      "inputs": [
        {
          "name": "_maturity",
          "type": "uint256"
        },
        {
          "name": "_expiry",
          "type": "uint256"
        },
        {
          "name": "_excluded",
          "type": "address[]"
        },
        {
          "name": "_name",
          "type": "bytes32"
        }
      ],
      "name": "createDividendWithExclusions",
      "outputs": [],
      "payable": true,
      "stateMutability": "payable",
      "type": "function"
    },
    {
      "constant": false,
      "inputs": [
        {
          "name": "_maturity",
          "type": "uint256"
        },
        {
          "name": "_expiry",
          "type": "uint256"
        },
        {
          "name": "_checkpointId",
          "type": "uint256"
        },
        {
          "name": "_excluded",
          "type": "address[]"
        },
        {
          "name": "_name",
          "type": "bytes32"
        }
      ],
      "name": "createDividendWithCheckpointAndExclusions",
      "outputs": [],
      "payable": true,
      "stateMutability": "payable",
      "type": "function"
    },
    {
      "constant": false,
      "inputs": [
        {
          "name": "_dividendIndex",
          "type": "uint256"
        }
      ],
      "name": "reclaimDividend",
      "outputs": [],
      "payable": false,
      "stateMutability": "nonpayable",
      "type": "function"
    },
    {
      "constant": false,
      "inputs": [
        {
          "name": "_dividendIndex",
          "type": "uint256"
        }
      ],
      "name": "withdrawWithholding",
      "outputs": [],
      "payable": false,
      "stateMutability": "nonpayable",
      "type": "function"
    }
  ],
  "bytecode": "0x608060405260966001556007805460a060020a60ff021916905534801561002557600080fd5b506040516040806200595a83398101604052805160209091015160068054600160a060020a03938416600160a060020a03199182161790915560058054821633179055600780549390921692169190911790556158d280620000886000396000f30060806040526004361061020b5763ffffffff60e060020a6000350416630945812e81146102105780630a29f591146102695780630f144a48146102905780631613ec9d146102a557806328d1feda146102ef57806330008b481461033a578063333cffe51461035257806335d806f81461036a5780633f4ba83a1461037f5780634d58e41314610394578063521eb273146103ee578063562beba81461041f5780635bea0e1c146104575780635bf341c1146104945780635c975abb146104a95780635daff64e146104be5780635f7619a4146105265780636faa22a51461053e57806373e9e1a31461055357806375cb2672146105715780637a3e23fd146105925780637b4a223b146105b357806380fef5af146106a9578063814b3fe0146106be57806381e97b661461072e5780638456cb59146107525780638596e6e6146107675780638905fd4f146107f557806398b9a2dc14610816578063aa8b76ea14610837578063ac121dbf1461084f578063b84dfbd214610a11578063bea1c04114610a26578063bee2ddc214610a7f578063c3a07df614610a97578063c45a015514610aac578063cc1556dc14610ac1578063d70afa9614610b16578063dcef4b5d14610b2b578063e1726faa14610b3f578063f1e9d10014610b5d578063f4be43f414610b72578063f58b5bae14610b83578063fa67a7bb14610bd6578063ff0b9c9014610bee575b600080fd5b34801561021c57600080fd5b5060408051602060048035808201358381028086018501909652808552610267953695939460249493850192918291850190849080828437509497505093359450610c039350505050565b005b34801561027557600080fd5b5061027e610ec5565b60408051918252519081900360200190f35b34801561029c57600080fd5b50610267610ecb565b3480156102b157600080fd5b506102ba610fc7565b604080517fffffffff000000000000000000000000000000000000000000000000000000009092168252519081900360200190f35b3480156102fb57600080fd5b50610307600435610fec565b604080519687526020870195909552858501939093526060850191909152608084015260a0830152519081900360c00190f35b34801561034657600080fd5b506102676004356110d0565b34801561035e57600080fd5b50610267600435611267565b34801561037657600080fd5b5061027e611511565b34801561038b57600080fd5b50610267611535565b3480156103a057600080fd5b506040805160206004602480358281013584810280870186019097528086526102679684359636966044959194909101929182918501908490808284375094975061160b9650505050505050565b3480156103fa57600080fd5b50610403611884565b60408051600160a060020a039092168252519081900360200190f35b34801561042b57600080fd5b50610443600160a060020a0360043516602435611893565b604080519115158252519081900360200190f35b34801561046357600080fd5b5061047b600435600160a060020a0360243516611920565b6040805192835260208301919091528051918290030190f35b3480156104a057600080fd5b5061027e611b03565b3480156104b557600080fd5b50610443611b13565b3480156104ca57600080fd5b506104d6600435611b23565b60408051602080825283518183015283519192839290830191858101910280838360005b838110156105125781810151838201526020016104fa565b505050509050019250505060405180910390f35b34801561053257600080fd5b50610443600435611c08565b34801561054a57600080fd5b50610403611f20565b34801561055f57600080fd5b50610267600435602435604435611f2f565b34801561057d57600080fd5b50610267600160a060020a036004351661211b565b34801561059e57600080fd5b5061027e600160a060020a0360043516612186565b3480156105bf57600080fd5b506105cb600435612198565b60405180806020018060200180602001848103845287818151815260200191508051906020019060200280838360005b838110156106135781810151838201526020016105fb565b50505050905001848103835286818151815260200191508051906020019060200280838360005b8381101561065257818101518382015260200161063a565b50505050905001848103825285818151815260200191508051906020019060200280838360005b83811015610691578181015183820152602001610679565b50505050905001965050505050505060405180910390f35b3480156106b557600080fd5b5061027e6124fb565b3480156106ca57600080fd5b506106d660043561250d565b604080519b8c5260208c019a909a528a8a019890985260608a0196909652608089019490945260a088019290925260c0870152151560e086015261010085015261012084015261014083015251908190036101600190f35b34801561073a57600080fd5b50610443600160a060020a036004351660243561257a565b34801561075e57600080fd5b50610267612606565b34801561077357600080fd5b506040805160206004803580820135838102808601850190965280855261026795369593946024949385019291829185019084908082843750506040805187358901803560208181028481018201909552818452989b9a9989019892975090820195509350839250850190849080828437509497506126da9650505050505050565b34801561080157600080fd5b50610267600160a060020a0360043516612a59565b34801561082257600080fd5b50610267600160a060020a0360043516612d06565b34801561084357600080fd5b50610267600435612dd2565b34801561085b57600080fd5b50610864613177565b6040518080602001806020018060200180602001806020018060200187810387528d818151815260200191508051906020019060200280838360005b838110156108b85781810151838201526020016108a0565b5050505090500187810386528c818151815260200191508051906020019060200280838360005b838110156108f75781810151838201526020016108df565b5050505090500187810385528b818151815260200191508051906020019060200280838360005b8381101561093657818101518382015260200161091e565b5050505090500187810384528a818151815260200191508051906020019060200280838360005b8381101561097557818101518382015260200161095d565b50505050905001878103835289818151815260200191508051906020019060200280838360005b838110156109b457818101518382015260200161099c565b50505050905001878103825288818151815260200191508051906020019060200280838360005b838110156109f35781810151838201526020016109db565b505050509050019c5050505050505050505050505060405180910390f35b348015610a1d57600080fd5b50610403613367565b604080516064356004818101356020818102858101820190965281855261026795833595602480359660443596369690956084959290930192909182918501908490808284375094975050933594506133769350505050565b348015610a8b57600080fd5b50610403600435613507565b348015610aa357600080fd5b506104d661352f565b348015610ab857600080fd5b506104036135aa565b348015610acd57600080fd5b5060408051602060048035808201358381028086018501909652808552610267953695939460249493850192918291850190849080828437509497506135b99650505050505050565b348015610b2257600080fd5b5061027e613985565b6102676004356024356044356064356139a9565b348015610b4b57600080fd5b50610267600435602435604435613b9d565b348015610b6957600080fd5b506104d6613eff565b610267600435602435604435613f61565b604080516020600460443581810135838102808601850190965280855261026795833595602480359636969560649593949201929182918501908490808284375094975050933594506141479350505050565b348015610be257600080fd5b5061086460043561435b565b348015610bfa57600080fd5b5061027e6148c3565b600060d060020a654d414e41474502600080600660009054906101000a9004600160a060020a0316600160a060020a0316638da5cb5b6040518163ffffffff1660e060020a028152600401602060405180830381600087803b158015610c6857600080fd5b505af1158015610c7c573d6000803e3d6000fd5b505050506040513d6020811015610c9257600080fd5b505160055433600160a060020a039283168114945091161490508180610cb55750805b80610d4557506006546040805160e060020a638658b8b9028152336004820152306024820152604481018690529051600160a060020a0390921691638658b8b9916064808201926020929091908290030181600087803b158015610d1857600080fd5b505af1158015610d2c573d6000803e3d6000fd5b505050506040513d6020811015610d4257600080fd5b50515b1515610d89576040805160e560020a62461bcd0281526020600482015260176024820152600080516020615867833981519152604482015290519081900360640190fd5b670de0b6b3a7640000851115610de9576040805160e560020a62461bcd02815260206004820152601960248201527f496e636f72726563742077697468686f6c64696e672074617800000000000000604482015290519081900360640190fd5b7f3587f82979516528f7ce51509410f4d49aaed2fe4c2661c07a02cc17ea1410278686426040518080602001848152602001838152602001828103825285818151815260200191508051906020019060200280838360005b83811015610e59578181015183820152602001610e41565b5050505090500194505050505060405180910390a1600093505b8551841015610ebd5784600460008887815181101515610e8f57fe5b6020908102909101810151600160a060020a0316825281019190915260400160002055600190930192610e73565b505050505050565b60015481565b600660009054906101000a9004600160a060020a0316600160a060020a0316638da5cb5b6040518163ffffffff1660e060020a028152600401602060405180830381600087803b158015610f1e57600080fd5b505af1158015610f32573d6000803e3d6000fd5b505050506040513d6020811015610f4857600080fd5b5051600160a060020a03163314610f97576040805160e560020a62461bcd0281526020600482015260136024820152600080516020615887833981519152604482015290519081900360640190fd5b6040513390303180156108fc02916000818181858888f19350505050158015610fc4573d6000803e3d6000fd5b50565b7f75cb2672000000000000000000000000000000000000000000000000000000005b90565b60008060008060008060028781548110151561100457fe5b90600052602060002090600e020160010154955060028781548110151561102757fe5b90600052602060002090600e020160020154945060028781548110151561104a57fe5b90600052602060002090600e020160030154935060028781548110151561106d57fe5b90600052602060002090600e020160040154925060028781548110151561109057fe5b90600052602060002090600e02016005015491506002878154811015156110b357fe5b90600052602060002090600e0201600d0154905091939550919395565b6000816110dc81614ae4565b60075460a060020a900460ff161561113e576040805160e560020a62461bcd02815260206004820152601260248201527f436f6e7472616374206973207061757365640000000000000000000000000000604482015290519081900360640190fd5b600280548490811061114c57fe5b60009182526020808320338452600a600e90930201918201905260409091205490925060ff16156111c7576040805160e560020a62461bcd02815260206004820152601860248201527f4469766964656e6420616c726561647920636c61696d65640000000000000000604482015290519081900360640190fd5b336000908152600b8301602052604090205460ff1615611257576040805160e560020a62461bcd02815260206004820152602160248201527f6d73672e73656e646572206578636c756465642066726f6d204469766964656e60448201527f6400000000000000000000000000000000000000000000000000000000000000606482015290519081900360840190fd5b611262338385614c96565b505050565b60008060d060020a654d414e41474502600080600660009054906101000a9004600160a060020a0316600160a060020a0316638da5cb5b6040518163ffffffff1660e060020a028152600401602060405180830381600087803b1580156112cd57600080fd5b505af11580156112e1573d6000803e3d6000fd5b505050506040513d60208110156112f757600080fd5b505160055433600160a060020a03928316811494509116149050818061131a5750805b806113aa57506006546040805160e060020a638658b8b9028152336004820152306024820152604481018690529051600160a060020a0390921691638658b8b9916064808201926020929091908290030181600087803b15801561137d57600080fd5b505af1158015611391573d6000803e3d6000fd5b505050506040513d60208110156113a757600080fd5b50515b15156113ee576040805160e560020a62461bcd0281526020600482015260176024820152600080516020615867833981519152604482015290519081900360640190fd5b6002548610611447576040805160e560020a62461bcd02815260206004820152601860248201527f496e636f7272656374206469766964656e6420696e6465780000000000000000604482015290519081900360640190fd5b600280548790811061145557fe5b90600052602060002090600e0201945061148085600901548660080154614e1c90919063ffffffff16565b6008860154600987015560008054604051929650600160a060020a03169186156108fc0291879190818181858888f193505050501580156114c5573d6000803e3d6000fd5b506000546040805186815290518892600160a060020a0316917fc817826994cc4cf2dd66758f988195f8ad3e29078e2ce7ff40fe66477eff27e8919081900360200190a3505050505050565b7f434845434b504f494e540000000000000000000000000000000000000000000081565b600660009054906101000a9004600160a060020a0316600160a060020a0316638da5cb5b6040518163ffffffff1660e060020a028152600401602060405180830381600087803b15801561158857600080fd5b505af115801561159c573d6000803e3d6000fd5b505050506040513d60208110156115b257600080fd5b5051600160a060020a03163314611601576040805160e560020a62461bcd0281526020600482015260136024820152600080516020615887833981519152604482015290519081900360640190fd5b611609614e2e565b565b600080600080516020615847833981519152600080600660009054906101000a9004600160a060020a0316600160a060020a0316638da5cb5b6040518163ffffffff1660e060020a028152600401602060405180830381600087803b15801561167357600080fd5b505af1158015611687573d6000803e3d6000fd5b505050506040513d602081101561169d57600080fd5b505160055433600160a060020a0392831681149450911614905081806116c05750805b8061175057506006546040805160e060020a638658b8b9028152336004820152306024820152604481018690529051600160a060020a0390921691638658b8b9916064808201926020929091908290030181600087803b15801561172357600080fd5b505af1158015611737573d6000803e3d6000fd5b505050506040513d602081101561174d57600080fd5b50515b1515611794576040805160e560020a62461bcd0281526020600482015260176024820152600080516020615867833981519152604482015290519081900360640190fd5b8661179e81614ae4565b60028054899081106117ac57fe5b90600052602060002090600e02019550600094505b865185101561187a5785600a01600088878151811015156117de57fe5b6020908102909101810151600160a060020a031682528101919091526040016000205460ff16158015611848575085600b016000888781518110151561182057fe5b6020908102909101810151600160a060020a031682528101919091526040016000205460ff16155b1561186f5761186f878681518110151561185e57fe5b90602001906020020151878a614c96565b6001909401936117c1565b5050505050505050565b600054600160a060020a031681565b60025460009082106118dd576040805160e560020a62461bcd0281526020600482015260106024820152600080516020615827833981519152604482015290519081900360640190fd5b60028054839081106118eb57fe5b60009182526020808320600160a060020a0387168452600a600e90930201919091019052604090205460ff1690505b92915050565b60008060008060008060028054905088101515611975576040805160e560020a62461bcd0281526020600482015260106024820152600080516020615827833981519152604482015290519081900360640190fd5b600280548990811061198357fe5b60009182526020808320600160a060020a038b168452600a600e90930201918201905260409091205490945060ff16806119d75750600160a060020a0387166000908152600b8501602052604090205460ff165b156119e85760009550859450611af8565b6006548454604080517f4ee2cd7e000000000000000000000000000000000000000000000000000000008152600160a060020a038b81166004830152602482019390935290519190921691634ee2cd7e9160448083019260209291908290030181600087803b158015611a5a57600080fd5b505af1158015611a6e573d6000803e3d6000fd5b505050506040513d6020811015611a8457600080fd5b505160068501546004860154919450611ab491611aa890869063ffffffff614ee416565b9063ffffffff614f0d16565b600160a060020a038816600090815260046020526040902054909250611aef90670de0b6b3a764000090611aa890859063ffffffff614ee416565b90508181955095505b505050509250929050565b60d060020a654d414e4147450281565b60075460a060020a900460ff1681565b606060008082815b600254831015611b6f5785600284815481101515611b4557fe5b90600052602060002090600e0201600001541415611b64576001909301925b600190920191611b2b565b83604051908082528060200260200182016040528015611b99578160200160208202803883390190505b50915060009350600090505b600254811015611bff5785600282815481101515611bbf57fe5b90600052602060002090600e0201600001541415611bf757808285815181101515611be657fe5b602090810290910101526001909301925b600101611ba5565b50949350505050565b60007f4645455f41444d494e0000000000000000000000000000000000000000000000600080600660009054906101000a9004600160a060020a0316600160a060020a0316638da5cb5b6040518163ffffffff1660e060020a028152600401602060405180830381600087803b158015611c8157600080fd5b505af1158015611c95573d6000803e3d6000fd5b505050506040513d6020811015611cab57600080fd5b505160055433600160a060020a039283168114945091161490508180611cce5750805b80611d5e57506006546040805160e060020a638658b8b9028152336004820152306024820152604481018690529051600160a060020a0390921691638658b8b9916064808201926020929091908290030181600087803b158015611d3157600080fd5b505af1158015611d45573d6000803e3d6000fd5b505050506040513d6020811015611d5b57600080fd5b50515b1515611da2576040805160e560020a62461bcd0281526020600482015260176024820152600080516020615867833981519152604482015290519081900360640190fd5b600754600654600554604080517f8da5cb5b0000000000000000000000000000000000000000000000000000000081529051600160a060020a03948516946323b872dd948116931691638da5cb5b9160048083019260209291908290030181600087803b158015611e1257600080fd5b505af1158015611e26573d6000803e3d6000fd5b505050506040513d6020811015611e3c57600080fd5b50516040805160e060020a63ffffffff8616028152600160a060020a039384166004820152929091166024830152604482018990525160648083019260209291908290030181600087803b158015611e9357600080fd5b505af1158015611ea7573d6000803e3d6000fd5b505050506040513d6020811015611ebd57600080fd5b50511515611f15576040805160e560020a62461bcd02815260206004820152601260248201527f556e61626c6520746f2074616b65206665650000000000000000000000000000604482015290519081900360640190fd5b506001949350505050565b600754600160a060020a031681565b600654604080517f8da5cb5b0000000000000000000000000000000000000000000000000000000081529051600092600160a060020a031691638da5cb5b91600480830192602092919082900301818787803b158015611f8e57600080fd5b505af1158015611fa2573d6000803e3d6000fd5b505050506040513d6020811015611fb857600080fd5b5051600160a060020a03163314612007576040805160e560020a62461bcd0281526020600482015260136024820152600080516020615887833981519152604482015290519081900360640190fd5b600254841061204e576040805160e560020a62461bcd0281526020600482015260106024820152600080516020615827833981519152604482015290519081900360640190fd5b8282116120a5576040805160e560020a62461bcd02815260206004820152601660248201527f457870697279206265666f7265206d6174757269747900000000000000000000604482015290519081900360640190fd5b60028054859081106120b357fe5b90600052602060002090600e02019050818160030181905550828160020181905550837f4d385ba2c40259cda374f5596718ac5694e5849b23572b3f59b4fd1be037a8608484604051808381526020018281526020019250505060405180910390a250505050565b600554600160a060020a0316331461217d576040805160e560020a62461bcd02815260206004820152601560248201527f53656e646572206973206e6f7420666163746f72790000000000000000000000604482015290519081900360640190fd5b610fc481614f22565b60046020526000908152604090205481565b60608060606000600660009054906101000a9004600160a060020a0316600160a060020a0316635488cc806040518163ffffffff1660e060020a028152600401602060405180830381600087803b1580156121f257600080fd5b505af1158015612206573d6000803e3d6000fd5b505050506040513d602081101561221c57600080fd5b5051851115612275576040805160e560020a62461bcd02815260206004820152601260248201527f496e76616c696420636865636b706f696e740000000000000000000000000000604482015290519081900360640190fd5b600654604080517f3f553586000000000000000000000000000000000000000000000000000000008152600481018890529051600160a060020a0390921691633f5535869160248082019260009290919082900301818387803b1580156122db57600080fd5b505af11580156122ef573d6000803e3d6000fd5b505050506040513d6000823e601f3d908101601f19168201604052602081101561231857600080fd5b81019080805164010000000081111561233057600080fd5b8201602081018481111561234357600080fd5b815185602082028301116401000000008211171561236057600080fd5b505092919050505093508351604051908082528060200260200182016040528015612395578160200160208202803883390190505b50925083516040519080825280602002602001820160405280156123c3578160200160208202803883390190505b5091505b83518110156124f3576006548451600160a060020a0390911690634ee2cd7e908690849081106123f357fe5b90602001906020020151876040518363ffffffff1660e060020a0281526004018083600160a060020a0316600160a060020a0316815260200182815260200192505050602060405180830381600087803b15801561245057600080fd5b505af1158015612464573d6000803e3d6000fd5b505050506040513d602081101561247a57600080fd5b5051835184908390811061248a57fe5b6020908102909101015283516004906000908690849081106124a857fe5b90602001906020020151600160a060020a0316600160a060020a031681526020019081526020016000205482828151811015156124e157fe5b602090810290910101526001016123c7565b509193909250565b60008051602061584783398151915281565b600280548290811061251b57fe5b60009182526020909120600e9091020180546001820154600283015460038401546004850154600586015460068701546007880154600889015460098a0154600d909a0154989a5096989597949693959294919360ff9091169290918b565b60025460009082106125c4576040805160e560020a62461bcd0281526020600482015260106024820152600080516020615827833981519152604482015290519081900360640190fd5b60028054839081106125d257fe5b60009182526020808320600160a060020a0387168452600b600e90930201919091019052604090205460ff16905092915050565b600660009054906101000a9004600160a060020a0316600160a060020a0316638da5cb5b6040518163ffffffff1660e060020a028152600401602060405180830381600087803b15801561265957600080fd5b505af115801561266d573d6000803e3d6000fd5b505050506040513d602081101561268357600080fd5b5051600160a060020a031633146126d2576040805160e560020a62461bcd0281526020600482015260136024820152600080516020615887833981519152604482015290519081900360640190fd5b611609614fab565b600060d060020a654d414e41474502600080600660009054906101000a9004600160a060020a0316600160a060020a0316638da5cb5b6040518163ffffffff1660e060020a028152600401602060405180830381600087803b15801561273f57600080fd5b505af1158015612753573d6000803e3d6000fd5b505050506040513d602081101561276957600080fd5b505160055433600160a060020a03928316811494509116149050818061278c5750805b8061281c57506006546040805160e060020a638658b8b9028152336004820152306024820152604481018690529051600160a060020a0390921691638658b8b9916064808201926020929091908290030181600087803b1580156127ef57600080fd5b505af1158015612803573d6000803e3d6000fd5b505050506040513d602081101561281957600080fd5b50515b1515612860576040805160e560020a62461bcd0281526020600482015260176024820152600080516020615867833981519152604482015290519081900360640190fd5b84518651146128b9576040805160e560020a62461bcd02815260206004820152601860248201527f4d69736d61746368656420696e707574206c656e677468730000000000000000604482015290519081900360640190fd5b7f8e6f19b496a634d6fb5faea10ece2675995b6f7a0946a7509885eb76889e1213868642604051808060200180602001848152602001838103835286818151815260200191508051906020019060200280838360005b8381101561292757818101518382015260200161290f565b50505050905001838103825285818151815260200191508051906020019060200280838360005b8381101561296657818101518382015260200161294e565b505050509050019550505050505060405180910390a1600093505b8551841015610ebd57670de0b6b3a764000085858151811015156129a157fe5b602090810290910101511115612a01576040805160e560020a62461bcd02815260206004820152601960248201527f496e636f72726563742077697468686f6c64696e672074617800000000000000604482015290519081900360640190fd5b8484815181101515612a0f57fe5b90602001906020020151600460008887815181101515612a2b57fe5b6020908102909101810151600160a060020a0316825281019190915260400160002055600190930192612981565b600080600660009054906101000a9004600160a060020a0316600160a060020a0316638da5cb5b6040518163ffffffff1660e060020a028152600401602060405180830381600087803b158015612aaf57600080fd5b505af1158015612ac3573d6000803e3d6000fd5b505050506040513d6020811015612ad957600080fd5b5051600160a060020a03163314612b28576040805160e560020a62461bcd0281526020600482015260136024820152600080516020615887833981519152604482015290519081900360640190fd5b600160a060020a0383161515612b88576040805160e560020a62461bcd02815260206004820152600f60248201527f496e76616c696420616464726573730000000000000000000000000000000000604482015290519081900360640190fd5b604080517f70a082310000000000000000000000000000000000000000000000000000000081523060048201529051849350600160a060020a038416916370a082319160248083019260209291908290030181600087803b158015612bec57600080fd5b505af1158015612c00573d6000803e3d6000fd5b505050506040513d6020811015612c1657600080fd5b5051604080517fa9059cbb000000000000000000000000000000000000000000000000000000008152336004820152602481018390529051919250600160a060020a0384169163a9059cbb916044808201926020929091908290030181600087803b158015612c8457600080fd5b505af1158015612c98573d6000803e3d6000fd5b505050506040513d6020811015612cae57600080fd5b50511515611262576040805160e560020a62461bcd02815260206004820152600f60248201527f5472616e73666572206661696c65640000000000000000000000000000000000604482015290519081900360640190fd5b600660009054906101000a9004600160a060020a0316600160a060020a0316638da5cb5b6040518163ffffffff1660e060020a028152600401602060405180830381600087803b158015612d5957600080fd5b505af1158015612d6d573d6000803e3d6000fd5b505050506040513d6020811015612d8357600080fd5b5051600160a060020a0316331461217d576040805160e560020a62461bcd0281526020600482015260136024820152600080516020615887833981519152604482015290519081900360640190fd5b60008060d060020a654d414e41474502600080600660009054906101000a9004600160a060020a0316600160a060020a0316638da5cb5b6040518163ffffffff1660e060020a028152600401602060405180830381600087803b158015612e3857600080fd5b505af1158015612e4c573d6000803e3d6000fd5b505050506040513d6020811015612e6257600080fd5b505160055433600160a060020a039283168114945091161490508180612e855750805b80612f1557506006546040805160e060020a638658b8b9028152336004820152306024820152604481018690529051600160a060020a0390921691638658b8b9916064808201926020929091908290030181600087803b158015612ee857600080fd5b505af1158015612efc573d6000803e3d6000fd5b505050506040513d6020811015612f1257600080fd5b50515b1515612f59576040805160e560020a62461bcd0281526020600482015260176024820152600080516020615867833981519152604482015290519081900360640190fd5b6002548610612fb2576040805160e560020a62461bcd02815260206004820152601860248201527f496e636f7272656374206469766964656e6420696e6465780000000000000000604482015290519081900360640190fd5b6002805487908110612fc057fe5b90600052602060002090600e020160030154421015151561302b576040805160e560020a62461bcd02815260206004820181905260248201527f4469766964656e642065787069727920697320696e2074686520667574757265604482015290519081900360640190fd5b600280548790811061303957fe5b600091825260209091206007600e90920201015460ff16156130a5576040805160e560020a62461bcd02815260206004820152601b60248201527f4469766964656e6420697320616c726561647920636c61696d65640000000000604482015290519081900360640190fd5b60028054879081106130b357fe5b600091825260209091206007600e90920201908101805460ff19166001179055600581015460048201549196506130f0919063ffffffff614e1c16565b60008054604051929650600160a060020a03169186156108fc0291879190818181858888f1935050505015801561312b573d6000803e3d6000fd5b506000546040805186815290518892600160a060020a0316917fcd202b969101d293ad6e4c4053b46f2bf4698ca22abcb130dc24fa3baca0dee1919081900360200190a3505050505050565b60608060608060608060006002805490506040519080825280602002602001820160405280156131b1578160200160208202803883390190505b5060025460408051828152602080840282010190915291985080156131e0578160200160208202803883390190505b50600254604080518281526020808402820101909152919750801561320f578160200160208202803883390190505b50600254604080518281526020808402820101909152919650801561323e578160200160208202803883390190505b50600254604080518281526020808402820101909152919550801561326d578160200160208202803883390190505b50600254604080518281526020808402820101909152919450801561329c578160200160208202803883390190505b509150600090505b60025481101561335e576132b781610fec565b8c878151811015156132c557fe5b9060200190602002018c888151811015156132dc57fe5b9060200190602002018c898151811015156132f357fe5b9060200190602002018c8a81518110151561330a57fe5b9060200190602002018c8b81518110151561332157fe5b9060200190602002018c8c81518110151561333857fe5b6020908102909101019590955294909352939092529290925291909152526001016132a4565b50909192939495565b600654600160a060020a031681565b60d060020a654d414e41474502600080600660009054906101000a9004600160a060020a0316600160a060020a0316638da5cb5b6040518163ffffffff1660e060020a028152600401602060405180830381600087803b1580156133d957600080fd5b505af11580156133ed573d6000803e3d6000fd5b505050506040513d602081101561340357600080fd5b505160055433600160a060020a0392831681149450911614905081806134265750805b806134b657506006546040805160e060020a638658b8b9028152336004820152306024820152604481018690529051600160a060020a0390921691638658b8b9916064808201926020929091908290030181600087803b15801561348957600080fd5b505af115801561349d573d6000803e3d6000fd5b505050506040513d60208110156134b357600080fd5b50515b15156134fa576040805160e560020a62461bcd0281526020600482015260176024820152600080516020615867833981519152604482015290519081900360640190fd5b61187a8888888888615066565b600380548290811061351557fe5b600091825260209091200154600160a060020a0316905081565b60408051600280825260608083018452928392919060208301908038833901905050905060008051602061584783398151915281600081518110151561357157fe5b60209081029091010152805160d060020a654d414e41474502908290600190811061359857fe5b602090810290910101529050805b5090565b600554600160a060020a031681565b60008060d060020a654d414e41474502600080600660009054906101000a9004600160a060020a0316600160a060020a0316638da5cb5b6040518163ffffffff1660e060020a028152600401602060405180830381600087803b15801561361f57600080fd5b505af1158015613633573d6000803e3d6000fd5b505050506040513d602081101561364957600080fd5b505160055433600160a060020a03928316811494509116149050818061366c5750805b806136fc57506006546040805160e060020a638658b8b9028152336004820152306024820152604481018690529051600160a060020a0390921691638658b8b9916064808201926020929091908290030181600087803b1580156136cf57600080fd5b505af11580156136e3573d6000803e3d6000fd5b505050506040513d60208110156136f957600080fd5b50515b1515613740576040805160e560020a62461bcd0281526020600482015260176024820152600080516020615867833981519152604482015290519081900360640190fd5b6001548651111561379b576040805160e560020a62461bcd02815260206004820152601b60248201527f546f6f206d616e79206578636c75646564206164647265737365730000000000604482015290519081900360640190fd5b600094505b85518510156138e15785516000908790879081106137ba57fe5b60209081029091010151600160a060020a03161415613823576040805160e560020a62461bcd02815260206004820152600f60248201527f496e76616c696420616464726573730000000000000000000000000000000000604482015290519081900360640190fd5b8460010193505b85518410156138d657858481518110151561384157fe5b90602001906020020151600160a060020a0316868681518110151561386257fe5b60209081029091010151600160a060020a031614156138cb576040805160e560020a62461bcd02815260206004820152601960248201527f4475706c6963617465206578636c756465206164647265737300000000000000604482015290519081900360640190fd5b60019093019261382a565b6001909401936137a0565b85516138f490600390602089019061578d565b507f6f7d61057c8835d8bd9272c926f638242a70f6441466ae91cd272872ed84151f6003426040518080602001838152602001828103825284818154815260200191508054801561396e57602002820191906000526020600020905b8154600160a060020a03168152600190910190602001808311613950575b5050935050505060405180910390a1505050505050565b7f4645455f41444d494e000000000000000000000000000000000000000000000081565b60d060020a654d414e41474502600080600660009054906101000a9004600160a060020a0316600160a060020a0316638da5cb5b6040518163ffffffff1660e060020a028152600401602060405180830381600087803b158015613a0c57600080fd5b505af1158015613a20573d6000803e3d6000fd5b505050506040513d6020811015613a3657600080fd5b505160055433600160a060020a039283168114945091161490508180613a595750805b80613ae957506006546040805160e060020a638658b8b9028152336004820152306024820152604481018690529051600160a060020a0390921691638658b8b9916064808201926020929091908290030181600087803b158015613abc57600080fd5b505af1158015613ad0573d6000803e3d6000fd5b505050506040513d6020811015613ae657600080fd5b50515b1515613b2d576040805160e560020a62461bcd0281526020600482015260176024820152600080516020615867833981519152604482015290519081900360640190fd5b613b948787876003805480602002602001604051908101604052809291908181526020018280548015613b8957602002820191906000526020600020905b8154600160a060020a03168152600190910190602001808311613b6b575b505050505088615066565b50505050505050565b60008060606000806000600080516020615847833981519152600080600660009054906101000a9004600160a060020a0316600160a060020a0316638da5cb5b6040518163ffffffff1660e060020a028152600401602060405180830381600087803b158015613c0c57600080fd5b505af1158015613c20573d6000803e3d6000fd5b505050506040513d6020811015613c3657600080fd5b505160055433600160a060020a039283168114945091161490508180613c595750805b80613ce957506006546040805160e060020a638658b8b9028152336004820152306024820152604481018690529051600160a060020a0390921691638658b8b9916064808201926020929091908290030181600087803b158015613cbc57600080fd5b505af1158015613cd0573d6000803e3d6000fd5b505050506040513d6020811015613ce657600080fd5b50515b1515613d2d576040805160e560020a62461bcd0281526020600482015260176024820152600080516020615867833981519152604482015290519081900360640190fd5b8b613d3781614ae4565b600280548e908110613d4557fe5b600091825260208220600e909102018054600654604080517f3f553586000000000000000000000000000000000000000000000000000000008152600481018490529051939e50919c50600160a060020a031692633f5535869260248084019382900301818387803b158015613dba57600080fd5b505af1158015613dce573d6000803e3d6000fd5b505050506040513d6000823e601f3d908101601f191682016040526020811015613df757600080fd5b810190808051640100000000811115613e0f57600080fd5b82016020810184811115613e2257600080fd5b8151856020820283011164010000000082111715613e3f57600080fd5b50508051909b50613e6493509150613e5f90508e8e63ffffffff61576816565b615775565b96508b95505b86861015613ef0578786815181101515613e8057fe5b6020908102909101810151600160a060020a0381166000908152600a8d0190925260409091205490955060ff16158015613ed55750600160a060020a0385166000908152600b8b01602052604090205460ff16155b15613ee557613ee5858b8f614c96565b600190950194613e6a565b50505050505050505050505050565b60606003805480602002602001604051908101604052809291908181526020018280548015613f5757602002820191906000526020600020905b8154600160a060020a03168152600190910190602001808311613f39575b5050505050905090565b60d060020a654d414e41474502600080600660009054906101000a9004600160a060020a0316600160a060020a0316638da5cb5b6040518163ffffffff1660e060020a028152600401602060405180830381600087803b158015613fc457600080fd5b505af1158015613fd8573d6000803e3d6000fd5b505050506040513d6020811015613fee57600080fd5b505160055433600160a060020a0392831681149450911614905081806140115750805b806140a157506006546040805160e060020a638658b8b9028152336004820152306024820152604481018690529051600160a060020a0390921691638658b8b9916064808201926020929091908290030181600087803b15801561407457600080fd5b505af1158015614088573d6000803e3d6000fd5b505050506040513d602081101561409e57600080fd5b50515b15156140e5576040805160e560020a62461bcd0281526020600482015260176024820152600080516020615867833981519152604482015290519081900360640190fd5b610ebd8686600380548060200260200160405190810160405280929190818152602001828054801561414057602002820191906000526020600020905b8154600160a060020a03168152600190910190602001808311614122575b5050505050875b600060d060020a654d414e41474502600080600660009054906101000a9004600160a060020a0316600160a060020a0316638da5cb5b6040518163ffffffff1660e060020a028152600401602060405180830381600087803b1580156141ac57600080fd5b505af11580156141c0573d6000803e3d6000fd5b505050506040513d60208110156141d657600080fd5b505160055433600160a060020a0392831681149450911614905081806141f95750805b8061428957506006546040805160e060020a638658b8b9028152336004820152306024820152604481018690529051600160a060020a0390921691638658b8b9916064808201926020929091908290030181600087803b15801561425c57600080fd5b505af1158015614270573d6000803e3d6000fd5b505050506040513d602081101561428657600080fd5b50515b15156142cd576040805160e560020a62461bcd0281526020600482015260176024820152600080516020615867833981519152604482015290519081900360640190fd5b600660009054906101000a9004600160a060020a0316600160a060020a031663ff0b9c906040518163ffffffff1660e060020a028152600401602060405180830381600087803b15801561432057600080fd5b505af1158015614334573d6000803e3d6000fd5b505050506040513d602081101561434a57600080fd5b5051935061187a8888868989615066565b60608060608060608060008060008060006002805490508c1015156143b8576040805160e560020a62461bcd0281526020600482015260106024820152600080516020615827833981519152604482015290519081900360640190fd5b600280548d9081106143c657fe5b600091825260208220600e909102018054600654604080517f3f553586000000000000000000000000000000000000000000000000000000008152600481018490529051939950919750600160a060020a031692633f5535869260248084019382900301818387803b15801561443b57600080fd5b505af115801561444f573d6000803e3d6000fd5b505050506040513d6000823e601f3d908101601f19168201604052602081101561447857600080fd5b81019080805164010000000081111561449057600080fd5b820160208101848111156144a357600080fd5b81518560208202830111640100000000821117156144c057600080fd5b50509291905050509a508a516040519080825280602002602001820160405280156144f5578160200160208202803883390190505b5099508a51604051908082528060200260200182016040528015614523578160200160208202803883390190505b5098508a51604051908082528060200260200182016040528015614551578160200160208202803883390190505b5097508a5160405190808252806020026020018201604052801561457f578160200160208202803883390190505b5096508a516040519080825280602002602001820160405280156145ad578160200160208202803883390190505b5095505b8a518310156148b55784600a0160008c858151811015156145ce57fe5b6020908102909101810151600160a060020a03168252810191909152604001600020548a5160ff909116908b908590811061460557fe5b9115156020928302909101909101528a51600b8601906000908d908690811061462a57fe5b6020908102909101810151600160a060020a0316825281019190915260400160002054895160ff909116908a908590811061466157fe5b9115156020928302909101909101526006548b51600160a060020a0390911690634ee2cd7e908d908690811061469357fe5b9060200190602002015187600001546040518363ffffffff1660e060020a0281526004018083600160a060020a0316600160a060020a0316815260200182815260200192505050602060405180830381600087803b1580156146f457600080fd5b505af1158015614708573d6000803e3d6000fd5b505050506040513d602081101561471e57600080fd5b5051865187908590811061472e57fe5b60209081029091010152885189908490811061474657fe5b9060200190602002015115156148aa57898381518110151561476457fe5b90602001906020020151156148435784600c0160008c8581518110151561478757fe5b90602001906020020151600160a060020a0316600160a060020a031681526020019081526020016000205488848151811015156147c057fe5b602090810290910101528751614826908990859081106147dc57fe5b9060200190602002015161481a8760060154611aa889600401548b8981518110151561480457fe5b602090810290910101519063ffffffff614ee416565b9063ffffffff614e1c16565b878481518110151561483457fe5b602090810290910101526148aa565b6148648c8c8581518110151561485557fe5b90602001906020020151611920565b9150915080888481518110151561487757fe5b60209081029091010152614891828263ffffffff614e1c16565b878481518110151561489f57fe5b602090810290910101525b6001909201916145b1565b505050505091939550919395565b60007f434845434b504f494e5400000000000000000000000000000000000000000000600080600660009054906101000a9004600160a060020a0316600160a060020a0316638da5cb5b6040518163ffffffff1660e060020a028152600401602060405180830381600087803b15801561493c57600080fd5b505af1158015614950573d6000803e3d6000fd5b505050506040513d602081101561496657600080fd5b505160055433600160a060020a0392831681149450911614905081806149895750805b80614a1957506006546040805160e060020a638658b8b9028152336004820152306024820152604481018690529051600160a060020a0390921691638658b8b9916064808201926020929091908290030181600087803b1580156149ec57600080fd5b505af1158015614a00573d6000803e3d6000fd5b505050506040513d6020811015614a1657600080fd5b50515b1515614a5d576040805160e560020a62461bcd0281526020600482015260176024820152600080516020615867833981519152604482015290519081900360640190fd5b600660009054906101000a9004600160a060020a0316600160a060020a031663ff0b9c906040518163ffffffff1660e060020a028152600401602060405180830381600087803b158015614ab057600080fd5b505af1158015614ac4573d6000803e3d6000fd5b505050506040513d6020811015614ada57600080fd5b5051935050505090565b6002548110614b2b576040805160e560020a62461bcd0281526020600482015260106024820152600080516020615827833981519152604482015290519081900360640190fd5b6002805482908110614b3957fe5b600091825260209091206007600e90920201015460ff1615614ba5576040805160e560020a62461bcd02815260206004820152601260248201527f4469766964656e64207265636c61696d65640000000000000000000000000000604482015290519081900360640190fd5b6002805482908110614bb357fe5b90600052602060002090600e0201600201544210151515614c1e576040805160e560020a62461bcd02815260206004820152601b60248201527f4469766964656e64206d6174757269747920696e206675747572650000000000604482015290519081900360640190fd5b6002805482908110614c2c57fe5b90600052602060002090600e02016003015442101515610fc4576040805160e560020a62461bcd02815260206004820152601760248201527f4469766964656e642065787069727920696e2070617374000000000000000000604482015290519081900360640190fd5b6000806000614ca58487611920565b600160a060020a0388166000908152600a880160205260409020805460ff191660011790559093509150614cdf838363ffffffff614e1c16565b604051909150600160a060020a0387169082156108fc029083906000818181858888f1935050505015614db6576005850154614d21908463ffffffff61576816565b60058601556000821115614d67576008850154614d44908363ffffffff61576816565b6008860155600160a060020a0386166000908152600c8601602052604090208290555b8386600160a060020a03167f0cfb57b295d2603fbb329fdc2d35326148368bf26a74cbb525cdf3a71ff5cc3d8585604051808381526020018281526020019250505060405180910390a3610ebd565b600160a060020a0386166000818152600a87016020908152604091829020805460ff19169055815186815290810185905281518793927fd252e7e7f5d6262d6dd8f80698d23f219cd7847a22b97c199a5984440f3c2715928290030190a3505050505050565b600082821115614e2857fe5b50900390565b60075460a060020a900460ff161515614e91576040805160e560020a62461bcd02815260206004820152601660248201527f436f6e7472616374206973206e6f742070617573656400000000000000000000604482015290519081900360640190fd5b6007805474ff0000000000000000000000000000000000000000191690556040805142815290517faaa520fdd7d2c83061d632fa017b0432407e798818af63ea908589fceda39ab79181900360200190a1565b6000821515614ef55750600061191a565b50818102818382811515614f0557fe5b041461191a57fe5b60008183811515614f1a57fe5b049392505050565b600160a060020a0381161515614f3757600080fd5b600054604080514281529051600160a060020a038085169316917ffc2c92d63470564c67e93b5d868cba9e923476aae9ad9718920da95f48eb8695919081900360200190a36000805473ffffffffffffffffffffffffffffffffffffffff1916600160a060020a0392909216919091179055565b60075460a060020a900460ff161561500d576040805160e560020a62461bcd02815260206004820152601260248201527f436f6e7472616374206973207061757365640000000000000000000000000000604482015290519081900360640190fd5b6007805474ff0000000000000000000000000000000000000000191660a060020a1790556040805142815290517f68b095021b1f40fe513109f513c66692f0b3219aee674a69f4efc57badb8201d9181900360200190a1565b6000806000806001548651111515156150c9576040805160e560020a62461bcd02815260206004820152601b60248201527f546f6f206d616e7920616464726573736573206578636c756465640000000000604482015290519081900360640190fd5b888811615120576040805160e560020a62461bcd02815260206004820152601960248201527f457870697279206973206265666f7265206d6174757269747900000000000000604482015290519081900360640190fd5b428811615177576040805160e560020a62461bcd02815260206004820152601560248201527f45787069727920697320696e2074686520706173740000000000000000000000604482015290519081900360640190fd5b600034116151cf576040805160e560020a62461bcd02815260206004820152601060248201527f4e6f206469766964656e642073656e7400000000000000000000000000000000604482015290519081900360640190fd5b600660009054906101000a9004600160a060020a0316600160a060020a0316635488cc806040518163ffffffff1660e060020a028152600401602060405180830381600087803b15801561522257600080fd5b505af1158015615236573d6000803e3d6000fd5b505050506040513d602081101561524c57600080fd5b505187111561525a57600080fd5b7fff000000000000000000000000000000000000000000000000000000000000007f0100000000000000000000000000000000000000000000000000000000000000600087901a021615156152ae57600080fd5b600254600654604080517f981b24d0000000000000000000000000000000000000000000000000000000008152600481018b90529051929650600160a060020a039091169163981b24d0916024808201926020929091908290030181600087803b15801561531b57600080fd5b505af115801561532f573d6000803e3d6000fd5b505050506040513d602081101561534557600080fd5b81019080805190602001909291905050509250600091506002610160604051908101604052808981526020014281526020018b81526020018a81526020013481526020016000815260200160008152602001600015158152602001600081526020016000815260200187600019168152509080600181540180825580915050906001820390600052602060002090600e020160009091929091909150600082015181600001556020820151816001015560408201518160020155606082015181600301556080820151816004015560a0820151816005015560c0820151816006015560e08201518160070160006101000a81548160ff0219169083151502179055506101008201518160080155610120820151816009015561014082015181600d0190600019169055505050600090505b85518110156156cc57855160009087908390811061549057fe5b60209081029091010151600160a060020a031614156154f9576040805160e560020a62461bcd02815260206004820152600f60248201527f496e76616c696420616464726573730000000000000000000000000000000000604482015290519081900360640190fd5b600280548590811061550757fe5b90600052602060002090600e0201600b016000878381518110151561552857fe5b6020908102909101810151600160a060020a031682528101919091526040016000205460ff16156155a3576040805160e560020a62461bcd02815260206004820152601560248201527f6475706564206578636c75646520616464726573730000000000000000000000604482015290519081900360640190fd5b600654865161565e91600160a060020a031690634ee2cd7e908990859081106155c857fe5b906020019060200201518a6040518363ffffffff1660e060020a0281526004018083600160a060020a0316600160a060020a0316815260200182815260200192505050602060405180830381600087803b15801561562557600080fd5b505af1158015615639573d6000803e3d6000fd5b505050506040513d602081101561564f57600080fd5b5051839063ffffffff61576816565b9150600160028581548110151561567157fe5b90600052602060002090600e0201600b016000888481518110151561569257fe5b602090810291909101810151600160a060020a03168252810191909152604001600020805460ff1916911515919091179055600101615476565b6156dc838363ffffffff614e1c16565b60028054869081106156ea57fe5b60009182526020918290206006600e9092020101919091556040805189815242928101929092528181018b9052606082018a905234608083015260a08201859052518691869133917f260420e15e8a0c1993b733e83ae8e5acf5f856d2e044769b63fb8126edf27285919081900360c00190a4505050505050505050565b8181018281101561191a57fe5b60008183106157845781615786565b825b9392505050565b8280548282559060005260206000209081019282156157ef579160200282015b828111156157ef578251825473ffffffffffffffffffffffffffffffffffffffff1916600160a060020a039091161782556020909201916001909101906157ad565b506135a692610fe99250905b808211156135a657805473ffffffffffffffffffffffffffffffffffffffff191681556001016157fb5600496e76616c6964206469766964656e640000000000000000000000000000000044495354524942555445000000000000000000000000000000000000000000005065726d697373696f6e20636865636b206661696c656400000000000000000053656e646572206973206e6f74206f776e657200000000000000000000000000a165627a7a723058200e6c761a9730de0db93ef8acdbc6dbaf743ea7fc777c0bd310c24e4feb3694bc0029",
  "source": "pragma solidity ^0.4.24;\r\n\r\nimport \"./DividendCheckpoint.sol\";\r\nimport \"../../interfaces/IOwnable.sol\";\r\n\r\n/**\r\n * @title Checkpoint module for issuing ether dividends\r\n */\r\ncontract EtherDividendCheckpoint is DividendCheckpoint {\r\n    using SafeMath for uint256;\r\n\r\n    event EtherDividendDeposited(\r\n        address indexed _depositor,\r\n        uint256 _checkpointId,\r\n        uint256 _created,\r\n        uint256 _maturity,\r\n        uint256 _expiry,\r\n        uint256 _amount,\r\n        uint256 _totalSupply,\r\n        uint256 indexed _dividendIndex,\r\n        bytes32 indexed _name\r\n    );\r\n    event EtherDividendClaimed(address indexed _payee, uint256 indexed _dividendIndex, uint256 _amount, uint256 _withheld);\r\n    event EtherDividendReclaimed(address indexed _claimer, uint256 indexed _dividendIndex, uint256 _claimedAmount);\r\n    event EtherDividendClaimFailed(address indexed _payee, uint256 indexed _dividendIndex, uint256 _amount, uint256 _withheld);\r\n    event EtherDividendWithholdingWithdrawn(address indexed _claimer, uint256 indexed _dividendIndex, uint256 _withheldAmount);\r\n\r\n    /**\r\n     * @notice Constructor\r\n     * @param _securityToken Address of the security token\r\n     * @param _polyAddress Address of the polytoken\r\n     */\r\n    constructor (address _securityToken, address _polyAddress) public\r\n    Module(_securityToken, _polyAddress)\r\n    {\r\n    }\r\n\r\n    /**\r\n     * @notice Creates a dividend and checkpoint for the dividend, using global list of excluded addresses\r\n     * @param _maturity Time from which dividend can be paid\r\n     * @param _expiry Time until dividend can no longer be paid, and can be reclaimed by issuer\r\n     * @param _name Name/title for identification\r\n     */\r\n    function createDividend(uint256 _maturity, uint256 _expiry, bytes32 _name) external payable withPerm(MANAGE) {\r\n        createDividendWithExclusions(_maturity, _expiry, excluded, _name);\r\n    }\r\n\r\n    /**\r\n     * @notice Creates a dividend with a provided checkpoint, using global list of excluded addresses\r\n     * @param _maturity Time from which dividend can be paid\r\n     * @param _expiry Time until dividend can no longer be paid, and can be reclaimed by issuer\r\n     * @param _checkpointId Id of the checkpoint from which to issue dividend\r\n     * @param _name Name/title for identification\r\n     */\r\n    function createDividendWithCheckpoint(\r\n        uint256 _maturity,\r\n        uint256 _expiry,\r\n        uint256 _checkpointId,\r\n        bytes32 _name\r\n    )\r\n        external\r\n        payable\r\n        withPerm(MANAGE)\r\n    {\r\n        _createDividendWithCheckpointAndExclusions(_maturity, _expiry, _checkpointId, excluded, _name);\r\n    }\r\n\r\n    /**\r\n     * @notice Creates a dividend and checkpoint for the dividend, specifying explicit excluded addresses\r\n     * @param _maturity Time from which dividend can be paid\r\n     * @param _expiry Time until dividend can no longer be paid, and can be reclaimed by issuer\r\n     * @param _excluded List of addresses to exclude\r\n     * @param _name Name/title for identification\r\n     */\r\n    function createDividendWithExclusions(\r\n        uint256 _maturity,\r\n        uint256 _expiry,\r\n        address[] _excluded,\r\n        bytes32 _name\r\n    )\r\n        public\r\n        payable\r\n        withPerm(MANAGE)\r\n    {\r\n        uint256 checkpointId = ISecurityToken(securityToken).createCheckpoint();\r\n        _createDividendWithCheckpointAndExclusions(_maturity, _expiry, checkpointId, _excluded, _name);\r\n    }\r\n\r\n    /**\r\n     * @notice Creates a dividend with a provided checkpoint, specifying explicit excluded addresses\r\n     * @param _maturity Time from which dividend can be paid\r\n     * @param _expiry Time until dividend can no longer be paid, and can be reclaimed by issuer\r\n     * @param _checkpointId Id of the checkpoint from which to issue dividend\r\n     * @param _excluded List of addresses to exclude\r\n     * @param _name Name/title for identification\r\n     */\r\n    function createDividendWithCheckpointAndExclusions(\r\n        uint256 _maturity,\r\n        uint256 _expiry,\r\n        uint256 _checkpointId,\r\n        address[] _excluded,\r\n        bytes32 _name\r\n    )\r\n        public\r\n        payable\r\n        withPerm(MANAGE)\r\n    {\r\n        _createDividendWithCheckpointAndExclusions(_maturity, _expiry, _checkpointId, _excluded, _name);\r\n    }\r\n\r\n    /**\r\n     * @notice Creates a dividend with a provided checkpoint, specifying explicit excluded addresses\r\n     * @param _maturity Time from which dividend can be paid\r\n     * @param _expiry Time until dividend can no longer be paid, and can be reclaimed by issuer\r\n     * @param _checkpointId Id of the checkpoint from which to issue dividend\r\n     * @param _excluded List of addresses to exclude\r\n     * @param _name Name/title for identification\r\n     */\r\n    function _createDividendWithCheckpointAndExclusions(\r\n        uint256 _maturity,\r\n        uint256 _expiry,\r\n        uint256 _checkpointId,\r\n        address[] _excluded,\r\n        bytes32 _name\r\n    )\r\n        internal\r\n    {\r\n        require(_excluded.length <= EXCLUDED_ADDRESS_LIMIT, \"Too many addresses excluded\");\r\n        require(_expiry > _maturity, \"Expiry is before maturity\");\r\n        /*solium-disable-next-line security/no-block-members*/\r\n        require(_expiry > now, \"Expiry is in the past\");\r\n        require(msg.value > 0, \"No dividend sent\");\r\n        require(_checkpointId <= ISecurityToken(securityToken).currentCheckpointId());\r\n        require(_name[0] != 0);\r\n        uint256 dividendIndex = dividends.length;\r\n        uint256 currentSupply = ISecurityToken(securityToken).totalSupplyAt(_checkpointId);\r\n        uint256 excludedSupply = 0;\r\n        dividends.push(\r\n          Dividend(\r\n            _checkpointId,\r\n            now, /*solium-disable-line security/no-block-members*/\r\n            _maturity,\r\n            _expiry,\r\n            msg.value,\r\n            0,\r\n            0,\r\n            false,\r\n            0,\r\n            0,\r\n            _name\r\n          )\r\n        );\r\n\r\n        for (uint256 j = 0; j < _excluded.length; j++) {\r\n            require (_excluded[j] != address(0), \"Invalid address\");\r\n            require(!dividends[dividendIndex].dividendExcluded[_excluded[j]], \"duped exclude address\");\r\n            excludedSupply = excludedSupply.add(ISecurityToken(securityToken).balanceOfAt(_excluded[j], _checkpointId));\r\n            dividends[dividendIndex].dividendExcluded[_excluded[j]] = true;\r\n        }\r\n        dividends[dividendIndex].totalSupply = currentSupply.sub(excludedSupply);\r\n        /*solium-disable-next-line security/no-block-members*/\r\n        emit EtherDividendDeposited(msg.sender, _checkpointId, now, _maturity, _expiry, msg.value, currentSupply, dividendIndex, _name);\r\n    }\r\n\r\n    /**\r\n     * @notice Internal function for paying dividends\r\n     * @param _payee address of investor\r\n     * @param _dividend storage with previously issued dividends\r\n     * @param _dividendIndex Dividend to pay\r\n     */\r\n    function _payDividend(address _payee, Dividend storage _dividend, uint256 _dividendIndex) internal {\r\n        (uint256 claim, uint256 withheld) = calculateDividend(_dividendIndex, _payee);\r\n        _dividend.claimed[_payee] = true;\r\n        uint256 claimAfterWithheld = claim.sub(withheld);\r\n        /*solium-disable-next-line security/no-send*/\r\n        if (_payee.send(claimAfterWithheld)) {\r\n            _dividend.claimedAmount = _dividend.claimedAmount.add(claim);\r\n            if (withheld > 0) {\r\n                _dividend.totalWithheld = _dividend.totalWithheld.add(withheld);\r\n                _dividend.withheld[_payee] = withheld;\r\n            }\r\n            emit EtherDividendClaimed(_payee, _dividendIndex, claim, withheld);\r\n        } else {\r\n            _dividend.claimed[_payee] = false;\r\n            emit EtherDividendClaimFailed(_payee, _dividendIndex, claim, withheld);\r\n        }\r\n    }\r\n\r\n    /**\r\n     * @notice Issuer can reclaim remaining unclaimed dividend amounts, for expired dividends\r\n     * @param _dividendIndex Dividend to reclaim\r\n     */\r\n    function reclaimDividend(uint256 _dividendIndex) external withPerm(MANAGE) {\r\n        require(_dividendIndex < dividends.length, \"Incorrect dividend index\");\r\n        /*solium-disable-next-line security/no-block-members*/\r\n        require(now >= dividends[_dividendIndex].expiry, \"Dividend expiry is in the future\");\r\n        require(!dividends[_dividendIndex].reclaimed, \"Dividend is already claimed\");\r\n        Dividend storage dividend = dividends[_dividendIndex];\r\n        dividend.reclaimed = true;\r\n        uint256 remainingAmount = dividend.amount.sub(dividend.claimedAmount);\r\n        wallet.transfer(remainingAmount);\r\n        emit EtherDividendReclaimed(wallet, _dividendIndex, remainingAmount);\r\n    }\r\n\r\n    /**\r\n     * @notice Allows issuer to withdraw withheld tax\r\n     * @param _dividendIndex Dividend to withdraw from\r\n     */\r\n    function withdrawWithholding(uint256 _dividendIndex) external withPerm(MANAGE) {\r\n        require(_dividendIndex < dividends.length, \"Incorrect dividend index\");\r\n        Dividend storage dividend = dividends[_dividendIndex];\r\n        uint256 remainingWithheld = dividend.totalWithheld.sub(dividend.totalWithheldWithdrawn);\r\n        dividend.totalWithheldWithdrawn = dividend.totalWithheld;\r\n        wallet.transfer(remainingWithheld);\r\n        emit EtherDividendWithholdingWithdrawn(wallet, _dividendIndex, remainingWithheld);\r\n    }\r\n\r\n}\r\n",
  "sourcePath": "/Users/federicoelgarte/Polymath/polymath-core/contracts/modules/Checkpoint/EtherDividendCheckpoint.sol",
  "compiler": {
    "name": "solc",
    "version": "0.4.24+commit.e67f0147.Emscripten.clang"
  },
  "schemaVersion": "2.0.1",
  "updatedAt": "2019-04-09T19:05:06.708Z"
}