{
  "contractName": "EtherDividendCheckpoint",
  "abi": [
    {
      "constant": false,
      "inputs": [
        {
          "name": "_investors",
          "type": "address[]"
        },
        {
          "name": "_withholding",
          "type": "uint256"
        }
      ],
      "name": "setWithholdingFixed",
      "outputs": [],
      "payable": false,
      "stateMutability": "nonpayable",
      "type": "function",
      "signature": "0x0945812e"
    },
    {
      "constant": true,
      "inputs": [],
      "name": "EXCLUDED_ADDRESS_LIMIT",
      "outputs": [
        {
          "name": "",
          "type": "uint256"
        }
      ],
      "payable": false,
      "stateMutability": "view",
      "type": "function",
      "signature": "0x0a29f591"
    },
    {
      "constant": false,
      "inputs": [],
      "name": "reclaimETH",
      "outputs": [],
      "payable": false,
      "stateMutability": "nonpayable",
      "type": "function",
      "signature": "0x0f144a48"
    },
    {
      "constant": true,
      "inputs": [],
      "name": "getInitFunction",
      "outputs": [
        {
          "name": "",
          "type": "bytes4"
        }
      ],
      "payable": false,
      "stateMutability": "pure",
      "type": "function",
      "signature": "0x1613ec9d"
    },
    {
      "constant": true,
      "inputs": [
        {
          "name": "_dividendIndex",
          "type": "uint256"
        }
      ],
      "name": "getDividendData",
      "outputs": [
        {
          "name": "created",
          "type": "uint256"
        },
        {
          "name": "maturity",
          "type": "uint256"
        },
        {
          "name": "expiry",
          "type": "uint256"
        },
        {
          "name": "amount",
          "type": "uint256"
        },
        {
          "name": "claimedAmount",
          "type": "uint256"
        },
        {
          "name": "name",
          "type": "bytes32"
        }
      ],
      "payable": false,
      "stateMutability": "view",
      "type": "function",
      "signature": "0x28d1feda"
    },
    {
      "constant": true,
      "inputs": [],
      "name": "ADMIN",
      "outputs": [
        {
          "name": "",
          "type": "bytes32"
        }
      ],
      "payable": false,
      "stateMutability": "view",
      "type": "function",
      "signature": "0x2a0acc6a"
    },
    {
      "constant": true,
      "inputs": [],
      "name": "getTreasuryWallet",
      "outputs": [
        {
          "name": "",
          "type": "address"
        }
      ],
      "payable": false,
      "stateMutability": "view",
      "type": "function",
      "signature": "0x2c035b74"
    },
    {
      "constant": false,
      "inputs": [
        {
          "name": "_dividendIndex",
          "type": "uint256"
        }
      ],
      "name": "pullDividendPayment",
      "outputs": [],
      "payable": false,
      "stateMutability": "nonpayable",
      "type": "function",
      "signature": "0x30008b48"
    },
    {
      "constant": true,
      "inputs": [
        {
          "name": "",
          "type": "address"
        }
      ],
      "name": "investorWithheld",
      "outputs": [
        {
          "name": "",
          "type": "uint256"
        }
      ],
      "payable": false,
      "stateMutability": "view",
      "type": "function",
      "signature": "0x3f2e3165"
    },
    {
      "constant": false,
      "inputs": [],
      "name": "unpause",
      "outputs": [],
      "payable": false,
      "stateMutability": "nonpayable",
      "type": "function",
      "signature": "0x3f4ba83a"
    },
    {
      "constant": false,
      "inputs": [
        {
          "name": "_dividendIndex",
          "type": "uint256"
        },
        {
          "name": "_payees",
          "type": "address[]"
        }
      ],
      "name": "pushDividendPaymentToAddresses",
      "outputs": [],
      "payable": false,
      "stateMutability": "nonpayable",
      "type": "function",
      "signature": "0x4d58e413"
    },
    {
      "constant": true,
      "inputs": [],
      "name": "wallet",
      "outputs": [
        {
          "name": "",
          "type": "address"
        }
      ],
      "payable": false,
      "stateMutability": "view",
      "type": "function",
      "signature": "0x521eb273"
    },
    {
      "constant": true,
      "inputs": [
        {
          "name": "_investor",
          "type": "address"
        },
        {
          "name": "_dividendIndex",
          "type": "uint256"
        }
      ],
      "name": "isClaimed",
      "outputs": [
        {
          "name": "",
          "type": "bool"
        }
      ],
      "payable": false,
      "stateMutability": "view",
      "type": "function",
      "signature": "0x562beba8"
    },
    {
      "constant": true,
      "inputs": [
        {
          "name": "_dividendIndex",
          "type": "uint256"
        },
        {
          "name": "_payee",
          "type": "address"
        }
      ],
      "name": "calculateDividend",
      "outputs": [
        {
          "name": "",
          "type": "uint256"
        },
        {
          "name": "",
          "type": "uint256"
        }
      ],
      "payable": false,
      "stateMutability": "view",
      "type": "function",
      "signature": "0x5bea0e1c"
    },
    {
      "constant": true,
      "inputs": [],
      "name": "paused",
      "outputs": [
        {
          "name": "",
          "type": "bool"
        }
      ],
      "payable": false,
      "stateMutability": "view",
      "type": "function",
      "signature": "0x5c975abb"
    },
    {
      "constant": true,
      "inputs": [
        {
          "name": "_checkpointId",
          "type": "uint256"
        }
      ],
      "name": "getDividendIndex",
      "outputs": [
        {
          "name": "",
          "type": "uint256[]"
        }
      ],
      "payable": false,
      "stateMutability": "view",
      "type": "function",
      "signature": "0x5daff64e"
    },
    {
      "constant": true,
      "inputs": [],
      "name": "polyToken",
      "outputs": [
        {
          "name": "",
          "type": "address"
        }
      ],
      "payable": false,
      "stateMutability": "view",
      "type": "function",
      "signature": "0x6faa22a5"
    },
    {
      "constant": false,
      "inputs": [
        {
          "name": "_dividendIndex",
          "type": "uint256"
        },
        {
          "name": "_maturity",
          "type": "uint256"
        },
        {
          "name": "_expiry",
          "type": "uint256"
        }
      ],
      "name": "updateDividendDates",
      "outputs": [],
      "payable": false,
      "stateMutability": "nonpayable",
      "type": "function",
      "signature": "0x73e9e1a3"
    },
    {
      "constant": false,
      "inputs": [
        {
          "name": "_wallet",
          "type": "address"
        }
      ],
      "name": "configure",
      "outputs": [],
      "payable": false,
      "stateMutability": "nonpayable",
      "type": "function",
      "signature": "0x75cb2672"
    },
    {
      "constant": true,
      "inputs": [
        {
          "name": "",
          "type": "address"
        }
      ],
      "name": "withholdingTax",
      "outputs": [
        {
          "name": "",
          "type": "uint256"
        }
      ],
      "payable": false,
      "stateMutability": "view",
      "type": "function",
      "signature": "0x7a3e23fd"
    },
    {
      "constant": true,
      "inputs": [
        {
          "name": "_checkpointId",
          "type": "uint256"
        }
      ],
      "name": "getCheckpointData",
      "outputs": [
        {
          "name": "investors",
          "type": "address[]"
        },
        {
          "name": "balances",
          "type": "uint256[]"
        },
        {
          "name": "withholdings",
          "type": "uint256[]"
        }
      ],
      "payable": false,
      "stateMutability": "view",
      "type": "function",
      "signature": "0x7b4a223b"
    },
    {
      "constant": true,
      "inputs": [
        {
          "name": "",
          "type": "uint256"
        }
      ],
      "name": "dividends",
      "outputs": [
        {
          "name": "checkpointId",
          "type": "uint256"
        },
        {
          "name": "created",
          "type": "uint256"
        },
        {
          "name": "maturity",
          "type": "uint256"
        },
        {
          "name": "expiry",
          "type": "uint256"
        },
        {
          "name": "amount",
          "type": "uint256"
        },
        {
          "name": "claimedAmount",
          "type": "uint256"
        },
        {
          "name": "totalSupply",
          "type": "uint256"
        },
        {
          "name": "reclaimed",
          "type": "bool"
        },
        {
          "name": "totalWithheld",
          "type": "uint256"
        },
        {
          "name": "totalWithheldWithdrawn",
          "type": "uint256"
        },
        {
          "name": "name",
          "type": "bytes32"
        }
      ],
      "payable": false,
      "stateMutability": "view",
      "type": "function",
      "signature": "0x814b3fe0"
    },
    {
      "constant": true,
      "inputs": [
        {
          "name": "_investor",
          "type": "address"
        },
        {
          "name": "_dividendIndex",
          "type": "uint256"
        }
      ],
      "name": "isExcluded",
      "outputs": [
        {
          "name": "",
          "type": "bool"
        }
      ],
      "payable": false,
      "stateMutability": "view",
      "type": "function",
      "signature": "0x81e97b66"
    },
    {
      "constant": false,
      "inputs": [],
      "name": "pause",
      "outputs": [],
      "payable": false,
      "stateMutability": "nonpayable",
      "type": "function",
      "signature": "0x8456cb59"
    },
    {
      "constant": false,
      "inputs": [
        {
          "name": "_investors",
          "type": "address[]"
        },
        {
          "name": "_withholding",
          "type": "uint256[]"
        }
      ],
      "name": "setWithholding",
      "outputs": [],
      "payable": false,
      "stateMutability": "nonpayable",
      "type": "function",
      "signature": "0x8596e6e6"
    },
    {
      "constant": false,
      "inputs": [
        {
          "name": "_tokenContract",
          "type": "address"
        }
      ],
      "name": "reclaimERC20",
      "outputs": [],
      "payable": false,
      "stateMutability": "nonpayable",
      "type": "function",
      "signature": "0x8905fd4f"
    },
    {
      "constant": true,
      "inputs": [],
      "name": "OPERATOR",
      "outputs": [
        {
          "name": "",
          "type": "bytes32"
        }
      ],
      "payable": false,
      "stateMutability": "view",
      "type": "function",
      "signature": "0x983d2737"
    },
    {
      "constant": false,
      "inputs": [
        {
          "name": "_wallet",
          "type": "address"
        }
      ],
      "name": "changeWallet",
      "outputs": [],
      "payable": false,
      "stateMutability": "nonpayable",
      "type": "function",
      "signature": "0x98b9a2dc"
    },
    {
      "constant": true,
      "inputs": [],
      "name": "getDividendsData",
      "outputs": [
        {
          "name": "createds",
          "type": "uint256[]"
        },
        {
          "name": "maturitys",
          "type": "uint256[]"
        },
        {
          "name": "expirys",
          "type": "uint256[]"
        },
        {
          "name": "amounts",
          "type": "uint256[]"
        },
        {
          "name": "claimedAmounts",
          "type": "uint256[]"
        },
        {
          "name": "names",
          "type": "bytes32[]"
        }
      ],
      "payable": false,
      "stateMutability": "view",
      "type": "function",
      "signature": "0xac121dbf"
    },
    {
      "constant": true,
      "inputs": [],
      "name": "securityToken",
      "outputs": [
        {
          "name": "",
          "type": "address"
        }
      ],
      "payable": false,
      "stateMutability": "view",
      "type": "function",
      "signature": "0xb84dfbd2"
    },
    {
      "constant": true,
      "inputs": [
        {
          "name": "",
          "type": "uint256"
        }
      ],
      "name": "excluded",
      "outputs": [
        {
          "name": "",
          "type": "address"
        }
      ],
      "payable": false,
      "stateMutability": "view",
      "type": "function",
      "signature": "0xbee2ddc2"
    },
    {
      "constant": true,
      "inputs": [],
      "name": "getPermissions",
      "outputs": [
        {
          "name": "",
          "type": "bytes32[]"
        }
      ],
      "payable": false,
      "stateMutability": "view",
      "type": "function",
      "signature": "0xc3a07df6"
    },
    {
      "constant": true,
      "inputs": [],
      "name": "factory",
      "outputs": [
        {
          "name": "",
          "type": "address"
        }
      ],
      "payable": false,
      "stateMutability": "view",
      "type": "function",
      "signature": "0xc45a0155"
    },
    {
      "constant": false,
      "inputs": [
        {
          "name": "_excluded",
          "type": "address[]"
        }
      ],
      "name": "setDefaultExcluded",
      "outputs": [],
      "payable": false,
      "stateMutability": "nonpayable",
      "type": "function",
      "signature": "0xcc1556dc"
    },
    {
      "constant": false,
      "inputs": [
        {
          "name": "_dividendIndex",
          "type": "uint256"
        },
        {
          "name": "_start",
          "type": "uint256"
        },
        {
          "name": "_end",
          "type": "uint256"
        }
      ],
      "name": "pushDividendPayment",
      "outputs": [],
      "payable": false,
      "stateMutability": "nonpayable",
      "type": "function",
      "signature": "0xe1726faa"
    },
    {
      "constant": true,
      "inputs": [],
      "name": "getDefaultExcluded",
      "outputs": [
        {
          "name": "",
          "type": "address[]"
        }
      ],
      "payable": false,
      "stateMutability": "view",
      "type": "function",
      "signature": "0xf1e9d100"
    },
    {
      "constant": true,
      "inputs": [
        {
          "name": "_dividendIndex",
          "type": "uint256"
        }
      ],
      "name": "getDividendProgress",
      "outputs": [
        {
          "name": "investors",
          "type": "address[]"
        },
        {
          "name": "resultClaimed",
          "type": "bool[]"
        },
        {
          "name": "resultExcluded",
          "type": "bool[]"
        },
        {
          "name": "resultWithheld",
          "type": "uint256[]"
        },
        {
          "name": "resultAmount",
          "type": "uint256[]"
        },
        {
          "name": "resultBalance",
          "type": "uint256[]"
        }
      ],
      "payable": false,
      "stateMutability": "view",
      "type": "function",
      "signature": "0xfa67a7bb"
    },
    {
      "constant": true,
      "inputs": [],
      "name": "getDataStore",
      "outputs": [
        {
          "name": "",
          "type": "address"
        }
      ],
      "payable": false,
      "stateMutability": "view",
      "type": "function",
      "signature": "0xfe58265e"
    },
    {
      "constant": false,
      "inputs": [],
      "name": "createCheckpoint",
      "outputs": [
        {
          "name": "",
          "type": "uint256"
        }
      ],
      "payable": false,
      "stateMutability": "nonpayable",
      "type": "function",
      "signature": "0xff0b9c90"
    },
    {
      "inputs": [
        {
          "name": "_securityToken",
          "type": "address"
        },
        {
          "name": "_polyToken",
          "type": "address"
        }
      ],
      "payable": false,
      "stateMutability": "nonpayable",
      "type": "constructor",
      "signature": "constructor"
    },
    {
      "anonymous": false,
      "inputs": [
        {
          "indexed": true,
          "name": "_depositor",
          "type": "address"
        },
        {
          "indexed": false,
          "name": "_checkpointId",
          "type": "uint256"
        },
        {
          "indexed": false,
          "name": "_maturity",
          "type": "uint256"
        },
        {
          "indexed": false,
          "name": "_expiry",
          "type": "uint256"
        },
        {
          "indexed": false,
          "name": "_amount",
          "type": "uint256"
        },
        {
          "indexed": false,
          "name": "_totalSupply",
          "type": "uint256"
        },
        {
          "indexed": true,
          "name": "_dividendIndex",
          "type": "uint256"
        },
        {
          "indexed": true,
          "name": "_name",
          "type": "bytes32"
        }
      ],
      "name": "EtherDividendDeposited",
      "type": "event",
      "signature": "0x376302a393407da8edbd629bc870b9ae0cca86e0b83dbe5b349854743ab55a53"
    },
    {
      "anonymous": false,
      "inputs": [
        {
          "indexed": true,
          "name": "_payee",
          "type": "address"
        },
        {
          "indexed": true,
          "name": "_dividendIndex",
          "type": "uint256"
        },
        {
          "indexed": false,
          "name": "_amount",
          "type": "uint256"
        },
        {
          "indexed": false,
          "name": "_withheld",
          "type": "uint256"
        }
      ],
      "name": "EtherDividendClaimed",
      "type": "event",
      "signature": "0x0cfb57b295d2603fbb329fdc2d35326148368bf26a74cbb525cdf3a71ff5cc3d"
    },
    {
      "anonymous": false,
      "inputs": [
        {
          "indexed": true,
          "name": "_claimer",
          "type": "address"
        },
        {
          "indexed": true,
          "name": "_dividendIndex",
          "type": "uint256"
        },
        {
          "indexed": false,
          "name": "_claimedAmount",
          "type": "uint256"
        }
      ],
      "name": "EtherDividendReclaimed",
      "type": "event",
      "signature": "0xcd202b969101d293ad6e4c4053b46f2bf4698ca22abcb130dc24fa3baca0dee1"
    },
    {
      "anonymous": false,
      "inputs": [
        {
          "indexed": true,
          "name": "_payee",
          "type": "address"
        },
        {
          "indexed": true,
          "name": "_dividendIndex",
          "type": "uint256"
        },
        {
          "indexed": false,
          "name": "_amount",
          "type": "uint256"
        },
        {
          "indexed": false,
          "name": "_withheld",
          "type": "uint256"
        }
      ],
      "name": "EtherDividendClaimFailed",
      "type": "event",
      "signature": "0xd252e7e7f5d6262d6dd8f80698d23f219cd7847a22b97c199a5984440f3c2715"
    },
    {
      "anonymous": false,
      "inputs": [
        {
          "indexed": true,
          "name": "_claimer",
          "type": "address"
        },
        {
          "indexed": true,
          "name": "_dividendIndex",
          "type": "uint256"
        },
        {
          "indexed": false,
          "name": "_withheldAmount",
          "type": "uint256"
        }
      ],
      "name": "EtherDividendWithholdingWithdrawn",
      "type": "event",
      "signature": "0xc817826994cc4cf2dd66758f988195f8ad3e29078e2ce7ff40fe66477eff27e8"
    },
    {
      "anonymous": false,
      "inputs": [
        {
          "indexed": false,
          "name": "_excluded",
          "type": "address[]"
        }
      ],
      "name": "SetDefaultExcludedAddresses",
      "type": "event",
      "signature": "0xcbdf8a4bf19b153fdd0aa4aa2c292cef47adc56e05524f1d99658f03b771e237"
    },
    {
      "anonymous": false,
      "inputs": [
        {
          "indexed": false,
          "name": "_investors",
          "type": "address[]"
        },
        {
          "indexed": false,
          "name": "_withholding",
          "type": "uint256[]"
        }
      ],
      "name": "SetWithholding",
      "type": "event",
      "signature": "0x01da14148cd0c4104d62830cfe6127c6955f1074631149adde6809b8687988d9"
    },
    {
      "anonymous": false,
      "inputs": [
        {
          "indexed": false,
          "name": "_investors",
          "type": "address[]"
        },
        {
          "indexed": false,
          "name": "_withholding",
          "type": "uint256"
        }
      ],
      "name": "SetWithholdingFixed",
      "type": "event",
      "signature": "0x02d4071fbc08756ffe4bca9edb3e963c0b64703f966b7aafc724acce3e09c32b"
    },
    {
      "anonymous": false,
      "inputs": [
        {
          "indexed": true,
          "name": "_oldWallet",
          "type": "address"
        },
        {
          "indexed": true,
          "name": "_newWallet",
          "type": "address"
        }
      ],
      "name": "SetWallet",
      "type": "event",
      "signature": "0x8595877311e370fe3ac87d4f6d12473603393f02ac660e68d2e5e3da5adb610c"
    },
    {
      "anonymous": false,
      "inputs": [
        {
          "indexed": true,
          "name": "_dividendIndex",
          "type": "uint256"
        },
        {
          "indexed": false,
          "name": "_maturity",
          "type": "uint256"
        },
        {
          "indexed": false,
          "name": "_expiry",
          "type": "uint256"
        }
      ],
      "name": "UpdateDividendDates",
      "type": "event",
      "signature": "0x4d385ba2c40259cda374f5596718ac5694e5849b23572b3f59b4fd1be037a860"
    },
    {
      "anonymous": false,
      "inputs": [
        {
          "indexed": false,
          "name": "account",
          "type": "address"
        }
      ],
      "name": "Pause",
      "type": "event",
      "signature": "0x5ee71a369c8672edded508e624ffc9257fa1ae6886ef32905c18e60196bca399"
    },
    {
      "anonymous": false,
      "inputs": [
        {
          "indexed": false,
          "name": "account",
          "type": "address"
        }
      ],
      "name": "Unpause",
      "type": "event",
      "signature": "0xaeb196d352664784d1900b0e7414a8face7d29f4dae8c4b0cf68ed477423bbf4"
    },
    {
      "constant": false,
      "inputs": [
        {
          "name": "_maturity",
          "type": "uint256"
        },
        {
          "name": "_expiry",
          "type": "uint256"
        },
        {
          "name": "_name",
          "type": "bytes32"
        }
      ],
      "name": "createDividend",
      "outputs": [],
      "payable": true,
      "stateMutability": "payable",
      "type": "function",
      "signature": "0xf4be43f4"
    },
    {
      "constant": false,
      "inputs": [
        {
          "name": "_maturity",
          "type": "uint256"
        },
        {
          "name": "_expiry",
          "type": "uint256"
        },
        {
          "name": "_checkpointId",
          "type": "uint256"
        },
        {
          "name": "_name",
          "type": "bytes32"
        }
      ],
      "name": "createDividendWithCheckpoint",
      "outputs": [],
      "payable": true,
      "stateMutability": "payable",
      "type": "function",
      "signature": "0xdcef4b5d"
    },
    {
      "constant": false,
      "inputs": [
        {
          "name": "_maturity",
          "type": "uint256"
        },
        {
          "name": "_expiry",
          "type": "uint256"
        },
        {
          "name": "_excluded",
          "type": "address[]"
        },
        {
          "name": "_name",
          "type": "bytes32"
        }
      ],
      "name": "createDividendWithExclusions",
      "outputs": [],
      "payable": true,
      "stateMutability": "payable",
      "type": "function",
      "signature": "0xf58b5bae"
    },
    {
      "constant": false,
      "inputs": [
        {
          "name": "_maturity",
          "type": "uint256"
        },
        {
          "name": "_expiry",
          "type": "uint256"
        },
        {
          "name": "_checkpointId",
          "type": "uint256"
        },
        {
          "name": "_excluded",
          "type": "address[]"
        },
        {
          "name": "_name",
          "type": "bytes32"
        }
      ],
      "name": "createDividendWithCheckpointAndExclusions",
      "outputs": [],
      "payable": true,
      "stateMutability": "payable",
      "type": "function",
      "signature": "0xbea1c041"
    },
    {
      "constant": false,
      "inputs": [
        {
          "name": "_dividendIndex",
          "type": "uint256"
        }
      ],
      "name": "reclaimDividend",
      "outputs": [],
      "payable": false,
      "stateMutability": "nonpayable",
      "type": "function",
      "signature": "0xaa8b76ea"
    },
    {
      "constant": false,
      "inputs": [
        {
          "name": "_dividendIndex",
          "type": "uint256"
        }
      ],
      "name": "withdrawWithholding",
      "outputs": [],
      "payable": false,
      "stateMutability": "nonpayable",
      "type": "function",
      "signature": "0x333cffe5"
    }
  ],
  "bytecode": "0x608060405260966001556008805460a060020a60ff021916905534801561002557600080fd5b5060405160408062004c878339810180604052604081101561004657600080fd5b50805160209091015160078054600160a060020a03938416600160a060020a0319918216179091556006805482163317905560088054939092169216919091179055614bef80620000986000396000f3fe6080604052600436106102765760003560e060020a90048063814b3fe011610153578063bee2ddc2116100c5578063f1e9d1001161007e578063f1e9d10014610f48578063f4be43f414610f5d578063f58b5bae14610f86578063fa67a7bb14611037578063fe58265e14611061578063ff0b9c901461107657610276565b8063bee2ddc214610ddf578063c3a07df614610e09578063c45a015514610e1e578063cc1556dc14610e33578063dcef4b5d14610ee3578063e1726faa14610f1257610276565b8063983d273711610117578063983d273714610ade57806398b9a2dc14610af3578063aa8b76ea14610b26578063ac121dbf14610b50578063b84dfbd214610d12578063bea1c04114610d2757610276565b8063814b3fe0146108a757806381e97b66146109295780638456cb59146109625780638596e6e6146109775780638905fd4f14610aab57610276565b80634d58e413116101ec5780635daff64e116101b05780635daff64e146106745780636faa22a5146106ee57806373e9e1a31461070357806375cb2672146107395780637a3e23fd1461076c5780637b4a223b1461079f57610276565b80634d58e413146104f4578063521eb273146105ab578063562beba8146105c05780635bea0e1c1461060d5780635c975abb1461065f57610276565b80632a0acc6a1161023e5780632a0acc6a146104125780632c035b741461042757806330008b4814610458578063333cffe5146104825780633f2e3165146104ac5780633f4ba83a146104df57610276565b80630945812e1461027b5780630a29f5911461032f5780630f144a48146103565780631613ec9d1461036b57806328d1feda146103b5575b600080fd5b34801561028757600080fd5b5061032d6004803603604081101561029e57600080fd5b8101906020810181356401000000008111156102b957600080fd5b8201836020820111156102cb57600080fd5b803590602001918460208302840111640100000000831117156102ed57600080fd5b919080806020026020016040519081016040528093929190818152602001838360200280828437600092019190915250929550509135925061108b915050565b005b34801561033b57600080fd5b5061034461120f565b60408051918252519081900360200190f35b34801561036257600080fd5b5061032d611215565b34801561037757600080fd5b5061038061124d565b604080517fffffffff000000000000000000000000000000000000000000000000000000009092168252519081900360200190f35b3480156103c157600080fd5b506103df600480360360208110156103d857600080fd5b5035611272565b604080519687526020870195909552858501939093526060850191909152608084015260a0830152519081900360c00190f35b34801561041e57600080fd5b5061034461134a565b34801561043357600080fd5b5061043c611359565b60408051600160a060020a039092168252519081900360200190f35b34801561046457600080fd5b5061032d6004803603602081101561047b57600080fd5b5035611470565b34801561048e57600080fd5b5061032d600480360360208110156104a557600080fd5b50356115c8565b3480156104b857600080fd5b50610344600480360360208110156104cf57600080fd5b5035600160a060020a031661174f565b3480156104eb57600080fd5b5061032d611761565b34801561050057600080fd5b5061032d6004803603604081101561051757600080fd5b8135919081019060408101602082013564010000000081111561053957600080fd5b82018360208201111561054b57600080fd5b8035906020019184602083028401116401000000008311171561056d57600080fd5b919080806020026020016040519081016040528093929190818152602001838360200280828437600092019190915250929550611773945050505050565b3480156105b757600080fd5b5061043c6118af565b3480156105cc57600080fd5b506105f9600480360360408110156105e357600080fd5b50600160a060020a0381351690602001356118be565b604080519115158252519081900360200190f35b34801561061957600080fd5b506106466004803603604081101561063057600080fd5b5080359060200135600160a060020a031661194a565b6040805192835260208301919091528051918290030190f35b34801561066b57600080fd5b506105f9611b2a565b34801561068057600080fd5b5061069e6004803603602081101561069757600080fd5b5035611b3a565b60408051602080825283518183015283519192839290830191858101910280838360005b838110156106da5781810151838201526020016106c2565b505050509050019250505060405180910390f35b3480156106fa57600080fd5b5061043c611c14565b34801561070f57600080fd5b5061032d6004803603606081101561072657600080fd5b5080359060208101359060400135611c23565b34801561074557600080fd5b5061032d6004803603602081101561075c57600080fd5b5035600160a060020a0316611de2565b34801561077857600080fd5b506103446004803603602081101561078f57600080fd5b5035600160a060020a0316611e4d565b3480156107ab57600080fd5b506107c9600480360360208110156107c257600080fd5b5035611e5f565b60405180806020018060200180602001848103845287818151815260200191508051906020019060200280838360005b838110156108115781810151838201526020016107f9565b50505050905001848103835286818151815260200191508051906020019060200280838360005b83811015610850578181015183820152602001610838565b50505050905001848103825285818151815260200191508051906020019060200280838360005b8381101561088f578181015183820152602001610877565b50505050905001965050505050505060405180910390f35b3480156108b357600080fd5b506108d1600480360360208110156108ca57600080fd5b50356121b6565b604080519b8c5260208c019a909a528a8a019890985260608a0196909652608089019490945260a088019290925260c0870152151560e086015261010085015261012084015261014083015251908190036101600190f35b34801561093557600080fd5b506105f96004803603604081101561094c57600080fd5b50600160a060020a038135169060200135612222565b34801561096e57600080fd5b5061032d6122ad565b34801561098357600080fd5b5061032d6004803603604081101561099a57600080fd5b8101906020810181356401000000008111156109b557600080fd5b8201836020820111156109c757600080fd5b803590602001918460208302840111640100000000831117156109e957600080fd5b9190808060200260200160405190810160405280939291908181526020018383602002808284376000920191909152509295949360208101935035915050640100000000811115610a3957600080fd5b820183602082011115610a4b57600080fd5b80359060200191846020830284011164010000000083111715610a6d57600080fd5b9190808060200260200160405190810160405280939291908181526020018383602002808284376000920191909152509295506122bd945050505050565b348015610ab757600080fd5b5061032d60048036036020811015610ace57600080fd5b5035600160a060020a03166124f4565b348015610aea57600080fd5b506103446126c9565b348015610aff57600080fd5b5061032d60048036036020811015610b1657600080fd5b5035600160a060020a03166126db565b348015610b3257600080fd5b5061032d60048036036020811015610b4957600080fd5b50356126e3565b348015610b5c57600080fd5b50610b6561295e565b6040518080602001806020018060200180602001806020018060200187810387528d818151815260200191508051906020019060200280838360005b83811015610bb9578181015183820152602001610ba1565b5050505090500187810386528c818151815260200191508051906020019060200280838360005b83811015610bf8578181015183820152602001610be0565b5050505090500187810385528b818151815260200191508051906020019060200280838360005b83811015610c37578181015183820152602001610c1f565b5050505090500187810384528a818151815260200191508051906020019060200280838360005b83811015610c76578181015183820152602001610c5e565b50505050905001878103835289818151815260200191508051906020019060200280838360005b83811015610cb5578181015183820152602001610c9d565b50505050905001878103825288818151815260200191508051906020019060200280838360005b83811015610cf4578181015183820152602001610cdc565b505050509050019c5050505050505050505050505060405180910390f35b348015610d1e57600080fd5b5061043c612b35565b61032d600480360360a0811015610d3d57600080fd5b81359160208101359160408201359190810190608081016060820135640100000000811115610d6b57600080fd5b820183602082011115610d7d57600080fd5b80359060200191846020830284011164010000000083111715610d9f57600080fd5b9190808060200260200160405190810160405280939291908181526020018383602002808284376000920191909152509295505091359250612b44915050565b348015610deb57600080fd5b5061043c60048036036020811015610e0257600080fd5b5035612bb1565b348015610e1557600080fd5b5061069e612bd8565b348015610e2a57600080fd5b5061043c612c4d565b348015610e3f57600080fd5b5061032d60048036036020811015610e5657600080fd5b810190602081018135640100000000811115610e7157600080fd5b820183602082011115610e8357600080fd5b80359060200191846020830284011164010000000083111715610ea557600080fd5b919080806020026020016040519081016040528093929190818152602001838360200280828437600092019190915250929550612c5c945050505050565b61032d60048036036080811015610ef957600080fd5b5080359060208101359060408101359060600135612ecf565b348015610f1e57600080fd5b5061032d60048036036060811015610f3557600080fd5b5080359060208101359060400135612f8e565b348015610f5457600080fd5b5061069e6131a9565b61032d60048036036060811015610f7357600080fd5b508035906020810135906040013561320b565b61032d60048036036080811015610f9c57600080fd5b813591602081013591810190606081016040820135640100000000811115610fc357600080fd5b820183602082011115610fd557600080fd5b80359060200191846020830284011164010000000083111715610ff757600080fd5b91908080602002602001604051908101604052809392919081815260200183836020028082843760009201919091525092955050913592506132c5915050565b34801561104357600080fd5b50610b656004803603602081101561105a57600080fd5b50356133b7565b34801561106d57600080fd5b5061043c613912565b34801561108257600080fd5b506103446139a1565b60d960020a6420a226a4a7026110a18133613a84565b6110e3576040805160e560020a62461bcd0281526020600482015260126024820152600080516020614b23833981519152604482015290519081900360640190fd5b670de0b6b3a7640000821115611143576040805160e560020a62461bcd02815260206004820152601960248201527f496e636f72726563742077697468686f6c64696e672074617800000000000000604482015290519081900360640190fd5b7f02d4071fbc08756ffe4bca9edb3e963c0b64703f966b7aafc724acce3e09c32b83836040518080602001838152602001828103825284818151815260200191508051906020019060200280838360005b838110156111ac578181015183820152602001611194565b50505050905001935050505060405180910390a160005b83518110156112095782600460008684815181106111dd57fe5b602090810291909101810151600160a060020a03168252810191909152604001600020556001016111c3565b50505050565b60015481565b61121d613bd3565b6040513390303180156108fc02916000818181858888f1935050505015801561124a573d6000803e3d6000fd5b50565b7f75cb2672000000000000000000000000000000000000000000000000000000005b90565b6000806000806000806002878154811061128857fe5b90600052602060002090600e0201600101549550600287815481106112a957fe5b90600052602060002090600e0201600201549450600287815481106112ca57fe5b90600052602060002090600e0201600301549350600287815481106112eb57fe5b90600052602060002090600e02016004015492506002878154811061130c57fe5b90600052602060002090600e02016005015491506002878154811061132d57fe5b90600052602060002090600e0201600d0154905091939550919395565b60d960020a6420a226a4a70281565b60008054600160a060020a031661145e576000611374613912565b600160a060020a03166321f8a7217faae8817359f3dcb67d050f44f3e49f982e0359d90ca4b5f18569926304aaece66001026040518263ffffffff1660e060020a0281526004018082815260200191505060206040518083038186803b1580156113dd57600080fd5b505afa1580156113f1573d6000803e3d6000fd5b505050506040513d602081101561140757600080fd5b50519050600160a060020a038116611457576040805160e560020a62461bcd02815260206004820152600f6024820152600080516020614b63833981519152604482015290519081900360640190fd5b905061126f565b50600054600160a060020a031661126f565b60085460a060020a900460ff16156114d2576040805160e560020a62461bcd02815260206004820152601260248201527f436f6e7472616374206973207061757365640000000000000000000000000000604482015290519081900360640190fd5b6114db81613caf565b6000600282815481106114ea57fe5b60009182526020808320338452600a600e90930201918201905260409091205490915060ff1615611565576040805160e560020a62461bcd02815260206004820152601860248201527f4469766964656e6420616c726561647920636c61696d65640000000000000000604482015290519081900360640190fd5b336000908152600b8201602052604090205460ff16156115b95760405160e560020a62461bcd028152600401808060200182810382526021815260200180614ba36021913960400191505060405180910390fd5b6115c4338284613e5a565b5050565b600080516020614b838339815191526115e18133613a84565b611623576040805160e560020a62461bcd0281526020600482015260126024820152600080516020614b23833981519152604482015290519081900360640190fd5b600254821061167c576040805160e560020a62461bcd02815260206004820152601860248201527f496e636f7272656374206469766964656e6420696e6465780000000000000000604482015290519081900360640190fd5b60006002838154811061168b57fe5b90600052602060002090600e0201905060006116b882600901548360080154613fdb90919063ffffffff16565b60088301546009840155905060006116ce611359565b604051909150600160a060020a0382169083156108fc029084906000818181858888f19350505050158015611707573d6000803e3d6000fd5b506040805183815290518691600160a060020a038416917fc817826994cc4cf2dd66758f988195f8ad3e29078e2ce7ff40fe66477eff27e89181900360200190a35050505050565b60056020526000908152604090205481565b611769613bd3565b611771613ff0565b565b600080516020614b8383398151915261178c8133613a84565b6117ce576040805160e560020a62461bcd0281526020600482015260126024820152600080516020614b23833981519152604482015290519081900360640190fd5b6117d783613caf565b6000600284815481106117e657fe5b600091825260208220600e9091020191505b83518110156118a85781600a01600085838151811061181357fe5b602090810291909101810151600160a060020a031682528101919091526040016000205460ff1615801561187d575081600b01600085838151811061185457fe5b602090810291909101810151600160a060020a031682528101919091526040016000205460ff16155b156118a0576118a084828151811061189157fe5b60200260200101518387613e5a565b6001016117f8565b5050505050565b600054600160a060020a031681565b6002546000908210611908576040805160e560020a62461bcd0281526020600482015260106024820152600080516020614b43833981519152604482015290519081900360640190fd5b6002828154811061191557fe5b60009182526020808320600160a060020a0387168452600a600e90930201919091019052604090205460ff1690505b92915050565b60025460009081908410611996576040805160e560020a62461bcd0281526020600482015260106024820152600080516020614b43833981519152604482015290519081900360640190fd5b6000600285815481106119a557fe5b60009182526020808320600160a060020a0388168452600a600e90930201918201905260409091205490915060ff16806119f95750600160a060020a0384166000908152600b8201602052604090205460ff165b15611a0b575060009150819050611b23565b6007548154604080517f4ee2cd7e000000000000000000000000000000000000000000000000000000008152600160a060020a038881166004830152602482019390935290516000939290921691634ee2cd7e91604480820192602092909190829003018186803b158015611a7f57600080fd5b505afa158015611a93573d6000803e3d6000fd5b505050506040513d6020811015611aa957600080fd5b505160068301546004840154919250600091611add9190611ad190859063ffffffff6140a416565b9063ffffffff6140d216565b600160a060020a03871660009081526004602052604081205491925090611b1990670de0b6b3a764000090611ad190859063ffffffff6140a416565b9195509093505050505b9250929050565b60085460a060020a900460ff1681565b60606000805b600254811015611b7f578360028281548110611b5857fe5b90600052602060002090600e0201600001541415611b77576001909101905b600101611b40565b50606081604051908082528060200260200182016040528015611bac578160200160208202803883390190505b50600092509050815b600254811015611c0c578460028281548110611bcd57fe5b90600052602060002090600e0201600001541415611c045780828481518110611bf257fe5b60209081029190910101526001909201915b600101611bb5565b509392505050565b600854600160a060020a031681565b60d960020a6420a226a4a702611c398133613a84565b611c7b576040805160e560020a62461bcd0281526020600482015260126024820152600080516020614b23833981519152604482015290519081900360640190fd5b6002548410611cc2576040805160e560020a62461bcd0281526020600482015260106024820152600080516020614b43833981519152604482015290519081900360640190fd5b828211611d19576040805160e560020a62461bcd02815260206004820152601660248201527f457870697279206265666f7265206d6174757269747900000000000000000000604482015290519081900360640190fd5b600060028581548110611d2857fe5b90600052602060002090600e0201905042816003015411611d93576040805160e560020a62461bcd02815260206004820152601860248201527f4469766964656e6420616c726561647920657870697265640000000000000000604482015290519081900360640190fd5b60038101839055600281018490556040805185815260208101859052815187927f4d385ba2c40259cda374f5596718ac5694e5849b23572b3f59b4fd1be037a860928290030190a25050505050565b600654600160a060020a03163314611e44576040805160e560020a62461bcd02815260206004820152601560248201527f53656e646572206973206e6f7420666163746f72790000000000000000000000604482015290519081900360640190fd5b61124a816140f4565b60046020526000908152604090205481565b6060806060600760009054906101000a9004600160a060020a0316600160a060020a0316635488cc806040518163ffffffff1660e060020a02815260040160206040518083038186803b158015611eb557600080fd5b505afa158015611ec9573d6000803e3d6000fd5b505050506040513d6020811015611edf57600080fd5b5051841115611f38576040805160e560020a62461bcd02815260206004820152601260248201527f496e76616c696420636865636b706f696e740000000000000000000000000000604482015290519081900360640190fd5b600754604080517f3f553586000000000000000000000000000000000000000000000000000000008152600481018790529051600160a060020a0390921691633f55358691602480820192600092909190829003018186803b158015611f9d57600080fd5b505afa158015611fb1573d6000803e3d6000fd5b505050506040513d6000823e601f3d908101601f191682016040526020811015611fda57600080fd5b810190808051640100000000811115611ff257600080fd5b8201602081018481111561200557600080fd5b815185602082028301116401000000008211171561202257600080fd5b505092919050505092508251604051908082528060200260200182016040528015612057578160200160208202803883390190505b5091508251604051908082528060200260200182016040528015612085578160200160208202803883390190505b50905060005b83518110156121ae576007548451600160a060020a0390911690634ee2cd7e908690849081106120b757fe5b6020026020010151876040518363ffffffff1660e060020a0281526004018083600160a060020a0316600160a060020a031681526020018281526020019250505060206040518083038186803b15801561211057600080fd5b505afa158015612124573d6000803e3d6000fd5b505050506040513d602081101561213a57600080fd5b5051835184908390811061214a57fe5b6020026020010181815250506004600085838151811061216657fe5b6020026020010151600160a060020a0316600160a060020a031681526020019081526020016000205482828151811061219b57fe5b602090810291909101015260010161208b565b509193909250565b600281815481106121c357fe5b60009182526020909120600e9091020180546001820154600283015460038401546004850154600586015460068701546007880154600889015460098a0154600d909a0154989a5096989597949693959294919360ff9091169290918b565b600254600090821061226c576040805160e560020a62461bcd0281526020600482015260106024820152600080516020614b43833981519152604482015290519081900360640190fd5b6002828154811061227957fe5b60009182526020808320600160a060020a0387168452600b600e90930201919091019052604090205460ff16905092915050565b6122b5613bd3565b61177161415c565b60d960020a6420a226a4a7026122d38133613a84565b612315576040805160e560020a62461bcd0281526020600482015260126024820152600080516020614b23833981519152604482015290519081900360640190fd5b815183511461236e576040805160e560020a62461bcd02815260206004820152601860248201527f4d69736d61746368656420696e707574206c656e677468730000000000000000604482015290519081900360640190fd5b7f01da14148cd0c4104d62830cfe6127c6955f1074631149adde6809b8687988d98383604051808060200180602001838103835285818151815260200191508051906020019060200280838360005b838110156123d55781810151838201526020016123bd565b50505050905001838103825284818151815260200191508051906020019060200280838360005b838110156124145781810151838201526020016123fc565b5050505090500194505050505060405180910390a160005b8351811015611209576012600a0a83828151811061244657fe5b602002602001015111156124a4576040805160e560020a62461bcd02815260206004820152601960248201527f496e636f72726563742077697468686f6c64696e672074617800000000000000604482015290519081900360640190fd5b8281815181106124b057fe5b6020026020010151600460008684815181106124c857fe5b602090810291909101810151600160a060020a031682528101919091526040016000205560010161242c565b6124fc613bd3565b600160a060020a038116612548576040805160e560020a62461bcd02815260206004820152600f6024820152600080516020614b63833981519152604482015290519081900360640190fd5b604080517f70a0823100000000000000000000000000000000000000000000000000000000815230600482015290518291600091600160a060020a038416916370a08231916024808301926020929190829003018186803b1580156125ac57600080fd5b505afa1580156125c0573d6000803e3d6000fd5b505050506040513d60208110156125d657600080fd5b5051604080517fa9059cbb000000000000000000000000000000000000000000000000000000008152336004820152602481018390529051919250600160a060020a0384169163a9059cbb916044808201926020929091908290030181600087803b15801561264457600080fd5b505af1158015612658573d6000803e3d6000fd5b505050506040513d602081101561266e57600080fd5b50516126c4576040805160e560020a62461bcd02815260206004820152600f60248201527f5472616e73666572206661696c65640000000000000000000000000000000000604482015290519081900360640190fd5b505050565b600080516020614b8383398151915281565b611e44613bd3565b600080516020614b838339815191526126fc8133613a84565b61273e576040805160e560020a62461bcd0281526020600482015260126024820152600080516020614b23833981519152604482015290519081900360640190fd5b6002548210612797576040805160e560020a62461bcd02815260206004820152601860248201527f496e636f7272656374206469766964656e6420696e6465780000000000000000604482015290519081900360640190fd5b600282815481106127a457fe5b90600052602060002090600e02016003015442101561280d576040805160e560020a62461bcd02815260206004820181905260248201527f4469766964656e642065787069727920697320696e2074686520667574757265604482015290519081900360640190fd5b6002828154811061281a57fe5b600091825260209091206007600e90920201015460ff1615612886576040805160e560020a62461bcd02815260206004820152601b60248201527f4469766964656e6420697320616c726561647920636c61696d65640000000000604482015290519081900360640190fd5b60006002838154811061289557fe5b6000918252602082206007600e90920201908101805460ff19166001179055600581015460048201549193506128d1919063ffffffff613fdb16565b905060006128dd611359565b604051909150600160a060020a0382169083156108fc029084906000818181858888f19350505050158015612916573d6000803e3d6000fd5b506040805183815290518691600160a060020a038416917fcd202b969101d293ad6e4c4053b46f2bf4698ca22abcb130dc24fa3baca0dee19181900360200190a35050505050565b606080606080606080600280549050604051908082528060200260200182016040528015612996578160200160208202803883390190505b5060025460408051828152602080840282010190915291975080156129c5578160200160208202803883390190505b5060025460408051828152602080840282010190915291965080156129f4578160200160208202803883390190505b506002546040805182815260208084028201019091529195508015612a23578160200160208202803883390190505b506002546040805182815260208084028201019091529194508015612a52578160200160208202803883390190505b506002546040805182815260208084028201019091529193508015612a81578160200160208202803883390190505b50905060005b600254811015612b2c57612a9a81611272565b8c8781518110612aa657fe5b602002602001018c8881518110612ab957fe5b602002602001018c8981518110612acc57fe5b602002602001018c8a81518110612adf57fe5b602002602001018c8b81518110612af257fe5b602002602001018c8c81518110612b0557fe5b60209081029190910101959095529490935293909252929092529190915252600101612a87565b50909192939495565b600754600160a060020a031681565b60d960020a6420a226a4a702612b5a8133613a84565b612b9c576040805160e560020a62461bcd0281526020600482015260126024820152600080516020614b23833981519152604482015290519081900360640190fd5b612ba98686868686614217565b505050505050565b60038181548110612bbe57fe5b600091825260209091200154600160a060020a0316905081565b60408051600280825260608083018452928392919060208301908038833901905050905060d960020a6420a226a4a70281600081518110612c1557fe5b602002602001018181525050600080516020614b8383398151915281600181518110612c3d57fe5b6020908102919091010152905090565b600654600160a060020a031681565b60d960020a6420a226a4a702612c728133613a84565b612cb4576040805160e560020a62461bcd0281526020600482015260126024820152600080516020614b23833981519152604482015290519081900360640190fd5b60015482511115612d0f576040805160e560020a62461bcd02815260206004820152601b60248201527f546f6f206d616e79206578636c75646564206164647265737365730000000000604482015290519081900360640190fd5b60005b8251811015612e36576000600160a060020a0316838281518110612d3257fe5b6020026020010151600160a060020a03161415612d87576040805160e560020a62461bcd02815260206004820152600f6024820152600080516020614b63833981519152604482015290519081900360640190fd5b600181015b8351811015612e2d57838181518110612da157fe5b6020026020010151600160a060020a0316848381518110612dbe57fe5b6020026020010151600160a060020a03161415612e25576040805160e560020a62461bcd02815260206004820152601960248201527f4475706c6963617465206578636c756465206164647265737300000000000000604482015290519081900360640190fd5b600101612d8c565b50600101612d12565b508151612e4a906003906020850190614a89565b507fcbdf8a4bf19b153fdd0aa4aa2c292cef47adc56e05524f1d99658f03b771e237600360405180806020018281038252838181548152602001915080548015612ebd57602002820191906000526020600020905b8154600160a060020a03168152600190910190602001808311612e9f575b50509250505060405180910390a15050565b60d960020a6420a226a4a702612ee58133613a84565b612f27576040805160e560020a62461bcd0281526020600482015260126024820152600080516020614b23833981519152604482015290519081900360640190fd5b6118a88585856003805480602002602001604051908101604052809291908181526020018280548015612f8357602002820191906000526020600020905b8154600160a060020a03168152600190910190602001808311612f65575b505050505086614217565b600080516020614b83833981519152612fa78133613a84565b612fe9576040805160e560020a62461bcd0281526020600482015260126024820152600080516020614b23833981519152604482015290519081900360640190fd5b612ff284613caf565b60006002858154811061300157fe5b600091825260208220600e909102018054600754604080517fabe191c100000000000000000000000000000000000000000000000000000000815260048101849052602481018a90526044810189905290519395509193606093600160a060020a039092169263abe191c19260648083019392829003018186803b15801561308857600080fd5b505afa15801561309c573d6000803e3d6000fd5b505050506040513d6000823e601f3d908101601f1916820160405260208110156130c557600080fd5b8101908080516401000000008111156130dd57600080fd5b820160208101848111156130f057600080fd5b815185602082028301116401000000008211171561310d57600080fd5b50909450600093505050505b815181101561319f57600082828151811061313057fe5b602090810291909101810151600160a060020a0381166000908152600a880190925260409091205490915060ff161580156131865750600160a060020a0381166000908152600b8601602052604090205460ff16155b156131965761319681868b613e5a565b50600101613119565b5050505050505050565b6060600380548060200260200160405190810160405280929190818152602001828054801561320157602002820191906000526020600020905b8154600160a060020a031681526001909101906020018083116131e3575b5050505050905090565b60d960020a6420a226a4a7026132218133613a84565b613263576040805160e560020a62461bcd0281526020600482015260126024820152600080516020614b23833981519152604482015290519081900360640190fd5b611209848460038054806020026020016040519081016040528092919081815260200182805480156132be57602002820191906000526020600020905b8154600160a060020a031681526001909101906020018083116132a0575b5050505050855b60d960020a6420a226a4a7026132db8133613a84565b61331d576040805160e560020a62461bcd0281526020600482015260126024820152600080516020614b23833981519152604482015290519081900360640190fd5b600754604080517fff0b9c900000000000000000000000000000000000000000000000000000000081529051600092600160a060020a03169163ff0b9c9091600480830192602092919082900301818787803b15801561337c57600080fd5b505af1158015613390573d6000803e3d6000fd5b505050506040513d60208110156133a657600080fd5b50519050612ba98686838787614217565b606080606080606080600280549050871061340a576040805160e560020a62461bcd0281526020600482015260106024820152600080516020614b43833981519152604482015290519081900360640190fd5b60006002888154811061341957fe5b600091825260208220600e909102018054600754604080517f3f5535860000000000000000000000000000000000000000000000000000000081526004810184905290519395509193600160a060020a0390911692633f553586926024808201939291829003018186803b15801561349057600080fd5b505afa1580156134a4573d6000803e3d6000fd5b505050506040513d6000823e601f3d908101601f1916820160405260208110156134cd57600080fd5b8101908080516401000000008111156134e557600080fd5b820160208101848111156134f857600080fd5b815185602082028301116401000000008211171561351557600080fd5b50509291905050509750875160405190808252806020026020018201604052801561354a578160200160208202803883390190505b5096508751604051908082528060200260200182016040528015613578578160200160208202803883390190505b50955087516040519080825280602002602001820160405280156135a6578160200160208202803883390190505b50945087516040519080825280602002602001820160405280156135d4578160200160208202803883390190505b5093508751604051908082528060200260200182016040528015613602578160200160208202803883390190505b50925060005b88518110156139065782600a0160008a838151811061362357fe5b6020026020010151600160a060020a0316600160a060020a0316815260200190815260200160002060009054906101000a900460ff1688828151811061366557fe5b60200260200101901515908115158152505082600b0160008a838151811061368957fe5b6020026020010151600160a060020a0316600160a060020a0316815260200190815260200160002060009054906101000a900460ff168782815181106136cb57fe5b911515602092830291909101909101526007548951600160a060020a0390911690634ee2cd7e908b90849081106136fe57fe5b602002602001015185600001546040518363ffffffff1660e060020a0281526004018083600160a060020a0316600160a060020a031681526020018281526020019250505060206040518083038186803b15801561375b57600080fd5b505afa15801561376f573d6000803e3d6000fd5b505050506040513d602081101561378557600080fd5b5051845185908390811061379557fe5b6020026020010181815250508681815181106137ad57fe5b60200260200101516138fe578781815181106137c557fe5b6020026020010151156138975782600c0160008a83815181106137e457fe5b6020026020010151600160a060020a0316600160a060020a031681526020019081526020016000205486828151811061381957fe5b60200260200101818152505061387a86828151811061383457fe5b602002602001015161386e8560060154611ad1876004015489878151811061385857fe5b60200260200101516140a490919063ffffffff16565b9063ffffffff613fdb16565b85828151811061388657fe5b6020026020010181815250506138fe565b6000806138b78c8c85815181106138aa57fe5b602002602001015161194a565b91509150808884815181106138c857fe5b60209081029190910101526138e3828263ffffffff613fdb16565b8784815181106138ef57fe5b60200260200101818152505050505b600101613608565b50505091939550919395565b600754604080517f660d0d670000000000000000000000000000000000000000000000000000000081529051600092600160a060020a03169163660d0d67916004808301926020929190829003018186803b15801561397057600080fd5b505afa158015613984573d6000803e3d6000fd5b505050506040513d602081101561399a57600080fd5b5051905090565b6000600080516020614b838339815191526139bc8133613a84565b6139fe576040805160e560020a62461bcd0281526020600482015260126024820152600080516020614b23833981519152604482015290519081900360640190fd5b600760009054906101000a9004600160a060020a0316600160a060020a031663ff0b9c906040518163ffffffff1660e060020a028152600401602060405180830381600087803b158015613a5157600080fd5b505af1158015613a65573d6000803e3d6000fd5b505050506040513d6020811015613a7b57600080fd5b505191505b5090565b600080600760009054906101000a9004600160a060020a0316600160a060020a0316638da5cb5b6040518163ffffffff1660e060020a02815260040160206040518083038186803b158015613ad857600080fd5b505afa158015613aec573d6000803e3d6000fd5b505050506040513d6020811015613b0257600080fd5b5051600654600160a060020a038581169281168314935016148180613b245750805b80613bca5750600754604080517f8658b8b9000000000000000000000000000000000000000000000000000000008152600160a060020a0387811660048301523060248301526044820189905291519190921691638658b8b9916064808301926020929190829003018186803b158015613b9d57600080fd5b505afa158015613bb1573d6000803e3d6000fd5b505050506040513d6020811015613bc757600080fd5b50515b95945050505050565b600760009054906101000a9004600160a060020a0316600160a060020a0316638da5cb5b6040518163ffffffff1660e060020a02815260040160206040518083038186803b158015613c2457600080fd5b505afa158015613c38573d6000803e3d6000fd5b505050506040513d6020811015613c4e57600080fd5b5051600160a060020a03163314611771576040805160e560020a62461bcd02815260206004820152601360248201527f53656e646572206973206e6f74206f776e657200000000000000000000000000604482015290519081900360640190fd5b6002548110613cf6576040805160e560020a62461bcd0281526020600482015260106024820152600080516020614b43833981519152604482015290519081900360640190fd5b60028181548110613d0357fe5b600091825260209091206007600e90920201015460ff1615613d6f576040805160e560020a62461bcd02815260206004820152601260248201527f4469766964656e64207265636c61696d65640000000000000000000000000000604482015290519081900360640190fd5b60028181548110613d7c57fe5b90600052602060002090600e020160020154421015613de5576040805160e560020a62461bcd02815260206004820152601b60248201527f4469766964656e64206d6174757269747920696e206675747572650000000000604482015290519081900360640190fd5b60028181548110613df257fe5b90600052602060002090600e020160030154421061124a576040805160e560020a62461bcd02815260206004820152601760248201527f4469766964656e642065787069727920696e2070617374000000000000000000604482015290519081900360640190fd5b600080613e67838661194a565b600160a060020a0387166000908152600a870160205260408120805460ff191660011790559193509150613ea1838363ffffffff613fdb16565b604051909150600160a060020a0387169082156108fc029083906000818181858888f1935050505015613f75576005850154613ee3908463ffffffff614a7716565b60058601558115613f26576008850154613f03908363ffffffff614a7716565b6008860155600160a060020a0386166000908152600c8601602052604090208290555b8386600160a060020a03167f0cfb57b295d2603fbb329fdc2d35326148368bf26a74cbb525cdf3a71ff5cc3d8585604051808381526020018281526020019250505060405180910390a3612ba9565b600160a060020a0386166000818152600a87016020908152604091829020805460ff19169055815186815290810185905281518793927fd252e7e7f5d6262d6dd8f80698d23f219cd7847a22b97c199a5984440f3c2715928290030190a3505050505050565b600082821115613fea57600080fd5b50900390565b60085460a060020a900460ff16614051576040805160e560020a62461bcd02815260206004820152601660248201527f436f6e7472616374206973206e6f742070617573656400000000000000000000604482015290519081900360640190fd5b6008805474ff0000000000000000000000000000000000000000191690556040805133815290517faeb196d352664784d1900b0e7414a8face7d29f4dae8c4b0cf68ed477423bbf49181900360200190a1565b6000826140b357506000611944565b828202828482816140c057fe5b04146140cb57600080fd5b9392505050565b60008082116140e057600080fd5b60008284816140eb57fe5b04949350505050565b60008054604051600160a060020a03808516939216917f8595877311e370fe3ac87d4f6d12473603393f02ac660e68d2e5e3da5adb610c91a36000805473ffffffffffffffffffffffffffffffffffffffff1916600160a060020a0392909216919091179055565b60085460a060020a900460ff16156141be576040805160e560020a62461bcd02815260206004820152601260248201527f436f6e7472616374206973207061757365640000000000000000000000000000604482015290519081900360640190fd5b6008805474ff0000000000000000000000000000000000000000191660a060020a1790556040805133815290517f5ee71a369c8672edded508e624ffc9257fa1ae6886ef32905c18e60196bca3999181900360200190a1565b60015482511115614272576040805160e560020a62461bcd02815260206004820152601b60248201527f546f6f206d616e7920616464726573736573206578636c756465640000000000604482015290519081900360640190fd5b8484116142c9576040805160e560020a62461bcd02815260206004820152601960248201527f457870697279206973206265666f7265206d6174757269747900000000000000604482015290519081900360640190fd5b428411614320576040805160e560020a62461bcd02815260206004820152601560248201527f45787069727920697320696e2074686520706173740000000000000000000000604482015290519081900360640190fd5b60003411614378576040805160e560020a62461bcd02815260206004820152601060248201527f4e6f206469766964656e642073656e7400000000000000000000000000000000604482015290519081900360640190fd5b600760009054906101000a9004600160a060020a0316600160a060020a0316635488cc806040518163ffffffff1660e060020a02815260040160206040518083038186803b1580156143c957600080fd5b505afa1580156143dd573d6000803e3d6000fd5b505050506040513d60208110156143f357600080fd5b505183111561440157600080fd5b7fff000000000000000000000000000000000000000000000000000000000000007f0100000000000000000000000000000000000000000000000000000000000000600083901a021661445357600080fd5b600254600754604080517f981b24d0000000000000000000000000000000000000000000000000000000008152600481018790529051600092600160a060020a03169163981b24d0916024808301926020929190829003018186803b1580156144bb57600080fd5b505afa1580156144cf573d6000803e3d6000fd5b505050506040513d60208110156144e557600080fd5b505190508061453e576040805160e560020a62461bcd02815260206004820152600e60248201527f496e76616c696420737570706c79000000000000000000000000000000000000604482015290519081900360640190fd5b60408051610160810182528681524260208201908152918101898152606082018981523460808401908152600060a0850181815260c0860182815260e08701838152610100880184815261012089018581526101408a018e8152600280546001810182559088529a517f405787fa12a823e0f2b7631cc41b3ba8828b3321ca811111fa75cd3aa3bb5ace600e909c029b8c01559a517f405787fa12a823e0f2b7631cc41b3ba8828b3321ca811111fa75cd3aa3bb5acf8b015597517f405787fa12a823e0f2b7631cc41b3ba8828b3321ca811111fa75cd3aa3bb5ad08a015595517f405787fa12a823e0f2b7631cc41b3ba8828b3321ca811111fa75cd3aa3bb5ad189015593517f405787fa12a823e0f2b7631cc41b3ba8828b3321ca811111fa75cd3aa3bb5ad288015590517f405787fa12a823e0f2b7631cc41b3ba8828b3321ca811111fa75cd3aa3bb5ad3870155517f405787fa12a823e0f2b7631cc41b3ba8828b3321ca811111fa75cd3aa3bb5ad486015590517f405787fa12a823e0f2b7631cc41b3ba8828b3321ca811111fa75cd3aa3bb5ad58501805460ff191691151591909117905590517f405787fa12a823e0f2b7631cc41b3ba8828b3321ca811111fa75cd3aa3bb5ad684015590517f405787fa12a823e0f2b7631cc41b3ba8828b3321ca811111fa75cd3aa3bb5ad783015591517f405787fa12a823e0f2b7631cc41b3ba8828b3321ca811111fa75cd3aa3bb5adb90910155805b855181101561499b576000600160a060020a031686828151811061477d57fe5b6020026020010151600160a060020a031614156147d2576040805160e560020a62461bcd02815260206004820152600f6024820152600080516020614b63833981519152604482015290519081900360640190fd5b600284815481106147df57fe5b90600052602060002090600e0201600b0160008783815181106147fe57fe5b602090810291909101810151600160a060020a031682528101919091526040016000205460ff161561487a576040805160e560020a62461bcd02815260206004820152601560248201527f6475706564206578636c75646520616464726573730000000000000000000000604482015290519081900360640190fd5b600754865161493191600160a060020a031690634ee2cd7e9089908590811061489f57fe5b60200260200101518a6040518363ffffffff1660e060020a0281526004018083600160a060020a0316600160a060020a031681526020018281526020019250505060206040518083038186803b1580156148f857600080fd5b505afa15801561490c573d6000803e3d6000fd5b505050506040513d602081101561492257600080fd5b5051839063ffffffff614a7716565b915060016002858154811061494257fe5b90600052602060002090600e0201600b01600088848151811061496157fe5b602090810291909101810151600160a060020a03168252810191909152604001600020805460ff191691151591909117905560010161475d565b508082116149f3576040805160e560020a62461bcd02815260206004820152600e60248201527f496e76616c696420737570706c79000000000000000000000000000000000000604482015290519081900360640190fd5b80820360028481548110614a0357fe5b60009182526020918290206006600e909202010191909155604080518881529182018a905281810189905234606083015260808201849052518591859133917f376302a393407da8edbd629bc870b9ae0cca86e0b83dbe5b349854743ab55a53919081900360a00190a45050505050505050565b6000828201838110156140cb57600080fd5b828054828255906000526020600020908101928215614aeb579160200282015b82811115614aeb578251825473ffffffffffffffffffffffffffffffffffffffff1916600160a060020a03909116178255602090920191600190910190614aa9565b50613a809261126f9250905b80821115613a8057805473ffffffffffffffffffffffffffffffffffffffff19168155600101614af756fe496e76616c6964207065726d697373696f6e0000000000000000000000000000496e76616c6964206469766964656e6400000000000000000000000000000000496e76616c6964206164647265737300000000000000000000000000000000004f50455241544f520000000000000000000000000000000000000000000000006d73672e73656e646572206578636c756465642066726f6d204469766964656e64a165627a7a723058203f97e97af6c1238fbb797f61f7922993e5cd88ceb21183468b073d12e7c7e3880029",
  "source": "pragma solidity 0.5.8;\n\nimport \"../DividendCheckpoint.sol\";\nimport \"../../../../interfaces/IOwnable.sol\";\n\n/**\n * @title Checkpoint module for issuing ether dividends\n */\ncontract EtherDividendCheckpoint is DividendCheckpoint {\n    using SafeMath for uint256;\n\n    event EtherDividendDeposited(\n        address indexed _depositor,\n        uint256 _checkpointId,\n        uint256 _maturity,\n        uint256 _expiry,\n        uint256 _amount,\n        uint256 _totalSupply,\n        uint256 indexed _dividendIndex,\n        bytes32 indexed _name\n    );\n    event EtherDividendClaimed(address indexed _payee, uint256 indexed _dividendIndex, uint256 _amount, uint256 _withheld);\n    event EtherDividendReclaimed(address indexed _claimer, uint256 indexed _dividendIndex, uint256 _claimedAmount);\n    event EtherDividendClaimFailed(address indexed _payee, uint256 indexed _dividendIndex, uint256 _amount, uint256 _withheld);\n    event EtherDividendWithholdingWithdrawn(address indexed _claimer, uint256 indexed _dividendIndex, uint256 _withheldAmount);\n\n    /**\n     * @notice Constructor\n     * @param _securityToken Address of the security token\n     */\n    constructor(address _securityToken, address _polyToken) public Module(_securityToken, _polyToken) {\n\n    }\n\n    /**\n     * @notice Creates a dividend and checkpoint for the dividend, using global list of excluded addresses\n     * @param _maturity Time from which dividend can be paid\n     * @param _expiry Time until dividend can no longer be paid, and can be reclaimed by issuer\n     * @param _name Name/title for identification\n     */\n    function createDividend(uint256 _maturity, uint256 _expiry, bytes32 _name) external payable withPerm(ADMIN) {\n        createDividendWithExclusions(_maturity, _expiry, excluded, _name);\n    }\n\n    /**\n     * @notice Creates a dividend with a provided checkpoint, using global list of excluded addresses\n     * @param _maturity Time from which dividend can be paid\n     * @param _expiry Time until dividend can no longer be paid, and can be reclaimed by issuer\n     * @param _checkpointId Id of the checkpoint from which to issue dividend\n     * @param _name Name/title for identification\n     */\n    function createDividendWithCheckpoint(\n        uint256 _maturity,\n        uint256 _expiry,\n        uint256 _checkpointId,\n        bytes32 _name\n    )\n        external\n        payable\n        withPerm(ADMIN)\n    {\n        _createDividendWithCheckpointAndExclusions(_maturity, _expiry, _checkpointId, excluded, _name);\n    }\n\n    /**\n     * @notice Creates a dividend and checkpoint for the dividend, specifying explicit excluded addresses\n     * @param _maturity Time from which dividend can be paid\n     * @param _expiry Time until dividend can no longer be paid, and can be reclaimed by issuer\n     * @param _excluded List of addresses to exclude\n     * @param _name Name/title for identification\n     */\n    function createDividendWithExclusions(\n        uint256 _maturity,\n        uint256 _expiry,\n        address[] memory _excluded,\n        bytes32 _name\n    )\n        public\n        payable\n        withPerm(ADMIN)\n    {\n        uint256 checkpointId = securityToken.createCheckpoint();\n        _createDividendWithCheckpointAndExclusions(_maturity, _expiry, checkpointId, _excluded, _name);\n    }\n\n    /**\n     * @notice Creates a dividend with a provided checkpoint, specifying explicit excluded addresses\n     * @param _maturity Time from which dividend can be paid\n     * @param _expiry Time until dividend can no longer be paid, and can be reclaimed by issuer\n     * @param _checkpointId Id of the checkpoint from which to issue dividend\n     * @param _excluded List of addresses to exclude\n     * @param _name Name/title for identification\n     */\n    function createDividendWithCheckpointAndExclusions(\n        uint256 _maturity,\n        uint256 _expiry,\n        uint256 _checkpointId,\n        address[] memory _excluded,\n        bytes32 _name\n    )\n        public\n        payable\n        withPerm(ADMIN)\n    {\n        _createDividendWithCheckpointAndExclusions(_maturity, _expiry, _checkpointId, _excluded, _name);\n    }\n\n    /**\n     * @notice Creates a dividend with a provided checkpoint, specifying explicit excluded addresses\n     * @param _maturity Time from which dividend can be paid\n     * @param _expiry Time until dividend can no longer be paid, and can be reclaimed by issuer\n     * @param _checkpointId Id of the checkpoint from which to issue dividend\n     * @param _excluded List of addresses to exclude\n     * @param _name Name/title for identification\n     */\n    function _createDividendWithCheckpointAndExclusions(\n        uint256 _maturity,\n        uint256 _expiry,\n        uint256 _checkpointId,\n        address[] memory _excluded,\n        bytes32 _name\n    )\n        internal\n    {\n        require(_excluded.length <= EXCLUDED_ADDRESS_LIMIT, \"Too many addresses excluded\");\n        require(_expiry > _maturity, \"Expiry is before maturity\");\n        /*solium-disable-next-line security/no-block-members*/\n        require(_expiry > now, \"Expiry is in the past\");\n        require(msg.value > 0, \"No dividend sent\");\n        require(_checkpointId <= securityToken.currentCheckpointId());\n        require(_name[0] != bytes32(0));\n        uint256 dividendIndex = dividends.length;\n        uint256 currentSupply = securityToken.totalSupplyAt(_checkpointId);\n        require(currentSupply > 0, \"Invalid supply\");\n        uint256 excludedSupply = 0;\n        dividends.push(\n            Dividend(\n                _checkpointId,\n                now, /*solium-disable-line security/no-block-members*/\n                _maturity,\n                _expiry,\n                msg.value,\n                0,\n                0,\n                false,\n                0,\n                0,\n                _name\n            )\n        );\n\n        for (uint256 j = 0; j < _excluded.length; j++) {\n            require(_excluded[j] != address(0), \"Invalid address\");\n            require(!dividends[dividendIndex].dividendExcluded[_excluded[j]], \"duped exclude address\");\n            excludedSupply = excludedSupply.add(securityToken.balanceOfAt(_excluded[j], _checkpointId));\n            dividends[dividendIndex].dividendExcluded[_excluded[j]] = true;\n        }\n        require(currentSupply > excludedSupply, \"Invalid supply\");\n        dividends[dividendIndex].totalSupply = currentSupply - excludedSupply;\n        /*solium-disable-next-line security/no-block-members*/\n        emit EtherDividendDeposited(msg.sender, _checkpointId, _maturity, _expiry, msg.value, currentSupply, dividendIndex, _name);\n    }\n\n    /**\n     * @notice Internal function for paying dividends\n     * @param _payee address of investor\n     * @param _dividend storage with previously issued dividends\n     * @param _dividendIndex Dividend to pay\n     */\n    function _payDividend(address payable _payee, Dividend storage _dividend, uint256 _dividendIndex) internal {\n        (uint256 claim, uint256 withheld) = calculateDividend(_dividendIndex, _payee);\n        _dividend.claimed[_payee] = true;\n        uint256 claimAfterWithheld = claim.sub(withheld);\n        /*solium-disable-next-line security/no-send*/\n        if (_payee.send(claimAfterWithheld)) {\n            _dividend.claimedAmount = _dividend.claimedAmount.add(claim);\n            if (withheld > 0) {\n                _dividend.totalWithheld = _dividend.totalWithheld.add(withheld);\n                _dividend.withheld[_payee] = withheld;\n            }\n            emit EtherDividendClaimed(_payee, _dividendIndex, claim, withheld);\n        } else {\n            _dividend.claimed[_payee] = false;\n            emit EtherDividendClaimFailed(_payee, _dividendIndex, claim, withheld);\n        }\n    }\n\n    /**\n     * @notice Issuer can reclaim remaining unclaimed dividend amounts, for expired dividends\n     * @param _dividendIndex Dividend to reclaim\n     */\n    function reclaimDividend(uint256 _dividendIndex) external withPerm(OPERATOR) {\n        require(_dividendIndex < dividends.length, \"Incorrect dividend index\");\n        /*solium-disable-next-line security/no-block-members*/\n        require(now >= dividends[_dividendIndex].expiry, \"Dividend expiry is in the future\");\n        require(!dividends[_dividendIndex].reclaimed, \"Dividend is already claimed\");\n        Dividend storage dividend = dividends[_dividendIndex];\n        dividend.reclaimed = true;\n        uint256 remainingAmount = dividend.amount.sub(dividend.claimedAmount);\n        address payable wallet = getTreasuryWallet();\n        wallet.transfer(remainingAmount);\n        emit EtherDividendReclaimed(wallet, _dividendIndex, remainingAmount);\n    }\n\n    /**\n     * @notice Allows issuer to withdraw withheld tax\n     * @param _dividendIndex Dividend to withdraw from\n     */\n    function withdrawWithholding(uint256 _dividendIndex) external withPerm(OPERATOR) {\n        require(_dividendIndex < dividends.length, \"Incorrect dividend index\");\n        Dividend storage dividend = dividends[_dividendIndex];\n        uint256 remainingWithheld = dividend.totalWithheld.sub(dividend.totalWithheldWithdrawn);\n        dividend.totalWithheldWithdrawn = dividend.totalWithheld;\n        address payable wallet = getTreasuryWallet();\n        wallet.transfer(remainingWithheld);\n        emit EtherDividendWithholdingWithdrawn(wallet, _dividendIndex, remainingWithheld);\n    }\n\n}\n",
  "sourcePath": "/Users/federicoelgarte/Polymath/polymath-core/contracts/modules/Checkpoint/Dividend/Ether/EtherDividendCheckpoint.sol",
  "compiler": {
    "name": "solc",
    "version": "0.5.8+commit.23d335f2.Emscripten.clang"
  },
  "schemaVersion": "3.0.2",
  "updatedAt": "2019-07-19T14:56:31.222Z",
  "devdoc": {
    "methods": {
      "calculateDividend(uint256,address)": {
        "params": {
          "_dividendIndex": "Dividend to calculate",
          "_payee": "Affected investor address"
        },
        "return": "claim, withheld amounts"
      },
      "changeWallet(address)": {
        "params": {
          "_wallet": "Ethereum account address to receive reclaimed dividends and tax"
        }
      },
      "configure(address)": {
        "params": {
          "_wallet": "Ethereum account address to receive reclaimed dividends and tax"
        }
      },
      "constructor": {
        "params": {
          "_securityToken": "Address of the security token"
        }
      },
      "createCheckpoint()": {
        "return": "Checkpoint ID"
      },
      "createDividend(uint256,uint256,bytes32)": {
        "params": {
          "_expiry": "Time until dividend can no longer be paid, and can be reclaimed by issuer",
          "_maturity": "Time from which dividend can be paid",
          "_name": "Name/title for identification"
        }
      },
      "createDividendWithCheckpoint(uint256,uint256,uint256,bytes32)": {
        "params": {
          "_checkpointId": "Id of the checkpoint from which to issue dividend",
          "_expiry": "Time until dividend can no longer be paid, and can be reclaimed by issuer",
          "_maturity": "Time from which dividend can be paid",
          "_name": "Name/title for identification"
        }
      },
      "createDividendWithCheckpointAndExclusions(uint256,uint256,uint256,address[],bytes32)": {
        "params": {
          "_checkpointId": "Id of the checkpoint from which to issue dividend",
          "_excluded": "List of addresses to exclude",
          "_expiry": "Time until dividend can no longer be paid, and can be reclaimed by issuer",
          "_maturity": "Time from which dividend can be paid",
          "_name": "Name/title for identification"
        }
      },
      "createDividendWithExclusions(uint256,uint256,address[],bytes32)": {
        "params": {
          "_excluded": "List of addresses to exclude",
          "_expiry": "Time until dividend can no longer be paid, and can be reclaimed by issuer",
          "_maturity": "Time from which dividend can be paid",
          "_name": "Name/title for identification"
        }
      },
      "getCheckpointData(uint256)": {
        "params": {
          "_checkpointId": "Checkpoint Id to query for"
        },
        "return": "address[] list of investorsuint256[] investor balancesuint256[] investor withheld percentages"
      },
      "getDefaultExcluded()": {
        "return": "List of excluded addresses"
      },
      "getDividendData(uint256)": {
        "return": "uint256 timestamp of dividend creationuint256 timestamp of dividend maturityuint256 timestamp of dividend expiryuint256 amount of dividenduint256 claimed amount of dividendbytes32 name of dividend"
      },
      "getDividendIndex(uint256)": {
        "params": {
          "_checkpointId": "Checkpoint id to query"
        },
        "return": "uint256[]"
      },
      "getDividendProgress(uint256)": {
        "params": {
          "_dividendIndex": "Dividend to withdraw from"
        },
        "return": "address[] list of investorsbool[] whether investor has claimedbool[] whether investor is excludeduint256[] amount of withheld tax (estimate if not claimed)uint256[] amount of claim (estimate if not claimeed)uint256[] investor balance"
      },
      "getDividendsData()": {
        "return": "uint256[] timestamp of dividends creationuint256[] timestamp of dividends maturityuint256[] timestamp of dividends expiryuint256[] amount of dividendsuint256[] claimed amount of dividendsbytes32[] name of dividends"
      },
      "getInitFunction()": {
        "return": "bytes4"
      },
      "getPermissions()": {
        "return": "bytes32 array"
      },
      "isClaimed(address,uint256)": {
        "params": {
          "_dividendIndex": "Dividend to withdraw from"
        },
        "return": "bool whether the address has claimed"
      },
      "isExcluded(address,uint256)": {
        "params": {
          "_dividendIndex": "Dividend to withdraw from"
        },
        "return": "bool whether the address is excluded"
      },
      "pullDividendPayment(uint256)": {
        "params": {
          "_dividendIndex": "Dividend to pull"
        }
      },
      "pushDividendPayment(uint256,uint256,uint256)": {
        "params": {
          "_dividendIndex": "Dividend to push",
          "_end": "Index in investor list at which to stop pushing dividends",
          "_start": "Index in investor list at which to start pushing dividends"
        }
      },
      "pushDividendPaymentToAddresses(uint256,address[])": {
        "params": {
          "_dividendIndex": "Dividend to push",
          "_payees": "Addresses to which to push the dividend"
        }
      },
      "reclaimDividend(uint256)": {
        "params": {
          "_dividendIndex": "Dividend to reclaim"
        }
      },
      "reclaimERC20(address)": {
        "details": "We duplicate here due to the overriden owner & onlyOwner",
        "params": {
          "_tokenContract": "The address of the token contract"
        }
      },
      "reclaimETH()": {
        "details": "We duplicate here due to the overriden owner & onlyOwner"
      },
      "setDefaultExcluded(address[])": {
        "params": {
          "_excluded": "Addresses of investors"
        }
      },
      "setWithholding(address[],uint256[])": {
        "params": {
          "_investors": "Addresses of investors",
          "_withholding": "Withholding tax for individual investors (multiplied by 10**16)"
        }
      },
      "setWithholdingFixed(address[],uint256)": {
        "params": {
          "_investors": "Addresses of investor",
          "_withholding": "Withholding tax for all investors (multiplied by 10**16)"
        }
      },
      "updateDividendDates(uint256,uint256,uint256)": {
        "details": "NB - setting the maturity of a currently matured dividend to a future datewill effectively refreeze claims on that dividend until the new maturity date passes dev NB - setting the expiry date to a past date will mean no more payments can be pulledor pushed out of a dividend",
        "params": {
          "_dividendIndex": "Dividend to withdraw from",
          "_expiry": "updated expiry date",
          "_maturity": "updated maturity date"
        }
      },
      "withdrawWithholding(uint256)": {
        "params": {
          "_dividendIndex": "Dividend to withdraw from"
        }
      }
    },
    "title": "Checkpoint module for issuing ether dividends"
  },
  "userdoc": {
    "methods": {
      "calculateDividend(uint256,address)": {
        "notice": "Calculate amount of dividends claimable"
      },
      "changeWallet(address)": {
        "notice": "Function used to change wallet address"
      },
      "configure(address)": {
        "notice": "Function used to intialize the contract variables"
      },
      "constructor": "Constructor",
      "createCheckpoint()": {
        "notice": "Creates a checkpoint on the security token"
      },
      "createDividend(uint256,uint256,bytes32)": {
        "notice": "Creates a dividend and checkpoint for the dividend, using global list of excluded addresses"
      },
      "createDividendWithCheckpoint(uint256,uint256,uint256,bytes32)": {
        "notice": "Creates a dividend with a provided checkpoint, using global list of excluded addresses"
      },
      "createDividendWithCheckpointAndExclusions(uint256,uint256,uint256,address[],bytes32)": {
        "notice": "Creates a dividend with a provided checkpoint, specifying explicit excluded addresses"
      },
      "createDividendWithExclusions(uint256,uint256,address[],bytes32)": {
        "notice": "Creates a dividend and checkpoint for the dividend, specifying explicit excluded addresses"
      },
      "getCheckpointData(uint256)": {
        "notice": "Retrieves list of investors, their balances, and their current withholding tax percentage"
      },
      "getDataStore()": {
        "notice": "used to return the data store address of securityToken"
      },
      "getDefaultExcluded()": {
        "notice": "Return the default excluded addresses"
      },
      "getDividendData(uint256)": {
        "notice": "Get static dividend data"
      },
      "getDividendIndex(uint256)": {
        "notice": "Get the index according to the checkpoint id"
      },
      "getDividendProgress(uint256)": {
        "notice": "Retrieves list of investors, their claim status and whether they are excluded"
      },
      "getDividendsData()": {
        "notice": "Get static dividend data"
      },
      "getInitFunction()": {
        "notice": "Init function i.e generalise function to maintain the structure of the module contract"
      },
      "getPermissions()": {
        "notice": "Return the permissions flag that are associated with this module"
      },
      "getTreasuryWallet()": {
        "notice": "Returns the treasury wallet address"
      },
      "isClaimed(address,uint256)": {
        "notice": "Checks whether an address has claimed a dividend"
      },
      "isExcluded(address,uint256)": {
        "notice": "Checks whether an address is excluded from claiming a dividend"
      },
      "pause()": {
        "notice": "Pause (overridden function)"
      },
      "pullDividendPayment(uint256)": {
        "notice": "Investors can pull their own dividends"
      },
      "pushDividendPayment(uint256,uint256,uint256)": {
        "notice": "Issuer can push dividends using the investor list from the security token"
      },
      "pushDividendPaymentToAddresses(uint256,address[])": {
        "notice": "Issuer can push dividends to provided addresses"
      },
      "reclaimDividend(uint256)": {
        "notice": "Issuer can reclaim remaining unclaimed dividend amounts, for expired dividends"
      },
      "reclaimERC20(address)": {
        "notice": "Reclaims ERC20Basic compatible tokens"
      },
      "reclaimETH()": {
        "notice": "Reclaims ETH"
      },
      "setDefaultExcluded(address[])": {
        "notice": "Function to clear and set list of excluded addresses used for future dividends"
      },
      "setWithholding(address[],uint256[])": {
        "notice": "Function to set withholding tax rates for investors"
      },
      "setWithholdingFixed(address[],uint256)": {
        "notice": "Function to set withholding tax rates for investors"
      },
      "unpause()": {
        "notice": "Unpause (overridden function)"
      },
      "updateDividendDates(uint256,uint256,uint256)": {
        "notice": "Allows issuer to change maturity / expiry dates for dividends"
      },
      "withdrawWithholding(uint256)": {
        "notice": "Allows issuer to withdraw withheld tax"
      }
    }
  }
}