{
  "contractName": "FeatureRegistry",
  "abi": [
    {
      "constant": false,
      "inputs": [],
      "name": "renounceOwnership",
      "outputs": [],
      "payable": false,
      "stateMutability": "nonpayable",
      "type": "function",
      "signature": "0x715018a6"
    },
    {
      "constant": false,
      "inputs": [
        {
          "name": "_tokenContract",
          "type": "address"
        }
      ],
      "name": "reclaimERC20",
      "outputs": [],
      "payable": false,
      "stateMutability": "nonpayable",
      "type": "function",
      "signature": "0x8905fd4f"
    },
    {
      "constant": true,
      "inputs": [],
      "name": "owner",
      "outputs": [
        {
          "name": "",
          "type": "address"
        }
      ],
      "payable": false,
      "stateMutability": "view",
      "type": "function",
      "signature": "0x8da5cb5b"
    },
    {
      "constant": true,
      "inputs": [],
      "name": "isOwner",
      "outputs": [
        {
          "name": "",
          "type": "bool"
        }
      ],
      "payable": false,
      "stateMutability": "view",
      "type": "function",
      "signature": "0x8f32d59b"
    },
    {
      "constant": true,
      "inputs": [
        {
          "name": "",
          "type": "bytes32"
        }
      ],
      "name": "featureStatus",
      "outputs": [
        {
          "name": "",
          "type": "bool"
        }
      ],
      "payable": false,
      "stateMutability": "view",
      "type": "function",
      "signature": "0xe43c4083"
    },
    {
      "constant": false,
      "inputs": [
        {
          "name": "newOwner",
          "type": "address"
        }
      ],
      "name": "transferOwnership",
      "outputs": [],
      "payable": false,
      "stateMutability": "nonpayable",
      "type": "function",
      "signature": "0xf2fde38b"
    },
    {
      "anonymous": false,
      "inputs": [
        {
          "indexed": true,
          "name": "previousOwner",
          "type": "address"
        },
        {
          "indexed": true,
          "name": "newOwner",
          "type": "address"
        }
      ],
      "name": "OwnershipTransferred",
      "type": "event",
      "signature": "0x8be0079c531659141344cd1fd0a4f28419497f9722a3daafe3b4186f6b6457e0"
    },
    {
      "anonymous": false,
      "inputs": [
        {
          "indexed": false,
          "name": "_nameKey",
          "type": "string"
        },
        {
          "indexed": false,
          "name": "_newStatus",
          "type": "bool"
        }
      ],
      "name": "ChangeFeatureStatus",
      "type": "event",
      "signature": "0xc4f204a5636d7eb3ef39174170beec580582233e28bc6c20a7458fd3209d08b8"
    },
    {
      "constant": true,
      "inputs": [
        {
          "name": "_nameKey",
          "type": "string"
        }
      ],
      "name": "getFeatureStatus",
      "outputs": [
        {
          "name": "",
          "type": "bool"
        }
      ],
      "payable": false,
      "stateMutability": "view",
      "type": "function",
      "signature": "0x2f0019f2"
    },
    {
      "constant": false,
      "inputs": [
        {
          "name": "_nameKey",
          "type": "string"
        },
        {
          "name": "_newStatus",
          "type": "bool"
        }
      ],
      "name": "setFeatureStatus",
      "outputs": [],
      "payable": false,
      "stateMutability": "nonpayable",
      "type": "function",
      "signature": "0xf2983257"
    }
  ],
  "bytecode": "0x6080604081905260008054600160a060020a0319163317808255600160a060020a0316917f8be0079c531659141344cd1fd0a4f28419497f9722a3daafe3b4186f6b6457e0908290a3610756806100576000396000f3fe608060405234801561001057600080fd5b50600436106100a5576000357c0100000000000000000000000000000000000000000000000000000000900480638f32d59b116100785780638f32d59b14610182578063e43c40831461018a578063f2983257146101a7578063f2fde38b14610219576100a5565b80632f0019f2146100aa578063715018a61461012e5780638905fd4f146101385780638da5cb5b1461015e575b600080fd5b61011a600480360360208110156100c057600080fd5b8101906020810181356401000000008111156100db57600080fd5b8201836020820111156100ed57600080fd5b8035906020019184600183028401116401000000008311171561010f57600080fd5b50909250905061023f565b604080519115158252519081900360200190f35b610136610279565b005b6101366004803603602081101561014e57600080fd5b5035600160a060020a03166102e1565b610166610518565b60408051600160a060020a039092168252519081900360200190f35b61011a610527565b61011a600480360360208110156101a057600080fd5b5035610538565b610136600480360360408110156101bd57600080fd5b8101906020810181356401000000008111156101d857600080fd5b8201836020820111156101ea57600080fd5b8035906020019184600183028401116401000000008311171561020c57600080fd5b919350915035151561054d565b6101366004803603602081101561022f57600080fd5b5035600160a060020a0316610692565b6000808383604051808383808284376040805191909301819003902060009081526001602052919091205460ff1698975050505050505050565b610281610527565b61028a57600080fd5b60008054604051600160a060020a03909116907f8be0079c531659141344cd1fd0a4f28419497f9722a3daafe3b4186f6b6457e0908390a36000805473ffffffffffffffffffffffffffffffffffffffff19169055565b6102e9610527565b6102f257600080fd5b600160a060020a03811661036757604080517f08c379a000000000000000000000000000000000000000000000000000000000815260206004820152600f60248201527f496e76616c696420616464726573730000000000000000000000000000000000604482015290519081900360640190fd5b604080517f70a0823100000000000000000000000000000000000000000000000000000000815230600482015290518291600091600160a060020a038416916370a08231916024808301926020929190829003018186803b1580156103cb57600080fd5b505afa1580156103df573d6000803e3d6000fd5b505050506040513d60208110156103f557600080fd5b50519050600160a060020a03821663a9059cbb610410610518565b836040518363ffffffff167c01000000000000000000000000000000000000000000000000000000000281526004018083600160a060020a0316600160a060020a0316815260200182815260200192505050602060405180830381600087803b15801561047c57600080fd5b505af1158015610490573d6000803e3d6000fd5b505050506040513d60208110156104a657600080fd5b505161051357604080517f08c379a000000000000000000000000000000000000000000000000000000000815260206004820152600f60248201527f5472616e73666572206661696c65640000000000000000000000000000000000604482015290519081900360640190fd5b505050565b600054600160a060020a031690565b600054600160a060020a0316331490565b60016020526000908152604090205460ff1681565b610555610527565b61055e57600080fd5b600083836040518083838082843760408051939091018390039092206000818152600160205292909220549195505060ff1615158515151415925061060791505057604080517f08c379a000000000000000000000000000000000000000000000000000000000815260206004820152601060248201527f53746174757320756e6368616e67656400000000000000000000000000000000604482015290519081900360640190fd5b6040805183151560208201528181529081018490527fc4f204a5636d7eb3ef39174170beec580582233e28bc6c20a7458fd3209d08b8908590859085908060608101858580828437600083820152604051601f909101601f1916909201829003965090945050505050a16000908152600160205260409020805460ff19169115159190911790555050565b61069a610527565b6106a357600080fd5b6106ac816106af565b50565b600160a060020a0381166106c257600080fd5b60008054604051600160a060020a03808516939216917f8be0079c531659141344cd1fd0a4f28419497f9722a3daafe3b4186f6b6457e091a36000805473ffffffffffffffffffffffffffffffffffffffff1916600160a060020a039290921691909117905556fea165627a7a723058205eb7a1f80b5e46d73c412d3c0bb076b03648f9ba7d97fbd3caa15923e874a69d0029",
  "source": "pragma solidity 0.5.8;\n\nimport \"./ReclaimTokens.sol\";\nimport \"./interfaces/IFeatureRegistry.sol\";\n\n/**\n * @title Registry for managing polymath feature switches\n */\ncontract FeatureRegistry is IFeatureRegistry, ReclaimTokens {\n    mapping(bytes32 => bool) public featureStatus;\n\n    /**\n     * @notice Get the status of a feature\n     * @param _nameKey is the key for the feature status mapping\n     * @return bool\n     */\n    function getFeatureStatus(string calldata _nameKey) external view returns(bool) {\n        bytes32 key = keccak256(bytes(_nameKey));\n        return featureStatus[key];\n    }\n\n    /**\n     * @notice change a feature status\n     * @dev feature status is set to false by default\n     * @param _nameKey is the key for the feature status mapping\n     * @param _newStatus is the new feature status\n     */\n    function setFeatureStatus(string calldata _nameKey, bool _newStatus) external onlyOwner {\n        bytes32 key = keccak256(bytes(_nameKey));\n        require(featureStatus[key] != _newStatus, \"Status unchanged\");\n        emit ChangeFeatureStatus(_nameKey, _newStatus);\n        featureStatus[key] = _newStatus;\n    }\n\n}\n",
  "sourcePath": "/Users/federicoelgarte/Polymath/polymath-core/contracts/FeatureRegistry.sol",
  "compiler": {
    "name": "solc",
    "version": "0.5.8+commit.23d335f2.Emscripten.clang"
  },
  "schemaVersion": "3.0.2",
  "updatedAt": "2019-07-19T14:56:31.143Z",
  "devdoc": {
    "methods": {
      "getFeatureStatus(string)": {
        "params": {
          "_nameKey": "is the key for the feature status mapping"
        },
        "return": "bool"
      },
      "isOwner()": {
        "return": "true if `msg.sender` is the owner of the contract."
      },
      "owner()": {
        "return": "the address of the owner."
      },
      "reclaimERC20(address)": {
        "params": {
          "_tokenContract": "The address of the token contract"
        }
      },
      "renounceOwnership()": {
        "details": "Allows the current owner to relinquish control of the contract. It will not be possible to call the functions with the `onlyOwner` modifier anymore."
      },
      "setFeatureStatus(string,bool)": {
        "details": "feature status is set to false by default",
        "params": {
          "_nameKey": "is the key for the feature status mapping",
          "_newStatus": "is the new feature status"
        }
      },
      "transferOwnership(address)": {
        "details": "Allows the current owner to transfer control of the contract to a newOwner.",
        "params": {
          "newOwner": "The address to transfer ownership to."
        }
      }
    },
    "title": "Registry for managing polymath feature switches"
  },
  "userdoc": {
    "methods": {
      "getFeatureStatus(string)": {
        "notice": "Get the status of a feature"
      },
      "reclaimERC20(address)": {
        "notice": "Reclaim all ERC20Basic compatible tokens"
      },
      "renounceOwnership()": {
        "notice": "Renouncing ownership will leave the contract without an owner, thereby removing any functionality that is only available to the owner."
      },
      "setFeatureStatus(string,bool)": {
        "notice": "change a feature status"
      }
    }
  }
}