{
  "contractName": "GeneralPermissionManager",
  "abi": [
    {
      "constant": false,
      "inputs": [],
      "name": "reclaimETH",
      "outputs": [],
      "payable": false,
      "stateMutability": "nonpayable",
      "type": "function"
    },
    {
      "constant": true,
      "inputs": [],
      "name": "ADMIN",
      "outputs": [
        {
          "name": "",
          "type": "bytes32"
        }
      ],
      "payable": false,
      "stateMutability": "view",
      "type": "function"
    },
    {
      "constant": false,
      "inputs": [],
      "name": "unpause",
      "outputs": [],
      "payable": false,
      "stateMutability": "nonpayable",
      "type": "function"
    },
    {
      "constant": true,
      "inputs": [
        {
          "name": "",
          "type": "address"
        },
        {
          "name": "",
          "type": "address"
        },
        {
          "name": "",
          "type": "bytes32"
        }
      ],
      "name": "perms",
      "outputs": [
        {
          "name": "",
          "type": "bool"
        }
      ],
      "payable": false,
      "stateMutability": "view",
      "type": "function"
    },
    {
      "constant": true,
      "inputs": [],
      "name": "paused",
      "outputs": [
        {
          "name": "",
          "type": "bool"
        }
      ],
      "payable": false,
      "stateMutability": "view",
      "type": "function"
    },
    {
      "constant": true,
      "inputs": [],
      "name": "polyToken",
      "outputs": [
        {
          "name": "",
          "type": "address"
        }
      ],
      "payable": false,
      "stateMutability": "view",
      "type": "function"
    },
    {
      "constant": false,
      "inputs": [],
      "name": "pause",
      "outputs": [],
      "payable": false,
      "stateMutability": "nonpayable",
      "type": "function"
    },
    {
      "constant": false,
      "inputs": [
        {
          "name": "_tokenContract",
          "type": "address"
        }
      ],
      "name": "reclaimERC20",
      "outputs": [],
      "payable": false,
      "stateMutability": "nonpayable",
      "type": "function"
    },
    {
      "constant": true,
      "inputs": [
        {
          "name": "",
          "type": "uint256"
        }
      ],
      "name": "allDelegates",
      "outputs": [
        {
          "name": "",
          "type": "address"
        }
      ],
      "payable": false,
      "stateMutability": "view",
      "type": "function"
    },
    {
      "constant": true,
      "inputs": [],
      "name": "OPERATOR",
      "outputs": [
        {
          "name": "",
          "type": "bytes32"
        }
      ],
      "payable": false,
      "stateMutability": "view",
      "type": "function"
    },
    {
      "constant": true,
      "inputs": [],
      "name": "securityToken",
      "outputs": [
        {
          "name": "",
          "type": "address"
        }
      ],
      "payable": false,
      "stateMutability": "view",
      "type": "function"
    },
    {
      "constant": true,
      "inputs": [],
      "name": "factory",
      "outputs": [
        {
          "name": "",
          "type": "address"
        }
      ],
      "payable": false,
      "stateMutability": "view",
      "type": "function"
    },
    {
      "constant": true,
      "inputs": [
        {
          "name": "",
          "type": "address"
        }
      ],
      "name": "delegateDetails",
      "outputs": [
        {
          "name": "",
          "type": "bytes32"
        }
      ],
      "payable": false,
      "stateMutability": "view",
      "type": "function"
    },
    {
      "constant": true,
      "inputs": [],
      "name": "getDataStore",
      "outputs": [
        {
          "name": "",
          "type": "address"
        }
      ],
      "payable": false,
      "stateMutability": "view",
      "type": "function"
    },
    {
      "inputs": [
        {
          "name": "_securityToken",
          "type": "address"
        },
        {
          "name": "_polyToken",
          "type": "address"
        }
      ],
      "payable": false,
      "stateMutability": "nonpayable",
      "type": "constructor"
    },
    {
      "anonymous": false,
      "inputs": [
        {
          "indexed": true,
          "name": "_delegate",
          "type": "address"
        },
        {
          "indexed": false,
          "name": "_module",
          "type": "address"
        },
        {
          "indexed": false,
          "name": "_perm",
          "type": "bytes32"
        },
        {
          "indexed": false,
          "name": "_valid",
          "type": "bool"
        }
      ],
      "name": "ChangePermission",
      "type": "event"
    },
    {
      "anonymous": false,
      "inputs": [
        {
          "indexed": true,
          "name": "_delegate",
          "type": "address"
        },
        {
          "indexed": false,
          "name": "_details",
          "type": "bytes32"
        }
      ],
      "name": "AddDelegate",
      "type": "event"
    },
    {
      "anonymous": false,
      "inputs": [
        {
          "indexed": false,
          "name": "account",
          "type": "address"
        }
      ],
      "name": "Pause",
      "type": "event"
    },
    {
      "anonymous": false,
      "inputs": [
        {
          "indexed": false,
          "name": "account",
          "type": "address"
        }
      ],
      "name": "Unpause",
      "type": "event"
    },
    {
      "constant": true,
      "inputs": [],
      "name": "getInitFunction",
      "outputs": [
        {
          "name": "",
          "type": "bytes4"
        }
      ],
      "payable": false,
      "stateMutability": "pure",
      "type": "function"
    },
    {
      "constant": true,
      "inputs": [
        {
          "name": "_delegate",
          "type": "address"
        },
        {
          "name": "_module",
          "type": "address"
        },
        {
          "name": "_perm",
          "type": "bytes32"
        }
      ],
      "name": "checkPermission",
      "outputs": [
        {
          "name": "",
          "type": "bool"
        }
      ],
      "payable": false,
      "stateMutability": "view",
      "type": "function"
    },
    {
      "constant": false,
      "inputs": [
        {
          "name": "_delegate",
          "type": "address"
        },
        {
          "name": "_details",
          "type": "bytes32"
        }
      ],
      "name": "addDelegate",
      "outputs": [],
      "payable": false,
      "stateMutability": "nonpayable",
      "type": "function"
    },
    {
      "constant": false,
      "inputs": [
        {
          "name": "_delegate",
          "type": "address"
        }
      ],
      "name": "deleteDelegate",
      "outputs": [],
      "payable": false,
      "stateMutability": "nonpayable",
      "type": "function"
    },
    {
      "constant": true,
      "inputs": [
        {
          "name": "_potentialDelegate",
          "type": "address"
        }
      ],
      "name": "checkDelegate",
      "outputs": [
        {
          "name": "",
          "type": "bool"
        }
      ],
      "payable": false,
      "stateMutability": "view",
      "type": "function"
    },
    {
      "constant": false,
      "inputs": [
        {
          "name": "_delegate",
          "type": "address"
        },
        {
          "name": "_module",
          "type": "address"
        },
        {
          "name": "_perm",
          "type": "bytes32"
        },
        {
          "name": "_valid",
          "type": "bool"
        }
      ],
      "name": "changePermission",
      "outputs": [],
      "payable": false,
      "stateMutability": "nonpayable",
      "type": "function"
    },
    {
      "constant": false,
      "inputs": [
        {
          "name": "_delegate",
          "type": "address"
        },
        {
          "name": "_modules",
          "type": "address[]"
        },
        {
          "name": "_perms",
          "type": "bytes32[]"
        },
        {
          "name": "_valids",
          "type": "bool[]"
        }
      ],
      "name": "changePermissionMulti",
      "outputs": [],
      "payable": false,
      "stateMutability": "nonpayable",
      "type": "function"
    },
    {
      "constant": true,
      "inputs": [
        {
          "name": "_module",
          "type": "address"
        },
        {
          "name": "_perm",
          "type": "bytes32"
        }
      ],
      "name": "getAllDelegatesWithPerm",
      "outputs": [
        {
          "name": "",
          "type": "address[]"
        }
      ],
      "payable": false,
      "stateMutability": "view",
      "type": "function"
    },
    {
      "constant": true,
      "inputs": [
        {
          "name": "_delegate",
          "type": "address"
        },
        {
          "name": "_types",
          "type": "uint8[]"
        }
      ],
      "name": "getAllModulesAndPermsFromTypes",
      "outputs": [
        {
          "name": "",
          "type": "address[]"
        },
        {
          "name": "",
          "type": "bytes32[]"
        }
      ],
      "payable": false,
      "stateMutability": "view",
      "type": "function"
    },
    {
      "constant": true,
      "inputs": [],
      "name": "getAllDelegates",
      "outputs": [
        {
          "name": "",
          "type": "address[]"
        }
      ],
      "payable": false,
      "stateMutability": "view",
      "type": "function"
    },
    {
      "constant": true,
      "inputs": [],
      "name": "getPermissions",
      "outputs": [
        {
          "name": "",
          "type": "bytes32[]"
        }
      ],
      "payable": false,
      "stateMutability": "view",
      "type": "function"
    }
  ],
  "bytecode": "0x608060405260058054600160a01b60ff021916905534801561002057600080fd5b50604051604080611eb58339810180604052604081101561004057600080fd5b508051602090910151600480546001600160a01b039384166001600160a01b0319918216179091556003805482163317905560058054939092169216919091179055611e24806100916000396000f3fe608060405234801561001057600080fd5b50600436106101735760003560e01c80638456cb59116100de5780639cdae4ee11610097578063c45a015511610071578063c45a0155146106a0578063dec7542f146106a8578063e380d343146106e6578063fe58265e1461070c57610173565b80639cdae4ee14610664578063b84dfbd214610690578063c3a07df61461069857610173565b80638456cb59146105af5780638658b8b9146105b7578063885a4860146105ed5780638905fd4f14610619578063947dd6e51461063f578063983d27371461065c57610173565b80634e0a4792116101305780634e0a4792146104955780635c975abb146104df57806362c90dc5146104e75780636faa22a51461050d57806371890352146105315780637a4f37641461055757610173565b80630f144a48146101785780631613ec9d146101825780632a0acc6a146101a75780632ec0508d146101c15780633a15f181146103765780633f4ba83a1461048d575b600080fd5b610180610714565b005b61018a61074c565b604080516001600160e01b03199092168252519081900360200190f35b6101af610752565b60408051918252519081900360200190f35b610180600480360360808110156101d757600080fd5b6001600160a01b038235169190810190604081016020820135600160201b81111561020157600080fd5b82018360208201111561021357600080fd5b803590602001918460208302840111600160201b8311171561023457600080fd5b9190808060200260200160405190810160405280939291908181526020018383602002808284376000920191909152509295949360208101935035915050600160201b81111561028357600080fd5b82018360208201111561029557600080fd5b803590602001918460208302840111600160201b831117156102b657600080fd5b9190808060200260200160405190810160405280939291908181526020018383602002808284376000920191909152509295949360208101935035915050600160201b81111561030557600080fd5b82018360208201111561031757600080fd5b803590602001918460208302840111600160201b8311171561033857600080fd5b919080806020026020016040519081016040528093929190818152602001838360200280828437600092019190915250929550610761945050505050565b6103f46004803603604081101561038c57600080fd5b6001600160a01b038235169190810190604081016020820135600160201b8111156103b657600080fd5b8201836020820111156103c857600080fd5b803590602001918460208302840111600160201b831117156103e957600080fd5b509092509050610936565b604051808060200180602001838103835285818151815260200191508051906020019060200280838360005b83811015610438578181015183820152602001610420565b50505050905001838103825284818151815260200191508051906020019060200280838360005b8381101561047757818101518382015260200161045f565b5050505090500194505050505060405180910390f35b610180610f4b565b6104cb600480360360608110156104ab57600080fd5b506001600160a01b03813581169160208101359091169060400135610f5d565b604080519115158252519081900360200190f35b6104cb610f82565b6104cb600480360360208110156104fd57600080fd5b50356001600160a01b0316610f92565b610515611016565b604080516001600160a01b039092168252519081900360200190f35b6101806004803603602081101561054757600080fd5b50356001600160a01b0316611025565b61055f6111d1565b60408051602080825283518183015283519192839290830191858101910280838360005b8381101561059b578181015183820152602001610583565b505050509050019250505060405180910390f35b610180611233565b6104cb600480360360608110156105cd57600080fd5b506001600160a01b03813581169160208101359091169060400135611243565b61055f6004803603604081101561060357600080fd5b506001600160a01b0381351690602001356112a1565b6101806004803603602081101561062f57600080fd5b50356001600160a01b031661142e565b6105156004803603602081101561065557600080fd5b50356115de565b6101af611605565b6101806004803603604081101561067a57600080fd5b506001600160a01b038135169060200135611617565b610515611823565b61055f611832565b610515611880565b610180600480360360808110156106be57600080fd5b506001600160a01b03813581169160208101359091169060408101359060600135151561188f565b6101af600480360360208110156106fc57600080fd5b50356001600160a01b0316611957565b610515611969565b61071c6119ea565b6040513390303180156108fc02916000818181858888f19350505050158015610749573d6000803e3d6000fd5b50565b60005b90565b600160d91b6420a226a4a70281565b600160d91b6420a226a4a7026107778133611aba565b6107c35760408051600160e51b62461bcd0281526020600482015260126024820152600160711b7124b73b30b634b2103832b936b4b9b9b4b7b702604482015290519081900360640190fd5b6001600160a01b0385166108165760408051600160e51b62461bcd02815260206004820152600f6024820152600160881b6e696e76616c6964206164647265737302604482015290519081900360640190fd5b600084511161086f5760408051600160e51b62461bcd02815260206004820152601760248201527f30206c656e677468206973206e6f7420616c6c6f776564000000000000000000604482015290519081900360640190fd5b82518451148015610881575082518251145b6108d55760408051600160e51b62461bcd02815260206004820152601560248201527f4172726179206c656e677468206d69736d617463680000000000000000000000604482015290519081900360640190fd5b60005b835181101561092e57610926868683815181106108f157fe5b602002602001015186848151811061090557fe5b602002602001015186858151811061091957fe5b6020026020010151611be9565b6001016108d8565b505050505050565b6060806000805b84811015610bd5576004546060906001600160a01b031663ac90b42288888581811061096557fe5b9050602002013560ff166040518263ffffffff1660e01b8152600401808260ff1660ff16815260200191505060006040518083038186803b1580156109a957600080fd5b505afa1580156109bd573d6000803e3d6000fd5b505050506040513d6000823e601f3d908101601f1916820160405260208110156109e657600080fd5b810190808051600160201b8111156109fd57600080fd5b82016020810184811115610a1057600080fd5b81518560208202830111600160201b82111715610a2c57600080fd5b50909450600093505050505b8151811015610bcb576060828281518110610a4f57fe5b60200260200101516001600160a01b031663c3a07df66040518163ffffffff1660e01b815260040160006040518083038186803b158015610a8f57600080fd5b505afa158015610aa3573d6000803e3d6000fd5b505050506040513d6000823e601f3d908101601f191682016040526020811015610acc57600080fd5b810190808051600160201b811115610ae357600080fd5b82016020810184811115610af657600080fd5b81518560208202830111600160201b82111715610b1257600080fd5b50909450600093505050505b8151811015610bc157600080858581518110610b3657fe5b60200260200101516001600160a01b03166001600160a01b0316815260200190815260200160002060008c6001600160a01b03166001600160a01b031681526020019081526020016000206000838381518110610b8f57fe5b60209081029190910181015182528101919091526040016000205460ff1615610bb9576001909501945b600101610b1e565b5050600101610a38565b505060010161093d565b50606081604051908082528060200260200182016040528015610c02578160200160208202803883390190505b509050606082604051908082528060200260200182016040528015610c31578160200160208202803883390190505b50600093509050825b86811015610f3d576004546060906001600160a01b031663ac90b4228a8a85818110610c6257fe5b9050602002013560ff166040518263ffffffff1660e01b8152600401808260ff1660ff16815260200191505060006040518083038186803b158015610ca657600080fd5b505afa158015610cba573d6000803e3d6000fd5b505050506040513d6000823e601f3d908101601f191682016040526020811015610ce357600080fd5b810190808051600160201b811115610cfa57600080fd5b82016020810184811115610d0d57600080fd5b81518560208202830111600160201b82111715610d2957600080fd5b50909450600093505050505b8151811015610f33576060828281518110610d4c57fe5b60200260200101516001600160a01b031663c3a07df66040518163ffffffff1660e01b815260040160006040518083038186803b158015610d8c57600080fd5b505afa158015610da0573d6000803e3d6000fd5b505050506040513d6000823e601f3d908101601f191682016040526020811015610dc957600080fd5b810190808051600160201b811115610de057600080fd5b82016020810184811115610df357600080fd5b81518560208202830111600160201b82111715610e0f57600080fd5b50909450600093505050505b8151811015610f2957600080858581518110610e3357fe5b60200260200101516001600160a01b03166001600160a01b0316815260200190815260200160002060008e6001600160a01b03166001600160a01b031681526020019081526020016000206000838381518110610e8c57fe5b60209081029190910181015182528101919091526040016000205460ff1615610f2157838381518110610ebb57fe5b6020026020010151878981518110610ecf57fe5b60200260200101906001600160a01b031690816001600160a01b031681525050818181518110610efb57fe5b6020026020010151868981518110610f0f57fe5b60209081029190910101526001909701965b600101610e1b565b5050600101610d35565b5050600101610c3a565b509097909650945050505050565b610f536119ea565b610f5b611c68565b565b6000602081815293815260408082208552928152828120909352825290205460ff1681565b600554600160a01b900460ff1681565b60006001600160a01b038216610fe75760408051600160e51b62461bcd02815260206004820152600f6024820152600160881b6e496e76616c6964206164647265737302604482015290519081900360640190fd5b6001600160a01b0382166000908152600160205260409020541561100d57506001611011565b5060005b919050565b6005546001600160a01b031681565b600160d91b6420a226a4a70261103b8133611aba565b6110875760408051600160e51b62461bcd0281526020600482015260126024820152600160711b7124b73b30b634b2103832b936b4b9b9b4b7b702604482015290519081900360640190fd5b6001600160a01b0382166000908152600160205260409020546110f45760408051600160e51b62461bcd02815260206004820152601760248201527f64656c656761746520646f6573206e6f74206578697374000000000000000000604482015290519081900360640190fd5b60025460005b818110156111b457836001600160a01b03166002828154811061111957fe5b6000918252602090912001546001600160a01b031614156111ac576002600183038154811061114457fe5b600091825260209091200154600280546001600160a01b03909216918390811061116a57fe5b600091825260209091200180546001600160a01b0319166001600160a01b039290921691909117905560028054906111a6906000198301611dbb565b506111b4565b6001016110fa565b5050506001600160a01b0316600090815260016020526040812055565b6060600280548060200260200160405190810160405280929190818152602001828054801561122957602002820191906000526020600020905b81546001600160a01b0316815260019091019060200180831161120b575b5050505050905090565b61123b6119ea565b610f5b611d0e565b6001600160a01b0383166000908152600160205260408120541561129657506001600160a01b0380831660009081526020818152604080832093871683529281528282208483529052205460ff1661129a565b5060005b9392505050565b60606000805b600254811015611321576001600160a01b038516600090815260208190526040812060028054919291849081106112da57fe5b60009182526020808320909101546001600160a01b03168352828101939093526040918201812087825290925290205460ff1615611319576001909101905b6001016112a7565b60608260405190808252806020026020018201604052801561134d578160200160208202803883390190505b50905060009250600091505b600254821015611425576001600160a01b0386166000908152602081905260408120600280549192918590811061138c57fe5b60009182526020808320909101546001600160a01b03168352828101939093526040918201812088825290925290205460ff161561141a57600282815481106113d157fe5b9060005260206000200160009054906101000a90046001600160a01b03168184815181106113fb57fe5b6001600160a01b03909216602092830291909101909101526001909201915b600190910190611359565b95945050505050565b6114366119ea565b6001600160a01b0381166114895760408051600160e51b62461bcd02815260206004820152600f6024820152600160881b6e496e76616c6964206164647265737302604482015290519081900360640190fd5b60408051600160e01b6370a08231028152306004820152905182916000916001600160a01b038416916370a08231916024808301926020929190829003018186803b1580156114d757600080fd5b505afa1580156114eb573d6000803e3d6000fd5b505050506040513d602081101561150157600080fd5b505160408051600160e01b63a9059cbb0281523360048201526024810183905290519192506001600160a01b0384169163a9059cbb916044808201926020929091908290030181600087803b15801561155957600080fd5b505af115801561156d573d6000803e3d6000fd5b505050506040513d602081101561158357600080fd5b50516115d95760408051600160e51b62461bcd02815260206004820152600f60248201527f5472616e73666572206661696c65640000000000000000000000000000000000604482015290519081900360640190fd5b505050565b600281815481106115eb57fe5b6000918252602090912001546001600160a01b0316905081565b600160c11b6727a822a920aa27a90281565b600160d91b6420a226a4a70261162d8133611aba565b6116795760408051600160e51b62461bcd0281526020600482015260126024820152600160711b7124b73b30b634b2103832b936b4b9b9b4b7b702604482015290519081900360640190fd5b6001600160a01b0383166116cc5760408051600160e51b62461bcd02815260206004820152600f6024820152600160881b6e496e76616c6964206164647265737302604482015290519081900360640190fd5b816117215760408051600160e51b62461bcd02815260206004820152601360248201527f302076616c7565206e6f7420616c6c6f77656400000000000000000000000000604482015290519081900360640190fd5b6001600160a01b0383166000908152600160205260409020541561178f5760408051600160e51b62461bcd02815260206004820152600f60248201527f416c72656164792070726573656e740000000000000000000000000000000000604482015290519081900360640190fd5b6001600160a01b03831660008181526001602081815260408084208790556002805493840181559093527f405787fa12a823e0f2b7631cc41b3ba8828b3321ca811111fa75cd3aa3bb5ace90910180546001600160a01b03191684179055815185815291517fa3b7033f08f647cbc0d9305729e64c22e3be712e9e94824e54d676c64977f7c79281900390910190a2505050565b6004546001600160a01b031681565b60408051600180825281830190925260609182919060208083019080388339019050509050600160d91b6420a226a4a7028160008151811061187057fe5b6020908102919091010152905090565b6003546001600160a01b031681565b600160d91b6420a226a4a7026118a58133611aba565b6118f15760408051600160e51b62461bcd0281526020600482015260126024820152600160711b7124b73b30b634b2103832b936b4b9b9b4b7b702604482015290519081900360640190fd5b6001600160a01b0385166119445760408051600160e51b62461bcd02815260206004820152600f6024820152600160881b6e696e76616c6964206164647265737302604482015290519081900360640190fd5b61195085858585611be9565b5050505050565b60016020526000908152604090205481565b6000600460009054906101000a90046001600160a01b03166001600160a01b031663660d0d676040518163ffffffff1660e01b815260040160206040518083038186803b1580156119b957600080fd5b505afa1580156119cd573d6000803e3d6000fd5b505050506040513d60208110156119e357600080fd5b5051905090565b6004805460408051600160e01b638da5cb5b02815290516001600160a01b0390921692638da5cb5b928282019260209290829003018186803b158015611a2f57600080fd5b505afa158015611a43573d6000803e3d6000fd5b505050506040513d6020811015611a5957600080fd5b50516001600160a01b03163314610f5b5760408051600160e51b62461bcd02815260206004820152601360248201527f53656e646572206973206e6f74206f776e657200000000000000000000000000604482015290519081900360640190fd5b6004805460408051600160e01b638da5cb5b028152905160009384936001600160a01b031692638da5cb5b9281830192602092829003018186803b158015611b0157600080fd5b505afa158015611b15573d6000803e3d6000fd5b505050506040513d6020811015611b2b57600080fd5b50516003546001600160a01b038581169281168314935016148180611b4d5750805b8061142557506004805460408051600160e01b638658b8b90281526001600160a01b03888116948201949094523060248201526044810189905290519290911691638658b8b991606480820192602092909190829003018186803b158015611bb457600080fd5b505afa158015611bc8573d6000803e3d6000fd5b505050506040513d6020811015611bde57600080fd5b505195945050505050565b6001600160a01b03808416600081815260208181526040808320948916808452948252808320878452825291829020805486151560ff199091168117909155825193845290830186905282820152517fb630086996d7cdc1618b8be6b8d15f9e6e5c42d7e547f81114be728029a277b69181900360600190a250505050565b600554600160a01b900460ff16611cc95760408051600160e51b62461bcd02815260206004820152601660248201527f436f6e7472616374206973206e6f742070617573656400000000000000000000604482015290519081900360640190fd5b60058054600160a01b60ff02191690556040805133815290517faeb196d352664784d1900b0e7414a8face7d29f4dae8c4b0cf68ed477423bbf49181900360200190a1565b600554600160a01b900460ff1615611d705760408051600160e51b62461bcd02815260206004820152601260248201527f436f6e7472616374206973207061757365640000000000000000000000000000604482015290519081900360640190fd5b60058054600160a01b60ff021916600160a01b1790556040805133815290517f5ee71a369c8672edded508e624ffc9257fa1ae6886ef32905c18e60196bca3999181900360200190a1565b8154818355818111156115d9576000838152602090206115d991810190830161074f91905b80821115611df45760008155600101611de0565b509056fea165627a7a72305820839a7ae1cda8c29c96f58520ae4ddf919935ba31259b29f13b1dc1dedd9e82ef0029",
  "source": "pragma solidity 0.5.8;\n\nimport \"./IPermissionManager.sol\";\nimport \"../Module.sol\";\nimport \"./GeneralPermissionManagerStorage.sol\";\nimport \"../../interfaces/ISecurityToken.sol\";\n\n/**\n * @title Permission Manager module for core permissioning functionality\n */\ncontract GeneralPermissionManager is GeneralPermissionManagerStorage, IPermissionManager, Module {\n\n    /// Event emitted after any permission get changed for the delegate\n    event ChangePermission(address indexed _delegate, address _module, bytes32 _perm, bool _valid);\n    /// Used to notify when delegate is added in permission manager contract\n    event AddDelegate(address indexed _delegate, bytes32 _details);\n\n    /// @notice constructor\n    constructor(address _securityToken, address _polyToken) public Module(_securityToken, _polyToken) {\n\n    }\n\n    /**\n     * @notice Init function i.e generalise function to maintain the structure of the module contract\n     * @return bytes4\n     */\n    function getInitFunction() public pure returns(bytes4) {\n        return bytes4(0);\n    }\n\n    /**\n     * @notice Used to check the permission on delegate corresponds to module contract address\n     * @param _delegate Ethereum address of the delegate\n     * @param _module Ethereum contract address of the module\n     * @param _perm Permission flag\n     * @return bool\n     */\n    function checkPermission(address _delegate, address _module, bytes32 _perm) external view returns(bool) {\n        if (delegateDetails[_delegate] != bytes32(0)) {\n            return perms[_module][_delegate][_perm];\n        } else return false;\n    }\n\n    /**\n     * @notice Used to add a delegate\n     * @param _delegate Ethereum address of the delegate\n     * @param _details Details about the delegate i.e `Belongs to financial firm`\n     */\n    function addDelegate(address _delegate, bytes32 _details) external withPerm(ADMIN) {\n        require(_delegate != address(0), \"Invalid address\");\n        require(_details != bytes32(0), \"0 value not allowed\");\n        require(delegateDetails[_delegate] == bytes32(0), \"Already present\");\n        delegateDetails[_delegate] = _details;\n        allDelegates.push(_delegate);\n        /*solium-disable-next-line security/no-block-members*/\n        emit AddDelegate(_delegate, _details);\n    }\n\n    /**\n     * @notice Used to delete a delegate\n     * @param _delegate Ethereum address of the delegate\n     */\n    function deleteDelegate(address _delegate) external withPerm(ADMIN) {\n        require(delegateDetails[_delegate] != bytes32(0), \"delegate does not exist\");\n        uint256 delegateLen = allDelegates.length;\n        for (uint256 i = 0; i < delegateLen; i++) {\n            if (allDelegates[i] == _delegate) {\n                allDelegates[i] = allDelegates[delegateLen - 1];\n                allDelegates.length--;\n                break;\n            }\n        }\n        delete delegateDetails[_delegate];\n    }\n\n    /**\n     * @notice Used to check if an address is a delegate or not\n     * @param _potentialDelegate the address of potential delegate\n     * @return bool\n     */\n    function checkDelegate(address _potentialDelegate) external view returns(bool) {\n        require(_potentialDelegate != address(0), \"Invalid address\");\n\n        if (delegateDetails[_potentialDelegate] != bytes32(0)) {\n            return true;\n        } else return false;\n    }\n\n    /**\n     * @notice Used to provide/change the permission to the delegate corresponds to the module contract\n     * @param _delegate Ethereum address of the delegate\n     * @param _module Ethereum contract address of the module\n     * @param _perm Permission flag\n     * @param _valid Bool flag use to switch on/off the permission\n     * @return bool\n     */\n    function changePermission(address _delegate, address _module, bytes32 _perm, bool _valid) public withPerm(ADMIN) {\n        require(_delegate != address(0), \"invalid address\");\n        _changePermission(_delegate, _module, _perm, _valid);\n    }\n\n    /**\n     * @notice Used to change one or more permissions for a single delegate at once\n     * @param _delegate Ethereum address of the delegate\n     * @param _modules Multiple module matching the multiperms, needs to be same length\n     * @param _perms Multiple permission flag needs to be changed\n     * @param _valids Bool array consist the flag to switch on/off the permission\n     * @return nothing\n     */\n    function changePermissionMulti(\n        address _delegate,\n        address[] memory _modules,\n        bytes32[] memory _perms,\n        bool[] memory _valids\n    )\n        public\n        withPerm(ADMIN)\n    {\n        require(_delegate != address(0), \"invalid address\");\n        require(_modules.length > 0, \"0 length is not allowed\");\n        require(_modules.length == _perms.length && _valids.length == _perms.length, \"Array length mismatch\");\n        for (uint256 i = 0; i < _perms.length; i++) {\n            _changePermission(_delegate, _modules[i], _perms[i], _valids[i]);\n        }\n    }\n\n    /**\n     * @notice Used to return all delegates with a given permission and module\n     * @param _module Ethereum contract address of the module\n     * @param _perm Permission flag\n     * @return address[]\n     */\n    function getAllDelegatesWithPerm(address _module, bytes32 _perm) external view returns(address[] memory) {\n        uint256 counter = 0;\n        uint256 i = 0;\n        for (i = 0; i < allDelegates.length; i++) {\n            if (perms[_module][allDelegates[i]][_perm]) {\n                counter++;\n            }\n        }\n        address[] memory allDelegatesWithPerm = new address[](counter);\n        counter = 0;\n        for (i = 0; i < allDelegates.length; i++) {\n            if (perms[_module][allDelegates[i]][_perm]) {\n                allDelegatesWithPerm[counter] = allDelegates[i];\n                counter++;\n            }\n        }\n        return allDelegatesWithPerm;\n    }\n\n    /**\n     * @notice Used to return all permission of a single or multiple module\n     * @dev possible that function get out of gas is there are lot of modules and perm related to them\n     * @param _delegate Ethereum address of the delegate\n     * @param _types uint8[] of types\n     * @return address[] the address array of Modules this delegate has permission\n     * @return bytes32[] the permission array of the corresponding Modules\n     */\n    function getAllModulesAndPermsFromTypes(address _delegate, uint8[] calldata _types) external view returns(\n        address[] memory,\n        bytes32[] memory\n    ) {\n        uint256 counter = 0;\n        // loop through _types and get their modules from securityToken->getModulesByType\n        for (uint256 i = 0; i < _types.length; i++) {\n            address[] memory _currentTypeModules = securityToken.getModulesByType(_types[i]);\n            // loop through each modules to get their perms from IModule->getPermissions\n            for (uint256 j = 0; j < _currentTypeModules.length; j++) {\n                bytes32[] memory _allModulePerms = IModule(_currentTypeModules[j]).getPermissions();\n                // loop through each perm, if it is true, push results into arrays\n                for (uint256 k = 0; k < _allModulePerms.length; k++) {\n                    if (perms[_currentTypeModules[j]][_delegate][_allModulePerms[k]]) {\n                        counter++;\n                    }\n                }\n            }\n        }\n\n        address[] memory _allModules = new address[](counter);\n        bytes32[] memory _allPerms = new bytes32[](counter);\n        counter = 0;\n\n        for (uint256 i = 0; i < _types.length; i++) {\n            address[] memory _currentTypeModules = securityToken.getModulesByType(_types[i]);\n            for (uint256 j = 0; j < _currentTypeModules.length; j++) {\n                bytes32[] memory _allModulePerms = IModule(_currentTypeModules[j]).getPermissions();\n                for (uint256 k = 0; k < _allModulePerms.length; k++) {\n                    if (perms[_currentTypeModules[j]][_delegate][_allModulePerms[k]]) {\n                        _allModules[counter] = _currentTypeModules[j];\n                        _allPerms[counter] = _allModulePerms[k];\n                        counter++;\n                    }\n                }\n            }\n        }\n\n        return (_allModules, _allPerms);\n    }\n\n    /**\n     * @notice Used to provide/change the permission to the delegate corresponds to the module contract\n     * @param _delegate Ethereum address of the delegate\n     * @param _module Ethereum contract address of the module\n     * @param _perm Permission flag\n     * @param _valid Bool flag use to switch on/off the permission\n     * @return bool\n     */\n    function _changePermission(address _delegate, address _module, bytes32 _perm, bool _valid) internal {\n        perms[_module][_delegate][_perm] = _valid;\n        /*solium-disable-next-line security/no-block-members*/\n        emit ChangePermission(_delegate, _module, _perm, _valid);\n    }\n\n    /**\n     * @notice Used to get all delegates\n     * @return address[]\n     */\n    function getAllDelegates() external view returns(address[] memory) {\n        return allDelegates;\n    }\n\n    /**\n    * @notice Returns the Permission flag related the `this` contract\n    * @return Array of permission flags\n    */\n    function getPermissions() public view returns(bytes32[] memory) {\n        bytes32[] memory allPermissions = new bytes32[](1);\n        allPermissions[0] = ADMIN;\n        return allPermissions;\n    }\n\n}\n",
  "sourcePath": "C:/Users/victor/Repos/polymath-core/contracts/modules/PermissionManager/GeneralPermissionManager.sol",
  "compiler": {
    "name": "solc",
    "version": "0.5.8+commit.23d335f2.Emscripten.clang"
  },
  "schemaVersion": "3.0.11",
  "updatedAt": "2019-06-19T20:39:29.462Z",
  "devdoc": {
    "methods": {
      "addDelegate(address,bytes32)": {
        "params": {
          "_delegate": "Ethereum address of the delegate",
          "_details": "Details about the delegate i.e `Belongs to financial firm`"
        }
      },
      "changePermission(address,address,bytes32,bool)": {
        "params": {
          "_delegate": "Ethereum address of the delegate",
          "_module": "Ethereum contract address of the module",
          "_perm": "Permission flag",
          "_valid": "Bool flag use to switch on/off the permission"
        },
        "return": "bool"
      },
      "changePermissionMulti(address,address[],bytes32[],bool[])": {
        "params": {
          "_delegate": "Ethereum address of the delegate",
          "_modules": "Multiple module matching the multiperms, needs to be same length",
          "_perms": "Multiple permission flag needs to be changed",
          "_valids": "Bool array consist the flag to switch on/off the permission"
        },
        "return": "nothing"
      },
      "checkDelegate(address)": {
        "params": {
          "_potentialDelegate": "the address of potential delegate"
        },
        "return": "bool"
      },
      "checkPermission(address,address,bytes32)": {
        "params": {
          "_delegate": "Ethereum address of the delegate",
          "_module": "Ethereum contract address of the module",
          "_perm": "Permission flag"
        },
        "return": "bool"
      },
      "deleteDelegate(address)": {
        "params": {
          "_delegate": "Ethereum address of the delegate"
        }
      },
      "getAllDelegates()": {
        "return": "address[]"
      },
      "getAllDelegatesWithPerm(address,bytes32)": {
        "params": {
          "_module": "Ethereum contract address of the module",
          "_perm": "Permission flag"
        },
        "return": "address[]"
      },
      "getAllModulesAndPermsFromTypes(address,uint8[])": {
        "details": "possible that function get out of gas is there are lot of modules and perm related to them",
        "params": {
          "_delegate": "Ethereum address of the delegate",
          "_types": "uint8[] of types"
        },
        "return": "address[] the address array of Modules this delegate has permissionbytes32[] the permission array of the corresponding Modules"
      },
      "getInitFunction()": {
        "return": "bytes4"
      },
      "getPermissions()": {
        "return": "Array of permission flags"
      },
      "reclaimERC20(address)": {
        "details": "We duplicate here due to the overriden owner & onlyOwner",
        "params": {
          "_tokenContract": "The address of the token contract"
        }
      },
      "reclaimETH()": {
        "details": "We duplicate here due to the overriden owner & onlyOwner"
      }
    },
    "title": "Permission Manager module for core permissioning functionality"
  },
  "userdoc": {
    "methods": {
      "addDelegate(address,bytes32)": {
        "notice": "Used to add a delegate"
      },
      "changePermission(address,address,bytes32,bool)": {
        "notice": "Used to provide/change the permission to the delegate corresponds to the module contract"
      },
      "changePermissionMulti(address,address[],bytes32[],bool[])": {
        "notice": "Used to change one or more permissions for a single delegate at once"
      },
      "checkDelegate(address)": {
        "notice": "Used to check if an address is a delegate or not"
      },
      "checkPermission(address,address,bytes32)": {
        "notice": "Used to check the permission on delegate corresponds to module contract address"
      },
      "constructor": "constructor",
      "deleteDelegate(address)": {
        "notice": "Used to delete a delegate"
      },
      "getAllDelegates()": {
        "notice": "Used to get all delegates"
      },
      "getAllDelegatesWithPerm(address,bytes32)": {
        "notice": "Used to return all delegates with a given permission and module"
      },
      "getAllModulesAndPermsFromTypes(address,uint8[])": {
        "notice": "Used to return all permission of a single or multiple module"
      },
      "getDataStore()": {
        "notice": "used to return the data store address of securityToken"
      },
      "getInitFunction()": {
        "notice": "Init function i.e generalise function to maintain the structure of the module contract"
      },
      "getPermissions()": {
        "notice": "Returns the Permission flag related the `this` contract"
      },
      "pause()": {
        "notice": "Pause (overridden function)"
      },
      "reclaimERC20(address)": {
        "notice": "Reclaims ERC20Basic compatible tokens"
      },
      "reclaimETH()": {
        "notice": "Reclaims ETH"
      },
      "unpause()": {
        "notice": "Unpause (overridden function)"
      }
    }
  }
}