{
  "contractName": "GeneralPermissionManager",
  "abi": [
    {
      "constant": false,
      "inputs": [],
      "name": "reclaimETH",
      "outputs": [],
      "payable": false,
      "stateMutability": "nonpayable",
      "type": "function",
      "signature": "0x0f144a48"
    },
    {
      "constant": true,
      "inputs": [],
      "name": "ADMIN",
      "outputs": [
        {
          "name": "",
          "type": "bytes32"
        }
      ],
      "payable": false,
      "stateMutability": "view",
      "type": "function",
      "signature": "0x2a0acc6a"
    },
    {
      "constant": false,
      "inputs": [],
      "name": "unpause",
      "outputs": [],
      "payable": false,
      "stateMutability": "nonpayable",
      "type": "function",
      "signature": "0x3f4ba83a"
    },
    {
      "constant": true,
      "inputs": [
        {
          "name": "",
          "type": "address"
        },
        {
          "name": "",
          "type": "address"
        },
        {
          "name": "",
          "type": "bytes32"
        }
      ],
      "name": "perms",
      "outputs": [
        {
          "name": "",
          "type": "bool"
        }
      ],
      "payable": false,
      "stateMutability": "view",
      "type": "function",
      "signature": "0x4e0a4792"
    },
    {
      "constant": true,
      "inputs": [],
      "name": "paused",
      "outputs": [
        {
          "name": "",
          "type": "bool"
        }
      ],
      "payable": false,
      "stateMutability": "view",
      "type": "function",
      "signature": "0x5c975abb"
    },
    {
      "constant": true,
      "inputs": [],
      "name": "polyToken",
      "outputs": [
        {
          "name": "",
          "type": "address"
        }
      ],
      "payable": false,
      "stateMutability": "view",
      "type": "function",
      "signature": "0x6faa22a5"
    },
    {
      "constant": false,
      "inputs": [],
      "name": "pause",
      "outputs": [],
      "payable": false,
      "stateMutability": "nonpayable",
      "type": "function",
      "signature": "0x8456cb59"
    },
    {
      "constant": false,
      "inputs": [
        {
          "name": "_tokenContract",
          "type": "address"
        }
      ],
      "name": "reclaimERC20",
      "outputs": [],
      "payable": false,
      "stateMutability": "nonpayable",
      "type": "function",
      "signature": "0x8905fd4f"
    },
    {
      "constant": true,
      "inputs": [
        {
          "name": "",
          "type": "uint256"
        }
      ],
      "name": "allDelegates",
      "outputs": [
        {
          "name": "",
          "type": "address"
        }
      ],
      "payable": false,
      "stateMutability": "view",
      "type": "function",
      "signature": "0x947dd6e5"
    },
    {
      "constant": true,
      "inputs": [],
      "name": "OPERATOR",
      "outputs": [
        {
          "name": "",
          "type": "bytes32"
        }
      ],
      "payable": false,
      "stateMutability": "view",
      "type": "function",
      "signature": "0x983d2737"
    },
    {
      "constant": true,
      "inputs": [],
      "name": "securityToken",
      "outputs": [
        {
          "name": "",
          "type": "address"
        }
      ],
      "payable": false,
      "stateMutability": "view",
      "type": "function",
      "signature": "0xb84dfbd2"
    },
    {
      "constant": true,
      "inputs": [],
      "name": "factory",
      "outputs": [
        {
          "name": "",
          "type": "address"
        }
      ],
      "payable": false,
      "stateMutability": "view",
      "type": "function",
      "signature": "0xc45a0155"
    },
    {
      "constant": true,
      "inputs": [
        {
          "name": "",
          "type": "address"
        }
      ],
      "name": "delegateDetails",
      "outputs": [
        {
          "name": "",
          "type": "bytes32"
        }
      ],
      "payable": false,
      "stateMutability": "view",
      "type": "function",
      "signature": "0xe380d343"
    },
    {
      "constant": true,
      "inputs": [],
      "name": "getDataStore",
      "outputs": [
        {
          "name": "",
          "type": "address"
        }
      ],
      "payable": false,
      "stateMutability": "view",
      "type": "function",
      "signature": "0xfe58265e"
    },
    {
      "inputs": [
        {
          "name": "_securityToken",
          "type": "address"
        },
        {
          "name": "_polyToken",
          "type": "address"
        }
      ],
      "payable": false,
      "stateMutability": "nonpayable",
      "type": "constructor",
      "signature": "constructor"
    },
    {
      "anonymous": false,
      "inputs": [
        {
          "indexed": true,
          "name": "_delegate",
          "type": "address"
        },
        {
          "indexed": false,
          "name": "_module",
          "type": "address"
        },
        {
          "indexed": false,
          "name": "_perm",
          "type": "bytes32"
        },
        {
          "indexed": false,
          "name": "_valid",
          "type": "bool"
        }
      ],
      "name": "ChangePermission",
      "type": "event",
      "signature": "0xb630086996d7cdc1618b8be6b8d15f9e6e5c42d7e547f81114be728029a277b6"
    },
    {
      "anonymous": false,
      "inputs": [
        {
          "indexed": true,
          "name": "_delegate",
          "type": "address"
        },
        {
          "indexed": false,
          "name": "_details",
          "type": "bytes32"
        }
      ],
      "name": "AddDelegate",
      "type": "event",
      "signature": "0xa3b7033f08f647cbc0d9305729e64c22e3be712e9e94824e54d676c64977f7c7"
    },
    {
      "anonymous": false,
      "inputs": [
        {
          "indexed": false,
          "name": "account",
          "type": "address"
        }
      ],
      "name": "Pause",
      "type": "event",
      "signature": "0x5ee71a369c8672edded508e624ffc9257fa1ae6886ef32905c18e60196bca399"
    },
    {
      "anonymous": false,
      "inputs": [
        {
          "indexed": false,
          "name": "account",
          "type": "address"
        }
      ],
      "name": "Unpause",
      "type": "event",
      "signature": "0xaeb196d352664784d1900b0e7414a8face7d29f4dae8c4b0cf68ed477423bbf4"
    },
    {
      "constant": true,
      "inputs": [],
      "name": "getInitFunction",
      "outputs": [
        {
          "name": "",
          "type": "bytes4"
        }
      ],
      "payable": false,
      "stateMutability": "pure",
      "type": "function",
      "signature": "0x1613ec9d"
    },
    {
      "constant": true,
      "inputs": [
        {
          "name": "_delegate",
          "type": "address"
        },
        {
          "name": "_module",
          "type": "address"
        },
        {
          "name": "_perm",
          "type": "bytes32"
        }
      ],
      "name": "checkPermission",
      "outputs": [
        {
          "name": "",
          "type": "bool"
        }
      ],
      "payable": false,
      "stateMutability": "view",
      "type": "function",
      "signature": "0x8658b8b9"
    },
    {
      "constant": false,
      "inputs": [
        {
          "name": "_delegate",
          "type": "address"
        },
        {
          "name": "_details",
          "type": "bytes32"
        }
      ],
      "name": "addDelegate",
      "outputs": [],
      "payable": false,
      "stateMutability": "nonpayable",
      "type": "function",
      "signature": "0x9cdae4ee"
    },
    {
      "constant": false,
      "inputs": [
        {
          "name": "_delegate",
          "type": "address"
        }
      ],
      "name": "deleteDelegate",
      "outputs": [],
      "payable": false,
      "stateMutability": "nonpayable",
      "type": "function",
      "signature": "0x71890352"
    },
    {
      "constant": true,
      "inputs": [
        {
          "name": "_potentialDelegate",
          "type": "address"
        }
      ],
      "name": "checkDelegate",
      "outputs": [
        {
          "name": "",
          "type": "bool"
        }
      ],
      "payable": false,
      "stateMutability": "view",
      "type": "function",
      "signature": "0x62c90dc5"
    },
    {
      "constant": false,
      "inputs": [
        {
          "name": "_delegate",
          "type": "address"
        },
        {
          "name": "_module",
          "type": "address"
        },
        {
          "name": "_perm",
          "type": "bytes32"
        },
        {
          "name": "_valid",
          "type": "bool"
        }
      ],
      "name": "changePermission",
      "outputs": [],
      "payable": false,
      "stateMutability": "nonpayable",
      "type": "function",
      "signature": "0xdec7542f"
    },
    {
      "constant": false,
      "inputs": [
        {
          "name": "_delegate",
          "type": "address"
        },
        {
          "name": "_modules",
          "type": "address[]"
        },
        {
          "name": "_perms",
          "type": "bytes32[]"
        },
        {
          "name": "_valids",
          "type": "bool[]"
        }
      ],
      "name": "changePermissionMulti",
      "outputs": [],
      "payable": false,
      "stateMutability": "nonpayable",
      "type": "function",
      "signature": "0x2ec0508d"
    },
    {
      "constant": true,
      "inputs": [
        {
          "name": "_module",
          "type": "address"
        },
        {
          "name": "_perm",
          "type": "bytes32"
        }
      ],
      "name": "getAllDelegatesWithPerm",
      "outputs": [
        {
          "name": "",
          "type": "address[]"
        }
      ],
      "payable": false,
      "stateMutability": "view",
      "type": "function",
      "signature": "0x885a4860"
    },
    {
      "constant": true,
      "inputs": [
        {
          "name": "_delegate",
          "type": "address"
        },
        {
          "name": "_types",
          "type": "uint8[]"
        }
      ],
      "name": "getAllModulesAndPermsFromTypes",
      "outputs": [
        {
          "name": "",
          "type": "address[]"
        },
        {
          "name": "",
          "type": "bytes32[]"
        }
      ],
      "payable": false,
      "stateMutability": "view",
      "type": "function",
      "signature": "0x3a15f181"
    },
    {
      "constant": true,
      "inputs": [],
      "name": "getAllDelegates",
      "outputs": [
        {
          "name": "",
          "type": "address[]"
        }
      ],
      "payable": false,
      "stateMutability": "view",
      "type": "function",
      "signature": "0x7a4f3764"
    },
    {
      "constant": true,
      "inputs": [],
      "name": "getPermissions",
      "outputs": [
        {
          "name": "",
          "type": "bytes32[]"
        }
      ],
      "payable": false,
      "stateMutability": "view",
      "type": "function",
      "signature": "0xc3a07df6"
    }
  ],
  "bytecode": "0x60806040526005805460a060020a60ff021916905534801561002057600080fd5b506040516040806120198339810180604052604081101561004057600080fd5b50805160209091015160048054600160a060020a03938416600160a060020a0319918216179091556003805482163317905560058054939092169216919091179055611f88806100916000396000f3fe608060405234801561001057600080fd5b50600436106101775760003560e060020a900480638456cb59116100e25780639cdae4ee1161009b578063c45a015511610075578063c45a0155146106c4578063dec7542f146106cc578063e380d3431461070a578063fe58265e1461073057610177565b80639cdae4ee14610688578063b84dfbd2146106b4578063c3a07df6146106bc57610177565b80638456cb59146105d35780638658b8b9146105db578063885a4860146106115780638905fd4f1461063d578063947dd6e514610663578063983d27371461068057610177565b80634e0a4792116101345780634e0a4792146104b95780635c975abb1461050357806362c90dc51461050b5780636faa22a51461053157806371890352146105555780637a4f37641461057b57610177565b80630f144a481461017c5780631613ec9d146101865780632a0acc6a146101c35780632ec0508d146101dd5780633a15f181146103985780633f4ba83a146104b1575b600080fd5b610184610738565b005b61018e610770565b604080517fffffffff000000000000000000000000000000000000000000000000000000009092168252519081900360200190f35b6101cb610776565b60408051918252519081900360200190f35b610184600480360360808110156101f357600080fd5b600160a060020a03823516919081019060408101602082013564010000000081111561021e57600080fd5b82018360208201111561023057600080fd5b8035906020019184602083028401116401000000008311171561025257600080fd5b91908080602002602001604051908101604052809392919081815260200183836020028082843760009201919091525092959493602081019350359150506401000000008111156102a257600080fd5b8201836020820111156102b457600080fd5b803590602001918460208302840111640100000000831117156102d657600080fd5b919080806020026020016040519081016040528093929190818152602001838360200280828437600092019190915250929594936020810193503591505064010000000081111561032657600080fd5b82018360208201111561033857600080fd5b8035906020019184602083028401116401000000008311171561035a57600080fd5b919080806020026020016040519081016040528093929190818152602001838360200280828437600092019190915250929550610785945050505050565b610418600480360360408110156103ae57600080fd5b600160a060020a0382351691908101906040810160208201356401000000008111156103d957600080fd5b8201836020820111156103eb57600080fd5b8035906020019184602083028401116401000000008311171561040d57600080fd5b50909250905061095b565b604051808060200180602001838103835285818151815260200191508051906020019060200280838360005b8381101561045c578181015183820152602001610444565b50505050905001838103825284818151815260200191508051906020019060200280838360005b8381101561049b578181015183820152602001610483565b5050505090500194505050505060405180910390f35b610184610f84565b6104ef600480360360608110156104cf57600080fd5b50600160a060020a03813581169160208101359091169060400135610f96565b604080519115158252519081900360200190f35b6104ef610fbb565b6104ef6004803603602081101561052157600080fd5b5035600160a060020a0316610fdc565b61053961106b565b60408051600160a060020a039092168252519081900360200190f35b6101846004803603602081101561056b57600080fd5b5035600160a060020a031661107a565b610583611229565b60408051602080825283518183015283519192839290830191858101910280838360005b838110156105bf5781810151838201526020016105a7565b505050509050019250505060405180910390f35b61018461128b565b6104ef600480360360608110156105f157600080fd5b50600160a060020a0381358116916020810135909116906040013561129b565b6105836004803603604081101561062757600080fd5b50600160a060020a0381351690602001356112f9565b6101846004803603602081101561065357600080fd5b5035600160a060020a0316611486565b6105396004803603602081101561067957600080fd5b503561166d565b6101cb611694565b6101846004803603604081101561069e57600080fd5b50600160a060020a0381351690602001356116b8565b6105396118d2565b6105836118e1565b61053961192f565b610184600480360360808110156106e257600080fd5b50600160a060020a03813581169160208101359091169060408101359060600135151561193e565b6101cb6004803603602081101561072057600080fd5b5035600160a060020a0316611a07565b610539611a19565b610740611a9d565b6040513390303180156108fc02916000818181858888f1935050505015801561076d573d6000803e3d6000fd5b50565b60005b90565b60d960020a6420a226a4a70281565b60d960020a6420a226a4a70261079b8133611b83565b6107dd576040805160e560020a62461bcd0281526020600482015260126024820152600080516020611f3d833981519152604482015290519081900360640190fd5b600160a060020a03851661083b576040805160e560020a62461bcd02815260206004820152600f60248201527f696e76616c696420616464726573730000000000000000000000000000000000604482015290519081900360640190fd5b6000845111610894576040805160e560020a62461bcd02815260206004820152601760248201527f30206c656e677468206973206e6f7420616c6c6f776564000000000000000000604482015290519081900360640190fd5b825184511480156108a6575082518251145b6108fa576040805160e560020a62461bcd02815260206004820152601560248201527f4172726179206c656e677468206d69736d617463680000000000000000000000604482015290519081900360640190fd5b60005b83518110156109535761094b8686838151811061091657fe5b602002602001015186848151811061092a57fe5b602002602001015186858151811061093e57fe5b6020026020010151611cde565b6001016108fd565b505050505050565b6060806000805b84811015610c0457600454606090600160a060020a031663ac90b42288888581811061098a57fe5b9050602002013560ff166040518263ffffffff1660e060020a028152600401808260ff1660ff16815260200191505060006040518083038186803b1580156109d157600080fd5b505afa1580156109e5573d6000803e3d6000fd5b505050506040513d6000823e601f3d908101601f191682016040526020811015610a0e57600080fd5b810190808051640100000000811115610a2657600080fd5b82016020810184811115610a3957600080fd5b8151856020820283011164010000000082111715610a5657600080fd5b50909450600093505050505b8151811015610bfa576060828281518110610a7957fe5b6020026020010151600160a060020a031663c3a07df66040518163ffffffff1660e060020a02815260040160006040518083038186803b158015610abc57600080fd5b505afa158015610ad0573d6000803e3d6000fd5b505050506040513d6000823e601f3d908101601f191682016040526020811015610af957600080fd5b810190808051640100000000811115610b1157600080fd5b82016020810184811115610b2457600080fd5b8151856020820283011164010000000082111715610b4157600080fd5b50909450600093505050505b8151811015610bf057600080858581518110610b6557fe5b6020026020010151600160a060020a0316600160a060020a0316815260200190815260200160002060008c600160a060020a0316600160a060020a031681526020019081526020016000206000838381518110610bbe57fe5b60209081029190910181015182528101919091526040016000205460ff1615610be8576001909501945b600101610b4d565b5050600101610a62565b5050600101610962565b50606081604051908082528060200260200182016040528015610c31578160200160208202803883390190505b509050606082604051908082528060200260200182016040528015610c60578160200160208202803883390190505b50600093509050825b86811015610f7657600454606090600160a060020a031663ac90b4228a8a85818110610c9157fe5b9050602002013560ff166040518263ffffffff1660e060020a028152600401808260ff1660ff16815260200191505060006040518083038186803b158015610cd857600080fd5b505afa158015610cec573d6000803e3d6000fd5b505050506040513d6000823e601f3d908101601f191682016040526020811015610d1557600080fd5b810190808051640100000000811115610d2d57600080fd5b82016020810184811115610d4057600080fd5b8151856020820283011164010000000082111715610d5d57600080fd5b50909450600093505050505b8151811015610f6c576060828281518110610d8057fe5b6020026020010151600160a060020a031663c3a07df66040518163ffffffff1660e060020a02815260040160006040518083038186803b158015610dc357600080fd5b505afa158015610dd7573d6000803e3d6000fd5b505050506040513d6000823e601f3d908101601f191682016040526020811015610e0057600080fd5b810190808051640100000000811115610e1857600080fd5b82016020810184811115610e2b57600080fd5b8151856020820283011164010000000082111715610e4857600080fd5b50909450600093505050505b8151811015610f6257600080858581518110610e6c57fe5b6020026020010151600160a060020a0316600160a060020a0316815260200190815260200160002060008e600160a060020a0316600160a060020a031681526020019081526020016000206000838381518110610ec557fe5b60209081029190910181015182528101919091526040016000205460ff1615610f5a57838381518110610ef457fe5b6020026020010151878981518110610f0857fe5b6020026020010190600160a060020a03169081600160a060020a031681525050818181518110610f3457fe5b6020026020010151868981518110610f4857fe5b60209081029190910101526001909701965b600101610e54565b5050600101610d69565b5050600101610c69565b509097909650945050505050565b610f8c611a9d565b610f94611d5d565b565b6000602081815293815260408082208552928152828120909352825290205460ff1681565b60055474010000000000000000000000000000000000000000900460ff1681565b6000600160a060020a03821661103c576040805160e560020a62461bcd02815260206004820152600f60248201527f496e76616c696420616464726573730000000000000000000000000000000000604482015290519081900360640190fd5b600160a060020a0382166000908152600160205260409020541561106257506001611066565b5060005b919050565b600554600160a060020a031681565b60d960020a6420a226a4a7026110908133611b83565b6110d2576040805160e560020a62461bcd0281526020600482015260126024820152600080516020611f3d833981519152604482015290519081900360640190fd5b600160a060020a03821660009081526001602052604090205461113f576040805160e560020a62461bcd02815260206004820152601760248201527f64656c656761746520646f6573206e6f74206578697374000000000000000000604482015290519081900360640190fd5b60025460005b8181101561120c5783600160a060020a03166002828154811061116457fe5b600091825260209091200154600160a060020a03161415611204576002600183038154811061118f57fe5b60009182526020909120015460028054600160a060020a0390921691839081106111b557fe5b6000918252602090912001805473ffffffffffffffffffffffffffffffffffffffff1916600160a060020a039290921691909117905560028054906111fe906000198301611eff565b5061120c565b600101611145565b505050600160a060020a0316600090815260016020526040812055565b6060600280548060200260200160405190810160405280929190818152602001828054801561128157602002820191906000526020600020905b8154600160a060020a03168152600190910190602001808311611263575b5050505050905090565b611293611a9d565b610f94611e22565b600160a060020a038316600090815260016020526040812054156112ee5750600160a060020a0380831660009081526020818152604080832093871683529281528282208483529052205460ff166112f2565b5060005b9392505050565b60606000805b60025481101561137957600160a060020a0385166000908152602081905260408120600280549192918490811061133257fe5b6000918252602080832090910154600160a060020a03168352828101939093526040918201812087825290925290205460ff1615611371576001909101905b6001016112ff565b6060826040519080825280602002602001820160405280156113a5578160200160208202803883390190505b50905060009250600091505b60025482101561147d57600160a060020a038616600090815260208190526040812060028054919291859081106113e457fe5b6000918252602080832090910154600160a060020a03168352828101939093526040918201812088825290925290205460ff1615611472576002828154811061142957fe5b9060005260206000200160009054906101000a9004600160a060020a031681848151811061145357fe5b600160a060020a03909216602092830291909101909101526001909201915b6001909101906113b1565b95945050505050565b61148e611a9d565b600160a060020a0381166114ec576040805160e560020a62461bcd02815260206004820152600f60248201527f496e76616c696420616464726573730000000000000000000000000000000000604482015290519081900360640190fd5b604080517f70a0823100000000000000000000000000000000000000000000000000000000815230600482015290518291600091600160a060020a038416916370a08231916024808301926020929190829003018186803b15801561155057600080fd5b505afa158015611564573d6000803e3d6000fd5b505050506040513d602081101561157a57600080fd5b5051604080517fa9059cbb000000000000000000000000000000000000000000000000000000008152336004820152602481018390529051919250600160a060020a0384169163a9059cbb916044808201926020929091908290030181600087803b1580156115e857600080fd5b505af11580156115fc573d6000803e3d6000fd5b505050506040513d602081101561161257600080fd5b5051611668576040805160e560020a62461bcd02815260206004820152600f60248201527f5472616e73666572206661696c65640000000000000000000000000000000000604482015290519081900360640190fd5b505050565b6002818154811061167a57fe5b600091825260209091200154600160a060020a0316905081565b7f4f50455241544f5200000000000000000000000000000000000000000000000081565b60d960020a6420a226a4a7026116ce8133611b83565b611710576040805160e560020a62461bcd0281526020600482015260126024820152600080516020611f3d833981519152604482015290519081900360640190fd5b600160a060020a03831661176e576040805160e560020a62461bcd02815260206004820152600f60248201527f496e76616c696420616464726573730000000000000000000000000000000000604482015290519081900360640190fd5b816117c3576040805160e560020a62461bcd02815260206004820152601360248201527f302076616c7565206e6f7420616c6c6f77656400000000000000000000000000604482015290519081900360640190fd5b600160a060020a03831660009081526001602052604090205415611831576040805160e560020a62461bcd02815260206004820152600f60248201527f416c72656164792070726573656e740000000000000000000000000000000000604482015290519081900360640190fd5b600160a060020a03831660008181526001602081815260408084208790556002805493840181559093527f405787fa12a823e0f2b7631cc41b3ba8828b3321ca811111fa75cd3aa3bb5ace909101805473ffffffffffffffffffffffffffffffffffffffff191684179055815185815291517fa3b7033f08f647cbc0d9305729e64c22e3be712e9e94824e54d676c64977f7c79281900390910190a2505050565b600454600160a060020a031681565b6040805160018082528183019092526060918291906020808301908038833901905050905060d960020a6420a226a4a7028160008151811061191f57fe5b6020908102919091010152905090565b600354600160a060020a031681565b60d960020a6420a226a4a7026119548133611b83565b611996576040805160e560020a62461bcd0281526020600482015260126024820152600080516020611f3d833981519152604482015290519081900360640190fd5b600160a060020a0385166119f4576040805160e560020a62461bcd02815260206004820152600f60248201527f696e76616c696420616464726573730000000000000000000000000000000000604482015290519081900360640190fd5b611a0085858585611cde565b5050505050565b60016020526000908152604090205481565b6000600460009054906101000a9004600160a060020a0316600160a060020a031663660d0d676040518163ffffffff1660e060020a02815260040160206040518083038186803b158015611a6c57600080fd5b505afa158015611a80573d6000803e3d6000fd5b505050506040513d6020811015611a9657600080fd5b5051905090565b60048054604080517f8da5cb5b0000000000000000000000000000000000000000000000000000000081529051600160a060020a0390921692638da5cb5b928282019260209290829003018186803b158015611af857600080fd5b505afa158015611b0c573d6000803e3d6000fd5b505050506040513d6020811015611b2257600080fd5b5051600160a060020a03163314610f94576040805160e560020a62461bcd02815260206004820152601360248201527f53656e646572206973206e6f74206f776e657200000000000000000000000000604482015290519081900360640190fd5b60048054604080517f8da5cb5b00000000000000000000000000000000000000000000000000000000815290516000938493600160a060020a031692638da5cb5b9281830192602092829003018186803b158015611be057600080fd5b505afa158015611bf4573d6000803e3d6000fd5b505050506040513d6020811015611c0a57600080fd5b5051600354600160a060020a038581169281168314935016148180611c2c5750805b8061147d575060048054604080517f8658b8b9000000000000000000000000000000000000000000000000000000008152600160a060020a03888116948201949094523060248201526044810189905290519290911691638658b8b991606480820192602092909190829003018186803b158015611ca957600080fd5b505afa158015611cbd573d6000803e3d6000fd5b505050506040513d6020811015611cd357600080fd5b505195945050505050565b600160a060020a03808416600081815260208181526040808320948916808452948252808320878452825291829020805486151560ff199091168117909155825193845290830186905282820152517fb630086996d7cdc1618b8be6b8d15f9e6e5c42d7e547f81114be728029a277b69181900360600190a250505050565b60055474010000000000000000000000000000000000000000900460ff16611dcf576040805160e560020a62461bcd02815260206004820152601660248201527f436f6e7472616374206973206e6f742070617573656400000000000000000000604482015290519081900360640190fd5b6005805474ff0000000000000000000000000000000000000000191690556040805133815290517faeb196d352664784d1900b0e7414a8face7d29f4dae8c4b0cf68ed477423bbf49181900360200190a1565b60055474010000000000000000000000000000000000000000900460ff1615611e95576040805160e560020a62461bcd02815260206004820152601260248201527f436f6e7472616374206973207061757365640000000000000000000000000000604482015290519081900360640190fd5b6005805474ff00000000000000000000000000000000000000001916740100000000000000000000000000000000000000001790556040805133815290517f5ee71a369c8672edded508e624ffc9257fa1ae6886ef32905c18e60196bca3999181900360200190a1565b8154818355818111156116685760008381526020902061166891810190830161077391905b80821115611f385760008155600101611f24565b509056fe496e76616c6964207065726d697373696f6e0000000000000000000000000000a165627a7a723058206df98ac8d52e10a2b0b04c486ccd2ae8d01d81b7934aa9a395a7b1819083ac850029",
  "source": "pragma solidity 0.5.8;\n\nimport \"./IPermissionManager.sol\";\nimport \"../Module.sol\";\nimport \"./GeneralPermissionManagerStorage.sol\";\nimport \"../../interfaces/ISecurityToken.sol\";\n\n/**\n * @title Permission Manager module for core permissioning functionality\n */\ncontract GeneralPermissionManager is GeneralPermissionManagerStorage, IPermissionManager, Module {\n\n    /// Event emitted after any permission get changed for the delegate\n    event ChangePermission(address indexed _delegate, address _module, bytes32 _perm, bool _valid);\n    /// Used to notify when delegate is added in permission manager contract\n    event AddDelegate(address indexed _delegate, bytes32 _details);\n\n    /// @notice constructor\n    constructor(address _securityToken, address _polyToken) public Module(_securityToken, _polyToken) {\n\n    }\n\n    /**\n     * @notice Init function i.e generalise function to maintain the structure of the module contract\n     * @return bytes4\n     */\n    function getInitFunction() public pure returns(bytes4) {\n        return bytes4(0);\n    }\n\n    /**\n     * @notice Used to check the permission on delegate corresponds to module contract address\n     * @param _delegate Ethereum address of the delegate\n     * @param _module Ethereum contract address of the module\n     * @param _perm Permission flag\n     * @return bool\n     */\n    function checkPermission(address _delegate, address _module, bytes32 _perm) external view returns(bool) {\n        if (delegateDetails[_delegate] != bytes32(0)) {\n            return perms[_module][_delegate][_perm];\n        } else return false;\n    }\n\n    /**\n     * @notice Used to add a delegate\n     * @param _delegate Ethereum address of the delegate\n     * @param _details Details about the delegate i.e `Belongs to financial firm`\n     */\n    function addDelegate(address _delegate, bytes32 _details) external withPerm(ADMIN) {\n        require(_delegate != address(0), \"Invalid address\");\n        require(_details != bytes32(0), \"0 value not allowed\");\n        require(delegateDetails[_delegate] == bytes32(0), \"Already present\");\n        delegateDetails[_delegate] = _details;\n        allDelegates.push(_delegate);\n        /*solium-disable-next-line security/no-block-members*/\n        emit AddDelegate(_delegate, _details);\n    }\n\n    /**\n     * @notice Used to delete a delegate\n     * @param _delegate Ethereum address of the delegate\n     */\n    function deleteDelegate(address _delegate) external withPerm(ADMIN) {\n        require(delegateDetails[_delegate] != bytes32(0), \"delegate does not exist\");\n        uint256 delegateLen = allDelegates.length;\n        for (uint256 i = 0; i < delegateLen; i++) {\n            if (allDelegates[i] == _delegate) {\n                allDelegates[i] = allDelegates[delegateLen - 1];\n                allDelegates.length--;\n                break;\n            }\n        }\n        delete delegateDetails[_delegate];\n    }\n\n    /**\n     * @notice Used to check if an address is a delegate or not\n     * @param _potentialDelegate the address of potential delegate\n     * @return bool\n     */\n    function checkDelegate(address _potentialDelegate) external view returns(bool) {\n        require(_potentialDelegate != address(0), \"Invalid address\");\n\n        if (delegateDetails[_potentialDelegate] != bytes32(0)) {\n            return true;\n        } else return false;\n    }\n\n    /**\n     * @notice Used to provide/change the permission to the delegate corresponds to the module contract\n     * @param _delegate Ethereum address of the delegate\n     * @param _module Ethereum contract address of the module\n     * @param _perm Permission flag\n     * @param _valid Bool flag use to switch on/off the permission\n     * @return bool\n     */\n    function changePermission(address _delegate, address _module, bytes32 _perm, bool _valid) public withPerm(ADMIN) {\n        require(_delegate != address(0), \"invalid address\");\n        _changePermission(_delegate, _module, _perm, _valid);\n    }\n\n    /**\n     * @notice Used to change one or more permissions for a single delegate at once\n     * @param _delegate Ethereum address of the delegate\n     * @param _modules Multiple module matching the multiperms, needs to be same length\n     * @param _perms Multiple permission flag needs to be changed\n     * @param _valids Bool array consist the flag to switch on/off the permission\n     * @return nothing\n     */\n    function changePermissionMulti(\n        address _delegate,\n        address[] memory _modules,\n        bytes32[] memory _perms,\n        bool[] memory _valids\n    )\n        public\n        withPerm(ADMIN)\n    {\n        require(_delegate != address(0), \"invalid address\");\n        require(_modules.length > 0, \"0 length is not allowed\");\n        require(_modules.length == _perms.length && _valids.length == _perms.length, \"Array length mismatch\");\n        for (uint256 i = 0; i < _perms.length; i++) {\n            _changePermission(_delegate, _modules[i], _perms[i], _valids[i]);\n        }\n    }\n\n    /**\n     * @notice Used to return all delegates with a given permission and module\n     * @param _module Ethereum contract address of the module\n     * @param _perm Permission flag\n     * @return address[]\n     */\n    function getAllDelegatesWithPerm(address _module, bytes32 _perm) external view returns(address[] memory) {\n        uint256 counter = 0;\n        uint256 i = 0;\n        for (i = 0; i < allDelegates.length; i++) {\n            if (perms[_module][allDelegates[i]][_perm]) {\n                counter++;\n            }\n        }\n        address[] memory allDelegatesWithPerm = new address[](counter);\n        counter = 0;\n        for (i = 0; i < allDelegates.length; i++) {\n            if (perms[_module][allDelegates[i]][_perm]) {\n                allDelegatesWithPerm[counter] = allDelegates[i];\n                counter++;\n            }\n        }\n        return allDelegatesWithPerm;\n    }\n\n    /**\n     * @notice Used to return all permission of a single or multiple module\n     * @dev possible that function get out of gas is there are lot of modules and perm related to them\n     * @param _delegate Ethereum address of the delegate\n     * @param _types uint8[] of types\n     * @return address[] the address array of Modules this delegate has permission\n     * @return bytes32[] the permission array of the corresponding Modules\n     */\n    function getAllModulesAndPermsFromTypes(address _delegate, uint8[] calldata _types) external view returns(\n        address[] memory,\n        bytes32[] memory\n    ) {\n        uint256 counter = 0;\n        // loop through _types and get their modules from securityToken->getModulesByType\n        for (uint256 i = 0; i < _types.length; i++) {\n            address[] memory _currentTypeModules = securityToken.getModulesByType(_types[i]);\n            // loop through each modules to get their perms from IModule->getPermissions\n            for (uint256 j = 0; j < _currentTypeModules.length; j++) {\n                bytes32[] memory _allModulePerms = IModule(_currentTypeModules[j]).getPermissions();\n                // loop through each perm, if it is true, push results into arrays\n                for (uint256 k = 0; k < _allModulePerms.length; k++) {\n                    if (perms[_currentTypeModules[j]][_delegate][_allModulePerms[k]]) {\n                        counter++;\n                    }\n                }\n            }\n        }\n\n        address[] memory _allModules = new address[](counter);\n        bytes32[] memory _allPerms = new bytes32[](counter);\n        counter = 0;\n\n        for (uint256 i = 0; i < _types.length; i++) {\n            address[] memory _currentTypeModules = securityToken.getModulesByType(_types[i]);\n            for (uint256 j = 0; j < _currentTypeModules.length; j++) {\n                bytes32[] memory _allModulePerms = IModule(_currentTypeModules[j]).getPermissions();\n                for (uint256 k = 0; k < _allModulePerms.length; k++) {\n                    if (perms[_currentTypeModules[j]][_delegate][_allModulePerms[k]]) {\n                        _allModules[counter] = _currentTypeModules[j];\n                        _allPerms[counter] = _allModulePerms[k];\n                        counter++;\n                    }\n                }\n            }\n        }\n\n        return (_allModules, _allPerms);\n    }\n\n    /**\n     * @notice Used to provide/change the permission to the delegate corresponds to the module contract\n     * @param _delegate Ethereum address of the delegate\n     * @param _module Ethereum contract address of the module\n     * @param _perm Permission flag\n     * @param _valid Bool flag use to switch on/off the permission\n     * @return bool\n     */\n    function _changePermission(address _delegate, address _module, bytes32 _perm, bool _valid) internal {\n        perms[_module][_delegate][_perm] = _valid;\n        /*solium-disable-next-line security/no-block-members*/\n        emit ChangePermission(_delegate, _module, _perm, _valid);\n    }\n\n    /**\n     * @notice Used to get all delegates\n     * @return address[]\n     */\n    function getAllDelegates() external view returns(address[] memory) {\n        return allDelegates;\n    }\n\n    /**\n    * @notice Returns the Permission flag related the `this` contract\n    * @return Array of permission flags\n    */\n    function getPermissions() public view returns(bytes32[] memory) {\n        bytes32[] memory allPermissions = new bytes32[](1);\n        allPermissions[0] = ADMIN;\n        return allPermissions;\n    }\n\n}\n",
  "sourcePath": "/Users/federicoelgarte/Polymath/polymath-core/contracts/modules/PermissionManager/GeneralPermissionManager.sol",
  "compiler": {
    "name": "solc",
    "version": "0.5.8+commit.23d335f2.Emscripten.clang"
  },
  "schemaVersion": "3.0.2",
  "updatedAt": "2019-07-19T14:56:31.239Z",
  "devdoc": {
    "methods": {
      "addDelegate(address,bytes32)": {
        "params": {
          "_delegate": "Ethereum address of the delegate",
          "_details": "Details about the delegate i.e `Belongs to financial firm`"
        }
      },
      "changePermission(address,address,bytes32,bool)": {
        "params": {
          "_delegate": "Ethereum address of the delegate",
          "_module": "Ethereum contract address of the module",
          "_perm": "Permission flag",
          "_valid": "Bool flag use to switch on/off the permission"
        },
        "return": "bool"
      },
      "changePermissionMulti(address,address[],bytes32[],bool[])": {
        "params": {
          "_delegate": "Ethereum address of the delegate",
          "_modules": "Multiple module matching the multiperms, needs to be same length",
          "_perms": "Multiple permission flag needs to be changed",
          "_valids": "Bool array consist the flag to switch on/off the permission"
        },
        "return": "nothing"
      },
      "checkDelegate(address)": {
        "params": {
          "_potentialDelegate": "the address of potential delegate"
        },
        "return": "bool"
      },
      "checkPermission(address,address,bytes32)": {
        "params": {
          "_delegate": "Ethereum address of the delegate",
          "_module": "Ethereum contract address of the module",
          "_perm": "Permission flag"
        },
        "return": "bool"
      },
      "deleteDelegate(address)": {
        "params": {
          "_delegate": "Ethereum address of the delegate"
        }
      },
      "getAllDelegates()": {
        "return": "address[]"
      },
      "getAllDelegatesWithPerm(address,bytes32)": {
        "params": {
          "_module": "Ethereum contract address of the module",
          "_perm": "Permission flag"
        },
        "return": "address[]"
      },
      "getAllModulesAndPermsFromTypes(address,uint8[])": {
        "details": "possible that function get out of gas is there are lot of modules and perm related to them",
        "params": {
          "_delegate": "Ethereum address of the delegate",
          "_types": "uint8[] of types"
        },
        "return": "address[] the address array of Modules this delegate has permissionbytes32[] the permission array of the corresponding Modules"
      },
      "getInitFunction()": {
        "return": "bytes4"
      },
      "getPermissions()": {
        "return": "Array of permission flags"
      },
      "reclaimERC20(address)": {
        "details": "We duplicate here due to the overriden owner & onlyOwner",
        "params": {
          "_tokenContract": "The address of the token contract"
        }
      },
      "reclaimETH()": {
        "details": "We duplicate here due to the overriden owner & onlyOwner"
      }
    },
    "title": "Permission Manager module for core permissioning functionality"
  },
  "userdoc": {
    "methods": {
      "addDelegate(address,bytes32)": {
        "notice": "Used to add a delegate"
      },
      "changePermission(address,address,bytes32,bool)": {
        "notice": "Used to provide/change the permission to the delegate corresponds to the module contract"
      },
      "changePermissionMulti(address,address[],bytes32[],bool[])": {
        "notice": "Used to change one or more permissions for a single delegate at once"
      },
      "checkDelegate(address)": {
        "notice": "Used to check if an address is a delegate or not"
      },
      "checkPermission(address,address,bytes32)": {
        "notice": "Used to check the permission on delegate corresponds to module contract address"
      },
      "constructor": "constructor",
      "deleteDelegate(address)": {
        "notice": "Used to delete a delegate"
      },
      "getAllDelegates()": {
        "notice": "Used to get all delegates"
      },
      "getAllDelegatesWithPerm(address,bytes32)": {
        "notice": "Used to return all delegates with a given permission and module"
      },
      "getAllModulesAndPermsFromTypes(address,uint8[])": {
        "notice": "Used to return all permission of a single or multiple module"
      },
      "getDataStore()": {
        "notice": "used to return the data store address of securityToken"
      },
      "getInitFunction()": {
        "notice": "Init function i.e generalise function to maintain the structure of the module contract"
      },
      "getPermissions()": {
        "notice": "Returns the Permission flag related the `this` contract"
      },
      "pause()": {
        "notice": "Pause (overridden function)"
      },
      "reclaimERC20(address)": {
        "notice": "Reclaims ERC20Basic compatible tokens"
      },
      "reclaimETH()": {
        "notice": "Reclaims ETH"
      },
      "unpause()": {
        "notice": "Unpause (overridden function)"
      }
    }
  }
}