{
  "contractName": "GeneralTransferManager",
  "abi": [
    {
      "constant": true,
      "inputs": [],
      "name": "allowAllBurnTransfers",
      "outputs": [
        {
          "name": "",
          "type": "bool"
        }
      ],
      "payable": false,
      "stateMutability": "view",
      "type": "function"
    },
    {
      "constant": true,
      "inputs": [],
      "name": "WHITELIST",
      "outputs": [
        {
          "name": "",
          "type": "bytes32"
        }
      ],
      "payable": false,
      "stateMutability": "view",
      "type": "function"
    },
    {
      "constant": true,
      "inputs": [],
      "name": "allowAllWhitelistTransfers",
      "outputs": [
        {
          "name": "",
          "type": "bool"
        }
      ],
      "payable": false,
      "stateMutability": "view",
      "type": "function"
    },
    {
      "constant": false,
      "inputs": [],
      "name": "unpause",
      "outputs": [],
      "payable": false,
      "stateMutability": "nonpayable",
      "type": "function"
    },
    {
      "constant": true,
      "inputs": [
        {
          "name": "",
          "type": "uint256"
        }
      ],
      "name": "investors",
      "outputs": [
        {
          "name": "",
          "type": "address"
        }
      ],
      "payable": false,
      "stateMutability": "view",
      "type": "function"
    },
    {
      "constant": true,
      "inputs": [],
      "name": "paused",
      "outputs": [
        {
          "name": "",
          "type": "bool"
        }
      ],
      "payable": false,
      "stateMutability": "view",
      "type": "function"
    },
    {
      "constant": false,
      "inputs": [
        {
          "name": "_amount",
          "type": "uint256"
        }
      ],
      "name": "takeFee",
      "outputs": [
        {
          "name": "",
          "type": "bool"
        }
      ],
      "payable": false,
      "stateMutability": "nonpayable",
      "type": "function"
    },
    {
      "constant": true,
      "inputs": [],
      "name": "polyToken",
      "outputs": [
        {
          "name": "",
          "type": "address"
        }
      ],
      "payable": false,
      "stateMutability": "view",
      "type": "function"
    },
    {
      "constant": false,
      "inputs": [],
      "name": "pause",
      "outputs": [],
      "payable": false,
      "stateMutability": "nonpayable",
      "type": "function"
    },
    {
      "constant": true,
      "inputs": [],
      "name": "FLAGS",
      "outputs": [
        {
          "name": "",
          "type": "bytes32"
        }
      ],
      "payable": false,
      "stateMutability": "view",
      "type": "function"
    },
    {
      "constant": true,
      "inputs": [
        {
          "name": "",
          "type": "address"
        }
      ],
      "name": "whitelist",
      "outputs": [
        {
          "name": "canSendAfter",
          "type": "uint64"
        },
        {
          "name": "canReceiveAfter",
          "type": "uint64"
        },
        {
          "name": "expiryTime",
          "type": "uint64"
        },
        {
          "name": "canBuyFromSTO",
          "type": "uint8"
        },
        {
          "name": "added",
          "type": "uint8"
        }
      ],
      "payable": false,
      "stateMutability": "view",
      "type": "function"
    },
    {
      "constant": true,
      "inputs": [
        {
          "name": "",
          "type": "address"
        },
        {
          "name": "",
          "type": "uint256"
        }
      ],
      "name": "nonceMap",
      "outputs": [
        {
          "name": "",
          "type": "bool"
        }
      ],
      "payable": false,
      "stateMutability": "view",
      "type": "function"
    },
    {
      "constant": true,
      "inputs": [],
      "name": "allowAllTransfers",
      "outputs": [
        {
          "name": "",
          "type": "bool"
        }
      ],
      "payable": false,
      "stateMutability": "view",
      "type": "function"
    },
    {
      "constant": true,
      "inputs": [],
      "name": "signingAddress",
      "outputs": [
        {
          "name": "",
          "type": "address"
        }
      ],
      "payable": false,
      "stateMutability": "view",
      "type": "function"
    },
    {
      "constant": true,
      "inputs": [],
      "name": "issuanceAddress",
      "outputs": [
        {
          "name": "",
          "type": "address"
        }
      ],
      "payable": false,
      "stateMutability": "view",
      "type": "function"
    },
    {
      "constant": true,
      "inputs": [],
      "name": "securityToken",
      "outputs": [
        {
          "name": "",
          "type": "address"
        }
      ],
      "payable": false,
      "stateMutability": "view",
      "type": "function"
    },
    {
      "constant": true,
      "inputs": [],
      "name": "factory",
      "outputs": [
        {
          "name": "",
          "type": "address"
        }
      ],
      "payable": false,
      "stateMutability": "view",
      "type": "function"
    },
    {
      "constant": true,
      "inputs": [],
      "name": "FEE_ADMIN",
      "outputs": [
        {
          "name": "",
          "type": "bytes32"
        }
      ],
      "payable": false,
      "stateMutability": "view",
      "type": "function"
    },
    {
      "constant": true,
      "inputs": [],
      "name": "allowAllWhitelistIssuances",
      "outputs": [
        {
          "name": "",
          "type": "bool"
        }
      ],
      "payable": false,
      "stateMutability": "view",
      "type": "function"
    },
    {
      "constant": true,
      "inputs": [],
      "name": "defaults",
      "outputs": [
        {
          "name": "canSendAfter",
          "type": "uint64"
        },
        {
          "name": "canReceiveAfter",
          "type": "uint64"
        }
      ],
      "payable": false,
      "stateMutability": "view",
      "type": "function"
    },
    {
      "inputs": [
        {
          "name": "_securityToken",
          "type": "address"
        },
        {
          "name": "_polyAddress",
          "type": "address"
        }
      ],
      "payable": false,
      "stateMutability": "nonpayable",
      "type": "constructor"
    },
    {
      "anonymous": false,
      "inputs": [
        {
          "indexed": false,
          "name": "_issuanceAddress",
          "type": "address"
        }
      ],
      "name": "ChangeIssuanceAddress",
      "type": "event"
    },
    {
      "anonymous": false,
      "inputs": [
        {
          "indexed": false,
          "name": "_allowAllTransfers",
          "type": "bool"
        }
      ],
      "name": "AllowAllTransfers",
      "type": "event"
    },
    {
      "anonymous": false,
      "inputs": [
        {
          "indexed": false,
          "name": "_allowAllWhitelistTransfers",
          "type": "bool"
        }
      ],
      "name": "AllowAllWhitelistTransfers",
      "type": "event"
    },
    {
      "anonymous": false,
      "inputs": [
        {
          "indexed": false,
          "name": "_allowAllWhitelistIssuances",
          "type": "bool"
        }
      ],
      "name": "AllowAllWhitelistIssuances",
      "type": "event"
    },
    {
      "anonymous": false,
      "inputs": [
        {
          "indexed": false,
          "name": "_allowAllBurnTransfers",
          "type": "bool"
        }
      ],
      "name": "AllowAllBurnTransfers",
      "type": "event"
    },
    {
      "anonymous": false,
      "inputs": [
        {
          "indexed": false,
          "name": "_signingAddress",
          "type": "address"
        }
      ],
      "name": "ChangeSigningAddress",
      "type": "event"
    },
    {
      "anonymous": false,
      "inputs": [
        {
          "indexed": false,
          "name": "_defaultCanSendAfter",
          "type": "uint64"
        },
        {
          "indexed": false,
          "name": "_defaultCanReceiveAfter",
          "type": "uint64"
        }
      ],
      "name": "ChangeDefaults",
      "type": "event"
    },
    {
      "anonymous": false,
      "inputs": [
        {
          "indexed": true,
          "name": "_investor",
          "type": "address"
        },
        {
          "indexed": false,
          "name": "_dateAdded",
          "type": "uint256"
        },
        {
          "indexed": true,
          "name": "_addedBy",
          "type": "address"
        },
        {
          "indexed": false,
          "name": "_canSendAfter",
          "type": "uint256"
        },
        {
          "indexed": false,
          "name": "_canReceiveAfter",
          "type": "uint256"
        },
        {
          "indexed": false,
          "name": "_expiryTime",
          "type": "uint256"
        },
        {
          "indexed": false,
          "name": "_canBuyFromSTO",
          "type": "bool"
        }
      ],
      "name": "ModifyWhitelist",
      "type": "event"
    },
    {
      "anonymous": false,
      "inputs": [
        {
          "indexed": false,
          "name": "_timestammp",
          "type": "uint256"
        }
      ],
      "name": "Pause",
      "type": "event"
    },
    {
      "anonymous": false,
      "inputs": [
        {
          "indexed": false,
          "name": "_timestamp",
          "type": "uint256"
        }
      ],
      "name": "Unpause",
      "type": "event"
    },
    {
      "constant": true,
      "inputs": [],
      "name": "getInitFunction",
      "outputs": [
        {
          "name": "",
          "type": "bytes4"
        }
      ],
      "payable": false,
      "stateMutability": "pure",
      "type": "function"
    },
    {
      "constant": false,
      "inputs": [
        {
          "name": "_defaultCanSendAfter",
          "type": "uint64"
        },
        {
          "name": "_defaultCanReceiveAfter",
          "type": "uint64"
        }
      ],
      "name": "changeDefaults",
      "outputs": [],
      "payable": false,
      "stateMutability": "nonpayable",
      "type": "function"
    },
    {
      "constant": false,
      "inputs": [
        {
          "name": "_issuanceAddress",
          "type": "address"
        }
      ],
      "name": "changeIssuanceAddress",
      "outputs": [],
      "payable": false,
      "stateMutability": "nonpayable",
      "type": "function"
    },
    {
      "constant": false,
      "inputs": [
        {
          "name": "_signingAddress",
          "type": "address"
        }
      ],
      "name": "changeSigningAddress",
      "outputs": [],
      "payable": false,
      "stateMutability": "nonpayable",
      "type": "function"
    },
    {
      "constant": false,
      "inputs": [
        {
          "name": "_allowAllTransfers",
          "type": "bool"
        }
      ],
      "name": "changeAllowAllTransfers",
      "outputs": [],
      "payable": false,
      "stateMutability": "nonpayable",
      "type": "function"
    },
    {
      "constant": false,
      "inputs": [
        {
          "name": "_allowAllWhitelistTransfers",
          "type": "bool"
        }
      ],
      "name": "changeAllowAllWhitelistTransfers",
      "outputs": [],
      "payable": false,
      "stateMutability": "nonpayable",
      "type": "function"
    },
    {
      "constant": false,
      "inputs": [
        {
          "name": "_allowAllWhitelistIssuances",
          "type": "bool"
        }
      ],
      "name": "changeAllowAllWhitelistIssuances",
      "outputs": [],
      "payable": false,
      "stateMutability": "nonpayable",
      "type": "function"
    },
    {
      "constant": false,
      "inputs": [
        {
          "name": "_allowAllBurnTransfers",
          "type": "bool"
        }
      ],
      "name": "changeAllowAllBurnTransfers",
      "outputs": [],
      "payable": false,
      "stateMutability": "nonpayable",
      "type": "function"
    },
    {
      "constant": false,
      "inputs": [
        {
          "name": "_from",
          "type": "address"
        },
        {
          "name": "_to",
          "type": "address"
        },
        {
          "name": "",
          "type": "uint256"
        },
        {
          "name": "",
          "type": "bytes"
        },
        {
          "name": "",
          "type": "bool"
        }
      ],
      "name": "verifyTransfer",
      "outputs": [
        {
          "name": "",
          "type": "uint8"
        }
      ],
      "payable": false,
      "stateMutability": "nonpayable",
      "type": "function"
    },
    {
      "constant": false,
      "inputs": [
        {
          "name": "_investor",
          "type": "address"
        },
        {
          "name": "_canSendAfter",
          "type": "uint256"
        },
        {
          "name": "_canReceiveAfter",
          "type": "uint256"
        },
        {
          "name": "_expiryTime",
          "type": "uint256"
        },
        {
          "name": "_canBuyFromSTO",
          "type": "bool"
        }
      ],
      "name": "modifyWhitelist",
      "outputs": [],
      "payable": false,
      "stateMutability": "nonpayable",
      "type": "function"
    },
    {
      "constant": false,
      "inputs": [
        {
          "name": "_investors",
          "type": "address[]"
        },
        {
          "name": "_canSendAfters",
          "type": "uint256[]"
        },
        {
          "name": "_canReceiveAfters",
          "type": "uint256[]"
        },
        {
          "name": "_expiryTimes",
          "type": "uint256[]"
        },
        {
          "name": "_canBuyFromSTO",
          "type": "bool[]"
        }
      ],
      "name": "modifyWhitelistMulti",
      "outputs": [],
      "payable": false,
      "stateMutability": "nonpayable",
      "type": "function"
    },
    {
      "constant": false,
      "inputs": [
        {
          "name": "_investor",
          "type": "address"
        },
        {
          "name": "_canSendAfter",
          "type": "uint256"
        },
        {
          "name": "_canReceiveAfter",
          "type": "uint256"
        },
        {
          "name": "_expiryTime",
          "type": "uint256"
        },
        {
          "name": "_canBuyFromSTO",
          "type": "bool"
        },
        {
          "name": "_validFrom",
          "type": "uint256"
        },
        {
          "name": "_validTo",
          "type": "uint256"
        },
        {
          "name": "_nonce",
          "type": "uint256"
        },
        {
          "name": "_v",
          "type": "uint8"
        },
        {
          "name": "_r",
          "type": "bytes32"
        },
        {
          "name": "_s",
          "type": "bytes32"
        }
      ],
      "name": "modifyWhitelistSigned",
      "outputs": [],
      "payable": false,
      "stateMutability": "nonpayable",
      "type": "function"
    },
    {
      "constant": true,
      "inputs": [],
      "name": "getInvestors",
      "outputs": [
        {
          "name": "",
          "type": "address[]"
        }
      ],
      "payable": false,
      "stateMutability": "view",
      "type": "function"
    },
    {
      "constant": true,
      "inputs": [],
      "name": "getAllInvestorsData",
      "outputs": [
        {
          "name": "",
          "type": "address[]"
        },
        {
          "name": "",
          "type": "uint256[]"
        },
        {
          "name": "",
          "type": "uint256[]"
        },
        {
          "name": "",
          "type": "uint256[]"
        },
        {
          "name": "",
          "type": "bool[]"
        }
      ],
      "payable": false,
      "stateMutability": "view",
      "type": "function"
    },
    {
      "constant": true,
      "inputs": [
        {
          "name": "_investors",
          "type": "address[]"
        }
      ],
      "name": "getInvestorsData",
      "outputs": [
        {
          "name": "",
          "type": "uint256[]"
        },
        {
          "name": "",
          "type": "uint256[]"
        },
        {
          "name": "",
          "type": "uint256[]"
        },
        {
          "name": "",
          "type": "bool[]"
        }
      ],
      "payable": false,
      "stateMutability": "view",
      "type": "function"
    },
    {
      "constant": true,
      "inputs": [],
      "name": "getPermissions",
      "outputs": [
        {
          "name": "",
          "type": "bytes32[]"
        }
      ],
      "payable": false,
      "stateMutability": "view",
      "type": "function"
    }
  ],
  "bytecode": "0x608060405260008054600160a060020a03199081169091556001805490911690556006805463ff0000001962ffffff1990911662010000171690556008805460a060020a60ff021916905534801561005657600080fd5b5060405160408061375883398101604052805160209091015160078054600160a060020a0319908116600160a060020a0394851617909155600680547fffffffffffffffff0000000000000000000000000000000000000000ffffffff1633640100000000021790556008805490911692909116919091179055613679806100df6000396000f3006080604052600436106101a85763ffffffff60e060020a6000350416630f28937c81146101ad57806311bae020146102e8578063144b8afa1461042b5780631613ec9d146104545780631bb7cc991461049e5780632079dc34146104c55780632909a80e146106425780633f0547bb146106575780633f4ba83a146106715780633feb5f2b146106865780634caaf45f146106ba5780635c975abb146106db5780635f7619a4146106f05780636faa22a5146107085780637ecc866f1461071d5780638456cb59146107375780639332b62c1461074c5780639728538f146107665780639b19251a1461077b5780639ba0b7c0146107dd578063b1dd811114610801578063b2f5a54c14610816578063b3e82dc91461087b578063b3fac8ce14610890578063b84dfbd2146108a5578063c3a07df6146108ba578063c45a0155146108cf578063d70afa96146108e4578063d7604a78146108f9578063de6ee1bc14610928578063e0c68158146109bf578063e55d0f8b146109e0578063e8a28d52146109f5578063edb7a6fa14610a0f578063ee2ba80c14610a4b578063f5c1923114610a73575b600080fd5b3480156101b957600080fd5b50604080516020600480358082013583810280860185019096528085526102e695369593946024949385019291829185019084908082843750506040805187358901803560208181028481018201909552818452989b9a998901989297509082019550935083925085019084908082843750506040805187358901803560208181028481018201909552818452989b9a998901989297509082019550935083925085019084908082843750506040805187358901803560208181028481018201909552818452989b9a998901989297509082019550935083925085019084908082843750506040805187358901803560208181028481018201909552818452989b9a998901989297509082019550935083925085019084908082843750949750610aba9650505050505050565b005b3480156102f457600080fd5b506103086004803560248101910135610e54565b6040518080602001806020018060200180602001858103855289818151815260200191508051906020019060200280838360005b8381101561035457818101518382015260200161033c565b50505050905001858103845288818151815260200191508051906020019060200280838360005b8381101561039357818101518382015260200161037b565b50505050905001858103835287818151815260200191508051906020019060200280838360005b838110156103d25781810151838201526020016103ba565b50505050905001858103825286818151815260200191508051906020019060200280838360005b838110156104115781810151838201526020016103f9565b505050509050019850505050505050505060405180910390f35b34801561043757600080fd5b50610440610ea0565b604080519115158252519081900360200190f35b34801561046057600080fd5b50610469610eb0565b604080517fffffffff000000000000000000000000000000000000000000000000000000009092168252519081900360200190f35b3480156104aa57600080fd5b506104b3610eb5565b60408051918252519081900360200190f35b3480156104d157600080fd5b506104da610ec7565b60405180806020018060200180602001806020018060200186810386528b818151815260200191508051906020019060200280838360005b8381101561052a578181015183820152602001610512565b5050505090500186810385528a818151815260200191508051906020019060200280838360005b83811015610569578181015183820152602001610551565b50505050905001868103845289818151815260200191508051906020019060200280838360005b838110156105a8578181015183820152602001610590565b50505050905001868103835288818151815260200191508051906020019060200280838360005b838110156105e75781810151838201526020016105cf565b50505050905001868103825287818151815260200191508051906020019060200280838360005b8381101561062657818101518382015260200161060e565b505050509050019a505050505050505050505060405180910390f35b34801561064e57600080fd5b50610440610fb7565b34801561066357600080fd5b506102e66004351515610fc5565b34801561067d57600080fd5b506102e661119c565b34801561069257600080fd5b5061069e600435611284565b60408051600160a060020a039092168252519081900360200190f35b3480156106c657600080fd5b506102e6600160a060020a03600435166112ac565b3480156106e757600080fd5b5061044061149d565b3480156106fc57600080fd5b506104406004356114be565b34801561071457600080fd5b5061069e6117e8565b34801561072957600080fd5b506102e660043515156117f7565b34801561074357600080fd5b506102e66119d8565b34801561075857600080fd5b506102e66004351515611abe565b34801561077257600080fd5b506104b3611c9d565b34801561078757600080fd5b5061079c600160a060020a0360043516611cac565b6040805167ffffffffffffffff96871681529486166020860152929094168383015260ff908116606084015292909216608082015290519081900360a00190f35b3480156107e957600080fd5b50610440600160a060020a0360043516602435611d2f565b34801561080d57600080fd5b50610440611d4f565b34801561082257600080fd5b5061082b611d58565b60408051602080825283518183015283519192839290830191858101910280838360005b8381101561086757818101518382015260200161084f565b505050509050019250505060405180910390f35b34801561088757600080fd5b5061069e611dba565b34801561089c57600080fd5b5061069e611dc9565b3480156108b157600080fd5b5061069e611dd8565b3480156108c657600080fd5b5061082b611de7565b3480156108db57600080fd5b5061069e611e5e565b3480156108f057600080fd5b506104b3611e75565b34801561090557600080fd5b506102e6600160a060020a03600435166024356044356064356084351515611e99565b34801561093457600080fd5b50604080516020601f60643560048181013592830184900484028501840190955281845261099b94600160a060020a038135811695602480359092169560443595369560849401918190840183828082843750949750505050913515159250612040915050565b604051808260038111156109ab57fe5b60ff16815260200191505060405180910390f35b3480156109cb57600080fd5b506102e6600160a060020a0360043516612228565b3480156109ec57600080fd5b50610440612419565b348015610a0157600080fd5b506102e66004351515612428565b348015610a1b57600080fd5b50610a2461260b565b6040805167ffffffffffffffff938416815291909216602082015281519081900390910190f35b348015610a5757600080fd5b506102e667ffffffffffffffff6004358116906024351661262b565b348015610a7f57600080fd5b506102e6600160a060020a0360043516602435604435606435608435151560a43560c43560e43560ff61010435166101243561014435612840565b600060008051602061360e833981519152600080600760009054906101000a9004600160a060020a0316600160a060020a0316638da5cb5b6040518163ffffffff1660e060020a028152600401602060405180830381600087803b158015610b2157600080fd5b505af1158015610b35573d6000803e3d6000fd5b505050506040513d6020811015610b4b57600080fd5b505160065433600160a060020a03928316811494506401000000009091049091161490508180610b785750805b80610c0857506007546040805160e060020a638658b8b9028152336004820152306024820152604481018690529051600160a060020a0390921691638658b8b9916064808201926020929091908290030181600087803b158015610bdb57600080fd5b505af1158015610bef573d6000803e3d6000fd5b505050506040513d6020811015610c0557600080fd5b50515b1515610c4c576040805160e560020a62461bcd028152602060048201526017602482015260008051602061362e833981519152604482015290519081900360640190fd5b8751895114610ca5576040805160e560020a62461bcd02815260206004820152601860248201527f4d69736d61746368656420696e707574206c656e677468730000000000000000604482015290519081900360640190fd5b8651885114610cfe576040805160e560020a62461bcd02815260206004820152601860248201527f4d69736d61746368656420696e707574206c656e677468730000000000000000604482015290519081900360640190fd5b8551875114610d57576040805160e560020a62461bcd02815260206004820152601860248201527f4d69736d61746368656420696e707574206c656e677468730000000000000000604482015290519081900360640190fd5b8651855114610db0576040805160e560020a62461bcd02815260206004820152601760248201527f4d69736d61746368656420696e707574206c656e677468000000000000000000604482015290519081900360640190fd5b600093505b8851841015610e4957610e3e8985815181101515610dcf57fe5b906020019060200201518986815181101515610de757fe5b906020019060200201518987815181101515610dff57fe5b906020019060200201518988815181101515610e1757fe5b906020019060200201518989815181101515610e2f57fe5b90602001906020020151612aa5565b600190930192610db5565b505050505050505050565b606080606080610e9086868080602002602001604051908101604052809392919081815260200183836020028082843750612df4945050505050565b9299919850965090945092505050565b6006546301000000900460ff1681565b600090565b60008051602061360e83398151915281565b6060806060806060806060806060610f386003805480602002602001604051908101604052809291908181526020018280548015610f2e57602002820191906000526020600020905b8154600160a060020a03168152600190910190602001808311610f10575b5050505050612df4565b935093509350935060038484848484805480602002602001604051908101604052809291908181526020018280548015610f9b57602002820191906000526020600020905b8154600160a060020a03168152600190910190602001808311610f7d575b5050505050945098509850985098509850505050509091929394565b600654610100900460ff1681565b60d860020a64464c41475302600080600760009054906101000a9004600160a060020a0316600160a060020a0316638da5cb5b6040518163ffffffff1660e060020a028152600401602060405180830381600087803b15801561102757600080fd5b505af115801561103b573d6000803e3d6000fd5b505050506040513d602081101561105157600080fd5b505160065433600160a060020a0392831681149450640100000000909104909116149050818061107e5750805b8061110e57506007546040805160e060020a638658b8b9028152336004820152306024820152604481018690529051600160a060020a0390921691638658b8b9916064808201926020929091908290030181600087803b1580156110e157600080fd5b505af11580156110f5573d6000803e3d6000fd5b505050506040513d602081101561110b57600080fd5b50515b1515611152576040805160e560020a62461bcd028152602060048201526017602482015260008051602061362e833981519152604482015290519081900360640190fd5b6006805485151560ff19909116811790915560408051918252517fae2c9b7ebf181a59fcf3d24127f903b5b0345b3b81454442bebdee22b3aabde99181900360200190a150505050565b600760009054906101000a9004600160a060020a0316600160a060020a0316638da5cb5b6040518163ffffffff1660e060020a028152600401602060405180830381600087803b1580156111ef57600080fd5b505af1158015611203573d6000803e3d6000fd5b505050506040513d602081101561121957600080fd5b5051600160a060020a0316331461127a576040805160e560020a62461bcd02815260206004820152601360248201527f53656e646572206973206e6f74206f776e657200000000000000000000000000604482015290519081900360640190fd5b6112826130b3565b565b600380548290811061129257fe5b600091825260209091200154600160a060020a0316905081565b60d860020a64464c41475302600080600760009054906101000a9004600160a060020a0316600160a060020a0316638da5cb5b6040518163ffffffff1660e060020a028152600401602060405180830381600087803b15801561130e57600080fd5b505af1158015611322573d6000803e3d6000fd5b505050506040513d602081101561133857600080fd5b505160065433600160a060020a039283168114945064010000000090910490911614905081806113655750805b806113f557506007546040805160e060020a638658b8b9028152336004820152306024820152604481018690529051600160a060020a0390921691638658b8b9916064808201926020929091908290030181600087803b1580156113c857600080fd5b505af11580156113dc573d6000803e3d6000fd5b505050506040513d60208110156113f257600080fd5b50515b1515611439576040805160e560020a62461bcd028152602060048201526017602482015260008051602061362e833981519152604482015290519081900360640190fd5b60018054600160a060020a03861673ffffffffffffffffffffffffffffffffffffffff19909116811790915560408051918252517f82ef67454f9b99f9e532e149d0fd486c3460e5b8cb68c47a3a95a2ffb8e1fe369181900360200190a150505050565b60085474010000000000000000000000000000000000000000900460ff1681565b60007f4645455f41444d494e0000000000000000000000000000000000000000000000600080600760009054906101000a9004600160a060020a0316600160a060020a0316638da5cb5b6040518163ffffffff1660e060020a028152600401602060405180830381600087803b15801561153757600080fd5b505af115801561154b573d6000803e3d6000fd5b505050506040513d602081101561156157600080fd5b505160065433600160a060020a0392831681149450640100000000909104909116149050818061158e5750805b8061161e57506007546040805160e060020a638658b8b9028152336004820152306024820152604481018690529051600160a060020a0390921691638658b8b9916064808201926020929091908290030181600087803b1580156115f157600080fd5b505af1158015611605573d6000803e3d6000fd5b505050506040513d602081101561161b57600080fd5b50515b1515611662576040805160e560020a62461bcd028152602060048201526017602482015260008051602061362e833981519152604482015290519081900360640190fd5b600854600754600654604080517f8da5cb5b0000000000000000000000000000000000000000000000000000000081529051600160a060020a03948516946323b872dd9481169364010000000090041691638da5cb5b9160048281019260209291908290030181600087803b1580156116da57600080fd5b505af11580156116ee573d6000803e3d6000fd5b505050506040513d602081101561170457600080fd5b50516040805160e060020a63ffffffff8616028152600160a060020a039384166004820152929091166024830152604482018990525160648083019260209291908290030181600087803b15801561175b57600080fd5b505af115801561176f573d6000803e3d6000fd5b505050506040513d602081101561178557600080fd5b505115156117dd576040805160e560020a62461bcd02815260206004820152601260248201527f556e61626c6520746f2074616b65206665650000000000000000000000000000604482015290519081900360640190fd5b506001949350505050565b600854600160a060020a031681565b60d860020a64464c41475302600080600760009054906101000a9004600160a060020a0316600160a060020a0316638da5cb5b6040518163ffffffff1660e060020a028152600401602060405180830381600087803b15801561185957600080fd5b505af115801561186d573d6000803e3d6000fd5b505050506040513d602081101561188357600080fd5b505160065433600160a060020a039283168114945064010000000090910490911614905081806118b05750805b8061194057506007546040805160e060020a638658b8b9028152336004820152306024820152604481018690529051600160a060020a0390921691638658b8b9916064808201926020929091908290030181600087803b15801561191357600080fd5b505af1158015611927573d6000803e3d6000fd5b505050506040513d602081101561193d57600080fd5b50515b1515611984576040805160e560020a62461bcd028152602060048201526017602482015260008051602061362e833981519152604482015290519081900360640190fd5b6006805485151562010000810262ff0000199092169190911790915560408051918252517f83c2e8b0976b04b49f0e5828c064a239880ff3d68d2f14ffdd30a31bb734d1939181900360200190a150505050565b600760009054906101000a9004600160a060020a0316600160a060020a0316638da5cb5b6040518163ffffffff1660e060020a028152600401602060405180830381600087803b158015611a2b57600080fd5b505af1158015611a3f573d6000803e3d6000fd5b505050506040513d6020811015611a5557600080fd5b5051600160a060020a03163314611ab6576040805160e560020a62461bcd02815260206004820152601360248201527f53656e646572206973206e6f74206f776e657200000000000000000000000000604482015290519081900360640190fd5b61128261317a565b60d860020a64464c41475302600080600760009054906101000a9004600160a060020a0316600160a060020a0316638da5cb5b6040518163ffffffff1660e060020a028152600401602060405180830381600087803b158015611b2057600080fd5b505af1158015611b34573d6000803e3d6000fd5b505050506040513d6020811015611b4a57600080fd5b505160065433600160a060020a03928316811494506401000000009091049091161490508180611b775750805b80611c0757506007546040805160e060020a638658b8b9028152336004820152306024820152604481018690529051600160a060020a0390921691638658b8b9916064808201926020929091908290030181600087803b158015611bda57600080fd5b505af1158015611bee573d6000803e3d6000fd5b505050506040513d6020811015611c0457600080fd5b50515b1515611c4b576040805160e560020a62461bcd028152602060048201526017602482015260008051602061362e833981519152604482015290519081900360640190fd5b60068054851515610100810261ff00199092169190911790915560408051918252517f53a6bab5b50dfca289500469494dc3a8d40681a9e6f36feddcf52e56238e5b2f9181900360200190a150505050565b60d860020a64464c4147530281565b60046020526000908152604090205467ffffffffffffffff808216916801000000000000000081048216917001000000000000000000000000000000008204169060ff7801000000000000000000000000000000000000000000000000820481169179010000000000000000000000000000000000000000000000000090041685565b600560209081526000928352604080842090915290825290205460ff1681565b60065460ff1681565b60606003805480602002602001604051908101604052809291908181526020018280548015611db057602002820191906000526020600020905b8154600160a060020a03168152600190910190602001808311611d92575b5050505050905090565b600154600160a060020a031681565b600054600160a060020a031681565b600754600160a060020a031681565b60408051600280825260608083018452928392919060208301908038833901905050905060008051602061360e833981519152816000815181101515611e2957fe5b60209081029091010152805160d860020a64464c414753029082906001908110611e4f57fe5b60209081029091010152905090565b6006546401000000009004600160a060020a031681565b7f4645455f41444d494e000000000000000000000000000000000000000000000081565b60008051602061360e833981519152600080600760009054906101000a9004600160a060020a0316600160a060020a0316638da5cb5b6040518163ffffffff1660e060020a028152600401602060405180830381600087803b158015611efe57600080fd5b505af1158015611f12573d6000803e3d6000fd5b505050506040513d6020811015611f2857600080fd5b505160065433600160a060020a03928316811494506401000000009091049091161490508180611f555750805b80611fe557506007546040805160e060020a638658b8b9028152336004820152306024820152604481018690529051600160a060020a0390921691638658b8b9916064808201926020929091908290030181600087803b158015611fb857600080fd5b505af1158015611fcc573d6000803e3d6000fd5b505050506040513d6020811015611fe257600080fd5b50515b1515612029576040805160e560020a62461bcd028152602060048201526017602482015260008051602061362e833981519152604482015290519081900360640190fd5b6120368888888888612aa5565b5050505050505050565b6000806000600860149054906101000a900460ff1615156122185760065460ff161561206f576002925061221d565b6006546301000000900460ff16801561208f5750600160a060020a038716155b1561209d576002925061221d565b600654610100900460ff16156120db576120b687613257565b80156120c657506120c688613257565b6120d15760016120d4565b60025b925061221d565b600160a060020a0380891660009081526004602052604080822054928a1682529020546121219167ffffffffffffffff9081169168010000000000000000900416613296565b6000549193509150600160a060020a03898116911614156121df57600160a060020a0387166000908152600460205260409020547801000000000000000000000000000000000000000000000000900460ff1615801561218457506121846132f3565b15612192576001925061221d565b60065462010000900460ff16156121ac576120c687613257565b6121b587613257565b80156120c657504267ffffffffffffffff168167ffffffffffffffff1611156120d15760016120d4565b6121e888613257565b801561220857504267ffffffffffffffff168267ffffffffffffffff1611155b80156120c657506121b587613257565b600192505b505095945050505050565b60d860020a64464c41475302600080600760009054906101000a9004600160a060020a0316600160a060020a0316638da5cb5b6040518163ffffffff1660e060020a028152600401602060405180830381600087803b15801561228a57600080fd5b505af115801561229e573d6000803e3d6000fd5b505050506040513d60208110156122b457600080fd5b505160065433600160a060020a039283168114945064010000000090910490911614905081806122e15750805b8061237157506007546040805160e060020a638658b8b9028152336004820152306024820152604481018690529051600160a060020a0390921691638658b8b9916064808201926020929091908290030181600087803b15801561234457600080fd5b505af1158015612358573d6000803e3d6000fd5b505050506040513d602081101561236e57600080fd5b50515b15156123b5576040805160e560020a62461bcd028152602060048201526017602482015260008051602061362e833981519152604482015290519081900360640190fd5b60008054600160a060020a03861673ffffffffffffffffffffffffffffffffffffffff19909116811790915560408051918252517fc2f94c1edade7e889be574a1c807f58a5f5e38d4f75da71514d59777c1811bce9181900360200190a150505050565b60065462010000900460ff1681565b60d860020a64464c41475302600080600760009054906101000a9004600160a060020a0316600160a060020a0316638da5cb5b6040518163ffffffff1660e060020a028152600401602060405180830381600087803b15801561248a57600080fd5b505af115801561249e573d6000803e3d6000fd5b505050506040513d60208110156124b457600080fd5b505160065433600160a060020a039283168114945064010000000090910490911614905081806124e15750805b8061257157506007546040805160e060020a638658b8b9028152336004820152306024820152604481018690529051600160a060020a0390921691638658b8b9916064808201926020929091908290030181600087803b15801561254457600080fd5b505af1158015612558573d6000803e3d6000fd5b505050506040513d602081101561256e57600080fd5b50515b15156125b5576040805160e560020a62461bcd028152602060048201526017602482015260008051602061362e833981519152604482015290519081900360640190fd5b600680548515156301000000810263ff000000199092169190911790915560408051918252517f9fe8a9db1e7351be9db0119ccb2556d18d98181683fc59d9556fbc510a844be29181900360200190a150505050565b60025467ffffffffffffffff808216916801000000000000000090041682565b60d860020a64464c41475302600080600760009054906101000a9004600160a060020a0316600160a060020a0316638da5cb5b6040518163ffffffff1660e060020a028152600401602060405180830381600087803b15801561268d57600080fd5b505af11580156126a1573d6000803e3d6000fd5b505050506040513d60208110156126b757600080fd5b505160065433600160a060020a039283168114945064010000000090910490911614905081806126e45750805b8061277457506007546040805160e060020a638658b8b9028152336004820152306024820152604481018690529051600160a060020a0390921691638658b8b9916064808201926020929091908290030181600087803b15801561274757600080fd5b505af115801561275b573d6000803e3d6000fd5b505050506040513d602081101561277157600080fd5b50515b15156127b8576040805160e560020a62461bcd028152602060048201526017602482015260008051602061362e833981519152604482015290519081900360640190fd5b6002805467ffffffffffffffff191667ffffffffffffffff8781169182176fffffffffffffffff00000000000000001916680100000000000000009188169182021790925560408051918252602082019290925281517f60e8752d33a1bc653683658767428ede15855f520891c8c59e1c7f69936bf29c929181900390910190a15050505050565b60004287111561289a576040805160e560020a62461bcd02815260206004820152601660248201527f56616c696446726f6d20697320746f6f206561726c7900000000000000000000604482015290519081900360640190fd5b428610156128f2576040805160e560020a62461bcd02815260206004820152601360248201527f56616c6964546f20697320746f6f206c61746500000000000000000000000000604482015290519081900360640190fd5b600160a060020a038c16600090815260056020908152604080832088845290915290205460ff161561296e576040805160e560020a62461bcd02815260206004820152601660248201527f416c72656164792075736564207369676e617475726500000000000000000000604482015290519081900360640190fd5b600160a060020a038c166000818152600560209081526040808320898452825291829020805460ff1916600117905581516c01000000000000000000000000308102828401529093026034840152604883018e9052606883018d9052608883018c90527f01000000000000000000000000000000000000000000000000000000000000008b15150260a884015260a983018a905260c9830189905260e98084018990528251808503909101815261010990930191829052825182918401908083835b60208310612a4f5780518252601f199092019160209182019101612a30565b6001836020036101000a03801982511681845116808217855250505050505090500191505060405180910390209050612a8a818585856133f4565b612a978c8c8c8c8c612aa5565b505050505050505050505050565b6000600160a060020a0386161515612b07576040805160e560020a62461bcd02815260206004820152601060248201527f496e76616c696420696e766573746f7200000000000000000000000000000000604482015290519081900360640190fd5b5060008115612b14575060015b600160a060020a038616600090815260046020526040902054790100000000000000000000000000000000000000000000000000900460ff161515612bac57600380546001810182556000919091527fc2575a0e9e593c00f959f8c92f12db2869c3395a3b0502d05e2516446f71f85b01805473ffffffffffffffffffffffffffffffffffffffff1916600160a060020a0388161790555b848567ffffffffffffffff16148015612bce5750838467ffffffffffffffff16145b8015612be35750828367ffffffffffffffff16145b1515612c39576040805160e560020a62461bcd02815260206004820152600f60248201527f75696e743634206f766572666c6f770000000000000000000000000000000000604482015290519081900360640190fd5b60a0604051908101604052808667ffffffffffffffff1681526020018567ffffffffffffffff1681526020018467ffffffffffffffff1681526020018260ff168152602001600160ff168152506004600088600160a060020a0316600160a060020a0316815260200190815260200160002060008201518160000160006101000a81548167ffffffffffffffff021916908367ffffffffffffffff16021790555060208201518160000160086101000a81548167ffffffffffffffff021916908367ffffffffffffffff16021790555060408201518160000160106101000a81548167ffffffffffffffff021916908367ffffffffffffffff16021790555060608201518160000160186101000a81548160ff021916908360ff16021790555060808201518160000160196101000a81548160ff021916908360ff16021790555090505033600160a060020a031686600160a060020a03167f82f858918377c2e6d8e7bff05724502b64b977f47a83aca1faaabf9036b1ef15428888888860405180868152602001858152602001848152602001838152602001821515151581526020019550505050505060405180910390a3505050505050565b60608060608060608060608060008951604051908082528060200260200182016040528015612e2d578160200160208202803883390190505b5094508951604051908082528060200260200182016040528015612e5b578160200160208202803883390190505b5093508951604051908082528060200260200182016040528015612e89578160200160208202803883390190505b5092508951604051908082528060200260200182016040528015612eb7578160200160208202803883390190505b509150600090505b89518110156130a357600460008b83815181101515612eda57fe5b6020908102909101810151600160a060020a0316825281019190915260400160002054855167ffffffffffffffff90911690869083908110612f1857fe5b6020908102909101015289516004906000908c9084908110612f3657fe5b602090810291909101810151600160a060020a031682528101919091526040016000205484516801000000000000000090910467ffffffffffffffff1690859083908110612f8057fe5b6020908102909101015289516004906000908c9084908110612f9e57fe5b602090810291909101810151600160a060020a0316825281019190915260400160002054835170010000000000000000000000000000000090910467ffffffffffffffff1690849083908110612ff057fe5b6020908102909101015289516004906000908c908490811061300e57fe5b6020908102909101810151600160a060020a031682528101919091526040016000205460ff780100000000000000000000000000000000000000000000000090910416151561307b576000828281518110151561306757fe5b91151560209283029091019091015261309b565b6001828281518110151561308b57fe5b9115156020928302909101909101525b600101612ebf565b5092989197509550909350915050565b60085474010000000000000000000000000000000000000000900460ff161515613127576040805160e560020a62461bcd02815260206004820152601660248201527f436f6e7472616374206973206e6f742070617573656400000000000000000000604482015290519081900360640190fd5b6008805474ff0000000000000000000000000000000000000000191690556040805142815290517faaa520fdd7d2c83061d632fa017b0432407e798818af63ea908589fceda39ab79181900360200190a1565b60085474010000000000000000000000000000000000000000900460ff16156131ed576040805160e560020a62461bcd02815260206004820152601260248201527f436f6e7472616374206973207061757365640000000000000000000000000000604482015290519081900360640190fd5b6008805474ff00000000000000000000000000000000000000001916740100000000000000000000000000000000000000001790556040805142815290517f68b095021b1f40fe513109f513c66692f0b3219aee674a69f4efc57badb8201d9181900360200190a1565b600160a060020a031660009081526004602052604090205467ffffffffffffffff42811670010000000000000000000000000000000090920416101590565b600080838367ffffffffffffffff821615156132bc5760025467ffffffffffffffff1691505b67ffffffffffffffff851615156132e8575060025468010000000000000000900467ffffffffffffffff165b909590945092505050565b600754604080517fac90b42200000000000000000000000000000000000000000000000000000000815260036004820152905160009283928392600160a060020a039092169163ac90b42291602480820192869290919082900301818387803b15801561335f57600080fd5b505af1158015613373573d6000803e3d6000fd5b505050506040513d6000823e601f3d908101601f19168201604052602081101561339c57600080fd5b8101908080516401000000008111156133b457600080fd5b820160208101848111156133c757600080fd5b81518560208202830111640100000000821117156133e457600080fd5b5050519390931195945050505050565b600060018560405160200180807f19457468657265756d205369676e6564204d6573736167653a0a333200000000815250601c0182600019166000191681526020019150506040516020818303038152906040526040518082805190602001908083835b602083106134775780518252601f199092019160209182019101613458565b51815160209384036101000a60001901801990921691161790526040805192909401829003822060008084528383018087529190915260ff8c1683860152606083018b9052608083018a9052935160a08084019750919550601f1981019492819003909101925090865af11580156134f3573d6000803e3d6000fd5b505060408051601f198101516007547f8da5cb5b0000000000000000000000000000000000000000000000000000000083529251909450600160a060020a039092169250638da5cb5b9160048083019260209291908290030181600087803b15801561355e57600080fd5b505af1158015613572573d6000803e3d6000fd5b505050506040513d602081101561358857600080fd5b5051600160a060020a03828116911614806135b05750600154600160a060020a038281169116145b1515613606576040805160e560020a62461bcd02815260206004820152601060248201527f496e636f7272656374207369676e657200000000000000000000000000000000604482015290519081900360640190fd5b5050505050560057484954454c49535400000000000000000000000000000000000000000000005065726d697373696f6e20636865636b206661696c6564000000000000000000a165627a7a72305820de0e4dc9a2972be3197f63315635799484530124ba4102a1349e45bfee0ff8200029",
  "source": "pragma solidity ^0.4.24;\n\nimport \"./ITransferManager.sol\";\nimport \"../../storage/GeneralTransferManagerStorage.sol\";\nimport \"openzeppelin-solidity/contracts/math/SafeMath.sol\";\n\n/**\n * @title Transfer Manager module for core transfer validation functionality\n */\ncontract GeneralTransferManager is GeneralTransferManagerStorage, ITransferManager {\n\n    using SafeMath for uint256;\n\n    // Emit when Issuance address get changed\n    event ChangeIssuanceAddress(address _issuanceAddress);\n    // Emit when there is change in the flag variable called allowAllTransfers\n    event AllowAllTransfers(bool _allowAllTransfers);\n    // Emit when there is change in the flag variable called allowAllWhitelistTransfers\n    event AllowAllWhitelistTransfers(bool _allowAllWhitelistTransfers);\n    // Emit when there is change in the flag variable called allowAllWhitelistIssuances\n    event AllowAllWhitelistIssuances(bool _allowAllWhitelistIssuances);\n    // Emit when there is change in the flag variable called allowAllBurnTransfers\n    event AllowAllBurnTransfers(bool _allowAllBurnTransfers);\n    // Emit when there is change in the flag variable called signingAddress\n    event ChangeSigningAddress(address _signingAddress);\n    // Emit when investor details get modified related to their whitelisting\n    event ChangeDefaults(uint64 _defaultCanSendAfter, uint64 _defaultCanReceiveAfter);\n\n    // _canSendAfter is the time from which the _investor can send tokens\n    // _canReceiveAfter is the time from which the _investor can receive tokens\n    // if allowAllWhitelistIssuances is TRUE, then _canReceiveAfter is ignored when receiving tokens from the issuance address\n    // if allowAllWhitelistTransfers is TRUE, then _canReceiveAfter and _canSendAfter is ignored when sending or receiving tokens\n    // in any case, any investor sending or receiving tokens, must have a _expiryTime in the future\n    event ModifyWhitelist(\n        address indexed _investor,\n        uint256 _dateAdded,\n        address indexed _addedBy,\n        uint256 _canSendAfter,\n        uint256 _canReceiveAfter,\n        uint256 _expiryTime,\n        bool _canBuyFromSTO\n    );\n\n    /**\n     * @notice Constructor\n     * @param _securityToken Address of the security token\n     * @param _polyAddress Address of the polytoken\n     */\n    constructor (address _securityToken, address _polyAddress)\n    public\n    Module(_securityToken, _polyAddress)\n    {\n    }\n\n    /**\n     * @notice This function returns the signature of configure function\n     */\n    function getInitFunction() public pure returns (bytes4) {\n        return bytes4(0);\n    }\n\n    /**\n     * @notice Used to change the default times used when canSendAfter / canReceiveAfter are zero\n     * @param _defaultCanSendAfter default for zero canSendAfter\n     * @param _defaultCanReceiveAfter default for zero canReceiveAfter\n     */\n    function changeDefaults(uint64 _defaultCanSendAfter, uint64 _defaultCanReceiveAfter) public withPerm(FLAGS) {\n        /* 0 values are also allowed as they represent that the Issuer\n           does not want a default value for these variables.\n           0 is also the default value of these variables */\n        defaults.canSendAfter = _defaultCanSendAfter;\n        defaults.canReceiveAfter = _defaultCanReceiveAfter;\n        emit ChangeDefaults(_defaultCanSendAfter, _defaultCanReceiveAfter);\n    }\n\n    /**\n     * @notice Used to change the Issuance Address\n     * @param _issuanceAddress new address for the issuance\n     */\n    function changeIssuanceAddress(address _issuanceAddress) public withPerm(FLAGS) {\n        // address(0x0) is also a valid value and in most cases, the address that issues tokens is 0x0.\n        issuanceAddress = _issuanceAddress;\n        emit ChangeIssuanceAddress(_issuanceAddress);\n    }\n\n    /**\n     * @notice Used to change the Sigining Address\n     * @param _signingAddress new address for the signing\n     */\n    function changeSigningAddress(address _signingAddress) public withPerm(FLAGS) {\n        /* address(0x0) is also a valid value as an Issuer might want to\n           give this permission to nobody (except their own address).\n           0x0 is also the default value */\n        signingAddress = _signingAddress;\n        emit ChangeSigningAddress(_signingAddress);\n    }\n\n    /**\n     * @notice Used to change the flag\n            true - It refers there are no transfer restrictions, for any addresses\n            false - It refers transfers are restricted for all addresses.\n     * @param _allowAllTransfers flag value\n     */\n    function changeAllowAllTransfers(bool _allowAllTransfers) public withPerm(FLAGS) {\n        allowAllTransfers = _allowAllTransfers;\n        emit AllowAllTransfers(_allowAllTransfers);\n    }\n\n    /**\n     * @notice Used to change the flag\n            true - It refers that time lock is ignored for transfers (address must still be on whitelist)\n            false - It refers transfers are restricted for all addresses.\n     * @param _allowAllWhitelistTransfers flag value\n     */\n    function changeAllowAllWhitelistTransfers(bool _allowAllWhitelistTransfers) public withPerm(FLAGS) {\n        allowAllWhitelistTransfers = _allowAllWhitelistTransfers;\n        emit AllowAllWhitelistTransfers(_allowAllWhitelistTransfers);\n    }\n\n    /**\n     * @notice Used to change the flag\n            true - It refers that time lock is ignored for issuances (address must still be on whitelist)\n            false - It refers transfers are restricted for all addresses.\n     * @param _allowAllWhitelistIssuances flag value\n     */\n    function changeAllowAllWhitelistIssuances(bool _allowAllWhitelistIssuances) public withPerm(FLAGS) {\n        allowAllWhitelistIssuances = _allowAllWhitelistIssuances;\n        emit AllowAllWhitelistIssuances(_allowAllWhitelistIssuances);\n    }\n\n    /**\n     * @notice Used to change the flag\n            true - It allow to burn the tokens\n            false - It deactivate the burning mechanism.\n     * @param _allowAllBurnTransfers flag value\n     */\n    function changeAllowAllBurnTransfers(bool _allowAllBurnTransfers) public withPerm(FLAGS) {\n        allowAllBurnTransfers = _allowAllBurnTransfers;\n        emit AllowAllBurnTransfers(_allowAllBurnTransfers);\n    }\n\n    /**\n     * @notice Default implementation of verifyTransfer used by SecurityToken\n     * If the transfer request comes from the STO, it only checks that the investor is in the whitelist\n     * If the transfer request comes from a token holder, it checks that:\n     * a) Both are on the whitelist\n     * b) Seller's sale lockup period is over\n     * c) Buyer's purchase lockup is over\n     * @param _from Address of the sender\n     * @param _to Address of the receiver\n    */\n    function verifyTransfer(address _from, address _to, uint256 /*_amount*/, bytes /* _data */, bool /* _isTransfer */) public returns(Result) {\n        if (!paused) {\n            if (allowAllTransfers) {\n                //All transfers allowed, regardless of whitelist\n                return Result.VALID;\n            }\n            if (allowAllBurnTransfers && (_to == address(0))) {\n                return Result.VALID;\n            }\n            if (allowAllWhitelistTransfers) {\n                //Anyone on the whitelist can transfer, regardless of time\n                return (_onWhitelist(_to) && _onWhitelist(_from)) ? Result.VALID : Result.NA;\n            }\n\n            (uint64 adjustedCanSendAfter, uint64 adjustedCanReceiveAfter) = _adjustTimes(whitelist[_from].canSendAfter, whitelist[_to].canReceiveAfter);\n            if (_from == issuanceAddress) {\n                // Possible STO transaction, but investor not allowed to purchased from STO\n                if ((whitelist[_to].canBuyFromSTO == 0) && _isSTOAttached()) {\n                    return Result.NA;\n                }\n                // if allowAllWhitelistIssuances is true, so time stamp ignored\n                if (allowAllWhitelistIssuances) {\n                    return _onWhitelist(_to) ? Result.VALID : Result.NA;\n                } else {\n                    return (_onWhitelist(_to) && (adjustedCanReceiveAfter <= uint64(now))) ? Result.VALID : Result.NA;\n                }\n            }\n\n            //Anyone on the whitelist can transfer provided the blocknumber is large enough\n            /*solium-disable-next-line security/no-block-members*/\n            return ((_onWhitelist(_from) && (adjustedCanSendAfter <= uint64(now))) &&\n                (_onWhitelist(_to) && (adjustedCanReceiveAfter <= uint64(now)))) ? Result.VALID : Result.NA; /*solium-disable-line security/no-block-members*/\n        }\n        return Result.NA;\n    }\n\n    /**\n    * @notice Adds or removes addresses from the whitelist.\n    * @param _investor is the address to whitelist\n    * @param _canSendAfter the moment when the sale lockup period ends and the investor can freely sell or transfer away their tokens\n    * @param _canReceiveAfter the moment when the purchase lockup period ends and the investor can freely purchase or receive from others\n    * @param _expiryTime is the moment till investors KYC will be validated. After that investor need to do re-KYC\n    * @param _canBuyFromSTO is used to know whether the investor is restricted investor or not.\n    */\n    function modifyWhitelist(\n        address _investor,\n        uint256 _canSendAfter,\n        uint256 _canReceiveAfter,\n        uint256 _expiryTime,\n        bool _canBuyFromSTO\n    )\n        public\n        withPerm(WHITELIST)\n    {\n        _modifyWhitelist(_investor, _canSendAfter, _canReceiveAfter, _expiryTime, _canBuyFromSTO);\n    }\n\n    /**\n    * @notice Adds or removes addresses from the whitelist.\n    * @param _investor is the address to whitelist\n    * @param _canSendAfter is the moment when the sale lockup period ends and the investor can freely sell his tokens\n    * @param _canReceiveAfter is the moment when the purchase lockup period ends and the investor can freely purchase tokens from others\n    * @param _expiryTime is the moment till investors KYC will be validated. After that investor need to do re-KYC\n    * @param _canBuyFromSTO is used to know whether the investor is restricted investor or not.\n    */\n    function _modifyWhitelist(\n        address _investor,\n        uint256 _canSendAfter,\n        uint256 _canReceiveAfter,\n        uint256 _expiryTime,\n        bool _canBuyFromSTO\n    )\n        internal\n    {\n        require(_investor != address(0), \"Invalid investor\");\n        uint8 canBuyFromSTO = 0;\n        if (_canBuyFromSTO) {\n            canBuyFromSTO = 1;\n        }\n        if (whitelist[_investor].added == uint8(0)) {\n            investors.push(_investor);\n        }\n        require(\n            uint64(_canSendAfter) == _canSendAfter &&\n            uint64(_canReceiveAfter) == _canReceiveAfter &&\n            uint64(_expiryTime) == _expiryTime,\n            \"uint64 overflow\"\n        );\n        whitelist[_investor] = TimeRestriction(uint64(_canSendAfter), uint64(_canReceiveAfter), uint64(_expiryTime), canBuyFromSTO, uint8(1));\n        emit ModifyWhitelist(_investor, now, msg.sender, _canSendAfter, _canReceiveAfter, _expiryTime, _canBuyFromSTO);\n    }\n\n    /**\n    * @notice Adds or removes addresses from the whitelist.\n    * @param _investors List of the addresses to whitelist\n    * @param _canSendAfters An array of the moment when the sale lockup period ends and the investor can freely sell his tokens\n    * @param _canReceiveAfters An array of the moment when the purchase lockup period ends and the investor can freely purchase tokens from others\n    * @param _expiryTimes An array of the moment till investors KYC will be validated. After that investor need to do re-KYC\n    * @param _canBuyFromSTO An array of boolean values\n    */\n    function modifyWhitelistMulti(\n        address[] _investors,\n        uint256[] _canSendAfters,\n        uint256[] _canReceiveAfters,\n        uint256[] _expiryTimes,\n        bool[] _canBuyFromSTO\n    ) public withPerm(WHITELIST) {\n        require(_investors.length == _canSendAfters.length, \"Mismatched input lengths\");\n        require(_canSendAfters.length == _canReceiveAfters.length, \"Mismatched input lengths\");\n        require(_canReceiveAfters.length == _expiryTimes.length, \"Mismatched input lengths\");\n        require(_canBuyFromSTO.length == _canReceiveAfters.length, \"Mismatched input length\");\n        for (uint256 i = 0; i < _investors.length; i++) {\n            _modifyWhitelist(_investors[i], _canSendAfters[i], _canReceiveAfters[i], _expiryTimes[i], _canBuyFromSTO[i]);\n        }\n    }\n\n    /**\n    * @notice Adds or removes addresses from the whitelist - can be called by anyone with a valid signature\n    * @param _investor is the address to whitelist\n    * @param _canSendAfter is the moment when the sale lockup period ends and the investor can freely sell his tokens\n    * @param _canReceiveAfter is the moment when the purchase lockup period ends and the investor can freely purchase tokens from others\n    * @param _expiryTime is the moment till investors KYC will be validated. After that investor need to do re-KYC\n    * @param _canBuyFromSTO is used to know whether the investor is restricted investor or not.\n    * @param _validFrom is the time that this signature is valid from\n    * @param _validTo is the time that this signature is valid until\n    * @param _nonce nonce of signature (avoid replay attack)\n    * @param _v issuer signature\n    * @param _r issuer signature\n    * @param _s issuer signature\n    */\n    function modifyWhitelistSigned(\n        address _investor,\n        uint256 _canSendAfter,\n        uint256 _canReceiveAfter,\n        uint256 _expiryTime,\n        bool _canBuyFromSTO,\n        uint256 _validFrom,\n        uint256 _validTo,\n        uint256 _nonce,\n        uint8 _v,\n        bytes32 _r,\n        bytes32 _s\n    ) public {\n        /*solium-disable-next-line security/no-block-members*/\n        require(_validFrom <= now, \"ValidFrom is too early\");\n        /*solium-disable-next-line security/no-block-members*/\n        require(_validTo >= now, \"ValidTo is too late\");\n        require(!nonceMap[_investor][_nonce], \"Already used signature\");\n        nonceMap[_investor][_nonce] = true;\n        bytes32 hash = keccak256(\n            abi.encodePacked(this, _investor, _canSendAfter, _canReceiveAfter, _expiryTime, _canBuyFromSTO, _validFrom, _validTo, _nonce)\n        );\n        _checkSig(hash, _v, _r, _s);\n        _modifyWhitelist(_investor, _canSendAfter, _canReceiveAfter, _expiryTime, _canBuyFromSTO);\n    }\n\n    /**\n     * @notice Used to verify the signature\n     */\n    function _checkSig(bytes32 _hash, uint8 _v, bytes32 _r, bytes32 _s) internal view {\n        //Check that the signature is valid\n        //sig should be signing - _investor, _canSendAfter, _canReceiveAfter & _expiryTime and be signed by the issuer address\n        address signer = ecrecover(keccak256(abi.encodePacked(\"\\x19Ethereum Signed Message:\\n32\", _hash)), _v, _r, _s);\n        require(signer == Ownable(securityToken).owner() || signer == signingAddress, \"Incorrect signer\");\n    }\n\n    /**\n     * @notice Internal function used to check whether the investor is in the whitelist or not\n            & also checks whether the KYC of investor get expired or not\n     * @param _investor Address of the investor\n     */\n    function _onWhitelist(address _investor) internal view returns(bool) {\n        return (whitelist[_investor].expiryTime >= uint64(now)); /*solium-disable-line security/no-block-members*/\n    }\n\n    /**\n     * @notice Internal function use to know whether the STO is attached or not\n     */\n    function _isSTOAttached() internal view returns(bool) {\n        bool attached = ISecurityToken(securityToken).getModulesByType(3).length > 0;\n        return attached;\n    }\n\n    /**\n     * @notice Internal function to adjust times using default values\n     */\n    function _adjustTimes(uint64 _canSendAfter, uint64 _canReceiveAfter) internal view returns(uint64, uint64) {\n        uint64 adjustedCanSendAfter = _canSendAfter;\n        uint64 adjustedCanReceiveAfter = _canReceiveAfter;\n        if (_canSendAfter == 0) {\n            adjustedCanSendAfter = defaults.canSendAfter;\n        }\n        if (_canReceiveAfter == 0) {\n            adjustedCanReceiveAfter = defaults.canReceiveAfter;\n        }\n        return (adjustedCanSendAfter, adjustedCanReceiveAfter);\n    }\n\n    /**\n     * @dev Returns list of all investors\n     */\n    function getInvestors() external view returns(address[]) {\n        return investors;\n    }\n\n    /**\n     * @dev Returns list of all investors data\n     */\n    function getAllInvestorsData() external view returns(address[], uint256[], uint256[], uint256[], bool[]) {\n        (uint256[] memory canSendAfters, uint256[] memory canReceiveAfters, uint256[] memory expiryTimes, bool[] memory canBuyFromSTOs)\n          = _investorsData(investors);\n        return (investors, canSendAfters, canReceiveAfters, expiryTimes, canBuyFromSTOs);\n\n    }\n\n    /**\n     * @dev Returns list of specified investors data\n     */\n    function getInvestorsData(address[] _investors) external view returns(uint256[], uint256[], uint256[], bool[]) {\n        return _investorsData(_investors);\n    }\n\n    function _investorsData(address[] _investors) internal view returns(uint256[], uint256[], uint256[], bool[]) {\n        uint256[] memory canSendAfters = new uint256[](_investors.length);\n        uint256[] memory canReceiveAfters = new uint256[](_investors.length);\n        uint256[] memory expiryTimes = new uint256[](_investors.length);\n        bool[] memory canBuyFromSTOs = new bool[](_investors.length);\n        for (uint256 i = 0; i < _investors.length; i++) {\n            canSendAfters[i] = whitelist[_investors[i]].canSendAfter;\n            canReceiveAfters[i] = whitelist[_investors[i]].canReceiveAfter;\n            expiryTimes[i] = whitelist[_investors[i]].expiryTime;\n            if (whitelist[_investors[i]].canBuyFromSTO == 0) {\n                canBuyFromSTOs[i] = false;\n            } else {\n                canBuyFromSTOs[i] = true;\n            }\n        }\n        return (canSendAfters, canReceiveAfters, expiryTimes, canBuyFromSTOs);\n    }\n\n    /**\n     * @notice Return the permissions flag that are associated with general trnasfer manager\n     */\n    function getPermissions() public view returns(bytes32[]) {\n        bytes32[] memory allPermissions = new bytes32[](2);\n        allPermissions[0] = WHITELIST;\n        allPermissions[1] = FLAGS;\n        return allPermissions;\n    }\n\n}\n",
  "sourcePath": "/Users/federicoelgarte/Polymath/polymath-core/contracts/modules/TransferManager/GeneralTransferManager.sol",
  "compiler": {
    "name": "solc",
    "version": "0.4.24+commit.e67f0147.Emscripten.clang"
  },
  "schemaVersion": "2.0.1",
  "updatedAt": "2019-03-22T13:54:14.782Z"
}