{
  "contractName": "GeneralTransferManager",
  "abi": [
    {
      "constant": false,
      "inputs": [],
      "name": "reclaimETH",
      "outputs": [],
      "payable": false,
      "stateMutability": "nonpayable",
      "type": "function"
    },
    {
      "constant": true,
      "inputs": [],
      "name": "WHITELIST",
      "outputs": [
        {
          "name": "",
          "type": "bytes32"
        }
      ],
      "payable": false,
      "stateMutability": "view",
      "type": "function"
    },
    {
      "constant": true,
      "inputs": [],
      "name": "ADMIN",
      "outputs": [
        {
          "name": "",
          "type": "bytes32"
        }
      ],
      "payable": false,
      "stateMutability": "view",
      "type": "function"
    },
    {
      "constant": false,
      "inputs": [],
      "name": "unpause",
      "outputs": [],
      "payable": false,
      "stateMutability": "nonpayable",
      "type": "function"
    },
    {
      "constant": true,
      "inputs": [],
      "name": "paused",
      "outputs": [
        {
          "name": "",
          "type": "bool"
        }
      ],
      "payable": false,
      "stateMutability": "view",
      "type": "function"
    },
    {
      "constant": true,
      "inputs": [],
      "name": "INVESTORFLAGS",
      "outputs": [
        {
          "name": "",
          "type": "bytes32"
        }
      ],
      "payable": false,
      "stateMutability": "view",
      "type": "function"
    },
    {
      "constant": true,
      "inputs": [],
      "name": "UNLOCKED",
      "outputs": [
        {
          "name": "",
          "type": "bytes32"
        }
      ],
      "payable": false,
      "stateMutability": "view",
      "type": "function"
    },
    {
      "constant": true,
      "inputs": [],
      "name": "polyToken",
      "outputs": [
        {
          "name": "",
          "type": "address"
        }
      ],
      "payable": false,
      "stateMutability": "view",
      "type": "function"
    },
    {
      "constant": false,
      "inputs": [],
      "name": "pause",
      "outputs": [],
      "payable": false,
      "stateMutability": "nonpayable",
      "type": "function"
    },
    {
      "constant": false,
      "inputs": [
        {
          "name": "_tokenContract",
          "type": "address"
        }
      ],
      "name": "reclaimERC20",
      "outputs": [],
      "payable": false,
      "stateMutability": "nonpayable",
      "type": "function"
    },
    {
      "constant": true,
      "inputs": [],
      "name": "OPERATOR",
      "outputs": [
        {
          "name": "",
          "type": "bytes32"
        }
      ],
      "payable": false,
      "stateMutability": "view",
      "type": "function"
    },
    {
      "constant": true,
      "inputs": [
        {
          "name": "",
          "type": "address"
        },
        {
          "name": "",
          "type": "uint256"
        }
      ],
      "name": "nonceMap",
      "outputs": [
        {
          "name": "",
          "type": "bool"
        }
      ],
      "payable": false,
      "stateMutability": "view",
      "type": "function"
    },
    {
      "constant": true,
      "inputs": [],
      "name": "LOCKED",
      "outputs": [
        {
          "name": "",
          "type": "bytes32"
        }
      ],
      "payable": false,
      "stateMutability": "view",
      "type": "function"
    },
    {
      "constant": true,
      "inputs": [],
      "name": "issuanceAddress",
      "outputs": [
        {
          "name": "",
          "type": "address"
        }
      ],
      "payable": false,
      "stateMutability": "view",
      "type": "function"
    },
    {
      "constant": true,
      "inputs": [],
      "name": "securityToken",
      "outputs": [
        {
          "name": "",
          "type": "address"
        }
      ],
      "payable": false,
      "stateMutability": "view",
      "type": "function"
    },
    {
      "constant": true,
      "inputs": [],
      "name": "INVESTORSKEY",
      "outputs": [
        {
          "name": "",
          "type": "bytes32"
        }
      ],
      "payable": false,
      "stateMutability": "view",
      "type": "function"
    },
    {
      "constant": true,
      "inputs": [
        {
          "name": "",
          "type": "uint8"
        }
      ],
      "name": "transferRequirements",
      "outputs": [
        {
          "name": "fromValidKYC",
          "type": "bool"
        },
        {
          "name": "toValidKYC",
          "type": "bool"
        },
        {
          "name": "fromRestricted",
          "type": "bool"
        },
        {
          "name": "toRestricted",
          "type": "bool"
        }
      ],
      "payable": false,
      "stateMutability": "view",
      "type": "function"
    },
    {
      "constant": true,
      "inputs": [],
      "name": "factory",
      "outputs": [
        {
          "name": "",
          "type": "address"
        }
      ],
      "payable": false,
      "stateMutability": "view",
      "type": "function"
    },
    {
      "constant": true,
      "inputs": [],
      "name": "defaults",
      "outputs": [
        {
          "name": "canSendAfter",
          "type": "uint64"
        },
        {
          "name": "canReceiveAfter",
          "type": "uint64"
        }
      ],
      "payable": false,
      "stateMutability": "view",
      "type": "function"
    },
    {
      "constant": true,
      "inputs": [],
      "name": "getDataStore",
      "outputs": [
        {
          "name": "",
          "type": "address"
        }
      ],
      "payable": false,
      "stateMutability": "view",
      "type": "function"
    },
    {
      "inputs": [
        {
          "name": "_securityToken",
          "type": "address"
        },
        {
          "name": "_polyToken",
          "type": "address"
        }
      ],
      "payable": false,
      "stateMutability": "nonpayable",
      "type": "constructor"
    },
    {
      "anonymous": false,
      "inputs": [
        {
          "indexed": false,
          "name": "_issuanceAddress",
          "type": "address"
        }
      ],
      "name": "ChangeIssuanceAddress",
      "type": "event"
    },
    {
      "anonymous": false,
      "inputs": [
        {
          "indexed": false,
          "name": "_defaultCanSendAfter",
          "type": "uint64"
        },
        {
          "indexed": false,
          "name": "_defaultCanReceiveAfter",
          "type": "uint64"
        }
      ],
      "name": "ChangeDefaults",
      "type": "event"
    },
    {
      "anonymous": false,
      "inputs": [
        {
          "indexed": true,
          "name": "_investor",
          "type": "address"
        },
        {
          "indexed": true,
          "name": "_addedBy",
          "type": "address"
        },
        {
          "indexed": false,
          "name": "_canSendAfter",
          "type": "uint64"
        },
        {
          "indexed": false,
          "name": "_canReceiveAfter",
          "type": "uint64"
        },
        {
          "indexed": false,
          "name": "_expiryTime",
          "type": "uint64"
        }
      ],
      "name": "ModifyKYCData",
      "type": "event"
    },
    {
      "anonymous": false,
      "inputs": [
        {
          "indexed": true,
          "name": "_investor",
          "type": "address"
        },
        {
          "indexed": true,
          "name": "_flag",
          "type": "uint8"
        },
        {
          "indexed": false,
          "name": "_value",
          "type": "bool"
        }
      ],
      "name": "ModifyInvestorFlag",
      "type": "event"
    },
    {
      "anonymous": false,
      "inputs": [
        {
          "indexed": true,
          "name": "_transferType",
          "type": "uint8"
        },
        {
          "indexed": false,
          "name": "_fromValidKYC",
          "type": "bool"
        },
        {
          "indexed": false,
          "name": "_toValidKYC",
          "type": "bool"
        },
        {
          "indexed": false,
          "name": "_fromRestricted",
          "type": "bool"
        },
        {
          "indexed": false,
          "name": "_toRestricted",
          "type": "bool"
        }
      ],
      "name": "ModifyTransferRequirements",
      "type": "event"
    },
    {
      "anonymous": false,
      "inputs": [
        {
          "indexed": false,
          "name": "account",
          "type": "address"
        }
      ],
      "name": "Pause",
      "type": "event"
    },
    {
      "anonymous": false,
      "inputs": [
        {
          "indexed": false,
          "name": "account",
          "type": "address"
        }
      ],
      "name": "Unpause",
      "type": "event"
    },
    {
      "constant": true,
      "inputs": [],
      "name": "getInitFunction",
      "outputs": [
        {
          "name": "",
          "type": "bytes4"
        }
      ],
      "payable": false,
      "stateMutability": "pure",
      "type": "function"
    },
    {
      "constant": false,
      "inputs": [
        {
          "name": "_defaultCanSendAfter",
          "type": "uint64"
        },
        {
          "name": "_defaultCanReceiveAfter",
          "type": "uint64"
        }
      ],
      "name": "changeDefaults",
      "outputs": [],
      "payable": false,
      "stateMutability": "nonpayable",
      "type": "function"
    },
    {
      "constant": false,
      "inputs": [
        {
          "name": "_issuanceAddress",
          "type": "address"
        }
      ],
      "name": "changeIssuanceAddress",
      "outputs": [],
      "payable": false,
      "stateMutability": "nonpayable",
      "type": "function"
    },
    {
      "constant": false,
      "inputs": [
        {
          "name": "_from",
          "type": "address"
        },
        {
          "name": "_to",
          "type": "address"
        },
        {
          "name": "",
          "type": "uint256"
        },
        {
          "name": "_data",
          "type": "bytes"
        }
      ],
      "name": "executeTransfer",
      "outputs": [
        {
          "name": "",
          "type": "uint8"
        }
      ],
      "payable": false,
      "stateMutability": "nonpayable",
      "type": "function"
    },
    {
      "constant": true,
      "inputs": [
        {
          "name": "_from",
          "type": "address"
        },
        {
          "name": "_to",
          "type": "address"
        },
        {
          "name": "",
          "type": "uint256"
        },
        {
          "name": "",
          "type": "bytes"
        }
      ],
      "name": "verifyTransfer",
      "outputs": [
        {
          "name": "",
          "type": "uint8"
        },
        {
          "name": "",
          "type": "bytes32"
        }
      ],
      "payable": false,
      "stateMutability": "view",
      "type": "function"
    },
    {
      "constant": false,
      "inputs": [
        {
          "name": "_transferType",
          "type": "uint8"
        },
        {
          "name": "_fromValidKYC",
          "type": "bool"
        },
        {
          "name": "_toValidKYC",
          "type": "bool"
        },
        {
          "name": "_fromRestricted",
          "type": "bool"
        },
        {
          "name": "_toRestricted",
          "type": "bool"
        }
      ],
      "name": "modifyTransferRequirements",
      "outputs": [],
      "payable": false,
      "stateMutability": "nonpayable",
      "type": "function"
    },
    {
      "constant": false,
      "inputs": [
        {
          "name": "_transferTypes",
          "type": "uint8[]"
        },
        {
          "name": "_fromValidKYC",
          "type": "bool[]"
        },
        {
          "name": "_toValidKYC",
          "type": "bool[]"
        },
        {
          "name": "_fromRestricted",
          "type": "bool[]"
        },
        {
          "name": "_toRestricted",
          "type": "bool[]"
        }
      ],
      "name": "modifyTransferRequirementsMulti",
      "outputs": [],
      "payable": false,
      "stateMutability": "nonpayable",
      "type": "function"
    },
    {
      "constant": false,
      "inputs": [
        {
          "name": "_investor",
          "type": "address"
        },
        {
          "name": "_canSendAfter",
          "type": "uint64"
        },
        {
          "name": "_canReceiveAfter",
          "type": "uint64"
        },
        {
          "name": "_expiryTime",
          "type": "uint64"
        }
      ],
      "name": "modifyKYCData",
      "outputs": [],
      "payable": false,
      "stateMutability": "nonpayable",
      "type": "function"
    },
    {
      "constant": false,
      "inputs": [
        {
          "name": "_investors",
          "type": "address[]"
        },
        {
          "name": "_canSendAfter",
          "type": "uint64[]"
        },
        {
          "name": "_canReceiveAfter",
          "type": "uint64[]"
        },
        {
          "name": "_expiryTime",
          "type": "uint64[]"
        }
      ],
      "name": "modifyKYCDataMulti",
      "outputs": [],
      "payable": false,
      "stateMutability": "nonpayable",
      "type": "function"
    },
    {
      "constant": false,
      "inputs": [
        {
          "name": "_investor",
          "type": "address"
        },
        {
          "name": "_flag",
          "type": "uint8"
        },
        {
          "name": "_value",
          "type": "bool"
        }
      ],
      "name": "modifyInvestorFlag",
      "outputs": [],
      "payable": false,
      "stateMutability": "nonpayable",
      "type": "function"
    },
    {
      "constant": false,
      "inputs": [
        {
          "name": "_investors",
          "type": "address[]"
        },
        {
          "name": "_flag",
          "type": "uint8[]"
        },
        {
          "name": "_value",
          "type": "bool[]"
        }
      ],
      "name": "modifyInvestorFlagMulti",
      "outputs": [],
      "payable": false,
      "stateMutability": "nonpayable",
      "type": "function"
    },
    {
      "constant": false,
      "inputs": [
        {
          "name": "_investor",
          "type": "address"
        },
        {
          "name": "_canSendAfter",
          "type": "uint256"
        },
        {
          "name": "_canReceiveAfter",
          "type": "uint256"
        },
        {
          "name": "_expiryTime",
          "type": "uint256"
        },
        {
          "name": "_validFrom",
          "type": "uint256"
        },
        {
          "name": "_validTo",
          "type": "uint256"
        },
        {
          "name": "_nonce",
          "type": "uint256"
        },
        {
          "name": "_signature",
          "type": "bytes"
        }
      ],
      "name": "modifyKYCDataSigned",
      "outputs": [],
      "payable": false,
      "stateMutability": "nonpayable",
      "type": "function"
    },
    {
      "constant": false,
      "inputs": [
        {
          "name": "_investor",
          "type": "address[]"
        },
        {
          "name": "_canSendAfter",
          "type": "uint256[]"
        },
        {
          "name": "_canReceiveAfter",
          "type": "uint256[]"
        },
        {
          "name": "_expiryTime",
          "type": "uint256[]"
        },
        {
          "name": "_validFrom",
          "type": "uint256"
        },
        {
          "name": "_validTo",
          "type": "uint256"
        },
        {
          "name": "_nonce",
          "type": "uint256"
        },
        {
          "name": "_signature",
          "type": "bytes"
        }
      ],
      "name": "modifyKYCDataSignedMulti",
      "outputs": [],
      "payable": false,
      "stateMutability": "nonpayable",
      "type": "function"
    },
    {
      "constant": true,
      "inputs": [],
      "name": "getAllInvestors",
      "outputs": [
        {
          "name": "investors",
          "type": "address[]"
        }
      ],
      "payable": false,
      "stateMutability": "view",
      "type": "function"
    },
    {
      "constant": true,
      "inputs": [
        {
          "name": "_fromIndex",
          "type": "uint256"
        },
        {
          "name": "_toIndex",
          "type": "uint256"
        }
      ],
      "name": "getInvestors",
      "outputs": [
        {
          "name": "investors",
          "type": "address[]"
        }
      ],
      "payable": false,
      "stateMutability": "view",
      "type": "function"
    },
    {
      "constant": true,
      "inputs": [],
      "name": "getAllInvestorFlags",
      "outputs": [
        {
          "name": "investors",
          "type": "address[]"
        },
        {
          "name": "flags",
          "type": "uint256[]"
        }
      ],
      "payable": false,
      "stateMutability": "view",
      "type": "function"
    },
    {
      "constant": true,
      "inputs": [
        {
          "name": "_investor",
          "type": "address"
        },
        {
          "name": "_flag",
          "type": "uint8"
        }
      ],
      "name": "getInvestorFlag",
      "outputs": [
        {
          "name": "value",
          "type": "bool"
        }
      ],
      "payable": false,
      "stateMutability": "view",
      "type": "function"
    },
    {
      "constant": true,
      "inputs": [
        {
          "name": "_investor",
          "type": "address"
        }
      ],
      "name": "getInvestorFlags",
      "outputs": [
        {
          "name": "flags",
          "type": "uint256"
        }
      ],
      "payable": false,
      "stateMutability": "view",
      "type": "function"
    },
    {
      "constant": true,
      "inputs": [],
      "name": "getAllKYCData",
      "outputs": [
        {
          "name": "investors",
          "type": "address[]"
        },
        {
          "name": "canSendAfters",
          "type": "uint256[]"
        },
        {
          "name": "canReceiveAfters",
          "type": "uint256[]"
        },
        {
          "name": "expiryTimes",
          "type": "uint256[]"
        }
      ],
      "payable": false,
      "stateMutability": "view",
      "type": "function"
    },
    {
      "constant": true,
      "inputs": [
        {
          "name": "_investors",
          "type": "address[]"
        }
      ],
      "name": "getKYCData",
      "outputs": [
        {
          "name": "",
          "type": "uint256[]"
        },
        {
          "name": "",
          "type": "uint256[]"
        },
        {
          "name": "",
          "type": "uint256[]"
        }
      ],
      "payable": false,
      "stateMutability": "view",
      "type": "function"
    },
    {
      "constant": true,
      "inputs": [],
      "name": "getPermissions",
      "outputs": [
        {
          "name": "",
          "type": "bytes32[]"
        }
      ],
      "payable": false,
      "stateMutability": "view",
      "type": "function"
    },
    {
      "constant": true,
      "inputs": [
        {
          "name": "_partition",
          "type": "bytes32"
        },
        {
          "name": "_tokenHolder",
          "type": "address"
        },
        {
          "name": "_additionalBalance",
          "type": "uint256"
        }
      ],
      "name": "getTokensByPartition",
      "outputs": [
        {
          "name": "",
          "type": "uint256"
        }
      ],
      "payable": false,
      "stateMutability": "view",
      "type": "function"
    },
    {
      "constant": true,
      "inputs": [],
      "name": "getAddressBytes32",
      "outputs": [
        {
          "name": "",
          "type": "bytes32"
        }
      ],
      "payable": false,
      "stateMutability": "view",
      "type": "function"
    }
  ],
  "bytecode": "0x608060405260068054600160a01b60ff021916905534801561002057600080fd5b50604051604080613ef58339810180604052604081101561004057600080fd5b508051602090910151600580546001600160a01b039384166001600160a01b0319918216179091556004805482163317905560068054939092169216919091179055613e64806100916000396000f3fe608060405234801561001057600080fd5b50600436106102695760003560e01c8063983d273711610151578063c6c896b4116100c3578063edb7a6fa11610087578063edb7a6fa14611173578063ee2ba80c146111a1578063f1d74b0f146111cf578063f4c7e2ed146112be578063facad1981461135f578063fe58265e1461150457610269565b8063c6c896b414610d8b578063d0a2f2c414610dd2578063d2ec529814610dda578063e0c6815814611001578063e7e5876f1461102757610269565b8063b84dfbd211610115578063b84dfbd214610cfb578063ba216ee114610d03578063bc29389714610d29578063c3a07df614610d31578063c449c1d914610d39578063c45a015514610d8357610269565b8063983d273714610c805780639ba0b7c014610c88578063a1422f6914610cb4578063b3fac8ce14610cbc578063b6ae3b1214610cc457610269565b80635c975abb116101ea57806378de55fd116101ae57806378de55fd146108b15780637f9cc952146108e05780638456cb59146109205780638905fd4f146109285780638aa420131461094e5780638adb9067146109c157610269565b80635c975abb1461085957806365022eff146108755780636c2f0d531461087d5780636faa22a51461088557806370968c94146108a957610269565b80632829e651116102315780632829e6511461068b57806329f92326146106bd5780632a0acc6a146107975780633d3217311461079f5780633f4ba83a1461085157610269565b80630c6819df1461026e5780630f144a48146103995780631613ec9d146103a35780631822fdf1146103c85780631bb7cc9914610671575b600080fd5b61027661150c565b6040518080602001806020018060200180602001858103855289818151815260200191508051906020019060200280838360005b838110156102c25781810151838201526020016102aa565b50505050905001858103845288818151815260200191508051906020019060200280838360005b838110156103015781810151838201526020016102e9565b50505050905001858103835287818151815260200191508051906020019060200280838360005b83811015610340578181015183820152602001610328565b50505050905001858103825286818151815260200191508051906020019060200280838360005b8381101561037f578181015183820152602001610367565b505050509050019850505050505050505060405180910390f35b6103a1611532565b005b6103ab61156a565b604080516001600160e01b03199092168252519081900360200190f35b6103a1600480360360a08110156103de57600080fd5b810190602081018135600160201b8111156103f857600080fd5b82018360208201111561040a57600080fd5b803590602001918460208302840111600160201b8311171561042b57600080fd5b9190808060200260200160405190810160405280939291908181526020018383602002808284376000920191909152509295949360208101935035915050600160201b81111561047a57600080fd5b82018360208201111561048c57600080fd5b803590602001918460208302840111600160201b831117156104ad57600080fd5b9190808060200260200160405190810160405280939291908181526020018383602002808284376000920191909152509295949360208101935035915050600160201b8111156104fc57600080fd5b82018360208201111561050e57600080fd5b803590602001918460208302840111600160201b8311171561052f57600080fd5b9190808060200260200160405190810160405280939291908181526020018383602002808284376000920191909152509295949360208101935035915050600160201b81111561057e57600080fd5b82018360208201111561059057600080fd5b803590602001918460208302840111600160201b831117156105b157600080fd5b9190808060200260200160405190810160405280939291908181526020018383602002808284376000920191909152509295949360208101935035915050600160201b81111561060057600080fd5b82018360208201111561061257600080fd5b803590602001918460208302840111600160201b8311171561063357600080fd5b91908080602002602001604051908101604052809392919081815260200183836020028082843760009201919091525092955061156f945050505050565b6106796116d0565b60408051918252519081900360200190f35b610679600480360360608110156106a157600080fd5b508035906001600160a01b0360208201351690604001356116e3565b6103a160048036036101008110156106d457600080fd5b6001600160a01b038235169160208101359160408201359160608101359160808201359160a08101359160c08201359190810190610100810160e0820135600160201b81111561072357600080fd5b82018360208201111561073557600080fd5b803590602001918460018302840111600160201b8311171561075657600080fd5b91908080601f0160208091040260200160405190810160405280939291908181526020018383808284376000920191909152509295506118e6945050505050565b610679611954565b61082d600480360360808110156107b557600080fd5b6001600160a01b03823581169260208101359091169160408201359190810190608081016060820135600160201b8111156107ef57600080fd5b82018360208201111561080157600080fd5b803590602001918460018302840111600160201b8311171561082257600080fd5b509092509050611963565b6040518082600381111561083d57fe5b60ff16815260200191505060405180910390f35b6103a1611a79565b610861611a8b565b604080519115158252519081900360200190f35b610679611a9b565b610679611ab2565b61088d611ac4565b604080516001600160a01b039092168252519081900360200190f35b610679611ad3565b610861600480360360408110156108c757600080fd5b5080356001600160a01b0316906020013560ff16611ada565b6103a1600480360360a08110156108f657600080fd5b5060ff81351690602081013515159060408101351515906060810135151590608001351515611b0b565b6103a1611b78565b6103a16004803603602081101561093e57600080fd5b50356001600160a01b0316611b88565b6109716004803603604081101561096457600080fd5b5080359060200135611d43565b60408051602080825283518183015283519192839290830191858101910280838360005b838110156109ad578181015183820152602001610995565b505050509050019250505060405180910390f35b6103a160048036036101008110156109d857600080fd5b810190602081018135600160201b8111156109f257600080fd5b820183602082011115610a0457600080fd5b803590602001918460208302840111600160201b83111715610a2557600080fd5b9190808060200260200160405190810160405280939291908181526020018383602002808284376000920191909152509295949360208101935035915050600160201b811115610a7457600080fd5b820183602082011115610a8657600080fd5b803590602001918460208302840111600160201b83111715610aa757600080fd5b9190808060200260200160405190810160405280939291908181526020018383602002808284376000920191909152509295949360208101935035915050600160201b811115610af657600080fd5b820183602082011115610b0857600080fd5b803590602001918460208302840111600160201b83111715610b2957600080fd5b9190808060200260200160405190810160405280939291908181526020018383602002808284376000920191909152509295949360208101935035915050600160201b811115610b7857600080fd5b820183602082011115610b8a57600080fd5b803590602001918460208302840111600160201b83111715610bab57600080fd5b9190808060200260200160405190810160405280939291908181526020018383602002808284376000920191909152509295843595602086013595604081013595509193509150608081019060600135600160201b811115610c0c57600080fd5b820183602082011115610c1e57600080fd5b803590602001918460018302840111600160201b83111715610c3f57600080fd5b91908080601f016020809104026020016040519081016040528093929190818152602001838380828437600092019190915250929550611e49945050505050565b610679611e59565b61086160048036036040811015610c9e57600080fd5b506001600160a01b038135169060200135611e6b565b610679611e8b565b61088d611e9b565b6103a160048036036060811015610cda57600080fd5b506001600160a01b038135169060ff60208201351690604001351515611eaa565b61088d611f13565b61067960048036036020811015610d1957600080fd5b50356001600160a01b0316611f22565b610679611f33565b610971611f45565b610d5960048036036020811015610d4f57600080fd5b503560ff16611f93565b60408051941515855292151560208501529015158383015215156060830152519081900360800190f35b61088d611fc4565b6103a160048036036080811015610da157600080fd5b506001600160a01b03813516906001600160401b036020820135811691604081013582169160609091013516611fd3565b61097161203e565b6103a160048036036080811015610df057600080fd5b810190602081018135600160201b811115610e0a57600080fd5b820183602082011115610e1c57600080fd5b803590602001918460208302840111600160201b83111715610e3d57600080fd5b9190808060200260200160405190810160405280939291908181526020018383602002808284376000920191909152509295949360208101935035915050600160201b811115610e8c57600080fd5b820183602082011115610e9e57600080fd5b803590602001918460208302840111600160201b83111715610ebf57600080fd5b9190808060200260200160405190810160405280939291908181526020018383602002808284376000920191909152509295949360208101935035915050600160201b811115610f0e57600080fd5b820183602082011115610f2057600080fd5b803590602001918460208302840111600160201b83111715610f4157600080fd5b9190808060200260200160405190810160405280939291908181526020018383602002808284376000920191909152509295949360208101935035915050600160201b811115610f9057600080fd5b820183602082011115610fa257600080fd5b803590602001918460208302840111600160201b83111715610fc357600080fd5b919080806020026020016040519081016040528093929190818152602001838360200280828437600092019190915250929550612130945050505050565b6103a16004803603602081101561101757600080fd5b50356001600160a01b0316612267565b6110956004803603602081101561103d57600080fd5b810190602081018135600160201b81111561105757600080fd5b82018360208201111561106957600080fd5b803590602001918460208302840111600160201b8311171561108a57600080fd5b509092509050612314565b60405180806020018060200180602001848103845287818151815260200191508051906020019060200280838360005b838110156110dd5781810151838201526020016110c5565b50505050905001848103835286818151815260200191508051906020019060200280838360005b8381101561111c578181015183820152602001611104565b50505050905001848103825285818151815260200191508051906020019060200280838360005b8381101561115b578181015183820152602001611143565b50505050905001965050505050505060405180910390f35b61117b612362565b604080516001600160401b03938416815291909216602082015281519081900390910190f35b6103a1600480360360408110156111b757600080fd5b506001600160401b038135811691602001351661237c565b611293600480360360808110156111e557600080fd5b6001600160a01b03823581169260208101359091169160408201359190810190608081016060820135600160201b81111561121f57600080fd5b82018360208201111561123157600080fd5b803590602001918460018302840111600160201b8311171561125257600080fd5b91908080601f016020809104026020016040519081016040528093929190818152602001838380828437600092019190915250929550612454945050505050565b604051808360038111156112a357fe5b60ff1681526020018281526020019250505060405180910390f35b6112c661246e565b604051808060200180602001838103835285818151815260200191508051906020019060200280838360005b8381101561130a5781810151838201526020016112f2565b50505050905001838103825284818151815260200191508051906020019060200280838360005b83811015611349578181015183820152602001611331565b5050505090500194505050505060405180910390f35b6103a16004803603606081101561137557600080fd5b810190602081018135600160201b81111561138f57600080fd5b8201836020820111156113a157600080fd5b803590602001918460208302840111600160201b831117156113c257600080fd5b9190808060200260200160405190810160405280939291908181526020018383602002808284376000920191909152509295949360208101935035915050600160201b81111561141157600080fd5b82018360208201111561142357600080fd5b803590602001918460208302840111600160201b8311171561144457600080fd5b9190808060200260200160405190810160405280939291908181526020018383602002808284376000920191909152509295949360208101935035915050600160201b81111561149357600080fd5b8201836020820111156114a557600080fd5b803590602001918460208302840111600160201b831117156114c657600080fd5b9190808060200260200160405190810160405280939291908181526020018383602002808284376000920191909152509295506124f5945050505050565b61088d61260b565b60608060608061151a61203e565b935061152584612684565b9194509250905090919293565b61153a6127c2565b6040513390303180156108fc02916000818181858888f19350505050158015611567573d6000803e3d6000fd5b50565b600090565b600160d91b6420a226a4a702611585813361289b565b6115c75760408051600160e51b62461bcd0281526020600482015260126024820152600080516020613df9833981519152604482015290519081900360640190fd5b845186511480156115d9575083518551145b80156115e6575082518451145b80156115f3575081518351145b6116475760408051600160e51b62461bcd02815260206004820152601860248201527f4d69736d61746368656420696e707574206c656e677468730000000000000000604482015290519081900360640190fd5b60005b86518110156116c7576116bf87828151811061166257fe5b602002602001015187838151811061167657fe5b602002602001015187848151811061168a57fe5b602002602001015187858151811061169e57fe5b60200260200101518786815181106116b257fe5b60200260200101516129d1565b60010161164a565b50505050505050565b600160ba1b6815d2125511531254d50281565b60055460009081906001600160a01b0316331461177b5760055460408051600160e01b6370a082310281526001600160a01b038781166004830152915191909216916370a08231916024808301926020929190829003018186803b15801561174a57600080fd5b505afa15801561175e573d6000803e3d6000fd5b505050506040513d602081101561177457600080fd5b5051611806565b60055460408051600160e01b6370a082310281526001600160a01b038781166004830152915161180693879316916370a08231916024808301926020929190829003018186803b1580156117ce57600080fd5b505afa1580156117e2573d6000803e3d6000fd5b505050506040513d60208110156117f857600080fd5b50519063ffffffff612ad916565b9050600061181b8561181661260b565b612aeb565b5050506001600160401b0316905080156118355780611842565b6001546001600160401b03165b600654909150600090600160a01b900460ff1661187b57600160c21b6715539313d0d2d15102871480156118765750814210155b61188d565b600160c21b6715539313d0d2d1510287145b9050600160d21b651313d0d2d15102871480156118a957508142105b80156118bf5750600654600160a01b900460ff16155b806118c75750805b156118d7578293505050506118df565b600093505050505b9392505050565b6118f68888888888888888612b97565b61194a5760408051600160e51b62461bcd02815260206004820152601960248201527f496e76616c6964207369676e6174757265206f72206461746100000000000000604482015290519081900360640190fd5b5050505050505050565b600160d91b6420a226a4a70281565b60006020821115611a61576000806000806060878760a081101561198657600080fd5b6001600160a01b038235169160208101359160408201359160608101359181019060a081016080820135600160201b8111156119c157600080fd5b8201836020820111156119d357600080fd5b803590602001918460018302840111600160201b831117156119f457600080fd5b91908080601f016020809104026020016040519081016040528093929190818152602001838380828437600092019190915250999e50979c50959a509398509296505050506001600160a01b0388163014159250611a5b91505057611a5b84848484612ced565b50505050505b6000611a6d8787612ea9565b50979650505050505050565b611a816127c2565b611a896130bd565b565b600654600160a01b900460ff1681565b600160981b6c494e564553544f52464c4147530281565b600160c21b6715539313d0d2d1510281565b6006546001600160a01b031681565b3060601b90565b60008060018360ff16611aec86613163565b901c16905060008111611b00576000611b03565b60015b949350505050565b600160d91b6420a226a4a702611b21813361289b565b611b635760408051600160e51b62461bcd0281526020600482015260126024820152600080516020613df9833981519152604482015290519081900360640190fd5b611b7086868686866129d1565b505050505050565b611b806127c2565b611a89613203565b611b906127c2565b6001600160a01b038116611bee5760408051600160e51b62461bcd02815260206004820152600f60248201527f496e76616c696420616464726573730000000000000000000000000000000000604482015290519081900360640190fd5b60408051600160e01b6370a08231028152306004820152905182916000916001600160a01b038416916370a08231916024808301926020929190829003018186803b158015611c3c57600080fd5b505afa158015611c50573d6000803e3d6000fd5b505050506040513d6020811015611c6657600080fd5b505160408051600160e01b63a9059cbb0281523360048201526024810183905290519192506001600160a01b0384169163a9059cbb916044808201926020929091908290030181600087803b158015611cbe57600080fd5b505af1158015611cd2573d6000803e3d6000fd5b505050506040513d6020811015611ce857600080fd5b5051611d3e5760408051600160e51b62461bcd02815260206004820152600f60248201527f5472616e73666572206661696c65640000000000000000000000000000000000604482015290519081900360640190fd5b505050565b60606000611d4f61260b565b60408051600160e51b630755f5e7028152600080516020613e198339815191526004820152602481018790526044810186905290519192506001600160a01b0383169163eabebce091606480820192600092909190829003018186803b158015611db857600080fd5b505afa158015611dcc573d6000803e3d6000fd5b505050506040513d6000823e601f3d908101601f191682016040526020811015611df557600080fd5b810190808051600160201b811115611e0c57600080fd5b82016020810184811115611e1f57600080fd5b81518560208202830111600160201b82111715611e3b57600080fd5b509098975050505050505050565b6118f688888888888888886132b0565b600160c11b6727a822a920aa27a90281565b600260209081526000928352604080842090915290825290205460ff1681565b600160d21b651313d0d2d1510281565b6000546001600160a01b031681565b600160d91b6420a226a4a702611ec0813361289b565b611f025760408051600160e51b62461bcd0281526020600482015260126024820152600080516020613df9833981519152604482015290519081900360640190fd5b611f0d84848461353e565b50505050565b6005546001600160a01b031681565b6000611f2d82613163565b92915050565b600080516020613e1983398151915281565b60408051600180825281830190925260609182919060208083019080388339019050509050600160d91b6420a226a4a70281600081518110611f8357fe5b6020908102919091010152905090565b60036020526000908152604090205460ff808216916101008104821691620100008204811691630100000090041684565b6004546001600160a01b031681565b600160d91b6420a226a4a702611fe9813361289b565b61202b5760408051600160e51b62461bcd0281526020600482015260126024820152600080516020613df9833981519152604482015290519081900360640190fd5b61203785858585613821565b5050505050565b6060600061204a61260b565b9050806001600160a01b0316635948f733600080516020613e1983398151915260001b6040518263ffffffff1660e01b81526004018082815260200191505060006040518083038186803b1580156120a157600080fd5b505afa1580156120b5573d6000803e3d6000fd5b505050506040513d6000823e601f3d908101601f1916820160405260208110156120de57600080fd5b810190808051600160201b8111156120f557600080fd5b8201602081018481111561210857600080fd5b81518560208202830111600160201b8211171561212457600080fd5b50909695505050505050565b600160d91b6420a226a4a702612146813361289b565b6121885760408051600160e51b62461bcd0281526020600482015260126024820152600080516020613df9833981519152604482015290519081900360640190fd5b8351855114801561219a575082518451145b80156121a7575081518351145b6121fb5760408051600160e51b62461bcd02815260206004820152601860248201527f4d69736d61746368656420696e707574206c656e677468730000000000000000604482015290519081900360640190fd5b60005b8551811015611b705761225f86828151811061221657fe5b602002602001015186838151811061222a57fe5b602002602001015186848151811061223e57fe5b602002602001015186858151811061225257fe5b6020026020010151613821565b6001016121fe565b600160d91b6420a226a4a70261227d813361289b565b6122bf5760408051600160e51b62461bcd0281526020600482015260126024820152600080516020613df9833981519152604482015290519081900360640190fd5b600080546001600160a01b0384166001600160a01b0319909116811790915560408051918252517fc2f94c1edade7e889be574a1c807f58a5f5e38d4f75da71514d59777c1811bce9181900360200190a15050565b606080606061235585858080602002602001604051908101604052809392919081815260200183836020028082843760009201919091525061268492505050565b9250925092509250925092565b6001546001600160401b0380821691600160401b90041682565b600160d91b6420a226a4a702612392813361289b565b6123d45760408051600160e51b62461bcd0281526020600482015260126024820152600080516020613df9833981519152604482015290519081900360640190fd5b6001805467ffffffffffffffff19166001600160401b038581169182176fffffffffffffffff00000000000000001916600160401b9186169182021790925560408051918252602082019290925281517f60e8752d33a1bc653683658767428ede15855f520891c8c59e1c7f69936bf29c929181900390910190a1505050565b6000806124618686612ea9565b9150915094509492505050565b60608061247961203e565b915081516040519080825280602002602001820160405280156124a6578160200160208202803883390190505b50905060005b82518110156124f0576124d18382815181106124c457fe5b6020026020010151613163565b8282815181106124dd57fe5b60209081029190910101526001016124ac565b509091565b600160d91b6420a226a4a70261250b813361289b565b61254d5760408051600160e51b62461bcd0281526020600482015260126024820152600080516020613df9833981519152604482015290519081900360640190fd5b8251845114801561255f575081518351145b6125b35760408051600160e51b62461bcd02815260206004820152601860248201527f4d69736d61746368656420696e707574206c656e677468730000000000000000604482015290519081900360640190fd5b60005b8451811015612037576126038582815181106125ce57fe5b60200260200101518583815181106125e257fe5b60200260200101518584815181106125f657fe5b602002602001015161353e565b6001016125b6565b60055460408051600160e01b63660d0d6702815290516000926001600160a01b03169163660d0d67916004808301926020929190829003018186803b15801561265357600080fd5b505afa158015612667573d6000803e3d6000fd5b505050506040513d602081101561267d57600080fd5b5051905090565b60608060608084516040519080825280602002602001820160405280156126b5578160200160208202803883390190505b509050606085516040519080825280602002602001820160405280156126e5578160200160208202803883390190505b50905060608651604051908082528060200260200182016040528015612715578160200160208202803883390190505b50905060005b87518110156127b45761274388828151811061273357fe5b602002602001015161181661260b565b836001600160401b03169350826001600160401b03169250816001600160401b031691505086848151811061277457fe5b6020026020010186858151811061278757fe5b6020026020010186868151811061279a57fe5b60209081029190910101929092529190525260010161271b565b509196909550909350915050565b600560009054906101000a90046001600160a01b03166001600160a01b0316638da5cb5b6040518163ffffffff1660e01b815260040160206040518083038186803b15801561281057600080fd5b505afa158015612824573d6000803e3d6000fd5b505050506040513d602081101561283a57600080fd5b50516001600160a01b03163314611a895760408051600160e51b62461bcd02815260206004820152601360248201527f53656e646572206973206e6f74206f776e657200000000000000000000000000604482015290519081900360640190fd5b600080600560009054906101000a90046001600160a01b03166001600160a01b0316638da5cb5b6040518163ffffffff1660e01b815260040160206040518083038186803b1580156128ec57600080fd5b505afa158015612900573d6000803e3d6000fd5b505050506040513d602081101561291657600080fd5b50516004546001600160a01b0385811692811683149350161481806129385750805b806129c8575060055460408051600160e01b638658b8b90281526001600160a01b0387811660048301523060248301526044820189905291519190921691638658b8b9916064808301926020929190829003018186803b15801561299b57600080fd5b505afa1580156129af573d6000803e3d6000fd5b505050506040513d60208110156129c557600080fd5b50515b95945050505050565b604051806080016040528085151581526020018415158152602001831515815260200182151581525060036000876002811115612a0a57fe5b60ff168152602080820192909252604090810160002083518154938501519285015160609095015160ff199094169015151761ff001916610100921515929092029190911762ff0000191662010000931515939093029290921763ff0000001916630100000091151591909102179055846002811115612a8657fe5b604080518615158152851515602082015284151581830152831515606082015290517faf483d62cfa74dd793b677bf05a5055f19b7f55c57af09c381d26b5e9d59dfc89181900360800190a25050505050565b6000828201838110156118df57600080fd5b6000806000806000856001600160a01b03166333598b00612b1b600160ba1b6815d2125511531254d5028a6139f9565b6040518263ffffffff1660e01b81526004018082815260200191505060206040518083038186803b158015612b4f57600080fd5b505afa158015612b63573d6000803e3d6000fd5b505050506040513d6020811015612b7957600080fd5b50519050612b8681613a32565b929a91995097509095509350505050565b600042851180612ba657504284105b80612bb857506001600160a01b038916155b15612bc557506000612ce1565b6040805130606090811b6020808401919091526001600160a01b038d1690911b6034830152604882018b9052606882018a90526088820189905260a8820188905260c8820187905260e8808301879052835180840390910181526101089092019092528051910120612c38818486613a46565b15612cdb5788896001600160401b0316148015612c5d575087886001600160401b0316145b8015612c71575086876001600160401b0316145b612cc55760408051600160e51b62461bcd02815260206004820152600f60248201527f75696e743634206f766572666c6f770000000000000000000000000000000000604482015290519081900360640190fd5b612cd18a8a8a8a613821565b6001915050612ce1565b60009150505b98975050505050505050565b60608060608060608580602001905160a0811015612d0a57600080fd5b810190808051600160201b811115612d2157600080fd5b82016020810184811115612d3457600080fd5b81518560208202830111600160201b82111715612d5057600080fd5b50509291906020018051600160201b811115612d6b57600080fd5b82016020810184811115612d7e57600080fd5b81518560208202830111600160201b82111715612d9a57600080fd5b50509291906020018051600160201b811115612db557600080fd5b82016020810184811115612dc857600080fd5b81518560208202830111600160201b82111715612de457600080fd5b50509291906020018051600160201b811115612dff57600080fd5b82016020810184811115612e1257600080fd5b81518560208202830111600160201b82111715612e2e57600080fd5b50509291906020018051600160201b811115612e4957600080fd5b82016020810184811115612e5c57600080fd5b8151600160201b811182820187101715612e7557600080fd5b50979c50959a50939850919650929450612e9d9350889250879150869050858c8c8f886132b0565b50505050505050505050565b6006546000908190600160a01b900460ff166130ae57612ec7613dd1565b600080548190819081906001600160a01b038a811691161415612f4e576003600060015b60ff9081168252602080830193909352604091820160002082516080810184529054808316151582526101008104831615159482019490945262010000840482161515928101929092526301000000909204909116151560608201529450612fdd565b6001600160a01b038816612f6757600360006002612eeb565b6000805260036020908152604080516080810182527f3617319a054d772f909f7c479a2cebe5066e836a939412e32403c99029b92eff5460ff8181161515835261010082048116151594830194909452620100008104841615159282019290925263010000009091049091161515606082015294505b612fe78989613af4565b885193975091955090935091508015613006575061300483613b31565b155b80613023575084602001518015613023575061302182613b31565b155b1561303b575060019550600094506130b69350505050565b6130458482613b55565b604087015191955091508015613061575061305f84613ba1565b155b8061307e57508460600151801561307e575061307c81613ba1565b155b15613096575060019550600094506130b69350505050565b60026130a0611ad3565b9650965050505050506130b6565b506001905060005b9250929050565b600654600160a01b900460ff1661311e5760408051600160e51b62461bcd02815260206004820152601660248201527f436f6e7472616374206973206e6f742070617573656400000000000000000000604482015290519081900360640190fd5b60068054600160a01b60ff02191690556040805133815290517faeb196d352664784d1900b0e7414a8face7d29f4dae8c4b0cf68ed477423bbf49181900360200190a1565b60008061316e61260b565b9050806001600160a01b03166333598b0061319c600160981b6c494e564553544f52464c41475302866139f9565b6040518263ffffffff1660e01b81526004018082815260200191505060206040518083038186803b1580156131d057600080fd5b505afa1580156131e4573d6000803e3d6000fd5b505050506040513d60208110156131fa57600080fd5b50519392505050565b600654600160a01b900460ff16156132655760408051600160e51b62461bcd02815260206004820152601260248201527f436f6e7472616374206973207061757365640000000000000000000000000000604482015290519081900360640190fd5b60068054600160a01b60ff021916600160a01b1790556040805133815290517f5ee71a369c8672edded508e624ffc9257fa1ae6886ef32905c18e60196bca3999181900360200190a1565b6000875189511415806132c557508651885114155b806132d257508551875114155b156132df57506000612ce1565b428511806132ec57504284105b156132f957506000612ce1565b6000308a8a8a8a8a8a8a60405160200180896001600160a01b03166001600160a01b031660601b8152601401888051906020019060200280838360005b8381101561334e578181015183820152602001613336565b50505050905001878051906020019060200280838360005b8381101561337e578181015183820152602001613366565b50505050905001868051906020019060200280838360005b838110156133ae578181015183820152602001613396565b50505050905001858051906020019060200280838360005b838110156133de5781810151838201526020016133c6565b5050505090500184815260200183815260200182815260200198505050505050505050604051602081830303815290604052805190602001209050613424818486613a46565b15612cdb5760005b8a518110156135335789818151811061344157fe5b60200260200101518a828151811061345557fe5b60200260200101516001600160401b03161480156134a1575088818151811061347a57fe5b602002602001015189828151811061348e57fe5b60200260200101516001600160401b0316145b80156134db57508781815181106134b457fe5b60200260200101518882815181106134c857fe5b60200260200101516001600160401b0316145b1561352b5761352b8b82815181106134ef57fe5b60200260200101518b838151811061350357fe5b60200260200101518b848151811061351757fe5b60200260200101518b858151811061225257fe5b60010161342c565b506001915050612ce1565b6001600160a01b0383166135925760408051600160e51b62461bcd0281526020600482015260106024820152600160811b6f24b73b30b634b21034b73b32b9ba37b902604482015290519081900360640190fd5b600061359c61260b565b90506135a88482613bc4565b6136a65760408051600160e01b6381d65b2d028152600080516020613e1983398151915260048201526001600160a01b0386811660248301529151918316916381d65b2d9160448082019260009290919082900301818387803b15801561360e57600080fd5b505af1158015613622573d6000803e3d6000fd5b50505050806001600160a01b0316634f3029c261364e600160ba1b6815d2125511531254d502876139f9565b60016040518363ffffffff1660e01b81526004018083815260200182815260200192505050600060405180830381600087803b15801561368d57600080fd5b505af11580156136a1573d6000803e3d6000fd5b505050505b6000816001600160a01b03166333598b006136d4600160981b6c494e564553544f52464c41475302886139f9565b6040518263ffffffff1660e01b81526004018082815260200191505060206040518083038186803b15801561370857600080fd5b505afa15801561371c573d6000803e3d6000fd5b505050506040513d602081101561373257600080fd5b50519050821561374957600160ff85161b17613753565b600160ff85161b19165b816001600160a01b0316634f3029c261377f600160981b6c494e564553544f52464c41475302886139f9565b836040518363ffffffff1660e01b81526004018083815260200182815260200192505050600060405180830381600087803b1580156137bd57600080fd5b505af11580156137d1573d6000803e3d6000fd5b5050604080518615158152905160ff881693506001600160a01b03891692507fd3ba3867251ca0b1c8763506d321e84e055e82f1c8759a46fc35828c2835693e9181900360200190a35050505050565b6001600160a01b0384166138755760408051600160e51b62461bcd0281526020600482015260106024820152600160811b6f24b73b30b634b21034b73b32b9ba37b902604482015290519081900360640190fd5b600061387f61260b565b905061388b8582613bc4565b61390a5760408051600160e01b6381d65b2d028152600080516020613e1983398151915260048201526001600160a01b0387811660248301529151918316916381d65b2d9160448082019260009290919082900301818387803b1580156138f157600080fd5b505af1158015613905573d6000803e3d6000fd5b505050505b60006139198585856001613c6b565b9050816001600160a01b0316634f3029c2613943600160ba1b6815d2125511531254d502896139f9565b836040518363ffffffff1660e01b81526004018083815260200182815260200192505050600060405180830381600087803b15801561398157600080fd5b505af1158015613995573d6000803e3d6000fd5b5050604080516001600160401b03808a168252808916602083015287168183015290513393506001600160a01b038a1692507f676d67bf085f8b85668bb786dec2f2508db8b05e3724fdd0857248a0ec3f48959181900360600190a3505050505050565b604080516020808201949094526001600160a01b039290921660601b828201528051808303603401815260549092019052805191012090565b608881901c91604882901c91600881901c91565b600080613a6284613a5687613c92565b9063ffffffff613ce316565b6001600160a01b038116600090815260026020908152604080832087845290915290205490915060ff1680613aac5750613aaa600160c11b6727a822a920aa27a9028261289b565b155b15613abb5760009150506118df565b6001600160a01b031660009081526002602090815260408083208584529091529020805460ff1916600190811790915590509392505050565b6000806000806000613b0461260b565b9050613b108782612aeb565b50919650909450613b2390508682612aeb565b509699959850965050505050565b6000426001600160401b0316826001600160401b031610613b50575060015b919050565b6000806001600160401b038416613b75576001546001600160401b031693505b6001600160401b038316613b9957600154600160401b90046001600160401b031692505b509192909150565b6000426001600160401b0316826001600160401b031611613b5057506001919050565b600080826001600160a01b03166333598b00613bef600160ba1b6815d2125511531254d502876139f9565b6040518263ffffffff1660e01b81526004018082815260200191505060206040518083038186803b158015613c2357600080fd5b505afa158015613c37573d6000803e3d6000fd5b505050506040513d6020811015613c4d57600080fd5b5051905060ff811615613c61576001611b03565b5060009392505050565b60ff166001600160401b0391821660081b92821660481b9390911660881b92909217171790565b604080517f19457468657265756d205369676e6564204d6573736167653a0a333200000000602080830191909152603c8083019490945282518083039094018452605c909101909152815191012090565b60008151604114613cf657506000611f2d565b60208201516040830151606084015160001a7f7fffffffffffffffffffffffffffffff5d576e7357a4501ddfe92f46681b20a0821115613d3c5760009350505050611f2d565b8060ff16601b14158015613d5457508060ff16601c14155b15613d655760009350505050611f2d565b6040805160008152602080820180845289905260ff8416828401526060820186905260808201859052915160019260a0808401939192601f1981019281900390910190855afa158015613dbc573d6000803e3d6000fd5b5050604051601f190151979650505050505050565b6040805160808101825260008082526020820181905291810182905260608101919091529056fe496e76616c6964207065726d697373696f6e0000000000000000000000000000df3a8dd24acdd05addfc6aeffef7574d2de3f844535ec91e8e0f3e45dba96731a165627a7a7230582001184ec4505e737bf738005bd1929f6f2ed49f4b3fabd2c9dfd8c6a86922a4760029",
  "source": "pragma solidity 0.5.8;\n\nimport \"../TransferManager.sol\";\nimport \"../../../libraries/Encoder.sol\";\nimport \"../../../libraries/VersionUtils.sol\";\nimport \"openzeppelin-solidity/contracts/math/SafeMath.sol\";\nimport \"openzeppelin-solidity/contracts/cryptography/ECDSA.sol\";\nimport \"./GeneralTransferManagerStorage.sol\";\n\n/**\n * @title Transfer Manager module for core transfer validation functionality\n */\ncontract GeneralTransferManager is GeneralTransferManagerStorage, TransferManager {\n    using SafeMath for uint256;\n    using ECDSA for bytes32;\n\n    // Emit when Issuance address get changed\n    event ChangeIssuanceAddress(address _issuanceAddress);\n\n    // Emit when investor details get modified related to their whitelisting\n    event ChangeDefaults(uint64 _defaultCanSendAfter, uint64 _defaultCanReceiveAfter);\n\n    // _canSendAfter is the time from which the _investor can send tokens\n    // _canReceiveAfter is the time from which the _investor can receive tokens\n    // if allowAllWhitelistIssuances is TRUE, then _canReceiveAfter is ignored when receiving tokens from the issuance address\n    // if allowAllWhitelistTransfers is TRUE, then _canReceiveAfter and _canSendAfter is ignored when sending or receiving tokens\n    // in any case, any investor sending or receiving tokens, must have a _expiryTime in the future\n    event ModifyKYCData(\n        address indexed _investor,\n        address indexed _addedBy,\n        uint64 _canSendAfter,\n        uint64 _canReceiveAfter,\n        uint64 _expiryTime\n    );\n\n    event ModifyInvestorFlag(\n        address indexed _investor,\n        uint8 indexed _flag,\n        bool _value\n    );\n\n    event ModifyTransferRequirements(\n        TransferType indexed _transferType,\n        bool _fromValidKYC,\n        bool _toValidKYC,\n        bool _fromRestricted,\n        bool _toRestricted\n    );\n\n    /**\n     * @notice Constructor\n     * @param _securityToken Address of the security token\n     */\n    constructor(address _securityToken, address _polyToken)\n    public\n    Module(_securityToken, _polyToken)\n    {\n\n    }\n\n    /**\n     * @notice This function returns the signature of configure function\n     */\n    function getInitFunction() public pure returns(bytes4) {\n        return bytes4(0);\n    }\n\n    /**\n     * @notice Used to change the default times used when canSendAfter / canReceiveAfter are zero\n     * @param _defaultCanSendAfter default for zero canSendAfter\n     * @param _defaultCanReceiveAfter default for zero canReceiveAfter\n     */\n    function changeDefaults(uint64 _defaultCanSendAfter, uint64 _defaultCanReceiveAfter) public withPerm(ADMIN) {\n        /* 0 values are also allowed as they represent that the Issuer\n           does not want a default value for these variables.\n           0 is also the default value of these variables */\n        defaults.canSendAfter = _defaultCanSendAfter;\n        defaults.canReceiveAfter = _defaultCanReceiveAfter;\n        emit ChangeDefaults(_defaultCanSendAfter, _defaultCanReceiveAfter);\n    }\n\n    /**\n     * @notice Used to change the Issuance Address\n     * @param _issuanceAddress new address for the issuance\n     */\n    function changeIssuanceAddress(address _issuanceAddress) public withPerm(ADMIN) {\n        // address(0x0) is also a valid value and in most cases, the address that issues tokens is 0x0.\n        issuanceAddress = _issuanceAddress;\n        emit ChangeIssuanceAddress(_issuanceAddress);\n    }\n\n    /**\n     * @notice Default implementation of verifyTransfer used by SecurityToken\n     * If the transfer request comes from the STO, it only checks that the investor is in the whitelist\n     * If the transfer request comes from a token holder, it checks that:\n     * a) Both are on the whitelist\n     * b) Seller's sale lockup period is over\n     * c) Buyer's purchase lockup is over\n     * @param _from Address of the sender\n     * @param _to Address of the receiver\n    */\n    function executeTransfer(\n        address _from,\n        address _to,\n        uint256 /*_amount*/,\n        bytes calldata _data\n    ) external returns(Result) {\n        if (_data.length > 32) {\n            address target;\n            uint256 nonce;\n            uint256 validFrom;\n            uint256 validTo;\n            bytes memory data;\n            (target, nonce, validFrom, validTo, data) = abi.decode(_data, (address, uint256, uint256, uint256, bytes));\n            if (target == address(this))\n                _processTransferSignature(nonce, validFrom, validTo, data);\n        }\n        (Result success,) = _verifyTransfer(_from, _to);\n        return success;\n    }\n\n    function _processTransferSignature(uint256 _nonce, uint256 _validFrom, uint256 _validTo, bytes memory _data) internal {\n        address[] memory investor;\n        uint256[] memory canSendAfter;\n        uint256[] memory canReceiveAfter;\n        uint256[] memory expiryTime;\n        bytes memory signature;\n        (investor, canSendAfter, canReceiveAfter, expiryTime, signature) =\n            abi.decode(_data, (address[], uint256[], uint256[], uint256[], bytes));\n        _modifyKYCDataSignedMulti(investor, canSendAfter, canReceiveAfter, expiryTime, _validFrom, _validTo, _nonce, signature);\n    }\n\n    /**\n     * @notice Default implementation of verifyTransfer used by SecurityToken\n     * @param _from Address of the sender\n     * @param _to Address of the receiver\n    */\n    function verifyTransfer(\n        address _from,\n        address _to,\n        uint256 /*_amount*/,\n        bytes memory /* _data */\n    )\n        public\n        view\n        returns(Result, bytes32)\n    {\n        return _verifyTransfer(_from, _to);\n    }\n\n    function _verifyTransfer(\n        address _from,\n        address _to\n    )\n        internal\n        view\n        returns(Result, bytes32)\n    {\n        if (!paused) {\n            TransferRequirements memory txReq;\n            uint64 canSendAfter;\n            uint64 fromExpiry;\n            uint64 toExpiry;\n            uint64 canReceiveAfter;\n\n            if (_from == issuanceAddress) {\n                txReq = transferRequirements[uint8(TransferType.ISSUANCE)];\n            } else if (_to == address(0)) {\n                txReq = transferRequirements[uint8(TransferType.REDEMPTION)];\n            } else {\n                txReq = transferRequirements[uint8(TransferType.GENERAL)];\n            }\n\n            (canSendAfter, fromExpiry, canReceiveAfter, toExpiry) = _getValuesForTransfer(_from, _to);\n\n            if ((txReq.fromValidKYC && !_validExpiry(fromExpiry)) || (txReq.toValidKYC && !_validExpiry(toExpiry))) {\n                return (Result.NA, bytes32(0));\n            }\n\n            (canSendAfter, canReceiveAfter) = _adjustTimes(canSendAfter, canReceiveAfter);\n\n            if ((txReq.fromRestricted && !_validLockTime(canSendAfter)) || (txReq.toRestricted && !_validLockTime(canReceiveAfter))) {\n                return (Result.NA, bytes32(0));\n            }\n\n            return (Result.VALID, getAddressBytes32());\n        }\n        return (Result.NA, bytes32(0));\n    }\n\n    /**\n    * @notice Modifies the successful checks required for a transfer to be deemed valid.\n    * @param _transferType Type of transfer (0 = General, 1 = Issuance, 2 = Redemption)\n    * @param _fromValidKYC Defines if KYC is required for the sender\n    * @param _toValidKYC Defines if KYC is required for the receiver\n    * @param _fromRestricted Defines if transfer time restriction is checked for the sender\n    * @param _toRestricted Defines if transfer time restriction is checked for the receiver\n    */\n    function modifyTransferRequirements(\n        TransferType _transferType,\n        bool _fromValidKYC,\n        bool _toValidKYC,\n        bool _fromRestricted,\n        bool _toRestricted\n    ) public withPerm(ADMIN) {\n        _modifyTransferRequirements(\n            _transferType,\n            _fromValidKYC,\n            _toValidKYC,\n            _fromRestricted,\n            _toRestricted\n        );\n    }\n\n    /**\n    * @notice Modifies the successful checks required for transfers.\n    * @param _transferTypes Types of transfer (0 = General, 1 = Issuance, 2 = Redemption)\n    * @param _fromValidKYC Defines if KYC is required for the sender\n    * @param _toValidKYC Defines if KYC is required for the receiver\n    * @param _fromRestricted Defines if transfer time restriction is checked for the sender\n    * @param _toRestricted Defines if transfer time restriction is checked for the receiver\n    */\n    function modifyTransferRequirementsMulti(\n        TransferType[] memory _transferTypes,\n        bool[] memory _fromValidKYC,\n        bool[] memory _toValidKYC,\n        bool[] memory _fromRestricted,\n        bool[] memory _toRestricted\n    ) public withPerm(ADMIN) {\n        require(\n            _transferTypes.length == _fromValidKYC.length &&\n            _fromValidKYC.length == _toValidKYC.length &&\n            _toValidKYC.length == _fromRestricted.length &&\n            _fromRestricted.length == _toRestricted.length,\n            \"Mismatched input lengths\"\n        );\n\n        for (uint256 i = 0; i <  _transferTypes.length; i++) {\n            _modifyTransferRequirements(\n                _transferTypes[i],\n                _fromValidKYC[i],\n                _toValidKYC[i],\n                _fromRestricted[i],\n                _toRestricted[i]\n            );\n        }\n    }\n\n    function _modifyTransferRequirements(\n        TransferType _transferType,\n        bool _fromValidKYC,\n        bool _toValidKYC,\n        bool _fromRestricted,\n        bool _toRestricted\n    ) internal {\n        transferRequirements[uint8(_transferType)] =\n            TransferRequirements(\n                _fromValidKYC,\n                _toValidKYC,\n                _fromRestricted,\n                _toRestricted\n            );\n\n        emit ModifyTransferRequirements(\n            _transferType,\n            _fromValidKYC,\n            _toValidKYC,\n            _fromRestricted,\n            _toRestricted\n        );\n    }\n\n\n    /**\n    * @notice Add or remove KYC info of an investor.\n    * @param _investor is the address to whitelist\n    * @param _canSendAfter is the moment when the sale lockup period ends and the investor can freely sell or transfer their tokens\n    * @param _canReceiveAfter is the moment when the purchase lockup period ends and the investor can freely purchase or receive tokens from others\n    * @param _expiryTime is the moment till investors KYC will be validated. After that investor need to do re-KYC\n    */\n    function modifyKYCData(\n        address _investor,\n        uint64 _canSendAfter,\n        uint64 _canReceiveAfter,\n        uint64 _expiryTime\n    )\n        public\n        withPerm(ADMIN)\n    {\n        _modifyKYCData(_investor, _canSendAfter, _canReceiveAfter, _expiryTime);\n    }\n\n    function _modifyKYCData(address _investor, uint64 _canSendAfter, uint64 _canReceiveAfter, uint64 _expiryTime) internal {\n        require(_investor != address(0), \"Invalid investor\");\n        IDataStore dataStore = getDataStore();\n        if (!_isExistingInvestor(_investor, dataStore)) {\n           dataStore.insertAddress(INVESTORSKEY, _investor);\n        }\n        uint256 _data = VersionUtils.packKYC(_canSendAfter, _canReceiveAfter, _expiryTime, uint8(1));\n        dataStore.setUint256(_getKey(WHITELIST, _investor), _data);\n        emit ModifyKYCData(_investor, msg.sender, _canSendAfter, _canReceiveAfter, _expiryTime);\n    }\n\n    /**\n    * @notice Add or remove KYC info of an investor.\n    * @param _investors is the address to whitelist\n    * @param _canSendAfter is the moment when the sale lockup period ends and the investor can freely sell his tokens\n    * @param _canReceiveAfter is the moment when the purchase lockup period ends and the investor can freely purchase tokens from others\n    * @param _expiryTime is the moment till investors KYC will be validated. After that investor need to do re-KYC\n    */\n    function modifyKYCDataMulti(\n        address[] memory _investors,\n        uint64[] memory _canSendAfter,\n        uint64[] memory _canReceiveAfter,\n        uint64[] memory _expiryTime\n    )\n        public\n        withPerm(ADMIN)\n    {\n        require(\n            _investors.length == _canSendAfter.length &&\n            _canSendAfter.length == _canReceiveAfter.length &&\n            _canReceiveAfter.length == _expiryTime.length,\n            \"Mismatched input lengths\"\n        );\n        for (uint256 i = 0; i < _investors.length; i++) {\n            _modifyKYCData(_investors[i], _canSendAfter[i], _canReceiveAfter[i], _expiryTime[i]);\n        }\n    }\n\n    /**\n    * @notice Used to modify investor Flag.\n    * @dev Flags are properties about investors that can be true or false like isAccredited\n    * @param _investor is the address of the investor.\n    * @param _flag index of flag to change. flag is used to know specifics about investor like isAccredited.\n    * @param _value value of the flag. a flag can be true or false.\n    */\n    function modifyInvestorFlag(\n        address _investor,\n        uint8 _flag,\n        bool _value\n    )\n        public\n        withPerm(ADMIN)\n    {\n        _modifyInvestorFlag(_investor, _flag, _value);\n    }\n\n\n    function _modifyInvestorFlag(address _investor, uint8 _flag, bool _value) internal {\n        require(_investor != address(0), \"Invalid investor\");\n        IDataStore dataStore = getDataStore();\n        if (!_isExistingInvestor(_investor, dataStore)) {\n           dataStore.insertAddress(INVESTORSKEY, _investor);\n           //KYC data can not be present if _isExistingInvestor is false and hence we can set packed KYC as uint256(1) to set `added` as true\n           dataStore.setUint256(_getKey(WHITELIST, _investor), uint256(1));\n        }\n        //NB Flags are packed together in a uint256 to save gas. We can have a maximum of 256 flags.\n        uint256 flags = dataStore.getUint256(_getKey(INVESTORFLAGS, _investor));\n        if (_value)\n            flags = flags | (ONE << _flag);\n        else\n            flags = flags & ~(ONE << _flag);\n        dataStore.setUint256(_getKey(INVESTORFLAGS, _investor), flags);\n        emit ModifyInvestorFlag(_investor, _flag, _value);\n    }\n\n    /**\n    * @notice Used to modify investor data.\n    * @param _investors List of the addresses to modify data about.\n    * @param _flag index of flag to change. flag is used to know specifics about investor like isAccredited.\n    * @param _value value of the flag. a flag can be true or false.\n    */\n    function modifyInvestorFlagMulti(\n        address[] memory _investors,\n        uint8[] memory _flag,\n        bool[] memory _value\n    )\n        public\n        withPerm(ADMIN)\n    {\n        require(\n            _investors.length == _flag.length &&\n            _flag.length == _value.length,\n            \"Mismatched input lengths\"\n        );\n        for (uint256 i = 0; i < _investors.length; i++) {\n            _modifyInvestorFlag(_investors[i], _flag[i], _value[i]);\n        }\n    }\n\n    /**\n    * @notice Adds or removes addresses from the whitelist - can be called by anyone with a valid signature\n    * @param _investor is the address to whitelist\n    * @param _canSendAfter is the moment when the sale lockup period ends and the investor can freely sell his tokens\n    * @param _canReceiveAfter is the moment when the purchase lockup period ends and the investor can freely purchase tokens from others\n    * @param _expiryTime is the moment till investors KYC will be validated. After that investor need to do re-KYC\n    * @param _validFrom is the time that this signature is valid from\n    * @param _validTo is the time that this signature is valid until\n    * @param _nonce nonce of signature (avoid replay attack)\n    * @param _signature issuer signature\n    */\n    function modifyKYCDataSigned(\n        address _investor,\n        uint256 _canSendAfter,\n        uint256 _canReceiveAfter,\n        uint256 _expiryTime,\n        uint256 _validFrom,\n        uint256 _validTo,\n        uint256 _nonce,\n        bytes memory _signature\n    )\n        public\n    {\n        require(\n            _modifyKYCDataSigned(_investor, _canSendAfter, _canReceiveAfter, _expiryTime, _validFrom, _validTo, _nonce, _signature),\n            \"Invalid signature or data\"\n        );\n    }\n\n    function _modifyKYCDataSigned(\n        address _investor,\n        uint256 _canSendAfter,\n        uint256 _canReceiveAfter,\n        uint256 _expiryTime,\n        uint256 _validFrom,\n        uint256 _validTo,\n        uint256 _nonce,\n        bytes memory _signature\n    )\n        internal\n        returns(bool)\n    {\n        /*solium-disable-next-line security/no-block-members*/\n        if(_validFrom > now || _validTo < now || _investor == address(0))\n            return false;\n        bytes32 hash = keccak256(\n            abi.encodePacked(this, _investor, _canSendAfter, _canReceiveAfter, _expiryTime, _validFrom, _validTo, _nonce)\n        );\n        if (_checkSig(hash, _signature, _nonce)) {\n            require(\n                uint64(_canSendAfter) == _canSendAfter &&\n                uint64(_canReceiveAfter) == _canReceiveAfter &&\n                uint64(_expiryTime) == _expiryTime,\n                \"uint64 overflow\"\n            );\n            _modifyKYCData(_investor, uint64(_canSendAfter), uint64(_canReceiveAfter), uint64(_expiryTime));\n            return true;\n        }\n        return false;\n    }\n\n    /**\n    * @notice Adds or removes addresses from the whitelist - can be called by anyone with a valid signature\n    * @dev using uint256 for some uint256 variables as web3 wasn;t packing and hashing uint64 arrays properly\n    * @param _investor is the address to whitelist\n    * @param _canSendAfter is the moment when the sale lockup period ends and the investor can freely sell his tokens\n    * @param _canReceiveAfter is the moment when the purchase lockup period ends and the investor can freely purchase tokens from others\n    * @param _expiryTime is the moment till investors KYC will be validated. After that investor need to do re-KYC\n    * @param _validFrom is the time that this signature is valid from\n    * @param _validTo is the time that this signature is valid until\n    * @param _nonce nonce of signature (avoid replay attack)\n    * @param _signature issuer signature\n    */\n    function modifyKYCDataSignedMulti(\n        address[] memory _investor,\n        uint256[] memory _canSendAfter,\n        uint256[] memory _canReceiveAfter,\n        uint256[] memory _expiryTime,\n        uint256 _validFrom,\n        uint256 _validTo,\n        uint256 _nonce,\n        bytes memory _signature\n    )\n        public\n    {\n        require(\n            _modifyKYCDataSignedMulti(_investor, _canSendAfter, _canReceiveAfter, _expiryTime, _validFrom, _validTo, _nonce, _signature),\n            \"Invalid signature or data\"\n        );\n    }\n\n    function _modifyKYCDataSignedMulti(\n        address[] memory _investor,\n        uint256[] memory _canSendAfter,\n        uint256[] memory _canReceiveAfter,\n        uint256[] memory _expiryTime,\n        uint256 _validFrom,\n        uint256 _validTo,\n        uint256 _nonce,\n        bytes memory _signature\n    )\n        internal\n        returns(bool)\n    {\n        if (_investor.length != _canSendAfter.length ||\n            _canSendAfter.length != _canReceiveAfter.length ||\n            _canReceiveAfter.length != _expiryTime.length\n        ) {\n            return false;\n        }\n\n        if (_validFrom > now || _validTo < now) {\n            return false;\n        }\n\n        bytes32 hash = keccak256(\n            abi.encodePacked(this, _investor, _canSendAfter, _canReceiveAfter, _expiryTime, _validFrom, _validTo, _nonce)\n        );\n\n        if (_checkSig(hash, _signature, _nonce)) {\n            for (uint256 i = 0; i < _investor.length; i++) {\n                if (uint64(_canSendAfter[i]) == _canSendAfter[i] &&\n                    uint64(_canReceiveAfter[i]) == _canReceiveAfter[i] &&\n                    uint64(_expiryTime[i]) == _expiryTime[i]\n                )\n                    _modifyKYCData(_investor[i], uint64(_canSendAfter[i]), uint64(_canReceiveAfter[i]), uint64(_expiryTime[i]));\n            }\n            return true;\n        }\n        return false;\n    }\n\n    /**\n     * @notice Used to verify the signature\n     */\n    function _checkSig(bytes32 _hash, bytes memory _signature, uint256 _nonce) internal returns(bool) {\n        //Check that the signature is valid\n        //sig should be signing - _investor, _canSendAfter, _canReceiveAfter & _expiryTime and be signed by the issuer address\n        address signer = _hash.toEthSignedMessageHash().recover(_signature);\n        if (nonceMap[signer][_nonce] || !_checkPerm(OPERATOR, signer)) {\n            return false;\n        }\n        nonceMap[signer][_nonce] = true;\n        return true;\n    }\n\n    /**\n     * @notice Internal function used to check whether the KYC of investor is valid\n     * @param _expiryTime Expiry time of the investor\n     */\n    function _validExpiry(uint64 _expiryTime) internal view returns(bool valid) {\n        if (_expiryTime >= uint64(now)) /*solium-disable-line security/no-block-members*/\n            valid = true;\n    }\n\n    /**\n     * @notice Internal function used to check whether the lock time of investor is valid\n     * @param _lockTime Lock time of the investor\n     */\n    function _validLockTime(uint64 _lockTime) internal view returns(bool valid) {\n        if (_lockTime <= uint64(now)) /*solium-disable-line security/no-block-members*/\n            valid = true;\n    }\n\n    /**\n     * @notice Internal function to adjust times using default values\n     */\n    function _adjustTimes(uint64 _canSendAfter, uint64 _canReceiveAfter) internal view returns(uint64, uint64) {\n        if (_canSendAfter == 0) {\n            _canSendAfter = defaults.canSendAfter;\n        }\n        if (_canReceiveAfter == 0) {\n            _canReceiveAfter = defaults.canReceiveAfter;\n        }\n        return (_canSendAfter, _canReceiveAfter);\n    }\n\n    function _getKey(bytes32 _key1, address _key2) internal pure returns(bytes32) {\n        return bytes32(keccak256(abi.encodePacked(_key1, _key2)));\n    }\n\n    function _getKYCValues(address _investor, IDataStore dataStore) internal view returns(\n        uint64 canSendAfter,\n        uint64 canReceiveAfter,\n        uint64 expiryTime,\n        uint8 added\n    )\n    {\n        uint256 data = dataStore.getUint256(_getKey(WHITELIST, _investor));\n        (canSendAfter, canReceiveAfter, expiryTime, added)  = VersionUtils.unpackKYC(data);\n    }\n\n    function _isExistingInvestor(address _investor, IDataStore dataStore) internal view returns(bool) {\n        uint256 data = dataStore.getUint256(_getKey(WHITELIST, _investor));\n        //extracts `added` from packed `_whitelistData`\n        return uint8(data) == 0 ? false : true;\n    }\n\n    function _getValuesForTransfer(address _from, address _to) internal view returns(uint64 canSendAfter, uint64 fromExpiry, uint64 canReceiveAfter, uint64 toExpiry) {\n        IDataStore dataStore = getDataStore();\n        (canSendAfter, , fromExpiry, ) = _getKYCValues(_from, dataStore);\n        (, canReceiveAfter, toExpiry, ) = _getKYCValues(_to, dataStore);\n    }\n\n    /**\n     * @dev Returns list of all investors\n     */\n    function getAllInvestors() public view returns(address[] memory investors) {\n        IDataStore dataStore = getDataStore();\n        investors = dataStore.getAddressArray(INVESTORSKEY);\n    }\n\n    /**\n     * @dev Returns list of investors in a range\n     */\n    function getInvestors(uint256 _fromIndex, uint256 _toIndex) public view returns(address[] memory investors) {\n        IDataStore dataStore = getDataStore();\n        investors = dataStore.getAddressArrayElements(INVESTORSKEY, _fromIndex, _toIndex);\n    }\n\n    function getAllInvestorFlags() public view returns(address[] memory investors, uint256[] memory flags) {\n        investors = getAllInvestors();\n        flags = new uint256[](investors.length);\n        for (uint256 i = 0; i < investors.length; i++) {\n            flags[i] = _getInvestorFlags(investors[i]);\n        }\n    }\n\n    function getInvestorFlag(address _investor, uint8 _flag) public view returns(bool value) {\n        uint256 flag = (_getInvestorFlags(_investor) >> _flag) & ONE;\n        value = flag > 0 ? true : false;\n    }\n\n    function getInvestorFlags(address _investor) public view returns(uint256 flags) {\n        flags = _getInvestorFlags(_investor);\n    }\n\n    function _getInvestorFlags(address _investor) internal view returns(uint256 flags) {\n        IDataStore dataStore = getDataStore();\n        flags = dataStore.getUint256(_getKey(INVESTORFLAGS, _investor));\n    }\n\n    /**\n     * @dev Returns list of all investors data\n     */\n    function getAllKYCData() external view returns(\n        address[] memory investors,\n        uint256[] memory canSendAfters,\n        uint256[] memory canReceiveAfters,\n        uint256[] memory expiryTimes\n    ) {\n        investors = getAllInvestors();\n        (canSendAfters, canReceiveAfters, expiryTimes) = _kycData(investors);\n        return (investors, canSendAfters, canReceiveAfters, expiryTimes);\n    }\n\n    /**\n     * @dev Returns list of specified investors data\n     */\n    function getKYCData(address[] calldata _investors) external view returns(\n        uint256[] memory,\n        uint256[] memory,\n        uint256[] memory\n    ) {\n        return _kycData(_investors);\n    }\n\n    function _kycData(address[] memory _investors) internal view returns(\n        uint256[] memory,\n        uint256[] memory,\n        uint256[] memory\n    ) {\n        uint256[] memory canSendAfters = new uint256[](_investors.length);\n        uint256[] memory canReceiveAfters = new uint256[](_investors.length);\n        uint256[] memory expiryTimes = new uint256[](_investors.length);\n        for (uint256 i = 0; i < _investors.length; i++) {\n            (canSendAfters[i], canReceiveAfters[i], expiryTimes[i], ) = _getKYCValues(_investors[i], getDataStore());\n        }\n        return (canSendAfters, canReceiveAfters, expiryTimes);\n    }\n\n    /**\n     * @notice Return the permissions flag that are associated with general trnasfer manager\n     */\n    function getPermissions() public view returns(bytes32[] memory) {\n        bytes32[] memory allPermissions = new bytes32[](1);\n        allPermissions[0] = ADMIN;\n        return allPermissions;\n    }\n\n    /**\n     * @notice return the amount of tokens for a given user as per the partition\n     * @param _partition Identifier\n     * @param _tokenHolder Whom token amount need to query\n     * @param _additionalBalance It is the `_value` that transfer during transfer/transferFrom function call\n     */\n    function getTokensByPartition(bytes32 _partition, address _tokenHolder, uint256 _additionalBalance) external view returns(uint256) {\n        uint256 currentBalance = (msg.sender == address(securityToken)) ? (securityToken.balanceOf(_tokenHolder)).add(_additionalBalance) : securityToken.balanceOf(_tokenHolder);\n        uint256 canSendAfter;\n        (canSendAfter,,,) = _getKYCValues(_tokenHolder, getDataStore());\n        canSendAfter = (canSendAfter == 0 ? defaults.canSendAfter:  canSendAfter);\n        bool unlockedCheck = paused ? _partition == UNLOCKED : (_partition == UNLOCKED && now >= canSendAfter);\n        if (((_partition == LOCKED && now < canSendAfter) && !paused) || unlockedCheck)\n            return currentBalance;\n        else\n            return 0;\n    }\n\n    function getAddressBytes32() public view returns(bytes32) {\n        return bytes32(uint256(address(this)) << 96);\n    }\n\n}\n",
  "sourcePath": "C:/Users/victor/Repos/polymath-core/contracts/modules/TransferManager/GTM/GeneralTransferManager.sol",
  "compiler": {
    "name": "solc",
    "version": "0.5.8+commit.23d335f2.Emscripten.clang"
  },
  "schemaVersion": "3.0.11",
  "updatedAt": "2019-06-19T20:39:29.441Z",
  "devdoc": {
    "methods": {
      "changeDefaults(uint64,uint64)": {
        "params": {
          "_defaultCanReceiveAfter": "default for zero canReceiveAfter",
          "_defaultCanSendAfter": "default for zero canSendAfter"
        }
      },
      "changeIssuanceAddress(address)": {
        "params": {
          "_issuanceAddress": "new address for the issuance"
        }
      },
      "constructor": {
        "params": {
          "_securityToken": "Address of the security token"
        }
      },
      "executeTransfer(address,address,uint256,bytes)": {
        "params": {
          "_from": "Address of the sender",
          "_to": "Address of the receiver"
        }
      },
      "getAllInvestors()": {
        "details": "Returns list of all investors"
      },
      "getAllKYCData()": {
        "details": "Returns list of all investors data"
      },
      "getInvestors(uint256,uint256)": {
        "details": "Returns list of investors in a range"
      },
      "getKYCData(address[])": {
        "details": "Returns list of specified investors data"
      },
      "getTokensByPartition(bytes32,address,uint256)": {
        "params": {
          "_additionalBalance": "It is the `_value` that transfer during transfer/transferFrom function call",
          "_partition": "Identifier",
          "_tokenHolder": "Whom token amount need to query"
        }
      },
      "modifyInvestorFlag(address,uint8,bool)": {
        "details": "Flags are properties about investors that can be true or false like isAccredited",
        "params": {
          "_flag": "index of flag to change. flag is used to know specifics about investor like isAccredited.",
          "_investor": "is the address of the investor.",
          "_value": "value of the flag. a flag can be true or false."
        }
      },
      "modifyInvestorFlagMulti(address[],uint8[],bool[])": {
        "params": {
          "_flag": "index of flag to change. flag is used to know specifics about investor like isAccredited.",
          "_investors": "List of the addresses to modify data about.",
          "_value": "value of the flag. a flag can be true or false."
        }
      },
      "modifyKYCData(address,uint64,uint64,uint64)": {
        "params": {
          "_canReceiveAfter": "is the moment when the purchase lockup period ends and the investor can freely purchase or receive tokens from others",
          "_canSendAfter": "is the moment when the sale lockup period ends and the investor can freely sell or transfer their tokens",
          "_expiryTime": "is the moment till investors KYC will be validated. After that investor need to do re-KYC",
          "_investor": "is the address to whitelist"
        }
      },
      "modifyKYCDataMulti(address[],uint64[],uint64[],uint64[])": {
        "params": {
          "_canReceiveAfter": "is the moment when the purchase lockup period ends and the investor can freely purchase tokens from others",
          "_canSendAfter": "is the moment when the sale lockup period ends and the investor can freely sell his tokens",
          "_expiryTime": "is the moment till investors KYC will be validated. After that investor need to do re-KYC",
          "_investors": "is the address to whitelist"
        }
      },
      "modifyKYCDataSigned(address,uint256,uint256,uint256,uint256,uint256,uint256,bytes)": {
        "params": {
          "_canReceiveAfter": "is the moment when the purchase lockup period ends and the investor can freely purchase tokens from others",
          "_canSendAfter": "is the moment when the sale lockup period ends and the investor can freely sell his tokens",
          "_expiryTime": "is the moment till investors KYC will be validated. After that investor need to do re-KYC",
          "_investor": "is the address to whitelist",
          "_nonce": "nonce of signature (avoid replay attack)",
          "_signature": "issuer signature",
          "_validFrom": "is the time that this signature is valid from",
          "_validTo": "is the time that this signature is valid until"
        }
      },
      "modifyKYCDataSignedMulti(address[],uint256[],uint256[],uint256[],uint256,uint256,uint256,bytes)": {
        "details": "using uint256 for some uint256 variables as web3 wasn;t packing and hashing uint64 arrays properly",
        "params": {
          "_canReceiveAfter": "is the moment when the purchase lockup period ends and the investor can freely purchase tokens from others",
          "_canSendAfter": "is the moment when the sale lockup period ends and the investor can freely sell his tokens",
          "_expiryTime": "is the moment till investors KYC will be validated. After that investor need to do re-KYC",
          "_investor": "is the address to whitelist",
          "_nonce": "nonce of signature (avoid replay attack)",
          "_signature": "issuer signature",
          "_validFrom": "is the time that this signature is valid from",
          "_validTo": "is the time that this signature is valid until"
        }
      },
      "modifyTransferRequirements(uint8,bool,bool,bool,bool)": {
        "params": {
          "_fromRestricted": "Defines if transfer time restriction is checked for the sender",
          "_fromValidKYC": "Defines if KYC is required for the sender",
          "_toRestricted": "Defines if transfer time restriction is checked for the receiver",
          "_toValidKYC": "Defines if KYC is required for the receiver",
          "_transferType": "Type of transfer (0 = General, 1 = Issuance, 2 = Redemption)"
        }
      },
      "modifyTransferRequirementsMulti(uint8[],bool[],bool[],bool[],bool[])": {
        "params": {
          "_fromRestricted": "Defines if transfer time restriction is checked for the sender",
          "_fromValidKYC": "Defines if KYC is required for the sender",
          "_toRestricted": "Defines if transfer time restriction is checked for the receiver",
          "_toValidKYC": "Defines if KYC is required for the receiver",
          "_transferTypes": "Types of transfer (0 = General, 1 = Issuance, 2 = Redemption)"
        }
      },
      "reclaimERC20(address)": {
        "details": "We duplicate here due to the overriden owner & onlyOwner",
        "params": {
          "_tokenContract": "The address of the token contract"
        }
      },
      "reclaimETH()": {
        "details": "We duplicate here due to the overriden owner & onlyOwner"
      },
      "verifyTransfer(address,address,uint256,bytes)": {
        "params": {
          "_from": "Address of the sender",
          "_to": "Address of the receiver"
        }
      }
    },
    "title": "Transfer Manager module for core transfer validation functionality"
  },
  "userdoc": {
    "methods": {
      "changeDefaults(uint64,uint64)": {
        "notice": "Used to change the default times used when canSendAfter / canReceiveAfter are zero"
      },
      "changeIssuanceAddress(address)": {
        "notice": "Used to change the Issuance Address"
      },
      "constructor": "Constructor",
      "executeTransfer(address,address,uint256,bytes)": {
        "notice": "Default implementation of verifyTransfer used by SecurityToken If the transfer request comes from the STO, it only checks that the investor is in the whitelist If the transfer request comes from a token holder, it checks that: a) Both are on the whitelist b) Seller's sale lockup period is over c) Buyer's purchase lockup is over"
      },
      "getDataStore()": {
        "notice": "used to return the data store address of securityToken"
      },
      "getInitFunction()": {
        "notice": "This function returns the signature of configure function"
      },
      "getPermissions()": {
        "notice": "Return the permissions flag that are associated with general trnasfer manager"
      },
      "getTokensByPartition(bytes32,address,uint256)": {
        "notice": "return the amount of tokens for a given user as per the partition"
      },
      "modifyInvestorFlag(address,uint8,bool)": {
        "notice": "Used to modify investor Flag."
      },
      "modifyInvestorFlagMulti(address[],uint8[],bool[])": {
        "notice": "Used to modify investor data."
      },
      "modifyKYCData(address,uint64,uint64,uint64)": {
        "notice": "Add or remove KYC info of an investor."
      },
      "modifyKYCDataMulti(address[],uint64[],uint64[],uint64[])": {
        "notice": "Add or remove KYC info of an investor."
      },
      "modifyKYCDataSigned(address,uint256,uint256,uint256,uint256,uint256,uint256,bytes)": {
        "notice": "Adds or removes addresses from the whitelist - can be called by anyone with a valid signature"
      },
      "modifyKYCDataSignedMulti(address[],uint256[],uint256[],uint256[],uint256,uint256,uint256,bytes)": {
        "notice": "Adds or removes addresses from the whitelist - can be called by anyone with a valid signature"
      },
      "modifyTransferRequirements(uint8,bool,bool,bool,bool)": {
        "notice": "Modifies the successful checks required for a transfer to be deemed valid."
      },
      "modifyTransferRequirementsMulti(uint8[],bool[],bool[],bool[],bool[])": {
        "notice": "Modifies the successful checks required for transfers."
      },
      "pause()": {
        "notice": "Pause (overridden function)"
      },
      "reclaimERC20(address)": {
        "notice": "Reclaims ERC20Basic compatible tokens"
      },
      "reclaimETH()": {
        "notice": "Reclaims ETH"
      },
      "unpause()": {
        "notice": "Unpause (overridden function)"
      },
      "verifyTransfer(address,address,uint256,bytes)": {
        "notice": "Default implementation of verifyTransfer used by SecurityToken"
      }
    }
  }
}