{
  "contractName": "GeneralPermissionManager",
  "abi": [
    {
      "constant": false,
      "inputs": [],
      "name": "reclaimETH",
      "outputs": [],
      "payable": false,
      "stateMutability": "nonpayable",
      "type": "function"
    },
    {
      "constant": true,
      "inputs": [],
      "name": "ADMIN",
      "outputs": [
        {
          "name": "",
          "type": "bytes32"
        }
      ],
      "payable": false,
      "stateMutability": "view",
      "type": "function"
    },
    {
      "constant": false,
      "inputs": [],
      "name": "unpause",
      "outputs": [],
      "payable": false,
      "stateMutability": "nonpayable",
      "type": "function"
    },
    {
      "constant": true,
      "inputs": [
        {
          "name": "",
          "type": "address"
        },
        {
          "name": "",
          "type": "address"
        },
        {
          "name": "",
          "type": "bytes32"
        }
      ],
      "name": "perms",
      "outputs": [
        {
          "name": "",
          "type": "bool"
        }
      ],
      "payable": false,
      "stateMutability": "view",
      "type": "function"
    },
    {
      "constant": true,
      "inputs": [],
      "name": "paused",
      "outputs": [
        {
          "name": "",
          "type": "bool"
        }
      ],
      "payable": false,
      "stateMutability": "view",
      "type": "function"
    },
    {
      "constant": true,
      "inputs": [],
      "name": "polyToken",
      "outputs": [
        {
          "name": "",
          "type": "address"
        }
      ],
      "payable": false,
      "stateMutability": "view",
      "type": "function"
    },
    {
      "constant": false,
      "inputs": [],
      "name": "pause",
      "outputs": [],
      "payable": false,
      "stateMutability": "nonpayable",
      "type": "function"
    },
    {
      "constant": false,
      "inputs": [
        {
          "name": "_tokenContract",
          "type": "address"
        }
      ],
      "name": "reclaimERC20",
      "outputs": [],
      "payable": false,
      "stateMutability": "nonpayable",
      "type": "function"
    },
    {
      "constant": true,
      "inputs": [
        {
          "name": "",
          "type": "uint256"
        }
      ],
      "name": "allDelegates",
      "outputs": [
        {
          "name": "",
          "type": "address"
        }
      ],
      "payable": false,
      "stateMutability": "view",
      "type": "function"
    },
    {
      "constant": true,
      "inputs": [],
      "name": "OPERATOR",
      "outputs": [
        {
          "name": "",
          "type": "bytes32"
        }
      ],
      "payable": false,
      "stateMutability": "view",
      "type": "function"
    },
    {
      "constant": true,
      "inputs": [],
      "name": "securityToken",
      "outputs": [
        {
          "name": "",
          "type": "address"
        }
      ],
      "payable": false,
      "stateMutability": "view",
      "type": "function"
    },
    {
      "constant": true,
      "inputs": [],
      "name": "factory",
      "outputs": [
        {
          "name": "",
          "type": "address"
        }
      ],
      "payable": false,
      "stateMutability": "view",
      "type": "function"
    },
    {
      "constant": true,
      "inputs": [
        {
          "name": "",
          "type": "address"
        }
      ],
      "name": "delegateDetails",
      "outputs": [
        {
          "name": "",
          "type": "bytes32"
        }
      ],
      "payable": false,
      "stateMutability": "view",
      "type": "function"
    },
    {
      "constant": true,
      "inputs": [],
      "name": "getDataStore",
      "outputs": [
        {
          "name": "",
          "type": "address"
        }
      ],
      "payable": false,
      "stateMutability": "view",
      "type": "function"
    },
    {
      "inputs": [
        {
          "name": "_securityToken",
          "type": "address"
        },
        {
          "name": "_polyToken",
          "type": "address"
        }
      ],
      "payable": false,
      "stateMutability": "nonpayable",
      "type": "constructor"
    },
    {
      "anonymous": false,
      "inputs": [
        {
          "indexed": true,
          "name": "_delegate",
          "type": "address"
        },
        {
          "indexed": false,
          "name": "_module",
          "type": "address"
        },
        {
          "indexed": false,
          "name": "_perm",
          "type": "bytes32"
        },
        {
          "indexed": false,
          "name": "_valid",
          "type": "bool"
        }
      ],
      "name": "ChangePermission",
      "type": "event"
    },
    {
      "anonymous": false,
      "inputs": [
        {
          "indexed": true,
          "name": "_delegate",
          "type": "address"
        },
        {
          "indexed": false,
          "name": "_details",
          "type": "bytes32"
        }
      ],
      "name": "AddDelegate",
      "type": "event"
    },
    {
      "anonymous": false,
      "inputs": [
        {
          "indexed": false,
          "name": "account",
          "type": "address"
        }
      ],
      "name": "Pause",
      "type": "event"
    },
    {
      "anonymous": false,
      "inputs": [
        {
          "indexed": false,
          "name": "account",
          "type": "address"
        }
      ],
      "name": "Unpause",
      "type": "event"
    },
    {
      "constant": true,
      "inputs": [],
      "name": "getInitFunction",
      "outputs": [
        {
          "name": "",
          "type": "bytes4"
        }
      ],
      "payable": false,
      "stateMutability": "pure",
      "type": "function"
    },
    {
      "constant": true,
      "inputs": [
        {
          "name": "_delegate",
          "type": "address"
        },
        {
          "name": "_module",
          "type": "address"
        },
        {
          "name": "_perm",
          "type": "bytes32"
        }
      ],
      "name": "checkPermission",
      "outputs": [
        {
          "name": "",
          "type": "bool"
        }
      ],
      "payable": false,
      "stateMutability": "view",
      "type": "function"
    },
    {
      "constant": false,
      "inputs": [
        {
          "name": "_delegate",
          "type": "address"
        },
        {
          "name": "_details",
          "type": "bytes32"
        }
      ],
      "name": "addDelegate",
      "outputs": [],
      "payable": false,
      "stateMutability": "nonpayable",
      "type": "function"
    },
    {
      "constant": false,
      "inputs": [
        {
          "name": "_delegates",
          "type": "address[]"
        },
        {
          "name": "_details",
          "type": "bytes32[]"
        }
      ],
      "name": "addDelegateMulti",
      "outputs": [],
      "payable": false,
      "stateMutability": "nonpayable",
      "type": "function"
    },
    {
      "constant": false,
      "inputs": [
        {
          "name": "_delegate",
          "type": "address"
        }
      ],
      "name": "deleteDelegate",
      "outputs": [],
      "payable": false,
      "stateMutability": "nonpayable",
      "type": "function"
    },
    {
      "constant": false,
      "inputs": [
        {
          "name": "_delegates",
          "type": "address[]"
        }
      ],
      "name": "deleteDelegateMulti",
      "outputs": [],
      "payable": false,
      "stateMutability": "nonpayable",
      "type": "function"
    },
    {
      "constant": true,
      "inputs": [
        {
          "name": "_potentialDelegate",
          "type": "address"
        }
      ],
      "name": "checkDelegate",
      "outputs": [
        {
          "name": "",
          "type": "bool"
        }
      ],
      "payable": false,
      "stateMutability": "view",
      "type": "function"
    },
    {
      "constant": false,
      "inputs": [
        {
          "name": "_delegate",
          "type": "address"
        },
        {
          "name": "_module",
          "type": "address"
        },
        {
          "name": "_perm",
          "type": "bytes32"
        },
        {
          "name": "_valid",
          "type": "bool"
        }
      ],
      "name": "changePermission",
      "outputs": [],
      "payable": false,
      "stateMutability": "nonpayable",
      "type": "function"
    },
    {
      "constant": false,
      "inputs": [
        {
          "name": "_delegate",
          "type": "address"
        },
        {
          "name": "_modules",
          "type": "address[]"
        },
        {
          "name": "_perms",
          "type": "bytes32[]"
        },
        {
          "name": "_valids",
          "type": "bool[]"
        }
      ],
      "name": "changePermissionMulti",
      "outputs": [],
      "payable": false,
      "stateMutability": "nonpayable",
      "type": "function"
    },
    {
      "constant": true,
      "inputs": [
        {
          "name": "_module",
          "type": "address"
        },
        {
          "name": "_perm",
          "type": "bytes32"
        }
      ],
      "name": "getAllDelegatesWithPerm",
      "outputs": [
        {
          "name": "",
          "type": "address[]"
        }
      ],
      "payable": false,
      "stateMutability": "view",
      "type": "function"
    },
    {
      "constant": true,
      "inputs": [
        {
          "name": "_delegate",
          "type": "address"
        },
        {
          "name": "_types",
          "type": "uint8[]"
        }
      ],
      "name": "getAllModulesAndPermsFromTypes",
      "outputs": [
        {
          "name": "",
          "type": "address[]"
        },
        {
          "name": "",
          "type": "bytes32[]"
        }
      ],
      "payable": false,
      "stateMutability": "view",
      "type": "function"
    },
    {
      "constant": true,
      "inputs": [],
      "name": "getAllDelegates",
      "outputs": [
        {
          "name": "",
          "type": "address[]"
        }
      ],
      "payable": false,
      "stateMutability": "view",
      "type": "function"
    },
    {
      "constant": true,
      "inputs": [],
      "name": "getPermissions",
      "outputs": [
        {
          "name": "",
          "type": "bytes32[]"
        }
      ],
      "payable": false,
      "stateMutability": "view",
      "type": "function"
    }
  ],
  "bytecode": "0x608060405260058054600160a01b60ff021916905534801561002057600080fd5b506040516040806121b28339810180604052604081101561004057600080fd5b508051602090910151600480546001600160a01b039384166001600160a01b0319918216179091556003805482163317905560058054939092169216919091179055612121806100916000396000f3fe608060405234801561001057600080fd5b50600436106101a95760003560e01c80638456cb59116100f9578063b84dfbd211610097578063d35716ba11610071578063d35716ba1461079c578063dec7542f1461080a578063e380d34314610848578063fe58265e1461086e576101a9565b8063b84dfbd214610784578063c3a07df61461078c578063c45a015514610794576101a9565b80638905fd4f116100d35780638905fd4f1461070d578063947dd6e514610733578063983d2737146107505780639cdae4ee14610758576101a9565b80638456cb59146106a35780638658b8b9146106ab578063885a4860146106e1576101a9565b80634e0a479211610166578063669f7e7111610140578063669f7e71146105435780636faa22a51461060157806371890352146106255780637a4f37641461064b576101a9565b80634e0a4792146104cb5780635c975abb1461051557806362c90dc51461051d576101a9565b80630f144a48146101ae5780631613ec9d146101b85780632a0acc6a146101dd5780632ec0508d146101f75780633a15f181146103ac5780633f4ba83a146104c3575b600080fd5b6101b6610876565b005b6101c06108ae565b604080516001600160e01b03199092168252519081900360200190f35b6101e56108b4565b60408051918252519081900360200190f35b6101b66004803603608081101561020d57600080fd5b6001600160a01b038235169190810190604081016020820135600160201b81111561023757600080fd5b82018360208201111561024957600080fd5b803590602001918460208302840111600160201b8311171561026a57600080fd5b9190808060200260200160405190810160405280939291908181526020018383602002808284376000920191909152509295949360208101935035915050600160201b8111156102b957600080fd5b8201836020820111156102cb57600080fd5b803590602001918460208302840111600160201b831117156102ec57600080fd5b9190808060200260200160405190810160405280939291908181526020018383602002808284376000920191909152509295949360208101935035915050600160201b81111561033b57600080fd5b82018360208201111561034d57600080fd5b803590602001918460208302840111600160201b8311171561036e57600080fd5b9190808060200260200160405190810160405280939291908181526020018383602002808284376000920191909152509295506108c3945050505050565b61042a600480360360408110156103c257600080fd5b6001600160a01b038235169190810190604081016020820135600160201b8111156103ec57600080fd5b8201836020820111156103fe57600080fd5b803590602001918460208302840111600160201b8311171561041f57600080fd5b509092509050610a8e565b604051808060200180602001838103835285818151815260200191508051906020019060200280838360005b8381101561046e578181015183820152602001610456565b50505050905001838103825284818151815260200191508051906020019060200280838360005b838110156104ad578181015183820152602001610495565b5050505090500194505050505060405180910390f35b6101b66110a3565b610501600480360360608110156104e157600080fd5b506001600160a01b038135811691602081013590911690604001356110b5565b604080519115158252519081900360200190f35b6105016110da565b6105016004803603602081101561053357600080fd5b50356001600160a01b03166110ea565b6101b66004803603604081101561055957600080fd5b810190602081018135600160201b81111561057357600080fd5b82018360208201111561058557600080fd5b803590602001918460208302840111600160201b831117156105a657600080fd5b919390929091602081019035600160201b8111156105c357600080fd5b8201836020820111156105d557600080fd5b803590602001918460208302840111600160201b831117156105f657600080fd5b50909250905061116e565b610609611267565b604080516001600160a01b039092168252519081900360200190f35b6101b66004803603602081101561063b57600080fd5b50356001600160a01b0316611276565b6106536112db565b60408051602080825283518183015283519192839290830191858101910280838360005b8381101561068f578181015183820152602001610677565b505050509050019250505060405180910390f35b6101b661133d565b610501600480360360608110156106c157600080fd5b506001600160a01b0381358116916020810135909116906040013561134d565b610653600480360360408110156106f757600080fd5b506001600160a01b0381351690602001356113ab565b6101b66004803603602081101561072357600080fd5b50356001600160a01b0316611538565b6106096004803603602081101561074957600080fd5b50356116e8565b6101e561170f565b6101b66004803603604081101561076e57600080fd5b506001600160a01b038135169060200135611721565b610609611783565b610653611792565b6106096117e0565b6101b6600480360360208110156107b257600080fd5b810190602081018135600160201b8111156107cc57600080fd5b8201836020820111156107de57600080fd5b803590602001918460208302840111600160201b831117156107ff57600080fd5b5090925090506117ef565b6101b66004803603608081101561082057600080fd5b506001600160a01b038135811691602081013590911690604081013590606001351515611884565b6101e56004803603602081101561085e57600080fd5b50356001600160a01b0316611942565b610609611954565b61087e6119d5565b6040513390303180156108fc02916000818181858888f193505050501580156108ab573d6000803e3d6000fd5b50565b60005b90565b600160d91b6420a226a4a70281565b600160d91b6420a226a4a7026108d98133611aa5565b61091b5760408051600160e51b62461bcd02815260206004820152601260248201526000805160206120d6833981519152604482015290519081900360640190fd5b6001600160a01b03851661096e5760408051600160e51b62461bcd02815260206004820152600f6024820152600160881b6e696e76616c6964206164647265737302604482015290519081900360640190fd5b60008451116109c75760408051600160e51b62461bcd02815260206004820152601760248201527f30206c656e677468206973206e6f7420616c6c6f776564000000000000000000604482015290519081900360640190fd5b825184511480156109d9575082518251145b610a2d5760408051600160e51b62461bcd02815260206004820152601560248201527f4172726179206c656e677468206d69736d617463680000000000000000000000604482015290519081900360640190fd5b60005b8351811015610a8657610a7e86868381518110610a4957fe5b6020026020010151868481518110610a5d57fe5b6020026020010151868581518110610a7157fe5b6020026020010151611bd4565b600101610a30565b505050505050565b6060806000805b84811015610d2d576004546060906001600160a01b031663ac90b422888885818110610abd57fe5b9050602002013560ff166040518263ffffffff1660e01b8152600401808260ff1660ff16815260200191505060006040518083038186803b158015610b0157600080fd5b505afa158015610b15573d6000803e3d6000fd5b505050506040513d6000823e601f3d908101601f191682016040526020811015610b3e57600080fd5b810190808051600160201b811115610b5557600080fd5b82016020810184811115610b6857600080fd5b81518560208202830111600160201b82111715610b8457600080fd5b50909450600093505050505b8151811015610d23576060828281518110610ba757fe5b60200260200101516001600160a01b031663c3a07df66040518163ffffffff1660e01b815260040160006040518083038186803b158015610be757600080fd5b505afa158015610bfb573d6000803e3d6000fd5b505050506040513d6000823e601f3d908101601f191682016040526020811015610c2457600080fd5b810190808051600160201b811115610c3b57600080fd5b82016020810184811115610c4e57600080fd5b81518560208202830111600160201b82111715610c6a57600080fd5b50909450600093505050505b8151811015610d1957600080858581518110610c8e57fe5b60200260200101516001600160a01b03166001600160a01b0316815260200190815260200160002060008c6001600160a01b03166001600160a01b031681526020019081526020016000206000838381518110610ce757fe5b60209081029190910181015182528101919091526040016000205460ff1615610d11576001909501945b600101610c76565b5050600101610b90565b5050600101610a95565b50606081604051908082528060200260200182016040528015610d5a578160200160208202803883390190505b509050606082604051908082528060200260200182016040528015610d89578160200160208202803883390190505b50600093509050825b86811015611095576004546060906001600160a01b031663ac90b4228a8a85818110610dba57fe5b9050602002013560ff166040518263ffffffff1660e01b8152600401808260ff1660ff16815260200191505060006040518083038186803b158015610dfe57600080fd5b505afa158015610e12573d6000803e3d6000fd5b505050506040513d6000823e601f3d908101601f191682016040526020811015610e3b57600080fd5b810190808051600160201b811115610e5257600080fd5b82016020810184811115610e6557600080fd5b81518560208202830111600160201b82111715610e8157600080fd5b50909450600093505050505b815181101561108b576060828281518110610ea457fe5b60200260200101516001600160a01b031663c3a07df66040518163ffffffff1660e01b815260040160006040518083038186803b158015610ee457600080fd5b505afa158015610ef8573d6000803e3d6000fd5b505050506040513d6000823e601f3d908101601f191682016040526020811015610f2157600080fd5b810190808051600160201b811115610f3857600080fd5b82016020810184811115610f4b57600080fd5b81518560208202830111600160201b82111715610f6757600080fd5b50909450600093505050505b815181101561108157600080858581518110610f8b57fe5b60200260200101516001600160a01b03166001600160a01b0316815260200190815260200160002060008e6001600160a01b03166001600160a01b031681526020019081526020016000206000838381518110610fe457fe5b60209081029190910181015182528101919091526040016000205460ff16156110795783838151811061101357fe5b602002602001015187898151811061102757fe5b60200260200101906001600160a01b031690816001600160a01b03168152505081818151811061105357fe5b602002602001015186898151811061106757fe5b60209081029190910101526001909701965b600101610f73565b5050600101610e8d565b5050600101610d92565b509097909650945050505050565b6110ab6119d5565b6110b3611c53565b565b6000602081815293815260408082208552928152828120909352825290205460ff1681565b600554600160a01b900460ff1681565b60006001600160a01b03821661113f5760408051600160e51b62461bcd02815260206004820152600f6024820152600160881b6e496e76616c6964206164647265737302604482015290519081900360640190fd5b6001600160a01b0382166000908152600160205260409020541561116557506001611169565b5060005b919050565b600160d91b6420a226a4a7026111848133611aa5565b6111c65760408051600160e51b62461bcd02815260206004820152601260248201526000805160206120d6833981519152604482015290519081900360640190fd5b83821461121d5760408051600160e51b62461bcd02815260206004820152600f60248201527f4c656e677468206d69736d617463680000000000000000000000000000000000604482015290519081900360640190fd5b60005b84811015610a865761125f86868381811061123757fe5b905060200201356001600160a01b031685858481811061125357fe5b90506020020135611cf9565b600101611220565b6005546001600160a01b031681565b600160d91b6420a226a4a70261128c8133611aa5565b6112ce5760408051600160e51b62461bcd02815260206004820152601260248201526000805160206120d6833981519152604482015290519081900360640190fd5b6112d782611ea2565b5050565b6060600280548060200260200160405190810160405280929190818152602001828054801561133357602002820191906000526020600020905b81546001600160a01b03168152600190910190602001808311611315575b5050505050905090565b6113456119d5565b6110b3611feb565b6001600160a01b038316600090815260016020526040812054156113a057506001600160a01b0380831660009081526020818152604080832093871683529281528282208483529052205460ff166113a4565b5060005b9392505050565b60606000805b60025481101561142b576001600160a01b038516600090815260208190526040812060028054919291849081106113e457fe5b60009182526020808320909101546001600160a01b03168352828101939093526040918201812087825290925290205460ff1615611423576001909101905b6001016113b1565b606082604051908082528060200260200182016040528015611457578160200160208202803883390190505b50905060009250600091505b60025482101561152f576001600160a01b0386166000908152602081905260408120600280549192918590811061149657fe5b60009182526020808320909101546001600160a01b03168352828101939093526040918201812088825290925290205460ff161561152457600282815481106114db57fe5b9060005260206000200160009054906101000a90046001600160a01b031681848151811061150557fe5b6001600160a01b03909216602092830291909101909101526001909201915b600190910190611463565b95945050505050565b6115406119d5565b6001600160a01b0381166115935760408051600160e51b62461bcd02815260206004820152600f6024820152600160881b6e496e76616c6964206164647265737302604482015290519081900360640190fd5b60408051600160e01b6370a08231028152306004820152905182916000916001600160a01b038416916370a08231916024808301926020929190829003018186803b1580156115e157600080fd5b505afa1580156115f5573d6000803e3d6000fd5b505050506040513d602081101561160b57600080fd5b505160408051600160e01b63a9059cbb0281523360048201526024810183905290519192506001600160a01b0384169163a9059cbb916044808201926020929091908290030181600087803b15801561166357600080fd5b505af1158015611677573d6000803e3d6000fd5b505050506040513d602081101561168d57600080fd5b50516116e35760408051600160e51b62461bcd02815260206004820152600f60248201527f5472616e73666572206661696c65640000000000000000000000000000000000604482015290519081900360640190fd5b505050565b600281815481106116f557fe5b6000918252602090912001546001600160a01b0316905081565b600160c11b6727a822a920aa27a90281565b600160d91b6420a226a4a7026117378133611aa5565b6117795760408051600160e51b62461bcd02815260206004820152601260248201526000805160206120d6833981519152604482015290519081900360640190fd5b6116e38383611cf9565b6004546001600160a01b031681565b60408051600180825281830190925260609182919060208083019080388339019050509050600160d91b6420a226a4a702816000815181106117d057fe5b6020908102919091010152905090565b6003546001600160a01b031681565b600160d91b6420a226a4a7026118058133611aa5565b6118475760408051600160e51b62461bcd02815260206004820152601260248201526000805160206120d6833981519152604482015290519081900360640190fd5b60005b8281101561187e5761187684848381811061186157fe5b905060200201356001600160a01b0316611ea2565b60010161184a565b50505050565b600160d91b6420a226a4a70261189a8133611aa5565b6118dc5760408051600160e51b62461bcd02815260206004820152601260248201526000805160206120d6833981519152604482015290519081900360640190fd5b6001600160a01b03851661192f5760408051600160e51b62461bcd02815260206004820152600f6024820152600160881b6e696e76616c6964206164647265737302604482015290519081900360640190fd5b61193b85858585611bd4565b5050505050565b60016020526000908152604090205481565b6000600460009054906101000a90046001600160a01b03166001600160a01b031663660d0d676040518163ffffffff1660e01b815260040160206040518083038186803b1580156119a457600080fd5b505afa1580156119b8573d6000803e3d6000fd5b505050506040513d60208110156119ce57600080fd5b5051905090565b6004805460408051600160e01b638da5cb5b02815290516001600160a01b0390921692638da5cb5b928282019260209290829003018186803b158015611a1a57600080fd5b505afa158015611a2e573d6000803e3d6000fd5b505050506040513d6020811015611a4457600080fd5b50516001600160a01b031633146110b35760408051600160e51b62461bcd02815260206004820152601360248201527f53656e646572206973206e6f74206f776e657200000000000000000000000000604482015290519081900360640190fd5b6004805460408051600160e01b638da5cb5b028152905160009384936001600160a01b031692638da5cb5b9281830192602092829003018186803b158015611aec57600080fd5b505afa158015611b00573d6000803e3d6000fd5b505050506040513d6020811015611b1657600080fd5b50516003546001600160a01b038581169281168314935016148180611b385750805b8061152f57506004805460408051600160e01b638658b8b90281526001600160a01b03888116948201949094523060248201526044810189905290519290911691638658b8b991606480820192602092909190829003018186803b158015611b9f57600080fd5b505afa158015611bb3573d6000803e3d6000fd5b505050506040513d6020811015611bc957600080fd5b505195945050505050565b6001600160a01b03808416600081815260208181526040808320948916808452948252808320878452825291829020805486151560ff199091168117909155825193845290830186905282820152517fb630086996d7cdc1618b8be6b8d15f9e6e5c42d7e547f81114be728029a277b69181900360600190a250505050565b600554600160a01b900460ff16611cb45760408051600160e51b62461bcd02815260206004820152601660248201527f436f6e7472616374206973206e6f742070617573656400000000000000000000604482015290519081900360640190fd5b60058054600160a01b60ff02191690556040805133815290517faeb196d352664784d1900b0e7414a8face7d29f4dae8c4b0cf68ed477423bbf49181900360200190a1565b6001600160a01b038216611d4c5760408051600160e51b62461bcd02815260206004820152600f6024820152600160881b6e496e76616c6964206164647265737302604482015290519081900360640190fd5b80611da15760408051600160e51b62461bcd02815260206004820152601360248201527f302076616c7565206e6f7420616c6c6f77656400000000000000000000000000604482015290519081900360640190fd5b6001600160a01b03821660009081526001602052604090205415611e0f5760408051600160e51b62461bcd02815260206004820152600f60248201527f416c72656164792070726573656e740000000000000000000000000000000000604482015290519081900360640190fd5b6001600160a01b03821660008181526001602081815260408084208690556002805493840181559093527f405787fa12a823e0f2b7631cc41b3ba8828b3321ca811111fa75cd3aa3bb5ace90910180546001600160a01b03191684179055815184815291517fa3b7033f08f647cbc0d9305729e64c22e3be712e9e94824e54d676c64977f7c79281900390910190a25050565b6001600160a01b038116600090815260016020526040902054611f0f5760408051600160e51b62461bcd02815260206004820152601760248201527f64656c656761746520646f6573206e6f74206578697374000000000000000000604482015290519081900360640190fd5b60025460005b81811015611fcf57826001600160a01b031660028281548110611f3457fe5b6000918252602090912001546001600160a01b03161415611fc75760026001830381548110611f5f57fe5b600091825260209091200154600280546001600160a01b039092169183908110611f8557fe5b600091825260209091200180546001600160a01b0319166001600160a01b03929092169190911790556002805490611fc1906000198301612098565b50611fcf565b600101611f15565b50506001600160a01b0316600090815260016020526040812055565b600554600160a01b900460ff161561204d5760408051600160e51b62461bcd02815260206004820152601260248201527f436f6e7472616374206973207061757365640000000000000000000000000000604482015290519081900360640190fd5b60058054600160a01b60ff021916600160a01b1790556040805133815290517f5ee71a369c8672edded508e624ffc9257fa1ae6886ef32905c18e60196bca3999181900360200190a1565b8154818355818111156116e3576000838152602090206116e39181019083016108b191905b808211156120d157600081556001016120bd565b509056fe496e76616c6964207065726d697373696f6e0000000000000000000000000000a165627a7a7230582016f5b4436aea4245c96585b5bf35153b26a0068f107d4e61b682e6f46452e6950029",
  "source": "pragma solidity 0.5.8;\n\nimport \"./IPermissionManager.sol\";\nimport \"../Module.sol\";\nimport \"./GeneralPermissionManagerStorage.sol\";\nimport \"../../interfaces/ISecurityToken.sol\";\n\n/**\n * @title Permission Manager module for core permissioning functionality\n */\ncontract GeneralPermissionManager is GeneralPermissionManagerStorage, IPermissionManager, Module {\n\n    /// Event emitted after any permission get changed for the delegate\n    event ChangePermission(address indexed _delegate, address _module, bytes32 _perm, bool _valid);\n    /// Used to notify when delegate is added in permission manager contract\n    event AddDelegate(address indexed _delegate, bytes32 _details);\n\n    /// @notice constructor\n    constructor(address _securityToken, address _polyToken) public Module(_securityToken, _polyToken) {\n\n    }\n\n    /**\n     * @notice Init function i.e generalise function to maintain the structure of the module contract\n     * @return bytes4\n     */\n    function getInitFunction() public pure returns(bytes4) {\n        return bytes4(0);\n    }\n\n    /**\n     * @notice Used to check the permission on delegate corresponds to module contract address\n     * @param _delegate Ethereum address of the delegate\n     * @param _module Ethereum contract address of the module\n     * @param _perm Permission flag\n     * @return bool\n     */\n    function checkPermission(address _delegate, address _module, bytes32 _perm) external view returns(bool) {\n        if (delegateDetails[_delegate] != bytes32(0)) {\n            return perms[_module][_delegate][_perm];\n        } else return false;\n    }\n\n    /**\n     * @notice Used to add a delegate\n     * @param _delegate Ethereum address of the delegate\n     * @param _details Details about the delegate i.e `Belongs to financial firm`\n     */\n    function addDelegate(address _delegate, bytes32 _details) external withPerm(ADMIN) {\n        _addDelegate(_delegate, _details);\n    }\n\n    /**\n     * @notice Used to add multiple delegates in a batch\n     * @param _delegates An array of Ethereum addresses of the delegates\n     * @param _details An array of details about the delegates i.e `Belongs to financial firm`\n     */\n    function addDelegateMulti(address[] calldata _delegates, bytes32[] calldata _details) external withPerm(ADMIN) {\n        require(_delegates.length == _details.length, \"Length mismatch\");\n        for (uint256 i = 0; i < _delegates.length; i++) {\n            _addDelegate(_delegates[i], _details[i]);\n        }\n    }\n\n    function _addDelegate(address _delegate, bytes32 _details) internal {\n        require(_delegate != address(0), \"Invalid address\");\n        require(_details != bytes32(0), \"0 value not allowed\");\n        require(delegateDetails[_delegate] == bytes32(0), \"Already present\");\n        delegateDetails[_delegate] = _details;\n        allDelegates.push(_delegate);\n        /*solium-disable-next-line security/no-block-members*/\n        emit AddDelegate(_delegate, _details);\n    }\n\n    /**\n     * @notice Used to delete a delegate\n     * @param _delegate Ethereum address of the delegate\n     */\n    function deleteDelegate(address _delegate) external withPerm(ADMIN) {\n        _deleteDelegate(_delegate);\n    }\n\n    /**\n     * @notice Used to delete a list of delegates\n     * @param _delegates An array of Ethereum address of delegates\n     */\n    function deleteDelegateMulti(address[] calldata _delegates) external withPerm(ADMIN) {\n        for (uint256 i = 0; i < _delegates.length; i++) {\n            _deleteDelegate(_delegates[i]);\n        }\n    }\n\n    function _deleteDelegate(address _delegate) internal {\n        require(delegateDetails[_delegate] != bytes32(0), \"delegate does not exist\");\n        uint256 delegateLen = allDelegates.length;\n        for (uint256 i = 0; i < delegateLen; i++) {\n            if (allDelegates[i] == _delegate) {\n                allDelegates[i] = allDelegates[delegateLen - 1];\n                allDelegates.length--;\n                break;\n            }\n        }\n        delete delegateDetails[_delegate];\n    }\n\n    /**\n     * @notice Used to check if an address is a delegate or not\n     * @param _potentialDelegate the address of potential delegate\n     * @return bool\n     */\n    function checkDelegate(address _potentialDelegate) external view returns(bool) {\n        require(_potentialDelegate != address(0), \"Invalid address\");\n\n        if (delegateDetails[_potentialDelegate] != bytes32(0)) {\n            return true;\n        } else return false;\n    }\n\n    /**\n     * @notice Used to provide/change the permission to the delegate corresponds to the module contract\n     * @param _delegate Ethereum address of the delegate\n     * @param _module Ethereum contract address of the module\n     * @param _perm Permission flag\n     * @param _valid Bool flag use to switch on/off the permission\n     * @return bool\n     */\n    function changePermission(address _delegate, address _module, bytes32 _perm, bool _valid) public withPerm(ADMIN) {\n        require(_delegate != address(0), \"invalid address\");\n        _changePermission(_delegate, _module, _perm, _valid);\n    }\n\n    /**\n     * @notice Used to change one or more permissions for a single delegate at once\n     * @param _delegate Ethereum address of the delegate\n     * @param _modules Multiple module matching the multiperms, needs to be same length\n     * @param _perms Multiple permission flag needs to be changed\n     * @param _valids Bool array consist the flag to switch on/off the permission\n     * @return nothing\n     */\n    function changePermissionMulti(\n        address _delegate,\n        address[] memory _modules,\n        bytes32[] memory _perms,\n        bool[] memory _valids\n    )\n        public\n        withPerm(ADMIN)\n    {\n        require(_delegate != address(0), \"invalid address\");\n        require(_modules.length > 0, \"0 length is not allowed\");\n        require(_modules.length == _perms.length && _valids.length == _perms.length, \"Array length mismatch\");\n        for (uint256 i = 0; i < _perms.length; i++) {\n            _changePermission(_delegate, _modules[i], _perms[i], _valids[i]);\n        }\n    }\n\n    /**\n     * @notice Used to return all delegates with a given permission and module\n     * @param _module Ethereum contract address of the module\n     * @param _perm Permission flag\n     * @return address[]\n     */\n    function getAllDelegatesWithPerm(address _module, bytes32 _perm) external view returns(address[] memory) {\n        uint256 counter = 0;\n        uint256 i = 0;\n        for (i = 0; i < allDelegates.length; i++) {\n            if (perms[_module][allDelegates[i]][_perm]) {\n                counter++;\n            }\n        }\n        address[] memory allDelegatesWithPerm = new address[](counter);\n        counter = 0;\n        for (i = 0; i < allDelegates.length; i++) {\n            if (perms[_module][allDelegates[i]][_perm]) {\n                allDelegatesWithPerm[counter] = allDelegates[i];\n                counter++;\n            }\n        }\n        return allDelegatesWithPerm;\n    }\n\n    /**\n     * @notice Used to return all permission of a single or multiple module\n     * @dev possible that function get out of gas is there are lot of modules and perm related to them\n     * @param _delegate Ethereum address of the delegate\n     * @param _types uint8[] of types\n     * @return address[] the address array of Modules this delegate has permission\n     * @return bytes32[] the permission array of the corresponding Modules\n     */\n    function getAllModulesAndPermsFromTypes(address _delegate, uint8[] calldata _types) external view returns(\n        address[] memory,\n        bytes32[] memory\n    ) {\n        uint256 counter = 0;\n        // loop through _types and get their modules from securityToken->getModulesByType\n        for (uint256 i = 0; i < _types.length; i++) {\n            address[] memory _currentTypeModules = securityToken.getModulesByType(_types[i]);\n            // loop through each modules to get their perms from IModule->getPermissions\n            for (uint256 j = 0; j < _currentTypeModules.length; j++) {\n                bytes32[] memory _allModulePerms = IModule(_currentTypeModules[j]).getPermissions();\n                // loop through each perm, if it is true, push results into arrays\n                for (uint256 k = 0; k < _allModulePerms.length; k++) {\n                    if (perms[_currentTypeModules[j]][_delegate][_allModulePerms[k]]) {\n                        counter++;\n                    }\n                }\n            }\n        }\n\n        address[] memory _allModules = new address[](counter);\n        bytes32[] memory _allPerms = new bytes32[](counter);\n        counter = 0;\n\n        for (uint256 i = 0; i < _types.length; i++) {\n            address[] memory _currentTypeModules = securityToken.getModulesByType(_types[i]);\n            for (uint256 j = 0; j < _currentTypeModules.length; j++) {\n                bytes32[] memory _allModulePerms = IModule(_currentTypeModules[j]).getPermissions();\n                for (uint256 k = 0; k < _allModulePerms.length; k++) {\n                    if (perms[_currentTypeModules[j]][_delegate][_allModulePerms[k]]) {\n                        _allModules[counter] = _currentTypeModules[j];\n                        _allPerms[counter] = _allModulePerms[k];\n                        counter++;\n                    }\n                }\n            }\n        }\n\n        return (_allModules, _allPerms);\n    }\n\n    /**\n     * @notice Used to provide/change the permission to the delegate corresponds to the module contract\n     * @param _delegate Ethereum address of the delegate\n     * @param _module Ethereum contract address of the module\n     * @param _perm Permission flag\n     * @param _valid Bool flag use to switch on/off the permission\n     * @return bool\n     */\n    function _changePermission(address _delegate, address _module, bytes32 _perm, bool _valid) internal {\n        perms[_module][_delegate][_perm] = _valid;\n        /*solium-disable-next-line security/no-block-members*/\n        emit ChangePermission(_delegate, _module, _perm, _valid);\n    }\n\n    /**\n     * @notice Used to get all delegates\n     * @return address[]\n     */\n    function getAllDelegates() external view returns(address[] memory) {\n        return allDelegates;\n    }\n\n    /**\n    * @notice Returns the Permission flag related the `this` contract\n    * @return Array of permission flags\n    */\n    function getPermissions() public view returns(bytes32[] memory) {\n        bytes32[] memory allPermissions = new bytes32[](1);\n        allPermissions[0] = ADMIN;\n        return allPermissions;\n    }\n\n}\n",
  "sourcePath": "/Users/federicoelgarte/Polymath/polymath-core/contracts/modules/PermissionManager/GeneralPermissionManager.sol",
  "compiler": {
    "name": "solc",
    "version": "0.5.8+commit.23d335f2.Emscripten.clang"
  },
  "schemaVersion": "3.0.12",
  "updatedAt": "2019-09-24T14:10:58.513Z",
  "devdoc": {
    "methods": {
      "addDelegate(address,bytes32)": {
        "params": {
          "_delegate": "Ethereum address of the delegate",
          "_details": "Details about the delegate i.e `Belongs to financial firm`"
        }
      },
      "addDelegateMulti(address[],bytes32[])": {
        "params": {
          "_delegates": "An array of Ethereum addresses of the delegates",
          "_details": "An array of details about the delegates i.e `Belongs to financial firm`"
        }
      },
      "changePermission(address,address,bytes32,bool)": {
        "params": {
          "_delegate": "Ethereum address of the delegate",
          "_module": "Ethereum contract address of the module",
          "_perm": "Permission flag",
          "_valid": "Bool flag use to switch on/off the permission"
        },
        "return": "bool"
      },
      "changePermissionMulti(address,address[],bytes32[],bool[])": {
        "params": {
          "_delegate": "Ethereum address of the delegate",
          "_modules": "Multiple module matching the multiperms, needs to be same length",
          "_perms": "Multiple permission flag needs to be changed",
          "_valids": "Bool array consist the flag to switch on/off the permission"
        },
        "return": "nothing"
      },
      "checkDelegate(address)": {
        "params": {
          "_potentialDelegate": "the address of potential delegate"
        },
        "return": "bool"
      },
      "checkPermission(address,address,bytes32)": {
        "params": {
          "_delegate": "Ethereum address of the delegate",
          "_module": "Ethereum contract address of the module",
          "_perm": "Permission flag"
        },
        "return": "bool"
      },
      "deleteDelegate(address)": {
        "params": {
          "_delegate": "Ethereum address of the delegate"
        }
      },
      "deleteDelegateMulti(address[])": {
        "params": {
          "_delegates": "An array of Ethereum address of delegates"
        }
      },
      "getAllDelegates()": {
        "return": "address[]"
      },
      "getAllDelegatesWithPerm(address,bytes32)": {
        "params": {
          "_module": "Ethereum contract address of the module",
          "_perm": "Permission flag"
        },
        "return": "address[]"
      },
      "getAllModulesAndPermsFromTypes(address,uint8[])": {
        "details": "possible that function get out of gas is there are lot of modules and perm related to them",
        "params": {
          "_delegate": "Ethereum address of the delegate",
          "_types": "uint8[] of types"
        },
        "return": "address[] the address array of Modules this delegate has permissionbytes32[] the permission array of the corresponding Modules"
      },
      "getInitFunction()": {
        "return": "bytes4"
      },
      "getPermissions()": {
        "return": "Array of permission flags"
      },
      "reclaimERC20(address)": {
        "details": "We duplicate here due to the overriden owner & onlyOwner",
        "params": {
          "_tokenContract": "The address of the token contract"
        }
      },
      "reclaimETH()": {
        "details": "We duplicate here due to the overriden owner & onlyOwner"
      }
    },
    "title": "Permission Manager module for core permissioning functionality"
  },
  "userdoc": {
    "methods": {
      "addDelegate(address,bytes32)": {
        "notice": "Used to add a delegate"
      },
      "addDelegateMulti(address[],bytes32[])": {
        "notice": "Used to add multiple delegates in a batch"
      },
      "changePermission(address,address,bytes32,bool)": {
        "notice": "Used to provide/change the permission to the delegate corresponds to the module contract"
      },
      "changePermissionMulti(address,address[],bytes32[],bool[])": {
        "notice": "Used to change one or more permissions for a single delegate at once"
      },
      "checkDelegate(address)": {
        "notice": "Used to check if an address is a delegate or not"
      },
      "checkPermission(address,address,bytes32)": {
        "notice": "Used to check the permission on delegate corresponds to module contract address"
      },
      "constructor": "constructor",
      "deleteDelegate(address)": {
        "notice": "Used to delete a delegate"
      },
      "deleteDelegateMulti(address[])": {
        "notice": "Used to delete a list of delegates"
      },
      "getAllDelegates()": {
        "notice": "Used to get all delegates"
      },
      "getAllDelegatesWithPerm(address,bytes32)": {
        "notice": "Used to return all delegates with a given permission and module"
      },
      "getAllModulesAndPermsFromTypes(address,uint8[])": {
        "notice": "Used to return all permission of a single or multiple module"
      },
      "getDataStore()": {
        "notice": "used to return the data store address of securityToken"
      },
      "getInitFunction()": {
        "notice": "Init function i.e generalise function to maintain the structure of the module contract"
      },
      "getPermissions()": {
        "notice": "Returns the Permission flag related the `this` contract"
      },
      "pause()": {
        "notice": "Pause (overridden function)"
      },
      "reclaimERC20(address)": {
        "notice": "Reclaims ERC20Basic compatible tokens"
      },
      "reclaimETH()": {
        "notice": "Reclaims ETH"
      },
      "unpause()": {
        "notice": "Unpause (overridden function)"
      }
    }
  }
}