{
  "contractName": "GeneralPermissionManager",
  "abi": [
    {
      "constant": false,
      "inputs": [],
      "name": "reclaimETH",
      "outputs": [],
      "payable": false,
      "stateMutability": "nonpayable",
      "type": "function"
    },
    {
      "constant": true,
      "inputs": [],
      "name": "ADMIN",
      "outputs": [
        {
          "name": "",
          "type": "bytes32"
        }
      ],
      "payable": false,
      "stateMutability": "view",
      "type": "function"
    },
    {
      "constant": false,
      "inputs": [],
      "name": "unpause",
      "outputs": [],
      "payable": false,
      "stateMutability": "nonpayable",
      "type": "function"
    },
    {
      "constant": true,
      "inputs": [
        {
          "name": "",
          "type": "address"
        },
        {
          "name": "",
          "type": "address"
        },
        {
          "name": "",
          "type": "bytes32"
        }
      ],
      "name": "perms",
      "outputs": [
        {
          "name": "",
          "type": "bool"
        }
      ],
      "payable": false,
      "stateMutability": "view",
      "type": "function"
    },
    {
      "constant": true,
      "inputs": [],
      "name": "paused",
      "outputs": [
        {
          "name": "",
          "type": "bool"
        }
      ],
      "payable": false,
      "stateMutability": "view",
      "type": "function"
    },
    {
      "constant": true,
      "inputs": [],
      "name": "polyToken",
      "outputs": [
        {
          "name": "",
          "type": "address"
        }
      ],
      "payable": false,
      "stateMutability": "view",
      "type": "function"
    },
    {
      "constant": false,
      "inputs": [],
      "name": "pause",
      "outputs": [],
      "payable": false,
      "stateMutability": "nonpayable",
      "type": "function"
    },
    {
      "constant": false,
      "inputs": [
        {
          "name": "_tokenContract",
          "type": "address"
        }
      ],
      "name": "reclaimERC20",
      "outputs": [],
      "payable": false,
      "stateMutability": "nonpayable",
      "type": "function"
    },
    {
      "constant": true,
      "inputs": [
        {
          "name": "",
          "type": "uint256"
        }
      ],
      "name": "allDelegates",
      "outputs": [
        {
          "name": "",
          "type": "address"
        }
      ],
      "payable": false,
      "stateMutability": "view",
      "type": "function"
    },
    {
      "constant": true,
      "inputs": [],
      "name": "OPERATOR",
      "outputs": [
        {
          "name": "",
          "type": "bytes32"
        }
      ],
      "payable": false,
      "stateMutability": "view",
      "type": "function"
    },
    {
      "constant": true,
      "inputs": [],
      "name": "securityToken",
      "outputs": [
        {
          "name": "",
          "type": "address"
        }
      ],
      "payable": false,
      "stateMutability": "view",
      "type": "function"
    },
    {
      "constant": true,
      "inputs": [],
      "name": "factory",
      "outputs": [
        {
          "name": "",
          "type": "address"
        }
      ],
      "payable": false,
      "stateMutability": "view",
      "type": "function"
    },
    {
      "constant": true,
      "inputs": [
        {
          "name": "",
          "type": "address"
        }
      ],
      "name": "delegateDetails",
      "outputs": [
        {
          "name": "",
          "type": "bytes32"
        }
      ],
      "payable": false,
      "stateMutability": "view",
      "type": "function"
    },
    {
      "constant": true,
      "inputs": [],
      "name": "getDataStore",
      "outputs": [
        {
          "name": "",
          "type": "address"
        }
      ],
      "payable": false,
      "stateMutability": "view",
      "type": "function"
    },
    {
      "inputs": [
        {
          "name": "_securityToken",
          "type": "address"
        },
        {
          "name": "_polyToken",
          "type": "address"
        }
      ],
      "payable": false,
      "stateMutability": "nonpayable",
      "type": "constructor"
    },
    {
      "anonymous": false,
      "inputs": [
        {
          "indexed": true,
          "name": "_delegate",
          "type": "address"
        },
        {
          "indexed": false,
          "name": "_module",
          "type": "address"
        },
        {
          "indexed": false,
          "name": "_perm",
          "type": "bytes32"
        },
        {
          "indexed": false,
          "name": "_valid",
          "type": "bool"
        }
      ],
      "name": "ChangePermission",
      "type": "event"
    },
    {
      "anonymous": false,
      "inputs": [
        {
          "indexed": true,
          "name": "_delegate",
          "type": "address"
        },
        {
          "indexed": false,
          "name": "_details",
          "type": "bytes32"
        }
      ],
      "name": "AddDelegate",
      "type": "event"
    },
    {
      "anonymous": false,
      "inputs": [
        {
          "indexed": false,
          "name": "account",
          "type": "address"
        }
      ],
      "name": "Pause",
      "type": "event"
    },
    {
      "anonymous": false,
      "inputs": [
        {
          "indexed": false,
          "name": "account",
          "type": "address"
        }
      ],
      "name": "Unpause",
      "type": "event"
    },
    {
      "constant": true,
      "inputs": [],
      "name": "getInitFunction",
      "outputs": [
        {
          "name": "",
          "type": "bytes4"
        }
      ],
      "payable": false,
      "stateMutability": "pure",
      "type": "function"
    },
    {
      "constant": true,
      "inputs": [
        {
          "name": "_delegate",
          "type": "address"
        },
        {
          "name": "_module",
          "type": "address"
        },
        {
          "name": "_perm",
          "type": "bytes32"
        }
      ],
      "name": "checkPermission",
      "outputs": [
        {
          "name": "",
          "type": "bool"
        }
      ],
      "payable": false,
      "stateMutability": "view",
      "type": "function"
    },
    {
      "constant": false,
      "inputs": [
        {
          "name": "_delegate",
          "type": "address"
        },
        {
          "name": "_details",
          "type": "bytes32"
        }
      ],
      "name": "addDelegate",
      "outputs": [],
      "payable": false,
      "stateMutability": "nonpayable",
      "type": "function"
    },
    {
      "constant": false,
      "inputs": [
        {
          "name": "_delegates",
          "type": "address[]"
        },
        {
          "name": "_details",
          "type": "bytes32[]"
        }
      ],
      "name": "addDelegateMulti",
      "outputs": [],
      "payable": false,
      "stateMutability": "nonpayable",
      "type": "function"
    },
    {
      "constant": false,
      "inputs": [
        {
          "name": "_delegate",
          "type": "address"
        }
      ],
      "name": "deleteDelegate",
      "outputs": [],
      "payable": false,
      "stateMutability": "nonpayable",
      "type": "function"
    },
    {
      "constant": false,
      "inputs": [
        {
          "name": "_delegates",
          "type": "address[]"
        }
      ],
      "name": "deleteDelegateMulti",
      "outputs": [],
      "payable": false,
      "stateMutability": "nonpayable",
      "type": "function"
    },
    {
      "constant": true,
      "inputs": [
        {
          "name": "_potentialDelegate",
          "type": "address"
        }
      ],
      "name": "checkDelegate",
      "outputs": [
        {
          "name": "",
          "type": "bool"
        }
      ],
      "payable": false,
      "stateMutability": "view",
      "type": "function"
    },
    {
      "constant": false,
      "inputs": [
        {
          "name": "_delegate",
          "type": "address"
        },
        {
          "name": "_module",
          "type": "address"
        },
        {
          "name": "_perm",
          "type": "bytes32"
        },
        {
          "name": "_valid",
          "type": "bool"
        }
      ],
      "name": "changePermission",
      "outputs": [],
      "payable": false,
      "stateMutability": "nonpayable",
      "type": "function"
    },
    {
      "constant": false,
      "inputs": [
        {
          "name": "_delegate",
          "type": "address"
        },
        {
          "name": "_modules",
          "type": "address[]"
        },
        {
          "name": "_perms",
          "type": "bytes32[]"
        },
        {
          "name": "_valids",
          "type": "bool[]"
        }
      ],
      "name": "changePermissionMulti",
      "outputs": [],
      "payable": false,
      "stateMutability": "nonpayable",
      "type": "function"
    },
    {
      "constant": true,
      "inputs": [
        {
          "name": "_module",
          "type": "address"
        },
        {
          "name": "_perm",
          "type": "bytes32"
        }
      ],
      "name": "getAllDelegatesWithPerm",
      "outputs": [
        {
          "name": "",
          "type": "address[]"
        }
      ],
      "payable": false,
      "stateMutability": "view",
      "type": "function"
    },
    {
      "constant": true,
      "inputs": [
        {
          "name": "_delegate",
          "type": "address"
        },
        {
          "name": "_types",
          "type": "uint8[]"
        }
      ],
      "name": "getAllModulesAndPermsFromTypes",
      "outputs": [
        {
          "name": "",
          "type": "address[]"
        },
        {
          "name": "",
          "type": "bytes32[]"
        }
      ],
      "payable": false,
      "stateMutability": "view",
      "type": "function"
    },
    {
      "constant": true,
      "inputs": [],
      "name": "getAllDelegates",
      "outputs": [
        {
          "name": "",
          "type": "address[]"
        }
      ],
      "payable": false,
      "stateMutability": "view",
      "type": "function"
    },
    {
      "constant": true,
      "inputs": [],
      "name": "getPermissions",
      "outputs": [
        {
          "name": "",
          "type": "bytes32[]"
        }
      ],
      "payable": false,
      "stateMutability": "view",
      "type": "function"
    }
  ],
  "bytecode": "0x60806040526005805460a060020a60ff021916905534801561002057600080fd5b506040516040806123248339810180604052604081101561004057600080fd5b50805160209091015160048054600160a060020a03938416600160a060020a0319918216179091556003805482163317905560058054939092169216919091179055612293806100916000396000f3fe608060405234801561001057600080fd5b50600436106101ad5760003560e060020a900480638456cb59116100fd578063b84dfbd21161009b578063d35716ba11610075578063d35716ba146107c4578063dec7542f14610834578063e380d34314610872578063fe58265e14610898576101ad565b8063b84dfbd2146107ac578063c3a07df6146107b4578063c45a0155146107bc576101ad565b80638905fd4f116100d75780638905fd4f14610735578063947dd6e51461075b578063983d2737146107785780639cdae4ee14610780576101ad565b80638456cb59146106cb5780638658b8b9146106d3578063885a486014610709576101ad565b80634e0a47921161016a578063669f7e7111610144578063669f7e71146105675780636faa22a514610629578063718903521461064d5780637a4f376414610673576101ad565b80634e0a4792146104ef5780635c975abb1461053957806362c90dc514610541576101ad565b80630f144a48146101b25780631613ec9d146101bc5780632a0acc6a146101f95780632ec0508d146102135780633a15f181146103ce5780633f4ba83a146104e7575b600080fd5b6101ba6108a0565b005b6101c46108d8565b604080517fffffffff000000000000000000000000000000000000000000000000000000009092168252519081900360200190f35b6102016108de565b60408051918252519081900360200190f35b6101ba6004803603608081101561022957600080fd5b600160a060020a03823516919081019060408101602082013564010000000081111561025457600080fd5b82018360208201111561026657600080fd5b8035906020019184602083028401116401000000008311171561028857600080fd5b91908080602002602001604051908101604052809392919081815260200183836020028082843760009201919091525092959493602081019350359150506401000000008111156102d857600080fd5b8201836020820111156102ea57600080fd5b8035906020019184602083028401116401000000008311171561030c57600080fd5b919080806020026020016040519081016040528093929190818152602001838360200280828437600092019190915250929594936020810193503591505064010000000081111561035c57600080fd5b82018360208201111561036e57600080fd5b8035906020019184602083028401116401000000008311171561039057600080fd5b9190808060200260200160405190810160405280939291908181526020018383602002808284376000920191909152509295506108ed945050505050565b61044e600480360360408110156103e457600080fd5b600160a060020a03823516919081019060408101602082013564010000000081111561040f57600080fd5b82018360208201111561042157600080fd5b8035906020019184602083028401116401000000008311171561044357600080fd5b509092509050610ac3565b604051808060200180602001838103835285818151815260200191508051906020019060200280838360005b8381101561049257818101518382015260200161047a565b50505050905001838103825284818151815260200191508051906020019060200280838360005b838110156104d15781810151838201526020016104b9565b5050505090500194505050505060405180910390f35b6101ba6110ec565b6105256004803603606081101561050557600080fd5b50600160a060020a038135811691602081013590911690604001356110fe565b604080519115158252519081900360200190f35b610525611123565b6105256004803603602081101561055757600080fd5b5035600160a060020a0316611144565b6101ba6004803603604081101561057d57600080fd5b81019060208101813564010000000081111561059857600080fd5b8201836020820111156105aa57600080fd5b803590602001918460208302840111640100000000831117156105cc57600080fd5b9193909290916020810190356401000000008111156105ea57600080fd5b8201836020820111156105fc57600080fd5b8035906020019184602083028401116401000000008311171561061e57600080fd5b5090925090506111d3565b6106316112cc565b60408051600160a060020a039092168252519081900360200190f35b6101ba6004803603602081101561066357600080fd5b5035600160a060020a03166112db565b61067b611340565b60408051602080825283518183015283519192839290830191858101910280838360005b838110156106b757818101518382015260200161069f565b505050509050019250505060405180910390f35b6101ba6113a2565b610525600480360360608110156106e957600080fd5b50600160a060020a038135811691602081013590911690604001356113b2565b61067b6004803603604081101561071f57600080fd5b50600160a060020a038135169060200135611410565b6101ba6004803603602081101561074b57600080fd5b5035600160a060020a031661159d565b6106316004803603602081101561077157600080fd5b5035611784565b6102016117ab565b6101ba6004803603604081101561079657600080fd5b50600160a060020a0381351690602001356117cf565b610631611831565b61067b611840565b61063161188e565b6101ba600480360360208110156107da57600080fd5b8101906020810181356401000000008111156107f557600080fd5b82018360208201111561080757600080fd5b8035906020019184602083028401116401000000008311171561082957600080fd5b50909250905061189d565b6101ba6004803603608081101561084a57600080fd5b50600160a060020a038135811691602081013590911690604081013590606001351515611932565b6102016004803603602081101561088857600080fd5b5035600160a060020a03166119fb565b610631611a0d565b6108a8611a91565b6040513390303180156108fc02916000818181858888f193505050501580156108d5573d6000803e3d6000fd5b50565b60005b90565b60d960020a6420a226a4a70281565b60d960020a6420a226a4a7026109038133611b77565b610945576040805160e560020a62461bcd0281526020600482015260126024820152600080516020612248833981519152604482015290519081900360640190fd5b600160a060020a0385166109a3576040805160e560020a62461bcd02815260206004820152600f60248201527f696e76616c696420616464726573730000000000000000000000000000000000604482015290519081900360640190fd5b60008451116109fc576040805160e560020a62461bcd02815260206004820152601760248201527f30206c656e677468206973206e6f7420616c6c6f776564000000000000000000604482015290519081900360640190fd5b82518451148015610a0e575082518251145b610a62576040805160e560020a62461bcd02815260206004820152601560248201527f4172726179206c656e677468206d69736d617463680000000000000000000000604482015290519081900360640190fd5b60005b8351811015610abb57610ab386868381518110610a7e57fe5b6020026020010151868481518110610a9257fe5b6020026020010151868581518110610aa657fe5b6020026020010151611cd2565b600101610a65565b505050505050565b6060806000805b84811015610d6c57600454606090600160a060020a031663ac90b422888885818110610af257fe5b9050602002013560ff166040518263ffffffff1660e060020a028152600401808260ff1660ff16815260200191505060006040518083038186803b158015610b3957600080fd5b505afa158015610b4d573d6000803e3d6000fd5b505050506040513d6000823e601f3d908101601f191682016040526020811015610b7657600080fd5b810190808051640100000000811115610b8e57600080fd5b82016020810184811115610ba157600080fd5b8151856020820283011164010000000082111715610bbe57600080fd5b50909450600093505050505b8151811015610d62576060828281518110610be157fe5b6020026020010151600160a060020a031663c3a07df66040518163ffffffff1660e060020a02815260040160006040518083038186803b158015610c2457600080fd5b505afa158015610c38573d6000803e3d6000fd5b505050506040513d6000823e601f3d908101601f191682016040526020811015610c6157600080fd5b810190808051640100000000811115610c7957600080fd5b82016020810184811115610c8c57600080fd5b8151856020820283011164010000000082111715610ca957600080fd5b50909450600093505050505b8151811015610d5857600080858581518110610ccd57fe5b6020026020010151600160a060020a0316600160a060020a0316815260200190815260200160002060008c600160a060020a0316600160a060020a031681526020019081526020016000206000838381518110610d2657fe5b60209081029190910181015182528101919091526040016000205460ff1615610d50576001909501945b600101610cb5565b5050600101610bca565b5050600101610aca565b50606081604051908082528060200260200182016040528015610d99578160200160208202803883390190505b509050606082604051908082528060200260200182016040528015610dc8578160200160208202803883390190505b50600093509050825b868110156110de57600454606090600160a060020a031663ac90b4228a8a85818110610df957fe5b9050602002013560ff166040518263ffffffff1660e060020a028152600401808260ff1660ff16815260200191505060006040518083038186803b158015610e4057600080fd5b505afa158015610e54573d6000803e3d6000fd5b505050506040513d6000823e601f3d908101601f191682016040526020811015610e7d57600080fd5b810190808051640100000000811115610e9557600080fd5b82016020810184811115610ea857600080fd5b8151856020820283011164010000000082111715610ec557600080fd5b50909450600093505050505b81518110156110d4576060828281518110610ee857fe5b6020026020010151600160a060020a031663c3a07df66040518163ffffffff1660e060020a02815260040160006040518083038186803b158015610f2b57600080fd5b505afa158015610f3f573d6000803e3d6000fd5b505050506040513d6000823e601f3d908101601f191682016040526020811015610f6857600080fd5b810190808051640100000000811115610f8057600080fd5b82016020810184811115610f9357600080fd5b8151856020820283011164010000000082111715610fb057600080fd5b50909450600093505050505b81518110156110ca57600080858581518110610fd457fe5b6020026020010151600160a060020a0316600160a060020a0316815260200190815260200160002060008e600160a060020a0316600160a060020a03168152602001908152602001600020600083838151811061102d57fe5b60209081029190910181015182528101919091526040016000205460ff16156110c25783838151811061105c57fe5b602002602001015187898151811061107057fe5b6020026020010190600160a060020a03169081600160a060020a03168152505081818151811061109c57fe5b60200260200101518689815181106110b057fe5b60209081029190910101526001909701965b600101610fbc565b5050600101610ed1565b5050600101610dd1565b509097909650945050505050565b6110f4611a91565b6110fc611d51565b565b6000602081815293815260408082208552928152828120909352825290205460ff1681565b60055474010000000000000000000000000000000000000000900460ff1681565b6000600160a060020a0382166111a4576040805160e560020a62461bcd02815260206004820152600f60248201527f496e76616c696420616464726573730000000000000000000000000000000000604482015290519081900360640190fd5b600160a060020a038216600090815260016020526040902054156111ca575060016111ce565b5060005b919050565b60d960020a6420a226a4a7026111e98133611b77565b61122b576040805160e560020a62461bcd0281526020600482015260126024820152600080516020612248833981519152604482015290519081900360640190fd5b838214611282576040805160e560020a62461bcd02815260206004820152600f60248201527f4c656e677468206d69736d617463680000000000000000000000000000000000604482015290519081900360640190fd5b60005b84811015610abb576112c486868381811061129c57fe5b90506020020135600160a060020a03168585848181106112b857fe5b90506020020135611e16565b600101611285565b600554600160a060020a031681565b60d960020a6420a226a4a7026112f18133611b77565b611333576040805160e560020a62461bcd0281526020600482015260126024820152600080516020612248833981519152604482015290519081900360640190fd5b61133c82611fd7565b5050565b6060600280548060200260200160405190810160405280929190818152602001828054801561139857602002820191906000526020600020905b8154600160a060020a0316815260019091019060200180831161137a575b5050505050905090565b6113aa611a91565b6110fc61212d565b600160a060020a038316600090815260016020526040812054156114055750600160a060020a0380831660009081526020818152604080832093871683529281528282208483529052205460ff16611409565b5060005b9392505050565b60606000805b60025481101561149057600160a060020a0385166000908152602081905260408120600280549192918490811061144957fe5b6000918252602080832090910154600160a060020a03168352828101939093526040918201812087825290925290205460ff1615611488576001909101905b600101611416565b6060826040519080825280602002602001820160405280156114bc578160200160208202803883390190505b50905060009250600091505b60025482101561159457600160a060020a038616600090815260208190526040812060028054919291859081106114fb57fe5b6000918252602080832090910154600160a060020a03168352828101939093526040918201812088825290925290205460ff1615611589576002828154811061154057fe5b9060005260206000200160009054906101000a9004600160a060020a031681848151811061156a57fe5b600160a060020a03909216602092830291909101909101526001909201915b6001909101906114c8565b95945050505050565b6115a5611a91565b600160a060020a038116611603576040805160e560020a62461bcd02815260206004820152600f60248201527f496e76616c696420616464726573730000000000000000000000000000000000604482015290519081900360640190fd5b604080517f70a0823100000000000000000000000000000000000000000000000000000000815230600482015290518291600091600160a060020a038416916370a08231916024808301926020929190829003018186803b15801561166757600080fd5b505afa15801561167b573d6000803e3d6000fd5b505050506040513d602081101561169157600080fd5b5051604080517fa9059cbb000000000000000000000000000000000000000000000000000000008152336004820152602481018390529051919250600160a060020a0384169163a9059cbb916044808201926020929091908290030181600087803b1580156116ff57600080fd5b505af1158015611713573d6000803e3d6000fd5b505050506040513d602081101561172957600080fd5b505161177f576040805160e560020a62461bcd02815260206004820152600f60248201527f5472616e73666572206661696c65640000000000000000000000000000000000604482015290519081900360640190fd5b505050565b6002818154811061179157fe5b600091825260209091200154600160a060020a0316905081565b7f4f50455241544f5200000000000000000000000000000000000000000000000081565b60d960020a6420a226a4a7026117e58133611b77565b611827576040805160e560020a62461bcd0281526020600482015260126024820152600080516020612248833981519152604482015290519081900360640190fd5b61177f8383611e16565b600454600160a060020a031681565b6040805160018082528183019092526060918291906020808301908038833901905050905060d960020a6420a226a4a7028160008151811061187e57fe5b6020908102919091010152905090565b600354600160a060020a031681565b60d960020a6420a226a4a7026118b38133611b77565b6118f5576040805160e560020a62461bcd0281526020600482015260126024820152600080516020612248833981519152604482015290519081900360640190fd5b60005b8281101561192c5761192484848381811061190f57fe5b90506020020135600160a060020a0316611fd7565b6001016118f8565b50505050565b60d960020a6420a226a4a7026119488133611b77565b61198a576040805160e560020a62461bcd0281526020600482015260126024820152600080516020612248833981519152604482015290519081900360640190fd5b600160a060020a0385166119e8576040805160e560020a62461bcd02815260206004820152600f60248201527f696e76616c696420616464726573730000000000000000000000000000000000604482015290519081900360640190fd5b6119f485858585611cd2565b5050505050565b60016020526000908152604090205481565b6000600460009054906101000a9004600160a060020a0316600160a060020a031663660d0d676040518163ffffffff1660e060020a02815260040160206040518083038186803b158015611a6057600080fd5b505afa158015611a74573d6000803e3d6000fd5b505050506040513d6020811015611a8a57600080fd5b5051905090565b60048054604080517f8da5cb5b0000000000000000000000000000000000000000000000000000000081529051600160a060020a0390921692638da5cb5b928282019260209290829003018186803b158015611aec57600080fd5b505afa158015611b00573d6000803e3d6000fd5b505050506040513d6020811015611b1657600080fd5b5051600160a060020a031633146110fc576040805160e560020a62461bcd02815260206004820152601360248201527f53656e646572206973206e6f74206f776e657200000000000000000000000000604482015290519081900360640190fd5b60048054604080517f8da5cb5b00000000000000000000000000000000000000000000000000000000815290516000938493600160a060020a031692638da5cb5b9281830192602092829003018186803b158015611bd457600080fd5b505afa158015611be8573d6000803e3d6000fd5b505050506040513d6020811015611bfe57600080fd5b5051600354600160a060020a038581169281168314935016148180611c205750805b80611594575060048054604080517f8658b8b9000000000000000000000000000000000000000000000000000000008152600160a060020a03888116948201949094523060248201526044810189905290519290911691638658b8b991606480820192602092909190829003018186803b158015611c9d57600080fd5b505afa158015611cb1573d6000803e3d6000fd5b505050506040513d6020811015611cc757600080fd5b505195945050505050565b600160a060020a03808416600081815260208181526040808320948916808452948252808320878452825291829020805486151560ff199091168117909155825193845290830186905282820152517fb630086996d7cdc1618b8be6b8d15f9e6e5c42d7e547f81114be728029a277b69181900360600190a250505050565b60055474010000000000000000000000000000000000000000900460ff16611dc3576040805160e560020a62461bcd02815260206004820152601660248201527f436f6e7472616374206973206e6f742070617573656400000000000000000000604482015290519081900360640190fd5b6005805474ff0000000000000000000000000000000000000000191690556040805133815290517faeb196d352664784d1900b0e7414a8face7d29f4dae8c4b0cf68ed477423bbf49181900360200190a1565b600160a060020a038216611e74576040805160e560020a62461bcd02815260206004820152600f60248201527f496e76616c696420616464726573730000000000000000000000000000000000604482015290519081900360640190fd5b80611ec9576040805160e560020a62461bcd02815260206004820152601360248201527f302076616c7565206e6f7420616c6c6f77656400000000000000000000000000604482015290519081900360640190fd5b600160a060020a03821660009081526001602052604090205415611f37576040805160e560020a62461bcd02815260206004820152600f60248201527f416c72656164792070726573656e740000000000000000000000000000000000604482015290519081900360640190fd5b600160a060020a03821660008181526001602081815260408084208690556002805493840181559093527f405787fa12a823e0f2b7631cc41b3ba8828b3321ca811111fa75cd3aa3bb5ace909101805473ffffffffffffffffffffffffffffffffffffffff191684179055815184815291517fa3b7033f08f647cbc0d9305729e64c22e3be712e9e94824e54d676c64977f7c79281900390910190a25050565b600160a060020a038116600090815260016020526040902054612044576040805160e560020a62461bcd02815260206004820152601760248201527f64656c656761746520646f6573206e6f74206578697374000000000000000000604482015290519081900360640190fd5b60025460005b818110156121115782600160a060020a03166002828154811061206957fe5b600091825260209091200154600160a060020a03161415612109576002600183038154811061209457fe5b60009182526020909120015460028054600160a060020a0390921691839081106120ba57fe5b6000918252602090912001805473ffffffffffffffffffffffffffffffffffffffff1916600160a060020a0392909216919091179055600280549061210390600019830161220a565b50612111565b60010161204a565b5050600160a060020a0316600090815260016020526040812055565b60055474010000000000000000000000000000000000000000900460ff16156121a0576040805160e560020a62461bcd02815260206004820152601260248201527f436f6e7472616374206973207061757365640000000000000000000000000000604482015290519081900360640190fd5b6005805474ff00000000000000000000000000000000000000001916740100000000000000000000000000000000000000001790556040805133815290517f5ee71a369c8672edded508e624ffc9257fa1ae6886ef32905c18e60196bca3999181900360200190a1565b81548183558181111561177f5760008381526020902061177f9181019083016108db91905b80821115612243576000815560010161222f565b509056fe496e76616c6964207065726d697373696f6e0000000000000000000000000000a165627a7a72305820e4ac3d8ca958f53ef8e8b7ed597fab182135b509a10bc212a012e2d746c987940029",
  "source": "pragma solidity 0.5.8;\n\nimport \"./IPermissionManager.sol\";\nimport \"../Module.sol\";\nimport \"./GeneralPermissionManagerStorage.sol\";\nimport \"../../interfaces/ISecurityToken.sol\";\n\n/**\n * @title Permission Manager module for core permissioning functionality\n */\ncontract GeneralPermissionManager is GeneralPermissionManagerStorage, IPermissionManager, Module {\n\n    /// Event emitted after any permission get changed for the delegate\n    event ChangePermission(address indexed _delegate, address _module, bytes32 _perm, bool _valid);\n    /// Used to notify when delegate is added in permission manager contract\n    event AddDelegate(address indexed _delegate, bytes32 _details);\n\n    /// @notice constructor\n    constructor(address _securityToken, address _polyToken) public Module(_securityToken, _polyToken) {\n\n    }\n\n    /**\n     * @notice Init function i.e generalise function to maintain the structure of the module contract\n     * @return bytes4\n     */\n    function getInitFunction() public pure returns(bytes4) {\n        return bytes4(0);\n    }\n\n    /**\n     * @notice Used to check the permission on delegate corresponds to module contract address\n     * @param _delegate Ethereum address of the delegate\n     * @param _module Ethereum contract address of the module\n     * @param _perm Permission flag\n     * @return bool\n     */\n    function checkPermission(address _delegate, address _module, bytes32 _perm) external view returns(bool) {\n        if (delegateDetails[_delegate] != bytes32(0)) {\n            return perms[_module][_delegate][_perm];\n        } else return false;\n    }\n\n    /**\n     * @notice Used to add a delegate\n     * @param _delegate Ethereum address of the delegate\n     * @param _details Details about the delegate i.e `Belongs to financial firm`\n     */\n    function addDelegate(address _delegate, bytes32 _details) external withPerm(ADMIN) {\n        _addDelegate(_delegate, _details);\n    }\n\n    /**\n     * @notice Used to add multiple delegates in a batch\n     * @param _delegates An array of Ethereum addresses of the delegates\n     * @param _details An array of details about the delegates i.e `Belongs to financial firm`\n     */\n    function addDelegateMulti(address[] calldata _delegates, bytes32[] calldata _details) external withPerm(ADMIN) {\n        require(_delegates.length == _details.length, \"Length mismatch\");\n        for (uint256 i = 0; i < _delegates.length; i++) {\n            _addDelegate(_delegates[i], _details[i]);\n        }\n    }\n\n    function _addDelegate(address _delegate, bytes32 _details) internal {\n        require(_delegate != address(0), \"Invalid address\");\n        require(_details != bytes32(0), \"0 value not allowed\");\n        require(delegateDetails[_delegate] == bytes32(0), \"Already present\");\n        delegateDetails[_delegate] = _details;\n        allDelegates.push(_delegate);\n        /*solium-disable-next-line security/no-block-members*/\n        emit AddDelegate(_delegate, _details);\n    }\n\n    /**\n     * @notice Used to delete a delegate\n     * @param _delegate Ethereum address of the delegate\n     */\n    function deleteDelegate(address _delegate) external withPerm(ADMIN) {\n        _deleteDelegate(_delegate);\n    }\n\n    /**\n     * @notice Used to delete a list of delegates\n     * @param _delegates An array of Ethereum address of delegates\n     */\n    function deleteDelegateMulti(address[] calldata _delegates) external withPerm(ADMIN) {\n        for (uint256 i = 0; i < _delegates.length; i++) {\n            _deleteDelegate(_delegates[i]);\n        }\n    }\n\n    function _deleteDelegate(address _delegate) internal {\n        require(delegateDetails[_delegate] != bytes32(0), \"delegate does not exist\");\n        uint256 delegateLen = allDelegates.length;\n        for (uint256 i = 0; i < delegateLen; i++) {\n            if (allDelegates[i] == _delegate) {\n                allDelegates[i] = allDelegates[delegateLen - 1];\n                allDelegates.length--;\n                break;\n            }\n        }\n        delete delegateDetails[_delegate];\n    }\n\n    /**\n     * @notice Used to check if an address is a delegate or not\n     * @param _potentialDelegate the address of potential delegate\n     * @return bool\n     */\n    function checkDelegate(address _potentialDelegate) external view returns(bool) {\n        require(_potentialDelegate != address(0), \"Invalid address\");\n\n        if (delegateDetails[_potentialDelegate] != bytes32(0)) {\n            return true;\n        } else return false;\n    }\n\n    /**\n     * @notice Used to provide/change the permission to the delegate corresponds to the module contract\n     * @param _delegate Ethereum address of the delegate\n     * @param _module Ethereum contract address of the module\n     * @param _perm Permission flag\n     * @param _valid Bool flag use to switch on/off the permission\n     * @return bool\n     */\n    function changePermission(address _delegate, address _module, bytes32 _perm, bool _valid) public withPerm(ADMIN) {\n        require(_delegate != address(0), \"invalid address\");\n        _changePermission(_delegate, _module, _perm, _valid);\n    }\n\n    /**\n     * @notice Used to change one or more permissions for a single delegate at once\n     * @param _delegate Ethereum address of the delegate\n     * @param _modules Multiple module matching the multiperms, needs to be same length\n     * @param _perms Multiple permission flag needs to be changed\n     * @param _valids Bool array consist the flag to switch on/off the permission\n     * @return nothing\n     */\n    function changePermissionMulti(\n        address _delegate,\n        address[] memory _modules,\n        bytes32[] memory _perms,\n        bool[] memory _valids\n    )\n        public\n        withPerm(ADMIN)\n    {\n        require(_delegate != address(0), \"invalid address\");\n        require(_modules.length > 0, \"0 length is not allowed\");\n        require(_modules.length == _perms.length && _valids.length == _perms.length, \"Array length mismatch\");\n        for (uint256 i = 0; i < _perms.length; i++) {\n            _changePermission(_delegate, _modules[i], _perms[i], _valids[i]);\n        }\n    }\n\n    /**\n     * @notice Used to return all delegates with a given permission and module\n     * @param _module Ethereum contract address of the module\n     * @param _perm Permission flag\n     * @return address[]\n     */\n    function getAllDelegatesWithPerm(address _module, bytes32 _perm) external view returns(address[] memory) {\n        uint256 counter = 0;\n        uint256 i = 0;\n        for (i = 0; i < allDelegates.length; i++) {\n            if (perms[_module][allDelegates[i]][_perm]) {\n                counter++;\n            }\n        }\n        address[] memory allDelegatesWithPerm = new address[](counter);\n        counter = 0;\n        for (i = 0; i < allDelegates.length; i++) {\n            if (perms[_module][allDelegates[i]][_perm]) {\n                allDelegatesWithPerm[counter] = allDelegates[i];\n                counter++;\n            }\n        }\n        return allDelegatesWithPerm;\n    }\n\n    /**\n     * @notice Used to return all permission of a single or multiple module\n     * @dev possible that function get out of gas is there are lot of modules and perm related to them\n     * @param _delegate Ethereum address of the delegate\n     * @param _types uint8[] of types\n     * @return address[] the address array of Modules this delegate has permission\n     * @return bytes32[] the permission array of the corresponding Modules\n     */\n    function getAllModulesAndPermsFromTypes(address _delegate, uint8[] calldata _types) external view returns(\n        address[] memory,\n        bytes32[] memory\n    ) {\n        uint256 counter = 0;\n        // loop through _types and get their modules from securityToken->getModulesByType\n        for (uint256 i = 0; i < _types.length; i++) {\n            address[] memory _currentTypeModules = securityToken.getModulesByType(_types[i]);\n            // loop through each modules to get their perms from IModule->getPermissions\n            for (uint256 j = 0; j < _currentTypeModules.length; j++) {\n                bytes32[] memory _allModulePerms = IModule(_currentTypeModules[j]).getPermissions();\n                // loop through each perm, if it is true, push results into arrays\n                for (uint256 k = 0; k < _allModulePerms.length; k++) {\n                    if (perms[_currentTypeModules[j]][_delegate][_allModulePerms[k]]) {\n                        counter++;\n                    }\n                }\n            }\n        }\n\n        address[] memory _allModules = new address[](counter);\n        bytes32[] memory _allPerms = new bytes32[](counter);\n        counter = 0;\n\n        for (uint256 i = 0; i < _types.length; i++) {\n            address[] memory _currentTypeModules = securityToken.getModulesByType(_types[i]);\n            for (uint256 j = 0; j < _currentTypeModules.length; j++) {\n                bytes32[] memory _allModulePerms = IModule(_currentTypeModules[j]).getPermissions();\n                for (uint256 k = 0; k < _allModulePerms.length; k++) {\n                    if (perms[_currentTypeModules[j]][_delegate][_allModulePerms[k]]) {\n                        _allModules[counter] = _currentTypeModules[j];\n                        _allPerms[counter] = _allModulePerms[k];\n                        counter++;\n                    }\n                }\n            }\n        }\n\n        return (_allModules, _allPerms);\n    }\n\n    /**\n     * @notice Used to provide/change the permission to the delegate corresponds to the module contract\n     * @param _delegate Ethereum address of the delegate\n     * @param _module Ethereum contract address of the module\n     * @param _perm Permission flag\n     * @param _valid Bool flag use to switch on/off the permission\n     * @return bool\n     */\n    function _changePermission(address _delegate, address _module, bytes32 _perm, bool _valid) internal {\n        perms[_module][_delegate][_perm] = _valid;\n        /*solium-disable-next-line security/no-block-members*/\n        emit ChangePermission(_delegate, _module, _perm, _valid);\n    }\n\n    /**\n     * @notice Used to get all delegates\n     * @return address[]\n     */\n    function getAllDelegates() external view returns(address[] memory) {\n        return allDelegates;\n    }\n\n    /**\n    * @notice Returns the Permission flag related the `this` contract\n    * @return Array of permission flags\n    */\n    function getPermissions() public view returns(bytes32[] memory) {\n        bytes32[] memory allPermissions = new bytes32[](1);\n        allPermissions[0] = ADMIN;\n        return allPermissions;\n    }\n\n}\n",
  "sourcePath": "/Users/federicoelgarte/Polymath/polymath-core/contracts/modules/PermissionManager/GeneralPermissionManager.sol",
  "compiler": {
    "name": "solc",
    "version": "0.5.8+commit.23d335f2.Emscripten.clang"
  },
  "schemaVersion": "3.0.2",
  "updatedAt": "2019-09-03T13:52:34.743Z",
  "devdoc": {
    "methods": {
      "addDelegate(address,bytes32)": {
        "params": {
          "_delegate": "Ethereum address of the delegate",
          "_details": "Details about the delegate i.e `Belongs to financial firm`"
        }
      },
      "addDelegateMulti(address[],bytes32[])": {
        "params": {
          "_delegates": "An array of Ethereum addresses of the delegates",
          "_details": "An array of details about the delegates i.e `Belongs to financial firm`"
        }
      },
      "changePermission(address,address,bytes32,bool)": {
        "params": {
          "_delegate": "Ethereum address of the delegate",
          "_module": "Ethereum contract address of the module",
          "_perm": "Permission flag",
          "_valid": "Bool flag use to switch on/off the permission"
        },
        "return": "bool"
      },
      "changePermissionMulti(address,address[],bytes32[],bool[])": {
        "params": {
          "_delegate": "Ethereum address of the delegate",
          "_modules": "Multiple module matching the multiperms, needs to be same length",
          "_perms": "Multiple permission flag needs to be changed",
          "_valids": "Bool array consist the flag to switch on/off the permission"
        },
        "return": "nothing"
      },
      "checkDelegate(address)": {
        "params": {
          "_potentialDelegate": "the address of potential delegate"
        },
        "return": "bool"
      },
      "checkPermission(address,address,bytes32)": {
        "params": {
          "_delegate": "Ethereum address of the delegate",
          "_module": "Ethereum contract address of the module",
          "_perm": "Permission flag"
        },
        "return": "bool"
      },
      "deleteDelegate(address)": {
        "params": {
          "_delegate": "Ethereum address of the delegate"
        }
      },
      "deleteDelegateMulti(address[])": {
        "params": {
          "_delegates": "An array of Ethereum address of delegates"
        }
      },
      "getAllDelegates()": {
        "return": "address[]"
      },
      "getAllDelegatesWithPerm(address,bytes32)": {
        "params": {
          "_module": "Ethereum contract address of the module",
          "_perm": "Permission flag"
        },
        "return": "address[]"
      },
      "getAllModulesAndPermsFromTypes(address,uint8[])": {
        "details": "possible that function get out of gas is there are lot of modules and perm related to them",
        "params": {
          "_delegate": "Ethereum address of the delegate",
          "_types": "uint8[] of types"
        },
        "return": "address[] the address array of Modules this delegate has permissionbytes32[] the permission array of the corresponding Modules"
      },
      "getInitFunction()": {
        "return": "bytes4"
      },
      "getPermissions()": {
        "return": "Array of permission flags"
      },
      "reclaimERC20(address)": {
        "details": "We duplicate here due to the overriden owner & onlyOwner",
        "params": {
          "_tokenContract": "The address of the token contract"
        }
      },
      "reclaimETH()": {
        "details": "We duplicate here due to the overriden owner & onlyOwner"
      }
    },
    "title": "Permission Manager module for core permissioning functionality"
  },
  "userdoc": {
    "methods": {
      "addDelegate(address,bytes32)": {
        "notice": "Used to add a delegate"
      },
      "addDelegateMulti(address[],bytes32[])": {
        "notice": "Used to add multiple delegates in a batch"
      },
      "changePermission(address,address,bytes32,bool)": {
        "notice": "Used to provide/change the permission to the delegate corresponds to the module contract"
      },
      "changePermissionMulti(address,address[],bytes32[],bool[])": {
        "notice": "Used to change one or more permissions for a single delegate at once"
      },
      "checkDelegate(address)": {
        "notice": "Used to check if an address is a delegate or not"
      },
      "checkPermission(address,address,bytes32)": {
        "notice": "Used to check the permission on delegate corresponds to module contract address"
      },
      "constructor": "constructor",
      "deleteDelegate(address)": {
        "notice": "Used to delete a delegate"
      },
      "deleteDelegateMulti(address[])": {
        "notice": "Used to delete a list of delegates"
      },
      "getAllDelegates()": {
        "notice": "Used to get all delegates"
      },
      "getAllDelegatesWithPerm(address,bytes32)": {
        "notice": "Used to return all delegates with a given permission and module"
      },
      "getAllModulesAndPermsFromTypes(address,uint8[])": {
        "notice": "Used to return all permission of a single or multiple module"
      },
      "getDataStore()": {
        "notice": "used to return the data store address of securityToken"
      },
      "getInitFunction()": {
        "notice": "Init function i.e generalise function to maintain the structure of the module contract"
      },
      "getPermissions()": {
        "notice": "Returns the Permission flag related the `this` contract"
      },
      "pause()": {
        "notice": "Pause (overridden function)"
      },
      "reclaimERC20(address)": {
        "notice": "Reclaims ERC20Basic compatible tokens"
      },
      "reclaimETH()": {
        "notice": "Reclaims ETH"
      },
      "unpause()": {
        "notice": "Unpause (overridden function)"
      }
    }
  }
}