{
  "contractName": "ManualApprovalTransferManager",
  "abi": [
    {
      "constant": false,
      "inputs": [],
      "name": "reclaimETH",
      "outputs": [],
      "payable": false,
      "stateMutability": "nonpayable",
      "type": "function"
    },
    {
      "constant": true,
      "inputs": [
        {
          "name": "_partition",
          "type": "bytes32"
        },
        {
          "name": "_tokenHolder",
          "type": "address"
        },
        {
          "name": "",
          "type": "uint256"
        }
      ],
      "name": "getTokensByPartition",
      "outputs": [
        {
          "name": "",
          "type": "uint256"
        }
      ],
      "payable": false,
      "stateMutability": "view",
      "type": "function"
    },
    {
      "constant": true,
      "inputs": [],
      "name": "ADMIN",
      "outputs": [
        {
          "name": "",
          "type": "bytes32"
        }
      ],
      "payable": false,
      "stateMutability": "view",
      "type": "function"
    },
    {
      "constant": false,
      "inputs": [],
      "name": "unpause",
      "outputs": [],
      "payable": false,
      "stateMutability": "nonpayable",
      "type": "function"
    },
    {
      "constant": true,
      "inputs": [],
      "name": "paused",
      "outputs": [
        {
          "name": "",
          "type": "bool"
        }
      ],
      "payable": false,
      "stateMutability": "view",
      "type": "function"
    },
    {
      "constant": true,
      "inputs": [
        {
          "name": "",
          "type": "address"
        },
        {
          "name": "",
          "type": "address"
        }
      ],
      "name": "approvalIndex",
      "outputs": [
        {
          "name": "",
          "type": "uint256"
        }
      ],
      "payable": false,
      "stateMutability": "view",
      "type": "function"
    },
    {
      "constant": true,
      "inputs": [
        {
          "name": "",
          "type": "uint256"
        }
      ],
      "name": "approvals",
      "outputs": [
        {
          "name": "from",
          "type": "address"
        },
        {
          "name": "to",
          "type": "address"
        },
        {
          "name": "allowance",
          "type": "uint256"
        },
        {
          "name": "expiryTime",
          "type": "uint256"
        },
        {
          "name": "description",
          "type": "bytes32"
        }
      ],
      "payable": false,
      "stateMutability": "view",
      "type": "function"
    },
    {
      "constant": true,
      "inputs": [],
      "name": "UNLOCKED",
      "outputs": [
        {
          "name": "",
          "type": "bytes32"
        }
      ],
      "payable": false,
      "stateMutability": "view",
      "type": "function"
    },
    {
      "constant": true,
      "inputs": [],
      "name": "polyToken",
      "outputs": [
        {
          "name": "",
          "type": "address"
        }
      ],
      "payable": false,
      "stateMutability": "view",
      "type": "function"
    },
    {
      "constant": false,
      "inputs": [],
      "name": "pause",
      "outputs": [],
      "payable": false,
      "stateMutability": "nonpayable",
      "type": "function"
    },
    {
      "constant": false,
      "inputs": [
        {
          "name": "_tokenContract",
          "type": "address"
        }
      ],
      "name": "reclaimERC20",
      "outputs": [],
      "payable": false,
      "stateMutability": "nonpayable",
      "type": "function"
    },
    {
      "constant": true,
      "inputs": [],
      "name": "OPERATOR",
      "outputs": [
        {
          "name": "",
          "type": "bytes32"
        }
      ],
      "payable": false,
      "stateMutability": "view",
      "type": "function"
    },
    {
      "constant": true,
      "inputs": [],
      "name": "LOCKED",
      "outputs": [
        {
          "name": "",
          "type": "bytes32"
        }
      ],
      "payable": false,
      "stateMutability": "view",
      "type": "function"
    },
    {
      "constant": true,
      "inputs": [],
      "name": "securityToken",
      "outputs": [
        {
          "name": "",
          "type": "address"
        }
      ],
      "payable": false,
      "stateMutability": "view",
      "type": "function"
    },
    {
      "constant": true,
      "inputs": [],
      "name": "factory",
      "outputs": [
        {
          "name": "",
          "type": "address"
        }
      ],
      "payable": false,
      "stateMutability": "view",
      "type": "function"
    },
    {
      "constant": true,
      "inputs": [],
      "name": "getDataStore",
      "outputs": [
        {
          "name": "",
          "type": "address"
        }
      ],
      "payable": false,
      "stateMutability": "view",
      "type": "function"
    },
    {
      "inputs": [
        {
          "name": "_securityToken",
          "type": "address"
        },
        {
          "name": "_polyToken",
          "type": "address"
        }
      ],
      "payable": false,
      "stateMutability": "nonpayable",
      "type": "constructor"
    },
    {
      "anonymous": false,
      "inputs": [
        {
          "indexed": true,
          "name": "_from",
          "type": "address"
        },
        {
          "indexed": true,
          "name": "_to",
          "type": "address"
        },
        {
          "indexed": false,
          "name": "_allowance",
          "type": "uint256"
        },
        {
          "indexed": false,
          "name": "_expiryTime",
          "type": "uint256"
        },
        {
          "indexed": false,
          "name": "_description",
          "type": "bytes32"
        },
        {
          "indexed": true,
          "name": "_addedBy",
          "type": "address"
        }
      ],
      "name": "AddManualApproval",
      "type": "event"
    },
    {
      "anonymous": false,
      "inputs": [
        {
          "indexed": true,
          "name": "_from",
          "type": "address"
        },
        {
          "indexed": true,
          "name": "_to",
          "type": "address"
        },
        {
          "indexed": false,
          "name": "_expiryTime",
          "type": "uint256"
        },
        {
          "indexed": false,
          "name": "_allowance",
          "type": "uint256"
        },
        {
          "indexed": false,
          "name": "_description",
          "type": "bytes32"
        },
        {
          "indexed": true,
          "name": "_edittedBy",
          "type": "address"
        }
      ],
      "name": "ModifyManualApproval",
      "type": "event"
    },
    {
      "anonymous": false,
      "inputs": [
        {
          "indexed": true,
          "name": "_from",
          "type": "address"
        },
        {
          "indexed": true,
          "name": "_to",
          "type": "address"
        },
        {
          "indexed": true,
          "name": "_addedBy",
          "type": "address"
        }
      ],
      "name": "RevokeManualApproval",
      "type": "event"
    },
    {
      "anonymous": false,
      "inputs": [
        {
          "indexed": false,
          "name": "account",
          "type": "address"
        }
      ],
      "name": "Pause",
      "type": "event"
    },
    {
      "anonymous": false,
      "inputs": [
        {
          "indexed": false,
          "name": "account",
          "type": "address"
        }
      ],
      "name": "Unpause",
      "type": "event"
    },
    {
      "constant": true,
      "inputs": [],
      "name": "getInitFunction",
      "outputs": [
        {
          "name": "",
          "type": "bytes4"
        }
      ],
      "payable": false,
      "stateMutability": "pure",
      "type": "function"
    },
    {
      "constant": false,
      "inputs": [
        {
          "name": "_from",
          "type": "address"
        },
        {
          "name": "_to",
          "type": "address"
        },
        {
          "name": "_amount",
          "type": "uint256"
        },
        {
          "name": "",
          "type": "bytes"
        }
      ],
      "name": "executeTransfer",
      "outputs": [
        {
          "name": "",
          "type": "uint8"
        }
      ],
      "payable": false,
      "stateMutability": "nonpayable",
      "type": "function"
    },
    {
      "constant": true,
      "inputs": [
        {
          "name": "_from",
          "type": "address"
        },
        {
          "name": "_to",
          "type": "address"
        },
        {
          "name": "_amount",
          "type": "uint256"
        },
        {
          "name": "",
          "type": "bytes"
        }
      ],
      "name": "verifyTransfer",
      "outputs": [
        {
          "name": "",
          "type": "uint8"
        },
        {
          "name": "",
          "type": "bytes32"
        }
      ],
      "payable": false,
      "stateMutability": "view",
      "type": "function"
    },
    {
      "constant": false,
      "inputs": [
        {
          "name": "_from",
          "type": "address"
        },
        {
          "name": "_to",
          "type": "address"
        },
        {
          "name": "_allowance",
          "type": "uint256"
        },
        {
          "name": "_expiryTime",
          "type": "uint256"
        },
        {
          "name": "_description",
          "type": "bytes32"
        }
      ],
      "name": "addManualApproval",
      "outputs": [],
      "payable": false,
      "stateMutability": "nonpayable",
      "type": "function"
    },
    {
      "constant": false,
      "inputs": [
        {
          "name": "_from",
          "type": "address[]"
        },
        {
          "name": "_to",
          "type": "address[]"
        },
        {
          "name": "_allowances",
          "type": "uint256[]"
        },
        {
          "name": "_expiryTimes",
          "type": "uint256[]"
        },
        {
          "name": "_descriptions",
          "type": "bytes32[]"
        }
      ],
      "name": "addManualApprovalMulti",
      "outputs": [],
      "payable": false,
      "stateMutability": "nonpayable",
      "type": "function"
    },
    {
      "constant": false,
      "inputs": [
        {
          "name": "_from",
          "type": "address"
        },
        {
          "name": "_to",
          "type": "address"
        },
        {
          "name": "_expiryTime",
          "type": "uint256"
        },
        {
          "name": "_changeInAllowance",
          "type": "uint256"
        },
        {
          "name": "_description",
          "type": "bytes32"
        },
        {
          "name": "_increase",
          "type": "bool"
        }
      ],
      "name": "modifyManualApproval",
      "outputs": [],
      "payable": false,
      "stateMutability": "nonpayable",
      "type": "function"
    },
    {
      "constant": false,
      "inputs": [
        {
          "name": "_from",
          "type": "address[]"
        },
        {
          "name": "_to",
          "type": "address[]"
        },
        {
          "name": "_expiryTimes",
          "type": "uint256[]"
        },
        {
          "name": "_changeInAllowance",
          "type": "uint256[]"
        },
        {
          "name": "_descriptions",
          "type": "bytes32[]"
        },
        {
          "name": "_increase",
          "type": "bool[]"
        }
      ],
      "name": "modifyManualApprovalMulti",
      "outputs": [],
      "payable": false,
      "stateMutability": "nonpayable",
      "type": "function"
    },
    {
      "constant": false,
      "inputs": [
        {
          "name": "_from",
          "type": "address"
        },
        {
          "name": "_to",
          "type": "address"
        }
      ],
      "name": "revokeManualApproval",
      "outputs": [],
      "payable": false,
      "stateMutability": "nonpayable",
      "type": "function"
    },
    {
      "constant": false,
      "inputs": [
        {
          "name": "_from",
          "type": "address[]"
        },
        {
          "name": "_to",
          "type": "address[]"
        }
      ],
      "name": "revokeManualApprovalMulti",
      "outputs": [],
      "payable": false,
      "stateMutability": "nonpayable",
      "type": "function"
    },
    {
      "constant": true,
      "inputs": [
        {
          "name": "_user",
          "type": "address"
        }
      ],
      "name": "getActiveApprovalsToUser",
      "outputs": [
        {
          "name": "",
          "type": "address[]"
        },
        {
          "name": "",
          "type": "address[]"
        },
        {
          "name": "",
          "type": "uint256[]"
        },
        {
          "name": "",
          "type": "uint256[]"
        },
        {
          "name": "",
          "type": "bytes32[]"
        }
      ],
      "payable": false,
      "stateMutability": "view",
      "type": "function"
    },
    {
      "constant": true,
      "inputs": [
        {
          "name": "_from",
          "type": "address"
        },
        {
          "name": "_to",
          "type": "address"
        }
      ],
      "name": "getApprovalDetails",
      "outputs": [
        {
          "name": "",
          "type": "uint256"
        },
        {
          "name": "",
          "type": "uint256"
        },
        {
          "name": "",
          "type": "bytes32"
        }
      ],
      "payable": false,
      "stateMutability": "view",
      "type": "function"
    },
    {
      "constant": true,
      "inputs": [],
      "name": "getTotalApprovalsLength",
      "outputs": [
        {
          "name": "",
          "type": "uint256"
        }
      ],
      "payable": false,
      "stateMutability": "view",
      "type": "function"
    },
    {
      "constant": true,
      "inputs": [],
      "name": "getAllApprovals",
      "outputs": [
        {
          "name": "",
          "type": "address[]"
        },
        {
          "name": "",
          "type": "address[]"
        },
        {
          "name": "",
          "type": "uint256[]"
        },
        {
          "name": "",
          "type": "uint256[]"
        },
        {
          "name": "",
          "type": "bytes32[]"
        }
      ],
      "payable": false,
      "stateMutability": "view",
      "type": "function"
    },
    {
      "constant": true,
      "inputs": [],
      "name": "getPermissions",
      "outputs": [
        {
          "name": "",
          "type": "bytes32[]"
        }
      ],
      "payable": false,
      "stateMutability": "view",
      "type": "function"
    }
  ],
  "bytecode": "0x60806040526004805460a060020a60ff021916905534801561002057600080fd5b50604051604080612ed28339810180604052604081101561004057600080fd5b50805160209091015160038054600160a060020a03938416600160a060020a0319918216179091556002805482163317905560048054939092169216919091179055612e41806100916000396000f3fe608060405234801561001057600080fd5b50600436106101de5760003560e060020a900480638905fd4f11610108578063c45a0155116100a6578063e3c6a72b11610075578063e3c6a72b14610d28578063e7529d0d14610dea578063f1d74b0f14610df2578063fe58265e14610ee3576101de565b8063c45a015514610979578063d786e3ff14610981578063d9195a2a14610cb8578063e0d9d74914610d02576101de565b8063b2b808d5116100e2578063b2b808d51461061a578063b84dfbd214610666578063c3a07df61461066e578063c3a55f3a146106c6576101de565b80638905fd4f146105e4578063983d27371461060a578063a1422f6914610612576101de565b80635677829f116101805780636c2f0d531161014f5780636c2f0d53146105825780636faa22a51461058a5780637dc32b0b146105ae5780638456cb59146105dc576101de565b80635677829f146104a25780635c975abb146104e45780635e6ebfc51461050057806363035f661461052e576101de565b80632a0acc6a116101bc5780632a0acc6a1461026e5780633d321731146102765780633f4ba83a1461032a57806348637f0814610332576101de565b80630f144a48146101e35780631613ec9d146101ed5780632829e6511461022a575b600080fd5b6101eb610eeb565b005b6101f5610f23565b604080517fffffffff000000000000000000000000000000000000000000000000000000009092168252519081900360200190f35b61025c6004803603606081101561024057600080fd5b50803590600160a060020a036020820135169060400135610f29565b60408051918252519081900360200190f35b61025c610ff7565b6103066004803603608081101561028c57600080fd5b600160a060020a038235811692602081013590911691604082013591908101906080810160608201356401000000008111156102c757600080fd5b8201836020820111156102d957600080fd5b803590602001918460018302840111640100000000831117156102fb57600080fd5b509092509050611006565b6040518082600381111561031657fe5b60ff16815260200191505060405180910390f35b6101eb6110fa565b61033a61110c565b60405180806020018060200180602001806020018060200186810386528b818151815260200191508051906020019060200280838360005b8381101561038a578181015183820152602001610372565b5050505090500186810385528a818151815260200191508051906020019060200280838360005b838110156103c95781810151838201526020016103b1565b50505050905001868103845289818151815260200191508051906020019060200280838360005b838110156104085781810151838201526020016103f0565b50505050905001868103835288818151815260200191508051906020019060200280838360005b8381101561044757818101518382015260200161042f565b50505050905001868103825287818151815260200191508051906020019060200280838360005b8381101561048657818101518382015260200161046e565b505050509050019a505050505050505050505060405180910390f35b6101eb600480360360a08110156104b857600080fd5b50600160a060020a03813581169160208101359091169060408101359060608101359060800135611389565b6104ec6113f6565b604080519115158252519081900360200190f35b61025c6004803603604081101561051657600080fd5b50600160a060020a0381358116916020013516611406565b61054b6004803603602081101561054457600080fd5b5035611420565b60408051600160a060020a039687168152949095166020850152838501929092526060830152608082015290519081900360a00190f35b61025c61146a565b61059261148e565b60408051600160a060020a039092168252519081900360200190f35b6101eb600480360360408110156105c457600080fd5b50600160a060020a038135811691602001351661149d565b6101eb611504565b6101eb600480360360208110156105fa57600080fd5b5035600160a060020a0316611514565b61025c6116f6565b61025c61171a565b6106486004803603604081101561063057600080fd5b50600160a060020a038135811691602001351661173e565b60408051938452602084019290925282820152519081900360600190f35b6105926117cd565b6106766117dc565b60408051602080825283518183015283519192839290830191858101910280838360005b838110156106b257818101518382015260200161069a565b505050509050019250505060405180910390f35b6101eb600480360360a08110156106dc57600080fd5b8101906020810181356401000000008111156106f757600080fd5b82018360208201111561070957600080fd5b8035906020019184602083028401116401000000008311171561072b57600080fd5b919080806020026020016040519081016040528093929190818152602001838360200280828437600092019190915250929594936020810193503591505064010000000081111561077b57600080fd5b82018360208201111561078d57600080fd5b803590602001918460208302840111640100000000831117156107af57600080fd5b91908080602002602001604051908101604052809392919081815260200183836020028082843760009201919091525092959493602081019350359150506401000000008111156107ff57600080fd5b82018360208201111561081157600080fd5b8035906020019184602083028401116401000000008311171561083357600080fd5b919080806020026020016040519081016040528093929190818152602001838360200280828437600092019190915250929594936020810193503591505064010000000081111561088357600080fd5b82018360208201111561089557600080fd5b803590602001918460208302840111640100000000831117156108b757600080fd5b919080806020026020016040519081016040528093929190818152602001838360200280828437600092019190915250929594936020810193503591505064010000000081111561090757600080fd5b82018360208201111561091957600080fd5b8035906020019184602083028401116401000000008311171561093b57600080fd5b91908080602002602001604051908101604052809392919081815260200183836020028082843760009201919091525092955061182a945050505050565b610592611918565b6101eb600480360360c081101561099757600080fd5b8101906020810181356401000000008111156109b257600080fd5b8201836020820111156109c457600080fd5b803590602001918460208302840111640100000000831117156109e657600080fd5b9190808060200260200160405190810160405280939291908181526020018383602002808284376000920191909152509295949360208101935035915050640100000000811115610a3657600080fd5b820183602082011115610a4857600080fd5b80359060200191846020830284011164010000000083111715610a6a57600080fd5b9190808060200260200160405190810160405280939291908181526020018383602002808284376000920191909152509295949360208101935035915050640100000000811115610aba57600080fd5b820183602082011115610acc57600080fd5b80359060200191846020830284011164010000000083111715610aee57600080fd5b9190808060200260200160405190810160405280939291908181526020018383602002808284376000920191909152509295949360208101935035915050640100000000811115610b3e57600080fd5b820183602082011115610b5057600080fd5b80359060200191846020830284011164010000000083111715610b7257600080fd5b9190808060200260200160405190810160405280939291908181526020018383602002808284376000920191909152509295949360208101935035915050640100000000811115610bc257600080fd5b820183602082011115610bd457600080fd5b80359060200191846020830284011164010000000083111715610bf657600080fd5b9190808060200260200160405190810160405280939291908181526020018383602002808284376000920191909152509295949360208101935035915050640100000000811115610c4657600080fd5b820183602082011115610c5857600080fd5b80359060200191846020830284011164010000000083111715610c7a57600080fd5b919080806020026020016040519081016040528093929190818152602001838360200280828437600092019190915250929550611927945050505050565b6101eb600480360360c0811015610cce57600080fd5b50600160a060020a03813581169160208101359091169060408101359060608101359060808101359060a001351515611a83565b61033a60048036036020811015610d1857600080fd5b5035600160a060020a0316611ae9565b6101eb60048036036040811015610d3e57600080fd5b810190602081018135640100000000811115610d5957600080fd5b820183602082011115610d6b57600080fd5b80359060200191846020830284011164010000000083111715610d8d57600080fd5b919390929091602081019035640100000000811115610dab57600080fd5b820183602082011115610dbd57600080fd5b80359060200191846020830284011164010000000083111715610ddf57600080fd5b509092509050611ec5565b61025c611fc7565b610eb860048036036080811015610e0857600080fd5b600160a060020a03823581169260208101359091169160408201359190810190608081016060820135640100000000811115610e4357600080fd5b820183602082011115610e5557600080fd5b80359060200191846001830284011164010000000083111715610e7757600080fd5b91908080601f016020809104026020016040519081016040528093929190818152602001838380828437600092019190915250929550611fcd945050505050565b60405180836003811115610ec857fe5b60ff1681526020018281526020019250505060405180910390f35b610592611fe8565b610ef3612077565b6040513390303180156108fc02916000818181858888f19350505050158015610f20573d6000803e3d6000fd5b50565b60005b90565b60007f554e4c4f434b4544000000000000000000000000000000000000000000000000841415610fec57600354604080517f70a08231000000000000000000000000000000000000000000000000000000008152600160a060020a038681166004830152915191909216916370a08231916024808301926020929190829003018186803b158015610fb957600080fd5b505afa158015610fcd573d6000803e3d6000fd5b505050506040513d6020811015610fe357600080fd5b50519050610ff0565b5060005b9392505050565b60d960020a6420a226a4a70281565b600354600090600160a060020a0316331461106b576040805160e560020a62461bcd02815260206004820152601360248201527f53656e646572206973206e6f74206f776e657200000000000000000000000000604482015290519081900360640190fd5b600080611079888888612153565b909250905080156110ef57600160a060020a03808916600090815260208181526040808320938b16835292905290812054600180546000199092019291839081106110c057fe5b906000526020600020906005020190506110e788826002015461225790919063ffffffff16565b600290910155505b509695505050505050565b611102612077565b61110a61226c565b565b60608060608060606000600180549050905060608160405190808252806020026020018201604052801561114a578160200160208202803883390190505b509050606082604051908082528060200260200182016040528015611179578160200160208202803883390190505b5090506060836040519080825280602002602001820160405280156111a8578160200160208202803883390190505b5090506060846040519080825280602002602001820160405280156111d7578160200160208202803883390190505b509050606085604051908082528060200260200182016040528015611206578160200160208202803883390190505b50905060005b86811015611376576001818154811061122157fe5b60009182526020909120600590910201548651600160a060020a039091169087908390811061124c57fe5b6020026020010190600160a060020a03169081600160a060020a0316815250506001818154811061127957fe5b906000526020600020906005020160010160009054906101000a9004600160a060020a03168582815181106112aa57fe5b6020026020010190600160a060020a03169081600160a060020a031681525050600181815481106112d757fe5b9060005260206000209060050201600201548482815181106112f557fe5b6020026020010181815250506001818154811061130e57fe5b90600052602060002090600502016003015483828151811061132c57fe5b6020026020010181815250506001818154811061134557fe5b90600052602060002090600502016004015482828151811061136357fe5b602090810291909101015260010161120c565b50939a9299509097509550909350915050565b60d960020a6420a226a4a70261139f8133612320565b6113e1576040805160e560020a62461bcd0281526020600482015260126024820152600080516020612df6833981519152604482015290519081900360640190fd5b6113ee868686868661246f565b505050505050565b60045460a060020a900460ff1681565b600060208181529281526040808220909352908152205481565b6001818154811061142d57fe5b600091825260209091206005909102018054600182015460028301546003840154600490940154600160a060020a03938416955091909216929085565b7f554e4c4f434b454400000000000000000000000000000000000000000000000081565b600454600160a060020a031681565b60d960020a6420a226a4a7026114b38133612320565b6114f5576040805160e560020a62461bcd0281526020600482015260126024820152600080516020612df6833981519152604482015290519081900360640190fd5b6114ff83836127b5565b505050565b61150c612077565b61110a6129ce565b61151c612077565b600160a060020a03811661157a576040805160e560020a62461bcd02815260206004820152600f60248201527f496e76616c696420616464726573730000000000000000000000000000000000604482015290519081900360640190fd5b604080517f70a0823100000000000000000000000000000000000000000000000000000000815230600482015290518291600091600160a060020a038416916370a08231916024808301926020929190829003018186803b1580156115de57600080fd5b505afa1580156115f2573d6000803e3d6000fd5b505050506040513d602081101561160857600080fd5b5051604080517fa9059cbb000000000000000000000000000000000000000000000000000000008152336004820152602481018390529051919250600160a060020a0384169163a9059cbb916044808201926020929091908290030181600087803b15801561167657600080fd5b505af115801561168a573d6000803e3d6000fd5b505050506040513d60208110156116a057600080fd5b50516114ff576040805160e560020a62461bcd02815260206004820152600f60248201527f5472616e73666572206661696c65640000000000000000000000000000000000604482015290519081900360640190fd5b7f4f50455241544f5200000000000000000000000000000000000000000000000081565b7f4c4f434b4544000000000000000000000000000000000000000000000000000081565b600160a060020a038083166000908152602081815260408083209385168352929052908120548190819080156117ba57600154600019909101908110156117ba5760006001828154811061178e57fe5b9060005260206000209060050201905080600301548160020154826004015494509450945050506117c6565b50600092508291508190505b9250925092565b600354600160a060020a031681565b6040805160018082528183019092526060918291906020808301908038833901905050905060d960020a6420a226a4a7028160008151811061181a57fe5b6020908102919091010152905090565b60d960020a6420a226a4a7026118408133612320565b611882576040805160e560020a62461bcd0281526020600482015260126024820152600080516020612df6833981519152604482015290519081900360640190fd5b61188f8686868686612a89565b60005b865181101561190f576119078782815181106118aa57fe5b60200260200101518783815181106118be57fe5b60200260200101518784815181106118d257fe5b60200260200101518785815181106118e657fe5b60200260200101518786815181106118fa57fe5b602002602001015161246f565b600101611892565b50505050505050565b600254600160a060020a031681565b60d960020a6420a226a4a70261193d8133612320565b61197f576040805160e560020a62461bcd0281526020600482015260126024820152600080516020612df6833981519152604482015290519081900360640190fd5b61198c8787868887612a89565b83518251146119e5576040805160e560020a62461bcd02815260206004820152601b60248201527f496e707574206c656e677468206172726179206d69736d617463680000000000604482015290519081900360640190fd5b60005b8751811015611a7957611a71888281518110611a0057fe5b6020026020010151888381518110611a1457fe5b6020026020010151888481518110611a2857fe5b6020026020010151888581518110611a3c57fe5b6020026020010151888681518110611a5057fe5b6020026020010151888781518110611a6457fe5b6020026020010151612b10565b6001016119e8565b5050505050505050565b60d960020a6420a226a4a702611a998133612320565b611adb576040805160e560020a62461bcd0281526020600482015260126024820152600080516020612df6833981519152604482015290519081900360640190fd5b61190f878787878787612b10565b6001546060908190819081908190600090815b81811015611bb05788600160a060020a031660018281548110611b1b57fe5b6000918252602090912060059091020154600160a060020a03161480611b72575088600160a060020a031660018281548110611b5357fe5b6000918252602090912060016005909202010154600160a060020a0316145b8015611b9c57504260018281548110611b8757fe5b90600052602060002090600502016003015410155b15611ba8576001909201915b600101611afc565b50606082604051908082528060200260200182016040528015611bdd578160200160208202803883390190505b509050606083604051908082528060200260200182016040528015611c0c578160200160208202803883390190505b509050606084604051908082528060200260200182016040528015611c3b578160200160208202803883390190505b509050606085604051908082528060200260200182016040528015611c6a578160200160208202803883390190505b509050606086604051908082528060200260200182016040528015611c99578160200160208202803883390190505b50600097509050865b86811015611eb0578d600160a060020a031660018281548110611cc157fe5b6000918252602090912060059091020154600160a060020a03161480611d1857508d600160a060020a031660018281548110611cf957fe5b6000918252602090912060016005909202010154600160a060020a0316145b8015611d4257504260018281548110611d2d57fe5b90600052602060002090600502016003015410155b15611ea85760018181548110611d5457fe5b60009182526020909120600590910201548651600160a060020a039091169087908a908110611d7f57fe5b6020026020010190600160a060020a03169081600160a060020a03168152505060018181548110611dac57fe5b906000526020600020906005020160010160009054906101000a9004600160a060020a0316858981518110611ddd57fe5b6020026020010190600160a060020a03169081600160a060020a03168152505060018181548110611e0a57fe5b906000526020600020906005020160020154848981518110611e2857fe5b60200260200101818152505060018181548110611e4157fe5b906000526020600020906005020160030154838981518110611e5f57fe5b60200260200101818152505060018181548110611e7857fe5b906000526020600020906005020160040154828981518110611e9657fe5b60209081029190910101526001909701965b600101611ca2565b50939c929b5090995097509095509350505050565b60d960020a6420a226a4a702611edb8133612320565b611f1d576040805160e560020a62461bcd0281526020600482015260126024820152600080516020612df6833981519152604482015290519081900360640190fd5b838214611f74576040805160e560020a62461bcd02815260206004820152601b60248201527f496e707574206172726179206c656e677468206d69736d617463680000000000604482015290519081900360640190fd5b60005b848110156113ee57611fbf868683818110611f8e57fe5b90506020020135600160a060020a0316858584818110611faa57fe5b90506020020135600160a060020a03166127b5565b600101611f77565b60015490565b600080611fdb868686612153565b9150915094509492505050565b600354604080517f660d0d670000000000000000000000000000000000000000000000000000000081529051600092600160a060020a03169163660d0d67916004808301926020929190829003018186803b15801561204657600080fd5b505afa15801561205a573d6000803e3d6000fd5b505050506040513d602081101561207057600080fd5b5051905090565b600360009054906101000a9004600160a060020a0316600160a060020a0316638da5cb5b6040518163ffffffff1660e060020a02815260040160206040518083038186803b1580156120c857600080fd5b505afa1580156120dc573d6000803e3d6000fd5b505050506040513d60208110156120f257600080fd5b5051600160a060020a0316331461110a576040805160e560020a62461bcd02815260206004820152601360248201527f53656e646572206973206e6f74206f776e657200000000000000000000000000604482015290519081900360640190fd5b600160a060020a0383811660009081526020818152604080832093861683529290529081205460045482919060a060020a900460ff1615801561219557508015155b1561224557600019016121a6612d4c565b600182815481106121b357fe5b60009182526020918290206040805160a08101825260059093029091018054600160a060020a03908116845260018201541693830193909352600283015490820152600382015460608201819052600490920154608082015291504211801590612221575084816040015110155b15612243575060029250506c010000000000000000000000003002905061224f565b505b5060019150600090505b935093915050565b60008282111561226657600080fd5b50900390565b60045460a060020a900460ff166122cd576040805160e560020a62461bcd02815260206004820152601660248201527f436f6e7472616374206973206e6f742070617573656400000000000000000000604482015290519081900360640190fd5b6004805474ff0000000000000000000000000000000000000000191690556040805133815290517faeb196d352664784d1900b0e7414a8face7d29f4dae8c4b0cf68ed477423bbf49181900360200190a1565b600080600360009054906101000a9004600160a060020a0316600160a060020a0316638da5cb5b6040518163ffffffff1660e060020a02815260040160206040518083038186803b15801561237457600080fd5b505afa158015612388573d6000803e3d6000fd5b505050506040513d602081101561239e57600080fd5b5051600254600160a060020a0385811692811683149350161481806123c05750805b806124665750600354604080517f8658b8b9000000000000000000000000000000000000000000000000000000008152600160a060020a0387811660048301523060248301526044820189905291519190921691638658b8b9916064808301926020929190829003018186803b15801561243957600080fd5b505afa15801561244d573d6000803e3d6000fd5b505050506040513d602081101561246357600080fd5b50515b95945050505050565b4282116124c6576040805160e560020a62461bcd02815260206004820152601360248201527f496e76616c6964206578706972792074696d6500000000000000000000000000604482015290519081900360640190fd5b6000831161251e576040805160e560020a62461bcd02815260206004820152601160248201527f496e76616c696420616c6c6f77616e6365000000000000000000000000000000604482015290519081900360640190fd5b600160a060020a03808616600090815260208181526040808320938816835292905220541561261f57600160a060020a038086166000908152602081815260408083209388168352929052205460018054600019909201914291908390811061258357fe5b90600052602060002090600502016003015410806125bf5750600181815481106125a957fe5b9060005260206000209060050201600201546000145b612613576040805160e560020a62461bcd02815260206004820152601760248201527f417070726f76616c20616c726561647920657869737473000000000000000000604482015290519081900360640190fd5b61261d86866127b5565b505b6040805160a081018252600160a060020a0380881680835287821660208085018281528587018a815260608088018b8152608089018b815260018054808201825560008281529b5160059091027fb10e2d527612073b26eecdfd717e6a320cf44b4afac2b0732d9fcbe2b7fa0cf681018054928d1673ffffffffffffffffffffffffffffffffffffffff1993841617905596517fb10e2d527612073b26eecdfd717e6a320cf44b4afac2b0732d9fcbe2b7fa0cf78801805491909c1691161790995592517fb10e2d527612073b26eecdfd717e6a320cf44b4afac2b0732d9fcbe2b7fa0cf8850155517fb10e2d527612073b26eecdfd717e6a320cf44b4afac2b0732d9fcbe2b7fa0cf984015590517fb10e2d527612073b26eecdfd717e6a320cf44b4afac2b0732d9fcbe2b7fa0cfa909201919091559354838652858252868620838752825294869020949094558451888152938401879052838501869052935133949391927f694086b7577eae5577f90c1aa90ff38280eacd0709a8c7be707a219e92a150c9928290030190a45050505050565b600160a060020a03808316600090815260208181526040808320938516835292905220548061282e576040805160e560020a62461bcd02815260206004820152601260248201527f417070726f76616c206e6f742065786973740000000000000000000000000000604482015290519081900360640190fd5b6001546000199182019101808214612953576001818154811061284d57fe5b90600052602060002090600502016001838154811061286857fe5b6000918252602082208354600590920201805473ffffffffffffffffffffffffffffffffffffffff19908116600160a060020a039384161782556001808601548184018054909316941693909317905560028085015490820155600380850154908201556004938401549301929092558154848301928291869081106128ea57fe5b60009182526020808320600590920290910154600160a060020a031683528201929092526040018120600180549192918690811061292457fe5b6000918252602080832060016005909302019190910154600160a060020a031683528201929092526040019020555b600160a060020a03808516600090815260208181526040808320938716835292905290812055600180549061298c906000198301612d7a565b506040513390600160a060020a0385811691908716907fbe7baba984867cb2bb52a4035357b30f05c7e480fc9daf78a7b718ae6ee4a4fe90600090a450505050565b60045460a060020a900460ff1615612a30576040805160e560020a62461bcd02815260206004820152601260248201527f436f6e7472616374206973207061757365640000000000000000000000000000604482015290519081900360640190fd5b6004805474ff0000000000000000000000000000000000000000191660a060020a1790556040805133815290517f5ee71a369c8672edded508e624ffc9257fa1ae6886ef32905c18e60196bca3999181900360200190a1565b83518551148015612a9b575081518451145b8015612aa8575082518251145b8015612ab5575080518351145b612b09576040805160e560020a62461bcd02815260206004820152601b60248201527f496e707574206172726179206c656e677468206d69736d617463680000000000604482015290519081900360640190fd5b5050505050565b428411612b67576040805160e560020a62461bcd02815260206004820152601360248201527f496e76616c6964206578706972792074696d6500000000000000000000000000604482015290519081900360640190fd5b600160a060020a038087166000908152602081815260408083209389168352929052205480612be0576040805160e560020a62461bcd02815260206004820152601460248201527f417070726f76616c206e6f742070726573656e74000000000000000000000000604482015290519081900360640190fd5b808060019003915050600060018281548110612bf857fe5b6000918252602090912060059091020160028101546003820154919250908115801590612c2457504281115b612c78576040805160e560020a62461bcd02815260206004820152600b60248201527f4e6f7420616c6c6f776564000000000000000000000000000000000000000000604482015290519081900360640190fd5b8615612cb9578415612c9b57612c94828863ffffffff612d3a16565b9150612cb1565b818710612cab5760009150612cb1565b86820391505b600283018290555b878114612cc857600383018890555b85836004015414612cdb57600483018690555b604080518981526020810184905280820188905290513391600160a060020a038c811692908e16917f0f3f478ce6278e66ad974b3190c8cb89c93292c1620c40408fee8b64c09ac52e919081900360600190a450505050505050505050565b600082820183811015610ff057600080fd5b6040805160a08101825260008082526020820181905291810182905260608101829052608081019190915290565b8154818355818111156114ff576000838152602090206114ff91610f269160059182028101918502015b80821115612df157805473ffffffffffffffffffffffffffffffffffffffff1990811682556001820180549091169055600060028201819055600382018190556004820155600501612da4565b509056fe496e76616c6964207065726d697373696f6e0000000000000000000000000000a165627a7a72305820c55c6a4f7892820d62ae121bb0d39bad6ce5719a88be4bae2d934c8012be46b30029",
  "source": "pragma solidity 0.5.8;\n\nimport \"../TransferManager.sol\";\nimport \"openzeppelin-solidity/contracts/math/SafeMath.sol\";\nimport \"./ManualApprovalTransferManagerStorage.sol\";\n\n/**\n * @title Transfer Manager module for manually approving transactions between accounts\n */\ncontract ManualApprovalTransferManager is ManualApprovalTransferManagerStorage, TransferManager {\n    using SafeMath for uint256;\n\n    event AddManualApproval(\n        address indexed _from,\n        address indexed _to,\n        uint256 _allowance,\n        uint256 _expiryTime,\n        bytes32 _description,\n        address indexed _addedBy\n    );\n\n    event ModifyManualApproval(\n        address indexed _from,\n        address indexed _to,\n        uint256 _expiryTime,\n        uint256 _allowance,\n        bytes32 _description,\n        address indexed _edittedBy\n    );\n\n    event RevokeManualApproval(\n        address indexed _from,\n        address indexed _to,\n        address indexed _addedBy\n    );\n\n    /**\n     * @notice Constructor\n     * @param _securityToken Address of the security token\n     */\n    constructor(address _securityToken, address _polyToken) public Module(_securityToken, _polyToken) {\n\n    }\n\n    /**\n     * @notice This function returns the signature of configure function\n     */\n    function getInitFunction() public pure returns(bytes4) {\n        return bytes4(0);\n    }\n\n    /**\n     * @notice Used to verify the transfer transaction and allow a manually approved transqaction to bypass other restrictions\n     * @param _from Address of the sender\n     * @param _to Address of the receiver\n     * @param _amount The amount of tokens to transfer\n     */\n    function executeTransfer(\n        address _from,\n        address _to,\n        uint256 _amount,\n        bytes calldata /* _data */\n    )\n        external\n        onlySecurityToken\n        returns(Result)\n    {\n\n        (Result success, bytes32 esc) = _verifyTransfer(_from, _to, _amount);\n        if (esc != bytes32(0)) {\n            uint256 index = approvalIndex[_from][_to] - 1;\n            ManualApproval storage approval = approvals[index];\n            approval.allowance = approval.allowance.sub(_amount);\n        }\n        return (success);\n    }\n\n\n    /**\n     * @notice Used to verify the transfer transaction and allow a manually approved transqaction to bypass other restrictions\n     * @param _from Address of the sender\n     * @param _to Address of the receiver\n     * @param _amount The amount of tokens to transfer\n     */\n    function verifyTransfer(\n        address _from,\n        address _to,\n        uint256 _amount,\n        bytes memory /* _data */\n    )\n        public\n        view\n        returns(Result, bytes32)\n    {\n        return _verifyTransfer(_from, _to, _amount);\n    }\n\n    function _verifyTransfer(\n        address _from,\n        address _to,\n        uint256 _amount\n    )\n        internal\n        view\n        returns(Result, bytes32)\n    {\n        uint256 index = approvalIndex[_from][_to];\n        if (!paused && index != 0) {\n            index--; //Actual index is storedIndex - 1\n            ManualApproval memory approval = approvals[index];\n            if ((approval.expiryTime >= now) && (approval.allowance >= _amount)) {\n                return (Result.VALID, bytes32(uint256(address(this)) << 96));\n            }\n        }\n        return (Result.NA, bytes32(0));\n    }\n\n\n    /**\n    * @notice Adds a pair of addresses to manual approvals\n    * @param _from is the address from which transfers are approved\n    * @param _to is the address to which transfers are approved\n    * @param _allowance is the approved amount of tokens\n    * @param _expiryTime is the time until which the transfer is allowed\n    * @param _description Description about the manual approval\n    */\n    function addManualApproval(\n        address _from,\n        address _to,\n        uint256 _allowance,\n        uint256 _expiryTime,\n        bytes32 _description\n    )\n        external\n        withPerm(ADMIN)\n    {\n        _addManualApproval(_from, _to, _allowance, _expiryTime, _description);\n    }\n\n    function _addManualApproval(address _from, address _to, uint256 _allowance, uint256 _expiryTime, bytes32 _description) internal {\n        require(_expiryTime > now, \"Invalid expiry time\");\n        require(_allowance > 0, \"Invalid allowance\");\n        if (approvalIndex[_from][_to] != 0) {\n            uint256 index = approvalIndex[_from][_to] - 1;\n            require(approvals[index].expiryTime < now || approvals[index].allowance == 0, \"Approval already exists\");\n            _revokeManualApproval(_from, _to);\n        }\n        approvals.push(ManualApproval(_from, _to, _allowance, _expiryTime, _description));\n        approvalIndex[_from][_to] = approvals.length;\n        emit AddManualApproval(_from, _to, _allowance, _expiryTime, _description, msg.sender);\n    }\n\n    /**\n    * @notice Adds mutiple manual approvals in batch\n    * @param _from is the address array from which transfers are approved\n    * @param _to is the address array to which transfers are approved\n    * @param _allowances is the array of approved amounts\n    * @param _expiryTimes is the array of the times until which eath transfer is allowed\n    * @param _descriptions is the description array for these manual approvals\n    */\n    function addManualApprovalMulti(\n        address[] memory _from,\n        address[] memory _to,\n        uint256[] memory _allowances,\n        uint256[] memory _expiryTimes,\n        bytes32[] memory _descriptions\n    )\n        public\n        withPerm(ADMIN)\n    {\n        _checkInputLengthArray(_from, _to, _allowances, _expiryTimes, _descriptions);\n        for (uint256 i = 0; i < _from.length; i++){\n            _addManualApproval(_from[i], _to[i], _allowances[i], _expiryTimes[i], _descriptions[i]);\n        }\n    }\n\n    /**\n    * @notice Modify the existing manual approvals\n    * @param _from is the address from which transfers are approved\n    * @param _to is the address to which transfers are approved\n    * @param _expiryTime is the time until which the transfer is allowed\n    * @param _changeInAllowance is the change in allowance\n    * @param _description Description about the manual approval\n    * @param _increase tells whether the allowances will be increased (true) or decreased (false).\n    * or any value when there is no change in allowances\n    */\n    function modifyManualApproval(\n        address _from,\n        address _to,\n        uint256 _expiryTime,\n        uint256 _changeInAllowance,\n        bytes32 _description,\n        bool _increase\n    )\n        external\n        withPerm(ADMIN)\n    {\n        _modifyManualApproval(_from, _to, _expiryTime, _changeInAllowance, _description, _increase);\n    }\n\n    function _modifyManualApproval(\n        address _from,\n        address _to,\n        uint256 _expiryTime,\n        uint256 _changeInAllowance,\n        bytes32 _description,\n        bool _increase\n    )\n        internal\n    {\n        /*solium-disable-next-line security/no-block-members*/\n        require(_expiryTime > now, \"Invalid expiry time\");\n        uint256 index = approvalIndex[_from][_to];\n        require(index != 0, \"Approval not present\");\n        index--; //Index is stored in an incremented form. 0 represnts non existant.\n        ManualApproval storage approval = approvals[index];\n        uint256 allowance = approval.allowance;\n        uint256 expiryTime = approval.expiryTime;\n        require(allowance != 0 && expiryTime > now, \"Not allowed\");\n\n        if (_changeInAllowance > 0) {\n            if (_increase) {\n                // Allowance get increased\n                allowance = allowance.add(_changeInAllowance);\n            } else {\n                // Allowance get decreased\n                if (_changeInAllowance >= allowance) {\n                    allowance = 0;\n                } else {\n                    allowance = allowance - _changeInAllowance;\n                }\n            }\n            approval.allowance = allowance;\n        }\n        // Greedy storage technique\n        if (expiryTime != _expiryTime) {\n            approval.expiryTime = _expiryTime;\n        }\n        if (approval.description != _description) {\n            approval.description = _description;\n        }\n        emit ModifyManualApproval(_from, _to, _expiryTime, allowance, _description, msg.sender);\n    }\n\n    /**\n     * @notice Adds mutiple manual approvals in batch\n     * @param _from is the address array from which transfers are approved\n     * @param _to is the address array to which transfers are approved\n     * @param _expiryTimes is the array of the times until which eath transfer is allowed\n     * @param _changeInAllowance is the array of change in allowances\n     * @param _descriptions is the description array for these manual approvals\n     * @param _increase Array of bools that tells whether the allowances will be increased (true) or decreased (false).\n     * or any value when there is no change in allowances\n     */\n    function modifyManualApprovalMulti(\n        address[] memory _from,\n        address[] memory _to,\n        uint256[] memory _expiryTimes,\n        uint256[] memory _changeInAllowance,\n        bytes32[] memory _descriptions,\n        bool[] memory _increase\n    )\n        public\n        withPerm(ADMIN)\n    {\n        _checkInputLengthArray(_from, _to, _changeInAllowance, _expiryTimes, _descriptions);\n        require(_increase.length == _changeInAllowance.length, \"Input length array mismatch\");\n        for (uint256 i = 0; i < _from.length; i++) {\n            _modifyManualApproval(_from[i], _to[i], _expiryTimes[i], _changeInAllowance[i], _descriptions[i], _increase[i]);\n        }\n    }\n\n    /**\n    * @notice Removes a pairs of addresses from manual approvals\n    * @param _from is the address from which transfers are approved\n    * @param _to is the address to which transfers are approved\n    */\n    function revokeManualApproval(address _from, address _to) external withPerm(ADMIN) {\n        _revokeManualApproval(_from, _to);\n    }\n\n    function _revokeManualApproval(address _from, address _to) internal {\n        uint256 index = approvalIndex[_from][_to];\n        require(index != 0, \"Approval not exist\");\n\n        // find the record in active approvals array & delete it\n        index--; //Index is stored after incrementation so that 0 represents non existant index\n        uint256 lastApprovalIndex = approvals.length - 1;\n        if (index != lastApprovalIndex) {\n            approvals[index] = approvals[lastApprovalIndex];\n            approvalIndex[approvals[index].from][approvals[index].to] = index + 1;\n        }\n        delete approvalIndex[_from][_to];\n        approvals.length--;\n        emit RevokeManualApproval(_from, _to, msg.sender);\n    }\n\n    /**\n    * @notice Removes mutiple pairs of addresses from manual approvals\n    * @param _from is the address array from which transfers are approved\n    * @param _to is the address array to which transfers are approved\n    */\n    function revokeManualApprovalMulti(address[] calldata _from, address[] calldata _to) external withPerm(ADMIN) {\n        require(_from.length == _to.length, \"Input array length mismatch\");\n        for(uint256 i = 0; i < _from.length; i++){\n            _revokeManualApproval(_from[i], _to[i]);\n        }\n    }\n\n    function _checkInputLengthArray(\n        address[] memory _from,\n        address[] memory _to,\n        uint256[] memory _expiryTimes,\n        uint256[] memory _allowances,\n        bytes32[] memory _descriptions\n    )\n        internal\n        pure\n    {\n        require(_from.length == _to.length &&\n        _to.length == _allowances.length &&\n        _allowances.length == _expiryTimes.length &&\n        _expiryTimes.length == _descriptions.length,\n        \"Input array length mismatch\"\n        );\n    }\n\n    /**\n     * @notice Returns the all active approvals corresponds to an address\n     * @param _user Address of the holder corresponds to whom list of manual approvals\n     * need to return\n     * @return address[] addresses from\n     * @return address[] addresses to\n     * @return uint256[] allowances provided to the approvals\n     * @return uint256[] expiry times provided to the approvals\n     * @return bytes32[] descriptions provided to the approvals\n     */\n    function getActiveApprovalsToUser(address _user) external view returns(address[] memory, address[] memory, uint256[] memory, uint256[] memory, bytes32[] memory) {\n        uint256 counter = 0;\n        uint256 approvalsLength = approvals.length;\n        for (uint256 i = 0; i < approvalsLength; i++) {\n            if ((approvals[i].from == _user || approvals[i].to == _user)\n                && approvals[i].expiryTime >= now)\n                counter ++;\n        }\n\n        address[] memory from = new address[](counter);\n        address[] memory to = new address[](counter);\n        uint256[] memory allowance = new uint256[](counter);\n        uint256[] memory expiryTime = new uint256[](counter);\n        bytes32[] memory description = new bytes32[](counter);\n\n        counter = 0;\n        for (uint256 i = 0; i < approvalsLength; i++) {\n            if ((approvals[i].from == _user || approvals[i].to == _user)\n                && approvals[i].expiryTime >= now) {\n\n                from[counter]=approvals[i].from;\n                to[counter]=approvals[i].to;\n                allowance[counter]=approvals[i].allowance;\n                expiryTime[counter]=approvals[i].expiryTime;\n                description[counter]=approvals[i].description;\n                counter ++;\n            }\n        }\n        return (from, to, allowance, expiryTime, description);\n    }\n\n    /**\n     * @notice Get the details of the approval corresponds to _from & _to addresses\n     * @param _from Address of the sender\n     * @param _to Address of the receiver\n     * @return uint256 expiryTime of the approval\n     * @return uint256 allowance provided to the approval\n     * @return uint256 Description provided to the approval\n     */\n    function getApprovalDetails(address _from, address _to) external view returns(uint256, uint256, bytes32) {\n        uint256 index = approvalIndex[_from][_to];\n        if (index != 0) {\n            index--;\n            if (index < approvals.length) {\n                ManualApproval storage approval = approvals[index];\n                return(\n                    approval.expiryTime,\n                    approval.allowance,\n                    approval.description\n                );\n            }\n        }\n        return (uint256(0), uint256(0), bytes32(0));\n    }\n\n    /**\n    * @notice Returns the current number of active approvals\n    */\n    function getTotalApprovalsLength() external view returns(uint256) {\n        return approvals.length;\n    }\n\n    /**\n     * @notice Get the details of all approvals\n     * @return address[] addresses from\n     * @return address[] addresses to\n     * @return uint256[] allowances provided to the approvals\n     * @return uint256[] expiry times provided to the approvals\n     * @return bytes32[] descriptions provided to the approvals\n     */\n    function getAllApprovals() external view returns(address[] memory, address[] memory, uint256[] memory, uint256[] memory, bytes32[] memory) {\n        uint256 approvalsLength = approvals.length;\n        address[] memory from = new address[](approvalsLength);\n        address[] memory to = new address[](approvalsLength);\n        uint256[] memory allowance = new uint256[](approvalsLength);\n        uint256[] memory expiryTime = new uint256[](approvalsLength);\n        bytes32[] memory description = new bytes32[](approvalsLength);\n\n        for (uint256 i = 0; i < approvalsLength; i++) {\n\n            from[i]=approvals[i].from;\n            to[i]=approvals[i].to;\n            allowance[i]=approvals[i].allowance;\n            expiryTime[i]=approvals[i].expiryTime;\n            description[i]=approvals[i].description;\n\n        }\n\n        return (from, to, allowance, expiryTime, description);\n\n    }\n\n    /**\n     * @notice Returns the permissions flag that are associated with ManualApproval transfer manager\n     */\n    function getPermissions() public view returns(bytes32[] memory) {\n        bytes32[] memory allPermissions = new bytes32[](1);\n        allPermissions[0] = ADMIN;\n        return allPermissions;\n    }\n}\n",
  "sourcePath": "/Users/federicoelgarte/Polymath/polymath-core/contracts/modules/TransferManager/MATM/ManualApprovalTransferManager.sol",
  "compiler": {
    "name": "solc",
    "version": "0.5.8+commit.23d335f2.Emscripten.clang"
  },
  "schemaVersion": "3.0.2",
  "updatedAt": "2019-06-21T16:15:52.714Z",
  "devdoc": {
    "methods": {
      "addManualApproval(address,address,uint256,uint256,bytes32)": {
        "params": {
          "_allowance": "is the approved amount of tokens",
          "_description": "Description about the manual approval",
          "_expiryTime": "is the time until which the transfer is allowed",
          "_from": "is the address from which transfers are approved",
          "_to": "is the address to which transfers are approved"
        }
      },
      "addManualApprovalMulti(address[],address[],uint256[],uint256[],bytes32[])": {
        "params": {
          "_allowances": "is the array of approved amounts",
          "_descriptions": "is the description array for these manual approvals",
          "_expiryTimes": "is the array of the times until which eath transfer is allowed",
          "_from": "is the address array from which transfers are approved",
          "_to": "is the address array to which transfers are approved"
        }
      },
      "constructor": {
        "params": {
          "_securityToken": "Address of the security token"
        }
      },
      "executeTransfer(address,address,uint256,bytes)": {
        "params": {
          "_amount": "The amount of tokens to transfer",
          "_from": "Address of the sender",
          "_to": "Address of the receiver"
        }
      },
      "getActiveApprovalsToUser(address)": {
        "params": {
          "_user": "Address of the holder corresponds to whom list of manual approvals need to return"
        },
        "return": "address[] addresses fromaddress[] addresses touint256[] allowances provided to the approvalsuint256[] expiry times provided to the approvalsbytes32[] descriptions provided to the approvals"
      },
      "getAllApprovals()": {
        "return": "address[] addresses fromaddress[] addresses touint256[] allowances provided to the approvalsuint256[] expiry times provided to the approvalsbytes32[] descriptions provided to the approvals"
      },
      "getApprovalDetails(address,address)": {
        "params": {
          "_from": "Address of the sender",
          "_to": "Address of the receiver"
        },
        "return": "uint256 expiryTime of the approvaluint256 allowance provided to the approvaluint256 Description provided to the approval"
      },
      "getTokensByPartition(bytes32,address,uint256)": {
        "details": "returning the balance of token holder against the UNLOCKED partition.  This condition is valid only when the base contract doesn't implement the `getTokensByPartition()` function.  "
      },
      "modifyManualApproval(address,address,uint256,uint256,bytes32,bool)": {
        "params": {
          "_changeInAllowance": "is the change in allowance",
          "_description": "Description about the manual approval",
          "_expiryTime": "is the time until which the transfer is allowed",
          "_from": "is the address from which transfers are approved",
          "_increase": "tells whether the allowances will be increased (true) or decreased (false). or any value when there is no change in allowances",
          "_to": "is the address to which transfers are approved"
        }
      },
      "modifyManualApprovalMulti(address[],address[],uint256[],uint256[],bytes32[],bool[])": {
        "params": {
          "_changeInAllowance": "is the array of change in allowances",
          "_descriptions": "is the description array for these manual approvals",
          "_expiryTimes": "is the array of the times until which eath transfer is allowed",
          "_from": "is the address array from which transfers are approved",
          "_increase": "Array of bools that tells whether the allowances will be increased (true) or decreased (false). or any value when there is no change in allowances",
          "_to": "is the address array to which transfers are approved"
        }
      },
      "reclaimERC20(address)": {
        "details": "We duplicate here due to the overriden owner & onlyOwner",
        "params": {
          "_tokenContract": "The address of the token contract"
        }
      },
      "reclaimETH()": {
        "details": "We duplicate here due to the overriden owner & onlyOwner"
      },
      "revokeManualApproval(address,address)": {
        "params": {
          "_from": "is the address from which transfers are approved",
          "_to": "is the address to which transfers are approved"
        }
      },
      "revokeManualApprovalMulti(address[],address[])": {
        "params": {
          "_from": "is the address array from which transfers are approved",
          "_to": "is the address array to which transfers are approved"
        }
      },
      "verifyTransfer(address,address,uint256,bytes)": {
        "params": {
          "_amount": "The amount of tokens to transfer",
          "_from": "Address of the sender",
          "_to": "Address of the receiver"
        }
      }
    },
    "title": "Transfer Manager module for manually approving transactions between accounts"
  },
  "userdoc": {
    "methods": {
      "addManualApproval(address,address,uint256,uint256,bytes32)": {
        "notice": "Adds a pair of addresses to manual approvals"
      },
      "addManualApprovalMulti(address[],address[],uint256[],uint256[],bytes32[])": {
        "notice": "Adds mutiple manual approvals in batch"
      },
      "constructor": "Constructor",
      "executeTransfer(address,address,uint256,bytes)": {
        "notice": "Used to verify the transfer transaction and allow a manually approved transqaction to bypass other restrictions"
      },
      "getActiveApprovalsToUser(address)": {
        "notice": "Returns the all active approvals corresponds to an address"
      },
      "getAllApprovals()": {
        "notice": "Get the details of all approvals"
      },
      "getApprovalDetails(address,address)": {
        "notice": "Get the details of the approval corresponds to _from & _to addresses"
      },
      "getDataStore()": {
        "notice": "used to return the data store address of securityToken"
      },
      "getInitFunction()": {
        "notice": "This function returns the signature of configure function"
      },
      "getPermissions()": {
        "notice": "Returns the permissions flag that are associated with ManualApproval transfer manager"
      },
      "getTokensByPartition(bytes32,address,uint256)": {
        "notice": "return the amount of tokens for a given user as per the partition"
      },
      "getTotalApprovalsLength()": {
        "notice": "Returns the current number of active approvals"
      },
      "modifyManualApproval(address,address,uint256,uint256,bytes32,bool)": {
        "notice": "Modify the existing manual approvals"
      },
      "modifyManualApprovalMulti(address[],address[],uint256[],uint256[],bytes32[],bool[])": {
        "notice": "Adds mutiple manual approvals in batch"
      },
      "pause()": {
        "notice": "Pause (overridden function)"
      },
      "reclaimERC20(address)": {
        "notice": "Reclaims ERC20Basic compatible tokens"
      },
      "reclaimETH()": {
        "notice": "Reclaims ETH"
      },
      "revokeManualApproval(address,address)": {
        "notice": "Removes a pairs of addresses from manual approvals"
      },
      "revokeManualApprovalMulti(address[],address[])": {
        "notice": "Removes mutiple pairs of addresses from manual approvals"
      },
      "unpause()": {
        "notice": "Unpause (overridden function)"
      },
      "verifyTransfer(address,address,uint256,bytes)": {
        "notice": "Used to verify the transfer transaction and allow a manually approved transqaction to bypass other restrictions"
      }
    }
  }
}