{
  "contractName": "ManualApprovalTransferManager",
  "abi": [
    {
      "constant": false,
      "inputs": [],
      "name": "reclaimETH",
      "outputs": [],
      "payable": false,
      "stateMutability": "nonpayable",
      "type": "function"
    },
    {
      "constant": true,
      "inputs": [
        {
          "name": "_partition",
          "type": "bytes32"
        },
        {
          "name": "_tokenHolder",
          "type": "address"
        },
        {
          "name": "",
          "type": "uint256"
        }
      ],
      "name": "getTokensByPartition",
      "outputs": [
        {
          "name": "",
          "type": "uint256"
        }
      ],
      "payable": false,
      "stateMutability": "view",
      "type": "function"
    },
    {
      "constant": true,
      "inputs": [],
      "name": "ADMIN",
      "outputs": [
        {
          "name": "",
          "type": "bytes32"
        }
      ],
      "payable": false,
      "stateMutability": "view",
      "type": "function"
    },
    {
      "constant": false,
      "inputs": [],
      "name": "unpause",
      "outputs": [],
      "payable": false,
      "stateMutability": "nonpayable",
      "type": "function"
    },
    {
      "constant": true,
      "inputs": [],
      "name": "paused",
      "outputs": [
        {
          "name": "",
          "type": "bool"
        }
      ],
      "payable": false,
      "stateMutability": "view",
      "type": "function"
    },
    {
      "constant": true,
      "inputs": [
        {
          "name": "",
          "type": "address"
        },
        {
          "name": "",
          "type": "address"
        }
      ],
      "name": "approvalIndex",
      "outputs": [
        {
          "name": "",
          "type": "uint256"
        }
      ],
      "payable": false,
      "stateMutability": "view",
      "type": "function"
    },
    {
      "constant": true,
      "inputs": [
        {
          "name": "",
          "type": "uint256"
        }
      ],
      "name": "approvals",
      "outputs": [
        {
          "name": "from",
          "type": "address"
        },
        {
          "name": "to",
          "type": "address"
        },
        {
          "name": "allowance",
          "type": "uint256"
        },
        {
          "name": "expiryTime",
          "type": "uint256"
        },
        {
          "name": "description",
          "type": "bytes32"
        }
      ],
      "payable": false,
      "stateMutability": "view",
      "type": "function"
    },
    {
      "constant": true,
      "inputs": [],
      "name": "UNLOCKED",
      "outputs": [
        {
          "name": "",
          "type": "bytes32"
        }
      ],
      "payable": false,
      "stateMutability": "view",
      "type": "function"
    },
    {
      "constant": true,
      "inputs": [],
      "name": "polyToken",
      "outputs": [
        {
          "name": "",
          "type": "address"
        }
      ],
      "payable": false,
      "stateMutability": "view",
      "type": "function"
    },
    {
      "constant": false,
      "inputs": [],
      "name": "pause",
      "outputs": [],
      "payable": false,
      "stateMutability": "nonpayable",
      "type": "function"
    },
    {
      "constant": false,
      "inputs": [
        {
          "name": "_tokenContract",
          "type": "address"
        }
      ],
      "name": "reclaimERC20",
      "outputs": [],
      "payable": false,
      "stateMutability": "nonpayable",
      "type": "function"
    },
    {
      "constant": true,
      "inputs": [],
      "name": "OPERATOR",
      "outputs": [
        {
          "name": "",
          "type": "bytes32"
        }
      ],
      "payable": false,
      "stateMutability": "view",
      "type": "function"
    },
    {
      "constant": true,
      "inputs": [],
      "name": "LOCKED",
      "outputs": [
        {
          "name": "",
          "type": "bytes32"
        }
      ],
      "payable": false,
      "stateMutability": "view",
      "type": "function"
    },
    {
      "constant": true,
      "inputs": [],
      "name": "securityToken",
      "outputs": [
        {
          "name": "",
          "type": "address"
        }
      ],
      "payable": false,
      "stateMutability": "view",
      "type": "function"
    },
    {
      "constant": true,
      "inputs": [],
      "name": "factory",
      "outputs": [
        {
          "name": "",
          "type": "address"
        }
      ],
      "payable": false,
      "stateMutability": "view",
      "type": "function"
    },
    {
      "constant": true,
      "inputs": [],
      "name": "getDataStore",
      "outputs": [
        {
          "name": "",
          "type": "address"
        }
      ],
      "payable": false,
      "stateMutability": "view",
      "type": "function"
    },
    {
      "inputs": [
        {
          "name": "_securityToken",
          "type": "address"
        },
        {
          "name": "_polyToken",
          "type": "address"
        }
      ],
      "payable": false,
      "stateMutability": "nonpayable",
      "type": "constructor"
    },
    {
      "anonymous": false,
      "inputs": [
        {
          "indexed": true,
          "name": "_from",
          "type": "address"
        },
        {
          "indexed": true,
          "name": "_to",
          "type": "address"
        },
        {
          "indexed": false,
          "name": "_allowance",
          "type": "uint256"
        },
        {
          "indexed": false,
          "name": "_expiryTime",
          "type": "uint256"
        },
        {
          "indexed": false,
          "name": "_description",
          "type": "bytes32"
        },
        {
          "indexed": true,
          "name": "_addedBy",
          "type": "address"
        }
      ],
      "name": "AddManualApproval",
      "type": "event"
    },
    {
      "anonymous": false,
      "inputs": [
        {
          "indexed": true,
          "name": "_from",
          "type": "address"
        },
        {
          "indexed": true,
          "name": "_to",
          "type": "address"
        },
        {
          "indexed": false,
          "name": "_expiryTime",
          "type": "uint256"
        },
        {
          "indexed": false,
          "name": "_allowance",
          "type": "uint256"
        },
        {
          "indexed": false,
          "name": "_description",
          "type": "bytes32"
        },
        {
          "indexed": true,
          "name": "_edittedBy",
          "type": "address"
        }
      ],
      "name": "ModifyManualApproval",
      "type": "event"
    },
    {
      "anonymous": false,
      "inputs": [
        {
          "indexed": true,
          "name": "_from",
          "type": "address"
        },
        {
          "indexed": true,
          "name": "_to",
          "type": "address"
        },
        {
          "indexed": true,
          "name": "_addedBy",
          "type": "address"
        }
      ],
      "name": "RevokeManualApproval",
      "type": "event"
    },
    {
      "anonymous": false,
      "inputs": [
        {
          "indexed": false,
          "name": "account",
          "type": "address"
        }
      ],
      "name": "Pause",
      "type": "event"
    },
    {
      "anonymous": false,
      "inputs": [
        {
          "indexed": false,
          "name": "account",
          "type": "address"
        }
      ],
      "name": "Unpause",
      "type": "event"
    },
    {
      "constant": true,
      "inputs": [],
      "name": "getInitFunction",
      "outputs": [
        {
          "name": "",
          "type": "bytes4"
        }
      ],
      "payable": false,
      "stateMutability": "pure",
      "type": "function"
    },
    {
      "constant": false,
      "inputs": [
        {
          "name": "_from",
          "type": "address"
        },
        {
          "name": "_to",
          "type": "address"
        },
        {
          "name": "_amount",
          "type": "uint256"
        },
        {
          "name": "",
          "type": "bytes"
        }
      ],
      "name": "executeTransfer",
      "outputs": [
        {
          "name": "",
          "type": "uint8"
        }
      ],
      "payable": false,
      "stateMutability": "nonpayable",
      "type": "function"
    },
    {
      "constant": true,
      "inputs": [
        {
          "name": "_from",
          "type": "address"
        },
        {
          "name": "_to",
          "type": "address"
        },
        {
          "name": "_amount",
          "type": "uint256"
        },
        {
          "name": "",
          "type": "bytes"
        }
      ],
      "name": "verifyTransfer",
      "outputs": [
        {
          "name": "",
          "type": "uint8"
        },
        {
          "name": "",
          "type": "bytes32"
        }
      ],
      "payable": false,
      "stateMutability": "view",
      "type": "function"
    },
    {
      "constant": false,
      "inputs": [
        {
          "name": "_from",
          "type": "address"
        },
        {
          "name": "_to",
          "type": "address"
        },
        {
          "name": "_allowance",
          "type": "uint256"
        },
        {
          "name": "_expiryTime",
          "type": "uint256"
        },
        {
          "name": "_description",
          "type": "bytes32"
        }
      ],
      "name": "addManualApproval",
      "outputs": [],
      "payable": false,
      "stateMutability": "nonpayable",
      "type": "function"
    },
    {
      "constant": false,
      "inputs": [
        {
          "name": "_from",
          "type": "address[]"
        },
        {
          "name": "_to",
          "type": "address[]"
        },
        {
          "name": "_allowances",
          "type": "uint256[]"
        },
        {
          "name": "_expiryTimes",
          "type": "uint256[]"
        },
        {
          "name": "_descriptions",
          "type": "bytes32[]"
        }
      ],
      "name": "addManualApprovalMulti",
      "outputs": [],
      "payable": false,
      "stateMutability": "nonpayable",
      "type": "function"
    },
    {
      "constant": false,
      "inputs": [
        {
          "name": "_from",
          "type": "address"
        },
        {
          "name": "_to",
          "type": "address"
        },
        {
          "name": "_expiryTime",
          "type": "uint256"
        },
        {
          "name": "_changeInAllowance",
          "type": "uint256"
        },
        {
          "name": "_description",
          "type": "bytes32"
        },
        {
          "name": "_increase",
          "type": "bool"
        }
      ],
      "name": "modifyManualApproval",
      "outputs": [],
      "payable": false,
      "stateMutability": "nonpayable",
      "type": "function"
    },
    {
      "constant": false,
      "inputs": [
        {
          "name": "_from",
          "type": "address[]"
        },
        {
          "name": "_to",
          "type": "address[]"
        },
        {
          "name": "_expiryTimes",
          "type": "uint256[]"
        },
        {
          "name": "_changeInAllowance",
          "type": "uint256[]"
        },
        {
          "name": "_descriptions",
          "type": "bytes32[]"
        },
        {
          "name": "_increase",
          "type": "bool[]"
        }
      ],
      "name": "modifyManualApprovalMulti",
      "outputs": [],
      "payable": false,
      "stateMutability": "nonpayable",
      "type": "function"
    },
    {
      "constant": false,
      "inputs": [
        {
          "name": "_from",
          "type": "address"
        },
        {
          "name": "_to",
          "type": "address"
        }
      ],
      "name": "revokeManualApproval",
      "outputs": [],
      "payable": false,
      "stateMutability": "nonpayable",
      "type": "function"
    },
    {
      "constant": false,
      "inputs": [
        {
          "name": "_from",
          "type": "address[]"
        },
        {
          "name": "_to",
          "type": "address[]"
        }
      ],
      "name": "revokeManualApprovalMulti",
      "outputs": [],
      "payable": false,
      "stateMutability": "nonpayable",
      "type": "function"
    },
    {
      "constant": true,
      "inputs": [
        {
          "name": "_user",
          "type": "address"
        }
      ],
      "name": "getActiveApprovalsToUser",
      "outputs": [
        {
          "name": "",
          "type": "address[]"
        },
        {
          "name": "",
          "type": "address[]"
        },
        {
          "name": "",
          "type": "uint256[]"
        },
        {
          "name": "",
          "type": "uint256[]"
        },
        {
          "name": "",
          "type": "bytes32[]"
        }
      ],
      "payable": false,
      "stateMutability": "view",
      "type": "function"
    },
    {
      "constant": true,
      "inputs": [
        {
          "name": "_from",
          "type": "address"
        },
        {
          "name": "_to",
          "type": "address"
        }
      ],
      "name": "getApprovalDetails",
      "outputs": [
        {
          "name": "",
          "type": "uint256"
        },
        {
          "name": "",
          "type": "uint256"
        },
        {
          "name": "",
          "type": "bytes32"
        }
      ],
      "payable": false,
      "stateMutability": "view",
      "type": "function"
    },
    {
      "constant": true,
      "inputs": [],
      "name": "getTotalApprovalsLength",
      "outputs": [
        {
          "name": "",
          "type": "uint256"
        }
      ],
      "payable": false,
      "stateMutability": "view",
      "type": "function"
    },
    {
      "constant": true,
      "inputs": [],
      "name": "getAllApprovals",
      "outputs": [
        {
          "name": "",
          "type": "address[]"
        },
        {
          "name": "",
          "type": "address[]"
        },
        {
          "name": "",
          "type": "uint256[]"
        },
        {
          "name": "",
          "type": "uint256[]"
        },
        {
          "name": "",
          "type": "bytes32[]"
        }
      ],
      "payable": false,
      "stateMutability": "view",
      "type": "function"
    },
    {
      "constant": true,
      "inputs": [],
      "name": "getPermissions",
      "outputs": [
        {
          "name": "",
          "type": "bytes32[]"
        }
      ],
      "payable": false,
      "stateMutability": "view",
      "type": "function"
    }
  ],
  "bytecode": "0x608060405260048054600160a01b60ff021916905534801561002057600080fd5b50604051604080612d7c8339810180604052604081101561004057600080fd5b508051602090910151600380546001600160a01b039384166001600160a01b0319918216179091556002805482163317905560048054939092169216919091179055612ceb806100916000396000f3fe608060405234801561001057600080fd5b50600436106101da5760003560e01c80638905fd4f11610104578063c45a0155116100a2578063e3c6a72b11610071578063e3c6a72b14610cf4578063e7529d0d14610db2578063f1d74b0f14610dba578063fe58265e14610ea9576101da565b8063c45a015514610951578063d786e3ff14610959578063d9195a2a14610c84578063e0d9d74914610cce576101da565b8063b2b808d5116100de578063b2b808d5146105fc578063b84dfbd214610648578063c3a07df614610650578063c3a55f3a146106a8576101da565b80638905fd4f146105c6578063983d2737146105ec578063a1422f69146105f4576101da565b80635677829f1161017c5780636c2f0d531161014b5780636c2f0d53146105645780636faa22a51461056c5780637dc32b0b146105905780638456cb59146105be576101da565b80635677829f146104845780635c975abb146104c65780635e6ebfc5146104e257806363035f6614610510576101da565b80632a0acc6a116101b85780632a0acc6a146102525780633d3217311461025a5780633f4ba83a1461030c57806348637f0814610314576101da565b80630f144a48146101df5780631613ec9d146101e95780632829e6511461020e575b600080fd5b6101e7610eb1565b005b6101f1610ee9565b604080516001600160e01b03199092168252519081900360200190f35b6102406004803603606081101561022457600080fd5b508035906001600160a01b036020820135169060400135610eef565b60408051918252519081900360200190f35b610240610f95565b6102e86004803603608081101561027057600080fd5b6001600160a01b03823581169260208101359091169160408201359190810190608081016060820135600160201b8111156102aa57600080fd5b8201836020820111156102bc57600080fd5b803590602001918460018302840111600160201b831117156102dd57600080fd5b509092509050610fa4565b604051808260038111156102f857fe5b60ff16815260200191505060405180910390f35b6101e7611098565b61031c6110aa565b60405180806020018060200180602001806020018060200186810386528b818151815260200191508051906020019060200280838360005b8381101561036c578181015183820152602001610354565b5050505090500186810385528a818151815260200191508051906020019060200280838360005b838110156103ab578181015183820152602001610393565b50505050905001868103845289818151815260200191508051906020019060200280838360005b838110156103ea5781810151838201526020016103d2565b50505050905001868103835288818151815260200191508051906020019060200280838360005b83811015610429578181015183820152602001610411565b50505050905001868103825287818151815260200191508051906020019060200280838360005b83811015610468578181015183820152602001610450565b505050509050019a505050505050505050505060405180910390f35b6101e7600480360360a081101561049a57600080fd5b506001600160a01b03813581169160208101359091169060408101359060608101359060800135611327565b6104ce611394565b604080519115158252519081900360200190f35b610240600480360360408110156104f857600080fd5b506001600160a01b03813581169160200135166113a4565b61052d6004803603602081101561052657600080fd5b50356113be565b604080516001600160a01b039687168152949095166020850152838501929092526060830152608082015290519081900360a00190f35b610240611408565b61057461141a565b604080516001600160a01b039092168252519081900360200190f35b6101e7600480360360408110156105a657600080fd5b506001600160a01b0381358116916020013516611429565b6101e7611490565b6101e7600480360360208110156105dc57600080fd5b50356001600160a01b03166114a0565b610240611656565b610240611668565b61062a6004803603604081101561061257600080fd5b506001600160a01b0381358116916020013516611678565b60408051938452602084019290925282820152519081900360600190f35b610574611707565b610658611716565b60408051602080825283518183015283519192839290830191858101910280838360005b8381101561069457818101518382015260200161067c565b505050509050019250505060405180910390f35b6101e7600480360360a08110156106be57600080fd5b810190602081018135600160201b8111156106d857600080fd5b8201836020820111156106ea57600080fd5b803590602001918460208302840111600160201b8311171561070b57600080fd5b9190808060200260200160405190810160405280939291908181526020018383602002808284376000920191909152509295949360208101935035915050600160201b81111561075a57600080fd5b82018360208201111561076c57600080fd5b803590602001918460208302840111600160201b8311171561078d57600080fd5b9190808060200260200160405190810160405280939291908181526020018383602002808284376000920191909152509295949360208101935035915050600160201b8111156107dc57600080fd5b8201836020820111156107ee57600080fd5b803590602001918460208302840111600160201b8311171561080f57600080fd5b9190808060200260200160405190810160405280939291908181526020018383602002808284376000920191909152509295949360208101935035915050600160201b81111561085e57600080fd5b82018360208201111561087057600080fd5b803590602001918460208302840111600160201b8311171561089157600080fd5b9190808060200260200160405190810160405280939291908181526020018383602002808284376000920191909152509295949360208101935035915050600160201b8111156108e057600080fd5b8201836020820111156108f257600080fd5b803590602001918460208302840111600160201b8311171561091357600080fd5b919080806020026020016040519081016040528093929190818152602001838360200280828437600092019190915250929550611764945050505050565b610574611852565b6101e7600480360360c081101561096f57600080fd5b810190602081018135600160201b81111561098957600080fd5b82018360208201111561099b57600080fd5b803590602001918460208302840111600160201b831117156109bc57600080fd5b9190808060200260200160405190810160405280939291908181526020018383602002808284376000920191909152509295949360208101935035915050600160201b811115610a0b57600080fd5b820183602082011115610a1d57600080fd5b803590602001918460208302840111600160201b83111715610a3e57600080fd5b9190808060200260200160405190810160405280939291908181526020018383602002808284376000920191909152509295949360208101935035915050600160201b811115610a8d57600080fd5b820183602082011115610a9f57600080fd5b803590602001918460208302840111600160201b83111715610ac057600080fd5b9190808060200260200160405190810160405280939291908181526020018383602002808284376000920191909152509295949360208101935035915050600160201b811115610b0f57600080fd5b820183602082011115610b2157600080fd5b803590602001918460208302840111600160201b83111715610b4257600080fd5b9190808060200260200160405190810160405280939291908181526020018383602002808284376000920191909152509295949360208101935035915050600160201b811115610b9157600080fd5b820183602082011115610ba357600080fd5b803590602001918460208302840111600160201b83111715610bc457600080fd5b9190808060200260200160405190810160405280939291908181526020018383602002808284376000920191909152509295949360208101935035915050600160201b811115610c1357600080fd5b820183602082011115610c2557600080fd5b803590602001918460208302840111600160201b83111715610c4657600080fd5b919080806020026020016040519081016040528093929190818152602001838360200280828437600092019190915250929550611861945050505050565b6101e7600480360360c0811015610c9a57600080fd5b506001600160a01b03813581169160208101359091169060408101359060608101359060808101359060a0013515156119bd565b61031c60048036036020811015610ce457600080fd5b50356001600160a01b0316611a23565b6101e760048036036040811015610d0a57600080fd5b810190602081018135600160201b811115610d2457600080fd5b820183602082011115610d3657600080fd5b803590602001918460208302840111600160201b83111715610d5757600080fd5b919390929091602081019035600160201b811115610d7457600080fd5b820183602082011115610d8657600080fd5b803590602001918460208302840111600160201b83111715610da757600080fd5b509092509050611dff565b610240611f01565b610e7e60048036036080811015610dd057600080fd5b6001600160a01b03823581169260208101359091169160408201359190810190608081016060820135600160201b811115610e0a57600080fd5b820183602082011115610e1c57600080fd5b803590602001918460018302840111600160201b83111715610e3d57600080fd5b91908080601f016020809104026020016040519081016040528093929190818152602001838380828437600092019190915250929550611f07945050505050565b60405180836003811115610e8e57fe5b60ff1681526020018281526020019250505060405180910390f35b610574611f22565b610eb9611f9b565b6040513390303180156108fc02916000818181858888f19350505050158015610ee6573d6000803e3d6000fd5b50565b60005b90565b6000600160c21b6715539313d0d2d15102841415610f8a5760035460408051600160e01b6370a082310281526001600160a01b038681166004830152915191909216916370a08231916024808301926020929190829003018186803b158015610f5757600080fd5b505afa158015610f6b573d6000803e3d6000fd5b505050506040513d6020811015610f8157600080fd5b50519050610f8e565b5060005b9392505050565b600160d91b6420a226a4a70281565b6003546000906001600160a01b031633146110095760408051600160e51b62461bcd02815260206004820152601360248201527f53656e646572206973206e6f74206f776e657200000000000000000000000000604482015290519081900360640190fd5b600080611017888888612074565b9092509050801561108d576001600160a01b03808916600090815260208181526040808320938b168352929052908120546001805460001990920192918390811061105e57fe5b9060005260206000209060050201905061108588826002015461216c90919063ffffffff16565b600290910155505b509695505050505050565b6110a0611f9b565b6110a8612181565b565b6060806060806060600060018054905090506060816040519080825280602002602001820160405280156110e8578160200160208202803883390190505b509050606082604051908082528060200260200182016040528015611117578160200160208202803883390190505b509050606083604051908082528060200260200182016040528015611146578160200160208202803883390190505b509050606084604051908082528060200260200182016040528015611175578160200160208202803883390190505b5090506060856040519080825280602002602001820160405280156111a4578160200160208202803883390190505b50905060005b8681101561131457600181815481106111bf57fe5b600091825260209091206005909102015486516001600160a01b03909116908790839081106111ea57fe5b60200260200101906001600160a01b031690816001600160a01b0316815250506001818154811061121757fe5b906000526020600020906005020160010160009054906101000a90046001600160a01b031685828151811061124857fe5b60200260200101906001600160a01b031690816001600160a01b0316815250506001818154811061127557fe5b90600052602060002090600502016002015484828151811061129357fe5b602002602001018181525050600181815481106112ac57fe5b9060005260206000209060050201600301548382815181106112ca57fe5b602002602001018181525050600181815481106112e357fe5b90600052602060002090600502016004015482828151811061130157fe5b60209081029190910101526001016111aa565b50939a9299509097509550909350915050565b600160d91b6420a226a4a70261133d8133612227565b61137f5760408051600160e51b62461bcd0281526020600482015260126024820152600080516020612ca0833981519152604482015290519081900360640190fd5b61138c868686868661235d565b505050505050565b600454600160a01b900460ff1681565b600060208181529281526040808220909352908152205481565b600181815481106113cb57fe5b6000918252602090912060059091020180546001820154600283015460038401546004909401546001600160a01b03938416955091909216929085565b600160c21b6715539313d0d2d1510281565b6004546001600160a01b031681565b600160d91b6420a226a4a70261143f8133612227565b6114815760408051600160e51b62461bcd0281526020600482015260126024820152600080516020612ca0833981519152604482015290519081900360640190fd5b61148b8383612696565b505050565b611498611f9b565b6110a86128a2565b6114a8611f9b565b6001600160a01b0381166115065760408051600160e51b62461bcd02815260206004820152600f60248201527f496e76616c696420616464726573730000000000000000000000000000000000604482015290519081900360640190fd5b60408051600160e01b6370a08231028152306004820152905182916000916001600160a01b038416916370a08231916024808301926020929190829003018186803b15801561155457600080fd5b505afa158015611568573d6000803e3d6000fd5b505050506040513d602081101561157e57600080fd5b505160408051600160e01b63a9059cbb0281523360048201526024810183905290519192506001600160a01b0384169163a9059cbb916044808201926020929091908290030181600087803b1580156115d657600080fd5b505af11580156115ea573d6000803e3d6000fd5b505050506040513d602081101561160057600080fd5b505161148b5760408051600160e51b62461bcd02815260206004820152600f60248201527f5472616e73666572206661696c65640000000000000000000000000000000000604482015290519081900360640190fd5b600160c11b6727a822a920aa27a90281565b600160d21b651313d0d2d1510281565b6001600160a01b038083166000908152602081815260408083209385168352929052908120548190819080156116f457600154600019909101908110156116f4576000600182815481106116c857fe5b906000526020600020906005020190508060030154816002015482600401549450945094505050611700565b50600092508291508190505b9250925092565b6003546001600160a01b031681565b60408051600180825281830190925260609182919060208083019080388339019050509050600160d91b6420a226a4a7028160008151811061175457fe5b6020908102919091010152905090565b600160d91b6420a226a4a70261177a8133612227565b6117bc5760408051600160e51b62461bcd0281526020600482015260126024820152600080516020612ca0833981519152604482015290519081900360640190fd5b6117c9868686868661294f565b60005b8651811015611849576118418782815181106117e457fe5b60200260200101518783815181106117f857fe5b602002602001015187848151811061180c57fe5b602002602001015187858151811061182057fe5b602002602001015187868151811061183457fe5b602002602001015161235d565b6001016117cc565b50505050505050565b6002546001600160a01b031681565b600160d91b6420a226a4a7026118778133612227565b6118b95760408051600160e51b62461bcd0281526020600482015260126024820152600080516020612ca0833981519152604482015290519081900360640190fd5b6118c6878786888761294f565b835182511461191f5760408051600160e51b62461bcd02815260206004820152601b60248201527f496e707574206c656e677468206172726179206d69736d617463680000000000604482015290519081900360640190fd5b60005b87518110156119b3576119ab88828151811061193a57fe5b602002602001015188838151811061194e57fe5b602002602001015188848151811061196257fe5b602002602001015188858151811061197657fe5b602002602001015188868151811061198a57fe5b602002602001015188878151811061199e57fe5b60200260200101516129d6565b600101611922565b5050505050505050565b600160d91b6420a226a4a7026119d38133612227565b611a155760408051600160e51b62461bcd0281526020600482015260126024820152600080516020612ca0833981519152604482015290519081900360640190fd5b6118498787878787876129d6565b6001546060908190819081908190600090815b81811015611aea57886001600160a01b031660018281548110611a5557fe5b60009182526020909120600590910201546001600160a01b03161480611aac5750886001600160a01b031660018281548110611a8d57fe5b60009182526020909120600160059092020101546001600160a01b0316145b8015611ad657504260018281548110611ac157fe5b90600052602060002090600502016003015410155b15611ae2576001909201915b600101611a36565b50606082604051908082528060200260200182016040528015611b17578160200160208202803883390190505b509050606083604051908082528060200260200182016040528015611b46578160200160208202803883390190505b509050606084604051908082528060200260200182016040528015611b75578160200160208202803883390190505b509050606085604051908082528060200260200182016040528015611ba4578160200160208202803883390190505b509050606086604051908082528060200260200182016040528015611bd3578160200160208202803883390190505b50600097509050865b86811015611dea578d6001600160a01b031660018281548110611bfb57fe5b60009182526020909120600590910201546001600160a01b03161480611c5257508d6001600160a01b031660018281548110611c3357fe5b60009182526020909120600160059092020101546001600160a01b0316145b8015611c7c57504260018281548110611c6757fe5b90600052602060002090600502016003015410155b15611de25760018181548110611c8e57fe5b600091825260209091206005909102015486516001600160a01b039091169087908a908110611cb957fe5b60200260200101906001600160a01b031690816001600160a01b03168152505060018181548110611ce657fe5b906000526020600020906005020160010160009054906101000a90046001600160a01b0316858981518110611d1757fe5b60200260200101906001600160a01b031690816001600160a01b03168152505060018181548110611d4457fe5b906000526020600020906005020160020154848981518110611d6257fe5b60200260200101818152505060018181548110611d7b57fe5b906000526020600020906005020160030154838981518110611d9957fe5b60200260200101818152505060018181548110611db257fe5b906000526020600020906005020160040154828981518110611dd057fe5b60209081029190910101526001909701965b600101611bdc565b50939c929b5090995097509095509350505050565b600160d91b6420a226a4a702611e158133612227565b611e575760408051600160e51b62461bcd0281526020600482015260126024820152600080516020612ca0833981519152604482015290519081900360640190fd5b838214611eae5760408051600160e51b62461bcd02815260206004820152601b60248201527f496e707574206172726179206c656e677468206d69736d617463680000000000604482015290519081900360640190fd5b60005b8481101561138c57611ef9868683818110611ec857fe5b905060200201356001600160a01b0316858584818110611ee457fe5b905060200201356001600160a01b0316612696565b600101611eb1565b60015490565b600080611f15868686612074565b9150915094509492505050565b60035460408051600160e01b63660d0d6702815290516000926001600160a01b03169163660d0d67916004808301926020929190829003018186803b158015611f6a57600080fd5b505afa158015611f7e573d6000803e3d6000fd5b505050506040513d6020811015611f9457600080fd5b5051905090565b600360009054906101000a90046001600160a01b03166001600160a01b0316638da5cb5b6040518163ffffffff1660e01b815260040160206040518083038186803b158015611fe957600080fd5b505afa158015611ffd573d6000803e3d6000fd5b505050506040513d602081101561201357600080fd5b50516001600160a01b031633146110a85760408051600160e51b62461bcd02815260206004820152601360248201527f53656e646572206973206e6f74206f776e657200000000000000000000000000604482015290519081900360640190fd5b6001600160a01b03838116600090815260208181526040808320938616835292905290812054600454829190600160a01b900460ff161580156120b657508015155b1561215a57600019016120c7612c03565b600182815481106120d457fe5b60009182526020918290206040805160a081018252600590930290910180546001600160a01b03908116845260018201541693830193909352600283015490820152600382015460608201819052600490920154608082015291504211801590612142575084816040015110155b15612158575060029250503060601b9050612164565b505b5060019150600090505b935093915050565b60008282111561217b57600080fd5b50900390565b600454600160a01b900460ff166121e25760408051600160e51b62461bcd02815260206004820152601660248201527f436f6e7472616374206973206e6f742070617573656400000000000000000000604482015290519081900360640190fd5b60048054600160a01b60ff02191690556040805133815290517faeb196d352664784d1900b0e7414a8face7d29f4dae8c4b0cf68ed477423bbf49181900360200190a1565b600080600360009054906101000a90046001600160a01b03166001600160a01b0316638da5cb5b6040518163ffffffff1660e01b815260040160206040518083038186803b15801561227857600080fd5b505afa15801561228c573d6000803e3d6000fd5b505050506040513d60208110156122a257600080fd5b50516002546001600160a01b0385811692811683149350161481806122c45750805b80612354575060035460408051600160e01b638658b8b90281526001600160a01b0387811660048301523060248301526044820189905291519190921691638658b8b9916064808301926020929190829003018186803b15801561232757600080fd5b505afa15801561233b573d6000803e3d6000fd5b505050506040513d602081101561235157600080fd5b50515b95945050505050565b4282116123b45760408051600160e51b62461bcd02815260206004820152601360248201527f496e76616c6964206578706972792074696d6500000000000000000000000000604482015290519081900360640190fd5b6000831161240c5760408051600160e51b62461bcd02815260206004820152601160248201527f496e76616c696420616c6c6f77616e6365000000000000000000000000000000604482015290519081900360640190fd5b6001600160a01b03808616600090815260208181526040808320938816835292905220541561250d576001600160a01b038086166000908152602081815260408083209388168352929052205460018054600019909201914291908390811061247157fe5b90600052602060002090600502016003015410806124ad57506001818154811061249757fe5b9060005260206000209060050201600201546000145b6125015760408051600160e51b62461bcd02815260206004820152601760248201527f417070726f76616c20616c726561647920657869737473000000000000000000604482015290519081900360640190fd5b61250b8686612696565b505b6040805160a0810182526001600160a01b0380881680835287821660208085018281528587018a815260608088018b8152608089018b815260018054808201825560008281529b5160059091027fb10e2d527612073b26eecdfd717e6a320cf44b4afac2b0732d9fcbe2b7fa0cf681018054928d166001600160a01b031993841617905596517fb10e2d527612073b26eecdfd717e6a320cf44b4afac2b0732d9fcbe2b7fa0cf78801805491909c1691161790995592517fb10e2d527612073b26eecdfd717e6a320cf44b4afac2b0732d9fcbe2b7fa0cf8850155517fb10e2d527612073b26eecdfd717e6a320cf44b4afac2b0732d9fcbe2b7fa0cf984015590517fb10e2d527612073b26eecdfd717e6a320cf44b4afac2b0732d9fcbe2b7fa0cfa909201919091559354838652858252868620838752825294869020949094558451888152938401879052838501869052935133949391927f694086b7577eae5577f90c1aa90ff38280eacd0709a8c7be707a219e92a150c9928290030190a45050505050565b6001600160a01b03808316600090815260208181526040808320938516835292905220548061270f5760408051600160e51b62461bcd02815260206004820152601260248201527f417070726f76616c206e6f742065786973740000000000000000000000000000604482015290519081900360640190fd5b6001546000199182019101808214612827576001818154811061272e57fe5b90600052602060002090600502016001838154811061274957fe5b600091825260208220835460059092020180546001600160a01b03199081166001600160a01b039384161782556001808601548184018054909316941693909317905560028085015490820155600380850154908201556004938401549301929092558154848301928291869081106127be57fe5b600091825260208083206005909202909101546001600160a01b03168352820192909252604001812060018054919291869081106127f857fe5b60009182526020808320600160059093020191909101546001600160a01b031683528201929092526040019020555b6001600160a01b038085166000908152602081815260408083209387168352929052908120556001805490612860906000198301612c31565b5060405133906001600160a01b0385811691908716907fbe7baba984867cb2bb52a4035357b30f05c7e480fc9daf78a7b718ae6ee4a4fe90600090a450505050565b600454600160a01b900460ff16156129045760408051600160e51b62461bcd02815260206004820152601260248201527f436f6e7472616374206973207061757365640000000000000000000000000000604482015290519081900360640190fd5b60048054600160a01b60ff021916600160a01b1790556040805133815290517f5ee71a369c8672edded508e624ffc9257fa1ae6886ef32905c18e60196bca3999181900360200190a1565b83518551148015612961575081518451145b801561296e575082518251145b801561297b575080518351145b6129cf5760408051600160e51b62461bcd02815260206004820152601b60248201527f496e707574206172726179206c656e677468206d69736d617463680000000000604482015290519081900360640190fd5b5050505050565b428411612a2d5760408051600160e51b62461bcd02815260206004820152601360248201527f496e76616c6964206578706972792074696d6500000000000000000000000000604482015290519081900360640190fd5b6001600160a01b038087166000908152602081815260408083209389168352929052205480612aa65760408051600160e51b62461bcd02815260206004820152601460248201527f417070726f76616c206e6f742070726573656e74000000000000000000000000604482015290519081900360640190fd5b808060019003915050600060018281548110612abe57fe5b6000918252602090912060059091020160028101546003820154919250908115801590612aea57504281115b612b2f5760408051600160e51b62461bcd02815260206004820152600b6024820152600160aa1b6a139bdd08185b1b1bddd95902604482015290519081900360640190fd5b8615612b70578415612b5257612b4b828863ffffffff612bf116565b9150612b68565b818710612b625760009150612b68565b86820391505b600283018290555b878114612b7f57600383018890555b85836004015414612b9257600483018690555b6040805189815260208101849052808201889052905133916001600160a01b038c811692908e16917f0f3f478ce6278e66ad974b3190c8cb89c93292c1620c40408fee8b64c09ac52e919081900360600190a450505050505050505050565b600082820183811015610f8e57600080fd5b6040805160a08101825260008082526020820181905291810182905260608101829052608081019190915290565b81548183558181111561148b5760008381526020902061148b91610eec9160059182028101918502015b80821115612c9b5780546001600160a01b031990811682556001820180549091169055600060028201819055600382018190556004820155600501612c5b565b509056fe496e76616c6964207065726d697373696f6e0000000000000000000000000000a165627a7a723058209541cca9b0f6f167ce8924e2da9429fbe94d49139fd11e8137e6982761cbaab60029",
  "source": "pragma solidity 0.5.8;\n\nimport \"../TransferManager.sol\";\nimport \"openzeppelin-solidity/contracts/math/SafeMath.sol\";\nimport \"./ManualApprovalTransferManagerStorage.sol\";\n\n/**\n * @title Transfer Manager module for manually approving transactions between accounts\n */\ncontract ManualApprovalTransferManager is ManualApprovalTransferManagerStorage, TransferManager {\n    using SafeMath for uint256;\n\n    event AddManualApproval(\n        address indexed _from,\n        address indexed _to,\n        uint256 _allowance,\n        uint256 _expiryTime,\n        bytes32 _description,\n        address indexed _addedBy\n    );\n\n    event ModifyManualApproval(\n        address indexed _from,\n        address indexed _to,\n        uint256 _expiryTime,\n        uint256 _allowance,\n        bytes32 _description,\n        address indexed _edittedBy\n    );\n\n    event RevokeManualApproval(\n        address indexed _from,\n        address indexed _to,\n        address indexed _addedBy\n    );\n\n    /**\n     * @notice Constructor\n     * @param _securityToken Address of the security token\n     */\n    constructor(address _securityToken, address _polyToken) public Module(_securityToken, _polyToken) {\n\n    }\n\n    /**\n     * @notice This function returns the signature of configure function\n     */\n    function getInitFunction() public pure returns(bytes4) {\n        return bytes4(0);\n    }\n\n    /**\n     * @notice Used to verify the transfer transaction and allow a manually approved transqaction to bypass other restrictions\n     * @param _from Address of the sender\n     * @param _to Address of the receiver\n     * @param _amount The amount of tokens to transfer\n     */\n    function executeTransfer(\n        address _from,\n        address _to,\n        uint256 _amount,\n        bytes calldata /* _data */\n    )\n        external\n        onlySecurityToken\n        returns(Result)\n    {\n\n        (Result success, bytes32 esc) = _verifyTransfer(_from, _to, _amount);\n        if (esc != bytes32(0)) {\n            uint256 index = approvalIndex[_from][_to] - 1;\n            ManualApproval storage approval = approvals[index];\n            approval.allowance = approval.allowance.sub(_amount);\n        }\n        return (success);\n    }\n\n\n    /**\n     * @notice Used to verify the transfer transaction and allow a manually approved transqaction to bypass other restrictions\n     * @param _from Address of the sender\n     * @param _to Address of the receiver\n     * @param _amount The amount of tokens to transfer\n     */\n    function verifyTransfer(\n        address _from,\n        address _to,\n        uint256 _amount,\n        bytes memory /* _data */\n    )\n        public\n        view\n        returns(Result, bytes32)\n    {\n        return _verifyTransfer(_from, _to, _amount);\n    }\n\n    function _verifyTransfer(\n        address _from,\n        address _to,\n        uint256 _amount\n    )\n        internal\n        view\n        returns(Result, bytes32)\n    {\n        uint256 index = approvalIndex[_from][_to];\n        if (!paused && index != 0) {\n            index--; //Actual index is storedIndex - 1\n            ManualApproval memory approval = approvals[index];\n            if ((approval.expiryTime >= now) && (approval.allowance >= _amount)) {\n                return (Result.VALID, bytes32(uint256(address(this)) << 96));\n            }\n        }\n        return (Result.NA, bytes32(0));\n    }\n\n\n    /**\n    * @notice Adds a pair of addresses to manual approvals\n    * @param _from is the address from which transfers are approved\n    * @param _to is the address to which transfers are approved\n    * @param _allowance is the approved amount of tokens\n    * @param _expiryTime is the time until which the transfer is allowed\n    * @param _description Description about the manual approval\n    */\n    function addManualApproval(\n        address _from,\n        address _to,\n        uint256 _allowance,\n        uint256 _expiryTime,\n        bytes32 _description\n    )\n        external\n        withPerm(ADMIN)\n    {\n        _addManualApproval(_from, _to, _allowance, _expiryTime, _description);\n    }\n\n    function _addManualApproval(address _from, address _to, uint256 _allowance, uint256 _expiryTime, bytes32 _description) internal {\n        require(_expiryTime > now, \"Invalid expiry time\");\n        require(_allowance > 0, \"Invalid allowance\");\n        if (approvalIndex[_from][_to] != 0) {\n            uint256 index = approvalIndex[_from][_to] - 1;\n            require(approvals[index].expiryTime < now || approvals[index].allowance == 0, \"Approval already exists\");\n            _revokeManualApproval(_from, _to);\n        }\n        approvals.push(ManualApproval(_from, _to, _allowance, _expiryTime, _description));\n        approvalIndex[_from][_to] = approvals.length;\n        emit AddManualApproval(_from, _to, _allowance, _expiryTime, _description, msg.sender);\n    }\n\n    /**\n    * @notice Adds mutiple manual approvals in batch\n    * @param _from is the address array from which transfers are approved\n    * @param _to is the address array to which transfers are approved\n    * @param _allowances is the array of approved amounts\n    * @param _expiryTimes is the array of the times until which eath transfer is allowed\n    * @param _descriptions is the description array for these manual approvals\n    */\n    function addManualApprovalMulti(\n        address[] memory _from,\n        address[] memory _to,\n        uint256[] memory _allowances,\n        uint256[] memory _expiryTimes,\n        bytes32[] memory _descriptions\n    )\n        public\n        withPerm(ADMIN)\n    {\n        _checkInputLengthArray(_from, _to, _allowances, _expiryTimes, _descriptions);\n        for (uint256 i = 0; i < _from.length; i++){\n            _addManualApproval(_from[i], _to[i], _allowances[i], _expiryTimes[i], _descriptions[i]);\n        }\n    }\n\n    /**\n    * @notice Modify the existing manual approvals\n    * @param _from is the address from which transfers are approved\n    * @param _to is the address to which transfers are approved\n    * @param _expiryTime is the time until which the transfer is allowed\n    * @param _changeInAllowance is the change in allowance\n    * @param _description Description about the manual approval\n    * @param _increase tells whether the allowances will be increased (true) or decreased (false).\n    * or any value when there is no change in allowances\n    */\n    function modifyManualApproval(\n        address _from,\n        address _to,\n        uint256 _expiryTime,\n        uint256 _changeInAllowance,\n        bytes32 _description,\n        bool _increase\n    )\n        external\n        withPerm(ADMIN)\n    {\n        _modifyManualApproval(_from, _to, _expiryTime, _changeInAllowance, _description, _increase);\n    }\n\n    function _modifyManualApproval(\n        address _from,\n        address _to,\n        uint256 _expiryTime,\n        uint256 _changeInAllowance,\n        bytes32 _description,\n        bool _increase\n    )\n        internal\n    {\n        /*solium-disable-next-line security/no-block-members*/\n        require(_expiryTime > now, \"Invalid expiry time\");\n        uint256 index = approvalIndex[_from][_to];\n        require(index != 0, \"Approval not present\");\n        index--; //Index is stored in an incremented form. 0 represnts non existant.\n        ManualApproval storage approval = approvals[index];\n        uint256 allowance = approval.allowance;\n        uint256 expiryTime = approval.expiryTime;\n        require(allowance != 0 && expiryTime > now, \"Not allowed\");\n\n        if (_changeInAllowance > 0) {\n            if (_increase) {\n                // Allowance get increased\n                allowance = allowance.add(_changeInAllowance);\n            } else {\n                // Allowance get decreased\n                if (_changeInAllowance >= allowance) {\n                    allowance = 0;\n                } else {\n                    allowance = allowance - _changeInAllowance;\n                }\n            }\n            approval.allowance = allowance;\n        }\n        // Greedy storage technique\n        if (expiryTime != _expiryTime) {\n            approval.expiryTime = _expiryTime;\n        }\n        if (approval.description != _description) {\n            approval.description = _description;\n        }\n        emit ModifyManualApproval(_from, _to, _expiryTime, allowance, _description, msg.sender);\n    }\n\n    /**\n     * @notice Adds mutiple manual approvals in batch\n     * @param _from is the address array from which transfers are approved\n     * @param _to is the address array to which transfers are approved\n     * @param _expiryTimes is the array of the times until which eath transfer is allowed\n     * @param _changeInAllowance is the array of change in allowances\n     * @param _descriptions is the description array for these manual approvals\n     * @param _increase Array of bools that tells whether the allowances will be increased (true) or decreased (false).\n     * or any value when there is no change in allowances\n     */\n    function modifyManualApprovalMulti(\n        address[] memory _from,\n        address[] memory _to,\n        uint256[] memory _expiryTimes,\n        uint256[] memory _changeInAllowance,\n        bytes32[] memory _descriptions,\n        bool[] memory _increase\n    )\n        public\n        withPerm(ADMIN)\n    {\n        _checkInputLengthArray(_from, _to, _changeInAllowance, _expiryTimes, _descriptions);\n        require(_increase.length == _changeInAllowance.length, \"Input length array mismatch\");\n        for (uint256 i = 0; i < _from.length; i++) {\n            _modifyManualApproval(_from[i], _to[i], _expiryTimes[i], _changeInAllowance[i], _descriptions[i], _increase[i]);\n        }\n    }\n\n    /**\n    * @notice Removes a pairs of addresses from manual approvals\n    * @param _from is the address from which transfers are approved\n    * @param _to is the address to which transfers are approved\n    */\n    function revokeManualApproval(address _from, address _to) external withPerm(ADMIN) {\n        _revokeManualApproval(_from, _to);\n    }\n\n    function _revokeManualApproval(address _from, address _to) internal {\n        uint256 index = approvalIndex[_from][_to];\n        require(index != 0, \"Approval not exist\");\n\n        // find the record in active approvals array & delete it\n        index--; //Index is stored after incrementation so that 0 represents non existant index\n        uint256 lastApprovalIndex = approvals.length - 1;\n        if (index != lastApprovalIndex) {\n            approvals[index] = approvals[lastApprovalIndex];\n            approvalIndex[approvals[index].from][approvals[index].to] = index + 1;\n        }\n        delete approvalIndex[_from][_to];\n        approvals.length--;\n        emit RevokeManualApproval(_from, _to, msg.sender);\n    }\n\n    /**\n    * @notice Removes mutiple pairs of addresses from manual approvals\n    * @param _from is the address array from which transfers are approved\n    * @param _to is the address array to which transfers are approved\n    */\n    function revokeManualApprovalMulti(address[] calldata _from, address[] calldata _to) external withPerm(ADMIN) {\n        require(_from.length == _to.length, \"Input array length mismatch\");\n        for(uint256 i = 0; i < _from.length; i++){\n            _revokeManualApproval(_from[i], _to[i]);\n        }\n    }\n\n    function _checkInputLengthArray(\n        address[] memory _from,\n        address[] memory _to,\n        uint256[] memory _expiryTimes,\n        uint256[] memory _allowances,\n        bytes32[] memory _descriptions\n    )\n        internal\n        pure\n    {\n        require(_from.length == _to.length &&\n        _to.length == _allowances.length &&\n        _allowances.length == _expiryTimes.length &&\n        _expiryTimes.length == _descriptions.length,\n        \"Input array length mismatch\"\n        );\n    }\n\n    /**\n     * @notice Returns the all active approvals corresponds to an address\n     * @param _user Address of the holder corresponds to whom list of manual approvals\n     * need to return\n     * @return address[] addresses from\n     * @return address[] addresses to\n     * @return uint256[] allowances provided to the approvals\n     * @return uint256[] expiry times provided to the approvals\n     * @return bytes32[] descriptions provided to the approvals\n     */\n    function getActiveApprovalsToUser(address _user) external view returns(address[] memory, address[] memory, uint256[] memory, uint256[] memory, bytes32[] memory) {\n        uint256 counter = 0;\n        uint256 approvalsLength = approvals.length;\n        for (uint256 i = 0; i < approvalsLength; i++) {\n            if ((approvals[i].from == _user || approvals[i].to == _user)\n                && approvals[i].expiryTime >= now)\n                counter ++;\n        }\n\n        address[] memory from = new address[](counter);\n        address[] memory to = new address[](counter);\n        uint256[] memory allowance = new uint256[](counter);\n        uint256[] memory expiryTime = new uint256[](counter);\n        bytes32[] memory description = new bytes32[](counter);\n\n        counter = 0;\n        for (uint256 i = 0; i < approvalsLength; i++) {\n            if ((approvals[i].from == _user || approvals[i].to == _user)\n                && approvals[i].expiryTime >= now) {\n\n                from[counter]=approvals[i].from;\n                to[counter]=approvals[i].to;\n                allowance[counter]=approvals[i].allowance;\n                expiryTime[counter]=approvals[i].expiryTime;\n                description[counter]=approvals[i].description;\n                counter ++;\n            }\n        }\n        return (from, to, allowance, expiryTime, description);\n    }\n\n    /**\n     * @notice Get the details of the approval corresponds to _from & _to addresses\n     * @param _from Address of the sender\n     * @param _to Address of the receiver\n     * @return uint256 expiryTime of the approval\n     * @return uint256 allowance provided to the approval\n     * @return uint256 Description provided to the approval\n     */\n    function getApprovalDetails(address _from, address _to) external view returns(uint256, uint256, bytes32) {\n        uint256 index = approvalIndex[_from][_to];\n        if (index != 0) {\n            index--;\n            if (index < approvals.length) {\n                ManualApproval storage approval = approvals[index];\n                return(\n                    approval.expiryTime,\n                    approval.allowance,\n                    approval.description\n                );\n            }\n        }\n        return (uint256(0), uint256(0), bytes32(0));\n    }\n\n    /**\n    * @notice Returns the current number of active approvals\n    */\n    function getTotalApprovalsLength() external view returns(uint256) {\n        return approvals.length;\n    }\n\n    /**\n     * @notice Get the details of all approvals\n     * @return address[] addresses from\n     * @return address[] addresses to\n     * @return uint256[] allowances provided to the approvals\n     * @return uint256[] expiry times provided to the approvals\n     * @return bytes32[] descriptions provided to the approvals\n     */\n    function getAllApprovals() external view returns(address[] memory, address[] memory, uint256[] memory, uint256[] memory, bytes32[] memory) {\n        uint256 approvalsLength = approvals.length;\n        address[] memory from = new address[](approvalsLength);\n        address[] memory to = new address[](approvalsLength);\n        uint256[] memory allowance = new uint256[](approvalsLength);\n        uint256[] memory expiryTime = new uint256[](approvalsLength);\n        bytes32[] memory description = new bytes32[](approvalsLength);\n\n        for (uint256 i = 0; i < approvalsLength; i++) {\n\n            from[i]=approvals[i].from;\n            to[i]=approvals[i].to;\n            allowance[i]=approvals[i].allowance;\n            expiryTime[i]=approvals[i].expiryTime;\n            description[i]=approvals[i].description;\n\n        }\n\n        return (from, to, allowance, expiryTime, description);\n\n    }\n\n    /**\n     * @notice Returns the permissions flag that are associated with ManualApproval transfer manager\n     */\n    function getPermissions() public view returns(bytes32[] memory) {\n        bytes32[] memory allPermissions = new bytes32[](1);\n        allPermissions[0] = ADMIN;\n        return allPermissions;\n    }\n}\n",
  "sourcePath": "/Users/federicoelgarte/Polymath/polymath-core/contracts/modules/TransferManager/MATM/ManualApprovalTransferManager.sol",
  "compiler": {
    "name": "solc",
    "version": "0.5.8+commit.23d335f2.Emscripten.clang"
  },
  "schemaVersion": "3.0.12",
  "updatedAt": "2019-09-24T16:14:04.614Z",
  "devdoc": {
    "methods": {
      "addManualApproval(address,address,uint256,uint256,bytes32)": {
        "params": {
          "_allowance": "is the approved amount of tokens",
          "_description": "Description about the manual approval",
          "_expiryTime": "is the time until which the transfer is allowed",
          "_from": "is the address from which transfers are approved",
          "_to": "is the address to which transfers are approved"
        }
      },
      "addManualApprovalMulti(address[],address[],uint256[],uint256[],bytes32[])": {
        "params": {
          "_allowances": "is the array of approved amounts",
          "_descriptions": "is the description array for these manual approvals",
          "_expiryTimes": "is the array of the times until which eath transfer is allowed",
          "_from": "is the address array from which transfers are approved",
          "_to": "is the address array to which transfers are approved"
        }
      },
      "constructor": {
        "params": {
          "_securityToken": "Address of the security token"
        }
      },
      "executeTransfer(address,address,uint256,bytes)": {
        "params": {
          "_amount": "The amount of tokens to transfer",
          "_from": "Address of the sender",
          "_to": "Address of the receiver"
        }
      },
      "getActiveApprovalsToUser(address)": {
        "params": {
          "_user": "Address of the holder corresponds to whom list of manual approvals need to return"
        },
        "return": "address[] addresses fromaddress[] addresses touint256[] allowances provided to the approvalsuint256[] expiry times provided to the approvalsbytes32[] descriptions provided to the approvals"
      },
      "getAllApprovals()": {
        "return": "address[] addresses fromaddress[] addresses touint256[] allowances provided to the approvalsuint256[] expiry times provided to the approvalsbytes32[] descriptions provided to the approvals"
      },
      "getApprovalDetails(address,address)": {
        "params": {
          "_from": "Address of the sender",
          "_to": "Address of the receiver"
        },
        "return": "uint256 expiryTime of the approvaluint256 allowance provided to the approvaluint256 Description provided to the approval"
      },
      "getTokensByPartition(bytes32,address,uint256)": {
        "details": "returning the balance of token holder against the UNLOCKED partition.  This condition is valid only when the base contract doesn't implement the `getTokensByPartition()` function.  "
      },
      "modifyManualApproval(address,address,uint256,uint256,bytes32,bool)": {
        "params": {
          "_changeInAllowance": "is the change in allowance",
          "_description": "Description about the manual approval",
          "_expiryTime": "is the time until which the transfer is allowed",
          "_from": "is the address from which transfers are approved",
          "_increase": "tells whether the allowances will be increased (true) or decreased (false). or any value when there is no change in allowances",
          "_to": "is the address to which transfers are approved"
        }
      },
      "modifyManualApprovalMulti(address[],address[],uint256[],uint256[],bytes32[],bool[])": {
        "params": {
          "_changeInAllowance": "is the array of change in allowances",
          "_descriptions": "is the description array for these manual approvals",
          "_expiryTimes": "is the array of the times until which eath transfer is allowed",
          "_from": "is the address array from which transfers are approved",
          "_increase": "Array of bools that tells whether the allowances will be increased (true) or decreased (false). or any value when there is no change in allowances",
          "_to": "is the address array to which transfers are approved"
        }
      },
      "reclaimERC20(address)": {
        "details": "We duplicate here due to the overriden owner & onlyOwner",
        "params": {
          "_tokenContract": "The address of the token contract"
        }
      },
      "reclaimETH()": {
        "details": "We duplicate here due to the overriden owner & onlyOwner"
      },
      "revokeManualApproval(address,address)": {
        "params": {
          "_from": "is the address from which transfers are approved",
          "_to": "is the address to which transfers are approved"
        }
      },
      "revokeManualApprovalMulti(address[],address[])": {
        "params": {
          "_from": "is the address array from which transfers are approved",
          "_to": "is the address array to which transfers are approved"
        }
      },
      "verifyTransfer(address,address,uint256,bytes)": {
        "params": {
          "_amount": "The amount of tokens to transfer",
          "_from": "Address of the sender",
          "_to": "Address of the receiver"
        }
      }
    },
    "title": "Transfer Manager module for manually approving transactions between accounts"
  },
  "userdoc": {
    "methods": {
      "addManualApproval(address,address,uint256,uint256,bytes32)": {
        "notice": "Adds a pair of addresses to manual approvals"
      },
      "addManualApprovalMulti(address[],address[],uint256[],uint256[],bytes32[])": {
        "notice": "Adds mutiple manual approvals in batch"
      },
      "constructor": "Constructor",
      "executeTransfer(address,address,uint256,bytes)": {
        "notice": "Used to verify the transfer transaction and allow a manually approved transqaction to bypass other restrictions"
      },
      "getActiveApprovalsToUser(address)": {
        "notice": "Returns the all active approvals corresponds to an address"
      },
      "getAllApprovals()": {
        "notice": "Get the details of all approvals"
      },
      "getApprovalDetails(address,address)": {
        "notice": "Get the details of the approval corresponds to _from & _to addresses"
      },
      "getDataStore()": {
        "notice": "used to return the data store address of securityToken"
      },
      "getInitFunction()": {
        "notice": "This function returns the signature of configure function"
      },
      "getPermissions()": {
        "notice": "Returns the permissions flag that are associated with ManualApproval transfer manager"
      },
      "getTokensByPartition(bytes32,address,uint256)": {
        "notice": "return the amount of tokens for a given user as per the partition"
      },
      "getTotalApprovalsLength()": {
        "notice": "Returns the current number of active approvals"
      },
      "modifyManualApproval(address,address,uint256,uint256,bytes32,bool)": {
        "notice": "Modify the existing manual approvals"
      },
      "modifyManualApprovalMulti(address[],address[],uint256[],uint256[],bytes32[],bool[])": {
        "notice": "Adds mutiple manual approvals in batch"
      },
      "pause()": {
        "notice": "Pause (overridden function)"
      },
      "reclaimERC20(address)": {
        "notice": "Reclaims ERC20Basic compatible tokens"
      },
      "reclaimETH()": {
        "notice": "Reclaims ETH"
      },
      "revokeManualApproval(address,address)": {
        "notice": "Removes a pairs of addresses from manual approvals"
      },
      "revokeManualApprovalMulti(address[],address[])": {
        "notice": "Removes mutiple pairs of addresses from manual approvals"
      },
      "unpause()": {
        "notice": "Unpause (overridden function)"
      },
      "verifyTransfer(address,address,uint256,bytes)": {
        "notice": "Used to verify the transfer transaction and allow a manually approved transqaction to bypass other restrictions"
      }
    }
  }
}