{
  "contractName": "ModuleRegistry",
  "abi": [
    {
      "constant": true,
      "inputs": [
        {
          "name": "_variable",
          "type": "bytes32"
        }
      ],
      "name": "getBytes32Value",
      "outputs": [
        {
          "name": "",
          "type": "bytes32"
        }
      ],
      "payable": false,
      "stateMutability": "view",
      "type": "function"
    },
    {
      "constant": true,
      "inputs": [
        {
          "name": "_variable",
          "type": "bytes32"
        }
      ],
      "name": "getBytesValue",
      "outputs": [
        {
          "name": "",
          "type": "bytes"
        }
      ],
      "payable": false,
      "stateMutability": "view",
      "type": "function"
    },
    {
      "constant": true,
      "inputs": [
        {
          "name": "_variable",
          "type": "bytes32"
        }
      ],
      "name": "getAddressValue",
      "outputs": [
        {
          "name": "",
          "type": "address"
        }
      ],
      "payable": false,
      "stateMutability": "view",
      "type": "function"
    },
    {
      "constant": true,
      "inputs": [
        {
          "name": "_key",
          "type": "bytes32"
        }
      ],
      "name": "getArrayAddress",
      "outputs": [
        {
          "name": "",
          "type": "address[]"
        }
      ],
      "payable": false,
      "stateMutability": "view",
      "type": "function"
    },
    {
      "constant": true,
      "inputs": [
        {
          "name": "_variable",
          "type": "bytes32"
        }
      ],
      "name": "getBoolValue",
      "outputs": [
        {
          "name": "",
          "type": "bool"
        }
      ],
      "payable": false,
      "stateMutability": "view",
      "type": "function"
    },
    {
      "constant": true,
      "inputs": [
        {
          "name": "_variable",
          "type": "bytes32"
        }
      ],
      "name": "getStringValue",
      "outputs": [
        {
          "name": "",
          "type": "string"
        }
      ],
      "payable": false,
      "stateMutability": "view",
      "type": "function"
    },
    {
      "constant": true,
      "inputs": [
        {
          "name": "_key",
          "type": "bytes32"
        }
      ],
      "name": "getArrayBytes32",
      "outputs": [
        {
          "name": "",
          "type": "bytes32[]"
        }
      ],
      "payable": false,
      "stateMutability": "view",
      "type": "function"
    },
    {
      "constant": true,
      "inputs": [
        {
          "name": "_variable",
          "type": "bytes32"
        }
      ],
      "name": "getUintValue",
      "outputs": [
        {
          "name": "",
          "type": "uint256"
        }
      ],
      "payable": false,
      "stateMutability": "view",
      "type": "function"
    },
    {
      "constant": true,
      "inputs": [
        {
          "name": "_key",
          "type": "bytes32"
        }
      ],
      "name": "getArrayUint",
      "outputs": [
        {
          "name": "",
          "type": "uint256[]"
        }
      ],
      "payable": false,
      "stateMutability": "view",
      "type": "function"
    },
    {
      "inputs": [],
      "payable": false,
      "stateMutability": "nonpayable",
      "type": "constructor"
    },
    {
      "anonymous": false,
      "inputs": [
        {
          "indexed": false,
          "name": "account",
          "type": "address"
        }
      ],
      "name": "Pause",
      "type": "event"
    },
    {
      "anonymous": false,
      "inputs": [
        {
          "indexed": false,
          "name": "account",
          "type": "address"
        }
      ],
      "name": "Unpause",
      "type": "event"
    },
    {
      "anonymous": false,
      "inputs": [
        {
          "indexed": true,
          "name": "_moduleFactory",
          "type": "address"
        },
        {
          "indexed": true,
          "name": "_securityToken",
          "type": "address"
        }
      ],
      "name": "ModuleUsed",
      "type": "event"
    },
    {
      "anonymous": false,
      "inputs": [
        {
          "indexed": true,
          "name": "_moduleFactory",
          "type": "address"
        },
        {
          "indexed": true,
          "name": "_owner",
          "type": "address"
        }
      ],
      "name": "ModuleRegistered",
      "type": "event"
    },
    {
      "anonymous": false,
      "inputs": [
        {
          "indexed": true,
          "name": "_moduleFactory",
          "type": "address"
        }
      ],
      "name": "ModuleVerified",
      "type": "event"
    },
    {
      "anonymous": false,
      "inputs": [
        {
          "indexed": true,
          "name": "_moduleFactory",
          "type": "address"
        }
      ],
      "name": "ModuleUnverified",
      "type": "event"
    },
    {
      "anonymous": false,
      "inputs": [
        {
          "indexed": true,
          "name": "_moduleFactory",
          "type": "address"
        },
        {
          "indexed": true,
          "name": "_decisionMaker",
          "type": "address"
        }
      ],
      "name": "ModuleRemoved",
      "type": "event"
    },
    {
      "anonymous": false,
      "inputs": [
        {
          "indexed": true,
          "name": "previousOwner",
          "type": "address"
        },
        {
          "indexed": true,
          "name": "newOwner",
          "type": "address"
        }
      ],
      "name": "OwnershipTransferred",
      "type": "event"
    },
    {
      "constant": false,
      "inputs": [
        {
          "name": "_polymathRegistry",
          "type": "address"
        },
        {
          "name": "_owner",
          "type": "address"
        }
      ],
      "name": "initialize",
      "outputs": [],
      "payable": true,
      "stateMutability": "payable",
      "type": "function"
    },
    {
      "constant": false,
      "inputs": [
        {
          "name": "_moduleFactory",
          "type": "address"
        },
        {
          "name": "_isUpgrade",
          "type": "bool"
        }
      ],
      "name": "useModule",
      "outputs": [],
      "payable": false,
      "stateMutability": "nonpayable",
      "type": "function"
    },
    {
      "constant": true,
      "inputs": [
        {
          "name": "_moduleFactory",
          "type": "address"
        },
        {
          "name": "_securityToken",
          "type": "address"
        }
      ],
      "name": "isCompatibleModule",
      "outputs": [
        {
          "name": "",
          "type": "bool"
        }
      ],
      "payable": false,
      "stateMutability": "view",
      "type": "function"
    },
    {
      "constant": false,
      "inputs": [
        {
          "name": "_moduleFactory",
          "type": "address"
        }
      ],
      "name": "registerModule",
      "outputs": [],
      "payable": false,
      "stateMutability": "nonpayable",
      "type": "function"
    },
    {
      "constant": false,
      "inputs": [
        {
          "name": "_moduleFactory",
          "type": "address"
        }
      ],
      "name": "removeModule",
      "outputs": [],
      "payable": false,
      "stateMutability": "nonpayable",
      "type": "function"
    },
    {
      "constant": false,
      "inputs": [
        {
          "name": "_moduleFactory",
          "type": "address"
        }
      ],
      "name": "verifyModule",
      "outputs": [],
      "payable": false,
      "stateMutability": "nonpayable",
      "type": "function"
    },
    {
      "constant": false,
      "inputs": [
        {
          "name": "_moduleFactory",
          "type": "address"
        }
      ],
      "name": "unverifyModule",
      "outputs": [],
      "payable": false,
      "stateMutability": "nonpayable",
      "type": "function"
    },
    {
      "constant": true,
      "inputs": [
        {
          "name": "_moduleType",
          "type": "uint8"
        },
        {
          "name": "_securityToken",
          "type": "address"
        }
      ],
      "name": "getTagsByTypeAndToken",
      "outputs": [
        {
          "name": "",
          "type": "bytes32[]"
        },
        {
          "name": "",
          "type": "address[]"
        }
      ],
      "payable": false,
      "stateMutability": "view",
      "type": "function"
    },
    {
      "constant": true,
      "inputs": [
        {
          "name": "_moduleType",
          "type": "uint8"
        }
      ],
      "name": "getTagsByType",
      "outputs": [
        {
          "name": "",
          "type": "bytes32[]"
        },
        {
          "name": "",
          "type": "address[]"
        }
      ],
      "payable": false,
      "stateMutability": "view",
      "type": "function"
    },
    {
      "constant": true,
      "inputs": [
        {
          "name": "_factoryAddress",
          "type": "address"
        }
      ],
      "name": "getFactoryDetails",
      "outputs": [
        {
          "name": "",
          "type": "bool"
        },
        {
          "name": "",
          "type": "address"
        },
        {
          "name": "",
          "type": "address[]"
        }
      ],
      "payable": false,
      "stateMutability": "view",
      "type": "function"
    },
    {
      "constant": true,
      "inputs": [
        {
          "name": "_moduleType",
          "type": "uint8"
        }
      ],
      "name": "getModulesByType",
      "outputs": [
        {
          "name": "",
          "type": "address[]"
        }
      ],
      "payable": false,
      "stateMutability": "view",
      "type": "function"
    },
    {
      "constant": true,
      "inputs": [
        {
          "name": "_moduleType",
          "type": "uint8"
        }
      ],
      "name": "getAllModulesByType",
      "outputs": [
        {
          "name": "",
          "type": "address[]"
        }
      ],
      "payable": false,
      "stateMutability": "view",
      "type": "function"
    },
    {
      "constant": true,
      "inputs": [
        {
          "name": "_moduleType",
          "type": "uint8"
        },
        {
          "name": "_securityToken",
          "type": "address"
        }
      ],
      "name": "getModulesByTypeAndToken",
      "outputs": [
        {
          "name": "",
          "type": "address[]"
        }
      ],
      "payable": false,
      "stateMutability": "view",
      "type": "function"
    },
    {
      "constant": false,
      "inputs": [
        {
          "name": "_tokenContract",
          "type": "address"
        }
      ],
      "name": "reclaimERC20",
      "outputs": [],
      "payable": false,
      "stateMutability": "nonpayable",
      "type": "function"
    },
    {
      "constant": false,
      "inputs": [],
      "name": "pause",
      "outputs": [],
      "payable": false,
      "stateMutability": "nonpayable",
      "type": "function"
    },
    {
      "constant": false,
      "inputs": [],
      "name": "unpause",
      "outputs": [],
      "payable": false,
      "stateMutability": "nonpayable",
      "type": "function"
    },
    {
      "constant": false,
      "inputs": [],
      "name": "updateFromRegistry",
      "outputs": [],
      "payable": false,
      "stateMutability": "nonpayable",
      "type": "function"
    },
    {
      "constant": false,
      "inputs": [
        {
          "name": "_newOwner",
          "type": "address"
        }
      ],
      "name": "transferOwnership",
      "outputs": [],
      "payable": false,
      "stateMutability": "nonpayable",
      "type": "function"
    },
    {
      "constant": true,
      "inputs": [],
      "name": "owner",
      "outputs": [
        {
          "name": "",
          "type": "address"
        }
      ],
      "payable": false,
      "stateMutability": "view",
      "type": "function"
    },
    {
      "constant": true,
      "inputs": [],
      "name": "isPaused",
      "outputs": [
        {
          "name": "",
          "type": "bool"
        }
      ],
      "payable": false,
      "stateMutability": "view",
      "type": "function"
    }
  ],
  "bytecode": "0x608060405234801561001057600080fd5b50613c1f806100206000396000f3fe6080604052600436106101c65760003560e060020a900480638da5cb5b116100fb578063ad64ae4b11610099578063ea393b7511610068578063ea393b751461080b578063f2fde38b14610847578063f433262f1461087a578063f6fcbee11461088f576101c6565b8063ad64ae4b14610766578063b187bd2614610799578063cf5f591d146107ae578063e82617fb146107e1576101c6565b8063a1fe85dc116100d5578063a1fe85dc146106b8578063a209a29c146106e5578063a8f0d3a71461070f578063ac90b42214610739576101c6565b80638da5cb5b146106465780638ffa96901461065b578063a063246114610685576101c6565b8063485cc955116101685780636001f434116101425780636001f434146104f05780636f3b8ce2146105845780638456cb59146105fe5780638905fd4f14610613576101c6565b8063485cc9551461044f5780634ac24a9a1461047d5780634c77e5ba146104aa576101c6565b806330d88e1d116101a457806330d88e1d1461032b57806336ef22ce146103605780633f4ba83a1461039b57806344bfa56e146103b0576101c6565b8063025ec81a146101cb5780631a83bff014610207578063223a6580146102dc575b600080fd5b3480156101d757600080fd5b506101f5600480360360208110156101ee57600080fd5b50356108b9565b60408051918252519081900360200190f35b34801561021357600080fd5b506102436004803603604081101561022a57600080fd5b50803560ff169060200135600160a060020a03166108cb565b604051808060200180602001838103835285818151815260200191508051906020019060200280838360005b8381101561028757818101518382015260200161026f565b50505050905001838103825284818151815260200191508051906020019060200280838360005b838110156102c65781810151838201526020016102ae565b5050505090500194505050505060405180910390f35b3480156102e857600080fd5b50610317600480360360408110156102ff57600080fd5b50600160a060020a03813581169160200135166108f1565b604080519115158252519081900360200190f35b34801561033757600080fd5b5061035e6004803603602081101561034e57600080fd5b5035600160a060020a0316610b8e565b005b34801561036c57600080fd5b5061035e6004803603604081101561038357600080fd5b50600160a060020a0381351690602001351515610cd1565b3480156103a757600080fd5b5061035e61108d565b3480156103bc57600080fd5b506103da600480360360208110156103d357600080fd5b5035611195565b6040805160208082528351818301528351919283929083019185019080838360005b838110156104145781810151838201526020016103fc565b50505050905090810190601f1680156104415780820380516001836020036101000a031916815260200191505b509250505060405180910390f35b61035e6004803603604081101561046557600080fd5b50600160a060020a0381358116916020013516611236565b34801561048957600080fd5b50610243600480360360208110156104a057600080fd5b503560ff166113c4565b3480156104b657600080fd5b506104d4600480360360208110156104cd57600080fd5b50356113e7565b60408051600160a060020a039092168252519081900360200190f35b3480156104fc57600080fd5b506105236004803603602081101561051357600080fd5b5035600160a060020a0316611402565b604051808415151515815260200183600160a060020a0316600160a060020a031681526020018060200182810382528381815181526020019150805190602001906020028083836000838110156102c65781810151838201526020016102ae565b34801561059057600080fd5b506105ae600480360360208110156105a757600080fd5b50356114bb565b60408051602080825283518183015283519192839290830191858101910280838360005b838110156105ea5781810151838201526020016105d2565b505050509050019250505060405180910390f35b34801561060a57600080fd5b5061035e611526565b34801561061f57600080fd5b5061035e6004803603602081101561063657600080fd5b5035600160a060020a031661162f565b34801561065257600080fd5b506104d4611867565b34801561066757600080fd5b506103176004803603602081101561067e57600080fd5b5035611898565b34801561069157600080fd5b5061035e600480360360208110156106a857600080fd5b5035600160a060020a03166118ad565b3480156106c457600080fd5b506105ae600480360360208110156106db57600080fd5b503560ff16611c92565b3480156106f157600080fd5b506103da6004803603602081101561070857600080fd5b5035611cc7565b34801561071b57600080fd5b506105ae6004803603602081101561073257600080fd5b5035611d30565b34801561074557600080fd5b506105ae6004803603602081101561075c57600080fd5b503560ff16611d91565b34801561077257600080fd5b5061035e6004803603602081101561078957600080fd5b5035600160a060020a0316611ef9565b3480156107a557600080fd5b506103176124bb565b3480156107ba57600080fd5b5061035e600480360360208110156107d157600080fd5b5035600160a060020a03166124d4565b3480156107ed57600080fd5b506101f56004803603602081101561080457600080fd5b50356126df565b34801561081757600080fd5b506105ae6004803603604081101561082e57600080fd5b50803560ff169060200135600160a060020a03166126f1565b34801561085357600080fd5b5061035e6004803603602081101561086a57600080fd5b5035600160a060020a0316612b11565b34801561088657600080fd5b5061035e612c41565b34801561089b57600080fd5b506105ae600480360360208110156108b257600080fd5b5035612f15565b60009081526006602052604090205490565b60608060606108da85856126f1565b90506108e581612f75565b92509250509250929050565b6000606082600160a060020a0316630d8e6e2c6040518163ffffffff1660e060020a02815260040160006040518083038186803b15801561093157600080fd5b505afa158015610945573d6000803e3d6000fd5b505050506040513d6000823e601f3d908101601f19168201604052602081101561096e57600080fd5b81019080805164010000000081111561098657600080fd5b8201602081018481111561099957600080fd5b81518560208202830111640100000000821117156109b657600080fd5b50509291905050509050606084600160a060020a0316636d4e259c6040518163ffffffff1660e060020a02815260040160006040518083038186803b1580156109fe57600080fd5b505afa158015610a12573d6000803e3d6000fd5b505050506040513d6000823e601f3d908101601f191682016040526020811015610a3b57600080fd5b810190808051640100000000811115610a5357600080fd5b82016020810184811115610a6657600080fd5b8151856020820283011164010000000082111715610a8357600080fd5b50509291905050509050606085600160a060020a031663aa934d0c6040518163ffffffff1660e060020a02815260040160006040518083038186803b158015610acb57600080fd5b505afa158015610adf573d6000803e3d6000fd5b505050506040513d6000823e601f3d908101601f191682016040526020811015610b0857600080fd5b810190808051640100000000811115610b2057600080fd5b82016020810184811115610b3357600080fd5b8151856020820283011164010000000082111715610b5057600080fd5b505092919050505090506000610b668385613259565b90506000610b74838661335f565b9050818015610b805750805b955050505050505b92915050565b610b96611867565b600160a060020a031633600160a060020a031614610bec576040805160e560020a62461bcd0281526020600482015260146024820152600080516020613abc833981519152604482015290519081900360640190fd5b6000610c23610c1e604051806040016040528060088152602001600080516020613b2a8339815191528152508461345b565b6126df565b1415610c635760405160e560020a62461bcd028152600401808060200182810382526021815260200180613a7b6021913960400191505060405180910390fd5b610c9a610c93604051806040016040528060088152602001600080516020613b4a8339815191528152508361345b565b60016134fc565b604051600160a060020a038216907f6b4f33594281f0d3c33cb4efc71c1d349cc9614e44a6d44cf1f349e801ed9fd790600090a250565b610cf4600080516020613a9c833981519152610cec816126df565b60010161351c565b6000610d0d600080516020613a9c8339815191526126df565b9050610d1761352e565b15610e4e57610d51610d4c604051806040016040528060088152602001600080516020613b4a8339815191528152508561345b565b611898565b80610e0b575033600160a060020a0316638da5cb5b6040518163ffffffff1660e060020a02815260040160206040518083038186803b158015610d9357600080fd5b505afa158015610da7573d6000803e3d6000fd5b505050506040513d6020811015610dbd57600080fd5b505160408051808201909152600c8152600080516020613bd48339815191526020820152600160a060020a0390911690610e0090610dfb908661345b565b6113e7565b600160a060020a0316145b610e495760405160e560020a62461bcd0281526004018080602001828103825260518152602001806139eb6051913960600191505060405180910390fd5b610ed2565b610e7e610d4c604051806040016040528060088152602001600080516020613b4a8339815191528152508561345b565b610ed2576040805160e560020a62461bcd02815260206004820152601e60248201527f4d6f64756c65466163746f7279206d7573742062652076657269666965640000604482015290519081900360640190fd5b610efb7f12ada4f7ee6c2b7b933330be61fefa007a1f497dc8df1b349b48071a958d7a816113e7565b600160a060020a031663d300a968336040518263ffffffff1660e060020a0281526004018082600160a060020a0316600160a060020a0316815260200191505060206040518083038186803b158015610f5357600080fd5b505afa158015610f67573d6000803e3d6000fd5b505050506040513d6020811015610f7d57600080fd5b50511561106657610f8e83336108f1565b610fe2576040805160e560020a62461bcd02815260206004820152601560248201527f496e636f6d70617469626c652076657273696f6e730000000000000000000000604482015290519081900360640190fd5b816110665761102f6110296040518060400160405280600a81526020017f72657075746174696f6e000000000000000000000000000000000000000000008152508561345b565b33613601565b6040513390600160a060020a038516907ffd0013c5b822aafcc05b8cfdd6dfa336f40c31714b8bef8f2520e7036b9f079890600090a35b61107d600080516020613a9c8339815191526126df565b811461108857600080fd5b505050565b6110956124bb565b6110e9576040805160e560020a62461bcd02815260206004820152601460248201527f53686f756c64206e6f7420626520706175736564000000000000000000000000604482015290519081900360640190fd5b6110f1611867565b600160a060020a031633600160a060020a031614611147576040805160e560020a62461bcd0281526020600482015260146024820152600080516020613abc833981519152604482015290519081900360640190fd5b6111606000805160206139cb83398151915260006134fc565b6040805133815290517faeb196d352664784d1900b0e7414a8face7d29f4dae8c4b0cf68ed477423bbf49181900360200190a1565b60008181526003602090815260409182902080548351601f600260001961010060018616150201909316929092049182018490048402810184019094528084526060939283018282801561122a5780601f106111ff5761010080835404028352916020019161122a565b820191906000526020600020905b81548152906001019060200180831161120d57829003601f168201915b50505050509050919050565b61125f7f9ef7257c3339b099aacf96e55122ee78fb65a36bd2a6c19249882be9c98633bf611898565b156112b4576040805160e560020a62461bcd02815260206004820152601360248201527f616c726561647920696e697469616c697a656400000000000000000000000000604482015290519081900360640190fd5b600160a060020a038116158015906112d45750600160a060020a03821615155b611328576040805160e560020a62461bcd02815260206004820152601560248201527f3078206164647265737320697320696e76616c69640000000000000000000000604482015290519081900360640190fd5b6113527f90eeab7c36075577c7cc5ff366e389fefa8a18289b949bab3529ab4471139d4d8361364d565b61137c7f02016836a56b71f0d02689e69e326f4f4c1b9057164ef592671cf0d37c8040c08261364d565b6113956000805160206139cb83398151915260006134fc565b6113c07f9ef7257c3339b099aacf96e55122ee78fb65a36bd2a6c19249882be9c98633bf60016134fc565b5050565b60608060606113d284611d91565b90506113dd81612f75565b9250925050915091565b600090815260026020526040902054600160a060020a031690565b6000806060611437610d4c604051806040016040528060088152602001600080516020613b4a8339815191528152508661345b565b611467610dfb6040518060400160405280600c8152602001600080516020613bd48339815191528152508761345b565b6114ae6114a96040518060400160405280600a81526020017f72657075746174696f6e000000000000000000000000000000000000000000008152508861345b565b6114bb565b9250925092509193909250565b60008181526009602090815260409182902080548351818402810184019094528084526060939283018282801561122a57602002820191906000526020600020905b8154600160a060020a031681526001909101906020018083116114fd5750505050509050919050565b61152e6124bb565b15611583576040805160e560020a62461bcd02815260206004820152600e60248201527f416c726561647920706175736564000000000000000000000000000000000000604482015290519081900360640190fd5b61158b611867565b600160a060020a031633600160a060020a0316146115e1576040805160e560020a62461bcd0281526020600482015260146024820152600080516020613abc833981519152604482015290519081900360640190fd5b6115fa6000805160206139cb83398151915260016134fc565b6040805133815290517f5ee71a369c8672edded508e624ffc9257fa1ae6886ef32905c18e60196bca3999181900360200190a1565b611637611867565b600160a060020a031633600160a060020a03161461168d576040805160e560020a62461bcd0281526020600482015260146024820152600080516020613abc833981519152604482015290519081900360640190fd5b600160a060020a0381166116eb576040805160e560020a62461bcd02815260206004820152601560248201527f3078206164647265737320697320696e76616c69640000000000000000000000604482015290519081900360640190fd5b604080517f70a0823100000000000000000000000000000000000000000000000000000000815230600482015290518291600091600160a060020a038416916370a08231916024808301926020929190829003018186803b15801561174f57600080fd5b505afa158015611763573d6000803e3d6000fd5b505050506040513d602081101561177957600080fd5b50519050600160a060020a03821663a9059cbb611794611867565b836040518363ffffffff1660e060020a0281526004018083600160a060020a0316600160a060020a0316815260200182815260200192505050602060405180830381600087803b1580156117e757600080fd5b505af11580156117fb573d6000803e3d6000fd5b505050506040513d602081101561181157600080fd5b5051611088576040805160e560020a62461bcd02815260206004820152601560248201527f746f6b656e207472616e73666572206661696c65640000000000000000000000604482015290519081900360640190fd5b60006118927f02016836a56b71f0d02689e69e326f4f4c1b9057164ef592671cf0d37c8040c06113e7565b90505b90565b60009081526004602052604090205460ff1690565b6118b5613688565b60006118e7610c1e604051806040016040528060088152602001600080516020613b2a8339815191528152508461345b565b9050806119285760405160e560020a62461bcd028152600401808060200182810382526023815260200180613adc6023913960400191505060405180910390fd5b611930611867565b600160a060020a031633600160a060020a0316148061198f575061197a610dfb6040518060400160405280600c8152602001600080516020613bd48339815191528152508461345b565b600160a060020a031633600160a060020a0316145b6119cd5760405160e560020a62461bcd02815260040180806020018281038252603f815260200180613a3c603f913960400191505060405180910390fd5b60006119ff610c1e6040518060400160405280600f8152602001600080516020613bb48339815191528152508561345b565b905060006001611a356114a96040518060400160405280600a8152602001600080516020613b6a83398151915281525086613707565b510390506000611a6b6114a96040518060400160405280600a8152602001600080516020613b6a83398151915281525086613707565b8281518110611a7657fe5b60200260200101519050818314611af457611abe611ab76040518060400160405280600a8152602001600080516020613b6a83398151915281525086613707565b848361377c565b611af4611aee6040518060400160405280600f8152602001600080516020613bb48339815191528152508361345b565b8461351c565b611b2a611b246040518060400160405280600a8152602001600080516020613b6a83398151915281525086613707565b836137cc565b611b61611b5a604051806040016040528060088152602001600080516020613b2a8339815191528152508761345b565b600061351c565b611bb7611ba36040518060400160405280600a81526020017f72657075746174696f6e000000000000000000000000000000000000000000008152508761345b565b6040805160008152602081019091526138a4565b611bee611be7604051806040016040528060088152602001600080516020613b4a8339815191528152508761345b565b60006134fc565b611c1e611b5a6040518060400160405280600f8152602001600080516020613bb48339815191528152508761345b565b611c55611c4e6040518060400160405280600c8152602001600080516020613bd48339815191528152508761345b565b600061364d565b6040513390600160a060020a038716907fd66772358582078947c11fa70e2860b3ffa915277e6181a4aa293072cb57ed3c90600090a35050505050565b6060610b886114a96040518060400160405280600a8152602001600080516020613b6a8339815191528152508460ff16613707565b60008181526001602081815260409283902080548451600294821615610100026000190190911693909304601f8101839004830284018301909452838352606093909183018282801561122a5780601f106111ff5761010080835404028352916020019161122a565b60008181526007602090815260409182902080548351818402810184019094528084526060939283018282801561122a57602002820191906000526020600020905b815481526020019060010190808311611d725750505050509050919050565b606080611dc76114a96040518060400160405280600a8152602001600080516020613b6a8339815191528152508560ff16613707565b80519091506000805b82811015611e2f57611e1b610d4c604051806040016040528060088152602001600080516020613b4a833981519152815250868481518110611e0e57fe5b602002602001015161345b565b15611e27576001909101905b600101611dd0565b50606081604051908082528060200260200182016040528015611e5c578160200160208202803883390190505b50600092509050815b83811015611eef57611ea3610d4c604051806040016040528060088152602001600080516020613b4a833981519152815250878481518110611e0e57fe5b15611ee757848181518110611eb457fe5b6020026020010151828481518110611ec857fe5b600160a060020a03909216602092830291909101909101526001909201915b600101611e65565b5095945050505050565b611f01613688565b611f1c600080516020613a9c833981519152610cec816126df565b6000611f35600080516020613a9c8339815191526126df565b9050600082600160a060020a0316638da5cb5b6040518163ffffffff1660e060020a02815260040160206040518083038186803b158015611f7557600080fd5b505afa158015611f89573d6000803e3d6000fd5b505050506040513d6020811015611f9f57600080fd5b505160408051808201909152600c8152600080516020613bd48339815191526020820152909150611fda90611fd4908561345b565b8261364d565b611fe261352e565b156120595733600160a060020a03821614806120165750612001611867565b600160a060020a031633600160a060020a0316145b6120545760405160e560020a62461bcd02815260040180806020018281038252603f815260200180613a3c603f913960400191505060405180910390fd5b6120b3565b612061611867565b600160a060020a031633600160a060020a0316146120b35760405160e560020a62461bcd0281526004018080602001828103825260268152602001806139a56026913960400191505060405180910390fd5b6120e3610c1e604051806040016040528060088152602001600080516020613b2a8339815191528152508561345b565b156121225760405160e560020a62461bcd02815260040180806020018281038252602b815260200180613aff602b913960400191505060405180910390fd5b6000839050600080606083600160a060020a031663ccbff9796040518163ffffffff1660e060020a02815260040160006040518083038186803b15801561216857600080fd5b505afa15801561217c573d6000803e3d6000fd5b505050506040513d6000823e601f3d908101601f1916820160405260208110156121a557600080fd5b8101908080516401000000008111156121bd57600080fd5b820160208101848111156121d057600080fd5b81518560208202830111640100000000821117156121ed57600080fd5b5060019750909450505050505b80518310156122aa57600091505b8282101561229f5780828151811061221c57fe5b602002602001015160ff1681848151811061223357fe5b602002602001015160ff161415612294576040805160e560020a62461bcd02815260206004820152600d60248201527f54797065206d69736d6174636800000000000000000000000000000000000000604482015290519081900360640190fd5b600190910190612208565b6001909201916121fa565b8051612300576040805160e560020a62461bcd02815260206004820152601660248201527f466163746f7279206d7573742068617665207479706500000000000000000000604482015290519081900360640190fd5b60008160008151811061230f57fe5b602002602001015190508060ff1660001415612375576040805160e560020a62461bcd02815260206004820152600c60248201527f496e76616c696420747970650000000000000000000000000000000000000000604482015290519081900360640190fd5b6123ae6123a5604051806040016040528060088152602001600080516020613b2a8339815191528152508a61345b565b8260ff1661351c565b6124176123de6040518060400160405280600f8152602001600080516020613bb48339815191528152508a61345b565b6124116114a96040518060400160405280600a8152602001600080516020613b6a8339815191528152508560ff16613707565b5161351c565b61245061244a6040518060400160405280600a8152602001600080516020613b6a8339815191528152508360ff16613707565b89613601565b85600160a060020a031688600160a060020a03167f49220d7268f6ac850e2f0d39ce956e56f086a18cfda1383c05f9c859fdef901260405160405180910390a35050505050506124b0600080516020613a9c8339815191526001026126df565b81146113c057600080fd5b60006118926000805160206139cb833981519152611898565b6124ef600080516020613a9c833981519152610cec816126df565b6000612508600080516020613a9c8339815191526126df565b90506000612514611867565b600160a060020a031633600160a060020a0316149050600083600160a060020a031633600160a060020a03161490506000612575610dfb6040518060400160405280600c8152602001600080516020613bd48339815191528152508761345b565b600160a060020a031633600160a060020a031614905082806125945750815b8061259c5750805b6125f0576040805160e560020a62461bcd02815260206004820152600e60248201527f4e6f7420617574686f7269736564000000000000000000000000000000000000604482015290519081900360640190fd5b6000612622610c1e604051806040016040528060088152602001600080516020613b2a8339815191528152508861345b565b14156126625760405160e560020a62461bcd028152600401808060200182810382526021815260200180613a7b6021913960400191505060405180910390fd5b612692611be7604051806040016040528060088152602001600080516020613b4a8339815191528152508761345b565b604051600160a060020a038616907fbc7ce5f0f210af950fe3ce169a29ea85d52de86be246a738b2b5c11f6762b5f090600090a25050506124b0600080516020613a9c8339815191526001025b60009081526020819052604090205490565b6060806127276114a96040518060400160405280600a8152602001600080516020613b6a8339815191528152508660ff16613707565b8051909150600061273661352e565b90506000805b838110156128ce57821561287057612780610d4c604051806040016040528060088152602001600080516020613b4a833981519152815250878481518110611e0e57fe5b8061283d575086600160a060020a0316638da5cb5b6040518163ffffffff1660e060020a02815260040160206040518083038186803b1580156127c257600080fd5b505afa1580156127d6573d6000803e3d6000fd5b505050506040513d60208110156127ec57600080fd5b505160408051808201909152600c8152600080516020613bd483398151915260208201528651600160a060020a039092169161283291610dfb91899086908110611e0e57fe5b600160a060020a0316145b1561286b5761285f85828151811061285157fe5b6020026020010151886108f1565b1561286b576001909101905b6128c6565b6128a6610d4c604051806040016040528060088152602001600080516020613b4a833981519152815250878481518110611e0e57fe5b156128c6576128ba85828151811061285157fe5b156128c6576001909101905b60010161273c565b506060816040519080825280602002602001820160405280156128fb578160200160208202803883390190505b50600092509050815b84811015612b05578315612a6f5787600160a060020a0316638da5cb5b6040518163ffffffff1660e060020a02815260040160206040518083038186803b15801561294e57600080fd5b505afa158015612962573d6000803e3d6000fd5b505050506040513d602081101561297857600080fd5b505160408051808201909152600c8152600080516020613bd483398151915260208201528751600160a060020a03909216916129be91610dfb918a9086908110611e0e57fe5b600160a060020a03161480612a045750612a04610d4c604051806040016040528060088152602001600080516020613b4a833981519152815250888481518110611e0e57fe5b15612a6a57612a26868281518110612a1857fe5b6020026020010151896108f1565b15612a6a57858181518110612a3757fe5b6020026020010151828481518110612a4b57fe5b600160a060020a03909216602092830291909101909101526001909201915b612afd565b612aa5610d4c604051806040016040528060088152602001600080516020613b4a833981519152815250888481518110611e0e57fe5b15612afd57612ab9868281518110612a1857fe5b15612afd57858181518110612aca57fe5b6020026020010151828481518110612ade57fe5b600160a060020a03909216602092830291909101909101526001909201915b600101612904565b50979650505050505050565b612b19611867565b600160a060020a031633600160a060020a031614612b6f576040805160e560020a62461bcd0281526020600482015260146024820152600080516020613abc833981519152604482015290519081900360640190fd5b600160a060020a038116612bcd576040805160e560020a62461bcd02815260206004820152600f60248201527f496e76616c696420616464726573730000000000000000000000000000000000604482015290519081900360640190fd5b80600160a060020a0316612bdf611867565b600160a060020a03167f8be0079c531659141344cd1fd0a4f28419497f9722a3daafe3b4186f6b6457e060405160405180910390a3612c3e7f02016836a56b71f0d02689e69e326f4f4c1b9057164ef592671cf0d37c8040c08261364d565b50565b612c49611867565b600160a060020a031633600160a060020a031614612c9f576040805160e560020a62461bcd0281526020600482015260146024820152600080516020613abc833981519152604482015290519081900360640190fd5b6000612cca7f90eeab7c36075577c7cc5ff366e389fefa8a18289b949bab3529ab4471139d4d6113e7565b604080517fbf40fac1000000000000000000000000000000000000000000000000000000008152602060048201819052601560248301527f5365637572697479546f6b656e5265676973747279000000000000000000000060448301529151929350612daf927f12ada4f7ee6c2b7b933330be61fefa007a1f497dc8df1b349b48071a958d7a8192600160a060020a0386169263bf40fac19260648083019392829003018186803b158015612d7e57600080fd5b505afa158015612d92573d6000803e3d6000fd5b505050506040513d6020811015612da857600080fd5b505161364d565b604080517fbf40fac1000000000000000000000000000000000000000000000000000000008152602060048201819052600f60248301527f466561747572655265676973747279000000000000000000000000000000000060448301529151612e62927fed9ca06607835ad25ecacbcb97f2bc414d4a51ecf391b5ae42f15991227ab14692600160a060020a0386169263bf40fac192606480840193919291829003018186803b158015612d7e57600080fd5b604080517fbf40fac1000000000000000000000000000000000000000000000000000000008152602060048201819052600960248301527f506f6c79546f6b656e000000000000000000000000000000000000000000000060448301529151612c3e927facf8fbd51bb4b83ba426cdb12f63be74db97c412515797993d2a385542e311d792600160a060020a0386169263bf40fac192606480840193919291829003018186803b158015612d7e57600080fd5b60008181526008602090815260409182902080548351818402810184019094528084526060939283018282801561122a5760200282019190600052602060002090815481526020019060010190808311611d725750505050509050919050565b606080600080805b855182101561307057858281518110612f9257fe5b6020026020010151600160a060020a031663de6b7e096040518163ffffffff1660e060020a02815260040160006040518083038186803b158015612fd557600080fd5b505afa158015612fe9573d6000803e3d6000fd5b505050506040513d6000823e601f3d908101601f19168201604052602081101561301257600080fd5b81019080805164010000000081111561302a57600080fd5b8201602081018481111561303d57600080fd5b815185602082028301116401000000008211171561305a57600080fd5b5050519590950194505060019092019150612f7d565b60608360405190808252806020026020018201604052801561309c578160200160208202803883390190505b5090506060846040519080825280602002602001820160405280156130cb578160200160208202803883390190505b509050606060009550600094505b885185101561324b578885815181106130ee57fe5b6020026020010151600160a060020a031663de6b7e096040518163ffffffff1660e060020a02815260040160006040518083038186803b15801561313157600080fd5b505afa158015613145573d6000803e3d6000fd5b505050506040513d6000823e601f3d908101601f19168201604052602081101561316e57600080fd5b81019080805164010000000081111561318657600080fd5b8201602081018481111561319957600080fd5b81518560208202830111640100000000821117156131b657600080fd5b5060009850909450505050505b8051841015613240578084815181106131d857fe5b60200260200101518387815181106131ec57fe5b60200260200101818152505088858151811061320457fe5b602002602001015182878151811061321857fe5b600160a060020a039092166020928302919091019091015260019586019593909301926131c3565b6001909401936130d9565b509095509350505050915091565b6000825160031461326957600080fd5b815160031461327757600080fd5b60005b83518160ff16101561335557828160ff168151811061329557fe5b602002602001015160ff16848260ff16815181106132af57fe5b602002602001015160ff1614156132c55761334d565b828160ff16815181106132d457fe5b602002602001015160ff16848260ff16815181106132ee57fe5b602002602001015160ff161015613309576001915050610b88565b828160ff168151811061331857fe5b602002602001015160ff16848260ff168151811061333257fe5b602002602001015160ff16111561334d576000915050610b88565b60010161327a565b5060019392505050565b6000825160031461336f57600080fd5b815160031461337d57600080fd5b60005b83518160ff16101561335557828160ff168151811061339b57fe5b602002602001015160ff16848260ff16815181106133b557fe5b602002602001015160ff1614156133cb57613453565b828160ff16815181106133da57fe5b602002602001015160ff16848260ff16815181106133f457fe5b602002602001015160ff16111561340f576001915050610b88565b828160ff168151811061341e57fe5b602002602001015160ff16848260ff168151811061343857fe5b602002602001015160ff161015613453576000915050610b88565b600101613380565b600082826040516020018083805190602001908083835b602083106134915780518252601f199092019160209182019101613472565b6001836020036101000a03801982511681845116808217855250505050505090500182600160a060020a0316600160a060020a03166c010000000000000000000000000281526014019250505060405160208183030381529060405280519060200120905092915050565b600091825260046020526040909120805460ff1916911515919091179055565b60009182526020829052604090912055565b60006135597fed9ca06607835ad25ecacbcb97f2bc414d4a51ecf391b5ae42f15991227ab1466113e7565b600160a060020a0316632f0019f26040518163ffffffff1660e060020a0281526004018080602001828103825260148152602001807f637573746f6d4d6f64756c6573416c6c6f77656400000000000000000000000081525060200191505060206040518083038186803b1580156135d057600080fd5b505afa1580156135e4573d6000803e3d6000fd5b505050506040513d60208110156135fa57600080fd5b5051905090565b6000918252600960209081526040832080546001810182559084529220909101805473ffffffffffffffffffffffffffffffffffffffff1916600160a060020a03909216919091179055565b600091825260026020526040909120805473ffffffffffffffffffffffffffffffffffffffff1916600160a060020a03909216919091179055565b613690611867565b600160a060020a031633600160a060020a031614613705576136b06124bb565b15613705576040805160e560020a62461bcd02815260206004820152600660248201527f5061757365640000000000000000000000000000000000000000000000000000604482015290519081900360640190fd5b565b600082826040516020018083805190602001908083835b6020831061373d5780518252601f19909201916020918201910161371e565b51815160209384036101000a60001901801990921691161790529201938452506040805180850381529382019052825192019190912095945050505050565b600083815260096020526040902080548291908490811061379957fe5b9060005260206000200160006101000a815481600160a060020a030219169083600160a060020a03160217905550505050565b60008281526009602052604090208054821061381c5760405160e560020a62461bcd02815260040180806020018281038252602a815260200180613b8a602a913960400191505060405180910390fd5b80548190600019810190811061382e57fe5b9060005260206000200160009054906101000a9004600160a060020a031681838154811061385857fe5b6000918252602090912001805473ffffffffffffffffffffffffffffffffffffffff1916600160a060020a039290921691909117905580546000190161389e82826138c3565b50505050565b60008281526009602090815260409091208251611088928401906138e7565b81548183558181111561108857600083815260209020611088918101908301613959565b828054828255906000526020600020908101928215613949579160200282015b82811115613949578251825473ffffffffffffffffffffffffffffffffffffffff1916600160a060020a03909116178255602090920191600190910190613907565b50613955929150613973565b5090565b61189591905b80821115613955576000815560010161395f565b61189591905b8082111561395557805473ffffffffffffffffffffffffffffffffffffffff1916815560010161397956fe4f6e6c79206f776e657220616c6c6f77656420746f207265676973746572206d6f64756c6573ee35723ac350a69d2a92d3703f17439cbaadf2f093a21ba5bf5f1a53eb2a14d94d6f64756c65466163746f7279206d757374206265207665726966696564206f72205365637572697479546f6b656e206f776e6572206d757374206265204d6f64756c65466163746f7279206f776e65726d73672e73656e646572206d75737420626520746865204d6f64756c6520466163746f7279206f776e6572206f722072656769737472792063757261746f724d6f64756c6520666163746f7279206d7573742062652072656769737465726564ab99c6d7581cbb37d2e578d3097bfdd3323e05447f1fd7670b6c3a3fb9d9ff7973656e646572206d757374206265206f776e65720000000000000000000000004d6f64756c6520666163746f72792073686f756c6420626520726567697374657265644d6f64756c6520666163746f72792073686f756c64206e6f74206265207072652d72656769737465726564726567697374727900000000000000000000000000000000000000000000000076657269666965640000000000000000000000000000000000000000000000006d6f64756c654c69737400000000000000000000000000000000000000000000496e6465782073686f756c64206c657373207468616e206c656e677468206f66207468652061727261796d6f64756c654c697374496e6465780000000000000000000000000000000000666163746f72794f776e65720000000000000000000000000000000000000000a165627a7a723058209187573673a978392a38944318a0c0fab3a1cfc0337720278474829fab7463db0029",
  "source": "pragma solidity 0.5.8;\n\nimport \"openzeppelin-solidity/contracts/token/ERC20/IERC20.sol\";\nimport \"./interfaces/IModuleRegistry.sol\";\nimport \"./interfaces/IModuleFactory.sol\";\nimport \"./interfaces/ISecurityTokenRegistry.sol\";\nimport \"./interfaces/IPolymathRegistry.sol\";\nimport \"./interfaces/IFeatureRegistry.sol\";\nimport \"./libraries/VersionUtils.sol\";\nimport \"./storage/EternalStorage.sol\";\nimport \"./libraries/Encoder.sol\";\nimport \"./interfaces/IOwnable.sol\";\nimport \"./interfaces/ISecurityToken.sol\";\n\n/**\n* @title Registry contract to store registered modules\n* @notice Only Polymath can register and verify module factories to make them available for issuers to attach.\n*/\ncontract ModuleRegistry is IModuleRegistry, EternalStorage {\n    /*\n        // Mapping used to hold the type of module factory corresponds to the address of the Module factory contract\n        mapping (address => uint8) public registry;\n\n        // Mapping used to hold the reputation of the factory\n        mapping (address => address[]) public reputation;\n\n        // Mapping containing the list of addresses of Module Factories of a particular type\n        mapping (uint8 => address[]) public moduleList;\n\n        // Mapping to store the index of the Module Factory in the moduleList\n        mapping(address => uint8) private moduleListIndex;\n\n        // contains the list of verified modules\n        mapping (address => bool) public verified;\n\n    */\n\n    bytes32 constant INITIALIZE = 0x9ef7257c3339b099aacf96e55122ee78fb65a36bd2a6c19249882be9c98633bf; //keccak256(\"initialised\")\n    bytes32 constant LOCKED = 0xab99c6d7581cbb37d2e578d3097bfdd3323e05447f1fd7670b6c3a3fb9d9ff79; //keccak256(\"locked\")\n    bytes32 constant POLYTOKEN = 0xacf8fbd51bb4b83ba426cdb12f63be74db97c412515797993d2a385542e311d7; //keccak256(\"polyToken\")\n    bytes32 constant PAUSED = 0xee35723ac350a69d2a92d3703f17439cbaadf2f093a21ba5bf5f1a53eb2a14d9; //keccak256(\"paused\")\n    bytes32 constant OWNER = 0x02016836a56b71f0d02689e69e326f4f4c1b9057164ef592671cf0d37c8040c0; //keccak256(\"owner\")\n    bytes32 constant POLYMATHREGISTRY = 0x90eeab7c36075577c7cc5ff366e389fefa8a18289b949bab3529ab4471139d4d; //keccak256(\"polymathRegistry\")\n    bytes32 constant FEATURE_REGISTRY = 0xed9ca06607835ad25ecacbcb97f2bc414d4a51ecf391b5ae42f15991227ab146; //keccak256(\"featureRegistry\")\n    bytes32 constant SECURITY_TOKEN_REGISTRY = 0x12ada4f7ee6c2b7b933330be61fefa007a1f497dc8df1b349b48071a958d7a81; //keccak256(\"securityTokenRegistry\")\n    \n    ///////////////\n    //// Modifiers\n    ///////////////\n\n    /**\n     * @dev Throws if called by any account other than the owner.\n     */\n    modifier onlyOwner() {\n        require(msg.sender == owner(), \"sender must be owner\");\n        _;\n    }\n\n    /**\n     * @notice Modifier to make a function callable only when the contract is not paused.\n     */\n    modifier whenNotPausedOrOwner() {\n        _whenNotPausedOrOwner();\n        _;\n    }\n\n    function _whenNotPausedOrOwner() internal view {\n        if (msg.sender != owner()) {\n            require(!isPaused(), \"Paused\");\n        }\n    }\n\n    /**\n     * @notice Modifier to prevent reentrancy\n     */\n    modifier nonReentrant() {\n        set(LOCKED, getUintValue(LOCKED) + 1);\n        uint256 localCounter = getUintValue(LOCKED);\n        _;\n        require(localCounter == getUintValue(LOCKED));\n    }\n\n    /**\n     * @notice Modifier to make a function callable only when the contract is not paused and ignore is msg.sender is owner.\n     */\n    modifier whenNotPaused() {\n        require(!isPaused(), \"Already paused\");\n        _;\n    }\n\n    /**\n     * @notice Modifier to make a function callable only when the contract is paused.\n     */\n    modifier whenPaused() {\n        require(isPaused(), \"Should not be paused\");\n        _;\n    }\n\n    /////////////////////////////\n    // Initialization\n    /////////////////////////////\n\n    // Constructor\n    constructor() public {\n\n    }\n\n    function initialize(address _polymathRegistry, address _owner) external payable {\n        require(!getBoolValue(INITIALIZE), \"already initialized\");\n        require(_owner != address(0) && _polymathRegistry != address(0), \"0x address is invalid\");\n        set(POLYMATHREGISTRY, _polymathRegistry);\n        set(OWNER, _owner);\n        set(PAUSED, false);\n        set(INITIALIZE, true);\n    }\n\n    function _customModules() internal view returns (bool) {\n        return IFeatureRegistry(getAddressValue(FEATURE_REGISTRY)).getFeatureStatus(\"customModulesAllowed\");\n    }\n\n    /**\n     * @notice Called by a SecurityToken to check if the ModuleFactory is verified or appropriate custom module\n     * @dev ModuleFactory reputation increases by one every time it is deployed(used) by a ST.\n     * @dev Any module can be added during token creation without being registered if it is defined in the token proxy deployment contract\n     * @dev The feature switch for custom modules is labelled \"customModulesAllowed\"\n     * @param _moduleFactory is the address of the relevant module factory\n     * @param _isUpgrade whether or not the function is being called as a result of an upgrade\n     */\n    function useModule(address _moduleFactory, bool _isUpgrade) external nonReentrant {\n        if (_customModules()) {\n            require(\n                getBoolValue(Encoder.getKey(\"verified\", _moduleFactory)) || getAddressValue(Encoder.getKey(\"factoryOwner\", _moduleFactory))\n                    == IOwnable(msg.sender).owner(),\n                \"ModuleFactory must be verified or SecurityToken owner must be ModuleFactory owner\"\n            );\n        } else {\n            require(getBoolValue(Encoder.getKey(\"verified\", _moduleFactory)), \"ModuleFactory must be verified\");\n        }\n        // This if statement is required to be able to add modules from the STFactory contract during deployment\n        // before the token has been registered to the STR.\n        if (ISecurityTokenRegistry(getAddressValue(SECURITY_TOKEN_REGISTRY)).isSecurityToken(msg.sender)) {\n            require(isCompatibleModule(_moduleFactory, msg.sender), \"Incompatible versions\");\n            if (!_isUpgrade) {\n                pushArray(Encoder.getKey(\"reputation\", _moduleFactory), msg.sender);\n                emit ModuleUsed(_moduleFactory, msg.sender);\n            }\n        }\n    }\n\n    /**\n     * @notice Check that a module and its factory are compatible\n     * @param _moduleFactory is the address of the relevant module factory\n     * @param _securityToken is the address of the relevant security token\n     * @return bool whether module and token are compatible\n     */\n    function isCompatibleModule(address _moduleFactory, address _securityToken) public view returns(bool) {\n        uint8[] memory _latestVersion = ISecurityToken(_securityToken).getVersion();\n        uint8[] memory _lowerBound = IModuleFactory(_moduleFactory).lowerSTVersionBounds();\n        uint8[] memory _upperBound = IModuleFactory(_moduleFactory).upperSTVersionBounds();\n        bool _isLowerAllowed = VersionUtils.lessThanOrEqual(_lowerBound, _latestVersion);\n        bool _isUpperAllowed = VersionUtils.greaterThanOrEqual(_upperBound, _latestVersion);\n        return (_isLowerAllowed && _isUpperAllowed);\n    }\n\n    /**\n     * @notice Called by the ModuleFactory owner to register new modules for SecurityTokens to use\n     * @param _moduleFactory is the address of the module factory to be registered\n     */\n    function registerModule(address _moduleFactory) external whenNotPausedOrOwner nonReentrant {\n        address factoryOwner = IOwnable(_moduleFactory).owner();\n        // This is set statically to avoid having to call back out to unverified factories to determine owner\n        set(Encoder.getKey(\"factoryOwner\", _moduleFactory), factoryOwner);\n        if (_customModules()) {\n            require(\n                msg.sender == factoryOwner || msg.sender == owner(),\n                \"msg.sender must be the Module Factory owner or registry curator\"\n            );\n        } else {\n            require(msg.sender == owner(), \"Only owner allowed to register modules\");\n        }\n        require(getUintValue(Encoder.getKey(\"registry\", _moduleFactory)) == 0, \"Module factory should not be pre-registered\");\n        IModuleFactory moduleFactory = IModuleFactory(_moduleFactory);\n        //Enforce type uniqueness\n        uint256 i;\n        uint256 j;\n        uint8[] memory moduleTypes = moduleFactory.types();\n        for (i = 1; i < moduleTypes.length; i++) {\n            for (j = 0; j < i; j++) {\n                require(moduleTypes[i] != moduleTypes[j], \"Type mismatch\");\n            }\n        }\n        require(moduleTypes.length != 0, \"Factory must have type\");\n        // NB - here we index by the first type of the module.\n        uint8 moduleType = moduleTypes[0];\n        require(uint256(moduleType) != 0, \"Invalid type\");\n        set(Encoder.getKey(\"registry\", _moduleFactory), uint256(moduleType));\n        set(\n            Encoder.getKey(\"moduleListIndex\", _moduleFactory),\n            uint256(getArrayAddress(Encoder.getKey(\"moduleList\", uint256(moduleType))).length)\n        );\n        pushArray(Encoder.getKey(\"moduleList\", uint256(moduleType)), _moduleFactory);\n        emit ModuleRegistered(_moduleFactory, factoryOwner);\n    }\n\n    /**\n     * @notice Called by the ModuleFactory owner or registry curator to delete a ModuleFactory from the registry\n     * @param _moduleFactory is the address of the module factory to be deleted from the registry\n     */\n    function removeModule(address _moduleFactory) external whenNotPausedOrOwner {\n        uint256 moduleType = getUintValue(Encoder.getKey(\"registry\", _moduleFactory));\n\n        require(moduleType != 0, \"Module factory should be registered\");\n        require(\n            msg.sender == owner() || msg.sender == getAddressValue(Encoder.getKey(\"factoryOwner\", _moduleFactory)),\n            \"msg.sender must be the Module Factory owner or registry curator\"\n        );\n        uint256 index = getUintValue(Encoder.getKey(\"moduleListIndex\", _moduleFactory));\n        uint256 last = getArrayAddress(Encoder.getKey(\"moduleList\", moduleType)).length - 1;\n        address temp = getArrayAddress(Encoder.getKey(\"moduleList\", moduleType))[last];\n\n        // pop from array and re-order\n        if (index != last) {\n            // moduleList[moduleType][index] = temp;\n            setArrayIndexValue(Encoder.getKey(\"moduleList\", moduleType), index, temp);\n            set(Encoder.getKey(\"moduleListIndex\", temp), index);\n        }\n        deleteArrayAddress(Encoder.getKey(\"moduleList\", moduleType), last);\n\n        // delete registry[_moduleFactory];\n        set(Encoder.getKey(\"registry\", _moduleFactory), uint256(0));\n        // delete reputation[_moduleFactory];\n        setArray(Encoder.getKey(\"reputation\", _moduleFactory), new address[](0));\n        // delete verified[_moduleFactory];\n        set(Encoder.getKey(\"verified\", _moduleFactory), false);\n        // delete moduleListIndex[_moduleFactory];\n        set(Encoder.getKey(\"moduleListIndex\", _moduleFactory), uint256(0));\n        // delete module owner\n        set(Encoder.getKey(\"factoryOwner\", _moduleFactory), address(0));\n        emit ModuleRemoved(_moduleFactory, msg.sender);\n    }\n\n    /**\n    * @notice Called by Polymath to verify Module Factories for SecurityTokens to use.\n    * @notice A module can not be used by an ST unless first approved/verified by Polymath\n    * @notice (The only exception to this is that the author of the module is the owner of the ST)\n    * @notice -> Only if Polymath enabled the feature.\n    * @param _moduleFactory is the address of the module factory to be verified\n    */\n    function verifyModule(address _moduleFactory) external onlyOwner {\n        require(getUintValue(Encoder.getKey(\"registry\", _moduleFactory)) != uint256(0), \"Module factory must be registered\");\n        set(Encoder.getKey(\"verified\", _moduleFactory), true);\n        emit ModuleVerified(_moduleFactory);\n    }\n\n    /**\n    * @notice Called by Polymath to verify Module Factories for SecurityTokens to use.\n    * @notice A module can not be used by an ST unless first approved/verified by Polymath\n    * @notice (The only exception to this is that the author of the module is the owner of the ST)\n    * @notice -> Only if Polymath enabled the feature.\n    * @param _moduleFactory is the address of the module factory to be verified\n    */\n    function unverifyModule(address _moduleFactory) external nonReentrant {\n        // Can be called by the registry owner, the module factory, or the module factory owner\n        bool isOwner = msg.sender == owner();\n        bool isFactory = msg.sender == _moduleFactory;\n        bool isFactoryOwner = msg.sender == getAddressValue(Encoder.getKey(\"factoryOwner\", _moduleFactory));\n        require(isOwner || isFactory || isFactoryOwner, \"Not authorised\");\n        require(getUintValue(Encoder.getKey(\"registry\", _moduleFactory)) != uint256(0), \"Module factory must be registered\");\n        set(Encoder.getKey(\"verified\", _moduleFactory), false);\n        emit ModuleUnverified(_moduleFactory);\n    }\n\n    /**\n     * @notice Returns all the tags related to the a module type which are valid for the given token\n     * @param _moduleType is the module type\n     * @param _securityToken is the token\n     * @return list of tags\n     * @return corresponding list of module factories\n     */\n    function getTagsByTypeAndToken(uint8 _moduleType, address _securityToken) external view returns(bytes32[] memory, address[] memory) {\n        address[] memory modules = getModulesByTypeAndToken(_moduleType, _securityToken);\n        return _tagsByModules(modules);\n    }\n\n    /**\n     * @notice Returns all the tags related to the a module type which are valid for the given token\n     * @param _moduleType is the module type\n     * @return list of tags\n     * @return corresponding list of module factories\n     */\n    function getTagsByType(uint8 _moduleType) external view returns(bytes32[] memory, address[] memory) {\n        address[] memory modules = getModulesByType(_moduleType);\n        return _tagsByModules(modules);\n    }\n\n    /**\n     * @notice Returns all the tags related to the modules provided\n     * @param _modules modules to return tags for\n     * @return list of tags\n     * @return corresponding list of module factories\n     */\n    function _tagsByModules(address[] memory _modules) internal view returns(bytes32[] memory, address[] memory) {\n        uint256 counter = 0;\n        uint256 i;\n        uint256 j;\n        for (i = 0; i < _modules.length; i++) {\n            counter = counter + IModuleFactory(_modules[i]).tags().length;\n        }\n        bytes32[] memory tags = new bytes32[](counter);\n        address[] memory modules = new address[](counter);\n        bytes32[] memory tempTags;\n        counter = 0;\n        for (i = 0; i < _modules.length; i++) {\n            tempTags = IModuleFactory(_modules[i]).tags();\n            for (j = 0; j < tempTags.length; j++) {\n                tags[counter] = tempTags[j];\n                modules[counter] = _modules[i];\n                counter++;\n            }\n        }\n        return (tags, modules);\n    }\n\n    /**\n     * @notice Returns the verified status, and reputation of the entered Module Factory\n     * @param _factoryAddress is the address of the module factory\n     * @return bool indicating whether module factory is verified\n     * @return address of the factory owner\n     * @return address array which contains the list of securityTokens that use that module factory\n     */\n    function getFactoryDetails(address _factoryAddress) external view returns(bool, address, address[] memory) {\n        return (getBoolValue(Encoder.getKey(\"verified\", _factoryAddress)), getAddressValue(Encoder.getKey(\"factoryOwner\", _factoryAddress)), getArrayAddress(Encoder.getKey(\"reputation\", _factoryAddress)));\n    }\n\n    /**\n     * @notice Returns the list of addresses of verified Module Factory of a particular type\n     * @param _moduleType Type of Module\n     * @return address array that contains the list of addresses of module factory contracts.\n     */\n    function getModulesByType(uint8 _moduleType) public view returns(address[] memory) {\n        address[] memory _addressList = getArrayAddress(Encoder.getKey(\"moduleList\", uint256(_moduleType)));\n        uint256 _len = _addressList.length;\n        uint256 counter = 0;\n        for (uint256 i = 0; i < _len; i++) {\n            if (getBoolValue(Encoder.getKey(\"verified\", _addressList[i]))) {\n                counter++;\n            }\n        }\n        address[] memory _tempArray = new address[](counter);\n        counter = 0;\n        for (uint256 j = 0; j < _len; j++) {\n            if (getBoolValue(Encoder.getKey(\"verified\", _addressList[j]))) {\n                _tempArray[counter] = _addressList[j];\n                counter++;\n            }\n        }\n        return _tempArray;\n    }\n\n\n    /**\n     * @notice Returns the list of addresses of all Module Factory of a particular type\n     * @param _moduleType Type of Module\n     * @return address array that contains the list of addresses of module factory contracts.\n     */\n    function getAllModulesByType(uint8 _moduleType) external view returns(address[] memory) {\n        return getArrayAddress(Encoder.getKey(\"moduleList\", uint256(_moduleType)));\n    }\n\n    /**\n     * @notice Returns the list of available Module factory addresses of a particular type for a given token.\n     * @param _moduleType is the module type to look for\n     * @param _securityToken is the address of SecurityToken\n     * @return address array that contains the list of available addresses of module factory contracts.\n     */\n    function getModulesByTypeAndToken(uint8 _moduleType, address _securityToken) public view returns(address[] memory) {\n        address[] memory _addressList = getArrayAddress(Encoder.getKey(\"moduleList\", uint256(_moduleType)));\n        uint256 _len = _addressList.length;\n        bool _isCustomModuleAllowed = _customModules();\n        uint256 counter = 0;\n        for (uint256 i = 0; i < _len; i++) {\n            if (_isCustomModuleAllowed) {\n                if (getBoolValue(\n                    Encoder.getKey(\"verified\", _addressList[i])) || getAddressValue(Encoder.getKey(\"factoryOwner\", _addressList[i])) == IOwnable(_securityToken).owner()\n                ) if (isCompatibleModule(_addressList[i], _securityToken)) counter++;\n            } else if (getBoolValue(Encoder.getKey(\"verified\", _addressList[i]))) {\n                if (isCompatibleModule(_addressList[i], _securityToken)) counter++;\n            }\n        }\n        address[] memory _tempArray = new address[](counter);\n        counter = 0;\n        for (uint256 j = 0; j < _len; j++) {\n            if (_isCustomModuleAllowed) {\n                if (getAddressValue(Encoder.getKey(\"factoryOwner\", _addressList[j])) == IOwnable(_securityToken).owner() || getBoolValue(\n                    Encoder.getKey(\"verified\", _addressList[j])\n                )) {\n                    if (isCompatibleModule(_addressList[j], _securityToken)) {\n                        _tempArray[counter] = _addressList[j];\n                        counter++;\n                    }\n                }\n            } else if (getBoolValue(Encoder.getKey(\"verified\", _addressList[j]))) {\n                if (isCompatibleModule(_addressList[j], _securityToken)) {\n                    _tempArray[counter] = _addressList[j];\n                    counter++;\n                }\n            }\n        }\n        return _tempArray;\n    }\n\n    /**\n    * @notice Reclaims all ERC20Basic compatible tokens\n    * @param _tokenContract The address of the token contract\n    */\n    function reclaimERC20(address _tokenContract) external onlyOwner {\n        require(_tokenContract != address(0), \"0x address is invalid\");\n        IERC20 token = IERC20(_tokenContract);\n        uint256 balance = token.balanceOf(address(this));\n        require(token.transfer(owner(), balance), \"token transfer failed\");\n    }\n\n    /**\n     * @notice Called by the owner to pause, triggers stopped state\n     */\n    function pause() external whenNotPaused onlyOwner {\n        set(PAUSED, true);\n        /*solium-disable-next-line security/no-block-members*/\n        emit Pause(msg.sender);\n    }\n\n    /**\n     * @notice Called by the owner to unpause, returns to normal state\n     */\n    function unpause() external whenPaused onlyOwner {\n        set(PAUSED, false);\n        /*solium-disable-next-line security/no-block-members*/\n        emit Unpause(msg.sender);\n    }\n\n    /**\n     * @notice Stores the contract addresses of other key contracts from the PolymathRegistry\n     */\n    function updateFromRegistry() external onlyOwner {\n        address _polymathRegistry = getAddressValue(POLYMATHREGISTRY);\n        set(SECURITY_TOKEN_REGISTRY, IPolymathRegistry(_polymathRegistry).getAddress(\"SecurityTokenRegistry\"));\n        set(FEATURE_REGISTRY, IPolymathRegistry(_polymathRegistry).getAddress(\"FeatureRegistry\"));\n        set(POLYTOKEN, IPolymathRegistry(_polymathRegistry).getAddress(\"PolyToken\"));\n    }\n\n    /**\n    * @dev Allows the current owner to transfer control of the contract to a newOwner.\n    * @param _newOwner The address to transfer ownership to.\n    */\n    function transferOwnership(address _newOwner) external onlyOwner {\n        require(_newOwner != address(0), \"Invalid address\");\n        emit OwnershipTransferred(owner(), _newOwner);\n        set(OWNER, _newOwner);\n    }\n\n    /**\n     * @notice Gets the owner of the contract\n     * @return address owner\n     */\n    function owner() public view returns(address) {\n        return getAddressValue(OWNER);\n    }\n\n    /**\n     * @notice Checks whether the contract operations is paused or not\n     * @return bool\n     */\n    function isPaused() public view returns(bool) {\n        return getBoolValue(PAUSED);\n    }\n}\n",
  "sourcePath": "/Users/federicoelgarte/Polymath/polymath-core/contracts/ModuleRegistry.sol",
  "compiler": {
    "name": "solc",
    "version": "0.5.8+commit.23d335f2.Emscripten.clang"
  },
  "schemaVersion": "3.0.2",
  "updatedAt": "2019-06-21T16:15:52.283Z",
  "devdoc": {
    "methods": {
      "getAllModulesByType(uint8)": {
        "params": {
          "_moduleType": "Type of Module"
        },
        "return": "address array that contains the list of addresses of module factory contracts."
      },
      "getFactoryDetails(address)": {
        "params": {
          "_factoryAddress": "is the address of the module factory"
        },
        "return": "bool indicating whether module factory is verifiedaddress of the factory owneraddress array which contains the list of securityTokens that use that module factory"
      },
      "getModulesByType(uint8)": {
        "params": {
          "_moduleType": "Type of Module"
        },
        "return": "address array that contains the list of addresses of module factory contracts."
      },
      "getModulesByTypeAndToken(uint8,address)": {
        "params": {
          "_moduleType": "is the module type to look for",
          "_securityToken": "is the address of SecurityToken"
        },
        "return": "address array that contains the list of available addresses of module factory contracts."
      },
      "getTagsByType(uint8)": {
        "params": {
          "_moduleType": "is the module type"
        },
        "return": "list of tagscorresponding list of module factories"
      },
      "getTagsByTypeAndToken(uint8,address)": {
        "params": {
          "_moduleType": "is the module type",
          "_securityToken": "is the token"
        },
        "return": "list of tagscorresponding list of module factories"
      },
      "isCompatibleModule(address,address)": {
        "params": {
          "_moduleFactory": "is the address of the relevant module factory",
          "_securityToken": "is the address of the relevant security token"
        },
        "return": "bool whether module and token are compatible"
      },
      "isPaused()": {
        "return": "bool"
      },
      "owner()": {
        "return": "address owner"
      },
      "reclaimERC20(address)": {
        "params": {
          "_tokenContract": "The address of the token contract"
        }
      },
      "registerModule(address)": {
        "params": {
          "_moduleFactory": "is the address of the module factory to be registered"
        }
      },
      "removeModule(address)": {
        "params": {
          "_moduleFactory": "is the address of the module factory to be deleted from the registry"
        }
      },
      "transferOwnership(address)": {
        "details": "Allows the current owner to transfer control of the contract to a newOwner.",
        "params": {
          "_newOwner": "The address to transfer ownership to."
        }
      },
      "unverifyModule(address)": {
        "params": {
          "_moduleFactory": "is the address of the module factory to be verified"
        }
      },
      "useModule(address,bool)": {
        "details": "ModuleFactory reputation increases by one every time it is deployed(used) by a ST.Any module can be added during token creation without being registered if it is defined in the token proxy deployment contractThe feature switch for custom modules is labelled \"customModulesAllowed\"",
        "params": {
          "_isUpgrade": "whether or not the function is being called as a result of an upgrade",
          "_moduleFactory": "is the address of the relevant module factory"
        }
      },
      "verifyModule(address)": {
        "params": {
          "_moduleFactory": "is the address of the module factory to be verified"
        }
      }
    },
    "title": "Registry contract to store registered modules"
  },
  "userdoc": {
    "methods": {
      "constructor": "//////////////////////////",
      "getAllModulesByType(uint8)": {
        "notice": "Returns the list of addresses of all Module Factory of a particular type"
      },
      "getArrayAddress(bytes32)": {
        "notice": "////////////////////// getArray functions //////////////////////Get functions to get the array of the required data type Ex1- mapping(address => bytes32[]) tokensOwnedByOwner; getArrayBytes32(keccak256(abi.encodePacked(\"tokensOwnedByOwner\", 0x1)); It return the bytes32 array Ex2- uint256 _len =  tokensOwnedByOwner[0x1].length; replace with getArrayBytes32(keccak256(abi.encodePacked(\"tokensOwnedByOwner\", 0x1)).length;"
      },
      "getFactoryDetails(address)": {
        "notice": "Returns the verified status, and reputation of the entered Module Factory"
      },
      "getModulesByType(uint8)": {
        "notice": "Returns the list of addresses of verified Module Factory of a particular type"
      },
      "getModulesByTypeAndToken(uint8,address)": {
        "notice": "Returns the list of available Module factory addresses of a particular type for a given token."
      },
      "getTagsByType(uint8)": {
        "notice": "Returns all the tags related to the a module type which are valid for the given token"
      },
      "getTagsByTypeAndToken(uint8,address)": {
        "notice": "Returns all the tags related to the a module type which are valid for the given token"
      },
      "getUintValue(bytes32)": {
        "notice": "Public getters functionsGet function use to get the value of the singleton state variables Ex1- string public version = \"0.0.1\"; string _version = getString(keccak256(abi.encodePacked(\"version\")); Ex2 - assert(temp1 == temp2); replace to assert(getUint(keccak256(abi.encodePacked(temp1)) == getUint(keccak256(abi.encodePacked(temp2)); Ex3 - mapping(string => SymbolDetails) registeredSymbols; where SymbolDetails is the structure having different type of values as {uint256 date, string name, address owner} etc. string _name = getString(keccak256(abi.encodePacked(\"registeredSymbols_name\", \"TOKEN\"));"
      },
      "isCompatibleModule(address,address)": {
        "notice": "Check that a module and its factory are compatible"
      },
      "isPaused()": {
        "notice": "Checks whether the contract operations is paused or not"
      },
      "owner()": {
        "notice": "Gets the owner of the contract"
      },
      "pause()": {
        "notice": "Called by the owner to pause, triggers stopped state"
      },
      "reclaimERC20(address)": {
        "notice": "Reclaims all ERC20Basic compatible tokens"
      },
      "registerModule(address)": {
        "notice": "Called by the ModuleFactory owner to register new modules for SecurityTokens to use"
      },
      "removeModule(address)": {
        "notice": "Called by the ModuleFactory owner or registry curator to delete a ModuleFactory from the registry"
      },
      "unpause()": {
        "notice": "Called by the owner to unpause, returns to normal state"
      },
      "unverifyModule(address)": {
        "notice": "Called by Polymath to verify Module Factories for SecurityTokens to use.A module can not be used by an ST unless first approved/verified by Polymath(The only exception to this is that the author of the module is the owner of the ST)-> Only if Polymath enabled the feature."
      },
      "updateFromRegistry()": {
        "notice": "Stores the contract addresses of other key contracts from the PolymathRegistry"
      },
      "useModule(address,bool)": {
        "notice": "Called by a SecurityToken to check if the ModuleFactory is verified or appropriate custom module"
      },
      "verifyModule(address)": {
        "notice": "Called by Polymath to verify Module Factories for SecurityTokens to use.A module can not be used by an ST unless first approved/verified by Polymath(The only exception to this is that the author of the module is the owner of the ST)-> Only if Polymath enabled the feature."
      }
    },
    "notice": "Only Polymath can register and verify module factories to make them available for issuers to attach."
  }
}