{
  "contractName": "ModuleRegistry",
  "abi": [
    {
      "constant": true,
      "inputs": [
        {
          "name": "_variable",
          "type": "bytes32"
        }
      ],
      "name": "getBytes32Value",
      "outputs": [
        {
          "name": "",
          "type": "bytes32"
        }
      ],
      "payable": false,
      "stateMutability": "view",
      "type": "function"
    },
    {
      "constant": true,
      "inputs": [
        {
          "name": "_variable",
          "type": "bytes32"
        }
      ],
      "name": "getBytesValue",
      "outputs": [
        {
          "name": "",
          "type": "bytes"
        }
      ],
      "payable": false,
      "stateMutability": "view",
      "type": "function"
    },
    {
      "constant": true,
      "inputs": [
        {
          "name": "_variable",
          "type": "bytes32"
        }
      ],
      "name": "getAddressValue",
      "outputs": [
        {
          "name": "",
          "type": "address"
        }
      ],
      "payable": false,
      "stateMutability": "view",
      "type": "function"
    },
    {
      "constant": true,
      "inputs": [
        {
          "name": "_key",
          "type": "bytes32"
        }
      ],
      "name": "getArrayAddress",
      "outputs": [
        {
          "name": "",
          "type": "address[]"
        }
      ],
      "payable": false,
      "stateMutability": "view",
      "type": "function"
    },
    {
      "constant": true,
      "inputs": [
        {
          "name": "_variable",
          "type": "bytes32"
        }
      ],
      "name": "getBoolValue",
      "outputs": [
        {
          "name": "",
          "type": "bool"
        }
      ],
      "payable": false,
      "stateMutability": "view",
      "type": "function"
    },
    {
      "constant": true,
      "inputs": [
        {
          "name": "_variable",
          "type": "bytes32"
        }
      ],
      "name": "getStringValue",
      "outputs": [
        {
          "name": "",
          "type": "string"
        }
      ],
      "payable": false,
      "stateMutability": "view",
      "type": "function"
    },
    {
      "constant": true,
      "inputs": [
        {
          "name": "_key",
          "type": "bytes32"
        }
      ],
      "name": "getArrayBytes32",
      "outputs": [
        {
          "name": "",
          "type": "bytes32[]"
        }
      ],
      "payable": false,
      "stateMutability": "view",
      "type": "function"
    },
    {
      "constant": true,
      "inputs": [
        {
          "name": "_variable",
          "type": "bytes32"
        }
      ],
      "name": "getUintValue",
      "outputs": [
        {
          "name": "",
          "type": "uint256"
        }
      ],
      "payable": false,
      "stateMutability": "view",
      "type": "function"
    },
    {
      "constant": true,
      "inputs": [
        {
          "name": "_key",
          "type": "bytes32"
        }
      ],
      "name": "getArrayUint",
      "outputs": [
        {
          "name": "",
          "type": "uint256[]"
        }
      ],
      "payable": false,
      "stateMutability": "view",
      "type": "function"
    },
    {
      "inputs": [],
      "payable": false,
      "stateMutability": "nonpayable",
      "type": "constructor"
    },
    {
      "anonymous": false,
      "inputs": [
        {
          "indexed": false,
          "name": "account",
          "type": "address"
        }
      ],
      "name": "Pause",
      "type": "event"
    },
    {
      "anonymous": false,
      "inputs": [
        {
          "indexed": false,
          "name": "account",
          "type": "address"
        }
      ],
      "name": "Unpause",
      "type": "event"
    },
    {
      "anonymous": false,
      "inputs": [
        {
          "indexed": true,
          "name": "_moduleFactory",
          "type": "address"
        },
        {
          "indexed": true,
          "name": "_securityToken",
          "type": "address"
        }
      ],
      "name": "ModuleUsed",
      "type": "event"
    },
    {
      "anonymous": false,
      "inputs": [
        {
          "indexed": true,
          "name": "_moduleFactory",
          "type": "address"
        },
        {
          "indexed": true,
          "name": "_owner",
          "type": "address"
        }
      ],
      "name": "ModuleRegistered",
      "type": "event"
    },
    {
      "anonymous": false,
      "inputs": [
        {
          "indexed": true,
          "name": "_moduleFactory",
          "type": "address"
        }
      ],
      "name": "ModuleVerified",
      "type": "event"
    },
    {
      "anonymous": false,
      "inputs": [
        {
          "indexed": true,
          "name": "_moduleFactory",
          "type": "address"
        }
      ],
      "name": "ModuleUnverified",
      "type": "event"
    },
    {
      "anonymous": false,
      "inputs": [
        {
          "indexed": true,
          "name": "_moduleFactory",
          "type": "address"
        },
        {
          "indexed": true,
          "name": "_decisionMaker",
          "type": "address"
        }
      ],
      "name": "ModuleRemoved",
      "type": "event"
    },
    {
      "anonymous": false,
      "inputs": [
        {
          "indexed": true,
          "name": "previousOwner",
          "type": "address"
        },
        {
          "indexed": true,
          "name": "newOwner",
          "type": "address"
        }
      ],
      "name": "OwnershipTransferred",
      "type": "event"
    },
    {
      "constant": false,
      "inputs": [
        {
          "name": "_polymathRegistry",
          "type": "address"
        },
        {
          "name": "_owner",
          "type": "address"
        }
      ],
      "name": "initialize",
      "outputs": [],
      "payable": true,
      "stateMutability": "payable",
      "type": "function"
    },
    {
      "constant": false,
      "inputs": [
        {
          "name": "_moduleFactory",
          "type": "address"
        },
        {
          "name": "_isUpgrade",
          "type": "bool"
        }
      ],
      "name": "useModule",
      "outputs": [],
      "payable": false,
      "stateMutability": "nonpayable",
      "type": "function"
    },
    {
      "constant": false,
      "inputs": [
        {
          "name": "_moduleFactory",
          "type": "address"
        }
      ],
      "name": "useModule",
      "outputs": [],
      "payable": false,
      "stateMutability": "nonpayable",
      "type": "function"
    },
    {
      "constant": true,
      "inputs": [
        {
          "name": "_moduleFactory",
          "type": "address"
        },
        {
          "name": "_securityToken",
          "type": "address"
        }
      ],
      "name": "isCompatibleModule",
      "outputs": [
        {
          "name": "",
          "type": "bool"
        }
      ],
      "payable": false,
      "stateMutability": "view",
      "type": "function"
    },
    {
      "constant": false,
      "inputs": [
        {
          "name": "_moduleFactory",
          "type": "address"
        }
      ],
      "name": "registerModule",
      "outputs": [],
      "payable": false,
      "stateMutability": "nonpayable",
      "type": "function"
    },
    {
      "constant": false,
      "inputs": [
        {
          "name": "_moduleFactory",
          "type": "address"
        }
      ],
      "name": "removeModule",
      "outputs": [],
      "payable": false,
      "stateMutability": "nonpayable",
      "type": "function"
    },
    {
      "constant": false,
      "inputs": [
        {
          "name": "_moduleFactory",
          "type": "address"
        }
      ],
      "name": "verifyModule",
      "outputs": [],
      "payable": false,
      "stateMutability": "nonpayable",
      "type": "function"
    },
    {
      "constant": false,
      "inputs": [
        {
          "name": "_moduleFactory",
          "type": "address"
        }
      ],
      "name": "unverifyModule",
      "outputs": [],
      "payable": false,
      "stateMutability": "nonpayable",
      "type": "function"
    },
    {
      "constant": true,
      "inputs": [
        {
          "name": "_moduleType",
          "type": "uint8"
        },
        {
          "name": "_securityToken",
          "type": "address"
        }
      ],
      "name": "getTagsByTypeAndToken",
      "outputs": [
        {
          "name": "",
          "type": "bytes32[]"
        },
        {
          "name": "",
          "type": "address[]"
        }
      ],
      "payable": false,
      "stateMutability": "view",
      "type": "function"
    },
    {
      "constant": true,
      "inputs": [
        {
          "name": "_moduleType",
          "type": "uint8"
        }
      ],
      "name": "getTagsByType",
      "outputs": [
        {
          "name": "",
          "type": "bytes32[]"
        },
        {
          "name": "",
          "type": "address[]"
        }
      ],
      "payable": false,
      "stateMutability": "view",
      "type": "function"
    },
    {
      "constant": true,
      "inputs": [
        {
          "name": "_factoryAddress",
          "type": "address"
        }
      ],
      "name": "getFactoryDetails",
      "outputs": [
        {
          "name": "",
          "type": "bool"
        },
        {
          "name": "",
          "type": "address"
        },
        {
          "name": "",
          "type": "address[]"
        }
      ],
      "payable": false,
      "stateMutability": "view",
      "type": "function"
    },
    {
      "constant": true,
      "inputs": [
        {
          "name": "_moduleType",
          "type": "uint8"
        }
      ],
      "name": "getModulesByType",
      "outputs": [
        {
          "name": "",
          "type": "address[]"
        }
      ],
      "payable": false,
      "stateMutability": "view",
      "type": "function"
    },
    {
      "constant": true,
      "inputs": [
        {
          "name": "_moduleType",
          "type": "uint8"
        }
      ],
      "name": "getAllModulesByType",
      "outputs": [
        {
          "name": "",
          "type": "address[]"
        }
      ],
      "payable": false,
      "stateMutability": "view",
      "type": "function"
    },
    {
      "constant": true,
      "inputs": [
        {
          "name": "_moduleType",
          "type": "uint8"
        },
        {
          "name": "_securityToken",
          "type": "address"
        }
      ],
      "name": "getModulesByTypeAndToken",
      "outputs": [
        {
          "name": "",
          "type": "address[]"
        }
      ],
      "payable": false,
      "stateMutability": "view",
      "type": "function"
    },
    {
      "constant": false,
      "inputs": [
        {
          "name": "_tokenContract",
          "type": "address"
        }
      ],
      "name": "reclaimERC20",
      "outputs": [],
      "payable": false,
      "stateMutability": "nonpayable",
      "type": "function"
    },
    {
      "constant": false,
      "inputs": [],
      "name": "pause",
      "outputs": [],
      "payable": false,
      "stateMutability": "nonpayable",
      "type": "function"
    },
    {
      "constant": false,
      "inputs": [],
      "name": "unpause",
      "outputs": [],
      "payable": false,
      "stateMutability": "nonpayable",
      "type": "function"
    },
    {
      "constant": false,
      "inputs": [],
      "name": "updateFromRegistry",
      "outputs": [],
      "payable": false,
      "stateMutability": "nonpayable",
      "type": "function"
    },
    {
      "constant": false,
      "inputs": [
        {
          "name": "_newOwner",
          "type": "address"
        }
      ],
      "name": "transferOwnership",
      "outputs": [],
      "payable": false,
      "stateMutability": "nonpayable",
      "type": "function"
    },
    {
      "constant": true,
      "inputs": [],
      "name": "owner",
      "outputs": [
        {
          "name": "",
          "type": "address"
        }
      ],
      "payable": false,
      "stateMutability": "view",
      "type": "function"
    },
    {
      "constant": true,
      "inputs": [],
      "name": "isPaused",
      "outputs": [
        {
          "name": "",
          "type": "bool"
        }
      ],
      "payable": false,
      "stateMutability": "view",
      "type": "function"
    }
  ],
  "bytecode": "0x608060405234801561001057600080fd5b50613ade806100206000396000f3fe6080604052600436106101cd5760003560e01c80638ffa9690116100f7578063b187bd2611610095578063ea393b7511610064578063ea393b7514610845578063f2fde38b14610881578063f433262f146108b4578063f6fcbee1146108c9576101cd565b8063b187bd26146107a0578063cf5f591d146107b5578063dc659907146107e8578063e82617fb1461081b576101cd565b8063a209a29c116100d1578063a209a29c146106ec578063a8f0d3a714610716578063ac90b42214610740578063ad64ae4b1461076d576101cd565b80638ffa969014610662578063a06324611461068c578063a1fe85dc146106bf576101cd565b8063485cc9551161016f5780636f3b8ce21161013e5780636f3b8ce21461058b5780638456cb59146106055780638905fd4f1461061a5780638da5cb5b1461064d576101cd565b8063485cc955146104565780634ac24a9a146104845780634c77e5ba146104b15780636001f434146104f7576101cd565b806330d88e1d116101ab57806330d88e1d1461033257806336ef22ce146103675780633f4ba83a146103a257806344bfa56e146103b7576101cd565b8063025ec81a146101d25780631a83bff01461020e578063223a6580146102e3575b600080fd5b3480156101de57600080fd5b506101fc600480360360208110156101f557600080fd5b50356108f3565b60408051918252519081900360200190f35b34801561021a57600080fd5b5061024a6004803603604081101561023157600080fd5b50803560ff1690602001356001600160a01b0316610905565b604051808060200180602001838103835285818151815260200191508051906020019060200280838360005b8381101561028e578181015183820152602001610276565b50505050905001838103825284818151815260200191508051906020019060200280838360005b838110156102cd5781810151838201526020016102b5565b5050505090500194505050505060405180910390f35b3480156102ef57600080fd5b5061031e6004803603604081101561030657600080fd5b506001600160a01b038135811691602001351661092b565b604080519115158252519081900360200190f35b34801561033e57600080fd5b506103656004803603602081101561035557600080fd5b50356001600160a01b0316610bb9565b005b34801561037357600080fd5b506103656004803603604081101561038a57600080fd5b506001600160a01b0381351690602001351515610cfc565b3480156103ae57600080fd5b506103656110a6565b3480156103c357600080fd5b506103e1600480360360208110156103da57600080fd5b50356111ae565b6040805160208082528351818301528351919283929083019185019080838360005b8381101561041b578181015183820152602001610403565b50505050905090810190601f1680156104485780820380516001836020036101000a031916815260200191505b509250505060405180910390f35b6103656004803603604081101561046c57600080fd5b506001600160a01b038135811691602001351661124f565b34801561049057600080fd5b5061024a600480360360208110156104a757600080fd5b503560ff166113dd565b3480156104bd57600080fd5b506104db600480360360208110156104d457600080fd5b5035611400565b604080516001600160a01b039092168252519081900360200190f35b34801561050357600080fd5b5061052a6004803603602081101561051a57600080fd5b50356001600160a01b031661141b565b6040518084151515158152602001836001600160a01b03166001600160a01b031681526020018060200182810382528381815181526020019150805190602001906020028083836000838110156102cd5781810151838201526020016102b5565b34801561059757600080fd5b506105b5600480360360208110156105ae57600080fd5b50356114c8565b60408051602080825283518183015283519192839290830191858101910280838360005b838110156105f15781810151838201526020016105d9565b505050509050019250505060405180910390f35b34801561061157600080fd5b50610365611533565b34801561062657600080fd5b506103656004803603602081101561063d57600080fd5b50356001600160a01b031661163c565b34801561065957600080fd5b506104db61185b565b34801561066e57600080fd5b5061031e6004803603602081101561068557600080fd5b503561188c565b34801561069857600080fd5b50610365600480360360208110156106af57600080fd5b50356001600160a01b03166118a1565b3480156106cb57600080fd5b506105b5600480360360208110156106e257600080fd5b503560ff16611c9b565b3480156106f857600080fd5b506103e16004803603602081101561070f57600080fd5b5035611cd2565b34801561072257600080fd5b506105b56004803603602081101561073957600080fd5b5035611d3b565b34801561074c57600080fd5b506105b56004803603602081101561076357600080fd5b503560ff16611d9c565b34801561077957600080fd5b506103656004803603602081101561079057600080fd5b50356001600160a01b0316611f06565b3480156107ac57600080fd5b5061031e6124cf565b3480156107c157600080fd5b50610365600480360360208110156107d857600080fd5b50356001600160a01b03166124e8565b3480156107f457600080fd5b506103656004803603602081101561080b57600080fd5b50356001600160a01b03166126fb565b34801561082757600080fd5b506101fc6004803603602081101561083e57600080fd5b5035612709565b34801561085157600080fd5b506105b56004803603604081101561086857600080fd5b50803560ff1690602001356001600160a01b031661271b565b34801561088d57600080fd5b50610365600480360360208110156108a457600080fd5b50356001600160a01b0316612b3f565b3480156108c057600080fd5b50610365612c6c565b3480156108d557600080fd5b506105b5600480360360208110156108ec57600080fd5b5035612eed565b60009081526006602052604090205490565b6060806060610914858561271b565b905061091f81612f4d565b92509250509250929050565b60006060826001600160a01b0316630d8e6e2c6040518163ffffffff1660e01b815260040160006040518083038186803b15801561096857600080fd5b505afa15801561097c573d6000803e3d6000fd5b505050506040513d6000823e601f3d908101601f1916820160405260208110156109a557600080fd5b810190808051600160201b8111156109bc57600080fd5b820160208101848111156109cf57600080fd5b81518560208202830111600160201b821117156109eb57600080fd5b505092919050505090506060846001600160a01b0316638677768f6040518163ffffffff1660e01b815260040160006040518083038186803b158015610a3057600080fd5b505afa158015610a44573d6000803e3d6000fd5b505050506040513d6000823e601f3d908101601f191682016040526020811015610a6d57600080fd5b810190808051600160201b811115610a8457600080fd5b82016020810184811115610a9757600080fd5b81518560208202830111600160201b82111715610ab357600080fd5b505092919050505090506060856001600160a01b031663f78629996040518163ffffffff1660e01b815260040160006040518083038186803b158015610af857600080fd5b505afa158015610b0c573d6000803e3d6000fd5b505050506040513d6000823e601f3d908101601f191682016040526020811015610b3557600080fd5b810190808051600160201b811115610b4c57600080fd5b82016020810184811115610b5f57600080fd5b81518560208202830111600160201b82111715610b7b57600080fd5b505092919050505090506000610b918385613227565b90506000610b9f838661332d565b9050818015610bab5750805b955050505050505b92915050565b610bc161185b565b6001600160a01b0316336001600160a01b031614610c175760408051600160e51b62461bcd0281526020600482015260146024820152600080516020613a1b833981519152604482015290519081900360640190fd5b6000610c4e610c49604051806040016040528060088152602001600160c01b6772656769737472790281525084613429565b612709565b1415610c8e57604051600160e51b62461bcd0281526004018080602001828103825260218152602001806139da6021913960400191505060405180910390fd5b610cc5610cbe604051806040016040528060088152602001600160c21b671d995c9a599a59590281525083613429565b60016134b3565b6040516001600160a01b038216907f6b4f33594281f0d3c33cb4efc71c1d349cc9614e44a6d44cf1f349e801ed9fd790600090a250565b610d1f6000805160206139fb833981519152610d1781612709565b6001016134d3565b6000610d386000805160206139fb833981519152612709565b9050610d426134e5565b15610e7a57610d7c610d77604051806040016040528060088152602001600160c21b671d995c9a599a59590281525085613429565b61188c565b80610e375750336001600160a01b0316638da5cb5b6040518163ffffffff1660e01b815260040160206040518083038186803b158015610dbb57600080fd5b505afa158015610dcf573d6000803e3d6000fd5b505050506040513d6020811015610de557600080fd5b505160408051808201909152600c8152600160a11b6b3330b1ba37b93ca7bbb732b90260208201526001600160a01b0390911690610e2c90610e279086613429565b611400565b6001600160a01b0316145b610e7557604051600160e51b62461bcd02815260040180806020018281038252605181526020018061394a6051913960600191505060405180910390fd5b610efe565b610eaa610d77604051806040016040528060088152602001600160c21b671d995c9a599a59590281525085613429565b610efe5760408051600160e51b62461bcd02815260206004820152601e60248201527f4d6f64756c65466163746f7279206d7573742062652076657269666965640000604482015290519081900360640190fd5b610f277f12ada4f7ee6c2b7b933330be61fefa007a1f497dc8df1b349b48071a958d7a81611400565b6001600160a01b031663d300a968336040518263ffffffff1660e01b815260040180826001600160a01b03166001600160a01b0316815260200191505060206040518083038186803b158015610f7c57600080fd5b505afa158015610f90573d6000803e3d6000fd5b505050506040513d6020811015610fa657600080fd5b50511561107f57610fb7833361092b565b61100b5760408051600160e51b62461bcd02815260206004820152601560248201527f496e636f6d70617469626c652076657273696f6e730000000000000000000000604482015290519081900360640190fd5b8161107f576110486110426040518060400160405280600a8152602001600160b11b693932b83aba30ba34b7b70281525085613429565b336135b5565b60405133906001600160a01b038516907ffd0013c5b822aafcc05b8cfdd6dfa336f40c31714b8bef8f2520e7036b9f079890600090a35b6110966000805160206139fb833981519152612709565b81146110a157600080fd5b505050565b6110ae6124cf565b6111025760408051600160e51b62461bcd02815260206004820152601460248201527f53686f756c64206e6f7420626520706175736564000000000000000000000000604482015290519081900360640190fd5b61110a61185b565b6001600160a01b0316336001600160a01b0316146111605760408051600160e51b62461bcd0281526020600482015260146024820152600080516020613a1b833981519152604482015290519081900360640190fd5b61117960008051602061392a83398151915260006134b3565b6040805133815290517faeb196d352664784d1900b0e7414a8face7d29f4dae8c4b0cf68ed477423bbf49181900360200190a1565b60008181526003602090815260409182902080548351601f60026000196101006001861615020190931692909204918201849004840281018401909452808452606093928301828280156112435780601f1061121857610100808354040283529160200191611243565b820191906000526020600020905b81548152906001019060200180831161122657829003601f168201915b50505050509050919050565b6112787f9ef7257c3339b099aacf96e55122ee78fb65a36bd2a6c19249882be9c98633bf61188c565b156112cd5760408051600160e51b62461bcd02815260206004820152601360248201527f616c726561647920696e697469616c697a656400000000000000000000000000604482015290519081900360640190fd5b6001600160a01b038116158015906112ed57506001600160a01b03821615155b6113415760408051600160e51b62461bcd02815260206004820152601560248201527f3078206164647265737320697320696e76616c69640000000000000000000000604482015290519081900360640190fd5b61136b7f90eeab7c36075577c7cc5ff366e389fefa8a18289b949bab3529ab4471139d4d836135f4565b6113957f02016836a56b71f0d02689e69e326f4f4c1b9057164ef592671cf0d37c8040c0826135f4565b6113ae60008051602061392a83398151915260006134b3565b6113d97f9ef7257c3339b099aacf96e55122ee78fb65a36bd2a6c19249882be9c98633bf60016134b3565b5050565b60608060606113eb84611d9c565b90506113f681612f4d565b9250925050915091565b6000908152600260205260409020546001600160a01b031690565b6000806060611450610d77604051806040016040528060088152602001600160c21b671d995c9a599a59590281525086613429565b611484610e276040518060400160405280600c8152602001600160a11b6b3330b1ba37b93ca7bbb732b90281525087613429565b6114bb6114b66040518060400160405280600a8152602001600160b11b693932b83aba30ba34b7b70281525088613429565b6114c8565b9250925092509193909250565b60008181526009602090815260409182902080548351818402810184019094528084526060939283018282801561124357602002820191906000526020600020905b81546001600160a01b0316815260019091019060200180831161150a5750505050509050919050565b61153b6124cf565b156115905760408051600160e51b62461bcd02815260206004820152600e60248201527f416c726561647920706175736564000000000000000000000000000000000000604482015290519081900360640190fd5b61159861185b565b6001600160a01b0316336001600160a01b0316146115ee5760408051600160e51b62461bcd0281526020600482015260146024820152600080516020613a1b833981519152604482015290519081900360640190fd5b61160760008051602061392a83398151915260016134b3565b6040805133815290517f5ee71a369c8672edded508e624ffc9257fa1ae6886ef32905c18e60196bca3999181900360200190a1565b61164461185b565b6001600160a01b0316336001600160a01b03161461169a5760408051600160e51b62461bcd0281526020600482015260146024820152600080516020613a1b833981519152604482015290519081900360640190fd5b6001600160a01b0381166116f85760408051600160e51b62461bcd02815260206004820152601560248201527f3078206164647265737320697320696e76616c69640000000000000000000000604482015290519081900360640190fd5b60408051600160e01b6370a08231028152306004820152905182916000916001600160a01b038416916370a08231916024808301926020929190829003018186803b15801561174657600080fd5b505afa15801561175a573d6000803e3d6000fd5b505050506040513d602081101561177057600080fd5b505190506001600160a01b03821663a9059cbb61178b61185b565b836040518363ffffffff1660e01b815260040180836001600160a01b03166001600160a01b0316815260200182815260200192505050602060405180830381600087803b1580156117db57600080fd5b505af11580156117ef573d6000803e3d6000fd5b505050506040513d602081101561180557600080fd5b50516110a15760408051600160e51b62461bcd02815260206004820152601560248201527f746f6b656e207472616e73666572206661696c65640000000000000000000000604482015290519081900360640190fd5b60006118867f02016836a56b71f0d02689e69e326f4f4c1b9057164ef592671cf0d37c8040c0611400565b90505b90565b60009081526004602052604090205460ff1690565b6118a9613622565b60006118db610c49604051806040016040528060088152602001600160c01b6772656769737472790281525084613429565b90508061191c57604051600160e51b62461bcd028152600401808060200182810382526023815260200180613a3b6023913960400191505060405180910390fd5b61192461185b565b6001600160a01b0316336001600160a01b031614806119875750611972610e276040518060400160405280600c8152602001600160a11b6b3330b1ba37b93ca7bbb732b90281525084613429565b6001600160a01b0316336001600160a01b0316145b6119c557604051600160e51b62461bcd02815260040180806020018281038252603f81526020018061399b603f913960400191505060405180910390fd5b60006119fe610c496040518060400160405280600f81526020016001608b1b6e0dadec8ead8ca98d2e6e892dcc8caf0281525085613429565b905060006001611a366114b66040518060400160405280600a8152602001600160b21b691b5bd91d5b19531a5cdd028152508661368d565b510390506000611a6e6114b66040518060400160405280600a8152602001600160b21b691b5bd91d5b19531a5cdd028152508661368d565b8281518110611a7957fe5b60200260200101519050818314611b0057611ac3611abc6040518060400160405280600a8152602001600160b21b691b5bd91d5b19531a5cdd028152508661368d565b8483613702565b611b00611afa6040518060400160405280600f81526020016001608b1b6e0dadec8ead8ca98d2e6e892dcc8caf0281525083613429565b846134d3565b611b38611b326040518060400160405280600a8152602001600160b21b691b5bd91d5b19531a5cdd028152508661368d565b83613752565b611b6f611b68604051806040016040528060088152602001600160c01b6772656769737472790281525087613429565b60006134d3565b611bb5611ba16040518060400160405280600a8152602001600160b11b693932b83aba30ba34b7b70281525087613429565b60408051600081526020810190915261381d565b611bec611be5604051806040016040528060088152602001600160c21b671d995c9a599a59590281525087613429565b60006134b3565b611c23611b686040518060400160405280600f81526020016001608b1b6e0dadec8ead8ca98d2e6e892dcc8caf0281525087613429565b611c5e611c576040518060400160405280600c8152602001600160a11b6b3330b1ba37b93ca7bbb732b90281525087613429565b60006135f4565b60405133906001600160a01b038716907fd66772358582078947c11fa70e2860b3ffa915277e6181a4aa293072cb57ed3c90600090a35050505050565b6060610bb36114b66040518060400160405280600a8152602001600160b21b691b5bd91d5b19531a5cdd028152508460ff1661368d565b60008181526001602081815260409283902080548451600294821615610100026000190190911693909304601f810183900483028401830190945283835260609390918301828280156112435780601f1061121857610100808354040283529160200191611243565b60008181526007602090815260409182902080548351818402810184019094528084526060939283018282801561124357602002820191906000526020600020905b815481526020019060010190808311611d7d5750505050509050919050565b606080611dd46114b66040518060400160405280600a8152602001600160b21b691b5bd91d5b19531a5cdd028152508560ff1661368d565b80519091506000805b82811015611e3c57611e28610d77604051806040016040528060088152602001600160c21b671d995c9a599a595902815250868481518110611e1b57fe5b6020026020010151613429565b15611e34576001909101905b600101611ddd565b50606081604051908082528060200260200182016040528015611e69578160200160208202803883390190505b50600092509050815b83811015611efc57611eb0610d77604051806040016040528060088152602001600160c21b671d995c9a599a595902815250878481518110611e1b57fe5b15611ef457848181518110611ec157fe5b6020026020010151828481518110611ed557fe5b6001600160a01b03909216602092830291909101909101526001909201915b600101611e72565b5095945050505050565b611f0e613622565b611f296000805160206139fb833981519152610d1781612709565b6000611f426000805160206139fb833981519152612709565b90506000826001600160a01b0316638da5cb5b6040518163ffffffff1660e01b815260040160206040518083038186803b158015611f7f57600080fd5b505afa158015611f93573d6000803e3d6000fd5b505050506040513d6020811015611fa957600080fd5b505160408051808201909152600c8152600160a11b6b3330b1ba37b93ca7bbb732b9026020820152909150611fe890611fe29085613429565b826135f4565b611ff06134e5565b1561206757336001600160a01b0382161480612024575061200f61185b565b6001600160a01b0316336001600160a01b0316145b61206257604051600160e51b62461bcd02815260040180806020018281038252603f81526020018061399b603f913960400191505060405180910390fd5b6120c1565b61206f61185b565b6001600160a01b0316336001600160a01b0316146120c157604051600160e51b62461bcd0281526004018080602001828103825260268152602001806139046026913960400191505060405180910390fd5b6120f1610c49604051806040016040528060088152602001600160c01b6772656769737472790281525085613429565b1561213057604051600160e51b62461bcd02815260040180806020018281038252602b815260200180613a5e602b913960400191505060405180910390fd5b60008390506000806060836001600160a01b031663b4579d606040518163ffffffff1660e01b815260040160006040518083038186803b15801561217357600080fd5b505afa158015612187573d6000803e3d6000fd5b505050506040513d6000823e601f3d908101601f1916820160405260208110156121b057600080fd5b810190808051600160201b8111156121c757600080fd5b820160208101848111156121da57600080fd5b81518560208202830111600160201b821117156121f657600080fd5b5060019750909450505050505b80518310156122b357600091505b828210156122a85780828151811061222557fe5b602002602001015160ff1681848151811061223c57fe5b602002602001015160ff16141561229d5760408051600160e51b62461bcd02815260206004820152600d60248201527f54797065206d69736d6174636800000000000000000000000000000000000000604482015290519081900360640190fd5b600190910190612211565b600190920191612203565b80516123095760408051600160e51b62461bcd02815260206004820152601660248201527f466163746f7279206d7573742068617665207479706500000000000000000000604482015290519081900360640190fd5b60008160008151811061231857fe5b602002602001015190508060ff166000141561237e5760408051600160e51b62461bcd02815260206004820152600c60248201527f496e76616c696420747970650000000000000000000000000000000000000000604482015290519081900360640190fd5b6123b76123ae604051806040016040528060088152602001600160c01b677265676973747279028152508a613429565b8260ff166134d3565b6124296123ee6040518060400160405280600f81526020016001608b1b6e0dadec8ead8ca98d2e6e892dcc8caf028152508a613429565b6124236114b66040518060400160405280600a8152602001600160b21b691b5bd91d5b19531a5cdd028152508560ff1661368d565b516134d3565b61246461245e6040518060400160405280600a8152602001600160b21b691b5bd91d5b19531a5cdd028152508360ff1661368d565b896135b5565b856001600160a01b0316886001600160a01b03167f49220d7268f6ac850e2f0d39ce956e56f086a18cfda1383c05f9c859fdef901260405160405180910390a35050505050506124c46000805160206139fb83398151915260001b612709565b81146113d957600080fd5b600061188660008051602061392a83398151915261188c565b6125036000805160206139fb833981519152610d1781612709565b600061251c6000805160206139fb833981519152612709565b9050600061252861185b565b6001600160a01b0316336001600160a01b03161490506000836001600160a01b0316336001600160a01b0316149050600061258d610e276040518060400160405280600c8152602001600160a11b6b3330b1ba37b93ca7bbb732b90281525087613429565b6001600160a01b0316336001600160a01b031614905082806125ac5750815b806125b45750805b6126085760408051600160e51b62461bcd02815260206004820152600e60248201527f4e6f7420617574686f7269736564000000000000000000000000000000000000604482015290519081900360640190fd5b600061263a610c49604051806040016040528060088152602001600160c01b6772656769737472790281525088613429565b141561267a57604051600160e51b62461bcd0281526004018080602001828103825260218152602001806139da6021913960400191505060405180910390fd5b6126aa611be5604051806040016040528060088152602001600160c21b671d995c9a599a59590281525087613429565b6040516001600160a01b038616907fbc7ce5f0f210af950fe3ce169a29ea85d52de86be246a738b2b5c11f6762b5f090600090a25050506124c46000805160206139fb83398151915260001b612709565b612706816000610cfc565b50565b60009081526020819052604090205490565b6060806127536114b66040518060400160405280600a8152602001600160b21b691b5bd91d5b19531a5cdd028152508660ff1661368d565b805190915060006127626134e5565b90506000805b838110156128fb57821561289d576127ac610d77604051806040016040528060088152602001600160c21b671d995c9a599a595902815250878481518110611e1b57fe5b8061286a5750866001600160a01b0316638da5cb5b6040518163ffffffff1660e01b815260040160206040518083038186803b1580156127eb57600080fd5b505afa1580156127ff573d6000803e3d6000fd5b505050506040513d602081101561281557600080fd5b505160408051808201909152600c8152600160a11b6b3330b1ba37b93ca7bbb732b902602082015286516001600160a01b039092169161285f91610e2791899086908110611e1b57fe5b6001600160a01b0316145b156128985761288c85828151811061287e57fe5b60200260200101518861092b565b15612898576001909101905b6128f3565b6128d3610d77604051806040016040528060088152602001600160c21b671d995c9a599a595902815250878481518110611e1b57fe5b156128f3576128e785828151811061287e57fe5b156128f3576001909101905b600101612768565b50606081604051908082528060200260200182016040528015612928578160200160208202803883390190505b50600092509050815b84811015612b33578315612a9d57876001600160a01b0316638da5cb5b6040518163ffffffff1660e01b815260040160206040518083038186803b15801561297857600080fd5b505afa15801561298c573d6000803e3d6000fd5b505050506040513d60208110156129a257600080fd5b505160408051808201909152600c8152600160a11b6b3330b1ba37b93ca7bbb732b902602082015287516001600160a01b03909216916129ec91610e27918a9086908110611e1b57fe5b6001600160a01b03161480612a325750612a32610d77604051806040016040528060088152602001600160c21b671d995c9a599a595902815250888481518110611e1b57fe5b15612a9857612a54868281518110612a4657fe5b60200260200101518961092b565b15612a9857858181518110612a6557fe5b6020026020010151828481518110612a7957fe5b6001600160a01b03909216602092830291909101909101526001909201915b612b2b565b612ad3610d77604051806040016040528060088152602001600160c21b671d995c9a599a595902815250888481518110611e1b57fe5b15612b2b57612ae7868281518110612a4657fe5b15612b2b57858181518110612af857fe5b6020026020010151828481518110612b0c57fe5b6001600160a01b03909216602092830291909101909101526001909201915b600101612931565b50979650505050505050565b612b4761185b565b6001600160a01b0316336001600160a01b031614612b9d5760408051600160e51b62461bcd0281526020600482015260146024820152600080516020613a1b833981519152604482015290519081900360640190fd5b6001600160a01b038116612bfb5760408051600160e51b62461bcd02815260206004820152600f60248201527f496e76616c696420616464726573730000000000000000000000000000000000604482015290519081900360640190fd5b806001600160a01b0316612c0d61185b565b6001600160a01b03167f8be0079c531659141344cd1fd0a4f28419497f9722a3daafe3b4186f6b6457e060405160405180910390a36127067f02016836a56b71f0d02689e69e326f4f4c1b9057164ef592671cf0d37c8040c0826135f4565b612c7461185b565b6001600160a01b0316336001600160a01b031614612cca5760408051600160e51b62461bcd0281526020600482015260146024820152600080516020613a1b833981519152604482015290519081900360640190fd5b6000612cf57f90eeab7c36075577c7cc5ff366e389fefa8a18289b949bab3529ab4471139d4d611400565b60408051600160e01b63bf40fac1028152602060048201819052601560248301527f5365637572697479546f6b656e5265676973747279000000000000000000000060448301529151929350612dc4927f12ada4f7ee6c2b7b933330be61fefa007a1f497dc8df1b349b48071a958d7a81926001600160a01b0386169263bf40fac19260648083019392829003018186803b158015612d9357600080fd5b505afa158015612da7573d6000803e3d6000fd5b505050506040513d6020811015612dbd57600080fd5b50516135f4565b60408051600160e01b63bf40fac1028152602060048201819052600f60248301527f466561747572655265676973747279000000000000000000000000000000000060448301529151612e61927fed9ca06607835ad25ecacbcb97f2bc414d4a51ecf391b5ae42f15991227ab146926001600160a01b0386169263bf40fac192606480840193919291829003018186803b158015612d9357600080fd5b60408051600160e01b63bf40fac102815260206004820181905260096024830152600160b91b682837b63caa37b5b2b70260448301529151612706927facf8fbd51bb4b83ba426cdb12f63be74db97c412515797993d2a385542e311d7926001600160a01b0386169263bf40fac192606480840193919291829003018186803b158015612d9357600080fd5b6000818152600860209081526040918290208054835181840281018401909452808452606093928301828280156112435760200282019190600052602060002090815481526020019060010190808311611d7d5750505050509050919050565b606080600080805b855182101561304357858281518110612f6a57fe5b60200260200101516001600160a01b031663995d9ab76040518163ffffffff1660e01b815260040160006040518083038186803b158015612faa57600080fd5b505afa158015612fbe573d6000803e3d6000fd5b505050506040513d6000823e601f3d908101601f191682016040526020811015612fe757600080fd5b810190808051600160201b811115612ffe57600080fd5b8201602081018481111561301157600080fd5b81518560208202830111600160201b8211171561302d57600080fd5b5050519590950194505060019092019150612f55565b60608360405190808252806020026020018201604052801561306f578160200160208202803883390190505b50905060608460405190808252806020026020018201604052801561309e578160200160208202803883390190505b509050606060009550600094505b8851851015613219578885815181106130c157fe5b60200260200101516001600160a01b031663995d9ab76040518163ffffffff1660e01b815260040160006040518083038186803b15801561310157600080fd5b505afa158015613115573d6000803e3d6000fd5b505050506040513d6000823e601f3d908101601f19168201604052602081101561313e57600080fd5b810190808051600160201b81111561315557600080fd5b8201602081018481111561316857600080fd5b81518560208202830111600160201b8211171561318457600080fd5b5060009850909450505050505b805184101561320e578084815181106131a657fe5b60200260200101518387815181106131ba57fe5b6020026020010181815250508885815181106131d257fe5b60200260200101518287815181106131e657fe5b6001600160a01b03909216602092830291909101909101526001958601959390930192613191565b6001909401936130ac565b509095509350505050915091565b6000825160031461323757600080fd5b815160031461324557600080fd5b60005b83518160ff16101561332357828160ff168151811061326357fe5b602002602001015160ff16848260ff168151811061327d57fe5b602002602001015160ff1614156132935761331b565b828160ff16815181106132a257fe5b602002602001015160ff16848260ff16815181106132bc57fe5b602002602001015160ff1610156132d7576001915050610bb3565b828160ff16815181106132e657fe5b602002602001015160ff16848260ff168151811061330057fe5b602002602001015160ff16111561331b576000915050610bb3565b600101613248565b5060019392505050565b6000825160031461333d57600080fd5b815160031461334b57600080fd5b60005b83518160ff16101561332357828160ff168151811061336957fe5b602002602001015160ff16848260ff168151811061338357fe5b602002602001015160ff16141561339957613421565b828160ff16815181106133a857fe5b602002602001015160ff16848260ff16815181106133c257fe5b602002602001015160ff1611156133dd576001915050610bb3565b828160ff16815181106133ec57fe5b602002602001015160ff16848260ff168151811061340657fe5b602002602001015160ff161015613421576000915050610bb3565b60010161334e565b600082826040516020018083805190602001908083835b6020831061345f5780518252601f199092019160209182019101613440565b51815160209384036101000a60001901801990921691161790526001600160a01b039590951660601b92019182525060408051808303600b1901815260149092019052805192019190912095945050505050565b600091825260046020526040909120805460ff1916911515919091179055565b60009182526020829052604090912055565b60006135107fed9ca06607835ad25ecacbcb97f2bc414d4a51ecf391b5ae42f15991227ab146611400565b6001600160a01b0316632f0019f26040518163ffffffff1660e01b81526004018080602001828103825260148152602001807f637573746f6d4d6f64756c6573416c6c6f77656400000000000000000000000081525060200191505060206040518083038186803b15801561358457600080fd5b505afa158015613598573d6000803e3d6000fd5b505050506040513d60208110156135ae57600080fd5b5051905090565b600091825260096020908152604083208054600181018255908452922090910180546001600160a01b0319166001600160a01b03909216919091179055565b60009182526002602052604090912080546001600160a01b0319166001600160a01b03909216919091179055565b61362a61185b565b6001600160a01b0316336001600160a01b03161461368b5761364a6124cf565b1561368b5760408051600160e51b62461bcd0281526020600482015260066024820152600160d21b6514185d5cd95902604482015290519081900360640190fd5b565b600082826040516020018083805190602001908083835b602083106136c35780518252601f1990920191602091820191016136a4565b51815160209384036101000a60001901801990921691161790529201938452506040805180850381529382019052825192019190912095945050505050565b600083815260096020526040902080548291908490811061371f57fe5b9060005260206000200160006101000a8154816001600160a01b0302191690836001600160a01b03160217905550505050565b6000828152600960205260409020805482106137a257604051600160e51b62461bcd02815260040180806020018281038252602a815260200180613a89602a913960400191505060405180910390fd5b8054819060001981019081106137b457fe5b9060005260206000200160009054906101000a90046001600160a01b03168183815481106137de57fe5b600091825260209091200180546001600160a01b0319166001600160a01b0392909216919091179055805460001901613817828261383c565b50505050565b600082815260096020908152604090912082516110a192840190613860565b8154818355818111156110a1576000838152602090206110a19181019083016138c5565b8280548282559060005260206000209081019282156138b5579160200282015b828111156138b557825182546001600160a01b0319166001600160a01b03909116178255602090920191600190910190613880565b506138c19291506138df565b5090565b61188991905b808211156138c157600081556001016138cb565b61188991905b808211156138c15780546001600160a01b03191681556001016138e556fe4f6e6c79206f776e657220616c6c6f77656420746f207265676973746572206d6f64756c6573ee35723ac350a69d2a92d3703f17439cbaadf2f093a21ba5bf5f1a53eb2a14d94d6f64756c65466163746f7279206d757374206265207665726966696564206f72205365637572697479546f6b656e206f776e6572206d757374206265204d6f64756c65466163746f7279206f776e65726d73672e73656e646572206d75737420626520746865204d6f64756c6520466163746f7279206f776e6572206f722072656769737472792063757261746f724d6f64756c6520666163746f7279206d7573742062652072656769737465726564ab99c6d7581cbb37d2e578d3097bfdd3323e05447f1fd7670b6c3a3fb9d9ff7973656e646572206d757374206265206f776e65720000000000000000000000004d6f64756c6520666163746f72792073686f756c6420626520726567697374657265644d6f64756c6520666163746f72792073686f756c64206e6f74206265207072652d72656769737465726564496e6465782073686f756c64206c657373207468616e206c656e677468206f6620746865206172726179a165627a7a7230582067d9f9d7fd52c51fac0b07cb160f85e6efe41631c6e179b5f5f3573bc8b92ec80029",
  "source": "pragma solidity 0.5.8;\n\nimport \"openzeppelin-solidity/contracts/token/ERC20/IERC20.sol\";\nimport \"./interfaces/IModuleRegistry.sol\";\nimport \"./interfaces/IModuleFactory.sol\";\nimport \"./interfaces/ISecurityTokenRegistry.sol\";\nimport \"./interfaces/IPolymathRegistry.sol\";\nimport \"./interfaces/IFeatureRegistry.sol\";\nimport \"./libraries/VersionUtils.sol\";\nimport \"./storage/EternalStorage.sol\";\nimport \"./libraries/Encoder.sol\";\nimport \"./interfaces/IOwnable.sol\";\nimport \"./interfaces/ISecurityToken.sol\";\n\n/**\n* @title Registry contract to store registered modules\n* @notice Only Polymath can register and verify module factories to make them available for issuers to attach.\n*/\ncontract ModuleRegistry is IModuleRegistry, EternalStorage {\n    /*\n        // Mapping used to hold the type of module factory corresponds to the address of the Module factory contract\n        mapping (address => uint8) public registry;\n\n        // Mapping used to hold the reputation of the factory\n        mapping (address => address[]) public reputation;\n\n        // Mapping containing the list of addresses of Module Factories of a particular type\n        mapping (uint8 => address[]) public moduleList;\n\n        // Mapping to store the index of the Module Factory in the moduleList\n        mapping(address => uint8) private moduleListIndex;\n\n        // contains the list of verified modules\n        mapping (address => bool) public verified;\n\n    */\n\n    bytes32 constant INITIALIZE = 0x9ef7257c3339b099aacf96e55122ee78fb65a36bd2a6c19249882be9c98633bf; //keccak256(\"initialised\")\n    bytes32 constant LOCKED = 0xab99c6d7581cbb37d2e578d3097bfdd3323e05447f1fd7670b6c3a3fb9d9ff79; //keccak256(\"locked\")\n    bytes32 constant POLYTOKEN = 0xacf8fbd51bb4b83ba426cdb12f63be74db97c412515797993d2a385542e311d7; //keccak256(\"polyToken\")\n    bytes32 constant PAUSED = 0xee35723ac350a69d2a92d3703f17439cbaadf2f093a21ba5bf5f1a53eb2a14d9; //keccak256(\"paused\")\n    bytes32 constant OWNER = 0x02016836a56b71f0d02689e69e326f4f4c1b9057164ef592671cf0d37c8040c0; //keccak256(\"owner\")\n    bytes32 constant POLYMATHREGISTRY = 0x90eeab7c36075577c7cc5ff366e389fefa8a18289b949bab3529ab4471139d4d; //keccak256(\"polymathRegistry\")\n    bytes32 constant FEATURE_REGISTRY = 0xed9ca06607835ad25ecacbcb97f2bc414d4a51ecf391b5ae42f15991227ab146; //keccak256(\"featureRegistry\")\n    bytes32 constant SECURITY_TOKEN_REGISTRY = 0x12ada4f7ee6c2b7b933330be61fefa007a1f497dc8df1b349b48071a958d7a81; //keccak256(\"securityTokenRegistry\")\n\n    ///////////////\n    //// Modifiers\n    ///////////////\n\n    /**\n     * @dev Throws if called by any account other than the owner.\n     */\n    modifier onlyOwner() {\n        require(msg.sender == owner(), \"sender must be owner\");\n        _;\n    }\n\n    /**\n     * @notice Modifier to make a function callable only when the contract is not paused.\n     */\n    modifier whenNotPausedOrOwner() {\n        _whenNotPausedOrOwner();\n        _;\n    }\n\n    function _whenNotPausedOrOwner() internal view {\n        if (msg.sender != owner()) {\n            require(!isPaused(), \"Paused\");\n        }\n    }\n\n    /**\n     * @notice Modifier to prevent reentrancy\n     */\n    modifier nonReentrant() {\n        set(LOCKED, getUintValue(LOCKED) + 1);\n        uint256 localCounter = getUintValue(LOCKED);\n        _;\n        require(localCounter == getUintValue(LOCKED));\n    }\n\n    /**\n     * @notice Modifier to make a function callable only when the contract is not paused and ignore is msg.sender is owner.\n     */\n    modifier whenNotPaused() {\n        require(!isPaused(), \"Already paused\");\n        _;\n    }\n\n    /**\n     * @notice Modifier to make a function callable only when the contract is paused.\n     */\n    modifier whenPaused() {\n        require(isPaused(), \"Should not be paused\");\n        _;\n    }\n\n    /////////////////////////////\n    // Initialization\n    /////////////////////////////\n\n    // Constructor\n    constructor() public {\n\n    }\n\n    function initialize(address _polymathRegistry, address _owner) external payable {\n        require(!getBoolValue(INITIALIZE), \"already initialized\");\n        require(_owner != address(0) && _polymathRegistry != address(0), \"0x address is invalid\");\n        set(POLYMATHREGISTRY, _polymathRegistry);\n        set(OWNER, _owner);\n        set(PAUSED, false);\n        set(INITIALIZE, true);\n    }\n\n    function _customModules() internal view returns (bool) {\n        return IFeatureRegistry(getAddressValue(FEATURE_REGISTRY)).getFeatureStatus(\"customModulesAllowed\");\n    }\n\n\n    /**\n     * @notice Called by a SecurityToken (2.x) to check if the ModuleFactory is verified or appropriate custom module\n     * @dev ModuleFactory reputation increases by one every time it is deployed(used) by a ST.\n     * @dev Any module can be added during token creation without being registered if it is defined in the token proxy deployment contract\n     * @dev The feature switch for custom modules is labelled \"customModulesAllowed\"\n     * @param _moduleFactory is the address of the relevant module factory\n     */\n    function useModule(address _moduleFactory) external {\n        useModule(_moduleFactory, false);\n    }\n\n    /**\n     * @notice Called by a SecurityToken to check if the ModuleFactory is verified or appropriate custom module\n     * @dev ModuleFactory reputation increases by one every time it is deployed(used) by a ST.\n     * @dev Any module can be added during token creation without being registered if it is defined in the token proxy deployment contract\n     * @dev The feature switch for custom modules is labelled \"customModulesAllowed\"\n     * @param _moduleFactory is the address of the relevant module factory\n     * @param _isUpgrade whether or not the function is being called as a result of an upgrade\n     */\n    function useModule(address _moduleFactory, bool _isUpgrade) public nonReentrant {\n        if (_customModules()) {\n            require(\n                getBoolValue(Encoder.getKey(\"verified\", _moduleFactory)) || getAddressValue(Encoder.getKey(\"factoryOwner\", _moduleFactory))\n                    == IOwnable(msg.sender).owner(),\n                \"ModuleFactory must be verified or SecurityToken owner must be ModuleFactory owner\"\n            );\n        } else {\n            require(getBoolValue(Encoder.getKey(\"verified\", _moduleFactory)), \"ModuleFactory must be verified\");\n        }\n        // This if statement is required to be able to add modules from the STFactory contract during deployment\n        // before the token has been registered to the STR.\n        if (ISecurityTokenRegistry(getAddressValue(SECURITY_TOKEN_REGISTRY)).isSecurityToken(msg.sender)) {\n            require(isCompatibleModule(_moduleFactory, msg.sender), \"Incompatible versions\");\n            if (!_isUpgrade) {\n                pushArray(Encoder.getKey(\"reputation\", _moduleFactory), msg.sender);\n                emit ModuleUsed(_moduleFactory, msg.sender);\n            }\n        }\n    }\n\n    /**\n     * @notice Check that a module and its factory are compatible\n     * @param _moduleFactory is the address of the relevant module factory\n     * @param _securityToken is the address of the relevant security token\n     * @return bool whether module and token are compatible\n     */\n    function isCompatibleModule(address _moduleFactory, address _securityToken) public view returns(bool) {\n        uint8[] memory _latestVersion = ISecurityToken(_securityToken).getVersion();\n        uint8[] memory _lowerBound = IModuleFactory(_moduleFactory).getLowerSTVersionBounds();\n        uint8[] memory _upperBound = IModuleFactory(_moduleFactory).getUpperSTVersionBounds();\n        bool _isLowerAllowed = VersionUtils.lessThanOrEqual(_lowerBound, _latestVersion);\n        bool _isUpperAllowed = VersionUtils.greaterThanOrEqual(_upperBound, _latestVersion);\n        return (_isLowerAllowed && _isUpperAllowed);\n    }\n\n    /**\n     * @notice Called by the ModuleFactory owner to register new modules for SecurityTokens to use\n     * @param _moduleFactory is the address of the module factory to be registered\n     */\n    function registerModule(address _moduleFactory) external whenNotPausedOrOwner nonReentrant {\n        address factoryOwner = IOwnable(_moduleFactory).owner();\n        // This is set statically to avoid having to call back out to unverified factories to determine owner\n        set(Encoder.getKey(\"factoryOwner\", _moduleFactory), factoryOwner);\n        if (_customModules()) {\n            require(\n                msg.sender == factoryOwner || msg.sender == owner(),\n                \"msg.sender must be the Module Factory owner or registry curator\"\n            );\n        } else {\n            require(msg.sender == owner(), \"Only owner allowed to register modules\");\n        }\n        require(getUintValue(Encoder.getKey(\"registry\", _moduleFactory)) == 0, \"Module factory should not be pre-registered\");\n        IModuleFactory moduleFactory = IModuleFactory(_moduleFactory);\n        //Enforce type uniqueness\n        uint256 i;\n        uint256 j;\n        uint8[] memory moduleTypes = moduleFactory.getTypes();\n        for (i = 1; i < moduleTypes.length; i++) {\n            for (j = 0; j < i; j++) {\n                require(moduleTypes[i] != moduleTypes[j], \"Type mismatch\");\n            }\n        }\n        require(moduleTypes.length != 0, \"Factory must have type\");\n        // NB - here we index by the first type of the module.\n        uint8 moduleType = moduleTypes[0];\n        require(uint256(moduleType) != 0, \"Invalid type\");\n        set(Encoder.getKey(\"registry\", _moduleFactory), uint256(moduleType));\n        set(\n            Encoder.getKey(\"moduleListIndex\", _moduleFactory),\n            uint256(getArrayAddress(Encoder.getKey(\"moduleList\", uint256(moduleType))).length)\n        );\n        pushArray(Encoder.getKey(\"moduleList\", uint256(moduleType)), _moduleFactory);\n        emit ModuleRegistered(_moduleFactory, factoryOwner);\n    }\n\n    /**\n     * @notice Called by the ModuleFactory owner or registry curator to delete a ModuleFactory from the registry\n     * @param _moduleFactory is the address of the module factory to be deleted from the registry\n     */\n    function removeModule(address _moduleFactory) external whenNotPausedOrOwner {\n        uint256 moduleType = getUintValue(Encoder.getKey(\"registry\", _moduleFactory));\n\n        require(moduleType != 0, \"Module factory should be registered\");\n        require(\n            msg.sender == owner() || msg.sender == getAddressValue(Encoder.getKey(\"factoryOwner\", _moduleFactory)),\n            \"msg.sender must be the Module Factory owner or registry curator\"\n        );\n        uint256 index = getUintValue(Encoder.getKey(\"moduleListIndex\", _moduleFactory));\n        uint256 last = getArrayAddress(Encoder.getKey(\"moduleList\", moduleType)).length - 1;\n        address temp = getArrayAddress(Encoder.getKey(\"moduleList\", moduleType))[last];\n\n        // pop from array and re-order\n        if (index != last) {\n            // moduleList[moduleType][index] = temp;\n            setArrayIndexValue(Encoder.getKey(\"moduleList\", moduleType), index, temp);\n            set(Encoder.getKey(\"moduleListIndex\", temp), index);\n        }\n        deleteArrayAddress(Encoder.getKey(\"moduleList\", moduleType), last);\n\n        // delete registry[_moduleFactory];\n        set(Encoder.getKey(\"registry\", _moduleFactory), uint256(0));\n        // delete reputation[_moduleFactory];\n        setArray(Encoder.getKey(\"reputation\", _moduleFactory), new address[](0));\n        // delete verified[_moduleFactory];\n        set(Encoder.getKey(\"verified\", _moduleFactory), false);\n        // delete moduleListIndex[_moduleFactory];\n        set(Encoder.getKey(\"moduleListIndex\", _moduleFactory), uint256(0));\n        // delete module owner\n        set(Encoder.getKey(\"factoryOwner\", _moduleFactory), address(0));\n        emit ModuleRemoved(_moduleFactory, msg.sender);\n    }\n\n    /**\n    * @notice Called by Polymath to verify Module Factories for SecurityTokens to use.\n    * @notice A module can not be used by an ST unless first approved/verified by Polymath\n    * @notice (The only exception to this is that the author of the module is the owner of the ST)\n    * @notice -> Only if Polymath enabled the feature.\n    * @param _moduleFactory is the address of the module factory to be verified\n    */\n    function verifyModule(address _moduleFactory) external onlyOwner {\n        require(getUintValue(Encoder.getKey(\"registry\", _moduleFactory)) != uint256(0), \"Module factory must be registered\");\n        set(Encoder.getKey(\"verified\", _moduleFactory), true);\n        emit ModuleVerified(_moduleFactory);\n    }\n\n    /**\n    * @notice Called by Polymath to verify Module Factories for SecurityTokens to use.\n    * @notice A module can not be used by an ST unless first approved/verified by Polymath\n    * @notice (The only exception to this is that the author of the module is the owner of the ST)\n    * @notice -> Only if Polymath enabled the feature.\n    * @param _moduleFactory is the address of the module factory to be verified\n    */\n    function unverifyModule(address _moduleFactory) external nonReentrant {\n        // Can be called by the registry owner, the module factory, or the module factory owner\n        bool isOwner = msg.sender == owner();\n        bool isFactory = msg.sender == _moduleFactory;\n        bool isFactoryOwner = msg.sender == getAddressValue(Encoder.getKey(\"factoryOwner\", _moduleFactory));\n        require(isOwner || isFactory || isFactoryOwner, \"Not authorised\");\n        require(getUintValue(Encoder.getKey(\"registry\", _moduleFactory)) != uint256(0), \"Module factory must be registered\");\n        set(Encoder.getKey(\"verified\", _moduleFactory), false);\n        emit ModuleUnverified(_moduleFactory);\n    }\n\n    /**\n     * @notice Returns all the tags related to the a module type which are valid for the given token\n     * @param _moduleType is the module type\n     * @param _securityToken is the token\n     * @return list of tags\n     * @return corresponding list of module factories\n     */\n    function getTagsByTypeAndToken(uint8 _moduleType, address _securityToken) external view returns(bytes32[] memory, address[] memory) {\n        address[] memory modules = getModulesByTypeAndToken(_moduleType, _securityToken);\n        return _tagsByModules(modules);\n    }\n\n    /**\n     * @notice Returns all the tags related to the a module type which are valid for the given token\n     * @param _moduleType is the module type\n     * @return list of tags\n     * @return corresponding list of module factories\n     */\n    function getTagsByType(uint8 _moduleType) external view returns(bytes32[] memory, address[] memory) {\n        address[] memory modules = getModulesByType(_moduleType);\n        return _tagsByModules(modules);\n    }\n\n    /**\n     * @notice Returns all the tags related to the modules provided\n     * @param _modules modules to return tags for\n     * @return list of tags\n     * @return corresponding list of module factories\n     */\n    function _tagsByModules(address[] memory _modules) internal view returns(bytes32[] memory, address[] memory) {\n        uint256 counter = 0;\n        uint256 i;\n        uint256 j;\n        for (i = 0; i < _modules.length; i++) {\n            counter = counter + IModuleFactory(_modules[i]).getTags().length;\n        }\n        bytes32[] memory tags = new bytes32[](counter);\n        address[] memory modules = new address[](counter);\n        bytes32[] memory tempTags;\n        counter = 0;\n        for (i = 0; i < _modules.length; i++) {\n            tempTags = IModuleFactory(_modules[i]).getTags();\n            for (j = 0; j < tempTags.length; j++) {\n                tags[counter] = tempTags[j];\n                modules[counter] = _modules[i];\n                counter++;\n            }\n        }\n        return (tags, modules);\n    }\n\n    /**\n     * @notice Returns the verified status, and reputation of the entered Module Factory\n     * @param _factoryAddress is the address of the module factory\n     * @return bool indicating whether module factory is verified\n     * @return address of the factory owner\n     * @return address array which contains the list of securityTokens that use that module factory\n     */\n    function getFactoryDetails(address _factoryAddress) external view returns(bool, address, address[] memory) {\n        return (getBoolValue(Encoder.getKey(\"verified\", _factoryAddress)), getAddressValue(Encoder.getKey(\"factoryOwner\", _factoryAddress)), getArrayAddress(Encoder.getKey(\"reputation\", _factoryAddress)));\n    }\n\n    /**\n     * @notice Returns the list of addresses of verified Module Factory of a particular type\n     * @param _moduleType Type of Module\n     * @return address array that contains the list of addresses of module factory contracts.\n     */\n    function getModulesByType(uint8 _moduleType) public view returns(address[] memory) {\n        address[] memory _addressList = getArrayAddress(Encoder.getKey(\"moduleList\", uint256(_moduleType)));\n        uint256 _len = _addressList.length;\n        uint256 counter = 0;\n        for (uint256 i = 0; i < _len; i++) {\n            if (getBoolValue(Encoder.getKey(\"verified\", _addressList[i]))) {\n                counter++;\n            }\n        }\n        address[] memory _tempArray = new address[](counter);\n        counter = 0;\n        for (uint256 j = 0; j < _len; j++) {\n            if (getBoolValue(Encoder.getKey(\"verified\", _addressList[j]))) {\n                _tempArray[counter] = _addressList[j];\n                counter++;\n            }\n        }\n        return _tempArray;\n    }\n\n\n    /**\n     * @notice Returns the list of addresses of all Module Factory of a particular type\n     * @param _moduleType Type of Module\n     * @return address array that contains the list of addresses of module factory contracts.\n     */\n    function getAllModulesByType(uint8 _moduleType) external view returns(address[] memory) {\n        return getArrayAddress(Encoder.getKey(\"moduleList\", uint256(_moduleType)));\n    }\n\n    /**\n     * @notice Returns the list of available Module factory addresses of a particular type for a given token.\n     * @param _moduleType is the module type to look for\n     * @param _securityToken is the address of SecurityToken\n     * @return address array that contains the list of available addresses of module factory contracts.\n     */\n    function getModulesByTypeAndToken(uint8 _moduleType, address _securityToken) public view returns(address[] memory) {\n        address[] memory _addressList = getArrayAddress(Encoder.getKey(\"moduleList\", uint256(_moduleType)));\n        uint256 _len = _addressList.length;\n        bool _isCustomModuleAllowed = _customModules();\n        uint256 counter = 0;\n        for (uint256 i = 0; i < _len; i++) {\n            if (_isCustomModuleAllowed) {\n                if (getBoolValue(\n                    Encoder.getKey(\"verified\", _addressList[i])) || getAddressValue(Encoder.getKey(\"factoryOwner\", _addressList[i])) == IOwnable(_securityToken).owner()\n                ) if (isCompatibleModule(_addressList[i], _securityToken)) counter++;\n            } else if (getBoolValue(Encoder.getKey(\"verified\", _addressList[i]))) {\n                if (isCompatibleModule(_addressList[i], _securityToken)) counter++;\n            }\n        }\n        address[] memory _tempArray = new address[](counter);\n        counter = 0;\n        for (uint256 j = 0; j < _len; j++) {\n            if (_isCustomModuleAllowed) {\n                if (getAddressValue(Encoder.getKey(\"factoryOwner\", _addressList[j])) == IOwnable(_securityToken).owner() || getBoolValue(\n                    Encoder.getKey(\"verified\", _addressList[j])\n                )) {\n                    if (isCompatibleModule(_addressList[j], _securityToken)) {\n                        _tempArray[counter] = _addressList[j];\n                        counter++;\n                    }\n                }\n            } else if (getBoolValue(Encoder.getKey(\"verified\", _addressList[j]))) {\n                if (isCompatibleModule(_addressList[j], _securityToken)) {\n                    _tempArray[counter] = _addressList[j];\n                    counter++;\n                }\n            }\n        }\n        return _tempArray;\n    }\n\n    /**\n    * @notice Reclaims all ERC20Basic compatible tokens\n    * @param _tokenContract The address of the token contract\n    */\n    function reclaimERC20(address _tokenContract) external onlyOwner {\n        require(_tokenContract != address(0), \"0x address is invalid\");\n        IERC20 token = IERC20(_tokenContract);\n        uint256 balance = token.balanceOf(address(this));\n        require(token.transfer(owner(), balance), \"token transfer failed\");\n    }\n\n    /**\n     * @notice Called by the owner to pause, triggers stopped state\n     */\n    function pause() external whenNotPaused onlyOwner {\n        set(PAUSED, true);\n        /*solium-disable-next-line security/no-block-members*/\n        emit Pause(msg.sender);\n    }\n\n    /**\n     * @notice Called by the owner to unpause, returns to normal state\n     */\n    function unpause() external whenPaused onlyOwner {\n        set(PAUSED, false);\n        /*solium-disable-next-line security/no-block-members*/\n        emit Unpause(msg.sender);\n    }\n\n    /**\n     * @notice Stores the contract addresses of other key contracts from the PolymathRegistry\n     */\n    function updateFromRegistry() external onlyOwner {\n        address _polymathRegistry = getAddressValue(POLYMATHREGISTRY);\n        set(SECURITY_TOKEN_REGISTRY, IPolymathRegistry(_polymathRegistry).getAddress(\"SecurityTokenRegistry\"));\n        set(FEATURE_REGISTRY, IPolymathRegistry(_polymathRegistry).getAddress(\"FeatureRegistry\"));\n        set(POLYTOKEN, IPolymathRegistry(_polymathRegistry).getAddress(\"PolyToken\"));\n    }\n\n    /**\n    * @dev Allows the current owner to transfer control of the contract to a newOwner.\n    * @param _newOwner The address to transfer ownership to.\n    */\n    function transferOwnership(address _newOwner) external onlyOwner {\n        require(_newOwner != address(0), \"Invalid address\");\n        emit OwnershipTransferred(owner(), _newOwner);\n        set(OWNER, _newOwner);\n    }\n\n    /**\n     * @notice Gets the owner of the contract\n     * @return address owner\n     */\n    function owner() public view returns(address) {\n        return getAddressValue(OWNER);\n    }\n\n    /**\n     * @notice Checks whether the contract operations is paused or not\n     * @return bool\n     */\n    function isPaused() public view returns(bool) {\n        return getBoolValue(PAUSED);\n    }\n}\n",
  "sourcePath": "/Users/federicoelgarte/Polymath/polymath-core/contracts/ModuleRegistry.sol",
  "compiler": {
    "name": "solc",
    "version": "0.5.8+commit.23d335f2.Emscripten.clang"
  },
  "schemaVersion": "3.0.12",
  "updatedAt": "2019-09-24T16:14:03.658Z",
  "devdoc": {
    "methods": {
      "getAllModulesByType(uint8)": {
        "params": {
          "_moduleType": "Type of Module"
        },
        "return": "address array that contains the list of addresses of module factory contracts."
      },
      "getFactoryDetails(address)": {
        "params": {
          "_factoryAddress": "is the address of the module factory"
        },
        "return": "bool indicating whether module factory is verifiedaddress of the factory owneraddress array which contains the list of securityTokens that use that module factory"
      },
      "getModulesByType(uint8)": {
        "params": {
          "_moduleType": "Type of Module"
        },
        "return": "address array that contains the list of addresses of module factory contracts."
      },
      "getModulesByTypeAndToken(uint8,address)": {
        "params": {
          "_moduleType": "is the module type to look for",
          "_securityToken": "is the address of SecurityToken"
        },
        "return": "address array that contains the list of available addresses of module factory contracts."
      },
      "getTagsByType(uint8)": {
        "params": {
          "_moduleType": "is the module type"
        },
        "return": "list of tagscorresponding list of module factories"
      },
      "getTagsByTypeAndToken(uint8,address)": {
        "params": {
          "_moduleType": "is the module type",
          "_securityToken": "is the token"
        },
        "return": "list of tagscorresponding list of module factories"
      },
      "isCompatibleModule(address,address)": {
        "params": {
          "_moduleFactory": "is the address of the relevant module factory",
          "_securityToken": "is the address of the relevant security token"
        },
        "return": "bool whether module and token are compatible"
      },
      "isPaused()": {
        "return": "bool"
      },
      "owner()": {
        "return": "address owner"
      },
      "reclaimERC20(address)": {
        "params": {
          "_tokenContract": "The address of the token contract"
        }
      },
      "registerModule(address)": {
        "params": {
          "_moduleFactory": "is the address of the module factory to be registered"
        }
      },
      "removeModule(address)": {
        "params": {
          "_moduleFactory": "is the address of the module factory to be deleted from the registry"
        }
      },
      "transferOwnership(address)": {
        "details": "Allows the current owner to transfer control of the contract to a newOwner.",
        "params": {
          "_newOwner": "The address to transfer ownership to."
        }
      },
      "unverifyModule(address)": {
        "params": {
          "_moduleFactory": "is the address of the module factory to be verified"
        }
      },
      "useModule(address)": {
        "details": "ModuleFactory reputation increases by one every time it is deployed(used) by a ST.Any module can be added during token creation without being registered if it is defined in the token proxy deployment contractThe feature switch for custom modules is labelled \"customModulesAllowed\"",
        "params": {
          "_moduleFactory": "is the address of the relevant module factory"
        }
      },
      "useModule(address,bool)": {
        "details": "ModuleFactory reputation increases by one every time it is deployed(used) by a ST.Any module can be added during token creation without being registered if it is defined in the token proxy deployment contractThe feature switch for custom modules is labelled \"customModulesAllowed\"",
        "params": {
          "_isUpgrade": "whether or not the function is being called as a result of an upgrade",
          "_moduleFactory": "is the address of the relevant module factory"
        }
      },
      "verifyModule(address)": {
        "params": {
          "_moduleFactory": "is the address of the module factory to be verified"
        }
      }
    },
    "title": "Registry contract to store registered modules"
  },
  "userdoc": {
    "methods": {
      "constructor": "//////////////////////////",
      "getAllModulesByType(uint8)": {
        "notice": "Returns the list of addresses of all Module Factory of a particular type"
      },
      "getArrayAddress(bytes32)": {
        "notice": "////////////////////// getArray functions //////////////////////Get functions to get the array of the required data type Ex1- mapping(address => bytes32[]) tokensOwnedByOwner; getArrayBytes32(keccak256(abi.encodePacked(\"tokensOwnedByOwner\", 0x1)); It return the bytes32 array Ex2- uint256 _len =  tokensOwnedByOwner[0x1].length; replace with getArrayBytes32(keccak256(abi.encodePacked(\"tokensOwnedByOwner\", 0x1)).length;"
      },
      "getFactoryDetails(address)": {
        "notice": "Returns the verified status, and reputation of the entered Module Factory"
      },
      "getModulesByType(uint8)": {
        "notice": "Returns the list of addresses of verified Module Factory of a particular type"
      },
      "getModulesByTypeAndToken(uint8,address)": {
        "notice": "Returns the list of available Module factory addresses of a particular type for a given token."
      },
      "getTagsByType(uint8)": {
        "notice": "Returns all the tags related to the a module type which are valid for the given token"
      },
      "getTagsByTypeAndToken(uint8,address)": {
        "notice": "Returns all the tags related to the a module type which are valid for the given token"
      },
      "getUintValue(bytes32)": {
        "notice": "Public getters functionsGet function use to get the value of the singleton state variables Ex1- string public version = \"0.0.1\"; string _version = getString(keccak256(abi.encodePacked(\"version\")); Ex2 - assert(temp1 == temp2); replace to assert(getUint(keccak256(abi.encodePacked(temp1)) == getUint(keccak256(abi.encodePacked(temp2)); Ex3 - mapping(string => SymbolDetails) registeredSymbols; where SymbolDetails is the structure having different type of values as {uint256 date, string name, address owner} etc. string _name = getString(keccak256(abi.encodePacked(\"registeredSymbols_name\", \"TOKEN\"));"
      },
      "isCompatibleModule(address,address)": {
        "notice": "Check that a module and its factory are compatible"
      },
      "isPaused()": {
        "notice": "Checks whether the contract operations is paused or not"
      },
      "owner()": {
        "notice": "Gets the owner of the contract"
      },
      "pause()": {
        "notice": "Called by the owner to pause, triggers stopped state"
      },
      "reclaimERC20(address)": {
        "notice": "Reclaims all ERC20Basic compatible tokens"
      },
      "registerModule(address)": {
        "notice": "Called by the ModuleFactory owner to register new modules for SecurityTokens to use"
      },
      "removeModule(address)": {
        "notice": "Called by the ModuleFactory owner or registry curator to delete a ModuleFactory from the registry"
      },
      "unpause()": {
        "notice": "Called by the owner to unpause, returns to normal state"
      },
      "unverifyModule(address)": {
        "notice": "Called by Polymath to verify Module Factories for SecurityTokens to use.A module can not be used by an ST unless first approved/verified by Polymath(The only exception to this is that the author of the module is the owner of the ST)-> Only if Polymath enabled the feature."
      },
      "updateFromRegistry()": {
        "notice": "Stores the contract addresses of other key contracts from the PolymathRegistry"
      },
      "useModule(address)": {
        "notice": "Called by a SecurityToken (2.x) to check if the ModuleFactory is verified or appropriate custom module"
      },
      "useModule(address,bool)": {
        "notice": "Called by a SecurityToken to check if the ModuleFactory is verified or appropriate custom module"
      },
      "verifyModule(address)": {
        "notice": "Called by Polymath to verify Module Factories for SecurityTokens to use.A module can not be used by an ST unless first approved/verified by Polymath(The only exception to this is that the author of the module is the owner of the ST)-> Only if Polymath enabled the feature."
      }
    },
    "notice": "Only Polymath can register and verify module factories to make them available for issuers to attach."
  }
}