{
  "contractName": "Pausable",
  "abi": [
    {
      "constant": true,
      "inputs": [],
      "name": "paused",
      "outputs": [
        {
          "name": "",
          "type": "bool"
        }
      ],
      "payable": false,
      "stateMutability": "view",
      "type": "function"
    },
    {
      "anonymous": false,
      "inputs": [
        {
          "indexed": false,
          "name": "account",
          "type": "address"
        }
      ],
      "name": "Pause",
      "type": "event"
    },
    {
      "anonymous": false,
      "inputs": [
        {
          "indexed": false,
          "name": "account",
          "type": "address"
        }
      ],
      "name": "Unpause",
      "type": "event"
    }
  ],
  "bytecode": "0x60806040526000805460ff19169055348015601957600080fd5b50607c806100286000396000f3fe6080604052348015600f57600080fd5b506004361060285760003560e01c80635c975abb14602d575b600080fd5b60336047565b604080519115158252519081900360200190f35b60005460ff168156fea165627a7a723058201c5419b487c238327932c858fdb90c5b7947fe54342b1f028edab29d95a2d6760029",
  "source": "pragma solidity 0.5.8;\n\n/**\n * @title Utility contract to allow pausing and unpausing of certain functions\n */\ncontract Pausable {\n    event Pause(address account);\n    event Unpause(address account);\n\n    bool public paused = false;\n\n    /**\n    * @notice Modifier to make a function callable only when the contract is not paused.\n    */\n    modifier whenNotPaused() {\n        require(!paused, \"Contract is paused\");\n        _;\n    }\n\n    /**\n    * @notice Modifier to make a function callable only when the contract is paused.\n    */\n    modifier whenPaused() {\n        require(paused, \"Contract is not paused\");\n        _;\n    }\n\n    /**\n    * @notice Called by the owner to pause, triggers stopped state\n    */\n    function _pause() internal whenNotPaused {\n        paused = true;\n        /*solium-disable-next-line security/no-block-members*/\n        emit Pause(msg.sender);\n    }\n\n    /**\n    * @notice Called by the owner to unpause, returns to normal state\n    */\n    function _unpause() internal whenPaused {\n        paused = false;\n        /*solium-disable-next-line security/no-block-members*/\n        emit Unpause(msg.sender);\n    }\n\n}\n",
  "sourcePath": "/Users/federicoelgarte/Polymath/polymath-core/contracts/Pausable.sol",
  "compiler": {
    "name": "solc",
    "version": "0.5.8+commit.23d335f2.Emscripten.clang"
  },
  "schemaVersion": "3.0.12",
  "updatedAt": "2019-09-24T14:09:13.307Z",
  "devdoc": {
    "methods": {},
    "title": "Utility contract to allow pausing and unpausing of certain functions"
  },
  "userdoc": {
    "methods": {}
  }
}