{
  "contractName": "PercentageTransferManager",
  "abi": [
    {
      "constant": true,
      "inputs": [],
      "name": "WHITELIST",
      "outputs": [
        {
          "name": "",
          "type": "bytes32"
        }
      ],
      "payable": false,
      "stateMutability": "view",
      "type": "function"
    },
    {
      "constant": true,
      "inputs": [],
      "name": "allowPrimaryIssuance",
      "outputs": [
        {
          "name": "",
          "type": "bool"
        }
      ],
      "payable": false,
      "stateMutability": "view",
      "type": "function"
    },
    {
      "constant": true,
      "inputs": [],
      "name": "ADMIN",
      "outputs": [
        {
          "name": "",
          "type": "bytes32"
        }
      ],
      "payable": false,
      "stateMutability": "view",
      "type": "function"
    },
    {
      "constant": true,
      "inputs": [],
      "name": "maxHolderPercentage",
      "outputs": [
        {
          "name": "",
          "type": "uint256"
        }
      ],
      "payable": false,
      "stateMutability": "view",
      "type": "function"
    },
    {
      "constant": false,
      "inputs": [],
      "name": "unpause",
      "outputs": [],
      "payable": false,
      "stateMutability": "nonpayable",
      "type": "function"
    },
    {
      "constant": true,
      "inputs": [],
      "name": "paused",
      "outputs": [
        {
          "name": "",
          "type": "bool"
        }
      ],
      "payable": false,
      "stateMutability": "view",
      "type": "function"
    },
    {
      "constant": false,
      "inputs": [
        {
          "name": "_amount",
          "type": "uint256"
        }
      ],
      "name": "takeFee",
      "outputs": [
        {
          "name": "",
          "type": "bool"
        }
      ],
      "payable": false,
      "stateMutability": "nonpayable",
      "type": "function"
    },
    {
      "constant": true,
      "inputs": [],
      "name": "polyToken",
      "outputs": [
        {
          "name": "",
          "type": "address"
        }
      ],
      "payable": false,
      "stateMutability": "view",
      "type": "function"
    },
    {
      "constant": false,
      "inputs": [],
      "name": "pause",
      "outputs": [],
      "payable": false,
      "stateMutability": "nonpayable",
      "type": "function"
    },
    {
      "constant": true,
      "inputs": [
        {
          "name": "",
          "type": "address"
        }
      ],
      "name": "whitelist",
      "outputs": [
        {
          "name": "",
          "type": "bool"
        }
      ],
      "payable": false,
      "stateMutability": "view",
      "type": "function"
    },
    {
      "constant": true,
      "inputs": [],
      "name": "securityToken",
      "outputs": [
        {
          "name": "",
          "type": "address"
        }
      ],
      "payable": false,
      "stateMutability": "view",
      "type": "function"
    },
    {
      "constant": true,
      "inputs": [],
      "name": "factory",
      "outputs": [
        {
          "name": "",
          "type": "address"
        }
      ],
      "payable": false,
      "stateMutability": "view",
      "type": "function"
    },
    {
      "constant": true,
      "inputs": [],
      "name": "FEE_ADMIN",
      "outputs": [
        {
          "name": "",
          "type": "bytes32"
        }
      ],
      "payable": false,
      "stateMutability": "view",
      "type": "function"
    },
    {
      "inputs": [
        {
          "name": "_securityToken",
          "type": "address"
        },
        {
          "name": "_polyAddress",
          "type": "address"
        }
      ],
      "payable": false,
      "stateMutability": "nonpayable",
      "type": "constructor"
    },
    {
      "anonymous": false,
      "inputs": [
        {
          "indexed": false,
          "name": "_oldHolderPercentage",
          "type": "uint256"
        },
        {
          "indexed": false,
          "name": "_newHolderPercentage",
          "type": "uint256"
        }
      ],
      "name": "ModifyHolderPercentage",
      "type": "event"
    },
    {
      "anonymous": false,
      "inputs": [
        {
          "indexed": false,
          "name": "_investor",
          "type": "address"
        },
        {
          "indexed": false,
          "name": "_dateAdded",
          "type": "uint256"
        },
        {
          "indexed": false,
          "name": "_addedBy",
          "type": "address"
        },
        {
          "indexed": false,
          "name": "_valid",
          "type": "bool"
        }
      ],
      "name": "ModifyWhitelist",
      "type": "event"
    },
    {
      "anonymous": false,
      "inputs": [
        {
          "indexed": false,
          "name": "_allowPrimaryIssuance",
          "type": "bool"
        },
        {
          "indexed": false,
          "name": "_timestamp",
          "type": "uint256"
        }
      ],
      "name": "SetAllowPrimaryIssuance",
      "type": "event"
    },
    {
      "anonymous": false,
      "inputs": [
        {
          "indexed": false,
          "name": "_timestammp",
          "type": "uint256"
        }
      ],
      "name": "Pause",
      "type": "event"
    },
    {
      "anonymous": false,
      "inputs": [
        {
          "indexed": false,
          "name": "_timestamp",
          "type": "uint256"
        }
      ],
      "name": "Unpause",
      "type": "event"
    },
    {
      "constant": false,
      "inputs": [
        {
          "name": "_from",
          "type": "address"
        },
        {
          "name": "_to",
          "type": "address"
        },
        {
          "name": "_amount",
          "type": "uint256"
        },
        {
          "name": "",
          "type": "bytes"
        },
        {
          "name": "",
          "type": "bool"
        }
      ],
      "name": "verifyTransfer",
      "outputs": [
        {
          "name": "",
          "type": "uint8"
        }
      ],
      "payable": false,
      "stateMutability": "nonpayable",
      "type": "function"
    },
    {
      "constant": false,
      "inputs": [
        {
          "name": "_maxHolderPercentage",
          "type": "uint256"
        },
        {
          "name": "_allowPrimaryIssuance",
          "type": "bool"
        }
      ],
      "name": "configure",
      "outputs": [],
      "payable": false,
      "stateMutability": "nonpayable",
      "type": "function"
    },
    {
      "constant": true,
      "inputs": [],
      "name": "getInitFunction",
      "outputs": [
        {
          "name": "",
          "type": "bytes4"
        }
      ],
      "payable": false,
      "stateMutability": "pure",
      "type": "function"
    },
    {
      "constant": false,
      "inputs": [
        {
          "name": "_maxHolderPercentage",
          "type": "uint256"
        }
      ],
      "name": "changeHolderPercentage",
      "outputs": [],
      "payable": false,
      "stateMutability": "nonpayable",
      "type": "function"
    },
    {
      "constant": false,
      "inputs": [
        {
          "name": "_investor",
          "type": "address"
        },
        {
          "name": "_valid",
          "type": "bool"
        }
      ],
      "name": "modifyWhitelist",
      "outputs": [],
      "payable": false,
      "stateMutability": "nonpayable",
      "type": "function"
    },
    {
      "constant": false,
      "inputs": [
        {
          "name": "_investors",
          "type": "address[]"
        },
        {
          "name": "_valids",
          "type": "bool[]"
        }
      ],
      "name": "modifyWhitelistMulti",
      "outputs": [],
      "payable": false,
      "stateMutability": "nonpayable",
      "type": "function"
    },
    {
      "constant": false,
      "inputs": [
        {
          "name": "_allowPrimaryIssuance",
          "type": "bool"
        }
      ],
      "name": "setAllowPrimaryIssuance",
      "outputs": [],
      "payable": false,
      "stateMutability": "nonpayable",
      "type": "function"
    },
    {
      "constant": true,
      "inputs": [],
      "name": "getPermissions",
      "outputs": [
        {
          "name": "",
          "type": "bytes32[]"
        }
      ],
      "payable": false,
      "stateMutability": "view",
      "type": "function"
    }
  ],
  "bytecode": "0x60806040526002805460a060020a60ff02191690556004805460ff1916600117905534801561002d57600080fd5b5060405160408061186383398101604052805160209091015160018054600160a060020a03938416600160a060020a03199182161790915560008054821633179055600280549390921692169190911790556117d58061008e6000396000f3006080604052600436106101035763ffffffff60e060020a600035041663060d206e81146101085780631613ec9d146101305780631bb7cc991461017a57806321c4a69c146101a15780632a0acc6a146101ca57806334dee40f146101df5780633f4ba83a146101f45780635c975abb146102095780635f7619a41461021e57806366ffebb8146102365780636faa22a51461024e5780638456cb591461027f5780639b19251a14610294578063a5891bb0146102b5578063b84dfbd214610343578063c3a07df614610358578063c45a0155146103bd578063d70afa96146103d2578063de6ee1bc146103e7578063e4d5a4911461047e578063fe8e43f314610498575b600080fd5b34801561011457600080fd5b5061012e600160a060020a036004351660243515156104b5565b005b34801561013c57600080fd5b506101456106b0565b604080517fffffffff000000000000000000000000000000000000000000000000000000009092168252519081900360200190f35b34801561018657600080fd5b5061018f6106e5565b60408051918252519081900360200190f35b3480156101ad57600080fd5b506101b66106f7565b604080519115158252519081900360200190f35b3480156101d657600080fd5b5061018f610700565b3480156101eb57600080fd5b5061018f610712565b34801561020057600080fd5b5061012e610718565b34801561021557600080fd5b506101b6610800565b34801561022a57600080fd5b506101b6600435610810565b34801561024257600080fd5b5061012e600435610b2c565b34801561025a57600080fd5b50610263610cf7565b60408051600160a060020a039092168252519081900360200190f35b34801561028b57600080fd5b5061012e610d06565b3480156102a057600080fd5b506101b6600160a060020a0360043516610dec565b3480156102c157600080fd5b506040805160206004803580820135838102808601850190965280855261012e95369593946024949385019291829185019084908082843750506040805187358901803560208181028481018201909552818452989b9a998901989297509082019550935083925085019084908082843750949750610e019650505050505050565b34801561034f57600080fd5b5061026361103b565b34801561036457600080fd5b5061036d61104a565b60408051602080825283518183015283519192839290830191858101910280838360005b838110156103a9578181015183820152602001610391565b505050509050019250505060405180910390f35b3480156103c957600080fd5b506102636110c4565b3480156103de57600080fd5b5061018f6110d3565b3480156103f357600080fd5b50604080516020601f60643560048181013592830184900484028501840190955281845261045a94600160a060020a0381358116956024803590921695604435953695608494019181908401838280828437509497505050509135151592506110f7915050565b6040518082600381111561046a57fe5b60ff16815260200191505060405180910390f35b34801561048a57600080fd5b5061012e60043515156112d5565b3480156104a457600080fd5b5061012e600435602435151561150c565b60008051602061176a833981519152600080600160009054906101000a9004600160a060020a0316600160a060020a0316638da5cb5b6040518163ffffffff1660e060020a028152600401602060405180830381600087803b15801561051a57600080fd5b505af115801561052e573d6000803e3d6000fd5b505050506040513d602081101561054457600080fd5b505160005433600160a060020a0392831681149450911614905081806105675750805b806105f757506001546040805160e060020a638658b8b9028152336004820152306024820152604481018690529051600160a060020a0390921691638658b8b9916064808201926020929091908290030181600087803b1580156105ca57600080fd5b505af11580156105de573d6000803e3d6000fd5b505050506040513d60208110156105f457600080fd5b50515b151561063b576040805160e560020a62461bcd028152602060048201526017602482015260008051602061178a833981519152604482015290519081900360640190fd5b600160a060020a038516600081815260056020908152604091829020805488151560ff1990911681179091558251938452429184019190915233838301526060830152517fb9c87398ee375029386fc3494eb0458b70bff2650ea828b7ae60da9c8aebc0f19181900360800190a15050505050565b604080517f636f6e6669677572652875696e743235362c626f6f6c290000000000000000008152905190819003601701902090565b60008051602061176a83398151915281565b60045460ff1681565b60008051602061174a83398151915281565b60035481565b600160009054906101000a9004600160a060020a0316600160a060020a0316638da5cb5b6040518163ffffffff1660e060020a028152600401602060405180830381600087803b15801561076b57600080fd5b505af115801561077f573d6000803e3d6000fd5b505050506040513d602081101561079557600080fd5b5051600160a060020a031633146107f6576040805160e560020a62461bcd02815260206004820152601360248201527f53656e646572206973206e6f74206f776e657200000000000000000000000000604482015290519081900360640190fd5b6107fe611587565b565b60025460a060020a900460ff1681565b60007f4645455f41444d494e0000000000000000000000000000000000000000000000600080600160009054906101000a9004600160a060020a0316600160a060020a0316638da5cb5b6040518163ffffffff1660e060020a028152600401602060405180830381600087803b15801561088957600080fd5b505af115801561089d573d6000803e3d6000fd5b505050506040513d60208110156108b357600080fd5b505160005433600160a060020a0392831681149450911614905081806108d65750805b8061096657506001546040805160e060020a638658b8b9028152336004820152306024820152604481018690529051600160a060020a0390921691638658b8b9916064808201926020929091908290030181600087803b15801561093957600080fd5b505af115801561094d573d6000803e3d6000fd5b505050506040513d602081101561096357600080fd5b50515b15156109aa576040805160e560020a62461bcd028152602060048201526017602482015260008051602061178a833981519152604482015290519081900360640190fd5b60025460015460008054604080517f8da5cb5b0000000000000000000000000000000000000000000000000000000081529051600160a060020a03958616956323b872dd95811694931692638da5cb5b92600480820193602093909283900390910190829087803b158015610a1e57600080fd5b505af1158015610a32573d6000803e3d6000fd5b505050506040513d6020811015610a4857600080fd5b50516040805160e060020a63ffffffff8616028152600160a060020a039384166004820152929091166024830152604482018990525160648083019260209291908290030181600087803b158015610a9f57600080fd5b505af1158015610ab3573d6000803e3d6000fd5b505050506040513d6020811015610ac957600080fd5b50511515610b21576040805160e560020a62461bcd02815260206004820152601260248201527f556e61626c6520746f2074616b65206665650000000000000000000000000000604482015290519081900360640190fd5b506001949350505050565b60008051602061174a833981519152600080600160009054906101000a9004600160a060020a0316600160a060020a0316638da5cb5b6040518163ffffffff1660e060020a028152600401602060405180830381600087803b158015610b9157600080fd5b505af1158015610ba5573d6000803e3d6000fd5b505050506040513d6020811015610bbb57600080fd5b505160005433600160a060020a039283168114945091161490508180610bde5750805b80610c6e57506001546040805160e060020a638658b8b9028152336004820152306024820152604481018690529051600160a060020a0390921691638658b8b9916064808201926020929091908290030181600087803b158015610c4157600080fd5b505af1158015610c55573d6000803e3d6000fd5b505050506040513d6020811015610c6b57600080fd5b50515b1515610cb2576040805160e560020a62461bcd028152602060048201526017602482015260008051602061178a833981519152604482015290519081900360640190fd5b600354604080519182526020820186905280517fe9b0fcc8b2a55be3a1a728fec777bf0d7aabab40dba65afc40b9987e51c185689281900390910190a1505050600355565b600254600160a060020a031681565b600160009054906101000a9004600160a060020a0316600160a060020a0316638da5cb5b6040518163ffffffff1660e060020a028152600401602060405180830381600087803b158015610d5957600080fd5b505af1158015610d6d573d6000803e3d6000fd5b505050506040513d6020811015610d8357600080fd5b5051600160a060020a03163314610de4576040805160e560020a62461bcd02815260206004820152601360248201527f53656e646572206973206e6f74206f776e657200000000000000000000000000604482015290519081900360640190fd5b6107fe61163d565b60056020526000908152604090205460ff1681565b600060008051602061176a833981519152600080600160009054906101000a9004600160a060020a0316600160a060020a0316638da5cb5b6040518163ffffffff1660e060020a028152600401602060405180830381600087803b158015610e6857600080fd5b505af1158015610e7c573d6000803e3d6000fd5b505050506040513d6020811015610e9257600080fd5b505160005433600160a060020a039283168114945091161490508180610eb55750805b80610f4557506001546040805160e060020a638658b8b9028152336004820152306024820152604481018690529051600160a060020a0390921691638658b8b9916064808201926020929091908290030181600087803b158015610f1857600080fd5b505af1158015610f2c573d6000803e3d6000fd5b505050506040513d6020811015610f4257600080fd5b50515b1515610f89576040805160e560020a62461bcd028152602060048201526017602482015260008051602061178a833981519152604482015290519081900360640190fd5b8451865114610fe2576040805160e560020a62461bcd02815260206004820152601c60248201527f496e707574206172726179206c656e677468206d69732d6d6174636800000000604482015290519081900360640190fd5b600093505b855184101561103357611028868581518110151561100157fe5b90602001906020020151868681518110151561101957fe5b906020019060200201516104b5565b600190930192610fe7565b505050505050565b600154600160a060020a031681565b60408051600280825260608083018452928392919060208301908038833901905050905060008051602061176a83398151915281600081518110151561108c57fe5b60209081029091010152805160008051602061174a83398151915290829060019081106110b557fe5b60209081029091010152905090565b600054600160a060020a031681565b7f4645455f41444d494e000000000000000000000000000000000000000000000081565b600254600090819060a060020a900460ff1615156112c657600160a060020a038716158015611128575060045460ff165b1561113657600191506112cb565b600160a060020a03861660009081526005602052604090205460ff161561116057600191506112cb565b600154604080517f70a08231000000000000000000000000000000000000000000000000000000008152600160a060020a038981166004830152915161120393899316916370a082319160248083019260209291908290030181600087803b1580156111cb57600080fd5b505af11580156111df573d6000803e3d6000fd5b505050506040513d60208110156111f557600080fd5b50519063ffffffff6116f816565b90506003546112ae600160009054906101000a9004600160a060020a0316600160a060020a03166318160ddd6040518163ffffffff1660e060020a028152600401602060405180830381600087803b15801561125e57600080fd5b505af1158015611272573d6000803e3d6000fd5b505050506040513d602081101561128857600080fd5b50516112a284670de0b6b3a764000063ffffffff61170b16565b9063ffffffff61173416565b11156112bd57600091506112cb565b600191506112cb565b600191505b5095945050505050565b60008051602061174a833981519152600080600160009054906101000a9004600160a060020a0316600160a060020a0316638da5cb5b6040518163ffffffff1660e060020a028152600401602060405180830381600087803b15801561133a57600080fd5b505af115801561134e573d6000803e3d6000fd5b505050506040513d602081101561136457600080fd5b505160005433600160a060020a0392831681149450911614905081806113875750805b8061141757506001546040805160e060020a638658b8b9028152336004820152306024820152604481018690529051600160a060020a0390921691638658b8b9916064808201926020929091908290030181600087803b1580156113ea57600080fd5b505af11580156113fe573d6000803e3d6000fd5b505050506040513d602081101561141457600080fd5b50515b151561145b576040805160e560020a62461bcd028152602060048201526017602482015260008051602061178a833981519152604482015290519081900360640190fd5b60045460ff16151584151514156114bc576040805160e560020a62461bcd02815260206004820152601360248201527f4d757374206368616e67652073657474696e6700000000000000000000000000604482015290519081900360640190fd5b6004805460ff19168515159081179091556040805191825242602083015280517f18c46e6020c4726ca5632d0d9151af91a57008e48735d9c6283621f37fae3db59281900390910190a150505050565b600054600160a060020a0316331461156e576040805160e560020a62461bcd02815260206004820152601560248201527f53656e646572206973206e6f7420666163746f72790000000000000000000000604482015290519081900360640190fd5b6003919091556004805460ff1916911515919091179055565b60025460a060020a900460ff1615156115ea576040805160e560020a62461bcd02815260206004820152601660248201527f436f6e7472616374206973206e6f742070617573656400000000000000000000604482015290519081900360640190fd5b6002805474ff0000000000000000000000000000000000000000191690556040805142815290517faaa520fdd7d2c83061d632fa017b0432407e798818af63ea908589fceda39ab79181900360200190a1565b60025460a060020a900460ff161561169f576040805160e560020a62461bcd02815260206004820152601260248201527f436f6e7472616374206973207061757365640000000000000000000000000000604482015290519081900360640190fd5b6002805474ff0000000000000000000000000000000000000000191660a060020a1790556040805142815290517f68b095021b1f40fe513109f513c66692f0b3219aee674a69f4efc57badb8201d9181900360200190a1565b8181018281101561170557fe5b92915050565b600082151561171c57506000611705565b5081810281838281151561172c57fe5b041461170557fe5b6000818381151561174157fe5b049392505050560041444d494e00000000000000000000000000000000000000000000000000000057484954454c49535400000000000000000000000000000000000000000000005065726d697373696f6e20636865636b206661696c6564000000000000000000a165627a7a72305820bbcbb0e29838e35c35233af7a889c133dcdacb39d3e3726cab3bdab43c1adbc00029",
  "source": "/**\n * DISCLAIMER: Under certain conditions, the limit could be bypassed if a large token holder \n * redeems a huge portion of their tokens. It will cause the total supply to drop \n * which can result in some other token holders having a percentage of tokens \n * higher than the intended limit.\n */\n\npragma solidity ^0.4.24;\n\nimport \"./ITransferManager.sol\";\nimport \"openzeppelin-solidity/contracts/math/SafeMath.sol\";\n\n/**\n * @title Transfer Manager module for limiting percentage of token supply a single address can hold\n */\ncontract PercentageTransferManager is ITransferManager {\n    using SafeMath for uint256;\n\n    // Permission key for modifying the whitelist\n    bytes32 public constant WHITELIST = \"WHITELIST\";\n    bytes32 public constant ADMIN = \"ADMIN\";\n\n    // Maximum percentage that any holder can have, multiplied by 10**16 - e.g. 20% is 20 * 10**16\n    uint256 public maxHolderPercentage;\n\n    // Ignore transactions which are part of the primary issuance\n    bool public allowPrimaryIssuance = true;\n\n    // Addresses on this list are always able to send / receive tokens\n    mapping (address => bool) public whitelist;\n\n    event ModifyHolderPercentage(uint256 _oldHolderPercentage, uint256 _newHolderPercentage);\n    event ModifyWhitelist(\n        address _investor,\n        uint256 _dateAdded,\n        address _addedBy,\n        bool    _valid\n    );\n    event SetAllowPrimaryIssuance(bool _allowPrimaryIssuance, uint256 _timestamp);\n\n    /**\n     * @notice Constructor\n     * @param _securityToken Address of the security token\n     * @param _polyAddress Address of the polytoken\n     */\n    constructor (address _securityToken, address _polyAddress)\n    public\n    Module(_securityToken, _polyAddress)\n    {\n    }\n\n    /** @notice Used to verify the transfer transaction and prevent a given account to end up with more tokens than allowed\n     * @param _from Address of the sender\n     * @param _to Address of the receiver\n     * @param _amount The amount of tokens to transfer\n     */\n    function verifyTransfer(address _from, address _to, uint256 _amount, bytes /* _data */, bool /* _isTransfer */) public returns(Result) {\n        if (!paused) {\n            if (_from == address(0) && allowPrimaryIssuance) {\n                return Result.NA;\n            }\n            // If an address is on the whitelist, it is allowed to hold more than maxHolderPercentage of the tokens.\n            if (whitelist[_to]) {\n                return Result.NA;\n            }\n            uint256 newBalance = ISecurityToken(securityToken).balanceOf(_to).add(_amount);\n            if (newBalance.mul(uint256(10)**18).div(ISecurityToken(securityToken).totalSupply()) > maxHolderPercentage) {\n                return Result.INVALID;\n            }\n            return Result.NA;\n        }\n        return Result.NA;\n    }\n\n    /**\n     * @notice Used to intialize the variables of the contract\n     * @param _maxHolderPercentage Maximum amount of ST20 tokens(in %) can hold by the investor\n     */\n    function configure(uint256 _maxHolderPercentage, bool _allowPrimaryIssuance) public onlyFactory {\n        maxHolderPercentage = _maxHolderPercentage;\n        allowPrimaryIssuance = _allowPrimaryIssuance;\n    }\n\n    /**\n     * @notice This function returns the signature of configure function\n     */\n    function getInitFunction() public pure returns (bytes4) {\n        return bytes4(keccak256(\"configure(uint256,bool)\"));\n    }\n\n    /**\n    * @notice sets the maximum percentage that an individual token holder can hold\n    * @param _maxHolderPercentage is the new maximum percentage (multiplied by 10**16)\n    */\n    function changeHolderPercentage(uint256 _maxHolderPercentage) public withPerm(ADMIN) {\n        emit ModifyHolderPercentage(maxHolderPercentage, _maxHolderPercentage);\n        maxHolderPercentage = _maxHolderPercentage;\n    }\n\n    /**\n    * @notice adds or removes addresses from the whitelist.\n    * @param _investor is the address to whitelist\n    * @param _valid whether or not the address it to be added or removed from the whitelist\n    */\n    function modifyWhitelist(address _investor, bool _valid) public withPerm(WHITELIST) {\n        whitelist[_investor] = _valid;\n        /*solium-disable-next-line security/no-block-members*/\n        emit ModifyWhitelist(_investor, now, msg.sender, _valid);\n    }\n\n    /**\n    * @notice adds or removes addresses from the whitelist.\n    * @param _investors Array of the addresses to whitelist\n    * @param _valids Array of boolean value to decide whether or not the address it to be added or removed from the whitelist\n    */\n    function modifyWhitelistMulti(address[] _investors, bool[] _valids) public withPerm(WHITELIST) {\n        require(_investors.length == _valids.length, \"Input array length mis-match\");\n        for (uint i = 0; i < _investors.length; i++) {\n            modifyWhitelist(_investors[i], _valids[i]);\n        }\n    }\n\n    /**\n    * @notice sets whether or not to consider primary issuance transfers\n    * @param _allowPrimaryIssuance whether to allow all primary issuance transfers\n    */\n    function setAllowPrimaryIssuance(bool _allowPrimaryIssuance) public withPerm(ADMIN) {\n        require(_allowPrimaryIssuance != allowPrimaryIssuance, \"Must change setting\");\n        allowPrimaryIssuance = _allowPrimaryIssuance;\n        /*solium-disable-next-line security/no-block-members*/\n        emit SetAllowPrimaryIssuance(_allowPrimaryIssuance, now);\n    }\n\n    /**\n     * @notice Return the permissions flag that are associated with Percentage transfer Manager\n     */\n    function getPermissions() public view returns(bytes32[]) {\n        bytes32[] memory allPermissions = new bytes32[](2);\n        allPermissions[0] = WHITELIST;\n        allPermissions[1] = ADMIN;\n        return allPermissions;\n    }\n\n}\n",
  "sourcePath": "/Users/federicoelgarte/Polymath/polymath-core/contracts/modules/TransferManager/PercentageTransferManager.sol",
  "compiler": {
    "name": "solc",
    "version": "0.4.24+commit.e67f0147.Emscripten.clang"
  },
  "schemaVersion": "2.0.1",
  "updatedAt": "2019-04-01T17:52:46.296Z"
}