{
  "contractName": "PercentageTransferManager",
  "abi": [
    {
      "constant": false,
      "inputs": [],
      "name": "reclaimETH",
      "outputs": [],
      "payable": false,
      "stateMutability": "nonpayable",
      "type": "function"
    },
    {
      "constant": true,
      "inputs": [],
      "name": "allowPrimaryIssuance",
      "outputs": [
        {
          "name": "",
          "type": "bool"
        }
      ],
      "payable": false,
      "stateMutability": "view",
      "type": "function"
    },
    {
      "constant": true,
      "inputs": [
        {
          "name": "_partition",
          "type": "bytes32"
        },
        {
          "name": "_tokenHolder",
          "type": "address"
        },
        {
          "name": "",
          "type": "uint256"
        }
      ],
      "name": "getTokensByPartition",
      "outputs": [
        {
          "name": "",
          "type": "uint256"
        }
      ],
      "payable": false,
      "stateMutability": "view",
      "type": "function"
    },
    {
      "constant": true,
      "inputs": [],
      "name": "ADMIN",
      "outputs": [
        {
          "name": "",
          "type": "bytes32"
        }
      ],
      "payable": false,
      "stateMutability": "view",
      "type": "function"
    },
    {
      "constant": true,
      "inputs": [],
      "name": "maxHolderPercentage",
      "outputs": [
        {
          "name": "",
          "type": "uint256"
        }
      ],
      "payable": false,
      "stateMutability": "view",
      "type": "function"
    },
    {
      "constant": false,
      "inputs": [],
      "name": "unpause",
      "outputs": [],
      "payable": false,
      "stateMutability": "nonpayable",
      "type": "function"
    },
    {
      "constant": true,
      "inputs": [],
      "name": "paused",
      "outputs": [
        {
          "name": "",
          "type": "bool"
        }
      ],
      "payable": false,
      "stateMutability": "view",
      "type": "function"
    },
    {
      "constant": true,
      "inputs": [],
      "name": "UNLOCKED",
      "outputs": [
        {
          "name": "",
          "type": "bytes32"
        }
      ],
      "payable": false,
      "stateMutability": "view",
      "type": "function"
    },
    {
      "constant": true,
      "inputs": [],
      "name": "polyToken",
      "outputs": [
        {
          "name": "",
          "type": "address"
        }
      ],
      "payable": false,
      "stateMutability": "view",
      "type": "function"
    },
    {
      "constant": false,
      "inputs": [],
      "name": "pause",
      "outputs": [],
      "payable": false,
      "stateMutability": "nonpayable",
      "type": "function"
    },
    {
      "constant": false,
      "inputs": [
        {
          "name": "_tokenContract",
          "type": "address"
        }
      ],
      "name": "reclaimERC20",
      "outputs": [],
      "payable": false,
      "stateMutability": "nonpayable",
      "type": "function"
    },
    {
      "constant": true,
      "inputs": [],
      "name": "OPERATOR",
      "outputs": [
        {
          "name": "",
          "type": "bytes32"
        }
      ],
      "payable": false,
      "stateMutability": "view",
      "type": "function"
    },
    {
      "constant": true,
      "inputs": [
        {
          "name": "",
          "type": "address"
        }
      ],
      "name": "whitelist",
      "outputs": [
        {
          "name": "",
          "type": "bool"
        }
      ],
      "payable": false,
      "stateMutability": "view",
      "type": "function"
    },
    {
      "constant": true,
      "inputs": [],
      "name": "LOCKED",
      "outputs": [
        {
          "name": "",
          "type": "bytes32"
        }
      ],
      "payable": false,
      "stateMutability": "view",
      "type": "function"
    },
    {
      "constant": true,
      "inputs": [],
      "name": "securityToken",
      "outputs": [
        {
          "name": "",
          "type": "address"
        }
      ],
      "payable": false,
      "stateMutability": "view",
      "type": "function"
    },
    {
      "constant": true,
      "inputs": [],
      "name": "factory",
      "outputs": [
        {
          "name": "",
          "type": "address"
        }
      ],
      "payable": false,
      "stateMutability": "view",
      "type": "function"
    },
    {
      "constant": true,
      "inputs": [],
      "name": "getDataStore",
      "outputs": [
        {
          "name": "",
          "type": "address"
        }
      ],
      "payable": false,
      "stateMutability": "view",
      "type": "function"
    },
    {
      "inputs": [
        {
          "name": "_securityToken",
          "type": "address"
        },
        {
          "name": "_polyToken",
          "type": "address"
        }
      ],
      "payable": false,
      "stateMutability": "nonpayable",
      "type": "constructor"
    },
    {
      "anonymous": false,
      "inputs": [
        {
          "indexed": false,
          "name": "_oldHolderPercentage",
          "type": "uint256"
        },
        {
          "indexed": false,
          "name": "_newHolderPercentage",
          "type": "uint256"
        }
      ],
      "name": "ModifyHolderPercentage",
      "type": "event"
    },
    {
      "anonymous": false,
      "inputs": [
        {
          "indexed": false,
          "name": "_investor",
          "type": "address"
        },
        {
          "indexed": false,
          "name": "_addedBy",
          "type": "address"
        },
        {
          "indexed": false,
          "name": "_valid",
          "type": "bool"
        }
      ],
      "name": "ModifyWhitelist",
      "type": "event"
    },
    {
      "anonymous": false,
      "inputs": [
        {
          "indexed": false,
          "name": "_allowPrimaryIssuance",
          "type": "bool"
        }
      ],
      "name": "SetAllowPrimaryIssuance",
      "type": "event"
    },
    {
      "anonymous": false,
      "inputs": [
        {
          "indexed": false,
          "name": "account",
          "type": "address"
        }
      ],
      "name": "Pause",
      "type": "event"
    },
    {
      "anonymous": false,
      "inputs": [
        {
          "indexed": false,
          "name": "account",
          "type": "address"
        }
      ],
      "name": "Unpause",
      "type": "event"
    },
    {
      "constant": false,
      "inputs": [
        {
          "name": "_from",
          "type": "address"
        },
        {
          "name": "_to",
          "type": "address"
        },
        {
          "name": "_amount",
          "type": "uint256"
        },
        {
          "name": "",
          "type": "bytes"
        }
      ],
      "name": "executeTransfer",
      "outputs": [
        {
          "name": "",
          "type": "uint8"
        }
      ],
      "payable": false,
      "stateMutability": "nonpayable",
      "type": "function"
    },
    {
      "constant": true,
      "inputs": [
        {
          "name": "_from",
          "type": "address"
        },
        {
          "name": "_to",
          "type": "address"
        },
        {
          "name": "_amount",
          "type": "uint256"
        },
        {
          "name": "",
          "type": "bytes"
        }
      ],
      "name": "verifyTransfer",
      "outputs": [
        {
          "name": "",
          "type": "uint8"
        },
        {
          "name": "",
          "type": "bytes32"
        }
      ],
      "payable": false,
      "stateMutability": "view",
      "type": "function"
    },
    {
      "constant": false,
      "inputs": [
        {
          "name": "_maxHolderPercentage",
          "type": "uint256"
        },
        {
          "name": "_allowPrimaryIssuance",
          "type": "bool"
        }
      ],
      "name": "configure",
      "outputs": [],
      "payable": false,
      "stateMutability": "nonpayable",
      "type": "function"
    },
    {
      "constant": true,
      "inputs": [],
      "name": "getInitFunction",
      "outputs": [
        {
          "name": "",
          "type": "bytes4"
        }
      ],
      "payable": false,
      "stateMutability": "pure",
      "type": "function"
    },
    {
      "constant": false,
      "inputs": [
        {
          "name": "_maxHolderPercentage",
          "type": "uint256"
        }
      ],
      "name": "changeHolderPercentage",
      "outputs": [],
      "payable": false,
      "stateMutability": "nonpayable",
      "type": "function"
    },
    {
      "constant": false,
      "inputs": [
        {
          "name": "_investor",
          "type": "address"
        },
        {
          "name": "_valid",
          "type": "bool"
        }
      ],
      "name": "modifyWhitelist",
      "outputs": [],
      "payable": false,
      "stateMutability": "nonpayable",
      "type": "function"
    },
    {
      "constant": false,
      "inputs": [
        {
          "name": "_investors",
          "type": "address[]"
        },
        {
          "name": "_valids",
          "type": "bool[]"
        }
      ],
      "name": "modifyWhitelistMulti",
      "outputs": [],
      "payable": false,
      "stateMutability": "nonpayable",
      "type": "function"
    },
    {
      "constant": false,
      "inputs": [
        {
          "name": "_allowPrimaryIssuance",
          "type": "bool"
        }
      ],
      "name": "setAllowPrimaryIssuance",
      "outputs": [],
      "payable": false,
      "stateMutability": "nonpayable",
      "type": "function"
    },
    {
      "constant": true,
      "inputs": [],
      "name": "getPermissions",
      "outputs": [
        {
          "name": "",
          "type": "bytes32[]"
        }
      ],
      "payable": false,
      "stateMutability": "view",
      "type": "function"
    }
  ],
  "bytecode": "0x60806040526001805460ff19168117905560058054600160a01b60ff021916905534801561002c57600080fd5b5060405160408061155a8339810180604052604081101561004c57600080fd5b508051602090910151600480546001600160a01b039384166001600160a01b03199182161790915560038054821633179055600580549390921692169190911790556114bd8061009d6000396000f3fe608060405234801561001057600080fd5b506004361061018e5760003560e01c80638456cb59116100de578063b84dfbd211610097578063e4d5a49111610071578063e4d5a4911461055a578063f1d74b0f14610579578063fe58265e14610668578063fe8e43f3146106705761018e565b8063b84dfbd2146104f2578063c3a07df6146104fa578063c45a0155146105525761018e565b80638456cb591461036b5780638905fd4f14610373578063983d2737146103995780639b19251a146103a1578063a1422f69146103c7578063a5891bb0146103cf5761018e565b806334dee40f1161014b5780635c975abb116101255780635c975abb1461031a57806366ffebb8146103225780636c2f0d531461033f5780636faa22a5146103475761018e565b806334dee40f146102585780633d321731146102605780633f4ba83a146103125761018e565b8063060d206e146101935780630f144a48146101c35780631613ec9d146101cb57806321c4a69c146101f05780632829e6511461020c5780632a0acc6a14610250575b600080fd5b6101c1600480360360408110156101a957600080fd5b506001600160a01b0381351690602001351515610695565b005b6101c1610764565b6101d361079c565b604080516001600160e01b03199092168252519081900360200190f35b6101f86107aa565b604080519115158252519081900360200190f35b61023e6004803603606081101561022257600080fd5b508035906001600160a01b0360208201351690604001356107b3565b60408051918252519081900360200190f35b61023e61085d565b61023e61086c565b6102ee6004803603608081101561027657600080fd5b6001600160a01b03823581169260208101359091169160408201359190810190608081016060820135600160201b8111156102b057600080fd5b8201836020820111156102c257600080fd5b803590602001918460018302840111600160201b831117156102e357600080fd5b509092509050610872565b604051808260038111156102fe57fe5b60ff16815260200191505060405180910390f35b6101c161088c565b6101f861089e565b6101c16004803603602081101561033857600080fd5b50356108ae565b61023e610953565b61034f610965565b604080516001600160a01b039092168252519081900360200190f35b6101c1610974565b6101c16004803603602081101561038957600080fd5b50356001600160a01b0316610984565b61023e610b3f565b6101f8600480360360208110156103b757600080fd5b50356001600160a01b0316610b51565b61023e610b66565b6101c1600480360360408110156103e557600080fd5b810190602081018135600160201b8111156103ff57600080fd5b82018360208201111561041157600080fd5b803590602001918460208302840111600160201b8311171561043257600080fd5b9190808060200260200160405190810160405280939291908181526020018383602002808284376000920191909152509295949360208101935035915050600160201b81111561048157600080fd5b82018360208201111561049357600080fd5b803590602001918460208302840111600160201b831117156104b457600080fd5b919080806020026020016040519081016040528093929190818152602001838360200280828437600092019190915250929550610b76945050505050565b61034f610c7b565b610502610c8a565b60408051602080825283518183015283519192839290830191858101910280838360005b8381101561053e578181015183820152602001610526565b505050509050019250505060405180910390f35b61034f610cd7565b6101c16004803603602081101561057057600080fd5b50351515610ce6565b61063d6004803603608081101561058f57600080fd5b6001600160a01b03823581169260208101359091169160408201359190810190608081016060820135600160201b8111156105c957600080fd5b8201836020820111156105db57600080fd5b803590602001918460018302840111600160201b831117156105fc57600080fd5b91908080601f016020809104026020016040519081016040528093929190818152602001838380828437600092019190915250929550610df1945050505050565b6040518083600381111561064d57fe5b60ff1681526020018281526020019250505060405180910390f35b61034f610e0c565b6101c16004803603604081101561068657600080fd5b50803590602001351515610e8d565b600160d91b6420a226a4a7026106ab8133610f08565b6106f75760408051600160e51b62461bcd0281526020600482015260126024820152600160711b7124b73b30b634b2103832b936b4b9b9b4b7b702604482015290519081900360640190fd5b6001600160a01b038316600081815260026020908152604091829020805486151560ff1990911681179091558251938452339184019190915282820152517f9e1f37babdf752402f18721b55f2edd86bb2d68886ade1c14482d847d17217cc9181900360600190a1505050565b61076c61103a565b6040513390303180156108fc02916000818181858888f19350505050158015610799573d6000803e3d6000fd5b50565b600160e01b63fe8e43f30290565b60015460ff1681565b6000600160c21b6715539313d0d2d15102841415610852576004805460408051600160e01b6370a082310281526001600160a01b0387811694820194909452905192909116916370a0823191602480820192602092909190829003018186803b15801561081f57600080fd5b505afa158015610833573d6000803e3d6000fd5b505050506040513d602081101561084957600080fd5b50519050610856565b5060005b9392505050565b600160d91b6420a226a4a70281565b60005481565b60008061088087878761110a565b50979650505050505050565b61089461103a565b61089c6112e3565b565b600554600160a01b900460ff1681565b600160d91b6420a226a4a7026108c48133610f08565b6109105760408051600160e51b62461bcd0281526020600482015260126024820152600160711b7124b73b30b634b2103832b936b4b9b9b4b7b702604482015290519081900360640190fd5b600054604080519182526020820184905280517fe9b0fcc8b2a55be3a1a728fec777bf0d7aabab40dba65afc40b9987e51c185689281900390910190a150600055565b600160c21b6715539313d0d2d1510281565b6005546001600160a01b031681565b61097c61103a565b61089c611389565b61098c61103a565b6001600160a01b0381166109ea5760408051600160e51b62461bcd02815260206004820152600f60248201527f496e76616c696420616464726573730000000000000000000000000000000000604482015290519081900360640190fd5b60408051600160e01b6370a08231028152306004820152905182916000916001600160a01b038416916370a08231916024808301926020929190829003018186803b158015610a3857600080fd5b505afa158015610a4c573d6000803e3d6000fd5b505050506040513d6020811015610a6257600080fd5b505160408051600160e01b63a9059cbb0281523360048201526024810183905290519192506001600160a01b0384169163a9059cbb916044808201926020929091908290030181600087803b158015610aba57600080fd5b505af1158015610ace573d6000803e3d6000fd5b505050506040513d6020811015610ae457600080fd5b5051610b3a5760408051600160e51b62461bcd02815260206004820152600f60248201527f5472616e73666572206661696c65640000000000000000000000000000000000604482015290519081900360640190fd5b505050565b600160c11b6727a822a920aa27a90281565b60026020526000908152604090205460ff1681565b600160d21b651313d0d2d1510281565b600160d91b6420a226a4a702610b8c8133610f08565b610bd85760408051600160e51b62461bcd0281526020600482015260126024820152600160711b7124b73b30b634b2103832b936b4b9b9b4b7b702604482015290519081900360640190fd5b8151835114610c315760408051600160e51b62461bcd02815260206004820152601c60248201527f496e707574206172726179206c656e677468206d69732d6d6174636800000000604482015290519081900360640190fd5b60005b8351811015610c7557610c6d848281518110610c4c57fe5b6020026020010151848381518110610c6057fe5b6020026020010151610695565b600101610c34565b50505050565b6004546001600160a01b031681565b604080516002808252606080830184529283929190602083019080388339019050509050600160d91b6420a226a4a70281600181518110610cc757fe5b6020908102919091010152905090565b6003546001600160a01b031681565b600160d91b6420a226a4a702610cfc8133610f08565b610d485760408051600160e51b62461bcd0281526020600482015260126024820152600160711b7124b73b30b634b2103832b936b4b9b9b4b7b702604482015290519081900360640190fd5b60015460ff1615158215151415610da95760408051600160e51b62461bcd02815260206004820152601360248201527f4d757374206368616e67652073657474696e6700000000000000000000000000604482015290519081900360640190fd5b6001805483151560ff19909116811790915560408051918252517f71cae3e0d7629d169301405475cbe8243a19b32ea252b1cae8f1255d89c4c6419181900360200190a15050565b600080610dff86868661110a565b9150915094509492505050565b6000600460009054906101000a90046001600160a01b03166001600160a01b031663660d0d676040518163ffffffff1660e01b815260040160206040518083038186803b158015610e5c57600080fd5b505afa158015610e70573d6000803e3d6000fd5b505050506040513d6020811015610e8657600080fd5b5051905090565b6003546001600160a01b03163314610eef5760408051600160e51b62461bcd02815260206004820152601560248201527f53656e646572206973206e6f7420666163746f72790000000000000000000000604482015290519081900360640190fd5b6000919091556001805460ff1916911515919091179055565b6004805460408051600160e01b638da5cb5b028152905160009384936001600160a01b031692638da5cb5b9281830192602092829003018186803b158015610f4f57600080fd5b505afa158015610f63573d6000803e3d6000fd5b505050506040513d6020811015610f7957600080fd5b50516003546001600160a01b038581169281168314935016148180610f9b5750805b8061102f57506004805460408051600160e01b638658b8b90281526001600160a01b03888116948201949094523060248201526044810189905290519290911691638658b8b991606480820192602092909190829003018186803b15801561100257600080fd5b505afa158015611016573d6000803e3d6000fd5b505050506040513d602081101561102c57600080fd5b50515b925050505b92915050565b6004805460408051600160e01b638da5cb5b02815290516001600160a01b0390921692638da5cb5b928282019260209290829003018186803b15801561107f57600080fd5b505afa158015611093573d6000803e3d6000fd5b505050506040513d60208110156110a957600080fd5b50516001600160a01b0316331461089c5760408051600160e51b62461bcd02815260206004820152601360248201527f53656e646572206973206e6f74206f776e657200000000000000000000000000604482015290519081900360640190fd5b6005546000908190600160a01b900460ff166112d3576001600160a01b038516158015611139575060015460ff165b1561114a57506001905060006112db565b6001600160a01b03841660009081526002602052604090205460ff161561117757506001905060006112db565b6004805460408051600160e01b6370a082310281526001600160a01b0388811694820194909452905160009361120a9388939116916370a0823191602480820192602092909190829003018186803b1580156111d257600080fd5b505afa1580156111e6573d6000803e3d6000fd5b505050506040513d60208110156111fc57600080fd5b50519063ffffffff61143616565b90506000546112b0600460009054906101000a90046001600160a01b03166001600160a01b03166318160ddd6040518163ffffffff1660e01b815260040160206040518083038186803b15801561126057600080fd5b505afa158015611274573d6000803e3d6000fd5b505050506040513d602081101561128a57600080fd5b50516112a484670de0b6b3a764000063ffffffff61144816565b9063ffffffff61146f16565b11156112c5575060009150503060601b6112db565b5060019150600090506112db565b506001905060005b935093915050565b600554600160a01b900460ff166113445760408051600160e51b62461bcd02815260206004820152601660248201527f436f6e7472616374206973206e6f742070617573656400000000000000000000604482015290519081900360640190fd5b60058054600160a01b60ff02191690556040805133815290517faeb196d352664784d1900b0e7414a8face7d29f4dae8c4b0cf68ed477423bbf49181900360200190a1565b600554600160a01b900460ff16156113eb5760408051600160e51b62461bcd02815260206004820152601260248201527f436f6e7472616374206973207061757365640000000000000000000000000000604482015290519081900360640190fd5b60058054600160a01b60ff021916600160a01b1790556040805133815290517f5ee71a369c8672edded508e624ffc9257fa1ae6886ef32905c18e60196bca3999181900360200190a1565b60008282018381101561085657600080fd5b60008261145757506000611034565b8282028284828161146457fe5b041461085657600080fd5b600080821161147d57600080fd5b600082848161148857fe5b0494935050505056fea165627a7a7230582084fda2b23cfe8287b4f2030d263ce00d3f52237445259f88a76b6ff7c248ebcf0029",
  "source": "/**\n * DISCLAIMER: Under certain conditions, the limit could be bypassed if a large token holder\n * redeems a huge portion of their tokens. It will cause the total supply to drop\n * which can result in some other token holders having a percentage of tokens\n * higher than the intended limit.\n */\n\npragma solidity 0.5.8;\n\nimport \"../TransferManager.sol\";\nimport \"openzeppelin-solidity/contracts/math/SafeMath.sol\";\nimport \"./PercentageTransferManagerStorage.sol\";\n\n/**\n * @title Transfer Manager module for limiting percentage of token supply a single address can hold\n */\ncontract PercentageTransferManager is PercentageTransferManagerStorage, TransferManager {\n    using SafeMath for uint256;\n\n    event ModifyHolderPercentage(uint256 _oldHolderPercentage, uint256 _newHolderPercentage);\n    event ModifyWhitelist(address _investor, address _addedBy, bool _valid);\n    event SetAllowPrimaryIssuance(bool _allowPrimaryIssuance);\n\n    /**\n     * @notice Constructor\n     * @param _securityToken Address of the security token\n     */\n    constructor(address _securityToken, address _polyToken)\n    public\n    Module(_securityToken, _polyToken)\n    {\n\n    }\n\n    /** @notice Used to verify the transfer transaction and prevent a given account to end up with more tokens than allowed\n     * @param _from Address of the sender\n     * @param _to Address of the receiver\n     * @param _amount The amount of tokens to transfer\n     */\n    function executeTransfer(\n        address _from,\n        address _to,\n        uint256 _amount,\n        bytes calldata /* _data */\n    )\n        external\n        returns(Result)\n    {\n        (Result success,) = _verifyTransfer(_from, _to, _amount);\n        return success;\n    }\n\n    /**\n     * @notice Used to verify the transfer transaction and prevent a given account to end up with more tokens than allowed\n     * @param _from Address of the sender\n     * @param _to Address of the receiver\n     * @param _amount The amount of tokens to transfer\n     */\n    function verifyTransfer(\n        address _from,\n        address _to,\n        uint256 _amount,\n        bytes memory /*_data*/\n    )\n        public\n        view\n        returns(Result, bytes32)\n    {\n        return _verifyTransfer(_from, _to, _amount);\n    }\n\n    function _verifyTransfer(\n        address _from,\n        address _to,\n        uint256 _amount\n    )\n        internal\n        view\n        returns(Result, bytes32)\n    {\n        if (!paused) {\n            if (_from == address(0) && allowPrimaryIssuance) {\n                return (Result.NA, bytes32(0));\n            }\n            // If an address is on the whitelist, it is allowed to hold more than maxHolderPercentage of the tokens.\n            if (whitelist[_to]) {\n                return (Result.NA, bytes32(0));\n            }\n            uint256 newBalance = securityToken.balanceOf(_to).add(_amount);\n            if (newBalance.mul(uint256(10) ** 18).div(securityToken.totalSupply()) > maxHolderPercentage) {\n                return (Result.INVALID, bytes32(uint256(address(this)) << 96));\n            }\n            return (Result.NA, bytes32(0));\n        }\n        return (Result.NA, bytes32(0));\n    }\n\n    /**\n     * @notice Used to intialize the variables of the contract\n     * @param _maxHolderPercentage Maximum amount of ST20 tokens(in %) can hold by the investor\n     */\n    function configure(uint256 _maxHolderPercentage, bool _allowPrimaryIssuance) public onlyFactory {\n        maxHolderPercentage = _maxHolderPercentage;\n        allowPrimaryIssuance = _allowPrimaryIssuance;\n    }\n\n    /**\n     * @notice This function returns the signature of configure function\n     */\n    function getInitFunction() public pure returns(bytes4) {\n        return this.configure.selector;\n    }\n\n    /**\n    * @notice sets the maximum percentage that an individual token holder can hold\n    * @param _maxHolderPercentage is the new maximum percentage (multiplied by 10**16)\n    */\n    function changeHolderPercentage(uint256 _maxHolderPercentage) public withPerm(ADMIN) {\n        emit ModifyHolderPercentage(maxHolderPercentage, _maxHolderPercentage);\n        maxHolderPercentage = _maxHolderPercentage;\n    }\n\n    /**\n    * @notice adds or removes addresses from the whitelist.\n    * @param _investor is the address to whitelist\n    * @param _valid whether or not the address it to be added or removed from the whitelist\n    */\n    function modifyWhitelist(address _investor, bool _valid) public withPerm(ADMIN) {\n        whitelist[_investor] = _valid;\n        /*solium-disable-next-line security/no-block-members*/\n        emit ModifyWhitelist(_investor, msg.sender, _valid);\n    }\n\n    /**\n    * @notice adds or removes addresses from the whitelist.\n    * @param _investors Array of the addresses to whitelist\n    * @param _valids Array of boolean value to decide whether or not the address it to be added or removed from the whitelist\n    */\n    function modifyWhitelistMulti(address[] memory _investors, bool[] memory _valids) public withPerm(ADMIN) {\n        require(_investors.length == _valids.length, \"Input array length mis-match\");\n        for (uint i = 0; i < _investors.length; i++) {\n            modifyWhitelist(_investors[i], _valids[i]);\n        }\n    }\n\n    /**\n    * @notice sets whether or not to consider primary issuance transfers\n    * @param _allowPrimaryIssuance whether to allow all primary issuance transfers\n    */\n    function setAllowPrimaryIssuance(bool _allowPrimaryIssuance) public withPerm(ADMIN) {\n        require(_allowPrimaryIssuance != allowPrimaryIssuance, \"Must change setting\");\n        allowPrimaryIssuance = _allowPrimaryIssuance;\n        /*solium-disable-next-line security/no-block-members*/\n        emit SetAllowPrimaryIssuance(_allowPrimaryIssuance);\n    }\n\n    /**\n     * @notice Return the permissions flag that are associated with Percentage transfer Manager\n     */\n    function getPermissions() public view returns(bytes32[] memory) {\n        bytes32[] memory allPermissions = new bytes32[](2);\n        allPermissions[1] = ADMIN;\n        return allPermissions;\n    }\n\n}\n",
  "sourcePath": "C:/Users/victor/Repos/polymath-core/contracts/modules/TransferManager/PTM/PercentageTransferManager.sol",
  "compiler": {
    "name": "solc",
    "version": "0.5.8+commit.23d335f2.Emscripten.clang"
  },
  "schemaVersion": "3.0.11",
  "updatedAt": "2019-06-19T20:39:29.475Z",
  "devdoc": {
    "methods": {
      "changeHolderPercentage(uint256)": {
        "params": {
          "_maxHolderPercentage": "is the new maximum percentage (multiplied by 10**16)"
        }
      },
      "configure(uint256,bool)": {
        "params": {
          "_maxHolderPercentage": "Maximum amount of ST20 tokens(in %) can hold by the investor"
        }
      },
      "constructor": {
        "params": {
          "_securityToken": "Address of the security token"
        }
      },
      "executeTransfer(address,address,uint256,bytes)": {
        "params": {
          "_amount": "The amount of tokens to transfer",
          "_from": "Address of the sender",
          "_to": "Address of the receiver"
        }
      },
      "getTokensByPartition(bytes32,address,uint256)": {
        "details": "returning the balance of token holder against the UNLOCKED partition.  This condition is valid only when the base contract doesn't implement the `getTokensByPartition()` function.  "
      },
      "modifyWhitelist(address,bool)": {
        "params": {
          "_investor": "is the address to whitelist",
          "_valid": "whether or not the address it to be added or removed from the whitelist"
        }
      },
      "modifyWhitelistMulti(address[],bool[])": {
        "params": {
          "_investors": "Array of the addresses to whitelist",
          "_valids": "Array of boolean value to decide whether or not the address it to be added or removed from the whitelist"
        }
      },
      "reclaimERC20(address)": {
        "details": "We duplicate here due to the overriden owner & onlyOwner",
        "params": {
          "_tokenContract": "The address of the token contract"
        }
      },
      "reclaimETH()": {
        "details": "We duplicate here due to the overriden owner & onlyOwner"
      },
      "setAllowPrimaryIssuance(bool)": {
        "params": {
          "_allowPrimaryIssuance": "whether to allow all primary issuance transfers"
        }
      },
      "verifyTransfer(address,address,uint256,bytes)": {
        "params": {
          "_amount": "The amount of tokens to transfer",
          "_from": "Address of the sender",
          "_to": "Address of the receiver"
        }
      }
    },
    "title": "Transfer Manager module for limiting percentage of token supply a single address can hold"
  },
  "userdoc": {
    "methods": {
      "changeHolderPercentage(uint256)": {
        "notice": "sets the maximum percentage that an individual token holder can hold"
      },
      "configure(uint256,bool)": {
        "notice": "Used to intialize the variables of the contract"
      },
      "constructor": "Constructor",
      "executeTransfer(address,address,uint256,bytes)": {
        "notice": "Used to verify the transfer transaction and prevent a given account to end up with more tokens than allowed"
      },
      "getDataStore()": {
        "notice": "used to return the data store address of securityToken"
      },
      "getInitFunction()": {
        "notice": "This function returns the signature of configure function"
      },
      "getPermissions()": {
        "notice": "Return the permissions flag that are associated with Percentage transfer Manager"
      },
      "getTokensByPartition(bytes32,address,uint256)": {
        "notice": "return the amount of tokens for a given user as per the partition"
      },
      "modifyWhitelist(address,bool)": {
        "notice": "adds or removes addresses from the whitelist."
      },
      "modifyWhitelistMulti(address[],bool[])": {
        "notice": "adds or removes addresses from the whitelist."
      },
      "pause()": {
        "notice": "Pause (overridden function)"
      },
      "reclaimERC20(address)": {
        "notice": "Reclaims ERC20Basic compatible tokens"
      },
      "reclaimETH()": {
        "notice": "Reclaims ETH"
      },
      "setAllowPrimaryIssuance(bool)": {
        "notice": "sets whether or not to consider primary issuance transfers"
      },
      "unpause()": {
        "notice": "Unpause (overridden function)"
      },
      "verifyTransfer(address,address,uint256,bytes)": {
        "notice": "Used to verify the transfer transaction and prevent a given account to end up with more tokens than allowed"
      }
    }
  }
}