{
  "contractName": "PercentageTransferManager",
  "abi": [
    {
      "constant": false,
      "inputs": [],
      "name": "reclaimETH",
      "outputs": [],
      "payable": false,
      "stateMutability": "nonpayable",
      "type": "function",
      "signature": "0x0f144a48"
    },
    {
      "constant": true,
      "inputs": [],
      "name": "allowPrimaryIssuance",
      "outputs": [
        {
          "name": "",
          "type": "bool"
        }
      ],
      "payable": false,
      "stateMutability": "view",
      "type": "function",
      "signature": "0x21c4a69c"
    },
    {
      "constant": true,
      "inputs": [
        {
          "name": "_partition",
          "type": "bytes32"
        },
        {
          "name": "_tokenHolder",
          "type": "address"
        },
        {
          "name": "",
          "type": "uint256"
        }
      ],
      "name": "getTokensByPartition",
      "outputs": [
        {
          "name": "",
          "type": "uint256"
        }
      ],
      "payable": false,
      "stateMutability": "view",
      "type": "function",
      "signature": "0x2829e651"
    },
    {
      "constant": true,
      "inputs": [],
      "name": "ADMIN",
      "outputs": [
        {
          "name": "",
          "type": "bytes32"
        }
      ],
      "payable": false,
      "stateMutability": "view",
      "type": "function",
      "signature": "0x2a0acc6a"
    },
    {
      "constant": true,
      "inputs": [],
      "name": "maxHolderPercentage",
      "outputs": [
        {
          "name": "",
          "type": "uint256"
        }
      ],
      "payable": false,
      "stateMutability": "view",
      "type": "function",
      "signature": "0x34dee40f"
    },
    {
      "constant": false,
      "inputs": [],
      "name": "unpause",
      "outputs": [],
      "payable": false,
      "stateMutability": "nonpayable",
      "type": "function",
      "signature": "0x3f4ba83a"
    },
    {
      "constant": true,
      "inputs": [],
      "name": "paused",
      "outputs": [
        {
          "name": "",
          "type": "bool"
        }
      ],
      "payable": false,
      "stateMutability": "view",
      "type": "function",
      "signature": "0x5c975abb"
    },
    {
      "constant": true,
      "inputs": [],
      "name": "UNLOCKED",
      "outputs": [
        {
          "name": "",
          "type": "bytes32"
        }
      ],
      "payable": false,
      "stateMutability": "view",
      "type": "function",
      "signature": "0x6c2f0d53"
    },
    {
      "constant": true,
      "inputs": [],
      "name": "polyToken",
      "outputs": [
        {
          "name": "",
          "type": "address"
        }
      ],
      "payable": false,
      "stateMutability": "view",
      "type": "function",
      "signature": "0x6faa22a5"
    },
    {
      "constant": false,
      "inputs": [],
      "name": "pause",
      "outputs": [],
      "payable": false,
      "stateMutability": "nonpayable",
      "type": "function",
      "signature": "0x8456cb59"
    },
    {
      "constant": false,
      "inputs": [
        {
          "name": "_tokenContract",
          "type": "address"
        }
      ],
      "name": "reclaimERC20",
      "outputs": [],
      "payable": false,
      "stateMutability": "nonpayable",
      "type": "function",
      "signature": "0x8905fd4f"
    },
    {
      "constant": true,
      "inputs": [],
      "name": "OPERATOR",
      "outputs": [
        {
          "name": "",
          "type": "bytes32"
        }
      ],
      "payable": false,
      "stateMutability": "view",
      "type": "function",
      "signature": "0x983d2737"
    },
    {
      "constant": true,
      "inputs": [
        {
          "name": "",
          "type": "address"
        }
      ],
      "name": "whitelist",
      "outputs": [
        {
          "name": "",
          "type": "bool"
        }
      ],
      "payable": false,
      "stateMutability": "view",
      "type": "function",
      "signature": "0x9b19251a"
    },
    {
      "constant": true,
      "inputs": [],
      "name": "LOCKED",
      "outputs": [
        {
          "name": "",
          "type": "bytes32"
        }
      ],
      "payable": false,
      "stateMutability": "view",
      "type": "function",
      "signature": "0xa1422f69"
    },
    {
      "constant": true,
      "inputs": [],
      "name": "securityToken",
      "outputs": [
        {
          "name": "",
          "type": "address"
        }
      ],
      "payable": false,
      "stateMutability": "view",
      "type": "function",
      "signature": "0xb84dfbd2"
    },
    {
      "constant": true,
      "inputs": [],
      "name": "factory",
      "outputs": [
        {
          "name": "",
          "type": "address"
        }
      ],
      "payable": false,
      "stateMutability": "view",
      "type": "function",
      "signature": "0xc45a0155"
    },
    {
      "constant": true,
      "inputs": [],
      "name": "getDataStore",
      "outputs": [
        {
          "name": "",
          "type": "address"
        }
      ],
      "payable": false,
      "stateMutability": "view",
      "type": "function",
      "signature": "0xfe58265e"
    },
    {
      "inputs": [
        {
          "name": "_securityToken",
          "type": "address"
        },
        {
          "name": "_polyToken",
          "type": "address"
        }
      ],
      "payable": false,
      "stateMutability": "nonpayable",
      "type": "constructor",
      "signature": "constructor"
    },
    {
      "anonymous": false,
      "inputs": [
        {
          "indexed": false,
          "name": "_oldHolderPercentage",
          "type": "uint256"
        },
        {
          "indexed": false,
          "name": "_newHolderPercentage",
          "type": "uint256"
        }
      ],
      "name": "ModifyHolderPercentage",
      "type": "event",
      "signature": "0xe9b0fcc8b2a55be3a1a728fec777bf0d7aabab40dba65afc40b9987e51c18568"
    },
    {
      "anonymous": false,
      "inputs": [
        {
          "indexed": false,
          "name": "_investor",
          "type": "address"
        },
        {
          "indexed": false,
          "name": "_addedBy",
          "type": "address"
        },
        {
          "indexed": false,
          "name": "_valid",
          "type": "bool"
        }
      ],
      "name": "ModifyWhitelist",
      "type": "event",
      "signature": "0x9e1f37babdf752402f18721b55f2edd86bb2d68886ade1c14482d847d17217cc"
    },
    {
      "anonymous": false,
      "inputs": [
        {
          "indexed": false,
          "name": "_allowPrimaryIssuance",
          "type": "bool"
        }
      ],
      "name": "SetAllowPrimaryIssuance",
      "type": "event",
      "signature": "0x71cae3e0d7629d169301405475cbe8243a19b32ea252b1cae8f1255d89c4c641"
    },
    {
      "anonymous": false,
      "inputs": [
        {
          "indexed": false,
          "name": "account",
          "type": "address"
        }
      ],
      "name": "Pause",
      "type": "event",
      "signature": "0x5ee71a369c8672edded508e624ffc9257fa1ae6886ef32905c18e60196bca399"
    },
    {
      "anonymous": false,
      "inputs": [
        {
          "indexed": false,
          "name": "account",
          "type": "address"
        }
      ],
      "name": "Unpause",
      "type": "event",
      "signature": "0xaeb196d352664784d1900b0e7414a8face7d29f4dae8c4b0cf68ed477423bbf4"
    },
    {
      "constant": false,
      "inputs": [
        {
          "name": "_from",
          "type": "address"
        },
        {
          "name": "_to",
          "type": "address"
        },
        {
          "name": "_amount",
          "type": "uint256"
        },
        {
          "name": "",
          "type": "bytes"
        }
      ],
      "name": "executeTransfer",
      "outputs": [
        {
          "name": "",
          "type": "uint8"
        }
      ],
      "payable": false,
      "stateMutability": "nonpayable",
      "type": "function",
      "signature": "0x3d321731"
    },
    {
      "constant": true,
      "inputs": [
        {
          "name": "_from",
          "type": "address"
        },
        {
          "name": "_to",
          "type": "address"
        },
        {
          "name": "_amount",
          "type": "uint256"
        },
        {
          "name": "",
          "type": "bytes"
        }
      ],
      "name": "verifyTransfer",
      "outputs": [
        {
          "name": "",
          "type": "uint8"
        },
        {
          "name": "",
          "type": "bytes32"
        }
      ],
      "payable": false,
      "stateMutability": "view",
      "type": "function",
      "signature": "0xf1d74b0f"
    },
    {
      "constant": false,
      "inputs": [
        {
          "name": "_maxHolderPercentage",
          "type": "uint256"
        },
        {
          "name": "_allowPrimaryIssuance",
          "type": "bool"
        }
      ],
      "name": "configure",
      "outputs": [],
      "payable": false,
      "stateMutability": "nonpayable",
      "type": "function",
      "signature": "0xfe8e43f3"
    },
    {
      "constant": true,
      "inputs": [],
      "name": "getInitFunction",
      "outputs": [
        {
          "name": "",
          "type": "bytes4"
        }
      ],
      "payable": false,
      "stateMutability": "pure",
      "type": "function",
      "signature": "0x1613ec9d"
    },
    {
      "constant": false,
      "inputs": [
        {
          "name": "_maxHolderPercentage",
          "type": "uint256"
        }
      ],
      "name": "changeHolderPercentage",
      "outputs": [],
      "payable": false,
      "stateMutability": "nonpayable",
      "type": "function",
      "signature": "0x66ffebb8"
    },
    {
      "constant": false,
      "inputs": [
        {
          "name": "_investor",
          "type": "address"
        },
        {
          "name": "_valid",
          "type": "bool"
        }
      ],
      "name": "modifyWhitelist",
      "outputs": [],
      "payable": false,
      "stateMutability": "nonpayable",
      "type": "function",
      "signature": "0x060d206e"
    },
    {
      "constant": false,
      "inputs": [
        {
          "name": "_investors",
          "type": "address[]"
        },
        {
          "name": "_valids",
          "type": "bool[]"
        }
      ],
      "name": "modifyWhitelistMulti",
      "outputs": [],
      "payable": false,
      "stateMutability": "nonpayable",
      "type": "function",
      "signature": "0xa5891bb0"
    },
    {
      "constant": false,
      "inputs": [
        {
          "name": "_allowPrimaryIssuance",
          "type": "bool"
        }
      ],
      "name": "setAllowPrimaryIssuance",
      "outputs": [],
      "payable": false,
      "stateMutability": "nonpayable",
      "type": "function",
      "signature": "0xe4d5a491"
    },
    {
      "constant": true,
      "inputs": [],
      "name": "getPermissions",
      "outputs": [
        {
          "name": "",
          "type": "bytes32[]"
        }
      ],
      "payable": false,
      "stateMutability": "view",
      "type": "function",
      "signature": "0xc3a07df6"
    }
  ],
  "bytecode": "0x60806040526001805460ff1916811790556005805460a060020a60ff021916905534801561002c57600080fd5b5060405160408061169e8339810180604052604081101561004c57600080fd5b50805160209091015160048054600160a060020a03938416600160a060020a03199182161790915560038054821633179055600580549390921692169190911790556116018061009d6000396000f3fe608060405234801561001057600080fd5b50600436106101925760003560e060020a900480638456cb59116100e2578063b84dfbd21161009b578063e4d5a49111610075578063e4d5a4911461057c578063f1d74b0f1461059b578063fe58265e1461068c578063fe8e43f31461069457610192565b8063b84dfbd214610514578063c3a07df61461051c578063c45a01551461057457610192565b80638456cb59146103895780638905fd4f14610391578063983d2737146103b75780639b19251a146103bf578063a1422f69146103e5578063a5891bb0146103ed57610192565b806334dee40f1161014f5780635c975abb116101295780635c975abb1461033857806366ffebb8146103405780636c2f0d531461035d5780636faa22a51461036557610192565b806334dee40f146102745780633d3217311461027c5780633f4ba83a1461033057610192565b8063060d206e146101975780630f144a48146101c75780631613ec9d146101cf57806321c4a69c1461020c5780632829e651146102285780632a0acc6a1461026c575b600080fd5b6101c5600480360360408110156101ad57600080fd5b50600160a060020a03813516906020013515156106b9565b005b6101c561077e565b6101d76107b6565b604080517fffffffff000000000000000000000000000000000000000000000000000000009092168252519081900360200190f35b6102146107da565b604080519115158252519081900360200190f35b61025a6004803603606081101561023e57600080fd5b50803590600160a060020a0360208201351690604001356107e3565b60408051918252519081900360200190f35b61025a6108b5565b61025a6108c4565b61030c6004803603608081101561029257600080fd5b600160a060020a038235811692602081013590911691604082013591908101906080810160608201356401000000008111156102cd57600080fd5b8201836020820111156102df57600080fd5b8035906020019184600183028401116401000000008311171561030157600080fd5b5090925090506108ca565b6040518082600381111561031c57fe5b60ff16815260200191505060405180910390f35b6101c56108e4565b6102146108f6565b6101c56004803603602081101561035657600080fd5b5035610906565b61025a6109a1565b61036d6109c5565b60408051600160a060020a039092168252519081900360200190f35b6101c56109d4565b6101c5600480360360208110156103a757600080fd5b5035600160a060020a03166109e4565b61025a610bcb565b610214600480360360208110156103d557600080fd5b5035600160a060020a0316610bef565b61025a610c04565b6101c56004803603604081101561040357600080fd5b81019060208101813564010000000081111561041e57600080fd5b82018360208201111561043057600080fd5b8035906020019184602083028401116401000000008311171561045257600080fd5b91908080602002602001604051908101604052809392919081815260200183836020028082843760009201919091525092959493602081019350359150506401000000008111156104a257600080fd5b8201836020820111156104b457600080fd5b803590602001918460208302840111640100000000831117156104d657600080fd5b919080806020026020016040519081016040528093929190818152602001838360200280828437600092019190915250929550610c28945050505050565b61036d610d23565b610524610d32565b60408051602080825283518183015283519192839290830191858101910280838360005b83811015610560578181015183820152602001610548565b505050509050019250505060405180910390f35b61036d610d7f565b6101c56004803603602081101561059257600080fd5b50351515610d8e565b610661600480360360808110156105b157600080fd5b600160a060020a038235811692602081013590911691604082013591908101906080810160608201356401000000008111156105ec57600080fd5b8201836020820111156105fe57600080fd5b8035906020019184600183028401116401000000008311171561062057600080fd5b91908080601f016020809104026020016040519081016040528093929190818152602001838380828437600092019190915250929550610e8f945050505050565b6040518083600381111561067157fe5b60ff1681526020018281526020019250505060405180910390f35b61036d610eaa565b6101c5600480360360408110156106aa57600080fd5b50803590602001351515610f2e565b60d960020a6420a226a4a7026106cf8133610fa9565b610711576040805160e560020a62461bcd02815260206004820152601260248201526000805160206115b6833981519152604482015290519081900360640190fd5b600160a060020a038316600081815260026020908152604091829020805486151560ff1990911681179091558251938452339184019190915282820152517f9e1f37babdf752402f18721b55f2edd86bb2d68886ade1c14482d847d17217cc9181900360600190a1505050565b610786611107565b6040513390303180156108fc02916000818181858888f193505050501580156107b3573d6000803e3d6000fd5b50565b7ffe8e43f30000000000000000000000000000000000000000000000000000000090565b60015460ff1681565b60007f554e4c4f434b45440000000000000000000000000000000000000000000000008414156108aa5760048054604080517f70a08231000000000000000000000000000000000000000000000000000000008152600160a060020a0387811694820194909452905192909116916370a0823191602480820192602092909190829003018186803b15801561087757600080fd5b505afa15801561088b573d6000803e3d6000fd5b505050506040513d60208110156108a157600080fd5b505190506108ae565b5060005b9392505050565b60d960020a6420a226a4a70281565b60005481565b6000806108d88787876111ed565b50979650505050505050565b6108ec611107565b6108f46113eb565b565b60055460a060020a900460ff1681565b60d960020a6420a226a4a70261091c8133610fa9565b61095e576040805160e560020a62461bcd02815260206004820152601260248201526000805160206115b6833981519152604482015290519081900360640190fd5b600054604080519182526020820184905280517fe9b0fcc8b2a55be3a1a728fec777bf0d7aabab40dba65afc40b9987e51c185689281900390910190a150600055565b7f554e4c4f434b454400000000000000000000000000000000000000000000000081565b600554600160a060020a031681565b6109dc611107565b6108f461149f565b6109ec611107565b600160a060020a038116610a4a576040805160e560020a62461bcd02815260206004820152600f60248201527f496e76616c696420616464726573730000000000000000000000000000000000604482015290519081900360640190fd5b604080517f70a0823100000000000000000000000000000000000000000000000000000000815230600482015290518291600091600160a060020a038416916370a08231916024808301926020929190829003018186803b158015610aae57600080fd5b505afa158015610ac2573d6000803e3d6000fd5b505050506040513d6020811015610ad857600080fd5b5051604080517fa9059cbb000000000000000000000000000000000000000000000000000000008152336004820152602481018390529051919250600160a060020a0384169163a9059cbb916044808201926020929091908290030181600087803b158015610b4657600080fd5b505af1158015610b5a573d6000803e3d6000fd5b505050506040513d6020811015610b7057600080fd5b5051610bc6576040805160e560020a62461bcd02815260206004820152600f60248201527f5472616e73666572206661696c65640000000000000000000000000000000000604482015290519081900360640190fd5b505050565b7f4f50455241544f5200000000000000000000000000000000000000000000000081565b60026020526000908152604090205460ff1681565b7f4c4f434b4544000000000000000000000000000000000000000000000000000081565b60d960020a6420a226a4a702610c3e8133610fa9565b610c80576040805160e560020a62461bcd02815260206004820152601260248201526000805160206115b6833981519152604482015290519081900360640190fd5b8151835114610cd9576040805160e560020a62461bcd02815260206004820152601c60248201527f496e707574206172726179206c656e677468206d69732d6d6174636800000000604482015290519081900360640190fd5b60005b8351811015610d1d57610d15848281518110610cf457fe5b6020026020010151848381518110610d0857fe5b60200260200101516106b9565b600101610cdc565b50505050565b600454600160a060020a031681565b60408051600280825260608083018452928392919060208301908038833901905050905060d960020a6420a226a4a70281600181518110610d6f57fe5b6020908102919091010152905090565b600354600160a060020a031681565b60d960020a6420a226a4a702610da48133610fa9565b610de6576040805160e560020a62461bcd02815260206004820152601260248201526000805160206115b6833981519152604482015290519081900360640190fd5b60015460ff1615158215151415610e47576040805160e560020a62461bcd02815260206004820152601360248201527f4d757374206368616e67652073657474696e6700000000000000000000000000604482015290519081900360640190fd5b6001805483151560ff19909116811790915560408051918252517f71cae3e0d7629d169301405475cbe8243a19b32ea252b1cae8f1255d89c4c6419181900360200190a15050565b600080610e9d8686866111ed565b9150915094509492505050565b6000600460009054906101000a9004600160a060020a0316600160a060020a031663660d0d676040518163ffffffff1660e060020a02815260040160206040518083038186803b158015610efd57600080fd5b505afa158015610f11573d6000803e3d6000fd5b505050506040513d6020811015610f2757600080fd5b5051905090565b600354600160a060020a03163314610f90576040805160e560020a62461bcd02815260206004820152601560248201527f53656e646572206973206e6f7420666163746f72790000000000000000000000604482015290519081900360640190fd5b6000919091556001805460ff1916911515919091179055565b60048054604080517f8da5cb5b00000000000000000000000000000000000000000000000000000000815290516000938493600160a060020a031692638da5cb5b9281830192602092829003018186803b15801561100657600080fd5b505afa15801561101a573d6000803e3d6000fd5b505050506040513d602081101561103057600080fd5b5051600354600160a060020a0385811692811683149350161481806110525750805b806110fc575060048054604080517f8658b8b9000000000000000000000000000000000000000000000000000000008152600160a060020a03888116948201949094523060248201526044810189905290519290911691638658b8b991606480820192602092909190829003018186803b1580156110cf57600080fd5b505afa1580156110e3573d6000803e3d6000fd5b505050506040513d60208110156110f957600080fd5b50515b925050505b92915050565b60048054604080517f8da5cb5b0000000000000000000000000000000000000000000000000000000081529051600160a060020a0390921692638da5cb5b928282019260209290829003018186803b15801561116257600080fd5b505afa158015611176573d6000803e3d6000fd5b505050506040513d602081101561118c57600080fd5b5051600160a060020a031633146108f4576040805160e560020a62461bcd02815260206004820152601360248201527f53656e646572206973206e6f74206f776e657200000000000000000000000000604482015290519081900360640190fd5b600554600090819060a060020a900460ff166113db57600160a060020a03851615801561121c575060015460ff165b1561122d57506001905060006113e3565b600160a060020a03841660009081526002602052604090205460ff161561125a57506001905060006113e3565b60048054604080517f70a08231000000000000000000000000000000000000000000000000000000008152600160a060020a038881169482019490945290516000936113039388939116916370a0823191602480820192602092909190829003018186803b1580156112cb57600080fd5b505afa1580156112df573d6000803e3d6000fd5b505050506040513d60208110156112f557600080fd5b50519063ffffffff61155a16565b90506000546113ac600460009054906101000a9004600160a060020a0316600160a060020a03166318160ddd6040518163ffffffff1660e060020a02815260040160206040518083038186803b15801561135c57600080fd5b505afa158015611370573d6000803e3d6000fd5b505050506040513d602081101561138657600080fd5b50516113a084670de0b6b3a764000063ffffffff61156c16565b9063ffffffff61159316565b11156113cd575060009150506c0100000000000000000000000030026113e3565b5060019150600090506113e3565b506001905060005b935093915050565b60055460a060020a900460ff1661144c576040805160e560020a62461bcd02815260206004820152601660248201527f436f6e7472616374206973206e6f742070617573656400000000000000000000604482015290519081900360640190fd5b6005805474ff0000000000000000000000000000000000000000191690556040805133815290517faeb196d352664784d1900b0e7414a8face7d29f4dae8c4b0cf68ed477423bbf49181900360200190a1565b60055460a060020a900460ff1615611501576040805160e560020a62461bcd02815260206004820152601260248201527f436f6e7472616374206973207061757365640000000000000000000000000000604482015290519081900360640190fd5b6005805474ff0000000000000000000000000000000000000000191660a060020a1790556040805133815290517f5ee71a369c8672edded508e624ffc9257fa1ae6886ef32905c18e60196bca3999181900360200190a1565b6000828201838110156108ae57600080fd5b60008261157b57506000611101565b8282028284828161158857fe5b04146108ae57600080fd5b60008082116115a157600080fd5b60008284816115ac57fe5b0494935050505056fe496e76616c6964207065726d697373696f6e0000000000000000000000000000a165627a7a72305820993322e627f586e18bb79a2a5277227153d9bae8e62b938033870e29d67e8f360029",
  "source": "/**\n * DISCLAIMER: Under certain conditions, the limit could be bypassed if a large token holder\n * redeems a huge portion of their tokens. It will cause the total supply to drop\n * which can result in some other token holders having a percentage of tokens\n * higher than the intended limit.\n */\n\npragma solidity 0.5.8;\n\nimport \"../TransferManager.sol\";\nimport \"openzeppelin-solidity/contracts/math/SafeMath.sol\";\nimport \"./PercentageTransferManagerStorage.sol\";\n\n/**\n * @title Transfer Manager module for limiting percentage of token supply a single address can hold\n */\ncontract PercentageTransferManager is PercentageTransferManagerStorage, TransferManager {\n    using SafeMath for uint256;\n\n    event ModifyHolderPercentage(uint256 _oldHolderPercentage, uint256 _newHolderPercentage);\n    event ModifyWhitelist(address _investor, address _addedBy, bool _valid);\n    event SetAllowPrimaryIssuance(bool _allowPrimaryIssuance);\n\n    /**\n     * @notice Constructor\n     * @param _securityToken Address of the security token\n     */\n    constructor(address _securityToken, address _polyToken)\n    public\n    Module(_securityToken, _polyToken)\n    {\n\n    }\n\n    /** @notice Used to verify the transfer transaction and prevent a given account to end up with more tokens than allowed\n     * @param _from Address of the sender\n     * @param _to Address of the receiver\n     * @param _amount The amount of tokens to transfer\n     */\n    function executeTransfer(\n        address _from,\n        address _to,\n        uint256 _amount,\n        bytes calldata /* _data */\n    )\n        external\n        returns(Result)\n    {\n        (Result success,) = _verifyTransfer(_from, _to, _amount);\n        return success;\n    }\n\n    /**\n     * @notice Used to verify the transfer transaction and prevent a given account to end up with more tokens than allowed\n     * @param _from Address of the sender\n     * @param _to Address of the receiver\n     * @param _amount The amount of tokens to transfer\n     */\n    function verifyTransfer(\n        address _from,\n        address _to,\n        uint256 _amount,\n        bytes memory /*_data*/\n    )\n        public\n        view\n        returns(Result, bytes32)\n    {\n        return _verifyTransfer(_from, _to, _amount);\n    }\n\n    function _verifyTransfer(\n        address _from,\n        address _to,\n        uint256 _amount\n    )\n        internal\n        view\n        returns(Result, bytes32)\n    {\n        if (!paused) {\n            if (_from == address(0) && allowPrimaryIssuance) {\n                return (Result.NA, bytes32(0));\n            }\n            // If an address is on the whitelist, it is allowed to hold more than maxHolderPercentage of the tokens.\n            if (whitelist[_to]) {\n                return (Result.NA, bytes32(0));\n            }\n            uint256 newBalance = securityToken.balanceOf(_to).add(_amount);\n            if (newBalance.mul(uint256(10) ** 18).div(securityToken.totalSupply()) > maxHolderPercentage) {\n                return (Result.INVALID, bytes32(uint256(address(this)) << 96));\n            }\n            return (Result.NA, bytes32(0));\n        }\n        return (Result.NA, bytes32(0));\n    }\n\n    /**\n     * @notice Used to intialize the variables of the contract\n     * @param _maxHolderPercentage Maximum amount of ST20 tokens(in %) can hold by the investor\n     */\n    function configure(uint256 _maxHolderPercentage, bool _allowPrimaryIssuance) public onlyFactory {\n        maxHolderPercentage = _maxHolderPercentage;\n        allowPrimaryIssuance = _allowPrimaryIssuance;\n    }\n\n    /**\n     * @notice This function returns the signature of configure function\n     */\n    function getInitFunction() public pure returns(bytes4) {\n        return this.configure.selector;\n    }\n\n    /**\n    * @notice sets the maximum percentage that an individual token holder can hold\n    * @param _maxHolderPercentage is the new maximum percentage (multiplied by 10**16)\n    */\n    function changeHolderPercentage(uint256 _maxHolderPercentage) public withPerm(ADMIN) {\n        emit ModifyHolderPercentage(maxHolderPercentage, _maxHolderPercentage);\n        maxHolderPercentage = _maxHolderPercentage;\n    }\n\n    /**\n    * @notice adds or removes addresses from the whitelist.\n    * @param _investor is the address to whitelist\n    * @param _valid whether or not the address it to be added or removed from the whitelist\n    */\n    function modifyWhitelist(address _investor, bool _valid) public withPerm(ADMIN) {\n        whitelist[_investor] = _valid;\n        /*solium-disable-next-line security/no-block-members*/\n        emit ModifyWhitelist(_investor, msg.sender, _valid);\n    }\n\n    /**\n    * @notice adds or removes addresses from the whitelist.\n    * @param _investors Array of the addresses to whitelist\n    * @param _valids Array of boolean value to decide whether or not the address it to be added or removed from the whitelist\n    */\n    function modifyWhitelistMulti(address[] memory _investors, bool[] memory _valids) public withPerm(ADMIN) {\n        require(_investors.length == _valids.length, \"Input array length mis-match\");\n        for (uint i = 0; i < _investors.length; i++) {\n            modifyWhitelist(_investors[i], _valids[i]);\n        }\n    }\n\n    /**\n    * @notice sets whether or not to consider primary issuance transfers\n    * @param _allowPrimaryIssuance whether to allow all primary issuance transfers\n    */\n    function setAllowPrimaryIssuance(bool _allowPrimaryIssuance) public withPerm(ADMIN) {\n        require(_allowPrimaryIssuance != allowPrimaryIssuance, \"Must change setting\");\n        allowPrimaryIssuance = _allowPrimaryIssuance;\n        /*solium-disable-next-line security/no-block-members*/\n        emit SetAllowPrimaryIssuance(_allowPrimaryIssuance);\n    }\n\n    /**\n     * @notice Return the permissions flag that are associated with Percentage transfer Manager\n     */\n    function getPermissions() public view returns(bytes32[] memory) {\n        bytes32[] memory allPermissions = new bytes32[](2);\n        allPermissions[1] = ADMIN;\n        return allPermissions;\n    }\n\n}\n",
  "sourcePath": "/Users/federicoelgarte/Polymath/polymath-core/contracts/modules/TransferManager/PTM/PercentageTransferManager.sol",
  "compiler": {
    "name": "solc",
    "version": "0.5.8+commit.23d335f2.Emscripten.clang"
  },
  "schemaVersion": "3.0.2",
  "updatedAt": "2019-07-19T14:56:31.198Z",
  "devdoc": {
    "methods": {
      "changeHolderPercentage(uint256)": {
        "params": {
          "_maxHolderPercentage": "is the new maximum percentage (multiplied by 10**16)"
        }
      },
      "configure(uint256,bool)": {
        "params": {
          "_maxHolderPercentage": "Maximum amount of ST20 tokens(in %) can hold by the investor"
        }
      },
      "constructor": {
        "params": {
          "_securityToken": "Address of the security token"
        }
      },
      "executeTransfer(address,address,uint256,bytes)": {
        "params": {
          "_amount": "The amount of tokens to transfer",
          "_from": "Address of the sender",
          "_to": "Address of the receiver"
        }
      },
      "getTokensByPartition(bytes32,address,uint256)": {
        "details": "returning the balance of token holder against the UNLOCKED partition.  This condition is valid only when the base contract doesn't implement the `getTokensByPartition()` function.  "
      },
      "modifyWhitelist(address,bool)": {
        "params": {
          "_investor": "is the address to whitelist",
          "_valid": "whether or not the address it to be added or removed from the whitelist"
        }
      },
      "modifyWhitelistMulti(address[],bool[])": {
        "params": {
          "_investors": "Array of the addresses to whitelist",
          "_valids": "Array of boolean value to decide whether or not the address it to be added or removed from the whitelist"
        }
      },
      "reclaimERC20(address)": {
        "details": "We duplicate here due to the overriden owner & onlyOwner",
        "params": {
          "_tokenContract": "The address of the token contract"
        }
      },
      "reclaimETH()": {
        "details": "We duplicate here due to the overriden owner & onlyOwner"
      },
      "setAllowPrimaryIssuance(bool)": {
        "params": {
          "_allowPrimaryIssuance": "whether to allow all primary issuance transfers"
        }
      },
      "verifyTransfer(address,address,uint256,bytes)": {
        "params": {
          "_amount": "The amount of tokens to transfer",
          "_from": "Address of the sender",
          "_to": "Address of the receiver"
        }
      }
    },
    "title": "Transfer Manager module for limiting percentage of token supply a single address can hold"
  },
  "userdoc": {
    "methods": {
      "changeHolderPercentage(uint256)": {
        "notice": "sets the maximum percentage that an individual token holder can hold"
      },
      "configure(uint256,bool)": {
        "notice": "Used to intialize the variables of the contract"
      },
      "constructor": "Constructor",
      "executeTransfer(address,address,uint256,bytes)": {
        "notice": "Used to verify the transfer transaction and prevent a given account to end up with more tokens than allowed"
      },
      "getDataStore()": {
        "notice": "used to return the data store address of securityToken"
      },
      "getInitFunction()": {
        "notice": "This function returns the signature of configure function"
      },
      "getPermissions()": {
        "notice": "Return the permissions flag that are associated with Percentage transfer Manager"
      },
      "getTokensByPartition(bytes32,address,uint256)": {
        "notice": "return the amount of tokens for a given user as per the partition"
      },
      "modifyWhitelist(address,bool)": {
        "notice": "adds or removes addresses from the whitelist."
      },
      "modifyWhitelistMulti(address[],bool[])": {
        "notice": "adds or removes addresses from the whitelist."
      },
      "pause()": {
        "notice": "Pause (overridden function)"
      },
      "reclaimERC20(address)": {
        "notice": "Reclaims ERC20Basic compatible tokens"
      },
      "reclaimETH()": {
        "notice": "Reclaims ETH"
      },
      "setAllowPrimaryIssuance(bool)": {
        "notice": "sets whether or not to consider primary issuance transfers"
      },
      "unpause()": {
        "notice": "Unpause (overridden function)"
      },
      "verifyTransfer(address,address,uint256,bytes)": {
        "notice": "Used to verify the transfer transaction and prevent a given account to end up with more tokens than allowed"
      }
    }
  }
}