{
  "contractName": "PolymathRegistry",
  "abi": [
    {
      "constant": true,
      "inputs": [
        {
          "name": "",
          "type": "bytes32"
        }
      ],
      "name": "storedAddresses",
      "outputs": [
        {
          "name": "",
          "type": "address"
        }
      ],
      "payable": false,
      "stateMutability": "view",
      "type": "function"
    },
    {
      "constant": false,
      "inputs": [],
      "name": "renounceOwnership",
      "outputs": [],
      "payable": false,
      "stateMutability": "nonpayable",
      "type": "function"
    },
    {
      "constant": false,
      "inputs": [
        {
          "name": "_tokenContract",
          "type": "address"
        }
      ],
      "name": "reclaimERC20",
      "outputs": [],
      "payable": false,
      "stateMutability": "nonpayable",
      "type": "function"
    },
    {
      "constant": true,
      "inputs": [],
      "name": "owner",
      "outputs": [
        {
          "name": "",
          "type": "address"
        }
      ],
      "payable": false,
      "stateMutability": "view",
      "type": "function"
    },
    {
      "constant": true,
      "inputs": [],
      "name": "isOwner",
      "outputs": [
        {
          "name": "",
          "type": "bool"
        }
      ],
      "payable": false,
      "stateMutability": "view",
      "type": "function"
    },
    {
      "constant": false,
      "inputs": [
        {
          "name": "newOwner",
          "type": "address"
        }
      ],
      "name": "transferOwnership",
      "outputs": [],
      "payable": false,
      "stateMutability": "nonpayable",
      "type": "function"
    },
    {
      "anonymous": false,
      "inputs": [
        {
          "indexed": false,
          "name": "_nameKey",
          "type": "string"
        },
        {
          "indexed": true,
          "name": "_oldAddress",
          "type": "address"
        },
        {
          "indexed": true,
          "name": "_newAddress",
          "type": "address"
        }
      ],
      "name": "ChangeAddress",
      "type": "event"
    },
    {
      "anonymous": false,
      "inputs": [
        {
          "indexed": true,
          "name": "previousOwner",
          "type": "address"
        },
        {
          "indexed": true,
          "name": "newOwner",
          "type": "address"
        }
      ],
      "name": "OwnershipTransferred",
      "type": "event"
    },
    {
      "constant": true,
      "inputs": [
        {
          "name": "_nameKey",
          "type": "string"
        }
      ],
      "name": "getAddress",
      "outputs": [
        {
          "name": "",
          "type": "address"
        }
      ],
      "payable": false,
      "stateMutability": "view",
      "type": "function"
    },
    {
      "constant": false,
      "inputs": [
        {
          "name": "_nameKey",
          "type": "string"
        },
        {
          "name": "_newAddress",
          "type": "address"
        }
      ],
      "name": "changeAddress",
      "outputs": [],
      "payable": false,
      "stateMutability": "nonpayable",
      "type": "function"
    }
  ],
  "bytecode": "0x6080604081905260008054600160a060020a0319163317808255600160a060020a0316917f8be0079c531659141344cd1fd0a4f28419497f9722a3daafe3b4186f6b6457e0908290a3610796806100576000396000f3fe608060405234801561001057600080fd5b50600436106100a5576000357c0100000000000000000000000000000000000000000000000000000000900480638f32d59b116100785780638f32d59b1461011b578063a7dbb40214610137578063bf40fac1146101b0578063f2fde38b14610220576100a5565b80636c47e36f146100aa578063715018a6146100e35780638905fd4f146100ed5780638da5cb5b14610113575b600080fd5b6100c7600480360360208110156100c057600080fd5b5035610246565b60408051600160a060020a039092168252519081900360200190f35b6100eb610261565b005b6100eb6004803603602081101561010357600080fd5b5035600160a060020a03166102c9565b6100c7610500565b61012361050f565b604080519115158252519081900360200190f35b6100eb6004803603604081101561014d57600080fd5b81019060208101813564010000000081111561016857600080fd5b82018360208201111561017a57600080fd5b8035906020019184600183028401116401000000008311171561019c57600080fd5b919350915035600160a060020a0316610520565b6100c7600480360360208110156101c657600080fd5b8101906020810181356401000000008111156101e157600080fd5b8201836020820111156101f357600080fd5b8035906020019184600183028401116401000000008311171561021557600080fd5b509092509050610609565b6100eb6004803603602081101561023657600080fd5b5035600160a060020a03166106d2565b600160205260009081526040902054600160a060020a031681565b61026961050f565b61027257600080fd5b60008054604051600160a060020a03909116907f8be0079c531659141344cd1fd0a4f28419497f9722a3daafe3b4186f6b6457e0908390a36000805473ffffffffffffffffffffffffffffffffffffffff19169055565b6102d161050f565b6102da57600080fd5b600160a060020a03811661034f57604080517f08c379a000000000000000000000000000000000000000000000000000000000815260206004820152600f60248201527f496e76616c696420616464726573730000000000000000000000000000000000604482015290519081900360640190fd5b604080517f70a0823100000000000000000000000000000000000000000000000000000000815230600482015290518291600091600160a060020a038416916370a08231916024808301926020929190829003018186803b1580156103b357600080fd5b505afa1580156103c7573d6000803e3d6000fd5b505050506040513d60208110156103dd57600080fd5b50519050600160a060020a03821663a9059cbb6103f8610500565b836040518363ffffffff167c01000000000000000000000000000000000000000000000000000000000281526004018083600160a060020a0316600160a060020a0316815260200182815260200192505050602060405180830381600087803b15801561046457600080fd5b505af1158015610478573d6000803e3d6000fd5b505050506040513d602081101561048e57600080fd5b50516104fb57604080517f08c379a000000000000000000000000000000000000000000000000000000000815260206004820152600f60248201527f5472616e73666572206661696c65640000000000000000000000000000000000604482015290519081900360640190fd5b505050565b600054600160a060020a031690565b600054600160a060020a0316331490565b61052861050f565b61053157600080fd5b60008383604051808383808284376040805191909301819003812060008181526001602090815290859020548184529083018b9052909750600160a060020a0389811697501694507f685cb9667751e0a0d68e0ab5e737963ad9d2c743b0191f9aedfe037e723db0ad9350899289925081908101848480828437600083820152604051601f909101601f19169092018290039550909350505050a36000908152600160205260409020805473ffffffffffffffffffffffffffffffffffffffff1916600160a060020a03929092169190911790555050565b6000808383604051808383808284376040805191909301819003902060008181526001602052929092205491955050600160a060020a0316151592506106b391505057604080517f08c379a000000000000000000000000000000000000000000000000000000000815260206004820152600b60248201527f496e76616c6964206b6579000000000000000000000000000000000000000000604482015290519081900360640190fd5b600090815260016020526040902054600160a060020a03169392505050565b6106da61050f565b6106e357600080fd5b6106ec816106ef565b50565b600160a060020a03811661070257600080fd5b60008054604051600160a060020a03808516939216917f8be0079c531659141344cd1fd0a4f28419497f9722a3daafe3b4186f6b6457e091a36000805473ffffffffffffffffffffffffffffffffffffffff1916600160a060020a039290921691909117905556fea165627a7a723058207fcd9657e56c0a97535e6d59ee55245ad757918199ee064172dd8c29306222230029",
  "source": "pragma solidity 0.5.8;\n\nimport \"./ReclaimTokens.sol\";\nimport \"./interfaces/IPolymathRegistry.sol\";\n\n/**\n * @title Core functionality for registry upgradability\n */\ncontract PolymathRegistry is ReclaimTokens, IPolymathRegistry {\n    mapping(bytes32 => address) public storedAddresses;\n\n    /**\n     * @notice Gets the contract address\n     * @param _nameKey is the key for the contract address mapping\n     * @return address\n     */\n    function getAddress(string calldata _nameKey) external view returns(address) {\n        bytes32 key = keccak256(bytes(_nameKey));\n        require(storedAddresses[key] != address(0), \"Invalid key\");\n        return storedAddresses[key];\n    }\n\n    /**\n     * @notice Changes the contract address\n     * @param _nameKey is the key for the contract address mapping\n     * @param _newAddress is the new contract address\n     */\n    function changeAddress(string calldata _nameKey, address _newAddress) external onlyOwner {\n        bytes32 key = keccak256(bytes(_nameKey));\n        emit ChangeAddress(_nameKey, storedAddresses[key], _newAddress);\n        storedAddresses[key] = _newAddress;\n    }\n\n}\n",
  "sourcePath": "/Users/federicoelgarte/Polymath/polymath-core/contracts/PolymathRegistry.sol",
  "compiler": {
    "name": "solc",
    "version": "0.5.8+commit.23d335f2.Emscripten.clang"
  },
  "schemaVersion": "3.0.2",
  "updatedAt": "2019-09-03T13:52:34.397Z",
  "devdoc": {
    "methods": {
      "changeAddress(string,address)": {
        "params": {
          "_nameKey": "is the key for the contract address mapping",
          "_newAddress": "is the new contract address"
        }
      },
      "getAddress(string)": {
        "params": {
          "_nameKey": "is the key for the contract address mapping"
        },
        "return": "address"
      },
      "isOwner()": {
        "return": "true if `msg.sender` is the owner of the contract."
      },
      "owner()": {
        "return": "the address of the owner."
      },
      "reclaimERC20(address)": {
        "params": {
          "_tokenContract": "The address of the token contract"
        }
      },
      "renounceOwnership()": {
        "details": "Allows the current owner to relinquish control of the contract. It will not be possible to call the functions with the `onlyOwner` modifier anymore."
      },
      "transferOwnership(address)": {
        "details": "Allows the current owner to transfer control of the contract to a newOwner.",
        "params": {
          "newOwner": "The address to transfer ownership to."
        }
      }
    },
    "title": "Core functionality for registry upgradability"
  },
  "userdoc": {
    "methods": {
      "changeAddress(string,address)": {
        "notice": "Changes the contract address"
      },
      "getAddress(string)": {
        "notice": "Gets the contract address"
      },
      "reclaimERC20(address)": {
        "notice": "Reclaim all ERC20Basic compatible tokens"
      },
      "renounceOwnership()": {
        "notice": "Renouncing ownership will leave the contract without an owner, thereby removing any functionality that is only available to the owner."
      }
    }
  }
}