{
  "contractName": "PolyTokenFaucet",
  "abi": [
    {
      "constant": true,
      "inputs": [],
      "name": "name",
      "outputs": [
        {
          "name": "",
          "type": "string"
        }
      ],
      "payable": false,
      "stateMutability": "view",
      "type": "function"
    },
    {
      "constant": true,
      "inputs": [],
      "name": "decimals",
      "outputs": [
        {
          "name": "",
          "type": "uint8"
        }
      ],
      "payable": false,
      "stateMutability": "view",
      "type": "function"
    },
    {
      "constant": true,
      "inputs": [],
      "name": "symbol",
      "outputs": [
        {
          "name": "",
          "type": "string"
        }
      ],
      "payable": false,
      "stateMutability": "view",
      "type": "function"
    },
    {
      "inputs": [],
      "payable": false,
      "stateMutability": "nonpayable",
      "type": "constructor"
    },
    {
      "anonymous": false,
      "inputs": [
        {
          "indexed": true,
          "name": "from",
          "type": "address"
        },
        {
          "indexed": true,
          "name": "to",
          "type": "address"
        },
        {
          "indexed": false,
          "name": "value",
          "type": "uint256"
        }
      ],
      "name": "Transfer",
      "type": "event"
    },
    {
      "anonymous": false,
      "inputs": [
        {
          "indexed": true,
          "name": "owner",
          "type": "address"
        },
        {
          "indexed": true,
          "name": "spender",
          "type": "address"
        },
        {
          "indexed": false,
          "name": "value",
          "type": "uint256"
        }
      ],
      "name": "Approval",
      "type": "event"
    },
    {
      "constant": false,
      "inputs": [
        {
          "name": "_amount",
          "type": "uint256"
        },
        {
          "name": "_recipient",
          "type": "address"
        }
      ],
      "name": "getTokens",
      "outputs": [
        {
          "name": "",
          "type": "bool"
        }
      ],
      "payable": false,
      "stateMutability": "nonpayable",
      "type": "function"
    },
    {
      "constant": false,
      "inputs": [
        {
          "name": "_to",
          "type": "address"
        },
        {
          "name": "_value",
          "type": "uint256"
        }
      ],
      "name": "transfer",
      "outputs": [
        {
          "name": "",
          "type": "bool"
        }
      ],
      "payable": false,
      "stateMutability": "nonpayable",
      "type": "function"
    },
    {
      "constant": false,
      "inputs": [
        {
          "name": "_from",
          "type": "address"
        },
        {
          "name": "_to",
          "type": "address"
        },
        {
          "name": "_value",
          "type": "uint256"
        }
      ],
      "name": "transferFrom",
      "outputs": [
        {
          "name": "",
          "type": "bool"
        }
      ],
      "payable": false,
      "stateMutability": "nonpayable",
      "type": "function"
    },
    {
      "constant": true,
      "inputs": [
        {
          "name": "_owner",
          "type": "address"
        }
      ],
      "name": "balanceOf",
      "outputs": [
        {
          "name": "balance",
          "type": "uint256"
        }
      ],
      "payable": false,
      "stateMutability": "view",
      "type": "function"
    },
    {
      "constant": false,
      "inputs": [
        {
          "name": "_spender",
          "type": "address"
        },
        {
          "name": "_value",
          "type": "uint256"
        }
      ],
      "name": "approve",
      "outputs": [
        {
          "name": "",
          "type": "bool"
        }
      ],
      "payable": false,
      "stateMutability": "nonpayable",
      "type": "function"
    },
    {
      "constant": true,
      "inputs": [
        {
          "name": "_owner",
          "type": "address"
        },
        {
          "name": "_spender",
          "type": "address"
        }
      ],
      "name": "allowance",
      "outputs": [
        {
          "name": "remaining",
          "type": "uint256"
        }
      ],
      "payable": false,
      "stateMutability": "view",
      "type": "function"
    },
    {
      "constant": true,
      "inputs": [],
      "name": "totalSupply",
      "outputs": [
        {
          "name": "",
          "type": "uint256"
        }
      ],
      "payable": false,
      "stateMutability": "view",
      "type": "function"
    },
    {
      "constant": false,
      "inputs": [
        {
          "name": "_spender",
          "type": "address"
        },
        {
          "name": "_addedValue",
          "type": "uint256"
        }
      ],
      "name": "increaseApproval",
      "outputs": [
        {
          "name": "",
          "type": "bool"
        }
      ],
      "payable": false,
      "stateMutability": "nonpayable",
      "type": "function"
    },
    {
      "constant": false,
      "inputs": [
        {
          "name": "_spender",
          "type": "address"
        },
        {
          "name": "_subtractedValue",
          "type": "uint256"
        }
      ],
      "name": "decreaseApproval",
      "outputs": [
        {
          "name": "",
          "type": "bool"
        }
      ],
      "payable": false,
      "stateMutability": "nonpayable",
      "type": "function"
    }
  ],
  "bytecode": "0x60c0604052601060808190527f506f6c796d617468204e6574776f726b0000000000000000000000000000000060a090815261003e91600191906100fd565b506040805180820190915260048082527f504f4c59000000000000000000000000000000000000000000000000000000006020909201918252610083916003916100fd565b5034801561009057600080fd5b5060028054601260ff19909116179081905560ff16600a0a620f42400260008181553380825260046020908152604080842085905580519485525191937fddf252ad1be2c89b69c2b068fc378daa952ba7f163c4a11628f55a4df523b3ef929081900390910190a3610198565b828054600181600116156101000203166002900490600052602060002090601f016020900481019282601f1061013e57805160ff191683800117855561016b565b8280016001018555821561016b579182015b8281111561016b578251825591602001919060010190610150565b5061017792915061017b565b5090565b61019591905b808211156101775760008155600101610181565b90565b610b00806101a76000396000f3fe608060405234801561001057600080fd5b50600436106100b45760003560e01c80636618846311610071578063661884631461021057806370a082311461023c57806395d89b4114610262578063a9059cbb1461026a578063d73dd62314610296578063dd62ed3e146102c2576100b4565b806306fdde03146100b9578063095ea7b31461013657806318160ddd1461017657806323b872dd146101905780632570e31e146101c6578063313ce567146101f2575b600080fd5b6100c16102f0565b6040805160208082528351818301528351919283929083019185019080838360005b838110156100fb5781810151838201526020016100e3565b50505050905090810190601f1680156101285780820380516001836020036101000a031916815260200191505b509250505060405180910390f35b6101626004803603604081101561014c57600080fd5b506001600160a01b03813516906020013561037d565b604080519115158252519081900360200190f35b61017e6103e3565b60408051918252519081900360200190f35b610162600480360360608110156101a657600080fd5b506001600160a01b038135811691602081013590911690604001356103e9565b610162600480360360408110156101dc57600080fd5b50803590602001356001600160a01b0316610641565b6101fa61077f565b6040805160ff9092168252519081900360200190f35b6101626004803603604081101561022657600080fd5b506001600160a01b038135169060200135610788565b61017e6004803603602081101561025257600080fd5b50356001600160a01b0316610878565b6100c1610893565b6101626004803603604081101561028057600080fd5b506001600160a01b0381351690602001356108ee565b610162600480360360408110156102ac57600080fd5b506001600160a01b03813516906020013561099e565b61017e600480360360408110156102d857600080fd5b506001600160a01b0381358116916020013516610a37565b60018054604080516020600284861615610100026000190190941693909304601f810184900484028201840190925281815292918301828280156103755780601f1061034a57610100808354040283529160200191610375565b820191906000526020600020905b81548152906001019060200180831161035857829003601f168201915b505050505081565b3360008181526005602090815260408083206001600160a01b038716808552908352818420869055815186815291519394909390927f8c5be1e5ebec7d5bd14f71427d1e84f3dd0314c0f7b2291e5b200ac8c7c3b925928290030190a350600192915050565b60005490565b60006001600160a01b0383166104495760408051600160e51b62461bcd02815260206004820152600f60248201527f496e76616c696420616464726573730000000000000000000000000000000000604482015290519081900360640190fd5b6001600160a01b0384166000908152600460205260409020548211156104b95760408051600160e51b62461bcd02815260206004820181905260248201527f496e73756666696369656e7420746f6b656e73207472616e7366657261626c65604482015290519081900360640190fd5b6001600160a01b03841660009081526005602090815260408083203384529091529020548211156105345760408051600160e51b62461bcd02815260206004820152601d60248201527f496e73756666696369656e7420746f6b656e7320616c6c6f7761626c65000000604482015290519081900360640190fd5b6001600160a01b03841660009081526004602052604090205461055d908363ffffffff610a6216565b6001600160a01b038086166000908152600460205260408082209390935590851681522054610592908363ffffffff610a7716565b6001600160a01b0380851660009081526004602090815260408083209490945591871681526005825282812033825290915220546105d6908363ffffffff610a6216565b6001600160a01b03808616600081815260056020908152604080832033845282529182902094909455805186815290519287169391927fddf252ad1be2c89b69c2b068fc378daa952ba7f163c4a11628f55a4df523b3ef929181900390910190a35060019392505050565b60025460009060ff16600a0a620f42400283111561069357604051600160e51b62461bcd028152600401808060200182810382526022815260200180610ab36022913960400191505060405180910390fd5b6001600160a01b0382166106db57604051600160e51b62461bcd028152600401808060200182810382526022815260200180610a916022913960400191505060405180910390fd5b6001600160a01b038216600090815260046020526040902054610704908463ffffffff610a7716565b6001600160a01b03831660009081526004602052604081209190915554610731908463ffffffff610a7716565b60009081556040805185815290516001600160a01b03851692917fddf252ad1be2c89b69c2b068fc378daa952ba7f163c4a11628f55a4df523b3ef919081900360200190a350600192915050565b60025460ff1681565b3360009081526005602090815260408083206001600160a01b0386168452909152812054808311156107dd573360009081526005602090815260408083206001600160a01b0388168452909152812055610812565b6107ed818463ffffffff610a6216565b3360009081526005602090815260408083206001600160a01b03891684529091529020555b3360008181526005602090815260408083206001600160a01b0389168085529083529281902054815190815290519293927f8c5be1e5ebec7d5bd14f71427d1e84f3dd0314c0f7b2291e5b200ac8c7c3b925929181900390910190a35060019392505050565b6001600160a01b031660009081526004602052604090205490565b6003805460408051602060026001851615610100026000190190941693909304601f810184900484028201840190925281815292918301828280156103755780601f1061034a57610100808354040283529160200191610375565b3360009081526004602052604081205461090e908363ffffffff610a6216565b33600090815260046020526040808220929092556001600160a01b03851681522054610940908363ffffffff610a7716565b6001600160a01b0384166000818152600460209081526040918290209390935580518581529051919233927fddf252ad1be2c89b69c2b068fc378daa952ba7f163c4a11628f55a4df523b3ef9281900390910190a350600192915050565b3360009081526005602090815260408083206001600160a01b03861684529091528120546109d2908363ffffffff610a7716565b3360008181526005602090815260408083206001600160a01b0389168085529083529281902085905580519485525191937f8c5be1e5ebec7d5bd14f71427d1e84f3dd0314c0f7b2291e5b200ac8c7c3b925929081900390910190a350600192915050565b6001600160a01b03918216600090815260056020908152604080832093909416825291909152205490565b600082821115610a7157600080fd5b50900390565b600082820183811015610a8957600080fd5b939250505056fe526563697069656e7420616464726573732063616e206e6f7420626520656d707479416d6f756e742073686f756c64206e6f74206578636565642031206d696c6c696f6ea165627a7a72305820dd850f7e817b744a4b1db1b911db283e851a28578e2824a29837b0c8b16da34d0029",
  "source": "pragma solidity 0.5.8;\n\nimport \"openzeppelin-solidity/contracts/math/SafeMath.sol\";\n\n/*\n POLY token faucet is only used on testnet for testing purposes\n !!!! NOT INTENDED TO BE USED ON MAINNET !!!\n*/\n\ncontract PolyTokenFaucet {\n    using SafeMath for uint256;\n    uint256 totalSupply_;\n    string public name = \"Polymath Network\";\n    uint8 public decimals;\n    string public symbol = \"POLY\";\n\n    mapping(address => uint256) balances;\n    mapping(address => mapping(address => uint256)) allowed;\n\n    event Transfer(address indexed from, address indexed to, uint256 value);\n    event Approval(address indexed owner, address indexed spender, uint256 value);\n\n    constructor() public {\n        decimals = 18;\n        totalSupply_ = 1000000 * uint256(10) ** decimals;\n        balances[msg.sender] = totalSupply_;\n        emit Transfer(address(0), msg.sender, totalSupply_);\n    }\n\n    /* Token faucet - Not part of the ERC20 standard */\n    function getTokens(uint256 _amount, address _recipient) public returns(bool) {\n        require(_amount <= 1000000 * uint256(10) ** decimals, \"Amount should not exceed 1 million\");\n        require(_recipient != address(0), \"Recipient address can not be empty\");\n        balances[_recipient] = balances[_recipient].add(_amount);\n        totalSupply_ = totalSupply_.add(_amount);\n        emit Transfer(address(0), _recipient, _amount);\n        return true;\n    }\n\n    /**\n     * @notice Sends `_value` tokens to `_to` from `msg.sender`\n     * @param _to The address of the recipient\n     * @param _value The amount of token to be transferred\n     * @return Whether the transfer was successful or not\n     */\n    function transfer(address _to, uint256 _value) public returns(bool) {\n        balances[msg.sender] = balances[msg.sender].sub(_value);\n        balances[_to] = balances[_to].add(_value);\n        emit Transfer(msg.sender, _to, _value);\n        return true;\n    }\n\n    /**\n     * @notice sends `_value` tokens to `_to` from `_from` with the condition it is approved by `_from`\n     * @param _from The address of the sender\n     * @param _to The address of the recipient\n     * @param _value The amount of token to be transferred\n     * @return Whether the transfer was successful or not\n     */\n    function transferFrom(address _from, address _to, uint256 _value) public returns(bool) {\n        require(_to != address(0), \"Invalid address\");\n        require(_value <= balances[_from], \"Insufficient tokens transferable\");\n        require(_value <= allowed[_from][msg.sender], \"Insufficient tokens allowable\");\n\n        balances[_from] = balances[_from].sub(_value);\n        balances[_to] = balances[_to].add(_value);\n        allowed[_from][msg.sender] = allowed[_from][msg.sender].sub(_value);\n        emit Transfer(_from, _to, _value);\n        return true;\n    }\n\n    /**\n     * @notice Returns the balance of a token holder\n     * @param _owner The address from which the balance will be retrieved\n     * @return The balance\n     */\n    function balanceOf(address _owner) public view returns(uint256 balance) {\n        return balances[_owner];\n    }\n\n    /**\n     * @notice Used by `msg.sender` to approve `_spender` to spend `_value` tokens\n     * @param _spender The address of the account able to transfer the tokens\n     * @param _value The amount of tokens to be approved for transfer\n     * @return Whether the approval was successful or not\n     */\n    function approve(address _spender, uint256 _value) public returns(bool) {\n        allowed[msg.sender][_spender] = _value;\n        emit Approval(msg.sender, _spender, _value);\n        return true;\n    }\n\n    /**\n     * @param _owner The address of the account owning tokens\n     * @param _spender The address of the account able to transfer the tokens\n     * @return Amount of remaining tokens allowed to be spent\n     */\n    function allowance(address _owner, address _spender) public view returns(uint256 remaining) {\n        return allowed[_owner][_spender];\n    }\n\n    function totalSupply() public view returns(uint256) {\n        return totalSupply_;\n    }\n\n    /**\n     * @dev Increases the amount of tokens that an owner allowed to a spender.\n     * approve should be called when allowed[_spender] == 0. To increment\n     * allowed value, it is better to use this function to avoid 2 calls (and wait until\n     * the first transaction is mined)\n     * From MonolithDAO Token.sol\n     * @param _spender The address which will spend the funds.\n     * @param _addedValue The amount of tokens to increase the allowance by.\n     */\n    function increaseApproval(address _spender, uint _addedValue) public returns(bool) {\n        allowed[msg.sender][_spender] = (allowed[msg.sender][_spender].add(_addedValue));\n        emit Approval(msg.sender, _spender, allowed[msg.sender][_spender]);\n        return true;\n    }\n\n    /**\n    * @dev Decrease the amount of tokens that an owner allowed to a spender.\n    *\n    * approve should be called when allowed[_spender] == 0. To decrement\n    * allowed value, it is better to use this function to avoid 2 calls (and wait until\n    * the first transaction is mined)\n    * From MonolithDAO Token.sol\n    * @param _spender The address which will spend the funds.\n    * @param _subtractedValue The amount of tokens to decrease the allowance by.\n    */\n    function decreaseApproval(address _spender, uint _subtractedValue) public returns(bool) {\n        uint oldValue = allowed[msg.sender][_spender];\n        if (_subtractedValue > oldValue) {\n            allowed[msg.sender][_spender] = 0;\n        } else {\n            allowed[msg.sender][_spender] = oldValue.sub(_subtractedValue);\n        }\n        emit Approval(msg.sender, _spender, allowed[msg.sender][_spender]);\n        return true;\n    }\n\n}\n",
  "sourcePath": "/Users/federicoelgarte/Polymath/polymath-core/contracts/mocks/PolyTokenFaucet.sol",
  "compiler": {
    "name": "solc",
    "version": "0.5.8+commit.23d335f2.Emscripten.clang"
  },
  "schemaVersion": "3.0.12",
  "updatedAt": "2019-09-24T14:10:58.776Z",
  "devdoc": {
    "methods": {
      "allowance(address,address)": {
        "params": {
          "_owner": "The address of the account owning tokens",
          "_spender": "The address of the account able to transfer the tokens"
        },
        "return": "Amount of remaining tokens allowed to be spent"
      },
      "approve(address,uint256)": {
        "params": {
          "_spender": "The address of the account able to transfer the tokens",
          "_value": "The amount of tokens to be approved for transfer"
        },
        "return": "Whether the approval was successful or not"
      },
      "balanceOf(address)": {
        "params": {
          "_owner": "The address from which the balance will be retrieved"
        },
        "return": "The balance"
      },
      "decreaseApproval(address,uint256)": {
        "details": "Decrease the amount of tokens that an owner allowed to a spender.    * approve should be called when allowed[_spender] == 0. To decrement allowed value, it is better to use this function to avoid 2 calls (and wait until the first transaction is mined) From MonolithDAO Token.sol",
        "params": {
          "_spender": "The address which will spend the funds.",
          "_subtractedValue": "The amount of tokens to decrease the allowance by."
        }
      },
      "increaseApproval(address,uint256)": {
        "details": "Increases the amount of tokens that an owner allowed to a spender. approve should be called when allowed[_spender] == 0. To increment allowed value, it is better to use this function to avoid 2 calls (and wait until the first transaction is mined) From MonolithDAO Token.sol",
        "params": {
          "_addedValue": "The amount of tokens to increase the allowance by.",
          "_spender": "The address which will spend the funds."
        }
      },
      "transfer(address,uint256)": {
        "params": {
          "_to": "The address of the recipient",
          "_value": "The amount of token to be transferred"
        },
        "return": "Whether the transfer was successful or not"
      },
      "transferFrom(address,address,uint256)": {
        "params": {
          "_from": "The address of the sender",
          "_to": "The address of the recipient",
          "_value": "The amount of token to be transferred"
        },
        "return": "Whether the transfer was successful or not"
      }
    }
  },
  "userdoc": {
    "methods": {
      "approve(address,uint256)": {
        "notice": "Used by `msg.sender` to approve `_spender` to spend `_value` tokens"
      },
      "balanceOf(address)": {
        "notice": "Returns the balance of a token holder"
      },
      "transfer(address,uint256)": {
        "notice": "Sends `_value` tokens to `_to` from `msg.sender`"
      },
      "transferFrom(address,address,uint256)": {
        "notice": "sends `_value` tokens to `_to` from `_from` with the condition it is approved by `_from`"
      }
    }
  }
}