{
  "contractName": "SecurityTokenRegistry",
  "abi": [
    {
      "constant": true,
      "inputs": [
        {
          "name": "_variable",
          "type": "bytes32"
        }
      ],
      "name": "getBytes32Value",
      "outputs": [
        {
          "name": "",
          "type": "bytes32"
        }
      ],
      "payable": false,
      "stateMutability": "view",
      "type": "function"
    },
    {
      "constant": true,
      "inputs": [
        {
          "name": "_variable",
          "type": "bytes32"
        }
      ],
      "name": "getBytesValue",
      "outputs": [
        {
          "name": "",
          "type": "bytes"
        }
      ],
      "payable": false,
      "stateMutability": "view",
      "type": "function"
    },
    {
      "constant": true,
      "inputs": [
        {
          "name": "_variable",
          "type": "bytes32"
        }
      ],
      "name": "getAddressValue",
      "outputs": [
        {
          "name": "",
          "type": "address"
        }
      ],
      "payable": false,
      "stateMutability": "view",
      "type": "function"
    },
    {
      "constant": true,
      "inputs": [
        {
          "name": "_key",
          "type": "bytes32"
        }
      ],
      "name": "getArrayAddress",
      "outputs": [
        {
          "name": "",
          "type": "address[]"
        }
      ],
      "payable": false,
      "stateMutability": "view",
      "type": "function"
    },
    {
      "constant": true,
      "inputs": [
        {
          "name": "_variable",
          "type": "bytes32"
        }
      ],
      "name": "getBoolValue",
      "outputs": [
        {
          "name": "",
          "type": "bool"
        }
      ],
      "payable": false,
      "stateMutability": "view",
      "type": "function"
    },
    {
      "constant": true,
      "inputs": [
        {
          "name": "_variable",
          "type": "bytes32"
        }
      ],
      "name": "getStringValue",
      "outputs": [
        {
          "name": "",
          "type": "string"
        }
      ],
      "payable": false,
      "stateMutability": "view",
      "type": "function"
    },
    {
      "constant": true,
      "inputs": [
        {
          "name": "_key",
          "type": "bytes32"
        }
      ],
      "name": "getArrayBytes32",
      "outputs": [
        {
          "name": "",
          "type": "bytes32[]"
        }
      ],
      "payable": false,
      "stateMutability": "view",
      "type": "function"
    },
    {
      "constant": true,
      "inputs": [
        {
          "name": "_variable",
          "type": "bytes32"
        }
      ],
      "name": "getUintValue",
      "outputs": [
        {
          "name": "",
          "type": "uint256"
        }
      ],
      "payable": false,
      "stateMutability": "view",
      "type": "function"
    },
    {
      "constant": true,
      "inputs": [
        {
          "name": "_key",
          "type": "bytes32"
        }
      ],
      "name": "getArrayUint",
      "outputs": [
        {
          "name": "",
          "type": "uint256[]"
        }
      ],
      "payable": false,
      "stateMutability": "view",
      "type": "function"
    },
    {
      "inputs": [],
      "payable": false,
      "stateMutability": "nonpayable",
      "type": "constructor"
    },
    {
      "payable": true,
      "stateMutability": "payable",
      "type": "fallback"
    },
    {
      "anonymous": false,
      "inputs": [
        {
          "indexed": false,
          "name": "account",
          "type": "address"
        }
      ],
      "name": "Pause",
      "type": "event"
    },
    {
      "anonymous": false,
      "inputs": [
        {
          "indexed": false,
          "name": "account",
          "type": "address"
        }
      ],
      "name": "Unpause",
      "type": "event"
    },
    {
      "anonymous": false,
      "inputs": [
        {
          "indexed": false,
          "name": "_ticker",
          "type": "string"
        },
        {
          "indexed": false,
          "name": "_removedBy",
          "type": "address"
        }
      ],
      "name": "TickerRemoved",
      "type": "event"
    },
    {
      "anonymous": false,
      "inputs": [
        {
          "indexed": false,
          "name": "_oldExpiry",
          "type": "uint256"
        },
        {
          "indexed": false,
          "name": "_newExpiry",
          "type": "uint256"
        }
      ],
      "name": "ChangeExpiryLimit",
      "type": "event"
    },
    {
      "anonymous": false,
      "inputs": [
        {
          "indexed": false,
          "name": "_oldFee",
          "type": "uint256"
        },
        {
          "indexed": false,
          "name": "_newFee",
          "type": "uint256"
        }
      ],
      "name": "ChangeSecurityLaunchFee",
      "type": "event"
    },
    {
      "anonymous": false,
      "inputs": [
        {
          "indexed": false,
          "name": "_oldFee",
          "type": "uint256"
        },
        {
          "indexed": false,
          "name": "_newFee",
          "type": "uint256"
        }
      ],
      "name": "ChangeTickerRegistrationFee",
      "type": "event"
    },
    {
      "anonymous": false,
      "inputs": [
        {
          "indexed": false,
          "name": "_isFeeInPoly",
          "type": "bool"
        }
      ],
      "name": "ChangeFeeCurrency",
      "type": "event"
    },
    {
      "anonymous": false,
      "inputs": [
        {
          "indexed": true,
          "name": "previousOwner",
          "type": "address"
        },
        {
          "indexed": true,
          "name": "newOwner",
          "type": "address"
        }
      ],
      "name": "OwnershipTransferred",
      "type": "event"
    },
    {
      "anonymous": false,
      "inputs": [
        {
          "indexed": false,
          "name": "_ticker",
          "type": "string"
        },
        {
          "indexed": true,
          "name": "_oldOwner",
          "type": "address"
        },
        {
          "indexed": true,
          "name": "_newOwner",
          "type": "address"
        }
      ],
      "name": "ChangeTickerOwnership",
      "type": "event"
    },
    {
      "anonymous": false,
      "inputs": [
        {
          "indexed": false,
          "name": "_ticker",
          "type": "string"
        },
        {
          "indexed": false,
          "name": "_name",
          "type": "string"
        },
        {
          "indexed": true,
          "name": "_securityTokenAddress",
          "type": "address"
        },
        {
          "indexed": true,
          "name": "_owner",
          "type": "address"
        },
        {
          "indexed": false,
          "name": "_addedAt",
          "type": "uint256"
        },
        {
          "indexed": false,
          "name": "_registrant",
          "type": "address"
        },
        {
          "indexed": false,
          "name": "_fromAdmin",
          "type": "bool"
        },
        {
          "indexed": false,
          "name": "_usdFee",
          "type": "uint256"
        },
        {
          "indexed": false,
          "name": "_polyFee",
          "type": "uint256"
        },
        {
          "indexed": false,
          "name": "_protocolVersion",
          "type": "uint256"
        }
      ],
      "name": "NewSecurityTokenCreated",
      "type": "event"
    },
    {
      "anonymous": false,
      "inputs": [
        {
          "indexed": false,
          "name": "_ticker",
          "type": "string"
        },
        {
          "indexed": false,
          "name": "_name",
          "type": "string"
        },
        {
          "indexed": true,
          "name": "_securityTokenAddress",
          "type": "address"
        },
        {
          "indexed": true,
          "name": "_owner",
          "type": "address"
        },
        {
          "indexed": false,
          "name": "_addedAt",
          "type": "uint256"
        },
        {
          "indexed": false,
          "name": "_registrant",
          "type": "address"
        },
        {
          "indexed": false,
          "name": "_fromAdmin",
          "type": "bool"
        },
        {
          "indexed": false,
          "name": "_registrationFee",
          "type": "uint256"
        }
      ],
      "name": "NewSecurityToken",
      "type": "event"
    },
    {
      "anonymous": false,
      "inputs": [
        {
          "indexed": true,
          "name": "_owner",
          "type": "address"
        },
        {
          "indexed": false,
          "name": "_ticker",
          "type": "string"
        },
        {
          "indexed": true,
          "name": "_registrationDate",
          "type": "uint256"
        },
        {
          "indexed": true,
          "name": "_expiryDate",
          "type": "uint256"
        },
        {
          "indexed": false,
          "name": "_fromAdmin",
          "type": "bool"
        },
        {
          "indexed": false,
          "name": "_registrationFeePoly",
          "type": "uint256"
        },
        {
          "indexed": false,
          "name": "_registrationFeeUsd",
          "type": "uint256"
        }
      ],
      "name": "RegisterTicker",
      "type": "event"
    },
    {
      "anonymous": false,
      "inputs": [
        {
          "indexed": true,
          "name": "_owner",
          "type": "address"
        },
        {
          "indexed": false,
          "name": "_ticker",
          "type": "string"
        },
        {
          "indexed": false,
          "name": "_name",
          "type": "string"
        },
        {
          "indexed": true,
          "name": "_registrationDate",
          "type": "uint256"
        },
        {
          "indexed": true,
          "name": "_expiryDate",
          "type": "uint256"
        },
        {
          "indexed": false,
          "name": "_fromAdmin",
          "type": "bool"
        },
        {
          "indexed": false,
          "name": "_registrationFee",
          "type": "uint256"
        }
      ],
      "name": "RegisterTicker",
      "type": "event"
    },
    {
      "anonymous": false,
      "inputs": [
        {
          "indexed": false,
          "name": "_ticker",
          "type": "string"
        },
        {
          "indexed": false,
          "name": "_name",
          "type": "string"
        },
        {
          "indexed": true,
          "name": "_securityTokenAddress",
          "type": "address"
        },
        {
          "indexed": true,
          "name": "_owner",
          "type": "address"
        },
        {
          "indexed": false,
          "name": "_addedAt",
          "type": "uint256"
        },
        {
          "indexed": false,
          "name": "_registrant",
          "type": "address"
        },
        {
          "indexed": false,
          "name": "_protocolVersion",
          "type": "uint256"
        }
      ],
      "name": "SecurityTokenRefreshed",
      "type": "event"
    },
    {
      "anonymous": false,
      "inputs": [
        {
          "indexed": true,
          "name": "_STFactory",
          "type": "address"
        },
        {
          "indexed": false,
          "name": "_major",
          "type": "uint8"
        },
        {
          "indexed": false,
          "name": "_minor",
          "type": "uint8"
        },
        {
          "indexed": false,
          "name": "_patch",
          "type": "uint8"
        }
      ],
      "name": "ProtocolFactorySet",
      "type": "event"
    },
    {
      "anonymous": false,
      "inputs": [
        {
          "indexed": false,
          "name": "_major",
          "type": "uint8"
        },
        {
          "indexed": false,
          "name": "_minor",
          "type": "uint8"
        },
        {
          "indexed": false,
          "name": "_patch",
          "type": "uint8"
        }
      ],
      "name": "LatestVersionSet",
      "type": "event"
    },
    {
      "anonymous": false,
      "inputs": [
        {
          "indexed": true,
          "name": "_STFactory",
          "type": "address"
        },
        {
          "indexed": false,
          "name": "_major",
          "type": "uint8"
        },
        {
          "indexed": false,
          "name": "_minor",
          "type": "uint8"
        },
        {
          "indexed": false,
          "name": "_patch",
          "type": "uint8"
        }
      ],
      "name": "ProtocolFactoryRemoved",
      "type": "event"
    },
    {
      "constant": false,
      "inputs": [
        {
          "name": "_polymathRegistry",
          "type": "address"
        },
        {
          "name": "_stLaunchFee",
          "type": "uint256"
        },
        {
          "name": "_tickerRegFee",
          "type": "uint256"
        },
        {
          "name": "_owner",
          "type": "address"
        },
        {
          "name": "_getterContract",
          "type": "address"
        }
      ],
      "name": "initialize",
      "outputs": [],
      "payable": false,
      "stateMutability": "nonpayable",
      "type": "function"
    },
    {
      "constant": false,
      "inputs": [],
      "name": "updateFromRegistry",
      "outputs": [],
      "payable": false,
      "stateMutability": "nonpayable",
      "type": "function"
    },
    {
      "constant": false,
      "inputs": [
        {
          "name": "_feeType",
          "type": "bytes32"
        }
      ],
      "name": "getFees",
      "outputs": [
        {
          "name": "usdFee",
          "type": "uint256"
        },
        {
          "name": "polyFee",
          "type": "uint256"
        }
      ],
      "payable": false,
      "stateMutability": "nonpayable",
      "type": "function"
    },
    {
      "constant": false,
      "inputs": [],
      "name": "getSecurityTokenLaunchFee",
      "outputs": [
        {
          "name": "polyFee",
          "type": "uint256"
        }
      ],
      "payable": false,
      "stateMutability": "nonpayable",
      "type": "function"
    },
    {
      "constant": false,
      "inputs": [],
      "name": "getTickerRegistrationFee",
      "outputs": [
        {
          "name": "polyFee",
          "type": "uint256"
        }
      ],
      "payable": false,
      "stateMutability": "nonpayable",
      "type": "function"
    },
    {
      "constant": false,
      "inputs": [
        {
          "name": "_getterContract",
          "type": "address"
        }
      ],
      "name": "setGetterRegistry",
      "outputs": [],
      "payable": false,
      "stateMutability": "nonpayable",
      "type": "function"
    },
    {
      "constant": false,
      "inputs": [
        {
          "name": "_owner",
          "type": "address"
        },
        {
          "name": "_ticker",
          "type": "string"
        }
      ],
      "name": "registerNewTicker",
      "outputs": [],
      "payable": false,
      "stateMutability": "nonpayable",
      "type": "function"
    },
    {
      "constant": false,
      "inputs": [
        {
          "name": "_owner",
          "type": "address"
        },
        {
          "name": "_ticker",
          "type": "string"
        },
        {
          "name": "_tokenName",
          "type": "string"
        }
      ],
      "name": "registerTicker",
      "outputs": [],
      "payable": false,
      "stateMutability": "nonpayable",
      "type": "function"
    },
    {
      "constant": false,
      "inputs": [
        {
          "name": "_owner",
          "type": "address"
        },
        {
          "name": "_ticker",
          "type": "string"
        },
        {
          "name": "_registrationDate",
          "type": "uint256"
        },
        {
          "name": "_expiryDate",
          "type": "uint256"
        },
        {
          "name": "_status",
          "type": "bool"
        }
      ],
      "name": "modifyExistingTicker",
      "outputs": [],
      "payable": false,
      "stateMutability": "nonpayable",
      "type": "function"
    },
    {
      "constant": false,
      "inputs": [
        {
          "name": "_owner",
          "type": "address"
        },
        {
          "name": "_ticker",
          "type": "string"
        },
        {
          "name": "_tokenName",
          "type": "string"
        },
        {
          "name": "_registrationDate",
          "type": "uint256"
        },
        {
          "name": "_expiryDate",
          "type": "uint256"
        },
        {
          "name": "_status",
          "type": "bool"
        }
      ],
      "name": "modifyTicker",
      "outputs": [],
      "payable": false,
      "stateMutability": "nonpayable",
      "type": "function"
    },
    {
      "constant": false,
      "inputs": [
        {
          "name": "_ticker",
          "type": "string"
        }
      ],
      "name": "removeTicker",
      "outputs": [],
      "payable": false,
      "stateMutability": "nonpayable",
      "type": "function"
    },
    {
      "constant": true,
      "inputs": [
        {
          "name": "_ticker",
          "type": "string"
        }
      ],
      "name": "tickerAvailable",
      "outputs": [
        {
          "name": "",
          "type": "bool"
        }
      ],
      "payable": false,
      "stateMutability": "view",
      "type": "function"
    },
    {
      "constant": false,
      "inputs": [
        {
          "name": "_newOwner",
          "type": "address"
        },
        {
          "name": "_ticker",
          "type": "string"
        }
      ],
      "name": "transferTickerOwnership",
      "outputs": [],
      "payable": false,
      "stateMutability": "nonpayable",
      "type": "function"
    },
    {
      "constant": false,
      "inputs": [
        {
          "name": "_newExpiry",
          "type": "uint256"
        }
      ],
      "name": "changeExpiryLimit",
      "outputs": [],
      "payable": false,
      "stateMutability": "nonpayable",
      "type": "function"
    },
    {
      "constant": false,
      "inputs": [
        {
          "name": "_name",
          "type": "string"
        },
        {
          "name": "_ticker",
          "type": "string"
        },
        {
          "name": "_tokenDetails",
          "type": "string"
        },
        {
          "name": "_divisible",
          "type": "bool"
        }
      ],
      "name": "generateSecurityToken",
      "outputs": [],
      "payable": false,
      "stateMutability": "nonpayable",
      "type": "function"
    },
    {
      "constant": false,
      "inputs": [
        {
          "name": "_name",
          "type": "string"
        },
        {
          "name": "_ticker",
          "type": "string"
        },
        {
          "name": "_tokenDetails",
          "type": "string"
        },
        {
          "name": "_divisible",
          "type": "bool"
        },
        {
          "name": "_treasuryWallet",
          "type": "address"
        },
        {
          "name": "_protocolVersion",
          "type": "uint256"
        }
      ],
      "name": "generateNewSecurityToken",
      "outputs": [],
      "payable": false,
      "stateMutability": "nonpayable",
      "type": "function"
    },
    {
      "constant": false,
      "inputs": [
        {
          "name": "_name",
          "type": "string"
        },
        {
          "name": "_ticker",
          "type": "string"
        },
        {
          "name": "_tokenDetails",
          "type": "string"
        },
        {
          "name": "_divisible",
          "type": "bool"
        },
        {
          "name": "_treasuryWallet",
          "type": "address"
        }
      ],
      "name": "refreshSecurityToken",
      "outputs": [
        {
          "name": "",
          "type": "address"
        }
      ],
      "payable": false,
      "stateMutability": "nonpayable",
      "type": "function"
    },
    {
      "constant": false,
      "inputs": [
        {
          "name": "_ticker",
          "type": "string"
        },
        {
          "name": "_owner",
          "type": "address"
        },
        {
          "name": "_securityToken",
          "type": "address"
        },
        {
          "name": "_tokenDetails",
          "type": "string"
        },
        {
          "name": "_deployedAt",
          "type": "uint256"
        }
      ],
      "name": "modifyExistingSecurityToken",
      "outputs": [],
      "payable": false,
      "stateMutability": "nonpayable",
      "type": "function"
    },
    {
      "constant": false,
      "inputs": [
        {
          "name": "",
          "type": "string"
        },
        {
          "name": "_ticker",
          "type": "string"
        },
        {
          "name": "_owner",
          "type": "address"
        },
        {
          "name": "_securityToken",
          "type": "address"
        },
        {
          "name": "_tokenDetails",
          "type": "string"
        },
        {
          "name": "_deployedAt",
          "type": "uint256"
        }
      ],
      "name": "modifySecurityToken",
      "outputs": [],
      "payable": false,
      "stateMutability": "nonpayable",
      "type": "function"
    },
    {
      "constant": true,
      "inputs": [
        {
          "name": "_securityToken",
          "type": "address"
        }
      ],
      "name": "isSecurityToken",
      "outputs": [
        {
          "name": "",
          "type": "bool"
        }
      ],
      "payable": false,
      "stateMutability": "view",
      "type": "function"
    },
    {
      "constant": false,
      "inputs": [
        {
          "name": "_newOwner",
          "type": "address"
        }
      ],
      "name": "transferOwnership",
      "outputs": [],
      "payable": false,
      "stateMutability": "nonpayable",
      "type": "function"
    },
    {
      "constant": false,
      "inputs": [],
      "name": "pause",
      "outputs": [],
      "payable": false,
      "stateMutability": "nonpayable",
      "type": "function"
    },
    {
      "constant": false,
      "inputs": [],
      "name": "unpause",
      "outputs": [],
      "payable": false,
      "stateMutability": "nonpayable",
      "type": "function"
    },
    {
      "constant": false,
      "inputs": [
        {
          "name": "_tickerRegFee",
          "type": "uint256"
        }
      ],
      "name": "changeTickerRegistrationFee",
      "outputs": [],
      "payable": false,
      "stateMutability": "nonpayable",
      "type": "function"
    },
    {
      "constant": false,
      "inputs": [
        {
          "name": "_stLaunchFee",
          "type": "uint256"
        }
      ],
      "name": "changeSecurityLaunchFee",
      "outputs": [],
      "payable": false,
      "stateMutability": "nonpayable",
      "type": "function"
    },
    {
      "constant": false,
      "inputs": [
        {
          "name": "_tickerRegFee",
          "type": "uint256"
        },
        {
          "name": "_stLaunchFee",
          "type": "uint256"
        },
        {
          "name": "_isFeeInPoly",
          "type": "bool"
        }
      ],
      "name": "changeFeesAmountAndCurrency",
      "outputs": [],
      "payable": false,
      "stateMutability": "nonpayable",
      "type": "function"
    },
    {
      "constant": false,
      "inputs": [
        {
          "name": "_tokenContract",
          "type": "address"
        }
      ],
      "name": "reclaimERC20",
      "outputs": [],
      "payable": false,
      "stateMutability": "nonpayable",
      "type": "function"
    },
    {
      "constant": false,
      "inputs": [
        {
          "name": "_STFactoryAddress",
          "type": "address"
        },
        {
          "name": "_major",
          "type": "uint8"
        },
        {
          "name": "_minor",
          "type": "uint8"
        },
        {
          "name": "_patch",
          "type": "uint8"
        }
      ],
      "name": "setProtocolFactory",
      "outputs": [],
      "payable": false,
      "stateMutability": "nonpayable",
      "type": "function"
    },
    {
      "constant": false,
      "inputs": [
        {
          "name": "_major",
          "type": "uint8"
        },
        {
          "name": "_minor",
          "type": "uint8"
        },
        {
          "name": "_patch",
          "type": "uint8"
        }
      ],
      "name": "removeProtocolFactory",
      "outputs": [],
      "payable": false,
      "stateMutability": "nonpayable",
      "type": "function"
    },
    {
      "constant": false,
      "inputs": [
        {
          "name": "_major",
          "type": "uint8"
        },
        {
          "name": "_minor",
          "type": "uint8"
        },
        {
          "name": "_patch",
          "type": "uint8"
        }
      ],
      "name": "setLatestVersion",
      "outputs": [],
      "payable": false,
      "stateMutability": "nonpayable",
      "type": "function"
    },
    {
      "constant": false,
      "inputs": [
        {
          "name": "_newAddress",
          "type": "address"
        }
      ],
      "name": "updatePolyTokenAddress",
      "outputs": [],
      "payable": false,
      "stateMutability": "nonpayable",
      "type": "function"
    },
    {
      "constant": true,
      "inputs": [],
      "name": "isPaused",
      "outputs": [
        {
          "name": "",
          "type": "bool"
        }
      ],
      "payable": false,
      "stateMutability": "view",
      "type": "function"
    },
    {
      "constant": true,
      "inputs": [],
      "name": "owner",
      "outputs": [
        {
          "name": "",
          "type": "address"
        }
      ],
      "payable": false,
      "stateMutability": "view",
      "type": "function"
    }
  ],
  "bytecode": "0x60806040523480156200001157600080fd5b50620000487f9ef7257c3339b099aacf96e55122ee78fb65a36bd2a6c19249882be9c98633bf60016401000000006200004e810204565b6200006e565b600091825260046020526040909120805460ff1916911515919091179055565b615ecb806200007e6000396000f3fe6080604052600436106102555760003560e060020a90048063959346ae1161013d578063c37792b5116100ba578063e1ecae9e1161007e578063e1ecae9e14611486578063e6ff950b1461149b578063e82617fb146114ce578063f2fde38b146114f8578063f433262f1461152b578063f6fcbee11461154057610255565b8063c37792b514611220578063c75948f514611343578063d0f6fe4214611358578063d300a9681461141b578063d6b5db441461144e57610255565b8063aa33e94511610101578063aa33e94514611087578063b187bd26146110c6578063b68116db146110db578063b9caf05a1461111a578063bb011bf9146111dd57610255565b8063959346ae14610ea3578063972b3ab514610ecd578063a209a29c14610f80578063a8f0d3a714610faa578063a92a822614610fd457610255565b806344bfa56e116101d657806381e79e311161019a57806381e79e3114610b4a5780638456cb5914610d1b5780638905fd4f14610d305780638da5cb5b14610d635780638ffa969014610d7857806392042aee14610db657610255565b806344bfa56e1461087e5780634c77e5ba1461091d5780635a0b2213146109635780636658076c146109965780636f3b8ce214610ad057610255565b8063208b080f1161021d578063208b080f1461055f578063321dff17146105895780633f4ba83a1461066857806342799f071461067d57806342c2e5511461085457610255565b8063013702331461025f578063025ec81a146102ad57806303b54d52146102e957806316034bf41461033a5780631f9fbf2e1461040a575b61025d61156a565b005b34801561026b57600080fd5b5061025d6004803603608081101561028257600080fd5b50600160a060020a038135169060ff602082013581169160408101358216916060909101351661157c565b3480156102b957600080fd5b506102d7600480360360208110156102d057600080fd5b50356115ec565b60408051918252519081900360200190f35b3480156102f557600080fd5b5061025d600480360360a081101561030c57600080fd5b50600160a060020a038135811691602081013591604082013591606081013582169160809091013516611601565b34801561034657600080fd5b5061025d600480360360a081101561035d57600080fd5b600160a060020a03823516919081019060408101602082013564010000000081111561038857600080fd5b82018360208201111561039a57600080fd5b803590602001918460018302840111640100000000831117156103bc57600080fd5b91908080601f016020809104026020016040519081016040528093929190818152602001838380828437600092019190915250929550508235935050506020810135906040013515156117ff565b34801561041657600080fd5b5061025d600480360360a081101561042d57600080fd5b81019060208101813564010000000081111561044857600080fd5b82018360208201111561045a57600080fd5b8035906020019184600183028401116401000000008311171561047c57600080fd5b91908080601f0160208091040260200160405190810160405280939291908181526020018383808284376000920191909152509295600160a060020a0385358116966020870135909116959194509250606081019150604001356401000000008111156104e857600080fd5b8201836020820111156104fa57600080fd5b8035906020019184600183028401116401000000008311171561051c57600080fd5b91908080601f01602080910402602001604051908101604052809392919081815260200183838082843760009201919091525092955050913592506119da915050565b34801561056b57600080fd5b5061025d6004803603602081101561058257600080fd5b5035611e54565b34801561059557600080fd5b5061025d600480360360608110156105ac57600080fd5b600160a060020a0382351691908101906040810160208201356401000000008111156105d757600080fd5b8201836020820111156105e957600080fd5b8035906020019184600183028401116401000000008311171561060b57600080fd5b91939092909160208101903564010000000081111561062957600080fd5b82018360208201111561063b57600080fd5b8035906020019184600183028401116401000000008311171561065d57600080fd5b509092509050611f77565b34801561067457600080fd5b5061025d6120af565b34801561068957600080fd5b5061025d600480360360c08110156106a057600080fd5b8101906020810181356401000000008111156106bb57600080fd5b8201836020820111156106cd57600080fd5b803590602001918460018302840111640100000000831117156106ef57600080fd5b91908080601f016020809104026020016040519081016040528093929190818152602001838380828437600092019190915250929594936020810193503591505064010000000081111561074257600080fd5b82018360208201111561075457600080fd5b8035906020019184600183028401116401000000008311171561077657600080fd5b91908080601f01602080910402602001604051908101604052809392919081815260200183838082843760009201919091525092959493602081019350359150506401000000008111156107c957600080fd5b8201836020820111156107db57600080fd5b803590602001918460018302840111640100000000831117156107fd57600080fd5b91908080601f016020809104026020016040519081016040528093929190818152602001838380828437600092019190915250929550505050803515159150600160a060020a0360208201351690604001356121b7565b34801561086057600080fd5b5061025d6004803603602081101561087757600080fd5b503561273a565b34801561088a57600080fd5b506108a8600480360360208110156108a157600080fd5b5035612819565b6040805160208082528351818301528351919283929083019185019080838360005b838110156108e25781810151838201526020016108ca565b50505050905090810190601f16801561090f5780820380516001836020036101000a031916815260200191505b509250505060405180910390f35b34801561092957600080fd5b506109476004803603602081101561094057600080fd5b50356128ba565b60408051600160a060020a039092168252519081900360200190f35b34801561096f57600080fd5b5061025d6004803603602081101561098657600080fd5b5035600160a060020a03166128d5565b3480156109a257600080fd5b5061025d600480360360c08110156109b957600080fd5b8101906020810181356401000000008111156109d457600080fd5b8201836020820111156109e657600080fd5b80359060200191846001830284011164010000000083111715610a0857600080fd5b919390929091602081019035640100000000811115610a2657600080fd5b820183602082011115610a3857600080fd5b80359060200191846001830284011164010000000083111715610a5a57600080fd5b91939092600160a060020a0383358116936020810135909116929190606081019060400135640100000000811115610a9157600080fd5b820183602082011115610aa357600080fd5b80359060200191846001830284011164010000000083111715610ac557600080fd5b91935091503561298c565b348015610adc57600080fd5b50610afa60048036036020811015610af357600080fd5b5035612a10565b60408051602080825283518183015283519192839290830191858101910280838360005b83811015610b36578181015183820152602001610b1e565b505050509050019250505060405180910390f35b348015610b5657600080fd5b50610947600480360360a0811015610b6d57600080fd5b810190602081018135640100000000811115610b8857600080fd5b820183602082011115610b9a57600080fd5b80359060200191846001830284011164010000000083111715610bbc57600080fd5b91908080601f0160208091040260200160405190810160405280939291908181526020018383808284376000920191909152509295949360208101935035915050640100000000811115610c0f57600080fd5b820183602082011115610c2157600080fd5b80359060200191846001830284011164010000000083111715610c4357600080fd5b91908080601f0160208091040260200160405190810160405280939291908181526020018383808284376000920191909152509295949360208101935035915050640100000000811115610c9657600080fd5b820183602082011115610ca857600080fd5b80359060200191846001830284011164010000000083111715610cca57600080fd5b91908080601f01602080910402602001604051908101604052809392919081815260200183838082843760009201919091525092955050505080351515915060200135600160a060020a0316612a7b565b348015610d2757600080fd5b5061025d612edc565b348015610d3c57600080fd5b5061025d60048036036020811015610d5357600080fd5b5035600160a060020a0316612fe5565b348015610d6f57600080fd5b50610947613210565b348015610d8457600080fd5b50610da260048036036020811015610d9b57600080fd5b503561322f565b604080519115158252519081900360200190f35b348015610dc257600080fd5b5061025d600480360360c0811015610dd957600080fd5b600160a060020a038235169190810190604081016020820135640100000000811115610e0457600080fd5b820183602082011115610e1657600080fd5b80359060200191846001830284011164010000000083111715610e3857600080fd5b919390929091602081019035640100000000811115610e5657600080fd5b820183602082011115610e6857600080fd5b80359060200191846001830284011164010000000083111715610e8a57600080fd5b9193509150803590602081013590604001351515613244565b348015610eaf57600080fd5b5061025d60048036036020811015610ec657600080fd5b5035613359565b348015610ed957600080fd5b5061025d60048036036020811015610ef057600080fd5b810190602081018135640100000000811115610f0b57600080fd5b820183602082011115610f1d57600080fd5b80359060200191846001830284011164010000000083111715610f3f57600080fd5b91908080601f016020809104026020016040519081016040528093929190818152602001838380828437600092019190915250929550613434945050505050565b348015610f8c57600080fd5b506108a860048036036020811015610fa357600080fd5b5035613600565b348015610fb657600080fd5b50610afa60048036036020811015610fcd57600080fd5b5035613669565b348015610fe057600080fd5b50610da260048036036020811015610ff757600080fd5b81019060208101813564010000000081111561101257600080fd5b82018360208201111561102457600080fd5b8035906020019184600183028401116401000000008311171561104657600080fd5b91908080601f0160208091040260200160405190810160405280939291908181526020018383808284376000920191909152509295506136ca945050505050565b34801561109357600080fd5b5061025d600480360360608110156110aa57600080fd5b5060ff8135811691602081013582169160409091013516613745565b3480156110d257600080fd5b50610da26138e1565b3480156110e757600080fd5b5061025d600480360360608110156110fe57600080fd5b5060ff81358116916020810135821691604090910135166138fa565b34801561112657600080fd5b5061025d6004803603604081101561113d57600080fd5b600160a060020a03823516919081019060408101602082013564010000000081111561116857600080fd5b82018360208201111561117a57600080fd5b8035906020019184600183028401116401000000008311171561119c57600080fd5b91908080601f016020809104026020016040519081016040528093929190818152602001838380828437600092019190915250929550613963945050505050565b3480156111e957600080fd5b506112076004803603602081101561120057600080fd5b5035613ae4565b6040805192835260208301919091528051918290030190f35b34801561122c57600080fd5b5061025d6004803603608081101561124357600080fd5b81019060208101813564010000000081111561125e57600080fd5b82018360208201111561127057600080fd5b8035906020019184600183028401116401000000008311171561129257600080fd5b9193909290916020810190356401000000008111156112b057600080fd5b8201836020820111156112c257600080fd5b803590602001918460018302840111640100000000831117156112e457600080fd5b91939092909160208101903564010000000081111561130257600080fd5b82018360208201111561131457600080fd5b8035906020019184600183028401116401000000008311171561133657600080fd5b9193509150351515613d04565b34801561134f57600080fd5b506102d7613dc8565b34801561136457600080fd5b5061025d6004803603604081101561137b57600080fd5b600160a060020a0382351691908101906040810160208201356401000000008111156113a657600080fd5b8201836020820111156113b857600080fd5b803590602001918460018302840111640100000000831117156113da57600080fd5b91908080601f016020809104026020016040519081016040528093929190818152602001838380828437600092019190915250929550613de7945050505050565b34801561142757600080fd5b50610da26004803603602081101561143e57600080fd5b5035600160a060020a03166140bf565b34801561145a57600080fd5b5061025d6004803603606081101561147157600080fd5b5080359060208101359060400135151561413b565b34801561149257600080fd5b506102d76142cb565b3480156114a757600080fd5b5061025d600480360360208110156114be57600080fd5b5035600160a060020a03166142e4565b3480156114da57600080fd5b506102d7600480360360208110156114f157600080fd5b50356143b8565b34801561150457600080fd5b5061025d6004803603602081101561151b57600080fd5b5035600160a060020a03166143ca565b34801561153757600080fd5b5061025d6144e2565b34801561154c57600080fd5b50610afa6004803603602081101561156357600080fd5b5035614548565b61157a6115756145a8565b6145d3565b565b611584613210565b600160a060020a031633600160a060020a0316146115da576040805160e560020a62461bcd02815260206004820152600a6024820152600080516020615d74833981519152604482015290519081900360640190fd5b6115e6848484846145f7565b50505050565b6000818152600660205260409020545b919050565b61162a7f9ef7257c3339b099aacf96e55122ee78fb65a36bd2a6c19249882be9c98633bf61322f565b1561167f576040805160e560020a62461bcd02815260206004820152600b60248201527f496e697469616c697a6564000000000000000000000000000000000000000000604482015290519081900360640190fd5b600160a060020a0382161580159061169f5750600160a060020a03851615155b80156116b35750600160a060020a03811615155b611707576040805160e560020a62461bcd02815260206004820152600f60248201527f496e76616c696420616464726573730000000000000000000000000000000000604482015290519081900360640190fd5b61171f600080516020615d3483398151915285614778565b611737600080516020615cf483398151915284614778565b611752600080516020615d14833981519152624f1a00614778565b61176b600080516020615cb4833981519152600061478a565b611783600080516020615db4833981519152836147aa565b61179b600080516020615d54833981519152866147aa565b6117c67f9ef7257c3339b099aacf96e55122ee78fb65a36bd2a6c19249882be9c98633bf600161478a565b6117f07f982f24b3bd80807ec3cb227ba152e15c07d66855fa8ae6ca536e689205c0e2e9826147aa565b6117f86147e5565b5050505050565b611807613210565b600160a060020a031633600160a060020a03161461185d576040805160e560020a62461bcd02815260206004820152600a6024820152600080516020615d74833981519152604482015290519081900360640190fd5b600084511180156118705750600a845111155b6118b2576040805160e560020a62461bcd02815260206004820152600a6024820152600080516020615dd4833981519152604482015290519081900360640190fd5b81158015906118c057508215155b611914576040805160e560020a62461bcd02815260206004820152600960248201527f4261642064617465730000000000000000000000000000000000000000000000604482015290519081900360640190fd5b8183111561196c576040805160e560020a62461bcd02815260206004820152600960248201527f4261642064617465730000000000000000000000000000000000000000000000604482015290519081900360640190fd5b600160a060020a0385166119b8576040805160e560020a62461bcd02815260206004820152600b6024820152600080516020615e5e833981519152604482015290519081900360640190fd5b60606119c3856148e3565b90506119d286828686866149d5565b505050505050565b6119e2613210565b600160a060020a031633600160a060020a031614611a38576040805160e560020a62461bcd02815260206004820152600a6024820152600080516020615d74833981519152604482015290519081900360640190fd5b600a85511115611a80576040805160e560020a62461bcd02815260206004820152600a6024820152600080516020615dd4833981519152604482015290519081900360640190fd5b8015801590611a975750600160a060020a03841615155b611aeb576040805160e560020a62461bcd02815260206004820152600860248201527f4261642064617461000000000000000000000000000000000000000000000000604482015290519081900360640190fd5b6060611af6866148e3565b9050600160a060020a038416611b44576040805160e560020a62461bcd02815260206004820152600b6024820152600080516020615e5e833981519152604482015290519081900360640190fd5b6000611b70611b6b604051806060016040528060228152602001615e7e6022913984614af5565b6143b8565b90506000611ba4611b6b6040518060400160405280601c8152602001600080516020615e1483398151915281525085614af5565b905081611bd857429150611bd5611bc8600080516020615d148339815191526143b8565b839063ffffffff614bb716565b90505b611c0e611c08604051806040016040528060158152602001600080516020615df483398151915281525085614af5565b876147aa565b611c1c8784848460016149d5565b611c2886848787614bd0565b86600160a060020a031686600160a060020a03167f641d4bfde0cee7c0d2ae73a08fe76339794caeab51493e9a3ab8ee4a8add18d18589600160a060020a03166306fdde036040518163ffffffff1660e060020a02815260040160006040518083038186803b158015611c9a57600080fd5b505afa158015611cae573d6000803e3d6000fd5b505050506040513d6000823e601f3d908101601f191682016040526020811015611cd757600080fd5b810190808051640100000000811115611cef57600080fd5b82016020810184811115611d0257600080fd5b8151640100000000811182820187101715611d1c57600080fd5b505092919050505088336001600080600060405180806020018060200189815260200188600160a060020a0316600160a060020a031681526020018715151515815260200186815260200185815260200184815260200183810383528b818151815260200191508051906020019080838360005b83811015611da8578181015183820152602001611d90565b50505050905090810190601f168015611dd55780820380516001836020036101000a031916815260200191505b5083810382528a5181528a516020918201918c019080838360005b83811015611e08578181015183820152602001611df0565b50505050905090810190601f168015611e355780820380516001836020036101000a031916815260200191505b509a505050505050505050505060405180910390a35050505050505050565b611e5c613210565b600160a060020a031633600160a060020a031614611eb2576040805160e560020a62461bcd02815260206004820152600a6024820152600080516020615d74833981519152604482015290519081900360640190fd5b62015180811015611f0d576040805160e560020a62461bcd02815260206004820152600960248201527f4261642064617465730000000000000000000000000000000000000000000000604482015290519081900360640190fd5b7f7e1cc0e69ee3b84fb62bbb71687d2565bbb8ad1771bb3e3cd15cbed424c833c8611f45600080516020615d148339815191526143b8565b60408051918252602082018490528051918290030190a1611f74600080516020615d1483398151915282614778565b50565b611fb78585858080601f01602080910402602001604051908101604052809392919081815260200183838082843760009201919091525061396392505050565b6000611fd0600080516020615cf4833981519152613ae4565b9150611ffb9050611fee600080516020615d148339815191526143b8565b429063ffffffff614bb716565b4287600160a060020a03167f2de60ed106ca2007f575a4a2ff327cdde9bf801386463689ccb784d8bd46856288888888600089604051808060200180602001851515151581526020018481526020018381038352898982818152602001925080828437600083820152601f01601f191690910184810383528781526020019050878780828437600083820152604051601f909101601f19169092018290039a509098505050505050505050a4505050505050565b6120b76138e1565b61210b576040805160e560020a62461bcd02815260206004820152600a60248201527f4e6f742070617573656400000000000000000000000000000000000000000000604482015290519081900360640190fd5b612113613210565b600160a060020a031633600160a060020a031614612169576040805160e560020a62461bcd02815260206004820152600a6024820152600080516020615d74833981519152604482015290519081900360640190fd5b612182600080516020615cb4833981519152600061478a565b6040805133815290517faeb196d352664784d1900b0e7414a8face7d29f4dae8c4b0cf68ed477423bbf49181900360200190a1565b6121bf614ca8565b600086511180156121d1575060008551115b612213576040805160e560020a62461bcd02815260206004820152600a6024820152600080516020615dd4833981519152604482015290519081900360640190fd5b600160a060020a038216612271576040805160e560020a62461bcd02815260206004820152600f60248201527f307830206e6f7420616c6c6f7765640000000000000000000000000000000000604482015290519081900360640190fd5b806122905761228d600080516020615cd48339815191526143b8565b90505b612299856148e3565b945060006122dc6040518060400160405280601881526020017f726567697374657265645469636b6572735f737461747573000000000000000081525087614af5565b90506122e78161322f565b1561233c576040805160e560020a62461bcd02815260206004820152601060248201527f416c7265616479206465706c6f79656400000000000000000000000000000000604482015290519081900360640190fd5b61234781600161478a565b338061235288614d25565b600160a060020a0316146123b0576040805160e560020a62461bcd02815260206004820152600e60248201527f4e6f7420617574686f7269736564000000000000000000000000000000000000604482015290519081900360640190fd5b426123e1611b6b6040518060400160405280601c8152602001600080516020615e148339815191528152508a614af5565b1015612437576040805160e560020a62461bcd02815260206004820152600e60248201527f5469636b65722065787069726564000000000000000000000000000000000000604482015290519081900360640190fd5b600080612451600080516020615d34833981519152614d69565b9150915060006124668b8b8b878c8c8c614ea7565b90506124756002600080615124565b62ffffff168614156125d15783600160a060020a031681600160a060020a03167f63d9fb58b25a396dc2ebc591bec9115d1eb9c722dd6cdfcc9be4144d39dc2c268c8e428960008960405180806020018060200187815260200186600160a060020a0316600160a060020a0316815260200185151515158152602001848152602001838103835289818151815260200191508051906020019080838360005b8381101561252c578181015183820152602001612514565b50505050905090810190601f1680156125595780820380516001836020036101000a031916815260200191505b5083810382528851815288516020918201918a019080838360005b8381101561258c578181015183820152602001612574565b50505050905090810190601f1680156125b95780820380516001836020036101000a031916815260200191505b509850505050505050505060405180910390a361272d565b83600160a060020a031681600160a060020a03167f641d4bfde0cee7c0d2ae73a08fe76339794caeab51493e9a3ab8ee4a8add18d18c8e428960008a8a8f60405180806020018060200189815260200188600160a060020a0316600160a060020a031681526020018715151515815260200186815260200185815260200184815260200183810383528b818151815260200191508051906020019080838360005b8381101561268a578181015183820152602001612672565b50505050905090810190601f1680156126b75780820380516001836020036101000a031916815260200191505b5083810382528a5181528a516020918201918c019080838360005b838110156126ea5781810151838201526020016126d2565b50505050905090810190601f1680156127175780820380516001836020036101000a031916815260200191505b509a505050505050505050505060405180910390a35b5050505050505050505050565b612742613210565b600160a060020a031633600160a060020a031614612798576040805160e560020a62461bcd02815260206004820152600a6024820152600080516020615d74833981519152604482015290519081900360640190fd5b60006127b1600080516020615d348339815191526143b8565b90508181141561280b576040805160e560020a62461bcd02815260206004820152600760248201527f4261642066656500000000000000000000000000000000000000000000000000604482015290519081900360640190fd5b612815818361513f565b5050565b60008181526003602090815260409182902080548351601f60026000196101006001861615020190931692909204918201849004840281018401909452808452606093928301828280156128ae5780601f10612883576101008083540402835291602001916128ae565b820191906000526020600020905b81548152906001019060200180831161289157829003601f168201915b50505050509050919050565b600090815260026020526040902054600160a060020a031690565b6128dd613210565b600160a060020a031633600160a060020a031614806128fb57503330145b61294f576040805160e560020a62461bcd02815260206004820152601260248201527f4f6e6c79206f776e6572206f722073656c660000000000000000000000000000604482015290519081900360640190fd5b600160a060020a03811661296257600080fd5b611f747f982f24b3bd80807ec3cb227ba152e15c07d66855fa8ae6ca536e689205c0e2e9826147aa565b612a0587878080601f01602080910402602001604051908101604052809392919081815260200183838082843760009201919091525050604080516020601f89018190048102820181019092528781528a93508992509088908890819084018382808284376000920191909152508892506119da915050565b505050505050505050565b6000818152600960209081526040918290208054835181840281018401909452808452606093928301828280156128ae57602002820191906000526020600020905b8154600160a060020a03168152600190910190602001808311612a525750505050509050919050565b6000612a85614ca8565b60008651118015612a97575060008551115b612ad9576040805160e560020a62461bcd02815260206004820152600a6024820152600080516020615dd4833981519152604482015290519081900360640190fd5b600160a060020a038216612b37576040805160e560020a62461bcd02815260206004820152600f60248201527f307830206e6f7420616c6c6f7765640000000000000000000000000000000000604482015290519081900360640190fd5b6060612b42866148e3565b9050612b4d81615192565b612ba1576040805160e560020a62461bcd02815260206004820152600c60248201527f6e6f74206465706c6f7965640000000000000000000000000000000000000000604482015290519081900360640190fd5b6000612bd8612bd3604051806040016040528060158152602001600080516020615df483398151915281525084614af5565b6128ba565b9050600081600160a060020a0316638da5cb5b6040518163ffffffff1660e060020a02815260040160206040518083038186803b158015612c1857600080fd5b505afa158015612c2c573d6000803e3d6000fd5b505050506040513d6020811015612c4257600080fd5b5051905033600160a060020a03821614612ca6576040805160e560020a62461bcd02815260206004820152600c60248201527f556e61757468726f697a65640000000000000000000000000000000000000000604482015290519081900360640190fd5b81600160a060020a031663e45b81346040518163ffffffff1660e060020a02815260040160206040518083038186803b158015612ce257600080fd5b505afa158015612cf6573d6000803e3d6000fd5b505050506040513d6020811015612d0c57600080fd5b5051612d62576040805160e560020a62461bcd02815260206004820152601460248201527f5472616e7366657273206e6f742066726f7a656e000000000000000000000000604482015290519081900360640190fd5b6000612d7b600080516020615cd48339815191526143b8565b90506000612d8e8b868b868c8c88614ea7565b905082600160a060020a031681600160a060020a03167fc7a825c502b5a99358e9ec1e69b7f437c96e8a390c18f23ad3aab1646b4ea9238c8e42888860405180806020018060200186815260200185600160a060020a0316600160a060020a03168152602001848152602001838103835288818151815260200191508051906020019080838360005b83811015612e2f578181015183820152602001612e17565b50505050905090810190601f168015612e5c5780820380516001836020036101000a031916815260200191505b50838103825287518152875160209182019189019080838360005b83811015612e8f578181015183820152602001612e77565b50505050905090810190601f168015612ebc5780820380516001836020036101000a031916815260200191505b5097505050505050505060405180910390a3505050505095945050505050565b612ee46138e1565b15612f39576040805160e560020a62461bcd02815260206004820152600660248201527f5061757365640000000000000000000000000000000000000000000000000000604482015290519081900360640190fd5b612f41613210565b600160a060020a031633600160a060020a031614612f97576040805160e560020a62461bcd02815260206004820152600a6024820152600080516020615d74833981519152604482015290519081900360640190fd5b612fb0600080516020615cb4833981519152600161478a565b6040805133815290517f5ee71a369c8672edded508e624ffc9257fa1ae6886ef32905c18e60196bca3999181900360200190a1565b612fed613210565b600160a060020a031633600160a060020a031614613043576040805160e560020a62461bcd02815260206004820152600a6024820152600080516020615d74833981519152604482015290519081900360640190fd5b600160a060020a03811661308f576040805160e560020a62461bcd02815260206004820152600b6024820152600080516020615e5e833981519152604482015290519081900360640190fd5b604080517f70a0823100000000000000000000000000000000000000000000000000000000815230600482015290518291600091600160a060020a038416916370a08231916024808301926020929190829003018186803b1580156130f357600080fd5b505afa158015613107573d6000803e3d6000fd5b505050506040513d602081101561311d57600080fd5b50519050600160a060020a03821663a9059cbb613138613210565b836040518363ffffffff1660e060020a0281526004018083600160a060020a0316600160a060020a0316815260200182815260200192505050602060405180830381600087803b15801561318b57600080fd5b505af115801561319f573d6000803e3d6000fd5b505050506040513d60208110156131b557600080fd5b505161320b576040805160e560020a62461bcd02815260206004820152600f60248201527f5472616e73666572206661696c65640000000000000000000000000000000000604482015290519081900360640190fd5b505050565b6000613229600080516020615db48339815191526128ba565b90505b90565b60009081526004602052604090205460ff1690565b6132898888888080601f0160208091040260200160405190810160405280939291908181526020018383808284376000920191909152508892508791508690506117ff565b6132a3611fee600080516020615d148339815191526143b8565b4289600160a060020a03167f2de60ed106ca2007f575a4a2ff327cdde9bf801386463689ccb784d8bd4685628a8a8a8a600080604051808060200180602001851515151581526020018481526020018381038352898982818152602001925080828437600083820152601f01601f191690910184810383528781526020019050878780828437600083820152604051601f909101601f19169092018290039a509098505050505050505050a45050505050505050565b613361613210565b600160a060020a031633600160a060020a0316146133b7576040805160e560020a62461bcd02815260206004820152600a6024820152600080516020615d74833981519152604482015290519081900360640190fd5b60006133d0600080516020615cf48339815191526143b8565b90508181141561342a576040805160e560020a62461bcd02815260206004820152600760248201527f4261642066656500000000000000000000000000000000000000000000000000604482015290519081900360640190fd5b61281581836151db565b61343c613210565b600160a060020a031633600160a060020a031614613492576040805160e560020a62461bcd02815260206004820152600a6024820152600080516020615d74833981519152604482015290519081900360640190fd5b606061349d826148e3565b905060006134aa82614d25565b9050600160a060020a0381166134f8576040805160e560020a62461bcd02815260206004820152600a6024820152600080516020615dd4833981519152604482015290519081900360640190fd5b613502818361522e565b613539613532604051806040016040528060158152602001600080516020615df483398151915281525084614af5565b60006147aa565b6135488260008060008061537c565b7f9cf1be7eab8a674ff140d6ff508e301aa09860f9f7c8354db4bdc85fe8da6a2d8233604051808060200183600160a060020a0316600160a060020a03168152602001828103825284818151815260200191508051906020019080838360005b838110156135c05781810151838201526020016135a8565b50505050905090810190601f1680156135ed5780820380516001836020036101000a031916815260200191505b50935050505060405180910390a1505050565b60008181526001602081815260409283902080548451600294821615610100026000190190911693909304601f810183900483028401830190945283835260609390918301828280156128ae5780601f10612883576101008083540402835291602001916128ae565b6000818152600760209081526040918290208054835181840281018401909452808452606093928301828280156128ae57602002820191906000526020600020905b8154815260200190600101908083116136ab5750505050509050919050565b6000806136d683614d25565b600160a060020a03161461373d57613714611b6b6040518060400160405280601c8152602001600080516020615e1483398151915281525084614af5565b42118015613728575061372682615192565b155b15613735575060016115fc565b5060006115fc565b506001919050565b61374d613210565b600160a060020a031633600160a060020a0316146137a3576040805160e560020a62461bcd02815260206004820152600a6024820152600080516020615d74833981519152604482015290519081900360640190fd5b60006137b0848484615124565b905062ffffff81166137cf600080516020615cd48339815191526143b8565b1415613825576040805160e560020a62461bcd02815260206004820152601b60248201527f43616e6e6f742072656d6f7665206c617465737456657273696f6e0000000000604482015290519081900360640190fd5b61385a612bd3604051806040016040528060118152602001600080516020615d948339815191528152508362ffffff1661547b565b6040805160ff808816825280871660208301528516818301529051600160a060020a0392909216917fd2a114f6c16a1bc2f027fda85bc9ac1b584a91dbd658eb295e09ed1b7b1b9bd79181900360600190a26115e6613532604051806040016040528060118152602001600080516020615d948339815191528152508362ffffff1661547b565b6000613229600080516020615cb483398151915261322f565b613902613210565b600160a060020a031633600160a060020a031614613958576040805160e560020a62461bcd02815260206004820152600a6024820152600080516020615d74833981519152604482015290519081900360640190fd5b61320b8383836154f0565b61396b614ca8565b600160a060020a0382166139b7576040805160e560020a62461bcd02815260206004820152600b6024820152600080516020615e5e833981519152604482015290519081900360640190fd5b600081511180156139ca5750600a815111155b613a0c576040805160e560020a62461bcd02815260206004820152600a6024820152600080516020615dd4833981519152604482015290519081900360640190fd5b600080613a26600080516020615cf4833981519152614d69565b915091506060613a35846148e3565b9050613a40816136ca565b613a94576040805160e560020a62461bcd02815260206004820152600f60248201527f5469636b65722072657365727665640000000000000000000000000000000000604482015290519081900360640190fd5b6000613a9f82614d25565b9050600160a060020a03811615613aba57613aba818361522e565b6119d2868342613ada611fee600080516020615d148339815191526143b8565b600080898b615606565b60008080613b117f7152e5426955da44af11ecd67fec5e2a3ba747be974678842afa9394b9a075b661322f565b90506000613b1e856143b8565b90506000613b39600080516020615d548339815191526128ba565b9050600081600160a060020a031663bf40fac16040518060400160405280601381526020017f537461626c65506f6c795573644f7261636c65000000000000000000000000008152506040518263ffffffff1660e060020a0281526004018080602001828103825283818151815260200191508051906020019080838360005b83811015613bd1578181015183820152602001613bb9565b50505050905090810190601f168015613bfe5780820380516001836020036101000a031916815260200191505b509250505060206040518083038186803b158015613c1b57600080fd5b505afa158015613c2f573d6000803e3d6000fd5b505050506040513d6020811015613c4557600080fd5b5051604080517f98d5fdca0000000000000000000000000000000000000000000000000000000081529051600160a060020a03909216916398d5fdca916004808201926020929091908290030181600087803b158015613ca457600080fd5b505af1158015613cb8573d6000803e3d6000fd5b505050506040513d6020811015613cce57600080fd5b5051905083613ceb57829550613ce483826156e8565b9450613cfb565b613cf58382615719565b95508294505b50505050915091565b613dbf87878080601f01602080910402602001604051908101604052809392919081815260200183838082843760009201919091525050604080516020601f8b01819004810282018101909252898152925089915088908190840183828082843760009201919091525050604080516020601f8a0181900481028201810190925288815292508891508790819084018382808284376000920182905250889350339250613db5915060029080615124565b62ffffff166121b7565b50505050505050565b6000613de1600080516020615d34833981519152613ae4565b92915050565b613def614ca8565b6060613dfa826148e3565b9050600160a060020a038316613e48576040805160e560020a62461bcd02815260206004820152600b6024820152600080516020615e5e833981519152604482015290519081900360640190fd5b6000613e896040518060400160405280601781526020017f726567697374657265645469636b6572735f6f776e657200000000000000000081525083614af5565b905033613e95826128ba565b600160a060020a031614613ee1576040805160e560020a62461bcd02815260206004820152600a6024820152600080516020615d74833981519152604482015290519081900360640190fd5b613eea82615192565b15613fee5783600160a060020a0316613f29612bd3604051806040016040528060158152602001600080516020615df483398151915281525085614af5565b600160a060020a0316638da5cb5b6040518163ffffffff1660e060020a02815260040160206040518083038186803b158015613f6457600080fd5b505afa158015613f78573d6000803e3d6000fd5b505050506040513d6020811015613f8e57600080fd5b5051600160a060020a031614613fee576040805160e560020a62461bcd02815260206004820152600e60248201527f4f776e6572206d69736d61746368000000000000000000000000000000000000604482015290519081900360640190fd5b613ff8338361522e565b6140028483615741565b61400c81856147aa565b83600160a060020a031633600160a060020a03167f44ee9de70a04c2a46889521de8968f79b4ae423f078fbaec8c492d821154729c846040518080602001828103825283818151815260200191508051906020019080838360005b8381101561407f578181015183820152602001614067565b50505050905090810190601f1680156140ac5780820380516001836020036101000a031916815260200191505b509250505060405180910390a350505050565b60408051808201909152601581527f7365637572697479546f6b656e735f7469636b6572000000000000000000000060208201526000907fc5d2460186f7233c927e7db2dcc703c0e500b653ca82273b7bfad8045d85a4709061412b90614126908561586b565b613600565b8051906020012014159050919050565b614143613210565b600160a060020a031633600160a060020a031614614199576040805160e560020a62461bcd02815260206004820152600a6024820152600080516020615d74833981519152604482015290519081900360640190fd5b60006141b2600080516020615cf48339815191526143b8565b905060006141cd600080516020615d348339815191526143b8565b905060006141fa7f7152e5426955da44af11ecd67fec5e2a3ba747be974678842afa9394b9a075b661322f565b90508315158115151415614258576040805160e560020a62461bcd02815260206004820152601260248201527f43757272656e637920756e6368616e6765640000000000000000000000000000604482015290519081900360640190fd5b61426283876151db565b61426c828661513f565b60408051851515815290517f103d09c9ed33b1fba54990b33aeb93b42f957ef1bcea350e5ba6103213e375be9181900360200190a16119d27f7152e5426955da44af11ecd67fec5e2a3ba747be974678842afa9394b9a075b68561478a565b6000613de1600080516020615cf4833981519152613ae4565b6142ec613210565b600160a060020a031633600160a060020a031614614342576040805160e560020a62461bcd02815260206004820152600a6024820152600080516020615d74833981519152604482015290519081900360640190fd5b600160a060020a03811661438e576040805160e560020a62461bcd02815260206004820152600b6024820152600080516020615e5e833981519152604482015290519081900360640190fd5b611f747facf8fbd51bb4b83ba426cdb12f63be74db97c412515797993d2a385542e311d7826147aa565b60009081526020819052604090205490565b6143d2613210565b600160a060020a031633600160a060020a031614614428576040805160e560020a62461bcd02815260206004820152600a6024820152600080516020615d74833981519152604482015290519081900360640190fd5b600160a060020a038116614474576040805160e560020a62461bcd02815260206004820152600b6024820152600080516020615e5e833981519152604482015290519081900360640190fd5b600160a060020a038116614495600080516020615db48339815191526128ba565b600160a060020a03167f8be0079c531659141344cd1fd0a4f28419497f9722a3daafe3b4186f6b6457e060405160405180910390a3611f74600080516020615db4833981519152826147aa565b6144ea613210565b600160a060020a031633600160a060020a031614614540576040805160e560020a62461bcd02815260206004820152600a6024820152600080516020615d74833981519152604482015290519081900360640190fd5b61157a6147e5565b6000818152600860209081526040918290208054835181840281018401909452808452606093928301828280156128ae57602002820191906000526020600020908154815260200190600101908083116136ab5750505050509050919050565b60006132297f982f24b3bd80807ec3cb227ba152e15c07d66855fa8ae6ca536e689205c0e2e96128ba565b3660008037600080366000845af43d6000803e8080156145f2573d6000f35b3d6000fd5b600160a060020a038416614643576040805160e560020a62461bcd02815260206004820152600b6024820152600080516020615e5e833981519152604482015290519081900360640190fd5b6000614650848484615124565b90506000614689612bd3604051806040016040528060118152602001600080516020615d948339815191528152508462ffffff1661547b565b9050600160a060020a038116156146ea576040805160e560020a62461bcd02815260206004820152600e60248201527f416c726561647920657869737473000000000000000000000000000000000000604482015290519081900360640190fd5b61471f611c08604051806040016040528060118152602001600080516020615d948339815191528152508462ffffff1661547b565b6040805160ff808816825280871660208301528516818301529051600160a060020a038816917fff11f4313e25ec84748c64ef99baabff83b721e936e589effb745613302f3969919081900360600190a2505050505050565b60009182526020829052604090912055565b600091825260046020526040909120805460ff1916911515919091179055565b600091825260026020526040909120805473ffffffffffffffffffffffffffffffffffffffff1916600160a060020a03909216919091179055565b60006147fe600080516020615d548339815191526128ba565b604080517fbf40fac1000000000000000000000000000000000000000000000000000000008152602060048201819052600960248301527f506f6c79546f6b656e000000000000000000000000000000000000000000000060448301529151929350611f74927facf8fbd51bb4b83ba426cdb12f63be74db97c412515797993d2a385542e311d792600160a060020a0386169263bf40fac19260648083019392829003018186803b1580156148b257600080fd5b505afa1580156148c6573d6000803e3d6000fd5b505050506040513d60208110156148dc57600080fd5b50516147aa565b60608160005b81518110156149ce57600082828151811061490057fe5b016020015160f860020a908190040290507f6100000000000000000000000000000000000000000000000000000000000000600160f860020a031982161080159061497557507f7a00000000000000000000000000000000000000000000000000000000000000600160f860020a0319821611155b1561498957601f1960f860020a9182900401025b8083838151811061499657fe5b60200101907effffffffffffffffffffffffffffffffffffffffffffffffffffffffffffff1916908160001a905350506001016148e9565b5092915050565b60006149e085614d25565b9050600160a060020a038116156149fb576149fb818661522e565b614a0485615192565b8015614a0e575081155b15614a4357614a43613532604051806040016040528060158152602001600080516020615df483398151915281525087614af5565b8115614ae3576000600160a060020a0316614a84612bd3604051806040016040528060158152602001600080516020615df483398151915281525088614af5565b600160a060020a03161415614ae3576040805160e560020a62461bcd02815260206004820152600e60248201527f4e6f742072656769737465726564000000000000000000000000000000000000604482015290519081900360640190fd5b6119d286868686866001600080615606565b600082826040516020018083805190602001908083835b60208310614b2b5780518252601f199092019160209182019101614b0c565b51815160209384036101000a600019018019909216911617905285519190930192850191508083835b60208310614b735780518252601f199092019160209182019101614b54565b6001836020036101000a0380198251168184511680821785525050505050509050019250505060405160208183030381529060405280519060200120905092915050565b600082820183811015614bc957600080fd5b9392505050565b614c18614c126040518060400160405280601581526020017f7365637572697479546f6b656e735f7469636b657200000000000000000000008152508661586b565b8461590c565b614c60614c5a6040518060400160405280601b81526020017f7365637572697479546f6b656e735f746f6b656e44657461696c7300000000008152508661586b565b8361590c565b6115e6614ca26040518060400160405280601981526020017f7365637572697479546f6b656e735f6465706c6f7965644174000000000000008152508661586b565b82614778565b614cb0613210565b600160a060020a031633600160a060020a03161461157a57614cd06138e1565b1561157a576040805160e560020a62461bcd02815260206004820152600660248201527f5061757365640000000000000000000000000000000000000000000000000000604482015290519081900360640190fd5b6000613de1612bd36040518060400160405280601781526020017f726567697374657265645469636b6572735f6f776e657200000000000000000081525084614af5565b600080600080614d7885613ae4565b90925090508015614e9d57614dac7facf8fbd51bb4b83ba426cdb12f63be74db97c412515797993d2a385542e311d76128ba565b604080517f23b872dd000000000000000000000000000000000000000000000000000000008152336004820152306024820152604481018490529051600160a060020a0392909216916323b872dd916064808201926020929091908290030181600087803b158015614e1d57600080fd5b505af1158015614e31573d6000803e3d6000fd5b505050506040513d6020811015614e4757600080fd5b5051614e9d576040805160e560020a62461bcd02815260206004820152601560248201527f496e737566666963656e7420616c6c6f77616e63650000000000000000000000604482015290519081900360640190fd5b9092509050915091565b6000614ed9612bd3604051806040016040528060118152602001600080516020615d948339815191528152508461547b565b600160a060020a0316630eb33e01898960128a8a8a8a614f06600080516020615d548339815191526128ba565b60405160e060020a63ffffffff8b1602815260ff87166044820152600160a060020a03808616608483015284151560a483015283811660c4830152821660e4820152610100600482019081528951610104830152895190918291602482019160648101916101249091019060208e019080838360005b83811015614f94578181015183820152602001614f7c565b50505050905090810190601f168015614fc15780820380516001836020036101000a031916815260200191505b5084810383528b5181528b516020918201918d019080838360005b83811015614ff4578181015183820152602001614fdc565b50505050905090810190601f1680156150215780820380516001836020036101000a031916815260200191505b5084810382528951815289516020918201918b019080838360005b8381101561505457818101518382015260200161503c565b50505050905090810190601f1680156150815780820380516001836020036101000a031916815260200191505b509b505050505050505050505050602060405180830381600087803b1580156150a957600080fd5b505af11580156150bd573d6000803e3d6000fd5b505050506040513d60208110156150d357600080fd5b505190506150e381888842614bd0565b615119615113604051806040016040528060158152602001600080516020615df483398151915281525089614af5565b826147aa565b979650505050505050565b60ff9081169181166101000292166201000002919091171790565b604080518381526020810183905281517f082ce758ae1784abd031015a0eac6700b941db0797e890ae7c4d326a5f8255c0929181900390910190a1612815600080516020615d3483398151915282614778565b6000613de16151d66040518060400160405280601881526020017f726567697374657265645469636b6572735f737461747573000000000000000081525084614af5565b61322f565b604080518381526020810183905281517f788dceb058391de5648d0deb9187656f8c46d3ee285c1077579adf642793f1f6929181900390910190a1612815600080516020615cf483398151915282614778565b6000615272611b6b6040518060400160405280600b81526020017f7469636b6572496e64657800000000000000000000000000000000000000000081525084614af5565b905060006152b56040518060400160405280600d81526020017f75736572546f5469636b657273000000000000000000000000000000000000008152508561586b565b905060606152c282613669565b9050805183106152ce57fe5b84600160a060020a03166152e185614d25565b600160a060020a0316146152f157fe5b6152fb828461592b565b8261530583613669565b5111156117f857600061531783613669565b848151811061532257fe5b602002602001015190506119d26153766040518060400160405280600b81526020017f7469636b6572496e646578000000000000000000000000000000000000000000815250615371846159c0565b614af5565b85614778565b60006153bd6040518060400160405280601781526020017f726567697374657265645469636b6572735f6f776e657200000000000000000081525087614af5565b90506153c981866147aa565b6153eb604051806060016040528060228152602001615e7e6022913987614af5565b90506153f78185614778565b6154246040518060400160405280601c8152602001600080516020615e1483398151915281525087614af5565b90506154308184614778565b61546f6040518060400160405280601881526020017f726567697374657265645469636b6572735f737461747573000000000000000081525087614af5565b90506119d2818361478a565b600082826040516020018083805190602001908083835b602083106154b15780518252601f199092019160209182019101615492565b51815160209384036101000a60001901801990921691161790529201938452506040805180850381529382019052825192019190912095945050505050565b60006154fd848484615124565b90506000600160a060020a031661553f612bd3604051806040016040528060118152602001600080516020615d948339815191528152508462ffffff1661547b565b600160a060020a0316141561559e576040805160e560020a62461bcd02815260206004820152600a60248201527f4e6f20666163746f727900000000000000000000000000000000000000000000604482015290519081900360640190fd5b6155bb600080516020615cd483398151915262ffffff8316614778565b6040805160ff8087168252808616602083015284168183015290517f9ab8e90191e448bebe0ce6be95b1f847fa9c711d9b27c284222a421caa8f0dc09181900360600190a150505050565b6156108888615741565b61561d878988888861537c565b848689600160a060020a03167f8863beb3f7041968ea881ebc3e9e7bd1e5ade81b66586f43524a264e849c66098a878787604051808060200185151515158152602001848152602001838152602001828103825286818151815260200191508051906020019080838360005b838110156156a1578181015183820152602001615689565b50505050905090810190601f1680156156ce5780820380516001836020036101000a031916815260200191505b509550505050505060405180910390a45050505050505050565b60008161570a61570085670de0b6b3a7640000615b00565b6002855b04614bb7565b8161571157fe5b049392505050565b6000670de0b6b3a764000061570a6157318585615b00565b6002670de0b6b3a7640000615704565b60006157826040518060400160405280600d81526020017f75736572546f5469636b657273000000000000000000000000000000000000008152508461586b565b9050600061578f82613669565b5190506157a48261579f85615b27565b615b34565b6157e6614ca26040518060400160405280600b81526020017f7469636b6572496e64657800000000000000000000000000000000000000000081525085614af5565b60006158276040518060400160405280600981526020017f7365656e557365727300000000000000000000000000000000000000000000008152508661586b565b90506158328161322f565b6117f8576158607f425619ce6ba8e9f80f17c0ef298b6557e321d70d7aeff2e74dd157bd87177a9e86615b57565b6117f881600161478a565b600082826040516020018083805190602001908083835b602083106158a15780518252601f199092019160209182019101615882565b6001836020036101000a03801982511681845116808217855250505050505090500182600160a060020a0316600160a060020a03166c010000000000000000000000000281526014019250505060405160208183030381529060405280519060200120905092915050565b6000828152600160209081526040909120825161320b92840190615bfb565b60008281526007602052604090208054821061597b5760405160e560020a62461bcd02815260040180806020018281038252602a815260200180615e34602a913960400191505060405180910390fd5b80548190600019810190811061598d57fe5b90600052602060002001548183815481106159a457fe5b6000918252602090912001558054600019016115e68282615c79565b6040805160208082528183019092526060918291906020820181803883390190505090506000805b6020811015615a56576008810260020a8502600160f860020a0319811615615a4d5780848481518110615a1757fe5b60200101907effffffffffffffffffffffffffffffffffffffffffffffffffffffffffffff1916908160001a9053506001909201915b506001016159e8565b6060826040519080825280601f01601f191660200182016040528015615a83576020820181803883390190505b509050600091505b82821015615af757838281518110615a9f57fe5b602001015160f860020a900460f860020a02818381518110615abd57fe5b60200101907effffffffffffffffffffffffffffffffffffffffffffffffffffffffffffff1916908160001a905350600190910190615a8b565b95945050505050565b600082615b0f57506000613de1565b82820282848281615b1c57fe5b0414614bc957600080fd5b6000613de1826000615ba3565b600091825260076020908152604083208054600181018255908452922090910155565b6000918252600960209081526040832080546001810182559084529220909101805473ffffffffffffffffffffffffffffffffffffffff1916600160a060020a03909216919091179055565b600080805b8451811015615bf357806008028582860181518110615bc357fe5b60209101015160029190910a60f860020a91829004909102600160f860020a031916049190911790600101615ba8565b509392505050565b828054600181600116156101000203166002900490600052602060002090601f016020900481019282601f10615c3c57805160ff1916838001178555615c69565b82800160010185558215615c69579182015b82811115615c69578251825591602001919060010190615c4e565b50615c75929150615c99565b5090565b81548183558181111561320b5760008381526020902061320b9181019083015b61322c91905b80821115615c755760008155600101615c9f56feee35723ac350a69d2a92d3703f17439cbaadf2f093a21ba5bf5f1a53eb2a14d94c63b69b9117452b9f11af62077d0cda875fb4e2dbe07ad6f31f728de69262302fcc69711628630fb5a42566c68bd1092bc4aa26826736293969fddcd11cb2d2604268e9a73dfd777dcecb8a614493dd65c638bad2f5e7d709d378bd2fb0baeed677304bb45536bb7fdfa6b9e47a3c58fe413f9e8f01474b0a4b9c6e0275baf290eeab7c36075577c7cc5ff366e389fefa8a18289b949bab3529ab4471139d4d4f6e6c79206f776e65720000000000000000000000000000000000000000000070726f746f636f6c56657273696f6e535400000000000000000000000000000002016836a56b71f0d02689e69e326f4f4c1b9057164ef592671cf0d37c8040c0426164207469636b6572000000000000000000000000000000000000000000007469636b6572546f5365637572697479546f6b656e0000000000000000000000726567697374657265645469636b6572735f6578706972794461746500000000496e6465782073686f756c64206c657373207468616e206c656e677468206f66207468652061727261794261642061646472657373000000000000000000000000000000000000000000726567697374657265645469636b6572735f726567697374726174696f6e44617465a165627a7a72305820f2ee576c79fedd6359f85405aa8a789077ea5760076c3b40cf292a21570e6fb80029",
  "source": "/**\n    //\n        IMPORTANT: Developer should update the ISecurityTokenRegistry.sol (Interface) if there is any change in\n        function signature or addition/removal of the functions from SecurityTokenRegistry & STRGetter contract.\n    //\n\n */\n\npragma solidity ^0.5.0;\n\nimport \"openzeppelin-solidity/contracts/math/SafeMath.sol\";\nimport \"openzeppelin-solidity/contracts/token/ERC20/IERC20.sol\";\nimport \"./interfaces/IOwnable.sol\";\nimport \"./interfaces/ISTFactory.sol\";\nimport \"./interfaces/ISecurityToken.sol\";\nimport \"./interfaces/IPolymathRegistry.sol\";\nimport \"./interfaces/IOracle.sol\";\nimport \"./storage/EternalStorage.sol\";\nimport \"./libraries/Util.sol\";\nimport \"./libraries/Encoder.sol\";\nimport \"./libraries/VersionUtils.sol\";\nimport \"./libraries/DecimalMath.sol\";\nimport \"./proxy/Proxy.sol\";\n\n/**\n * @title Registry contract for issuers to register their tickers and security tokens\n */\ncontract SecurityTokenRegistry is EternalStorage, Proxy {\n\n    /**\n     * @notice state variables\n\n       address public polyToken;\n       uint256 public stLaunchFee;\n       uint256 public tickerRegFee;\n       uint256 public expiryLimit;\n       uint256 public latestProtocolVersion;\n       bool public paused;\n       address public owner;\n       address public polymathRegistry;\n\n       address[] public activeUsers;\n       mapping(address => bool) public seenUsers;\n\n       mapping(address => bytes32[]) userToTickers;\n       mapping(string => address) tickerToSecurityToken;\n       mapping(string => uint) tickerIndex;\n       mapping(string => TickerDetails) registeredTickers;\n       mapping(address => SecurityTokenData) securityTokens;\n       mapping(bytes32 => address) protocolVersionST;\n       mapping(uint256 => ProtocolVersion) versionData;\n\n       struct ProtocolVersion {\n           uint8 major;\n           uint8 minor;\n           uint8 patch;\n       }\n\n       struct TickerDetails {\n           address owner;\n           uint256 registrationDate;\n           uint256 expiryDate;\n           string tokenName; //Not stored since 3.0.0\n           bool status;\n       }\n\n       struct SecurityTokenData {\n           string ticker;\n           string tokenDetails;\n           uint256 deployedAt;\n       }\n\n     */\n\n    using SafeMath for uint256;\n\n    bytes32 constant INITIALIZE = 0x9ef7257c3339b099aacf96e55122ee78fb65a36bd2a6c19249882be9c98633bf; //keccak256(\"initialised\")\n    bytes32 constant POLYTOKEN = 0xacf8fbd51bb4b83ba426cdb12f63be74db97c412515797993d2a385542e311d7; //keccak256(\"polyToken\")\n    bytes32 constant STLAUNCHFEE = 0xd677304bb45536bb7fdfa6b9e47a3c58fe413f9e8f01474b0a4b9c6e0275baf2; //keccak256(\"stLaunchFee\")\n    bytes32 constant TICKERREGFEE = 0x2fcc69711628630fb5a42566c68bd1092bc4aa26826736293969fddcd11cb2d2; //keccak256(\"tickerRegFee\")\n    bytes32 constant EXPIRYLIMIT = 0x604268e9a73dfd777dcecb8a614493dd65c638bad2f5e7d709d378bd2fb0baee; //keccak256(\"expiryLimit\")\n    bytes32 constant PAUSED = 0xee35723ac350a69d2a92d3703f17439cbaadf2f093a21ba5bf5f1a53eb2a14d9; //keccak256(\"paused\")\n    bytes32 constant OWNER = 0x02016836a56b71f0d02689e69e326f4f4c1b9057164ef592671cf0d37c8040c0; //keccak256(\"owner\")\n    bytes32 constant POLYMATHREGISTRY = 0x90eeab7c36075577c7cc5ff366e389fefa8a18289b949bab3529ab4471139d4d; //keccak256(\"polymathRegistry\")\n    bytes32 constant STRGETTER = 0x982f24b3bd80807ec3cb227ba152e15c07d66855fa8ae6ca536e689205c0e2e9; //keccak256(\"STRGetter\")\n    bytes32 constant IS_FEE_IN_POLY = 0x7152e5426955da44af11ecd67fec5e2a3ba747be974678842afa9394b9a075b6; //keccak256(\"IS_FEE_IN_POLY\")\n    bytes32 constant ACTIVE_USERS = 0x425619ce6ba8e9f80f17c0ef298b6557e321d70d7aeff2e74dd157bd87177a9e; //keccak256(\"activeUsers\")\n    bytes32 constant LATEST_VERSION = 0x4c63b69b9117452b9f11af62077d0cda875fb4e2dbe07ad6f31f728de6926230; //keccak256(\"latestVersion\")\n\n    string constant POLY_ORACLE = \"StablePolyUsdOracle\";\n\n    // Emit when network becomes paused\n    event Pause(address account);\n    // Emit when network becomes unpaused\n    event Unpause(address account);\n    // Emit when the ticker is removed from the registry\n    event TickerRemoved(string _ticker, address _removedBy);\n    // Emit when the token ticker expiry is changed\n    event ChangeExpiryLimit(uint256 _oldExpiry, uint256 _newExpiry);\n    // Emit when changeSecurityLaunchFee is called\n    event ChangeSecurityLaunchFee(uint256 _oldFee, uint256 _newFee);\n    // Emit when changeTickerRegistrationFee is called\n    event ChangeTickerRegistrationFee(uint256 _oldFee, uint256 _newFee);\n    // Emit when Fee currency is changed\n    event ChangeFeeCurrency(bool _isFeeInPoly);\n    // Emit when ownership gets transferred\n    event OwnershipTransferred(address indexed previousOwner, address indexed newOwner);\n    // Emit when ownership of the ticker gets changed\n    event ChangeTickerOwnership(string _ticker, address indexed _oldOwner, address indexed _newOwner);\n    // Emit at the time of launching a new security token of version 3.0+\n    event NewSecurityTokenCreated(\n        string _ticker,\n        string _name,\n        address indexed _securityTokenAddress,\n        address indexed _owner,\n        uint256 _addedAt,\n        address _registrant,\n        bool _fromAdmin,\n        uint256 _usdFee,\n        uint256 _polyFee,\n        uint256 _protocolVersion\n    );\n    // Emit at the time of launching a new security token v2.0.\n    // _registrationFee is in poly\n    event NewSecurityToken(\n        string _ticker,\n        string _name,\n        address indexed _securityTokenAddress,\n        address indexed _owner,\n        uint256 _addedAt,\n        address _registrant,\n        bool _fromAdmin,\n        uint256 _registrationFee\n    );\n    // Emit after ticker registration\n    event RegisterTicker(\n        address indexed _owner,\n        string _ticker,\n        uint256 indexed _registrationDate,\n        uint256 indexed _expiryDate,\n        bool _fromAdmin,\n        uint256 _registrationFeePoly,\n        uint256 _registrationFeeUsd\n    );\n    // For backwards compatibility\n    event RegisterTicker(\n        address indexed _owner,\n        string _ticker,\n        string _name,\n        uint256 indexed _registrationDate,\n        uint256 indexed _expiryDate,\n        bool _fromAdmin,\n        uint256 _registrationFee\n    );\n    // Emit at when issuer refreshes exisiting token\n    event SecurityTokenRefreshed(\n        string _ticker,\n        string _name,\n        address indexed _securityTokenAddress,\n        address indexed _owner,\n        uint256 _addedAt,\n        address _registrant,\n        uint256 _protocolVersion\n    );\n    event ProtocolFactorySet(address indexed _STFactory, uint8 _major, uint8 _minor, uint8 _patch);\n    event LatestVersionSet(uint8 _major, uint8 _minor, uint8 _patch);\n    event ProtocolFactoryRemoved(address indexed _STFactory, uint8 _major, uint8 _minor, uint8 _patch);\n    /////////////////////////////\n    // Modifiers\n    /////////////////////////////\n\n    /**\n     * @dev Throws if called by any account other than the owner.\n     */\n    modifier onlyOwner() {\n        require(msg.sender == owner(), \"Only owner\");\n        _;\n    }\n\n    modifier onlyOwnerOrSelf() {\n        require(msg.sender == owner() || msg.sender == address(this), \"Only owner or self\");\n        _;\n    }\n\n    /**\n     * @notice Modifier to make a function callable only when the contract is not paused.\n     */\n    modifier whenNotPausedOrOwner() {\n        _whenNotPausedOrOwner();\n        _;\n    }\n\n    function _whenNotPausedOrOwner() internal view {\n        if (msg.sender != owner()) {\n            require(!isPaused(), \"Paused\");\n        }\n    }\n\n    /**\n     * @notice Modifier to make a function callable only when the contract is not paused and ignore is msg.sender is owner.\n     */\n    modifier whenNotPaused() {\n        require(!isPaused(), \"Paused\");\n        _;\n    }\n\n    /**\n     * @notice Modifier to make a function callable only when the contract is paused.\n     */\n    modifier whenPaused() {\n        require(isPaused(), \"Not paused\");\n        _;\n    }\n\n    /////////////////////////////\n    // Initialization\n    /////////////////////////////\n\n    // Constructor\n    constructor() public {\n        set(INITIALIZE, true);\n    }\n\n    /**\n     * @notice Initializes instance of STR\n     * @param _polymathRegistry is the address of the Polymath Registry\n     * @param _stLaunchFee is the fee in USD required to launch a token\n     * @param _tickerRegFee is the fee in USD required to register a ticker\n     * @param _owner is the owner of the STR,\n     * @param _getterContract Contract address of the contract which consists getter functions.\n     */\n    function initialize(\n        address _polymathRegistry,\n        uint256 _stLaunchFee,\n        uint256 _tickerRegFee,\n        address _owner,\n        address _getterContract\n    )\n        public\n    {\n        require(!getBoolValue(INITIALIZE),\"Initialized\");\n        require(\n            _owner != address(0) && _polymathRegistry != address(0) && _getterContract != address(0),\n            \"Invalid address\"\n        );\n        set(STLAUNCHFEE, _stLaunchFee);\n        set(TICKERREGFEE, _tickerRegFee);\n        set(EXPIRYLIMIT, uint256(60 * 1 days));\n        set(PAUSED, false);\n        set(OWNER, _owner);\n        set(POLYMATHREGISTRY, _polymathRegistry);\n        set(INITIALIZE, true);\n        set(STRGETTER, _getterContract);\n        _updateFromRegistry();\n    }\n\n    /**\n     * @notice Used to update the polyToken contract address\n     */\n    function updateFromRegistry() external onlyOwner {\n        _updateFromRegistry();\n    }\n\n    function _updateFromRegistry() internal {\n        address polymathRegistry = getAddressValue(POLYMATHREGISTRY);\n        set(POLYTOKEN, IPolymathRegistry(polymathRegistry).getAddress(\"PolyToken\"));\n    }\n\n    /**\n     * @notice Converts USD fees into POLY amounts\n     */\n    function _takeFee(bytes32 _feeType) internal returns (uint256, uint256) {\n        (uint256 usdFee, uint256 polyFee) = getFees(_feeType);\n        if (polyFee > 0)\n            require(IERC20(getAddressValue(POLYTOKEN)).transferFrom(msg.sender, address(this), polyFee), \"Insufficent allowance\");\n        return (usdFee, polyFee);\n    }\n\n    /**\n     * @notice Returns the usd & poly fee for a particular feetype\n     * @param _feeType Key corresponding to fee type\n     */\n    function getFees(bytes32 _feeType) public returns (uint256 usdFee, uint256 polyFee) {\n        bool isFeesInPoly = getBoolValue(IS_FEE_IN_POLY);\n        uint256 rawFee = getUintValue(_feeType);\n        address polymathRegistry = getAddressValue(POLYMATHREGISTRY);\n        uint256 polyRate = IOracle(IPolymathRegistry(polymathRegistry).getAddress(POLY_ORACLE)).getPrice();\n        if (!isFeesInPoly) { //Fee is in USD and not poly\n            usdFee = rawFee;\n            polyFee = DecimalMath.div(rawFee, polyRate);\n        } else {\n            usdFee = DecimalMath.mul(rawFee, polyRate);\n            polyFee = rawFee;\n        }\n    }\n\n    /**\n     * @notice Gets the security token launch fee\n     * @return Fee amount\n     */\n    function getSecurityTokenLaunchFee() public returns(uint256 polyFee) {\n        (, polyFee) = getFees(STLAUNCHFEE);\n    }\n\n    /**\n     * @notice Gets the ticker registration fee\n     * @return Fee amount\n     */\n    function getTickerRegistrationFee() public returns(uint256 polyFee) {\n        (, polyFee) = getFees(TICKERREGFEE);\n    }\n\n    /**\n     * @notice Set the getter contract address\n     * @param _getterContract Address of the contract\n     */\n    function setGetterRegistry(address _getterContract) public onlyOwnerOrSelf {\n        require(_getterContract != address(0));\n        set(STRGETTER, _getterContract);\n    }\n\n    function _implementation() internal view returns(address) {\n        return getAddressValue(STRGETTER);\n    }\n\n    /////////////////////////////\n    // Token Ticker Management\n    /////////////////////////////\n\n    /**\n     * @notice Registers the token ticker to the selected owner\n     * @notice Once the token ticker is registered to its owner then no other issuer can claim\n     * @notice its ownership. If the ticker expires and its issuer hasn't used it, then someone else can take it.\n     * @param _owner is address of the owner of the token\n     * @param _ticker is unique token ticker\n     */\n    function registerNewTicker(address _owner, string memory _ticker) public whenNotPausedOrOwner {\n        require(_owner != address(0), \"Bad address\");\n        require(bytes(_ticker).length > 0 && bytes(_ticker).length <= 10, \"Bad ticker\");\n        // Attempt to charge the reg fee if it is > 0 USD\n        (uint256 usdFee, uint256 polyFee) = _takeFee(TICKERREGFEE);\n        string memory ticker = Util.upper(_ticker);\n        require(tickerAvailable(ticker), \"Ticker reserved\");\n        // Check whether ticker was previously registered (and expired)\n        address previousOwner = _tickerOwner(ticker);\n        if (previousOwner != address(0)) {\n            _deleteTickerOwnership(previousOwner, ticker);\n        }\n        /*solium-disable-next-line security/no-block-members*/\n        _addTicker(_owner, ticker, now, now.add(getUintValue(EXPIRYLIMIT)), false, false, polyFee, usdFee);\n    }\n\n    /**\n     * @dev This function is just for backwards compatibility\n     */\n    function registerTicker(address _owner, string calldata _ticker, string calldata _tokenName) external {\n        registerNewTicker(_owner, _ticker);\n        (, uint256 polyFee) = getFees(TICKERREGFEE);\n        emit RegisterTicker(_owner, _ticker, _tokenName, now, now.add(getUintValue(EXPIRYLIMIT)), false, polyFee);\n    }\n\n    /**\n     * @notice Internal - Sets the details of the ticker\n     */\n    function _addTicker(\n        address _owner,\n        string memory _ticker,\n        uint256 _registrationDate,\n        uint256 _expiryDate,\n        bool _status,\n        bool _fromAdmin,\n        uint256 _polyFee,\n        uint256 _usdFee\n    )\n        internal\n    {\n        _setTickerOwnership(_owner, _ticker);\n        _storeTickerDetails(_ticker, _owner, _registrationDate, _expiryDate, _status);\n        emit RegisterTicker(_owner, _ticker, _registrationDate, _expiryDate, _fromAdmin, _polyFee, _usdFee);\n    }\n\n    /**\n     * @notice Modifies the ticker details. Only Polymath has the ability to do so.\n     * @notice Only allowed to modify the tickers which are not yet deployed.\n     * @param _owner is the owner of the token\n     * @param _ticker is the token ticker\n     * @param _registrationDate is the date at which ticker is registered\n     * @param _expiryDate is the expiry date for the ticker\n     * @param _status is the token deployment status\n     */\n    function modifyExistingTicker(\n        address _owner,\n        string memory _ticker,\n        uint256 _registrationDate,\n        uint256 _expiryDate,\n        bool _status\n    )\n        public\n        onlyOwner\n    {\n        require(bytes(_ticker).length > 0 && bytes(_ticker).length <= 10, \"Bad ticker\");\n        require(_expiryDate != 0 && _registrationDate != 0, \"Bad dates\");\n        require(_registrationDate <= _expiryDate, \"Bad dates\");\n        require(_owner != address(0), \"Bad address\");\n        string memory ticker = Util.upper(_ticker);\n        _modifyTicker(_owner, ticker, _registrationDate, _expiryDate, _status);\n    }\n\n    /**\n     * @dev This function is just for backwards compatibility\n     */\n    function modifyTicker(\n        address _owner,\n        string calldata _ticker,\n        string calldata _tokenName,\n        uint256 _registrationDate,\n        uint256 _expiryDate,\n        bool _status\n    )\n        external\n    {\n        modifyExistingTicker(_owner, _ticker, _registrationDate, _expiryDate, _status);\n        emit RegisterTicker(_owner, _ticker, _tokenName, now, now.add(getUintValue(EXPIRYLIMIT)), false, 0);\n    }\n\n    /**\n     * @notice Internal -- Modifies the ticker details.\n     */\n    function _modifyTicker(\n        address _owner,\n        string memory _ticker,\n        uint256 _registrationDate,\n        uint256 _expiryDate,\n        bool _status\n    )\n        internal\n    {\n        address currentOwner = _tickerOwner(_ticker);\n        if (currentOwner != address(0)) {\n            _deleteTickerOwnership(currentOwner, _ticker);\n        }\n        if (_tickerStatus(_ticker) && !_status) {\n            set(Encoder.getKey(\"tickerToSecurityToken\", _ticker), address(0));\n        }\n        // If status is true, there must be a security token linked to the ticker already\n        if (_status) {\n            require(getAddressValue(Encoder.getKey(\"tickerToSecurityToken\", _ticker)) != address(0), \"Not registered\");\n        }\n        _addTicker(_owner, _ticker, _registrationDate, _expiryDate, _status, true, uint256(0), uint256(0));\n    }\n\n    function _tickerOwner(string memory _ticker) internal view returns(address) {\n        return getAddressValue(Encoder.getKey(\"registeredTickers_owner\", _ticker));\n    }\n\n    /**\n     * @notice Removes the ticker details, associated ownership & security token mapping\n     * @param _ticker is the token ticker\n     */\n    function removeTicker(string memory _ticker) public onlyOwner {\n        string memory ticker = Util.upper(_ticker);\n        address owner = _tickerOwner(ticker);\n        require(owner != address(0), \"Bad ticker\");\n        _deleteTickerOwnership(owner, ticker);\n        set(Encoder.getKey(\"tickerToSecurityToken\", ticker), address(0));\n        _storeTickerDetails(ticker, address(0), 0, 0, false);\n        /*solium-disable-next-line security/no-block-members*/\n        emit TickerRemoved(ticker, msg.sender);\n    }\n\n    /**\n     * @notice Checks if the entered ticker is registered and has not expired\n     * @param _ticker is the token ticker\n     * @return bool\n     */\n    function tickerAvailable(string memory _ticker) public view returns(bool) {\n        if (_tickerOwner(_ticker) != address(0)) {\n            /*solium-disable-next-line security/no-block-members*/\n            if ((now > getUintValue(Encoder.getKey(\"registeredTickers_expiryDate\", _ticker))) && !_tickerStatus(_ticker)) {\n                return true;\n            } else return false;\n        }\n        return true;\n    }\n\n    function _tickerStatus(string memory _ticker) internal view returns(bool) {\n        return getBoolValue(Encoder.getKey(\"registeredTickers_status\", _ticker));\n    }\n\n    /**\n     * @notice Internal - Sets the ticker owner\n     * @param _owner is the address of the owner of the ticker\n     * @param _ticker is the ticker symbol\n     */\n    function _setTickerOwnership(address _owner, string memory _ticker) internal {\n        bytes32 _ownerKey = Encoder.getKey(\"userToTickers\", _owner);\n        uint256 length = uint256(getArrayBytes32(_ownerKey).length);\n        pushArray(_ownerKey, Util.stringToBytes32(_ticker));\n        set(Encoder.getKey(\"tickerIndex\", _ticker), length);\n        bytes32 seenKey = Encoder.getKey(\"seenUsers\", _owner);\n        if (!getBoolValue(seenKey)) {\n            pushArray(ACTIVE_USERS, _owner);\n            set(seenKey, true);\n        }\n    }\n\n    /**\n     * @notice Internal - Stores the ticker details\n     */\n    function _storeTickerDetails(\n        string memory _ticker,\n        address _owner,\n        uint256 _registrationDate,\n        uint256 _expiryDate,\n        bool _status\n    )\n        internal\n    {\n        bytes32 key = Encoder.getKey(\"registeredTickers_owner\", _ticker);\n        set(key, _owner);\n        key = Encoder.getKey(\"registeredTickers_registrationDate\", _ticker);\n        set(key, _registrationDate);\n        key = Encoder.getKey(\"registeredTickers_expiryDate\", _ticker);\n        set(key, _expiryDate);\n        key = Encoder.getKey(\"registeredTickers_status\", _ticker);\n        set(key, _status);\n    }\n\n    /**\n     * @notice Transfers the ownership of the ticker\n     * @param _newOwner is the address of the new owner of the ticker\n     * @param _ticker is the ticker symbol\n     */\n    function transferTickerOwnership(address _newOwner, string memory _ticker) public whenNotPausedOrOwner {\n        string memory ticker = Util.upper(_ticker);\n        require(_newOwner != address(0), \"Bad address\");\n        bytes32 ownerKey = Encoder.getKey(\"registeredTickers_owner\", ticker);\n        require(getAddressValue(ownerKey) == msg.sender, \"Only owner\");\n        if (_tickerStatus(ticker)) require(\n            IOwnable(getAddressValue(Encoder.getKey(\"tickerToSecurityToken\", ticker))).owner() == _newOwner,\n            \"Owner mismatch\"\n        );\n        _deleteTickerOwnership(msg.sender, ticker);\n        _setTickerOwnership(_newOwner, ticker);\n        set(ownerKey, _newOwner);\n        emit ChangeTickerOwnership(ticker, msg.sender, _newOwner);\n    }\n\n    /**\n     * @notice Internal - Removes the owner of a ticker\n     */\n    function _deleteTickerOwnership(address _owner, string memory _ticker) internal {\n        uint256 index = uint256(getUintValue(Encoder.getKey(\"tickerIndex\", _ticker)));\n        bytes32 ownerKey = Encoder.getKey(\"userToTickers\", _owner);\n        bytes32[] memory tickers = getArrayBytes32(ownerKey);\n        assert(index < tickers.length);\n        assert(_tickerOwner(_ticker) == _owner);\n        deleteArrayBytes32(ownerKey, index);\n        if (getArrayBytes32(ownerKey).length > index) {\n            bytes32 switchedTicker = getArrayBytes32(ownerKey)[index];\n            set(Encoder.getKey(\"tickerIndex\", Util.bytes32ToString(switchedTicker)), index);\n        }\n    }\n\n    /**\n     * @notice Changes the expiry time for the token ticker. Only available to Polymath.\n     * @param _newExpiry is the new expiry for newly generated tickers\n     */\n    function changeExpiryLimit(uint256 _newExpiry) public onlyOwner {\n        require(_newExpiry >= 1 days, \"Bad dates\");\n        emit ChangeExpiryLimit(getUintValue(EXPIRYLIMIT), _newExpiry);\n        set(EXPIRYLIMIT, _newExpiry);\n    }\n\n    /////////////////////////////\n    // Security Token Management\n    /////////////////////////////\n\n    /**\n     * @notice Deploys an instance of a new Security Token of version 2.0 and records it to the registry\n     * @dev this function is for backwards compatibilty with 2.0 dApp.\n     * @param _name is the name of the token\n     * @param _ticker is the ticker symbol of the security token\n     * @param _tokenDetails is the off-chain details of the token\n     * @param _divisible is whether or not the token is divisible\n     */\n    function generateSecurityToken(\n        string calldata _name,\n        string calldata _ticker,\n        string calldata _tokenDetails,\n        bool _divisible\n    )\n        external\n    {\n        generateNewSecurityToken(_name, _ticker, _tokenDetails, _divisible, msg.sender, VersionUtils.pack(2, 0, 0));\n    }\n\n    /**\n     * @notice Deploys an instance of a new Security Token and records it to the registry\n     * @param _name is the name of the token\n     * @param _ticker is the ticker symbol of the security token\n     * @param _tokenDetails is the off-chain details of the token\n     * @param _divisible is whether or not the token is divisible\n     * @param _treasuryWallet Ethereum address which will holds the STs.\n     * @param _protocolVersion Version of securityToken contract\n     * - `_protocolVersion` is the packed value of uin8[3] array (it will be calculated offchain)\n     * - if _protocolVersion == 0 then latest version of securityToken will be generated\n     */\n    function generateNewSecurityToken(\n        string memory _name,\n        string memory _ticker,\n        string memory _tokenDetails,\n        bool _divisible,\n        address _treasuryWallet,\n        uint256 _protocolVersion\n    )\n        public\n        whenNotPausedOrOwner\n    {\n        require(bytes(_name).length > 0 && bytes(_ticker).length > 0, \"Bad ticker\");\n        require(_treasuryWallet != address(0), \"0x0 not allowed\");\n        if (_protocolVersion == 0) {\n            _protocolVersion = getUintValue(LATEST_VERSION);\n        }\n        _ticker = Util.upper(_ticker);\n        bytes32 statusKey = Encoder.getKey(\"registeredTickers_status\", _ticker);\n        require(!getBoolValue(statusKey), \"Already deployed\");\n        set(statusKey, true);\n        address issuer = msg.sender;\n        require(_tickerOwner(_ticker) == issuer, \"Not authorised\");\n        /*solium-disable-next-line security/no-block-members*/\n        require(getUintValue(Encoder.getKey(\"registeredTickers_expiryDate\", _ticker)) >= now, \"Ticker expired\");\n        (uint256 _usdFee, uint256 _polyFee) = _takeFee(STLAUNCHFEE);\n        address newSecurityTokenAddress =\n            _deployToken(_name, _ticker, _tokenDetails, issuer, _divisible, _treasuryWallet, _protocolVersion);\n        if (_protocolVersion == VersionUtils.pack(2, 0, 0)) {\n            // For backwards compatibilty. Should be removed with an update when we disable st 2.0 generation.\n            emit NewSecurityToken(\n                _ticker, _name, newSecurityTokenAddress, issuer, now, issuer, false, _polyFee\n            );\n        } else {\n            emit NewSecurityTokenCreated(\n                _ticker, _name, newSecurityTokenAddress, issuer, now, issuer, false, _usdFee, _polyFee, _protocolVersion\n            );\n        }\n    }\n\n    /**\n     * @notice Deploys an instance of a new Security Token and replaces the old one in the registry\n     * This can be used to upgrade from version 2.0 of ST to 3.0 or in case something goes wrong with earlier ST\n     * @dev This function needs to be in STR 3.0. Defined public to avoid stack overflow\n     * @param _name is the name of the token\n     * @param _ticker is the ticker symbol of the security token\n     * @param _tokenDetails is the off-chain details of the token\n     * @param _divisible is whether or not the token is divisible\n     */\n    function refreshSecurityToken(\n        string memory _name,\n        string memory _ticker,\n        string memory _tokenDetails,\n        bool _divisible,\n        address _treasuryWallet\n    )\n        public whenNotPausedOrOwner returns (address)\n    {\n        require(bytes(_name).length > 0 && bytes(_ticker).length > 0, \"Bad ticker\");\n        require(_treasuryWallet != address(0), \"0x0 not allowed\");\n        string memory ticker = Util.upper(_ticker);\n        require(_tickerStatus(ticker), \"not deployed\");\n        address st = getAddressValue(Encoder.getKey(\"tickerToSecurityToken\", ticker));\n        address stOwner = IOwnable(st).owner();\n        require(msg.sender == stOwner, \"Unauthroized\");\n        require(ISecurityToken(st).transfersFrozen(), \"Transfers not frozen\");\n        uint256 protocolVersion = getUintValue(LATEST_VERSION);\n        address newSecurityTokenAddress =\n            _deployToken(_name, ticker, _tokenDetails, stOwner, _divisible, _treasuryWallet, protocolVersion);\n        emit SecurityTokenRefreshed(\n            _ticker, _name, newSecurityTokenAddress, stOwner, now, stOwner, protocolVersion\n        );\n    }\n\n    function _deployToken(\n        string memory _name,\n        string memory _ticker,\n        string memory _tokenDetails,\n        address _issuer,\n        bool _divisible,\n        address _wallet,\n        uint256 _protocolVersion\n    )\n        internal\n        returns(address newSecurityTokenAddress)\n    {\n        newSecurityTokenAddress = ISTFactory(getAddressValue(Encoder.getKey(\"protocolVersionST\", _protocolVersion))).deployToken(\n            _name,\n            _ticker,\n            18,\n            _tokenDetails,\n            _issuer,\n            _divisible,\n            _wallet,\n            getAddressValue(POLYMATHREGISTRY)\n        );\n\n        /*solium-disable-next-line security/no-block-members*/\n        _storeSecurityTokenData(newSecurityTokenAddress, _ticker, _tokenDetails, now);\n        set(Encoder.getKey(\"tickerToSecurityToken\", _ticker), newSecurityTokenAddress);\n    }\n\n    /**\n     * @notice Adds a new custom Security Token and saves it to the registry. (Token should follow the ISecurityToken interface)\n     * @param _ticker is the ticker symbol of the security token\n     * @param _owner is the owner of the token\n     * @param _securityToken is the address of the securityToken\n     * @param _tokenDetails is the off-chain details of the token\n     * @param _deployedAt is the timestamp at which the security token is deployed\n     */\n    function modifyExistingSecurityToken(\n        string memory _ticker,\n        address _owner,\n        address _securityToken,\n        string memory _tokenDetails,\n        uint256 _deployedAt\n    )\n        public\n        onlyOwner\n    {\n        require(bytes(_ticker).length <= 10, \"Bad ticker\");\n        require(_deployedAt != 0 && _owner != address(0), \"Bad data\");\n        string memory ticker = Util.upper(_ticker);\n        require(_securityToken != address(0), \"Bad address\");\n        uint256 registrationTime = getUintValue(Encoder.getKey(\"registeredTickers_registrationDate\", ticker));\n        uint256 expiryTime = getUintValue(Encoder.getKey(\"registeredTickers_expiryDate\", ticker));\n        if (registrationTime == 0) {\n            /*solium-disable-next-line security/no-block-members*/\n            registrationTime = now;\n            expiryTime = registrationTime.add(getUintValue(EXPIRYLIMIT));\n        }\n        set(Encoder.getKey(\"tickerToSecurityToken\", ticker), _securityToken);\n        _modifyTicker(_owner, ticker, registrationTime, expiryTime, true);\n        _storeSecurityTokenData(_securityToken, ticker, _tokenDetails, _deployedAt);\n        emit NewSecurityTokenCreated(\n            ticker, ISecurityToken(_securityToken).name(), _securityToken, _owner, _deployedAt, msg.sender, true, uint256(0), uint256(0), 0\n        );\n    }\n\n    /**\n     * @dev This function is just for backwards compatibility\n     */\n    function modifySecurityToken(\n        string calldata /* */,\n        string calldata _ticker,\n        address _owner,\n        address _securityToken,\n        string calldata _tokenDetails,\n        uint256 _deployedAt\n    )\n        external\n    {\n        modifyExistingSecurityToken(_ticker, _owner, _securityToken, _tokenDetails, _deployedAt);\n    }\n\n    /**\n     * @notice Internal - Stores the security token details\n     */\n    function _storeSecurityTokenData(\n        address _securityToken,\n        string memory _ticker,\n        string memory _tokenDetails,\n        uint256 _deployedAt\n    ) internal {\n        set(Encoder.getKey(\"securityTokens_ticker\", _securityToken), _ticker);\n        set(Encoder.getKey(\"securityTokens_tokenDetails\", _securityToken), _tokenDetails);\n        set(Encoder.getKey(\"securityTokens_deployedAt\", _securityToken), _deployedAt);\n    }\n\n    /**\n    * @notice Checks that Security Token is registered\n    * @param _securityToken is the address of the security token\n    * @return bool\n    */\n    function isSecurityToken(address _securityToken) external view returns(bool) {\n        return (keccak256(bytes(getStringValue(Encoder.getKey(\"securityTokens_ticker\", _securityToken)))) != keccak256(\"\"));\n    }\n\n    /////////////////////////////\n    // Ownership, lifecycle & Utility\n    /////////////////////////////\n\n    /**\n    * @dev Allows the current owner to transfer control of the contract to a newOwner.\n    * @param _newOwner The address to transfer ownership to.\n    */\n    function transferOwnership(address _newOwner) public onlyOwner {\n        require(_newOwner != address(0), \"Bad address\");\n        emit OwnershipTransferred(getAddressValue(OWNER), _newOwner);\n        set(OWNER, _newOwner);\n    }\n\n    /**\n    * @notice Called by the owner to pause, triggers stopped state\n    */\n    function pause() external whenNotPaused onlyOwner {\n        set(PAUSED, true);\n        /*solium-disable-next-line security/no-block-members*/\n        emit Pause(msg.sender);\n    }\n\n    /**\n    * @notice Called by the owner to unpause, returns to normal state\n    */\n    function unpause() external whenPaused onlyOwner {\n        set(PAUSED, false);\n        /*solium-disable-next-line security/no-block-members*/\n        emit Unpause(msg.sender);\n    }\n\n    /**\n    * @notice Sets the ticker registration fee in USD tokens. Only Polymath.\n    * @param _tickerRegFee is the registration fee in USD tokens (base 18 decimals)\n    */\n    function changeTickerRegistrationFee(uint256 _tickerRegFee) public onlyOwner {\n        uint256 fee = getUintValue(TICKERREGFEE);\n        require(fee != _tickerRegFee, \"Bad fee\");\n        _changeTickerRegistrationFee(fee, _tickerRegFee);\n    }\n\n    function _changeTickerRegistrationFee(uint256 _oldFee, uint256 _newFee) internal {\n        emit ChangeTickerRegistrationFee(_oldFee, _newFee);\n        set(TICKERREGFEE, _newFee);\n    }\n\n    /**\n    * @notice Sets the ticker registration fee in USD tokens. Only Polymath.\n    * @param _stLaunchFee is the registration fee in USD tokens (base 18 decimals)\n    */\n    function changeSecurityLaunchFee(uint256 _stLaunchFee) public onlyOwner {\n        uint256 fee = getUintValue(STLAUNCHFEE);\n        require(fee != _stLaunchFee, \"Bad fee\");\n        _changeSecurityLaunchFee(fee, _stLaunchFee);\n    }\n\n    function _changeSecurityLaunchFee(uint256 _oldFee, uint256 _newFee) internal {\n        emit ChangeSecurityLaunchFee(_oldFee, _newFee);\n        set(STLAUNCHFEE, _newFee);\n    }\n\n    /**\n    * @notice Sets the ticker registration and ST launch fee amount and currency\n    * @param _tickerRegFee is the ticker registration fee (base 18 decimals)\n    * @param _stLaunchFee is the st generation fee (base 18 decimals)\n    * @param _isFeeInPoly defines if the fee is in poly or usd\n    */\n    function changeFeesAmountAndCurrency(uint256 _tickerRegFee, uint256 _stLaunchFee, bool _isFeeInPoly) public onlyOwner {\n        uint256 tickerFee = getUintValue(TICKERREGFEE);\n        uint256 stFee = getUintValue(STLAUNCHFEE);\n        bool isOldFeesInPoly = getBoolValue(IS_FEE_IN_POLY);\n        require(isOldFeesInPoly != _isFeeInPoly, \"Currency unchanged\");\n        _changeTickerRegistrationFee(tickerFee, _tickerRegFee);\n        _changeSecurityLaunchFee(stFee, _stLaunchFee);\n        emit ChangeFeeCurrency(_isFeeInPoly);\n        set(IS_FEE_IN_POLY, _isFeeInPoly);\n    }\n\n    /**\n    * @notice Reclaims all ERC20Basic compatible tokens\n    * @param _tokenContract is the address of the token contract\n    */\n    function reclaimERC20(address _tokenContract) public onlyOwner {\n        require(_tokenContract != address(0), \"Bad address\");\n        IERC20 token = IERC20(_tokenContract);\n        uint256 balance = token.balanceOf(address(this));\n        require(token.transfer(owner(), balance), \"Transfer failed\");\n    }\n\n    /**\n    * @notice Changes the SecurityToken contract for a particular factory version\n    * @notice Used only by Polymath to upgrade the SecurityToken contract and add more functionalities to future versions\n    * @notice Changing versions does not affect existing tokens.\n    * @param _STFactoryAddress is the address of the proxy.\n    * @param _major Major version of the proxy.\n    * @param _minor Minor version of the proxy.\n    * @param _patch Patch version of the proxy\n    */\n    function setProtocolFactory(address _STFactoryAddress, uint8 _major, uint8 _minor, uint8 _patch) public onlyOwner {\n        _setProtocolFactory(_STFactoryAddress, _major, _minor, _patch);\n    }\n\n    function _setProtocolFactory(address _STFactoryAddress, uint8 _major, uint8 _minor, uint8 _patch) internal {\n        require(_STFactoryAddress != address(0), \"Bad address\");\n        uint24 _packedVersion = VersionUtils.pack(_major, _minor, _patch);\n        address stFactoryAddress = getAddressValue(Encoder.getKey(\"protocolVersionST\", uint256(_packedVersion)));\n        require(stFactoryAddress == address(0), \"Already exists\");\n        set(Encoder.getKey(\"protocolVersionST\", uint256(_packedVersion)), _STFactoryAddress);\n        emit ProtocolFactorySet(_STFactoryAddress, _major, _minor, _patch);\n    }\n\n    /**\n    * @notice Removes a STFactory\n    * @param _major Major version of the proxy.\n    * @param _minor Minor version of the proxy.\n    * @param _patch Patch version of the proxy\n    */\n    function removeProtocolFactory(uint8 _major, uint8 _minor, uint8 _patch) public onlyOwner {\n        uint24 _packedVersion = VersionUtils.pack(_major, _minor, _patch);\n        require(getUintValue(LATEST_VERSION) != _packedVersion, \"Cannot remove latestVersion\");\n        emit ProtocolFactoryRemoved(getAddressValue(Encoder.getKey(\"protocolVersionST\", _packedVersion)), _major, _minor, _patch);\n        set(Encoder.getKey(\"protocolVersionST\", uint256(_packedVersion)), address(0));\n    }\n\n    /**\n    * @notice Changes the default protocol version\n    * @notice Used only by Polymath to upgrade the SecurityToken contract and add more functionalities to future versions\n    * @notice Changing versions does not affect existing tokens.\n    * @param _major Major version of the proxy.\n    * @param _minor Minor version of the proxy.\n    * @param _patch Patch version of the proxy\n    */\n    function setLatestVersion(uint8 _major, uint8 _minor, uint8 _patch) public onlyOwner {\n        _setLatestVersion(_major, _minor, _patch);\n    }\n\n    function _setLatestVersion(uint8 _major, uint8 _minor, uint8 _patch) internal {\n        uint24 _packedVersion = VersionUtils.pack(_major, _minor, _patch);\n        require(getAddressValue(Encoder.getKey(\"protocolVersionST\", _packedVersion)) != address(0), \"No factory\");\n        set(LATEST_VERSION, uint256(_packedVersion));\n        emit LatestVersionSet(_major, _minor, _patch);\n    }\n\n    /**\n     * @notice Changes the PolyToken address. Only Polymath.\n     * @param _newAddress is the address of the polytoken.\n     */\n    function updatePolyTokenAddress(address _newAddress) public onlyOwner {\n        require(_newAddress != address(0), \"Bad address\");\n        set(POLYTOKEN, _newAddress);\n    }\n\n    /**\n     * @notice Check whether the registry is paused or not\n     * @return bool\n     */\n    function isPaused() public view returns(bool) {\n        return getBoolValue(PAUSED);\n    }\n\n    /**\n     * @notice Gets the owner of the contract\n     * @return address owner\n     */\n    function owner() public view returns(address) {\n        return getAddressValue(OWNER);\n    }\n\n}\n",
  "sourcePath": "/Users/federicoelgarte/Polymath/polymath-core/contracts/SecurityTokenRegistry.sol",
  "compiler": {
    "name": "solc",
    "version": "0.5.8+commit.23d335f2.Emscripten.clang"
  },
  "schemaVersion": "3.0.2",
  "updatedAt": "2019-06-21T16:15:52.301Z",
  "devdoc": {
    "methods": {
      "changeExpiryLimit(uint256)": {
        "params": {
          "_newExpiry": "is the new expiry for newly generated tickers"
        }
      },
      "changeFeesAmountAndCurrency(uint256,uint256,bool)": {
        "params": {
          "_isFeeInPoly": "defines if the fee is in poly or usd",
          "_stLaunchFee": "is the st generation fee (base 18 decimals)",
          "_tickerRegFee": "is the ticker registration fee (base 18 decimals)"
        }
      },
      "changeSecurityLaunchFee(uint256)": {
        "params": {
          "_stLaunchFee": "is the registration fee in USD tokens (base 18 decimals)"
        }
      },
      "changeTickerRegistrationFee(uint256)": {
        "params": {
          "_tickerRegFee": "is the registration fee in USD tokens (base 18 decimals)"
        }
      },
      "generateNewSecurityToken(string,string,string,bool,address,uint256)": {
        "params": {
          "_divisible": "is whether or not the token is divisible",
          "_name": "is the name of the token",
          "_protocolVersion": "Version of securityToken contract - `_protocolVersion` is the packed value of uin8[3] array (it will be calculated offchain) - if _protocolVersion == 0 then latest version of securityToken will be generated",
          "_ticker": "is the ticker symbol of the security token",
          "_tokenDetails": "is the off-chain details of the token",
          "_treasuryWallet": "Ethereum address which will holds the STs."
        }
      },
      "generateSecurityToken(string,string,string,bool)": {
        "details": "this function is for backwards compatibilty with 2.0 dApp.",
        "params": {
          "_divisible": "is whether or not the token is divisible",
          "_name": "is the name of the token",
          "_ticker": "is the ticker symbol of the security token",
          "_tokenDetails": "is the off-chain details of the token"
        }
      },
      "getFees(bytes32)": {
        "params": {
          "_feeType": "Key corresponding to fee type"
        }
      },
      "getSecurityTokenLaunchFee()": {
        "return": "Fee amount"
      },
      "getTickerRegistrationFee()": {
        "return": "Fee amount"
      },
      "initialize(address,uint256,uint256,address,address)": {
        "params": {
          "_getterContract": "Contract address of the contract which consists getter functions.",
          "_owner": "is the owner of the STR,",
          "_polymathRegistry": "is the address of the Polymath Registry",
          "_stLaunchFee": "is the fee in USD required to launch a token",
          "_tickerRegFee": "is the fee in USD required to register a ticker"
        }
      },
      "isPaused()": {
        "return": "bool"
      },
      "isSecurityToken(address)": {
        "params": {
          "_securityToken": "is the address of the security token"
        },
        "return": "bool"
      },
      "modifyExistingSecurityToken(string,address,address,string,uint256)": {
        "params": {
          "_deployedAt": "is the timestamp at which the security token is deployed",
          "_owner": "is the owner of the token",
          "_securityToken": "is the address of the securityToken",
          "_ticker": "is the ticker symbol of the security token",
          "_tokenDetails": "is the off-chain details of the token"
        }
      },
      "modifyExistingTicker(address,string,uint256,uint256,bool)": {
        "params": {
          "_expiryDate": "is the expiry date for the ticker",
          "_owner": "is the owner of the token",
          "_registrationDate": "is the date at which ticker is registered",
          "_status": "is the token deployment status",
          "_ticker": "is the token ticker"
        }
      },
      "modifySecurityToken(string,string,address,address,string,uint256)": {
        "details": "This function is just for backwards compatibility"
      },
      "modifyTicker(address,string,string,uint256,uint256,bool)": {
        "details": "This function is just for backwards compatibility"
      },
      "owner()": {
        "return": "address owner"
      },
      "reclaimERC20(address)": {
        "params": {
          "_tokenContract": "is the address of the token contract"
        }
      },
      "refreshSecurityToken(string,string,string,bool,address)": {
        "details": "This function needs to be in STR 3.0. Defined public to avoid stack overflow",
        "params": {
          "_divisible": "is whether or not the token is divisible",
          "_name": "is the name of the token",
          "_ticker": "is the ticker symbol of the security token",
          "_tokenDetails": "is the off-chain details of the token"
        }
      },
      "registerNewTicker(address,string)": {
        "params": {
          "_owner": "is address of the owner of the token",
          "_ticker": "is unique token ticker"
        }
      },
      "registerTicker(address,string,string)": {
        "details": "This function is just for backwards compatibility"
      },
      "removeProtocolFactory(uint8,uint8,uint8)": {
        "params": {
          "_major": "Major version of the proxy.",
          "_minor": "Minor version of the proxy.",
          "_patch": "Patch version of the proxy"
        }
      },
      "removeTicker(string)": {
        "params": {
          "_ticker": "is the token ticker"
        }
      },
      "setGetterRegistry(address)": {
        "params": {
          "_getterContract": "Address of the contract"
        }
      },
      "setLatestVersion(uint8,uint8,uint8)": {
        "params": {
          "_major": "Major version of the proxy.",
          "_minor": "Minor version of the proxy.",
          "_patch": "Patch version of the proxy"
        }
      },
      "setProtocolFactory(address,uint8,uint8,uint8)": {
        "params": {
          "_STFactoryAddress": "is the address of the proxy.",
          "_major": "Major version of the proxy.",
          "_minor": "Minor version of the proxy.",
          "_patch": "Patch version of the proxy"
        }
      },
      "tickerAvailable(string)": {
        "params": {
          "_ticker": "is the token ticker"
        },
        "return": "bool"
      },
      "transferOwnership(address)": {
        "details": "Allows the current owner to transfer control of the contract to a newOwner.",
        "params": {
          "_newOwner": "The address to transfer ownership to."
        }
      },
      "transferTickerOwnership(address,string)": {
        "params": {
          "_newOwner": "is the address of the new owner of the ticker",
          "_ticker": "is the ticker symbol"
        }
      },
      "updatePolyTokenAddress(address)": {
        "params": {
          "_newAddress": "is the address of the polytoken."
        }
      }
    },
    "title": "Registry contract for issuers to register their tickers and security tokens"
  },
  "userdoc": {
    "methods": {
      "changeExpiryLimit(uint256)": {
        "notice": "Changes the expiry time for the token ticker. Only available to Polymath."
      },
      "changeFeesAmountAndCurrency(uint256,uint256,bool)": {
        "notice": "Sets the ticker registration and ST launch fee amount and currency"
      },
      "changeSecurityLaunchFee(uint256)": {
        "notice": "Sets the ticker registration fee in USD tokens. Only Polymath."
      },
      "changeTickerRegistrationFee(uint256)": {
        "notice": "Sets the ticker registration fee in USD tokens. Only Polymath."
      },
      "constructor": "//////////////////////////",
      "generateNewSecurityToken(string,string,string,bool,address,uint256)": {
        "notice": "Deploys an instance of a new Security Token and records it to the registry"
      },
      "generateSecurityToken(string,string,string,bool)": {
        "notice": "Deploys an instance of a new Security Token of version 2.0 and records it to the registry"
      },
      "getArrayAddress(bytes32)": {
        "notice": "////////////////////// getArray functions //////////////////////Get functions to get the array of the required data type Ex1- mapping(address => bytes32[]) tokensOwnedByOwner; getArrayBytes32(keccak256(abi.encodePacked(\"tokensOwnedByOwner\", 0x1)); It return the bytes32 array Ex2- uint256 _len =  tokensOwnedByOwner[0x1].length; replace with getArrayBytes32(keccak256(abi.encodePacked(\"tokensOwnedByOwner\", 0x1)).length;"
      },
      "getFees(bytes32)": {
        "notice": "Returns the usd & poly fee for a particular feetype"
      },
      "getSecurityTokenLaunchFee()": {
        "notice": "Gets the security token launch fee"
      },
      "getTickerRegistrationFee()": {
        "notice": "Gets the ticker registration fee"
      },
      "getUintValue(bytes32)": {
        "notice": "Public getters functionsGet function use to get the value of the singleton state variables Ex1- string public version = \"0.0.1\"; string _version = getString(keccak256(abi.encodePacked(\"version\")); Ex2 - assert(temp1 == temp2); replace to assert(getUint(keccak256(abi.encodePacked(temp1)) == getUint(keccak256(abi.encodePacked(temp2)); Ex3 - mapping(string => SymbolDetails) registeredSymbols; where SymbolDetails is the structure having different type of values as {uint256 date, string name, address owner} etc. string _name = getString(keccak256(abi.encodePacked(\"registeredSymbols_name\", \"TOKEN\"));"
      },
      "initialize(address,uint256,uint256,address,address)": {
        "notice": "Initializes instance of STR"
      },
      "isPaused()": {
        "notice": "Check whether the registry is paused or not"
      },
      "isSecurityToken(address)": {
        "notice": "Checks that Security Token is registered"
      },
      "modifyExistingSecurityToken(string,address,address,string,uint256)": {
        "notice": "Adds a new custom Security Token and saves it to the registry. (Token should follow the ISecurityToken interface)"
      },
      "modifyExistingTicker(address,string,uint256,uint256,bool)": {
        "notice": "Modifies the ticker details. Only Polymath has the ability to do so.Only allowed to modify the tickers which are not yet deployed."
      },
      "owner()": {
        "notice": "Gets the owner of the contract"
      },
      "pause()": {
        "notice": "Called by the owner to pause, triggers stopped state"
      },
      "reclaimERC20(address)": {
        "notice": "Reclaims all ERC20Basic compatible tokens"
      },
      "refreshSecurityToken(string,string,string,bool,address)": {
        "notice": "Deploys an instance of a new Security Token and replaces the old one in the registry This can be used to upgrade from version 2.0 of ST to 3.0 or in case something goes wrong with earlier ST"
      },
      "registerNewTicker(address,string)": {
        "notice": "Registers the token ticker to the selected ownerOnce the token ticker is registered to its owner then no other issuer can claimits ownership. If the ticker expires and its issuer hasn't used it, then someone else can take it."
      },
      "removeProtocolFactory(uint8,uint8,uint8)": {
        "notice": "Removes a STFactory"
      },
      "removeTicker(string)": {
        "notice": "Removes the ticker details, associated ownership & security token mapping"
      },
      "setGetterRegistry(address)": {
        "notice": "Set the getter contract address"
      },
      "setLatestVersion(uint8,uint8,uint8)": {
        "notice": "Changes the default protocol versionUsed only by Polymath to upgrade the SecurityToken contract and add more functionalities to future versionsChanging versions does not affect existing tokens."
      },
      "setProtocolFactory(address,uint8,uint8,uint8)": {
        "notice": "Changes the SecurityToken contract for a particular factory versionUsed only by Polymath to upgrade the SecurityToken contract and add more functionalities to future versionsChanging versions does not affect existing tokens."
      },
      "tickerAvailable(string)": {
        "notice": "Checks if the entered ticker is registered and has not expired"
      },
      "transferTickerOwnership(address,string)": {
        "notice": "Transfers the ownership of the ticker"
      },
      "unpause()": {
        "notice": "Called by the owner to unpause, returns to normal state"
      },
      "updateFromRegistry()": {
        "notice": "Used to update the polyToken contract address"
      },
      "updatePolyTokenAddress(address)": {
        "notice": "Changes the PolyToken address. Only Polymath."
      }
    }
  }
}