{
  "contractName": "SecurityToken",
  "abi": [
    {
      "constant": true,
      "inputs": [],
      "name": "name",
      "outputs": [
        {
          "name": "",
          "type": "string"
        }
      ],
      "payable": false,
      "stateMutability": "view",
      "type": "function",
      "signature": "0x06fdde03"
    },
    {
      "constant": false,
      "inputs": [
        {
          "name": "spender",
          "type": "address"
        },
        {
          "name": "value",
          "type": "uint256"
        }
      ],
      "name": "approve",
      "outputs": [
        {
          "name": "",
          "type": "bool"
        }
      ],
      "payable": false,
      "stateMutability": "nonpayable",
      "type": "function",
      "signature": "0x095ea7b3"
    },
    {
      "constant": true,
      "inputs": [],
      "name": "initialized",
      "outputs": [
        {
          "name": "",
          "type": "bool"
        }
      ],
      "payable": false,
      "stateMutability": "view",
      "type": "function",
      "signature": "0x158ef93e"
    },
    {
      "constant": true,
      "inputs": [],
      "name": "totalSupply",
      "outputs": [
        {
          "name": "",
          "type": "uint256"
        }
      ],
      "payable": false,
      "stateMutability": "view",
      "type": "function",
      "signature": "0x18160ddd"
    },
    {
      "constant": true,
      "inputs": [],
      "name": "holderCount",
      "outputs": [
        {
          "name": "",
          "type": "uint256"
        }
      ],
      "payable": false,
      "stateMutability": "view",
      "type": "function",
      "signature": "0x1aab9a9f"
    },
    {
      "constant": true,
      "inputs": [],
      "name": "getterDelegate",
      "outputs": [
        {
          "name": "",
          "type": "address"
        }
      ],
      "payable": false,
      "stateMutability": "view",
      "type": "function",
      "signature": "0x2fb3b99d"
    },
    {
      "constant": true,
      "inputs": [],
      "name": "decimals",
      "outputs": [
        {
          "name": "",
          "type": "uint8"
        }
      ],
      "payable": false,
      "stateMutability": "view",
      "type": "function",
      "signature": "0x313ce567"
    },
    {
      "constant": false,
      "inputs": [
        {
          "name": "spender",
          "type": "address"
        },
        {
          "name": "addedValue",
          "type": "uint256"
        }
      ],
      "name": "increaseAllowance",
      "outputs": [
        {
          "name": "",
          "type": "bool"
        }
      ],
      "payable": false,
      "stateMutability": "nonpayable",
      "type": "function",
      "signature": "0x39509351"
    },
    {
      "constant": true,
      "inputs": [],
      "name": "currentCheckpointId",
      "outputs": [
        {
          "name": "",
          "type": "uint256"
        }
      ],
      "payable": false,
      "stateMutability": "view",
      "type": "function",
      "signature": "0x5488cc80"
    },
    {
      "constant": true,
      "inputs": [],
      "name": "granularity",
      "outputs": [
        {
          "name": "",
          "type": "uint256"
        }
      ],
      "payable": false,
      "stateMutability": "view",
      "type": "function",
      "signature": "0x556f0dc7"
    },
    {
      "constant": true,
      "inputs": [],
      "name": "dataStore",
      "outputs": [
        {
          "name": "",
          "type": "address"
        }
      ],
      "payable": false,
      "stateMutability": "view",
      "type": "function",
      "signature": "0x660d0d67"
    },
    {
      "constant": true,
      "inputs": [],
      "name": "polyToken",
      "outputs": [
        {
          "name": "",
          "type": "address"
        }
      ],
      "payable": false,
      "stateMutability": "view",
      "type": "function",
      "signature": "0x6faa22a5"
    },
    {
      "constant": true,
      "inputs": [
        {
          "name": "owner",
          "type": "address"
        }
      ],
      "name": "balanceOf",
      "outputs": [
        {
          "name": "",
          "type": "uint256"
        }
      ],
      "payable": false,
      "stateMutability": "view",
      "type": "function",
      "signature": "0x70a08231"
    },
    {
      "constant": true,
      "inputs": [],
      "name": "polymathRegistry",
      "outputs": [
        {
          "name": "",
          "type": "address"
        }
      ],
      "payable": false,
      "stateMutability": "view",
      "type": "function",
      "signature": "0x77282b70"
    },
    {
      "constant": true,
      "inputs": [],
      "name": "controllerDisabled",
      "outputs": [
        {
          "name": "",
          "type": "bool"
        }
      ],
      "payable": false,
      "stateMutability": "view",
      "type": "function",
      "signature": "0x7a802c71"
    },
    {
      "constant": true,
      "inputs": [],
      "name": "symbol",
      "outputs": [
        {
          "name": "",
          "type": "string"
        }
      ],
      "payable": false,
      "stateMutability": "view",
      "type": "function",
      "signature": "0x95d89b41"
    },
    {
      "constant": false,
      "inputs": [
        {
          "name": "spender",
          "type": "address"
        },
        {
          "name": "subtractedValue",
          "type": "uint256"
        }
      ],
      "name": "decreaseAllowance",
      "outputs": [
        {
          "name": "",
          "type": "bool"
        }
      ],
      "payable": false,
      "stateMutability": "nonpayable",
      "type": "function",
      "signature": "0xa457c2d7"
    },
    {
      "constant": true,
      "inputs": [],
      "name": "moduleRegistry",
      "outputs": [
        {
          "name": "",
          "type": "address"
        }
      ],
      "payable": false,
      "stateMutability": "view",
      "type": "function",
      "signature": "0xb95459e4"
    },
    {
      "constant": true,
      "inputs": [],
      "name": "securityTokenRegistry",
      "outputs": [
        {
          "name": "",
          "type": "address"
        }
      ],
      "payable": false,
      "stateMutability": "view",
      "type": "function",
      "signature": "0xce4dbdff"
    },
    {
      "constant": true,
      "inputs": [],
      "name": "tokenDetails",
      "outputs": [
        {
          "name": "",
          "type": "string"
        }
      ],
      "payable": false,
      "stateMutability": "view",
      "type": "function",
      "signature": "0xd6abe110"
    },
    {
      "constant": true,
      "inputs": [
        {
          "name": "owner",
          "type": "address"
        },
        {
          "name": "spender",
          "type": "address"
        }
      ],
      "name": "allowance",
      "outputs": [
        {
          "name": "",
          "type": "uint256"
        }
      ],
      "payable": false,
      "stateMutability": "view",
      "type": "function",
      "signature": "0xdd62ed3e"
    },
    {
      "constant": true,
      "inputs": [],
      "name": "transfersFrozen",
      "outputs": [
        {
          "name": "",
          "type": "bool"
        }
      ],
      "payable": false,
      "stateMutability": "view",
      "type": "function",
      "signature": "0xe45b8134"
    },
    {
      "constant": true,
      "inputs": [],
      "name": "tokenFactory",
      "outputs": [
        {
          "name": "",
          "type": "address"
        }
      ],
      "payable": false,
      "stateMutability": "view",
      "type": "function",
      "signature": "0xe77772fe"
    },
    {
      "constant": true,
      "inputs": [],
      "name": "controller",
      "outputs": [
        {
          "name": "",
          "type": "address"
        }
      ],
      "payable": false,
      "stateMutability": "view",
      "type": "function",
      "signature": "0xf77c4791"
    },
    {
      "inputs": [],
      "payable": false,
      "stateMutability": "nonpayable",
      "type": "constructor",
      "signature": "constructor"
    },
    {
      "payable": true,
      "stateMutability": "payable",
      "type": "fallback"
    },
    {
      "anonymous": false,
      "inputs": [
        {
          "indexed": false,
          "name": "_types",
          "type": "uint8[]"
        },
        {
          "indexed": true,
          "name": "_name",
          "type": "bytes32"
        },
        {
          "indexed": true,
          "name": "_moduleFactory",
          "type": "address"
        },
        {
          "indexed": false,
          "name": "_module",
          "type": "address"
        },
        {
          "indexed": false,
          "name": "_moduleCost",
          "type": "uint256"
        },
        {
          "indexed": false,
          "name": "_budget",
          "type": "uint256"
        },
        {
          "indexed": false,
          "name": "_label",
          "type": "bytes32"
        },
        {
          "indexed": false,
          "name": "_archived",
          "type": "bool"
        }
      ],
      "name": "ModuleAdded",
      "type": "event",
      "signature": "0xfa9cc8faf0fe9bebcaababb6b67c5a679d4fdec88527e4ca823ee0f91e9c0928"
    },
    {
      "anonymous": false,
      "inputs": [
        {
          "indexed": false,
          "name": "_types",
          "type": "uint8[]"
        },
        {
          "indexed": false,
          "name": "_module",
          "type": "address"
        }
      ],
      "name": "ModuleUpgraded",
      "type": "event",
      "signature": "0xedc6007cc44783a48ceb845386592c8d22e6e21f3acd887104ba49340ae8cc5d"
    },
    {
      "anonymous": false,
      "inputs": [
        {
          "indexed": false,
          "name": "_oldDetails",
          "type": "string"
        },
        {
          "indexed": false,
          "name": "_newDetails",
          "type": "string"
        }
      ],
      "name": "UpdateTokenDetails",
      "type": "event",
      "signature": "0x4f5dc3feea8c186b1481cfe57c28df8871a61e3be16f7d65c60504cfd6344067"
    },
    {
      "anonymous": false,
      "inputs": [
        {
          "indexed": false,
          "name": "_oldName",
          "type": "string"
        },
        {
          "indexed": false,
          "name": "_newName",
          "type": "string"
        }
      ],
      "name": "UpdateTokenName",
      "type": "event",
      "signature": "0x99b81fd13cfa16f6b748b388ac4e3059f0d9e1166c6c99b07ff0f4aa308ca43c"
    },
    {
      "anonymous": false,
      "inputs": [
        {
          "indexed": false,
          "name": "_oldGranularity",
          "type": "uint256"
        },
        {
          "indexed": false,
          "name": "_newGranularity",
          "type": "uint256"
        }
      ],
      "name": "GranularityChanged",
      "type": "event",
      "signature": "0x7728e5c461dd94b32a33e149f4ef6b674a7eff704cac77b26937eaced90f0038"
    },
    {
      "anonymous": false,
      "inputs": [],
      "name": "FreezeIssuance",
      "type": "event",
      "signature": "0x9ea7d0a14bc31ddf4821c86966910e35bd82b51f74bde7d3704498e0fb92e1f1"
    },
    {
      "anonymous": false,
      "inputs": [
        {
          "indexed": false,
          "name": "_status",
          "type": "bool"
        }
      ],
      "name": "FreezeTransfers",
      "type": "event",
      "signature": "0xac199452244e92d1343195dfad0a5347b229c861e3a8f2fbf08ab519b1d55bc9"
    },
    {
      "anonymous": false,
      "inputs": [
        {
          "indexed": true,
          "name": "_checkpointId",
          "type": "uint256"
        },
        {
          "indexed": false,
          "name": "_investorLength",
          "type": "uint256"
        }
      ],
      "name": "CheckpointCreated",
      "type": "event",
      "signature": "0x624ea167e477f9d39f7f4094b9dfe2e6346eb4a7aada54338db51abd554c4b9f"
    },
    {
      "anonymous": false,
      "inputs": [
        {
          "indexed": true,
          "name": "_oldController",
          "type": "address"
        },
        {
          "indexed": true,
          "name": "_newController",
          "type": "address"
        }
      ],
      "name": "SetController",
      "type": "event",
      "signature": "0x9fdb07212c6f92fd298affc4000712177664bc3c4cae5f61098d42da6d05be1e"
    },
    {
      "anonymous": false,
      "inputs": [
        {
          "indexed": false,
          "name": "_oldTreasuryWallet",
          "type": "address"
        },
        {
          "indexed": false,
          "name": "_newTreasuryWallet",
          "type": "address"
        }
      ],
      "name": "TreasuryWalletChanged",
      "type": "event",
      "signature": "0x419d718138b0b65d09976f881eed8b8d7075d4b6092f74af0a0ec9b3417cdd12"
    },
    {
      "anonymous": false,
      "inputs": [],
      "name": "DisableController",
      "type": "event",
      "signature": "0xf7ec83c37617f91085fc1725f4839e41a03238811eaebd2dbc4a405354cc958e"
    },
    {
      "anonymous": false,
      "inputs": [
        {
          "indexed": true,
          "name": "previousOwner",
          "type": "address"
        },
        {
          "indexed": true,
          "name": "newOwner",
          "type": "address"
        }
      ],
      "name": "OwnershipTransferred",
      "type": "event",
      "signature": "0x8be0079c531659141344cd1fd0a4f28419497f9722a3daafe3b4186f6b6457e0"
    },
    {
      "anonymous": false,
      "inputs": [
        {
          "indexed": false,
          "name": "_major",
          "type": "uint8"
        },
        {
          "indexed": false,
          "name": "_minor",
          "type": "uint8"
        },
        {
          "indexed": false,
          "name": "_patch",
          "type": "uint8"
        }
      ],
      "name": "TokenUpgraded",
      "type": "event",
      "signature": "0x23af9b477abf9645be8a074be19ae4a47e11abc43bd1aa47b16de7eb85609302"
    },
    {
      "anonymous": false,
      "inputs": [
        {
          "indexed": false,
          "name": "_types",
          "type": "uint8[]"
        },
        {
          "indexed": false,
          "name": "_module",
          "type": "address"
        }
      ],
      "name": "ModuleArchived",
      "type": "event",
      "signature": "0x78914da53c30c0667830d562877caed5c20adc645b8557fa64336c22a9b8ece6"
    },
    {
      "anonymous": false,
      "inputs": [
        {
          "indexed": false,
          "name": "_types",
          "type": "uint8[]"
        },
        {
          "indexed": false,
          "name": "_module",
          "type": "address"
        }
      ],
      "name": "ModuleUnarchived",
      "type": "event",
      "signature": "0xe69e438aa3b4b943ac4c807820403a6e5815b8fbb7fccfac629fce87ff6d430d"
    },
    {
      "anonymous": false,
      "inputs": [
        {
          "indexed": false,
          "name": "_types",
          "type": "uint8[]"
        },
        {
          "indexed": false,
          "name": "_module",
          "type": "address"
        }
      ],
      "name": "ModuleRemoved",
      "type": "event",
      "signature": "0xf4e9f735975718dce0ac83fb73f88a1b19a48186af0f6348c04c6229eb4b86a0"
    },
    {
      "anonymous": false,
      "inputs": [
        {
          "indexed": false,
          "name": "_moduleTypes",
          "type": "uint8[]"
        },
        {
          "indexed": false,
          "name": "_module",
          "type": "address"
        },
        {
          "indexed": false,
          "name": "_oldBudget",
          "type": "uint256"
        },
        {
          "indexed": false,
          "name": "_budget",
          "type": "uint256"
        }
      ],
      "name": "ModuleBudgetChanged",
      "type": "event",
      "signature": "0xa00a1c33ebb7433724919cb1059328c16265f935ef84a13442045da3e81c0ccc"
    },
    {
      "anonymous": false,
      "inputs": [
        {
          "indexed": true,
          "name": "_fromPartition",
          "type": "bytes32"
        },
        {
          "indexed": false,
          "name": "_operator",
          "type": "address"
        },
        {
          "indexed": true,
          "name": "_from",
          "type": "address"
        },
        {
          "indexed": true,
          "name": "_to",
          "type": "address"
        },
        {
          "indexed": false,
          "name": "_value",
          "type": "uint256"
        },
        {
          "indexed": false,
          "name": "_data",
          "type": "bytes"
        },
        {
          "indexed": false,
          "name": "_operatorData",
          "type": "bytes"
        }
      ],
      "name": "TransferByPartition",
      "type": "event",
      "signature": "0xff4e9a26af4eb73b8bacfaa4abd4fea03d9448e7b912dc5ff4019048875aa2d4"
    },
    {
      "anonymous": false,
      "inputs": [
        {
          "indexed": true,
          "name": "operator",
          "type": "address"
        },
        {
          "indexed": true,
          "name": "tokenHolder",
          "type": "address"
        }
      ],
      "name": "AuthorizedOperator",
      "type": "event",
      "signature": "0xf4caeb2d6ca8932a215a353d0703c326ec2d81fc68170f320eb2ab49e9df61f9"
    },
    {
      "anonymous": false,
      "inputs": [
        {
          "indexed": true,
          "name": "operator",
          "type": "address"
        },
        {
          "indexed": true,
          "name": "tokenHolder",
          "type": "address"
        }
      ],
      "name": "RevokedOperator",
      "type": "event",
      "signature": "0x50546e66e5f44d728365dc3908c63bc5cfeeab470722c1677e3073a6ac294aa1"
    },
    {
      "anonymous": false,
      "inputs": [
        {
          "indexed": true,
          "name": "partition",
          "type": "bytes32"
        },
        {
          "indexed": true,
          "name": "operator",
          "type": "address"
        },
        {
          "indexed": true,
          "name": "tokenHolder",
          "type": "address"
        }
      ],
      "name": "AuthorizedOperatorByPartition",
      "type": "event",
      "signature": "0x3646a897c70797ecc134b0adc32f471b07bf1d6f451133b0384badab531e3fd6"
    },
    {
      "anonymous": false,
      "inputs": [
        {
          "indexed": true,
          "name": "partition",
          "type": "bytes32"
        },
        {
          "indexed": true,
          "name": "operator",
          "type": "address"
        },
        {
          "indexed": true,
          "name": "tokenHolder",
          "type": "address"
        }
      ],
      "name": "RevokedOperatorByPartition",
      "type": "event",
      "signature": "0x3b287c4f1bab4df949b33bceacef984f544dc5d5479930d00e4ee8c9d8dd96f2"
    },
    {
      "anonymous": false,
      "inputs": [
        {
          "indexed": true,
          "name": "partition",
          "type": "bytes32"
        },
        {
          "indexed": true,
          "name": "to",
          "type": "address"
        },
        {
          "indexed": false,
          "name": "value",
          "type": "uint256"
        },
        {
          "indexed": false,
          "name": "data",
          "type": "bytes"
        }
      ],
      "name": "IssuedByPartition",
      "type": "event",
      "signature": "0x6032e2468b0f94dfa63c61d6c8a84842a99c049263eae408a52b945020b6578d"
    },
    {
      "anonymous": false,
      "inputs": [
        {
          "indexed": true,
          "name": "partition",
          "type": "bytes32"
        },
        {
          "indexed": true,
          "name": "operator",
          "type": "address"
        },
        {
          "indexed": true,
          "name": "from",
          "type": "address"
        },
        {
          "indexed": false,
          "name": "value",
          "type": "uint256"
        },
        {
          "indexed": false,
          "name": "data",
          "type": "bytes"
        },
        {
          "indexed": false,
          "name": "operatorData",
          "type": "bytes"
        }
      ],
      "name": "RedeemedByPartition",
      "type": "event",
      "signature": "0xa4f62471c9bdf88115b97203943c74c59b655913ee5ee592706d84ef53fb6be2"
    },
    {
      "anonymous": false,
      "inputs": [
        {
          "indexed": false,
          "name": "_controller",
          "type": "address"
        },
        {
          "indexed": true,
          "name": "_from",
          "type": "address"
        },
        {
          "indexed": true,
          "name": "_to",
          "type": "address"
        },
        {
          "indexed": false,
          "name": "_value",
          "type": "uint256"
        },
        {
          "indexed": false,
          "name": "_data",
          "type": "bytes"
        },
        {
          "indexed": false,
          "name": "_operatorData",
          "type": "bytes"
        }
      ],
      "name": "ControllerTransfer",
      "type": "event",
      "signature": "0x6bf62b4b9c7b768275122bf70d429efc398a056d669b1efdf6c3976346246d7d"
    },
    {
      "anonymous": false,
      "inputs": [
        {
          "indexed": false,
          "name": "_controller",
          "type": "address"
        },
        {
          "indexed": true,
          "name": "_tokenHolder",
          "type": "address"
        },
        {
          "indexed": false,
          "name": "_value",
          "type": "uint256"
        },
        {
          "indexed": false,
          "name": "_data",
          "type": "bytes"
        },
        {
          "indexed": false,
          "name": "_operatorData",
          "type": "bytes"
        }
      ],
      "name": "ControllerRedemption",
      "type": "event",
      "signature": "0x876b7cb47aa150b3a5516188b19ed308752ad4d0ae9a702543353b78163f7589"
    },
    {
      "anonymous": false,
      "inputs": [
        {
          "indexed": true,
          "name": "_name",
          "type": "bytes32"
        },
        {
          "indexed": false,
          "name": "_uri",
          "type": "string"
        },
        {
          "indexed": false,
          "name": "_documentHash",
          "type": "bytes32"
        }
      ],
      "name": "DocumentRemoved",
      "type": "event",
      "signature": "0x3d9bba27d3e360d8c80645beed7e991454a8271bf6f269a24f7782be0f0d0654"
    },
    {
      "anonymous": false,
      "inputs": [
        {
          "indexed": true,
          "name": "_name",
          "type": "bytes32"
        },
        {
          "indexed": false,
          "name": "_uri",
          "type": "string"
        },
        {
          "indexed": false,
          "name": "_documentHash",
          "type": "bytes32"
        }
      ],
      "name": "DocumentUpdated",
      "type": "event",
      "signature": "0xb4c22d60cd550a815744f04e3ff5278bf19684565ee00e2b084041b6024bd6f6"
    },
    {
      "anonymous": false,
      "inputs": [
        {
          "indexed": true,
          "name": "_operator",
          "type": "address"
        },
        {
          "indexed": true,
          "name": "_to",
          "type": "address"
        },
        {
          "indexed": false,
          "name": "_value",
          "type": "uint256"
        },
        {
          "indexed": false,
          "name": "_data",
          "type": "bytes"
        }
      ],
      "name": "Issued",
      "type": "event",
      "signature": "0x0e9905d62635f049c2f4e11678ebf9dc3d1f8c4a653e290759b772e47ba00d00"
    },
    {
      "anonymous": false,
      "inputs": [
        {
          "indexed": true,
          "name": "_operator",
          "type": "address"
        },
        {
          "indexed": true,
          "name": "_from",
          "type": "address"
        },
        {
          "indexed": false,
          "name": "_value",
          "type": "uint256"
        },
        {
          "indexed": false,
          "name": "_data",
          "type": "bytes"
        }
      ],
      "name": "Redeemed",
      "type": "event",
      "signature": "0xb7d0d6b60740753e9f16692a2f479472a1385aec2420fa43225b02f2ffa1afe7"
    },
    {
      "anonymous": false,
      "inputs": [
        {
          "indexed": true,
          "name": "from",
          "type": "address"
        },
        {
          "indexed": true,
          "name": "to",
          "type": "address"
        },
        {
          "indexed": false,
          "name": "value",
          "type": "uint256"
        }
      ],
      "name": "Transfer",
      "type": "event",
      "signature": "0xddf252ad1be2c89b69c2b068fc378daa952ba7f163c4a11628f55a4df523b3ef"
    },
    {
      "anonymous": false,
      "inputs": [
        {
          "indexed": true,
          "name": "owner",
          "type": "address"
        },
        {
          "indexed": true,
          "name": "spender",
          "type": "address"
        },
        {
          "indexed": false,
          "name": "value",
          "type": "uint256"
        }
      ],
      "name": "Approval",
      "type": "event",
      "signature": "0x8c5be1e5ebec7d5bd14f71427d1e84f3dd0314c0f7b2291e5b200ac8c7c3b925"
    },
    {
      "constant": false,
      "inputs": [
        {
          "name": "_getterDelegate",
          "type": "address"
        }
      ],
      "name": "initialize",
      "outputs": [],
      "payable": false,
      "stateMutability": "nonpayable",
      "type": "function",
      "signature": "0xc4d66de8"
    },
    {
      "constant": true,
      "inputs": [
        {
          "name": "_module",
          "type": "address"
        },
        {
          "name": "_type",
          "type": "uint8"
        }
      ],
      "name": "isModule",
      "outputs": [
        {
          "name": "",
          "type": "bool"
        }
      ],
      "payable": false,
      "stateMutability": "view",
      "type": "function",
      "signature": "0x52cfe563"
    },
    {
      "constant": false,
      "inputs": [
        {
          "name": "_moduleFactory",
          "type": "address"
        },
        {
          "name": "_data",
          "type": "bytes"
        },
        {
          "name": "_maxCost",
          "type": "uint256"
        },
        {
          "name": "_budget",
          "type": "uint256"
        },
        {
          "name": "_label",
          "type": "bytes32"
        },
        {
          "name": "_archived",
          "type": "bool"
        }
      ],
      "name": "addModuleWithLabel",
      "outputs": [],
      "payable": false,
      "stateMutability": "nonpayable",
      "type": "function",
      "signature": "0x1e6f20f8"
    },
    {
      "constant": false,
      "inputs": [
        {
          "name": "_moduleFactory",
          "type": "address"
        },
        {
          "name": "_data",
          "type": "bytes"
        },
        {
          "name": "_maxCost",
          "type": "uint256"
        },
        {
          "name": "_budget",
          "type": "uint256"
        },
        {
          "name": "_archived",
          "type": "bool"
        }
      ],
      "name": "addModule",
      "outputs": [],
      "payable": false,
      "stateMutability": "nonpayable",
      "type": "function",
      "signature": "0xa9f86e2c"
    },
    {
      "constant": false,
      "inputs": [
        {
          "name": "_module",
          "type": "address"
        }
      ],
      "name": "archiveModule",
      "outputs": [],
      "payable": false,
      "stateMutability": "nonpayable",
      "type": "function",
      "signature": "0x3576857e"
    },
    {
      "constant": false,
      "inputs": [
        {
          "name": "_module",
          "type": "address"
        }
      ],
      "name": "upgradeModule",
      "outputs": [],
      "payable": false,
      "stateMutability": "nonpayable",
      "type": "function",
      "signature": "0xa16c3a09"
    },
    {
      "constant": false,
      "inputs": [],
      "name": "upgradeToken",
      "outputs": [],
      "payable": false,
      "stateMutability": "nonpayable",
      "type": "function",
      "signature": "0x0c912555"
    },
    {
      "constant": false,
      "inputs": [
        {
          "name": "_module",
          "type": "address"
        }
      ],
      "name": "unarchiveModule",
      "outputs": [],
      "payable": false,
      "stateMutability": "nonpayable",
      "type": "function",
      "signature": "0x12ef7fe2"
    },
    {
      "constant": false,
      "inputs": [
        {
          "name": "_module",
          "type": "address"
        }
      ],
      "name": "removeModule",
      "outputs": [],
      "payable": false,
      "stateMutability": "nonpayable",
      "type": "function",
      "signature": "0xa0632461"
    },
    {
      "constant": false,
      "inputs": [
        {
          "name": "_tokenContract",
          "type": "address"
        },
        {
          "name": "_value",
          "type": "uint256"
        }
      ],
      "name": "withdrawERC20",
      "outputs": [],
      "payable": false,
      "stateMutability": "nonpayable",
      "type": "function",
      "signature": "0xa1db9782"
    },
    {
      "constant": false,
      "inputs": [
        {
          "name": "_module",
          "type": "address"
        },
        {
          "name": "_change",
          "type": "uint256"
        },
        {
          "name": "_increase",
          "type": "bool"
        }
      ],
      "name": "changeModuleBudget",
      "outputs": [],
      "payable": false,
      "stateMutability": "nonpayable",
      "type": "function",
      "signature": "0x62b348c3"
    },
    {
      "constant": false,
      "inputs": [
        {
          "name": "_newTokenDetails",
          "type": "string"
        }
      ],
      "name": "updateTokenDetails",
      "outputs": [],
      "payable": false,
      "stateMutability": "nonpayable",
      "type": "function",
      "signature": "0x73826a93"
    },
    {
      "constant": false,
      "inputs": [
        {
          "name": "_granularity",
          "type": "uint256"
        }
      ],
      "name": "changeGranularity",
      "outputs": [],
      "payable": false,
      "stateMutability": "nonpayable",
      "type": "function",
      "signature": "0x210a8d0e"
    },
    {
      "constant": false,
      "inputs": [
        {
          "name": "_dataStore",
          "type": "address"
        }
      ],
      "name": "changeDataStore",
      "outputs": [],
      "payable": false,
      "stateMutability": "nonpayable",
      "type": "function",
      "signature": "0x942df325"
    },
    {
      "constant": false,
      "inputs": [
        {
          "name": "_name",
          "type": "string"
        }
      ],
      "name": "changeName",
      "outputs": [],
      "payable": false,
      "stateMutability": "nonpayable",
      "type": "function",
      "signature": "0x5353a2d8"
    },
    {
      "constant": false,
      "inputs": [
        {
          "name": "_wallet",
          "type": "address"
        }
      ],
      "name": "changeTreasuryWallet",
      "outputs": [],
      "payable": false,
      "stateMutability": "nonpayable",
      "type": "function",
      "signature": "0x537c1ac7"
    },
    {
      "constant": false,
      "inputs": [],
      "name": "freezeTransfers",
      "outputs": [],
      "payable": false,
      "stateMutability": "nonpayable",
      "type": "function",
      "signature": "0x01502460"
    },
    {
      "constant": false,
      "inputs": [],
      "name": "unfreezeTransfers",
      "outputs": [],
      "payable": false,
      "stateMutability": "nonpayable",
      "type": "function",
      "signature": "0x31c420d4"
    },
    {
      "constant": false,
      "inputs": [
        {
          "name": "_to",
          "type": "address"
        },
        {
          "name": "_value",
          "type": "uint256"
        }
      ],
      "name": "transfer",
      "outputs": [
        {
          "name": "success",
          "type": "bool"
        }
      ],
      "payable": false,
      "stateMutability": "nonpayable",
      "type": "function",
      "signature": "0xa9059cbb"
    },
    {
      "constant": false,
      "inputs": [
        {
          "name": "_to",
          "type": "address"
        },
        {
          "name": "_value",
          "type": "uint256"
        },
        {
          "name": "_data",
          "type": "bytes"
        }
      ],
      "name": "transferWithData",
      "outputs": [],
      "payable": false,
      "stateMutability": "nonpayable",
      "type": "function",
      "signature": "0x2535f762"
    },
    {
      "constant": false,
      "inputs": [
        {
          "name": "_from",
          "type": "address"
        },
        {
          "name": "_to",
          "type": "address"
        },
        {
          "name": "_value",
          "type": "uint256"
        }
      ],
      "name": "transferFrom",
      "outputs": [
        {
          "name": "",
          "type": "bool"
        }
      ],
      "payable": false,
      "stateMutability": "nonpayable",
      "type": "function",
      "signature": "0x23b872dd"
    },
    {
      "constant": false,
      "inputs": [
        {
          "name": "_from",
          "type": "address"
        },
        {
          "name": "_to",
          "type": "address"
        },
        {
          "name": "_value",
          "type": "uint256"
        },
        {
          "name": "_data",
          "type": "bytes"
        }
      ],
      "name": "transferFromWithData",
      "outputs": [],
      "payable": false,
      "stateMutability": "nonpayable",
      "type": "function",
      "signature": "0xee532f31"
    },
    {
      "constant": true,
      "inputs": [
        {
          "name": "_partition",
          "type": "bytes32"
        },
        {
          "name": "_tokenHolder",
          "type": "address"
        }
      ],
      "name": "balanceOfByPartition",
      "outputs": [
        {
          "name": "",
          "type": "uint256"
        }
      ],
      "payable": false,
      "stateMutability": "view",
      "type": "function",
      "signature": "0x30e82803"
    },
    {
      "constant": false,
      "inputs": [
        {
          "name": "_partition",
          "type": "bytes32"
        },
        {
          "name": "_to",
          "type": "address"
        },
        {
          "name": "_value",
          "type": "uint256"
        },
        {
          "name": "_data",
          "type": "bytes"
        }
      ],
      "name": "transferByPartition",
      "outputs": [
        {
          "name": "",
          "type": "bytes32"
        }
      ],
      "payable": false,
      "stateMutability": "nonpayable",
      "type": "function",
      "signature": "0xf3d490db"
    },
    {
      "constant": false,
      "inputs": [
        {
          "name": "_operator",
          "type": "address"
        }
      ],
      "name": "authorizeOperator",
      "outputs": [],
      "payable": false,
      "stateMutability": "nonpayable",
      "type": "function",
      "signature": "0x959b8c3f"
    },
    {
      "constant": false,
      "inputs": [
        {
          "name": "_operator",
          "type": "address"
        }
      ],
      "name": "revokeOperator",
      "outputs": [],
      "payable": false,
      "stateMutability": "nonpayable",
      "type": "function",
      "signature": "0xfad8b32a"
    },
    {
      "constant": false,
      "inputs": [
        {
          "name": "_partition",
          "type": "bytes32"
        },
        {
          "name": "_operator",
          "type": "address"
        }
      ],
      "name": "authorizeOperatorByPartition",
      "outputs": [],
      "payable": false,
      "stateMutability": "nonpayable",
      "type": "function",
      "signature": "0x103ef9e1"
    },
    {
      "constant": false,
      "inputs": [
        {
          "name": "_partition",
          "type": "bytes32"
        },
        {
          "name": "_operator",
          "type": "address"
        }
      ],
      "name": "revokeOperatorByPartition",
      "outputs": [],
      "payable": false,
      "stateMutability": "nonpayable",
      "type": "function",
      "signature": "0x168ecec5"
    },
    {
      "constant": false,
      "inputs": [
        {
          "name": "_partition",
          "type": "bytes32"
        },
        {
          "name": "_from",
          "type": "address"
        },
        {
          "name": "_to",
          "type": "address"
        },
        {
          "name": "_value",
          "type": "uint256"
        },
        {
          "name": "_data",
          "type": "bytes"
        },
        {
          "name": "_operatorData",
          "type": "bytes"
        }
      ],
      "name": "operatorTransferByPartition",
      "outputs": [
        {
          "name": "",
          "type": "bytes32"
        }
      ],
      "payable": false,
      "stateMutability": "nonpayable",
      "type": "function",
      "signature": "0x8c0dee9c"
    },
    {
      "constant": false,
      "inputs": [
        {
          "name": "_signature",
          "type": "bytes"
        }
      ],
      "name": "freezeIssuance",
      "outputs": [],
      "payable": false,
      "stateMutability": "nonpayable",
      "type": "function",
      "signature": "0xdc722e3a"
    },
    {
      "constant": false,
      "inputs": [
        {
          "name": "_tokenHolder",
          "type": "address"
        },
        {
          "name": "_value",
          "type": "uint256"
        },
        {
          "name": "_data",
          "type": "bytes"
        }
      ],
      "name": "issue",
      "outputs": [],
      "payable": false,
      "stateMutability": "nonpayable",
      "type": "function",
      "signature": "0xbb3acde9"
    },
    {
      "constant": false,
      "inputs": [
        {
          "name": "_tokenHolders",
          "type": "address[]"
        },
        {
          "name": "_values",
          "type": "uint256[]"
        }
      ],
      "name": "issueMulti",
      "outputs": [],
      "payable": false,
      "stateMutability": "nonpayable",
      "type": "function",
      "signature": "0x74c96372"
    },
    {
      "constant": false,
      "inputs": [
        {
          "name": "_partition",
          "type": "bytes32"
        },
        {
          "name": "_tokenHolder",
          "type": "address"
        },
        {
          "name": "_value",
          "type": "uint256"
        },
        {
          "name": "_data",
          "type": "bytes"
        }
      ],
      "name": "issueByPartition",
      "outputs": [],
      "payable": false,
      "stateMutability": "nonpayable",
      "type": "function",
      "signature": "0x67c84919"
    },
    {
      "constant": false,
      "inputs": [
        {
          "name": "_value",
          "type": "uint256"
        },
        {
          "name": "_data",
          "type": "bytes"
        }
      ],
      "name": "redeem",
      "outputs": [],
      "payable": false,
      "stateMutability": "nonpayable",
      "type": "function",
      "signature": "0xe77c646d"
    },
    {
      "constant": false,
      "inputs": [
        {
          "name": "_partition",
          "type": "bytes32"
        },
        {
          "name": "_value",
          "type": "uint256"
        },
        {
          "name": "_data",
          "type": "bytes"
        }
      ],
      "name": "redeemByPartition",
      "outputs": [],
      "payable": false,
      "stateMutability": "nonpayable",
      "type": "function",
      "signature": "0x62eb0068"
    },
    {
      "constant": false,
      "inputs": [
        {
          "name": "_partition",
          "type": "bytes32"
        },
        {
          "name": "_tokenHolder",
          "type": "address"
        },
        {
          "name": "_value",
          "type": "uint256"
        },
        {
          "name": "_data",
          "type": "bytes"
        },
        {
          "name": "_operatorData",
          "type": "bytes"
        }
      ],
      "name": "operatorRedeemByPartition",
      "outputs": [],
      "payable": false,
      "stateMutability": "nonpayable",
      "type": "function",
      "signature": "0x13d557bc"
    },
    {
      "constant": false,
      "inputs": [
        {
          "name": "_tokenHolder",
          "type": "address"
        },
        {
          "name": "_value",
          "type": "uint256"
        },
        {
          "name": "_data",
          "type": "bytes"
        }
      ],
      "name": "redeemFrom",
      "outputs": [],
      "payable": false,
      "stateMutability": "nonpayable",
      "type": "function",
      "signature": "0x9675193c"
    },
    {
      "constant": false,
      "inputs": [],
      "name": "createCheckpoint",
      "outputs": [
        {
          "name": "",
          "type": "uint256"
        }
      ],
      "payable": false,
      "stateMutability": "nonpayable",
      "type": "function",
      "signature": "0xff0b9c90"
    },
    {
      "constant": false,
      "inputs": [
        {
          "name": "_controller",
          "type": "address"
        }
      ],
      "name": "setController",
      "outputs": [],
      "payable": false,
      "stateMutability": "nonpayable",
      "type": "function",
      "signature": "0x92eefe9b"
    },
    {
      "constant": false,
      "inputs": [
        {
          "name": "_signature",
          "type": "bytes"
        }
      ],
      "name": "disableController",
      "outputs": [],
      "payable": false,
      "stateMutability": "nonpayable",
      "type": "function",
      "signature": "0x74fee0c0"
    },
    {
      "constant": true,
      "inputs": [
        {
          "name": "_to",
          "type": "address"
        },
        {
          "name": "_value",
          "type": "uint256"
        },
        {
          "name": "_data",
          "type": "bytes"
        }
      ],
      "name": "canTransfer",
      "outputs": [
        {
          "name": "",
          "type": "bytes1"
        },
        {
          "name": "",
          "type": "bytes32"
        }
      ],
      "payable": false,
      "stateMutability": "view",
      "type": "function",
      "signature": "0x1badb25c"
    },
    {
      "constant": true,
      "inputs": [
        {
          "name": "_from",
          "type": "address"
        },
        {
          "name": "_to",
          "type": "address"
        },
        {
          "name": "_value",
          "type": "uint256"
        },
        {
          "name": "_data",
          "type": "bytes"
        }
      ],
      "name": "canTransferFrom",
      "outputs": [
        {
          "name": "reasonCode",
          "type": "bytes1"
        },
        {
          "name": "appCode",
          "type": "bytes32"
        }
      ],
      "payable": false,
      "stateMutability": "view",
      "type": "function",
      "signature": "0x122eb575"
    },
    {
      "constant": true,
      "inputs": [
        {
          "name": "_from",
          "type": "address"
        },
        {
          "name": "_to",
          "type": "address"
        },
        {
          "name": "_partition",
          "type": "bytes32"
        },
        {
          "name": "_value",
          "type": "uint256"
        },
        {
          "name": "_data",
          "type": "bytes"
        }
      ],
      "name": "canTransferByPartition",
      "outputs": [
        {
          "name": "reasonCode",
          "type": "bytes1"
        },
        {
          "name": "appStatusCode",
          "type": "bytes32"
        },
        {
          "name": "toPartition",
          "type": "bytes32"
        }
      ],
      "payable": false,
      "stateMutability": "view",
      "type": "function",
      "signature": "0x9945e70e"
    },
    {
      "constant": false,
      "inputs": [
        {
          "name": "_name",
          "type": "bytes32"
        },
        {
          "name": "_uri",
          "type": "string"
        },
        {
          "name": "_documentHash",
          "type": "bytes32"
        }
      ],
      "name": "setDocument",
      "outputs": [],
      "payable": false,
      "stateMutability": "nonpayable",
      "type": "function",
      "signature": "0x010648ca"
    },
    {
      "constant": false,
      "inputs": [
        {
          "name": "_name",
          "type": "bytes32"
        }
      ],
      "name": "removeDocument",
      "outputs": [],
      "payable": false,
      "stateMutability": "nonpayable",
      "type": "function",
      "signature": "0xc3501848"
    },
    {
      "constant": true,
      "inputs": [],
      "name": "isControllable",
      "outputs": [
        {
          "name": "",
          "type": "bool"
        }
      ],
      "payable": false,
      "stateMutability": "view",
      "type": "function",
      "signature": "0x4c783bf5"
    },
    {
      "constant": false,
      "inputs": [
        {
          "name": "_from",
          "type": "address"
        },
        {
          "name": "_to",
          "type": "address"
        },
        {
          "name": "_value",
          "type": "uint256"
        },
        {
          "name": "_data",
          "type": "bytes"
        },
        {
          "name": "_operatorData",
          "type": "bytes"
        }
      ],
      "name": "controllerTransfer",
      "outputs": [],
      "payable": false,
      "stateMutability": "nonpayable",
      "type": "function",
      "signature": "0xf282527a"
    },
    {
      "constant": false,
      "inputs": [
        {
          "name": "_tokenHolder",
          "type": "address"
        },
        {
          "name": "_value",
          "type": "uint256"
        },
        {
          "name": "_data",
          "type": "bytes"
        },
        {
          "name": "_operatorData",
          "type": "bytes"
        }
      ],
      "name": "controllerRedeem",
      "outputs": [],
      "payable": false,
      "stateMutability": "nonpayable",
      "type": "function",
      "signature": "0x2bc6acc3"
    },
    {
      "constant": false,
      "inputs": [],
      "name": "updateFromRegistry",
      "outputs": [],
      "payable": false,
      "stateMutability": "nonpayable",
      "type": "function",
      "signature": "0xf433262f"
    },
    {
      "constant": true,
      "inputs": [],
      "name": "owner",
      "outputs": [
        {
          "name": "",
          "type": "address"
        }
      ],
      "payable": false,
      "stateMutability": "view",
      "type": "function",
      "signature": "0x8da5cb5b"
    },
    {
      "constant": true,
      "inputs": [],
      "name": "isOwner",
      "outputs": [
        {
          "name": "",
          "type": "bool"
        }
      ],
      "payable": false,
      "stateMutability": "view",
      "type": "function",
      "signature": "0x8f32d59b"
    },
    {
      "constant": false,
      "inputs": [
        {
          "name": "newOwner",
          "type": "address"
        }
      ],
      "name": "transferOwnership",
      "outputs": [],
      "payable": false,
      "stateMutability": "nonpayable",
      "type": "function",
      "signature": "0xf2fde38b"
    }
  ],
  "bytecode": "0x60806040526012805460ff1990811690915560148054909116600117905534801561002957600080fd5b5060016003556005805460a060020a60ff02191674010000000000000000000000000000000000000000179055615ec680620000666000396000f3fe60806040526004361061044b5760003560e060020a9004806374c9637211610238578063b95459e411610132578063e77772fe116100ba578063f3d490db1161007e578063f3d490db14611c1a578063f433262f14611ce9578063f77c479114611cfe578063fad8b32a14611d13578063ff0b9c9014611d465761044b565b8063e77772fe1461198c578063e77c646d146119a1578063ee532f3114611a25578063f282527a14611af8578063f2fde38b14611be75761044b565b8063ce4dbdff11610101578063ce4dbdff14611895578063d6abe110146118aa578063dc722e3a146118bf578063dd62ed3e1461193c578063e45b8134146119775761044b565b8063b95459e41461175b578063bb3acde914611770578063c350184814611838578063c4d66de8146118625761044b565b8063959b8c3f116101c0578063a16c3a0911610184578063a16c3a09146115e2578063a1db978214611615578063a457c2d71461164e578063a9059cbb14611687578063a9f86e2c146116c05761044b565b8063959b8c3f146113f257806395d89b41146114255780639675193c1461143a5780639945e70e146114cc578063a0632461146115af5761044b565b80638c0dee9c116102075780638c0dee9c1461126e5780638da5cb5b146113625780638f32d59b1461137757806392eefe9b1461138c578063942df325146113bf5761044b565b806374c963721461109357806374fee0c0146111c757806377282b70146112445780637a802c71146112595761044b565b80632fb3b99d11610349578063537c1ac7116102d1578063660d0d6711610295578063660d0d6714610f2057806367c8491914610f355780636faa22a514610fce57806370a0823114610fe357806373826a93146110165761044b565b8063537c1ac714610df95780635488cc8014610e2c578063556f0dc714610e4157806362b348c314610e5657806362eb006814610e975761044b565b80633576857e116103185780633576857e14610cbf5780633950935114610cf25780634c783bf514610d2b57806352cfe56314610d405780635353a2d814610d7c5761044b565b80632fb3b99d14610c1557806330e8280314610c46578063313ce56714610c7f57806331c420d414610caa5761044b565b8063158ef93e116103d75780631e6f20f81161039b5780631e6f20f814610926578063210a8d0e146109fc57806323b872dd14610a265780632535f76214610a695780632bc6acc314610b315761044b565b8063158ef93e1461080a578063168ecec51461081f57806318160ddd146108585780631aab9a9f1461087f5780631badb25c146108945761044b565b80630c9125551161041e5780630c912555146105c5578063103ef9e1146105da578063122eb5751461061357806312ef7fe2146106ec57806313d557bc1461071f5761044b565b8063010648ca1461045557806301502460146104d957806306fdde03146104ee578063095ea7b314610578575b610453611d5b565b005b34801561046157600080fd5b506104536004803603606081101561047857600080fd5b8135919081019060408101602082013564010000000081111561049a57600080fd5b8201836020820111156104ac57600080fd5b803590602001918460018302840111640100000000831117156104ce57600080fd5b919350915035611d6d565b3480156104e557600080fd5b50610453611e3c565b3480156104fa57600080fd5b50610503611e9e565b6040805160208082528351818301528351919283929083019185019080838360005b8381101561053d578181015183820152602001610525565b50505050905090810190601f16801561056a5780820380516001836020036101000a031916815260200191505b509250505060405180910390f35b34801561058457600080fd5b506105b16004803603604081101561059b57600080fd5b50600160a060020a038135169060200135611f2c565b604080519115158252519081900360200190f35b3480156105d157600080fd5b50610453611f43565b3480156105e657600080fd5b50610453600480360360408110156105fd57600080fd5b5080359060200135600160a060020a031661201f565b34801561061f57600080fd5b506106b06004803603608081101561063657600080fd5b600160a060020a0382358116926020810135909116916040820135919081019060808101606082013564010000000081111561067157600080fd5b82018360208201111561068357600080fd5b803590602001918460018302840111640100000000831117156106a557600080fd5b50909250905061208c565b604080517fff00000000000000000000000000000000000000000000000000000000000000909316835260208301919091528051918290030190f35b3480156106f857600080fd5b506104536004803603602081101561070f57600080fd5b5035600160a060020a0316612113565b34801561072b57600080fd5b50610453600480360360a081101561074257600080fd5b813591600160a060020a03602082013516916040820135919081019060808101606082013564010000000081111561077957600080fd5b82018360208201111561078b57600080fd5b803590602001918460018302840111640100000000831117156107ad57600080fd5b9193909290916020810190356401000000008111156107cb57600080fd5b8201836020820111156107dd57600080fd5b803590602001918460018302840111640100000000831117156107ff57600080fd5b5090925090506121c2565b34801561081657600080fd5b506105b16122b3565b34801561082b57600080fd5b506104536004803603604081101561084257600080fd5b5080359060200135600160a060020a03166122c3565b34801561086457600080fd5b5061086d61232d565b60408051918252519081900360200190f35b34801561088b57600080fd5b5061086d612334565b3480156108a057600080fd5b506106b0600480360360608110156108b757600080fd5b600160a060020a03823516916020810135918101906060810160408201356401000000008111156108e757600080fd5b8201836020820111156108f957600080fd5b8035906020019184600183028401116401000000008311171561091b57600080fd5b50909250905061233a565b34801561093257600080fd5b50610453600480360360c081101561094957600080fd5b600160a060020a03823516919081019060408101602082013564010000000081111561097457600080fd5b82018360208201111561098657600080fd5b803590602001918460018302840111640100000000831117156109a857600080fd5b91908080601f0160208091040260200160405190810160405280939291908181526020018383808284376000920191909152509295505082359350505060208101359060408101359060600135151561238d565b348015610a0857600080fd5b5061045360048036036020811015610a1f57600080fd5b5035612879565b348015610a3257600080fd5b506105b160048036036060811015610a4957600080fd5b50600160a060020a03813581169160208101359091169060400135612918565b348015610a7557600080fd5b5061045360048036036060811015610a8c57600080fd5b600160a060020a0382351691602081013591810190606081016040820135640100000000811115610abc57600080fd5b820183602082011115610ace57600080fd5b80359060200191846001830284011164010000000083111715610af057600080fd5b91908080601f01602080910402602001604051908101604052809392919081815260200183838082843760009201919091525092955061293f945050505050565b348015610b3d57600080fd5b5061045360048036036080811015610b5457600080fd5b600160a060020a0382351691602081013591810190606081016040820135640100000000811115610b8457600080fd5b820183602082011115610b9657600080fd5b80359060200191846001830284011164010000000083111715610bb857600080fd5b919390929091602081019035640100000000811115610bd657600080fd5b820183602082011115610be857600080fd5b80359060200191846001830284011164010000000083111715610c0a57600080fd5b509092509050612950565b348015610c2157600080fd5b50610c2a612a5a565b60408051600160a060020a039092168252519081900360200190f35b348015610c5257600080fd5b5061086d60048036036040811015610c6957600080fd5b5080359060200135600160a060020a0316612a69565b348015610c8b57600080fd5b50610c94612a7e565b6040805160ff9092168252519081900360200190f35b348015610cb657600080fd5b50610453612a87565b348015610ccb57600080fd5b5061045360048036036020811015610ce257600080fd5b5035600160a060020a0316612ae4565b348015610cfe57600080fd5b506105b160048036036040811015610d1557600080fd5b50600160a060020a038135169060200135612b6b565b348015610d3757600080fd5b506105b1612bac565b348015610d4c57600080fd5b506105b160048036036040811015610d6357600080fd5b508035600160a060020a0316906020013560ff16612bb6565b348015610d8857600080fd5b5061045360048036036020811015610d9f57600080fd5b810190602081018135640100000000811115610dba57600080fd5b820183602082011115610dcc57600080fd5b80359060200191846001830284011164010000000083111715610dee57600080fd5b509092509050612ca7565b348015610e0557600080fd5b5061045360048036036020811015610e1c57600080fd5b5035600160a060020a0316612da3565b348015610e3857600080fd5b5061086d612f46565b348015610e4d57600080fd5b5061086d612f4c565b348015610e6257600080fd5b5061045360048036036060811015610e7957600080fd5b50600160a060020a0381351690602081013590604001351515612f52565b348015610ea357600080fd5b5061045360048036036060811015610eba57600080fd5b813591602081013591810190606081016040820135640100000000811115610ee157600080fd5b820183602082011115610ef357600080fd5b80359060200191846001830284011164010000000083111715610f1557600080fd5b509092509050613002565b348015610f2c57600080fd5b50610c2a61306d565b348015610f4157600080fd5b5061045360048036036080811015610f5857600080fd5b813591600160a060020a036020820135169160408201359190810190608081016060820135640100000000811115610f8f57600080fd5b820183602082011115610fa157600080fd5b80359060200191846001830284011164010000000083111715610fc357600080fd5b50909250905061307c565b348015610fda57600080fd5b50610c2a613140565b348015610fef57600080fd5b5061086d6004803603602081101561100657600080fd5b5035600160a060020a031661314f565b34801561102257600080fd5b506104536004803603602081101561103957600080fd5b81019060208101813564010000000081111561105457600080fd5b82018360208201111561106657600080fd5b8035906020019184600183028401116401000000008311171561108857600080fd5b50909250905061316a565b34801561109f57600080fd5b50610453600480360360408110156110b657600080fd5b8101906020810181356401000000008111156110d157600080fd5b8201836020820111156110e357600080fd5b8035906020019184602083028401116401000000008311171561110557600080fd5b919080806020026020016040519081016040528093929190818152602001838360200280828437600092019190915250929594936020810193503591505064010000000081111561115557600080fd5b82018360208201111561116757600080fd5b8035906020019184602083028401116401000000008311171561118957600080fd5b91908080602002602001604051908101604052809392919081815260200183836020028082843760009201919091525092955061325c945050505050565b3480156111d357600080fd5b50610453600480360360208110156111ea57600080fd5b81019060208101813564010000000081111561120557600080fd5b82018360208201111561121757600080fd5b8035906020019184600183028401116401000000008311171561123957600080fd5b5090925090506132d0565b34801561125057600080fd5b50610c2a613425565b34801561126557600080fd5b506105b1613434565b34801561127a57600080fd5b5061086d600480360360c081101561129157600080fd5b813591600160a060020a03602082013581169260408301359091169160608101359181019060a0810160808201356401000000008111156112d157600080fd5b8201836020820111156112e357600080fd5b8035906020019184600183028401116401000000008311171561130557600080fd5b91939092909160208101903564010000000081111561132357600080fd5b82018360208201111561133557600080fd5b8035906020019184600183028401116401000000008311171561135757600080fd5b50909250905061343d565b34801561136e57600080fd5b50610c2a613523565b34801561138357600080fd5b506105b1613532565b34801561139857600080fd5b50610453600480360360208110156113af57600080fd5b5035600160a060020a0316613543565b3480156113cb57600080fd5b50610453600480360360208110156113e257600080fd5b5035600160a060020a03166135d0565b3480156113fe57600080fd5b506104536004803603602081101561141557600080fd5b5035600160a060020a0316613603565b34801561143157600080fd5b50610503613649565b34801561144657600080fd5b506104536004803603606081101561145d57600080fd5b600160a060020a038235169160208101359181019060608101604082013564010000000081111561148d57600080fd5b82018360208201111561149f57600080fd5b803590602001918460018302840111640100000000831117156114c157600080fd5b5090925090506136a4565b3480156114d857600080fd5b5061156e600480360360a08110156114ef57600080fd5b600160a060020a03823581169260208101359091169160408201359160608101359181019060a08101608082013564010000000081111561152f57600080fd5b82018360208201111561154157600080fd5b8035906020019184600183028401116401000000008311171561156357600080fd5b509092509050613785565b604080517fff000000000000000000000000000000000000000000000000000000000000009094168452602084019290925282820152519081900360600190f35b3480156115bb57600080fd5b50610453600480360360208110156115d257600080fd5b5035600160a060020a0316613865565b3480156115ee57600080fd5b506104536004803603602081101561160557600080fd5b5035600160a060020a03166138f5565b34801561162157600080fd5b506104536004803603604081101561163857600080fd5b50600160a060020a038135169060200135613989565b34801561165a57600080fd5b506105b16004803603604081101561167157600080fd5b50600160a060020a038135169060200135613a31565b34801561169357600080fd5b506105b1600480360360408110156116aa57600080fd5b50600160a060020a038135169060200135613a6d565b3480156116cc57600080fd5b50610453600480360360a08110156116e357600080fd5b600160a060020a03823516919081019060408101602082013564010000000081111561170e57600080fd5b82018360208201111561172057600080fd5b8035906020019184600183028401116401000000008311171561174257600080fd5b9193509150803590602081013590604001351515613a8a565b34801561176757600080fd5b50610c2a613ad6565b34801561177c57600080fd5b506104536004803603606081101561179357600080fd5b600160a060020a03823516916020810135918101906060810160408201356401000000008111156117c357600080fd5b8201836020820111156117d557600080fd5b803590602001918460018302840111640100000000831117156117f757600080fd5b91908080601f016020809104026020016040519081016040528093929190818152602001838380828437600092019190915250929550613ae5945050505050565b34801561184457600080fd5b506104536004803603602081101561185b57600080fd5b5035613b02565b34801561186e57600080fd5b506104536004803603602081101561188557600080fd5b5035600160a060020a0316613b8a565b3480156118a157600080fd5b50610c2a613c74565b3480156118b657600080fd5b50610503613c83565b3480156118cb57600080fd5b50610453600480360360208110156118e257600080fd5b8101906020810181356401000000008111156118fd57600080fd5b82018360208201111561190f57600080fd5b8035906020019184600183028401116401000000008311171561193157600080fd5b509092509050613cde565b34801561194857600080fd5b5061086d6004803603604081101561195f57600080fd5b50600160a060020a0381358116916020013516613dbd565b34801561198357600080fd5b506105b1613de8565b34801561199857600080fd5b50610c2a613df6565b3480156119ad57600080fd5b50610453600480360360408110156119c457600080fd5b813591908101906040810160208201356401000000008111156119e657600080fd5b8201836020820111156119f857600080fd5b80359060200191846001830284011164010000000083111715611a1a57600080fd5b509092509050613e05565b348015611a3157600080fd5b5061045360048036036080811015611a4857600080fd5b600160a060020a03823581169260208101359091169160408201359190810190608081016060820135640100000000811115611a8357600080fd5b820183602082011115611a9557600080fd5b80359060200191846001830284011164010000000083111715611ab757600080fd5b91908080601f016020809104026020016040519081016040528093929190818152602001838380828437600092019190915250929550613e50945050505050565b348015611b0457600080fd5b50610453600480360360a0811015611b1b57600080fd5b600160a060020a03823581169260208101359091169160408201359190810190608081016060820135640100000000811115611b5657600080fd5b820183602082011115611b6857600080fd5b80359060200191846001830284011164010000000083111715611b8a57600080fd5b919390929091602081019035640100000000811115611ba857600080fd5b820183602082011115611bba57600080fd5b80359060200191846001830284011164010000000083111715611bdc57600080fd5b509092509050613e78565b348015611bf357600080fd5b5061045360048036036020811015611c0a57600080fd5b5035600160a060020a0316613f99565b348015611c2657600080fd5b5061086d60048036036080811015611c3d57600080fd5b813591600160a060020a036020820135169160408201359190810190608081016060820135640100000000811115611c7457600080fd5b820183602082011115611c8657600080fd5b80359060200191846001830284011164010000000083111715611ca857600080fd5b91908080601f016020809104026020016040519081016040528093929190818152602001838380828437600092019190915250929550613fad945050505050565b348015611cf557600080fd5b50610453613fd7565b348015611d0a57600080fd5b50610c2a614260565b348015611d1f57600080fd5b5061045360048036036020811015611d3657600080fd5b5035600160a060020a0316614274565b348015611d5257600080fd5b5061086d6142b9565b611d6b611d6661440d565b61441c565b565b611d75614440565b73__TokenLib______________________________63e8f20292601d6015601e888888886040518863ffffffff1660e060020a02815260040180888152602001878152602001868152602001858152602001806020018381526020018281038252858582818152602001925080828437600081840152601f19601f8201169050808301925050509850505050505050505060006040518083038186803b158015611e1e57600080fd5b505af4158015611e32573d6000803e3d6000fd5b5050505050505050565b611e44614440565b601254610100900460ff1615611e5957600080fd5b6012805461ff001916610100179055604080516001815290517fac199452244e92d1343195dfad0a5347b229c861e3a8f2fbf08ab519b1d55bc99181900360200190a1565b6006805460408051602060026001851615610100026000190190941693909304601f81018490048402820184019092528181529291830182828015611f245780601f10611ef957610100808354040283529160200191611f24565b820191906000526020600020905b815481529060010190602001808311611f0757829003601f168201915b505050505081565b6000611f39338484614451565b5060015b92915050565b611f4b614440565b600554604080517fa62d3a45000000000000000000000000000000000000000000000000000000008152600a60048201529051600160a060020a039092169163a62d3a459160248082019260009290919082900301818387803b158015611fb157600080fd5b505af1158015611fc5573d6000803e3d6000fd5b50506017546040805160ff80841682526101008404811660208301526201000090930490921682820152517f23af9b477abf9645be8a074be19ae4a47e11abc43bd1aa47b16de7eb856093029350908190036060019150a1565b612028826144d9565b336000818152601f602090815260408083208684528252808320600160a060020a0386168085529252808320805460ff1916600117905551909185917f3646a897c70797ecc134b0adc32f471b07bf1d6f451133b0384badab531e3fd69190a45050565b6000806120d187878787878080601f01602080910402602001604051908101604052809392919081815260200183838082843760009201919091525061453e92505050565b90925090506120df8261479a565b80156120f357506120f08733613dbd565b85115b156121095761210260036147c8565b9150600090505b9550959350505050565b61211b614440565b600a54600160a060020a0382811660009081526019602052604080822081517f971373500000000000000000000000000000000000000000000000000000000081529390941660048401526024830193909352915173__TokenLib______________________________9263971373509260448082019391829003018186803b1580156121a757600080fd5b505af41580156121bb573d6000803e3d6000fd5b5050505050565b6121cc60056147e6565b818160008181106121d957fe5b9050013560f860020a900460f860020a027effffffffffffffffffffffffffffffffffffffffffffffffffffffffffffff1916600060f860020a02141561221f57600080fd5b612228866147f9565b612233878733614857565b6122aa8787873388888080601f01602080910402602001604051908101604052809392919081815260200183838082843760009201919091525050604080516020601f8c018190048102820181019092528a815292508a915089908190840183828082843760009201919091525061486b92505050565b50505050505050565b60055460a060020a900460ff1681565b6122cc826144d9565b336000818152601f602090815260408083208684528252808320600160a060020a0386168085529252808320805460ff1916905551909185917f3b287c4f1bab4df949b33bceacef984f544dc5d5479930d00e4ee8c9d8dd96f29190a45050565b6002545b90565b60135481565b60008061237f33878787878080601f01602080910402602001604051908101604052809392919081815260200183838082843760009201919091525061453e92505050565b915091505b94509492505050565b60038054600101908190556123a0614440565b600a54604080517f36ef22ce000000000000000000000000000000000000000000000000000000008152600160a060020a038a8116600483015260006024830181905292519316926336ef22ce9260448084019391929182900301818387803b15801561240c57600080fd5b505af1158015612420573d6000803e3d6000fd5b505050506000879050606081600160a060020a031663b4579d606040518163ffffffff1660e060020a02815260040160006040518083038186803b15801561246757600080fd5b505afa15801561247b573d6000803e3d6000fd5b505050506040513d6000823e601f3d908101601f1916820160405260208110156124a457600080fd5b8101908080516401000000008111156124bc57600080fd5b820160208101848111156124cf57600080fd5b81518560208202830111640100000000821117156124ec57600080fd5b50509291905050509050600082600160a060020a0316632d0aa22e6040518163ffffffff1660e060020a028152600401602060405180830381600087803b15801561253657600080fd5b505af115801561254a573d6000803e3d6000fd5b505050506040513d602081101561256057600080fd5b50519050878111156125bc576040805160e560020a62461bcd02815260206004820152600c60248201527f496e76616c696420636f73740000000000000000000000000000000000000000604482015290519081900360640190fd5b600c54604080517f095ea7b3000000000000000000000000000000000000000000000000000000008152600160a060020a038d81166004830152602482018590529151919092169163095ea7b39160448083019260209291908290030181600087803b15801561262b57600080fd5b505af115801561263f573d6000803e3d6000fd5b505050506040513d602081101561265557600080fd5b50506040517e7743600000000000000000000000000000000000000000000000000000000081526020600482018181528b5160248401528b51600093600160a060020a0388169362774360938f9390928392604490910191908501908083838b5b838110156126ce5781810151838201526020016126b6565b50505050905090810190601f1680156126fb5780820380516001836020036101000a031916815260200191505b5092505050602060405180830381600087803b15801561271a57600080fd5b505af115801561272e573d6000803e3d6000fd5b505050506040513d602081101561274457600080fd5b5051600160a060020a0380821660009081526019602052604090206001015491925016156127bc576040805160e560020a62461bcd02815260206004820152600d60248201527f4d6f64756c652065786973747300000000000000000000000000000000000000604482015290519081900360640190fd5b600c54604080517f095ea7b3000000000000000000000000000000000000000000000000000000008152600160a060020a038481166004830152602482018c90529151919092169163095ea7b39160448083019260209291908290030181600087803b15801561282b57600080fd5b505af115801561283f573d6000803e3d6000fd5b505050506040513d602081101561285557600080fd5b506128679050838c83858c8c8c61499b565b5050505060035481146122aa57600080fd5b612881614440565b806128d6576040805160e560020a62461bcd02815260206004820152601360248201527f496e76616c6964206772616e756c617269747900000000000000000000000000604482015290519081900360640190fd5b600f54604080519182526020820183905280517f7728e5c461dd94b32a33e149f4ef6b674a7eff704cac77b26937eaced90f00389281900390910190a1600f55565b600061293584848460405180602001604052806000815250613e50565b5060019392505050565b61294b33848484614d73565b505050565b612958614d8d565b612999868686868080601f016020809104026020016040519081016040528093929190818152602001838380828437600092019190915250614db892505050565b5085600160a060020a03167f876b7cb47aa150b3a5516188b19ed308752ad4d0ae9a702543353b78163f75893387878787876040518087600160a060020a0316600160a060020a0316815260200186815260200180602001806020018381038352878782818152602001925080828437600083820152601f01601f191690910184810383528581526020019050858580828437600083820152604051601f909101601f19169092018290039a509098505050505050505050a2505050505050565b600d54600160a060020a031681565b6000612a7783836000614e90565b9392505050565b60085460ff1681565b612a8f614440565b601254610100900460ff16612aa357600080fd5b6012805461ff0019169055604080516000815290517fac199452244e92d1343195dfad0a5347b229c861e3a8f2fbf08ab519b1d55bc99181900360200190a1565b612aec614440565b600160a060020a03811660009081526019602052604080822081517fad2426150000000000000000000000000000000000000000000000000000000081526004810191909152905173__TokenLib______________________________9263ad2426159260248082019391829003018186803b1580156121a757600080fd5b336000818152600160209081526040808320600160a060020a03871684529091528120549091611f39918590612ba7908663ffffffff61502216565b614451565b60125460ff161590565b600160a060020a03808316600081815260196020526040812060010154909216141580612c055750600160a060020a03831660009081526019602052604090206002015460a060020a900460ff165b15612c1257506000611f3d565b60005b600160a060020a038416600090815260196020526040902060030154811015612c9d57600160a060020a0384166000908152601960205260409020600301805460ff8516919083908110612c6557fe5b60009182526020918290209181049091015460ff601f9092166101000a9004161415612c95576001915050611f3d565b600101612c15565b5060009392505050565b612caf614440565b80612cb957600080fd5b6040805181815260068054600260001961010060018416150201909116049282018390527f99b81fd13cfa16f6b748b388ac4e3059f0d9e1166c6c99b07ff0f4aa308ca43c929091859185919081906020820190606083019087908015612d615780601f10612d3657610100808354040283529160200191612d61565b820191906000526020600020905b815481529060010190602001808311612d4457829003601f168201915b50508381038252848152602001858580828437600083820152604051601f909101601f191690920182900397509095505050505050a161294b60068383615cc7565b612dab614440565b612db4816147f9565b600e54604080517f21f8a7210000000000000000000000000000000000000000000000000000000081527faae8817359f3dcb67d050f44f3e49f982e0359d90ca4b5f18569926304aaece6600482015290517f419d718138b0b65d09976f881eed8b8d7075d4b6092f74af0a0ec9b3417cdd1292600160a060020a0316916321f8a721916024808301926020929190829003018186803b158015612e5757600080fd5b505afa158015612e6b573d6000803e3d6000fd5b505050506040513d6020811015612e8157600080fd5b505160408051600160a060020a03928316815291841660208301528051918290030190a1600e54604080517fca446dd90000000000000000000000000000000000000000000000000000000081527faae8817359f3dcb67d050f44f3e49f982e0359d90ca4b5f18569926304aaece66004820152600160a060020a0384811660248301529151919092169163ca446dd991604480830192600092919082900301818387803b158015612f3257600080fd5b505af11580156121bb573d6000803e3d6000fd5b60105481565b600f5481565b612f5a614440565b600c54604080517fdfb1f411000000000000000000000000000000000000000000000000000000008152600160a060020a0380871660048301526024820186905284151560448301529092166064830152601960848301525173__TokenLib______________________________9163dfb1f4119160a4808301926000929190829003018186803b158015612fee57600080fd5b505af41580156122aa573d6000803e3d6000fd5b61300c60056147e6565b613015846144d9565b613067843385600086868080601f01602080910402602001604051908101604052809392919081815260200183838082843760009201829052506040805160208101909152908152925061486b915050565b50505050565b600e54600160a060020a031681565b613085856144d9565b6130c6848484848080601f016020809104026020016040519081016040528093929190818152602001838380828437600092019190915250613ae592505050565b83600160a060020a0316857f6032e2468b0f94dfa63c61d6c8a84842a99c049263eae408a52b945020b6578d85858560405180848152602001806020018281038252848482818152602001925080828437600083820152604051601f909101601f1916909201829003965090945050505050a35050505050565b600c54600160a060020a031681565b600160a060020a031660009081526020819052604090205490565b613172614440565b6040805181815260118054600260001961010060018416150201909116049282018390527f4f5dc3feea8c186b1481cfe57c28df8871a61e3be16f7d65c60504cfd634406792909185918591908190602082019060608301908790801561321a5780601f106131ef5761010080835404028352916020019161321a565b820191906000526020600020905b8154815290600101906020018083116131fd57829003601f168201915b50508381038252848152602001858580828437600083820152604051601f909101601f191690920182900397509095505050505050a161294b60118383615cc7565b613264615034565b61326e600361508e565b805182511461327c57600080fd5b60005b825181101561294b576132c883828151811061329757fe5b60200260200101518383815181106132ab57fe5b6020026020010151604051806020016040528060008152506150b8565b60010161327f565b6132d8614440565b6040517f5a34d4d9000000000000000000000000000000000000000000000000000000008152602060048201908152602482018390526133bc9173__TokenLib______________________________91635a34d4d991869186918190604401848480828437600083820152604051601f909101601f191690920195506020945090925050508083038186803b15801561337057600080fd5b505af4158015613384573d6000803e3d6000fd5b505050506040513d602081101561339a57600080fd5b5051600160a060020a03166133ad613523565b600160a060020a03161461518c565b6133c4612bac565b6133cd57600080fd5b6012805460ff191660011790556008805474ffffffffffffffffffffffffffffffffffffffff00191690556040517ff7ec83c37617f91085fc1725f4839e41a03238811eaebd2dbc4a405354cc958e90600090a15050565b600954600160a060020a031681565b60125460ff1681565b600061344a898933614857565b8282600081811061345757fe5b9050013560f860020a900460f860020a027effffffffffffffffffffffffffffffffffffffffffffffffffffffffffffff1916600060f860020a02141561349d57600080fd5b6135168888888c89898080601f01602080910402602001604051908101604052809392919081815260200183838082843760009201919091525050604080516020601f8d018190048102820181019092528b815233935091508b908b90819084018382808284376000920191909152506151e192505050565b9998505050505050505050565b600454600160a060020a031690565b600454600160a060020a0316331490565b61354b614440565b613553612bac565b61355c57600080fd5b600854604051600160a060020a0380841692610100900416907f9fdb07212c6f92fd298affc4000712177664bc3c4cae5f61098d42da6d05be1e90600090a360088054600160a060020a039092166101000274ffffffffffffffffffffffffffffffffffffffff0019909216919091179055565b6135d8614440565b6135e1816147f9565b600e8054600160a060020a031916600160a060020a0392909216919091179055565b6136103382600019614451565b6040513390600160a060020a038316907ff4caeb2d6ca8932a215a353d0703c326ec2d81fc68170f320eb2ab49e9df61f990600090a350565b6007805460408051602060026001851615610100026000190190941693909304601f81018490048402820184019092528181529291830182828015611f245780601f10611ef957610100808354040283529160200191611f24565b6136ae60056147e6565b6136f96136f48560008686868080601f01602080910402602001604051908101604052809392919081815260200183838082843760009201919091525061538592505050565b6153d5565b613703848461542a565b83600160a060020a031633600160a060020a03167fb7d0d6b60740753e9f16692a2f479472a1385aec2420fa43225b02f2ffa1afe785858560405180848152602001806020018281038252848482818152602001925080828437600083820152604051601f909101601f1916909201829003965090945050505050a350505050565b6000806000600080516020615e7b833981519152871415613845576137e289898888888080601f01602080910402602001604051908101604052809392919081815260200183838082843760009201919091525061453e92505050565b90935091506137f08361479a565b15613840576000613811600080516020615e5b8339815191528a6000614e90565b9050600061382e600080516020615e5b8339815191528b8a614e90565b905061383b82828a615473565b925050505b613859565b61384f60006147c8565b9250600091508190505b96509650969350505050565b61386d614440565b604080517fc38890e1000000000000000000000000000000000000000000000000000000008152600160a060020a03831660048201526018602482015260196044820152601a6064820152905173__TokenLib______________________________9163c38890e1916084808301926000929190829003018186803b1580156121a757600080fd5b6138fd614440565b600a54600160a060020a0382811660009081526019602052604080822081517f4a02280e0000000000000000000000000000000000000000000000000000000081529390941660048401526024830193909352915173__TokenLib______________________________92634a02280e9260448082019391829003018186803b1580156121a757600080fd5b613991614440565b81600160a060020a03811663a9059cbb6139a9613523565b846040518363ffffffff1660e060020a0281526004018083600160a060020a0316600160a060020a0316815260200182815260200192505050602060405180830381600087803b1580156139fc57600080fd5b505af1158015613a10573d6000803e3d6000fd5b505050506040513d6020811015613a2657600080fd5b505161294b57600080fd5b336000818152600160209081526040808320600160a060020a03871684529091528120549091611f39918590612ba7908663ffffffff6154b716565b6000611f3933848460405180602001604052806000815250614d73565b613ace8686868080601f016020809104026020016040519081016040528093929190818152602001838380828437600092018290525089935088925090508661238d565b505050505050565b600a54600160a060020a031681565b613aed615034565b613af7600361508e565b61294b8383836150b8565b613b0a614440565b604080517fb7e2c789000000000000000000000000000000000000000000000000000000008152601d600482015260156024820152601e604482015260648101839052905173__TokenLib______________________________9163b7e2c789916084808301926000929190829003018186803b1580156121a757600080fd5b60055460a060020a900460ff1615613bec576040805160e560020a62461bcd02815260206004820152601360248201527f416c726561647920696e697469616c697a656400000000000000000000000000604482015290519081900360640190fd5b600d8054600160a060020a031916600160a060020a03831617905560408051606081018252600380825260006020830181905291909201526017805460ff191690911762ffff0019169055613c3f613fd7565b506005805474ff000000000000000000000000000000000000000019600160a060020a031990911633171660a060020a179055565b600b54600160a060020a031681565b6011805460408051602060026001851615610100026000190190941693909304601f81018490048402820184019092528181529291830182828015611f245780601f10611ef957610100808354040283529160200191611f24565b613ce6614440565b613cee615034565b6040517f7713083e00000000000000000000000000000000000000000000000000000000815260206004820190815260248201839052613d869173__TokenLib______________________________91637713083e91869186918190604401848480828437600083820152604051601f909101601f191690920195506020945090925050508083038186803b15801561337057600080fd5b6014805460ff191690556040517f9ea7d0a14bc31ddf4821c86966910e35bd82b51f74bde7d3704498e0fb92e1f190600090a15050565b600160a060020a03918216600090815260016020908152604080832093909416825291909152205490565b601254610100900460ff1681565b600554600160a060020a031681565b613e0f60056147e6565b61294b338484848080601f0160208091040260200160405190810160405280939291908181526020018383808284376000920191909152506154cc92505050565b613e64613e5f85858585615385565b6154da565b613e6f84848461552f565b61306757600080fd5b613e80614d8d565b613ec287878787878080601f01602080910402602001604051908101604052809392919081815260200183838082843760009201919091525061538592505050565b50613ece878787615577565b85600160a060020a031687600160a060020a03167f6bf62b4b9c7b768275122bf70d429efc398a056d669b1efdf6c3976346246d7d3388888888886040518087600160a060020a0316600160a060020a0316815260200186815260200180602001806020018381038352878782818152602001925080828437600083820152601f01601f191690910184810383528581526020019050858580828437600083820152604051601f909101601f19169092018290039a509098505050505050505050a350505050505050565b613fa1614440565b613faa81615642565b50565b6000613fce33858588866000604051806020016040528060008152506151e1565b95945050505050565b613fdf614440565b600954604080517fbf40fac1000000000000000000000000000000000000000000000000000000008152602060048201819052600e60248301527f4d6f64756c65526567697374727900000000000000000000000000000000000060448301529151600160a060020a039093169263bf40fac192606480840193919291829003018186803b15801561407057600080fd5b505afa158015614084573d6000803e3d6000fd5b505050506040513d602081101561409a57600080fd5b5051600a8054600160a060020a031916600160a060020a03928316179055600954604080517fbf40fac1000000000000000000000000000000000000000000000000000000008152602060048201819052601560248301527f5365637572697479546f6b656e5265676973747279000000000000000000000060448301529151929093169263bf40fac19260648083019392829003018186803b15801561414057600080fd5b505afa158015614154573d6000803e3d6000fd5b505050506040513d602081101561416a57600080fd5b5051600b8054600160a060020a031916600160a060020a0392831617905560098054604080517fbf40fac100000000000000000000000000000000000000000000000000000000815260206004820181905260248201949094527f506f6c79546f6b656e000000000000000000000000000000000000000000000060448201529051919093169263bf40fac1926064808301939192829003018186803b15801561421357600080fd5b505afa158015614227573d6000803e3d6000fd5b505050506040513d602081101561423d57600080fd5b5051600c8054600160a060020a031916600160a060020a03909216919091179055565b6008546101009004600160a060020a031681565b61428033826000614451565b6040513390600160a060020a038316907f50546e66e5f44d728365dc3908c63bc5cfeeab470722c1677e3073a6ac294aa190600090a350565b60006142c5600461508e565b601080546001908101909155601680549182018155600052427fd833147d7dc355ba459fc788f669e58cfaf9dc25ddcd0702e87d69c7b51242899091015561430b61232d565b601080546000908152601b6020908152604091829020939093559054600e5482517f2fc94ba60000000000000000000000000000000000000000000000000000000081527fdf3a8dd24acdd05addfc6aeffef7574d2de3f844535ec91e8e0f3e45dba967316004820152925191937f624ea167e477f9d39f7f4094b9dfe2e6346eb4a7aada54338db51abd554c4b9f93600160a060020a0390921692632fc94ba6926024808201939291829003018186803b1580156143c957600080fd5b505afa1580156143dd573d6000803e3d6000fd5b505050506040513d60208110156143f357600080fd5b505160408051918252519081900360200190a25060105490565b600d54600160a060020a031690565b3660008037600080366000845af43d6000803e80801561443b573d6000f35b3d6000fd5b614448613532565b611d6b57600080fd5b600160a060020a03821661446457600080fd5b600160a060020a03831661447757600080fd5b600160a060020a03808416600081815260016020908152604080832094871680845294825291829020859055815185815291517f8c5be1e5ebec7d5bd14f71427d1e84f3dd0314c0f7b2291e5b200ac8c7c3b9259281900390910190a3505050565b600080516020615e7b8339815191528114613faa576040805160e560020a62461bcd02815260206004820152601160248201527f496e76616c696420706172746974696f6e000000000000000000000000000000604482015290519081900360640190fd5b600080600080600f54868161454f57fe5b061561456d5761455f60006147c8565b935060009250612384915050565b73__TokenLib______________________________631658f46a60186000600260ff1660ff16815260200190815260200160002060198b8b8b8b601260019054906101000a900460ff166040518863ffffffff1660e060020a0281526004018088815260200187815260200186600160a060020a0316600160a060020a0316815260200185600160a060020a0316600160a060020a031681526020018481526020018060200183151515158152602001828103825284818151815260200191508051906020019080838360005b8381101561465257818101518382015260200161463a565b50505050905090810190601f16801561467f5780820380516001836020036101000a031916815260200191505b5098505050505050505050604080518083038186803b1580156146a157600080fd5b505af41580156146b5573d6000803e3d6000fd5b505050506040513d60408110156146cb57600080fd5b5080516020909101519250905073__TokenLib______________________________632c94d97b82848a8a6146ff8e61314f565b6040805160e060020a63ffffffff891602815295151560048701526024860194909452600160a060020a03909216604485015260648401526084830152805160a480840193829003018186803b15801561475857600080fd5b505af415801561476c573d6000803e3d6000fd5b505050506040513d604081101561478257600080fd5b50805160209091015190999098509650505050505050565b7f0f00000000000000000000000000000000000000000000000000000000000000811660f860020a14919050565b60008160088111156147d657fe5b60500160f860020a029050919050565b6147f03382612bb6565b613faa57600080fd5b600160a060020a038116613faa576040805160e560020a62461bcd02815260206004820152600f60248201527f496e76616c696420616464726573730000000000000000000000000000000000604482015290519081900360640190fd5b614860836144d9565b61294b8282856156b1565b6148768585846154cc565b84600160a060020a031683600160a060020a0316877fa4f62471c9bdf88115b97203943c74c59b655913ee5ee592706d84ef53fb6be2878686604051808481526020018060200180602001838103835285818151815260200191508051906020019080838360005b838110156148f65781810151838201526020016148de565b50505050905090810190601f1680156149235780820380516001836020036101000a031916815260200191505b50838103825284518152845160209182019186019080838360005b8381101561495657818101518382015260200161493e565b50505050905090810190601f1680156149835780820380516001836020036101000a031916815260200191505b509550505050505060405180910390a4505050505050565b600086600160a060020a03166306fdde036040518163ffffffff1660e060020a02815260040160206040518083038186803b1580156149d957600080fd5b505afa1580156149ed573d6000803e3d6000fd5b505050506040513d6020811015614a0357600080fd5b50518851604080518281526020838102820101909152919250606091908015614a36578160200160208202803883390190505b50905060005b8951811015614aef57601860008b8381518110614a5557fe5b602002602001015160ff1660ff16815260200190815260200160002080549050828281518110614a8157fe5b602002602001018181525050601860008b8381518110614a9d57fe5b60209081029190910181015160ff168252818101929092526040016000908120805460018082018355918352929091209091018054600160a060020a031916600160a060020a038b1617905501614a3c565b60405180610100016040528084815260200189600160a060020a031681526020018a600160a060020a0316815260200185151581526020018b8152602001838152602001601a600086815260200190815260200160002080549050815260200186815250601960008a600160a060020a0316600160a060020a031681526020019081526020016000206000820151816000015560208201518160010160006101000a815481600160a060020a030219169083600160a060020a0316021790555060408201518160020160006101000a815481600160a060020a030219169083600160a060020a0316021790555060608201518160020160146101000a81548160ff0219169083151502179055506080820151816003019080519060200190614c18929190615d45565b5060a08201518051614c34916004840191602090910190615de7565b5060c0820151816005015560e08201518160060155905050601a60008481526020019081526020016000208890806001815401808255809150509060018203906000526020600020016000909192909190916101000a815481600160a060020a030219169083600160a060020a031602179055505088600160a060020a0316837ffa9cc8faf0fe9bebcaababb6b67c5a679d4fdec88527e4ca823ee0f91e9c09288c8b8b8b8b8b604051808060200187600160a060020a0316600160a060020a0316815260200186815260200185815260200184815260200183151515158152602001828103825288818151815260200191508051906020019060200280838360005b83811015614d4f578181015183820152602001614d37565b5050505090500197505050505050505060405180910390a350505050505050505050565b614d82613e5f85858585615385565b613067848484615577565b600854611d6b906101009004600160a060020a031633148015614db35750614db3612bac565b6156fa565b6000614dc78460008585615385565b9050614dd3848461574f565b33600160a060020a03166000600160a060020a03167fb7d0d6b60740753e9f16692a2f479472a1385aec2420fa43225b02f2ffa1afe785856040518083815260200180602001828103825283818151815260200191508051906020019080838360005b83811015614e4e578181015183820152602001614e36565b50505050905090810190601f168015614e7b5780820380516001836020036101000a031916815260200191505b50935050505060405180910390a39392505050565b60026000908152601860209081527f2bacf7cca723d030d12aee795132f2c5f2d14ad131f16f3f27eeba3e79d18b8c8054604080518285028101850190915281815260609390929190830182828015614f1257602002820191906000526020600020905b8154600160a060020a03168152600190910190602001808311614ef4575b50505050509050600080600090505b825181101561501857828181518110614f3657fe5b6020026020010151600160a060020a0316632829e6518888886040518463ffffffff1660e060020a0281526004018084815260200183600160a060020a0316600160a060020a03168152602001828152602001935050505060206040518083038186803b158015614fa657600080fd5b505afa158015614fba573d6000803e3d6000fd5b505050506040513d6020811015614fd057600080fd5b50519150600080516020615e7b8339815191528714156150045783821080614ff6575080155b15614fff578193505b615010565b81841015615010578193505b600101614f21565b5050509392505050565b600082820183811015612a7757600080fd5b60145460ff16611d6b576040805160e560020a62461bcd02815260206004820152600f60248201527f49737375616e63652066726f7a656e0000000000000000000000000000000000604482015290519081900360640190fd5b615096613523565b600160a060020a031633600160a060020a031614613faa576147f03382612bb6565b6150c8613e5f6000858585615385565b6150d283836157f6565b82600160a060020a031633600160a060020a03167f0e9905d62635f049c2f4e11678ebf9dc3d1f8c4a653e290759b772e47ba00d0084846040518083815260200180602001828103825283818151815260200191508051906020019080838360005b8381101561514c578181015183820152602001615134565b50505050905090810190601f1680156151795780820380516001836020036101000a031916815260200191505b50935050505060405180910390a3505050565b80613faa576040805160e560020a62461bcd02815260206004820152601260248201527f4f776e657220646964206e6f74207369676e0000000000000000000000000000604482015290519081900360640190fd5b60006151ec856144d9565b6000615208600080516020615e5b833981519152896000614e90565b905061521689898988614d73565b6000615232600080516020615e5b8339815191528a6000614e90565b905061523f82828a615473565b925088600160a060020a03168a600160a060020a0316887fff4e9a26af4eb73b8bacfaa4abd4fea03d9448e7b912dc5ff4019048875aa2d4888c8b8a6040518085600160a060020a0316600160a060020a031681526020018481526020018060200180602001838103835285818151815260200191508051906020019080838360005b838110156152da5781810151838201526020016152c2565b50505050905090810190601f1680156153075780820380516001836020036101000a031916815260200191505b50838103825284518152845160209182019186019080838360005b8381101561533a578181015183820152602001615322565b50505050905090810190601f1680156153675780820380516001836020036101000a031916815260200191505b50965050505050505060405180910390a45050979650505050505050565b600380546001019081905560009061539e86868661589e565b6153aa86868686615978565b91506153b586615c42565b6153be85615c42565b60035481146153cc57600080fd5b50949350505050565b80613faa576040805160e560020a62461bcd02815260206004820152600e60248201527f496e76616c69642072656465656d000000000000000000000000000000000000604482015290519081900360640190fd5b615434828261574f565b600160a060020a03821660009081526001602090815260408083203380855292529091205461546f918491612ba7908563ffffffff6154b716565b5050565b600081615486848663ffffffff6154b716565b1461549f57600080516020615e7b8339815191526154af565b600080516020615e5b8339815191525b949350505050565b6000828211156154c657600080fd5b50900390565b61294b6136f4848484614db8565b80613faa576040805160e560020a62461bcd02815260206004820152601060248201527f5472616e7366657220496e76616c696400000000000000000000000000000000604482015290519081900360640190fd5b600061553c848484615577565b600160a060020a038416600090815260016020908152604080832033808552925290912054612935918691612ba7908663ffffffff6154b716565b600160a060020a03821661558a57600080fd5b600160a060020a0383166000908152602081905260409020546155b3908263ffffffff6154b716565b600160a060020a0380851660009081526020819052604080822093909355908416815220546155e8908263ffffffff61502216565b600160a060020a038084166000818152602081815260409182902094909455805185815290519193928716927fddf252ad1be2c89b69c2b068fc378daa952ba7f163c4a11628f55a4df523b3ef92918290030190a3505050565b600160a060020a03811661565557600080fd5b600454604051600160a060020a038084169216907f8be0079c531659141344cd1fd0a4f28419497f9722a3daafe3b4186f6b6457e090600090a360048054600160a060020a031916600160a060020a0392909216919091179055565b61294b6000196156c18585613dbd565b1480614db35750600160a060020a038085166000908152601f6020908152604080832086845282528083209387168352929052205460ff165b80613faa576040805160e560020a62461bcd02815260206004820152600e60248201527f4e6f7420417574686f7269736564000000000000000000000000000000000000604482015290519081900360640190fd5b600160a060020a03821661576257600080fd5b600254615775908263ffffffff6154b716565b600255600160a060020a0382166000908152602081905260409020546157a1908263ffffffff6154b716565b600160a060020a038316600081815260208181526040808320949094558351858152935191937fddf252ad1be2c89b69c2b068fc378daa952ba7f163c4a11628f55a4df523b3ef929081900390910190a35050565b600160a060020a03821661580957600080fd5b60025461581c908263ffffffff61502216565b600255600160a060020a038216600090815260208190526040902054615848908263ffffffff61502216565b600160a060020a0383166000818152602081815260408083209490945583518581529351929391927fddf252ad1be2c89b69c2b068fc378daa952ba7f163c4a11628f55a4df523b3ef9281900390910190a35050565b73__TokenLib______________________________63943aef7b6013548585856158c78861314f565b6158d08a61314f565b600e546040805160e060020a63ffffffff8b160281526004810198909852600160a060020a03968716602489015294861660448801526064870193909352608486019190915260a48501529190911660c48301525160e4808301926020929190829003018186803b15801561594457600080fd5b505af4158015615958573d6000803e3d6000fd5b505050506040513d602081101561596e57600080fd5b5051601355505050565b600082600f54818161598657fe5b06156159dc576040805160e560020a62461bcd02815260206004820152601360248201527f496e76616c6964206772616e756c617269747900000000000000000000000000604482015290519081900360640190fd5b601254610100900460ff16615c36576002600090815260186020527f2bacf7cca723d030d12aee795132f2c5f2d14ad131f16f3f27eeba3e79d18b8c54819081908190815b81811015615c0e57600260005260186020527f2bacf7cca723d030d12aee795132f2c5f2d14ad131f16f3f27eeba3e79d18b8c805482908110615a6057fe5b6000918252602080832090910154600160a060020a0316808352601990915260409091206002015490935060ff60a060020a90910416615c0657600083600160a060020a0316633d3217318e8e8e8e6040518563ffffffff1660e060020a0281526004018085600160a060020a0316600160a060020a0316815260200184600160a060020a0316600160a060020a0316815260200183815260200180602001828103825283818151815260200191508051906020019080838360005b83811015615b34578181015183820152602001615b1c565b50505050905090810190601f168015615b615780820380516001836020036101000a031916815260200191505b5095505050505050602060405180830381600087803b158015615b8357600080fd5b505af1158015615b97573d6000803e3d6000fd5b505050506040513d6020811015615bad57600080fd5b505190506000816003811115615bbf57fe5b1415615bce5760019650615c04565b6002816003811115615bdc57fe5b1415615beb5760019550615c04565b6003816003811115615bf957fe5b1415615c0457600194505b505b600101615a21565b5082615c275784615c1f5783615c22565b60005b615c2a565b60015b965050505050506153cc565b50600095945050505050565b600160a060020a0381166000908152601c6020526040902073__TokenLib______________________________906309def7ee90615c7f8461314f565b6010546040518463ffffffff1660e060020a02815260040180848152602001838152602001828152602001935050505060006040518083038186803b1580156121a757600080fd5b828054600181600116156101000203166002900490600052602060002090601f016020900481019282601f10615d085782800160ff19823516178555615d35565b82800160010185558215615d35579182015b82811115615d35578235825591602001919060010190615d1a565b50615d41929150615e22565b5090565b82805482825590600052602060002090601f01602090048101928215615ddb5791602002820160005b83821115615dac57835183826101000a81548160ff021916908360ff1602179055509260200192600101602081600001049283019260010302615d6e565b8015615dd95782816101000a81549060ff0219169055600101602081600001049283019260010302615dac565b505b50615d41929150615e3c565b828054828255906000526020600020908101928215615d35579160200282015b82811115615d35578251825591602001919060010190615e07565b61233191905b80821115615d415760008155600101615e28565b61233191905b80821115615d4157805460ff19168155600101615e4256fe4c4f434b45440000000000000000000000000000000000000000000000000000554e4c4f434b4544000000000000000000000000000000000000000000000000a165627a7a72305820f1803218ada080ad1fedf8d956619dd351139e7f1de532d30091a59ec1d669450029",
  "source": "pragma solidity 0.5.8;\n\nimport \"../proxy/Proxy.sol\";\nimport \"../interfaces/IModule.sol\";\nimport \"./SecurityTokenStorage.sol\";\nimport \"../libraries/TokenLib.sol\";\nimport \"../libraries/StatusCodes.sol\";\nimport \"../interfaces/IDataStore.sol\";\nimport \"../interfaces/IUpgradableTokenFactory.sol\";\nimport \"../interfaces/IModuleFactory.sol\";\nimport \"../interfaces/token/IERC1410.sol\";\nimport \"../interfaces/token/IERC1594.sol\";\nimport \"../interfaces/token/IERC1643.sol\";\nimport \"../interfaces/token/IERC1644.sol\";\nimport \"../interfaces/ITransferManager.sol\";\nimport \"openzeppelin-solidity/contracts/utils/ReentrancyGuard.sol\";\nimport \"openzeppelin-solidity/contracts/token/ERC20/ERC20.sol\";\n\n/**\n * @title Security Token contract\n * @notice SecurityToken is an ERC1400 token with added capabilities:\n * @notice - Implements the ERC1400 Interface\n * @notice - Transfers are restricted\n * @notice - Modules can be attached to it to control its behaviour\n * @notice - ST should not be deployed directly, but rather the SecurityTokenRegistry should be used\n * @notice - ST does not inherit from ISecurityToken due to:\n * @notice - https://github.com/ethereum/solidity/issues/4847\n */\ncontract SecurityToken is ERC20, ReentrancyGuard, SecurityTokenStorage, IERC1594, IERC1643, IERC1644, IERC1410, Proxy {\n\n    using SafeMath for uint256;\n\n    // Emit at the time when module get added\n    event ModuleAdded(\n        uint8[] _types,\n        bytes32 indexed _name,\n        address indexed _moduleFactory,\n        address _module,\n        uint256 _moduleCost,\n        uint256 _budget,\n        bytes32 _label,\n        bool _archived\n    );\n    // Emit when Module get upgraded from the securityToken\n    event ModuleUpgraded(uint8[] _types, address _module);\n    // Emit when the token details get updated\n    event UpdateTokenDetails(string _oldDetails, string _newDetails);\n    // Emit when the token name get updated\n    event UpdateTokenName(string _oldName, string _newName);\n    // Emit when the granularity get changed\n    event GranularityChanged(uint256 _oldGranularity, uint256 _newGranularity);\n    // Emit when is permanently frozen by the issuer\n    event FreezeIssuance();\n    // Emit when transfers are frozen or unfrozen\n    event FreezeTransfers(bool _status);\n    // Emit when new checkpoint created\n    event CheckpointCreated(uint256 indexed _checkpointId, uint256 _investorLength);\n    // Events to log controller actions\n    event SetController(address indexed _oldController, address indexed _newController);\n    //Event emit when the global treasury wallet address get changed\n    event TreasuryWalletChanged(address _oldTreasuryWallet, address _newTreasuryWallet);\n    event DisableController();\n    event OwnershipTransferred(address indexed previousOwner, address indexed newOwner);\n    event TokenUpgraded(uint8 _major, uint8 _minor, uint8 _patch);\n\n    // Emit when Module get archived from the securityToken\n    event ModuleArchived(uint8[] _types, address _module); //Event emitted by the tokenLib.\n    // Emit when Module get unarchived from the securityToken\n    event ModuleUnarchived(uint8[] _types, address _module); //Event emitted by the tokenLib.\n    // Emit when Module get removed from the securityToken\n    event ModuleRemoved(uint8[] _types, address _module); //Event emitted by the tokenLib.\n    // Emit when the budget allocated to a module is changed\n    event ModuleBudgetChanged(uint8[] _moduleTypes, address _module, uint256 _oldBudget, uint256 _budget); //Event emitted by the tokenLib.\n\n    // Constructor\n    constructor() public {\n        initialized = true;\n    }\n\n    /**\n     * @notice Initialization function\n     * @dev Expected to be called atomically with the proxy being created, by the owner of the token\n     * @dev Can only be called once\n     */\n    function initialize(address _getterDelegate) public {\n        //Expected to be called atomically with the proxy being created\n        require(!initialized, \"Already initialized\");\n        getterDelegate = _getterDelegate;\n        securityTokenVersion = SemanticVersion(3, 0, 0);\n        updateFromRegistry();\n        tokenFactory = msg.sender;\n        initialized = true;\n    }\n\n    /**\n     * @notice Checks if an address is a module of certain type\n     * @param _module Address to check\n     * @param _type type to check against\n     */\n    function isModule(address _module, uint8 _type) public view returns(bool) {\n        if (modulesToData[_module].module != _module || modulesToData[_module].isArchived)\n            return false;\n        for (uint256 i = 0; i < modulesToData[_module].moduleTypes.length; i++) {\n            if (modulesToData[_module].moduleTypes[i] == _type) {\n                return true;\n            }\n        }\n        return false;\n    }\n\n    // Require msg.sender to be the specified module type or the owner of the token\n    function _onlyModuleOrOwner(uint8 _type) internal view {\n        if (msg.sender != owner())\n            require(isModule(msg.sender, _type));\n    }\n\n    function _isValidPartition(bytes32 _partition) internal pure {\n        require(_partition == UNLOCKED, \"Invalid partition\");\n    }\n\n    function _isValidOperator(address _from, address _operator, bytes32 _partition) internal view {\n        _isAuthorised(\n            allowance(_from, _operator) == uint(-1) || partitionApprovals[_from][_partition][_operator]\n        );\n    }\n\n    function _zeroAddressCheck(address _entity) internal pure {\n        require(_entity != address(0), \"Invalid address\");\n    }\n\n    function _isValidTransfer(bool _isTransfer) internal pure {\n        require(_isTransfer, \"Transfer Invalid\");\n    }\n\n    function _isValidRedeem(bool _isRedeem) internal pure {\n        require(_isRedeem, \"Invalid redeem\");\n    }\n\n    function _isSignedByOwner(bool _signed) internal pure {\n        require(_signed, \"Owner did not sign\");\n    }\n\n    function _isIssuanceAllowed() internal view {\n        require(issuance, \"Issuance frozen\");\n    }\n\n    // Function to check whether the msg.sender is authorised or not\n    function _onlyController() internal view {\n        _isAuthorised(msg.sender == controller && isControllable());\n    }\n\n    function _isAuthorised(bool _authorised) internal pure {\n        require(_authorised, \"Not Authorised\");\n    }\n\n    /**\n     * @dev Throws if called by any account other than the owner.\n     * @dev using the internal function instead of modifier to save the code size\n     */\n    function _onlyOwner() internal view {\n        require(isOwner());\n    }\n\n    /**\n     * @dev Require msg.sender to be the specified module type\n     */\n    function _onlyModule(uint8 _type) internal view {\n        require(isModule(msg.sender, _type));\n    }\n\n    modifier checkGranularity(uint256 _value) {\n        require(_value % granularity == 0, \"Invalid granularity\");\n        _;\n    }\n\n    /**\n      * @notice Attachs a module to the SecurityToken\n      * @dev  E.G.: On deployment (through the STR) ST gets a TransferManager module attached to it\n      * @dev to control restrictions on transfers.\n      * @param _moduleFactory is the address of the module factory to be added\n      * @param _data is data packed into bytes used to further configure the module (See STO usage)\n      * @param _maxCost max amount of POLY willing to pay to the module.\n      * @param _budget max amount of ongoing POLY willing to assign to the module.\n      * @param _label custom module label.\n      */\n    function addModuleWithLabel(\n        address _moduleFactory,\n        bytes memory _data,\n        uint256 _maxCost,\n        uint256 _budget,\n        bytes32 _label,\n        bool _archived\n    )\n        public\n        nonReentrant\n    {\n        _onlyOwner();\n        //Check that the module factory exists in the ModuleRegistry - will throw otherwise\n        moduleRegistry.useModule(_moduleFactory, false);\n        IModuleFactory moduleFactory = IModuleFactory(_moduleFactory);\n        uint8[] memory moduleTypes = moduleFactory.getTypes();\n        uint256 moduleCost = moduleFactory.setupCostInPoly();\n        require(moduleCost <= _maxCost, \"Invalid cost\");\n        //Approve fee for module\n        polyToken.approve(_moduleFactory, moduleCost);\n        //Creates instance of module from factory\n        address module = moduleFactory.deploy(_data);\n        require(modulesToData[module].module == address(0), \"Module exists\");\n        //Approve ongoing budget\n        polyToken.approve(module, _budget);\n        _addModuleData(moduleTypes, _moduleFactory, module, moduleCost, _budget, _label, _archived);\n    }\n\n    function _addModuleData(\n        uint8[] memory _moduleTypes,\n        address _moduleFactory,\n        address _module,\n        uint256 _moduleCost,\n        uint256 _budget,\n        bytes32 _label,\n        bool _archived\n    ) internal {\n        bytes32 moduleName = IModuleFactory(_moduleFactory).name();\n        uint256[] memory moduleIndexes = new uint256[](_moduleTypes.length);\n        uint256 i;\n        for (i = 0; i < _moduleTypes.length; i++) {\n            moduleIndexes[i] = modules[_moduleTypes[i]].length;\n            modules[_moduleTypes[i]].push(_module);\n        }\n        modulesToData[_module] = ModuleData(\n            moduleName,\n            _module,\n            _moduleFactory,\n            _archived,\n            _moduleTypes,\n            moduleIndexes,\n            names[moduleName].length,\n            _label\n        );\n        names[moduleName].push(_module);\n        emit ModuleAdded(_moduleTypes, moduleName, _moduleFactory, _module, _moduleCost, _budget, _label, _archived);\n    }\n\n    /**\n    * @notice addModule function will call addModuleWithLabel() with an empty label for backward compatible\n    */\n    function addModule(address _moduleFactory, bytes calldata _data, uint256 _maxCost, uint256 _budget, bool _archived) external {\n        addModuleWithLabel(_moduleFactory, _data, _maxCost, _budget, \"\", _archived);\n    }\n\n    /**\n    * @notice Archives a module attached to the SecurityToken\n    * @param _module address of module to archive\n    */\n    function archiveModule(address _module) external {\n        _onlyOwner();\n        TokenLib.archiveModule(modulesToData[_module]);\n    }\n\n    /**\n    * @notice Upgrades a module attached to the SecurityToken\n    * @param _module address of module to archive\n    */\n    function upgradeModule(address _module) external {\n        _onlyOwner();\n        TokenLib.upgradeModule(moduleRegistry, modulesToData[_module]);\n    }\n\n    /**\n    * @notice Upgrades security token\n    */\n    function upgradeToken() external {\n        _onlyOwner();\n        // 10 is the number of module types to check for incompatibilities before upgrading.\n        // The number is hard coded and kept low to keep usage low.\n        // We currently have 7 module types. If we ever create more than 3 new module types,\n        // We will upgrade the implementation accordinly. We understand the limitations of this approach.\n        IUpgradableTokenFactory(tokenFactory).upgradeToken(10);\n        emit TokenUpgraded(securityTokenVersion.major, securityTokenVersion.minor, securityTokenVersion.patch);\n    }\n\n    /**\n    * @notice Unarchives a module attached to the SecurityToken\n    * @param _module address of module to unarchive\n    */\n    function unarchiveModule(address _module) external {\n        _onlyOwner();\n        TokenLib.unarchiveModule(moduleRegistry, modulesToData[_module]);\n    }\n\n    /**\n    * @notice Removes a module attached to the SecurityToken\n    * @param _module address of module to unarchive\n    */\n    function removeModule(address _module) external {\n        _onlyOwner();\n        TokenLib.removeModule(_module, modules, modulesToData, names);\n    }\n\n    /**\n    * @notice Allows the owner to withdraw unspent POLY stored by them on the ST or any ERC20 token.\n    * @dev Owner can transfer POLY to the ST which will be used to pay for modules that require a POLY fee.\n    * @param _tokenContract Address of the ERC20Basic compliance token\n    * @param _value amount of POLY to withdraw\n    */\n    function withdrawERC20(address _tokenContract, uint256 _value) external {\n        _onlyOwner();\n        IERC20 token = IERC20(_tokenContract);\n        require(token.transfer(owner(), _value));\n    }\n\n    /**\n    * @notice allows owner to increase/decrease POLY approval of one of the modules\n    * @param _module module address\n    * @param _change change in allowance\n    * @param _increase true if budget has to be increased, false if decrease\n    */\n    function changeModuleBudget(address _module, uint256 _change, bool _increase) external {\n        _onlyOwner();\n        TokenLib.changeModuleBudget(_module, _change, _increase, polyToken, modulesToData);\n    }\n\n    /**\n     * @notice updates the tokenDetails associated with the token\n     * @param _newTokenDetails New token details\n     */\n    function updateTokenDetails(string calldata _newTokenDetails) external {\n        _onlyOwner();\n        emit UpdateTokenDetails(tokenDetails, _newTokenDetails);\n        tokenDetails = _newTokenDetails;\n    }\n\n    /**\n    * @notice Allows owner to change token granularity\n    * @param _granularity granularity level of the token\n    */\n    function changeGranularity(uint256 _granularity) external {\n        _onlyOwner();\n        require(_granularity != 0, \"Invalid granularity\");\n        emit GranularityChanged(granularity, _granularity);\n        granularity = _granularity;\n    }\n\n    /**\n    * @notice Allows owner to change data store\n    * @param _dataStore Address of the token data store\n    */\n    function changeDataStore(address _dataStore) external {\n        _onlyOwner();\n        _zeroAddressCheck(_dataStore);\n        dataStore = IDataStore(_dataStore);\n    }\n\n    /**\n    * @notice Allows owner to change token name\n    * @param _name new name of the token\n    */\n    function changeName(string calldata _name) external {\n        _onlyOwner();\n        require(bytes(_name).length > 0);\n        emit UpdateTokenName(name, _name);\n        name = _name;\n    }\n\n    /**\n     * @notice Allows to change the treasury wallet address\n     * @param _wallet Ethereum address of the treasury wallet\n     */\n    function changeTreasuryWallet(address _wallet) external {\n        _onlyOwner();\n        _zeroAddressCheck(_wallet);\n        emit TreasuryWalletChanged(dataStore.getAddress(TREASURY), _wallet);\n        dataStore.setAddress(TREASURY, _wallet);\n    }\n\n    /**\n    * @notice Keeps track of the number of non-zero token holders\n    * @param _from sender of transfer\n    * @param _to receiver of transfer\n    * @param _value value of transfer\n    */\n    function _adjustInvestorCount(address _from, address _to, uint256 _value) internal {\n        holderCount = TokenLib.adjustInvestorCount(holderCount, _from, _to, _value, balanceOf(_to), balanceOf(_from), dataStore);\n    }\n\n    /**\n     * @notice freezes transfers\n     */\n    function freezeTransfers() external {\n        _onlyOwner();\n        require(!transfersFrozen);\n        transfersFrozen = true;\n        /*solium-disable-next-line security/no-block-members*/\n        emit FreezeTransfers(true);\n    }\n\n    /**\n     * @notice Unfreeze transfers\n     */\n    function unfreezeTransfers() external {\n        _onlyOwner();\n        require(transfersFrozen);\n        transfersFrozen = false;\n        /*solium-disable-next-line security/no-block-members*/\n        emit FreezeTransfers(false);\n    }\n\n    /**\n     * @notice Internal - adjusts token holder balance at checkpoint before a token transfer\n     * @param _investor address of the token holder affected\n     */\n    function _adjustBalanceCheckpoints(address _investor) internal {\n        TokenLib.adjustCheckpoints(checkpointBalances[_investor], balanceOf(_investor), currentCheckpointId);\n    }\n\n    /**\n     * @notice Overloaded version of the transfer function\n     * @param _to receiver of transfer\n     * @param _value value of transfer\n     * @return bool success\n     */\n    function transfer(address _to, uint256 _value) public returns(bool success) {\n        _transferWithData(msg.sender, _to, _value, \"\");\n        return true;\n    }\n\n    /**\n     * @notice Transfer restrictions can take many forms and typically involve on-chain rules or whitelists.\n     * However for many types of approved transfers, maintaining an on-chain list of approved transfers can be\n     * cumbersome and expensive. An alternative is the co-signing approach, where in addition to the token holder\n     * approving a token transfer, and authorised entity provides signed data which further validates the transfer.\n     * @param _to address The address which you want to transfer to\n     * @param _value uint256 the amount of tokens to be transferred\n     * @param _data The `bytes _data` allows arbitrary data to be submitted alongside the transfer.\n     * for the token contract to interpret or record. This could be signed data authorising the transfer\n     * (e.g. a dynamic whitelist) but is flexible enough to accomadate other use-cases.\n     */\n    function transferWithData(address _to, uint256 _value, bytes memory _data) public {\n        _transferWithData(msg.sender, _to, _value, _data);\n    }\n\n    function _transferWithData(address _from, address _to, uint256 _value, bytes memory _data) internal {\n        _isValidTransfer(_updateTransfer(_from, _to, _value, _data));\n        // Using the internal function instead of super.transfer() in the favour of reducing the code size\n        _transfer(_from, _to, _value);\n    }\n\n    /**\n     * @notice Overloaded version of the transferFrom function\n     * @param _from sender of transfer\n     * @param _to receiver of transfer\n     * @param _value value of transfer\n     * @return bool success\n     */\n    function transferFrom(address _from, address _to, uint256 _value) public returns(bool) {\n        transferFromWithData(_from, _to, _value, \"\");\n        return true;\n    }\n\n    /**\n     * @notice Transfer restrictions can take many forms and typically involve on-chain rules or whitelists.\n     * However for many types of approved transfers, maintaining an on-chain list of approved transfers can be\n     * cumbersome and expensive. An alternative is the co-signing approach, where in addition to the token holder\n     * approving a token transfer, and authorised entity provides signed data which further validates the transfer.\n     * @dev `msg.sender` MUST have a sufficient `allowance` set and this `allowance` must be debited by the `_value`.\n     * @param _from address The address which you want to send tokens from\n     * @param _to address The address which you want to transfer to\n     * @param _value uint256 the amount of tokens to be transferred\n     * @param _data The `bytes _data` allows arbitrary data to be submitted alongside the transfer.\n     * for the token contract to interpret or record. This could be signed data authorising the transfer\n     * (e.g. a dynamic whitelist) but is flexible enough to accomadate other use-cases.\n     */\n    function transferFromWithData(address _from, address _to, uint256 _value, bytes memory _data) public {\n        _isValidTransfer(_updateTransfer(_from, _to, _value, _data));\n        require(super.transferFrom(_from, _to, _value));\n    }\n\n    /**\n     * @notice Get the balance according to the provided partitions\n     * @param _partition Partition which differentiate the tokens.\n     * @param _tokenHolder Whom balance need to queried\n     * @return Amount of tokens as per the given partitions\n     */\n    function balanceOfByPartition(bytes32 _partition, address _tokenHolder) public view returns(uint256) {\n        return _balanceOfByPartition(_partition, _tokenHolder, 0);\n    }\n\n    function _balanceOfByPartition(bytes32 _partition, address _tokenHolder, uint256 _additionalBalance) internal view returns(uint256 partitionBalance) {\n        address[] memory tms = modules[TRANSFER_KEY];\n        uint256 amount;\n        for (uint256 i = 0; i < tms.length; i++) {\n            amount = ITransferManager(tms[i]).getTokensByPartition(_partition, _tokenHolder, _additionalBalance);\n            // In UNLOCKED partition we are returning the minimum of all the unlocked balances\n            if (_partition == UNLOCKED) {\n                if (amount < partitionBalance || i == 0)\n                    partitionBalance = amount;\n            }\n            // In locked partition we are returning the maximum of all the Locked balances\n            else {\n                if (partitionBalance < amount)\n                    partitionBalance = amount;\n            }\n        }\n    }\n\n    /**\n     * @notice Transfers the ownership of tokens from a specified partition from one address to another address\n     * @param _partition The partition from which to transfer tokens\n     * @param _to The address to which to transfer tokens to\n     * @param _value The amount of tokens to transfer from `_partition`\n     * @param _data Additional data attached to the transfer of tokens\n     * @return The partition to which the transferred tokens were allocated for the _to address\n     */\n    function transferByPartition(bytes32 _partition, address _to, uint256 _value, bytes memory _data) public returns (bytes32) {\n        return _transferByPartition(msg.sender, _to, _value, _partition, _data, address(0), \"\");\n    }\n\n    function _transferByPartition(\n        address _from,\n        address _to,\n        uint256 _value,\n        bytes32 _partition,\n        bytes memory _data,\n        address _operator,\n        bytes memory _operatorData\n    )\n        internal\n        returns(bytes32 toPartition)\n    {\n        _isValidPartition(_partition);\n        // Avoiding to add this check\n        // require(balanceOfByPartition(_partition, msg.sender) >= _value);\n        // NB - Above condition will be automatically checked using the executeTransfer() function execution.\n        // NB - passing `_additionalBalance` value is 0 because accessing the balance before transfer\n        uint256 lockedBalanceBeforeTransfer = _balanceOfByPartition(LOCKED, _to, 0);\n        _transferWithData(_from, _to, _value, _data);\n        // NB - passing `_additonalBalance` valie is 0 because balance of `_to` was updated in the transfer call\n        uint256 lockedBalanceAfterTransfer = _balanceOfByPartition(LOCKED, _to, 0);\n        toPartition =  _returnPartition(lockedBalanceBeforeTransfer, lockedBalanceAfterTransfer, _value);\n        emit TransferByPartition(_partition, _operator, _from, _to, _value, _data, _operatorData);\n    }\n\n    function _returnPartition(uint256 _beforeBalance, uint256 _afterBalance, uint256 _value) internal pure returns(bytes32 toPartition) {\n        // return LOCKED only when the transaction `_value` should be equal to the change in the LOCKED partition\n        // balance otherwise return UNLOCKED\n        toPartition = _afterBalance.sub(_beforeBalance) == _value ? LOCKED : UNLOCKED; // Returning the same partition UNLOCKED\n    }\n\n    ///////////////////////\n    /// Operator Management\n    ///////////////////////\n\n    /**\n     * @notice Authorises an operator for all partitions of `msg.sender`.\n     * NB - Allowing investors to authorize an investor to be an operator of all partitions\n     * but it doesn't mean we operator is allowed to transfer the LOCKED partition values.\n     * Logic for this restriction is written in `operatorTransferByPartition()` function.\n     * @param _operator An address which is being authorised.\n     */\n    function authorizeOperator(address _operator) public {\n        _approve(msg.sender, _operator, uint(-1));\n        emit AuthorizedOperator(_operator, msg.sender);\n    }\n\n    /**\n     * @notice Revokes authorisation of an operator previously given for all partitions of `msg.sender`.\n     * NB - Allowing investors to authorize an investor to be an operator of all partitions\n     * but it doesn't mean we operator is allowed to transfer the LOCKED partition values.\n     * Logic for this restriction is written in `operatorTransferByPartition()` function.\n     * @param _operator An address which is being de-authorised\n     */\n    function revokeOperator(address _operator) public {\n        _approve(msg.sender, _operator, 0);\n        emit RevokedOperator(_operator, msg.sender);\n    }\n\n    /**\n     * @notice Authorises an operator for a given partition of `msg.sender`\n     * @param _partition The partition to which the operator is authorised\n     * @param _operator An address which is being authorised\n     */\n    function authorizeOperatorByPartition(bytes32 _partition, address _operator) public {\n        _isValidPartition(_partition);\n        partitionApprovals[msg.sender][_partition][_operator] = true;\n        emit AuthorizedOperatorByPartition(_partition, _operator, msg.sender);\n    }\n\n    /**\n     * @notice Revokes authorisation of an operator previously given for a specified partition of `msg.sender`\n     * @param _partition The partition to which the operator is de-authorised\n     * @param _operator An address which is being de-authorised\n     */\n    function revokeOperatorByPartition(bytes32 _partition, address _operator) public {\n        _isValidPartition(_partition);\n        partitionApprovals[msg.sender][_partition][_operator] = false;\n        emit RevokedOperatorByPartition(_partition, _operator, msg.sender);\n    }\n\n    /**\n     * @notice Transfers the ownership of tokens from a specified partition from one address to another address\n     * @param _partition The partition from which to transfer tokens.\n     * @param _from The address from which to transfer tokens from\n     * @param _to The address to which to transfer tokens to\n     * @param _value The amount of tokens to transfer from `_partition`\n     * @param _data Additional data attached to the transfer of tokens\n     * @param _operatorData Additional data attached to the transfer of tokens by the operator\n     * @return The partition to which the transferred tokens were allocated for the _to address\n     */\n    function operatorTransferByPartition(\n        bytes32 _partition,\n        address _from,\n        address _to,\n        uint256 _value,\n        bytes calldata _data,\n        bytes calldata _operatorData\n    )\n        external\n        returns (bytes32)\n    {\n        // For the current release we are only allowing UNLOCKED partition tokens to transact\n        _validateOperatorAndPartition(_partition, _from, msg.sender);\n        require(_operatorData[0] != 0);\n        return _transferByPartition(_from, _to, _value, _partition, _data, msg.sender, _operatorData);\n    }\n\n    function _validateOperatorAndPartition(bytes32 _partition, address _from, address _operator) internal view {\n        _isValidPartition(_partition);\n        _isValidOperator(_from, _operator, _partition);\n    }\n\n    /**\n     * @notice Updates internal variables when performing a transfer\n     * @param _from sender of transfer\n     * @param _to receiver of transfer\n     * @param _value value of transfer\n     * @param _data data to indicate validation\n     * @return bool success\n     */\n    function _updateTransfer(address _from, address _to, uint256 _value, bytes memory _data) internal nonReentrant returns(bool verified) {\n        // NB - the ordering in this function implies the following:\n        //  - investor counts are updated before transfer managers are called - i.e. transfer managers will see\n        //investor counts including the current transfer.\n        //  - checkpoints are updated after the transfer managers are called. This allows TMs to create\n        //checkpoints as though they have been created before the current transactions,\n        //  - to avoid the situation where a transfer manager transfers tokens, and this function is called recursively,\n        //the function is marked as nonReentrant. This means that no TM can transfer (or mint / burn) tokens in the execute transfer function.\n        _adjustInvestorCount(_from, _to, _value);\n        verified = _executeTransfer(_from, _to, _value, _data);\n        _adjustBalanceCheckpoints(_from);\n        _adjustBalanceCheckpoints(_to);\n    }\n\n    /**\n     * @notice Validate transfer with TransferManager module if it exists\n     * @dev TransferManager module has a key of 2\n     * function (no change in the state).\n     * @param _from sender of transfer\n     * @param _to receiver of transfer\n     * @param _value value of transfer\n     * @param _data data to indicate validation\n     * @return bool\n     */\n    function _executeTransfer(\n        address _from,\n        address _to,\n        uint256 _value,\n        bytes memory _data\n    )\n        internal\n        checkGranularity(_value)\n        returns(bool)\n    {\n        if (!transfersFrozen) {\n            bool isInvalid;\n            bool isValid;\n            bool isForceValid;\n            address module;\n            uint256 tmLength = modules[TRANSFER_KEY].length;\n            for (uint256 i = 0; i < tmLength; i++) {\n                module = modules[TRANSFER_KEY][i];\n                if (!modulesToData[module].isArchived) {\n                    // refer to https://github.com/PolymathNetwork/polymath-core/wiki/Transfer-manager-results\n                    // for understanding what these results mean\n                    ITransferManager.Result valid = ITransferManager(module).executeTransfer(_from, _to, _value, _data);\n                    if (valid == ITransferManager.Result.INVALID) {\n                        isInvalid = true;\n                    } else if (valid == ITransferManager.Result.VALID) {\n                        isValid = true;\n                    } else if (valid == ITransferManager.Result.FORCE_VALID) {\n                        isForceValid = true;\n                    }\n                }\n            }\n            return isForceValid ? true : (isInvalid ? false : isValid);\n        }\n        return false;\n    }\n\n    /**\n     * @notice Permanently freeze issuance of this security token.\n     * @dev It MUST NOT be possible to increase `totalSuppy` after this function is called.\n     */\n    function freezeIssuance(bytes calldata _signature) external {\n        _onlyOwner();\n        _isIssuanceAllowed();\n        _isSignedByOwner(owner() == TokenLib.recoverFreezeIssuanceAckSigner(_signature));\n        issuance = false;\n        /*solium-disable-next-line security/no-block-members*/\n        emit FreezeIssuance();\n    }\n\n    /**\n     * @notice This function must be called to increase the total supply (Corresponds to mint function of ERC20).\n     * @dev It only be called by the token issuer or the operator defined by the issuer. ERC1594 doesn't have\n     * have the any logic related to operator but its superset ERC1400 have the operator logic and this function\n     * is allowed to call by the operator.\n     * @param _tokenHolder The account that will receive the created tokens (account should be whitelisted or KYCed).\n     * @param _value The amount of tokens need to be issued\n     * @param _data The `bytes _data` allows arbitrary data to be submitted alongside the transfer.\n     */\n    function issue(\n        address _tokenHolder,\n        uint256 _value,\n        bytes memory _data\n    )\n        public // changed to public to save the code size and reuse the function\n    {\n        _isIssuanceAllowed();\n        _onlyModuleOrOwner(MINT_KEY);\n        _issue(_tokenHolder, _value, _data);\n    }\n\n    function _issue(\n        address _tokenHolder,\n        uint256 _value,\n        bytes memory _data\n    )\n        internal\n    {\n        // Add a function to validate the `_data` parameter\n        _isValidTransfer(_updateTransfer(address(0), _tokenHolder, _value, _data));\n        _mint(_tokenHolder, _value);\n        emit Issued(msg.sender, _tokenHolder, _value, _data);\n    }\n\n    /**\n     * @notice issue new tokens and assigns them to the target _tokenHolder.\n     * @dev Can only be called by the issuer or STO attached to the token.\n     * @param _tokenHolders A list of addresses to whom the minted tokens will be dilivered\n     * @param _values A list of number of tokens get minted and transfer to corresponding address of the investor from _tokenHolders[] list\n     * @return success\n     */\n    function issueMulti(address[] memory _tokenHolders, uint256[] memory _values) public {\n        _isIssuanceAllowed();\n        _onlyModuleOrOwner(MINT_KEY);\n        // Remove reason string to reduce the code size\n        require(_tokenHolders.length == _values.length);\n        for (uint256 i = 0; i < _tokenHolders.length; i++) {\n            _issue(_tokenHolders[i], _values[i], \"\");\n        }\n    }\n\n    /**\n     * @notice Increases totalSupply and the corresponding amount of the specified owners partition\n     * @param _partition The partition to allocate the increase in balance\n     * @param _tokenHolder The token holder whose balance should be increased\n     * @param _value The amount by which to increase the balance\n     * @param _data Additional data attached to the minting of tokens\n     */\n    function issueByPartition(bytes32 _partition, address _tokenHolder, uint256 _value, bytes calldata _data) external {\n        _isValidPartition(_partition);\n        //Use issue instead of _issue function in the favour to saving code size\n        issue(_tokenHolder, _value, _data);\n        emit IssuedByPartition(_partition, _tokenHolder, _value, _data);\n    }\n\n    /**\n     * @notice This function redeem an amount of the token of a msg.sender. For doing so msg.sender may incentivize\n     * using different ways that could be implemented with in the `redeem` function definition. But those implementations\n     * are out of the scope of the ERC1594.\n     * @param _value The amount of tokens need to be redeemed\n     * @param _data The `bytes _data` it can be used in the token contract to authenticate the redemption.\n     */\n    function redeem(uint256 _value, bytes calldata _data) external {\n        _onlyModule(BURN_KEY);\n        _redeem(msg.sender, _value, _data);\n    }\n\n    function _redeem(address _from, uint256 _value, bytes memory _data) internal {\n        // Add a function to validate the `_data` parameter\n        _isValidRedeem(_checkAndBurn(_from, _value, _data));\n    }\n\n    /**\n     * @notice Decreases totalSupply and the corresponding amount of the specified partition of msg.sender\n     * @param _partition The partition to allocate the decrease in balance\n     * @param _value The amount by which to decrease the balance\n     * @param _data Additional data attached to the burning of tokens\n     */\n    function redeemByPartition(bytes32 _partition, uint256 _value, bytes calldata _data) external {\n        _onlyModule(BURN_KEY);\n        _isValidPartition(_partition);\n        _redeemByPartition(_partition, msg.sender, _value, address(0), _data, \"\");\n    }\n\n    function _redeemByPartition(\n        bytes32 _partition,\n        address _from,\n        uint256 _value,\n        address _operator,\n        bytes memory _data,\n        bytes memory _operatorData\n    )\n        internal\n    {\n        _redeem(_from, _value, _data);\n        emit RedeemedByPartition(_partition, _operator, _from, _value, _data, _operatorData);\n    }\n\n    /**\n     * @notice Decreases totalSupply and the corresponding amount of the specified partition of tokenHolder\n     * @dev This function can only be called by the authorised operator.\n     * @param _partition The partition to allocate the decrease in balance.\n     * @param _tokenHolder The token holder whose balance should be decreased\n     * @param _value The amount by which to decrease the balance\n     * @param _data Additional data attached to the burning of tokens\n     * @param _operatorData Additional data attached to the transfer of tokens by the operator\n     */\n    function operatorRedeemByPartition(\n        bytes32 _partition,\n        address _tokenHolder,\n        uint256 _value,\n        bytes calldata _data,\n        bytes calldata _operatorData\n    )\n        external\n    {\n        _onlyModule(BURN_KEY);\n        require(_operatorData[0] != 0);\n        _zeroAddressCheck(_tokenHolder);\n        _validateOperatorAndPartition(_partition, _tokenHolder, msg.sender);\n        _redeemByPartition(_partition, _tokenHolder, _value, msg.sender, _data, _operatorData);\n    }\n\n    function _checkAndBurn(address _from, uint256 _value, bytes memory _data) internal returns(bool verified) {\n        verified = _updateTransfer(_from, address(0), _value, _data);\n        _burn(_from, _value);\n        emit Redeemed(address(0), msg.sender, _value, _data);\n    }\n\n    /**\n     * @notice This function redeem an amount of the token of a msg.sender. For doing so msg.sender may incentivize\n     * using different ways that could be implemented with in the `redeem` function definition. But those implementations\n     * are out of the scope of the ERC1594.\n     * @dev It is analogy to `transferFrom`\n     * @param _tokenHolder The account whose tokens gets redeemed.\n     * @param _value The amount of tokens need to be redeemed\n     * @param _data The `bytes _data` it can be used in the token contract to authenticate the redemption.\n     */\n    function redeemFrom(address _tokenHolder, uint256 _value, bytes calldata _data) external {\n        _onlyModule(BURN_KEY);\n        // Add a function to validate the `_data` parameter\n        _isValidRedeem(_updateTransfer(_tokenHolder, address(0), _value, _data));\n        _burnFrom(_tokenHolder, _value);\n        emit Redeemed(msg.sender, _tokenHolder, _value, _data);\n    }\n\n    /**\n     * @notice Creates a checkpoint that can be used to query historical balances / totalSuppy\n     * @return uint256\n     */\n    function createCheckpoint() external returns(uint256) {\n        _onlyModuleOrOwner(CHECKPOINT_KEY);\n        // currentCheckpointId can only be incremented by 1 and hence it can not be overflowed\n        currentCheckpointId = currentCheckpointId + 1;\n        /*solium-disable-next-line security/no-block-members*/\n        checkpointTimes.push(now);\n        checkpointTotalSupply[currentCheckpointId] = totalSupply();\n        emit CheckpointCreated(currentCheckpointId, dataStore.getAddressArrayLength(INVESTORSKEY));\n        return currentCheckpointId;\n    }\n\n    /**\n     * @notice Used by the issuer to set the controller addresses\n     * @param _controller address of the controller\n     */\n    function setController(address _controller) external {\n        _onlyOwner();\n        require(isControllable());\n        emit SetController(controller, _controller);\n        controller = _controller;\n    }\n\n    /**\n     * @notice Used by the issuer to permanently disable controller functionality\n     * @dev enabled via feature switch \"disableControllerAllowed\"\n     */\n    function disableController(bytes calldata _signature) external {\n        _onlyOwner();\n        _isSignedByOwner(owner() == TokenLib.recoverDisableControllerAckSigner(_signature));\n        require(isControllable());\n        controllerDisabled = true;\n        delete controller;\n        emit DisableController();\n    }\n\n    /**\n     * @notice Transfers of securities may fail for a number of reasons. So this function will used to understand the\n     * cause of failure by getting the byte value. Which will be the ESC that follows the EIP 1066. ESC can be mapped\n     * with a reson string to understand the failure cause, table of Ethereum status code will always reside off-chain\n     * @param _to address The address which you want to transfer to\n     * @param _value uint256 the amount of tokens to be transferred\n     * @param _data The `bytes _data` allows arbitrary data to be submitted alongside the transfer.\n     * @return byte Ethereum status code (ESC)\n     * @return bytes32 Application specific reason code\n     */\n    function canTransfer(address _to, uint256 _value, bytes calldata _data) external view returns (byte, bytes32) {\n        return _canTransfer(msg.sender, _to, _value, _data);\n    }\n\n    /**\n     * @notice Transfers of securities may fail for a number of reasons. So this function will used to understand the\n     * cause of failure by getting the byte value. Which will be the ESC that follows the EIP 1066. ESC can be mapped\n     * with a reson string to understand the failure cause, table of Ethereum status code will always reside off-chain\n     * @param _from address The address which you want to send tokens from\n     * @param _to address The address which you want to transfer to\n     * @param _value uint256 the amount of tokens to be transferred\n     * @param _data The `bytes _data` allows arbitrary data to be submitted alongside the transfer.\n     * @return byte Ethereum status code (ESC)\n     * @return bytes32 Application specific reason code\n     */\n    function canTransferFrom(address _from, address _to, uint256 _value, bytes calldata _data) external view returns (byte reasonCode, bytes32 appCode) {\n        (reasonCode, appCode) = _canTransfer(_from, _to, _value, _data);\n        if (_isSuccess(reasonCode) && _value > allowance(_from, msg.sender)) {\n            return (StatusCodes.code(StatusCodes.Status.InsufficientAllowance), bytes32(0));\n        }\n    }\n\n    function _canTransfer(address _from, address _to, uint256 _value, bytes memory _data) internal view returns (byte, bytes32) {\n        bytes32 appCode;\n        bool success;\n        if (_value % granularity != 0) {\n            return (StatusCodes.code(StatusCodes.Status.TransferFailure), bytes32(0));\n        }\n        (success, appCode) = TokenLib.verifyTransfer(modules[TRANSFER_KEY], modulesToData, _from, _to, _value, _data, transfersFrozen);\n        return TokenLib.canTransfer(success, appCode, _to, _value, balanceOf(_from));\n    }\n\n    /**\n     * @notice The standard provides an on-chain function to determine whether a transfer will succeed,\n     * and return details indicating the reason if the transfer is not valid.\n     * @param _from The address from whom the tokens get transferred.\n     * @param _to The address to which to transfer tokens to.\n     * @param _partition The partition from which to transfer tokens\n     * @param _value The amount of tokens to transfer from `_partition`\n     * @param _data Additional data attached to the transfer of tokens\n     * @return ESC (Ethereum Status Code) following the EIP-1066 standard\n     * @return Application specific reason codes with additional details\n     * @return The partition to which the transferred tokens were allocated for the _to address\n     */\n    function canTransferByPartition(\n        address _from,\n        address _to,\n        bytes32 _partition,\n        uint256 _value,\n        bytes calldata _data\n    )\n        external\n        view\n        returns (byte reasonCode, bytes32 appStatusCode, bytes32 toPartition)\n    {\n        if (_partition == UNLOCKED) {\n            (reasonCode, appStatusCode) = _canTransfer(_from, _to, _value, _data);\n            if (_isSuccess(reasonCode)) {\n                uint256 beforeBalance = _balanceOfByPartition(LOCKED, _to, 0);\n                uint256 afterbalance = _balanceOfByPartition(LOCKED, _to, _value);\n                toPartition = _returnPartition(beforeBalance, afterbalance, _value);\n            }\n            return (reasonCode, appStatusCode, toPartition);\n        }\n        return (StatusCodes.code(StatusCodes.Status.TransferFailure), bytes32(0), bytes32(0));\n    }\n\n    /**\n     * @notice Used to attach a new document to the contract, or update the URI or hash of an existing attached document\n     * @dev Can only be executed by the owner of the contract.\n     * @param _name Name of the document. It should be unique always\n     * @param _uri Off-chain uri of the document from where it is accessible to investors/advisors to read.\n     * @param _documentHash hash (of the contents) of the document.\n     */\n    function setDocument(bytes32 _name, string calldata _uri, bytes32 _documentHash) external {\n        _onlyOwner();\n        TokenLib.setDocument(_documents, _docNames, _docIndexes, _name, _uri, _documentHash);\n    }\n\n    /**\n     * @notice Used to remove an existing document from the contract by giving the name of the document.\n     * @dev Can only be executed by the owner of the contract.\n     * @param _name Name of the document. It should be unique always\n     */\n    function removeDocument(bytes32 _name) external {\n        _onlyOwner();\n        TokenLib.removeDocument(_documents, _docNames, _docIndexes, _name);\n    }\n\n    /**\n     * @notice In order to provide transparency over whether `controllerTransfer` / `controllerRedeem` are useable\n     * or not `isControllable` function will be used.\n     * @dev If `isControllable` returns `false` then it always return `false` and\n     * `controllerTransfer` / `controllerRedeem` will always revert.\n     * @return bool `true` when controller address is non-zero otherwise return `false`.\n     */\n    function isControllable() public view returns (bool) {\n        return !controllerDisabled;\n    }\n\n    /**\n     * @notice This function allows an authorised address to transfer tokens between any two token holders.\n     * The transfer must still respect the balances of the token holders (so the transfer must be for at most\n     * `balanceOf(_from)` tokens) and potentially also need to respect other transfer restrictions.\n     * @dev This function can only be executed by the `controller` address.\n     * @param _from Address The address which you want to send tokens from\n     * @param _to Address The address which you want to transfer to\n     * @param _value uint256 the amount of tokens to be transferred\n     * @param _data data to validate the transfer. (It is not used in this reference implementation\n     * because use of `_data` parameter is implementation specific).\n     * @param _operatorData data attached to the transfer by controller to emit in event. (It is more like a reason string\n     * for calling this function (aka force transfer) which provides the transparency on-chain).\n     */\n    function controllerTransfer(address _from, address _to, uint256 _value, bytes calldata _data, bytes calldata _operatorData) external {\n        _onlyController();\n        _updateTransfer(_from, _to, _value, _data);\n        _transfer(_from, _to, _value);\n        emit ControllerTransfer(msg.sender, _from, _to, _value, _data, _operatorData);\n    }\n\n    /**\n     * @notice This function allows an authorised address to redeem tokens for any token holder.\n     * The redemption must still respect the balances of the token holder (so the redemption must be for at most\n     * `balanceOf(_tokenHolder)` tokens) and potentially also need to respect other transfer restrictions.\n     * @dev This function can only be executed by the `controller` address.\n     * @param _tokenHolder The account whose tokens will be redeemed.\n     * @param _value uint256 the amount of tokens need to be redeemed.\n     * @param _data data to validate the transfer. (It is not used in this reference implementation\n     * because use of `_data` parameter is implementation specific).\n     * @param _operatorData data attached to the transfer by controller to emit in event. (It is more like a reason string\n     * for calling this function (aka force transfer) which provides the transparency on-chain).\n     */\n    function controllerRedeem(address _tokenHolder, uint256 _value, bytes calldata _data, bytes calldata _operatorData) external {\n        _onlyController();\n        _checkAndBurn(_tokenHolder, _value, _data);\n        emit ControllerRedemption(msg.sender, _tokenHolder, _value, _data, _operatorData);\n    }\n\n    function _implementation() internal view returns(address) {\n        return getterDelegate;\n    }\n\n    function updateFromRegistry() public {\n        _onlyOwner();\n        moduleRegistry = IModuleRegistry(polymathRegistry.getAddress(\"ModuleRegistry\"));\n        securityTokenRegistry = ISecurityTokenRegistry(polymathRegistry.getAddress(\"SecurityTokenRegistry\"));\n        polyToken = IERC20(polymathRegistry.getAddress(\"PolyToken\"));\n    }\n\n    //Ownable Functions\n\n    /**\n     * @return the address of the owner.\n     */\n    function owner() public view returns (address) {\n        return _owner;\n    }\n\n    /**\n     * @return true if `msg.sender` is the owner of the contract.\n     */\n    function isOwner() public view returns (bool) {\n        return msg.sender == _owner;\n    }\n\n    /**\n     * @dev Allows the current owner to transfer control of the contract to a newOwner.\n     * @param newOwner The address to transfer ownership to.\n     */\n    function transferOwnership(address newOwner) external {\n        _onlyOwner();\n        _transferOwnership(newOwner);\n    }\n\n    /**\n     * @dev Transfers control of the contract to a newOwner.\n     * @param newOwner The address to transfer ownership to.\n     */\n    function _transferOwnership(address newOwner) internal {\n        require(newOwner != address(0));\n        emit OwnershipTransferred(_owner, newOwner);\n        _owner = newOwner;\n    }\n\n    /**\n    * @dev Check if a status code represents success (ie: 0x*1)\n    * @param status Binary ERC-1066 status code\n    * @return successful A boolean representing if the status code represents success\n    */\n    function _isSuccess(byte status) internal pure returns (bool successful) {\n        return (status & 0x0F) == 0x01;\n    }\n}\n",
  "sourcePath": "/Users/federicoelgarte/Polymath/polymath-core/contracts/tokens/SecurityToken.sol",
  "compiler": {
    "name": "solc",
    "version": "0.5.8+commit.23d335f2.Emscripten.clang"
  },
  "schemaVersion": "3.0.2",
  "updatedAt": "2019-07-19T14:56:31.450Z",
  "devdoc": {
    "methods": {
      "addModuleWithLabel(address,bytes,uint256,uint256,bytes32,bool)": {
        "details": "E.G.: On deployment (through the STR) ST gets a TransferManager module attached to itto control restrictions on transfers.",
        "params": {
          "_budget": "max amount of ongoing POLY willing to assign to the module.",
          "_data": "is data packed into bytes used to further configure the module (See STO usage)",
          "_label": "custom module label.",
          "_maxCost": "max amount of POLY willing to pay to the module.",
          "_moduleFactory": "is the address of the module factory to be added"
        }
      },
      "allowance(address,address)": {
        "details": "Function to check the amount of tokens that an owner allowed to a spender.",
        "params": {
          "owner": "address The address which owns the funds.",
          "spender": "address The address which will spend the funds."
        },
        "return": "A uint256 specifying the amount of tokens still available for the spender."
      },
      "approve(address,uint256)": {
        "details": "Approve the passed address to spend the specified amount of tokens on behalf of msg.sender. Beware that changing an allowance with this method brings the risk that someone may use both the old and the new allowance by unfortunate transaction ordering. One possible solution to mitigate this race condition is to first reduce the spender's allowance to 0 and set the desired value afterwards: https://github.com/ethereum/EIPs/issues/20#issuecomment-263524729",
        "params": {
          "spender": "The address which will spend the funds.",
          "value": "The amount of tokens to be spent."
        }
      },
      "archiveModule(address)": {
        "params": {
          "_module": "address of module to archive"
        }
      },
      "authorizeOperator(address)": {
        "params": {
          "_operator": "An address which is being authorised."
        }
      },
      "authorizeOperatorByPartition(bytes32,address)": {
        "params": {
          "_operator": "An address which is being authorised",
          "_partition": "The partition to which the operator is authorised"
        }
      },
      "balanceOf(address)": {
        "details": "Gets the balance of the specified address.",
        "params": {
          "owner": "The address to query the balance of."
        },
        "return": "A uint256 representing the amount owned by the passed address."
      },
      "balanceOfByPartition(bytes32,address)": {
        "params": {
          "_partition": "Partition which differentiate the tokens.",
          "_tokenHolder": "Whom balance need to queried"
        },
        "return": "Amount of tokens as per the given partitions"
      },
      "canTransfer(address,uint256,bytes)": {
        "params": {
          "_data": "The `bytes _data` allows arbitrary data to be submitted alongside the transfer.",
          "_to": "address The address which you want to transfer to",
          "_value": "uint256 the amount of tokens to be transferred"
        },
        "return": "byte Ethereum status code (ESC)bytes32 Application specific reason code"
      },
      "canTransferByPartition(address,address,bytes32,uint256,bytes)": {
        "params": {
          "_data": "Additional data attached to the transfer of tokens",
          "_from": "The address from whom the tokens get transferred.",
          "_partition": "The partition from which to transfer tokens",
          "_to": "The address to which to transfer tokens to.",
          "_value": "The amount of tokens to transfer from `_partition`"
        },
        "return": "ESC (Ethereum Status Code) following the EIP-1066 standardApplication specific reason codes with additional detailsThe partition to which the transferred tokens were allocated for the _to address"
      },
      "canTransferFrom(address,address,uint256,bytes)": {
        "params": {
          "_data": "The `bytes _data` allows arbitrary data to be submitted alongside the transfer.",
          "_from": "address The address which you want to send tokens from",
          "_to": "address The address which you want to transfer to",
          "_value": "uint256 the amount of tokens to be transferred"
        },
        "return": "byte Ethereum status code (ESC)bytes32 Application specific reason code"
      },
      "changeDataStore(address)": {
        "params": {
          "_dataStore": "Address of the token data store"
        }
      },
      "changeGranularity(uint256)": {
        "params": {
          "_granularity": "granularity level of the token"
        }
      },
      "changeModuleBudget(address,uint256,bool)": {
        "params": {
          "_change": "change in allowance",
          "_increase": "true if budget has to be increased, false if decrease",
          "_module": "module address"
        }
      },
      "changeName(string)": {
        "params": {
          "_name": "new name of the token"
        }
      },
      "changeTreasuryWallet(address)": {
        "params": {
          "_wallet": "Ethereum address of the treasury wallet"
        }
      },
      "controllerRedeem(address,uint256,bytes,bytes)": {
        "details": "This function can only be executed by the `controller` address.",
        "params": {
          "_data": "data to validate the transfer. (It is not used in this reference implementation because use of `_data` parameter is implementation specific).",
          "_operatorData": "data attached to the transfer by controller to emit in event. (It is more like a reason string for calling this function (aka force transfer) which provides the transparency on-chain).",
          "_tokenHolder": "The account whose tokens will be redeemed.",
          "_value": "uint256 the amount of tokens need to be redeemed."
        }
      },
      "controllerTransfer(address,address,uint256,bytes,bytes)": {
        "details": "This function can only be executed by the `controller` address.",
        "params": {
          "_data": "data to validate the transfer. (It is not used in this reference implementation because use of `_data` parameter is implementation specific).",
          "_from": "Address The address which you want to send tokens from",
          "_operatorData": "data attached to the transfer by controller to emit in event. (It is more like a reason string for calling this function (aka force transfer) which provides the transparency on-chain).",
          "_to": "Address The address which you want to transfer to",
          "_value": "uint256 the amount of tokens to be transferred"
        }
      },
      "createCheckpoint()": {
        "return": "uint256"
      },
      "decreaseAllowance(address,uint256)": {
        "details": "Decrease the amount of tokens that an owner allowed to a spender. approve should be called when _allowed[msg.sender][spender] == 0. To decrement allowed value is better to use this function to avoid 2 calls (and wait until the first transaction is mined) From MonolithDAO Token.sol Emits an Approval event.",
        "params": {
          "spender": "The address which will spend the funds.",
          "subtractedValue": "The amount of tokens to decrease the allowance by."
        }
      },
      "disableController(bytes)": {
        "details": "enabled via feature switch \"disableControllerAllowed\""
      },
      "freezeIssuance(bytes)": {
        "details": "It MUST NOT be possible to increase `totalSuppy` after this function is called."
      },
      "increaseAllowance(address,uint256)": {
        "details": "Increase the amount of tokens that an owner allowed to a spender. approve should be called when _allowed[msg.sender][spender] == 0. To increment allowed value is better to use this function to avoid 2 calls (and wait until the first transaction is mined) From MonolithDAO Token.sol Emits an Approval event.",
        "params": {
          "addedValue": "The amount of tokens to increase the allowance by.",
          "spender": "The address which will spend the funds."
        }
      },
      "initialize(address)": {
        "details": "Expected to be called atomically with the proxy being created, by the owner of the tokenCan only be called once"
      },
      "isControllable()": {
        "details": "If `isControllable` returns `false` then it always return `false` and `controllerTransfer` / `controllerRedeem` will always revert.",
        "return": "bool `true` when controller address is non-zero otherwise return `false`."
      },
      "isModule(address,uint8)": {
        "params": {
          "_module": "Address to check",
          "_type": "type to check against"
        }
      },
      "isOwner()": {
        "return": "true if `msg.sender` is the owner of the contract."
      },
      "issue(address,uint256,bytes)": {
        "details": "It only be called by the token issuer or the operator defined by the issuer. ERC1594 doesn't have have the any logic related to operator but its superset ERC1400 have the operator logic and this function is allowed to call by the operator.",
        "params": {
          "_data": "The `bytes _data` allows arbitrary data to be submitted alongside the transfer.",
          "_tokenHolder": "The account that will receive the created tokens (account should be whitelisted or KYCed).",
          "_value": "The amount of tokens need to be issued"
        }
      },
      "issueByPartition(bytes32,address,uint256,bytes)": {
        "params": {
          "_data": "Additional data attached to the minting of tokens",
          "_partition": "The partition to allocate the increase in balance",
          "_tokenHolder": "The token holder whose balance should be increased",
          "_value": "The amount by which to increase the balance"
        }
      },
      "issueMulti(address[],uint256[])": {
        "details": "Can only be called by the issuer or STO attached to the token.",
        "params": {
          "_tokenHolders": "A list of addresses to whom the minted tokens will be dilivered",
          "_values": "A list of number of tokens get minted and transfer to corresponding address of the investor from _tokenHolders[] list"
        },
        "return": "success"
      },
      "operatorRedeemByPartition(bytes32,address,uint256,bytes,bytes)": {
        "details": "This function can only be called by the authorised operator.",
        "params": {
          "_data": "Additional data attached to the burning of tokens",
          "_operatorData": "Additional data attached to the transfer of tokens by the operator",
          "_partition": "The partition to allocate the decrease in balance.",
          "_tokenHolder": "The token holder whose balance should be decreased",
          "_value": "The amount by which to decrease the balance"
        }
      },
      "operatorTransferByPartition(bytes32,address,address,uint256,bytes,bytes)": {
        "params": {
          "_data": "Additional data attached to the transfer of tokens",
          "_from": "The address from which to transfer tokens from",
          "_operatorData": "Additional data attached to the transfer of tokens by the operator",
          "_partition": "The partition from which to transfer tokens.",
          "_to": "The address to which to transfer tokens to",
          "_value": "The amount of tokens to transfer from `_partition`"
        },
        "return": "The partition to which the transferred tokens were allocated for the _to address"
      },
      "owner()": {
        "return": "the address of the owner."
      },
      "redeem(uint256,bytes)": {
        "params": {
          "_data": "The `bytes _data` it can be used in the token contract to authenticate the redemption.",
          "_value": "The amount of tokens need to be redeemed"
        }
      },
      "redeemByPartition(bytes32,uint256,bytes)": {
        "params": {
          "_data": "Additional data attached to the burning of tokens",
          "_partition": "The partition to allocate the decrease in balance",
          "_value": "The amount by which to decrease the balance"
        }
      },
      "redeemFrom(address,uint256,bytes)": {
        "details": "It is analogy to `transferFrom`",
        "params": {
          "_data": "The `bytes _data` it can be used in the token contract to authenticate the redemption.",
          "_tokenHolder": "The account whose tokens gets redeemed.",
          "_value": "The amount of tokens need to be redeemed"
        }
      },
      "removeDocument(bytes32)": {
        "details": "Can only be executed by the owner of the contract.",
        "params": {
          "_name": "Name of the document. It should be unique always"
        }
      },
      "removeModule(address)": {
        "params": {
          "_module": "address of module to unarchive"
        }
      },
      "revokeOperator(address)": {
        "params": {
          "_operator": "An address which is being de-authorised"
        }
      },
      "revokeOperatorByPartition(bytes32,address)": {
        "params": {
          "_operator": "An address which is being de-authorised",
          "_partition": "The partition to which the operator is de-authorised"
        }
      },
      "setController(address)": {
        "params": {
          "_controller": "address of the controller"
        }
      },
      "setDocument(bytes32,string,bytes32)": {
        "details": "Can only be executed by the owner of the contract.",
        "params": {
          "_documentHash": "hash (of the contents) of the document.",
          "_name": "Name of the document. It should be unique always",
          "_uri": "Off-chain uri of the document from where it is accessible to investors/advisors to read."
        }
      },
      "totalSupply()": {
        "details": "Total number of tokens in existence"
      },
      "transfer(address,uint256)": {
        "params": {
          "_to": "receiver of transfer",
          "_value": "value of transfer"
        },
        "return": "bool success"
      },
      "transferByPartition(bytes32,address,uint256,bytes)": {
        "params": {
          "_data": "Additional data attached to the transfer of tokens",
          "_partition": "The partition from which to transfer tokens",
          "_to": "The address to which to transfer tokens to",
          "_value": "The amount of tokens to transfer from `_partition`"
        },
        "return": "The partition to which the transferred tokens were allocated for the _to address"
      },
      "transferFrom(address,address,uint256)": {
        "params": {
          "_from": "sender of transfer",
          "_to": "receiver of transfer",
          "_value": "value of transfer"
        },
        "return": "bool success"
      },
      "transferFromWithData(address,address,uint256,bytes)": {
        "details": "`msg.sender` MUST have a sufficient `allowance` set and this `allowance` must be debited by the `_value`.",
        "params": {
          "_data": "The `bytes _data` allows arbitrary data to be submitted alongside the transfer. for the token contract to interpret or record. This could be signed data authorising the transfer (e.g. a dynamic whitelist) but is flexible enough to accomadate other use-cases.",
          "_from": "address The address which you want to send tokens from",
          "_to": "address The address which you want to transfer to",
          "_value": "uint256 the amount of tokens to be transferred"
        }
      },
      "transferOwnership(address)": {
        "details": "Allows the current owner to transfer control of the contract to a newOwner.",
        "params": {
          "newOwner": "The address to transfer ownership to."
        }
      },
      "transferWithData(address,uint256,bytes)": {
        "params": {
          "_data": "The `bytes _data` allows arbitrary data to be submitted alongside the transfer. for the token contract to interpret or record. This could be signed data authorising the transfer (e.g. a dynamic whitelist) but is flexible enough to accomadate other use-cases.",
          "_to": "address The address which you want to transfer to",
          "_value": "uint256 the amount of tokens to be transferred"
        }
      },
      "unarchiveModule(address)": {
        "params": {
          "_module": "address of module to unarchive"
        }
      },
      "updateTokenDetails(string)": {
        "params": {
          "_newTokenDetails": "New token details"
        }
      },
      "upgradeModule(address)": {
        "params": {
          "_module": "address of module to archive"
        }
      },
      "withdrawERC20(address,uint256)": {
        "details": "Owner can transfer POLY to the ST which will be used to pay for modules that require a POLY fee.",
        "params": {
          "_tokenContract": "Address of the ERC20Basic compliance token",
          "_value": "amount of POLY to withdraw"
        }
      }
    },
    "title": "Security Token contract"
  },
  "userdoc": {
    "methods": {
      "addModule(address,bytes,uint256,uint256,bool)": {
        "notice": "addModule function will call addModuleWithLabel() with an empty label for backward compatible"
      },
      "addModuleWithLabel(address,bytes,uint256,uint256,bytes32,bool)": {
        "notice": "Attachs a module to the SecurityToken"
      },
      "archiveModule(address)": {
        "notice": "Archives a module attached to the SecurityToken"
      },
      "authorizeOperator(address)": {
        "notice": "Authorises an operator for all partitions of `msg.sender`. NB - Allowing investors to authorize an investor to be an operator of all partitions but it doesn't mean we operator is allowed to transfer the LOCKED partition values. Logic for this restriction is written in `operatorTransferByPartition()` function."
      },
      "authorizeOperatorByPartition(bytes32,address)": {
        "notice": "Authorises an operator for a given partition of `msg.sender`"
      },
      "balanceOfByPartition(bytes32,address)": {
        "notice": "Get the balance according to the provided partitions"
      },
      "canTransfer(address,uint256,bytes)": {
        "notice": "Transfers of securities may fail for a number of reasons. So this function will used to understand the cause of failure by getting the byte value. Which will be the ESC that follows the EIP 1066. ESC can be mapped with a reson string to understand the failure cause, table of Ethereum status code will always reside off-chain"
      },
      "canTransferByPartition(address,address,bytes32,uint256,bytes)": {
        "notice": "The standard provides an on-chain function to determine whether a transfer will succeed, and return details indicating the reason if the transfer is not valid."
      },
      "canTransferFrom(address,address,uint256,bytes)": {
        "notice": "Transfers of securities may fail for a number of reasons. So this function will used to understand the cause of failure by getting the byte value. Which will be the ESC that follows the EIP 1066. ESC can be mapped with a reson string to understand the failure cause, table of Ethereum status code will always reside off-chain"
      },
      "changeDataStore(address)": {
        "notice": "Allows owner to change data store"
      },
      "changeGranularity(uint256)": {
        "notice": "Allows owner to change token granularity"
      },
      "changeModuleBudget(address,uint256,bool)": {
        "notice": "allows owner to increase/decrease POLY approval of one of the modules"
      },
      "changeName(string)": {
        "notice": "Allows owner to change token name"
      },
      "changeTreasuryWallet(address)": {
        "notice": "Allows to change the treasury wallet address"
      },
      "controllerRedeem(address,uint256,bytes,bytes)": {
        "notice": "This function allows an authorised address to redeem tokens for any token holder. The redemption must still respect the balances of the token holder (so the redemption must be for at most `balanceOf(_tokenHolder)` tokens) and potentially also need to respect other transfer restrictions."
      },
      "controllerTransfer(address,address,uint256,bytes,bytes)": {
        "notice": "This function allows an authorised address to transfer tokens between any two token holders. The transfer must still respect the balances of the token holders (so the transfer must be for at most `balanceOf(_from)` tokens) and potentially also need to respect other transfer restrictions."
      },
      "createCheckpoint()": {
        "notice": "Creates a checkpoint that can be used to query historical balances / totalSuppy"
      },
      "disableController(bytes)": {
        "notice": "Used by the issuer to permanently disable controller functionality"
      },
      "freezeIssuance(bytes)": {
        "notice": "Permanently freeze issuance of this security token."
      },
      "freezeTransfers()": {
        "notice": "freezes transfers"
      },
      "initialize(address)": {
        "notice": "Initialization function"
      },
      "isControllable()": {
        "notice": "In order to provide transparency over whether `controllerTransfer` / `controllerRedeem` are useable or not `isControllable` function will be used."
      },
      "isModule(address,uint8)": {
        "notice": "Checks if an address is a module of certain type"
      },
      "issue(address,uint256,bytes)": {
        "notice": "This function must be called to increase the total supply (Corresponds to mint function of ERC20)."
      },
      "issueByPartition(bytes32,address,uint256,bytes)": {
        "notice": "Increases totalSupply and the corresponding amount of the specified owners partition"
      },
      "issueMulti(address[],uint256[])": {
        "notice": "issue new tokens and assigns them to the target _tokenHolder."
      },
      "operatorRedeemByPartition(bytes32,address,uint256,bytes,bytes)": {
        "notice": "Decreases totalSupply and the corresponding amount of the specified partition of tokenHolder"
      },
      "operatorTransferByPartition(bytes32,address,address,uint256,bytes,bytes)": {
        "notice": "Transfers the ownership of tokens from a specified partition from one address to another address"
      },
      "redeem(uint256,bytes)": {
        "notice": "This function redeem an amount of the token of a msg.sender. For doing so msg.sender may incentivize using different ways that could be implemented with in the `redeem` function definition. But those implementations are out of the scope of the ERC1594."
      },
      "redeemByPartition(bytes32,uint256,bytes)": {
        "notice": "Decreases totalSupply and the corresponding amount of the specified partition of msg.sender"
      },
      "redeemFrom(address,uint256,bytes)": {
        "notice": "This function redeem an amount of the token of a msg.sender. For doing so msg.sender may incentivize using different ways that could be implemented with in the `redeem` function definition. But those implementations are out of the scope of the ERC1594."
      },
      "removeDocument(bytes32)": {
        "notice": "Used to remove an existing document from the contract by giving the name of the document."
      },
      "removeModule(address)": {
        "notice": "Removes a module attached to the SecurityToken"
      },
      "revokeOperator(address)": {
        "notice": "Revokes authorisation of an operator previously given for all partitions of `msg.sender`. NB - Allowing investors to authorize an investor to be an operator of all partitions but it doesn't mean we operator is allowed to transfer the LOCKED partition values. Logic for this restriction is written in `operatorTransferByPartition()` function."
      },
      "revokeOperatorByPartition(bytes32,address)": {
        "notice": "Revokes authorisation of an operator previously given for a specified partition of `msg.sender`"
      },
      "setController(address)": {
        "notice": "Used by the issuer to set the controller addresses"
      },
      "setDocument(bytes32,string,bytes32)": {
        "notice": "Used to attach a new document to the contract, or update the URI or hash of an existing attached document"
      },
      "transfer(address,uint256)": {
        "notice": "Overloaded version of the transfer function"
      },
      "transferByPartition(bytes32,address,uint256,bytes)": {
        "notice": "Transfers the ownership of tokens from a specified partition from one address to another address"
      },
      "transferFrom(address,address,uint256)": {
        "notice": "Overloaded version of the transferFrom function"
      },
      "transferFromWithData(address,address,uint256,bytes)": {
        "notice": "Transfer restrictions can take many forms and typically involve on-chain rules or whitelists. However for many types of approved transfers, maintaining an on-chain list of approved transfers can be cumbersome and expensive. An alternative is the co-signing approach, where in addition to the token holder approving a token transfer, and authorised entity provides signed data which further validates the transfer."
      },
      "transferWithData(address,uint256,bytes)": {
        "notice": "Transfer restrictions can take many forms and typically involve on-chain rules or whitelists. However for many types of approved transfers, maintaining an on-chain list of approved transfers can be cumbersome and expensive. An alternative is the co-signing approach, where in addition to the token holder approving a token transfer, and authorised entity provides signed data which further validates the transfer."
      },
      "unarchiveModule(address)": {
        "notice": "Unarchives a module attached to the SecurityToken"
      },
      "unfreezeTransfers()": {
        "notice": "Unfreeze transfers"
      },
      "updateTokenDetails(string)": {
        "notice": "updates the tokenDetails associated with the token"
      },
      "upgradeModule(address)": {
        "notice": "Upgrades a module attached to the SecurityToken"
      },
      "upgradeToken()": {
        "notice": "Upgrades security token"
      },
      "withdrawERC20(address,uint256)": {
        "notice": "Allows the owner to withdraw unspent POLY stored by them on the ST or any ERC20 token."
      }
    },
    "notice": "SecurityToken is an ERC1400 token with added capabilities:- Implements the ERC1400 Interface- Transfers are restricted- Modules can be attached to it to control its behaviour- ST should not be deployed directly, but rather the SecurityTokenRegistry should be used- ST does not inherit from ISecurityToken due to:- https://github.com/ethereum/solidity/issues/4847"
  }
}