{
  "contractName": "USDTieredSTOFactory",
  "abi": [
    {
      "constant": true,
      "inputs": [],
      "name": "name",
      "outputs": [
        {
          "name": "",
          "type": "bytes32"
        }
      ],
      "payable": false,
      "stateMutability": "view",
      "type": "function"
    },
    {
      "constant": false,
      "inputs": [
        {
          "name": "_module",
          "type": "address"
        }
      ],
      "name": "upgrade",
      "outputs": [],
      "payable": false,
      "stateMutability": "nonpayable",
      "type": "function"
    },
    {
      "constant": false,
      "inputs": [
        {
          "name": "_setupCost",
          "type": "uint256"
        }
      ],
      "name": "changeSetupCost",
      "outputs": [],
      "payable": false,
      "stateMutability": "nonpayable",
      "type": "function"
    },
    {
      "constant": false,
      "inputs": [
        {
          "name": "_tagsData",
          "type": "bytes32[]"
        }
      ],
      "name": "changeTags",
      "outputs": [],
      "payable": false,
      "stateMutability": "nonpayable",
      "type": "function"
    },
    {
      "constant": false,
      "inputs": [],
      "name": "setupCostInPoly",
      "outputs": [
        {
          "name": "",
          "type": "uint256"
        }
      ],
      "payable": false,
      "stateMutability": "nonpayable",
      "type": "function"
    },
    {
      "constant": false,
      "inputs": [
        {
          "name": "_title",
          "type": "string"
        }
      ],
      "name": "changeTitle",
      "outputs": [],
      "payable": false,
      "stateMutability": "nonpayable",
      "type": "function"
    },
    {
      "constant": false,
      "inputs": [
        {
          "name": "_version",
          "type": "string"
        },
        {
          "name": "_logicContract",
          "type": "address"
        },
        {
          "name": "_upgradeData",
          "type": "bytes"
        }
      ],
      "name": "setLogicContract",
      "outputs": [],
      "payable": false,
      "stateMutability": "nonpayable",
      "type": "function"
    },
    {
      "constant": true,
      "inputs": [],
      "name": "isCostInPoly",
      "outputs": [
        {
          "name": "",
          "type": "bool"
        }
      ],
      "payable": false,
      "stateMutability": "view",
      "type": "function"
    },
    {
      "constant": true,
      "inputs": [],
      "name": "title",
      "outputs": [
        {
          "name": "",
          "type": "string"
        }
      ],
      "payable": false,
      "stateMutability": "view",
      "type": "function"
    },
    {
      "constant": true,
      "inputs": [],
      "name": "version",
      "outputs": [
        {
          "name": "",
          "type": "string"
        }
      ],
      "payable": false,
      "stateMutability": "view",
      "type": "function"
    },
    {
      "constant": true,
      "inputs": [],
      "name": "latestUpgrade",
      "outputs": [
        {
          "name": "",
          "type": "uint256"
        }
      ],
      "payable": false,
      "stateMutability": "view",
      "type": "function"
    },
    {
      "constant": true,
      "inputs": [
        {
          "name": "",
          "type": "uint256"
        }
      ],
      "name": "logicContracts",
      "outputs": [
        {
          "name": "version",
          "type": "string"
        },
        {
          "name": "logicContract",
          "type": "address"
        },
        {
          "name": "upgradeData",
          "type": "bytes"
        }
      ],
      "payable": false,
      "stateMutability": "view",
      "type": "function"
    },
    {
      "constant": true,
      "inputs": [],
      "name": "lowerSTVersionBounds",
      "outputs": [
        {
          "name": "",
          "type": "uint8[]"
        }
      ],
      "payable": false,
      "stateMutability": "view",
      "type": "function"
    },
    {
      "constant": false,
      "inputs": [],
      "name": "renounceOwnership",
      "outputs": [],
      "payable": false,
      "stateMutability": "nonpayable",
      "type": "function"
    },
    {
      "constant": true,
      "inputs": [],
      "name": "description",
      "outputs": [
        {
          "name": "",
          "type": "string"
        }
      ],
      "payable": false,
      "stateMutability": "view",
      "type": "function"
    },
    {
      "constant": true,
      "inputs": [],
      "name": "polymathRegistry",
      "outputs": [
        {
          "name": "",
          "type": "address"
        }
      ],
      "payable": false,
      "stateMutability": "view",
      "type": "function"
    },
    {
      "constant": true,
      "inputs": [],
      "name": "setupCost",
      "outputs": [
        {
          "name": "",
          "type": "uint256"
        }
      ],
      "payable": false,
      "stateMutability": "view",
      "type": "function"
    },
    {
      "constant": false,
      "inputs": [
        {
          "name": "_name",
          "type": "bytes32"
        }
      ],
      "name": "changeName",
      "outputs": [],
      "payable": false,
      "stateMutability": "nonpayable",
      "type": "function"
    },
    {
      "constant": true,
      "inputs": [],
      "name": "owner",
      "outputs": [
        {
          "name": "",
          "type": "address"
        }
      ],
      "payable": false,
      "stateMutability": "view",
      "type": "function"
    },
    {
      "constant": true,
      "inputs": [],
      "name": "isOwner",
      "outputs": [
        {
          "name": "",
          "type": "bool"
        }
      ],
      "payable": false,
      "stateMutability": "view",
      "type": "function"
    },
    {
      "constant": true,
      "inputs": [
        {
          "name": "",
          "type": "address"
        },
        {
          "name": "",
          "type": "address"
        }
      ],
      "name": "modules",
      "outputs": [
        {
          "name": "",
          "type": "uint256"
        }
      ],
      "payable": false,
      "stateMutability": "view",
      "type": "function"
    },
    {
      "constant": true,
      "inputs": [
        {
          "name": "",
          "type": "address"
        }
      ],
      "name": "moduleToSecurityToken",
      "outputs": [
        {
          "name": "",
          "type": "address"
        }
      ],
      "payable": false,
      "stateMutability": "view",
      "type": "function"
    },
    {
      "constant": true,
      "inputs": [],
      "name": "upperSTVersionBounds",
      "outputs": [
        {
          "name": "",
          "type": "uint8[]"
        }
      ],
      "payable": false,
      "stateMutability": "view",
      "type": "function"
    },
    {
      "constant": false,
      "inputs": [
        {
          "name": "_setupCost",
          "type": "uint256"
        },
        {
          "name": "_isCostInPoly",
          "type": "bool"
        }
      ],
      "name": "changeCostAndType",
      "outputs": [],
      "payable": false,
      "stateMutability": "nonpayable",
      "type": "function"
    },
    {
      "constant": true,
      "inputs": [],
      "name": "types",
      "outputs": [
        {
          "name": "",
          "type": "uint8[]"
        }
      ],
      "payable": false,
      "stateMutability": "view",
      "type": "function"
    },
    {
      "constant": false,
      "inputs": [
        {
          "name": "_upgrade",
          "type": "uint256"
        },
        {
          "name": "_version",
          "type": "string"
        },
        {
          "name": "_logicContract",
          "type": "address"
        },
        {
          "name": "_upgradeData",
          "type": "bytes"
        }
      ],
      "name": "updateLogicContract",
      "outputs": [],
      "payable": false,
      "stateMutability": "nonpayable",
      "type": "function"
    },
    {
      "constant": true,
      "inputs": [],
      "name": "tags",
      "outputs": [
        {
          "name": "",
          "type": "bytes32[]"
        }
      ],
      "payable": false,
      "stateMutability": "view",
      "type": "function"
    },
    {
      "constant": false,
      "inputs": [
        {
          "name": "_description",
          "type": "string"
        }
      ],
      "name": "changeDescription",
      "outputs": [],
      "payable": false,
      "stateMutability": "nonpayable",
      "type": "function"
    },
    {
      "constant": false,
      "inputs": [
        {
          "name": "newOwner",
          "type": "address"
        }
      ],
      "name": "transferOwnership",
      "outputs": [],
      "payable": false,
      "stateMutability": "nonpayable",
      "type": "function"
    },
    {
      "constant": false,
      "inputs": [
        {
          "name": "_boundType",
          "type": "string"
        },
        {
          "name": "_newVersion",
          "type": "uint8[]"
        }
      ],
      "name": "changeSTVersionBounds",
      "outputs": [],
      "payable": false,
      "stateMutability": "nonpayable",
      "type": "function"
    },
    {
      "inputs": [
        {
          "name": "_setupCost",
          "type": "uint256"
        },
        {
          "name": "_logicContract",
          "type": "address"
        },
        {
          "name": "_polymathRegistry",
          "type": "address"
        },
        {
          "name": "_isCostInPoly",
          "type": "bool"
        }
      ],
      "payable": false,
      "stateMutability": "nonpayable",
      "type": "constructor"
    },
    {
      "anonymous": false,
      "inputs": [
        {
          "indexed": false,
          "name": "_version",
          "type": "string"
        },
        {
          "indexed": false,
          "name": "_upgrade",
          "type": "uint256"
        },
        {
          "indexed": false,
          "name": "_logicContract",
          "type": "address"
        },
        {
          "indexed": false,
          "name": "_upgradeData",
          "type": "bytes"
        }
      ],
      "name": "LogicContractSet",
      "type": "event"
    },
    {
      "anonymous": false,
      "inputs": [
        {
          "indexed": true,
          "name": "_module",
          "type": "address"
        },
        {
          "indexed": true,
          "name": "_securityToken",
          "type": "address"
        },
        {
          "indexed": true,
          "name": "_version",
          "type": "uint256"
        }
      ],
      "name": "ModuleUpgraded",
      "type": "event"
    },
    {
      "anonymous": false,
      "inputs": [
        {
          "indexed": true,
          "name": "previousOwner",
          "type": "address"
        },
        {
          "indexed": true,
          "name": "newOwner",
          "type": "address"
        }
      ],
      "name": "OwnershipTransferred",
      "type": "event"
    },
    {
      "anonymous": false,
      "inputs": [
        {
          "indexed": false,
          "name": "_oldSetupCost",
          "type": "uint256"
        },
        {
          "indexed": false,
          "name": "_newSetupCost",
          "type": "uint256"
        }
      ],
      "name": "ChangeSetupCost",
      "type": "event"
    },
    {
      "anonymous": false,
      "inputs": [
        {
          "indexed": false,
          "name": "_isOldCostInPoly",
          "type": "bool"
        },
        {
          "indexed": false,
          "name": "_isNewCostInPoly",
          "type": "bool"
        }
      ],
      "name": "ChangeCostType",
      "type": "event"
    },
    {
      "anonymous": false,
      "inputs": [
        {
          "indexed": false,
          "name": "_module",
          "type": "address"
        },
        {
          "indexed": true,
          "name": "_moduleName",
          "type": "bytes32"
        },
        {
          "indexed": true,
          "name": "_moduleFactory",
          "type": "address"
        },
        {
          "indexed": false,
          "name": "_creator",
          "type": "address"
        },
        {
          "indexed": false,
          "name": "_setupCost",
          "type": "uint256"
        },
        {
          "indexed": false,
          "name": "_setupCostInPoly",
          "type": "uint256"
        }
      ],
      "name": "GenerateModuleFromFactory",
      "type": "event"
    },
    {
      "anonymous": false,
      "inputs": [
        {
          "indexed": false,
          "name": "_boundType",
          "type": "string"
        },
        {
          "indexed": false,
          "name": "_major",
          "type": "uint8"
        },
        {
          "indexed": false,
          "name": "_minor",
          "type": "uint8"
        },
        {
          "indexed": false,
          "name": "_patch",
          "type": "uint8"
        }
      ],
      "name": "ChangeSTVersionBound",
      "type": "event"
    },
    {
      "constant": false,
      "inputs": [
        {
          "name": "_data",
          "type": "bytes"
        }
      ],
      "name": "deploy",
      "outputs": [
        {
          "name": "",
          "type": "address"
        }
      ],
      "payable": false,
      "stateMutability": "nonpayable",
      "type": "function"
    }
  ],
  "bytecode": "0x60806040523480156200001157600080fd5b5060405160808062005381833981018060405260808110156200003357600080fd5b50805160208083015160408085015160609095015181518083018352600581527f332e302e300000000000000000000000000000000000000000000000000000009481019490945260008054600160a060020a03191633178082559251959693959394919391928792879287928792869285928592600160a060020a039190911691907f8be0079c531659141344cd1fd0a4f28419497f9722a3daafe3b4186f6b6457e0908290a360099290925560018054600160a060020a031916600160a060020a039283161790556008805460ff19169215159290921790915583166200017d57604080517f08c379a000000000000000000000000000000000000000000000000000000000815260206004820152600f60248201527f496e76616c696420616464726573730000000000000000000000000000000000604482015290519081900360640190fd5b600e80546000908152600b602090815260408083206001018054600160a060020a031916600160a060020a038916179055925482529190208651620001c592880190620004ba565b50507f55534454696572656453544f0000000000000000000000000000000000000000600355505060408051808201909152600e8082527f555344205469657265642053544f000000000000000000000000000000000000602090920191825262000235935060049250620004ba565b50604051806101e001604052806101af8152602001620051d26101af913980516200026991600591602090910190620004ba565b506006805460018082019092557ff652222313e28459528d920b65115c16c04f3efc82aaedc97be59f3f377c0d3f6020820401805460ff601f9093166101000a9283021916600392830217905560078054808401825560008281527f54696572656400000000000000000000000000000000000000000000000000007fa66cc928b5edb82af9bd49922954155ab7b0942694bea4ce44661d9a8736c68892830155825480860184557f455448000000000000000000000000000000000000000000000000000000000090830155825480860184557f504f4c590000000000000000000000000000000000000000000000000000000090830155825480860184557f55534400000000000000000000000000000000000000000000000000000000009083015582549485019092557f53544f0000000000000000000000000000000000000000000000000000000000930192909255620003d791806401000000006200049f810262002b3b1704565b604080517f6c6f776572426f756e64000000000000000000000000000000000000000000008152600a81810152905190819003602a019020805462ffffff9290921662ffffff1990921691909117905562000444600360008064010000000062002b3b6200049f82021704565b604080517f7570706572426f756e64000000000000000000000000000000000000000000008152600a81810152905190819003602a019020805462ffffff9290921662ffffff19909216919091179055506200055f92505050565b60ff9081169181166101000292166201000002919091171790565b828054600181600116156101000203166002900490600052602060002090601f016020900481019282601f10620004fd57805160ff19168380011785556200052d565b828001600101855582156200052d579182015b828111156200052d57825182559160200191906001019062000510565b506200053b9291506200053f565b5090565b6200055c91905b808211156200053b576000815560010162000546565b90565b614c63806200056f6000396000f3fe60806040523480156200001157600080fd5b5060043610620002175760003560e060020a900480637284e416116200012d578063aa934d0c11620000b5578063de6b7e09116200007f578063de6b7e09146200094a578063e61204131462000954578063f2fde38b1462000a00578063fb9724561462000a295762000217565b8063aa934d0c146200082f578063c97767f01462000839578063ccbff9791462000861578063d26633e0146200086b5762000217565b80638da5cb5b11620000f75780638da5cb5b14620007c15780638f32d59b14620007cb578063a01fe64614620007d5578063a76a0cad14620008065762000217565b80637284e416146200078357806377282b70146200078d5780637e363ffa1462000797578063898855ed14620007a15762000217565b80633c1fdaa511620001b157806360fece01116200017b57806360fece0114620005f65780636b68e14414620006005780636d4e259c146200071d578063715018a614620007795762000217565b80633c1fdaa51462000474578063436846b8146200054c5780634a79d50c146200056a57806354fd4d5014620005ec5762000217565b80630c4c2d8f11620001f35780630c4c2d8f14620002f5578063265a721814620003155780632d0aa22e14620003be5780632dbe07c714620003c85762000217565b8062774360146200021c57806306fdde0314620002ae5780630900f01014620002ca575b600080fd5b62000292600480360360208110156200023457600080fd5b8101906020810181356401000000008111156200025057600080fd5b8201836020820111156200026357600080fd5b803590602001918460018302840111640100000000831117156200028657600080fd5b50909250905062000af4565b60408051600160a060020a039092168252519081900360200190f35b620002b862000cee565b60408051918252519081900360200190f35b620002f360048036036020811015620002e257600080fd5b5035600160a060020a031662000cf4565b005b620002f3600480360360208110156200030d57600080fd5b503562000fd8565b620002f3600480360360208110156200032d57600080fd5b8101906020810181356401000000008111156200034957600080fd5b8201836020820111156200035c57600080fd5b803590602001918460208302840111640100000000831117156200037f57600080fd5b9190808060200260200160405190810160405280939291908181526020018383602002808284376000920191909152509295506200102e945050505050565b620002b8620010a4565b620002f360048036036020811015620003e057600080fd5b810190602081018135640100000000811115620003fc57600080fd5b8201836020820111156200040f57600080fd5b803590602001918460018302840111640100000000831117156200043257600080fd5b91908080601f01602080910402602001604051908101604052809392919081815260200183838082843760009201919091525092955062001272945050505050565b620002f3600480360360608110156200048c57600080fd5b810190602081018135640100000000811115620004a857600080fd5b820183602082011115620004bb57600080fd5b80359060200191846001830284011164010000000083111715620004de57600080fd5b91939092600160a060020a03833516926040810190602001356401000000008111156200050a57600080fd5b8201836020820111156200051d57600080fd5b803590602001918460018302840111640100000000831117156200054057600080fd5b509092509050620012e4565b6200055662001552565b604080519115158252519081900360200190f35b620005746200155b565b6040805160208082528351818301528351919283929083019185019080838360005b83811015620005b057818101518382015260200162000596565b50505050905090810190601f168015620005de5780820380516001836020036101000a031916815260200191505b509250505060405180910390f35b62000574620015ed565b620002b862001693565b62000620600480360360208110156200061857600080fd5b503562001699565b604051808060200184600160a060020a0316600160a060020a0316815260200180602001838103835286818151815260200191508051906020019080838360005b838110156200067b57818101518382015260200162000661565b50505050905090810190601f168015620006a95780820380516001836020036101000a031916815260200191505b50838103825284518152845160209182019186019080838360005b83811015620006de578181015183820152602001620006c4565b50505050905090810190601f1680156200070c5780820380516001836020036101000a031916815260200191505b509550505050505060405180910390f35b62000727620017e6565b60408051602080825283518183015283519192839290830191858101910280838360005b83811015620007655781810151838201526020016200074b565b505050509050019250505060405180910390f35b620002f362001837565b62000574620018a2565b6200029262001900565b620002b86200190f565b620002f360048036036020811015620007b957600080fd5b503562001915565b6200029262001973565b6200055662001982565b620002b860048036036040811015620007ed57600080fd5b50600160a060020a038135811691602001351662001993565b62000292600480360360208110156200081e57600080fd5b5035600160a060020a0316620019b0565b62000727620019cb565b620002f3600480360360408110156200085157600080fd5b5080359060200135151562001a17565b6200072762001ac5565b620002f3600480360360808110156200088357600080fd5b81359190810190604081016020820135640100000000811115620008a657600080fd5b820183602082011115620008b957600080fd5b80359060200191846001830284011164010000000083111715620008dc57600080fd5b91939092600160a060020a03833516926040810190602001356401000000008111156200090857600080fd5b8201836020820111156200091b57600080fd5b803590602001918460018302840111640100000000831117156200093e57600080fd5b50909250905062001b3c565b6200072762001e60565b620002f3600480360360208110156200096c57600080fd5b8101906020810181356401000000008111156200098857600080fd5b8201836020820111156200099b57600080fd5b80359060200191846001830284011164010000000083111715620009be57600080fd5b91908080601f01602080910402602001604051908101604052809392919081815260200183838082843760009201919091525092955062001eb9945050505050565b620002f36004803603602081101562000a1857600080fd5b5035600160a060020a031662001f2b565b620002f36004803603604081101562000a4157600080fd5b81019060208101813564010000000081111562000a5d57600080fd5b82018360208201111562000a7057600080fd5b8035906020019184600183028401116401000000008311171562000a9357600080fd5b91939092909160208101903564010000000081111562000ab257600080fd5b82018360208201111562000ac557600080fd5b8035906020019184602083028401116401000000008311171562000ae857600080fd5b50909250905062001f4d565b600e546000908152600b60209081526040808320600154825160e060020a63bf40fac102815260048101859052600960248201527f506f6c79546f6b656e000000000000000000000000000000000000000000000060448201529251859492933393600160a060020a039093169263bf40fac192606480840193829003018186803b15801562000b8357600080fd5b505afa15801562000b98573d6000803e3d6000fd5b505050506040513d602081101562000baf57600080fd5b5051600e546000908152600b602052604090819020600101549051600160a060020a039091169062000be1906200309d565b600160a060020a0380851660208301528381166040830152821660608201526080808252855460026000196101006001841615020190911604908201819052819060a08201908790801562000c7a5780601f1062000c4e5761010080835404028352916020019162000c7a565b820191906000526020600020905b81548152906001019060200180831162000c5c57829003601f168201915b505095505050505050604051809103906000f08015801562000ca0573d6000803e3d6000fd5b50905062000ce58185858080601f0160208091040260200160405190810160405280939291908181526020018383808284376000920191909152506200249692505050565b90505b92915050565b60035481565b600160a060020a038181166000908152600d602052604090205416331462000d66576040805160e560020a62461bcd02815260206004820152601060248201527f496e636f72726563742063616c6c657200000000000000000000000000000000604482015290519081900360640190fd5b336000908152600c60209081526040808320600160a060020a0385168452909152902054600e5460019091019081111562000deb576040805160e560020a62461bcd02815260206004820152601160248201527f496e636f72726563742076657273696f6e000000000000000000000000000000604482015290519081900360640190fd5b6000818152600b60205260409081902060018082015492517f958a41dd000000000000000000000000000000000000000000000000000000008152600160a060020a03938416602482018190526060600483019081528454600260001995821615610100029590950116849004606484018190529588169563958a41dd959492939285019282916044820191608401908790801562000ece5780601f1062000ea25761010080835404028352916020019162000ece565b820191906000526020600020905b81548152906001019060200180831162000eb057829003601f168201915b505083810382528454600260001961010060018416150201909116048082526020909101908590801562000f465780601f1062000f1a5761010080835404028352916020019162000f46565b820191906000526020600020905b81548152906001019060200180831162000f2857829003601f168201915b505095505050505050600060405180830381600087803b15801562000f6a57600080fd5b505af115801562000f7f573d6000803e3d6000fd5b5050336000818152600c60209081526040808320600160a060020a038916808552925280832087905551869550929350917f6b272426dd4b3366b853f4e32bb7fce7392e461688b7a8bf942bd61f756f1d0f9190a45050565b62000fe262001982565b62000fec57600080fd5b600954604080519182526020820183905280517f599b244d21db9af3e5c0ec6cd4af8b4c6085c9ac647c72f008f8c40d0d7cd1be9281900390910190a1600955565b6200103862001982565b6200104257600080fd5b60008151116200108b576040805160e560020a62461bcd02815260206004820152600c602482015260008051602062004c18833981519152604482015290519081900360640190fd5b8051620010a0906007906020840190620030ab565b5050565b60085460009060ff1615620010bd57506009546200126f565b600154604080518082018252601381527f537461626c65506f6c795573644f7261636c65000000000000000000000000006020808301918252925160e060020a63bf40fac102815260048101938452825160248201528251600095600160a060020a03169463bf40fac1949390928392604490910191908083838b5b838110156200115357818101518382015260200162001139565b50505050905090810190601f168015620011815780820380516001836020036101000a031916815260200191505b509250505060206040518083038186803b1580156200119f57600080fd5b505afa158015620011b4573d6000803e3d6000fd5b505050506040513d6020811015620011cb57600080fd5b5051604080517f98d5fdca0000000000000000000000000000000000000000000000000000000081529051600160a060020a03909216916398d5fdca916004808201926020929091908290030181600087803b1580156200122b57600080fd5b505af115801562001240573d6000803e3d6000fd5b505050506040513d60208110156200125757600080fd5b50516009549091506200126b9082620024f6565b9150505b90565b6200127c62001982565b6200128657600080fd5b6000815111620012cf576040805160e560020a62461bcd02815260206004820152600c602482015260008051602062004c18833981519152604482015290519081900360640190fd5b8051620010a0906004906020840190620030fb565b620012ee62001982565b620012f857600080fd5b600b6000600e5481526020019081526020016000206000016040516020018082805460018160011615610100020316600290048015620013725780601f106200134f57610100808354040283529182019162001372565b820191906000526020600020905b8154815290600101906020018083116200135d575b505091505060405160208183030381529060405280519060200120858560405160200180838380828437808301925050509250505060405160208183030381529060405280519060200120141562001403576040805160e560020a62461bcd02815260206004820152600c602482015260008051602062004bf8833981519152604482015290519081900360640190fd5b600e546000908152600b6020526040902060010154600160a060020a03848116911614156200146b576040805160e560020a62461bcd02815260206004820152600c602482015260008051602062004bf8833981519152604482015290519081900360640190fd5b600160a060020a038316620014ca576040805160e560020a62461bcd02815260206004820152600f60248201527f496e76616c696420616464726573730000000000000000000000000000000000604482015290519081900360640190fd5b600e805460010190819055604080516020601f88018190048102820181019092528681526200154b9291889088908190840183828082843760009201919091525050604080516020601f8901819004810282018101909252878152899350915087908790819084018382808284376000920191909152506200252b92505050565b5050505050565b60085460ff1681565b6004805460408051602060026001851615610100026000190190941693909304601f81018490048402820184019092528181529291830182828015620015e55780601f10620015b957610100808354040283529160200191620015e5565b820191906000526020600020905b815481529060010190602001808311620015c757829003601f168201915b505050505081565b600e546000908152600b602090815260409182902080548351601f6002600019610100600186161502019093169290920491820184900484028101840190945280845260609392830182828015620016895780601f106200165d5761010080835404028352916020019162001689565b820191906000526020600020905b8154815290600101906020018083116200166b57829003601f168201915b5050505050905090565b600e5481565b600b6020908152600091825260409182902080548351601f60026000196101006001861615020190931692909204918201849004840281018401909452808452909291839190830182828015620017345780601f10620017085761010080835404028352916020019162001734565b820191906000526020600020905b8154815290600101906020018083116200171657829003601f168201915b505050506001838101546002808601805460408051602061010097841615979097026000190190921693909304601f81018690048602820186019093528281529596600160a060020a03909316959294509192830182828015620017dc5780601f10620017b057610100808354040283529160200191620017dc565b820191906000526020600020905b815481529060010190602001808311620017be57829003601f168201915b5050505050905083565b604080517f6c6f776572426f756e64000000000000000000000000000000000000000000008152600a81810152905190819003602a01902054606090620018329062ffffff16620027f5565b905090565b6200184162001982565b6200184b57600080fd5b60008054604051600160a060020a03909116907f8be0079c531659141344cd1fd0a4f28419497f9722a3daafe3b4186f6b6457e0908390a36000805473ffffffffffffffffffffffffffffffffffffffff19169055565b6005805460408051602060026001851615610100026000190190941693909304601f81018490048402820184019092528181529291830182828015620015e55780601f10620015b957610100808354040283529160200191620015e5565b600154600160a060020a031681565b60095481565b6200191f62001982565b6200192957600080fd5b806200196e576040805160e560020a62461bcd02815260206004820152600c602482015260008051602062004c18833981519152604482015290519081900360640190fd5b600355565b600054600160a060020a031690565b600054600160a060020a0316331490565b600c60209081526000928352604080842090915290825290205481565b600d60205260009081526040902054600160a060020a031681565b604080517f7570706572426f756e64000000000000000000000000000000000000000000008152600a81810152905190819003602a01902054606090620018329062ffffff16620027f5565b62001a2162001982565b62001a2b57600080fd5b600954604080519182526020820184905280517f599b244d21db9af3e5c0ec6cd4af8b4c6085c9ac647c72f008f8c40d0d7cd1be9281900390910190a16008546040805160ff90921615158252821515602083015280517f243562d4d8acd21cf96c899dfa0c26774212a5181e5e40f852c7e6b66b7b96db9281900390910190a16009919091556008805460ff1916911515919091179055565b606060068054806020026020016040519081016040528092919081815260200182805480156200168957602002820191906000526020600020906000905b825461010083900a900460ff1681526020600192830181810494850194909303909202910180841162001b035790505050505050905090565b62001b4662001982565b62001b5057600080fd5b600e5486111562001bab576040805160e560020a62461bcd02815260206004820152600f60248201527f496e76616c696420757067726164650000000000000000000000000000000000604482015290519081900360640190fd5b851562001d2857600b6000600188038152602001908152602001600020600001604051602001808280546001816001161561010002031660029004801562001c2d5780601f1062001c0a57610100808354040283529182019162001c2d565b820191906000526020600020905b81548152906001019060200180831162001c18575b505091505060405160208183030381529060405280519060200120858560405160200180838380828437808301925050509250505060405160208183030381529060405280519060200120141562001cbe576040805160e560020a62461bcd02815260206004820152600c602482015260008051602062004bf8833981519152604482015290519081900360640190fd5b60001986016000908152600b6020526040902060010154600160a060020a038481169116141562001d28576040805160e560020a62461bcd02815260206004820152600c602482015260008051602062004bf8833981519152604482015290519081900360640190fd5b600160a060020a03831662001d87576040805160e560020a62461bcd02815260206004820152600f60248201527f496e76616c696420616464726573730000000000000000000000000000000000604482015290519081900360640190fd5b6004811162001de0576040805160e560020a62461bcd02815260206004820152600f60248201527f496e76616c696420557067726164650000000000000000000000000000000000604482015290519081900360640190fd5b62001e588686868080601f01602080910402602001604051908101604052809392919081815260200183838082843760009201919091525050604080516020601f8901819004810282018101909252878152899350915087908790819084018382808284376000920191909152506200252b92505050565b505050505050565b606060078054806020026020016040519081016040528092919081815260200182805480156200168957602002820191906000526020600020905b81548152602001906001019080831162001e9b575050505050905090565b62001ec362001982565b62001ecd57600080fd5b600081511162001f16576040805160e560020a62461bcd02815260206004820152600c602482015260008051602062004c18833981519152604482015290519081900360640190fd5b8051620010a0906005906020840190620030fb565b62001f3562001982565b62001f3f57600080fd5b62001f4a816200289d565b50565b62001f5762001982565b62001f6157600080fd5b60405160200180807f6c6f776572426f756e6400000000000000000000000000000000000000000000815250600a01905060405160208183030381529060405280519060200120848460405160200180838380828437808301925050509250505060405160208183030381529060405280519060200120148062002059575060405160200180807f7570706572426f756e6400000000000000000000000000000000000000000000815250600a01905060405160208183030381529060405280519060200120848460405160200180838380828437808301925050509250505060405160208183030381529060405280519060200120145b620020ae576040805160e560020a62461bcd02815260206004820152601260248201527f496e76616c696420626f756e6420747970650000000000000000000000000000604482015290519081900360640190fd5b6003811462002107576040805160e560020a62461bcd02815260206004820152600f60248201527f496e76616c69642076657273696f6e0000000000000000000000000000000000604482015290519081900360640190fd5b600062ffffff16600a858560405180838380828437919091019485525050604051928390036020019092205462ffffff169290921491506200233190505760606200217f600a868660405180838380828437919091019485525050604051928390036020019092205462ffffff169150620027f59050565b905060405160200180807f6c6f776572426f756e6400000000000000000000000000000000000000000000815250600a0190506040516020818303038152906040528051906020012085856040516020018083838082843780830192505050925050506040516020818303038152906040528051906020012014156200229a576200223f83838080602002602001604051908101604052809392919081815260200183836020028082843760009201919091525085925062002919915050565b62002294576040805160e560020a62461bcd02815260206004820152600f60248201527f496e76616c69642076657273696f6e0000000000000000000000000000000000604482015290519081900360640190fd5b6200232f565b620022da83838080602002602001604051908101604052809392919081815260200183836020028082843760009201919091525085925062002a2f915050565b6200232f576040805160e560020a62461bcd02815260206004820152600f60248201527f496e76616c69642076657273696f6e0000000000000000000000000000000000604482015290519081900360640190fd5b505b62002383828260008181106200234357fe5b9050602002013560ff16838360018181106200235b57fe5b9050602002013560ff16848460028181106200237357fe5b9050602002013560ff1662002b3b565b600a85856040518083838082843791909101948552505060405192839003602001909220805462ffffff9490941662ffffff1990941693909317909255507f5b67e16edaf7fc70c8d065ea6e70b97ed944d98fe593b04d682216615a3b04db905084848484600081620023f257fe5b9050602002013560ff16858560018181106200240a57fe5b9050602002013560ff16868660028181106200242257fe5b9050602002013560ff1660405180806020018560ff1660ff1681526020018460ff1660ff1681526020018360ff1660ff1681526020018281038252878782818152602001925080828437600083820152604051601f909101601f19169092018290039850909650505050505050a150505050565b620024a2828262002b56565b50600160a060020a03166000818152600d60209081526040808320805473ffffffffffffffffffffffffffffffffffffffff191633908117909155600e54908452600c835281842094845293909152902055565b6000816200251b6200251185670de0b6b3a764000062002dfb565b6002850462002e26565b816200252357fe5b049392505050565b6000848152600b6020908152604090912084516200254c92860190620030fb565b506000848152600b6020908152604090912060018101805473ffffffffffffffffffffffffffffffffffffffff1916600160a060020a03861617905582516200259e92600290920191840190620030fb565b506001546040805160e060020a63bf40fac1028152602060048201819052600e60248301527f4d6f64756c65526567697374727900000000000000000000000000000000000060448301529151600093600160a060020a03169263bf40fac19260648082019391829003018186803b1580156200261a57600080fd5b505afa1580156200262f573d6000803e3d6000fd5b505050506040513d60208110156200264657600080fd5b5051604080517fcf5f591d0000000000000000000000000000000000000000000000000000000081523060048201529051919250600160a060020a0383169163cf5f591d9160248082019260009290919082900301818387803b158015620026ad57600080fd5b505af1158015620026c2573d6000803e3d6000fd5b505050507fbcda874f53511fb6338990baf12d53b3bcef8cb0247ba5f7673450267395515a84868585604051808060200185815260200184600160a060020a0316600160a060020a0316815260200180602001838103835287818151815260200191508051906020019080838360005b838110156200274c57818101518382015260200162002732565b50505050905090810190601f1680156200277a5780820380516001836020036101000a031916815260200191505b50838103825284518152845160209182019186019080838360005b83811015620027af57818101518382015260200162002795565b50505050905090810190601f168015620027dd5780820380516001836020036101000a031916815260200191505b50965050505050505060405180910390a15050505050565b6040805160038082526080820190925260609182919060208201838038833950508151919250506201000062ffffff8516049082906000906200283457fe5b60ff90921660209283029190910190910152805161010062ffffff85160490829060019081106200286157fe5b602002602001019060ff16908160ff168152505082816002815181106200288457fe5b60ff909216602092830291909101909101529050919050565b600160a060020a038116620028b157600080fd5b60008054604051600160a060020a03808516939216917f8be0079c531659141344cd1fd0a4f28419497f9722a3daafe3b4186f6b6457e091a36000805473ffffffffffffffffffffffffffffffffffffffff1916600160a060020a0392909216919091179055565b600082516003146200292a57600080fd5b81516003146200293957600080fd5b60005b83518160ff16101562002a2557828160ff16815181106200295957fe5b602002602001015160ff16848260ff16815181106200297457fe5b602002602001015160ff1614156200298c5762002a1c565b828160ff16815181106200299c57fe5b602002602001015160ff16848260ff1681518110620029b757fe5b602002602001015160ff161015620029d457600191505062000ce8565b828160ff1681518110620029e457fe5b602002602001015160ff16848260ff1681518110620029ff57fe5b602002602001015160ff16111562002a1c57600091505062000ce8565b6001016200293c565b5060019392505050565b6000825160031462002a4057600080fd5b815160031462002a4f57600080fd5b60005b83518160ff16101562002a2557828160ff168151811062002a6f57fe5b602002602001015160ff16848260ff168151811062002a8a57fe5b602002602001015160ff16141562002aa25762002b32565b828160ff168151811062002ab257fe5b602002602001015160ff16848260ff168151811062002acd57fe5b602002602001015160ff16111562002aea57600191505062000ce8565b828160ff168151811062002afa57fe5b602002602001015160ff16848260ff168151811062002b1557fe5b602002602001015160ff16101562002b3257600091505062000ce8565b60010162002a52565b60ff9081169181166101000292166201000002919091171790565b600062002b6262002e39565b9050600083600160a060020a0316631613ec9d6040518163ffffffff1660e060020a02815260040160206040518083038186803b15801562002ba357600080fd5b505afa15801562002bb8573d6000803e3d6000fd5b505050506040513d602081101562002bcf57600080fd5b505190507bffffffffffffffffffffffffffffffffffffffffffffffffffffffff1981161562002d9c577bffffffffffffffffffffffffffffffffffffffffffffffffffffffff19811662002c248462002ffa565b7bffffffffffffffffffffffffffffffffffffffffffffffffffffffff19161462002c99576040805160e560020a62461bcd02815260206004820152601a60248201527f50726f76696465642064617461206973206e6f742076616c6964000000000000604482015290519081900360640190fd5b600084600160a060020a0316846040518082805190602001908083835b6020831062002cd75780518252601f19909201916020918201910162002cb6565b6001836020036101000a0380198251168184511680821785525050505050509050019150506000604051808303816000865af19150503d806000811462002d3b576040519150601f19603f3d011682016040523d82523d6000602084013e62002d40565b606091505b505090508062002d9a576040805160e560020a62461bcd02815260206004820152601b60248201527f556e7375636365737366756c20696e697469616c697a6174696f6e0000000000604482015290519081900360640190fd5b505b60035460095460408051600160a060020a03881681523360208201528082019290925260608201859052513092917fb68b4973fbce93f056103272c1f3f53b607527138d7e323b7b94f7ac169ebf77919081900360800190a350505050565b60008262002e0c5750600062000ce8565b8282028284828162002e1a57fe5b041462000ce557600080fd5b60008282018381101562000ce557600080fd5b60008062002e46620010a4565b6001546040805160e060020a63bf40fac1028152602060048201819052600960248301527f506f6c79546f6b656e000000000000000000000000000000000000000000000060448301529151939450600093600160a060020a039093169263bf40fac192606480840193919291829003018186803b15801562002ec857600080fd5b505afa15801562002edd573d6000803e3d6000fd5b505050506040513d602081101562002ef457600080fd5b50519050811562002ff45780600160a060020a03166323b872dd3362002f1962001973565b856040518463ffffffff1660e060020a0281526004018084600160a060020a0316600160a060020a0316815260200183600160a060020a0316600160a060020a031681526020018281526020019350505050602060405180830381600087803b15801562002f8657600080fd5b505af115801562002f9b573d6000803e3d6000fd5b505050506040513d602081101562002fb257600080fd5b505162002ff45760405160e560020a62461bcd02815260040180806020018281038252602581526020018062004bd36025913960400191505060405180910390fd5b50905090565b60008060048351106200300f57600462003012565b82515b905060005b818110156200309657806008028482815181106200303157fe5b60209101015160029190910a7f0100000000000000000000000000000000000000000000000000000000000000918290049091027fff000000000000000000000000000000000000000000000000000000000000001604929092179160010162003017565b5050919050565b611a48806200318b83390190565b828054828255906000526020600020908101928215620030e9579160200282015b82811115620030e9578251825591602001919060010190620030cc565b50620030f79291506200316d565b5090565b828054600181600116156101000203166002900490600052602060002090601f016020900481019282601f106200313e57805160ff1916838001178555620030e9565b82800160010185558215620030e95791820182811115620030e9578251825591602001919060010190620030cc565b6200126f91905b80821115620030f757600081556001016200317456fe60806040526019805460a060020a60ff02191690553480156200002157600080fd5b5060405162001a4838038062001a48833981018060405260808110156200004757600080fd5b8101908080516401000000008111156200006057600080fd5b820160208101848111156200007457600080fd5b81516401000000008111828201871017156200008f57600080fd5b50506020820151604083015160609093015160188054600160a060020a03808516600160a060020a0319928316179092556017805482163390811790915560198054938816939092169290921790556001601a5592955090935090620000fe906401000000006200017e810204565b600160a060020a0381166200015f576040517f08c379a0000000000000000000000000000000000000000000000000000000008152600401808060200182810382526027815260200180620019a06027913960400191505060405180910390fd5b62000174848264010000000062000216810204565b505050506200063b565b600160a060020a038116620001f457604080517f08c379a000000000000000000000000000000000000000000000000000000000815260206004820152601860248201527f416464726573732073686f756c64206e6f742062652030780000000000000000604482015290519081900360640190fd5b601d8054600160a060020a031916600160a060020a0392909216919091179055565b601c54600160a060020a038281169116148015906200023d5750600160a060020a03811615155b62000294576040517f08c379a0000000000000000000000000000000000000000000000000000000008152600401808060200182810382526046815260200180620019c76046913960600191505060405180910390fd5b620002ad816401000000006200118d6200059082021704565b62000304576040517f08c379a000000000000000000000000000000000000000000000000000000000815260040180806020018281038252603b81526020018062001a0d603b913960400191505060405180910390fd5b600082511162000360576040517f08c379a00000000000000000000000000000000000000000000000000000000081526004018080602001828103825260228152602001806200197e6022913960400191505060405180910390fd5b816040516020018082805190602001908083835b60208310620003955780518252601f19909201916020918201910162000374565b6001836020036101000a03801982511681845116808217855250505050505090500191505060405160208183030381529060405280519060200120601b6040516020018082805460018160011615610100020316600290048015620004345780601f106200041157610100808354040283529182019162000434565b820191906000526020600020905b8154815290600101906020018083116200041f575b5050915050604051602081830303815290604052805190602001201415620004bd57604080517f08c379a000000000000000000000000000000000000000000000000000000000815260206004820152601d60248201527f4e65772076657273696f6e20657175616c7320746f2063757272656e74000000604482015290519081900360640190fd5b8151620004d290601b90602085019062000596565b50601c8054600160a060020a031916600160a060020a03831690811790915560408051602080825285518183015285517f8e05e0e35ff592971ca8b477d4285a33a61ded208d644042667b78693a472f5e938793928392918301919085019080838360005b838110156200055157818101518382015260200162000537565b50505050905090810190601f1680156200057f5780820380516001836020036101000a031916815260200191505b509250505060405180910390a25050565b3b151590565b828054600181600116156101000203166002900490600052602060002090601f016020900481019282601f10620005d957805160ff191683800117855562000609565b8280016001018555821562000609579182015b8281111562000609578251825591602001919060010190620005ec565b50620006179291506200061b565b5090565b6200063891905b8082111562000617576000815560010162000622565b90565b611333806200064b6000396000f3fe60806040526004361061020b576000357c01000000000000000000000000000000000000000000000000000000009004806378e979251161012a578063c4d2c6bd116100bd578063d7e64c001161008c578063d7e64c001461071e578063eaa32c4014610733578063ec47740f14610766578063f1739cae1461077b578063ff18ead3146107ae5761020b565b8063c4d2c6bd1461067c578063c5139338146106a9578063d143a379146106dc578063d679677a146107095761020b565b8063983d2737116100f9578063983d273714610628578063b2cca39d1461063d578063b84dfbd214610652578063c45a0155146106675761020b565b806378e97925146104f35780638784b1c2146105085780638d4e408314610544578063958a41dd146105595761020b565b806354fd4d50116101a257806363b201171161017157806363b20117146104815780636c41027f146104965780636faa22a5146104ab57806377de9039146104c05761020b565b806354fd4d50146103475780635a8b1a9f146103d15780635c60da1b146104575780635c975abb1461046c5761020b565b80633197cbb6116101de5780633197cbb6146102f35780634626402b146103085780634b385a421461031d578063521eb273146103325761020b565b8063025313a214610215578063039af9eb146102465780632a0acc6a146102a35780632df413e2146102ca575b6102136107c3565b005b34801561022157600080fd5b5061022a6107d5565b60408051600160a060020a039092168252519081900360200190f35b34801561025257600080fd5b506102706004803603602081101561026957600080fd5b5035610812565b604080519687526020870195909552858501939093526060850191909152608084015260a0830152519081900360c00190f35b3480156102af57600080fd5b506102b8610855565b60408051918252519081900360200190f35b3480156102d657600080fd5b506102df610879565b604080519115158252519081900360200190f35b3480156102ff57600080fd5b506102b8610882565b34801561031457600080fd5b5061022a610888565b34801561032957600080fd5b506102b861089d565b34801561033e57600080fd5b5061022a6108a3565b34801561035357600080fd5b5061035c6108b2565b6040805160208082528351818301528351919283929083019185019080838360005b8381101561039657818101518382015260200161037e565b50505050905090810190601f1680156103c35780820380516001836020036101000a031916815260200191505b509250505060405180910390f35b3480156103dd57600080fd5b50610213600480360360408110156103f457600080fd5b81019060208101813564010000000081111561040f57600080fd5b82018360208201111561042157600080fd5b8035906020019184600183028401116401000000008311171561044357600080fd5b919350915035600160a060020a0316610967565b34801561046357600080fd5b5061022a6109db565b34801561047857600080fd5b506102df610a06565b34801561048d57600080fd5b506102b8610a27565b3480156104a257600080fd5b506102b8610a2d565b3480156104b757600080fd5b5061022a610a33565b3480156104cc57600080fd5b506102b8600480360360208110156104e357600080fd5b5035600160a060020a0316610a42565b3480156104ff57600080fd5b506102b8610a54565b34801561051457600080fd5b506102b86004803603604081101561052b57600080fd5b508035600160a060020a0316906020013560ff16610a5a565b34801561055057600080fd5b506102df610a77565b6102136004803603606081101561056f57600080fd5b81019060208101813564010000000081111561058a57600080fd5b82018360208201111561059c57600080fd5b803590602001918460018302840111640100000000831117156105be57600080fd5b91939092600160a060020a03833516926040810190602001356401000000008111156105e957600080fd5b8201836020820111156105fb57600080fd5b8035906020019184600183028401116401000000008311171561061d57600080fd5b509092509050610a85565b34801561063457600080fd5b506102b8610b2f565b34801561064957600080fd5b506102b8610b53565b34801561065e57600080fd5b5061022a610b59565b34801561067357600080fd5b5061022a610b68565b34801561068857600080fd5b506102b86004803603602081101561069f57600080fd5b503560ff16610b77565b3480156106b557600080fd5b506102b8600480360360208110156106cc57600080fd5b5035600160a060020a0316610b89565b3480156106e857600080fd5b506102df600480360360208110156106ff57600080fd5b503560ff16610b9b565b34801561071557600080fd5b506102b8610bb0565b34801561072a57600080fd5b506102b8610bb6565b34801561073f57600080fd5b506102b86004803603602081101561075657600080fd5b5035600160a060020a0316610bbc565b34801561077257600080fd5b506102b8610bce565b34801561078757600080fd5b506102136004803603602081101561079e57600080fd5b5035600160a060020a0316610bd4565b3480156107ba57600080fd5b506102b8610cb7565b6107d36107ce610cbd565b610ccc565b565b60006107df610cf0565b600160a060020a031633600160a060020a0316141561080757610800610cf0565b905061080f565b61080f6107c3565b90565b600d818154811061081f57fe5b60009182526020909120600790910201805460018201546002830154600384015460048501546006909501549395509193909286565b7f41444d494e00000000000000000000000000000000000000000000000000000081565b60025460ff1681565b60125481565b600254620100009004600160a060020a031681565b600a5481565b601554600160a060020a031681565b60606108bc610cf0565b600160a060020a031633600160a060020a0316141561080757601b805460408051602060026001851615610100026000190190941693909304601f8101849004840282018401909252818152929183018282801561095b5780601f106109305761010080835404028352916020019161095b565b820191906000526020600020905b81548152906001019060200180831161093e57829003601f168201915b5050505050905061080f565b61096f610cf0565b600160a060020a031633600160a060020a031614156109ce576109c983838080601f016020809104026020016040519081016040528093929190818152602001838380828437600092019190915250859250610cff915050565b6109d6565b6109d66107c3565b505050565b60006109e5610cf0565b600160a060020a031633600160a060020a0316141561080757610800610cbd565b60195474010000000000000000000000000000000000000000900460ff1681565b60165481565b600c5481565b601954600160a060020a031681565b60066020526000908152604090205481565b60115481565b600860209081526000928352604080842090915290825290205481565b600254610100900460ff1681565b610a8d610cf0565b600160a060020a031633600160a060020a03161415610b2057610b1b85858080601f01602080910402602001604051908101604052809392919081815260200183838082843760009201919091525050604080516020601f88018190048102820181019092528681528893509150869086908190840183828082843760009201919091525061100792505050565b610b28565b610b286107c3565b5050505050565b7f4f50455241544f5200000000000000000000000000000000000000000000000081565b60135481565b601854600160a060020a031681565b601754600160a060020a031681565b60106020526000908152604090205481565b60076020526000908152604090205481565b600f6020526000908152604090205460ff1681565b60045481565b60145481565b60006020819052908152604090205481565b600b5481565b610bdc610cf0565b600160a060020a031633600160a060020a03161415610cac57600160a060020a038116610c53576040805160e560020a62461bcd02815260206004820152601860248201527f416464726573732073686f756c64206e6f742062652030780000000000000000604482015290519081900360640190fd5b7f5a3e66efaa1e445ebd894728a69d6959842ea1e97bd79b892797106e270efcd9610c7c610cf0565b60408051600160a060020a03928316815291841660208301528051918290030190a1610ca781611100565b610cb4565b610cb46107c3565b50565b60055481565b601c54600160a060020a031690565b3660008037600080366000845af43d6000803e808015610ceb573d6000f35b3d6000fd5b601d54600160a060020a031690565b601c54600160a060020a03828116911614801590610d255750600160a060020a03811615155b610d635760405160e560020a62461bcd0281526004018080602001828103825260468152602001806112876046913960600191505060405180910390fd5b610d6c8161118d565b610daa5760405160e560020a62461bcd02815260040180806020018281038252603b8152602001806112cd603b913960400191505060405180910390fd5b6000825111610ded5760405160e560020a62461bcd02815260040180806020018281038252602281526020018061122c6022913960400191505060405180910390fd5b816040516020018082805190602001908083835b60208310610e205780518252601f199092019160209182019101610e01565b6001836020036101000a03801982511681845116808217855250505050505090500191505060405160208183030381529060405280519060200120601b6040516020018082805460018160011615610100020316600290048015610ebb5780601f10610e99576101008083540402835291820191610ebb565b820191906000526020600020905b815481529060010190602001808311610ea7575b5050915050604051602081830303815290604052805190602001201415610f2c576040805160e560020a62461bcd02815260206004820152601d60248201527f4e65772076657273696f6e20657175616c7320746f2063757272656e74000000604482015290519081900360640190fd5b8151610f3f90601b906020850190611193565b50601c805473ffffffffffffffffffffffffffffffffffffffff1916600160a060020a03831690811790915560408051602080825285518183015285517f8e05e0e35ff592971ca8b477d4285a33a61ded208d644042667b78693a472f5e938793928392918301919085019080838360005b83811015610fc9578181015183820152602001610fb1565b50505050905090810190601f168015610ff65780820380516001836020036101000a031916815260200191505b509250505060405180910390a25050565b6110118383610cff565b600030600160a060020a031634836040518082805190602001908083835b6020831061104e5780518252601f19909201916020918201910161102f565b6001836020036101000a03801982511681845116808217855250505050505090500191505060006040518083038185875af1925050503d80600081146110b0576040519150601f19603f3d011682016040523d82523d6000602084013e6110b5565b606091505b505080915050806110fa5760405160e560020a62461bcd02815260040180806020018281038252603981526020018061124e6039913960400191505060405180910390fd5b50505050565b600160a060020a03811661115e576040805160e560020a62461bcd02815260206004820152601860248201527f416464726573732073686f756c64206e6f742062652030780000000000000000604482015290519081900360640190fd5b601d805473ffffffffffffffffffffffffffffffffffffffff1916600160a060020a0392909216919091179055565b3b151590565b828054600181600116156101000203166002900490600052602060002090601f016020900481019282601f106111d457805160ff1916838001178555611201565b82800160010185558215611201579182015b828111156112015782518255916020019190600101906111e6565b5061120d929150611211565b5090565b61080f91905b8082111561120d576000815560010161121756fe56657273696f6e2073686f756c64206e6f7420626520656d70747920737472696e674661696c20696e20657865637574696e67207468652066756e6374696f6e206f6620696d706c656d656e746174696f6e20636f6e74726163744f6c642061646472657373206973206e6f7420616c6c6f77656420616e6420696d706c656d656e746174696f6e20616464726573732073686f756c64206e6f7420626520307843616e6e6f742073657420612070726f787920696d706c656d656e746174696f6e20746f2061206e6f6e2d636f6e74726163742061646472657373a165627a7a723058209e9bc5ea985405fa558b54fda04c40b08ad9df7d40ee44c849bed584e5ed059e002956657273696f6e2073686f756c64206e6f7420626520656d70747920737472696e67496d706c656d656e746174696f6e20616464726573732073686f756c64206e6f742062652030784f6c642061646472657373206973206e6f7420616c6c6f77656420616e6420696d706c656d656e746174696f6e20616464726573732073686f756c64206e6f7420626520307843616e6e6f742073657420612070726f787920696d706c656d656e746174696f6e20746f2061206e6f6e2d636f6e74726163742061646472657373496e73756666696369656e7420616c6c6f77616e636520666f72206d6f64756c652066656553616d652076657273696f6e0000000000000000000000000000000000000000496e76616c696420746578740000000000000000000000000000000000000000a165627a7a723058209336634b89f0eb17ec9a124e1a7e92beb747c90ff877d0f6394f31cfd19648730029497420616c6c6f777320626f7468206163637265646974656420616e64206e6f6e2d6163637265646974656420696e766573746f727320746f20636f6e7472696275746520696e746f207468652053544f2e204e6f6e2d6163637265646974656420696e766573746f72732077696c6c206265206361707065642061742061206d6178696d756d20696e766573746d656e74206c696d69742028617320612064656661756c74206f7220737065636966696320746f207468656972206a7572697364696374696f6e292e20546f6b656e732077696c6c20626520736f6c64206163636f7264696e6720746f2074696572732073657175656e7469616c6c792026206561636820746965722068617320697473206f776e20707269636520616e6420766f6c756d65206f6620746f6b656e7320746f2073656c6c2e2055706f6e2072656365697074206f662066756e647320284554482c20504f4c59206f7220444149292c20736563757269747920746f6b656e732077696c6c206175746f6d61746963616c6c79207472616e7366657220746f20696e766573746f72e28099732077616c6c65742061646472657373",
  "source": "pragma solidity 0.5.8;\n\nimport \"./USDTieredSTOProxy.sol\";\nimport \"../../UpgradableModuleFactory.sol\";\n\n/**\n * @title Factory for deploying CappedSTO module\n */\ncontract USDTieredSTOFactory is UpgradableModuleFactory {\n\n    /**\n     * @notice Constructor\n     * @param _setupCost Setup cost of the module\n      * @param _logicContract Contract address that contains the logic related to `description`\n     * @param _polymathRegistry Address of the Polymath registry\n     * @param _isCostInPoly true = cost in Poly, false = USD\n     */\n    constructor (\n        uint256 _setupCost,\n        address _logicContract,\n        address _polymathRegistry,\n        bool _isCostInPoly\n    )\n        public\n        UpgradableModuleFactory(\"3.0.0\", _setupCost, _logicContract, _polymathRegistry, _isCostInPoly)\n    {\n        name = \"USDTieredSTO\";\n        title = \"USD Tiered STO\";\n        /*solium-disable-next-line max-len*/\n        description = \"It allows both accredited and non-accredited investors to contribute into the STO. Non-accredited investors will be capped at a maximum investment limit (as a default or specific to their jurisdiction). Tokens will be sold according to tiers sequentially & each tier has its own price and volume of tokens to sell. Upon receipt of funds (ETH, POLY or DAI), security tokens will automatically transfer to investors wallet address\";\n        typesData.push(3);\n        tagsData.push(\"Tiered\");\n        tagsData.push(\"ETH\");\n        tagsData.push(\"POLY\");\n        tagsData.push(\"USD\");\n        tagsData.push(\"STO\");\n        compatibleSTVersionRange[\"lowerBound\"] = VersionUtils.pack(uint8(3), uint8(0), uint8(0));\n        compatibleSTVersionRange[\"upperBound\"] = VersionUtils.pack(uint8(3), uint8(0), uint8(0));\n    }\n\n    /**\n     * @notice Used to launch the Module with the help of factory\n     * @return address Contract address of the Module\n     */\n    function deploy(bytes calldata _data) external returns(address) {\n        address usdTieredSTO = address(new USDTieredSTOProxy(logicContracts[latestUpgrade].version, msg.sender, polymathRegistry.getAddress(\"PolyToken\"), logicContracts[latestUpgrade].logicContract));\n        _initializeModule(usdTieredSTO, _data);\n        return usdTieredSTO;\n    }\n\n}\n",
  "sourcePath": "/Users/federicoelgarte/Polymath/polymath-core/contracts/modules/STO/USDTiered/USDTieredSTOFactory.sol",
  "compiler": {
    "name": "solc",
    "version": "0.5.8+commit.23d335f2.Emscripten.clang"
  },
  "schemaVersion": "3.0.2",
  "updatedAt": "2019-06-21T16:15:52.672Z",
  "devdoc": {
    "methods": {
      "changeCostAndType(uint256,bool)": {
        "params": {
          "_isCostInPoly": "new setup cost currency. USD or POLY",
          "_setupCost": "new setup cost"
        }
      },
      "changeDescription(string)": {
        "params": {
          "_description": "New description that will replace the old one."
        }
      },
      "changeName(bytes32)": {
        "params": {
          "_name": "New name that will replace the old one."
        }
      },
      "changeSTVersionBounds(string,uint8[])": {
        "params": {
          "_boundType": "Type of bound",
          "_newVersion": "new version array"
        }
      },
      "changeSetupCost(uint256)": {
        "params": {
          "_setupCost": "new setup cost"
        }
      },
      "changeTags(bytes32[])": {
        "params": {
          "_tagsData": "New list of tags"
        }
      },
      "changeTitle(string)": {
        "params": {
          "_title": "New Title that will replace the old one."
        }
      },
      "constructor": {
        "params": {
          "_isCostInPoly": "true = cost in Poly, false = USD",
          "_logicContract": "Contract address that contains the logic related to `description`",
          "_polymathRegistry": "Address of the Polymath registry",
          "_setupCost": "Setup cost of the module"
        }
      },
      "deploy(bytes)": {
        "return": "address Contract address of the Module"
      },
      "isOwner()": {
        "return": "true if `msg.sender` is the owner of the contract."
      },
      "lowerSTVersionBounds()": {
        "return": "lower bound"
      },
      "owner()": {
        "return": "the address of the owner."
      },
      "renounceOwnership()": {
        "details": "Allows the current owner to relinquish control of the contract. It will not be possible to call the functions with the `onlyOwner` modifier anymore."
      },
      "setLogicContract(string,address,bytes)": {
        "params": {
          "_logicContract": "Address of deployed module logic contract referenced from proxy",
          "_upgradeData": "Data to be passed in call to upgradeToAndCall when a token upgrades its module",
          "_version": "Version of upgraded module"
        }
      },
      "transferOwnership(address)": {
        "details": "Allows the current owner to transfer control of the contract to a newOwner.",
        "params": {
          "newOwner": "The address to transfer ownership to."
        }
      },
      "updateLogicContract(uint256,string,address,bytes)": {
        "params": {
          "_logicContract": "Address of deployed module logic contract referenced from proxy",
          "_upgrade": "logic contract to upgrade",
          "_upgradeData": "Data to be passed in call to upgradeToAndCall when a token upgrades its module",
          "_version": "Version of upgraded module"
        }
      },
      "upgrade(address)": {
        "params": {
          "_module": "Address of (proxy) module to be upgraded"
        }
      },
      "upperSTVersionBounds()": {
        "return": "upper bound"
      }
    },
    "title": "Factory for deploying CappedSTO module"
  },
  "userdoc": {
    "methods": {
      "changeCostAndType(uint256,bool)": {
        "notice": "Used to change the currency and amount of setup cost"
      },
      "changeDescription(string)": {
        "notice": "Updates the description of the ModuleFactory"
      },
      "changeName(bytes32)": {
        "notice": "Updates the name of the ModuleFactory"
      },
      "changeSTVersionBounds(string,uint8[])": {
        "notice": "Function use to change the lower and upper bound of the compatible version st"
      },
      "changeSetupCost(uint256)": {
        "notice": "Used to change the fee of the setup cost"
      },
      "changeTags(bytes32[])": {
        "notice": "Updates the tags of the ModuleFactory"
      },
      "changeTitle(string)": {
        "notice": "Updates the title of the ModuleFactory"
      },
      "constructor": "Constructor",
      "deploy(bytes)": {
        "notice": "Used to launch the Module with the help of factory"
      },
      "lowerSTVersionBounds()": {
        "notice": "Used to get the lower bound"
      },
      "renounceOwnership()": {
        "notice": "Renouncing ownership will leave the contract without an owner, thereby removing any functionality that is only available to the owner."
      },
      "setLogicContract(string,address,bytes)": {
        "notice": "Used to upgrade the module factory"
      },
      "setupCostInPoly()": {
        "notice": "Get the setup cost of the module"
      },
      "tags()": {
        "notice": "Get the tags related to the module factory"
      },
      "types()": {
        "notice": "Type of the Module factory"
      },
      "updateLogicContract(uint256,string,address,bytes)": {
        "notice": "Used to update an existing token logic contract"
      },
      "upgrade(address)": {
        "notice": "Used by a security token to upgrade a given module"
      },
      "upperSTVersionBounds()": {
        "notice": "Used to get the upper bound"
      },
      "version()": {
        "notice": "Get the version related to the module factory"
      }
    }
  }
}