{
  "contractName": "USDTieredSTO",
  "abi": [
    {
      "constant": true,
      "inputs": [
        {
          "name": "",
          "type": "uint256"
        }
      ],
      "name": "tiers",
      "outputs": [
        {
          "name": "rate",
          "type": "uint256"
        },
        {
          "name": "rateDiscountPoly",
          "type": "uint256"
        },
        {
          "name": "tokenTotal",
          "type": "uint256"
        },
        {
          "name": "tokensDiscountPoly",
          "type": "uint256"
        },
        {
          "name": "mintedTotal",
          "type": "uint256"
        },
        {
          "name": "mintedDiscountPoly",
          "type": "uint256"
        }
      ],
      "payable": false,
      "stateMutability": "view",
      "type": "function"
    },
    {
      "constant": false,
      "inputs": [],
      "name": "reclaimETH",
      "outputs": [],
      "payable": false,
      "stateMutability": "nonpayable",
      "type": "function"
    },
    {
      "constant": true,
      "inputs": [],
      "name": "ADMIN",
      "outputs": [
        {
          "name": "",
          "type": "bytes32"
        }
      ],
      "payable": false,
      "stateMutability": "view",
      "type": "function"
    },
    {
      "constant": true,
      "inputs": [],
      "name": "allowBeneficialInvestments",
      "outputs": [
        {
          "name": "",
          "type": "bool"
        }
      ],
      "payable": false,
      "stateMutability": "view",
      "type": "function"
    },
    {
      "constant": true,
      "inputs": [],
      "name": "endTime",
      "outputs": [
        {
          "name": "",
          "type": "uint256"
        }
      ],
      "payable": false,
      "stateMutability": "view",
      "type": "function"
    },
    {
      "constant": false,
      "inputs": [],
      "name": "unpause",
      "outputs": [],
      "payable": false,
      "stateMutability": "nonpayable",
      "type": "function"
    },
    {
      "constant": true,
      "inputs": [],
      "name": "treasuryWallet",
      "outputs": [
        {
          "name": "",
          "type": "address"
        }
      ],
      "payable": false,
      "stateMutability": "view",
      "type": "function"
    },
    {
      "constant": true,
      "inputs": [],
      "name": "nonAccreditedLimitUSD",
      "outputs": [
        {
          "name": "",
          "type": "uint256"
        }
      ],
      "payable": false,
      "stateMutability": "view",
      "type": "function"
    },
    {
      "constant": true,
      "inputs": [],
      "name": "wallet",
      "outputs": [
        {
          "name": "",
          "type": "address"
        }
      ],
      "payable": false,
      "stateMutability": "view",
      "type": "function"
    },
    {
      "constant": true,
      "inputs": [],
      "name": "paused",
      "outputs": [
        {
          "name": "",
          "type": "bool"
        }
      ],
      "payable": false,
      "stateMutability": "view",
      "type": "function"
    },
    {
      "constant": true,
      "inputs": [],
      "name": "totalTokensSold",
      "outputs": [
        {
          "name": "",
          "type": "uint256"
        }
      ],
      "payable": false,
      "stateMutability": "view",
      "type": "function"
    },
    {
      "constant": true,
      "inputs": [],
      "name": "finalAmountReturned",
      "outputs": [
        {
          "name": "",
          "type": "uint256"
        }
      ],
      "payable": false,
      "stateMutability": "view",
      "type": "function"
    },
    {
      "constant": true,
      "inputs": [],
      "name": "polyToken",
      "outputs": [
        {
          "name": "",
          "type": "address"
        }
      ],
      "payable": false,
      "stateMutability": "view",
      "type": "function"
    },
    {
      "constant": true,
      "inputs": [
        {
          "name": "",
          "type": "address"
        }
      ],
      "name": "stableCoinsRaised",
      "outputs": [
        {
          "name": "",
          "type": "uint256"
        }
      ],
      "payable": false,
      "stateMutability": "view",
      "type": "function"
    },
    {
      "constant": true,
      "inputs": [],
      "name": "startTime",
      "outputs": [
        {
          "name": "",
          "type": "uint256"
        }
      ],
      "payable": false,
      "stateMutability": "view",
      "type": "function"
    },
    {
      "constant": false,
      "inputs": [],
      "name": "pause",
      "outputs": [],
      "payable": false,
      "stateMutability": "nonpayable",
      "type": "function"
    },
    {
      "constant": true,
      "inputs": [
        {
          "name": "",
          "type": "address"
        },
        {
          "name": "",
          "type": "uint8"
        }
      ],
      "name": "investorInvested",
      "outputs": [
        {
          "name": "",
          "type": "uint256"
        }
      ],
      "payable": false,
      "stateMutability": "view",
      "type": "function"
    },
    {
      "constant": false,
      "inputs": [
        {
          "name": "_tokenContract",
          "type": "address"
        }
      ],
      "name": "reclaimERC20",
      "outputs": [],
      "payable": false,
      "stateMutability": "nonpayable",
      "type": "function"
    },
    {
      "constant": true,
      "inputs": [],
      "name": "isFinalized",
      "outputs": [
        {
          "name": "",
          "type": "bool"
        }
      ],
      "payable": false,
      "stateMutability": "view",
      "type": "function"
    },
    {
      "constant": true,
      "inputs": [],
      "name": "OPERATOR",
      "outputs": [
        {
          "name": "",
          "type": "bytes32"
        }
      ],
      "payable": false,
      "stateMutability": "view",
      "type": "function"
    },
    {
      "constant": true,
      "inputs": [
        {
          "name": "_fundRaiseType",
          "type": "uint8"
        }
      ],
      "name": "getRaised",
      "outputs": [
        {
          "name": "",
          "type": "uint256"
        }
      ],
      "payable": false,
      "stateMutability": "view",
      "type": "function"
    },
    {
      "constant": true,
      "inputs": [],
      "name": "pausedTime",
      "outputs": [
        {
          "name": "",
          "type": "uint256"
        }
      ],
      "payable": false,
      "stateMutability": "view",
      "type": "function"
    },
    {
      "constant": true,
      "inputs": [],
      "name": "securityToken",
      "outputs": [
        {
          "name": "",
          "type": "address"
        }
      ],
      "payable": false,
      "stateMutability": "view",
      "type": "function"
    },
    {
      "constant": true,
      "inputs": [],
      "name": "factory",
      "outputs": [
        {
          "name": "",
          "type": "address"
        }
      ],
      "payable": false,
      "stateMutability": "view",
      "type": "function"
    },
    {
      "constant": true,
      "inputs": [
        {
          "name": "",
          "type": "uint8"
        }
      ],
      "name": "fundsRaised",
      "outputs": [
        {
          "name": "",
          "type": "uint256"
        }
      ],
      "payable": false,
      "stateMutability": "view",
      "type": "function"
    },
    {
      "constant": true,
      "inputs": [
        {
          "name": "",
          "type": "address"
        }
      ],
      "name": "investorInvestedUSD",
      "outputs": [
        {
          "name": "",
          "type": "uint256"
        }
      ],
      "payable": false,
      "stateMutability": "view",
      "type": "function"
    },
    {
      "constant": true,
      "inputs": [
        {
          "name": "",
          "type": "uint8"
        }
      ],
      "name": "fundRaiseTypes",
      "outputs": [
        {
          "name": "",
          "type": "bool"
        }
      ],
      "payable": false,
      "stateMutability": "view",
      "type": "function"
    },
    {
      "constant": true,
      "inputs": [],
      "name": "currentTier",
      "outputs": [
        {
          "name": "",
          "type": "uint256"
        }
      ],
      "payable": false,
      "stateMutability": "view",
      "type": "function"
    },
    {
      "constant": true,
      "inputs": [],
      "name": "investorCount",
      "outputs": [
        {
          "name": "",
          "type": "uint256"
        }
      ],
      "payable": false,
      "stateMutability": "view",
      "type": "function"
    },
    {
      "constant": true,
      "inputs": [
        {
          "name": "",
          "type": "address"
        }
      ],
      "name": "nonAccreditedLimitUSDOverride",
      "outputs": [
        {
          "name": "",
          "type": "uint256"
        }
      ],
      "payable": false,
      "stateMutability": "view",
      "type": "function"
    },
    {
      "constant": true,
      "inputs": [],
      "name": "minimumInvestmentUSD",
      "outputs": [
        {
          "name": "",
          "type": "uint256"
        }
      ],
      "payable": false,
      "stateMutability": "view",
      "type": "function"
    },
    {
      "constant": true,
      "inputs": [],
      "name": "getDataStore",
      "outputs": [
        {
          "name": "",
          "type": "address"
        }
      ],
      "payable": false,
      "stateMutability": "view",
      "type": "function"
    },
    {
      "constant": true,
      "inputs": [],
      "name": "fundsRaisedUSD",
      "outputs": [
        {
          "name": "",
          "type": "uint256"
        }
      ],
      "payable": false,
      "stateMutability": "view",
      "type": "function"
    },
    {
      "inputs": [
        {
          "name": "_securityToken",
          "type": "address"
        },
        {
          "name": "_polyAddress",
          "type": "address"
        }
      ],
      "payable": false,
      "stateMutability": "nonpayable",
      "type": "constructor"
    },
    {
      "payable": true,
      "stateMutability": "payable",
      "type": "fallback"
    },
    {
      "anonymous": false,
      "inputs": [
        {
          "indexed": false,
          "name": "_allowed",
          "type": "bool"
        }
      ],
      "name": "SetAllowBeneficialInvestments",
      "type": "event"
    },
    {
      "anonymous": false,
      "inputs": [
        {
          "indexed": false,
          "name": "_investor",
          "type": "address"
        },
        {
          "indexed": false,
          "name": "_limit",
          "type": "uint256"
        }
      ],
      "name": "SetNonAccreditedLimit",
      "type": "event"
    },
    {
      "anonymous": false,
      "inputs": [
        {
          "indexed": true,
          "name": "_purchaser",
          "type": "address"
        },
        {
          "indexed": true,
          "name": "_beneficiary",
          "type": "address"
        },
        {
          "indexed": false,
          "name": "_tokens",
          "type": "uint256"
        },
        {
          "indexed": false,
          "name": "_usdAmount",
          "type": "uint256"
        },
        {
          "indexed": false,
          "name": "_tierPrice",
          "type": "uint256"
        },
        {
          "indexed": false,
          "name": "_tier",
          "type": "uint256"
        }
      ],
      "name": "TokenPurchase",
      "type": "event"
    },
    {
      "anonymous": false,
      "inputs": [
        {
          "indexed": true,
          "name": "_purchaser",
          "type": "address"
        },
        {
          "indexed": true,
          "name": "_beneficiary",
          "type": "address"
        },
        {
          "indexed": false,
          "name": "_usdAmount",
          "type": "uint256"
        },
        {
          "indexed": false,
          "name": "_fundRaiseType",
          "type": "uint8"
        },
        {
          "indexed": false,
          "name": "_receivedValue",
          "type": "uint256"
        },
        {
          "indexed": false,
          "name": "_spentValue",
          "type": "uint256"
        },
        {
          "indexed": false,
          "name": "_rate",
          "type": "uint256"
        }
      ],
      "name": "FundsReceived",
      "type": "event"
    },
    {
      "anonymous": false,
      "inputs": [
        {
          "indexed": true,
          "name": "_owner",
          "type": "address"
        },
        {
          "indexed": true,
          "name": "_wallet",
          "type": "address"
        },
        {
          "indexed": false,
          "name": "_tokens",
          "type": "uint256"
        },
        {
          "indexed": false,
          "name": "_latestTier",
          "type": "uint256"
        }
      ],
      "name": "ReserveTokenMint",
      "type": "event"
    },
    {
      "anonymous": false,
      "inputs": [
        {
          "indexed": true,
          "name": "_wallet",
          "type": "address"
        },
        {
          "indexed": false,
          "name": "_usdTokens",
          "type": "address[]"
        }
      ],
      "name": "SetAddresses",
      "type": "event"
    },
    {
      "anonymous": false,
      "inputs": [
        {
          "indexed": false,
          "name": "_nonAccreditedLimitUSD",
          "type": "uint256"
        },
        {
          "indexed": false,
          "name": "_minimumInvestmentUSD",
          "type": "uint256"
        }
      ],
      "name": "SetLimits",
      "type": "event"
    },
    {
      "anonymous": false,
      "inputs": [
        {
          "indexed": false,
          "name": "_startTime",
          "type": "uint256"
        },
        {
          "indexed": false,
          "name": "_endTime",
          "type": "uint256"
        }
      ],
      "name": "SetTimes",
      "type": "event"
    },
    {
      "anonymous": false,
      "inputs": [
        {
          "indexed": false,
          "name": "_ratePerTier",
          "type": "uint256[]"
        },
        {
          "indexed": false,
          "name": "_ratePerTierDiscountPoly",
          "type": "uint256[]"
        },
        {
          "indexed": false,
          "name": "_tokensPerTierTotal",
          "type": "uint256[]"
        },
        {
          "indexed": false,
          "name": "_tokensPerTierDiscountPoly",
          "type": "uint256[]"
        }
      ],
      "name": "SetTiers",
      "type": "event"
    },
    {
      "anonymous": false,
      "inputs": [
        {
          "indexed": false,
          "name": "_oldWallet",
          "type": "address"
        },
        {
          "indexed": false,
          "name": "_newWallet",
          "type": "address"
        }
      ],
      "name": "SetTreasuryWallet",
      "type": "event"
    },
    {
      "anonymous": false,
      "inputs": [
        {
          "indexed": false,
          "name": "account",
          "type": "address"
        }
      ],
      "name": "Pause",
      "type": "event"
    },
    {
      "anonymous": false,
      "inputs": [
        {
          "indexed": false,
          "name": "account",
          "type": "address"
        }
      ],
      "name": "Unpause",
      "type": "event"
    },
    {
      "anonymous": false,
      "inputs": [
        {
          "indexed": false,
          "name": "_fundRaiseTypes",
          "type": "uint8[]"
        }
      ],
      "name": "SetFundRaiseTypes",
      "type": "event"
    },
    {
      "constant": false,
      "inputs": [
        {
          "name": "_startTime",
          "type": "uint256"
        },
        {
          "name": "_endTime",
          "type": "uint256"
        },
        {
          "name": "_ratePerTier",
          "type": "uint256[]"
        },
        {
          "name": "_ratePerTierDiscountPoly",
          "type": "uint256[]"
        },
        {
          "name": "_tokensPerTierTotal",
          "type": "uint256[]"
        },
        {
          "name": "_tokensPerTierDiscountPoly",
          "type": "uint256[]"
        },
        {
          "name": "_nonAccreditedLimitUSD",
          "type": "uint256"
        },
        {
          "name": "_minimumInvestmentUSD",
          "type": "uint256"
        },
        {
          "name": "_fundRaiseTypes",
          "type": "uint8[]"
        },
        {
          "name": "_wallet",
          "type": "address"
        },
        {
          "name": "_treasuryWallet",
          "type": "address"
        },
        {
          "name": "_usdTokens",
          "type": "address[]"
        }
      ],
      "name": "configure",
      "outputs": [],
      "payable": false,
      "stateMutability": "nonpayable",
      "type": "function"
    },
    {
      "constant": false,
      "inputs": [
        {
          "name": "_fundRaiseTypes",
          "type": "uint8[]"
        }
      ],
      "name": "modifyFunding",
      "outputs": [],
      "payable": false,
      "stateMutability": "nonpayable",
      "type": "function"
    },
    {
      "constant": false,
      "inputs": [
        {
          "name": "_nonAccreditedLimitUSD",
          "type": "uint256"
        },
        {
          "name": "_minimumInvestmentUSD",
          "type": "uint256"
        }
      ],
      "name": "modifyLimits",
      "outputs": [],
      "payable": false,
      "stateMutability": "nonpayable",
      "type": "function"
    },
    {
      "constant": false,
      "inputs": [
        {
          "name": "_ratePerTier",
          "type": "uint256[]"
        },
        {
          "name": "_ratePerTierDiscountPoly",
          "type": "uint256[]"
        },
        {
          "name": "_tokensPerTierTotal",
          "type": "uint256[]"
        },
        {
          "name": "_tokensPerTierDiscountPoly",
          "type": "uint256[]"
        }
      ],
      "name": "modifyTiers",
      "outputs": [],
      "payable": false,
      "stateMutability": "nonpayable",
      "type": "function"
    },
    {
      "constant": false,
      "inputs": [
        {
          "name": "_startTime",
          "type": "uint256"
        },
        {
          "name": "_endTime",
          "type": "uint256"
        }
      ],
      "name": "modifyTimes",
      "outputs": [],
      "payable": false,
      "stateMutability": "nonpayable",
      "type": "function"
    },
    {
      "constant": false,
      "inputs": [
        {
          "name": "_wallet",
          "type": "address"
        },
        {
          "name": "_treasuryWallet",
          "type": "address"
        },
        {
          "name": "_usdTokens",
          "type": "address[]"
        }
      ],
      "name": "modifyAddresses",
      "outputs": [],
      "payable": false,
      "stateMutability": "nonpayable",
      "type": "function"
    },
    {
      "constant": false,
      "inputs": [
        {
          "name": "_fundRaiseType",
          "type": "uint8"
        },
        {
          "name": "_oracleAddress",
          "type": "address"
        }
      ],
      "name": "modifyOracle",
      "outputs": [],
      "payable": false,
      "stateMutability": "nonpayable",
      "type": "function"
    },
    {
      "constant": false,
      "inputs": [],
      "name": "finalize",
      "outputs": [],
      "payable": false,
      "stateMutability": "nonpayable",
      "type": "function"
    },
    {
      "constant": false,
      "inputs": [
        {
          "name": "_investors",
          "type": "address[]"
        },
        {
          "name": "_nonAccreditedLimit",
          "type": "uint256[]"
        }
      ],
      "name": "changeNonAccreditedLimit",
      "outputs": [],
      "payable": false,
      "stateMutability": "nonpayable",
      "type": "function"
    },
    {
      "constant": true,
      "inputs": [],
      "name": "getAccreditedData",
      "outputs": [
        {
          "name": "investors",
          "type": "address[]"
        },
        {
          "name": "accredited",
          "type": "bool[]"
        },
        {
          "name": "overrides",
          "type": "uint256[]"
        }
      ],
      "payable": false,
      "stateMutability": "view",
      "type": "function"
    },
    {
      "constant": false,
      "inputs": [
        {
          "name": "_allowBeneficialInvestments",
          "type": "bool"
        }
      ],
      "name": "changeAllowBeneficialInvestments",
      "outputs": [],
      "payable": false,
      "stateMutability": "nonpayable",
      "type": "function"
    },
    {
      "constant": false,
      "inputs": [
        {
          "name": "_beneficiary",
          "type": "address"
        }
      ],
      "name": "buyWithETH",
      "outputs": [
        {
          "name": "",
          "type": "uint256"
        },
        {
          "name": "",
          "type": "uint256"
        },
        {
          "name": "",
          "type": "uint256"
        }
      ],
      "payable": true,
      "stateMutability": "payable",
      "type": "function"
    },
    {
      "constant": false,
      "inputs": [
        {
          "name": "_beneficiary",
          "type": "address"
        },
        {
          "name": "_investedPOLY",
          "type": "uint256"
        }
      ],
      "name": "buyWithPOLY",
      "outputs": [
        {
          "name": "",
          "type": "uint256"
        },
        {
          "name": "",
          "type": "uint256"
        },
        {
          "name": "",
          "type": "uint256"
        }
      ],
      "payable": false,
      "stateMutability": "nonpayable",
      "type": "function"
    },
    {
      "constant": false,
      "inputs": [
        {
          "name": "_beneficiary",
          "type": "address"
        },
        {
          "name": "_investedSC",
          "type": "uint256"
        },
        {
          "name": "_usdToken",
          "type": "address"
        }
      ],
      "name": "buyWithUSD",
      "outputs": [
        {
          "name": "",
          "type": "uint256"
        },
        {
          "name": "",
          "type": "uint256"
        },
        {
          "name": "",
          "type": "uint256"
        }
      ],
      "payable": false,
      "stateMutability": "nonpayable",
      "type": "function"
    },
    {
      "constant": false,
      "inputs": [
        {
          "name": "_beneficiary",
          "type": "address"
        },
        {
          "name": "_minTokens",
          "type": "uint256"
        }
      ],
      "name": "buyWithETHRateLimited",
      "outputs": [
        {
          "name": "",
          "type": "uint256"
        },
        {
          "name": "",
          "type": "uint256"
        },
        {
          "name": "",
          "type": "uint256"
        }
      ],
      "payable": true,
      "stateMutability": "payable",
      "type": "function"
    },
    {
      "constant": false,
      "inputs": [
        {
          "name": "_beneficiary",
          "type": "address"
        },
        {
          "name": "_investedPOLY",
          "type": "uint256"
        },
        {
          "name": "_minTokens",
          "type": "uint256"
        }
      ],
      "name": "buyWithPOLYRateLimited",
      "outputs": [
        {
          "name": "",
          "type": "uint256"
        },
        {
          "name": "",
          "type": "uint256"
        },
        {
          "name": "",
          "type": "uint256"
        }
      ],
      "payable": false,
      "stateMutability": "nonpayable",
      "type": "function"
    },
    {
      "constant": false,
      "inputs": [
        {
          "name": "_beneficiary",
          "type": "address"
        },
        {
          "name": "_investedSC",
          "type": "uint256"
        },
        {
          "name": "_minTokens",
          "type": "uint256"
        },
        {
          "name": "_usdToken",
          "type": "address"
        }
      ],
      "name": "buyWithUSDRateLimited",
      "outputs": [
        {
          "name": "",
          "type": "uint256"
        },
        {
          "name": "",
          "type": "uint256"
        },
        {
          "name": "",
          "type": "uint256"
        }
      ],
      "payable": false,
      "stateMutability": "nonpayable",
      "type": "function"
    },
    {
      "constant": true,
      "inputs": [],
      "name": "isOpen",
      "outputs": [
        {
          "name": "",
          "type": "bool"
        }
      ],
      "payable": false,
      "stateMutability": "view",
      "type": "function"
    },
    {
      "constant": true,
      "inputs": [],
      "name": "capReached",
      "outputs": [
        {
          "name": "",
          "type": "bool"
        }
      ],
      "payable": false,
      "stateMutability": "view",
      "type": "function"
    },
    {
      "constant": false,
      "inputs": [
        {
          "name": "_fundRaiseType",
          "type": "uint8"
        }
      ],
      "name": "getRate",
      "outputs": [
        {
          "name": "",
          "type": "uint256"
        }
      ],
      "payable": false,
      "stateMutability": "nonpayable",
      "type": "function"
    },
    {
      "constant": false,
      "inputs": [
        {
          "name": "_fundRaiseType",
          "type": "uint8"
        },
        {
          "name": "_amount",
          "type": "uint256"
        }
      ],
      "name": "convertToUSD",
      "outputs": [
        {
          "name": "",
          "type": "uint256"
        }
      ],
      "payable": false,
      "stateMutability": "nonpayable",
      "type": "function"
    },
    {
      "constant": false,
      "inputs": [
        {
          "name": "_fundRaiseType",
          "type": "uint8"
        },
        {
          "name": "_amount",
          "type": "uint256"
        }
      ],
      "name": "convertFromUSD",
      "outputs": [
        {
          "name": "",
          "type": "uint256"
        }
      ],
      "payable": false,
      "stateMutability": "nonpayable",
      "type": "function"
    },
    {
      "constant": true,
      "inputs": [],
      "name": "getTokensSold",
      "outputs": [
        {
          "name": "",
          "type": "uint256"
        }
      ],
      "payable": false,
      "stateMutability": "view",
      "type": "function"
    },
    {
      "constant": true,
      "inputs": [],
      "name": "getTokensMinted",
      "outputs": [
        {
          "name": "tokensMinted",
          "type": "uint256"
        }
      ],
      "payable": false,
      "stateMutability": "view",
      "type": "function"
    },
    {
      "constant": true,
      "inputs": [
        {
          "name": "_fundRaiseType",
          "type": "uint8"
        }
      ],
      "name": "getTokensSoldFor",
      "outputs": [
        {
          "name": "tokensSold",
          "type": "uint256"
        }
      ],
      "payable": false,
      "stateMutability": "view",
      "type": "function"
    },
    {
      "constant": true,
      "inputs": [
        {
          "name": "_tier",
          "type": "uint256"
        }
      ],
      "name": "getTokensMintedByTier",
      "outputs": [
        {
          "name": "",
          "type": "uint256[]"
        }
      ],
      "payable": false,
      "stateMutability": "view",
      "type": "function"
    },
    {
      "constant": true,
      "inputs": [
        {
          "name": "_tier",
          "type": "uint256"
        }
      ],
      "name": "getTokensSoldByTier",
      "outputs": [
        {
          "name": "",
          "type": "uint256"
        }
      ],
      "payable": false,
      "stateMutability": "view",
      "type": "function"
    },
    {
      "constant": true,
      "inputs": [],
      "name": "getNumberOfTiers",
      "outputs": [
        {
          "name": "",
          "type": "uint256"
        }
      ],
      "payable": false,
      "stateMutability": "view",
      "type": "function"
    },
    {
      "constant": true,
      "inputs": [],
      "name": "getUsdTokens",
      "outputs": [
        {
          "name": "",
          "type": "address[]"
        }
      ],
      "payable": false,
      "stateMutability": "view",
      "type": "function"
    },
    {
      "constant": true,
      "inputs": [],
      "name": "getPermissions",
      "outputs": [
        {
          "name": "allPermissions",
          "type": "bytes32[]"
        }
      ],
      "payable": false,
      "stateMutability": "view",
      "type": "function"
    },
    {
      "constant": true,
      "inputs": [],
      "name": "getSTODetails",
      "outputs": [
        {
          "name": "",
          "type": "uint256"
        },
        {
          "name": "",
          "type": "uint256"
        },
        {
          "name": "",
          "type": "uint256"
        },
        {
          "name": "",
          "type": "uint256[]"
        },
        {
          "name": "",
          "type": "uint256[]"
        },
        {
          "name": "",
          "type": "uint256"
        },
        {
          "name": "",
          "type": "uint256"
        },
        {
          "name": "",
          "type": "uint256"
        },
        {
          "name": "",
          "type": "bool[]"
        }
      ],
      "payable": false,
      "stateMutability": "view",
      "type": "function"
    },
    {
      "constant": true,
      "inputs": [],
      "name": "getInitFunction",
      "outputs": [
        {
          "name": "",
          "type": "bytes4"
        }
      ],
      "payable": false,
      "stateMutability": "pure",
      "type": "function"
    }
  ],
  "bytecode": "0x608060405260198054600160a01b60ff021916905534801561002057600080fd5b50604051604080620056028339810180604052604081101561004157600080fd5b508051602090910151601880546001600160a01b039384166001600160a01b031991821617909155601780548216331790556019805493909216921691909117905561556f80620000936000396000f3fe6080604052600436106103ce5760003560e01c8063795fe0af116101fd578063bf11664811610118578063d69f6bae116100ab578063ec47740f1161007a578063ec47740f1461141e578063ee7c0db014611433578063fbe8d9fe14611448578063fe58265e14611513578063ff18ead314611528576103ce565b8063d69f6bae14611057578063d7e64c001461106c578063eaa32c4014611081578063eac2f9e4146110b4576103ce565b8063c5139338116100e7578063c513933814610fb6578063cf789d0b14610fe9578063d143a37914611015578063d679677a14611042576103ce565b8063bf11664814610ee4578063c3a07df614610f5f578063c45a015514610f74578063c4d2c6bd14610f89576103ce565b8063983d273711610190578063b39184461161015f578063b391844614610e45578063b39f8ae414610e72578063b7ebae0b14610ea2578063b84dfbd214610ecf576103ce565b8063983d273714610d5a5780639a7cc13514610d6f578063a1530a4414610d9c578063b2cca39d14610e30576103ce565b80638905fd4f116101cc5780638905fd4f14610ca35780638bdb1fe314610cd65780638c9844cb14610d125780638d4e408314610d45576103ce565b8063795fe0af14610bdc5780638456cb5914610c1f578063877baeaa14610c345780638784b1c214610c67576103ce565b806347535d7b116102ed57806363b20117116102805780636faa22a51161024f5780636faa22a514610a1457806370dc875214610a2957806377de903914610b9457806378e9792514610bc7576103ce565b806363b201171461098e5780636ba6c0ed146109a35780636c41027f146109b85780636dd053f4146109cd576103ce565b8063521eb273116102bc578063521eb273146108ec5780635b66629d146109015780635c82d32e1461093a5780635c975abb14610979576103ce565b806347535d7b146108985780634b385a42146108ad5780634bb278f3146108c25780634f935945146108d7576103ce565b80632df413e2116103655780633f4ba83a116103345780633f4ba83a146107e2578063441b9e4a146107f7578063444aa92f146108235780634626402b14610867576103ce565b80632df413e21461075f5780633197cbb6146107885780633a3adf871461079d5780633a4fd45c146107cd576103ce565b80631613ec9d116103a15780631613ec9d146105ab57806316d5ae7f146105dd5780631915edc0146106575780632a0acc6a1461074a576103ce565b8063039af9eb146103de5780630845c46b1461043b5780630f144a48146104775780631040dc271461048e575b6103d933600061153d565b505050005b3480156103ea57600080fd5b506104086004803603602081101561040157600080fd5b5035611811565b604080519687526020870195909552858501939093526060850191909152608084015260a0830152519081900360c00190f35b34801561044757600080fd5b506104656004803603602081101561045e57600080fd5b5035611854565b60408051918252519081900360200190f35b34801561048357600080fd5b5061048c6118fe565b005b34801561049a57600080fd5b506104a3611936565b604051808a815260200189815260200188815260200180602001806020018781526020018681526020018581526020018060200184810384528a818151815260200191508051906020019060200280838360005b8381101561050f5781810151838201526020016104f7565b50505050905001848103835289818151815260200191508051906020019060200280838360005b8381101561054e578181015183820152602001610536565b50505050905001848103825285818151815260200191508051906020019060200280838360005b8381101561058d578181015183820152602001610575565b505050509050019c5050505050505050505050505060405180910390f35b3480156105b757600080fd5b506105c0611b75565b604080516001600160e01b03199092168252519081900360200190f35b3480156105e957600080fd5b506106076004803603602081101561060057600080fd5b5035611b84565b60408051602080825283518183015283519192839290830191858101910280838360005b8381101561064357818101518382015260200161062b565b505050509050019250505060405180910390f35b34801561066357600080fd5b5061066c611c83565b60405180806020018060200180602001848103845287818151815260200191508051906020019060200280838360005b838110156106b457818101518382015260200161069c565b50505050905001848103835286818151815260200191508051906020019060200280838360005b838110156106f35781810151838201526020016106db565b50505050905001848103825285818151815260200191508051906020019060200280838360005b8381101561073257818101518382015260200161071a565b50505050905001965050505050505060405180910390f35b34801561075657600080fd5b50610465611e89565b34801561076b57600080fd5b50610774611e98565b604080519115158252519081900360200190f35b34801561079457600080fd5b50610465611ea1565b3480156107a957600080fd5b5061048c600480360360408110156107c057600080fd5b5080359060200135611ea7565b3480156107d957600080fd5b50610465611f19565b3480156107ee57600080fd5b5061048c611f1f565b34801561080357600080fd5b5061048c6004803603602081101561081a57600080fd5b50351515611f31565b6108496004803603602081101561083957600080fd5b50356001600160a01b0316611fef565b60408051938452602084019290925282820152519081900360600190f35b34801561087357600080fd5b5061087c61200c565b604080516001600160a01b039092168252519081900360200190f35b3480156108a457600080fd5b50610774612021565b3480156108b957600080fd5b50610465612069565b3480156108ce57600080fd5b5061048c61206f565b3480156108e357600080fd5b506107746124bf565b3480156108f857600080fd5b5061087c61252d565b34801561090d57600080fd5b506108496004803603604081101561092457600080fd5b506001600160a01b03813516906020013561253c565b34801561094657600080fd5b506108496004803603606081101561095d57600080fd5b506001600160a01b03813516906020810135906040013561255a565b34801561098557600080fd5b5061077461267f565b34801561099a57600080fd5b5061046561268f565b3480156109af57600080fd5b50610607612695565b3480156109c457600080fd5b506104656126f7565b3480156109d957600080fd5b50610849600480360360808110156109f057600080fd5b506001600160a01b03813581169160208101359160408201359160600135166126fd565b348015610a2057600080fd5b5061087c6127cb565b348015610a3557600080fd5b5061048c60048036036080811015610a4c57600080fd5b810190602081018135600160201b811115610a6657600080fd5b820183602082011115610a7857600080fd5b803590602001918460208302840111600160201b83111715610a9957600080fd5b919390929091602081019035600160201b811115610ab657600080fd5b820183602082011115610ac857600080fd5b803590602001918460208302840111600160201b83111715610ae957600080fd5b919390929091602081019035600160201b811115610b0657600080fd5b820183602082011115610b1857600080fd5b803590602001918460208302840111600160201b83111715610b3957600080fd5b919390929091602081019035600160201b811115610b5657600080fd5b820183602082011115610b6857600080fd5b803590602001918460208302840111600160201b83111715610b8957600080fd5b5090925090506127da565b348015610ba057600080fd5b5061046560048036036020811015610bb757600080fd5b50356001600160a01b0316612917565b348015610bd357600080fd5b50610465612929565b348015610be857600080fd5b5061084960048036036060811015610bff57600080fd5b506001600160a01b0381358116916020810135916040909101351661292f565b348015610c2b57600080fd5b5061048c612941565b348015610c4057600080fd5b5061046560048036036040811015610c5757600080fd5b5060ff81351690602001356129a2565b348015610c7357600080fd5b5061046560048036036040811015610c8a57600080fd5b5080356001600160a01b0316906020013560ff166129bf565b348015610caf57600080fd5b5061048c60048036036020811015610cc657600080fd5b50356001600160a01b03166129dc565b348015610ce257600080fd5b5061048c60048036036040811015610cf957600080fd5b50803560ff1690602001356001600160a01b0316612b7c565b348015610d1e57600080fd5b5061046560048036036040811015610d3557600080fd5b5060ff8135169060200135612cdb565b348015610d5157600080fd5b50610774612cef565b348015610d6657600080fd5b50610465612cfd565b348015610d7b57600080fd5b5061046560048036036020811015610d9257600080fd5b503560ff16612d0f565b348015610da857600080fd5b5061048c60048036036060811015610dbf57600080fd5b6001600160a01b038235811692602081013590911691810190606081016040820135600160201b811115610df257600080fd5b820183602082011115610e0457600080fd5b803590602001918460208302840111600160201b83111715610e2557600080fd5b509092509050612d3b565b348015610e3c57600080fd5b50610465612d87565b348015610e5157600080fd5b5061046560048036036020811015610e6857600080fd5b503560ff16612d8d565b348015610e7e57600080fd5b5061048c60048036036040811015610e9557600080fd5b5080359060200135612dfb565b348015610eae57600080fd5b5061046560048036036020811015610ec557600080fd5b503560ff16612e68565b348015610edb57600080fd5b5061087c612f5a565b348015610ef057600080fd5b5061048c60048036036020811015610f0757600080fd5b810190602081018135600160201b811115610f2157600080fd5b820183602082011115610f3357600080fd5b803590602001918460208302840111600160201b83111715610f5457600080fd5b509092509050612f69565b348015610f6b57600080fd5b50610607613008565b348015610f8057600080fd5b5061087c613077565b348015610f9557600080fd5b5061046560048036036020811015610fac57600080fd5b503560ff16613086565b348015610fc257600080fd5b5061046560048036036020811015610fd957600080fd5b50356001600160a01b0316613098565b61084960048036036040811015610fff57600080fd5b506001600160a01b03813516906020013561153d565b34801561102157600080fd5b506107746004803603602081101561103857600080fd5b503560ff166130aa565b34801561104e57600080fd5b506104656130bf565b34801561106357600080fd5b506104656130c5565b34801561107857600080fd5b50610465613112565b34801561108d57600080fd5b50610465600480360360208110156110a457600080fd5b50356001600160a01b0316613118565b3480156110c057600080fd5b5061048c60048036036101808110156110d857600080fd5b813591602081013591810190606081016040820135600160201b8111156110fe57600080fd5b82018360208201111561111057600080fd5b803590602001918460208302840111600160201b8311171561113157600080fd5b9190808060200260200160405190810160405280939291908181526020018383602002808284376000920191909152509295949360208101935035915050600160201b81111561118057600080fd5b82018360208201111561119257600080fd5b803590602001918460208302840111600160201b831117156111b357600080fd5b9190808060200260200160405190810160405280939291908181526020018383602002808284376000920191909152509295949360208101935035915050600160201b81111561120257600080fd5b82018360208201111561121457600080fd5b803590602001918460208302840111600160201b8311171561123557600080fd5b9190808060200260200160405190810160405280939291908181526020018383602002808284376000920191909152509295949360208101935035915050600160201b81111561128457600080fd5b82018360208201111561129657600080fd5b803590602001918460208302840111600160201b831117156112b757600080fd5b9190808060200260200160405190810160405280939291908181526020018383602002808284376000920191909152509295843595602086013595919450925060608101915060400135600160201b81111561131257600080fd5b82018360208201111561132457600080fd5b803590602001918460208302840111600160201b8311171561134557600080fd5b91908080602002602001604051908101604052809392919081815260200183836020028082843760009201919091525092956001600160a01b038535811696602087013590911695919450925060608101915060400135600160201b8111156113ad57600080fd5b8201836020820111156113bf57600080fd5b803590602001918460208302840111600160201b831117156113e057600080fd5b91908080602002602001604051908101604052809392919081815260200183836020028082843760009201919091525092955061312a945050505050565b34801561142a57600080fd5b50610465613350565b34801561143f57600080fd5b50610465613356565b34801561145457600080fd5b5061048c6004803603604081101561146b57600080fd5b810190602081018135600160201b81111561148557600080fd5b82018360208201111561149757600080fd5b803590602001918460208302840111600160201b831117156114b857600080fd5b919390929091602081019035600160201b8111156114d557600080fd5b8201836020820111156114e757600080fd5b803590602001918460208302840111600160201b8311171561150857600080fd5b50909250905061337f565b34801561151f57600080fd5b5061087c613514565b34801561153457600080fd5b5061046561358d565b600080808061155e600160eb1b6208aa8902600160ea1b621554d102613593565b6001600160a01b031614156115b15760408051600160e51b62461bcd02815260206004820152600e6024820152600160901b6d496e76616c6964204f7261636c6502604482015290519081900360640190fd5b60008052600f6020527ff4803e074bd026baaf6ed2e288c9515f68c72fb7216eebdd7cae1718a53ec3755460ff166116335760408051600160e51b62461bcd02815260206004820152600f60248201527f455448206e6f7420616c6c6f7765640000000000000000000000000000000000604482015290519081900360640190fd5b600080600080611646893460008b61373c565b6001600160a01b038d1660009081526008602052604081209498509296509094509250611691918491805b60ff1681526020810191909152604001600020549063ffffffff6137d616565b6001600160a01b038a1660009081526008602090815260408083208380529091528120919091556116c790839060109080611671565b600080805260106020527f6e0956cda88cad152e89927e53611735b61a5c762d1428573c6931b0a5efcb01919091556015546040516001600160a01b03909116916108fc851502918591818181858888f1935050505015801561172e573d6000803e3d6000fd5b50336108fc611743348563ffffffff6137e816565b6040518115909202916000818181858888f1935050505015801561176b573d6000803e3d6000fd5b50886001600160a01b0316336001600160a01b03167fa5a66b45c30fa6510eb2c3ccbe3c500d21863c7cc3e37d2dc85bb28db7775bd185600034878a604051808681526020018560028111156117bd57fe5b60ff1681526020018481526020018381526020018281526020019550505050505060405180910390a38282611800836117f46130c5565b9063ffffffff6137e816565b965096509650505050509250925092565b600d818154811061181e57fe5b60009182526020909120600790910201805460018201546002830154600384015460048501546006909501549395509193909286565b60008061189d600d848154811061186757fe5b60009182526020822060056007909202010190805b60ff168152602081019190915260400160002054829063ffffffff6137d616565b90506118c9600d84815481106118af57fe5b60009182526020822060056007909202010190600161187c565b90506118f5600d84815481106118db57fe5b60009182526020822060056007909202010190600261187c565b9150505b919050565b6119066137fd565b6040513390303180156108fc02916000818181858888f19350505050158015611933573d6000803e3d6000fd5b50565b60008060006060806000806000606080600d80549050604051908082528060200260200182016040528015611975578160200160208202803883390190505b5090506060600d805490506040519080825280602002602001820160405280156119a9578160200160208202803883390190505b50905060005b600d54811015611a2e57600d81815481106119c657fe5b9060005260206000209060070201600201548382815181106119e457fe5b602002602001018181525050600d81815481106119fd57fe5b906000526020600020906007020160000154828281518110611a1b57fe5b60209081029190910101526001016119af565b506040805160038082526080820190925260609160208201838038833950506000808052600f6020527ff4803e074bd026baaf6ed2e288c9515f68c72fb7216eebdd7cae1718a53ec37554835193945060ff1692849250611a8b57fe5b91151560209283029190910182015260016000819052600f9091527f169f97de0d9a84d840042b17d3c6b9638b3d6fd9024c9eb0c7a306a17b49f88f54825160ff9091169183918110611ada57fe5b91151560209283029190910182015260026000819052600f9091527fa74ba3945261e09fde15ba3db55005b205e61eeb4ad811ac0faa2b315bffeead54825160ff9091169183918110611b2957fe5b6020026020010190151590811515815250506011546012546004548585600554601454611b54613356565b889b509b509b509b509b509b509b509b509b50505050909192939495969798565b600160e21b633ab0be79025b90565b60408051600380825260808201909252606091829190602082018380388339019050509050600d8381548110611bb657fe5b6000918252602080832083805260079290920290910160050190526040812054825190918391611be257fe5b602002602001018181525050600d8381548110611bfb57fe5b6000918252602080832060018085526007939093020160050190526040909120548251909183918110611c2a57fe5b602002602001018181525050600d8381548110611c4357fe5b6000918252602080832060028085526007939093020160050190526040909120548251909183918110611c7257fe5b602090810291909101015292915050565b60608060606000611c92613514565b9050806001600160a01b0316635948f7337fdf3a8dd24acdd05addfc6aeffef7574d2de3f844535ec91e8e0f3e45dba9673160001b6040518263ffffffff1660e01b81526004018082815260200191505060006040518083038186803b158015611cfb57600080fd5b505afa158015611d0f573d6000803e3d6000fd5b505050506040513d6000823e601f3d908101601f191682016040526020811015611d3857600080fd5b810190808051600160201b811115611d4f57600080fd5b82016020810184811115611d6257600080fd5b81518560208202830111600160201b82111715611d7e57600080fd5b505092919050505093508351604051908082528060200260200182016040528015611db3578160200160208202803883390190505b5092508351604051908082528060200260200182016040528015611de1578160200160208202803883390190505b50915060005b8451811015611e8257611e0d858281518110611dff57fe5b6020026020010151836138d6565b848281518110611e1957fe5b602002602001019015159081151581525050600080868381518110611e3a57fe5b60200260200101516001600160a01b03166001600160a01b0316815260200190815260200160002054838281518110611e6f57fe5b6020908102919091010152600101611de7565b5050909192565b600160d91b6420a226a4a70281565b60025460ff1681565b60125481565b600160c11b6727a822a920aa27a902611ec08133613983565b611f025760408051600160e51b62461bcd0281526020600482015260126024820152600080516020615502833981519152604482015290519081900360640190fd5b611f0a613ab8565b611f148383613b11565b505050565b600d5490565b611f276137fd565b611f2f613b5a565b565b600160c11b6727a822a920aa27a902611f4a8133613983565b611f8c5760408051600160e51b62461bcd0281526020600482015260126024820152600080516020615502833981519152604482015290519081900360640190fd5b60025460ff1615158215151415611fa257600080fd5b6002805460ff191683151517908190556040805160ff90921615158252517fea6eddcb8f2bf55dfb29aef4bd48214ef0798b9eae2e1bbb25dac99ecf6da6ae916020908290030190a15050565b6000806000611fff84600061153d565b9250925092509193909250565b6002546201000090046001600160a01b031681565b600254600090610100900460ff168061203b575060115442105b8061204857506012544210155b8061205657506120566124bf565b1561206357506000611b81565b50600190565b600a5481565b600160d91b6420a226a4a7026120858133613983565b6120c75760408051600160e51b62461bcd0281526020600482015260126024820152600080516020615502833981519152604482015290519081900360640190fd5b600254610100900460ff16156121275760408051600160e51b62461bcd02815260206004820152601060248201527f53544f2069732066696e616c697a656400000000000000000000000000000000604482015290519081900360640190fd5b6002805461ff00191661010017905560008080805b600d5481101561222c57612195600d828154811061215657fe5b906000526020600020906007020160040154600d838154811061217557fe5b9060005260206000209060070201600201546137e890919063ffffffff16565b91506121a7848363ffffffff6137d616565b93506121da600d82815481106121b957fe5b906000526020600020906007020160040154846137d690919063ffffffff16565b9250811561222457600d81815481106121ef57fe5b906000526020600020906007020160020154600d828154811061220e57fe5b9060005260206000209060070201600401819055505b60010161213c565b506002546000906201000090046001600160a01b03161561225e576002546201000090046001600160a01b03166122f9565b612266613514565b6001600160a01b03166321f8a7217faae8817359f3dcb67d050f44f3e49f982e0359d90ca4b5f18569926304aaece660001b6040518263ffffffff1660e01b81526004018082815260200191505060206040518083038186803b1580156122cc57600080fd5b505afa1580156122e0573d6000803e3d6000fd5b505050506040513d60208110156122f657600080fd5b50515b90506001600160a01b03811661234e5760408051600160e51b62461bcd02815260206004820152600f6024820152600160881b6e496e76616c6964206164647265737302604482015290519081900360640190fd5b60185460408051600160e01b63556f0dc702815290516000926001600160a01b03169163556f0dc7916004808301926020929190829003018186803b15801561239657600080fd5b505afa1580156123aa573d6000803e3d6000fd5b505050506040513d60208110156123c057600080fd5b505190506123d4858263ffffffff613c0016565b94506123e6858263ffffffff613c2216565b60185460408051600160e01b63bb3acde90281526001600160a01b038681166004830152602482018590526060604483015260006064830181905292519499509092169263bb3acde99260a480820193929182900301818387803b15801561244d57600080fd5b505af1158015612461573d6000803e3d6000fd5b505060045460408051898152602081019290925280516001600160a01b03871694503393507f2e16431844933795a4d33f27d6b8347133a6fb5fa7dcdf51d555906f6d8b70549281900390910190a3505050600c9190915560165550565b600254600090610100900460ff16156124dc5750600c5415611b81565b600d805460001981019081106124ee57fe5b906000526020600020906007020160020154600d6001600d80549050038154811061251557fe5b90600052602060002090600702016004015414905090565b6015546001600160a01b031681565b600080600061254d8585600061255a565b9250925092509250925092565b600080808061257c600160e01b63504f4c5902600160ea1b621554d102613593565b6001600160a01b031614156125cf5760408051600160e51b62461bcd02815260206004820152600e6024820152600160901b6d496e76616c6964204f7261636c6502604482015290519081900360640190fd5b6001600052600f6020527f169f97de0d9a84d840042b17d3c6b9638b3d6fd9024c9eb0c7a306a17b49f88f5460ff166126525760408051600160e51b62461bcd02815260206004820152601060248201527f504f4c59206e6f7420616c6c6f77656400000000000000000000000000000000604482015290519081900360640190fd5b601954612670908790879060019088906001600160a01b0316613c49565b92509250925093509350939050565b601954600160a01b900460ff1681565b60165481565b606060038054806020026020016040519081016040528092919081815260200182805480156126ed57602002820191906000526020600020905b81546001600160a01b031681526001909101906020018083116126cf575b5050505050905090565b600c5481565b60026000908152600f6020527fa74ba3945261e09fde15ba3db55005b205e61eeb4ad811ac0faa2b315bffeead5481908190849060ff16801561275857506001600160a01b03811660009081526009602052604090205460ff165b6127ac5760408051600160e51b62461bcd02815260206004820152600f60248201527f555344206e6f7420616c6c6f7765640000000000000000000000000000000000604482015290519081900360640190fd5b6127ba888860028989613c49565b935093509350509450945094915050565b6019546001600160a01b031681565b600160c11b6727a822a920aa27a9026127f38133613983565b6128355760408051600160e51b62461bcd0281526020600482015260126024820152600080516020615502833981519152604482015290519081900360640190fd5b61283d613ab8565b61290c89898080602002602001604051908101604052809392919081815260200183836020028082843760009201919091525050604080516020808d0282810182019093528c82529093508c92508b91829185019084908082843760009201919091525050604080516020808c0282810182019093528b82529093508b92508a91829185019084908082843760009201919091525050604080516020808b0282810182019093528a82529093508a925089918291850190849080828437600092019190915250613edc92505050565b505050505050505050565b60066020526000908152604090205481565b60115481565b600080600061267086866000876126fd565b601254421061299a5760408051600160e51b62461bcd02815260206004820152601660248201527f53544f20686173206265656e2066696e616c697a656400000000000000000000604482015290519081900360640190fd5b611f2f61431c565b60006129b6826129b185612e68565b61432c565b90505b92915050565b600860209081526000928352604080842090915290825290205481565b6129e46137fd565b6001600160a01b038116612a375760408051600160e51b62461bcd02815260206004820152600f6024820152600160881b6e496e76616c6964206164647265737302604482015290519081900360640190fd5b60408051600160e01b6370a08231028152306004820152905182916000916001600160a01b038416916370a08231916024808301926020929190829003018186803b158015612a8557600080fd5b505afa158015612a99573d6000803e3d6000fd5b505050506040513d6020811015612aaf57600080fd5b505160408051600160e01b63a9059cbb0281523360048201526024810183905290519192506001600160a01b0384169163a9059cbb916044808201926020929091908290030181600087803b158015612b0757600080fd5b505af1158015612b1b573d6000803e3d6000fd5b505050506040513d6020811015612b3157600080fd5b5051611f145760408051600160e51b62461bcd02815260206004820152600f60248201526001608a1b6e151c985b9cd9995c8819985a5b195902604482015290519081900360640190fd5b612b846137fd565b6000826002811115612b9257fe5b1415612c0857600160ea1b621554d1026000527fd31548e11fd1d25b66b1be12e0983b20fe23dc8bde0873602017983a13152a106020527f3c6917af81dcfbc8d0661a7b7f4a7647ca2c28a594f63a9e62a60f0a5ea8c73d80546001600160a01b0319166001600160a01b038316179055612cd7565b6001826002811115612c1657fe5b14612c6b5760408051600160e51b62461bcd02815260206004820152601060248201527f496e76616c69642063757272656e637900000000000000000000000000000000604482015290519081900360640190fd5b600160ea1b621554d1026000527f12f44f96e4768474247b978d99d369344c4b727b9839ae4f4cc0905a1d1a2eaf6020527f111a4207c1729dbd6c6850794194641c131f5ae661a7697967188ccce7b93dc880546001600160a01b0319166001600160a01b0383161790555b5050565b60006129b682612cea85612e68565b614365565b600254610100900460ff1681565b600160c11b6727a822a920aa27a90281565b600060106000836002811115612d2157fe5b60ff16815260208101919091526040016000205492915050565b612d436137fd565b612d81848484848080602002602001604051908101604052809392919081815260200183836020028082843760009201919091525061438592505050565b50505050565b60135481565b6000805b600d54811015612df557612deb600d8281548110612dab57fe5b90600052602060002090600702016005016000856002811115612dca57fe5b60ff168152602081019190915260400160002054839063ffffffff6137d616565b9150600101612d91565b50919050565b600160c11b6727a822a920aa27a902612e148133613983565b612e565760408051600160e51b62461bcd0281526020600482015260126024820152600080516020615502833981519152604482015290519081900360640190fd5b612e5e613ab8565b611f148383614475565b600080826002811115612e7757fe5b1415612f0657612e99600160eb1b6208aa8902600160ea1b621554d102613593565b6001600160a01b03166398d5fdca6040518163ffffffff1660e01b8152600401602060405180830381600087803b158015612ed357600080fd5b505af1158015612ee7573d6000803e3d6000fd5b505050506040513d6020811015612efd57600080fd5b505190506118f9565b6001826002811115612f1457fe5b1415612f3757612e99600160e01b63504f4c5902600160ea1b621554d102613593565b6002826002811115612f4557fe5b14156118f95750670de0b6b3a76400006118f9565b6018546001600160a01b031681565b600160c11b6727a822a920aa27a902612f828133613983565b612fc45760408051600160e51b62461bcd0281526020600482015260126024820152600080516020615502833981519152604482015290519081900360640190fd5b612fcc613ab8565b611f1483838080602002602001604051908101604052809392919081815260200183836020028082843760009201919091525061452092505050565b6040805160028082526060808301845292602083019080388339019050509050600160c11b6727a822a920aa27a9028160008151811061304457fe5b602002602001018181525050600160d91b6420a226a4a7028160018151811061306957fe5b602090810291909101015290565b6017546001600160a01b031681565b60106020526000908152604090205481565b60076020526000908152604090205481565b600f6020526000908152604090205460ff1681565b60045481565b6000805b600d5481101561310e57613104600d82815481106130e357fe5b906000526020600020906007020160040154836137d690919063ffffffff16565b91506001016130c9565b5090565b60145481565b60006020819052908152604090205481565b6017546001600160a01b0316331461318c5760408051600160e51b62461bcd02815260206004820152601560248201527f53656e646572206973206e6f7420666163746f72790000000000000000000000604482015290519081900360640190fd5b60408051808201909152600c81527f4574685573644f7261636c6500000000000000000000000000000000000000006020808301918252600160ea1b621554d1026000527fa27f5adbce3dcb790941ebd020e02078a61e6c9748376e52ec0929d58babf97a90529051613220917f18abff96565a510bb0bde6706c0ad081f97c0babf4f353ad680e9a91a69218a79161538b565b5060408051808201909152600d81527f506f6c795573644f7261636c65000000000000000000000000000000000000006020808301918252600160ea1b621554d1026000527f4fd68da3b492c1a6ae03548f16bd49efb9dfe8bfca854e79100f23b8b713650c905290516132b5917f721eddfce990d3ce778fa0619e97a4e36010a2c874abd686813dbe95a518bfed9161538b565b506012541561330e5760408051600160e51b62461bcd02815260206004820152601260248201527f416c726561647920636f6e666967757265640000000000000000000000000000604482015290519081900360640190fd5b6133188c8c614475565b6133248a8a8a8a613edc565b61332d84614520565b613338838383614385565b6133428686613b11565b505050505050505050505050565b600b5481565b600254600090610100900460ff16156133725750601654611b81565b61337a6130c5565b905090565b600160c11b6727a822a920aa27a9026133988133613983565b6133da5760408051600160e51b62461bcd0281526020600482015260126024820152600080516020615502833981519152604482015290519081900360640190fd5b8382146134315760408051600160e51b62461bcd02815260206004820152600f60248201527f4c656e677468206d69736d617463680000000000000000000000000000000000604482015290519081900360640190fd5b60005b8481101561350c5783838281811061344857fe5b9050602002013560008088888581811061345e57fe5b905060200201356001600160a01b03166001600160a01b03166001600160a01b03168152602001908152602001600020819055507fcde9ad1085e6403dc0f4aec5ed3e0e505e5cd00bc639943be2601cfedc6ce80f8686838181106134bf57fe5b905060200201356001600160a01b03168585848181106134db57fe5b604080516001600160a01b0390951685526020918202939093013590840152508051918290030190a1600101613434565b505050505050565b60185460408051600160e01b63660d0d6702815290516000926001600160a01b03169163660d0d67916004808301926020929190829003018186803b15801561355c57600080fd5b505afa158015613570573d6000803e3d6000fd5b505050506040513d602081101561358657600080fd5b5051905090565b60055481565b6000828152600e602090815260408083208484529091529020546001600160a01b0316806129b957601860009054906101000a90046001600160a01b03166001600160a01b03166377282b706040518163ffffffff1660e01b815260040160206040518083038186803b15801561360957600080fd5b505afa15801561361d573d6000803e3d6000fd5b505050506040513d602081101561363357600080fd5b505160008481526001602081815260408084208785528252928390209251600160e01b63bf40fac102815260048101918252835460029381161561010002600019011692909204602483018190526001600160a01b039094169363bf40fac193928291604490910190849080156136eb5780601f106136c0576101008083540402835291602001916136eb565b820191906000526020600020905b8154815290600101906020018083116136ce57829003601f168201915b50509250505060206040518083038186803b15801561370957600080fd5b505afa15801561371d573d6000803e3d6000fd5b505050506040513d602081101561373357600080fd5b50519392505050565b60008060008061374a6130c5565b905061375586612e68565b9350613763888886896146e7565b909350915084613775826117f46130c5565b10156137cb5760408051600160e51b62461bcd02815260206004820152601360248201527f496e73756666696369656e74206d696e74656400000000000000000000000000604482015290519081900360640190fd5b945094509450949050565b6000828201838110156129b657600080fd5b6000828211156137f757600080fd5b50900390565b601860009054906101000a90046001600160a01b03166001600160a01b0316638da5cb5b6040518163ffffffff1660e01b815260040160206040518083038186803b15801561384b57600080fd5b505afa15801561385f573d6000803e3d6000fd5b505050506040513d602081101561387557600080fd5b50516001600160a01b03163314611f2f5760408051600160e51b62461bcd02815260206004820152601360248201527f53656e646572206973206e6f74206f776e657200000000000000000000000000604482015290519081900360640190fd5b600080826001600160a01b03166333598b00613905600160981b6c494e564553544f52464c4147530287614974565b6040518263ffffffff1660e01b81526004018082815260200191505060206040518083038186803b15801561393957600080fd5b505afa15801561394d573d6000803e3d6000fd5b505050506040513d602081101561396357600080fd5b50519050600181168061397757600061397a565b60015b95945050505050565b600080601860009054906101000a90046001600160a01b03166001600160a01b0316638da5cb5b6040518163ffffffff1660e01b815260040160206040518083038186803b1580156139d457600080fd5b505afa1580156139e8573d6000803e3d6000fd5b505050506040513d60208110156139fe57600080fd5b50516017546001600160a01b038581169281168314935016148180613a205750805b8061397a575060185460408051600160e01b638658b8b90281526001600160a01b0387811660048301523060248301526044820189905291519190921691638658b8b9916064808301926020929190829003018186803b158015613a8357600080fd5b505afa158015613a97573d6000803e3d6000fd5b505050506040513d6020811015613aad57600080fd5b505195945050505050565b6011544210611f2f5760408051600160e51b62461bcd02815260206004820152600f60248201527f416c726561647920737461727465640000000000000000000000000000000000604482015290519081900360640190fd5b600b819055600a829055604080518281526020810184905281517f6edefa108617056bef120162b4dc9ced4920b9a10f2dcc512c4c60fee6e7e693929181900390910190a15050565b601954600160a01b900460ff16613bbb5760408051600160e51b62461bcd02815260206004820152601660248201527f436f6e7472616374206973206e6f742070617573656400000000000000000000604482015290519081900360640190fd5b60198054600160a01b60ff02191690556040805133815290517faeb196d352664784d1900b0e7414a8face7d29f4dae8c4b0cf68ed477423bbf49181900360200190a1565b6000808211613c0e57600080fd5b6000828481613c1957fe5b04949350505050565b600082613c31575060006129b9565b82820282848281613c3e57fe5b04146129b657600080fd5b6000806000806000806000613c608c8c8c8c61373c565b9350935093509350613c9f82600860008f6001600160a01b03166001600160a01b0316815260200190815260200160002060008d600281111561167157fe5b6001600160a01b038d166000908152600860205260408120908c6002811115613cc457fe5b60ff1660ff16815260200190815260200160002081905550613cf082601060008d600281111561167157fe5b601060008c6002811115613d0057fe5b60ff1681526020810191909152604001600020556019546001600160a01b03898116911614613d6c576001600160a01b038816600090815260066020526040902054613d52908363ffffffff6137d616565b6001600160a01b0389166000908152600660205260409020555b60155460408051600160e01b6323b872dd0281523360048201526001600160a01b039283166024820152604481018590529051918a16916323b872dd916064808201926020929091908290030181600087803b158015613dcb57600080fd5b505af1158015613ddf573d6000803e3d6000fd5b505050506040513d6020811015613df557600080fd5b5051613e405760408051600160e51b62461bcd02815260206004820152600f60248201526001608a1b6e151c985b9cd9995c8819985a5b195902604482015290519081900360640190fd5b8b6001600160a01b0316336001600160a01b03167fa5a66b45c30fa6510eb2c3ccbe3c500d21863c7cc3e37d2dc85bb28db7775bd1858d8f878a60405180868152602001856002811115613e9057fe5b60ff1681526020018481526020018381526020018281526020019550505050505060405180910390a38282613ec7836117f46130c5565b96509650965050505050955095509592505050565b60008251118015613eee575081518451145b8015613efb575081518351145b8015613f08575081518151145b613f5c5760408051600160e51b62461bcd02815260206004820152600d60248201527f496e76616c696420496e70757400000000000000000000000000000000000000604482015290519081900360640190fd5b613f68600d6000615405565b60005b84518110156141ce576000858281518110613f8257fe5b6020026020010151118015613faa57506000838281518110613fa057fe5b6020026020010151115b613ffe5760408051600160e51b62461bcd02815260206004820152600d60248201527f496e76616c69642076616c756500000000000000000000000000000000000000604482015290519081900360640190fd5b82818151811061400a57fe5b602002602001015182828151811061401e57fe5b6020026020010151111561407c5760408051600160e51b62461bcd02815260206004820152601a60248201527f546f6f206d616e7920646973636f756e74656420746f6b656e73000000000000604482015290519081900360640190fd5b84818151811061408857fe5b602002602001015184828151811061409c57fe5b602002602001015111156140fa5760408051600160e51b62461bcd02815260206004820152601060248201527f496e76616c696420646973636f756e7400000000000000000000000000000000604482015290519081900360640190fd5b600d6040518060c0016040528087848151811061411357fe5b6020026020010151815260200186848151811061412c57fe5b6020026020010151815260200185848151811061414557fe5b6020026020010151815260200184848151811061415e57fe5b6020908102919091018101518252600082820181905260409283018190528454600181810187559582529082902084516007909202019081559083015181850155908201516002820155606082015160038201556080820151600482015560a09091015160069091015501613f6b565b507fbdbb624542b4a708b5fed87894a55c10945f2676a45a28f9da59597118247496848484846040518080602001806020018060200180602001858103855289818151815260200191508051906020019060200280838360005b83811015614240578181015183820152602001614228565b50505050905001858103845288818151815260200191508051906020019060200280838360005b8381101561427f578181015183820152602001614267565b50505050905001858103835287818151815260200191508051906020019060200280838360005b838110156142be5781810151838201526020016142a6565b50505050905001858103825286818151815260200191508051906020019060200280838360005b838110156142fd5781810151838201526020016142e5565b505050509050019850505050505050505060405180910390a150505050565b6143246137fd565b611f2f6149ad565b6000670de0b6b3a76400006143566143448585613c22565b6002670de0b6b3a76400005b046137d6565b8161435d57fe5b049392505050565b60008161435661437d85670de0b6b3a7640000613c22565b600285614350565b6001600160a01b0383166143e35760408051600160e51b62461bcd02815260206004820152600e60248201527f496e76616c69642077616c6c6574000000000000000000000000000000000000604482015290519081900360640190fd5b601580546001600160a01b0319166001600160a01b0385811691909117909155600254604080516201000090920483168252918416602082015281517febcecb9db04071cf4b4ecc1e2e1e4603e74c9382d6e36c3531f0b62af4c78ed7929181900390910190a16002805462010000600160b01b031916620100006001600160a01b03851602179055611f1481614a52565b818111801561448357504282115b6144d75760408051600160e51b62461bcd02815260206004820152600d60248201527f496e76616c69642074696d657300000000000000000000000000000000000000604482015290519081900360640190fd5b60118290556012819055604080518381526020810183905281517f2eae0d0a99cbf5ab05babf7ee1f4bdf6e9bb99ffdca04682fa54f6682d5d80fe929181900390910190a15050565b6000815111801561453357506003815111155b6145875760408051600160e51b62461bcd02815260206004820152601b60248201527f52616973652074797065206973206e6f74207370656369666965640000000000604482015290519081900360640190fd5b600f6020527ff4803e074bd026baaf6ed2e288c9515f68c72fb7216eebdd7cae1718a53ec375805460ff199081169091557f169f97de0d9a84d840042b17d3c6b9638b3d6fd9024c9eb0c7a306a17b49f88f805482169055600260009081527fa74ba3945261e09fde15ba3db55005b205e61eeb4ad811ac0faa2b315bffeead80549092169091555b81518160ff16101561466e576001600f6000848460ff168151811061463157fe5b6020026020010151600281111561464457fe5b60ff1681526020810191909152604001600020805460ff1916911515919091179055600101614610565b507fe5724f42dd9f217c97b3768212ed6d6692c0135e252387d61b98af28fecd9b02816040518080602001828103825283818151815260200191508051906020019060200280838360005b838110156146d15781810151838201526020016146b9565b505050509050019250505060405180910390a150565b6019546000908190600160a01b900460ff16156147465760408051600160e51b62461bcd0281526020600482015260126024820152600160721b7110dbdb9d1c9858dd081a5cc81c185d5cd95902604482015290519081900360640190fd5b60025460ff166147b0576001600160a01b03861633146147b05760408051600160e51b62461bcd02815260206004820152601560248201527f42656e656669636961727920213d2066756e6465720000000000000000000000604482015290519081900360640190fd5b6147b986614c57565b61480d5760408051600160e51b62461bcd02815260206004820152600c60248201527f556e617574686f72697a65640000000000000000000000000000000000000000604482015290519081900360640190fd5b6000614819858761432c565b90506000614828888884614cfe565b6004549091505b600d548110156148d657600080826004541461484b5760048390555b600d838154811061485857fe5b906000526020600020906007020160020154600d848154811061487757fe5b90600052602060002090600702016004015410156148cc576148aa8b846148a4878b63ffffffff6137e816565b8b614f4a565b925090506148be878263ffffffff6137d616565b9650816148cc5750506148d6565b505060010161482f565b50831561495d576001600160a01b038816600090815260076020526040902054614904576014805460010190555b6001600160a01b03881660009081526007602052604090205461492d908563ffffffff6137d616565b6001600160a01b038916600090815260076020526040902055600554614959908563ffffffff6137d616565b6005555b6149678487614365565b9250505094509492505050565b604080516020808201949094526001600160a01b039290921660601b828201528051808303603401815260549092019052805191012090565b601954600160a01b900460ff1615614a075760408051600160e51b62461bcd0281526020600482015260126024820152600160721b7110dbdb9d1c9858dd081a5cc81c185d5cd95902604482015290519081900360640190fd5b60198054600160a01b60ff021916600160a01b1790556040805133815290517f5ee71a369c8672edded508e624ffc9257fa1ae6886ef32905c18e60196bca3999181900360200190a1565b60005b600354811015614aae5760006009600060038481548110614a7257fe5b6000918252602080832091909101546001600160a01b031683528201929092526040019020805460ff1916911515919091179055600101614a55565b8151614ac1906003906020850190615426565b50600090505b8151811015614bd25760006001600160a01b0316828281518110614ae757fe5b60200260200101516001600160a01b031614158015614b32575060195482516001600160a01b0390911690839083908110614b1e57fe5b60200260200101516001600160a01b031614155b614b865760408051600160e51b62461bcd02815260206004820152601160248201527f496e76616c69642055534420746f6b656e000000000000000000000000000000604482015290519081900360640190fd5b600160096000848481518110614b9857fe5b6020908102919091018101516001600160a01b03168252810191909152604001600020805460ff1916911515919091179055600101614ac7565b60155460408051602080825285518183015285516001600160a01b03909416937f3f631d3ae2d4a6ccc6cdd7042ad27e7e30ee8a49038f228e7b69e9be70eacd5493879392839291830191818601910280838360005b83811015614c40578181015183820152602001614c28565b505050509050019250505060405180910390a25050565b600080614c62613514565b90506000816001600160a01b03166333598b00614c92600160981b6c494e564553544f52464c4147530287614974565b6040518263ffffffff1660e01b81526004018082815260200191505060206040518083038186803b158015614cc657600080fd5b505afa158015614cda573d6000803e3d6000fd5b505050506040513d6020811015614cf057600080fd5b505160021615949350505050565b6000614d08612021565b614d5c5760408051600160e51b62461bcd02815260206004820152600c60248201527f53544f206e6f74206f70656e0000000000000000000000000000000000000000604482015290519081900360640190fd5b60008311614db45760408051600160e51b62461bcd02815260206004820152600d60248201527f4e6f2066756e64732073656e7400000000000000000000000000000000000000604482015290519081900360640190fd5b600b546001600160a01b038516600090815260076020526040902054614de190849063ffffffff6137d616565b1015614e375760408051600160e51b62461bcd02815260206004820152601060248201527f496e766573746d656e74203c206d696e00000000000000000000000000000000604482015290519081900360640190fd5b5080614e42846151a2565b614f43576001600160a01b03841660009081526020819052604081205415614e82576001600160a01b038516600090815260208190526040902054614e86565b600a545b6001600160a01b0386166000908152600760205260409020549091508111614ee257604051600160e51b62461bcd0281526004018080602001828103825260228152602001806155226022913960400191505060405180910390fd5b6001600160a01b0385166000908152600760205260409020548190614f0e90859063ffffffff6137d616565b1115614f41576001600160a01b038516600090815260076020526040902054614f3e90829063ffffffff6137e816565b91505b505b9392505050565b60008060008060008690506000600d8981548110614f6457fe5b6000918252602090912060079091020190506001876002811115614f8457fe5b148015614f98575080600601548160030154115b156150a1576000614fba826006015483600301546137e890919063ffffffff16565b90506000614fd9836004015484600201546137e890919063ffffffff16565b90508181101561500157614ff48c846001015483878f6151b9565b919950909750945061501b565b6150128c846001015484878f6151b9565b91995090975094505b61502b848963ffffffff6137e816565b6006840154909450615043908663ffffffff6137d616565b600684015561505e856005850160008c600281111561167157fe5b8360050160008b600281111561507057fe5b60ff1681526020810191909152604001600020556004830154615099908663ffffffff6137d616565b600484015550505b6000821180156150cb575060006150c9826004015483600201546137e890919063ffffffff16565b115b80156150f5575060018760028111156150e057fe5b1415806150f557508060060154816003015411155b15615195576151258a826000015461511e846004015485600201546137e890919063ffffffff16565b858d6151b9565b9650909450925061513c868563ffffffff6137d616565b9550615154838260050160008a600281111561167157fe5b81600501600089600281111561516657fe5b60ff168152602081019190915260400160002055600481015461518f908463ffffffff6137d616565b60048201555b5050505094509492505050565b6000806151ad613514565b90506118f583826138d6565b60008060006151c88588614365565b91506000601860009054906101000a90046001600160a01b03166001600160a01b031663556f0dc76040518163ffffffff1660e01b815260040160206040518083038186803b15801561521a57600080fd5b505afa15801561522e573d6000803e3d6000fd5b505050506040513d602081101561524457600080fd5b505190508683111561526b57615260878263ffffffff613c0016565b92506001915061527e565b61527b838263ffffffff613c0016565b92505b61528e838263ffffffff613c2216565b925061529a838961432c565b9350858411156152a8578593505b821561537f5760185460408051600160e01b63bb3acde90281526001600160a01b038c811660048301526024820187905260606044830152600060648301819052925193169263bb3acde99260a48084019391929182900301818387803b15801561531257600080fd5b505af1158015615326573d6000803e3d6000fd5b505060408051868152602081018890528082018c90526060810189905290516001600160a01b038d1693503392507fc29b8032387f267ddc010037627574acbf3b1a65a6022ca8ba6c25f0ba85ee759181900360800190a35b50955095509592505050565b828054600181600116156101000203166002900490600052602060002090601f016020900481019282601f106153cc57805160ff19168380011785556153f9565b828001600101855582156153f9579182015b828111156153f95782518255916020019190600101906153de565b5061310e929150615487565b508054600082556007029060005260206000209081019061193391906154a1565b82805482825590600052602060002090810192821561547b579160200282015b8281111561547b57825182546001600160a01b0319166001600160a01b03909116178255602090920191600190910190615446565b5061310e9291506154dd565b611b8191905b8082111561310e576000815560010161548d565b611b8191905b8082111561310e5760008082556001820181905560028201819055600382018190556004820181905560068201556007016154a7565b611b8191905b8082111561310e5780546001600160a01b03191681556001016154e356fe496e76616c6964207065726d697373696f6e00000000000000000000000000004f766572204e6f6e2d6163637265646974656420696e766573746f72206c696d6974a165627a7a723058209588ccc4e79c1028359de10eca209c738c140cdf941e57bfb526335b04078e190029",
  "source": "pragma solidity 0.5.8;\n\nimport \"../STO.sol\";\nimport \"../../../interfaces/IPolymathRegistry.sol\";\nimport \"../../../interfaces/IOracle.sol\";\nimport \"../../../libraries/DecimalMath.sol\";\nimport \"openzeppelin-solidity/contracts/math/SafeMath.sol\";\nimport \"./USDTieredSTOStorage.sol\";\n\n/**\n * @title STO module for standard capped crowdsale\n */\ncontract USDTieredSTO is USDTieredSTOStorage, STO {\n    using SafeMath for uint256;\n\n    string internal constant POLY_ORACLE = \"PolyUsdOracle\";\n    string internal constant ETH_ORACLE = \"EthUsdOracle\";\n\n    ////////////\n    // Events //\n    ////////////\n\n    event SetAllowBeneficialInvestments(bool _allowed);\n    event SetNonAccreditedLimit(address _investor, uint256 _limit);\n    event TokenPurchase(\n        address indexed _purchaser,\n        address indexed _beneficiary,\n        uint256 _tokens,\n        uint256 _usdAmount,\n        uint256 _tierPrice,\n        uint256 _tier\n    );\n    event FundsReceived(\n        address indexed _purchaser,\n        address indexed _beneficiary,\n        uint256 _usdAmount,\n        FundRaiseType _fundRaiseType,\n        uint256 _receivedValue,\n        uint256 _spentValue,\n        uint256 _rate\n    );\n    event ReserveTokenMint(address indexed _owner, address indexed _wallet, uint256 _tokens, uint256 _latestTier);\n    event SetAddresses(address indexed _wallet, IERC20[] _usdTokens);\n    event SetLimits(uint256 _nonAccreditedLimitUSD, uint256 _minimumInvestmentUSD);\n    event SetTimes(uint256 _startTime, uint256 _endTime);\n    event SetTiers(\n        uint256[] _ratePerTier,\n        uint256[] _ratePerTierDiscountPoly,\n        uint256[] _tokensPerTierTotal,\n        uint256[] _tokensPerTierDiscountPoly\n    );\n    event SetTreasuryWallet(address _oldWallet, address _newWallet);\n\n    ///////////////\n    // Modifiers //\n    ///////////////\n\n    modifier validETH() {\n        require(_getOracle(bytes32(\"ETH\"), bytes32(\"USD\")) != address(0), \"Invalid Oracle\");\n        require(fundRaiseTypes[uint8(FundRaiseType.ETH)], \"ETH not allowed\");\n        _;\n    }\n\n    modifier validPOLY() {\n        require(_getOracle(bytes32(\"POLY\"), bytes32(\"USD\")) != address(0), \"Invalid Oracle\");\n        require(fundRaiseTypes[uint8(FundRaiseType.POLY)], \"POLY not allowed\");\n        _;\n    }\n\n    modifier validSC(address _usdToken) {\n        require(fundRaiseTypes[uint8(FundRaiseType.SC)] && usdTokenEnabled[_usdToken], \"USD not allowed\");\n        _;\n    }\n\n    ///////////////////////\n    // STO Configuration //\n    ///////////////////////\n\n    constructor(address _securityToken, address _polyAddress) public Module(_securityToken, _polyAddress) {\n\n    }\n\n    /**\n     * @notice Function used to intialize the contract variables\n     * @param _startTime Unix timestamp at which offering get started\n     * @param _endTime Unix timestamp at which offering get ended\n     * @param _ratePerTier Rate (in USD) per tier (* 10**18)\n     * @param _tokensPerTierTotal Tokens available in each tier\n     * @param _nonAccreditedLimitUSD Limit in USD (* 10**18) for non-accredited investors\n     * @param _minimumInvestmentUSD Minimun investment in USD (* 10**18)\n     * @param _fundRaiseTypes Types of currency used to collect the funds\n     * @param _wallet Ethereum account address to hold the funds\n     * @param _treasuryWallet Ethereum account address to receive unsold tokens\n     * @param _usdTokens Contract address of the stable coins\n     */\n    function configure(\n        uint256 _startTime,\n        uint256 _endTime,\n        uint256[] memory _ratePerTier,\n        uint256[] memory _ratePerTierDiscountPoly,\n        uint256[] memory _tokensPerTierTotal,\n        uint256[] memory _tokensPerTierDiscountPoly,\n        uint256 _nonAccreditedLimitUSD,\n        uint256 _minimumInvestmentUSD,\n        FundRaiseType[] memory _fundRaiseTypes,\n        address payable _wallet,\n        address _treasuryWallet,\n        IERC20[] memory _usdTokens\n    )\n        public\n        onlyFactory\n    {\n        oracleKeys[bytes32(\"ETH\")][bytes32(\"USD\")] = ETH_ORACLE;\n        oracleKeys[bytes32(\"POLY\")][bytes32(\"USD\")] = POLY_ORACLE;\n        require(endTime == 0, \"Already configured\");\n        _modifyTimes(_startTime, _endTime);\n        _modifyTiers(_ratePerTier, _ratePerTierDiscountPoly, _tokensPerTierTotal, _tokensPerTierDiscountPoly);\n        // NB - _setFundRaiseType must come before modifyAddresses\n        _setFundRaiseType(_fundRaiseTypes);\n        _modifyAddresses(_wallet, _treasuryWallet, _usdTokens);\n        _modifyLimits(_nonAccreditedLimitUSD, _minimumInvestmentUSD);\n    }\n\n    /**\n     * @dev Modifies fund raise types\n     * @param _fundRaiseTypes Array of fund raise types to allow\n     */\n    function modifyFunding(FundRaiseType[] calldata _fundRaiseTypes) external withPerm(OPERATOR) {\n        _isSTOStarted();\n        _setFundRaiseType(_fundRaiseTypes);\n    }\n\n    /**\n     * @dev modifies max non accredited invets limit and overall minimum investment limit\n     * @param _nonAccreditedLimitUSD max non accredited invets limit\n     * @param _minimumInvestmentUSD overall minimum investment limit\n     */\n    function modifyLimits(uint256 _nonAccreditedLimitUSD, uint256 _minimumInvestmentUSD) external withPerm(OPERATOR) {\n        _isSTOStarted();\n        _modifyLimits(_nonAccreditedLimitUSD, _minimumInvestmentUSD);\n    }\n\n    /**\n     * @dev modifiers STO tiers. All tiers must be passed, can not edit specific tiers.\n     * @param _ratePerTier Array of rates per tier\n     * @param _ratePerTierDiscountPoly Array of discounted poly rates per tier\n     * @param _tokensPerTierTotal Array of total tokens per tier\n     * @param _tokensPerTierDiscountPoly Array of discounted tokens per tier\n     */\n    function modifyTiers(\n        uint256[] calldata _ratePerTier,\n        uint256[] calldata _ratePerTierDiscountPoly,\n        uint256[] calldata _tokensPerTierTotal,\n        uint256[] calldata _tokensPerTierDiscountPoly\n    )\n        external\n        withPerm(OPERATOR)\n    {\n        _isSTOStarted();\n        _modifyTiers(_ratePerTier, _ratePerTierDiscountPoly, _tokensPerTierTotal, _tokensPerTierDiscountPoly);\n    }\n\n    /**\n     * @dev Modifies STO start and end times\n     * @param _startTime start time of sto\n     * @param _endTime end time of sto\n     */\n    function modifyTimes(uint256 _startTime, uint256 _endTime) external withPerm(OPERATOR) {\n        _isSTOStarted();\n        _modifyTimes(_startTime, _endTime);\n    }\n\n    function _isSTOStarted() internal view {\n        /*solium-disable-next-line security/no-block-members*/\n        require(now < startTime, \"Already started\");\n    }\n\n    /**\n     * @dev Modifies addresses used as wallet, reserve wallet and usd token\n     * @param _wallet Address of wallet where funds are sent\n     * @param _treasuryWallet Address of wallet where unsold tokens are sent\n     * @param _usdTokens Address of usd tokens\n     */\n    function modifyAddresses(address payable _wallet, address _treasuryWallet, IERC20[] calldata _usdTokens) external {\n        _onlySecurityTokenOwner();\n        _modifyAddresses(_wallet, _treasuryWallet, _usdTokens);\n    }\n\n    /**\n     * @dev Modifies Oracle address.\n     *      By default, Polymath oracles are used but issuer can overide them using this function\n     *      Set _oracleAddress to 0x0 to fallback to using Polymath oracles\n     * @param _fundRaiseType Actual currency\n     * @param _oracleAddress address of the oracle\n     */\n    function modifyOracle(FundRaiseType _fundRaiseType, address _oracleAddress) external {\n        _onlySecurityTokenOwner();\n        if (_fundRaiseType == FundRaiseType.ETH) {\n            customOracles[bytes32(\"ETH\")][bytes32(\"USD\")] = _oracleAddress;\n        } else {\n            require(_fundRaiseType == FundRaiseType.POLY, \"Invalid currency\");\n            customOracles[bytes32(\"POLY\")][bytes32(\"USD\")] = _oracleAddress;\n        }\n    }\n\n    function _modifyLimits(uint256 _nonAccreditedLimitUSD, uint256 _minimumInvestmentUSD) internal {\n        minimumInvestmentUSD = _minimumInvestmentUSD;\n        nonAccreditedLimitUSD = _nonAccreditedLimitUSD;\n        emit SetLimits(minimumInvestmentUSD, nonAccreditedLimitUSD);\n    }\n\n    function _modifyTiers(\n        uint256[] memory _ratePerTier,\n        uint256[] memory _ratePerTierDiscountPoly,\n        uint256[] memory _tokensPerTierTotal,\n        uint256[] memory _tokensPerTierDiscountPoly\n    )\n        internal\n    {\n        require(\n            _tokensPerTierTotal.length > 0 &&\n            _ratePerTier.length == _tokensPerTierTotal.length &&\n            _ratePerTierDiscountPoly.length == _tokensPerTierTotal.length &&\n            _tokensPerTierDiscountPoly.length == _tokensPerTierTotal.length,\n            \"Invalid Input\"\n        );\n        delete tiers;\n        for (uint256 i = 0; i < _ratePerTier.length; i++) {\n            require(_ratePerTier[i] > 0 && _tokensPerTierTotal[i] > 0, \"Invalid value\");\n            require(_tokensPerTierDiscountPoly[i] <= _tokensPerTierTotal[i], \"Too many discounted tokens\");\n            require(_ratePerTierDiscountPoly[i] <= _ratePerTier[i], \"Invalid discount\");\n            tiers.push(Tier(_ratePerTier[i], _ratePerTierDiscountPoly[i], _tokensPerTierTotal[i], _tokensPerTierDiscountPoly[i], 0, 0));\n        }\n        emit SetTiers(_ratePerTier, _ratePerTierDiscountPoly, _tokensPerTierTotal, _tokensPerTierDiscountPoly);\n    }\n\n    function _modifyTimes(uint256 _startTime, uint256 _endTime) internal {\n        /*solium-disable-next-line security/no-block-members*/\n        require((_endTime > _startTime) && (_startTime > now), \"Invalid times\");\n        startTime = _startTime;\n        endTime = _endTime;\n        emit SetTimes(_startTime, _endTime);\n    }\n\n    function _modifyAddresses(address payable _wallet, address _treasuryWallet, IERC20[] memory _usdTokens) internal {\n        require(_wallet != address(0), \"Invalid wallet\");\n        wallet = _wallet;\n        emit SetTreasuryWallet(treasuryWallet, _treasuryWallet);\n        treasuryWallet = _treasuryWallet;\n        _modifyUSDTokens(_usdTokens);\n    }\n\n    function _modifyUSDTokens(IERC20[] memory _usdTokens) internal {\n        uint256 i;\n        for(i = 0; i < usdTokens.length; i++) {\n            usdTokenEnabled[address(usdTokens[i])] = false;\n        }\n        usdTokens = _usdTokens;\n        for(i = 0; i < _usdTokens.length; i++) {\n            require(address(_usdTokens[i]) != address(0) && _usdTokens[i] != polyToken, \"Invalid USD token\");\n            usdTokenEnabled[address(_usdTokens[i])] = true;\n        }\n        emit SetAddresses(wallet, _usdTokens);\n    }\n\n    ////////////////////\n    // STO Management //\n    ////////////////////\n\n    /**\n     * @notice Finalizes the STO and mint remaining tokens to treasury address\n     * @notice Treasury wallet address must be whitelisted to successfully finalize\n     */\n    function finalize() external withPerm(ADMIN) {\n        require(!isFinalized, \"STO is finalized\");\n        isFinalized = true;\n        uint256 tempReturned;\n        uint256 tempSold;\n        uint256 remainingTokens;\n        for (uint256 i = 0; i < tiers.length; i++) {\n            remainingTokens = tiers[i].tokenTotal.sub(tiers[i].mintedTotal);\n            tempReturned = tempReturned.add(remainingTokens);\n            tempSold = tempSold.add(tiers[i].mintedTotal);\n            if (remainingTokens > 0) {\n                tiers[i].mintedTotal = tiers[i].tokenTotal;\n            }\n        }\n        address walletAddress = (treasuryWallet == address(0) ? IDataStore(getDataStore()).getAddress(TREASURY) : treasuryWallet);\n        require(walletAddress != address(0), \"Invalid address\");\n        uint256 granularity = securityToken.granularity();\n        tempReturned = tempReturned.div(granularity);\n        tempReturned = tempReturned.mul(granularity);\n        securityToken.issue(walletAddress, tempReturned, \"\");\n        emit ReserveTokenMint(msg.sender, walletAddress, tempReturned, currentTier);\n        finalAmountReturned = tempReturned;\n        totalTokensSold = tempSold;\n    }\n\n    /**\n     * @notice Modifies the list of overrides for non-accredited limits in USD\n     * @param _investors Array of investor addresses to modify\n     * @param _nonAccreditedLimit Array of uints specifying non-accredited limits\n     */\n    function changeNonAccreditedLimit(address[] calldata _investors, uint256[] calldata _nonAccreditedLimit) external withPerm(OPERATOR) {\n        //nonAccreditedLimitUSDOverride\n        require(_investors.length == _nonAccreditedLimit.length, \"Length mismatch\");\n        for (uint256 i = 0; i < _investors.length; i++) {\n            nonAccreditedLimitUSDOverride[_investors[i]] = _nonAccreditedLimit[i];\n            emit SetNonAccreditedLimit(_investors[i], _nonAccreditedLimit[i]);\n        }\n    }\n\n    /**\n     * @notice Returns investor accredited & non-accredited override informatiomn\n     * @return investors list of all configured investors\n     * @return accredited whether investor is accredited\n     * @return override any USD overrides for non-accredited limits for the investor\n     */\n    function getAccreditedData() external view returns (address[] memory investors, bool[] memory accredited, uint256[] memory overrides) {\n        IDataStore dataStore = getDataStore();\n        investors = dataStore.getAddressArray(INVESTORSKEY);\n        accredited = new bool[](investors.length);\n        overrides = new uint256[](investors.length);\n        for (uint256 i = 0; i < investors.length; i++) {\n            accredited[i] = _getIsAccredited(investors[i], dataStore);\n            overrides[i] = nonAccreditedLimitUSDOverride[investors[i]];\n        }\n    }\n\n    /**\n     * @notice Function to set allowBeneficialInvestments (allow beneficiary to be different to funder)\n     * @param _allowBeneficialInvestments Boolean to allow or disallow beneficial investments\n     */\n    function changeAllowBeneficialInvestments(bool _allowBeneficialInvestments) external withPerm(OPERATOR) {\n        require(_allowBeneficialInvestments != allowBeneficialInvestments);\n        allowBeneficialInvestments = _allowBeneficialInvestments;\n        emit SetAllowBeneficialInvestments(allowBeneficialInvestments);\n    }\n\n    //////////////////////////\n    // Investment Functions //\n    //////////////////////////\n\n    /**\n    * @notice fallback function - assumes ETH being invested\n    */\n    function() external payable {\n        buyWithETHRateLimited(msg.sender, 0);\n    }\n\n    // Buy functions without rate restriction\n    function buyWithETH(address _beneficiary) external payable returns (uint256, uint256, uint256) {\n        return buyWithETHRateLimited(_beneficiary, 0);\n    }\n\n    function buyWithPOLY(address _beneficiary, uint256 _investedPOLY) external returns (uint256, uint256, uint256) {\n        return buyWithPOLYRateLimited(_beneficiary, _investedPOLY, 0);\n    }\n\n    function buyWithUSD(address _beneficiary, uint256 _investedSC, IERC20 _usdToken) external returns (uint256, uint256, uint256) {\n        return buyWithUSDRateLimited(_beneficiary, _investedSC, 0, _usdToken);\n    }\n\n    /**\n      * @notice Purchase tokens using ETH\n      * @param _beneficiary Address where security tokens will be sent\n      * @param _minTokens Minumum number of tokens to buy or else revert\n      */\n    function buyWithETHRateLimited(address _beneficiary, uint256 _minTokens) public payable validETH returns (uint256, uint256, uint256) {\n        (uint256 rate, uint256 spentUSD, uint256 spentValue, uint256 initialMinted) = _getSpentvalues(_beneficiary,  msg.value, FundRaiseType.ETH, _minTokens);\n        // Modify storage\n        investorInvested[_beneficiary][uint8(FundRaiseType.ETH)] = investorInvested[_beneficiary][uint8(FundRaiseType.ETH)].add(spentValue);\n        fundsRaised[uint8(FundRaiseType.ETH)] = fundsRaised[uint8(FundRaiseType.ETH)].add(spentValue);\n        // Forward ETH to issuer wallet\n        wallet.transfer(spentValue);\n        // Refund excess ETH to investor wallet\n        msg.sender.transfer(msg.value.sub(spentValue));\n        emit FundsReceived(msg.sender, _beneficiary, spentUSD, FundRaiseType.ETH, msg.value, spentValue, rate);\n        return (spentUSD, spentValue, getTokensMinted().sub(initialMinted));\n    }\n\n    /**\n      * @notice Purchase tokens using POLY\n      * @param _beneficiary Address where security tokens will be sent\n      * @param _investedPOLY Amount of POLY invested\n      * @param _minTokens Minumum number of tokens to buy or else revert\n      */\n    function buyWithPOLYRateLimited(address _beneficiary, uint256 _investedPOLY, uint256 _minTokens) public validPOLY returns (uint256, uint256, uint256) {\n        return _buyWithTokens(_beneficiary, _investedPOLY, FundRaiseType.POLY, _minTokens, polyToken);\n    }\n\n    /**\n      * @notice Purchase tokens using Stable coins\n      * @param _beneficiary Address where security tokens will be sent\n      * @param _investedSC Amount of Stable coins invested\n      * @param _minTokens Minumum number of tokens to buy or else revert\n      * @param _usdToken Address of USD stable coin to buy tokens with\n      */\n    function buyWithUSDRateLimited(address _beneficiary, uint256 _investedSC, uint256 _minTokens, IERC20 _usdToken)\n        public validSC(address(_usdToken)) returns (uint256, uint256, uint256)\n    {\n        return _buyWithTokens(_beneficiary, _investedSC, FundRaiseType.SC, _minTokens, _usdToken);\n    }\n\n    function _buyWithTokens(address _beneficiary, uint256 _tokenAmount, FundRaiseType _fundRaiseType, uint256 _minTokens, IERC20 _token) internal returns (uint256, uint256, uint256) {\n        (uint256 rate, uint256 spentUSD, uint256 spentValue, uint256 initialMinted) = _getSpentvalues(_beneficiary, _tokenAmount, _fundRaiseType, _minTokens);\n        // Modify storage\n        investorInvested[_beneficiary][uint8(_fundRaiseType)] = investorInvested[_beneficiary][uint8(_fundRaiseType)].add(spentValue);\n        fundsRaised[uint8(_fundRaiseType)] = fundsRaised[uint8(_fundRaiseType)].add(spentValue);\n        if(address(_token) != address(polyToken))\n            stableCoinsRaised[address(_token)] = stableCoinsRaised[address(_token)].add(spentValue);\n        // Forward coins to issuer wallet\n        require(_token.transferFrom(msg.sender, wallet, spentValue), \"Transfer failed\");\n        emit FundsReceived(msg.sender, _beneficiary, spentUSD, _fundRaiseType, _tokenAmount, spentValue, rate);\n        return (spentUSD, spentValue, getTokensMinted().sub(initialMinted));\n    }\n\n    function _getSpentvalues(address _beneficiary, uint256 _amount, FundRaiseType _fundRaiseType, uint256 _minTokens) internal returns(uint256 rate, uint256 spentUSD, uint256 spentValue, uint256 initialMinted) {\n        initialMinted = getTokensMinted();\n        rate = getRate(_fundRaiseType);\n        (spentUSD, spentValue) = _buyTokens(_beneficiary, _amount, rate, _fundRaiseType);\n        require(getTokensMinted().sub(initialMinted) >= _minTokens, \"Insufficient minted\");\n    }\n\n\n    /**\n      * @notice Low level token purchase\n      * @param _beneficiary Address where security tokens will be sent\n      * @param _investmentValue Amount of POLY, ETH or Stable coins invested\n      * @param _fundRaiseType Fund raise type (POLY, ETH, SC)\n      */\n    function _buyTokens(\n        address _beneficiary,\n        uint256 _investmentValue,\n        uint256 _rate,\n        FundRaiseType _fundRaiseType\n    )\n        internal\n        whenNotPaused\n        returns(uint256 spentUSD, uint256 spentValue)\n    {\n        if (!allowBeneficialInvestments) {\n            require(_beneficiary == msg.sender, \"Beneficiary != funder\");\n        }\n\n        require(_canBuy(_beneficiary), \"Unauthorized\");\n\n        uint256 originalUSD = DecimalMath.mul(_rate, _investmentValue);\n        uint256 allowedUSD = _buyTokensChecks(_beneficiary, _investmentValue, originalUSD);\n\n        for (uint256 i = currentTier; i < tiers.length; i++) {\n            bool gotoNextTier;\n            uint256 tempSpentUSD;\n            // Update current tier if needed\n            if (currentTier != i)\n                currentTier = i;\n            // If there are tokens remaining, process investment\n            if (tiers[i].mintedTotal < tiers[i].tokenTotal) {\n                (tempSpentUSD, gotoNextTier) = _calculateTier(_beneficiary, i, allowedUSD.sub(spentUSD), _fundRaiseType);\n                spentUSD = spentUSD.add(tempSpentUSD);\n                // If all funds have been spent, exit the loop\n                if (!gotoNextTier)\n                    break;\n            }\n        }\n\n        // Modify storage\n        if (spentUSD > 0) {\n            if (investorInvestedUSD[_beneficiary] == 0)\n                investorCount = investorCount + 1;\n            investorInvestedUSD[_beneficiary] = investorInvestedUSD[_beneficiary].add(spentUSD);\n            fundsRaisedUSD = fundsRaisedUSD.add(spentUSD);\n        }\n\n        spentValue = DecimalMath.div(spentUSD, _rate);\n    }\n\n    function _buyTokensChecks(\n        address _beneficiary,\n        uint256 _investmentValue,\n        uint256 investedUSD\n    )\n        internal\n        view\n        returns(uint256 netInvestedUSD)\n    {\n        require(isOpen(), \"STO not open\");\n        require(_investmentValue > 0, \"No funds sent\");\n\n        // Check for minimum investment\n        require(investedUSD.add(investorInvestedUSD[_beneficiary]) >= minimumInvestmentUSD, \"Investment < min\");\n        netInvestedUSD = investedUSD;\n        // Check for non-accredited cap\n        if (!_isAccredited(_beneficiary)) {\n            uint256 investorLimitUSD = (nonAccreditedLimitUSDOverride[_beneficiary] == 0) ? nonAccreditedLimitUSD : nonAccreditedLimitUSDOverride[_beneficiary];\n            require(investorInvestedUSD[_beneficiary] < investorLimitUSD, \"Over Non-accredited investor limit\");\n            if (investedUSD.add(investorInvestedUSD[_beneficiary]) > investorLimitUSD)\n                netInvestedUSD = investorLimitUSD.sub(investorInvestedUSD[_beneficiary]);\n        }\n    }\n\n    function _calculateTier(\n        address _beneficiary,\n        uint256 _tier,\n        uint256 _investedUSD,\n        FundRaiseType _fundRaiseType\n    )\n        internal\n        returns(uint256 spentUSD, bool gotoNextTier)\n     {\n        // First purchase any discounted tokens if POLY investment\n        uint256 tierSpentUSD;\n        uint256 tierPurchasedTokens;\n        uint256 investedUSD = _investedUSD;\n        Tier storage tierData = tiers[_tier];\n        // Check whether there are any remaining discounted tokens\n        if ((_fundRaiseType == FundRaiseType.POLY) && (tierData.tokensDiscountPoly > tierData.mintedDiscountPoly)) {\n            uint256 discountRemaining = tierData.tokensDiscountPoly.sub(tierData.mintedDiscountPoly);\n            uint256 totalRemaining = tierData.tokenTotal.sub(tierData.mintedTotal);\n            if (totalRemaining < discountRemaining)\n                (spentUSD, tierPurchasedTokens, gotoNextTier) = _purchaseTier(_beneficiary, tierData.rateDiscountPoly, totalRemaining, investedUSD, _tier);\n            else\n                (spentUSD, tierPurchasedTokens, gotoNextTier) = _purchaseTier(_beneficiary, tierData.rateDiscountPoly, discountRemaining, investedUSD, _tier);\n            investedUSD = investedUSD.sub(spentUSD);\n            tierData.mintedDiscountPoly = tierData.mintedDiscountPoly.add(tierPurchasedTokens);\n            tierData.minted[uint8(_fundRaiseType)] = tierData.minted[uint8(_fundRaiseType)].add(tierPurchasedTokens);\n            tierData.mintedTotal = tierData.mintedTotal.add(tierPurchasedTokens);\n        }\n        // Now, if there is any remaining USD to be invested, purchase at non-discounted rate\n        if (investedUSD > 0 &&\n            tierData.tokenTotal.sub(tierData.mintedTotal) > 0 &&\n            (_fundRaiseType != FundRaiseType.POLY || tierData.tokensDiscountPoly <= tierData.mintedDiscountPoly)\n        ) {\n            (tierSpentUSD, tierPurchasedTokens, gotoNextTier) = _purchaseTier(_beneficiary, tierData.rate, tierData.tokenTotal.sub(tierData.mintedTotal), investedUSD, _tier);\n            spentUSD = spentUSD.add(tierSpentUSD);\n            tierData.minted[uint8(_fundRaiseType)] = tierData.minted[uint8(_fundRaiseType)].add(tierPurchasedTokens);\n            tierData.mintedTotal = tierData.mintedTotal.add(tierPurchasedTokens);\n        }\n    }\n\n    function _purchaseTier(\n        address _beneficiary,\n        uint256 _tierPrice,\n        uint256 _tierRemaining,\n        uint256 _investedUSD,\n        uint256 _tier\n    )\n        internal\n        returns(uint256 spentUSD, uint256 purchasedTokens, bool gotoNextTier)\n    {\n        purchasedTokens = DecimalMath.div(_investedUSD, _tierPrice);\n        uint256 granularity = securityToken.granularity();\n\n        if (purchasedTokens > _tierRemaining) {\n            purchasedTokens = _tierRemaining.div(granularity);\n            gotoNextTier = true;\n        } else {\n            purchasedTokens = purchasedTokens.div(granularity);\n        }\n\n        purchasedTokens = purchasedTokens.mul(granularity);\n        spentUSD = DecimalMath.mul(purchasedTokens, _tierPrice);\n\n        // In case of rounding issues, ensure that spentUSD is never more than investedUSD\n        if (spentUSD > _investedUSD) {\n            spentUSD = _investedUSD;\n        }\n\n        if (purchasedTokens > 0) {\n            securityToken.issue(_beneficiary, purchasedTokens, \"\");\n            emit TokenPurchase(msg.sender, _beneficiary, purchasedTokens, spentUSD, _tierPrice, _tier);\n        }\n    }\n\n    function _isAccredited(address _investor) internal view returns(bool) {\n        IDataStore dataStore = getDataStore();\n        return _getIsAccredited(_investor, dataStore);\n    }\n\n    function _getIsAccredited(address _investor, IDataStore dataStore) internal view returns(bool) {\n        uint256 flags = dataStore.getUint256(_getKey(INVESTORFLAGS, _investor));\n        uint256 flag = flags & uint256(1); //isAccredited is flag 0 so we don't need to bit shift flags.\n        return flag > 0 ? true : false;\n    }\n\n    /////////////\n    // Getters //\n    /////////////\n\n    /**\n     * @notice This function returns whether or not the STO is in fundraising mode (open)\n     * @return bool Whether the STO is accepting investments\n     */\n    function isOpen() public view returns(bool) {\n        /*solium-disable-next-line security/no-block-members*/\n        if (isFinalized || now < startTime || now >= endTime || capReached())\n            return false;\n        return true;\n    }\n\n    /**\n     * @notice Checks whether the cap has been reached.\n     * @return bool Whether the cap was reached\n     */\n    function capReached() public view returns (bool) {\n        if (isFinalized) {\n            return (finalAmountReturned == 0);\n        }\n        return (tiers[tiers.length - 1].mintedTotal == tiers[tiers.length - 1].tokenTotal);\n    }\n\n    /**\n     * @dev returns current conversion rate of funds\n     * @param _fundRaiseType Fund raise type to get rate of\n     */\n    function getRate(FundRaiseType _fundRaiseType) public returns (uint256) {\n        if (_fundRaiseType == FundRaiseType.ETH) {\n            return IOracle(_getOracle(bytes32(\"ETH\"), bytes32(\"USD\"))).getPrice();\n        } else if (_fundRaiseType == FundRaiseType.POLY) {\n            return IOracle(_getOracle(bytes32(\"POLY\"), bytes32(\"USD\"))).getPrice();\n        } else if (_fundRaiseType == FundRaiseType.SC) {\n            return 10**18;\n        }\n    }\n\n    /**\n     * @notice This function converts from ETH or POLY to USD\n     * @param _fundRaiseType Currency key\n     * @param _amount Value to convert to USD\n     * @return uint256 Value in USD\n     */\n    function convertToUSD(FundRaiseType _fundRaiseType, uint256 _amount) public returns(uint256) {\n        return DecimalMath.mul(_amount, getRate(_fundRaiseType));\n    }\n\n    /**\n     * @notice This function converts from USD to ETH or POLY\n     * @param _fundRaiseType Currency key\n     * @param _amount Value to convert from USD\n     * @return uint256 Value in ETH or POLY\n     */\n    function convertFromUSD(FundRaiseType _fundRaiseType, uint256 _amount) public returns(uint256) {\n        return DecimalMath.div(_amount, getRate(_fundRaiseType));\n    }\n\n    /**\n     * @notice Return the total no. of tokens sold\n     * @return uint256 Total number of tokens sold\n     */\n    function getTokensSold() public view returns (uint256) {\n        if (isFinalized)\n            return totalTokensSold;\n        return getTokensMinted();\n    }\n\n    /**\n     * @notice Return the total no. of tokens minted\n     * @return uint256 Total number of tokens minted\n     */\n    function getTokensMinted() public view returns (uint256 tokensMinted) {\n        for (uint256 i = 0; i < tiers.length; i++) {\n            tokensMinted = tokensMinted.add(tiers[i].mintedTotal);\n        }\n    }\n\n    /**\n     * @notice Return the total no. of tokens sold for the given fund raise type\n     * param _fundRaiseType The fund raising currency (e.g. ETH, POLY, SC) to calculate sold tokens for\n     * @return uint256 Total number of tokens sold for ETH\n     */\n    function getTokensSoldFor(FundRaiseType _fundRaiseType) external view returns (uint256 tokensSold) {\n        for (uint256 i = 0; i < tiers.length; i++) {\n            tokensSold = tokensSold.add(tiers[i].minted[uint8(_fundRaiseType)]);\n        }\n    }\n\n    /**\n     * @notice Return array of minted tokens in each fund raise type for given tier\n     * param _tier The tier to return minted tokens for\n     * @return uint256[] array of minted tokens in each fund raise type\n     */\n    function getTokensMintedByTier(uint256 _tier) external view returns(uint256[] memory) {\n        uint256[] memory tokensMinted = new uint256[](3);\n        tokensMinted[0] = tiers[_tier].minted[uint8(FundRaiseType.ETH)];\n        tokensMinted[1] = tiers[_tier].minted[uint8(FundRaiseType.POLY)];\n        tokensMinted[2] = tiers[_tier].minted[uint8(FundRaiseType.SC)];\n        return tokensMinted;\n    }\n\n    /**\n     * @notice Return the total no. of tokens sold in a given tier\n     * param _tier The tier to calculate sold tokens for\n     * @return uint256 Total number of tokens sold in the tier\n     */\n    function getTokensSoldByTier(uint256 _tier) external view returns (uint256) {\n        uint256 tokensSold;\n        tokensSold = tokensSold.add(tiers[_tier].minted[uint8(FundRaiseType.ETH)]);\n        tokensSold = tokensSold.add(tiers[_tier].minted[uint8(FundRaiseType.POLY)]);\n        tokensSold = tokensSold.add(tiers[_tier].minted[uint8(FundRaiseType.SC)]);\n        return tokensSold;\n    }\n\n    /**\n     * @notice Return the total no. of tiers\n     * @return uint256 Total number of tiers\n     */\n    function getNumberOfTiers() external view returns (uint256) {\n        return tiers.length;\n    }\n\n    /**\n     * @notice Return the usd tokens accepted by the STO\n     * @return address[] usd tokens\n     */\n    function getUsdTokens() external view returns (IERC20[] memory) {\n        return usdTokens;\n    }\n\n    /**\n     * @notice Return the permissions flag that are associated with STO\n     */\n    function getPermissions() public view returns(bytes32[] memory allPermissions) {\n        allPermissions = new bytes32[](2);\n        allPermissions[0] = OPERATOR;\n        allPermissions[1] = ADMIN;\n        return allPermissions;\n    }\n\n    /**\n     * @notice Return the STO details\n     * @return Unixtimestamp at which offering gets start.\n     * @return Unixtimestamp at which offering ends.\n     * @return Currently active tier\n     * @return Array of Number of tokens this STO will be allowed to sell at different tiers.\n     * @return Array Rate at which tokens are sold at different tiers\n     * @return Amount of funds raised\n     * @return Number of individual investors this STO have.\n     * @return Amount of tokens sold.\n     * @return Array of bools to show if funding is allowed in ETH, POLY, SC respectively\n     */\n    function getSTODetails() external view returns(uint256, uint256, uint256, uint256[] memory, uint256[] memory, uint256, uint256, uint256, bool[] memory) {\n        uint256[] memory cap = new uint256[](tiers.length);\n        uint256[] memory rate = new uint256[](tiers.length);\n        for(uint256 i = 0; i < tiers.length; i++) {\n            cap[i] = tiers[i].tokenTotal;\n            rate[i] = tiers[i].rate;\n        }\n        bool[] memory _fundRaiseTypes = new bool[](3);\n        _fundRaiseTypes[0] = fundRaiseTypes[uint8(FundRaiseType.ETH)];\n        _fundRaiseTypes[1] = fundRaiseTypes[uint8(FundRaiseType.POLY)];\n        _fundRaiseTypes[2] = fundRaiseTypes[uint8(FundRaiseType.SC)];\n        return (\n            startTime,\n            endTime,\n            currentTier,\n            cap,\n            rate,\n            fundsRaisedUSD,\n            investorCount,\n            getTokensSold(),\n            _fundRaiseTypes\n        );\n    }\n\n    /**\n     * @notice This function returns the signature of configure function\n     * @return bytes4 Configure function signature\n     */\n    function getInitFunction() public pure returns(bytes4) {\n        return this.configure.selector;\n    }\n\n    function _getOracle(bytes32 _currency, bytes32 _denominatedCurrency) internal view returns(address oracleAddress) {\n        oracleAddress = customOracles[_currency][_denominatedCurrency];\n        if (oracleAddress == address(0))\n            oracleAddress =  IPolymathRegistry(securityToken.polymathRegistry()).getAddress(oracleKeys[_currency][_denominatedCurrency]);\n    }\n}\n",
  "sourcePath": "C:/Users/victor/Repos/polymath-core/contracts/modules/STO/USDTiered/USDTieredSTO.sol",
  "compiler": {
    "name": "solc",
    "version": "0.5.8+commit.23d335f2.Emscripten.clang"
  },
  "schemaVersion": "3.0.11",
  "updatedAt": "2019-06-19T20:39:29.504Z",
  "devdoc": {
    "methods": {
      "buyWithETHRateLimited(address,uint256)": {
        "params": {
          "_beneficiary": "Address where security tokens will be sent",
          "_minTokens": "Minumum number of tokens to buy or else revert"
        }
      },
      "buyWithPOLYRateLimited(address,uint256,uint256)": {
        "params": {
          "_beneficiary": "Address where security tokens will be sent",
          "_investedPOLY": "Amount of POLY invested",
          "_minTokens": "Minumum number of tokens to buy or else revert"
        }
      },
      "buyWithUSDRateLimited(address,uint256,uint256,address)": {
        "params": {
          "_beneficiary": "Address where security tokens will be sent",
          "_investedSC": "Amount of Stable coins invested",
          "_minTokens": "Minumum number of tokens to buy or else revert",
          "_usdToken": "Address of USD stable coin to buy tokens with"
        }
      },
      "capReached()": {
        "return": "bool Whether the cap was reached"
      },
      "changeAllowBeneficialInvestments(bool)": {
        "params": {
          "_allowBeneficialInvestments": "Boolean to allow or disallow beneficial investments"
        }
      },
      "changeNonAccreditedLimit(address[],uint256[])": {
        "params": {
          "_investors": "Array of investor addresses to modify",
          "_nonAccreditedLimit": "Array of uints specifying non-accredited limits"
        }
      },
      "configure(uint256,uint256,uint256[],uint256[],uint256[],uint256[],uint256,uint256,uint8[],address,address,address[])": {
        "params": {
          "_endTime": "Unix timestamp at which offering get ended",
          "_fundRaiseTypes": "Types of currency used to collect the funds",
          "_minimumInvestmentUSD": "Minimun investment in USD (* 10**18)",
          "_nonAccreditedLimitUSD": "Limit in USD (* 10**18) for non-accredited investors",
          "_ratePerTier": "Rate (in USD) per tier (* 10**18)",
          "_startTime": "Unix timestamp at which offering get started",
          "_tokensPerTierTotal": "Tokens available in each tier",
          "_treasuryWallet": "Ethereum account address to receive unsold tokens",
          "_usdTokens": "Contract address of the stable coins",
          "_wallet": "Ethereum account address to hold the funds"
        }
      },
      "convertFromUSD(uint8,uint256)": {
        "params": {
          "_amount": "Value to convert from USD",
          "_fundRaiseType": "Currency key"
        },
        "return": "uint256 Value in ETH or POLY"
      },
      "convertToUSD(uint8,uint256)": {
        "params": {
          "_amount": "Value to convert to USD",
          "_fundRaiseType": "Currency key"
        },
        "return": "uint256 Value in USD"
      },
      "getAccreditedData()": {
        "return": "investors list of all configured investorsaccredited whether investor is accreditedoverride any USD overrides for non-accredited limits for the investor"
      },
      "getInitFunction()": {
        "return": "bytes4 Configure function signature"
      },
      "getNumberOfTiers()": {
        "return": "uint256 Total number of tiers"
      },
      "getRate(uint8)": {
        "details": "returns current conversion rate of funds",
        "params": {
          "_fundRaiseType": "Fund raise type to get rate of"
        }
      },
      "getSTODetails()": {
        "return": "Unixtimestamp at which offering gets start.Unixtimestamp at which offering ends.Currently active tierArray of Number of tokens this STO will be allowed to sell at different tiers.Array Rate at which tokens are sold at different tiersAmount of funds raisedNumber of individual investors this STO have.Amount of tokens sold.Array of bools to show if funding is allowed in ETH, POLY, SC respectively"
      },
      "getTokensMinted()": {
        "return": "uint256 Total number of tokens minted"
      },
      "getTokensMintedByTier(uint256)": {
        "return": "uint256[] array of minted tokens in each fund raise type"
      },
      "getTokensSold()": {
        "return": "uint256 Total number of tokens sold"
      },
      "getTokensSoldByTier(uint256)": {
        "return": "uint256 Total number of tokens sold in the tier"
      },
      "getTokensSoldFor(uint8)": {
        "return": "uint256 Total number of tokens sold for ETH"
      },
      "getUsdTokens()": {
        "return": "address[] usd tokens"
      },
      "isOpen()": {
        "return": "bool Whether the STO is accepting investments"
      },
      "modifyAddresses(address,address,address[])": {
        "details": "Modifies addresses used as wallet, reserve wallet and usd token",
        "params": {
          "_treasuryWallet": "Address of wallet where unsold tokens are sent",
          "_usdTokens": "Address of usd tokens",
          "_wallet": "Address of wallet where funds are sent"
        }
      },
      "modifyFunding(uint8[])": {
        "details": "Modifies fund raise types",
        "params": {
          "_fundRaiseTypes": "Array of fund raise types to allow"
        }
      },
      "modifyLimits(uint256,uint256)": {
        "details": "modifies max non accredited invets limit and overall minimum investment limit",
        "params": {
          "_minimumInvestmentUSD": "overall minimum investment limit",
          "_nonAccreditedLimitUSD": "max non accredited invets limit"
        }
      },
      "modifyOracle(uint8,address)": {
        "details": "Modifies Oracle address.     By default, Polymath oracles are used but issuer can overide them using this function     Set _oracleAddress to 0x0 to fallback to using Polymath oracles",
        "params": {
          "_fundRaiseType": "Actual currency",
          "_oracleAddress": "address of the oracle"
        }
      },
      "modifyTiers(uint256[],uint256[],uint256[],uint256[])": {
        "details": "modifiers STO tiers. All tiers must be passed, can not edit specific tiers.",
        "params": {
          "_ratePerTier": "Array of rates per tier",
          "_ratePerTierDiscountPoly": "Array of discounted poly rates per tier",
          "_tokensPerTierDiscountPoly": "Array of discounted tokens per tier",
          "_tokensPerTierTotal": "Array of total tokens per tier"
        }
      },
      "modifyTimes(uint256,uint256)": {
        "details": "Modifies STO start and end times",
        "params": {
          "_endTime": "end time of sto",
          "_startTime": "start time of sto"
        }
      },
      "pause()": {
        "details": "Only securityToken owner restriction applied on the super function"
      },
      "reclaimERC20(address)": {
        "details": "We duplicate here due to the overriden owner & onlyOwner",
        "params": {
          "_tokenContract": "The address of the token contract"
        }
      },
      "reclaimETH()": {
        "details": "We duplicate here due to the overriden owner & onlyOwner"
      }
    },
    "title": "STO module for standard capped crowdsale"
  },
  "userdoc": {
    "methods": {
      "buyWithETHRateLimited(address,uint256)": {
        "notice": "Purchase tokens using ETH"
      },
      "buyWithPOLYRateLimited(address,uint256,uint256)": {
        "notice": "Purchase tokens using POLY"
      },
      "buyWithUSDRateLimited(address,uint256,uint256,address)": {
        "notice": "Purchase tokens using Stable coins"
      },
      "capReached()": {
        "notice": "Checks whether the cap has been reached."
      },
      "changeAllowBeneficialInvestments(bool)": {
        "notice": "Function to set allowBeneficialInvestments (allow beneficiary to be different to funder)"
      },
      "changeNonAccreditedLimit(address[],uint256[])": {
        "notice": "Modifies the list of overrides for non-accredited limits in USD"
      },
      "configure(uint256,uint256,uint256[],uint256[],uint256[],uint256[],uint256,uint256,uint8[],address,address,address[])": {
        "notice": "Function used to intialize the contract variables"
      },
      "constructor": "////////////////////",
      "convertFromUSD(uint8,uint256)": {
        "notice": "This function converts from USD to ETH or POLY"
      },
      "convertToUSD(uint8,uint256)": {
        "notice": "This function converts from ETH or POLY to USD"
      },
      "finalize()": {
        "notice": "Finalizes the STO and mint remaining tokens to treasury addressTreasury wallet address must be whitelisted to successfully finalize"
      },
      "getAccreditedData()": {
        "notice": "Returns investor accredited & non-accredited override informatiomn"
      },
      "getDataStore()": {
        "notice": "used to return the data store address of securityToken"
      },
      "getInitFunction()": {
        "notice": "This function returns the signature of configure function"
      },
      "getNumberOfTiers()": {
        "notice": "Return the total no. of tiers"
      },
      "getPermissions()": {
        "notice": "Return the permissions flag that are associated with STO"
      },
      "getRaised(uint8)": {
        "notice": "Returns funds raised by the STO"
      },
      "getSTODetails()": {
        "notice": "Return the STO details"
      },
      "getTokensMinted()": {
        "notice": "Return the total no. of tokens minted"
      },
      "getTokensMintedByTier(uint256)": {
        "notice": "Return array of minted tokens in each fund raise type for given tier param _tier The tier to return minted tokens for"
      },
      "getTokensSold()": {
        "notice": "Return the total no. of tokens sold"
      },
      "getTokensSoldByTier(uint256)": {
        "notice": "Return the total no. of tokens sold in a given tier param _tier The tier to calculate sold tokens for"
      },
      "getTokensSoldFor(uint8)": {
        "notice": "Return the total no. of tokens sold for the given fund raise type param _fundRaiseType The fund raising currency (e.g. ETH, POLY, SC) to calculate sold tokens for"
      },
      "getUsdTokens()": {
        "notice": "Return the usd tokens accepted by the STO"
      },
      "isOpen()": {
        "notice": "This function returns whether or not the STO is in fundraising mode (open)"
      },
      "pause()": {
        "notice": "Pause (overridden function)"
      },
      "reclaimERC20(address)": {
        "notice": "Reclaims ERC20Basic compatible tokens"
      },
      "reclaimETH()": {
        "notice": "Reclaims ETH"
      },
      "unpause()": {
        "notice": "Unpause (overridden function)"
      }
    }
  }
}