{
  "contractName": "USDTieredSTOFactory",
  "abi": [
    {
      "constant": true,
      "inputs": [],
      "name": "name",
      "outputs": [
        {
          "name": "",
          "type": "bytes32"
        }
      ],
      "payable": false,
      "stateMutability": "view",
      "type": "function"
    },
    {
      "constant": false,
      "inputs": [
        {
          "name": "_usageCostProposed",
          "type": "uint256"
        }
      ],
      "name": "proposeUsageCost",
      "outputs": [],
      "payable": false,
      "stateMutability": "nonpayable",
      "type": "function"
    },
    {
      "constant": false,
      "inputs": [
        {
          "name": "_module",
          "type": "address"
        }
      ],
      "name": "upgrade",
      "outputs": [],
      "payable": false,
      "stateMutability": "nonpayable",
      "type": "function"
    },
    {
      "constant": true,
      "inputs": [],
      "name": "willCostInPoly",
      "outputs": [
        {
          "name": "",
          "type": "bool"
        }
      ],
      "payable": false,
      "stateMutability": "view",
      "type": "function"
    },
    {
      "constant": false,
      "inputs": [
        {
          "name": "_setupCost",
          "type": "uint256"
        }
      ],
      "name": "changeSetupCost",
      "outputs": [],
      "payable": false,
      "stateMutability": "nonpayable",
      "type": "function"
    },
    {
      "constant": false,
      "inputs": [
        {
          "name": "_tagsData",
          "type": "bytes32[]"
        }
      ],
      "name": "changeTags",
      "outputs": [],
      "payable": false,
      "stateMutability": "nonpayable",
      "type": "function"
    },
    {
      "constant": false,
      "inputs": [],
      "name": "setupCostInPoly",
      "outputs": [
        {
          "name": "",
          "type": "uint256"
        }
      ],
      "payable": false,
      "stateMutability": "nonpayable",
      "type": "function"
    },
    {
      "constant": false,
      "inputs": [
        {
          "name": "_title",
          "type": "string"
        }
      ],
      "name": "changeTitle",
      "outputs": [],
      "payable": false,
      "stateMutability": "nonpayable",
      "type": "function"
    },
    {
      "constant": false,
      "inputs": [
        {
          "name": "_version",
          "type": "string"
        },
        {
          "name": "_logicContract",
          "type": "address"
        },
        {
          "name": "_upgradeData",
          "type": "bytes"
        }
      ],
      "name": "setLogicContract",
      "outputs": [],
      "payable": false,
      "stateMutability": "nonpayable",
      "type": "function"
    },
    {
      "constant": false,
      "inputs": [],
      "name": "changeUsageCost",
      "outputs": [],
      "payable": false,
      "stateMutability": "nonpayable",
      "type": "function"
    },
    {
      "constant": true,
      "inputs": [],
      "name": "isCostInPoly",
      "outputs": [
        {
          "name": "",
          "type": "bool"
        }
      ],
      "payable": false,
      "stateMutability": "view",
      "type": "function"
    },
    {
      "constant": true,
      "inputs": [],
      "name": "title",
      "outputs": [
        {
          "name": "",
          "type": "string"
        }
      ],
      "payable": false,
      "stateMutability": "view",
      "type": "function"
    },
    {
      "constant": true,
      "inputs": [],
      "name": "version",
      "outputs": [
        {
          "name": "",
          "type": "string"
        }
      ],
      "payable": false,
      "stateMutability": "view",
      "type": "function"
    },
    {
      "constant": true,
      "inputs": [],
      "name": "latestUpgrade",
      "outputs": [
        {
          "name": "",
          "type": "uint256"
        }
      ],
      "payable": false,
      "stateMutability": "view",
      "type": "function"
    },
    {
      "constant": true,
      "inputs": [
        {
          "name": "",
          "type": "uint256"
        }
      ],
      "name": "logicContracts",
      "outputs": [
        {
          "name": "version",
          "type": "string"
        },
        {
          "name": "logicContract",
          "type": "address"
        },
        {
          "name": "upgradeData",
          "type": "bytes"
        }
      ],
      "payable": false,
      "stateMutability": "view",
      "type": "function"
    },
    {
      "constant": true,
      "inputs": [],
      "name": "usageCostProposedAt",
      "outputs": [
        {
          "name": "",
          "type": "uint256"
        }
      ],
      "payable": false,
      "stateMutability": "view",
      "type": "function"
    },
    {
      "constant": false,
      "inputs": [],
      "name": "renounceOwnership",
      "outputs": [],
      "payable": false,
      "stateMutability": "nonpayable",
      "type": "function"
    },
    {
      "constant": true,
      "inputs": [],
      "name": "description",
      "outputs": [
        {
          "name": "",
          "type": "string"
        }
      ],
      "payable": false,
      "stateMutability": "view",
      "type": "function"
    },
    {
      "constant": true,
      "inputs": [],
      "name": "polymathRegistry",
      "outputs": [
        {
          "name": "",
          "type": "address"
        }
      ],
      "payable": false,
      "stateMutability": "view",
      "type": "function"
    },
    {
      "constant": true,
      "inputs": [],
      "name": "setupCost",
      "outputs": [
        {
          "name": "",
          "type": "uint256"
        }
      ],
      "payable": false,
      "stateMutability": "view",
      "type": "function"
    },
    {
      "constant": true,
      "inputs": [],
      "name": "getLowerSTVersionBounds",
      "outputs": [
        {
          "name": "",
          "type": "uint8[]"
        }
      ],
      "payable": false,
      "stateMutability": "view",
      "type": "function"
    },
    {
      "constant": false,
      "inputs": [
        {
          "name": "_name",
          "type": "bytes32"
        }
      ],
      "name": "changeName",
      "outputs": [],
      "payable": false,
      "stateMutability": "nonpayable",
      "type": "function"
    },
    {
      "constant": true,
      "inputs": [],
      "name": "owner",
      "outputs": [
        {
          "name": "",
          "type": "address"
        }
      ],
      "payable": false,
      "stateMutability": "view",
      "type": "function"
    },
    {
      "constant": true,
      "inputs": [],
      "name": "isOwner",
      "outputs": [
        {
          "name": "",
          "type": "bool"
        }
      ],
      "payable": false,
      "stateMutability": "view",
      "type": "function"
    },
    {
      "constant": true,
      "inputs": [],
      "name": "getTags",
      "outputs": [
        {
          "name": "",
          "type": "bytes32[]"
        }
      ],
      "payable": false,
      "stateMutability": "view",
      "type": "function"
    },
    {
      "constant": true,
      "inputs": [
        {
          "name": "",
          "type": "address"
        },
        {
          "name": "",
          "type": "address"
        }
      ],
      "name": "modules",
      "outputs": [
        {
          "name": "",
          "type": "uint256"
        }
      ],
      "payable": false,
      "stateMutability": "view",
      "type": "function"
    },
    {
      "constant": true,
      "inputs": [
        {
          "name": "",
          "type": "address"
        }
      ],
      "name": "moduleToSecurityToken",
      "outputs": [
        {
          "name": "",
          "type": "address"
        }
      ],
      "payable": false,
      "stateMutability": "view",
      "type": "function"
    },
    {
      "constant": true,
      "inputs": [],
      "name": "getTypes",
      "outputs": [
        {
          "name": "",
          "type": "uint8[]"
        }
      ],
      "payable": false,
      "stateMutability": "view",
      "type": "function"
    },
    {
      "constant": false,
      "inputs": [],
      "name": "changeCostType",
      "outputs": [],
      "payable": false,
      "stateMutability": "nonpayable",
      "type": "function"
    },
    {
      "constant": false,
      "inputs": [
        {
          "name": "_setupCost",
          "type": "uint256"
        },
        {
          "name": "_usageCost",
          "type": "uint256"
        },
        {
          "name": "_isCostInPoly",
          "type": "bool"
        }
      ],
      "name": "changeCostAndType",
      "outputs": [],
      "payable": false,
      "stateMutability": "nonpayable",
      "type": "function"
    },
    {
      "constant": false,
      "inputs": [
        {
          "name": "_upgrade",
          "type": "uint256"
        },
        {
          "name": "_version",
          "type": "string"
        },
        {
          "name": "_logicContract",
          "type": "address"
        },
        {
          "name": "_upgradeData",
          "type": "bytes"
        }
      ],
      "name": "updateLogicContract",
      "outputs": [],
      "payable": false,
      "stateMutability": "nonpayable",
      "type": "function"
    },
    {
      "constant": true,
      "inputs": [],
      "name": "usageCost",
      "outputs": [
        {
          "name": "",
          "type": "uint256"
        }
      ],
      "payable": false,
      "stateMutability": "view",
      "type": "function"
    },
    {
      "constant": false,
      "inputs": [],
      "name": "usageCostInPoly",
      "outputs": [
        {
          "name": "",
          "type": "uint256"
        }
      ],
      "payable": false,
      "stateMutability": "nonpayable",
      "type": "function"
    },
    {
      "constant": false,
      "inputs": [
        {
          "name": "_description",
          "type": "string"
        }
      ],
      "name": "changeDescription",
      "outputs": [],
      "payable": false,
      "stateMutability": "nonpayable",
      "type": "function"
    },
    {
      "constant": false,
      "inputs": [
        {
          "name": "newOwner",
          "type": "address"
        }
      ],
      "name": "transferOwnership",
      "outputs": [],
      "payable": false,
      "stateMutability": "nonpayable",
      "type": "function"
    },
    {
      "constant": true,
      "inputs": [],
      "name": "proposedUsageCost",
      "outputs": [
        {
          "name": "",
          "type": "uint256"
        }
      ],
      "payable": false,
      "stateMutability": "view",
      "type": "function"
    },
    {
      "constant": true,
      "inputs": [],
      "name": "getUpperSTVersionBounds",
      "outputs": [
        {
          "name": "",
          "type": "uint8[]"
        }
      ],
      "payable": false,
      "stateMutability": "view",
      "type": "function"
    },
    {
      "constant": true,
      "inputs": [],
      "name": "changeInCostTypeAt",
      "outputs": [
        {
          "name": "",
          "type": "uint256"
        }
      ],
      "payable": false,
      "stateMutability": "view",
      "type": "function"
    },
    {
      "constant": false,
      "inputs": [
        {
          "name": "_boundType",
          "type": "string"
        },
        {
          "name": "_newVersion",
          "type": "uint8[]"
        }
      ],
      "name": "changeSTVersionBounds",
      "outputs": [],
      "payable": false,
      "stateMutability": "nonpayable",
      "type": "function"
    },
    {
      "inputs": [
        {
          "name": "_setupCost",
          "type": "uint256"
        },
        {
          "name": "_usageCost",
          "type": "uint256"
        },
        {
          "name": "_logicContract",
          "type": "address"
        },
        {
          "name": "_polymathRegistry",
          "type": "address"
        },
        {
          "name": "_isCostInPoly",
          "type": "bool"
        }
      ],
      "payable": false,
      "stateMutability": "nonpayable",
      "type": "constructor"
    },
    {
      "anonymous": false,
      "inputs": [
        {
          "indexed": false,
          "name": "_version",
          "type": "string"
        },
        {
          "indexed": false,
          "name": "_upgrade",
          "type": "uint256"
        },
        {
          "indexed": false,
          "name": "_logicContract",
          "type": "address"
        },
        {
          "indexed": false,
          "name": "_upgradeData",
          "type": "bytes"
        }
      ],
      "name": "LogicContractSet",
      "type": "event"
    },
    {
      "anonymous": false,
      "inputs": [
        {
          "indexed": true,
          "name": "_module",
          "type": "address"
        },
        {
          "indexed": true,
          "name": "_securityToken",
          "type": "address"
        },
        {
          "indexed": true,
          "name": "_version",
          "type": "uint256"
        }
      ],
      "name": "ModuleUpgraded",
      "type": "event"
    },
    {
      "anonymous": false,
      "inputs": [
        {
          "indexed": true,
          "name": "previousOwner",
          "type": "address"
        },
        {
          "indexed": true,
          "name": "newOwner",
          "type": "address"
        }
      ],
      "name": "OwnershipTransferred",
      "type": "event"
    },
    {
      "anonymous": false,
      "inputs": [
        {
          "indexed": false,
          "name": "_oldSetupCost",
          "type": "uint256"
        },
        {
          "indexed": false,
          "name": "_newSetupCost",
          "type": "uint256"
        }
      ],
      "name": "ChangeSetupCost",
      "type": "event"
    },
    {
      "anonymous": false,
      "inputs": [
        {
          "indexed": false,
          "name": "_oldUsageCost",
          "type": "uint256"
        },
        {
          "indexed": false,
          "name": "_newUsageCost",
          "type": "uint256"
        }
      ],
      "name": "ChangeUsageCost",
      "type": "event"
    },
    {
      "anonymous": false,
      "inputs": [
        {
          "indexed": false,
          "name": "_proposedFee",
          "type": "uint256"
        },
        {
          "indexed": false,
          "name": "_currentFee",
          "type": "uint256"
        }
      ],
      "name": "UsageCostProposed",
      "type": "event"
    },
    {
      "anonymous": false,
      "inputs": [
        {
          "indexed": false,
          "name": "_isOldCostInPoly",
          "type": "bool"
        },
        {
          "indexed": false,
          "name": "_isNewCostInPoly",
          "type": "bool"
        }
      ],
      "name": "ChangeCostType",
      "type": "event"
    },
    {
      "anonymous": false,
      "inputs": [
        {
          "indexed": false,
          "name": "_proposedCostType",
          "type": "bool"
        },
        {
          "indexed": false,
          "name": "_currentCostType",
          "type": "bool"
        }
      ],
      "name": "ChangeCostTypeProposed",
      "type": "event"
    },
    {
      "anonymous": false,
      "inputs": [
        {
          "indexed": false,
          "name": "_module",
          "type": "address"
        },
        {
          "indexed": true,
          "name": "_moduleName",
          "type": "bytes32"
        },
        {
          "indexed": true,
          "name": "_moduleFactory",
          "type": "address"
        },
        {
          "indexed": false,
          "name": "_creator",
          "type": "address"
        },
        {
          "indexed": false,
          "name": "_setupCost",
          "type": "uint256"
        },
        {
          "indexed": false,
          "name": "_setupCostInPoly",
          "type": "uint256"
        }
      ],
      "name": "GenerateModuleFromFactory",
      "type": "event"
    },
    {
      "anonymous": false,
      "inputs": [
        {
          "indexed": false,
          "name": "_boundType",
          "type": "string"
        },
        {
          "indexed": false,
          "name": "_major",
          "type": "uint8"
        },
        {
          "indexed": false,
          "name": "_minor",
          "type": "uint8"
        },
        {
          "indexed": false,
          "name": "_patch",
          "type": "uint8"
        }
      ],
      "name": "ChangeSTVersionBound",
      "type": "event"
    },
    {
      "constant": false,
      "inputs": [
        {
          "name": "_data",
          "type": "bytes"
        }
      ],
      "name": "deploy",
      "outputs": [
        {
          "name": "",
          "type": "address"
        }
      ],
      "payable": false,
      "stateMutability": "nonpayable",
      "type": "function"
    }
  ],
  "bytecode": "0x60806040523480156200001157600080fd5b5060405160a08062005707833981018060405260a08110156200003357600080fd5b508051602080830151604080850151606086015160809096015182518084018452600581527f332e312e3000000000000000000000000000000000000000000000000000000095810195909552600080546001600160a01b03191633178082559351969794969295919391928892889288928892889287928792869286926001600160a01b0392909216917f8be0079c531659141344cd1fd0a4f28419497f9722a3daafe3b4186f6b6457e0908290a3600993909355600a829055600b9190915542600c819055600e55600180546001600160a01b0319166001600160a01b039283161790556008805460ff199081169315159390931790819055600d805490931660ff9091161515179091558316620001ae57604080517f08c379a000000000000000000000000000000000000000000000000000000000815260206004820152600f60248201527f496e76616c696420616464726573730000000000000000000000000000000000604482015290519081900360640190fd5b60138054600090815260106020908152604080832060010180546001600160a01b0319166001600160a01b038916179055925482529190208751620001f69289019062000565565b50507f55534454696572656453544f0000000000000000000000000000000000000000600355505060408051808201909152600a8082527f5469657265642053544f0000000000000000000000000000000000000000000060209092019182526200026994506004935090915062000565565b50604051806101e001604052806101af8152602001620055586101af913980516200029d9160059160209091019062000565565b50600680546001818101835560208083047ff652222313e28459528d920b65115c16c04f3efc82aaedc97be59f3f377c0d3f9081018054601f95861661010090810a600381810260ff92830219909416939093179093558754808701895585810485018054918916830a60088102908602199092169190911790558754808701895585810485018054918916830a6005810290860219909216919091179055875480870190985584880490930180549790961690920a600981029102199095169490941790925560078054808301825560008281527f54696572656400000000000000000000000000000000000000000000000000007fa66cc928b5edb82af9bd49922954155ab7b0942694bea4ce44661d9a8736c68892830155825480850184557f455448000000000000000000000000000000000000000000000000000000000090830155825480850184557f504f4c590000000000000000000000000000000000000000000000000000000090830155825480850184557f55534400000000000000000000000000000000000000000000000000000000009083015582549384019092557f53544f0000000000000000000000000000000000000000000000000000000000920191909155620004829291819062002f5f6200054d821b17901c565b604080517f6c6f776572426f756e64000000000000000000000000000000000000000000008152600f600a8201529051602a91819003919091019020805462ffffff191662ffffff92909216919091179055620004f06003600160006200054d602090811b62002f5f17901c565b604080517f7570706572426f756e64000000000000000000000000000000000000000000008152600f600a820152905190819003602a019020805462ffffff9290921662ffffff19909216919091179055506200060a9350505050565b60ff90811691811660081b921660101b919091171790565b828054600181600116156101000203166002900490600052602060002090601f016020900481019282601f10620005a857805160ff1916838001178555620005d8565b82800160010185558215620005d8579182015b82811115620005d8578251825591602001919060010190620005bb565b50620005e6929150620005ea565b5090565b6200060791905b80821115620005e65760008155600101620005f1565b90565b614f3e806200061a6000396000f3fe60806040523480156200001157600080fd5b50600436106200027f5760003560e01c80637e363ffa1162000159578063c866e97f11620000c9578063f2fde38b1162000087578063f2fde38b1462000ab0578063f5a760f91462000ad9578063f78629991462000ae3578063fae116ce1462000aed578063fb9724561462000af7576200027f565b8063c866e97f14620008e9578063d26633e01462000917578063d54c472614620009f2578063dc265db814620009fc578063e61204131462000a06576200027f565b8063995d9ab71162000117578063995d9ab71462000871578063a01fe646146200087b578063a76a0cad14620008ac578063b4579d6014620008d5578063c2b389e314620008df576200027f565b80637e363ffa14620007d75780638677768f14620007e1578063898855ed146200083d5780638da5cb5b146200085d5780638f32d59b1462000867576200027f565b806340997f6a11620001f55780636b68e14411620001b35780636b68e14414620006925780636b9dba0414620007af578063715018a614620007b95780637284e41614620007c357806377282b7014620007cd576200027f565b806340997f6a14620005e8578063436846b814620005f25780634a79d50c14620005fc57806354fd4d50146200067e57806360fece011462000688576200027f565b80630c4c2d8f11620002435780630c4c2d8f1462000399578063265a721814620003b95780632d0aa22e14620004605780632dbe07c7146200046a5780633c1fdaa51462000514576200027f565b8062774360146200028457806306fdde031462000314578063075df4f114620003305780630900f01014620003525780630a78b418146200037b575b600080fd5b620002f8600480360360208110156200029c57600080fd5b810190602081018135600160201b811115620002b757600080fd5b820183602082011115620002ca57600080fd5b803590602001918460018302840111600160201b83111715620002ec57600080fd5b50909250905062000bbe565b604080516001600160a01b039092168252519081900360200190f35b6200031e62000da7565b60408051918252519081900360200190f35b62000350600480360360208110156200034857600080fd5b503562000dad565b005b62000350600480360360208110156200036a57600080fd5b50356001600160a01b031662000dcf565b620003856200109d565b604080519115158252519081900360200190f35b6200035060048036036020811015620003b157600080fd5b5035620010a6565b6200035060048036036020811015620003d157600080fd5b810190602081018135600160201b811115620003ec57600080fd5b820183602082011115620003ff57600080fd5b803590602001918460208302840111600160201b831117156200042157600080fd5b919080806020026020016040519081016040528093929190818152602001838360200280828437600092019190915250929550620010fc945050505050565b6200031e62001175565b62000350600480360360208110156200048257600080fd5b810190602081018135600160201b8111156200049d57600080fd5b820183602082011115620004b057600080fd5b803590602001918460018302840111600160201b83111715620004d257600080fd5b91908080601f0160208091040260200160405190810160405280939291908181526020018383808284376000920191909152509295506200132d945050505050565b62000350600480360360608110156200052c57600080fd5b810190602081018135600160201b8111156200054757600080fd5b8201836020820111156200055a57600080fd5b803590602001918460018302840111600160201b831117156200057c57600080fd5b919390926001600160a01b0383351692604081019060200135600160201b811115620005a757600080fd5b820183602082011115620005ba57600080fd5b803590602001918460018302840111600160201b83111715620005dc57600080fd5b509092509050620013a2565b620003506200160b565b62000385620016d9565b62000606620016e2565b6040805160208082528351818301528351919283929083019185019080838360005b838110156200064257818101518382015260200162000628565b50505050905090810190601f168015620006705780820380516001836020036101000a031916815260200191505b509250505060405180910390f35b6200060662001774565b6200031e6200181a565b620006b260048036036020811015620006aa57600080fd5b503562001820565b6040518080602001846001600160a01b03166001600160a01b0316815260200180602001838103835286818151815260200191508051906020019080838360005b838110156200070d578181015183820152602001620006f3565b50505050905090810190601f1680156200073b5780820380516001836020036101000a031916815260200191505b50838103825284518152845160209182019186019080838360005b838110156200077057818101518382015260200162000756565b50505050905090810190601f1680156200079e5780820380516001836020036101000a031916815260200191505b509550505050505060405180910390f35b6200031e6200196d565b6200035062001973565b62000606620019d1565b620002f862001a2f565b6200031e62001a3e565b620007eb62001a44565b60408051602080825283518183015283519192839290830191858101910280838360005b83811015620008295781810151838201526020016200080f565b505050509050019250505060405180910390f35b62000350600480360360208110156200085557600080fd5b503562001a86565b620002f862001ae7565b6200038562001af6565b620007eb62001b07565b6200031e600480360360408110156200089357600080fd5b506001600160a01b038135811691602001351662001b60565b620002f860048036036020811015620008c457600080fd5b50356001600160a01b031662001b7d565b620007eb62001b98565b6200035062001c0f565b62000350600480360360608110156200090157600080fd5b5080359060208101359060400135151562001cf6565b62000350600480360360808110156200092f57600080fd5b81359190810190604081016020820135600160201b8111156200095157600080fd5b8201836020820111156200096457600080fd5b803590602001918460018302840111600160201b831117156200098657600080fd5b919390926001600160a01b0383351692604081019060200135600160201b811115620009b157600080fd5b820183602082011115620009c457600080fd5b803590602001918460018302840111600160201b83111715620009e657600080fd5b50909250905062001d71565b6200031e62002090565b6200031e62002096565b620003506004803603602081101562000a1e57600080fd5b810190602081018135600160201b81111562000a3957600080fd5b82018360208201111562000a4c57600080fd5b803590602001918460018302840111600160201b8311171562000a6e57600080fd5b91908080601f01602080910402602001604051908101604052809392919081815260200183838082843760009201919091525092955062002247945050505050565b620003506004803603602081101562000ac857600080fd5b50356001600160a01b0316620022bc565b6200031e620022db565b620007eb620022e1565b6200031e6200231e565b620003506004803603604081101562000b0f57600080fd5b810190602081018135600160201b81111562000b2a57600080fd5b82018360208201111562000b3d57600080fd5b803590602001918460018302840111600160201b8311171562000b5f57600080fd5b919390929091602081019035600160201b81111562000b7d57600080fd5b82018360208201111562000b9057600080fd5b803590602001918460208302840111600160201b8311171562000bb257600080fd5b50909250905062002324565b60135460009081526010602090815260408083206001548251600160e01b63bf40fac10281526004810185905260096024820152600160b91b682837b63caa37b5b2b702604482015292518594929333936001600160a01b039093169263bf40fac192606480840193829003018186803b15801562000c3c57600080fd5b505afa15801562000c51573d6000803e3d6000fd5b505050506040513d602081101562000c6857600080fd5b5051601354600090815260106020526040908190206001015490516001600160a01b039091169062000c9a9062003417565b6001600160a01b0380851660208301528381166040830152821660608201526080808252855460026000196101006001841615020190911604908201819052819060a08201908790801562000d335780601f1062000d075761010080835404028352916020019162000d33565b820191906000526020600020905b81548152906001019060200180831162000d1557829003601f168201915b505095505050505050604051809103906000f08015801562000d59573d6000803e3d6000fd5b50905062000d9e8185858080601f0160208091040260200160405190810160405280939291908181526020018383808284376000920191909152506200281c92505050565b90505b92915050565b60035481565b62000db762001af6565b62000dc157600080fd5b62000dcc816200286f565b50565b6001600160a01b0381811660009081526012602052604090205416331462000e415760408051600160e51b62461bcd02815260206004820152601060248201527f496e636f72726563742063616c6c657200000000000000000000000000000000604482015290519081900360640190fd5b3360009081526011602090815260408083206001600160a01b038516845290915290205460135460019091019081111562000ec65760408051600160e51b62461bcd02815260206004820152601160248201527f496e636f72726563742076657273696f6e000000000000000000000000000000604482015290519081900360640190fd5b600081815260106020526040908190206001808201549251600160e01b63958a41dd0281526001600160a01b03938416602482018190526060600483019081528454600260001995821615610100029590950116849004606484018190529588169563958a41dd959492939285019282916044820191608401908790801562000f935780601f1062000f675761010080835404028352916020019162000f93565b820191906000526020600020905b81548152906001019060200180831162000f7557829003601f168201915b50508381038252845460026000196101006001841615020190911604808252602090910190859080156200100b5780601f1062000fdf576101008083540402835291602001916200100b565b820191906000526020600020905b81548152906001019060200180831162000fed57829003601f168201915b505095505050505050600060405180830381600087803b1580156200102f57600080fd5b505af115801562001044573d6000803e3d6000fd5b50503360008181526011602090815260408083206001600160a01b038916808552925280832087905551869550929350917f6b272426dd4b3366b853f4e32bb7fce7392e461688b7a8bf942bd61f756f1d0f9190a45050565b600d5460ff1681565b620010b062001af6565b620010ba57600080fd5b600954604080519182526020820183905280517f599b244d21db9af3e5c0ec6cd4af8b4c6085c9ac647c72f008f8c40d0d7cd1be9281900390910190a1600955565b6200110662001af6565b6200111057600080fd5b60008151116200115c5760408051600160e51b62461bcd02815260206004820152600c6024820152600160a21b6b125b9d985b1a59081d195e1d02604482015290519081900360640190fd5b80516200117190600790602084019062003425565b5050565b60085460009060ff16156200118e57506009546200132a565b600154604080518082018252601381527f537461626c65506f6c795573644f7261636c650000000000000000000000000060208083019182529251600160e01b63bf40fac1028152600481019384528251602482015282516000956001600160a01b03169463bf40fac1949390928392604490910191908083838b5b83811015620012245781810151838201526020016200120a565b50505050905090810190601f168015620012525780820380516001836020036101000a031916815260200191505b509250505060206040518083038186803b1580156200127057600080fd5b505afa15801562001285573d6000803e3d6000fd5b505050506040513d60208110156200129c57600080fd5b505160408051600160e11b634c6afee502815290516001600160a01b03909216916398d5fdca916004808201926020929091908290030181600087803b158015620012e657600080fd5b505af1158015620012fb573d6000803e3d6000fd5b505050506040513d60208110156200131257600080fd5b5051600954909150620013269082620028cb565b9150505b90565b6200133762001af6565b6200134157600080fd5b60008151116200138d5760408051600160e51b62461bcd02815260206004820152600c6024820152600160a21b6b125b9d985b1a59081d195e1d02604482015290519081900360640190fd5b80516200117190600490602084019062003475565b620013ac62001af6565b620013b657600080fd5b6010600060135481526020019081526020016000206000016040516020018082805460018160011615610100020316600290048015620014305780601f106200140d57610100808354040283529182019162001430565b820191906000526020600020905b8154815290600101906020018083116200141b575b5050915050604051602081830303815290604052805190602001208585604051602001808383808284378083019250505092505050604051602081830303815290604052805190602001201415620014c45760408051600160e51b62461bcd02815260206004820152600c6024820152600160a11b6b29b0b6b2903b32b939b4b7b702604482015290519081900360640190fd5b6013546000908152601060205260409020600101546001600160a01b03848116911614156200152f5760408051600160e51b62461bcd02815260206004820152600c6024820152600160a11b6b29b0b6b2903b32b939b4b7b702604482015290519081900360640190fd5b6001600160a01b038316620015835760408051600160e51b62461bcd02815260206004820152600f6024820152600160881b6e496e76616c6964206164647265737302604482015290519081900360640190fd5b6013805460010190819055604080516020601f8801819004810282018101909252868152620016049291889088908190840183828082843760009201919091525050604080516020601f8901819004810282018101909252878152899350915087908790819084018382808284376000920191909152506200290092505050565b5050505050565b6200161562001af6565b6200161f57600080fd5b600c5462001637906201518063ffffffff62002ba716565b42116200168e5760408051600160e51b62461bcd02815260206004820152601e60248201527f50726f706f73616c20697320696e20756e6d6174757265642073746174650000604482015290519081900360640190fd5b7fd58fabc7bb036497979772cccb0640f763256c0802f15899ada53d85398ca6ab600a54600b54604051808381526020018281526020019250505060405180910390a1600b54600a55565b60085460ff1681565b6004805460408051602060026001851615610100026000190190941693909304601f810184900484028201840190925281815292918301828280156200176c5780601f1062001740576101008083540402835291602001916200176c565b820191906000526020600020905b8154815290600101906020018083116200174e57829003601f168201915b505050505081565b60135460009081526010602090815260409182902080548351601f6002600019610100600186161502019093169290920491820184900484028101840190945280845260609392830182828015620018105780601f10620017e45761010080835404028352916020019162001810565b820191906000526020600020905b815481529060010190602001808311620017f257829003601f168201915b5050505050905090565b60135481565b60106020908152600091825260409182902080548351601f60026000196101006001861615020190931692909204918201849004840281018401909452808452909291839190830182828015620018bb5780601f106200188f57610100808354040283529160200191620018bb565b820191906000526020600020905b8154815290600101906020018083116200189d57829003601f168201915b505050506001838101546002808601805460408051602061010097841615979097026000190190921693909304601f810186900486028201860190935282815295966001600160a01b03909316959294509192830182828015620019635780601f10620019375761010080835404028352916020019162001963565b820191906000526020600020905b8154815290600101906020018083116200194557829003601f168201915b5050505050905083565b600c5481565b6200197d62001af6565b6200198757600080fd5b600080546040516001600160a01b03909116907f8be0079c531659141344cd1fd0a4f28419497f9722a3daafe3b4186f6b6457e0908390a3600080546001600160a01b0319169055565b6005805460408051602060026001851615610100026000190190941693909304601f810184900484028201840190925281815292918301828280156200176c5780601f1062001740576101008083540402835291602001916200176c565b6001546001600160a01b031681565b60095481565b60408051600160b21b691b1bddd95c909bdd5b99028152600f600a820152905190819003602a0190205460609062001a819062ffffff1662002bba565b905090565b62001a9062001af6565b62001a9a57600080fd5b8062001ae25760408051600160e51b62461bcd02815260206004820152600c6024820152600160a21b6b125b9d985b1a59081d195e1d02604482015290519081900360640190fd5b600355565b6000546001600160a01b031690565b6000546001600160a01b0316331490565b606060078054806020026020016040519081016040528092919081815260200182805480156200181057602002820191906000526020600020905b81548152602001906001019080831162001b42575050505050905090565b601160209081526000928352604080842090915290825290205481565b6012602052600090815260409020546001600160a01b031681565b606060068054806020026020016040519081016040528092919081815260200182805480156200181057602002820191906000526020600020906000905b825461010083900a900460ff1681526020600192830181810494850194909303909202910180841162001bd65790505050505050905090565b62001c1962001af6565b62001c2357600080fd5b600e5462001c3b906201518063ffffffff62002ba716565b421162001c925760408051600160e51b62461bcd02815260206004820152601e60248201527f50726f706f73616c20697320696e20756e6d6174757265642073746174650000604482015290519081900360640190fd5b600854600d546040805160ff93841615158152929091161515602083015280517f243562d4d8acd21cf96c899dfa0c26774212a5181e5e40f852c7e6b66b7b96db9281900390910190a1600d546008805460ff191660ff9092161515919091179055565b62001d0062001af6565b62001d0a57600080fd5b600954604080519182526020820185905280517f599b244d21db9af3e5c0ec6cd4af8b4c6085c9ac647c72f008f8c40d0d7cd1be9281900390910190a16009839055600a54821462001d615762001d61826200286f565b62001d6c8162002c5f565b505050565b62001d7b62001af6565b62001d8557600080fd5b60135486111562001de05760408051600160e51b62461bcd02815260206004820152600f60248201527f496e76616c696420757067726164650000000000000000000000000000000000604482015290519081900360640190fd5b851562001f635760106000600188038152602001908152602001600020600001604051602001808280546001816001161561010002031660029004801562001e625780601f1062001e3f57610100808354040283529182019162001e62565b820191906000526020600020905b81548152906001019060200180831162001e4d575b505091505060405160208183030381529060405280519060200120858560405160200180838380828437808301925050509250505060405160208183030381529060405280519060200120141562001ef65760408051600160e51b62461bcd02815260206004820152600c6024820152600160a11b6b29b0b6b2903b32b939b4b7b702604482015290519081900360640190fd5b60001986016000908152601060205260409020600101546001600160a01b038481169116141562001f635760408051600160e51b62461bcd02815260206004820152600c6024820152600160a11b6b29b0b6b2903b32b939b4b7b702604482015290519081900360640190fd5b6001600160a01b03831662001fb75760408051600160e51b62461bcd02815260206004820152600f6024820152600160881b6e496e76616c6964206164647265737302604482015290519081900360640190fd5b60048111620020105760408051600160e51b62461bcd02815260206004820152600f60248201527f496e76616c696420557067726164650000000000000000000000000000000000604482015290519081900360640190fd5b620020888686868080601f01602080910402602001604051908101604052809392919081815260200183838082843760009201919091525050604080516020601f8901819004810282018101909252878152899350915087908790819084018382808284376000920191909152506200290092505050565b505050505050565b600a5481565b60085460009060ff1615620020af5750600a546200132a565b600154604080518082018252601381527f537461626c65506f6c795573644f7261636c650000000000000000000000000060208083019182529251600160e01b63bf40fac1028152600481019384528251602482015282516000956001600160a01b03169463bf40fac1949390928392604490910191908083838b5b83811015620021455781810151838201526020016200212b565b50505050905090810190601f168015620021735780820380516001836020036101000a031916815260200191505b509250505060206040518083038186803b1580156200219157600080fd5b505afa158015620021a6573d6000803e3d6000fd5b505050506040513d6020811015620021bd57600080fd5b505160408051600160e11b634c6afee502815290516001600160a01b03909216916398d5fdca916004808201926020929091908290030181600087803b1580156200220757600080fd5b505af11580156200221c573d6000803e3d6000fd5b505050506040513d60208110156200223357600080fd5b5051600a54909150620013269082620028cb565b6200225162001af6565b6200225b57600080fd5b6000815111620022a75760408051600160e51b62461bcd02815260206004820152600c6024820152600160a21b6b125b9d985b1a59081d195e1d02604482015290519081900360640190fd5b80516200117190600590602084019062003475565b620022c662001af6565b620022d057600080fd5b62000dcc8162002cce565b600b5481565b60408051600160b21b691d5c1c195c909bdd5b99028152600f600a820152905190819003602a0190205460609062001a819062ffffff1662002bba565b600e5481565b6200232e62001af6565b6200233857600080fd5b6040516020018080600160b21b691b1bddd95c909bdd5b9902815250600a0190506040516020818303038152906040528051906020012084846040516020018083838082843780830192505050925050506040516020818303038152906040528051906020012014806200241057506040516020018080600160b21b691d5c1c195c909bdd5b9902815250600a01905060405160208183030381529060405280519060200120848460405160200180838380828437808301925050509250505060405160208183030381529060405280519060200120145b620024655760408051600160e51b62461bcd02815260206004820152601260248201527f496e76616c696420626f756e6420747970650000000000000000000000000000604482015290519081900360640190fd5b60038114620024b35760408051600160e51b62461bcd02815260206004820152600f6024820152600160891b6e24b73b30b634b2103b32b939b4b7b702604482015290519081900360640190fd5b600062ffffff16600f858560405180838380828437919091019485525050604051928390036020019092205462ffffff16929092149150620026b790505760606200252b600f868660405180838380828437919091019485525050604051928390036020019092205462ffffff16915062002bba9050565b90506040516020018080600160b21b691b1bddd95c909bdd5b9902815250600a0190506040516020818303038152906040528051906020012085856040516020018083838082843780830192505050925050506040516020818303038152906040528051906020012014156200262b57620025db83838080602002602001604051908101604052809392919081815260200183836020028082843760009201919091525085925062002d3d915050565b620026255760408051600160e51b62461bcd02815260206004820152600f6024820152600160891b6e24b73b30b634b2103b32b939b4b7b702604482015290519081900360640190fd5b620026b5565b6200266b83838080602002602001604051908101604052809392919081815260200183836020028082843760009201919091525085925062002e53915050565b620026b55760408051600160e51b62461bcd02815260206004820152600f6024820152600160891b6e24b73b30b634b2103b32b939b4b7b702604482015290519081900360640190fd5b505b6200270982826000818110620026c957fe5b9050602002013560ff1683836001818110620026e157fe5b9050602002013560ff1684846002818110620026f957fe5b9050602002013560ff1662002f5f565b600f85856040518083838082843791909101948552505060405192839003602001909220805462ffffff9490941662ffffff1990941693909317909255507f5b67e16edaf7fc70c8d065ea6e70b97ed944d98fe593b04d682216615a3b04db9050848484846000816200277857fe5b9050602002013560ff16858560018181106200279057fe5b9050602002013560ff1686866002818110620027a857fe5b9050602002013560ff1660405180806020018560ff1660ff1681526020018460ff1660ff1681526020018360ff1660ff1681526020018281038252878782818152602001925080828437600083820152604051601f909101601f19169092018290039850909650505050505050a150505050565b62002828828262002f77565b506001600160a01b0316600081815260126020908152604080832080546001600160a01b031916339081179091556013549084526011835281842094845293909152902055565b600b54600a5414156200288157600080fd5b42600c55600b54600a5460408051928352602083019190915280517fc5f29230dffe00e784bb891bf446340540bc147f4c1c4a2eb4b41eea68cd6f049281900390910190a1600b55565b600081620028f0620028e685670de0b6b3a7640000620031da565b6002850462002ba7565b81620028f857fe5b049392505050565b60008481526010602090815260409091208451620029219286019062003475565b5060008481526010602090815260409091206001810180546001600160a01b0319166001600160a01b0386161790558251620029669260029092019184019062003475565b5060015460408051600160e01b63bf40fac1028152602060048201819052600e60248301527f4d6f64756c655265676973747279000000000000000000000000000000000000604483015291516000936001600160a01b03169263bf40fac19260648082019391829003018186803b158015620029e257600080fd5b505afa158015620029f7573d6000803e3d6000fd5b505050506040513d602081101562002a0e57600080fd5b505160408051600160e01b63cf5f591d02815230600482015290519192506001600160a01b0383169163cf5f591d9160248082019260009290919082900301818387803b15801562002a5f57600080fd5b505af115801562002a74573d6000803e3d6000fd5b505050507fbcda874f53511fb6338990baf12d53b3bcef8cb0247ba5f7673450267395515a848685856040518080602001858152602001846001600160a01b03166001600160a01b0316815260200180602001838103835287818151815260200191508051906020019080838360005b8381101562002afe57818101518382015260200162002ae4565b50505050905090810190601f16801562002b2c5780820380516001836020036101000a031916815260200191505b50838103825284518152845160209182019186019080838360005b8381101562002b6157818101518382015260200162002b47565b50505050905090810190601f16801562002b8f5780820380516001836020036101000a031916815260200191505b50965050505050505060405180910390a15050505050565b60008282018381101562000d9e57600080fd5b6040805160038082526080820190925260609182919060208201838038833901905050905060108362ffffff16901c8160008151811062002bf757fe5b602002602001019060ff16908160ff168152505060088362ffffff16901c8160018151811062002c2357fe5b602002602001019060ff16908160ff1681525050828160028151811062002c4657fe5b60ff909216602092830291909101909101529050919050565b60085460ff1615158115151462000dcc5742600e55600d805460ff191682151517908190556008546040805160ff93841615158152929091161515602083015280517faa30eec784f5696acfd1d1c2867efdfc1c9e6d6f96fec657914605f6304158ef9281900390910190a150565b6001600160a01b03811662002ce257600080fd5b600080546040516001600160a01b03808516939216917f8be0079c531659141344cd1fd0a4f28419497f9722a3daafe3b4186f6b6457e091a3600080546001600160a01b0319166001600160a01b0392909216919091179055565b6000825160031462002d4e57600080fd5b815160031462002d5d57600080fd5b60005b83518160ff16101562002e4957828160ff168151811062002d7d57fe5b602002602001015160ff16848260ff168151811062002d9857fe5b602002602001015160ff16141562002db05762002e40565b828160ff168151811062002dc057fe5b602002602001015160ff16848260ff168151811062002ddb57fe5b602002602001015160ff16101562002df857600191505062000da1565b828160ff168151811062002e0857fe5b602002602001015160ff16848260ff168151811062002e2357fe5b602002602001015160ff16111562002e4057600091505062000da1565b60010162002d60565b5060019392505050565b6000825160031462002e6457600080fd5b815160031462002e7357600080fd5b60005b83518160ff16101562002e4957828160ff168151811062002e9357fe5b602002602001015160ff16848260ff168151811062002eae57fe5b602002602001015160ff16141562002ec65762002f56565b828160ff168151811062002ed657fe5b602002602001015160ff16848260ff168151811062002ef157fe5b602002602001015160ff16111562002f0e57600191505062000da1565b828160ff168151811062002f1e57fe5b602002602001015160ff16848260ff168151811062002f3957fe5b602002602001015160ff16101562002f5657600091505062000da1565b60010162002e76565b60ff90811691811660081b921660101b919091171790565b600062002f8362003205565b90506000836001600160a01b0316631613ec9d6040518163ffffffff1660e01b815260040160206040518083038186803b15801562002fc157600080fd5b505afa15801562002fd6573d6000803e3d6000fd5b505050506040513d602081101562002fed57600080fd5b505190506001600160e01b03198116156200317b576001600160e01b031981166200301884620033b2565b6001600160e01b03191614620030785760408051600160e51b62461bcd02815260206004820152601a60248201527f50726f76696465642064617461206973206e6f742076616c6964000000000000604482015290519081900360640190fd5b6000846001600160a01b0316846040518082805190602001908083835b60208310620030b65780518252601f19909201916020918201910162003095565b6001836020036101000a0380198251168184511680821785525050505050509050019150506000604051808303816000865af19150503d80600081146200311a576040519150601f19603f3d011682016040523d82523d6000602084013e6200311f565b606091505b5050905080620031795760408051600160e51b62461bcd02815260206004820152601b60248201527f556e7375636365737366756c20696e697469616c697a6174696f6e0000000000604482015290519081900360640190fd5b505b600354600954604080516001600160a01b03881681523360208201528082019290925260608201859052513092917fb68b4973fbce93f056103272c1f3f53b607527138d7e323b7b94f7ac169ebf77919081900360800190a350505050565b600082620031eb5750600062000da1565b82820282848281620031f957fe5b041462000d9e57600080fd5b6000806200321262001175565b60015460408051600160e01b63bf40fac102815260206004820181905260096024830152600160b91b682837b63caa37b5b2b702604483015291519394506000936001600160a01b039093169263bf40fac192606480840193919291829003018186803b1580156200328357600080fd5b505afa15801562003298573d6000803e3d6000fd5b505050506040513d6020811015620032af57600080fd5b505190508115620033ac57806001600160a01b03166323b872dd33620032d462001ae7565b856040518463ffffffff1660e01b815260040180846001600160a01b03166001600160a01b03168152602001836001600160a01b03166001600160a01b031681526020018281526020019350505050602060405180830381600087803b1580156200333e57600080fd5b505af115801562003353573d6000803e3d6000fd5b505050506040513d60208110156200336a57600080fd5b5051620033ac57604051600160e51b62461bcd02815260040180806020018281038252602581526020018062004eee6025913960400191505060405180910390fd5b50905090565b6000806004835110620033c7576004620033ca565b82515b905060005b81811015620034105780600802848281518110620033e957fe5b01602001516001600160f81b031960f891821c90911b16901c9290921791600101620033cf565b5050919050565b6119e9806200350583390190565b82805482825590600052602060002090810192821562003463579160200282015b828111156200346357825182559160200191906001019062003446565b5062003471929150620034e7565b5090565b828054600181600116156101000203166002900490600052602060002090601f016020900481019282601f10620034b857805160ff191683800117855562003463565b828001600101855582156200346357918201828111156200346357825182559160200191906001019062003446565b6200132a91905b80821115620034715760008155600101620034ee56fe6080604052601b8054600160a01b60ff02191690553480156200002157600080fd5b50604051620019e9380380620019e9833981018060405260808110156200004757600080fd5b8101908080516401000000008111156200006057600080fd5b820160208101848111156200007457600080fd5b81516401000000008111828201871017156200008f57600080fd5b50506020808301516040840151606090940151601a80546001600160a01b038085166001600160a01b03199283161790925560198054821633908117909155601b8054938916939092169290921790556001601c5593965090945091620000fa9162000177811b901c565b6001600160a01b0381166200015b576040517f08c379a0000000000000000000000000000000000000000000000000000000008152600401808060200182810382526027815260200180620019416027913960400191505060405180910390fd5b6200016d84826200020f60201b60201c565b5050505062000631565b6001600160a01b038116620001ed57604080517f08c379a000000000000000000000000000000000000000000000000000000000815260206004820152601860248201527f416464726573732073686f756c64206e6f742062652030780000000000000000604482015290519081900360640190fd5b601f80546001600160a01b0319166001600160a01b0392909216919091179055565b601e546001600160a01b038281169116148015906200023657506001600160a01b03811615155b6200028d576040517f08c379a0000000000000000000000000000000000000000000000000000000008152600401808060200182810382526046815260200180620019686046913960600191505060405180910390fd5b620002a3816200058660201b620011381760201c565b620002fa576040517f08c379a000000000000000000000000000000000000000000000000000000000815260040180806020018281038252603b815260200180620019ae603b913960400191505060405180910390fd5b600082511162000356576040517f08c379a00000000000000000000000000000000000000000000000000000000081526004018080602001828103825260228152602001806200191f6022913960400191505060405180910390fd5b816040516020018082805190602001908083835b602083106200038b5780518252601f1990920191602091820191016200036a565b6001836020036101000a03801982511681845116808217855250505050505090500191505060405160208183030381529060405280519060200120601d60405160200180828054600181600116156101000203166002900480156200042a5780601f10620004075761010080835404028352918201916200042a565b820191906000526020600020905b81548152906001019060200180831162000415575b5050915050604051602081830303815290604052805190602001201415620004b357604080517f08c379a000000000000000000000000000000000000000000000000000000000815260206004820152601d60248201527f4e65772076657273696f6e20657175616c7320746f2063757272656e74000000604482015290519081900360640190fd5b8151620004c890601d9060208501906200058c565b50601e80546001600160a01b0319166001600160a01b03831690811790915560408051602080825285518183015285517f8e05e0e35ff592971ca8b477d4285a33a61ded208d644042667b78693a472f5e938793928392918301919085019080838360005b83811015620005475781810151838201526020016200052d565b50505050905090810190601f168015620005755780820380516001836020036101000a031916815260200191505b509250505060405180910390a25050565b3b151590565b828054600181600116156101000203166002900490600052602060002090601f016020900481019282601f10620005cf57805160ff1916838001178555620005ff565b82800160010185558215620005ff579182015b82811115620005ff578251825591602001919060010190620005e2565b506200060d92915062000611565b5090565b6200062e91905b808211156200060d576000815560010162000618565b90565b6112de80620006416000396000f3fe6080604052600436106101f95760003560e01c80638784b1c21161010d578063c5139338116100a0578063eaa32c401161006f578063eaa32c4014610721578063ec47740f14610754578063f1739cae14610769578063fd6ea7c11461079c578063ff18ead3146107b1576101f9565b8063c513933814610697578063d143a379146106ca578063d679677a146106f7578063d7e64c001461070c576101f9565b8063b2cca39d116100dc578063b2cca39d1461062b578063b84dfbd214610640578063c45a015514610655578063c4d2c6bd1461066a576101f9565b80638784b1c2146104f65780638d4e408314610532578063958a41dd14610547578063983d273714610616576101f9565b806354fd4d501161019057806363b201171161015f57806363b201171461046f5780636c41027f146104845780636faa22a51461049957806377de9039146104ae57806378e97925146104e1576101f9565b806354fd4d50146103355780635a8b1a9f146103bf5780635c60da1b146104455780635c975abb1461045a576101f9565b80632df413e2116101cc5780632df413e2146102cd5780633197cbb6146102f65780634b385a421461030b578063521eb27314610320576101f9565b8063025313a214610203578063039af9eb1461023457806325f4cead146102915780632a0acc6a146102b8575b6102016107c6565b005b34801561020f57600080fd5b506102186107d8565b604080516001600160a01b039092168252519081900360200190f35b34801561024057600080fd5b5061025e6004803603602081101561025757600080fd5b5035610815565b604080519687526020870195909552858501939093526060850191909152608084015260a0830152519081900360c00190f35b34801561029d57600080fd5b506102a6610858565b60408051918252519081900360200190f35b3480156102c457600080fd5b506102a661085e565b3480156102d957600080fd5b506102e261086d565b604080519115158252519081900360200190f35b34801561030257600080fd5b506102a6610876565b34801561031757600080fd5b506102a661087c565b34801561032c57600080fd5b50610218610882565b34801561034157600080fd5b5061034a610891565b6040805160208082528351818301528351919283929083019185019080838360005b8381101561038457818101518382015260200161036c565b50505050905090810190601f1680156103b15780820380516001836020036101000a031916815260200191505b509250505060405180910390f35b3480156103cb57600080fd5b50610201600480360360408110156103e257600080fd5b8101906020810181356401000000008111156103fd57600080fd5b82018360208201111561040f57600080fd5b8035906020019184600183028401116401000000008311171561043157600080fd5b9193509150356001600160a01b0316610946565b34801561045157600080fd5b506102186109ba565b34801561046657600080fd5b506102e26109e5565b34801561047b57600080fd5b506102a66109f5565b34801561049057600080fd5b506102a66109fb565b3480156104a557600080fd5b50610218610a01565b3480156104ba57600080fd5b506102a6600480360360208110156104d157600080fd5b50356001600160a01b0316610a10565b3480156104ed57600080fd5b506102a6610a22565b34801561050257600080fd5b506102a66004803603604081101561051957600080fd5b5080356001600160a01b0316906020013560ff16610a28565b34801561053e57600080fd5b506102e2610a45565b6102016004803603606081101561055d57600080fd5b81019060208101813564010000000081111561057857600080fd5b82018360208201111561058a57600080fd5b803590602001918460018302840111640100000000831117156105ac57600080fd5b919390926001600160a01b03833516926040810190602001356401000000008111156105d757600080fd5b8201836020820111156105e957600080fd5b8035906020019184600183028401116401000000008311171561060b57600080fd5b509092509050610a53565b34801561062257600080fd5b506102a6610afd565b34801561063757600080fd5b506102a6610b0f565b34801561064c57600080fd5b50610218610b15565b34801561066157600080fd5b50610218610b24565b34801561067657600080fd5b506102a66004803603602081101561068d57600080fd5b503560ff16610b33565b3480156106a357600080fd5b506102a6600480360360208110156106ba57600080fd5b50356001600160a01b0316610b45565b3480156106d657600080fd5b506102e2600480360360208110156106ed57600080fd5b503560ff16610b57565b34801561070357600080fd5b506102a6610b6c565b34801561071857600080fd5b506102a6610b72565b34801561072d57600080fd5b506102a66004803603602081101561074457600080fd5b50356001600160a01b0316610b78565b34801561076057600080fd5b506102a6610b8a565b34801561077557600080fd5b506102016004803603602081101561078c57600080fd5b50356001600160a01b0316610b90565b3480156107a857600080fd5b506102e2610c73565b3480156107bd57600080fd5b506102a6610c7c565b6107d66107d1610c82565b610c91565b565b60006107e2610cb5565b6001600160a01b0316336001600160a01b0316141561080a57610803610cb5565b9050610812565b6108126107c6565b90565b600d818154811061082257fe5b60009182526020909120600790910201805460018201546002830154600384015460048501546006909501549395509193909286565b600f5481565b600160d91b6420a226a4a70281565b60025460ff1681565b60135481565b600a5481565b6016546001600160a01b031681565b606061089b610cb5565b6001600160a01b0316336001600160a01b0316141561080a57601d805460408051602060026001851615610100026000190190941693909304601f8101849004840282018401909252818152929183018282801561093a5780601f1061090f5761010080835404028352916020019161093a565b820191906000526020600020905b81548152906001019060200180831161091d57829003601f168201915b50505050509050610812565b61094e610cb5565b6001600160a01b0316336001600160a01b031614156109ad576109a883838080601f016020809104026020016040519081016040528093929190818152602001838380828437600092019190915250859250610cc4915050565b6109b5565b6109b56107c6565b505050565b60006109c4610cb5565b6001600160a01b0316336001600160a01b0316141561080a57610803610c82565b601b54600160a01b900460ff1681565b60175481565b600c5481565b601b546001600160a01b031681565b60066020526000908152604090205481565b60125481565b600860209081526000928352604080842090915290825290205481565b601854610100900460ff1681565b610a5b610cb5565b6001600160a01b0316336001600160a01b03161415610aee57610ae985858080601f01602080910402602001604051908101604052809392919081815260200183838082843760009201919091525050604080516020601f880181900481028201810190925286815288935091508690869081908401838280828437600092019190915250610fbf92505050565b610af6565b610af66107c6565b5050505050565b600160c11b6727a822a920aa27a90281565b60145481565b601a546001600160a01b031681565b6019546001600160a01b031681565b60116020526000908152604090205481565b60076020526000908152604090205481565b60106020526000908152604090205460ff1681565b60045481565b60155481565b60006020819052908152604090205481565b600b5481565b610b98610cb5565b6001600160a01b0316336001600160a01b03161415610c68576001600160a01b038116610c0f5760408051600160e51b62461bcd02815260206004820152601860248201527f416464726573732073686f756c64206e6f742062652030780000000000000000604482015290519081900360640190fd5b7f5a3e66efaa1e445ebd894728a69d6959842ea1e97bd79b892797106e270efcd9610c38610cb5565b604080516001600160a01b03928316815291841660208301528051918290030190a1610c63816110b8565b610c70565b610c706107c6565b50565b60185460ff1681565b60055481565b601e546001600160a01b031690565b3660008037600080366000845af43d6000803e808015610cb0573d6000f35b3d6000fd5b601f546001600160a01b031690565b601e546001600160a01b03828116911614801590610cea57506001600160a01b03811615155b610d2857604051600160e51b62461bcd0281526004018080602001828103825260468152602001806112326046913960600191505060405180910390fd5b610d3181611138565b610d6f57604051600160e51b62461bcd02815260040180806020018281038252603b815260200180611278603b913960400191505060405180910390fd5b6000825111610db257604051600160e51b62461bcd0281526004018080602001828103825260228152602001806111d76022913960400191505060405180910390fd5b816040516020018082805190602001908083835b60208310610de55780518252601f199092019160209182019101610dc6565b6001836020036101000a03801982511681845116808217855250505050505090500191505060405160208183030381529060405280519060200120601d6040516020018082805460018160011615610100020316600290048015610e805780601f10610e5e576101008083540402835291820191610e80565b820191906000526020600020905b815481529060010190602001808311610e6c575b5050915050604051602081830303815290604052805190602001201415610ef15760408051600160e51b62461bcd02815260206004820152601d60248201527f4e65772076657273696f6e20657175616c7320746f2063757272656e74000000604482015290519081900360640190fd5b8151610f0490601d90602085019061113e565b50601e80546001600160a01b0319166001600160a01b03831690811790915560408051602080825285518183015285517f8e05e0e35ff592971ca8b477d4285a33a61ded208d644042667b78693a472f5e938793928392918301919085019080838360005b83811015610f81578181015183820152602001610f69565b50505050905090810190601f168015610fae5780820380516001836020036101000a031916815260200191505b509250505060405180910390a25050565b610fc98383610cc4565b6000306001600160a01b031634836040518082805190602001908083835b602083106110065780518252601f199092019160209182019101610fe7565b6001836020036101000a03801982511681845116808217855250505050505090500191505060006040518083038185875af1925050503d8060008114611068576040519150601f19603f3d011682016040523d82523d6000602084013e61106d565b606091505b505080915050806110b257604051600160e51b62461bcd0281526004018080602001828103825260398152602001806111f96039913960400191505060405180910390fd5b50505050565b6001600160a01b0381166111165760408051600160e51b62461bcd02815260206004820152601860248201527f416464726573732073686f756c64206e6f742062652030780000000000000000604482015290519081900360640190fd5b601f80546001600160a01b0319166001600160a01b0392909216919091179055565b3b151590565b828054600181600116156101000203166002900490600052602060002090601f016020900481019282601f1061117f57805160ff19168380011785556111ac565b828001600101855582156111ac579182015b828111156111ac578251825591602001919060010190611191565b506111b89291506111bc565b5090565b61081291905b808211156111b857600081556001016111c256fe56657273696f6e2073686f756c64206e6f7420626520656d70747920737472696e674661696c20696e20657865637574696e67207468652066756e6374696f6e206f6620696d706c656d656e746174696f6e20636f6e74726163744f6c642061646472657373206973206e6f7420616c6c6f77656420616e6420696d706c656d656e746174696f6e20616464726573732073686f756c64206e6f7420626520307843616e6e6f742073657420612070726f787920696d706c656d656e746174696f6e20746f2061206e6f6e2d636f6e74726163742061646472657373a165627a7a723058209a1e1fa0a72fae3feae5593492e4edf51f7706732f398d66f26e135b9b24cb17002956657273696f6e2073686f756c64206e6f7420626520656d70747920737472696e67496d706c656d656e746174696f6e20616464726573732073686f756c64206e6f742062652030784f6c642061646472657373206973206e6f7420616c6c6f77656420616e6420696d706c656d656e746174696f6e20616464726573732073686f756c64206e6f7420626520307843616e6e6f742073657420612070726f787920696d706c656d656e746174696f6e20746f2061206e6f6e2d636f6e74726163742061646472657373496e73756666696369656e7420616c6c6f77616e636520666f72206d6f64756c6520666565a165627a7a723058203001e2caf6bcb967aff054a738e0ff14f62164aec86f11404e1f34c2d99743450029497420616c6c6f777320626f7468206163637265646974656420616e64206e6f6e2d6163637265646974656420696e766573746f727320746f20636f6e7472696275746520696e746f207468652053544f2e204e6f6e2d6163637265646974656420696e766573746f72732077696c6c206265206361707065642061742061206d6178696d756d20696e766573746d656e74206c696d69742028617320612064656661756c74206f7220737065636966696320746f207468656972206a7572697364696374696f6e292e20546f6b656e732077696c6c20626520736f6c64206163636f7264696e6720746f2074696572732073657175656e7469616c6c792026206561636820746965722068617320697473206f776e20707269636520616e6420766f6c756d65206f6620746f6b656e7320746f2073656c6c2e2055706f6e2072656365697074206f662066756e647320284554482c20504f4c59206f7220444149292c20736563757269747920746f6b656e732077696c6c206175746f6d61746963616c6c79207472616e7366657220746f20696e766573746f72e28099732077616c6c65742061646472657373",
  "source": "pragma solidity 0.5.8;\n\nimport \"./USDTieredSTOProxy.sol\";\nimport \"../../UpgradableModuleFactory.sol\";\n\n/**\n * @title Factory for deploying CappedSTO module\n */\ncontract USDTieredSTOFactory is UpgradableModuleFactory {\n\n    /**\n     * @notice Constructor\n     * @param _setupCost Setup cost of the module\n     * @param _usageCost Usage cost of the module\n     * @param _logicContract Contract address that contains the logic related to `description`\n     * @param _polymathRegistry Address of the Polymath registry\n     * @param _isCostInPoly true = cost in Poly, false = USD\n     */\n    constructor (\n        uint256 _setupCost,\n        uint256 _usageCost,\n        address _logicContract,\n        address _polymathRegistry,\n        bool _isCostInPoly\n    )\n        public\n        UpgradableModuleFactory(\"3.1.0\", _setupCost, _usageCost, _logicContract, _polymathRegistry, _isCostInPoly)\n    {\n        name = \"USDTieredSTO\";\n        title = \"Tiered STO\";\n        /*solium-disable-next-line max-len*/\n        description = \"It allows both accredited and non-accredited investors to contribute into the STO. Non-accredited investors will be capped at a maximum investment limit (as a default or specific to their jurisdiction). Tokens will be sold according to tiers sequentially & each tier has its own price and volume of tokens to sell. Upon receipt of funds (ETH, POLY or DAI), security tokens will automatically transfer to investors wallet address\";\n        typesData.push(3);\n        typesData.push(8); // Extra type which will allow module to hold and send securityTokens without being added in KYC data\n        typesData.push(5); // Allow burn type \n        typesData.push(9); // Auto whitelist treasury wallet\n        tagsData.push(\"Tiered\");\n        tagsData.push(\"ETH\");\n        tagsData.push(\"POLY\");\n        tagsData.push(\"USD\");\n        tagsData.push(\"STO\");\n        compatibleSTVersionRange[\"lowerBound\"] = VersionUtils.pack(uint8(3), uint8(0), uint8(0));\n        compatibleSTVersionRange[\"upperBound\"] = VersionUtils.pack(uint8(3), uint8(1), uint8(0));\n    }\n\n    /**\n     * @notice Used to launch the Module with the help of factory\n     * @return address Contract address of the Module\n     */\n    function deploy(bytes calldata _data) external returns(address) {\n        address usdTieredSTO = address(new USDTieredSTOProxy(logicContracts[latestUpgrade].version, msg.sender, polymathRegistry.getAddress(\"PolyToken\"), logicContracts[latestUpgrade].logicContract));\n        _initializeModule(usdTieredSTO, _data);\n        return usdTieredSTO;\n    }\n\n}\n",
  "sourcePath": "/Users/federicoelgarte/Polymath/polymath-core/contracts/modules/STO/USDTiered/USDTieredSTOFactory.sol",
  "compiler": {
    "name": "solc",
    "version": "0.5.8+commit.23d335f2.Emscripten.clang"
  },
  "schemaVersion": "3.0.12",
  "updatedAt": "2019-11-13T15:46:32.451Z",
  "devdoc": {
    "methods": {
      "changeCostAndType(uint256,uint256,bool)": {
        "params": {
          "_isCostInPoly": "new setup cost currency. USD or POLY",
          "_setupCost": "new setup cost",
          "_usageCost": "new usage cost"
        }
      },
      "changeDescription(string)": {
        "params": {
          "_description": "New description that will replace the old one."
        }
      },
      "changeName(bytes32)": {
        "params": {
          "_name": "New name that will replace the old one."
        }
      },
      "changeSTVersionBounds(string,uint8[])": {
        "params": {
          "_boundType": "Type of bound",
          "_newVersion": "new version array"
        }
      },
      "changeSetupCost(uint256)": {
        "params": {
          "_setupCost": "new setup cost"
        }
      },
      "changeTags(bytes32[])": {
        "params": {
          "_tagsData": "New list of tags"
        }
      },
      "changeTitle(string)": {
        "params": {
          "_title": "New Title that will replace the old one."
        }
      },
      "constructor": {
        "params": {
          "_isCostInPoly": "true = cost in Poly, false = USD",
          "_logicContract": "Contract address that contains the logic related to `description`",
          "_polymathRegistry": "Address of the Polymath registry",
          "_setupCost": "Setup cost of the module",
          "_usageCost": "Usage cost of the module"
        }
      },
      "deploy(bytes)": {
        "return": "address Contract address of the Module"
      },
      "getLowerSTVersionBounds()": {
        "return": "lower bound"
      },
      "getUpperSTVersionBounds()": {
        "return": "upper bound"
      },
      "isOwner()": {
        "return": "true if `msg.sender` is the owner of the contract."
      },
      "owner()": {
        "return": "the address of the owner."
      },
      "proposeUsageCost(uint256)": {
        "params": {
          "_usageCostProposed": "Proposed usage cost amount"
        }
      },
      "renounceOwnership()": {
        "details": "Allows the current owner to relinquish control of the contract. It will not be possible to call the functions with the `onlyOwner` modifier anymore."
      },
      "setLogicContract(string,address,bytes)": {
        "params": {
          "_logicContract": "Address of deployed module logic contract referenced from proxy",
          "_upgradeData": "Data to be passed in call to upgradeToAndCall when a token upgrades its module",
          "_version": "Version of upgraded module"
        }
      },
      "transferOwnership(address)": {
        "details": "Allows the current owner to transfer control of the contract to a newOwner.",
        "params": {
          "newOwner": "The address to transfer ownership to."
        }
      },
      "updateLogicContract(uint256,string,address,bytes)": {
        "params": {
          "_logicContract": "Address of deployed module logic contract referenced from proxy",
          "_upgrade": "logic contract to upgrade",
          "_upgradeData": "Data to be passed in call to upgradeToAndCall when a token upgrades its module",
          "_version": "Version of upgraded module"
        }
      },
      "upgrade(address)": {
        "params": {
          "_module": "Address of (proxy) module to be upgraded"
        }
      }
    },
    "title": "Factory for deploying CappedSTO module"
  },
  "userdoc": {
    "methods": {
      "changeCostAndType(uint256,uint256,bool)": {
        "notice": "Used to change the currency and amount of setup cost"
      },
      "changeCostType()": {
        "notice": "Used to change the cost type"
      },
      "changeDescription(string)": {
        "notice": "Updates the description of the ModuleFactory"
      },
      "changeName(bytes32)": {
        "notice": "Updates the name of the ModuleFactory"
      },
      "changeSTVersionBounds(string,uint8[])": {
        "notice": "Function use to change the lower and upper bound of the compatible version st"
      },
      "changeSetupCost(uint256)": {
        "notice": "Used to change the fee of the setup cost"
      },
      "changeTags(bytes32[])": {
        "notice": "Updates the tags of the ModuleFactory"
      },
      "changeTitle(string)": {
        "notice": "Updates the title of the ModuleFactory"
      },
      "changeUsageCost()": {
        "notice": "Used to change the usage cost"
      },
      "constructor": "Constructor",
      "deploy(bytes)": {
        "notice": "Used to launch the Module with the help of factory"
      },
      "getLowerSTVersionBounds()": {
        "notice": "Used to get the lower bound"
      },
      "getTags()": {
        "notice": "Get the tags related to the module factory"
      },
      "getTypes()": {
        "notice": "Type of the Module factory"
      },
      "getUpperSTVersionBounds()": {
        "notice": "Used to get the upper bound"
      },
      "proposeUsageCost(uint256)": {
        "notice": "Used to propose the usage cost"
      },
      "renounceOwnership()": {
        "notice": "Renouncing ownership will leave the contract without an owner, thereby removing any functionality that is only available to the owner."
      },
      "setLogicContract(string,address,bytes)": {
        "notice": "Used to upgrade the module factory"
      },
      "setupCostInPoly()": {
        "notice": "Get the setup cost of the module"
      },
      "updateLogicContract(uint256,string,address,bytes)": {
        "notice": "Used to update an existing token logic contract"
      },
      "upgrade(address)": {
        "notice": "Used by a security token to upgrade a given module"
      },
      "usageCostInPoly()": {
        "notice": "Get the usage cost of the module"
      },
      "version()": {
        "notice": "Get the version related to the module factory"
      }
    }
  }
}