{
  "contractName": "USDTieredSTOFactory",
  "abi": [
    {
      "constant": true,
      "inputs": [],
      "name": "name",
      "outputs": [
        {
          "name": "",
          "type": "bytes32"
        }
      ],
      "payable": false,
      "stateMutability": "view",
      "type": "function"
    },
    {
      "constant": false,
      "inputs": [
        {
          "name": "_module",
          "type": "address"
        }
      ],
      "name": "upgrade",
      "outputs": [],
      "payable": false,
      "stateMutability": "nonpayable",
      "type": "function"
    },
    {
      "constant": false,
      "inputs": [
        {
          "name": "_setupCost",
          "type": "uint256"
        }
      ],
      "name": "changeSetupCost",
      "outputs": [],
      "payable": false,
      "stateMutability": "nonpayable",
      "type": "function"
    },
    {
      "constant": false,
      "inputs": [
        {
          "name": "_tagsData",
          "type": "bytes32[]"
        }
      ],
      "name": "changeTags",
      "outputs": [],
      "payable": false,
      "stateMutability": "nonpayable",
      "type": "function"
    },
    {
      "constant": false,
      "inputs": [],
      "name": "setupCostInPoly",
      "outputs": [
        {
          "name": "",
          "type": "uint256"
        }
      ],
      "payable": false,
      "stateMutability": "nonpayable",
      "type": "function"
    },
    {
      "constant": false,
      "inputs": [
        {
          "name": "_title",
          "type": "string"
        }
      ],
      "name": "changeTitle",
      "outputs": [],
      "payable": false,
      "stateMutability": "nonpayable",
      "type": "function"
    },
    {
      "constant": false,
      "inputs": [
        {
          "name": "_version",
          "type": "string"
        },
        {
          "name": "_logicContract",
          "type": "address"
        },
        {
          "name": "_upgradeData",
          "type": "bytes"
        }
      ],
      "name": "setLogicContract",
      "outputs": [],
      "payable": false,
      "stateMutability": "nonpayable",
      "type": "function"
    },
    {
      "constant": true,
      "inputs": [],
      "name": "isCostInPoly",
      "outputs": [
        {
          "name": "",
          "type": "bool"
        }
      ],
      "payable": false,
      "stateMutability": "view",
      "type": "function"
    },
    {
      "constant": true,
      "inputs": [],
      "name": "title",
      "outputs": [
        {
          "name": "",
          "type": "string"
        }
      ],
      "payable": false,
      "stateMutability": "view",
      "type": "function"
    },
    {
      "constant": true,
      "inputs": [],
      "name": "version",
      "outputs": [
        {
          "name": "",
          "type": "string"
        }
      ],
      "payable": false,
      "stateMutability": "view",
      "type": "function"
    },
    {
      "constant": true,
      "inputs": [],
      "name": "latestUpgrade",
      "outputs": [
        {
          "name": "",
          "type": "uint256"
        }
      ],
      "payable": false,
      "stateMutability": "view",
      "type": "function"
    },
    {
      "constant": true,
      "inputs": [
        {
          "name": "",
          "type": "uint256"
        }
      ],
      "name": "logicContracts",
      "outputs": [
        {
          "name": "version",
          "type": "string"
        },
        {
          "name": "logicContract",
          "type": "address"
        },
        {
          "name": "upgradeData",
          "type": "bytes"
        }
      ],
      "payable": false,
      "stateMutability": "view",
      "type": "function"
    },
    {
      "constant": true,
      "inputs": [],
      "name": "lowerSTVersionBounds",
      "outputs": [
        {
          "name": "",
          "type": "uint8[]"
        }
      ],
      "payable": false,
      "stateMutability": "view",
      "type": "function"
    },
    {
      "constant": false,
      "inputs": [],
      "name": "renounceOwnership",
      "outputs": [],
      "payable": false,
      "stateMutability": "nonpayable",
      "type": "function"
    },
    {
      "constant": true,
      "inputs": [],
      "name": "description",
      "outputs": [
        {
          "name": "",
          "type": "string"
        }
      ],
      "payable": false,
      "stateMutability": "view",
      "type": "function"
    },
    {
      "constant": true,
      "inputs": [],
      "name": "polymathRegistry",
      "outputs": [
        {
          "name": "",
          "type": "address"
        }
      ],
      "payable": false,
      "stateMutability": "view",
      "type": "function"
    },
    {
      "constant": true,
      "inputs": [],
      "name": "setupCost",
      "outputs": [
        {
          "name": "",
          "type": "uint256"
        }
      ],
      "payable": false,
      "stateMutability": "view",
      "type": "function"
    },
    {
      "constant": false,
      "inputs": [
        {
          "name": "_name",
          "type": "bytes32"
        }
      ],
      "name": "changeName",
      "outputs": [],
      "payable": false,
      "stateMutability": "nonpayable",
      "type": "function"
    },
    {
      "constant": true,
      "inputs": [],
      "name": "owner",
      "outputs": [
        {
          "name": "",
          "type": "address"
        }
      ],
      "payable": false,
      "stateMutability": "view",
      "type": "function"
    },
    {
      "constant": true,
      "inputs": [],
      "name": "isOwner",
      "outputs": [
        {
          "name": "",
          "type": "bool"
        }
      ],
      "payable": false,
      "stateMutability": "view",
      "type": "function"
    },
    {
      "constant": true,
      "inputs": [
        {
          "name": "",
          "type": "address"
        },
        {
          "name": "",
          "type": "address"
        }
      ],
      "name": "modules",
      "outputs": [
        {
          "name": "",
          "type": "uint256"
        }
      ],
      "payable": false,
      "stateMutability": "view",
      "type": "function"
    },
    {
      "constant": true,
      "inputs": [
        {
          "name": "",
          "type": "address"
        }
      ],
      "name": "moduleToSecurityToken",
      "outputs": [
        {
          "name": "",
          "type": "address"
        }
      ],
      "payable": false,
      "stateMutability": "view",
      "type": "function"
    },
    {
      "constant": true,
      "inputs": [],
      "name": "upperSTVersionBounds",
      "outputs": [
        {
          "name": "",
          "type": "uint8[]"
        }
      ],
      "payable": false,
      "stateMutability": "view",
      "type": "function"
    },
    {
      "constant": false,
      "inputs": [
        {
          "name": "_setupCost",
          "type": "uint256"
        },
        {
          "name": "_isCostInPoly",
          "type": "bool"
        }
      ],
      "name": "changeCostAndType",
      "outputs": [],
      "payable": false,
      "stateMutability": "nonpayable",
      "type": "function"
    },
    {
      "constant": true,
      "inputs": [],
      "name": "types",
      "outputs": [
        {
          "name": "",
          "type": "uint8[]"
        }
      ],
      "payable": false,
      "stateMutability": "view",
      "type": "function"
    },
    {
      "constant": false,
      "inputs": [
        {
          "name": "_upgrade",
          "type": "uint256"
        },
        {
          "name": "_version",
          "type": "string"
        },
        {
          "name": "_logicContract",
          "type": "address"
        },
        {
          "name": "_upgradeData",
          "type": "bytes"
        }
      ],
      "name": "updateLogicContract",
      "outputs": [],
      "payable": false,
      "stateMutability": "nonpayable",
      "type": "function"
    },
    {
      "constant": true,
      "inputs": [],
      "name": "tags",
      "outputs": [
        {
          "name": "",
          "type": "bytes32[]"
        }
      ],
      "payable": false,
      "stateMutability": "view",
      "type": "function"
    },
    {
      "constant": false,
      "inputs": [
        {
          "name": "_description",
          "type": "string"
        }
      ],
      "name": "changeDescription",
      "outputs": [],
      "payable": false,
      "stateMutability": "nonpayable",
      "type": "function"
    },
    {
      "constant": false,
      "inputs": [
        {
          "name": "newOwner",
          "type": "address"
        }
      ],
      "name": "transferOwnership",
      "outputs": [],
      "payable": false,
      "stateMutability": "nonpayable",
      "type": "function"
    },
    {
      "constant": false,
      "inputs": [
        {
          "name": "_boundType",
          "type": "string"
        },
        {
          "name": "_newVersion",
          "type": "uint8[]"
        }
      ],
      "name": "changeSTVersionBounds",
      "outputs": [],
      "payable": false,
      "stateMutability": "nonpayable",
      "type": "function"
    },
    {
      "inputs": [
        {
          "name": "_setupCost",
          "type": "uint256"
        },
        {
          "name": "_logicContract",
          "type": "address"
        },
        {
          "name": "_polymathRegistry",
          "type": "address"
        },
        {
          "name": "_isCostInPoly",
          "type": "bool"
        }
      ],
      "payable": false,
      "stateMutability": "nonpayable",
      "type": "constructor"
    },
    {
      "anonymous": false,
      "inputs": [
        {
          "indexed": false,
          "name": "_version",
          "type": "string"
        },
        {
          "indexed": false,
          "name": "_upgrade",
          "type": "uint256"
        },
        {
          "indexed": false,
          "name": "_logicContract",
          "type": "address"
        },
        {
          "indexed": false,
          "name": "_upgradeData",
          "type": "bytes"
        }
      ],
      "name": "LogicContractSet",
      "type": "event"
    },
    {
      "anonymous": false,
      "inputs": [
        {
          "indexed": true,
          "name": "_module",
          "type": "address"
        },
        {
          "indexed": true,
          "name": "_securityToken",
          "type": "address"
        },
        {
          "indexed": true,
          "name": "_version",
          "type": "uint256"
        }
      ],
      "name": "ModuleUpgraded",
      "type": "event"
    },
    {
      "anonymous": false,
      "inputs": [
        {
          "indexed": true,
          "name": "previousOwner",
          "type": "address"
        },
        {
          "indexed": true,
          "name": "newOwner",
          "type": "address"
        }
      ],
      "name": "OwnershipTransferred",
      "type": "event"
    },
    {
      "anonymous": false,
      "inputs": [
        {
          "indexed": false,
          "name": "_oldSetupCost",
          "type": "uint256"
        },
        {
          "indexed": false,
          "name": "_newSetupCost",
          "type": "uint256"
        }
      ],
      "name": "ChangeSetupCost",
      "type": "event"
    },
    {
      "anonymous": false,
      "inputs": [
        {
          "indexed": false,
          "name": "_isOldCostInPoly",
          "type": "bool"
        },
        {
          "indexed": false,
          "name": "_isNewCostInPoly",
          "type": "bool"
        }
      ],
      "name": "ChangeCostType",
      "type": "event"
    },
    {
      "anonymous": false,
      "inputs": [
        {
          "indexed": false,
          "name": "_module",
          "type": "address"
        },
        {
          "indexed": true,
          "name": "_moduleName",
          "type": "bytes32"
        },
        {
          "indexed": true,
          "name": "_moduleFactory",
          "type": "address"
        },
        {
          "indexed": false,
          "name": "_creator",
          "type": "address"
        },
        {
          "indexed": false,
          "name": "_setupCost",
          "type": "uint256"
        },
        {
          "indexed": false,
          "name": "_setupCostInPoly",
          "type": "uint256"
        }
      ],
      "name": "GenerateModuleFromFactory",
      "type": "event"
    },
    {
      "anonymous": false,
      "inputs": [
        {
          "indexed": false,
          "name": "_boundType",
          "type": "string"
        },
        {
          "indexed": false,
          "name": "_major",
          "type": "uint8"
        },
        {
          "indexed": false,
          "name": "_minor",
          "type": "uint8"
        },
        {
          "indexed": false,
          "name": "_patch",
          "type": "uint8"
        }
      ],
      "name": "ChangeSTVersionBound",
      "type": "event"
    },
    {
      "constant": false,
      "inputs": [
        {
          "name": "_data",
          "type": "bytes"
        }
      ],
      "name": "deploy",
      "outputs": [
        {
          "name": "",
          "type": "address"
        }
      ],
      "payable": false,
      "stateMutability": "nonpayable",
      "type": "function"
    }
  ],
  "bytecode": "0x60806040523480156200001157600080fd5b506040516080806200511c833981018060405260808110156200003357600080fd5b50805160208083015160408085015160609095015181518083018352600581527f332e302e3000000000000000000000000000000000000000000000000000000094810194909452600080546001600160a01b031916331780825592519596939593949193919287928792879287928692859285926001600160a01b039190911691907f8be0079c531659141344cd1fd0a4f28419497f9722a3daafe3b4186f6b6457e0908290a3600992909255600180546001600160a01b0319166001600160a01b039283161790556008805460ff19169215159290921790915583166200017d57604080517f08c379a000000000000000000000000000000000000000000000000000000000815260206004820152600f60248201527f496e76616c696420616464726573730000000000000000000000000000000000604482015290519081900360640190fd5b600e80546000908152600b6020908152604080832060010180546001600160a01b0319166001600160a01b038916179055925482529190208651620001c592880190620004b6565b50507f55534454696572656453544f0000000000000000000000000000000000000000600355505060408051808201909152600e8082527f555344205469657265642053544f000000000000000000000000000000000000602090920191825262000235935060049250620004b6565b50604051806101e001604052806101af815260200162004f6d6101af913980516200026991600591602090910190620004b6565b5060068054600181810190925560208082047ff652222313e28459528d920b65115c16c04f3efc82aaedc97be59f3f377c0d3f018054601f9093166101000a600381810260ff9092021990941617905560078054808501825560008281527f54696572656400000000000000000000000000000000000000000000000000007fa66cc928b5edb82af9bd49922954155ab7b0942694bea4ce44661d9a8736c68892830155825480870184557f455448000000000000000000000000000000000000000000000000000000000090830155825480870184557f504f4c590000000000000000000000000000000000000000000000000000000090830155825480870184557f55534400000000000000000000000000000000000000000000000000000000009083015582549586019092557f53544f0000000000000000000000000000000000000000000000000000000000940193909355620003d79290819062002a2a6200049e821b17901c565b604080517f6c6f776572426f756e64000000000000000000000000000000000000000000008152600a808201529051602a91819003919091019020805462ffffff191662ffffff929092169190911790556200044360036000806200049e602090811b62002a2a17901c565b604080517f7570706572426f756e64000000000000000000000000000000000000000000008152600a81810152905190819003602a019020805462ffffff9290921662ffffff19909216919091179055506200055b92505050565b60ff90811691811660081b921660101b919091171790565b828054600181600116156101000203166002900490600052602060002090601f016020900481019282601f10620004f957805160ff191683800117855562000529565b8280016001018555821562000529579182015b82811115620005295782518255916020019190600101906200050c565b50620005379291506200053b565b5090565b6200055891905b8082111562000537576000815560010162000542565b90565b614a02806200056b6000396000f3fe60806040523480156200001157600080fd5b5060043610620002135760003560e01c80637284e4161162000129578063aa934d0c11620000b1578063de6b7e09116200007b578063de6b7e091462000938578063e61204131462000942578063f2fde38b14620009ec578063fb9724561462000a155762000213565b8063aa934d0c1462000821578063c97767f0146200082b578063ccbff9791462000853578063d26633e0146200085d5762000213565b80638da5cb5b11620000f35780638da5cb5b14620007b35780638f32d59b14620007bd578063a01fe64614620007c7578063a76a0cad14620007f85762000213565b80637284e416146200077557806377282b70146200077f5780637e363ffa1462000789578063898855ed14620007935762000213565b80633c1fdaa511620001ad57806360fece01116200017757806360fece0114620005e85780636b68e14414620005f25780636d4e259c146200070f578063715018a6146200076b5762000213565b80633c1fdaa5146200046a578063436846b8146200053e5780634a79d50c146200055c57806354fd4d5014620005de5762000213565b80630c4c2d8f11620001ef5780630c4c2d8f14620002ef578063265a7218146200030f5780632d0aa22e14620003b65780632dbe07c714620003c05762000213565b8062774360146200021857806306fdde0314620002a85780630900f01014620002c4575b600080fd5b6200028c600480360360208110156200023057600080fd5b810190602081018135600160201b8111156200024b57600080fd5b8201836020820111156200025e57600080fd5b803590602001918460018302840111600160201b831117156200028057600080fd5b50909250905062000adc565b604080516001600160a01b039092168252519081900360200190f35b620002b262000cc5565b60408051918252519081900360200190f35b620002ed60048036036020811015620002dc57600080fd5b50356001600160a01b031662000ccb565b005b620002ed600480360360208110156200030757600080fd5b503562000f99565b620002ed600480360360208110156200032757600080fd5b810190602081018135600160201b8111156200034257600080fd5b8201836020820111156200035557600080fd5b803590602001918460208302840111600160201b831117156200037757600080fd5b91908080602002602001604051908101604052809392919081815260200183836020028082843760009201919091525092955062000fef945050505050565b620002b262001068565b620002ed60048036036020811015620003d857600080fd5b810190602081018135600160201b811115620003f357600080fd5b8201836020820111156200040657600080fd5b803590602001918460018302840111600160201b831117156200042857600080fd5b91908080601f01602080910402602001604051908101604052809392919081815260200183838082843760009201919091525092955062001220945050505050565b620002ed600480360360608110156200048257600080fd5b810190602081018135600160201b8111156200049d57600080fd5b820183602082011115620004b057600080fd5b803590602001918460018302840111600160201b83111715620004d257600080fd5b919390926001600160a01b0383351692604081019060200135600160201b811115620004fd57600080fd5b8201836020820111156200051057600080fd5b803590602001918460018302840111600160201b831117156200053257600080fd5b50909250905062001295565b62000548620014fe565b604080519115158252519081900360200190f35b6200056662001507565b6040805160208082528351818301528351919283929083019185019080838360005b83811015620005a257818101518382015260200162000588565b50505050905090810190601f168015620005d05780820380516001836020036101000a031916815260200191505b509250505060405180910390f35b6200056662001599565b620002b26200163f565b62000612600480360360208110156200060a57600080fd5b503562001645565b6040518080602001846001600160a01b03166001600160a01b0316815260200180602001838103835286818151815260200191508051906020019080838360005b838110156200066d57818101518382015260200162000653565b50505050905090810190601f1680156200069b5780820380516001836020036101000a031916815260200191505b50838103825284518152845160209182019186019080838360005b83811015620006d0578181015183820152602001620006b6565b50505050905090810190601f168015620006fe5780820380516001836020036101000a031916815260200191505b509550505050505060405180910390f35b6200071962001792565b60408051602080825283518183015283519192839290830191858101910280838360005b83811015620007575781810151838201526020016200073d565b505050509050019250505060405180910390f35b620002ed620017d3565b6200056662001831565b6200028c6200188f565b620002b26200189e565b620002ed60048036036020811015620007ab57600080fd5b5035620018a4565b6200028c62001905565b6200054862001914565b620002b260048036036040811015620007df57600080fd5b506001600160a01b038135811691602001351662001925565b6200028c600480360360208110156200081057600080fd5b50356001600160a01b031662001942565b620007196200195d565b620002ed600480360360408110156200084357600080fd5b5080359060200135151562001999565b6200071962001a47565b620002ed600480360360808110156200087557600080fd5b81359190810190604081016020820135600160201b8111156200089757600080fd5b820183602082011115620008aa57600080fd5b803590602001918460018302840111600160201b83111715620008cc57600080fd5b919390926001600160a01b0383351692604081019060200135600160201b811115620008f757600080fd5b8201836020820111156200090a57600080fd5b803590602001918460018302840111600160201b831117156200092c57600080fd5b50909250905062001abe565b6200071962001ddd565b620002ed600480360360208110156200095a57600080fd5b810190602081018135600160201b8111156200097557600080fd5b8201836020820111156200098857600080fd5b803590602001918460018302840111600160201b83111715620009aa57600080fd5b91908080601f01602080910402602001604051908101604052809392919081815260200183838082843760009201919091525092955062001e36945050505050565b620002ed6004803603602081101562000a0457600080fd5b50356001600160a01b031662001eab565b620002ed6004803603604081101562000a2d57600080fd5b810190602081018135600160201b81111562000a4857600080fd5b82018360208201111562000a5b57600080fd5b803590602001918460018302840111600160201b8311171562000a7d57600080fd5b919390929091602081019035600160201b81111562000a9b57600080fd5b82018360208201111562000aae57600080fd5b803590602001918460208302840111600160201b8311171562000ad057600080fd5b50909250905062001ecd565b600e546000908152600b602090815260408083206001548251600160e01b63bf40fac10281526004810185905260096024820152600160b91b682837b63caa37b5b2b702604482015292518594929333936001600160a01b039093169263bf40fac192606480840193829003018186803b15801562000b5a57600080fd5b505afa15801562000b6f573d6000803e3d6000fd5b505050506040513d602081101562000b8657600080fd5b5051600e546000908152600b6020526040908190206001015490516001600160a01b039091169062000bb89062002ef5565b6001600160a01b0380851660208301528381166040830152821660608201526080808252855460026000196101006001841615020190911604908201819052819060a08201908790801562000c515780601f1062000c255761010080835404028352916020019162000c51565b820191906000526020600020905b81548152906001019060200180831162000c3357829003601f168201915b505095505050505050604051809103906000f08015801562000c77573d6000803e3d6000fd5b50905062000cbc8185858080601f016020809104026020016040519081016040528093929190818152602001838380828437600092019190915250620023c592505050565b90505b92915050565b60035481565b6001600160a01b038181166000908152600d602052604090205416331462000d3d5760408051600160e51b62461bcd02815260206004820152601060248201527f496e636f72726563742063616c6c657200000000000000000000000000000000604482015290519081900360640190fd5b336000908152600c602090815260408083206001600160a01b0385168452909152902054600e5460019091019081111562000dc25760408051600160e51b62461bcd02815260206004820152601160248201527f496e636f72726563742076657273696f6e000000000000000000000000000000604482015290519081900360640190fd5b6000818152600b6020526040908190206001808201549251600160e01b63958a41dd0281526001600160a01b03938416602482018190526060600483019081528454600260001995821615610100029590950116849004606484018190529588169563958a41dd959492939285019282916044820191608401908790801562000e8f5780601f1062000e635761010080835404028352916020019162000e8f565b820191906000526020600020905b81548152906001019060200180831162000e7157829003601f168201915b505083810382528454600260001961010060018416150201909116048082526020909101908590801562000f075780601f1062000edb5761010080835404028352916020019162000f07565b820191906000526020600020905b81548152906001019060200180831162000ee957829003601f168201915b505095505050505050600060405180830381600087803b15801562000f2b57600080fd5b505af115801562000f40573d6000803e3d6000fd5b5050336000818152600c602090815260408083206001600160a01b038916808552925280832087905551869550929350917f6b272426dd4b3366b853f4e32bb7fce7392e461688b7a8bf942bd61f756f1d0f9190a45050565b62000fa362001914565b62000fad57600080fd5b600954604080519182526020820183905280517f599b244d21db9af3e5c0ec6cd4af8b4c6085c9ac647c72f008f8c40d0d7cd1be9281900390910190a1600955565b62000ff962001914565b6200100357600080fd5b60008151116200104f5760408051600160e51b62461bcd02815260206004820152600c6024820152600160a21b6b125b9d985b1a59081d195e1d02604482015290519081900360640190fd5b80516200106490600790602084019062002f03565b5050565b60085460009060ff16156200108157506009546200121d565b600154604080518082018252601381527f537461626c65506f6c795573644f7261636c650000000000000000000000000060208083019182529251600160e01b63bf40fac1028152600481019384528251602482015282516000956001600160a01b03169463bf40fac1949390928392604490910191908083838b5b8381101562001117578181015183820152602001620010fd565b50505050905090810190601f168015620011455780820380516001836020036101000a031916815260200191505b509250505060206040518083038186803b1580156200116357600080fd5b505afa15801562001178573d6000803e3d6000fd5b505050506040513d60208110156200118f57600080fd5b505160408051600160e11b634c6afee502815290516001600160a01b03909216916398d5fdca916004808201926020929091908290030181600087803b158015620011d957600080fd5b505af1158015620011ee573d6000803e3d6000fd5b505050506040513d60208110156200120557600080fd5b505160095490915062001219908262002418565b9150505b90565b6200122a62001914565b6200123457600080fd5b6000815111620012805760408051600160e51b62461bcd02815260206004820152600c6024820152600160a21b6b125b9d985b1a59081d195e1d02604482015290519081900360640190fd5b80516200106490600490602084019062002f53565b6200129f62001914565b620012a957600080fd5b600b6000600e5481526020019081526020016000206000016040516020018082805460018160011615610100020316600290048015620013235780601f106200130057610100808354040283529182019162001323565b820191906000526020600020905b8154815290600101906020018083116200130e575b5050915050604051602081830303815290604052805190602001208585604051602001808383808284378083019250505092505050604051602081830303815290604052805190602001201415620013b75760408051600160e51b62461bcd02815260206004820152600c6024820152600160a11b6b29b0b6b2903b32b939b4b7b702604482015290519081900360640190fd5b600e546000908152600b60205260409020600101546001600160a01b0384811691161415620014225760408051600160e51b62461bcd02815260206004820152600c6024820152600160a11b6b29b0b6b2903b32b939b4b7b702604482015290519081900360640190fd5b6001600160a01b038316620014765760408051600160e51b62461bcd02815260206004820152600f6024820152600160881b6e496e76616c6964206164647265737302604482015290519081900360640190fd5b600e805460010190819055604080516020601f8801819004810282018101909252868152620014f79291889088908190840183828082843760009201919091525050604080516020601f8901819004810282018101909252878152899350915087908790819084018382808284376000920191909152506200244d92505050565b5050505050565b60085460ff1681565b6004805460408051602060026001851615610100026000190190941693909304601f81018490048402820184019092528181529291830182828015620015915780601f10620015655761010080835404028352916020019162001591565b820191906000526020600020905b8154815290600101906020018083116200157357829003601f168201915b505050505081565b600e546000908152600b602090815260409182902080548351601f6002600019610100600186161502019093169290920491820184900484028101840190945280845260609392830182828015620016355780601f10620016095761010080835404028352916020019162001635565b820191906000526020600020905b8154815290600101906020018083116200161757829003601f168201915b5050505050905090565b600e5481565b600b6020908152600091825260409182902080548351601f60026000196101006001861615020190931692909204918201849004840281018401909452808452909291839190830182828015620016e05780601f10620016b457610100808354040283529160200191620016e0565b820191906000526020600020905b815481529060010190602001808311620016c257829003601f168201915b505050506001838101546002808601805460408051602061010097841615979097026000190190921693909304601f810186900486028201860190935282815295966001600160a01b03909316959294509192830182828015620017885780601f106200175c5761010080835404028352916020019162001788565b820191906000526020600020905b8154815290600101906020018083116200176a57829003601f168201915b5050505050905083565b60408051600160b21b691b1bddd95c909bdd5b99028152600a81810152905190819003602a01902054606090620017ce9062ffffff16620026f4565b905090565b620017dd62001914565b620017e757600080fd5b600080546040516001600160a01b03909116907f8be0079c531659141344cd1fd0a4f28419497f9722a3daafe3b4186f6b6457e0908390a3600080546001600160a01b0319169055565b6005805460408051602060026001851615610100026000190190941693909304601f81018490048402820184019092528181529291830182828015620015915780601f10620015655761010080835404028352916020019162001591565b6001546001600160a01b031681565b60095481565b620018ae62001914565b620018b857600080fd5b80620019005760408051600160e51b62461bcd02815260206004820152600c6024820152600160a21b6b125b9d985b1a59081d195e1d02604482015290519081900360640190fd5b600355565b6000546001600160a01b031690565b6000546001600160a01b0316331490565b600c60209081526000928352604080842090915290825290205481565b600d602052600090815260409020546001600160a01b031681565b60408051600160b21b691d5c1c195c909bdd5b99028152600a81810152905190819003602a01902054606090620017ce9062ffffff16620026f4565b620019a362001914565b620019ad57600080fd5b600954604080519182526020820184905280517f599b244d21db9af3e5c0ec6cd4af8b4c6085c9ac647c72f008f8c40d0d7cd1be9281900390910190a16008546040805160ff90921615158252821515602083015280517f243562d4d8acd21cf96c899dfa0c26774212a5181e5e40f852c7e6b66b7b96db9281900390910190a16009919091556008805460ff1916911515919091179055565b606060068054806020026020016040519081016040528092919081815260200182805480156200163557602002820191906000526020600020906000905b825461010083900a900460ff1681526020600192830181810494850194909303909202910180841162001a855790505050505050905090565b62001ac862001914565b62001ad257600080fd5b600e5486111562001b2d5760408051600160e51b62461bcd02815260206004820152600f60248201527f496e76616c696420757067726164650000000000000000000000000000000000604482015290519081900360640190fd5b851562001cb057600b6000600188038152602001908152602001600020600001604051602001808280546001816001161561010002031660029004801562001baf5780601f1062001b8c57610100808354040283529182019162001baf565b820191906000526020600020905b81548152906001019060200180831162001b9a575b505091505060405160208183030381529060405280519060200120858560405160200180838380828437808301925050509250505060405160208183030381529060405280519060200120141562001c435760408051600160e51b62461bcd02815260206004820152600c6024820152600160a11b6b29b0b6b2903b32b939b4b7b702604482015290519081900360640190fd5b60001986016000908152600b60205260409020600101546001600160a01b038481169116141562001cb05760408051600160e51b62461bcd02815260206004820152600c6024820152600160a11b6b29b0b6b2903b32b939b4b7b702604482015290519081900360640190fd5b6001600160a01b03831662001d045760408051600160e51b62461bcd02815260206004820152600f6024820152600160881b6e496e76616c6964206164647265737302604482015290519081900360640190fd5b6004811162001d5d5760408051600160e51b62461bcd02815260206004820152600f60248201527f496e76616c696420557067726164650000000000000000000000000000000000604482015290519081900360640190fd5b62001dd58686868080601f01602080910402602001604051908101604052809392919081815260200183838082843760009201919091525050604080516020601f8901819004810282018101909252878152899350915087908790819084018382808284376000920191909152506200244d92505050565b505050505050565b606060078054806020026020016040519081016040528092919081815260200182805480156200163557602002820191906000526020600020905b81548152602001906001019080831162001e18575050505050905090565b62001e4062001914565b62001e4a57600080fd5b600081511162001e965760408051600160e51b62461bcd02815260206004820152600c6024820152600160a21b6b125b9d985b1a59081d195e1d02604482015290519081900360640190fd5b80516200106490600590602084019062002f53565b62001eb562001914565b62001ebf57600080fd5b62001eca8162002799565b50565b62001ed762001914565b62001ee157600080fd5b6040516020018080600160b21b691b1bddd95c909bdd5b9902815250600a01905060405160208183030381529060405280519060200120848460405160200180838380828437808301925050509250505060405160208183030381529060405280519060200120148062001fb957506040516020018080600160b21b691d5c1c195c909bdd5b9902815250600a01905060405160208183030381529060405280519060200120848460405160200180838380828437808301925050509250505060405160208183030381529060405280519060200120145b6200200e5760408051600160e51b62461bcd02815260206004820152601260248201527f496e76616c696420626f756e6420747970650000000000000000000000000000604482015290519081900360640190fd5b600381146200205c5760408051600160e51b62461bcd02815260206004820152600f6024820152600160891b6e24b73b30b634b2103b32b939b4b7b702604482015290519081900360640190fd5b600062ffffff16600a858560405180838380828437919091019485525050604051928390036020019092205462ffffff16929092149150620022609050576060620020d4600a868660405180838380828437919091019485525050604051928390036020019092205462ffffff169150620026f49050565b90506040516020018080600160b21b691b1bddd95c909bdd5b9902815250600a019050604051602081830303815290604052805190602001208585604051602001808383808284378083019250505092505050604051602081830303815290604052805190602001201415620021d4576200218483838080602002602001604051908101604052809392919081815260200183836020028082843760009201919091525085925062002808915050565b620021ce5760408051600160e51b62461bcd02815260206004820152600f6024820152600160891b6e24b73b30b634b2103b32b939b4b7b702604482015290519081900360640190fd5b6200225e565b620022148383808060200260200160405190810160405280939291908181526020018383602002808284376000920191909152508592506200291e915050565b6200225e5760408051600160e51b62461bcd02815260206004820152600f6024820152600160891b6e24b73b30b634b2103b32b939b4b7b702604482015290519081900360640190fd5b505b620022b2828260008181106200227257fe5b9050602002013560ff16838360018181106200228a57fe5b9050602002013560ff1684846002818110620022a257fe5b9050602002013560ff1662002a2a565b600a85856040518083838082843791909101948552505060405192839003602001909220805462ffffff9490941662ffffff1990941693909317909255507f5b67e16edaf7fc70c8d065ea6e70b97ed944d98fe593b04d682216615a3b04db9050848484846000816200232157fe5b9050602002013560ff16858560018181106200233957fe5b9050602002013560ff16868660028181106200235157fe5b9050602002013560ff1660405180806020018560ff1660ff1681526020018460ff1660ff1681526020018360ff1660ff1681526020018281038252878782818152602001925080828437600083820152604051601f909101601f19169092018290039850909650505050505050a150505050565b620023d1828262002a42565b506001600160a01b03166000818152600d6020908152604080832080546001600160a01b03191633908117909155600e54908452600c835281842094845293909152902055565b6000816200243d6200243385670de0b6b3a764000062002ca5565b6002850462002cd0565b816200244557fe5b049392505050565b6000848152600b6020908152604090912084516200246e9286019062002f53565b506000848152600b602090815260409091206001810180546001600160a01b0319166001600160a01b0386161790558251620024b39260029092019184019062002f53565b5060015460408051600160e01b63bf40fac1028152602060048201819052600e60248301527f4d6f64756c655265676973747279000000000000000000000000000000000000604483015291516000936001600160a01b03169263bf40fac19260648082019391829003018186803b1580156200252f57600080fd5b505afa15801562002544573d6000803e3d6000fd5b505050506040513d60208110156200255b57600080fd5b505160408051600160e01b63cf5f591d02815230600482015290519192506001600160a01b0383169163cf5f591d9160248082019260009290919082900301818387803b158015620025ac57600080fd5b505af1158015620025c1573d6000803e3d6000fd5b505050507fbcda874f53511fb6338990baf12d53b3bcef8cb0247ba5f7673450267395515a848685856040518080602001858152602001846001600160a01b03166001600160a01b0316815260200180602001838103835287818151815260200191508051906020019080838360005b838110156200264b57818101518382015260200162002631565b50505050905090810190601f168015620026795780820380516001836020036101000a031916815260200191505b50838103825284518152845160209182019186019080838360005b83811015620026ae57818101518382015260200162002694565b50505050905090810190601f168015620026dc5780820380516001836020036101000a031916815260200191505b50965050505050505060405180910390a15050505050565b6040805160038082526080820190925260609182919060208201838038833901905050905060108362ffffff16901c816000815181106200273157fe5b602002602001019060ff16908160ff168152505060088362ffffff16901c816001815181106200275d57fe5b602002602001019060ff16908160ff168152505082816002815181106200278057fe5b60ff909216602092830291909101909101529050919050565b6001600160a01b038116620027ad57600080fd5b600080546040516001600160a01b03808516939216917f8be0079c531659141344cd1fd0a4f28419497f9722a3daafe3b4186f6b6457e091a3600080546001600160a01b0319166001600160a01b0392909216919091179055565b600082516003146200281957600080fd5b81516003146200282857600080fd5b60005b83518160ff1610156200291457828160ff16815181106200284857fe5b602002602001015160ff16848260ff16815181106200286357fe5b602002602001015160ff1614156200287b576200290b565b828160ff16815181106200288b57fe5b602002602001015160ff16848260ff1681518110620028a657fe5b602002602001015160ff161015620028c357600191505062000cbf565b828160ff1681518110620028d357fe5b602002602001015160ff16848260ff1681518110620028ee57fe5b602002602001015160ff1611156200290b57600091505062000cbf565b6001016200282b565b5060019392505050565b600082516003146200292f57600080fd5b81516003146200293e57600080fd5b60005b83518160ff1610156200291457828160ff16815181106200295e57fe5b602002602001015160ff16848260ff16815181106200297957fe5b602002602001015160ff161415620029915762002a21565b828160ff1681518110620029a157fe5b602002602001015160ff16848260ff1681518110620029bc57fe5b602002602001015160ff161115620029d957600191505062000cbf565b828160ff1681518110620029e957fe5b602002602001015160ff16848260ff168151811062002a0457fe5b602002602001015160ff16101562002a2157600091505062000cbf565b60010162002941565b60ff90811691811660081b921660101b919091171790565b600062002a4e62002ce3565b90506000836001600160a01b0316631613ec9d6040518163ffffffff1660e01b815260040160206040518083038186803b15801562002a8c57600080fd5b505afa15801562002aa1573d6000803e3d6000fd5b505050506040513d602081101562002ab857600080fd5b505190506001600160e01b031981161562002c46576001600160e01b0319811662002ae38462002e90565b6001600160e01b0319161462002b435760408051600160e51b62461bcd02815260206004820152601a60248201527f50726f76696465642064617461206973206e6f742076616c6964000000000000604482015290519081900360640190fd5b6000846001600160a01b0316846040518082805190602001908083835b6020831062002b815780518252601f19909201916020918201910162002b60565b6001836020036101000a0380198251168184511680821785525050505050509050019150506000604051808303816000865af19150503d806000811462002be5576040519150601f19603f3d011682016040523d82523d6000602084013e62002bea565b606091505b505090508062002c445760408051600160e51b62461bcd02815260206004820152601b60248201527f556e7375636365737366756c20696e697469616c697a6174696f6e0000000000604482015290519081900360640190fd5b505b600354600954604080516001600160a01b03881681523360208201528082019290925260608201859052513092917fb68b4973fbce93f056103272c1f3f53b607527138d7e323b7b94f7ac169ebf77919081900360800190a350505050565b60008262002cb65750600062000cbf565b8282028284828162002cc457fe5b041462000cbc57600080fd5b60008282018381101562000cbc57600080fd5b60008062002cf062001068565b60015460408051600160e01b63bf40fac102815260206004820181905260096024830152600160b91b682837b63caa37b5b2b702604483015291519394506000936001600160a01b039093169263bf40fac192606480840193919291829003018186803b15801562002d6157600080fd5b505afa15801562002d76573d6000803e3d6000fd5b505050506040513d602081101562002d8d57600080fd5b50519050811562002e8a57806001600160a01b03166323b872dd3362002db262001905565b856040518463ffffffff1660e01b815260040180846001600160a01b03166001600160a01b03168152602001836001600160a01b03166001600160a01b031681526020018281526020019350505050602060405180830381600087803b15801562002e1c57600080fd5b505af115801562002e31573d6000803e3d6000fd5b505050506040513d602081101562002e4857600080fd5b505162002e8a57604051600160e51b62461bcd028152600401808060200182810382526025815260200180620049b26025913960400191505060405180910390fd5b50905090565b600080600483511062002ea557600462002ea8565b82515b905060005b8181101562002eee578060080284828151811062002ec757fe5b01602001516001600160f81b031960f891821c90911b16901c929092179160010162002ead565b5050919050565b6119cf8062002fe383390190565b82805482825590600052602060002090810192821562002f41579160200282015b8281111562002f4157825182559160200191906001019062002f24565b5062002f4f92915062002fc5565b5090565b828054600181600116156101000203166002900490600052602060002090601f016020900481019282601f1062002f9657805160ff191683800117855562002f41565b8280016001018555821562002f41579182018281111562002f4157825182559160200191906001019062002f24565b6200121d91905b8082111562002f4f576000815560010162002fcc56fe608060405260198054600160a01b60ff02191690553480156200002157600080fd5b50604051620019cf380380620019cf833981018060405260808110156200004757600080fd5b8101908080516401000000008111156200006057600080fd5b820160208101848111156200007457600080fd5b81516401000000008111828201871017156200008f57600080fd5b50506020808301516040840151606090940151601880546001600160a01b038085166001600160a01b0319928316179092556017805482163390811790915560198054938916939092169290921790556001601a5593965090945091620000fa9162000177811b901c565b6001600160a01b0381166200015b576040517f08c379a0000000000000000000000000000000000000000000000000000000008152600401808060200182810382526027815260200180620019276027913960400191505060405180910390fd5b6200016d84826200020f60201b60201c565b5050505062000631565b6001600160a01b038116620001ed57604080517f08c379a000000000000000000000000000000000000000000000000000000000815260206004820152601860248201527f416464726573732073686f756c64206e6f742062652030780000000000000000604482015290519081900360640190fd5b601d80546001600160a01b0319166001600160a01b0392909216919091179055565b601c546001600160a01b038281169116148015906200023657506001600160a01b03811615155b6200028d576040517f08c379a00000000000000000000000000000000000000000000000000000000081526004018080602001828103825260468152602001806200194e6046913960600191505060405180910390fd5b620002a3816200058660201b6200111e1760201c565b620002fa576040517f08c379a000000000000000000000000000000000000000000000000000000000815260040180806020018281038252603b81526020018062001994603b913960400191505060405180910390fd5b600082511162000356576040517f08c379a0000000000000000000000000000000000000000000000000000000008152600401808060200182810382526022815260200180620019056022913960400191505060405180910390fd5b816040516020018082805190602001908083835b602083106200038b5780518252601f1990920191602091820191016200036a565b6001836020036101000a03801982511681845116808217855250505050505090500191505060405160208183030381529060405280519060200120601b60405160200180828054600181600116156101000203166002900480156200042a5780601f10620004075761010080835404028352918201916200042a565b820191906000526020600020905b81548152906001019060200180831162000415575b5050915050604051602081830303815290604052805190602001201415620004b357604080517f08c379a000000000000000000000000000000000000000000000000000000000815260206004820152601d60248201527f4e65772076657273696f6e20657175616c7320746f2063757272656e74000000604482015290519081900360640190fd5b8151620004c890601b9060208501906200058c565b50601c80546001600160a01b0319166001600160a01b03831690811790915560408051602080825285518183015285517f8e05e0e35ff592971ca8b477d4285a33a61ded208d644042667b78693a472f5e938793928392918301919085019080838360005b83811015620005475781810151838201526020016200052d565b50505050905090810190601f168015620005755780820380516001836020036101000a031916815260200191505b509250505060405180910390a25050565b3b151590565b828054600181600116156101000203166002900490600052602060002090601f016020900481019282601f10620005cf57805160ff1916838001178555620005ff565b82800160010185558215620005ff579182015b82811115620005ff578251825591602001919060010190620005e2565b506200060d92915062000611565b5090565b6200062e91905b808211156200060d576000815560010162000618565b90565b6112c480620006416000396000f3fe6080604052600436106101ee5760003560e01c806378e979251161010d578063c4d2c6bd116100a0578063d7e64c001161006f578063d7e64c0014610701578063eaa32c4014610716578063ec47740f14610749578063f1739cae1461075e578063ff18ead314610791576101ee565b8063c4d2c6bd1461065f578063c51393381461068c578063d143a379146106bf578063d679677a146106ec576101ee565b8063983d2737116100dc578063983d27371461060b578063b2cca39d14610620578063b84dfbd214610635578063c45a01551461064a576101ee565b806378e97925146104d65780638784b1c2146104eb5780638d4e408314610527578063958a41dd1461053c576101ee565b806354fd4d501161018557806363b201171161015457806363b20117146104645780636c41027f146104795780636faa22a51461048e57806377de9039146104a3576101ee565b806354fd4d501461032a5780635a8b1a9f146103b45780635c60da1b1461043a5780635c975abb1461044f576101ee565b80633197cbb6116101c15780633197cbb6146102d65780634626402b146102eb5780634b385a4214610300578063521eb27314610315576101ee565b8063025313a2146101f8578063039af9eb146102295780632a0acc6a146102865780632df413e2146102ad575b6101f66107a6565b005b34801561020457600080fd5b5061020d6107b8565b604080516001600160a01b039092168252519081900360200190f35b34801561023557600080fd5b506102536004803603602081101561024c57600080fd5b50356107f5565b604080519687526020870195909552858501939093526060850191909152608084015260a0830152519081900360c00190f35b34801561029257600080fd5b5061029b610838565b60408051918252519081900360200190f35b3480156102b957600080fd5b506102c2610847565b604080519115158252519081900360200190f35b3480156102e257600080fd5b5061029b610850565b3480156102f757600080fd5b5061020d610856565b34801561030c57600080fd5b5061029b61086b565b34801561032157600080fd5b5061020d610871565b34801561033657600080fd5b5061033f610880565b6040805160208082528351818301528351919283929083019185019080838360005b83811015610379578181015183820152602001610361565b50505050905090810190601f1680156103a65780820380516001836020036101000a031916815260200191505b509250505060405180910390f35b3480156103c057600080fd5b506101f6600480360360408110156103d757600080fd5b8101906020810181356401000000008111156103f257600080fd5b82018360208201111561040457600080fd5b8035906020019184600183028401116401000000008311171561042657600080fd5b9193509150356001600160a01b0316610935565b34801561044657600080fd5b5061020d6109a9565b34801561045b57600080fd5b506102c26109d4565b34801561047057600080fd5b5061029b6109e4565b34801561048557600080fd5b5061029b6109ea565b34801561049a57600080fd5b5061020d6109f0565b3480156104af57600080fd5b5061029b600480360360208110156104c657600080fd5b50356001600160a01b03166109ff565b3480156104e257600080fd5b5061029b610a11565b3480156104f757600080fd5b5061029b6004803603604081101561050e57600080fd5b5080356001600160a01b0316906020013560ff16610a17565b34801561053357600080fd5b506102c2610a34565b6101f66004803603606081101561055257600080fd5b81019060208101813564010000000081111561056d57600080fd5b82018360208201111561057f57600080fd5b803590602001918460018302840111640100000000831117156105a157600080fd5b919390926001600160a01b03833516926040810190602001356401000000008111156105cc57600080fd5b8201836020820111156105de57600080fd5b8035906020019184600183028401116401000000008311171561060057600080fd5b509092509050610a42565b34801561061757600080fd5b5061029b610aec565b34801561062c57600080fd5b5061029b610afe565b34801561064157600080fd5b5061020d610b04565b34801561065657600080fd5b5061020d610b13565b34801561066b57600080fd5b5061029b6004803603602081101561068257600080fd5b503560ff16610b22565b34801561069857600080fd5b5061029b600480360360208110156106af57600080fd5b50356001600160a01b0316610b34565b3480156106cb57600080fd5b506102c2600480360360208110156106e257600080fd5b503560ff16610b46565b3480156106f857600080fd5b5061029b610b5b565b34801561070d57600080fd5b5061029b610b61565b34801561072257600080fd5b5061029b6004803603602081101561073957600080fd5b50356001600160a01b0316610b67565b34801561075557600080fd5b5061029b610b79565b34801561076a57600080fd5b506101f66004803603602081101561078157600080fd5b50356001600160a01b0316610b7f565b34801561079d57600080fd5b5061029b610c62565b6107b66107b1610c68565b610c77565b565b60006107c2610c9b565b6001600160a01b0316336001600160a01b031614156107ea576107e3610c9b565b90506107f2565b6107f26107a6565b90565b600d818154811061080257fe5b60009182526020909120600790910201805460018201546002830154600384015460048501546006909501549395509193909286565b600160d91b6420a226a4a70281565b60025460ff1681565b60125481565b6002546201000090046001600160a01b031681565b600a5481565b6015546001600160a01b031681565b606061088a610c9b565b6001600160a01b0316336001600160a01b031614156107ea57601b805460408051602060026001851615610100026000190190941693909304601f810184900484028201840190925281815292918301828280156109295780601f106108fe57610100808354040283529160200191610929565b820191906000526020600020905b81548152906001019060200180831161090c57829003601f168201915b505050505090506107f2565b61093d610c9b565b6001600160a01b0316336001600160a01b0316141561099c5761099783838080601f016020809104026020016040519081016040528093929190818152602001838380828437600092019190915250859250610caa915050565b6109a4565b6109a46107a6565b505050565b60006109b3610c9b565b6001600160a01b0316336001600160a01b031614156107ea576107e3610c68565b601954600160a01b900460ff1681565b60165481565b600c5481565b6019546001600160a01b031681565b60066020526000908152604090205481565b60115481565b600860209081526000928352604080842090915290825290205481565b600254610100900460ff1681565b610a4a610c9b565b6001600160a01b0316336001600160a01b03161415610add57610ad885858080601f01602080910402602001604051908101604052809392919081815260200183838082843760009201919091525050604080516020601f880181900481028201810190925286815288935091508690869081908401838280828437600092019190915250610fa592505050565b610ae5565b610ae56107a6565b5050505050565b600160c11b6727a822a920aa27a90281565b60135481565b6018546001600160a01b031681565b6017546001600160a01b031681565b60106020526000908152604090205481565b60076020526000908152604090205481565b600f6020526000908152604090205460ff1681565b60045481565b60145481565b60006020819052908152604090205481565b600b5481565b610b87610c9b565b6001600160a01b0316336001600160a01b03161415610c57576001600160a01b038116610bfe5760408051600160e51b62461bcd02815260206004820152601860248201527f416464726573732073686f756c64206e6f742062652030780000000000000000604482015290519081900360640190fd5b7f5a3e66efaa1e445ebd894728a69d6959842ea1e97bd79b892797106e270efcd9610c27610c9b565b604080516001600160a01b03928316815291841660208301528051918290030190a1610c528161109e565b610c5f565b610c5f6107a6565b50565b60055481565b601c546001600160a01b031690565b3660008037600080366000845af43d6000803e808015610c96573d6000f35b3d6000fd5b601d546001600160a01b031690565b601c546001600160a01b03828116911614801590610cd057506001600160a01b03811615155b610d0e57604051600160e51b62461bcd0281526004018080602001828103825260468152602001806112186046913960600191505060405180910390fd5b610d178161111e565b610d5557604051600160e51b62461bcd02815260040180806020018281038252603b81526020018061125e603b913960400191505060405180910390fd5b6000825111610d9857604051600160e51b62461bcd0281526004018080602001828103825260228152602001806111bd6022913960400191505060405180910390fd5b816040516020018082805190602001908083835b60208310610dcb5780518252601f199092019160209182019101610dac565b6001836020036101000a03801982511681845116808217855250505050505090500191505060405160208183030381529060405280519060200120601b6040516020018082805460018160011615610100020316600290048015610e665780601f10610e44576101008083540402835291820191610e66565b820191906000526020600020905b815481529060010190602001808311610e52575b5050915050604051602081830303815290604052805190602001201415610ed75760408051600160e51b62461bcd02815260206004820152601d60248201527f4e65772076657273696f6e20657175616c7320746f2063757272656e74000000604482015290519081900360640190fd5b8151610eea90601b906020850190611124565b50601c80546001600160a01b0319166001600160a01b03831690811790915560408051602080825285518183015285517f8e05e0e35ff592971ca8b477d4285a33a61ded208d644042667b78693a472f5e938793928392918301919085019080838360005b83811015610f67578181015183820152602001610f4f565b50505050905090810190601f168015610f945780820380516001836020036101000a031916815260200191505b509250505060405180910390a25050565b610faf8383610caa565b6000306001600160a01b031634836040518082805190602001908083835b60208310610fec5780518252601f199092019160209182019101610fcd565b6001836020036101000a03801982511681845116808217855250505050505090500191505060006040518083038185875af1925050503d806000811461104e576040519150601f19603f3d011682016040523d82523d6000602084013e611053565b606091505b5050809150508061109857604051600160e51b62461bcd0281526004018080602001828103825260398152602001806111df6039913960400191505060405180910390fd5b50505050565b6001600160a01b0381166110fc5760408051600160e51b62461bcd02815260206004820152601860248201527f416464726573732073686f756c64206e6f742062652030780000000000000000604482015290519081900360640190fd5b601d80546001600160a01b0319166001600160a01b0392909216919091179055565b3b151590565b828054600181600116156101000203166002900490600052602060002090601f016020900481019282601f1061116557805160ff1916838001178555611192565b82800160010185558215611192579182015b82811115611192578251825591602001919060010190611177565b5061119e9291506111a2565b5090565b6107f291905b8082111561119e57600081556001016111a856fe56657273696f6e2073686f756c64206e6f7420626520656d70747920737472696e674661696c20696e20657865637574696e67207468652066756e6374696f6e206f6620696d706c656d656e746174696f6e20636f6e74726163744f6c642061646472657373206973206e6f7420616c6c6f77656420616e6420696d706c656d656e746174696f6e20616464726573732073686f756c64206e6f7420626520307843616e6e6f742073657420612070726f787920696d706c656d656e746174696f6e20746f2061206e6f6e2d636f6e74726163742061646472657373a165627a7a72305820b9d84c010c1ac0850357a671a51e8161080cdfe15ad53f1724989a94babd0984002956657273696f6e2073686f756c64206e6f7420626520656d70747920737472696e67496d706c656d656e746174696f6e20616464726573732073686f756c64206e6f742062652030784f6c642061646472657373206973206e6f7420616c6c6f77656420616e6420696d706c656d656e746174696f6e20616464726573732073686f756c64206e6f7420626520307843616e6e6f742073657420612070726f787920696d706c656d656e746174696f6e20746f2061206e6f6e2d636f6e74726163742061646472657373496e73756666696369656e7420616c6c6f77616e636520666f72206d6f64756c6520666565a165627a7a7230582035def0dfd8b62f8ae9fe48bbd57c9cd5068b5ecee9b11d92f44429076730f01c0029497420616c6c6f777320626f7468206163637265646974656420616e64206e6f6e2d6163637265646974656420696e766573746f727320746f20636f6e7472696275746520696e746f207468652053544f2e204e6f6e2d6163637265646974656420696e766573746f72732077696c6c206265206361707065642061742061206d6178696d756d20696e766573746d656e74206c696d69742028617320612064656661756c74206f7220737065636966696320746f207468656972206a7572697364696374696f6e292e20546f6b656e732077696c6c20626520736f6c64206163636f7264696e6720746f2074696572732073657175656e7469616c6c792026206561636820746965722068617320697473206f776e20707269636520616e6420766f6c756d65206f6620746f6b656e7320746f2073656c6c2e2055706f6e2072656365697074206f662066756e647320284554482c20504f4c59206f7220444149292c20736563757269747920746f6b656e732077696c6c206175746f6d61746963616c6c79207472616e7366657220746f20696e766573746f72e28099732077616c6c65742061646472657373",
  "source": "pragma solidity 0.5.8;\n\nimport \"./USDTieredSTOProxy.sol\";\nimport \"../../UpgradableModuleFactory.sol\";\n\n/**\n * @title Factory for deploying CappedSTO module\n */\ncontract USDTieredSTOFactory is UpgradableModuleFactory {\n\n    /**\n     * @notice Constructor\n     * @param _setupCost Setup cost of the module\n      * @param _logicContract Contract address that contains the logic related to `description`\n     * @param _polymathRegistry Address of the Polymath registry\n     * @param _isCostInPoly true = cost in Poly, false = USD\n     */\n    constructor (\n        uint256 _setupCost,\n        address _logicContract,\n        address _polymathRegistry,\n        bool _isCostInPoly\n    )\n        public\n        UpgradableModuleFactory(\"3.0.0\", _setupCost, _logicContract, _polymathRegistry, _isCostInPoly)\n    {\n        name = \"USDTieredSTO\";\n        title = \"USD Tiered STO\";\n        /*solium-disable-next-line max-len*/\n        description = \"It allows both accredited and non-accredited investors to contribute into the STO. Non-accredited investors will be capped at a maximum investment limit (as a default or specific to their jurisdiction). Tokens will be sold according to tiers sequentially & each tier has its own price and volume of tokens to sell. Upon receipt of funds (ETH, POLY or DAI), security tokens will automatically transfer to investors wallet address\";\n        typesData.push(3);\n        tagsData.push(\"Tiered\");\n        tagsData.push(\"ETH\");\n        tagsData.push(\"POLY\");\n        tagsData.push(\"USD\");\n        tagsData.push(\"STO\");\n        compatibleSTVersionRange[\"lowerBound\"] = VersionUtils.pack(uint8(3), uint8(0), uint8(0));\n        compatibleSTVersionRange[\"upperBound\"] = VersionUtils.pack(uint8(3), uint8(0), uint8(0));\n    }\n\n    /**\n     * @notice Used to launch the Module with the help of factory\n     * @return address Contract address of the Module\n     */\n    function deploy(bytes calldata _data) external returns(address) {\n        address usdTieredSTO = address(new USDTieredSTOProxy(logicContracts[latestUpgrade].version, msg.sender, polymathRegistry.getAddress(\"PolyToken\"), logicContracts[latestUpgrade].logicContract));\n        _initializeModule(usdTieredSTO, _data);\n        return usdTieredSTO;\n    }\n\n}\n",
  "sourcePath": "C:/Users/victor/Repos/polymath-core/contracts/modules/STO/USDTiered/USDTieredSTOFactory.sol",
  "compiler": {
    "name": "solc",
    "version": "0.5.8+commit.23d335f2.Emscripten.clang"
  },
  "schemaVersion": "3.0.11",
  "updatedAt": "2019-06-19T20:39:29.646Z",
  "devdoc": {
    "methods": {
      "changeCostAndType(uint256,bool)": {
        "params": {
          "_isCostInPoly": "new setup cost currency. USD or POLY",
          "_setupCost": "new setup cost"
        }
      },
      "changeDescription(string)": {
        "params": {
          "_description": "New description that will replace the old one."
        }
      },
      "changeName(bytes32)": {
        "params": {
          "_name": "New name that will replace the old one."
        }
      },
      "changeSTVersionBounds(string,uint8[])": {
        "params": {
          "_boundType": "Type of bound",
          "_newVersion": "new version array"
        }
      },
      "changeSetupCost(uint256)": {
        "params": {
          "_setupCost": "new setup cost"
        }
      },
      "changeTags(bytes32[])": {
        "params": {
          "_tagsData": "New list of tags"
        }
      },
      "changeTitle(string)": {
        "params": {
          "_title": "New Title that will replace the old one."
        }
      },
      "constructor": {
        "params": {
          "_isCostInPoly": "true = cost in Poly, false = USD",
          "_logicContract": "Contract address that contains the logic related to `description`",
          "_polymathRegistry": "Address of the Polymath registry",
          "_setupCost": "Setup cost of the module"
        }
      },
      "deploy(bytes)": {
        "return": "address Contract address of the Module"
      },
      "isOwner()": {
        "return": "true if `msg.sender` is the owner of the contract."
      },
      "lowerSTVersionBounds()": {
        "return": "lower bound"
      },
      "owner()": {
        "return": "the address of the owner."
      },
      "renounceOwnership()": {
        "details": "Allows the current owner to relinquish control of the contract. It will not be possible to call the functions with the `onlyOwner` modifier anymore."
      },
      "setLogicContract(string,address,bytes)": {
        "params": {
          "_logicContract": "Address of deployed module logic contract referenced from proxy",
          "_upgradeData": "Data to be passed in call to upgradeToAndCall when a token upgrades its module",
          "_version": "Version of upgraded module"
        }
      },
      "transferOwnership(address)": {
        "details": "Allows the current owner to transfer control of the contract to a newOwner.",
        "params": {
          "newOwner": "The address to transfer ownership to."
        }
      },
      "updateLogicContract(uint256,string,address,bytes)": {
        "params": {
          "_logicContract": "Address of deployed module logic contract referenced from proxy",
          "_upgrade": "logic contract to upgrade",
          "_upgradeData": "Data to be passed in call to upgradeToAndCall when a token upgrades its module",
          "_version": "Version of upgraded module"
        }
      },
      "upgrade(address)": {
        "params": {
          "_module": "Address of (proxy) module to be upgraded"
        }
      },
      "upperSTVersionBounds()": {
        "return": "upper bound"
      }
    },
    "title": "Factory for deploying CappedSTO module"
  },
  "userdoc": {
    "methods": {
      "changeCostAndType(uint256,bool)": {
        "notice": "Used to change the currency and amount of setup cost"
      },
      "changeDescription(string)": {
        "notice": "Updates the description of the ModuleFactory"
      },
      "changeName(bytes32)": {
        "notice": "Updates the name of the ModuleFactory"
      },
      "changeSTVersionBounds(string,uint8[])": {
        "notice": "Function use to change the lower and upper bound of the compatible version st"
      },
      "changeSetupCost(uint256)": {
        "notice": "Used to change the fee of the setup cost"
      },
      "changeTags(bytes32[])": {
        "notice": "Updates the tags of the ModuleFactory"
      },
      "changeTitle(string)": {
        "notice": "Updates the title of the ModuleFactory"
      },
      "constructor": "Constructor",
      "deploy(bytes)": {
        "notice": "Used to launch the Module with the help of factory"
      },
      "lowerSTVersionBounds()": {
        "notice": "Used to get the lower bound"
      },
      "renounceOwnership()": {
        "notice": "Renouncing ownership will leave the contract without an owner, thereby removing any functionality that is only available to the owner."
      },
      "setLogicContract(string,address,bytes)": {
        "notice": "Used to upgrade the module factory"
      },
      "setupCostInPoly()": {
        "notice": "Get the setup cost of the module"
      },
      "tags()": {
        "notice": "Get the tags related to the module factory"
      },
      "types()": {
        "notice": "Type of the Module factory"
      },
      "updateLogicContract(uint256,string,address,bytes)": {
        "notice": "Used to update an existing token logic contract"
      },
      "upgrade(address)": {
        "notice": "Used by a security token to upgrade a given module"
      },
      "upperSTVersionBounds()": {
        "notice": "Used to get the upper bound"
      },
      "version()": {
        "notice": "Get the version related to the module factory"
      }
    }
  }
}