{
  "contractName": "VolumeRestrictionTM",
  "abi": [
    {
      "constant": false,
      "inputs": [],
      "name": "unpause",
      "outputs": [],
      "payable": false,
      "stateMutability": "nonpayable",
      "type": "function"
    },
    {
      "constant": true,
      "inputs": [
        {
          "name": "",
          "type": "address"
        }
      ],
      "name": "individualRestriction",
      "outputs": [
        {
          "name": "allowedTokens",
          "type": "uint256"
        },
        {
          "name": "startTime",
          "type": "uint256"
        },
        {
          "name": "rollingPeriodInDays",
          "type": "uint256"
        },
        {
          "name": "endTime",
          "type": "uint256"
        },
        {
          "name": "typeOfRestriction",
          "type": "uint8"
        }
      ],
      "payable": false,
      "stateMutability": "view",
      "type": "function"
    },
    {
      "constant": true,
      "inputs": [],
      "name": "paused",
      "outputs": [
        {
          "name": "",
          "type": "bool"
        }
      ],
      "payable": false,
      "stateMutability": "view",
      "type": "function"
    },
    {
      "constant": false,
      "inputs": [
        {
          "name": "_amount",
          "type": "uint256"
        }
      ],
      "name": "takeFee",
      "outputs": [
        {
          "name": "",
          "type": "bool"
        }
      ],
      "payable": false,
      "stateMutability": "nonpayable",
      "type": "function"
    },
    {
      "constant": true,
      "inputs": [],
      "name": "polyToken",
      "outputs": [
        {
          "name": "",
          "type": "address"
        }
      ],
      "payable": false,
      "stateMutability": "view",
      "type": "function"
    },
    {
      "constant": false,
      "inputs": [],
      "name": "pause",
      "outputs": [],
      "payable": false,
      "stateMutability": "nonpayable",
      "type": "function"
    },
    {
      "constant": true,
      "inputs": [],
      "name": "defaultRestriction",
      "outputs": [
        {
          "name": "allowedTokens",
          "type": "uint256"
        },
        {
          "name": "startTime",
          "type": "uint256"
        },
        {
          "name": "rollingPeriodInDays",
          "type": "uint256"
        },
        {
          "name": "endTime",
          "type": "uint256"
        },
        {
          "name": "typeOfRestriction",
          "type": "uint8"
        }
      ],
      "payable": false,
      "stateMutability": "view",
      "type": "function"
    },
    {
      "constant": true,
      "inputs": [],
      "name": "securityToken",
      "outputs": [
        {
          "name": "",
          "type": "address"
        }
      ],
      "payable": false,
      "stateMutability": "view",
      "type": "function"
    },
    {
      "constant": true,
      "inputs": [],
      "name": "factory",
      "outputs": [
        {
          "name": "",
          "type": "address"
        }
      ],
      "payable": false,
      "stateMutability": "view",
      "type": "function"
    },
    {
      "constant": true,
      "inputs": [],
      "name": "FEE_ADMIN",
      "outputs": [
        {
          "name": "",
          "type": "bytes32"
        }
      ],
      "payable": false,
      "stateMutability": "view",
      "type": "function"
    },
    {
      "constant": true,
      "inputs": [],
      "name": "defaultDailyRestriction",
      "outputs": [
        {
          "name": "allowedTokens",
          "type": "uint256"
        },
        {
          "name": "startTime",
          "type": "uint256"
        },
        {
          "name": "rollingPeriodInDays",
          "type": "uint256"
        },
        {
          "name": "endTime",
          "type": "uint256"
        },
        {
          "name": "typeOfRestriction",
          "type": "uint8"
        }
      ],
      "payable": false,
      "stateMutability": "view",
      "type": "function"
    },
    {
      "constant": true,
      "inputs": [
        {
          "name": "",
          "type": "uint256"
        }
      ],
      "name": "exemptAddresses",
      "outputs": [
        {
          "name": "",
          "type": "address"
        }
      ],
      "payable": false,
      "stateMutability": "view",
      "type": "function"
    },
    {
      "constant": true,
      "inputs": [
        {
          "name": "",
          "type": "address"
        }
      ],
      "name": "individualDailyRestriction",
      "outputs": [
        {
          "name": "allowedTokens",
          "type": "uint256"
        },
        {
          "name": "startTime",
          "type": "uint256"
        },
        {
          "name": "rollingPeriodInDays",
          "type": "uint256"
        },
        {
          "name": "endTime",
          "type": "uint256"
        },
        {
          "name": "typeOfRestriction",
          "type": "uint8"
        }
      ],
      "payable": false,
      "stateMutability": "view",
      "type": "function"
    },
    {
      "inputs": [
        {
          "name": "_securityToken",
          "type": "address"
        },
        {
          "name": "_polyAddress",
          "type": "address"
        }
      ],
      "payable": false,
      "stateMutability": "nonpayable",
      "type": "constructor"
    },
    {
      "anonymous": false,
      "inputs": [
        {
          "indexed": true,
          "name": "_wallet",
          "type": "address"
        },
        {
          "indexed": false,
          "name": "_change",
          "type": "bool"
        }
      ],
      "name": "ChangedExemptWalletList",
      "type": "event"
    },
    {
      "anonymous": false,
      "inputs": [
        {
          "indexed": true,
          "name": "_holder",
          "type": "address"
        },
        {
          "indexed": false,
          "name": "_allowedTokens",
          "type": "uint256"
        },
        {
          "indexed": false,
          "name": "_startTime",
          "type": "uint256"
        },
        {
          "indexed": false,
          "name": "_rollingPeriodInDays",
          "type": "uint256"
        },
        {
          "indexed": false,
          "name": "_endTime",
          "type": "uint256"
        },
        {
          "indexed": false,
          "name": "_typeOfRestriction",
          "type": "uint8"
        }
      ],
      "name": "AddIndividualRestriction",
      "type": "event"
    },
    {
      "anonymous": false,
      "inputs": [
        {
          "indexed": true,
          "name": "_holder",
          "type": "address"
        },
        {
          "indexed": false,
          "name": "_allowedTokens",
          "type": "uint256"
        },
        {
          "indexed": false,
          "name": "_startTime",
          "type": "uint256"
        },
        {
          "indexed": false,
          "name": "_rollingPeriodInDays",
          "type": "uint256"
        },
        {
          "indexed": false,
          "name": "_endTime",
          "type": "uint256"
        },
        {
          "indexed": false,
          "name": "_typeOfRestriction",
          "type": "uint8"
        }
      ],
      "name": "AddIndividualDailyRestriction",
      "type": "event"
    },
    {
      "anonymous": false,
      "inputs": [
        {
          "indexed": true,
          "name": "_holder",
          "type": "address"
        },
        {
          "indexed": false,
          "name": "_allowedTokens",
          "type": "uint256"
        },
        {
          "indexed": false,
          "name": "_startTime",
          "type": "uint256"
        },
        {
          "indexed": false,
          "name": "_rollingPeriodInDays",
          "type": "uint256"
        },
        {
          "indexed": false,
          "name": "_endTime",
          "type": "uint256"
        },
        {
          "indexed": false,
          "name": "_typeOfRestriction",
          "type": "uint8"
        }
      ],
      "name": "ModifyIndividualRestriction",
      "type": "event"
    },
    {
      "anonymous": false,
      "inputs": [
        {
          "indexed": true,
          "name": "_holder",
          "type": "address"
        },
        {
          "indexed": false,
          "name": "_allowedTokens",
          "type": "uint256"
        },
        {
          "indexed": false,
          "name": "_startTime",
          "type": "uint256"
        },
        {
          "indexed": false,
          "name": "_rollingPeriodInDays",
          "type": "uint256"
        },
        {
          "indexed": false,
          "name": "_endTime",
          "type": "uint256"
        },
        {
          "indexed": false,
          "name": "_typeOfRestriction",
          "type": "uint8"
        }
      ],
      "name": "ModifyIndividualDailyRestriction",
      "type": "event"
    },
    {
      "anonymous": false,
      "inputs": [
        {
          "indexed": false,
          "name": "_allowedTokens",
          "type": "uint256"
        },
        {
          "indexed": false,
          "name": "_startTime",
          "type": "uint256"
        },
        {
          "indexed": false,
          "name": "_rollingPeriodInDays",
          "type": "uint256"
        },
        {
          "indexed": false,
          "name": "_endTime",
          "type": "uint256"
        },
        {
          "indexed": false,
          "name": "_typeOfRestriction",
          "type": "uint8"
        }
      ],
      "name": "AddDefaultRestriction",
      "type": "event"
    },
    {
      "anonymous": false,
      "inputs": [
        {
          "indexed": false,
          "name": "_allowedTokens",
          "type": "uint256"
        },
        {
          "indexed": false,
          "name": "_startTime",
          "type": "uint256"
        },
        {
          "indexed": false,
          "name": "_rollingPeriodInDays",
          "type": "uint256"
        },
        {
          "indexed": false,
          "name": "_endTime",
          "type": "uint256"
        },
        {
          "indexed": false,
          "name": "_typeOfRestriction",
          "type": "uint8"
        }
      ],
      "name": "AddDefaultDailyRestriction",
      "type": "event"
    },
    {
      "anonymous": false,
      "inputs": [
        {
          "indexed": false,
          "name": "_allowedTokens",
          "type": "uint256"
        },
        {
          "indexed": false,
          "name": "_startTime",
          "type": "uint256"
        },
        {
          "indexed": false,
          "name": "_rollingPeriodInDays",
          "type": "uint256"
        },
        {
          "indexed": false,
          "name": "_endTime",
          "type": "uint256"
        },
        {
          "indexed": false,
          "name": "_typeOfRestriction",
          "type": "uint8"
        }
      ],
      "name": "ModifyDefaultRestriction",
      "type": "event"
    },
    {
      "anonymous": false,
      "inputs": [
        {
          "indexed": false,
          "name": "_allowedTokens",
          "type": "uint256"
        },
        {
          "indexed": false,
          "name": "_startTime",
          "type": "uint256"
        },
        {
          "indexed": false,
          "name": "_rollingPeriodInDays",
          "type": "uint256"
        },
        {
          "indexed": false,
          "name": "_endTime",
          "type": "uint256"
        },
        {
          "indexed": false,
          "name": "_typeOfRestriction",
          "type": "uint8"
        }
      ],
      "name": "ModifyDefaultDailyRestriction",
      "type": "event"
    },
    {
      "anonymous": false,
      "inputs": [
        {
          "indexed": true,
          "name": "_holder",
          "type": "address"
        }
      ],
      "name": "IndividualRestrictionRemoved",
      "type": "event"
    },
    {
      "anonymous": false,
      "inputs": [
        {
          "indexed": true,
          "name": "_holder",
          "type": "address"
        }
      ],
      "name": "IndividualDailyRestrictionRemoved",
      "type": "event"
    },
    {
      "anonymous": false,
      "inputs": [],
      "name": "DefaultRestrictionRemoved",
      "type": "event"
    },
    {
      "anonymous": false,
      "inputs": [],
      "name": "DefaultDailyRestrictionRemoved",
      "type": "event"
    },
    {
      "anonymous": false,
      "inputs": [
        {
          "indexed": false,
          "name": "_timestammp",
          "type": "uint256"
        }
      ],
      "name": "Pause",
      "type": "event"
    },
    {
      "anonymous": false,
      "inputs": [
        {
          "indexed": false,
          "name": "_timestamp",
          "type": "uint256"
        }
      ],
      "name": "Unpause",
      "type": "event"
    },
    {
      "constant": false,
      "inputs": [
        {
          "name": "_from",
          "type": "address"
        },
        {
          "name": "",
          "type": "address"
        },
        {
          "name": "_amount",
          "type": "uint256"
        },
        {
          "name": "",
          "type": "bytes"
        },
        {
          "name": "_isTransfer",
          "type": "bool"
        }
      ],
      "name": "verifyTransfer",
      "outputs": [
        {
          "name": "",
          "type": "uint8"
        }
      ],
      "payable": false,
      "stateMutability": "nonpayable",
      "type": "function"
    },
    {
      "constant": false,
      "inputs": [
        {
          "name": "_wallet",
          "type": "address"
        },
        {
          "name": "_change",
          "type": "bool"
        }
      ],
      "name": "changeExemptWalletList",
      "outputs": [],
      "payable": false,
      "stateMutability": "nonpayable",
      "type": "function"
    },
    {
      "constant": false,
      "inputs": [
        {
          "name": "_holder",
          "type": "address"
        },
        {
          "name": "_allowedTokens",
          "type": "uint256"
        },
        {
          "name": "_startTime",
          "type": "uint256"
        },
        {
          "name": "_rollingPeriodInDays",
          "type": "uint256"
        },
        {
          "name": "_endTime",
          "type": "uint256"
        },
        {
          "name": "_restrictionType",
          "type": "uint8"
        }
      ],
      "name": "addIndividualRestriction",
      "outputs": [],
      "payable": false,
      "stateMutability": "nonpayable",
      "type": "function"
    },
    {
      "constant": false,
      "inputs": [
        {
          "name": "_holder",
          "type": "address"
        },
        {
          "name": "_allowedTokens",
          "type": "uint256"
        },
        {
          "name": "_startTime",
          "type": "uint256"
        },
        {
          "name": "_endTime",
          "type": "uint256"
        },
        {
          "name": "_restrictionType",
          "type": "uint8"
        }
      ],
      "name": "addIndividualDailyRestriction",
      "outputs": [],
      "payable": false,
      "stateMutability": "nonpayable",
      "type": "function"
    },
    {
      "constant": false,
      "inputs": [
        {
          "name": "_holders",
          "type": "address[]"
        },
        {
          "name": "_allowedTokens",
          "type": "uint256[]"
        },
        {
          "name": "_startTimes",
          "type": "uint256[]"
        },
        {
          "name": "_endTimes",
          "type": "uint256[]"
        },
        {
          "name": "_restrictionTypes",
          "type": "uint8[]"
        }
      ],
      "name": "addIndividualDailyRestrictionMulti",
      "outputs": [],
      "payable": false,
      "stateMutability": "nonpayable",
      "type": "function"
    },
    {
      "constant": false,
      "inputs": [
        {
          "name": "_holders",
          "type": "address[]"
        },
        {
          "name": "_allowedTokens",
          "type": "uint256[]"
        },
        {
          "name": "_startTimes",
          "type": "uint256[]"
        },
        {
          "name": "_rollingPeriodInDays",
          "type": "uint256[]"
        },
        {
          "name": "_endTimes",
          "type": "uint256[]"
        },
        {
          "name": "_restrictionTypes",
          "type": "uint8[]"
        }
      ],
      "name": "addIndividualRestrictionMulti",
      "outputs": [],
      "payable": false,
      "stateMutability": "nonpayable",
      "type": "function"
    },
    {
      "constant": false,
      "inputs": [
        {
          "name": "_allowedTokens",
          "type": "uint256"
        },
        {
          "name": "_startTime",
          "type": "uint256"
        },
        {
          "name": "_rollingPeriodInDays",
          "type": "uint256"
        },
        {
          "name": "_endTime",
          "type": "uint256"
        },
        {
          "name": "_restrictionType",
          "type": "uint8"
        }
      ],
      "name": "addDefaultRestriction",
      "outputs": [],
      "payable": false,
      "stateMutability": "nonpayable",
      "type": "function"
    },
    {
      "constant": false,
      "inputs": [
        {
          "name": "_allowedTokens",
          "type": "uint256"
        },
        {
          "name": "_startTime",
          "type": "uint256"
        },
        {
          "name": "_endTime",
          "type": "uint256"
        },
        {
          "name": "_restrictionType",
          "type": "uint8"
        }
      ],
      "name": "addDefaultDailyRestriction",
      "outputs": [],
      "payable": false,
      "stateMutability": "nonpayable",
      "type": "function"
    },
    {
      "constant": false,
      "inputs": [
        {
          "name": "_holder",
          "type": "address"
        }
      ],
      "name": "removeIndividualRestriction",
      "outputs": [],
      "payable": false,
      "stateMutability": "nonpayable",
      "type": "function"
    },
    {
      "constant": false,
      "inputs": [
        {
          "name": "_holders",
          "type": "address[]"
        }
      ],
      "name": "removeIndividualRestrictionMulti",
      "outputs": [],
      "payable": false,
      "stateMutability": "nonpayable",
      "type": "function"
    },
    {
      "constant": false,
      "inputs": [
        {
          "name": "_holder",
          "type": "address"
        }
      ],
      "name": "removeIndividualDailyRestriction",
      "outputs": [],
      "payable": false,
      "stateMutability": "nonpayable",
      "type": "function"
    },
    {
      "constant": false,
      "inputs": [
        {
          "name": "_holders",
          "type": "address[]"
        }
      ],
      "name": "removeIndividualDailyRestrictionMulti",
      "outputs": [],
      "payable": false,
      "stateMutability": "nonpayable",
      "type": "function"
    },
    {
      "constant": false,
      "inputs": [],
      "name": "removeDefaultRestriction",
      "outputs": [],
      "payable": false,
      "stateMutability": "nonpayable",
      "type": "function"
    },
    {
      "constant": false,
      "inputs": [],
      "name": "removeDefaultDailyRestriction",
      "outputs": [],
      "payable": false,
      "stateMutability": "nonpayable",
      "type": "function"
    },
    {
      "constant": false,
      "inputs": [
        {
          "name": "_holder",
          "type": "address"
        },
        {
          "name": "_allowedTokens",
          "type": "uint256"
        },
        {
          "name": "_startTime",
          "type": "uint256"
        },
        {
          "name": "_rollingPeriodInDays",
          "type": "uint256"
        },
        {
          "name": "_endTime",
          "type": "uint256"
        },
        {
          "name": "_restrictionType",
          "type": "uint8"
        }
      ],
      "name": "modifyIndividualRestriction",
      "outputs": [],
      "payable": false,
      "stateMutability": "nonpayable",
      "type": "function"
    },
    {
      "constant": false,
      "inputs": [
        {
          "name": "_holder",
          "type": "address"
        },
        {
          "name": "_allowedTokens",
          "type": "uint256"
        },
        {
          "name": "_startTime",
          "type": "uint256"
        },
        {
          "name": "_endTime",
          "type": "uint256"
        },
        {
          "name": "_restrictionType",
          "type": "uint8"
        }
      ],
      "name": "modifyIndividualDailyRestriction",
      "outputs": [],
      "payable": false,
      "stateMutability": "nonpayable",
      "type": "function"
    },
    {
      "constant": false,
      "inputs": [
        {
          "name": "_holders",
          "type": "address[]"
        },
        {
          "name": "_allowedTokens",
          "type": "uint256[]"
        },
        {
          "name": "_startTimes",
          "type": "uint256[]"
        },
        {
          "name": "_endTimes",
          "type": "uint256[]"
        },
        {
          "name": "_restrictionTypes",
          "type": "uint8[]"
        }
      ],
      "name": "modifyIndividualDailyRestrictionMulti",
      "outputs": [],
      "payable": false,
      "stateMutability": "nonpayable",
      "type": "function"
    },
    {
      "constant": false,
      "inputs": [
        {
          "name": "_holders",
          "type": "address[]"
        },
        {
          "name": "_allowedTokens",
          "type": "uint256[]"
        },
        {
          "name": "_startTimes",
          "type": "uint256[]"
        },
        {
          "name": "_rollingPeriodInDays",
          "type": "uint256[]"
        },
        {
          "name": "_endTimes",
          "type": "uint256[]"
        },
        {
          "name": "_restrictionTypes",
          "type": "uint8[]"
        }
      ],
      "name": "modifyIndividualRestrictionMulti",
      "outputs": [],
      "payable": false,
      "stateMutability": "nonpayable",
      "type": "function"
    },
    {
      "constant": false,
      "inputs": [
        {
          "name": "_allowedTokens",
          "type": "uint256"
        },
        {
          "name": "_startTime",
          "type": "uint256"
        },
        {
          "name": "_rollingPeriodInDays",
          "type": "uint256"
        },
        {
          "name": "_endTime",
          "type": "uint256"
        },
        {
          "name": "_restrictionType",
          "type": "uint8"
        }
      ],
      "name": "modifyDefaultRestriction",
      "outputs": [],
      "payable": false,
      "stateMutability": "nonpayable",
      "type": "function"
    },
    {
      "constant": false,
      "inputs": [
        {
          "name": "_allowedTokens",
          "type": "uint256"
        },
        {
          "name": "_startTime",
          "type": "uint256"
        },
        {
          "name": "_endTime",
          "type": "uint256"
        },
        {
          "name": "_restrictionType",
          "type": "uint8"
        }
      ],
      "name": "modifyDefaultDailyRestriction",
      "outputs": [],
      "payable": false,
      "stateMutability": "nonpayable",
      "type": "function"
    },
    {
      "constant": true,
      "inputs": [
        {
          "name": "_user",
          "type": "address"
        }
      ],
      "name": "getIndividualBucketDetailsToUser",
      "outputs": [
        {
          "name": "",
          "type": "uint256"
        },
        {
          "name": "",
          "type": "uint256"
        },
        {
          "name": "",
          "type": "uint256"
        },
        {
          "name": "",
          "type": "uint256"
        },
        {
          "name": "",
          "type": "uint256"
        }
      ],
      "payable": false,
      "stateMutability": "view",
      "type": "function"
    },
    {
      "constant": true,
      "inputs": [
        {
          "name": "_user",
          "type": "address"
        }
      ],
      "name": "getDefaultBucketDetailsToUser",
      "outputs": [
        {
          "name": "",
          "type": "uint256"
        },
        {
          "name": "",
          "type": "uint256"
        },
        {
          "name": "",
          "type": "uint256"
        },
        {
          "name": "",
          "type": "uint256"
        },
        {
          "name": "",
          "type": "uint256"
        }
      ],
      "payable": false,
      "stateMutability": "view",
      "type": "function"
    },
    {
      "constant": true,
      "inputs": [
        {
          "name": "_user",
          "type": "address"
        },
        {
          "name": "_at",
          "type": "uint256"
        }
      ],
      "name": "getTotalTradedByUser",
      "outputs": [
        {
          "name": "",
          "type": "uint256"
        }
      ],
      "payable": false,
      "stateMutability": "view",
      "type": "function"
    },
    {
      "constant": true,
      "inputs": [],
      "name": "getInitFunction",
      "outputs": [
        {
          "name": "",
          "type": "bytes4"
        }
      ],
      "payable": false,
      "stateMutability": "view",
      "type": "function"
    },
    {
      "constant": true,
      "inputs": [],
      "name": "getExemptAddress",
      "outputs": [
        {
          "name": "",
          "type": "address[]"
        }
      ],
      "payable": false,
      "stateMutability": "view",
      "type": "function"
    },
    {
      "constant": true,
      "inputs": [],
      "name": "getRestrictedData",
      "outputs": [
        {
          "name": "allAddresses",
          "type": "address[]"
        },
        {
          "name": "allowedTokens",
          "type": "uint256[]"
        },
        {
          "name": "startTime",
          "type": "uint256[]"
        },
        {
          "name": "rollingPeriodInDays",
          "type": "uint256[]"
        },
        {
          "name": "endTime",
          "type": "uint256[]"
        },
        {
          "name": "typeOfRestriction",
          "type": "uint8[]"
        }
      ],
      "payable": false,
      "stateMutability": "view",
      "type": "function"
    },
    {
      "constant": true,
      "inputs": [],
      "name": "getPermissions",
      "outputs": [
        {
          "name": "allPermissions",
          "type": "bytes32[]"
        }
      ],
      "payable": false,
      "stateMutability": "view",
      "type": "function"
    }
  ],
  "bytecode": "0x60806040526016805460a060020a60ff021916905534801561002057600080fd5b506040516040806200604783398101604052805160209091015160158054600160a060020a03938416600160a060020a0319918216179091556014805482163317905560168054939092169216919091179055615fc480620000836000396000f3006080604052600436106101d45763ffffffff60e060020a600035041663048460c981146101d95780631613ec9d146101f05780631db407971461023a5780633c79377e146102615780633edc300e146103d35780633f4ba83a1461050c578063493ed2841461052157806351d5753a146105455780635713f8c4146105a65780635ad7c851146105d95780635c975abb146105f95780635f7619a4146106225780636437ceaf1461063a5780636faa22a51461065a57806370debde81461068b57806378a37fe9146107fd5780637e2fb4d91461082457806381c37863146108455780638456cb5914610a0757806387c02c9414610a1c5780639a7727ae14610a685780639b61874414610a7d5780639d00fd8514610a92578063a8e6f17014610ab6578063ab1aa9c214610ae6578063ae0c788414610b1c578063b315ca2214610b4c578063b470f99314610b7f578063b84dfbd214610cb8578063c08b4d0b14610ccd578063c3a07df614610cee578063c45a015514610d53578063d70afa9614610d68578063de6ee1bc14610d7d578063dfe3de7c14610e14578063e6b1421614610e35578063e7dd64c514610e4a578063ec5ed09e14610e62578063f652614514610e83578063fbaa978c14610ea9575b600080fd5b3480156101e557600080fd5b506101ee610ebe565b005b3480156101fc57600080fd5b50610205611104565b604080517fffffffff000000000000000000000000000000000000000000000000000000009092168252519081900360200190f35b34801561024657600080fd5b506101ee60043560243560443560643560ff6084351661110a565b34801561026d57600080fd5b50604080516020600480358082013583810280860185019096528085526101ee95369593946024949385019291829185019084908082843750506040805187358901803560208181028481018201909552818452989b9a998901989297509082019550935083925085019084908082843750506040805187358901803560208181028481018201909552818452989b9a998901989297509082019550935083925085019084908082843750506040805187358901803560208181028481018201909552818452989b9a998901989297509082019550935083925085019084908082843750506040805187358901803560208181028481018201909552818452989b9a998901989297509082019550935083925085019084908082843750506040805187358901803560208181028481018201909552818452989b9a99890198929750908201955093508392508501908490808284375094975061139e9650505050505050565b3480156103df57600080fd5b50604080516020600480358082013583810280860185019096528085526101ee95369593946024949385019291829185019084908082843750506040805187358901803560208181028481018201909552818452989b9a998901989297509082019550935083925085019084908082843750506040805187358901803560208181028481018201909552818452989b9a998901989297509082019550935083925085019084908082843750506040805187358901803560208181028481018201909552818452989b9a998901989297509082019550935083925085019084908082843750506040805187358901803560208181028481018201909552818452989b9a9989019892975090820195509350839250850190849080828437509497506115ee9650505050505050565b34801561051857600080fd5b506101ee611825565b34801561052d57600080fd5b506101ee60043560243560443560ff6064351661190d565b34801561055157600080fd5b50610566600160a060020a0360043516611b92565b6040518086815260200185815260200184815260200183815260200182600181111561058e57fe5b60ff1681526020019550505050505060405180910390f35b3480156105b257600080fd5b506101ee600160a060020a036004351660243560443560643560843560ff60a43516611bc4565b3480156105e557600080fd5b506101ee6004803560248101910135611d55565b34801561060557600080fd5b5061060e611f1e565b604080519115158252519081900360200190f35b34801561062e57600080fd5b5061060e600435611f2e565b34801561064657600080fd5b506101ee6004803560248101910135612246565b34801561066657600080fd5b5061066f612407565b60408051600160a060020a039092168252519081900360200190f35b34801561069757600080fd5b50604080516020600480358082013583810280860185019096528085526101ee95369593946024949385019291829185019084908082843750506040805187358901803560208181028481018201909552818452989b9a998901989297509082019550935083925085019084908082843750506040805187358901803560208181028481018201909552818452989b9a998901989297509082019550935083925085019084908082843750506040805187358901803560208181028481018201909552818452989b9a998901989297509082019550935083925085019084908082843750506040805187358901803560208181028481018201909552818452989b9a998901989297509082019550935083925085019084908082843750506040805187358901803560208181028481018201909552818452989b9a9989019892975090820195509350839250850190849080828437509497506124169650505050505050565b34801561080957600080fd5b506101ee60043560243560443560643560ff6084351661265a565b34801561083057600080fd5b506101ee600160a060020a03600435166128c0565b34801561085157600080fd5b5061085a612a52565b6040518080602001806020018060200180602001806020018060200187810387528d818151815260200191508051906020019060200280838360005b838110156108ae578181015183820152602001610896565b5050505090500187810386528c818151815260200191508051906020019060200280838360005b838110156108ed5781810151838201526020016108d5565b5050505090500187810385528b818151815260200191508051906020019060200280838360005b8381101561092c578181015183820152602001610914565b5050505090500187810384528a818151815260200191508051906020019060200280838360005b8381101561096b578181015183820152602001610953565b50505050905001878103835289818151815260200191508051906020019060200280838360005b838110156109aa578181015183820152602001610992565b50505050905001878103825288818151815260200191508051906020019060200280838360005b838110156109e95781810151838201526020016109d1565b505050509050019c5050505050505050505050505060405180910390f35b348015610a1357600080fd5b506101ee612ec0565b348015610a2857600080fd5b50610a3d600160a060020a0360043516612fa6565b6040805195865260208601949094528484019290925260608401526080830152519081900360a00190f35b348015610a7457600080fd5b506101ee612fe1565b348015610a8957600080fd5b50610566613222565b348015610a9e57600080fd5b506101ee60043560243560443560ff60643516613237565b348015610ac257600080fd5b506101ee600160a060020a036004351660243560443560643560ff608435166134b1565b348015610af257600080fd5b50610b0a600160a060020a036004351660243561364b565b60408051918252519081900360200190f35b348015610b2857600080fd5b506101ee600160a060020a036004351660243560443560643560ff6084351661369d565b348015610b5857600080fd5b506101ee600160a060020a036004351660243560443560643560843560ff60a4351661382d565b348015610b8b57600080fd5b50604080516020600480358082013583810280860185019096528085526101ee95369593946024949385019291829185019084908082843750506040805187358901803560208181028481018201909552818452989b9a998901989297509082019550935083925085019084908082843750506040805187358901803560208181028481018201909552818452989b9a998901989297509082019550935083925085019084908082843750506040805187358901803560208181028481018201909552818452989b9a998901989297509082019550935083925085019084908082843750506040805187358901803560208181028481018201909552818452989b9a9989019892975090820195509350839250850190849080828437509497506139be9650505050505050565b348015610cc457600080fd5b5061066f613bea565b348015610cd957600080fd5b50610a3d600160a060020a0360043516613bf9565b348015610cfa57600080fd5b50610d03613c22565b60408051602080825283518183015283519192839290830191858101910280838360005b83811015610d3f578181015183820152602001610d27565b505050509050019250505060405180910390f35b348015610d5f57600080fd5b5061066f613c6c565b348015610d7457600080fd5b50610b0a613c7b565b348015610d8957600080fd5b50604080516020601f606435600481810135928301849004840285018401909552818452610df094600160a060020a038135811695602480359092169560443595369560849401918190840183828082843750949750505050913515159250613c9f915050565b60405180826003811115610e0057fe5b60ff16815260200191505060405180910390f35b348015610e2057600080fd5b506101ee600160a060020a0360043516613fc6565b348015610e4157600080fd5b50610566614152565b348015610e5657600080fd5b5061066f600435614167565b348015610e6e57600080fd5b50610566600160a060020a036004351661418f565b348015610e8f57600080fd5b506101ee600160a060020a036004351660243515156141c1565b348015610eb557600080fd5b50610d03614511565b60d960020a6420a226a4a702600080601560009054906101000a9004600160a060020a0316600160a060020a0316638da5cb5b6040518163ffffffff1660e060020a028152600401602060405180830381600087803b158015610f2057600080fd5b505af1158015610f34573d6000803e3d6000fd5b505050506040513d6020811015610f4a57600080fd5b505160145433600160a060020a039283168114945091161490508180610f6d5750805b80610ffd57506015546040805160e060020a638658b8b9028152336004820152306024820152604481018690529051600160a060020a0390921691638658b8b9916064808201926020929091908290030181600087803b158015610fd057600080fd5b505af1158015610fe4573d6000803e3d6000fd5b505050506040513d6020811015610ffa57600080fd5b50515b1515611041576040805160e560020a62461bcd0281526020600482015260176024820152600080516020615f79833981519152604482015290519081900360640190fd5b600354151561104f57600080fd5b60a060405190810160405280600081526020016000815260200160008152602001600081526020016000600181111561108457fe5b600181111561108f57fe5b90528051600090815560208201516001908155604083015160025560608301516003556080830151600480549192909160ff19169083818111156110cf57fe5b0217905550506040517f59f8d3bed9f0ab7c5e66887418204622e4da84de330570b2d587bb7d53e2080e9150600090a1505050565b60005b90565b600060d960020a6420a226a4a702600080601560009054906101000a9004600160a060020a0316600160a060020a0316638da5cb5b6040518163ffffffff1660e060020a028152600401602060405180830381600087803b15801561116e57600080fd5b505af1158015611182573d6000803e3d6000fd5b505050506040513d602081101561119857600080fd5b505160145433600160a060020a0392831681149450911614905081806111bb5750805b8061124b57506015546040805160e060020a638658b8b9028152336004820152306024820152604481018690529051600160a060020a0390921691638658b8b9916064808201926020929091908290030181600087803b15801561121e57600080fd5b505af1158015611232573d6000803e3d6000fd5b505050506040513d602081101561124857600080fd5b50515b151561128f576040805160e560020a62461bcd0281526020600482015260176024820152600080516020615f79833981519152604482015290519081900360640190fd5b60015461129b90614573565b6112a488614582565b93506112b68985898989426000614596565b60a0604051908101604052808a81526020018581526020018881526020018781526020018660018111156112e657fe5b90528051600090815560208201516001908155604083015160025560608301516003556080830151600480549192909160ff191690838181111561132657fe5b02179055509050507fa25ed3183d81e18380b7ad6abe553ff604f2a7bd7509e8e0283dabf12e45c10e89858989896040518086815260200185815260200184815260200183815260200182600181111561137c57fe5b60ff1681526020019550505050505060405180910390a1505050505050505050565b600060d960020a6420a226a4a702600080601560009054906101000a9004600160a060020a0316600160a060020a0316638da5cb5b6040518163ffffffff1660e060020a028152600401602060405180830381600087803b15801561140257600080fd5b505af1158015611416573d6000803e3d6000fd5b505050506040513d602081101561142c57600080fd5b505160145433600160a060020a03928316811494509116149050818061144f5750805b806114df57506015546040805160e060020a638658b8b9028152336004820152306024820152604481018690529051600160a060020a0390921691638658b8b9916064808201926020929091908290030181600087803b1580156114b257600080fd5b505af11580156114c6573d6000803e3d6000fd5b505050506040513d60208110156114dc57600080fd5b50515b1515611523576040805160e560020a62461bcd0281526020600482015260176024820152600080516020615f79833981519152604482015290519081900360640190fd5b6115318a8a8a8a8a8a6147bb565b600093505b89518410156115e2576115d78a8581518110151561155057fe5b906020019060200201518a8681518110151561156857fe5b906020019060200201518a8781518110151561158057fe5b906020019060200201518a8881518110151561159857fe5b906020019060200201518a898151811015156115b057fe5b906020019060200201518a8a8151811015156115c857fe5b9060200190602002015161484a565b600190930192611536565b50505050505050505050565b600060d960020a6420a226a4a702600080601560009054906101000a9004600160a060020a0316600160a060020a0316638da5cb5b6040518163ffffffff1660e060020a028152600401602060405180830381600087803b15801561165257600080fd5b505af1158015611666573d6000803e3d6000fd5b505050506040513d602081101561167c57600080fd5b505160145433600160a060020a03928316811494509116149050818061169f5750805b8061172f57506015546040805160e060020a638658b8b9028152336004820152306024820152604481018690529051600160a060020a0390921691638658b8b9916064808201926020929091908290030181600087803b15801561170257600080fd5b505af1158015611716573d6000803e3d6000fd5b505050506040513d602081101561172c57600080fd5b50515b1515611773576040805160e560020a62461bcd0281526020600482015260176024820152600080516020615f79833981519152604482015290519081900360640190fd5b6117818989898a8a8a6147bb565b600093505b885184101561181a5761180f89858151811015156117a057fe5b9060200190602002015189868151811015156117b857fe5b9060200190602002015189878151811015156117d057fe5b9060200190602002015189888151811015156117e857fe5b90602001906020020151898981518110151561180057fe5b906020019060200201516149ae565b600190930192611786565b505050505050505050565b601560009054906101000a9004600160a060020a0316600160a060020a0316638da5cb5b6040518163ffffffff1660e060020a028152600401602060405180830381600087803b15801561187857600080fd5b505af115801561188c573d6000803e3d6000fd5b505050506040513d60208110156118a257600080fd5b5051600160a060020a03163314611903576040805160e560020a62461bcd02815260206004820152601360248201527f53656e646572206973206e6f74206f776e657200000000000000000000000000604482015290519081900360640190fd5b61190b614bc8565b565b600060d960020a6420a226a4a702600080601560009054906101000a9004600160a060020a0316600160a060020a0316638da5cb5b6040518163ffffffff1660e060020a028152600401602060405180830381600087803b15801561197157600080fd5b505af1158015611985573d6000803e3d6000fd5b505050506040513d602081101561199b57600080fd5b505160145433600160a060020a0392831681149450911614905081806119be5750805b80611a4e57506015546040805160e060020a638658b8b9028152336004820152306024820152604481018690529051600160a060020a0390921691638658b8b9916064808201926020929091908290030181600087803b158015611a2157600080fd5b505af1158015611a35573d6000803e3d6000fd5b505050506040513d6020811015611a4b57600080fd5b50515b1515611a92576040805160e560020a62461bcd0281526020600482015260176024820152600080516020615f79833981519152604482015290519081900360640190fd5b611a9b87614582565b9350611aae888560018989426000614596565b60a06040519081016040528089815260200185815260200160018152602001878152602001866001811115611adf57fe5b90528051600590815560208201516006556040820151600755606082015160085560808201516009805460ff191660018381811115611b1a57fe5b02179055509050507f1e7cdbf79e2c594b49ca3dfdba4bfa0f01610d6ce25f75eb2e13c9b5310708f688856001898960405180868152602001858152602001848152602001838152602001826001811115611b7157fe5b60ff1681526020019550505050505060405180910390a15050505050505050565b600a60205260009081526040902080546001820154600283015460038401546004909401549293919290919060ff1685565b60d960020a6420a226a4a702600080601560009054906101000a9004600160a060020a0316600160a060020a0316638da5cb5b6040518163ffffffff1660e060020a028152600401602060405180830381600087803b158015611c2657600080fd5b505af1158015611c3a573d6000803e3d6000fd5b505050506040513d6020811015611c5057600080fd5b505160145433600160a060020a039283168114945091161490508180611c735750805b80611d0357506015546040805160e060020a638658b8b9028152336004820152306024820152604481018690529051600160a060020a0390921691638658b8b9916064808201926020929091908290030181600087803b158015611cd657600080fd5b505af1158015611cea573d6000803e3d6000fd5b505050506040513d6020811015611d0057600080fd5b50515b1515611d47576040805160e560020a62461bcd0281526020600482015260176024820152600080516020615f79833981519152604482015290519081900360640190fd5b61181a89898989898961484a565b600060d960020a6420a226a4a702600080601560009054906101000a9004600160a060020a0316600160a060020a0316638da5cb5b6040518163ffffffff1660e060020a028152600401602060405180830381600087803b158015611db957600080fd5b505af1158015611dcd573d6000803e3d6000fd5b505050506040513d6020811015611de357600080fd5b505160145433600160a060020a039283168114945091161490508180611e065750805b80611e9657506015546040805160e060020a638658b8b9028152336004820152306024820152604481018690529051600160a060020a0390921691638658b8b9916064808201926020929091908290030181600087803b158015611e6957600080fd5b505af1158015611e7d573d6000803e3d6000fd5b505050506040513d6020811015611e9357600080fd5b50515b1515611eda576040805160e560020a62461bcd0281526020600482015260176024820152600080516020615f79833981519152604482015290519081900360640190fd5b600093505b84841015611f1657611f0b868686818110611ef657fe5b90506020020135600160a060020a0316614c7e565b600190930192611edf565b505050505050565b60165460a060020a900460ff1681565b60007f4645455f41444d494e0000000000000000000000000000000000000000000000600080601560009054906101000a9004600160a060020a0316600160a060020a0316638da5cb5b6040518163ffffffff1660e060020a028152600401602060405180830381600087803b158015611fa757600080fd5b505af1158015611fbb573d6000803e3d6000fd5b505050506040513d6020811015611fd157600080fd5b505160145433600160a060020a039283168114945091161490508180611ff45750805b8061208457506015546040805160e060020a638658b8b9028152336004820152306024820152604481018690529051600160a060020a0390921691638658b8b9916064808201926020929091908290030181600087803b15801561205757600080fd5b505af115801561206b573d6000803e3d6000fd5b505050506040513d602081101561208157600080fd5b50515b15156120c8576040805160e560020a62461bcd0281526020600482015260176024820152600080516020615f79833981519152604482015290519081900360640190fd5b601654601554601454604080517f8da5cb5b0000000000000000000000000000000000000000000000000000000081529051600160a060020a03948516946323b872dd948116931691638da5cb5b9160048083019260209291908290030181600087803b15801561213857600080fd5b505af115801561214c573d6000803e3d6000fd5b505050506040513d602081101561216257600080fd5b50516040805160e060020a63ffffffff8616028152600160a060020a039384166004820152929091166024830152604482018990525160648083019260209291908290030181600087803b1580156121b957600080fd5b505af11580156121cd573d6000803e3d6000fd5b505050506040513d60208110156121e357600080fd5b5051151561223b576040805160e560020a62461bcd02815260206004820152601260248201527f556e61626c6520746f2074616b65206665650000000000000000000000000000604482015290519081900360640190fd5b506001949350505050565b600060d960020a6420a226a4a702600080601560009054906101000a9004600160a060020a0316600160a060020a0316638da5cb5b6040518163ffffffff1660e060020a028152600401602060405180830381600087803b1580156122aa57600080fd5b505af11580156122be573d6000803e3d6000fd5b505050506040513d60208110156122d457600080fd5b505160145433600160a060020a0392831681149450911614905081806122f75750805b8061238757506015546040805160e060020a638658b8b9028152336004820152306024820152604481018690529051600160a060020a0390921691638658b8b9916064808201926020929091908290030181600087803b15801561235a57600080fd5b505af115801561236e573d6000803e3d6000fd5b505050506040513d602081101561238457600080fd5b50515b15156123cb576040805160e560020a62461bcd0281526020600482015260176024820152600080516020615f79833981519152604482015290519081900360640190fd5b600093505b84841015611f16576123fc8686868181106123e757fe5b90506020020135600160a060020a0316614e60565b6001909301926123d0565b601654600160a060020a031681565b600060d960020a6420a226a4a702600080601560009054906101000a9004600160a060020a0316600160a060020a0316638da5cb5b6040518163ffffffff1660e060020a028152600401602060405180830381600087803b15801561247a57600080fd5b505af115801561248e573d6000803e3d6000fd5b505050506040513d60208110156124a457600080fd5b505160145433600160a060020a0392831681149450911614905081806124c75750805b8061255757506015546040805160e060020a638658b8b9028152336004820152306024820152604481018690529051600160a060020a0390921691638658b8b9916064808201926020929091908290030181600087803b15801561252a57600080fd5b505af115801561253e573d6000803e3d6000fd5b505050506040513d602081101561255457600080fd5b50515b151561259b576040805160e560020a62461bcd0281526020600482015260176024820152600080516020615f79833981519152604482015290519081900360640190fd5b6125a98a8a8a8a8a8a6147bb565b600093505b89518410156115e25761264f8a858151811015156125c857fe5b906020019060200201518a868151811015156125e057fe5b906020019060200201518a878151811015156125f857fe5b906020019060200201518a8881518110151561261057fe5b906020019060200201518a8981518110151561262857fe5b906020019060200201518a8a81518110151561264057fe5b90602001906020020151615037565b6001909301926125ae565b600060d960020a6420a226a4a702600080601560009054906101000a9004600160a060020a0316600160a060020a0316638da5cb5b6040518163ffffffff1660e060020a028152600401602060405180830381600087803b1580156126be57600080fd5b505af11580156126d2573d6000803e3d6000fd5b505050506040513d60208110156126e857600080fd5b505160145433600160a060020a03928316811494509116149050818061270b5750805b8061279b57506015546040805160e060020a638658b8b9028152336004820152306024820152604481018690529051600160a060020a0390921691638658b8b9916064808201926020929091908290030181600087803b15801561276e57600080fd5b505af1158015612782573d6000803e3d6000fd5b505050506040513d602081101561279857600080fd5b50515b15156127df576040805160e560020a62461bcd0281526020600482015260176024820152600080516020615f79833981519152604482015290519081900360640190fd5b6127e888614582565b93506127fa8985898989426000614596565b60a0604051908101604052808a815260200185815260200188815260200187815260200186600181111561282a57fe5b90528051600090815560208201516001908155604083015160025560608301516003556080830151600480549192909160ff191690838181111561286a57fe5b02179055509050507f2563be59aba55b6c70280dd8ee07b1c999d944d30bb39a17d08f6c4cfd68d4d489858989896040518086815260200185815260200184815260200183815260200182600181111561137c57fe5b60d960020a6420a226a4a702600080601560009054906101000a9004600160a060020a0316600160a060020a0316638da5cb5b6040518163ffffffff1660e060020a028152600401602060405180830381600087803b15801561292257600080fd5b505af1158015612936573d6000803e3d6000fd5b505050506040513d602081101561294c57600080fd5b505160145433600160a060020a03928316811494509116149050818061296f5750805b806129ff57506015546040805160e060020a638658b8b9028152336004820152306024820152604481018690529051600160a060020a0390921691638658b8b9916064808201926020929091908290030181600087803b1580156129d257600080fd5b505af11580156129e6573d6000803e3d6000fd5b505050506040513d60208110156129fc57600080fd5b50515b1515612a43576040805160e560020a62461bcd0281526020600482015260176024820152600080516020615f79833981519152604482015290519081900360640190fd5b612a4c84614c7e565b50505050565b606080808080806000805b601154811015612adc5760026011805460109160009185908110612a7d57fe5b6000918252602080832090910154600160a060020a0316835282019290925260400190205460ff610100909104166002811115612ab657fe5b14612ac2576001612ac5565b60025b6002811115612ad057fe5b90910190600101612a5d565b81604051908082528060200260200182016040528015612b06578160200160208202803883390190505b50975081604051908082528060200260200182016040528015612b33578160200160208202803883390190505b50965081604051908082528060200260200182016040528015612b60578160200160208202803883390190505b50955081604051908082528060200260200182016040528015612b8d578160200160208202803883390190505b50945081604051908082528060200260200182016040528015612bba578160200160208202803883390190505b50935081604051908082528060200260200182016040528015612be7578160200160208202803883390190505b50925060009150600090505b601154811015612eb6576011805482908110612c0b57fe5b6000918252602090912001548851600160a060020a0390911690899084908110612c3157fe5b600160a060020a0390921660209283029091019091015260006011805460109160009185908110612c5e57fe5b6000918252602080832090910154600160a060020a0316835282019290925260400190205460ff610100909104166002811115612c9757fe5b1415612d6457612d5f600a6000601060010184815481101515612cb657fe5b9060005260206000200160009054906101000a9004600160a060020a0316600160a060020a0316600160a060020a0316815260200190815260200160002060a06040519081016040529081600082015481526020016001820154815260200160028201548152602001600382015481526020016004820160009054906101000a900460ff166001811115612d4657fe5b6001811115612d5157fe5b9052508888888888886152b3565b612eaa565b60016011805460109160009185908110612d7a57fe5b6000918252602080832090910154600160a060020a0316835282019290925260400190205460ff610100909104166002811115612db357fe5b1415612dd257612d5f600b6000601060010184815481101515612cb657fe5b60026011805460109160009185908110612de857fe5b6000918252602080832090910154600160a060020a0316835282019290925260400190205460ff610100909104166002811115612e2157fe5b1415612eaa57612e40600a6000601060010184815481101515612cb657fe5b6011805460019093019282908110612e5457fe5b6000918252602090912001548851600160a060020a0390911690899084908110612e7a57fe5b600160a060020a0390921660209283029091019091015260118054612eaa91600b916000919085908110612cb657fe5b60019182019101612bf3565b5050909192939495565b601560009054906101000a9004600160a060020a0316600160a060020a0316638da5cb5b6040518163ffffffff1660e060020a028152600401602060405180830381600087803b158015612f1357600080fd5b505af1158015612f27573d6000803e3d6000fd5b505050506040513d6020811015612f3d57600080fd5b5051600160a060020a03163314612f9e576040805160e560020a62461bcd02815260206004820152601360248201527f53656e646572206973206e6f74206f776e657200000000000000000000000000604482015290519081900360640190fd5b61190b615369565b600160a060020a0381166000908152600e602052604081208190819081908190612fcf90615424565b939a9299509097509550909350915050565b60d960020a6420a226a4a702600080601560009054906101000a9004600160a060020a0316600160a060020a0316638da5cb5b6040518163ffffffff1660e060020a028152600401602060405180830381600087803b15801561304357600080fd5b505af1158015613057573d6000803e3d6000fd5b505050506040513d602081101561306d57600080fd5b505160145433600160a060020a0392831681149450911614905081806130905750805b8061312057506015546040805160e060020a638658b8b9028152336004820152306024820152604481018690529051600160a060020a0390921691638658b8b9916064808201926020929091908290030181600087803b1580156130f357600080fd5b505af1158015613107573d6000803e3d6000fd5b505050506040513d602081101561311d57600080fd5b50515b1515613164576040805160e560020a62461bcd0281526020600482015260176024820152600080516020615f79833981519152604482015290519081900360640190fd5b600854151561317257600080fd5b60a06040519081016040528060008152602001600081526020016000815260200160008152602001600060018111156131a757fe5b60018111156131b257fe5b90528051600590815560208201516006556040820151600755606082015160085560808201516009805460ff1916600183818111156131ed57fe5b0217905550506040517f7e3ebc021a9ba6d7d37d6e0a419a38a6751a21f19bb17e35033cdbeee8212b5d9150600090a1505050565b60005460015460025460035460045460ff1685565b600060d960020a6420a226a4a702600080601560009054906101000a9004600160a060020a0316600160a060020a0316638da5cb5b6040518163ffffffff1660e060020a028152600401602060405180830381600087803b15801561329b57600080fd5b505af11580156132af573d6000803e3d6000fd5b505050506040513d60208110156132c557600080fd5b505160145433600160a060020a0392831681149450911614905081806132e85750805b8061337857506015546040805160e060020a638658b8b9028152336004820152306024820152604481018690529051600160a060020a0390921691638658b8b9916064808201926020929091908290030181600087803b15801561334b57600080fd5b505af115801561335f573d6000803e3d6000fd5b505050506040513d602081101561337557600080fd5b50515b15156133bc576040805160e560020a62461bcd0281526020600482015260176024820152600080516020615f79833981519152604482015290519081900360640190fd5b6133c587614582565b93506133ee8885600189894260056001015411156133e357426133e7565b6006545b6001614596565b60a0604051908101604052808981526020018581526020016001815260200187815260200186600181111561341f57fe5b90528051600590815560208201516006556040820151600755606082015160085560808201516009805460ff19166001838181111561345a57fe5b02179055509050507fa1d34e3a865cf0ff72c0694ea6c889d82b5cca0944956c48a999f047289aa7bd88856001898960405180868152602001858152602001848152602001838152602001826001811115611b7157fe5b60d960020a6420a226a4a702600080601560009054906101000a9004600160a060020a0316600160a060020a0316638da5cb5b6040518163ffffffff1660e060020a028152600401602060405180830381600087803b15801561351357600080fd5b505af1158015613527573d6000803e3d6000fd5b505050506040513d602081101561353d57600080fd5b505160145433600160a060020a0392831681149450911614905081806135605750805b806135f057506015546040805160e060020a638658b8b9028152336004820152306024820152604481018690529051600160a060020a0390921691638658b8b9916064808201926020929091908290030181600087803b1580156135c357600080fd5b505af11580156135d7573d6000803e3d6000fd5b505050506040513d60208110156135ed57600080fd5b50515b1515613634576040805160e560020a62461bcd0281526020600482015260176024820152600080516020615f79833981519152604482015290519081900360640190fd5b6136418888888888615443565b5050505050505050565b600160a060020a0382166000818152600d60209081526040808320858452825280832054938352600c82528083208584529091528120549091613694919063ffffffff6155b816565b90505b92915050565b60d960020a6420a226a4a702600080601560009054906101000a9004600160a060020a0316600160a060020a0316638da5cb5b6040518163ffffffff1660e060020a028152600401602060405180830381600087803b1580156136ff57600080fd5b505af1158015613713573d6000803e3d6000fd5b505050506040513d602081101561372957600080fd5b505160145433600160a060020a03928316811494509116149050818061374c5750805b806137dc57506015546040805160e060020a638658b8b9028152336004820152306024820152604481018690529051600160a060020a0390921691638658b8b9916064808201926020929091908290030181600087803b1580156137af57600080fd5b505af11580156137c3573d6000803e3d6000fd5b505050506040513d60208110156137d957600080fd5b50515b1515613820576040805160e560020a62461bcd0281526020600482015260176024820152600080516020615f79833981519152604482015290519081900360640190fd5b61364188888888886149ae565b60d960020a6420a226a4a702600080601560009054906101000a9004600160a060020a0316600160a060020a0316638da5cb5b6040518163ffffffff1660e060020a028152600401602060405180830381600087803b15801561388f57600080fd5b505af11580156138a3573d6000803e3d6000fd5b505050506040513d60208110156138b957600080fd5b505160145433600160a060020a0392831681149450911614905081806138dc5750805b8061396c57506015546040805160e060020a638658b8b9028152336004820152306024820152604481018690529051600160a060020a0390921691638658b8b9916064808201926020929091908290030181600087803b15801561393f57600080fd5b505af1158015613953573d6000803e3d6000fd5b505050506040513d602081101561396957600080fd5b50515b15156139b0576040805160e560020a62461bcd0281526020600482015260176024820152600080516020615f79833981519152604482015290519081900360640190fd5b61181a898989898989615037565b600060d960020a6420a226a4a702600080601560009054906101000a9004600160a060020a0316600160a060020a0316638da5cb5b6040518163ffffffff1660e060020a028152600401602060405180830381600087803b158015613a2257600080fd5b505af1158015613a36573d6000803e3d6000fd5b505050506040513d6020811015613a4c57600080fd5b505160145433600160a060020a039283168114945091161490508180613a6f5750805b80613aff57506015546040805160e060020a638658b8b9028152336004820152306024820152604481018690529051600160a060020a0390921691638658b8b9916064808201926020929091908290030181600087803b158015613ad257600080fd5b505af1158015613ae6573d6000803e3d6000fd5b505050506040513d6020811015613afc57600080fd5b50515b1515613b43576040805160e560020a62461bcd0281526020600482015260176024820152600080516020615f79833981519152604482015290519081900360640190fd5b613b518989898a8a8a6147bb565b600093505b885184101561181a57613bdf8985815181101515613b7057fe5b906020019060200201518986815181101515613b8857fe5b906020019060200201518987815181101515613ba057fe5b906020019060200201518988815181101515613bb857fe5b906020019060200201518989815181101515613bd057fe5b90602001906020020151615443565b600190930192613b56565b601554600160a060020a031681565b600160a060020a0381166000908152600f602052604081208190819081908190612fcf90615424565b6040805160018082528183019092526060916020808301908038833901905050905060d960020a6420a226a4a702816000815181101515613c5f57fe5b6020908102909101015290565b601454600160a060020a031681565b7f4645455f41444d494e000000000000000000000000000000000000000000000081565b60165460009060a060020a900460ff16158015613cc45750600160a060020a03861615155b8015613ce65750600160a060020a038616600090815260126020526040902054155b15613fb957601554600160a060020a0316331480613d02575081155b1515613d0d57600080fd5b600160a060020a0386166000908152600a60205260409020600301544211801590613d535750600160a060020a0386166000908152600a60205260409020600101544210155b80613d9f5750600160a060020a0386166000908152600b60205260409020600301544211801590613d9f5750600160a060020a0386166000908152600b60205260409020600101544210155b15613eaa57613ea3828786600e60008b600160a060020a0316600160a060020a0316815260200190815260200160002060c060405190810160405290816000820154815260200160018201548152602001600282015481526020016003820154815260200160048201548152602001600582015481525050600a60008c600160a060020a0316600160a060020a0316815260200190815260200160002060a06040519081016040529081600082015481526020016001820154815260200160028201548152602001600382015481526020016004820160009054906101000a900460ff166001811115613e8e57fe5b6001811115613e9957fe5b90525060006155c5565b9050613fbd565b6003544211801590613ebe57506001544210155b80613ed857506008544211801590613ed857506006544210155b15613fb957613ea3828786600f60008b600160a060020a0316600160a060020a0316815260200190815260200160002060c060405190810160405290816000820154815260200160018201548152602001600282015481526020016003820154815260200160048201548152602001600582015481525050600060a06040519081016040529081600082015481526020016001820154815260200160028201548152602001600382015481526020016004820160009054906101000a900460ff166001811115613fa457fe5b6001811115613faf57fe5b90525060016155c5565b5060015b95945050505050565b60d960020a6420a226a4a702600080601560009054906101000a9004600160a060020a0316600160a060020a0316638da5cb5b6040518163ffffffff1660e060020a028152600401602060405180830381600087803b15801561402857600080fd5b505af115801561403c573d6000803e3d6000fd5b505050506040513d602081101561405257600080fd5b505160145433600160a060020a0392831681149450911614905081806140755750805b8061410557506015546040805160e060020a638658b8b9028152336004820152306024820152604481018690529051600160a060020a0390921691638658b8b9916064808201926020929091908290030181600087803b1580156140d857600080fd5b505af11580156140ec573d6000803e3d6000fd5b505050506040513d602081101561410257600080fd5b50515b1515614149576040805160e560020a62461bcd0281526020600482015260176024820152600080516020615f79833981519152604482015290519081900360640190fd5b612a4c84614e60565b60055460065460075460085460095460ff1685565b601380548290811061417557fe5b600091825260209091200154600160a060020a0316905081565b600b60205260009081526040902080546001820154600283015460038401546004909401549293919290919060ff1685565b600060d960020a6420a226a4a702600080601560009054906101000a9004600160a060020a0316600160a060020a0316638da5cb5b6040518163ffffffff1660e060020a028152600401602060405180830381600087803b15801561422557600080fd5b505af1158015614239573d6000803e3d6000fd5b505050506040513d602081101561424f57600080fd5b505160145433600160a060020a0392831681149450911614905081806142725750805b8061430257506015546040805160e060020a638658b8b9028152336004820152306024820152604481018690529051600160a060020a0390921691638658b8b9916064808201926020929091908290030181600087803b1580156142d557600080fd5b505af11580156142e9573d6000803e3d6000fd5b505050506040513d60208110156142ff57600080fd5b50515b1515614346576040805160e560020a62461bcd0281526020600482015260176024820152600080516020615f79833981519152604482015290519081900360640190fd5b600160a060020a038616151561435b57600080fd5b600160a060020a038616600090815260126020526040902054935083158515151461438557600080fd5b84156143f757601380546001810182557f66de8ffda797e3de9c05e8fc57b3bf0ec28a930d40b0d285d93c06501cf6a09001805473ffffffffffffffffffffffffffffffffffffffff1916600160a060020a0389169081179091559054600091825260126020526040909120556144c8565b60138054600019810190811061440957fe5b60009182526020909120015460138054600160a060020a0390921691600019870190811061443357fe5b9060005260206000200160006101000a815481600160a060020a030219169083600160a060020a03160217905550836012600060136001880381548110151561447857fe5b6000918252602080832090910154600160a060020a039081168452838201949094526040928301822094909455918916825260129092529081205560138054906144c6906000198301615efb565b505b6040805186151581529051600160a060020a038816917f3878c77907250eb8a2d1013139975b1215ae66528e7d7469066f6edf0902a861919081900360200190a2505050505050565b6060601380548060200260200160405190810160405280929190818152602001828054801561456957602002820191906000526020600020905b8154600160a060020a0316815260019091019060200180831161454b575b5050505050905090565b42811161457f57600080fd5b50565b6000811515614592574260010191505b5090565b60028360018111156145a457fe5b106145ae57600080fd5b8015614611578186101561460c576040805160e560020a62461bcd02815260206004820152601160248201527f496e76616c696420737461727454696d65000000000000000000000000000000604482015290519081900360640190fd5b614668565b818611614668576040805160e560020a62461bcd02815260206004820152601160248201527f496e76616c696420737461727454696d65000000000000000000000000000000604482015290519081900360640190fd5b6000871161467557600080fd5b600083600181111561468357fe5b146146e857670de0b6b3a76400008711156146e8576040805160e560020a62461bcd02815260206004820152600d60248201527f496e76616c69642076616c756500000000000000000000000000000000000000604482015290519081900360640190fd5b600185101580156146fb575061016d8511155b1515614751576040805160e560020a62461bcd02815260206004820152601560248201527f496e76616c696420726f6c6c696e67706572696f640000000000000000000000604482015290519081900360640190fd5b8461475c8786615746565b10156147b2576040805160e560020a62461bcd02815260206004820152600d60248201527f496e76616c69642074696d657300000000000000000000000000000000000000604482015290519081900360640190fd5b50505050505050565b845186511480156147cd575083518551145b80156147da575082518451145b80156147e7575081518351145b80156147f4575080518251145b1515611f16576040805160e560020a62461bcd02815260206004820152600f60248201527f4c656e677468206d69736d617463680000000000000000000000000000000000604482015290519081900360640190fd5b600160a060020a0386166000908152600a602052604081206001015461486f90614573565b61487885614582565b905061488a8682868686426000614596565b60a0604051908101604052808781526020018281526020018581526020018481526020018360018111156148ba57fe5b815250600a600089600160a060020a0316600160a060020a031681526020019081526020016000206000820151816000015560208201518160010155604082015181600201556060820151816003015560808201518160040160006101000a81548160ff0219169083600181111561492e57fe5b021790555090505086600160a060020a03167f115af9f6b9ee2cde92eafcfa37fb2b0f499522e495ec84a3728285c1cfe5353587838787876040518086815260200185815260200184815260200183815260200182600181111561498e57fe5b60ff1681526020019550505050505060405180910390a250505050505050565b60006149b984614582565b90506149cc858260018686426000614596565b600160a060020a0386166000908152600b6020526040902060030154156149f6576149f686614e60565b60a06040519081016040528086815260200182815260200160018152602001848152602001836001811115614a2757fe5b815250600b600088600160a060020a0316600160a060020a031681526020019081526020016000206000820151816000015560208201518160010155604082015181600201556060820151816003015560808201518160040160006101000a81548160ff02191690836001811115614a9b57fe5b02179055505050600160a060020a0386166000818152600a60205260408082206003015481517f4957bc6b0000000000000000000000000000000000000000000000000000000081526010600482015260248101949094526001604485015260648401525173__VolumeRestrictionLib__________________92634957bc6b926084808301939192829003018186803b158015614b3857600080fd5b505af4158015614b4c573d6000803e3d6000fd5b5050505085600160a060020a03167fbd60235d4f1681d666cd8ef38ca7525f8ca710530add32c83cba14d3aa17099986836001878760405180868152602001858152602001848152602001838152602001826001811115614ba957fe5b60ff1681526020019550505050505060405180910390a2505050505050565b60165460a060020a900460ff161515614c2b576040805160e560020a62461bcd02815260206004820152601660248201527f436f6e7472616374206973206e6f742070617573656400000000000000000000604482015290519081900360640190fd5b6016805474ff0000000000000000000000000000000000000000191690556040805142815290517faaa520fdd7d2c83061d632fa017b0432407e798818af63ea908589fceda39ab79181900360200190a1565b600160a060020a0381161515614c9357600080fd5b600160a060020a0381166000908152600a60205260409020600301541515614cba57600080fd5b60a0604051908101604052806000815260200160008152602001600081526020016000815260200160006001811115614cef57fe5b6001811115614cfa57fe5b815250600a600083600160a060020a0316600160a060020a031681526020019081526020016000206000820151816000015560208201518160010155604082015181600201556060820151816003015560808201518160040160006101000a81548160ff02191690836001811115614d6e57fe5b021790555050604080517f5ea6ee7100000000000000000000000000000000000000000000000000000000815260106004820152600160a060020a038416602482015260016044820152905173__VolumeRestrictionLib__________________9250635ea6ee7191606480820192600092909190829003018186803b158015614df757600080fd5b505af4158015614e0b573d6000803e3d6000fd5b50505050600160a060020a0381166000818152600e602052604080822082815560018101839055600201829055517ff3ebad03e2153aee439adbb3b3a7d51671d10b0818280f33f4dc1081f87bc0169190a250565b600160a060020a0381161515614e7557600080fd5b600160a060020a0381166000908152600b60205260409020600301541515614e9c57600080fd5b60a0604051908101604052806000815260200160008152602001600081526020016000815260200160006001811115614ed157fe5b6001811115614edc57fe5b815250600b600083600160a060020a0316600160a060020a031681526020019081526020016000206000820151816000015560208201518160010155604082015181600201556060820151816003015560808201518160040160006101000a81548160ff02191690836001811115614f5057fe5b021790555050604080517f5ea6ee7100000000000000000000000000000000000000000000000000000000815260106004820152600160a060020a0384166024820152600060448201819052915173__VolumeRestrictionLib__________________9350635ea6ee7192606480840193919291829003018186803b158015614fd857600080fd5b505af4158015614fec573d6000803e3d6000fd5b50505050600160a060020a0381166000818152600e6020526040808220600301829055517ff50ca388c3f256ffc185ee828de54a7a06ba31013225af07e2a7a162e5c046da9190a250565b600061504285614582565b9050600160a060020a038716158015906150725750600160a060020a038716600090815260126020526040902054155b15156150c8576040805160e560020a62461bcd02815260206004820152600f60248201527f496e76616c696420616464726573730000000000000000000000000000000000604482015290519081900360640190fd5b6150d88682868686426000614596565b600160a060020a0387166000908152600a6020526040902060030154156151025761510287614c7e565b60a06040519081016040528087815260200182815260200185815260200184815260200183600181111561513257fe5b815250600a600089600160a060020a0316600160a060020a031681526020019081526020016000206000820151816000015560208201518160010155604082015181600201556060820151816003015560808201518160040160006101000a81548160ff021916908360018111156151a657fe5b02179055505050600160a060020a0387166000818152600a60205260408082206003015481517f4957bc6b0000000000000000000000000000000000000000000000000000000081526010600482015260248101949094526044840183905260648401525173__VolumeRestrictionLib__________________92634957bc6b926084808301939192829003018186803b15801561524357600080fd5b505af4158015615257573d6000803e3d6000fd5b5050505086600160a060020a03167fcf58c8d9e6261e7129143397dea4a0cc65c416a6d18a489ab0935f22d2bde50a87838787876040518086815260200185815260200184815260200183815260200182600181111561498e57fe5b865186518790839081106152c357fe5b9060200190602002018181525050866020015185828151811015156152e457fe5b602090810290910101526040870151845185908390811061530157fe5b602090810290910101526060870151835184908390811061531e57fe5b602090810290910101526080870151825183908390811061533b57fe5b90602001906020020190600181111561535057fe5b9081600181111561535d57fe5b90525050505050505050565b60165460a060020a900460ff16156153cb576040805160e560020a62461bcd02815260206004820152601260248201527f436f6e7472616374206973207061757365640000000000000000000000000000604482015290519081900360640190fd5b6016805474ff0000000000000000000000000000000000000000191660a060020a1790556040805142815290517f68b095021b1f40fe513109f513c66692f0b3219aee674a69f4efc57badb8201d9181900360200190a1565b8054600182015460028301546003840154600485015491939590929450565b600061544e84614582565b90506154b285826001868642600b60008e600160a060020a0316600160a060020a0316815260200190815260200160002060010154111561548f57426133e7565b600160a060020a038c166000908152600b60205260409020600101546001614596565b60a060405190810160405280868152602001828152602001600181526020018481526020018360018111156154e357fe5b815250600b600088600160a060020a0316600160a060020a031681526020019081526020016000206000820151816000015560208201518160010155604082015181600201556060820151816003015560808201518160040160006101000a81548160ff0219169083600181111561555757fe5b021790555090505085600160a060020a03167fbee6643567005ce930b555dba91d4a5125f4127ab98b2da38ae1919016c1340186836001878760405180868152602001858152602001848152602001838152602001826001811115614ba957fe5b8181018281101561369757fe5b60006155cf615f24565b600080600080600080886155fa57600160a060020a038d166000908152600b602052604090206155fd565b60055b6040805160a081018252825481526001808401546020830152600284015492820192909252600383015460608201526004830154909291608084019160ff169081111561564657fe5b600181111561565157fe5b8152505096508960400151955060009450600093506000925060019150428a60600151101580156156865750428a6020015111155b156156ed5760208a01518b5110156156a457896020015194506156a9565b8a5194505b6156c0856156b78742615746565b8f898f8e615761565b8098508197508296505050506156e2898e868f8e608001518f600001516158ba565b15156156ed57600091505b6156fe8d8d8d606001518a8d6159b2565b935090508d15615717576157178d8d87878a888f615aee565b8080156157215750815b1515600114615731576000615734565b60015b9e9d5050505050505050505050505050565b60008183111561575557600080fd5b50620151809190030490565b6040820151602083015160009182918291908280898c106157975760009250615790848d63ffffffff6155b816565b9350615882565b600091505b8b82101561588257600190930192898410615877576157d56157c4858c63ffffffff615b7e16565b60408b01519063ffffffff615b7e16565b90506157fb6157ed826201518063ffffffff615b9016565b8a519063ffffffff615b7e16565b9050871561583f57600160a060020a038b166000908152600d6020908152604080832084845290915290205461583890849063ffffffff615b7e16565b9250615877565b600160a060020a038b166000908152600c6020908152604080832084845290915290205461587490849063ffffffff615b7e16565b92505b60019091019061579c565b6158a56158988d6201518063ffffffff615b9016565b8e9063ffffffff6155b816565b929d929c50929a509098505050505050505050565b6000808060018560018111156158cc57fe5b1415615977576012600a0a615966601560009054906101000a9004600160a060020a0316600160a060020a03166318160ddd6040518163ffffffff1660e060020a028152600401602060405180830381600087803b15801561592d57600080fd5b505af1158015615941573d6000803e3d6000fd5b505050506040513d602081101561595757600080fd5b5051869063ffffffff615b9016565b81151561596f57fe5b04915061597b565b8391505b61598b878763ffffffff6155b816565b82101590508080156159a557506159a58989888a86615bb9565b9998505050505050505050565b6000806000846060015142111580156159cf575084602001514210155b15615adb575060008515806159e75750846020015186105b15615a2857615a21615a1062015180615a04886020015142615746565b9063ffffffff615b9016565b60208701519063ffffffff6155b816565b9550615a65565b62015180615a3c428863ffffffff615b7e16565b10615a6557615a62615a5562015180615a048942615746565b879063ffffffff6155b816565b95505b8315615a955750600160a060020a0387166000908152600d60209081526040808320888452909152902054615abb565b50600160a060020a0387166000908152600c602090815260408083208884529091529020545b615ad18489838a89608001518a600001516158ba565b8692509250615ae3565b600186925092505b509550959350505050565b60008060008315615b3c57600f60008b600160a060020a0316600160a060020a031681526020019081526020016000209250615b378a8a8a8a8a8a60056003015460018b615d00565b6115e2565b5050600160a060020a0388166000908152600e60209081526040808320600b90925282206003015490916115e2908b908b908b908b908b908b9088908a615d00565b600082821115615b8a57fe5b50900390565b6000821515615ba157506000613697565b50818102818382811515615bb157fe5b041461369757fe5b600080600087615be057600160a060020a0387166000908152600f60205260409020615bf9565b600160a060020a0387166000908152600e602052604090205b915087615c2a57600160a060020a0387166000908152600d6020908152604080832085548452909152902054615c50565b600160a060020a0387166000908152600c60209081526040808320855484529091529020545b905073__VolumeRestrictionLib__________________630fb19c528288888887600401546040518663ffffffff1660e060020a028152600401808681526020018581526020018481526020018381526020018281526020019550505050505060206040518083038186803b158015615cc857600080fd5b505af4158015615cdc573d6000803e3d6000fd5b505050506040513d6020811015615cf257600080fd5b505198975050505050505050565b80548714615d0c578681555b60038101548414615d1f57600381018490555b60028101548514615d3257600281018590555b426004820155871561181a578615615e1557615d54868963ffffffff6155b816565b60018201558115615dbc57600160a060020a0389166000908152600d602090815260408083208a8452909152902054615d93908963ffffffff6155b816565b600160a060020a038a166000908152600d602090815260408083208b8452909152902055615e15565b600160a060020a0389166000908152600c602090815260408083208a8452909152902054615df0908963ffffffff6155b816565b600160a060020a038a166000908152600c602090815260408083208b84529091529020555b868414158015615e2457508315155b8015615e305750824211155b1561181a578115615e9857600160a060020a0389166000908152600d60209081526040808320878452909152902054615e6f908963ffffffff6155b816565b600160a060020a038a166000908152600d6020908152604080832088845290915290205561181a565b600160a060020a0389166000908152600c60209081526040808320878452909152902054615ecc908963ffffffff6155b816565b600160a060020a038a166000908152600c60209081526040808320888452909152902055505050505050505050565b815481835581811115615f1f57600083815260209020615f1f918101908301615f5e565b505050565b60a0604051908101604052806000815260200160008152602001600081526020016000815260200160006001811115615f5957fe5b905290565b61110791905b808211156145925760008155600101615f6456005065726d697373696f6e20636865636b206661696c6564000000000000000000a165627a7a7230582012507bfb952d61ac78f592cd1a215fce104db2e8762e3e83c583b0942c5a3c3b0029",
  "source": "pragma solidity ^0.4.24;\n\nimport \"./ITransferManager.sol\";\nimport \"openzeppelin-solidity/contracts/math/SafeMath.sol\";\nimport \"../../libraries/BokkyPooBahsDateTimeLibrary.sol\";\nimport \"../../libraries/VolumeRestrictionLib.sol\";\n\ncontract VolumeRestrictionTM is VolumeRestrictionTMStorage, ITransferManager {\n\n    using SafeMath for uint256;\n\n    // permission definition\n    bytes32 internal constant ADMIN = \"ADMIN\";\n\n    // Emit when the token holder is added/removed from the exemption list\n    event ChangedExemptWalletList(address indexed _wallet, bool _change);\n    // Emit when the new individual restriction is added corresponds to new token holders\n    event AddIndividualRestriction(\n        address indexed _holder,\n        uint256 _allowedTokens,\n        uint256 _startTime,\n        uint256 _rollingPeriodInDays,\n        uint256 _endTime,\n        RestrictionType _typeOfRestriction\n    );\n    // Emit when the new daily (Individual) restriction is added\n    event AddIndividualDailyRestriction(\n        address indexed _holder,\n        uint256 _allowedTokens,\n        uint256 _startTime,\n        uint256 _rollingPeriodInDays,\n        uint256 _endTime,\n        RestrictionType _typeOfRestriction\n    );\n    // Emit when the individual restriction is modified for a given address\n    event ModifyIndividualRestriction(\n        address indexed _holder,\n        uint256 _allowedTokens,\n        uint256 _startTime,\n        uint256 _rollingPeriodInDays,\n        uint256 _endTime,\n        RestrictionType _typeOfRestriction\n    );\n    // Emit when individual daily restriction get modified\n    event ModifyIndividualDailyRestriction(\n        address indexed _holder,\n        uint256 _allowedTokens,\n        uint256 _startTime,\n        uint256 _rollingPeriodInDays,\n        uint256 _endTime,\n        RestrictionType _typeOfRestriction\n    );\n    // Emit when the new global restriction is added\n    event AddDefaultRestriction(\n        uint256 _allowedTokens,\n        uint256 _startTime,\n        uint256 _rollingPeriodInDays,\n        uint256 _endTime,\n        RestrictionType _typeOfRestriction\n    );\n    // Emit when the new daily (Default) restriction is added\n    event AddDefaultDailyRestriction(\n        uint256 _allowedTokens,\n        uint256 _startTime,\n        uint256 _rollingPeriodInDays,\n        uint256 _endTime,\n        RestrictionType _typeOfRestriction\n    );\n    // Emit when default restriction get modified\n    event ModifyDefaultRestriction(\n        uint256 _allowedTokens,\n        uint256 _startTime,\n        uint256 _rollingPeriodInDays,\n        uint256 _endTime,\n        RestrictionType _typeOfRestriction\n    );\n    // Emit when daily default restriction get modified\n    event ModifyDefaultDailyRestriction(\n        uint256 _allowedTokens,\n        uint256 _startTime,\n        uint256 _rollingPeriodInDays,\n        uint256 _endTime,\n        RestrictionType _typeOfRestriction\n    );\n    // Emit when the individual restriction gets removed\n    event IndividualRestrictionRemoved(address indexed _holder);\n    // Emit when individual daily restriction removed\n    event IndividualDailyRestrictionRemoved(address indexed _holder);\n    // Emit when the default restriction gets removed\n    event DefaultRestrictionRemoved();\n    // Emit when the daily default restriction gets removed\n    event DefaultDailyRestrictionRemoved();\n\n    /**\n     * @notice Constructor\n     * @param _securityToken Address of the security token\n     * @param _polyAddress Address of the polytoken\n     */\n    constructor (address _securityToken, address _polyAddress)\n    public\n    Module(_securityToken, _polyAddress)\n    {\n\n    }\n\n    /**\n     * @notice Used to verify the transfer/transferFrom transaction and prevent tranaction\n     * whose volume of tokens will voilate the maximum volume transfer restriction\n     * @param _from Address of the sender\n     * @param _amount The amount of tokens to transfer\n     * @param _isTransfer Whether or not this is an actual transfer or just a test to see if the tokens would be transferrable\n     */\n    function verifyTransfer(address _from, address /*_to */, uint256 _amount, bytes /*_data*/, bool _isTransfer) public returns (Result) {\n        // If `_from` is present in the exemptionList or it is `0x0` address then it will not follow the vol restriction\n        if (!paused && _from != address(0) && exemptIndex[_from] == 0) {\n            // Function must only be called by the associated security token if _isTransfer == true\n            require(msg.sender == securityToken || !_isTransfer);\n            // Checking the individual restriction if the `_from` comes in the individual category\n            if ((individualRestriction[_from].endTime >= now && individualRestriction[_from].startTime <= now)\n                || (individualDailyRestriction[_from].endTime >= now && individualDailyRestriction[_from].startTime <= now)) {\n\n                return _restrictionCheck(_isTransfer, _from, _amount, userToBucket[_from], individualRestriction[_from], false);\n\n                // If the `_from` doesn't fall under the individual category. It will processed with in the global category automatically\n            } else if ((defaultRestriction.endTime >= now && defaultRestriction.startTime <= now)\n                || (defaultDailyRestriction.endTime >= now && defaultDailyRestriction.startTime <= now)) {\n\n                return _restrictionCheck(_isTransfer, _from, _amount, defaultUserToBucket[_from], defaultRestriction, true);\n            }\n        }\n        return Result.NA;\n    }\n\n    /**\n     * @notice Add/Remove wallet address from the exempt list\n     * @param _wallet Ethereum wallet/contract address that need to be exempted\n     * @param _change Boolean value used to add (i.e true) or remove (i.e false) from the list\n     */\n    function changeExemptWalletList(address _wallet, bool _change) external withPerm(ADMIN) {\n        require(_wallet != address(0));\n        uint256 exemptIndexWallet = exemptIndex[_wallet];\n        require((exemptIndexWallet == 0) == _change);\n        if (_change) {\n            exemptAddresses.push(_wallet);\n            exemptIndex[_wallet] = exemptAddresses.length;\n        } else {\n            exemptAddresses[exemptIndexWallet - 1] = exemptAddresses[exemptAddresses.length - 1];\n            exemptIndex[exemptAddresses[exemptIndexWallet - 1]] = exemptIndexWallet;\n            delete exemptIndex[_wallet];\n            exemptAddresses.length --;\n        }\n        emit ChangedExemptWalletList(_wallet, _change);\n    }\n\n    /**\n     * @notice Use to add the new individual restriction for a given token holder\n     * @param _holder Address of the token holder, whom restriction will be implied\n     * @param _allowedTokens Amount of tokens allowed to be trade for a given address.\n     * @param _startTime Unix timestamp at which restriction get into effect\n     * @param _rollingPeriodInDays Rolling period in days (Minimum value should be 1 day)\n     * @param _endTime Unix timestamp at which restriction effects will gets end.\n     * @param _restrictionType It will be 0 or 1 (i.e 0 for fixed while 1 for Percentage)\n     */\n    function addIndividualRestriction(\n        address _holder,\n        uint256 _allowedTokens,\n        uint256 _startTime,\n        uint256 _rollingPeriodInDays,\n        uint256 _endTime,\n        RestrictionType _restrictionType\n    )\n        external\n        withPerm(ADMIN)\n    {\n        _addIndividualRestriction(\n            _holder,\n            _allowedTokens,\n            _startTime,\n            _rollingPeriodInDays,\n            _endTime,\n            _restrictionType\n        );\n    }\n\n    /// @notice Internal function to facilitate the addition of individual restriction\n    function _addIndividualRestriction(\n        address _holder,\n        uint256 _allowedTokens,\n        uint256 _startTime,\n        uint256 _rollingPeriodInDays,\n        uint256 _endTime,\n        RestrictionType _restrictionType\n    )\n        internal\n    {\n        // It will help to reduce the chances of transaction failure (Specially when the issuer\n        // wants to set the startTime near to the current block.timestamp) and minting delayed because\n        // of the gas fee or network congestion that lead to the process block timestamp may grater\n        // than the given startTime.\n        uint256 startTime = _getValidStartTime(_startTime);\n        require(_holder != address(0) && exemptIndex[_holder] == 0, \"Invalid address\");\n        _checkInputParams(_allowedTokens, startTime, _rollingPeriodInDays, _endTime, _restrictionType, now, false);\n\n        if (individualRestriction[_holder].endTime != 0) {\n            _removeIndividualRestriction(_holder);\n        }\n        individualRestriction[_holder] = VolumeRestriction(\n            _allowedTokens,\n            startTime,\n            _rollingPeriodInDays,\n            _endTime,\n            _restrictionType\n        );\n        VolumeRestrictionLib.addRestrictionData(holderData, _holder, TypeOfPeriod.MultipleDays, individualRestriction[_holder].endTime);\n        emit AddIndividualRestriction(\n            _holder,\n            _allowedTokens,\n            startTime,\n            _rollingPeriodInDays,\n            _endTime,\n            _restrictionType\n        );\n    }\n\n    /**\n     * @notice Use to add the new individual daily restriction for a given token holder\n     * @param _holder Address of the token holder, whom restriction will be implied\n     * @param _allowedTokens Amount of tokens allowed to be traded for all token holder.\n     * @param _startTime Unix timestamp at which restriction get into effect\n     * @param _endTime Unix timestamp at which restriction effects will gets end.\n     * @param _restrictionType It will be 0 or 1 (i.e 0 for fixed while 1 for Percentage)\n     */\n    function addIndividualDailyRestriction(\n        address _holder,\n        uint256 _allowedTokens,\n        uint256 _startTime,\n        uint256 _endTime,\n        RestrictionType _restrictionType\n    )\n        external\n        withPerm(ADMIN)\n    {\n        _addIndividualDailyRestriction(\n            _holder,\n            _allowedTokens,\n            _startTime,\n            _endTime,\n            _restrictionType\n        );\n    }\n\n    /// @notice Internal function to facilitate the addition of individual daily restriction\n    function _addIndividualDailyRestriction(\n        address _holder,\n        uint256 _allowedTokens,\n        uint256 _startTime,\n        uint256 _endTime,\n        RestrictionType _restrictionType\n    )\n        internal\n    {\n        uint256 startTime = _getValidStartTime(_startTime);\n        _checkInputParams(_allowedTokens, startTime, 1, _endTime, _restrictionType, now, false);\n        if (individualDailyRestriction[_holder].endTime != 0) {\n            _removeIndividualDailyRestriction(_holder);\n        }\n        individualDailyRestriction[_holder] = VolumeRestriction(\n            _allowedTokens,\n            startTime,\n            1,\n            _endTime,\n            _restrictionType\n        );\n        VolumeRestrictionLib.addRestrictionData(holderData, _holder, TypeOfPeriod.OneDay, individualRestriction[_holder].endTime);\n        emit AddIndividualDailyRestriction(\n            _holder,\n            _allowedTokens,\n            startTime,\n            1,\n            _endTime,\n            _restrictionType\n        );\n    }\n\n    /**\n     * @notice Use to add the new individual daily restriction for multiple token holders\n     * @param _holders Array of address of the token holders, whom restriction will be implied\n     * @param _allowedTokens Array of amount of tokens allowed to be trade for a given address.\n     * @param _startTimes Array of unix timestamps at which restrictions get into effect\n     * @param _endTimes Array of unix timestamps at which restriction effects will gets end.\n     * @param _restrictionTypes Array of restriction types value will be 0 or 1 (i.e 0 for fixed while 1 for Percentage)\n     */\n    function addIndividualDailyRestrictionMulti(\n        address[] _holders,\n        uint256[] _allowedTokens,\n        uint256[] _startTimes,\n        uint256[] _endTimes,\n        RestrictionType[] _restrictionTypes\n    )\n        public //Marked public to save code size\n        withPerm(ADMIN)\n    {\n        //NB - we duplicate _startTimes below to allow function reuse\n        _checkLengthOfArray(_holders, _allowedTokens, _startTimes, _startTimes, _endTimes, _restrictionTypes);\n        for (uint256 i = 0; i < _holders.length; i++) {\n            _addIndividualDailyRestriction(\n                _holders[i],\n                _allowedTokens[i],\n                _startTimes[i],\n                _endTimes[i],\n                _restrictionTypes[i]\n            );\n        }\n    }\n\n    /**\n     * @notice Use to add the new individual restriction for multiple token holders\n     * @param _holders Array of address of the token holders, whom restriction will be implied\n     * @param _allowedTokens Array of amount of tokens allowed to be trade for a given address.\n     * @param _startTimes Array of unix timestamps at which restrictions get into effect\n     * @param _rollingPeriodInDays Array of rolling period in days (Minimum value should be 1 day)\n     * @param _endTimes Array of unix timestamps at which restriction effects will gets end.\n     * @param _restrictionTypes Array of restriction types value will be 0 or 1 (i.e 0 for fixed while 1 for Percentage)\n     */\n    function addIndividualRestrictionMulti(\n        address[] _holders,\n        uint256[] _allowedTokens,\n        uint256[] _startTimes,\n        uint256[] _rollingPeriodInDays,\n        uint256[] _endTimes,\n        RestrictionType[] _restrictionTypes\n    )\n        public //Marked public to save code size\n        withPerm(ADMIN)\n    {\n        _checkLengthOfArray(_holders, _allowedTokens, _startTimes, _rollingPeriodInDays, _endTimes, _restrictionTypes);\n        for (uint256 i = 0; i < _holders.length; i++) {\n            _addIndividualRestriction(\n                _holders[i],\n                _allowedTokens[i],\n                _startTimes[i],\n                _rollingPeriodInDays[i],\n                _endTimes[i],\n                _restrictionTypes[i]\n            );\n        }\n    }\n\n    /**\n     * @notice Use to add the new default restriction for all token holder\n     * @param _allowedTokens Amount of tokens allowed to be traded for all token holder.\n     * @param _startTime Unix timestamp at which restriction get into effect\n     * @param _rollingPeriodInDays Rolling period in days (Minimum value should be 1 day)\n     * @param _endTime Unix timestamp at which restriction effects will gets end.\n     * @param _restrictionType It will be 0 or 1 (i.e 0 for fixed while 1 for Percentage)\n     */\n    function addDefaultRestriction(\n        uint256 _allowedTokens,\n        uint256 _startTime,\n        uint256 _rollingPeriodInDays,\n        uint256 _endTime,\n        RestrictionType _restrictionType\n    )\n        public //Marked public to save code size\n        withPerm(ADMIN)\n    {\n        uint256 startTime = _getValidStartTime(_startTime);\n        _checkInputParams(_allowedTokens, startTime, _rollingPeriodInDays, _endTime, _restrictionType, now, false);\n        defaultRestriction = VolumeRestriction(\n            _allowedTokens,\n            startTime,\n            _rollingPeriodInDays,\n            _endTime,\n            _restrictionType\n        );\n        emit AddDefaultRestriction(\n            _allowedTokens,\n            startTime,\n            _rollingPeriodInDays,\n            _endTime,\n            _restrictionType\n        );\n    }\n\n    /**\n     * @notice Use to add the new default daily restriction for all token holder\n     * @param _allowedTokens Amount of tokens allowed to be traded for all token holder.\n     * @param _startTime Unix timestamp at which restriction get into effect\n     * @param _endTime Unix timestamp at which restriction effects will gets end.\n     * @param _restrictionType It will be 0 or 1 (i.e 0 for fixed while 1 for Percentage)\n     */\n    function addDefaultDailyRestriction(\n        uint256 _allowedTokens,\n        uint256 _startTime,\n        uint256 _endTime,\n        RestrictionType _restrictionType\n    )\n        public //Marked public to save code size\n        withPerm(ADMIN)\n    {\n        uint256 startTime = _getValidStartTime(_startTime);\n        _checkInputParams(_allowedTokens, startTime, 1, _endTime, _restrictionType, now, false);\n        defaultDailyRestriction = VolumeRestriction(\n            _allowedTokens,\n            startTime,\n            1,\n            _endTime,\n            _restrictionType\n        );\n        emit AddDefaultDailyRestriction(\n            _allowedTokens,\n            startTime,\n            1,\n            _endTime,\n            _restrictionType\n        );\n    }\n\n    /**\n     * @notice use to remove the individual restriction for a given address\n     * @param _holder Address of the user\n     */\n    function removeIndividualRestriction(address _holder) external withPerm(ADMIN) {\n        _removeIndividualRestriction(_holder);\n    }\n\n    /// @notice Internal function to facilitate the removal of individual restriction\n    function _removeIndividualRestriction(address _holder) internal {\n        require(_holder != address(0));\n        require(individualRestriction[_holder].endTime != 0);\n        individualRestriction[_holder] = VolumeRestriction(0, 0, 0, 0, RestrictionType(0));\n        VolumeRestrictionLib.deleteHolderFromList(holderData, _holder, TypeOfPeriod.OneDay);\n        userToBucket[_holder].lastTradedDayTime = 0;\n        userToBucket[_holder].sumOfLastPeriod = 0;\n        userToBucket[_holder].daysCovered = 0;\n        emit IndividualRestrictionRemoved(_holder);\n    }\n\n    /**\n     * @notice use to remove the individual restriction for a given address\n     * @param _holders Array of address of the user\n     */\n    function removeIndividualRestrictionMulti(address[] _holders) external withPerm(ADMIN) {\n        for (uint256 i = 0; i < _holders.length; i++) {\n            _removeIndividualRestriction(_holders[i]);\n        }\n    }\n\n    /**\n     * @notice use to remove the individual daily restriction for a given address\n     * @param _holder Address of the user\n     */\n    function removeIndividualDailyRestriction(address _holder) external withPerm(ADMIN) {\n        _removeIndividualDailyRestriction(_holder);\n    }\n\n    /// @notice Internal function to facilitate the removal of individual daily restriction\n    function _removeIndividualDailyRestriction(address _holder) internal {\n        require(_holder != address(0));\n        require(individualDailyRestriction[_holder].endTime != 0);\n        individualDailyRestriction[_holder] = VolumeRestriction(0, 0, 0, 0, RestrictionType(0));\n        VolumeRestrictionLib.deleteHolderFromList(holderData, _holder, TypeOfPeriod.MultipleDays);\n        userToBucket[_holder].dailyLastTradedDayTime = 0;\n        emit IndividualDailyRestrictionRemoved(_holder);\n    }\n\n    /**\n     * @notice use to remove the individual daily restriction for a given address\n     * @param _holders Array of address of the user\n     */\n    function removeIndividualDailyRestrictionMulti(address[] _holders) external withPerm(ADMIN) {\n        for (uint256 i = 0; i < _holders.length; i++) {\n            _removeIndividualDailyRestriction(_holders[i]);\n        }\n    }\n\n    /**\n     * @notice Use to remove the default restriction\n     */\n    function removeDefaultRestriction() external withPerm(ADMIN) {\n        require(defaultRestriction.endTime != 0);\n        defaultRestriction = VolumeRestriction(0, 0, 0, 0, RestrictionType(0));\n        emit DefaultRestrictionRemoved();\n    }\n\n    /**\n     * @notice Use to remove the daily default restriction\n     */\n    function removeDefaultDailyRestriction() external withPerm(ADMIN) {\n        require(defaultDailyRestriction.endTime != 0);\n        defaultDailyRestriction = VolumeRestriction(0, 0, 0, 0, RestrictionType(0));\n        emit DefaultDailyRestrictionRemoved();\n    }\n\n    /**\n     * @notice Use to modify the existing individual restriction for a given token holder\n     * @param _holder Address of the token holder, whom restriction will be implied\n     * @param _allowedTokens Amount of tokens allowed to be trade for a given address.\n     * @param _startTime Unix timestamp at which restriction get into effect\n     * @param _rollingPeriodInDays Rolling period in days (Minimum value should be 1 day)\n     * @param _endTime Unix timestamp at which restriction effects will gets end.\n     * @param _restrictionType It will be 0 or 1 (i.e 0 for fixed while 1 for Percentage)\n     */\n    function modifyIndividualRestriction(\n        address _holder,\n        uint256 _allowedTokens,\n        uint256 _startTime,\n        uint256 _rollingPeriodInDays,\n        uint256 _endTime,\n        RestrictionType _restrictionType\n    )\n        external\n        withPerm(ADMIN)\n    {\n        _modifyIndividualRestriction(\n            _holder,\n            _allowedTokens,\n            _startTime,\n            _rollingPeriodInDays,\n            _endTime,\n            _restrictionType\n        );\n    }\n\n    /// @notice Internal function to facilitate the modification of individual restriction\n    function _modifyIndividualRestriction(\n        address _holder,\n        uint256 _allowedTokens,\n        uint256 _startTime,\n        uint256 _rollingPeriodInDays,\n        uint256 _endTime,\n        RestrictionType _restrictionType\n    )\n        internal\n    {\n        _isAllowedToModify(individualRestriction[_holder].startTime);\n        uint256 startTime = _getValidStartTime(_startTime);\n        _checkInputParams(_allowedTokens, startTime, _rollingPeriodInDays, _endTime, _restrictionType, now, false);\n        individualRestriction[_holder] = VolumeRestriction(\n            _allowedTokens,\n            startTime,\n            _rollingPeriodInDays,\n            _endTime,\n            _restrictionType\n        );\n        emit ModifyIndividualRestriction(\n            _holder,\n            _allowedTokens,\n            startTime,\n            _rollingPeriodInDays,\n            _endTime,\n            _restrictionType\n        );\n    }\n\n    /**\n     * @notice Use to modify the existing individual daily restriction for a given token holder\n     * @dev Changing of startTime will affect the 24 hrs span. i.e if in earlier restriction days start with\n     * morning and end on midnight while after the change day may start with afternoon and end with other day afternoon\n     * @param _holder Address of the token holder, whom restriction will be implied\n     * @param _allowedTokens Amount of tokens allowed to be trade for a given address.\n     * @param _startTime Unix timestamp at which restriction get into effect\n     * @param _endTime Unix timestamp at which restriction effects will gets end.\n     * @param _restrictionType It will be 0 or 1 (i.e 0 for fixed while 1 for Percentage)\n     */\n    function modifyIndividualDailyRestriction(\n        address _holder,\n        uint256 _allowedTokens,\n        uint256 _startTime,\n        uint256 _endTime,\n        RestrictionType _restrictionType\n    )\n        external\n        withPerm(ADMIN)\n    {\n        _modifyIndividualDailyRestriction(\n            _holder,\n            _allowedTokens,\n            _startTime,\n            _endTime,\n            _restrictionType\n        );\n    }\n\n    /// @notice Internal function to facilitate the modification of individual daily restriction\n    function _modifyIndividualDailyRestriction(\n        address _holder,\n        uint256 _allowedTokens,\n        uint256 _startTime,\n        uint256 _endTime,\n        RestrictionType _restrictionType\n    )\n        internal\n    {\n        uint256 startTime = _getValidStartTime(_startTime);\n        _checkInputParams(_allowedTokens, startTime, 1, _endTime, _restrictionType,\n          (individualDailyRestriction[_holder].startTime <= now ? individualDailyRestriction[_holder].startTime : now),\n          true\n        );\n        individualDailyRestriction[_holder] = VolumeRestriction(\n            _allowedTokens,\n            startTime,\n            1,\n            _endTime,\n            _restrictionType\n        );\n        emit ModifyIndividualDailyRestriction(\n            _holder,\n            _allowedTokens,\n            startTime,\n            1,\n            _endTime,\n            _restrictionType\n        );\n    }\n\n    /**\n     * @notice Use to modify the existing individual daily restriction for multiple token holders\n     * @param _holders Array of address of the token holders, whom restriction will be implied\n     * @param _allowedTokens Array of amount of tokens allowed to be trade for a given address.\n     * @param _startTimes Array of unix timestamps at which restrictions get into effect\n     * @param _endTimes Array of unix timestamps at which restriction effects will gets end.\n     * @param _restrictionTypes Array of restriction types value will be 0 or 1 (i.e 0 for fixed while 1 for Percentage)\n     */\n    function modifyIndividualDailyRestrictionMulti(\n        address[] _holders,\n        uint256[] _allowedTokens,\n        uint256[] _startTimes,\n        uint256[] _endTimes,\n        RestrictionType[] _restrictionTypes\n    )\n        public //Marked public to save code size\n        withPerm(ADMIN)\n    {\n        //NB - we duplicate _startTimes below to allow function reuse\n        _checkLengthOfArray(_holders, _allowedTokens, _startTimes, _startTimes, _endTimes, _restrictionTypes);\n        for (uint256 i = 0; i < _holders.length; i++) {\n            _modifyIndividualDailyRestriction(\n                _holders[i],\n                _allowedTokens[i],\n                _startTimes[i],\n                _endTimes[i],\n                _restrictionTypes[i]\n            );\n        }\n    }\n\n    /**\n     * @notice Use to modify the existing individual restriction for multiple token holders\n     * @param _holders Array of address of the token holders, whom restriction will be implied\n     * @param _allowedTokens Array of amount of tokens allowed to be trade for a given address.\n     * @param _startTimes Array of unix timestamps at which restrictions get into effect\n     * @param _rollingPeriodInDays Array of rolling period in days (Minimum value should be 1 day)\n     * @param _endTimes Array of unix timestamps at which restriction effects will gets end.\n     * @param _restrictionTypes Array of restriction types value will be 0 or 1 (i.e 0 for fixed while 1 for Percentage)\n     */\n    function modifyIndividualRestrictionMulti(\n        address[] _holders,\n        uint256[] _allowedTokens,\n        uint256[] _startTimes,\n        uint256[] _rollingPeriodInDays,\n        uint256[] _endTimes,\n        RestrictionType[] _restrictionTypes\n    )\n        public //Marked public to save code size\n        withPerm(ADMIN)\n    {\n        _checkLengthOfArray(_holders, _allowedTokens, _startTimes, _rollingPeriodInDays, _endTimes, _restrictionTypes);\n        for (uint256 i = 0; i < _holders.length; i++) {\n            _modifyIndividualRestriction(\n                _holders[i],\n                _allowedTokens[i],\n                _startTimes[i],\n                _rollingPeriodInDays[i],\n                _endTimes[i],\n                _restrictionTypes[i]\n            );\n        }\n    }\n\n    /**\n     * @notice Use to modify the global restriction for all token holder\n     * @param _allowedTokens Amount of tokens allowed to be traded for all token holder.\n     * @param _startTime Unix timestamp at which restriction get into effect\n     * @param _rollingPeriodInDays Rolling period in days (Minimum value should be 1 day)\n     * @param _endTime Unix timestamp at which restriction effects will gets end.\n     * @param _restrictionType It will be 0 or 1 (i.e 0 for fixed while 1 for Percentage)\n     */\n    function modifyDefaultRestriction(\n        uint256 _allowedTokens,\n        uint256 _startTime,\n        uint256 _rollingPeriodInDays,\n        uint256 _endTime,\n        RestrictionType _restrictionType\n    )\n        public //Marked public to save code size\n        withPerm(ADMIN)\n    {\n        _isAllowedToModify(defaultRestriction.startTime);\n        uint256 startTime = _getValidStartTime(_startTime);\n        _checkInputParams(_allowedTokens, startTime, _rollingPeriodInDays, _endTime, _restrictionType, now, false);\n        defaultRestriction = VolumeRestriction(\n            _allowedTokens,\n            startTime,\n            _rollingPeriodInDays,\n            _endTime,\n            _restrictionType\n        );\n        emit ModifyDefaultRestriction(\n            _allowedTokens,\n            startTime,\n            _rollingPeriodInDays,\n            _endTime,\n            _restrictionType\n        );\n    }\n\n    /**\n     * @notice Use to modify the daily default restriction for all token holder\n     * @dev Changing of startTime will affect the 24 hrs span. i.e if in earlier restriction days start with\n     * morning and end on midnight while after the change day may start with afternoon and end with other day afternoon.\n     * @param _allowedTokens Amount of tokens allowed to be traded for all token holder.\n     * @param _startTime Unix timestamp at which restriction get into effect\n     * @param _endTime Unix timestamp at which restriction effects will gets end.\n     * @param _restrictionType It will be 0 or 1 (i.e 0 for fixed while 1 for Percentage)\n     */\n    function modifyDefaultDailyRestriction(\n        uint256 _allowedTokens,\n        uint256 _startTime,\n        uint256 _endTime,\n        RestrictionType _restrictionType\n    )\n        public //Marked public to save code size\n        withPerm(ADMIN)\n    {\n        uint256 startTime = _getValidStartTime(_startTime);\n        // If old startTime is already passed then new startTime should be greater than or equal to the\n        // old startTime otherwise any past startTime can be allowed in compare to earlier startTime.\n        _checkInputParams(_allowedTokens, startTime, 1, _endTime, _restrictionType,\n            (defaultDailyRestriction.startTime <= now ? defaultDailyRestriction.startTime : now),\n            true\n        );\n        defaultDailyRestriction = VolumeRestriction(\n            _allowedTokens,\n            startTime,\n            1,\n            _endTime,\n            _restrictionType\n        );\n        emit ModifyDefaultDailyRestriction(\n            _allowedTokens,\n            startTime,\n            1,\n            _endTime,\n            _restrictionType\n        );\n    }\n\n    /**\n    * @notice Internal function used to validate the transaction for a given address\n    * If it validates then it also update the storage corressponds to the default restriction\n    */\n    function _restrictionCheck(\n        bool _isTransfer,\n        address _from,\n        uint256 _amount,\n        BucketDetails memory _bucketDetails,\n        VolumeRestriction memory _restriction,\n        bool _isDefault\n    )\n        internal\n        returns (Result)\n    {\n        // using the variable to avoid stack too deep error\n        VolumeRestriction memory dailyRestriction = _isDefault ? defaultDailyRestriction :individualDailyRestriction[_from];\n        uint256 daysCovered = _restriction.rollingPeriodInDays;\n        uint256 fromTimestamp = 0;\n        uint256 sumOfLastPeriod = 0;\n        uint256 dailyTime = 0;\n        // This variable works for both allowedDefault or allowedIndividual\n        bool allowedDefault = true;\n        bool allowedDaily;\n        if (_restriction.endTime >= now && _restriction.startTime <= now) {\n            if (_bucketDetails.lastTradedDayTime < _restriction.startTime) {\n                // It will execute when the txn is performed first time after the addition of individual restriction\n                fromTimestamp = _restriction.startTime;\n            } else {\n                // Picking up the last timestamp\n                fromTimestamp = _bucketDetails.lastTradedDayTime;\n            }\n\n            // Check with the bucket and parse all the new timestamps to calculate the sumOfLastPeriod\n            // re-using the local variables to avoid the stack too deep error.\n            (sumOfLastPeriod, fromTimestamp, daysCovered) = _bucketCheck(\n                fromTimestamp,\n                BokkyPooBahsDateTimeLibrary.diffDays(fromTimestamp, now),\n                _from,\n                daysCovered,\n                _bucketDetails,\n                _isDefault\n            );\n            // validation of the transaction amount\n            if (\n                !_checkValidAmountToTransact(\n                    _isDefault, _from, sumOfLastPeriod, _amount, _restriction.typeOfRestriction, _restriction.allowedTokens\n                )\n            ) {\n                allowedDefault = false;\n            }\n        }\n\n        (allowedDaily, dailyTime) = _dailyTxCheck(_from, _amount, _bucketDetails.dailyLastTradedDayTime, dailyRestriction, _isDefault);\n\n        if (_isTransfer) {\n            _updateStorage(\n                _from,\n                _amount,\n                fromTimestamp,\n                sumOfLastPeriod,\n                daysCovered,\n                dailyTime,\n                _isDefault\n            );\n        }\n        return ((allowedDaily && allowedDefault) == true ? Result.NA : Result.INVALID);\n    }\n\n    /**\n     * @notice The function is used to check specific edge case where the user restriction type change from\n     * default to individual or vice versa. It will return true when last transaction traded by the user\n     * and the current txn timestamp lies in the same day.\n     * NB - Instead of comparing the current day transaction amount, we are comparing the total amount traded\n     * on the lastTradedDayTime that makes the restriction strict. The reason is not availability of amount \n     * that transacted on the current day (because of bucket desgin).\n     */\n    function _isValidAmountAfterRestrictionChanges(\n        bool _isDefault,\n        address _from,\n        uint256 _amount,\n        uint256 _sumOfLastPeriod,\n        uint256 _allowedAmount\n    )\n        internal\n        view\n        returns(bool)\n    {\n        // Always use the alternate bucket details as per the current transaction restriction\n        BucketDetails storage bucketDetails = _isDefault ? userToBucket[_from] : defaultUserToBucket[_from];\n        uint256 amountTradedLastDay = _isDefault ? bucket[_from][bucketDetails.lastTradedDayTime]: defaultBucket[_from][bucketDetails.lastTradedDayTime];\n        return VolumeRestrictionLib.isValidAmountAfterRestrictionChanges(\n            amountTradedLastDay,\n            _amount,\n            _sumOfLastPeriod,\n            _allowedAmount,\n            bucketDetails.lastTradedTimestamp\n        );\n    }\n\n    function _checkValidAmountToTransact(\n        bool _isDefault,\n        address _from,\n        uint256 _sumOfLastPeriod,\n        uint256 _amountToTransact,\n        RestrictionType _typeOfRestriction,\n        uint256 _allowedTokens\n    )\n        internal\n        view\n        returns (bool)\n    {\n        uint256 allowedAmount;\n        if (_typeOfRestriction == RestrictionType.Percentage) {\n            allowedAmount = (_allowedTokens.mul(ISecurityToken(securityToken).totalSupply())) / uint256(10) ** 18;\n        } else {\n            allowedAmount = _allowedTokens;\n        }\n        // Validation on the amount to transact\n        bool allowed = allowedAmount >= _sumOfLastPeriod.add(_amountToTransact);\n        return (allowed && _isValidAmountAfterRestrictionChanges(_isDefault, _from, _amountToTransact, _sumOfLastPeriod, allowedAmount));\n    }\n\n    function _dailyTxCheck(\n        address from,\n        uint256 amount,\n        uint256 dailyLastTradedDayTime,\n        VolumeRestriction memory restriction,\n        bool isDefault\n    )\n        internal\n        view\n        returns(bool, uint256)\n    {\n        // Checking whether the daily restriction is added or not if yes then calculate\n        // the total amount get traded on a particular day (~ _fromTime)\n        if ( now <= restriction.endTime && now >= restriction.startTime) {\n            uint256 txSumOfDay = 0;\n            // This if condition will be executed when the individual daily restriction executed first time\n            if (dailyLastTradedDayTime == 0 || dailyLastTradedDayTime < restriction.startTime)\n                dailyLastTradedDayTime = restriction.startTime.add(BokkyPooBahsDateTimeLibrary.diffDays(restriction.startTime, now).mul(1 days));\n            else if (now.sub(dailyLastTradedDayTime) >= 1 days)\n                dailyLastTradedDayTime = dailyLastTradedDayTime.add(BokkyPooBahsDateTimeLibrary.diffDays(dailyLastTradedDayTime, now).mul(1 days));\n            // Assgining total sum traded on dailyLastTradedDayTime timestamp\n            if (isDefault)\n                txSumOfDay = defaultBucket[from][dailyLastTradedDayTime];\n            else\n                txSumOfDay = bucket[from][dailyLastTradedDayTime];\n            return (_checkValidAmountToTransact(isDefault, from, txSumOfDay, amount, restriction.typeOfRestriction, restriction.allowedTokens), dailyLastTradedDayTime);\n        }\n        return (true, dailyLastTradedDayTime);\n    }\n\n    /// Internal function for the bucket check\n    function _bucketCheck(\n        uint256 _fromTime,\n        uint256 _diffDays,\n        address _from,\n        uint256 _rollingPeriodInDays,\n        BucketDetails memory _bucketDetails,\n        bool isDefault\n    )\n        internal\n        view\n        returns (uint256, uint256, uint256)\n    {\n        uint256 counter = _bucketDetails.daysCovered;\n        uint256 sumOfLastPeriod = _bucketDetails.sumOfLastPeriod;\n        uint256 i = 0;\n        if (_diffDays >= _rollingPeriodInDays) {\n            // If the difference of days is greater than the rollingPeriod then sumOfLastPeriod will always be zero\n            sumOfLastPeriod = 0;\n            counter = counter.add(_diffDays);\n        } else {\n            for (i = 0; i < _diffDays; i++) {\n                counter++;\n                // This condition is to check whether the first rolling period is covered or not\n                // if not then it continues and adding 0 value into sumOfLastPeriod without subtracting\n                // the earlier value at that index\n                if (counter >= _rollingPeriodInDays) {\n                    // Subtracting the former value(Sum of all the txn amount of that day) from the sumOfLastPeriod\n                    // The below line subtracts (the traded volume on days no longer covered by rolling period) from sumOfLastPeriod.\n                    // Every loop execution subtracts one day's trade volume.\n                    // Loop starts from the first day covered in sumOfLastPeriod upto the day that is covered by rolling period.\n                    uint256 temp = _bucketDetails.daysCovered.sub(counter.sub(_rollingPeriodInDays));\n                    temp = _bucketDetails.lastTradedDayTime.sub(temp.mul(1 days));\n                    if (isDefault)\n                        sumOfLastPeriod = sumOfLastPeriod.sub(defaultBucket[_from][temp]);\n                    else\n                        sumOfLastPeriod = sumOfLastPeriod.sub(bucket[_from][temp]);\n                }\n                // Adding the last amount that is transacted on the `_fromTime` not actually doing it but left written to understand\n                // the alogrithm\n                //_bucketDetails.sumOfLastPeriod = _bucketDetails.sumOfLastPeriod.add(uint256(0));\n            }\n        }\n        // calculating the timestamp that will used as an index of the next bucket\n        // i.e buckets period will be look like this T1 to T2-1, T2 to T3-1 ....\n        // where T1,T2,T3 are timestamps having 24 hrs difference\n        _fromTime = _fromTime.add(_diffDays.mul(1 days));\n        return (sumOfLastPeriod, _fromTime, counter);\n    }\n\n    function _updateStorage(\n        address _from,\n        uint256 _amount,\n        uint256 _lastTradedDayTime,\n        uint256 _sumOfLastPeriod,\n        uint256 _daysCovered,\n        uint256 _dailyLastTradedDayTime,\n        bool isDefault\n    )\n        internal\n    {\n\n        if (isDefault){\n            BucketDetails storage defaultUserToBucketDetails = defaultUserToBucket[_from];\n            _updateStorageActual(_from, _amount, _lastTradedDayTime, _sumOfLastPeriod, _daysCovered, _dailyLastTradedDayTime, defaultDailyRestriction.endTime, true, defaultUserToBucketDetails);\n        }\n        else {\n            BucketDetails storage userToBucketDetails = userToBucket[_from];\n            uint256 _endTime = individualDailyRestriction[_from].endTime;\n            _updateStorageActual(_from, _amount, _lastTradedDayTime, _sumOfLastPeriod, _daysCovered, _dailyLastTradedDayTime, _endTime, false, userToBucketDetails);\n        }\n    }\n\n    function _updateStorageActual(\n        address _from,\n        uint256 _amount,\n        uint256 _lastTradedDayTime,\n        uint256 _sumOfLastPeriod,\n        uint256 _daysCovered,\n        uint256 _dailyLastTradedDayTime,\n        uint256 _endTime,\n        bool isDefault,\n        BucketDetails storage details\n    )\n        internal\n    {\n        // Cheap storage technique\n        if (details.lastTradedDayTime != _lastTradedDayTime) {\n            // Assigning the latest transaction timestamp of the day\n            details.lastTradedDayTime = _lastTradedDayTime;\n        }\n        if (details.dailyLastTradedDayTime != _dailyLastTradedDayTime) {\n            // Assigning the latest transaction timestamp of the day\n            details.dailyLastTradedDayTime = _dailyLastTradedDayTime;\n        }\n        if (details.daysCovered != _daysCovered) {\n            details.daysCovered = _daysCovered;\n        }\n        // Assigning the latest transaction timestamp\n        details.lastTradedTimestamp = now;\n        if (_amount != 0) {\n            if (_lastTradedDayTime !=0) {\n                details.sumOfLastPeriod = _sumOfLastPeriod.add(_amount);\n                // Increasing the total amount of the day by `_amount`\n                if (isDefault)\n                    defaultBucket[_from][_lastTradedDayTime] = defaultBucket[_from][_lastTradedDayTime].add(_amount);\n                else\n                    bucket[_from][_lastTradedDayTime] = bucket[_from][_lastTradedDayTime].add(_amount);\n            }\n            if ((_dailyLastTradedDayTime != _lastTradedDayTime) && _dailyLastTradedDayTime != 0 && now <= _endTime) {\n                // Increasing the total amount of the day by `_amount`\n                if (isDefault)\n                    defaultBucket[_from][_dailyLastTradedDayTime] = defaultBucket[_from][_dailyLastTradedDayTime].add(_amount);\n                else\n                    bucket[_from][_dailyLastTradedDayTime] = bucket[_from][_dailyLastTradedDayTime].add(_amount);\n\n            }\n        }\n    }\n\n    function _checkInputParams(\n        uint256 _allowedTokens,\n        uint256 _startTime,\n        uint256 _rollingPeriodDays,\n        uint256 _endTime,\n        RestrictionType _restrictionType,\n        uint256 _earliestStartTime,\n        bool isModifyDaily\n    )\n        internal\n        pure\n    {\n        require(uint256(_restrictionType) < 2);\n        if (isModifyDaily)\n            require(_startTime >= _earliestStartTime, \"Invalid startTime\");\n        else\n            require(_startTime > _earliestStartTime, \"Invalid startTime\");\n        require(_allowedTokens > 0);\n        if (_restrictionType != RestrictionType.Fixed) {\n            require(_allowedTokens <= 100 * 10 ** 16, \"Invalid value\");\n        }\n        // Maximum limit for the rollingPeriod is 365 days\n        require(_rollingPeriodDays >= 1 && _rollingPeriodDays <= 365, \"Invalid rollingperiod\");\n        require(\n            BokkyPooBahsDateTimeLibrary.diffDays(_startTime, _endTime) >= _rollingPeriodDays,\n            \"Invalid times\"\n        );\n    }\n\n    function _isAllowedToModify(uint256 _startTime) internal view {\n        require(_startTime > now);\n    }\n\n    function _getValidStartTime(uint256 _startTime) internal view returns(uint256) {\n        if (_startTime == 0)\n            _startTime = now + 1;\n        return _startTime;\n    }\n\n    /**\n     * @notice Use to get the bucket details for a given address\n     * @param _user Address of the token holder for whom the bucket details has queried\n     * @return uint256 lastTradedDayTime\n     * @return uint256 sumOfLastPeriod\n     * @return uint256 days covered\n     * @return uint256 24h lastTradedDayTime\n     */\n    function getIndividualBucketDetailsToUser(address _user) external view returns(uint256, uint256, uint256, uint256, uint256) {\n        return _getBucketDetails(userToBucket[_user]);\n    }\n\n    /**\n     * @notice Use to get the bucket details for a given address\n     * @param _user Address of the token holder for whom the bucket details has queried\n     * @return uint256 lastTradedDayTime\n     * @return uint256 sumOfLastPeriod\n     * @return uint256 days covered\n     * @return uint256 24h lastTradedDayTime\n     */\n    function getDefaultBucketDetailsToUser(address _user) external view returns(uint256, uint256, uint256, uint256, uint256) {\n        return _getBucketDetails(defaultUserToBucket[_user]);\n    }\n\n    function _getBucketDetails(BucketDetails storage _bucket) internal view returns(\n        uint256,\n        uint256,\n        uint256,\n        uint256,\n        uint256\n    ) {\n        return(\n            _bucket.lastTradedDayTime,\n            _bucket.sumOfLastPeriod,\n            _bucket.daysCovered,\n            _bucket.dailyLastTradedDayTime,\n            _bucket.lastTradedTimestamp\n        );\n    }\n\n    /**\n     * @notice Use to get the volume of token that being traded at a particular day (`_at` + 24 hours) for a given user\n     * @param _user Address of the token holder\n     * @param _at Timestamp\n     */\n    function getTotalTradedByUser(address _user, uint256 _at) external view returns(uint256) {\n        return (bucket[_user][_at].add(defaultBucket[_user][_at]));\n    }\n\n    /**\n     * @notice This function returns the signature of configure function\n     */\n    function getInitFunction() public view returns(bytes4) {\n        return bytes4(0);\n    }\n\n    /**\n     * @notice Use to return the list of exempted addresses\n     */\n    function getExemptAddress() external view returns(address[]) {\n        return exemptAddresses;\n    }\n\n    /**\n     * @notice Provide the restriction details of all the restricted addresses\n     * @return address List of the restricted addresses\n     * @return uint256 List of the tokens allowed to the restricted addresses corresponds to restricted address\n     * @return uint256 List of the start time of the restriction corresponds to restricted address\n     * @return uint256 List of the rolling period in days for a restriction corresponds to restricted address.\n     * @return uint256 List of the end time of the restriction corresponds to restricted address.\n     * @return RestrictionType List of the type of restriction to validate the value of the `allowedTokens`\n     * of the restriction corresponds to restricted address\n     */\n    function getRestrictedData() external view returns(\n        address[] memory allAddresses,\n        uint256[] memory allowedTokens,\n        uint256[] memory startTime,\n        uint256[] memory rollingPeriodInDays,\n        uint256[] memory endTime,\n        RestrictionType[] memory typeOfRestriction\n    ) {\n        uint256 counter = 0;\n        uint256 i = 0;\n        for (i = 0; i < holderData.restrictedAddresses.length; i++) {\n            counter = counter + uint256(\n                holderData.restrictedHolders[holderData.restrictedAddresses[i]].typeOfPeriod == TypeOfPeriod.Both ? TypeOfPeriod.Both : TypeOfPeriod.OneDay\n            );\n        }\n        allAddresses = new address[](counter);\n        allowedTokens = new uint256[](counter);\n        startTime = new uint256[](counter);\n        rollingPeriodInDays = new uint256[](counter);\n        endTime = new uint256[](counter);\n        typeOfRestriction = new RestrictionType[](counter);\n        counter = 0;\n        for (i = 0; i < holderData.restrictedAddresses.length; i++) {\n            allAddresses[counter] =  holderData.restrictedAddresses[i];\n            if (holderData.restrictedHolders[holderData.restrictedAddresses[i]].typeOfPeriod == TypeOfPeriod.MultipleDays) {\n                _setValues(individualRestriction[holderData.restrictedAddresses[i]], allowedTokens, startTime, rollingPeriodInDays, endTime, typeOfRestriction, counter);\n            }\n            else if (holderData.restrictedHolders[holderData.restrictedAddresses[i]].typeOfPeriod == TypeOfPeriod.OneDay) {\n                _setValues(individualDailyRestriction[holderData.restrictedAddresses[i]], allowedTokens, startTime, rollingPeriodInDays, endTime, typeOfRestriction, counter);\n            }\n            else if (holderData.restrictedHolders[holderData.restrictedAddresses[i]].typeOfPeriod == TypeOfPeriod.Both) {\n                _setValues(individualRestriction[holderData.restrictedAddresses[i]], allowedTokens, startTime, rollingPeriodInDays, endTime, typeOfRestriction, counter);\n                counter = counter + 1;\n                allAddresses[counter] =  holderData.restrictedAddresses[i];\n                _setValues(individualDailyRestriction[holderData.restrictedAddresses[i]], allowedTokens, startTime, rollingPeriodInDays, endTime, typeOfRestriction, counter);\n            }\n            counter ++;\n        }\n    }\n\n    function _setValues(\n        VolumeRestriction memory restriction,\n        uint256[] memory allowedTokens,\n        uint256[] memory startTime,\n        uint256[] memory rollingPeriodInDays,\n        uint256[] memory endTime,\n        RestrictionType[] memory typeOfRestriction,\n        uint256 index\n    )\n        internal\n        pure\n    {\n        allowedTokens[index] = restriction.allowedTokens;\n        startTime[index] = restriction.startTime;\n        rollingPeriodInDays[index] = restriction.rollingPeriodInDays;\n        endTime[index] = restriction.endTime;\n        typeOfRestriction[index] = restriction.typeOfRestriction;\n    }\n\n    function _checkLengthOfArray(\n        address[] _holders,\n        uint256[] _allowedTokens,\n        uint256[] _startTimes,\n        uint256[] _rollingPeriodInDays,\n        uint256[] _endTimes,\n        VolumeRestrictionTMStorage.RestrictionType[] _restrictionTypes\n    )\n        internal\n        pure\n    {\n        require(\n            _holders.length == _allowedTokens.length &&\n            _allowedTokens.length == _startTimes.length &&\n            _startTimes.length == _rollingPeriodInDays.length &&\n            _rollingPeriodInDays.length == _endTimes.length &&\n            _endTimes.length == _restrictionTypes.length,\n            \"Length mismatch\"\n        );\n    }\n\n    /**\n     * @notice Returns the permissions flag that are associated with Percentage transfer Manager\n     */\n    function getPermissions() public view returns(bytes32[] memory allPermissions) {\n        allPermissions = new bytes32[](1);\n        allPermissions[0] = ADMIN;\n    }\n\n}\n",
  "sourcePath": "/Users/federicoelgarte/Polymath/polymath-core/contracts/modules/TransferManager/VolumeRestrictionTM.sol",
  "compiler": {
    "name": "solc",
    "version": "0.4.24+commit.e67f0147.Emscripten.clang"
  },
  "schemaVersion": "2.0.1",
  "updatedAt": "2019-04-03T12:32:10.265Z"
}