{
  "contractName": "CappedSTO",
  "abi": [
    {
      "constant": true,
      "inputs": [],
      "name": "rate",
      "outputs": [
        {
          "name": "",
          "type": "uint256"
        }
      ],
      "payable": false,
      "stateMutability": "view",
      "type": "function"
    },
    {
      "constant": true,
      "inputs": [],
      "name": "allowBeneficialInvestments",
      "outputs": [
        {
          "name": "",
          "type": "bool"
        }
      ],
      "payable": false,
      "stateMutability": "view",
      "type": "function"
    },
    {
      "constant": true,
      "inputs": [],
      "name": "endTime",
      "outputs": [
        {
          "name": "",
          "type": "uint256"
        }
      ],
      "payable": false,
      "stateMutability": "view",
      "type": "function"
    },
    {
      "constant": true,
      "inputs": [],
      "name": "cap",
      "outputs": [
        {
          "name": "",
          "type": "uint256"
        }
      ],
      "payable": false,
      "stateMutability": "view",
      "type": "function"
    },
    {
      "constant": false,
      "inputs": [],
      "name": "unpause",
      "outputs": [],
      "payable": false,
      "stateMutability": "nonpayable",
      "type": "function"
    },
    {
      "constant": true,
      "inputs": [],
      "name": "wallet",
      "outputs": [
        {
          "name": "",
          "type": "address"
        }
      ],
      "payable": false,
      "stateMutability": "view",
      "type": "function"
    },
    {
      "constant": true,
      "inputs": [],
      "name": "paused",
      "outputs": [
        {
          "name": "",
          "type": "bool"
        }
      ],
      "payable": false,
      "stateMutability": "view",
      "type": "function"
    },
    {
      "constant": false,
      "inputs": [
        {
          "name": "_amount",
          "type": "uint256"
        }
      ],
      "name": "takeFee",
      "outputs": [
        {
          "name": "",
          "type": "bool"
        }
      ],
      "payable": false,
      "stateMutability": "nonpayable",
      "type": "function"
    },
    {
      "constant": true,
      "inputs": [],
      "name": "totalTokensSold",
      "outputs": [
        {
          "name": "",
          "type": "uint256"
        }
      ],
      "payable": false,
      "stateMutability": "view",
      "type": "function"
    },
    {
      "constant": true,
      "inputs": [
        {
          "name": "",
          "type": "address"
        }
      ],
      "name": "investors",
      "outputs": [
        {
          "name": "",
          "type": "uint256"
        }
      ],
      "payable": false,
      "stateMutability": "view",
      "type": "function"
    },
    {
      "constant": true,
      "inputs": [],
      "name": "polyToken",
      "outputs": [
        {
          "name": "",
          "type": "address"
        }
      ],
      "payable": false,
      "stateMutability": "view",
      "type": "function"
    },
    {
      "constant": true,
      "inputs": [],
      "name": "startTime",
      "outputs": [
        {
          "name": "",
          "type": "uint256"
        }
      ],
      "payable": false,
      "stateMutability": "view",
      "type": "function"
    },
    {
      "constant": false,
      "inputs": [],
      "name": "pause",
      "outputs": [],
      "payable": false,
      "stateMutability": "nonpayable",
      "type": "function"
    },
    {
      "constant": false,
      "inputs": [
        {
          "name": "_tokenContract",
          "type": "address"
        }
      ],
      "name": "reclaimERC20",
      "outputs": [],
      "payable": false,
      "stateMutability": "nonpayable",
      "type": "function"
    },
    {
      "constant": true,
      "inputs": [
        {
          "name": "_fundRaiseType",
          "type": "uint8"
        }
      ],
      "name": "getRaised",
      "outputs": [
        {
          "name": "",
          "type": "uint256"
        }
      ],
      "payable": false,
      "stateMutability": "view",
      "type": "function"
    },
    {
      "constant": true,
      "inputs": [],
      "name": "pausedTime",
      "outputs": [
        {
          "name": "",
          "type": "uint256"
        }
      ],
      "payable": false,
      "stateMutability": "view",
      "type": "function"
    },
    {
      "constant": true,
      "inputs": [],
      "name": "securityToken",
      "outputs": [
        {
          "name": "",
          "type": "address"
        }
      ],
      "payable": false,
      "stateMutability": "view",
      "type": "function"
    },
    {
      "constant": true,
      "inputs": [],
      "name": "factory",
      "outputs": [
        {
          "name": "",
          "type": "address"
        }
      ],
      "payable": false,
      "stateMutability": "view",
      "type": "function"
    },
    {
      "constant": true,
      "inputs": [
        {
          "name": "",
          "type": "uint8"
        }
      ],
      "name": "fundsRaised",
      "outputs": [
        {
          "name": "",
          "type": "uint256"
        }
      ],
      "payable": false,
      "stateMutability": "view",
      "type": "function"
    },
    {
      "constant": true,
      "inputs": [
        {
          "name": "",
          "type": "uint8"
        }
      ],
      "name": "fundRaiseTypes",
      "outputs": [
        {
          "name": "",
          "type": "bool"
        }
      ],
      "payable": false,
      "stateMutability": "view",
      "type": "function"
    },
    {
      "constant": true,
      "inputs": [],
      "name": "FEE_ADMIN",
      "outputs": [
        {
          "name": "",
          "type": "bytes32"
        }
      ],
      "payable": false,
      "stateMutability": "view",
      "type": "function"
    },
    {
      "constant": true,
      "inputs": [],
      "name": "investorCount",
      "outputs": [
        {
          "name": "",
          "type": "uint256"
        }
      ],
      "payable": false,
      "stateMutability": "view",
      "type": "function"
    },
    {
      "inputs": [
        {
          "name": "_securityToken",
          "type": "address"
        },
        {
          "name": "_polyAddress",
          "type": "address"
        }
      ],
      "payable": false,
      "stateMutability": "nonpayable",
      "type": "constructor"
    },
    {
      "payable": true,
      "stateMutability": "payable",
      "type": "fallback"
    },
    {
      "anonymous": false,
      "inputs": [
        {
          "indexed": true,
          "name": "purchaser",
          "type": "address"
        },
        {
          "indexed": true,
          "name": "beneficiary",
          "type": "address"
        },
        {
          "indexed": false,
          "name": "value",
          "type": "uint256"
        },
        {
          "indexed": false,
          "name": "amount",
          "type": "uint256"
        }
      ],
      "name": "TokenPurchase",
      "type": "event"
    },
    {
      "anonymous": false,
      "inputs": [
        {
          "indexed": false,
          "name": "_allowed",
          "type": "bool"
        }
      ],
      "name": "SetAllowBeneficialInvestments",
      "type": "event"
    },
    {
      "anonymous": false,
      "inputs": [
        {
          "indexed": false,
          "name": "_fundRaiseTypes",
          "type": "uint8[]"
        }
      ],
      "name": "SetFundRaiseTypes",
      "type": "event"
    },
    {
      "anonymous": false,
      "inputs": [
        {
          "indexed": false,
          "name": "_timestammp",
          "type": "uint256"
        }
      ],
      "name": "Pause",
      "type": "event"
    },
    {
      "anonymous": false,
      "inputs": [
        {
          "indexed": false,
          "name": "_timestamp",
          "type": "uint256"
        }
      ],
      "name": "Unpause",
      "type": "event"
    },
    {
      "constant": false,
      "inputs": [
        {
          "name": "_startTime",
          "type": "uint256"
        },
        {
          "name": "_endTime",
          "type": "uint256"
        },
        {
          "name": "_cap",
          "type": "uint256"
        },
        {
          "name": "_rate",
          "type": "uint256"
        },
        {
          "name": "_fundRaiseTypes",
          "type": "uint8[]"
        },
        {
          "name": "_fundsReceiver",
          "type": "address"
        }
      ],
      "name": "configure",
      "outputs": [],
      "payable": false,
      "stateMutability": "nonpayable",
      "type": "function"
    },
    {
      "constant": true,
      "inputs": [],
      "name": "getInitFunction",
      "outputs": [
        {
          "name": "",
          "type": "bytes4"
        }
      ],
      "payable": false,
      "stateMutability": "pure",
      "type": "function"
    },
    {
      "constant": false,
      "inputs": [
        {
          "name": "_allowBeneficialInvestments",
          "type": "bool"
        }
      ],
      "name": "changeAllowBeneficialInvestments",
      "outputs": [],
      "payable": false,
      "stateMutability": "nonpayable",
      "type": "function"
    },
    {
      "constant": false,
      "inputs": [
        {
          "name": "_beneficiary",
          "type": "address"
        }
      ],
      "name": "buyTokens",
      "outputs": [],
      "payable": true,
      "stateMutability": "payable",
      "type": "function"
    },
    {
      "constant": false,
      "inputs": [
        {
          "name": "_investedPOLY",
          "type": "uint256"
        }
      ],
      "name": "buyTokensWithPoly",
      "outputs": [],
      "payable": false,
      "stateMutability": "nonpayable",
      "type": "function"
    },
    {
      "constant": true,
      "inputs": [],
      "name": "capReached",
      "outputs": [
        {
          "name": "",
          "type": "bool"
        }
      ],
      "payable": false,
      "stateMutability": "view",
      "type": "function"
    },
    {
      "constant": true,
      "inputs": [],
      "name": "getTokensSold",
      "outputs": [
        {
          "name": "",
          "type": "uint256"
        }
      ],
      "payable": false,
      "stateMutability": "view",
      "type": "function"
    },
    {
      "constant": true,
      "inputs": [],
      "name": "getPermissions",
      "outputs": [
        {
          "name": "",
          "type": "bytes32[]"
        }
      ],
      "payable": false,
      "stateMutability": "view",
      "type": "function"
    },
    {
      "constant": true,
      "inputs": [],
      "name": "getSTODetails",
      "outputs": [
        {
          "name": "",
          "type": "uint256"
        },
        {
          "name": "",
          "type": "uint256"
        },
        {
          "name": "",
          "type": "uint256"
        },
        {
          "name": "",
          "type": "uint256"
        },
        {
          "name": "",
          "type": "uint256"
        },
        {
          "name": "",
          "type": "uint256"
        },
        {
          "name": "",
          "type": "uint256"
        },
        {
          "name": "",
          "type": "bool"
        }
      ],
      "payable": false,
      "stateMutability": "view",
      "type": "function"
    }
  ],
  "bytecode": "0x6080604052600a805460a060020a62ffffff021916905534801561002257600080fd5b5060405160408061244d83398101604052805160209091015160098054600160a060020a03938416600160a060020a03199182161790915560088054821633179055600a80549390921692169190911790556123ca806100836000396000f3006080604052600436106101715763ffffffff60e060020a6000350416631040dc27811461017c5780631365eaaf146101d45780631613ec9d146102465780632c4e722e146102905780632df413e2146102b75780633197cbb6146102e0578063355274ea146102f55780633f4ba83a1461030a578063441b9e4a1461031f5780634f93594514610339578063521eb2731461034e5780635c975abb1461037f5780635f7619a41461039457806363b20117146103ac5780636f7bc9be146103c15780636faa22a5146103e257806378e97925146103f75780638456cb591461040c5780638905fd4f146104215780639a7cc13514610442578063b2cca39d1461045d578063b84dfbd214610472578063c3a07df614610487578063c45a0155146104ec578063c4d2c6bd14610501578063cb7526791461051c578063d143a37914610534578063d70afa961461054f578063d7e64c0014610564578063ec8ac4d814610579578063ee7c0db01461058d575b61017a336105a2565b005b34801561018857600080fd5b506101916107dc565b604080519889526020890197909752878701959095526060870193909352608086019190915260a085015260c0840152151560e083015251908190036101000190f35b3480156101e057600080fd5b50604080516020600460843581810135838102808601850190965280855261017a95833595602480359660443596606435963696919560a49594909101928291908501908490808284375094975050509235600160a060020a031693506108b892505050565b34801561025257600080fd5b5061025b610bd9565b604080517fffffffff000000000000000000000000000000000000000000000000000000009092168252519081900360200190f35b34801561029c57600080fd5b506102a5610c34565b60408051918252519081900360200190f35b3480156102c357600080fd5b506102cc610c3a565b604080519115158252519081900360200190f35b3480156102ec57600080fd5b506102a5610c4a565b34801561030157600080fd5b506102a5610c50565b34801561031657600080fd5b5061017a610c56565b34801561032b57600080fd5b5061017a6004351515610d2c565b34801561034557600080fd5b506102cc610ed1565b34801561035a57600080fd5b50610363610edc565b60408051600160a060020a039092168252519081900360200190f35b34801561038b57600080fd5b506102cc610eeb565b3480156103a057600080fd5b506102cc600435610efb565b3480156103b857600080fd5b506102a561123b565b3480156103cd57600080fd5b506102a5600160a060020a0360043516611241565b3480156103ee57600080fd5b50610363611253565b34801561040357600080fd5b506102a5611262565b34801561041857600080fd5b5061017a611268565b34801561042d57600080fd5b5061017a600160a060020a0360043516611395565b34801561044e57600080fd5b506102a560ff60043516611647565b34801561046957600080fd5b506102a5611673565b34801561047e57600080fd5b50610363611679565b34801561049357600080fd5b5061049c611688565b60408051602080825283518183015283519192839290830191858101910280838360005b838110156104d85781810151838201526020016104c0565b505050509050019250505060405180910390f35b3480156104f857600080fd5b5061036361169a565b34801561050d57600080fd5b506102a560ff600435166116a9565b34801561052857600080fd5b5061017a6004356116bb565b34801561054057600080fd5b506102cc60ff60043516611862565b34801561055b57600080fd5b506102a5611877565b34801561057057600080fd5b506102a561189b565b61017a600160a060020a03600435166105a2565b34801561059957600080fd5b506102a56118a1565b600a5460009081907501000000000000000000000000000000000000000000900460ff16156105d057600080fd5b600a805475ff00000000000000000000000000000000000000000019167501000000000000000000000000000000000000000000179081905560b060020a900460ff16151561069f57600160a060020a038316331461069f576040805160e560020a62461bcd02815260206004820152602d60248201527f42656e6566696369617279206164647265737320646f6573206e6f74206d617460448201527f6368206d73672e73656e64657200000000000000000000000000000000000000606482015290519081900360840190fd5b600a5460a060020a900460ff1615610701576040805160e560020a62461bcd02815260206004820152601460248201527f53686f756c64206e6f7420626520706175736564000000000000000000000000604482015290519081900360640190fd5b60008080526020527fad3228b676f7d3cd4284a5443f17f1962b36e491b30a40b2405849e597ba5fb55460ff161515610784576040805160e560020a62461bcd02815260206004820152601d60248201527f4d6f6465206f6620696e766573746d656e74206973206e6f7420455448000000604482015290519081900360640190fd5b34915061079183836118a7565b90506107a3828263ffffffff611a0416565b91506107ae81611a1b565b6107b88383611a90565b5050600a805475ff0000000000000000000000000000000000000000001916905550565b600080600080600080600080600254600354600c54600b546000806001600281111561080457fe5b60ff90811682526020820192909252604001600020541661084f576000805260016020527fa6eef7e35abe7026729641147f7915573c7e97b47efa546f5f6e3230263bcb495461087c565b600160008190526020527fcc69885fda6bcc1a4ace058b4a62bf5e179ea78fd58a1ccd71c22cc9b688792f545b6005546007546001600090815260205260008051602061235f83398151915254969f959e50939c50919a5098509650945060ff90911692509050565b600854600160a060020a0316331461091a576040805160e560020a62461bcd02815260206004820152601560248201527f53656e646572206973206e6f7420666163746f72790000000000000000000000604482015290519081900360640190fd5b60035415610972576040805160e560020a62461bcd02815260206004820152601260248201527f416c726561647920636f6e666967757265640000000000000000000000000000604482015290519081900360640190fd5b600083116109f0576040805160e560020a62461bcd02815260206004820152602660248201527f52617465206f6620746f6b656e2073686f756c6420626520677265617465722060448201527f7468616e20300000000000000000000000000000000000000000000000000000606482015290519081900360840190fd5b600160a060020a0381161515610a50576040805160e560020a62461bcd02815260206004820152601d60248201527f5a65726f2061646472657373206973206e6f74207065726d6974746564000000604482015290519081900360640190fd5b428610158015610a5f57508585115b1515610ab5576040805160e560020a62461bcd02815260206004820152601d60248201527f4461746520706172616d657465727320617265206e6f742076616c6964000000604482015290519081900360640190fd5b60008411610b0d576040805160e560020a62461bcd02815260206004820152601c60248201527f4361702073686f756c642062652067726561746572207468616e203000000000604482015290519081900360640190fd5b8151600114610b8c576040805160e560020a62461bcd02815260206004820152602660248201527f4974206f6e6c792073656c656374732073696e676c652066756e64207261697360448201527f6520747970650000000000000000000000000000000000000000000000000000606482015290519081900360840190fd5b60028690556003859055600c849055600b8390556006805473ffffffffffffffffffffffffffffffffffffffff1916600160a060020a038316179055610bd182611a94565b505050505050565b604080517f636f6e6669677572652875696e743235362c75696e743235362c75696e74323581527f362c75696e743235362c75696e74385b5d2c61646472657373290000000000006020820152905190819003603a01902090565b600b5481565b600a5460b060020a900460ff1681565b60035481565b600c5481565b600960009054906101000a9004600160a060020a0316600160a060020a0316638da5cb5b6040518163ffffffff1660e060020a028152600401602060405180830381600087803b158015610ca957600080fd5b505af1158015610cbd573d6000803e3d6000fd5b505050506040513d6020811015610cd357600080fd5b5051600160a060020a03163314610d22576040805160e560020a62461bcd028152602060048201526013602482015260008051602061237f833981519152604482015290519081900360640190fd5b610d2a611c40565b565b600960009054906101000a9004600160a060020a0316600160a060020a0316638da5cb5b6040518163ffffffff1660e060020a028152600401602060405180830381600087803b158015610d7f57600080fd5b505af1158015610d93573d6000803e3d6000fd5b505050506040513d6020811015610da957600080fd5b5051600160a060020a03163314610df8576040805160e560020a62461bcd028152602060048201526013602482015260008051602061237f833981519152604482015290519081900360640190fd5b600a5460b060020a900460ff1615158115151415610e60576040805160e560020a62461bcd02815260206004820152601560248201527f446f6573206e6f74206368616e67652076616c75650000000000000000000000604482015290519081900360640190fd5b600a805482151560b060020a90810276ff00000000000000000000000000000000000000000000199092169190911791829055604080519190920460ff161515815290517fea6eddcb8f2bf55dfb29aef4bd48214ef0798b9eae2e1bbb25dac99ecf6da6ae9181900360200190a150565b600c54600754101590565b600654600160a060020a031681565b600a5460a060020a900460ff1681565b60007f4645455f41444d494e0000000000000000000000000000000000000000000000600080600960009054906101000a9004600160a060020a0316600160a060020a0316638da5cb5b6040518163ffffffff1660e060020a028152600401602060405180830381600087803b158015610f7457600080fd5b505af1158015610f88573d6000803e3d6000fd5b505050506040513d6020811015610f9e57600080fd5b505160085433600160a060020a039283168114945091161490508180610fc15750805b806110675750600954604080517f8658b8b9000000000000000000000000000000000000000000000000000000008152336004820152306024820152604481018690529051600160a060020a0390921691638658b8b9916064808201926020929091908290030181600087803b15801561103a57600080fd5b505af115801561104e573d6000803e3d6000fd5b505050506040513d602081101561106457600080fd5b50515b15156110bd576040805160e560020a62461bcd02815260206004820152601760248201527f5065726d697373696f6e20636865636b206661696c6564000000000000000000604482015290519081900360640190fd5b600a54600954600854604080517f8da5cb5b0000000000000000000000000000000000000000000000000000000081529051600160a060020a03948516946323b872dd948116931691638da5cb5b9160048083019260209291908290030181600087803b15801561112d57600080fd5b505af1158015611141573d6000803e3d6000fd5b505050506040513d602081101561115757600080fd5b50516040805160e060020a63ffffffff8616028152600160a060020a039384166004820152929091166024830152604482018990525160648083019260209291908290030181600087803b1580156111ae57600080fd5b505af11580156111c2573d6000803e3d6000fd5b505050506040513d60208110156111d857600080fd5b50511515611230576040805160e560020a62461bcd02815260206004820152601260248201527f556e61626c6520746f2074616b65206665650000000000000000000000000000604482015290519081900360640190fd5b506001949350505050565b60075481565b600d6020526000908152604090205481565b600a54600160a060020a031681565b60025481565b600960009054906101000a9004600160a060020a0316600160a060020a0316638da5cb5b6040518163ffffffff1660e060020a028152600401602060405180830381600087803b1580156112bb57600080fd5b505af11580156112cf573d6000803e3d6000fd5b505050506040513d60208110156112e557600080fd5b5051600160a060020a03163314611334576040805160e560020a62461bcd028152602060048201526013602482015260008051602061237f833981519152604482015290519081900360640190fd5b600354421061138d576040805160e560020a62461bcd02815260206004820152601660248201527f53544f20686173206265656e2066696e616c697a656400000000000000000000604482015290519081900360640190fd5b610d2a611cf6565b600080600960009054906101000a9004600160a060020a0316600160a060020a0316638da5cb5b6040518163ffffffff1660e060020a028152600401602060405180830381600087803b1580156113eb57600080fd5b505af11580156113ff573d6000803e3d6000fd5b505050506040513d602081101561141557600080fd5b5051600160a060020a03163314611464576040805160e560020a62461bcd028152602060048201526013602482015260008051602061237f833981519152604482015290519081900360640190fd5b600160a060020a03831615156114c4576040805160e560020a62461bcd02815260206004820152600f60248201527f496e76616c696420616464726573730000000000000000000000000000000000604482015290519081900360640190fd5b604080517f70a082310000000000000000000000000000000000000000000000000000000081523060048201529051849350600160a060020a038416916370a082319160248083019260209291908290030181600087803b15801561152857600080fd5b505af115801561153c573d6000803e3d6000fd5b505050506040513d602081101561155257600080fd5b5051604080517fa9059cbb000000000000000000000000000000000000000000000000000000008152336004820152602481018390529051919250600160a060020a0384169163a9059cbb916044808201926020929091908290030181600087803b1580156115c057600080fd5b505af11580156115d4573d6000803e3d6000fd5b505050506040513d60208110156115ea57600080fd5b50511515611642576040805160e560020a62461bcd02815260206004820152600f60248201527f5472616e73666572206661696c65640000000000000000000000000000000000604482015290519081900360640190fd5b505050565b60006001600083600281111561165957fe5b60ff16815260208101919091526040016000205492915050565b60045481565b600954600160a060020a031681565b60408051600081526020810190915290565b600854600160a060020a031681565b60016020526000908152604090205481565b600a546000907501000000000000000000000000000000000000000000900460ff16156116e757600080fd5b600a805475ff00000000000000000000000000000000000000000019167501000000000000000000000000000000000000000000179081905560a060020a900460ff161561177f576040805160e560020a62461bcd02815260206004820152601460248201527f53686f756c64206e6f7420626520706175736564000000000000000000000000604482015290519081900360640190fd5b6001600090815260205260008051602061235f8339815191525460ff1615156117f2576040805160e560020a62461bcd02815260206004820152601e60248201527f4d6f6465206f6620696e766573746d656e74206973206e6f7420504f4c590000604482015290519081900360640190fd5b6117fc33836118a7565b600654909150611826903390600160a060020a0316611821858563ffffffff611a0416565b611db1565b61183f3361183a848463ffffffff611a0416565b611a90565b5050600a805475ff00000000000000000000000000000000000000000019169055565b60006020819052908152604090205460ff1681565b7f4645455f41444d494e000000000000000000000000000000000000000000000081565b60055481565b60075490565b6000806118b48484611e59565b6118bd8361208d565b925090506118d1838363ffffffff611a0416565b6001600090815260205260008051602061235f8339815191525490935060ff1615611951576119208360016000815b60ff1681526020810191909152604001600020549063ffffffff6121ad16565b600160008190526020527fcc69885fda6bcc1a4ace058b4a62bf5e179ea78fd58a1ccd71c22cc9b688792f5561198b565b61195f836001600080611900565b6000805260016020527fa6eef7e35abe7026729641147f7915573c7e97b47efa546f5f6e3230263bcb49555b60075461199e908263ffffffff6121ad16565b6007556119ab84826121ba565b60408051848152602081018390528151600160a060020a0387169233927f623b3804fa71d67900d064613da8f94b9617215ee90799290593e1745087ad18929081900390910190a36119fd8484611a90565b5092915050565b600082821115611a1057fe5b508082035b92915050565b600654600160a060020a03166108fc611a3a348463ffffffff611a0416565b6040518115909202916000818181858888f19350505050158015611a62573d6000803e3d6000fd5b50604051339082156108fc029083906000818181858888f19350505050158015611a90573d6000803e3d6000fd5b5050565b6000808251111515611af0576040805160e560020a62461bcd02815260206004820152601b60248201527f52616973652074797065206973206e6f74207370656369666965640000000000604482015290519081900360640190fd5b50600060208190527fad3228b676f7d3cd4284a5443f17f1962b36e491b30a40b2405849e597ba5fb5805460ff1990811690915560008051602061235f833981519152805482169055600282527fabbb5caa7dda850e60932de0934eb1f9d0f59695050f761dc64e443e5030a569805490911690555b81518160ff161015611bc7576001600080848460ff16815181101515611b8857fe5b906020019060200201516002811115611b9d57fe5b60ff1681526020810191909152604001600020805460ff1916911515919091179055600101611b66565b7fe5724f42dd9f217c97b3768212ed6d6692c0135e252387d61b98af28fecd9b02826040518080602001828103825283818151815260200191508051906020019060200280838360005b83811015611c29578181015183820152602001611c11565b505050509050019250505060405180910390a15050565b600a5460a060020a900460ff161515611ca3576040805160e560020a62461bcd02815260206004820152601660248201527f436f6e7472616374206973206e6f742070617573656400000000000000000000604482015290519081900360640190fd5b600a805474ff0000000000000000000000000000000000000000191690556040805142815290517faaa520fdd7d2c83061d632fa017b0432407e798818af63ea908589fceda39ab79181900360200190a1565b600a5460a060020a900460ff1615611d58576040805160e560020a62461bcd02815260206004820152601260248201527f436f6e7472616374206973207061757365640000000000000000000000000000604482015290519081900360640190fd5b600a805474ff0000000000000000000000000000000000000000191660a060020a1790556040805142815290517f68b095021b1f40fe513109f513c66692f0b3219aee674a69f4efc57badb8201d9181900360200190a1565b600a54604080517f23b872dd000000000000000000000000000000000000000000000000000000008152600160a060020a038681166004830152858116602483015260448201859052915191909216916323b872dd9160648083019260209291908290030181600087803b158015611e2857600080fd5b505af1158015611e3c573d6000803e3d6000fd5b505050506040513d6020811015611e5257600080fd5b5050505050565b6000600160a060020a0383161515611ee0576040805160e560020a62461bcd028152602060048201526024808201527f42656e656669636961727920616464726573732073686f756c64206e6f74206260448201527f6520307800000000000000000000000000000000000000000000000000000000606482015290519081900360840190fd5b811515611f5d576040805160e560020a62461bcd02815260206004820152602860248201527f416d6f756e7420696e7665737465642073686f756c64206e6f7420626520657160448201527f75616c20746f2030000000000000000000000000000000000000000000000000606482015290519081900360840190fd5b611f668261208d565b50600c5460075491925090611f81908363ffffffff6121ad16565b1115611ffd576040805160e560020a62461bcd02815260206004820152602760248201527f496e766573746d656e74206d6f7265207468616e20636170206973206e6f742060448201527f616c6c6f77656400000000000000000000000000000000000000000000000000606482015290519081900360840190fd5b600254421015801561201157506003544211155b1515611642576040805160e560020a62461bcd02815260206004820152602260248201527f4f66666572696e6720697320636c6f7365642f4e6f742079657420737461727460448201527f6564000000000000000000000000000000000000000000000000000000000000606482015290519081900360840190fd5b60008060006120a7600b548561222f90919063ffffffff16565b92506120c183670de0b6b3a764000063ffffffff61225816565b9250600960009054906101000a9004600160a060020a0316600160a060020a031663556f0dc76040518163ffffffff1660e060020a028152600401602060405180830381600087803b15801561211657600080fd5b505af115801561212a573d6000803e3d6000fd5b505050506040513d602081101561214057600080fd5b50519050612154838263ffffffff61225816565b9250612166838263ffffffff61222f16565b600b549093506121a5906121989061218c86670de0b6b3a764000063ffffffff61222f16565b9063ffffffff61225816565b859063ffffffff611a0416565b915050915091565b81810182811015611a1557fe5b600160a060020a0382166000908152600d602052604090205415156121e3576005805460010190555b600160a060020a0382166000908152600d602052604090205461220c908263ffffffff6121ad16565b600160a060020a0383166000908152600d6020526040902055611a90828261226d565b600082151561224057506000611a15565b5081810281838281151561225057fe5b0414611a1557fe5b6000818381151561226557fe5b049392505050565b600954604080517f40c10f19000000000000000000000000000000000000000000000000000000008152600160a060020a03858116600483015260248201859052915191909216916340c10f199160448083019260209291908290030181600087803b1580156122dc57600080fd5b505af11580156122f0573d6000803e3d6000fd5b505050506040513d602081101561230657600080fd5b50511515611a90576040805160e560020a62461bcd02815260206004820152601b60248201527f4572726f7220696e206d696e74696e672074686520746f6b656e730000000000604482015290519081900360640190fd00ada5013122d395ba3c54772283fb069b10426056ef8ca54750cb9bb552a59e7d53656e646572206973206e6f74206f776e657200000000000000000000000000a165627a7a72305820017efbaf3e96131ba54768c7c5402b8104933638e81b17518d7951bd9746ccf30029",
  "source": "pragma solidity ^0.4.24;\n\nimport \"./ISTO.sol\";\nimport \"../../interfaces/ISecurityToken.sol\";\nimport \"openzeppelin-solidity/contracts/ReentrancyGuard.sol\";\nimport \"openzeppelin-solidity/contracts/math/SafeMath.sol\";\n\n/**\n * @title STO module for standard capped crowdsale\n */\ncontract CappedSTO is ISTO, ReentrancyGuard {\n    using SafeMath for uint256;\n\n    // Determine whether users can invest on behalf of a beneficiary\n    bool public allowBeneficialInvestments = false;\n    // How many token units a buyer gets (multiplied by 10^18) per wei / base unit of POLY\n    // If rate is 10^18, buyer will get 1 token unit for every wei / base unit of poly.\n    uint256 public rate;\n    //How many token base units this STO will be allowed to sell to investors\n    // 1 full token = 10^decimals_of_token base units\n    uint256 public cap;\n\n    mapping (address => uint256) public investors;\n\n    /**\n    * Event for token purchase logging\n    * @param purchaser who paid for the tokens\n    * @param beneficiary who got the tokens\n    * @param value weis paid for purchase\n    * @param amount amount of tokens purchased\n    */\n    event TokenPurchase(address indexed purchaser, address indexed beneficiary, uint256 value, uint256 amount);\n\n    event SetAllowBeneficialInvestments(bool _allowed);\n\n    constructor (address _securityToken, address _polyAddress) public\n    Module(_securityToken, _polyAddress)\n    {\n    }\n\n    //////////////////////////////////\n    /**\n    * @notice fallback function ***DO NOT OVERRIDE***\n    */\n    function () external payable {\n        buyTokens(msg.sender);\n    }\n\n    /**\n     * @notice Function used to intialize the contract variables\n     * @param _startTime Unix timestamp at which offering get started\n     * @param _endTime Unix timestamp at which offering get ended\n     * @param _cap Maximum No. of token base units for sale\n     * @param _rate Token units a buyer gets multiplied by 10^18 per wei / base unit of POLY \n     * @param _fundRaiseTypes Type of currency used to collect the funds\n     * @param _fundsReceiver Ethereum account address to hold the funds\n     */\n    function configure(\n        uint256 _startTime,\n        uint256 _endTime,\n        uint256 _cap,\n        uint256 _rate,\n        FundRaiseType[] _fundRaiseTypes,\n        address _fundsReceiver\n    )\n    public\n    onlyFactory\n    {\n        require(endTime == 0, \"Already configured\");\n        require(_rate > 0, \"Rate of token should be greater than 0\");\n        require(_fundsReceiver != address(0), \"Zero address is not permitted\");\n        /*solium-disable-next-line security/no-block-members*/\n        require(_startTime >= now && _endTime > _startTime, \"Date parameters are not valid\");\n        require(_cap > 0, \"Cap should be greater than 0\");\n        require(_fundRaiseTypes.length == 1, \"It only selects single fund raise type\");\n        startTime = _startTime;\n        endTime = _endTime;\n        cap = _cap;\n        rate = _rate;\n        wallet = _fundsReceiver;\n        _setFundRaiseType(_fundRaiseTypes);\n    }\n\n    /**\n     * @notice This function returns the signature of configure function\n     */\n    function getInitFunction() public pure returns (bytes4) {\n        return bytes4(keccak256(\"configure(uint256,uint256,uint256,uint256,uint8[],address)\"));\n    }\n\n    /**\n     * @notice Function to set allowBeneficialInvestments (allow beneficiary to be different to funder)\n     * @param _allowBeneficialInvestments Boolean to allow or disallow beneficial investments\n     */\n    function changeAllowBeneficialInvestments(bool _allowBeneficialInvestments) public onlyOwner {\n        require(_allowBeneficialInvestments != allowBeneficialInvestments, \"Does not change value\");\n        allowBeneficialInvestments = _allowBeneficialInvestments;\n        emit SetAllowBeneficialInvestments(allowBeneficialInvestments);\n    }\n\n    /**\n      * @notice Low level token purchase ***DO NOT OVERRIDE***\n      * @param _beneficiary Address performing the token purchase\n      */\n    function buyTokens(address _beneficiary) public payable nonReentrant {\n        if (!allowBeneficialInvestments) {\n            require(_beneficiary == msg.sender, \"Beneficiary address does not match msg.sender\");\n        }\n\n        require(!paused, \"Should not be paused\");\n        require(fundRaiseTypes[uint8(FundRaiseType.ETH)], \"Mode of investment is not ETH\");\n\n        uint256 weiAmount = msg.value;\n        uint256 refund = _processTx(_beneficiary, weiAmount);\n        weiAmount = weiAmount.sub(refund);\n\n        _forwardFunds(refund);\n        _postValidatePurchase(_beneficiary, weiAmount);\n    }\n\n    /**\n      * @notice low level token purchase\n      * @param _investedPOLY Amount of POLY invested\n      */\n    function buyTokensWithPoly(uint256 _investedPOLY) public nonReentrant{\n        require(!paused, \"Should not be paused\");\n        require(fundRaiseTypes[uint8(FundRaiseType.POLY)], \"Mode of investment is not POLY\");\n        uint256 refund = _processTx(msg.sender, _investedPOLY);\n        _forwardPoly(msg.sender, wallet, _investedPOLY.sub(refund));\n        _postValidatePurchase(msg.sender, _investedPOLY.sub(refund));\n    }\n\n    /**\n    * @notice Checks whether the cap has been reached.\n    * @return bool Whether the cap was reached\n    */\n    function capReached() public view returns (bool) {\n        return totalTokensSold >= cap;\n    }\n\n    /**\n     * @notice Return the total no. of tokens sold\n     */\n    function getTokensSold() public view returns (uint256) {\n        return totalTokensSold;\n    }\n\n    /**\n     * @notice Return the permissions flag that are associated with STO\n     */\n    function getPermissions() public view returns(bytes32[]) {\n        bytes32[] memory allPermissions = new bytes32[](0);\n        return allPermissions;\n    }\n\n    /**\n     * @notice Return the STO details\n     * @return Unixtimestamp at which offering gets start.\n     * @return Unixtimestamp at which offering ends.\n     * @return Number of token base units this STO will be allowed to sell to investors.\n     * @return Token units a buyer gets(multiplied by 10^18) per wei / base unit of POLY\n     * @return Amount of funds raised\n     * @return Number of individual investors this STO have.\n     * @return Amount of tokens get sold. \n     * @return Boolean value to justify whether the fund raise type is POLY or not, i.e true for POLY.\n     */\n    function getSTODetails() public view returns(uint256, uint256, uint256, uint256, uint256, uint256, uint256, bool) {\n        return (\n            startTime,\n            endTime,\n            cap,\n            rate,\n            (fundRaiseTypes[uint8(FundRaiseType.POLY)]) ? fundsRaised[uint8(FundRaiseType.POLY)]: fundsRaised[uint8(FundRaiseType.ETH)],\n            investorCount,\n            totalTokensSold,\n            (fundRaiseTypes[uint8(FundRaiseType.POLY)])\n        );\n    }\n\n    // -----------------------------------------\n    // Internal interface (extensible)\n    // -----------------------------------------\n    /**\n      * Processing the purchase as well as verify the required validations\n      * @param _beneficiary Address performing the token purchase\n      * @param _investedAmount Value in wei involved in the purchase\n    */\n    function _processTx(address _beneficiary, uint256 _investedAmount) internal returns(uint256 refund) {\n\n        _preValidatePurchase(_beneficiary, _investedAmount);\n        // calculate token amount to be created\n        uint256 tokens;\n        (tokens, refund) = _getTokenAmount(_investedAmount);\n        _investedAmount = _investedAmount.sub(refund);\n\n        // update state\n        if (fundRaiseTypes[uint8(FundRaiseType.POLY)]) {\n            fundsRaised[uint8(FundRaiseType.POLY)] = fundsRaised[uint8(FundRaiseType.POLY)].add(_investedAmount);\n        } else {\n            fundsRaised[uint8(FundRaiseType.ETH)] = fundsRaised[uint8(FundRaiseType.ETH)].add(_investedAmount);\n        }\n        totalTokensSold = totalTokensSold.add(tokens);\n\n        _processPurchase(_beneficiary, tokens);\n        emit TokenPurchase(msg.sender, _beneficiary, _investedAmount, tokens);\n\n        _updatePurchasingState(_beneficiary, _investedAmount);\n    }\n\n    /**\n    * @notice Validation of an incoming purchase.\n      Use require statements to revert state when conditions are not met. Use super to concatenate validations.\n    * @param _beneficiary Address performing the token purchase\n    * @param _investedAmount Value in wei involved in the purchase\n    */\n    function _preValidatePurchase(address _beneficiary, uint256 _investedAmount) internal view {\n        require(_beneficiary != address(0), \"Beneficiary address should not be 0x\");\n        require(_investedAmount != 0, \"Amount invested should not be equal to 0\");\n        uint256 tokens;\n        (tokens, ) = _getTokenAmount(_investedAmount);\n        require(totalTokensSold.add(tokens) <= cap, \"Investment more than cap is not allowed\");\n        /*solium-disable-next-line security/no-block-members*/\n        require(now >= startTime && now <= endTime, \"Offering is closed/Not yet started\");\n    }\n\n    /**\n    * @notice Validation of an executed purchase.\n      Observe state and use revert statements to undo rollback when valid conditions are not met.\n    */\n    function _postValidatePurchase(address /*_beneficiary*/, uint256 /*_investedAmount*/) internal pure {\n      // optional override\n    }\n\n    /**\n    * @notice Source of tokens.\n      Override this method to modify the way in which the crowdsale ultimately gets and sends its tokens.\n    * @param _beneficiary Address performing the token purchase\n    * @param _tokenAmount Number of tokens to be emitted\n    */\n    function _deliverTokens(address _beneficiary, uint256 _tokenAmount) internal {\n        require(ISecurityToken(securityToken).mint(_beneficiary, _tokenAmount), \"Error in minting the tokens\");\n    }\n\n    /**\n    * @notice Executed when a purchase has been validated and is ready to be executed. Not necessarily emits/sends tokens.\n    * @param _beneficiary Address receiving the tokens\n    * @param _tokenAmount Number of tokens to be purchased\n    */\n    function _processPurchase(address _beneficiary, uint256 _tokenAmount) internal {\n        if (investors[_beneficiary] == 0) {\n            investorCount = investorCount + 1;\n        }\n        investors[_beneficiary] = investors[_beneficiary].add(_tokenAmount);\n\n        _deliverTokens(_beneficiary, _tokenAmount);\n    }\n\n    /**\n    * @notice Overrides for extensions that require an internal state to check for validity\n      (current user contributions, etc.)\n    */\n    function _updatePurchasingState(address /*_beneficiary*/, uint256 /*_investedAmount*/) internal pure {\n      // optional override\n    }\n\n    /**\n    * @notice Overrides to extend the way in which ether is converted to tokens.\n    * @param _investedAmount Value in wei to be converted into tokens\n    * @return Number of tokens that can be purchased with the specified _investedAmount\n    * @return Remaining amount that should be refunded to the investor\n    */\n    function _getTokenAmount(uint256 _investedAmount) internal view returns (uint256 _tokens, uint256 _refund) {\n        _tokens = _investedAmount.mul(rate);\n        _tokens = _tokens.div(uint256(10) ** 18);\n        uint256 granularity = ISecurityToken(securityToken).granularity();\n        _tokens = _tokens.div(granularity);\n        _tokens = _tokens.mul(granularity);\n        _refund = _investedAmount.sub((_tokens.mul(uint256(10) ** 18)).div(rate));\n    }\n\n    /**\n    * @notice Determines how ETH is stored/forwarded on purchases.\n    */\n    function _forwardFunds(uint256 _refund) internal {\n        wallet.transfer(msg.value.sub(_refund));\n        msg.sender.transfer(_refund);\n    }\n\n    /**\n     * @notice Internal function used to forward the POLY raised to beneficiary address\n     * @param _beneficiary Address of the funds reciever\n     * @param _to Address who wants to ST-20 tokens\n     * @param _fundsAmount Amount invested by _to\n     */\n    function _forwardPoly(address _beneficiary, address _to, uint256 _fundsAmount) internal {\n        polyToken.transferFrom(_beneficiary, _to, _fundsAmount);\n    }\n\n}\n",
  "sourcePath": "/Users/polymath/polymath-core/contracts/modules/STO/CappedSTO.sol",
  "compiler": {
    "name": "solc",
    "version": "0.4.24+commit.e67f0147.Emscripten.clang"
  },
  "schemaVersion": "2.0.1",
  "updatedAt": "2019-01-08T14:53:24.971Z"
}