{
  "contractName": "ERC20DividendCheckpoint",
  "abi": [
    {
      "constant": false,
      "inputs": [
        {
          "name": "_investors",
          "type": "address[]"
        },
        {
          "name": "_withholding",
          "type": "uint256"
        }
      ],
      "name": "setWithholdingFixed",
      "outputs": [],
      "payable": false,
      "stateMutability": "nonpayable",
      "type": "function"
    },
    {
      "constant": true,
      "inputs": [],
      "name": "EXCLUDED_ADDRESS_LIMIT",
      "outputs": [
        {
          "name": "",
          "type": "uint256"
        }
      ],
      "payable": false,
      "stateMutability": "view",
      "type": "function"
    },
    {
      "constant": true,
      "inputs": [],
      "name": "getInitFunction",
      "outputs": [
        {
          "name": "",
          "type": "bytes4"
        }
      ],
      "payable": false,
      "stateMutability": "pure",
      "type": "function"
    },
    {
      "constant": false,
      "inputs": [
        {
          "name": "_dividendIndex",
          "type": "uint256"
        }
      ],
      "name": "pullDividendPayment",
      "outputs": [],
      "payable": false,
      "stateMutability": "nonpayable",
      "type": "function"
    },
    {
      "constant": true,
      "inputs": [],
      "name": "CHECKPOINT",
      "outputs": [
        {
          "name": "",
          "type": "bytes32"
        }
      ],
      "payable": false,
      "stateMutability": "view",
      "type": "function"
    },
    {
      "constant": true,
      "inputs": [
        {
          "name": "",
          "type": "address"
        }
      ],
      "name": "investorWithheld",
      "outputs": [
        {
          "name": "",
          "type": "uint256"
        }
      ],
      "payable": false,
      "stateMutability": "view",
      "type": "function"
    },
    {
      "constant": false,
      "inputs": [
        {
          "name": "_dividendIndex",
          "type": "uint256"
        },
        {
          "name": "_payees",
          "type": "address[]"
        }
      ],
      "name": "pushDividendPaymentToAddresses",
      "outputs": [],
      "payable": false,
      "stateMutability": "nonpayable",
      "type": "function"
    },
    {
      "constant": true,
      "inputs": [
        {
          "name": "_dividendIndex",
          "type": "uint256"
        },
        {
          "name": "_payee",
          "type": "address"
        }
      ],
      "name": "calculateDividend",
      "outputs": [
        {
          "name": "",
          "type": "uint256"
        },
        {
          "name": "",
          "type": "uint256"
        }
      ],
      "payable": false,
      "stateMutability": "view",
      "type": "function"
    },
    {
      "constant": true,
      "inputs": [],
      "name": "MANAGE",
      "outputs": [
        {
          "name": "",
          "type": "bytes32"
        }
      ],
      "payable": false,
      "stateMutability": "view",
      "type": "function"
    },
    {
      "constant": true,
      "inputs": [
        {
          "name": "_checkpointId",
          "type": "uint256"
        }
      ],
      "name": "getDividendIndex",
      "outputs": [
        {
          "name": "",
          "type": "uint256[]"
        }
      ],
      "payable": false,
      "stateMutability": "view",
      "type": "function"
    },
    {
      "constant": false,
      "inputs": [
        {
          "name": "_amount",
          "type": "uint256"
        }
      ],
      "name": "takeFee",
      "outputs": [
        {
          "name": "",
          "type": "bool"
        }
      ],
      "payable": false,
      "stateMutability": "nonpayable",
      "type": "function"
    },
    {
      "constant": true,
      "inputs": [],
      "name": "polyToken",
      "outputs": [
        {
          "name": "",
          "type": "address"
        }
      ],
      "payable": false,
      "stateMutability": "view",
      "type": "function"
    },
    {
      "constant": true,
      "inputs": [
        {
          "name": "",
          "type": "address"
        }
      ],
      "name": "withholdingTax",
      "outputs": [
        {
          "name": "",
          "type": "uint256"
        }
      ],
      "payable": false,
      "stateMutability": "view",
      "type": "function"
    },
    {
      "constant": true,
      "inputs": [],
      "name": "DISTRIBUTE",
      "outputs": [
        {
          "name": "",
          "type": "bytes32"
        }
      ],
      "payable": false,
      "stateMutability": "view",
      "type": "function"
    },
    {
      "constant": true,
      "inputs": [
        {
          "name": "",
          "type": "uint256"
        }
      ],
      "name": "dividends",
      "outputs": [
        {
          "name": "checkpointId",
          "type": "uint256"
        },
        {
          "name": "created",
          "type": "uint256"
        },
        {
          "name": "maturity",
          "type": "uint256"
        },
        {
          "name": "expiry",
          "type": "uint256"
        },
        {
          "name": "amount",
          "type": "uint256"
        },
        {
          "name": "claimedAmount",
          "type": "uint256"
        },
        {
          "name": "totalSupply",
          "type": "uint256"
        },
        {
          "name": "reclaimed",
          "type": "bool"
        },
        {
          "name": "dividendWithheld",
          "type": "uint256"
        },
        {
          "name": "dividendWithheldReclaimed",
          "type": "uint256"
        },
        {
          "name": "name",
          "type": "bytes32"
        }
      ],
      "payable": false,
      "stateMutability": "view",
      "type": "function"
    },
    {
      "constant": false,
      "inputs": [
        {
          "name": "_investors",
          "type": "address[]"
        },
        {
          "name": "_withholding",
          "type": "uint256[]"
        }
      ],
      "name": "setWithholding",
      "outputs": [],
      "payable": false,
      "stateMutability": "nonpayable",
      "type": "function"
    },
    {
      "constant": true,
      "inputs": [
        {
          "name": "",
          "type": "uint256"
        }
      ],
      "name": "dividendTokens",
      "outputs": [
        {
          "name": "",
          "type": "address"
        }
      ],
      "payable": false,
      "stateMutability": "view",
      "type": "function"
    },
    {
      "constant": true,
      "inputs": [],
      "name": "securityToken",
      "outputs": [
        {
          "name": "",
          "type": "address"
        }
      ],
      "payable": false,
      "stateMutability": "view",
      "type": "function"
    },
    {
      "constant": true,
      "inputs": [
        {
          "name": "",
          "type": "uint256"
        }
      ],
      "name": "excluded",
      "outputs": [
        {
          "name": "",
          "type": "address"
        }
      ],
      "payable": false,
      "stateMutability": "view",
      "type": "function"
    },
    {
      "constant": true,
      "inputs": [],
      "name": "getPermissions",
      "outputs": [
        {
          "name": "",
          "type": "bytes32[]"
        }
      ],
      "payable": false,
      "stateMutability": "view",
      "type": "function"
    },
    {
      "constant": true,
      "inputs": [],
      "name": "factory",
      "outputs": [
        {
          "name": "",
          "type": "address"
        }
      ],
      "payable": false,
      "stateMutability": "view",
      "type": "function"
    },
    {
      "constant": false,
      "inputs": [
        {
          "name": "_excluded",
          "type": "address[]"
        }
      ],
      "name": "setDefaultExcluded",
      "outputs": [],
      "payable": false,
      "stateMutability": "nonpayable",
      "type": "function"
    },
    {
      "constant": true,
      "inputs": [],
      "name": "FEE_ADMIN",
      "outputs": [
        {
          "name": "",
          "type": "bytes32"
        }
      ],
      "payable": false,
      "stateMutability": "view",
      "type": "function"
    },
    {
      "constant": false,
      "inputs": [
        {
          "name": "_dividendIndex",
          "type": "uint256"
        },
        {
          "name": "_start",
          "type": "uint256"
        },
        {
          "name": "_iterations",
          "type": "uint256"
        }
      ],
      "name": "pushDividendPayment",
      "outputs": [],
      "payable": false,
      "stateMutability": "nonpayable",
      "type": "function"
    },
    {
      "constant": true,
      "inputs": [],
      "name": "getDefaultExcluded",
      "outputs": [
        {
          "name": "",
          "type": "address[]"
        }
      ],
      "payable": false,
      "stateMutability": "view",
      "type": "function"
    },
    {
      "constant": false,
      "inputs": [],
      "name": "createCheckpoint",
      "outputs": [
        {
          "name": "",
          "type": "uint256"
        }
      ],
      "payable": false,
      "stateMutability": "nonpayable",
      "type": "function"
    },
    {
      "inputs": [
        {
          "name": "_securityToken",
          "type": "address"
        },
        {
          "name": "_polyAddress",
          "type": "address"
        }
      ],
      "payable": false,
      "stateMutability": "nonpayable",
      "type": "constructor"
    },
    {
      "anonymous": false,
      "inputs": [
        {
          "indexed": true,
          "name": "_depositor",
          "type": "address"
        },
        {
          "indexed": false,
          "name": "_checkpointId",
          "type": "uint256"
        },
        {
          "indexed": false,
          "name": "_created",
          "type": "uint256"
        },
        {
          "indexed": false,
          "name": "_maturity",
          "type": "uint256"
        },
        {
          "indexed": false,
          "name": "_expiry",
          "type": "uint256"
        },
        {
          "indexed": true,
          "name": "_token",
          "type": "address"
        },
        {
          "indexed": false,
          "name": "_amount",
          "type": "uint256"
        },
        {
          "indexed": false,
          "name": "_totalSupply",
          "type": "uint256"
        },
        {
          "indexed": false,
          "name": "_dividendIndex",
          "type": "uint256"
        },
        {
          "indexed": true,
          "name": "_name",
          "type": "bytes32"
        }
      ],
      "name": "ERC20DividendDeposited",
      "type": "event"
    },
    {
      "anonymous": false,
      "inputs": [
        {
          "indexed": true,
          "name": "_payee",
          "type": "address"
        },
        {
          "indexed": false,
          "name": "_dividendIndex",
          "type": "uint256"
        },
        {
          "indexed": true,
          "name": "_token",
          "type": "address"
        },
        {
          "indexed": false,
          "name": "_amount",
          "type": "uint256"
        },
        {
          "indexed": false,
          "name": "_withheld",
          "type": "uint256"
        }
      ],
      "name": "ERC20DividendClaimed",
      "type": "event"
    },
    {
      "anonymous": false,
      "inputs": [
        {
          "indexed": true,
          "name": "_claimer",
          "type": "address"
        },
        {
          "indexed": false,
          "name": "_dividendIndex",
          "type": "uint256"
        },
        {
          "indexed": true,
          "name": "_token",
          "type": "address"
        },
        {
          "indexed": false,
          "name": "_claimedAmount",
          "type": "uint256"
        }
      ],
      "name": "ERC20DividendReclaimed",
      "type": "event"
    },
    {
      "anonymous": false,
      "inputs": [
        {
          "indexed": true,
          "name": "_claimer",
          "type": "address"
        },
        {
          "indexed": false,
          "name": "_dividendIndex",
          "type": "uint256"
        },
        {
          "indexed": true,
          "name": "_token",
          "type": "address"
        },
        {
          "indexed": false,
          "name": "_withheldAmount",
          "type": "uint256"
        }
      ],
      "name": "ERC20DividendWithholdingWithdrawn",
      "type": "event"
    },
    {
      "anonymous": false,
      "inputs": [
        {
          "indexed": false,
          "name": "_excluded",
          "type": "address[]"
        },
        {
          "indexed": false,
          "name": "_timestamp",
          "type": "uint256"
        }
      ],
      "name": "SetDefaultExcludedAddresses",
      "type": "event"
    },
    {
      "anonymous": false,
      "inputs": [
        {
          "indexed": false,
          "name": "_investors",
          "type": "address[]"
        },
        {
          "indexed": false,
          "name": "_withholding",
          "type": "uint256[]"
        },
        {
          "indexed": false,
          "name": "_timestamp",
          "type": "uint256"
        }
      ],
      "name": "SetWithholding",
      "type": "event"
    },
    {
      "anonymous": false,
      "inputs": [
        {
          "indexed": false,
          "name": "_investors",
          "type": "address[]"
        },
        {
          "indexed": false,
          "name": "_withholding",
          "type": "uint256"
        },
        {
          "indexed": false,
          "name": "_timestamp",
          "type": "uint256"
        }
      ],
      "name": "SetWithholdingFixed",
      "type": "event"
    },
    {
      "constant": false,
      "inputs": [
        {
          "name": "_maturity",
          "type": "uint256"
        },
        {
          "name": "_expiry",
          "type": "uint256"
        },
        {
          "name": "_token",
          "type": "address"
        },
        {
          "name": "_amount",
          "type": "uint256"
        },
        {
          "name": "_name",
          "type": "bytes32"
        }
      ],
      "name": "createDividend",
      "outputs": [],
      "payable": false,
      "stateMutability": "nonpayable",
      "type": "function"
    },
    {
      "constant": false,
      "inputs": [
        {
          "name": "_maturity",
          "type": "uint256"
        },
        {
          "name": "_expiry",
          "type": "uint256"
        },
        {
          "name": "_token",
          "type": "address"
        },
        {
          "name": "_amount",
          "type": "uint256"
        },
        {
          "name": "_checkpointId",
          "type": "uint256"
        },
        {
          "name": "_name",
          "type": "bytes32"
        }
      ],
      "name": "createDividendWithCheckpoint",
      "outputs": [],
      "payable": false,
      "stateMutability": "nonpayable",
      "type": "function"
    },
    {
      "constant": false,
      "inputs": [
        {
          "name": "_maturity",
          "type": "uint256"
        },
        {
          "name": "_expiry",
          "type": "uint256"
        },
        {
          "name": "_token",
          "type": "address"
        },
        {
          "name": "_amount",
          "type": "uint256"
        },
        {
          "name": "_excluded",
          "type": "address[]"
        },
        {
          "name": "_name",
          "type": "bytes32"
        }
      ],
      "name": "createDividendWithExclusions",
      "outputs": [],
      "payable": false,
      "stateMutability": "nonpayable",
      "type": "function"
    },
    {
      "constant": false,
      "inputs": [
        {
          "name": "_maturity",
          "type": "uint256"
        },
        {
          "name": "_expiry",
          "type": "uint256"
        },
        {
          "name": "_token",
          "type": "address"
        },
        {
          "name": "_amount",
          "type": "uint256"
        },
        {
          "name": "_checkpointId",
          "type": "uint256"
        },
        {
          "name": "_excluded",
          "type": "address[]"
        },
        {
          "name": "_name",
          "type": "bytes32"
        }
      ],
      "name": "createDividendWithCheckpointAndExclusions",
      "outputs": [],
      "payable": false,
      "stateMutability": "nonpayable",
      "type": "function"
    },
    {
      "constant": false,
      "inputs": [
        {
          "name": "_dividendIndex",
          "type": "uint256"
        }
      ],
      "name": "reclaimDividend",
      "outputs": [],
      "payable": false,
      "stateMutability": "nonpayable",
      "type": "function"
    },
    {
      "constant": false,
      "inputs": [
        {
          "name": "_dividendIndex",
          "type": "uint256"
        }
      ],
      "name": "withdrawWithholding",
      "outputs": [],
      "payable": false,
      "stateMutability": "nonpayable",
      "type": "function"
    }
  ],
  "bytecode": "0x6080604052603260015534801561001557600080fd5b506040516040806145d783398101604052805160209091015160078054600160a060020a03938416600160a060020a0319918216179091556006805482163317905560088054939092169216919091179055614561806100766000396000f30060806040526004361061017c5763ffffffff60e060020a6000350416630945812e81146101815780630a29f591146101da5780631613ec9d1461020157806322018ce71461024b57806330008b48146102bd578063333cffe5146102d557806335d806f8146102ed5780633f2e31651461030257806343647a62146103235780634d58e413146103975780635bea0e1c146103f15780635bf341c11461042e5780635daff64e146104435780635f7619a4146104ab5780636e742c77146104d75780636faa22a5146105075780637a3e23fd1461053857806380fef5af14610559578063814b3fe01461056e5780638596e6e6146105de57806395ec5bbe1461066c578063aa8b76ea14610684578063b7e1fd9b1461069c578063b84dfbd2146106c9578063bee2ddc2146106de578063c3a07df6146106f6578063c45a01551461070b578063cc1556dc14610720578063d70afa9614610775578063e1726faa1461078a578063f1e9d100146107a8578063ff0b9c90146107bd575b600080fd5b34801561018d57600080fd5b50604080516020600480358082013583810280860185019096528085526101d89536959394602494938501929182918501908490808284375094975050933594506107d29350505050565b005b3480156101e657600080fd5b506101ef610a94565b60408051918252519081900360200190f35b34801561020d57600080fd5b50610216610a9a565b604080517fffffffff000000000000000000000000000000000000000000000000000000009092168252519081900360200190f35b34801561025757600080fd5b5060408051602060046084358181013583810280860185019096528085526101d8958335956024803596604435600160a060020a031696606435963696919560a4959490910192829190850190849080828437509497505093359450610aa09350505050565b3480156102c957600080fd5b506101d8600435610cc2565b3480156102e157600080fd5b506101d8600435610fa2565b3480156102f957600080fd5b506101ef61139d565b34801561030e57600080fd5b506101ef600160a060020a03600435166113c1565b34801561032f57600080fd5b506040805160a435600481810135602081810285810182019096528185526101d8958335956024803596600160a060020a03604435169660643596608435963696929560c4959094019282918501908490808284375094975050933594506113d39350505050565b3480156103a357600080fd5b506040805160206004602480358281013584810280870186019097528086526101d8968435963696604495919490910192918291850190849080828437509497506115669650505050505050565b3480156103fd57600080fd5b50610415600435600160a060020a0360243516611989565b6040805192835260208301919091528051918290030190f35b34801561043a57600080fd5b506101ef611b6c565b34801561044f57600080fd5b5061045b600435611b7c565b60408051602080825283518183015283519192839290830191858101910280838360005b8381101561049757818101518382015260200161047f565b505050509050019250505060405180910390f35b3480156104b757600080fd5b506104c3600435611c61565b604080519115158252519081900360200190f35b3480156104e357600080fd5b506101d8600435602435600160a060020a036044351660643560843560a435611f79565b34801561051357600080fd5b5061051c612171565b60408051600160a060020a039092168252519081900360200190f35b34801561054457600080fd5b506101ef600160a060020a0360043516612180565b34801561056557600080fd5b506101ef612192565b34801561057a57600080fd5b506105866004356121a4565b604080519b8c5260208c019a909a528a8a019890985260608a0196909652608089019490945260a088019290925260c0870152151560e086015261010085015261012084015261014083015251908190036101600190f35b3480156105ea57600080fd5b50604080516020600480358082013583810280860185019096528085526101d895369593946024949385019291829185019084908082843750506040805187358901803560208181028481018201909552818452989b9a9989019892975090820195509350839250850190849080828437509497506122119650505050505050565b34801561067857600080fd5b5061051c600435612590565b34801561069057600080fd5b506101d86004356125ab565b3480156106a857600080fd5b506101d8600435602435600160a060020a0360443516606435608435612ab4565b3480156106d557600080fd5b5061051c612ca0565b3480156106ea57600080fd5b5061051c600435612caf565b34801561070257600080fd5b5061045b612cd7565b34801561071757600080fd5b5061051c612d52565b34801561072c57600080fd5b50604080516020600480358082013583810280860185019096528085526101d895369593946024949385019291829185019084908082843750949750612d619650505050505050565b34801561078157600080fd5b506101ef61312d565b34801561079657600080fd5b506101d8600435602435604435613151565b3480156107b457600080fd5b5061045b613650565b3480156107c957600080fd5b506101ef6136b2565b600060d060020a654d414e41474502600080600760009054906101000a9004600160a060020a0316600160a060020a0316638da5cb5b6040518163ffffffff1660e060020a028152600401602060405180830381600087803b15801561083757600080fd5b505af115801561084b573d6000803e3d6000fd5b505050506040513d602081101561086157600080fd5b505160065433600160a060020a0392831681149450911614905081806108845750805b8061091457506007546040805160e060020a638658b8b9028152336004820152306024820152604481018690529051600160a060020a0390921691638658b8b9916064808201926020929091908290030181600087803b1580156108e757600080fd5b505af11580156108fb573d6000803e3d6000fd5b505050506040513d602081101561091157600080fd5b50515b1515610958576040805160e560020a62461bcd0281526020600482015260176024820152600080516020614516833981519152604482015290519081900360640190fd5b670de0b6b3a76400008511156109b8576040805160e560020a62461bcd02815260206004820152601960248201527f496e636f72726563742077697468686f6c64696e672074617800000000000000604482015290519081900360640190fd5b7f3587f82979516528f7ce51509410f4d49aaed2fe4c2661c07a02cc17ea1410278686426040518080602001848152602001838152602001828103825285818151815260200191508051906020019060200280838360005b83811015610a28578181015183820152602001610a10565b5050505090500194505050505060405180910390a1600093505b8551841015610a8c5784600460008887815181101515610a5e57fe5b6020908102909101810151600160a060020a0316825281019190915260400160002055600190930192610a42565b505050505050565b60015481565b60005b90565b600060d060020a654d414e41474502600080600760009054906101000a9004600160a060020a0316600160a060020a0316638da5cb5b6040518163ffffffff1660e060020a028152600401602060405180830381600087803b158015610b0557600080fd5b505af1158015610b19573d6000803e3d6000fd5b505050506040513d6020811015610b2f57600080fd5b505160065433600160a060020a039283168114945091161490508180610b525750805b80610be257506007546040805160e060020a638658b8b9028152336004820152306024820152604481018690529051600160a060020a0390921691638658b8b9916064808201926020929091908290030181600087803b158015610bb557600080fd5b505af1158015610bc9573d6000803e3d6000fd5b505050506040513d6020811015610bdf57600080fd5b50515b1515610c26576040805160e560020a62461bcd0281526020600482015260176024820152600080516020614516833981519152604482015290519081900360640190fd5b600760009054906101000a9004600160a060020a0316600160a060020a031663ff0b9c906040518163ffffffff1660e060020a028152600401602060405180830381600087803b158015610c7957600080fd5b505af1158015610c8d573d6000803e3d6000fd5b505050506040513d6020811015610ca357600080fd5b50519350610cb68a8a8a8a888b8b6138d3565b50505050505050505050565b60025460009082908110610d0e576040805160e560020a62461bcd02815260206004820152601060248201526000805160206144d6833981519152604482015290519081900360640190fd5b6002805482908110610d1c57fe5b600091825260209091206007600d90920201015460ff1615610d88576040805160e560020a62461bcd02815260206004820152601260248201527f4469766964656e64207265636c61696d65640000000000000000000000000000604482015290519081900360640190fd5b6002805482908110610d9657fe5b90600052602060002090600d0201600201544210151515610e01576040805160e560020a62461bcd02815260206004820152601b60248201527f4469766964656e64206d6174757269747920696e206675747572650000000000604482015290519081900360640190fd5b6002805482908110610e0f57fe5b90600052602060002090600d02016003015442101515610e79576040805160e560020a62461bcd02815260206004820152601760248201527f4469766964656e642065787069727920696e2070617374000000000000000000604482015290519081900360640190fd5b6002805484908110610e8757fe5b60009182526020808320338452600a600d90930201918201905260409091205490925060ff1615610f02576040805160e560020a62461bcd02815260206004820152601860248201527f4469766964656e6420616c726561647920636c61696d65640000000000000000604482015290519081900360640190fd5b336000908152600b8301602052604090205460ff1615610f92576040805160e560020a62461bcd02815260206004820152602160248201527f6d73672e73656e646572206578636c756465642066726f6d204469766964656e60448201527f6400000000000000000000000000000000000000000000000000000000000000606482015290519081900360840190fd5b610f9d338385614127565b505050565b600080600060d060020a654d414e41474502600080600760009054906101000a9004600160a060020a0316600160a060020a0316638da5cb5b6040518163ffffffff1660e060020a028152600401602060405180830381600087803b15801561100a57600080fd5b505af115801561101e573d6000803e3d6000fd5b505050506040513d602081101561103457600080fd5b505160065433600160a060020a0392831681149450911614905081806110575750805b806110e757506007546040805160e060020a638658b8b9028152336004820152306024820152604481018690529051600160a060020a0390921691638658b8b9916064808201926020929091908290030181600087803b1580156110ba57600080fd5b505af11580156110ce573d6000803e3d6000fd5b505050506040513d60208110156110e457600080fd5b50515b151561112b576040805160e560020a62461bcd0281526020600482015260176024820152600080516020614516833981519152604482015290519081900360640190fd5b6002548710611172576040805160e560020a62461bcd02815260206004820152601060248201526000805160206144d6833981519152604482015290519081900360640190fd5b600280548890811061118057fe5b90600052602060002090600d020195506111ab8660090154876008015461434d90919063ffffffff16565b60088701546009880155600754604080517f8da5cb5b0000000000000000000000000000000000000000000000000000000081529051929750600160a060020a0390911691638da5cb5b916004808201926020929091908290030181600087803b15801561121857600080fd5b505af115801561122c573d6000803e3d6000fd5b505050506040513d602081101561124257600080fd5b50516000888152602081815260408083205481517fa9059cbb000000000000000000000000000000000000000000000000000000008152600160a060020a038087166004830152602482018c9052925195995091169363a9059cbb93604480840194938390030190829087803b1580156112bb57600080fd5b505af11580156112cf573d6000803e3d6000fd5b505050506040513d60208110156112e557600080fd5b5051151561133d576040805160e560020a62461bcd02815260206004820152600f60248201527f7472616e73666572206661696c65640000000000000000000000000000000000604482015290519081900360640190fd5b600087815260208181526040918290205482518a81529182018890528251600160a060020a0391821693918816927f31342482aee689b025c9cbe348134fefee05df6d6ac65a91dd6b0abdf454539f92908290030190a350505050505050565b7f434845434b504f494e540000000000000000000000000000000000000000000081565b60056020526000908152604090205481565b60d060020a654d414e41474502600080600760009054906101000a9004600160a060020a0316600160a060020a0316638da5cb5b6040518163ffffffff1660e060020a028152600401602060405180830381600087803b15801561143657600080fd5b505af115801561144a573d6000803e3d6000fd5b505050506040513d602081101561146057600080fd5b505160065433600160a060020a0392831681149450911614905081806114835750805b8061151357506007546040805160e060020a638658b8b9028152336004820152306024820152604481018690529051600160a060020a0390921691638658b8b9916064808201926020929091908290030181600087803b1580156114e657600080fd5b505af11580156114fa573d6000803e3d6000fd5b505050506040513d602081101561151057600080fd5b50515b1515611557576040805160e560020a62461bcd0281526020600482015260176024820152600080516020614516833981519152604482015290519081900360640190fd5b610cb68a8a8a8a8a8a8a6138d3565b6000806000805160206144f6833981519152600080600760009054906101000a9004600160a060020a0316600160a060020a0316638da5cb5b6040518163ffffffff1660e060020a028152600401602060405180830381600087803b1580156115ce57600080fd5b505af11580156115e2573d6000803e3d6000fd5b505050506040513d60208110156115f857600080fd5b505160065433600160a060020a03928316811494509116149050818061161b5750805b806116ab57506007546040805160e060020a638658b8b9028152336004820152306024820152604481018690529051600160a060020a0390921691638658b8b9916064808201926020929091908290030181600087803b15801561167e57600080fd5b505af1158015611692573d6000803e3d6000fd5b505050506040513d60208110156116a857600080fd5b50515b15156116ef576040805160e560020a62461bcd0281526020600482015260176024820152600080516020614516833981519152604482015290519081900360640190fd5b60025487908110611738576040805160e560020a62461bcd02815260206004820152601060248201526000805160206144d6833981519152604482015290519081900360640190fd5b600280548290811061174657fe5b600091825260209091206007600d90920201015460ff16156117b2576040805160e560020a62461bcd02815260206004820152601260248201527f4469766964656e64207265636c61696d65640000000000000000000000000000604482015290519081900360640190fd5b60028054829081106117c057fe5b90600052602060002090600d020160020154421015151561182b576040805160e560020a62461bcd02815260206004820152601b60248201527f4469766964656e64206d6174757269747920696e206675747572650000000000604482015290519081900360640190fd5b600280548290811061183957fe5b90600052602060002090600d020160030154421015156118a3576040805160e560020a62461bcd02815260206004820152601760248201527f4469766964656e642065787069727920696e2070617374000000000000000000604482015290519081900360640190fd5b60028054899081106118b157fe5b90600052602060002090600d02019550600094505b865185101561197f5785600a01600088878151811015156118e357fe5b6020908102909101810151600160a060020a031682528101919091526040016000205460ff1615801561194d575085600b016000888781518110151561192557fe5b6020908102909101810151600160a060020a031682528101919091526040016000205460ff16155b1561197457611974878681518110151561196357fe5b90602001906020020151878a614127565b6001909401936118c6565b5050505050505050565b600080600080600080600280549050881015156119de576040805160e560020a62461bcd02815260206004820152601060248201526000805160206144d6833981519152604482015290519081900360640190fd5b60028054899081106119ec57fe5b60009182526020808320600160a060020a038b168452600a600d90930201918201905260409091205490945060ff1680611a405750600160a060020a0387166000908152600b8501602052604090205460ff165b15611a515760009550859450611b61565b6007548454604080517f4ee2cd7e000000000000000000000000000000000000000000000000000000008152600160a060020a038b81166004830152602482019390935290519190921691634ee2cd7e9160448083019260209291908290030181600087803b158015611ac357600080fd5b505af1158015611ad7573d6000803e3d6000fd5b505050506040513d6020811015611aed57600080fd5b505160068501546004860154919450611b1d91611b1190869063ffffffff61436416565b9063ffffffff61438d16565b600160a060020a038816600090815260046020526040902054909250611b5890670de0b6b3a764000090611b1190859063ffffffff61436416565b90508181955095505b505050509250929050565b60d060020a654d414e4147450281565b606060008082815b600254831015611bc85785600284815481101515611b9e57fe5b90600052602060002090600d0201600001541415611bbd576001909301925b600190920191611b84565b83604051908082528060200260200182016040528015611bf2578160200160208202803883390190505b50915060009350600090505b600254811015611c585785600282815481101515611c1857fe5b90600052602060002090600d0201600001541415611c5057808285815181101515611c3f57fe5b602090810290910101526001909301925b600101611bfe565b50949350505050565b60007f4645455f41444d494e0000000000000000000000000000000000000000000000600080600760009054906101000a9004600160a060020a0316600160a060020a0316638da5cb5b6040518163ffffffff1660e060020a028152600401602060405180830381600087803b158015611cda57600080fd5b505af1158015611cee573d6000803e3d6000fd5b505050506040513d6020811015611d0457600080fd5b505160065433600160a060020a039283168114945091161490508180611d275750805b80611db757506007546040805160e060020a638658b8b9028152336004820152306024820152604481018690529051600160a060020a0390921691638658b8b9916064808201926020929091908290030181600087803b158015611d8a57600080fd5b505af1158015611d9e573d6000803e3d6000fd5b505050506040513d6020811015611db457600080fd5b50515b1515611dfb576040805160e560020a62461bcd0281526020600482015260176024820152600080516020614516833981519152604482015290519081900360640190fd5b600854600754600654604080517f8da5cb5b0000000000000000000000000000000000000000000000000000000081529051600160a060020a03948516946323b872dd948116931691638da5cb5b9160048083019260209291908290030181600087803b158015611e6b57600080fd5b505af1158015611e7f573d6000803e3d6000fd5b505050506040513d6020811015611e9557600080fd5b50516040805160e060020a63ffffffff8616028152600160a060020a039384166004820152929091166024830152604482018990525160648083019260209291908290030181600087803b158015611eec57600080fd5b505af1158015611f00573d6000803e3d6000fd5b505050506040513d6020811015611f1657600080fd5b50511515611f6e576040805160e560020a62461bcd02815260206004820152601260248201527f556e61626c6520746f2074616b65206665650000000000000000000000000000604482015290519081900360640190fd5b506001949350505050565b60d060020a654d414e41474502600080600760009054906101000a9004600160a060020a0316600160a060020a0316638da5cb5b6040518163ffffffff1660e060020a028152600401602060405180830381600087803b158015611fdc57600080fd5b505af1158015611ff0573d6000803e3d6000fd5b505050506040513d602081101561200657600080fd5b505160065433600160a060020a0392831681149450911614905081806120295750805b806120b957506007546040805160e060020a638658b8b9028152336004820152306024820152604481018690529051600160a060020a0390921691638658b8b9916064808201926020929091908290030181600087803b15801561208c57600080fd5b505af11580156120a0573d6000803e3d6000fd5b505050506040513d60208110156120b657600080fd5b50515b15156120fd576040805160e560020a62461bcd0281526020600482015260176024820152600080516020614516833981519152604482015290519081900360640190fd5b6121668989898989600380548060200260200160405190810160405280929190818152602001828054801561215b57602002820191906000526020600020905b8154600160a060020a0316815260019091019060200180831161213d575b50505050508a6138d3565b505050505050505050565b600854600160a060020a031681565b60046020526000908152604090205481565b6000805160206144f683398151915281565b60028054829081106121b257fe5b60009182526020909120600d9091020180546001820154600283015460038401546004850154600586015460068701546007880154600889015460098a0154600c909a0154989a5096989597949693959294919360ff9091169290918b565b600060d060020a654d414e41474502600080600760009054906101000a9004600160a060020a0316600160a060020a0316638da5cb5b6040518163ffffffff1660e060020a028152600401602060405180830381600087803b15801561227657600080fd5b505af115801561228a573d6000803e3d6000fd5b505050506040513d60208110156122a057600080fd5b505160065433600160a060020a0392831681149450911614905081806122c35750805b8061235357506007546040805160e060020a638658b8b9028152336004820152306024820152604481018690529051600160a060020a0390921691638658b8b9916064808201926020929091908290030181600087803b15801561232657600080fd5b505af115801561233a573d6000803e3d6000fd5b505050506040513d602081101561235057600080fd5b50515b1515612397576040805160e560020a62461bcd0281526020600482015260176024820152600080516020614516833981519152604482015290519081900360640190fd5b84518651146123f0576040805160e560020a62461bcd02815260206004820152601860248201527f4d69736d61746368656420696e707574206c656e677468730000000000000000604482015290519081900360640190fd5b7f8e6f19b496a634d6fb5faea10ece2675995b6f7a0946a7509885eb76889e1213868642604051808060200180602001848152602001838103835286818151815260200191508051906020019060200280838360005b8381101561245e578181015183820152602001612446565b50505050905001838103825285818151815260200191508051906020019060200280838360005b8381101561249d578181015183820152602001612485565b505050509050019550505050505060405180910390a1600093505b8551841015610a8c57670de0b6b3a764000085858151811015156124d857fe5b602090810290910101511115612538576040805160e560020a62461bcd02815260206004820152601960248201527f496e636f72726563742077697468686f6c64696e672074617800000000000000604482015290519081900360640190fd5b848481518110151561254657fe5b9060200190602002015160046000888781518110151561256257fe5b6020908102909101810151600160a060020a03168252810191909152604001600020556001909301926124b8565b600060208190529081526040902054600160a060020a031681565b600080600060d060020a654d414e41474502600080600760009054906101000a9004600160a060020a0316600160a060020a0316638da5cb5b6040518163ffffffff1660e060020a028152600401602060405180830381600087803b15801561261357600080fd5b505af1158015612627573d6000803e3d6000fd5b505050506040513d602081101561263d57600080fd5b505160065433600160a060020a0392831681149450911614905081806126605750805b806126f057506007546040805160e060020a638658b8b9028152336004820152306024820152604481018690529051600160a060020a0390921691638658b8b9916064808201926020929091908290030181600087803b1580156126c357600080fd5b505af11580156126d7573d6000803e3d6000fd5b505050506040513d60208110156126ed57600080fd5b50515b1515612734576040805160e560020a62461bcd0281526020600482015260176024820152600080516020614516833981519152604482015290519081900360640190fd5b600254871061277b576040805160e560020a62461bcd02815260206004820152601060248201526000805160206144d6833981519152604482015290519081900360640190fd5b600280548890811061278957fe5b90600052602060002090600d02016003015442101515156127f4576040805160e560020a62461bcd02815260206004820152601960248201527f4469766964656e642065787069727920696e2066757475726500000000000000604482015290519081900360640190fd5b600280548890811061280257fe5b600091825260209091206007600d90920201015460ff161561286e576040805160e560020a62461bcd02815260206004820152600f60248201527f616c726561647920636c61696d65640000000000000000000000000000000000604482015290519081900360640190fd5b600160028881548110151561287f57fe5b60009182526020909120600d90910201600701805460ff191691151591909117905560028054889081106128af57fe5b90600052602060002090600d020195506128da8660050154876004015461434d90919063ffffffff16565b9450600760009054906101000a9004600160a060020a0316600160a060020a0316638da5cb5b6040518163ffffffff1660e060020a028152600401602060405180830381600087803b15801561292f57600080fd5b505af1158015612943573d6000803e3d6000fd5b505050506040513d602081101561295957600080fd5b50516000888152602081815260408083205481517fa9059cbb000000000000000000000000000000000000000000000000000000008152600160a060020a038087166004830152602482018c9052925195995091169363a9059cbb93604480840194938390030190829087803b1580156129d257600080fd5b505af11580156129e6573d6000803e3d6000fd5b505050506040513d60208110156129fc57600080fd5b50511515612a54576040805160e560020a62461bcd02815260206004820152600f60248201527f7472616e73666572206661696c65640000000000000000000000000000000000604482015290519081900360640190fd5b600087815260208181526040918290205482518a81529182018890528251600160a060020a0391821693918816927f9766d0325a2a3c017f6cf974bfd1bd0b26e705570ce8250fe5e078a3e832d52d92908290030190a350505050505050565b60d060020a654d414e41474502600080600760009054906101000a9004600160a060020a0316600160a060020a0316638da5cb5b6040518163ffffffff1660e060020a028152600401602060405180830381600087803b158015612b1757600080fd5b505af1158015612b2b573d6000803e3d6000fd5b505050506040513d6020811015612b4157600080fd5b505160065433600160a060020a039283168114945091161490508180612b645750805b80612bf457506007546040805160e060020a638658b8b9028152336004820152306024820152604481018690529051600160a060020a0390921691638658b8b9916064808201926020929091908290030181600087803b158015612bc757600080fd5b505af1158015612bdb573d6000803e3d6000fd5b505050506040513d6020811015612bf157600080fd5b50515b1515612c38576040805160e560020a62461bcd0281526020600482015260176024820152600080516020614516833981519152604482015290519081900360640190fd5b61197f888888886003805480602002602001604051908101604052809291908181526020018280548015612c9557602002820191906000526020600020905b8154600160a060020a03168152600190910190602001808311612c77575b505050505089610aa0565b600754600160a060020a031681565b6003805482908110612cbd57fe5b600091825260209091200154600160a060020a0316905081565b6040805160028082526060808301845292839291906020830190803883390190505090506000805160206144f6833981519152816000815181101515612d1957fe5b60209081029091010152805160d060020a654d414e414745029082906001908110612d4057fe5b602090810290910101529050805b5090565b600654600160a060020a031681565b60008060d060020a654d414e41474502600080600760009054906101000a9004600160a060020a0316600160a060020a0316638da5cb5b6040518163ffffffff1660e060020a028152600401602060405180830381600087803b158015612dc757600080fd5b505af1158015612ddb573d6000803e3d6000fd5b505050506040513d6020811015612df157600080fd5b505160065433600160a060020a039283168114945091161490508180612e145750805b80612ea457506007546040805160e060020a638658b8b9028152336004820152306024820152604481018690529051600160a060020a0390921691638658b8b9916064808201926020929091908290030181600087803b158015612e7757600080fd5b505af1158015612e8b573d6000803e3d6000fd5b505050506040513d6020811015612ea157600080fd5b50515b1515612ee8576040805160e560020a62461bcd0281526020600482015260176024820152600080516020614516833981519152604482015290519081900360640190fd5b60015486511115612f43576040805160e560020a62461bcd02815260206004820152601b60248201527f546f6f206d616e79206578636c75646564206164647265737365730000000000604482015290519081900360640190fd5b600094505b8551851015613089578551600090879087908110612f6257fe5b60209081029091010151600160a060020a03161415612fcb576040805160e560020a62461bcd02815260206004820152600f60248201527f496e76616c696420616464726573730000000000000000000000000000000000604482015290519081900360640190fd5b8460010193505b855184101561307e578584815181101515612fe957fe5b90602001906020020151600160a060020a0316868681518110151561300a57fe5b60209081029091010151600160a060020a03161415613073576040805160e560020a62461bcd02815260206004820152601960248201527f4475706c6963617465206578636c756465206164647265737300000000000000604482015290519081900360640190fd5b600190930192612fd2565b600190940193612f48565b855161309c90600390602089019061443c565b507f6f7d61057c8835d8bd9272c926f638242a70f6441466ae91cd272872ed84151f6003426040518080602001838152602001828103825284818154815260200191508054801561311657602002820191906000526020600020905b8154600160a060020a031681526001909101906020018083116130f8575b5050935050505060405180910390a1505050505050565b7f4645455f41444d494e000000000000000000000000000000000000000000000081565b6000606060008060006000805160206144f6833981519152600080600760009054906101000a9004600160a060020a0316600160a060020a0316638da5cb5b6040518163ffffffff1660e060020a028152600401602060405180830381600087803b1580156131bf57600080fd5b505af11580156131d3573d6000803e3d6000fd5b505050506040513d60208110156131e957600080fd5b505160065433600160a060020a03928316811494509116149050818061320c5750805b8061329c57506007546040805160e060020a638658b8b9028152336004820152306024820152604481018690529051600160a060020a0390921691638658b8b9916064808201926020929091908290030181600087803b15801561326f57600080fd5b505af1158015613283573d6000803e3d6000fd5b505050506040513d602081101561329957600080fd5b50515b15156132e0576040805160e560020a62461bcd0281526020600482015260176024820152600080516020614516833981519152604482015290519081900360640190fd5b6002548b908110613329576040805160e560020a62461bcd02815260206004820152601060248201526000805160206144d6833981519152604482015290519081900360640190fd5b600280548290811061333757fe5b600091825260209091206007600d90920201015460ff16156133a3576040805160e560020a62461bcd02815260206004820152601260248201527f4469766964656e64207265636c61696d65640000000000000000000000000000604482015290519081900360640190fd5b60028054829081106133b157fe5b90600052602060002090600d020160020154421015151561341c576040805160e560020a62461bcd02815260206004820152601b60248201527f4469766964656e64206d6174757269747920696e206675747572650000000000604482015290519081900360640190fd5b600280548290811061342a57fe5b90600052602060002090600d02016003015442101515613494576040805160e560020a62461bcd02815260206004820152601760248201527f4469766964656e642065787069727920696e2070617374000000000000000000604482015290519081900360640190fd5b600280548d9081106134a257fe5b600091825260208220600754604080517fb2f5a54c0000000000000000000000000000000000000000000000000000000081529051600d9094029092019c50600160a060020a03169263b2f5a54c9260048084019382900301818387803b15801561350c57600080fd5b505af1158015613520573d6000803e3d6000fd5b505050506040513d6000823e601f3d908101601f19168201604052602081101561354957600080fd5b81019080805164010000000081111561356157600080fd5b8201602081018481111561357457600080fd5b815185602082028301116401000000008211171561359157600080fd5b50508051909b506135b6935091506135b190508d8d63ffffffff6143a216565b6143af565b96508a95505b868610156136425787868151811015156135d257fe5b6020908102909101810151600160a060020a0381166000908152600a8c0190925260409091205490955060ff161580156136275750600160a060020a0385166000908152600b8a01602052604090205460ff16155b1561363757613637858a8e614127565b6001909501946135bc565b505050505050505050505050565b606060038054806020026020016040519081016040528092919081815260200182805480156136a857602002820191906000526020600020905b8154600160a060020a0316815260019091019060200180831161368a575b5050505050905090565b60007f434845434b504f494e5400000000000000000000000000000000000000000000600080600760009054906101000a9004600160a060020a0316600160a060020a0316638da5cb5b6040518163ffffffff1660e060020a028152600401602060405180830381600087803b15801561372b57600080fd5b505af115801561373f573d6000803e3d6000fd5b505050506040513d602081101561375557600080fd5b505160065433600160a060020a0392831681149450911614905081806137785750805b8061380857506007546040805160e060020a638658b8b9028152336004820152306024820152604481018690529051600160a060020a0390921691638658b8b9916064808201926020929091908290030181600087803b1580156137db57600080fd5b505af11580156137ef573d6000803e3d6000fd5b505050506040513d602081101561380557600080fd5b50515b151561384c576040805160e560020a62461bcd0281526020600482015260176024820152600080516020614516833981519152604482015290519081900360640190fd5b600760009054906101000a9004600160a060020a0316600160a060020a031663ff0b9c906040518163ffffffff1660e060020a028152600401602060405180830381600087803b15801561389f57600080fd5b505af11580156138b3573d6000803e3d6000fd5b505050506040513d60208110156138c957600080fd5b5051935050505090565b6007546001548351600160a060020a03909216916000918291829182911115613946576040805160e560020a62461bcd02815260206004820152601b60248201527f546f6f206d616e7920616464726573736573206578636c756465640000000000604482015290519081900360640190fd5b8b8b1161399d576040805160e560020a62461bcd02815260206004820152601660248201527f457870697279206265666f7265206d6174757269747900000000000000000000604482015290519081900360640190fd5b428b116139f4576040805160e560020a62461bcd02815260206004820152600e60248201527f45787069727920696e2070617374000000000000000000000000000000000000604482015290519081900360640190fd5b60008911613a4c576040805160e560020a62461bcd02815260206004820152601060248201527f4e6f206469766964656e642073656e7400000000000000000000000000000000604482015290519081900360640190fd5b600160a060020a038a161515613aac576040805160e560020a62461bcd02815260206004820152600d60248201527f496e76616c696420746f6b656e00000000000000000000000000000000000000604482015290519081900360640190fd5b84600160a060020a0316635488cc806040518163ffffffff1660e060020a028152600401602060405180830381600087803b158015613aea57600080fd5b505af1158015613afe573d6000803e3d6000fd5b505050506040513d6020811015613b1457600080fd5b5051881115613b6d576040805160e560020a62461bcd02815260206004820152601260248201527f496e76616c696420636865636b706f696e740000000000000000000000000000604482015290519081900360640190fd5b604080517f23b872dd000000000000000000000000000000000000000000000000000000008152336004820152306024820152604481018b90529051600160a060020a038c16916323b872dd9160648083019260209291908290030181600087803b158015613bdb57600080fd5b505af1158015613bef573d6000803e3d6000fd5b505050506040513d6020811015613c0557600080fd5b50511515613c5d576040805160e560020a62461bcd02815260206004820152601560248201527f696e737566666963656e7420616c6c6f77616e63650000000000000000000000604482015290519081900360640190fd5b7fff000000000000000000000000000000000000000000000000000000000000007f0100000000000000000000000000000000000000000000000000000000000000600088901a02161515613cb157600080fd5b600280549050935084600160a060020a031663981b24d0896040518263ffffffff1660e060020a02815260040180828152602001915050602060405180830381600087803b158015613d0257600080fd5b505af1158015613d16573d6000803e3d6000fd5b505050506040513d6020811015613d2c57600080fd5b81019080805190602001909291905050509250600091506002610160604051908101604052808a81526020014281526020018e81526020018d81526020018b81526020016000815260200160008152602001600015158152602001600081526020016000815260200188600019168152509080600181540180825580915050906001820390600052602060002090600d020160009091929091909150600082015181600001556020820151816001015560408201518160020155606082015181600301556080820151816004015560a0820151816005015560c0820151816006015560e08201518160070160006101000a81548160ff0219169083151502179055506101008201518160080155610120820151816009015561014082015181600c0190600019169055505050600090505b86518110156140ae578651600090889083908110613e7757fe5b60209081029091010151600160a060020a03161415613ee0576040805160e560020a62461bcd02815260206004820152600f60248201527f496e76616c696420616464726573730000000000000000000000000000000000604482015290519081900360640190fd5b6002805485908110613eee57fe5b90600052602060002090600d0201600b0160008883815181101515613f0f57fe5b6020908102909101810151600160a060020a031682528101919091526040016000205460ff1615613f8a576040805160e560020a62461bcd02815260206004820152601560248201527f6475706564206578636c75646520616464726573730000000000000000000000604482015290519081900360640190fd5b61404085600160a060020a0316634ee2cd7e8984815181101515613faa57fe5b906020019060200201518b6040518363ffffffff1660e060020a0281526004018083600160a060020a0316600160a060020a0316815260200182815260200192505050602060405180830381600087803b15801561400757600080fd5b505af115801561401b573d6000803e3d6000fd5b505050506040513d602081101561403157600080fd5b5051839063ffffffff6143a216565b9150600160028581548110151561405357fe5b90600052602060002090600d0201600b016000898481518110151561407457fe5b602090810291909101810151600160a060020a03168252810191909152604001600020805460ff1916911515919091179055600101613e5d565b6140be838363ffffffff61434d16565b60028054869081106140cc57fe5b60009182526020808320600d92909202909101600601929092558581529081905260409020805473ffffffffffffffffffffffffffffffffffffffff1916600160a060020a038c16179055613642888d8d8d8d888a8d6143c7565b60008060006141368487611989565b600160a060020a0388166000908152600a880160205260409020805460ff191660011790556005870154919450925061417690849063ffffffff6143a216565b600586015561418b838363ffffffff61434d16565b90506000811115610a8c576000848152602081815260408083205481517fa9059cbb000000000000000000000000000000000000000000000000000000008152600160a060020a038b81166004830152602482018790529251929091169363a9059cbb9360448084019491939192918390030190829087803b15801561421057600080fd5b505af1158015614224573d6000803e3d6000fd5b505050506040513d602081101561423a57600080fd5b50511515614292576040805160e560020a62461bcd02815260206004820152600f60248201527f7472616e73666572206661696c65640000000000000000000000000000000000604482015290519081900360640190fd5b60088501546142a7908363ffffffff6143a216565b6008860155600160a060020a0386166000908152600560205260409020546142d5908363ffffffff6143a216565b600160a060020a03808816600081815260056020908152604080832095909555888252818152908490205484518981529182018890528185018790529351939092169290917fced5aaa2960f7fd397627b6d68ccb25eae2d3db92a459182962e6f9b5786241a919081900360600190a3505050505050565b60008282111561435957fe5b508082035b92915050565b60008215156143755750600061435e565b5081810281838281151561438557fe5b041461435e57fe5b6000818381151561439a57fe5b049392505050565b8181018281101561435e57fe5b60008183106143be57816143c0565b825b9392505050565b60408051898152426020820152808201899052606081018890526080810186905260a0810185905260c0810184905290518291600160a060020a0388169133917f66944b9b992875f1854a548c80939651e27d9b825c50b81aee55a2882807e116919081900360e00190a45050505050505050565b82805482825590600052602060002090810192821561449e579160200282015b8281111561449e578251825473ffffffffffffffffffffffffffffffffffffffff1916600160a060020a0390911617825560209092019160019091019061445c565b50612d4e92610a9d9250905b80821115612d4e57805473ffffffffffffffffffffffffffffffffffffffff191681556001016144aa5600496e76616c6964206469766964656e640000000000000000000000000000000044495354524942555445000000000000000000000000000000000000000000005065726d697373696f6e20636865636b206661696c6564000000000000000000a165627a7a723058200f7928ebdd04a08d69895b147b36359964fc74864a06e924a85bc2bdd5cf864f0029",
  "source": "pragma solidity ^0.4.24;\r\n\r\nimport \"./DividendCheckpoint.sol\";\r\nimport \"./ERC20DividendCheckpointStorage.sol\";\r\nimport \"../../interfaces/IOwnable.sol\";\r\nimport \"../../interfaces/IERC20.sol\";\r\n\r\n/**\r\n * @title Checkpoint module for issuing ERC20 dividends\r\n */\r\ncontract ERC20DividendCheckpoint is ERC20DividendCheckpointStorage, DividendCheckpoint {\r\n    using SafeMath for uint256;\r\n\r\n    event ERC20DividendDeposited(\r\n        address indexed _depositor,\r\n        uint256 _checkpointId,\r\n        uint256 _created,\r\n        uint256 _maturity,\r\n        uint256 _expiry,\r\n        address indexed _token,\r\n        uint256 _amount,\r\n        uint256 _totalSupply,\r\n        uint256 _dividendIndex,\r\n        bytes32 indexed _name\r\n    );\r\n    event ERC20DividendClaimed(\r\n        address indexed _payee,\r\n        uint256 _dividendIndex,\r\n        address indexed _token,\r\n        uint256 _amount,\r\n        uint256 _withheld\r\n    );\r\n    event ERC20DividendReclaimed(\r\n        address indexed _claimer,\r\n        uint256 _dividendIndex,\r\n        address indexed _token,\r\n        uint256 _claimedAmount\r\n    );\r\n    event ERC20DividendWithholdingWithdrawn(\r\n        address indexed _claimer,\r\n        uint256 _dividendIndex,\r\n        address indexed _token,\r\n        uint256 _withheldAmount\r\n    );\r\n\r\n    /**\r\n     * @notice Constructor\r\n     * @param _securityToken Address of the security token\r\n     * @param _polyAddress Address of the polytoken\r\n     */\r\n    constructor (address _securityToken, address _polyAddress) public\r\n    Module(_securityToken, _polyAddress)\r\n    {\r\n    }\r\n\r\n    /**\r\n     * @notice Creates a dividend and checkpoint for the dividend\r\n     * @param _maturity Time from which dividend can be paid\r\n     * @param _expiry Time until dividend can no longer be paid, and can be reclaimed by issuer\r\n     * @param _token Address of ERC20 token in which dividend is to be denominated\r\n     * @param _amount Amount of specified token for dividend\r\n     * @param _name Name/Title for identification\r\n     */\r\n    function createDividend(\r\n        uint256 _maturity,\r\n        uint256 _expiry,\r\n        address _token,\r\n        uint256 _amount,\r\n        bytes32 _name\r\n    )\r\n        external\r\n        withPerm(MANAGE)\r\n    {\r\n        createDividendWithExclusions(_maturity, _expiry, _token, _amount, excluded, _name);\r\n    }\r\n\r\n    /**\r\n     * @notice Creates a dividend with a provided checkpoint\r\n     * @param _maturity Time from which dividend can be paid\r\n     * @param _expiry Time until dividend can no longer be paid, and can be reclaimed by issuer\r\n     * @param _token Address of ERC20 token in which dividend is to be denominated\r\n     * @param _amount Amount of specified token for dividend\r\n     * @param _checkpointId Checkpoint id from which to create dividends\r\n     * @param _name Name/Title for identification\r\n     */\r\n    function createDividendWithCheckpoint(\r\n        uint256 _maturity,\r\n        uint256 _expiry,\r\n        address _token,\r\n        uint256 _amount,\r\n        uint256 _checkpointId,\r\n        bytes32 _name\r\n    )\r\n        external\r\n        withPerm(MANAGE)\r\n    {\r\n        _createDividendWithCheckpointAndExclusions(_maturity, _expiry, _token, _amount, _checkpointId, excluded, _name);\r\n    }\r\n\r\n    /**\r\n     * @notice Creates a dividend and checkpoint for the dividend\r\n     * @param _maturity Time from which dividend can be paid\r\n     * @param _expiry Time until dividend can no longer be paid, and can be reclaimed by issuer\r\n     * @param _token Address of ERC20 token in which dividend is to be denominated\r\n     * @param _amount Amount of specified token for dividend\r\n     * @param _excluded List of addresses to exclude\r\n     * @param _name Name/Title for identification\r\n     */\r\n    function createDividendWithExclusions(\r\n        uint256 _maturity,\r\n        uint256 _expiry,\r\n        address _token,\r\n        uint256 _amount,\r\n        address[] _excluded,\r\n        bytes32 _name\r\n    )\r\n        public\r\n        withPerm(MANAGE)\r\n    {\r\n        uint256 checkpointId = ISecurityToken(securityToken).createCheckpoint();\r\n        _createDividendWithCheckpointAndExclusions(_maturity, _expiry, _token, _amount, checkpointId, _excluded, _name);\r\n    }\r\n\r\n    /**\r\n     * @notice Creates a dividend with a provided checkpoint\r\n     * @param _maturity Time from which dividend can be paid\r\n     * @param _expiry Time until dividend can no longer be paid, and can be reclaimed by issuer\r\n     * @param _token Address of ERC20 token in which dividend is to be denominated\r\n     * @param _amount Amount of specified token for dividend\r\n     * @param _checkpointId Checkpoint id from which to create dividends\r\n     * @param _excluded List of addresses to exclude\r\n     * @param _name Name/Title for identification\r\n     */\r\n    function createDividendWithCheckpointAndExclusions(\r\n        uint256 _maturity,\r\n        uint256 _expiry,\r\n        address _token,\r\n        uint256 _amount,\r\n        uint256 _checkpointId,\r\n        address[] _excluded,\r\n        bytes32 _name\r\n    )\r\n        public\r\n        withPerm(MANAGE)\r\n    {\r\n        _createDividendWithCheckpointAndExclusions(_maturity, _expiry, _token, _amount, _checkpointId, _excluded, _name);\r\n    }\r\n\r\n    /**\r\n     * @notice Creates a dividend with a provided checkpoint\r\n     * @param _maturity Time from which dividend can be paid\r\n     * @param _expiry Time until dividend can no longer be paid, and can be reclaimed by issuer\r\n     * @param _token Address of ERC20 token in which dividend is to be denominated\r\n     * @param _amount Amount of specified token for dividend\r\n     * @param _checkpointId Checkpoint id from which to create dividends\r\n     * @param _excluded List of addresses to exclude\r\n     * @param _name Name/Title for identification\r\n     */\r\n    function _createDividendWithCheckpointAndExclusions(\r\n        uint256 _maturity,\r\n        uint256 _expiry,\r\n        address _token,\r\n        uint256 _amount,\r\n        uint256 _checkpointId,\r\n        address[] _excluded,\r\n        bytes32 _name\r\n    )\r\n        internal\r\n    {\r\n        ISecurityToken securityTokenInstance = ISecurityToken(securityToken);\r\n        require(_excluded.length <= EXCLUDED_ADDRESS_LIMIT, \"Too many addresses excluded\");\r\n        require(_expiry > _maturity, \"Expiry before maturity\");\r\n        /*solium-disable-next-line security/no-block-members*/\r\n        require(_expiry > now, \"Expiry in past\");\r\n        require(_amount > 0, \"No dividend sent\");\r\n        require(_token != address(0), \"Invalid token\");\r\n        require(_checkpointId <= securityTokenInstance.currentCheckpointId(), \"Invalid checkpoint\");\r\n        require(IERC20(_token).transferFrom(msg.sender, address(this), _amount), \"insufficent allowance\");\r\n        require(_name[0] != 0);\r\n        uint256 dividendIndex = dividends.length;\r\n        uint256 currentSupply = securityTokenInstance.totalSupplyAt(_checkpointId);\r\n        uint256 excludedSupply = 0;\r\n        dividends.push(\r\n          Dividend(\r\n            _checkpointId,\r\n            now, /*solium-disable-line security/no-block-members*/\r\n            _maturity,\r\n            _expiry,\r\n            _amount,\r\n            0,\r\n            0,\r\n            false,\r\n            0,\r\n            0,\r\n            _name\r\n          )\r\n        );\r\n\r\n        for (uint256 j = 0; j < _excluded.length; j++) {\r\n            require (_excluded[j] != address(0), \"Invalid address\");\r\n            require(!dividends[dividendIndex].dividendExcluded[_excluded[j]], \"duped exclude address\");\r\n            excludedSupply = excludedSupply.add(securityTokenInstance.balanceOfAt(_excluded[j], _checkpointId));\r\n            dividends[dividendIndex].dividendExcluded[_excluded[j]] = true;\r\n        }\r\n\r\n        dividends[dividendIndex].totalSupply = currentSupply.sub(excludedSupply);\r\n        dividendTokens[dividendIndex] = _token;\r\n        _emitERC20DividendDepositedEvent(_checkpointId, _maturity, _expiry, _token, _amount, currentSupply, dividendIndex, _name);\r\n    }\r\n\r\n    /**\r\n     * @notice Emits the ERC20DividendDeposited event.\r\n     * Seperated into a different function as a workaround for stack too deep error\r\n     */\r\n    function _emitERC20DividendDepositedEvent(\r\n        uint256 _checkpointId,\r\n        uint256 _maturity,\r\n        uint256 _expiry,\r\n        address _token,\r\n        uint256 _amount,\r\n        uint256 currentSupply,\r\n        uint256 dividendIndex,\r\n        bytes32 _name\r\n    )\r\n        internal\r\n    {\r\n        /*solium-disable-next-line security/no-block-members*/\r\n        emit ERC20DividendDeposited(msg.sender, _checkpointId, now, _maturity, _expiry, _token, _amount, currentSupply, dividendIndex, _name);\r\n    }\r\n\r\n    /**\r\n     * @notice Internal function for paying dividends\r\n     * @param _payee Address of investor\r\n     * @param _dividend Storage with previously issued dividends\r\n     * @param _dividendIndex Dividend to pay\r\n     */\r\n    function _payDividend(address _payee, Dividend storage _dividend, uint256 _dividendIndex) internal {\r\n        (uint256 claim, uint256 withheld) = calculateDividend(_dividendIndex, _payee);\r\n        _dividend.claimed[_payee] = true;\r\n        _dividend.claimedAmount = claim.add(_dividend.claimedAmount);\r\n        uint256 claimAfterWithheld = claim.sub(withheld);\r\n        if (claimAfterWithheld > 0) {\r\n            require(IERC20(dividendTokens[_dividendIndex]).transfer(_payee, claimAfterWithheld), \"transfer failed\");\r\n            _dividend.dividendWithheld = _dividend.dividendWithheld.add(withheld);\r\n            investorWithheld[_payee] = investorWithheld[_payee].add(withheld);\r\n            emit ERC20DividendClaimed(_payee, _dividendIndex, dividendTokens[_dividendIndex], claim, withheld);\r\n        }\r\n    }\r\n\r\n    /**\r\n     * @notice Issuer can reclaim remaining unclaimed dividend amounts, for expired dividends\r\n     * @param _dividendIndex Dividend to reclaim\r\n     */\r\n    function reclaimDividend(uint256 _dividendIndex) external withPerm(MANAGE) {\r\n        require(_dividendIndex < dividends.length, \"Invalid dividend\");\r\n        /*solium-disable-next-line security/no-block-members*/\r\n        require(now >= dividends[_dividendIndex].expiry, \"Dividend expiry in future\");\r\n        require(!dividends[_dividendIndex].reclaimed, \"already claimed\");\r\n        dividends[_dividendIndex].reclaimed = true;\r\n        Dividend storage dividend = dividends[_dividendIndex];\r\n        uint256 remainingAmount = dividend.amount.sub(dividend.claimedAmount);\r\n        address owner = IOwnable(securityToken).owner();\r\n        require(IERC20(dividendTokens[_dividendIndex]).transfer(owner, remainingAmount), \"transfer failed\");\r\n        emit ERC20DividendReclaimed(owner, _dividendIndex, dividendTokens[_dividendIndex], remainingAmount);\r\n    }\r\n\r\n    /**\r\n     * @notice Allows issuer to withdraw withheld tax\r\n     * @param _dividendIndex Dividend to withdraw from\r\n     */\r\n    function withdrawWithholding(uint256 _dividendIndex) external withPerm(MANAGE) {\r\n        require(_dividendIndex < dividends.length, \"Invalid dividend\");\r\n        Dividend storage dividend = dividends[_dividendIndex];\r\n        uint256 remainingWithheld = dividend.dividendWithheld.sub(dividend.dividendWithheldReclaimed);\r\n        dividend.dividendWithheldReclaimed = dividend.dividendWithheld;\r\n        address owner = IOwnable(securityToken).owner();\r\n        require(IERC20(dividendTokens[_dividendIndex]).transfer(owner, remainingWithheld), \"transfer failed\");\r\n        emit ERC20DividendWithholdingWithdrawn(owner, _dividendIndex, dividendTokens[_dividendIndex], remainingWithheld);\r\n    }\r\n\r\n}\r\n",
  "sourcePath": "/Users/polymath/polymath-core/contracts/modules/Checkpoint/ERC20DividendCheckpoint.sol",
  "compiler": {
    "name": "solc",
    "version": "0.4.24+commit.e67f0147.Emscripten.clang"
  },
  "schemaVersion": "2.0.1",
  "updatedAt": "2018-12-12T11:18:59.922Z"
}