{
  "contractName": "ERC20DividendCheckpoint",
  "abi": [
    {
      "constant": false,
      "inputs": [
        {
          "name": "_investors",
          "type": "address[]"
        },
        {
          "name": "_withholding",
          "type": "uint256"
        }
      ],
      "name": "setWithholdingFixed",
      "outputs": [],
      "payable": false,
      "stateMutability": "nonpayable",
      "type": "function"
    },
    {
      "constant": true,
      "inputs": [],
      "name": "EXCLUDED_ADDRESS_LIMIT",
      "outputs": [
        {
          "name": "",
          "type": "uint256"
        }
      ],
      "payable": false,
      "stateMutability": "view",
      "type": "function"
    },
    {
      "constant": false,
      "inputs": [],
      "name": "reclaimETH",
      "outputs": [],
      "payable": false,
      "stateMutability": "nonpayable",
      "type": "function"
    },
    {
      "constant": true,
      "inputs": [],
      "name": "getInitFunction",
      "outputs": [
        {
          "name": "",
          "type": "bytes4"
        }
      ],
      "payable": false,
      "stateMutability": "pure",
      "type": "function"
    },
    {
      "constant": true,
      "inputs": [
        {
          "name": "_dividendIndex",
          "type": "uint256"
        }
      ],
      "name": "getDividendData",
      "outputs": [
        {
          "name": "created",
          "type": "uint256"
        },
        {
          "name": "maturity",
          "type": "uint256"
        },
        {
          "name": "expiry",
          "type": "uint256"
        },
        {
          "name": "amount",
          "type": "uint256"
        },
        {
          "name": "claimedAmount",
          "type": "uint256"
        },
        {
          "name": "name",
          "type": "bytes32"
        }
      ],
      "payable": false,
      "stateMutability": "view",
      "type": "function"
    },
    {
      "constant": false,
      "inputs": [
        {
          "name": "_dividendIndex",
          "type": "uint256"
        }
      ],
      "name": "pullDividendPayment",
      "outputs": [],
      "payable": false,
      "stateMutability": "nonpayable",
      "type": "function"
    },
    {
      "constant": true,
      "inputs": [],
      "name": "CHECKPOINT",
      "outputs": [
        {
          "name": "",
          "type": "bytes32"
        }
      ],
      "payable": false,
      "stateMutability": "view",
      "type": "function"
    },
    {
      "constant": false,
      "inputs": [],
      "name": "unpause",
      "outputs": [],
      "payable": false,
      "stateMutability": "nonpayable",
      "type": "function"
    },
    {
      "constant": false,
      "inputs": [
        {
          "name": "_dividendIndex",
          "type": "uint256"
        },
        {
          "name": "_payees",
          "type": "address[]"
        }
      ],
      "name": "pushDividendPaymentToAddresses",
      "outputs": [],
      "payable": false,
      "stateMutability": "nonpayable",
      "type": "function"
    },
    {
      "constant": true,
      "inputs": [],
      "name": "wallet",
      "outputs": [
        {
          "name": "",
          "type": "address"
        }
      ],
      "payable": false,
      "stateMutability": "view",
      "type": "function"
    },
    {
      "constant": true,
      "inputs": [
        {
          "name": "_investor",
          "type": "address"
        },
        {
          "name": "_dividendIndex",
          "type": "uint256"
        }
      ],
      "name": "isClaimed",
      "outputs": [
        {
          "name": "",
          "type": "bool"
        }
      ],
      "payable": false,
      "stateMutability": "view",
      "type": "function"
    },
    {
      "constant": true,
      "inputs": [
        {
          "name": "_dividendIndex",
          "type": "uint256"
        },
        {
          "name": "_payee",
          "type": "address"
        }
      ],
      "name": "calculateDividend",
      "outputs": [
        {
          "name": "",
          "type": "uint256"
        },
        {
          "name": "",
          "type": "uint256"
        }
      ],
      "payable": false,
      "stateMutability": "view",
      "type": "function"
    },
    {
      "constant": true,
      "inputs": [],
      "name": "MANAGE",
      "outputs": [
        {
          "name": "",
          "type": "bytes32"
        }
      ],
      "payable": false,
      "stateMutability": "view",
      "type": "function"
    },
    {
      "constant": true,
      "inputs": [],
      "name": "paused",
      "outputs": [
        {
          "name": "",
          "type": "bool"
        }
      ],
      "payable": false,
      "stateMutability": "view",
      "type": "function"
    },
    {
      "constant": true,
      "inputs": [
        {
          "name": "_checkpointId",
          "type": "uint256"
        }
      ],
      "name": "getDividendIndex",
      "outputs": [
        {
          "name": "",
          "type": "uint256[]"
        }
      ],
      "payable": false,
      "stateMutability": "view",
      "type": "function"
    },
    {
      "constant": false,
      "inputs": [
        {
          "name": "_amount",
          "type": "uint256"
        }
      ],
      "name": "takeFee",
      "outputs": [
        {
          "name": "",
          "type": "bool"
        }
      ],
      "payable": false,
      "stateMutability": "nonpayable",
      "type": "function"
    },
    {
      "constant": true,
      "inputs": [],
      "name": "polyToken",
      "outputs": [
        {
          "name": "",
          "type": "address"
        }
      ],
      "payable": false,
      "stateMutability": "view",
      "type": "function"
    },
    {
      "constant": false,
      "inputs": [
        {
          "name": "_dividendIndex",
          "type": "uint256"
        },
        {
          "name": "_maturity",
          "type": "uint256"
        },
        {
          "name": "_expiry",
          "type": "uint256"
        }
      ],
      "name": "updateDividendDates",
      "outputs": [],
      "payable": false,
      "stateMutability": "nonpayable",
      "type": "function"
    },
    {
      "constant": false,
      "inputs": [
        {
          "name": "_wallet",
          "type": "address"
        }
      ],
      "name": "configure",
      "outputs": [],
      "payable": false,
      "stateMutability": "nonpayable",
      "type": "function"
    },
    {
      "constant": true,
      "inputs": [
        {
          "name": "",
          "type": "address"
        }
      ],
      "name": "withholdingTax",
      "outputs": [
        {
          "name": "",
          "type": "uint256"
        }
      ],
      "payable": false,
      "stateMutability": "view",
      "type": "function"
    },
    {
      "constant": true,
      "inputs": [
        {
          "name": "_checkpointId",
          "type": "uint256"
        }
      ],
      "name": "getCheckpointData",
      "outputs": [
        {
          "name": "investors",
          "type": "address[]"
        },
        {
          "name": "balances",
          "type": "uint256[]"
        },
        {
          "name": "withholdings",
          "type": "uint256[]"
        }
      ],
      "payable": false,
      "stateMutability": "view",
      "type": "function"
    },
    {
      "constant": true,
      "inputs": [],
      "name": "DISTRIBUTE",
      "outputs": [
        {
          "name": "",
          "type": "bytes32"
        }
      ],
      "payable": false,
      "stateMutability": "view",
      "type": "function"
    },
    {
      "constant": true,
      "inputs": [
        {
          "name": "",
          "type": "uint256"
        }
      ],
      "name": "dividends",
      "outputs": [
        {
          "name": "checkpointId",
          "type": "uint256"
        },
        {
          "name": "created",
          "type": "uint256"
        },
        {
          "name": "maturity",
          "type": "uint256"
        },
        {
          "name": "expiry",
          "type": "uint256"
        },
        {
          "name": "amount",
          "type": "uint256"
        },
        {
          "name": "claimedAmount",
          "type": "uint256"
        },
        {
          "name": "totalSupply",
          "type": "uint256"
        },
        {
          "name": "reclaimed",
          "type": "bool"
        },
        {
          "name": "totalWithheld",
          "type": "uint256"
        },
        {
          "name": "totalWithheldWithdrawn",
          "type": "uint256"
        },
        {
          "name": "name",
          "type": "bytes32"
        }
      ],
      "payable": false,
      "stateMutability": "view",
      "type": "function"
    },
    {
      "constant": true,
      "inputs": [
        {
          "name": "_investor",
          "type": "address"
        },
        {
          "name": "_dividendIndex",
          "type": "uint256"
        }
      ],
      "name": "isExcluded",
      "outputs": [
        {
          "name": "",
          "type": "bool"
        }
      ],
      "payable": false,
      "stateMutability": "view",
      "type": "function"
    },
    {
      "constant": false,
      "inputs": [],
      "name": "pause",
      "outputs": [],
      "payable": false,
      "stateMutability": "nonpayable",
      "type": "function"
    },
    {
      "constant": false,
      "inputs": [
        {
          "name": "_investors",
          "type": "address[]"
        },
        {
          "name": "_withholding",
          "type": "uint256[]"
        }
      ],
      "name": "setWithholding",
      "outputs": [],
      "payable": false,
      "stateMutability": "nonpayable",
      "type": "function"
    },
    {
      "constant": false,
      "inputs": [
        {
          "name": "_tokenContract",
          "type": "address"
        }
      ],
      "name": "reclaimERC20",
      "outputs": [],
      "payable": false,
      "stateMutability": "nonpayable",
      "type": "function"
    },
    {
      "constant": true,
      "inputs": [
        {
          "name": "",
          "type": "uint256"
        }
      ],
      "name": "dividendTokens",
      "outputs": [
        {
          "name": "",
          "type": "address"
        }
      ],
      "payable": false,
      "stateMutability": "view",
      "type": "function"
    },
    {
      "constant": false,
      "inputs": [
        {
          "name": "_wallet",
          "type": "address"
        }
      ],
      "name": "changeWallet",
      "outputs": [],
      "payable": false,
      "stateMutability": "nonpayable",
      "type": "function"
    },
    {
      "constant": true,
      "inputs": [],
      "name": "getDividendsData",
      "outputs": [
        {
          "name": "createds",
          "type": "uint256[]"
        },
        {
          "name": "maturitys",
          "type": "uint256[]"
        },
        {
          "name": "expirys",
          "type": "uint256[]"
        },
        {
          "name": "amounts",
          "type": "uint256[]"
        },
        {
          "name": "claimedAmounts",
          "type": "uint256[]"
        },
        {
          "name": "names",
          "type": "bytes32[]"
        }
      ],
      "payable": false,
      "stateMutability": "view",
      "type": "function"
    },
    {
      "constant": true,
      "inputs": [],
      "name": "securityToken",
      "outputs": [
        {
          "name": "",
          "type": "address"
        }
      ],
      "payable": false,
      "stateMutability": "view",
      "type": "function"
    },
    {
      "constant": true,
      "inputs": [
        {
          "name": "",
          "type": "uint256"
        }
      ],
      "name": "excluded",
      "outputs": [
        {
          "name": "",
          "type": "address"
        }
      ],
      "payable": false,
      "stateMutability": "view",
      "type": "function"
    },
    {
      "constant": true,
      "inputs": [],
      "name": "getPermissions",
      "outputs": [
        {
          "name": "",
          "type": "bytes32[]"
        }
      ],
      "payable": false,
      "stateMutability": "view",
      "type": "function"
    },
    {
      "constant": true,
      "inputs": [],
      "name": "factory",
      "outputs": [
        {
          "name": "",
          "type": "address"
        }
      ],
      "payable": false,
      "stateMutability": "view",
      "type": "function"
    },
    {
      "constant": false,
      "inputs": [
        {
          "name": "_excluded",
          "type": "address[]"
        }
      ],
      "name": "setDefaultExcluded",
      "outputs": [],
      "payable": false,
      "stateMutability": "nonpayable",
      "type": "function"
    },
    {
      "constant": true,
      "inputs": [],
      "name": "FEE_ADMIN",
      "outputs": [
        {
          "name": "",
          "type": "bytes32"
        }
      ],
      "payable": false,
      "stateMutability": "view",
      "type": "function"
    },
    {
      "constant": false,
      "inputs": [
        {
          "name": "_dividendIndex",
          "type": "uint256"
        },
        {
          "name": "_start",
          "type": "uint256"
        },
        {
          "name": "_iterations",
          "type": "uint256"
        }
      ],
      "name": "pushDividendPayment",
      "outputs": [],
      "payable": false,
      "stateMutability": "nonpayable",
      "type": "function"
    },
    {
      "constant": true,
      "inputs": [],
      "name": "getDefaultExcluded",
      "outputs": [
        {
          "name": "",
          "type": "address[]"
        }
      ],
      "payable": false,
      "stateMutability": "view",
      "type": "function"
    },
    {
      "constant": true,
      "inputs": [
        {
          "name": "_dividendIndex",
          "type": "uint256"
        }
      ],
      "name": "getDividendProgress",
      "outputs": [
        {
          "name": "investors",
          "type": "address[]"
        },
        {
          "name": "resultClaimed",
          "type": "bool[]"
        },
        {
          "name": "resultExcluded",
          "type": "bool[]"
        },
        {
          "name": "resultWithheld",
          "type": "uint256[]"
        },
        {
          "name": "resultAmount",
          "type": "uint256[]"
        },
        {
          "name": "resultBalance",
          "type": "uint256[]"
        }
      ],
      "payable": false,
      "stateMutability": "view",
      "type": "function"
    },
    {
      "constant": false,
      "inputs": [],
      "name": "createCheckpoint",
      "outputs": [
        {
          "name": "",
          "type": "uint256"
        }
      ],
      "payable": false,
      "stateMutability": "nonpayable",
      "type": "function"
    },
    {
      "inputs": [
        {
          "name": "_securityToken",
          "type": "address"
        },
        {
          "name": "_polyAddress",
          "type": "address"
        }
      ],
      "payable": false,
      "stateMutability": "nonpayable",
      "type": "constructor"
    },
    {
      "anonymous": false,
      "inputs": [
        {
          "indexed": true,
          "name": "_depositor",
          "type": "address"
        },
        {
          "indexed": false,
          "name": "_checkpointId",
          "type": "uint256"
        },
        {
          "indexed": false,
          "name": "_created",
          "type": "uint256"
        },
        {
          "indexed": false,
          "name": "_maturity",
          "type": "uint256"
        },
        {
          "indexed": false,
          "name": "_expiry",
          "type": "uint256"
        },
        {
          "indexed": true,
          "name": "_token",
          "type": "address"
        },
        {
          "indexed": false,
          "name": "_amount",
          "type": "uint256"
        },
        {
          "indexed": false,
          "name": "_totalSupply",
          "type": "uint256"
        },
        {
          "indexed": false,
          "name": "_dividendIndex",
          "type": "uint256"
        },
        {
          "indexed": true,
          "name": "_name",
          "type": "bytes32"
        }
      ],
      "name": "ERC20DividendDeposited",
      "type": "event"
    },
    {
      "anonymous": false,
      "inputs": [
        {
          "indexed": true,
          "name": "_payee",
          "type": "address"
        },
        {
          "indexed": true,
          "name": "_dividendIndex",
          "type": "uint256"
        },
        {
          "indexed": true,
          "name": "_token",
          "type": "address"
        },
        {
          "indexed": false,
          "name": "_amount",
          "type": "uint256"
        },
        {
          "indexed": false,
          "name": "_withheld",
          "type": "uint256"
        }
      ],
      "name": "ERC20DividendClaimed",
      "type": "event"
    },
    {
      "anonymous": false,
      "inputs": [
        {
          "indexed": true,
          "name": "_claimer",
          "type": "address"
        },
        {
          "indexed": true,
          "name": "_dividendIndex",
          "type": "uint256"
        },
        {
          "indexed": true,
          "name": "_token",
          "type": "address"
        },
        {
          "indexed": false,
          "name": "_claimedAmount",
          "type": "uint256"
        }
      ],
      "name": "ERC20DividendReclaimed",
      "type": "event"
    },
    {
      "anonymous": false,
      "inputs": [
        {
          "indexed": true,
          "name": "_claimer",
          "type": "address"
        },
        {
          "indexed": true,
          "name": "_dividendIndex",
          "type": "uint256"
        },
        {
          "indexed": true,
          "name": "_token",
          "type": "address"
        },
        {
          "indexed": false,
          "name": "_withheldAmount",
          "type": "uint256"
        }
      ],
      "name": "ERC20DividendWithholdingWithdrawn",
      "type": "event"
    },
    {
      "anonymous": false,
      "inputs": [
        {
          "indexed": false,
          "name": "_excluded",
          "type": "address[]"
        },
        {
          "indexed": false,
          "name": "_timestamp",
          "type": "uint256"
        }
      ],
      "name": "SetDefaultExcludedAddresses",
      "type": "event"
    },
    {
      "anonymous": false,
      "inputs": [
        {
          "indexed": false,
          "name": "_investors",
          "type": "address[]"
        },
        {
          "indexed": false,
          "name": "_withholding",
          "type": "uint256[]"
        },
        {
          "indexed": false,
          "name": "_timestamp",
          "type": "uint256"
        }
      ],
      "name": "SetWithholding",
      "type": "event"
    },
    {
      "anonymous": false,
      "inputs": [
        {
          "indexed": false,
          "name": "_investors",
          "type": "address[]"
        },
        {
          "indexed": false,
          "name": "_withholding",
          "type": "uint256"
        },
        {
          "indexed": false,
          "name": "_timestamp",
          "type": "uint256"
        }
      ],
      "name": "SetWithholdingFixed",
      "type": "event"
    },
    {
      "anonymous": false,
      "inputs": [
        {
          "indexed": true,
          "name": "_oldWallet",
          "type": "address"
        },
        {
          "indexed": true,
          "name": "_newWallet",
          "type": "address"
        },
        {
          "indexed": false,
          "name": "_timestamp",
          "type": "uint256"
        }
      ],
      "name": "SetWallet",
      "type": "event"
    },
    {
      "anonymous": false,
      "inputs": [
        {
          "indexed": true,
          "name": "_dividendIndex",
          "type": "uint256"
        },
        {
          "indexed": false,
          "name": "_maturity",
          "type": "uint256"
        },
        {
          "indexed": false,
          "name": "_expiry",
          "type": "uint256"
        }
      ],
      "name": "UpdateDividendDates",
      "type": "event"
    },
    {
      "anonymous": false,
      "inputs": [
        {
          "indexed": false,
          "name": "_timestammp",
          "type": "uint256"
        }
      ],
      "name": "Pause",
      "type": "event"
    },
    {
      "anonymous": false,
      "inputs": [
        {
          "indexed": false,
          "name": "_timestamp",
          "type": "uint256"
        }
      ],
      "name": "Unpause",
      "type": "event"
    },
    {
      "constant": false,
      "inputs": [
        {
          "name": "_maturity",
          "type": "uint256"
        },
        {
          "name": "_expiry",
          "type": "uint256"
        },
        {
          "name": "_token",
          "type": "address"
        },
        {
          "name": "_amount",
          "type": "uint256"
        },
        {
          "name": "_name",
          "type": "bytes32"
        }
      ],
      "name": "createDividend",
      "outputs": [],
      "payable": false,
      "stateMutability": "nonpayable",
      "type": "function"
    },
    {
      "constant": false,
      "inputs": [
        {
          "name": "_maturity",
          "type": "uint256"
        },
        {
          "name": "_expiry",
          "type": "uint256"
        },
        {
          "name": "_token",
          "type": "address"
        },
        {
          "name": "_amount",
          "type": "uint256"
        },
        {
          "name": "_checkpointId",
          "type": "uint256"
        },
        {
          "name": "_name",
          "type": "bytes32"
        }
      ],
      "name": "createDividendWithCheckpoint",
      "outputs": [],
      "payable": false,
      "stateMutability": "nonpayable",
      "type": "function"
    },
    {
      "constant": false,
      "inputs": [
        {
          "name": "_maturity",
          "type": "uint256"
        },
        {
          "name": "_expiry",
          "type": "uint256"
        },
        {
          "name": "_token",
          "type": "address"
        },
        {
          "name": "_amount",
          "type": "uint256"
        },
        {
          "name": "_excluded",
          "type": "address[]"
        },
        {
          "name": "_name",
          "type": "bytes32"
        }
      ],
      "name": "createDividendWithExclusions",
      "outputs": [],
      "payable": false,
      "stateMutability": "nonpayable",
      "type": "function"
    },
    {
      "constant": false,
      "inputs": [
        {
          "name": "_maturity",
          "type": "uint256"
        },
        {
          "name": "_expiry",
          "type": "uint256"
        },
        {
          "name": "_token",
          "type": "address"
        },
        {
          "name": "_amount",
          "type": "uint256"
        },
        {
          "name": "_checkpointId",
          "type": "uint256"
        },
        {
          "name": "_excluded",
          "type": "address[]"
        },
        {
          "name": "_name",
          "type": "bytes32"
        }
      ],
      "name": "createDividendWithCheckpointAndExclusions",
      "outputs": [],
      "payable": false,
      "stateMutability": "nonpayable",
      "type": "function"
    },
    {
      "constant": false,
      "inputs": [
        {
          "name": "_dividendIndex",
          "type": "uint256"
        }
      ],
      "name": "reclaimDividend",
      "outputs": [],
      "payable": false,
      "stateMutability": "nonpayable",
      "type": "function"
    },
    {
      "constant": false,
      "inputs": [
        {
          "name": "_dividendIndex",
          "type": "uint256"
        }
      ],
      "name": "withdrawWithholding",
      "outputs": [],
      "payable": false,
      "stateMutability": "nonpayable",
      "type": "function"
    }
  ],
  "bytecode": "0x608060405260966002556008805460a060020a60ff021916905534801561002557600080fd5b5060405160408062005dcb83398101604052805160209091015160078054600160a060020a03938416600160a060020a0319918216179091556006805482163317905560088054939092169216919091179055615d4380620000886000396000f3006080604052600436106102165763ffffffff60e060020a6000350416630945812e811461021b5780630a29f591146102745780630f144a481461029b5780631613ec9d146102b057806322018ce7146102fa57806328d1feda1461036c57806330008b48146103b7578063333cffe5146103cf57806335d806f8146103e75780633f4ba83a146103fc57806343647a62146104115780634d58e41314610485578063521eb273146104df578063562beba8146105105780635bea0e1c146105485780635bf341c1146105855780635c975abb1461059a5780635daff64e146105af5780635f7619a4146106175780636e742c771461062f5780636faa22a51461065f57806373e9e1a31461067457806375cb2672146106925780637a3e23fd146106b35780637b4a223b146106d457806380fef5af146107ca578063814b3fe0146107df57806381e97b661461084f5780638456cb59146108735780638596e6e6146108885780638905fd4f1461091657806395ec5bbe1461093757806398b9a2dc1461094f578063aa8b76ea14610970578063ac121dbf14610988578063b7e1fd9b14610b4a578063b84dfbd214610b77578063bee2ddc214610b8c578063c3a07df614610ba4578063c45a015514610bb9578063cc1556dc14610bce578063d70afa9614610c23578063e1726faa14610c38578063f1e9d10014610c56578063fa67a7bb14610c6b578063ff0b9c9014610c83575b600080fd5b34801561022757600080fd5b5060408051602060048035808201358381028086018501909652808552610272953695939460249493850192918291850190849080828437509497505093359450610c989350505050565b005b34801561028057600080fd5b50610289610f5a565b60408051918252519081900360200190f35b3480156102a757600080fd5b50610272610f60565b3480156102bc57600080fd5b506102c561105c565b604080517fffffffff000000000000000000000000000000000000000000000000000000009092168252519081900360200190f35b34801561030657600080fd5b506040805160206004608435818101358381028086018501909652808552610272958335956024803596604435600160a060020a031696606435963696919560a49594909101928291908501908490808284375094975050933594506110819350505050565b34801561037857600080fd5b506103846004356112a3565b604080519687526020870195909552858501939093526060850191909152608084015260a0830152519081900360c00190f35b3480156103c357600080fd5b50610272600435611387565b3480156103db57600080fd5b5061027260043561151e565b3480156103f357600080fd5b50610289611872565b34801561040857600080fd5b50610272611896565b34801561041d57600080fd5b506040805160a43560048181013560208181028581018201909652818552610272958335956024803596600160a060020a03604435169660643596608435963696929560c49590940192829185019084908082843750949750509335945061196c9350505050565b34801561049157600080fd5b5060408051602060046024803582810135848102808701860190975280865261027296843596369660449591949091019291829185019084908082843750949750611aff9650505050505050565b3480156104eb57600080fd5b506104f4611d78565b60408051600160a060020a039092168252519081900360200190f35b34801561051c57600080fd5b50610534600160a060020a0360043516602435611d87565b604080519115158252519081900360200190f35b34801561055457600080fd5b5061056c600435600160a060020a0360243516611e14565b6040805192835260208301919091528051918290030190f35b34801561059157600080fd5b50610289611ff7565b3480156105a657600080fd5b50610534612007565b3480156105bb57600080fd5b506105c7600435612017565b60408051602080825283518183015283519192839290830191858101910280838360005b838110156106035781810151838201526020016105eb565b505050509050019250505060405180910390f35b34801561062357600080fd5b506105346004356120fc565b34801561063b57600080fd5b50610272600435602435600160a060020a036044351660643560843560a435612414565b34801561066b57600080fd5b506104f461260c565b34801561068057600080fd5b5061027260043560243560443561261b565b34801561069e57600080fd5b50610272600160a060020a0360043516612807565b3480156106bf57600080fd5b50610289600160a060020a0360043516612872565b3480156106e057600080fd5b506106ec600435612884565b60405180806020018060200180602001848103845287818151815260200191508051906020019060200280838360005b8381101561073457818101518382015260200161071c565b50505050905001848103835286818151815260200191508051906020019060200280838360005b8381101561077357818101518382015260200161075b565b50505050905001848103825285818151815260200191508051906020019060200280838360005b838110156107b257818101518382015260200161079a565b50505050905001965050505050505060405180910390f35b3480156107d657600080fd5b50610289612be7565b3480156107eb57600080fd5b506107f7600435612bf9565b604080519b8c5260208c019a909a528a8a019890985260608a0196909652608089019490945260a088019290925260c0870152151560e086015261010085015261012084015261014083015251908190036101600190f35b34801561085b57600080fd5b50610534600160a060020a0360043516602435612c66565b34801561087f57600080fd5b50610272612cf2565b34801561089457600080fd5b506040805160206004803580820135838102808601850190965280855261027295369593946024949385019291829185019084908082843750506040805187358901803560208181028481018201909552818452989b9a998901989297509082019550935083925085019084908082843750949750612dc69650505050505050565b34801561092257600080fd5b50610272600160a060020a0360043516613145565b34801561094357600080fd5b506104f46004356133dc565b34801561095b57600080fd5b50610272600160a060020a03600435166133f7565b34801561097c57600080fd5b506102726004356134c3565b34801561099457600080fd5b5061099d613933565b6040518080602001806020018060200180602001806020018060200187810387528d818151815260200191508051906020019060200280838360005b838110156109f15781810151838201526020016109d9565b5050505090500187810386528c818151815260200191508051906020019060200280838360005b83811015610a30578181015183820152602001610a18565b5050505090500187810385528b818151815260200191508051906020019060200280838360005b83811015610a6f578181015183820152602001610a57565b5050505090500187810384528a818151815260200191508051906020019060200280838360005b83811015610aae578181015183820152602001610a96565b50505050905001878103835289818151815260200191508051906020019060200280838360005b83811015610aed578181015183820152602001610ad5565b50505050905001878103825288818151815260200191508051906020019060200280838360005b83811015610b2c578181015183820152602001610b14565b505050509050019c5050505050505050505050505060405180910390f35b348015610b5657600080fd5b50610272600435602435600160a060020a0360443516606435608435613b23565b348015610b8357600080fd5b506104f4613d0f565b348015610b9857600080fd5b506104f4600435613d1e565b348015610bb057600080fd5b506105c7613d46565b348015610bc557600080fd5b506104f4613dc1565b348015610bda57600080fd5b506040805160206004803580820135838102808601850190965280855261027295369593946024949385019291829185019084908082843750949750613dd09650505050505050565b348015610c2f57600080fd5b5061028961419c565b348015610c4457600080fd5b506102726004356024356044356141c0565b348015610c6257600080fd5b506105c7614522565b348015610c7757600080fd5b5061099d600435614584565b348015610c8f57600080fd5b50610289614aec565b600060d060020a654d414e41474502600080600760009054906101000a9004600160a060020a0316600160a060020a0316638da5cb5b6040518163ffffffff1660e060020a028152600401602060405180830381600087803b158015610cfd57600080fd5b505af1158015610d11573d6000803e3d6000fd5b505050506040513d6020811015610d2757600080fd5b505160065433600160a060020a039283168114945091161490508180610d4a5750805b80610dda57506007546040805160e060020a638658b8b9028152336004820152306024820152604481018690529051600160a060020a0390921691638658b8b9916064808201926020929091908290030181600087803b158015610dad57600080fd5b505af1158015610dc1573d6000803e3d6000fd5b505050506040513d6020811015610dd757600080fd5b50515b1515610e1e576040805160e560020a62461bcd0281526020600482015260176024820152600080516020615cd8833981519152604482015290519081900360640190fd5b670de0b6b3a7640000851115610e7e576040805160e560020a62461bcd02815260206004820152601960248201527f496e636f72726563742077697468686f6c64696e672074617800000000000000604482015290519081900360640190fd5b7f3587f82979516528f7ce51509410f4d49aaed2fe4c2661c07a02cc17ea1410278686426040518080602001848152602001838152602001828103825285818151815260200191508051906020019060200280838360005b83811015610eee578181015183820152602001610ed6565b5050505090500194505050505060405180910390a1600093505b8551841015610f525784600560008887815181101515610f2457fe5b6020908102909101810151600160a060020a0316825281019190915260400160002055600190930192610f08565b505050505050565b60025481565b600760009054906101000a9004600160a060020a0316600160a060020a0316638da5cb5b6040518163ffffffff1660e060020a028152600401602060405180830381600087803b158015610fb357600080fd5b505af1158015610fc7573d6000803e3d6000fd5b505050506040513d6020811015610fdd57600080fd5b5051600160a060020a0316331461102c576040805160e560020a62461bcd0281526020600482015260136024820152600080516020615cf8833981519152604482015290519081900360640190fd5b6040513390303180156108fc02916000818181858888f19350505050158015611059573d6000803e3d6000fd5b50565b7f75cb2672000000000000000000000000000000000000000000000000000000005b90565b600060d060020a654d414e41474502600080600760009054906101000a9004600160a060020a0316600160a060020a0316638da5cb5b6040518163ffffffff1660e060020a028152600401602060405180830381600087803b1580156110e657600080fd5b505af11580156110fa573d6000803e3d6000fd5b505050506040513d602081101561111057600080fd5b505160065433600160a060020a0392831681149450911614905081806111335750805b806111c357506007546040805160e060020a638658b8b9028152336004820152306024820152604481018690529051600160a060020a0390921691638658b8b9916064808201926020929091908290030181600087803b15801561119657600080fd5b505af11580156111aa573d6000803e3d6000fd5b505050506040513d60208110156111c057600080fd5b50515b1515611207576040805160e560020a62461bcd0281526020600482015260176024820152600080516020615cd8833981519152604482015290519081900360640190fd5b600760009054906101000a9004600160a060020a0316600160a060020a031663ff0b9c906040518163ffffffff1660e060020a028152600401602060405180830381600087803b15801561125a57600080fd5b505af115801561126e573d6000803e3d6000fd5b505050506040513d602081101561128457600080fd5b505193506112978a8a8a8a888b8b614d0d565b50505050505050505050565b6000806000806000806003878154811015156112bb57fe5b90600052602060002090600e02016001015495506003878154811015156112de57fe5b90600052602060002090600e020160020154945060038781548110151561130157fe5b90600052602060002090600e020160030154935060038781548110151561132457fe5b90600052602060002090600e020160040154925060038781548110151561134757fe5b90600052602060002090600e020160050154915060038781548110151561136a57fe5b90600052602060002090600e0201600d0154905091939550919395565b6000816113938161556f565b60085460a060020a900460ff16156113f5576040805160e560020a62461bcd02815260206004820152601260248201527f436f6e7472616374206973207061757365640000000000000000000000000000604482015290519081900360640190fd5b600380548490811061140357fe5b60009182526020808320338452600a600e90930201918201905260409091205490925060ff161561147e576040805160e560020a62461bcd02815260206004820152601860248201527f4469766964656e6420616c726561647920636c61696d65640000000000000000604482015290519081900360640190fd5b336000908152600b8301602052604090205460ff161561150e576040805160e560020a62461bcd02815260206004820152602160248201527f6d73672e73656e646572206578636c756465642066726f6d204469766964656e60448201527f6400000000000000000000000000000000000000000000000000000000000000606482015290519081900360840190fd5b611519338385615721565b505050565b60008060d060020a654d414e41474502600080600760009054906101000a9004600160a060020a0316600160a060020a0316638da5cb5b6040518163ffffffff1660e060020a028152600401602060405180830381600087803b15801561158457600080fd5b505af1158015611598573d6000803e3d6000fd5b505050506040513d60208110156115ae57600080fd5b505160065433600160a060020a0392831681149450911614905081806115d15750805b8061166157506007546040805160e060020a638658b8b9028152336004820152306024820152604481018690529051600160a060020a0390921691638658b8b9916064808201926020929091908290030181600087803b15801561163457600080fd5b505af1158015611648573d6000803e3d6000fd5b505050506040513d602081101561165e57600080fd5b50515b15156116a5576040805160e560020a62461bcd0281526020600482015260176024820152600080516020615cd8833981519152604482015290519081900360640190fd5b60035486106116ec576040805160e560020a62461bcd0281526020600482015260106024820152600080516020615c98833981519152604482015290519081900360640190fd5b60038054879081106116fa57fe5b90600052602060002090600e020194506117258560090154866008015461591a90919063ffffffff16565b6008860154600987015560008781526020818152604080832054600154825160e060020a63a9059cbb028152600160a060020a039182166004820152602481018790529251959950169363a9059cbb93604480840194938390030190829087803b15801561179257600080fd5b505af11580156117a6573d6000803e3d6000fd5b505050506040513d60208110156117bc57600080fd5b50511515611814576040805160e560020a62461bcd02815260206004820152600f60248201527f7472616e73666572206661696c65640000000000000000000000000000000000604482015290519081900360640190fd5b600086815260208181526040918290205460015483518881529351600160a060020a03928316948b9493909216927f31342482aee689b025c9cbe348134fefee05df6d6ac65a91dd6b0abdf454539f928290030190a4505050505050565b7f434845434b504f494e540000000000000000000000000000000000000000000081565b600760009054906101000a9004600160a060020a0316600160a060020a0316638da5cb5b6040518163ffffffff1660e060020a028152600401602060405180830381600087803b1580156118e957600080fd5b505af11580156118fd573d6000803e3d6000fd5b505050506040513d602081101561191357600080fd5b5051600160a060020a03163314611962576040805160e560020a62461bcd0281526020600482015260136024820152600080516020615cf8833981519152604482015290519081900360640190fd5b61196a61592c565b565b60d060020a654d414e41474502600080600760009054906101000a9004600160a060020a0316600160a060020a0316638da5cb5b6040518163ffffffff1660e060020a028152600401602060405180830381600087803b1580156119cf57600080fd5b505af11580156119e3573d6000803e3d6000fd5b505050506040513d60208110156119f957600080fd5b505160065433600160a060020a039283168114945091161490508180611a1c5750805b80611aac57506007546040805160e060020a638658b8b9028152336004820152306024820152604481018690529051600160a060020a0390921691638658b8b9916064808201926020929091908290030181600087803b158015611a7f57600080fd5b505af1158015611a93573d6000803e3d6000fd5b505050506040513d6020811015611aa957600080fd5b50515b1515611af0576040805160e560020a62461bcd0281526020600482015260176024820152600080516020615cd8833981519152604482015290519081900360640190fd5b6112978a8a8a8a8a8a8a614d0d565b600080600080516020615cb8833981519152600080600760009054906101000a9004600160a060020a0316600160a060020a0316638da5cb5b6040518163ffffffff1660e060020a028152600401602060405180830381600087803b158015611b6757600080fd5b505af1158015611b7b573d6000803e3d6000fd5b505050506040513d6020811015611b9157600080fd5b505160065433600160a060020a039283168114945091161490508180611bb45750805b80611c4457506007546040805160e060020a638658b8b9028152336004820152306024820152604481018690529051600160a060020a0390921691638658b8b9916064808201926020929091908290030181600087803b158015611c1757600080fd5b505af1158015611c2b573d6000803e3d6000fd5b505050506040513d6020811015611c4157600080fd5b50515b1515611c88576040805160e560020a62461bcd0281526020600482015260176024820152600080516020615cd8833981519152604482015290519081900360640190fd5b86611c928161556f565b6003805489908110611ca057fe5b90600052602060002090600e02019550600094505b8651851015611d6e5785600a0160008887815181101515611cd257fe5b6020908102909101810151600160a060020a031682528101919091526040016000205460ff16158015611d3c575085600b0160008887815181101515611d1457fe5b6020908102909101810151600160a060020a031682528101919091526040016000205460ff16155b15611d6357611d638786815181101515611d5257fe5b90602001906020020151878a615721565b600190940193611cb5565b5050505050505050565b600154600160a060020a031681565b6003546000908210611dd1576040805160e560020a62461bcd0281526020600482015260106024820152600080516020615c98833981519152604482015290519081900360640190fd5b6003805483908110611ddf57fe5b60009182526020808320600160a060020a0387168452600a600e90930201919091019052604090205460ff1690505b92915050565b60008060008060008060038054905088101515611e69576040805160e560020a62461bcd0281526020600482015260106024820152600080516020615c98833981519152604482015290519081900360640190fd5b6003805489908110611e7757fe5b60009182526020808320600160a060020a038b168452600a600e90930201918201905260409091205490945060ff1680611ecb5750600160a060020a0387166000908152600b8501602052604090205460ff165b15611edc5760009550859450611fec565b6007548454604080517f4ee2cd7e000000000000000000000000000000000000000000000000000000008152600160a060020a038b81166004830152602482019390935290519190921691634ee2cd7e9160448083019260209291908290030181600087803b158015611f4e57600080fd5b505af1158015611f62573d6000803e3d6000fd5b505050506040513d6020811015611f7857600080fd5b505160068501546004860154919450611fa891611f9c90869063ffffffff6159e216565b9063ffffffff615a0b16565b600160a060020a038816600090815260056020526040902054909250611fe390670de0b6b3a764000090611f9c90859063ffffffff6159e216565b90508181955095505b505050509250929050565b60d060020a654d414e4147450281565b60085460a060020a900460ff1681565b606060008082815b600354831015612063578560038481548110151561203957fe5b90600052602060002090600e0201600001541415612058576001909301925b60019092019161201f565b8360405190808252806020026020018201604052801561208d578160200160208202803883390190505b50915060009350600090505b6003548110156120f357856003828154811015156120b357fe5b90600052602060002090600e02016000015414156120eb578082858151811015156120da57fe5b602090810290910101526001909301925b600101612099565b50949350505050565b60007f4645455f41444d494e0000000000000000000000000000000000000000000000600080600760009054906101000a9004600160a060020a0316600160a060020a0316638da5cb5b6040518163ffffffff1660e060020a028152600401602060405180830381600087803b15801561217557600080fd5b505af1158015612189573d6000803e3d6000fd5b505050506040513d602081101561219f57600080fd5b505160065433600160a060020a0392831681149450911614905081806121c25750805b8061225257506007546040805160e060020a638658b8b9028152336004820152306024820152604481018690529051600160a060020a0390921691638658b8b9916064808201926020929091908290030181600087803b15801561222557600080fd5b505af1158015612239573d6000803e3d6000fd5b505050506040513d602081101561224f57600080fd5b50515b1515612296576040805160e560020a62461bcd0281526020600482015260176024820152600080516020615cd8833981519152604482015290519081900360640190fd5b600854600754600654604080517f8da5cb5b0000000000000000000000000000000000000000000000000000000081529051600160a060020a03948516946323b872dd948116931691638da5cb5b9160048083019260209291908290030181600087803b15801561230657600080fd5b505af115801561231a573d6000803e3d6000fd5b505050506040513d602081101561233057600080fd5b50516040805160e060020a63ffffffff8616028152600160a060020a039384166004820152929091166024830152604482018990525160648083019260209291908290030181600087803b15801561238757600080fd5b505af115801561239b573d6000803e3d6000fd5b505050506040513d60208110156123b157600080fd5b50511515612409576040805160e560020a62461bcd02815260206004820152601260248201527f556e61626c6520746f2074616b65206665650000000000000000000000000000604482015290519081900360640190fd5b506001949350505050565b60d060020a654d414e41474502600080600760009054906101000a9004600160a060020a0316600160a060020a0316638da5cb5b6040518163ffffffff1660e060020a028152600401602060405180830381600087803b15801561247757600080fd5b505af115801561248b573d6000803e3d6000fd5b505050506040513d60208110156124a157600080fd5b505160065433600160a060020a0392831681149450911614905081806124c45750805b8061255457506007546040805160e060020a638658b8b9028152336004820152306024820152604481018690529051600160a060020a0390921691638658b8b9916064808201926020929091908290030181600087803b15801561252757600080fd5b505af115801561253b573d6000803e3d6000fd5b505050506040513d602081101561255157600080fd5b50515b1515612598576040805160e560020a62461bcd0281526020600482015260176024820152600080516020615cd8833981519152604482015290519081900360640190fd5b612601898989898960048054806020026020016040519081016040528092919081815260200182805480156125f657602002820191906000526020600020905b8154600160a060020a031681526001909101906020018083116125d8575b50505050508a614d0d565b505050505050505050565b600854600160a060020a031681565b600754604080517f8da5cb5b0000000000000000000000000000000000000000000000000000000081529051600092600160a060020a031691638da5cb5b91600480830192602092919082900301818787803b15801561267a57600080fd5b505af115801561268e573d6000803e3d6000fd5b505050506040513d60208110156126a457600080fd5b5051600160a060020a031633146126f3576040805160e560020a62461bcd0281526020600482015260136024820152600080516020615cf8833981519152604482015290519081900360640190fd5b600354841061273a576040805160e560020a62461bcd0281526020600482015260106024820152600080516020615c98833981519152604482015290519081900360640190fd5b828211612791576040805160e560020a62461bcd02815260206004820152601660248201527f457870697279206265666f7265206d6174757269747900000000000000000000604482015290519081900360640190fd5b600380548590811061279f57fe5b90600052602060002090600e02019050818160030181905550828160020181905550837f4d385ba2c40259cda374f5596718ac5694e5849b23572b3f59b4fd1be037a8608484604051808381526020018281526020019250505060405180910390a250505050565b600654600160a060020a03163314612869576040805160e560020a62461bcd02815260206004820152601560248201527f53656e646572206973206e6f7420666163746f72790000000000000000000000604482015290519081900360640190fd5b61105981615a20565b60056020526000908152604090205481565b60608060606000600760009054906101000a9004600160a060020a0316600160a060020a0316635488cc806040518163ffffffff1660e060020a028152600401602060405180830381600087803b1580156128de57600080fd5b505af11580156128f2573d6000803e3d6000fd5b505050506040513d602081101561290857600080fd5b5051851115612961576040805160e560020a62461bcd02815260206004820152601260248201527f496e76616c696420636865636b706f696e740000000000000000000000000000604482015290519081900360640190fd5b600754604080517f3f553586000000000000000000000000000000000000000000000000000000008152600481018890529051600160a060020a0390921691633f5535869160248082019260009290919082900301818387803b1580156129c757600080fd5b505af11580156129db573d6000803e3d6000fd5b505050506040513d6000823e601f3d908101601f191682016040526020811015612a0457600080fd5b810190808051640100000000811115612a1c57600080fd5b82016020810184811115612a2f57600080fd5b8151856020820283011164010000000082111715612a4c57600080fd5b505092919050505093508351604051908082528060200260200182016040528015612a81578160200160208202803883390190505b5092508351604051908082528060200260200182016040528015612aaf578160200160208202803883390190505b5091505b8351811015612bdf576007548451600160a060020a0390911690634ee2cd7e90869084908110612adf57fe5b90602001906020020151876040518363ffffffff1660e060020a0281526004018083600160a060020a0316600160a060020a0316815260200182815260200192505050602060405180830381600087803b158015612b3c57600080fd5b505af1158015612b50573d6000803e3d6000fd5b505050506040513d6020811015612b6657600080fd5b50518351849083908110612b7657fe5b602090810290910101528351600590600090869084908110612b9457fe5b90602001906020020151600160a060020a0316600160a060020a03168152602001908152602001600020548282815181101515612bcd57fe5b60209081029091010152600101612ab3565b509193909250565b600080516020615cb883398151915281565b6003805482908110612c0757fe5b60009182526020909120600e9091020180546001820154600283015460038401546004850154600586015460068701546007880154600889015460098a0154600d909a0154989a5096989597949693959294919360ff9091169290918b565b6003546000908210612cb0576040805160e560020a62461bcd0281526020600482015260106024820152600080516020615c98833981519152604482015290519081900360640190fd5b6003805483908110612cbe57fe5b60009182526020808320600160a060020a0387168452600b600e90930201919091019052604090205460ff16905092915050565b600760009054906101000a9004600160a060020a0316600160a060020a0316638da5cb5b6040518163ffffffff1660e060020a028152600401602060405180830381600087803b158015612d4557600080fd5b505af1158015612d59573d6000803e3d6000fd5b505050506040513d6020811015612d6f57600080fd5b5051600160a060020a03163314612dbe576040805160e560020a62461bcd0281526020600482015260136024820152600080516020615cf8833981519152604482015290519081900360640190fd5b61196a615aa9565b600060d060020a654d414e41474502600080600760009054906101000a9004600160a060020a0316600160a060020a0316638da5cb5b6040518163ffffffff1660e060020a028152600401602060405180830381600087803b158015612e2b57600080fd5b505af1158015612e3f573d6000803e3d6000fd5b505050506040513d6020811015612e5557600080fd5b505160065433600160a060020a039283168114945091161490508180612e785750805b80612f0857506007546040805160e060020a638658b8b9028152336004820152306024820152604481018690529051600160a060020a0390921691638658b8b9916064808201926020929091908290030181600087803b158015612edb57600080fd5b505af1158015612eef573d6000803e3d6000fd5b505050506040513d6020811015612f0557600080fd5b50515b1515612f4c576040805160e560020a62461bcd0281526020600482015260176024820152600080516020615cd8833981519152604482015290519081900360640190fd5b8451865114612fa5576040805160e560020a62461bcd02815260206004820152601860248201527f4d69736d61746368656420696e707574206c656e677468730000000000000000604482015290519081900360640190fd5b7f8e6f19b496a634d6fb5faea10ece2675995b6f7a0946a7509885eb76889e1213868642604051808060200180602001848152602001838103835286818151815260200191508051906020019060200280838360005b83811015613013578181015183820152602001612ffb565b50505050905001838103825285818151815260200191508051906020019060200280838360005b8381101561305257818101518382015260200161303a565b505050509050019550505050505060405180910390a1600093505b8551841015610f5257670de0b6b3a7640000858581518110151561308d57fe5b6020908102909101015111156130ed576040805160e560020a62461bcd02815260206004820152601960248201527f496e636f72726563742077697468686f6c64696e672074617800000000000000604482015290519081900360640190fd5b84848151811015156130fb57fe5b9060200190602002015160056000888781518110151561311757fe5b6020908102909101810151600160a060020a031682528101919091526040016000205560019093019261306d565b600080600760009054906101000a9004600160a060020a0316600160a060020a0316638da5cb5b6040518163ffffffff1660e060020a028152600401602060405180830381600087803b15801561319b57600080fd5b505af11580156131af573d6000803e3d6000fd5b505050506040513d60208110156131c557600080fd5b5051600160a060020a03163314613214576040805160e560020a62461bcd0281526020600482015260136024820152600080516020615cf8833981519152604482015290519081900360640190fd5b600160a060020a0383161515613274576040805160e560020a62461bcd02815260206004820152600f60248201527f496e76616c696420616464726573730000000000000000000000000000000000604482015290519081900360640190fd5b604080517f70a082310000000000000000000000000000000000000000000000000000000081523060048201529051849350600160a060020a038416916370a082319160248083019260209291908290030181600087803b1580156132d857600080fd5b505af11580156132ec573d6000803e3d6000fd5b505050506040513d602081101561330257600080fd5b50516040805160e060020a63a9059cbb028152336004820152602481018390529051919250600160a060020a0384169163a9059cbb916044808201926020929091908290030181600087803b15801561335a57600080fd5b505af115801561336e573d6000803e3d6000fd5b505050506040513d602081101561338457600080fd5b50511515611519576040805160e560020a62461bcd02815260206004820152600f60248201527f5472616e73666572206661696c65640000000000000000000000000000000000604482015290519081900360640190fd5b600060208190529081526040902054600160a060020a031681565b600760009054906101000a9004600160a060020a0316600160a060020a0316638da5cb5b6040518163ffffffff1660e060020a028152600401602060405180830381600087803b15801561344a57600080fd5b505af115801561345e573d6000803e3d6000fd5b505050506040513d602081101561347457600080fd5b5051600160a060020a03163314612869576040805160e560020a62461bcd0281526020600482015260136024820152600080516020615cf8833981519152604482015290519081900360640190fd5b60008060d060020a654d414e41474502600080600760009054906101000a9004600160a060020a0316600160a060020a0316638da5cb5b6040518163ffffffff1660e060020a028152600401602060405180830381600087803b15801561352957600080fd5b505af115801561353d573d6000803e3d6000fd5b505050506040513d602081101561355357600080fd5b505160065433600160a060020a0392831681149450911614905081806135765750805b8061360657506007546040805160e060020a638658b8b9028152336004820152306024820152604481018690529051600160a060020a0390921691638658b8b9916064808201926020929091908290030181600087803b1580156135d957600080fd5b505af11580156135ed573d6000803e3d6000fd5b505050506040513d602081101561360357600080fd5b50515b151561364a576040805160e560020a62461bcd0281526020600482015260176024820152600080516020615cd8833981519152604482015290519081900360640190fd5b6003548610613691576040805160e560020a62461bcd0281526020600482015260106024820152600080516020615c98833981519152604482015290519081900360640190fd5b600380548790811061369f57fe5b90600052602060002090600e020160030154421015151561370a576040805160e560020a62461bcd02815260206004820152601960248201527f4469766964656e642065787069727920696e2066757475726500000000000000604482015290519081900360640190fd5b600380548790811061371857fe5b600091825260209091206007600e90920201015460ff1615613784576040805160e560020a62461bcd02815260206004820152600f60248201527f616c726561647920636c61696d65640000000000000000000000000000000000604482015290519081900360640190fd5b600160038781548110151561379557fe5b60009182526020909120600e90910201600701805460ff191691151591909117905560038054879081106137c557fe5b90600052602060002090600e020194506137f08560050154866004015461591a90919063ffffffff16565b60008781526020818152604080832054600154825160e060020a63a9059cbb028152600160a060020a039182166004820152602481018790529251959950169363a9059cbb93604480840194938390030190829087803b15801561385357600080fd5b505af1158015613867573d6000803e3d6000fd5b505050506040513d602081101561387d57600080fd5b505115156138d5576040805160e560020a62461bcd02815260206004820152600f60248201527f7472616e73666572206661696c65640000000000000000000000000000000000604482015290519081900360640190fd5b600086815260208181526040918290205460015483518881529351600160a060020a03928316948b9493909216927f9766d0325a2a3c017f6cf974bfd1bd0b26e705570ce8250fe5e078a3e832d52d928290030190a4505050505050565b606080606080606080600060038054905060405190808252806020026020018201604052801561396d578160200160208202803883390190505b50600354604080518281526020808402820101909152919850801561399c578160200160208202803883390190505b5060035460408051828152602080840282010190915291975080156139cb578160200160208202803883390190505b5060035460408051828152602080840282010190915291965080156139fa578160200160208202803883390190505b506003546040805182815260208084028201019091529195508015613a29578160200160208202803883390190505b506003546040805182815260208084028201019091529194508015613a58578160200160208202803883390190505b509150600090505b600354811015613b1a57613a73816112a3565b8c87815181101515613a8157fe5b9060200190602002018c88815181101515613a9857fe5b9060200190602002018c89815181101515613aaf57fe5b9060200190602002018c8a815181101515613ac657fe5b9060200190602002018c8b815181101515613add57fe5b9060200190602002018c8c815181101515613af457fe5b602090810290910101959095529490935293909252929092529190915252600101613a60565b50909192939495565b60d060020a654d414e41474502600080600760009054906101000a9004600160a060020a0316600160a060020a0316638da5cb5b6040518163ffffffff1660e060020a028152600401602060405180830381600087803b158015613b8657600080fd5b505af1158015613b9a573d6000803e3d6000fd5b505050506040513d6020811015613bb057600080fd5b505160065433600160a060020a039283168114945091161490508180613bd35750805b80613c6357506007546040805160e060020a638658b8b9028152336004820152306024820152604481018690529051600160a060020a0390921691638658b8b9916064808201926020929091908290030181600087803b158015613c3657600080fd5b505af1158015613c4a573d6000803e3d6000fd5b505050506040513d6020811015613c6057600080fd5b50515b1515613ca7576040805160e560020a62461bcd0281526020600482015260176024820152600080516020615cd8833981519152604482015290519081900360640190fd5b611d6e888888886004805480602002602001604051908101604052809291908181526020018280548015613d0457602002820191906000526020600020905b8154600160a060020a03168152600190910190602001808311613ce6575b505050505089611081565b600754600160a060020a031681565b6004805482908110613d2c57fe5b600091825260209091200154600160a060020a0316905081565b604080516002808252606080830184529283929190602083019080388339019050509050600080516020615cb8833981519152816000815181101515613d8857fe5b60209081029091010152805160d060020a654d414e414745029082906001908110613daf57fe5b602090810290910101529050805b5090565b600654600160a060020a031681565b60008060d060020a654d414e41474502600080600760009054906101000a9004600160a060020a0316600160a060020a0316638da5cb5b6040518163ffffffff1660e060020a028152600401602060405180830381600087803b158015613e3657600080fd5b505af1158015613e4a573d6000803e3d6000fd5b505050506040513d6020811015613e6057600080fd5b505160065433600160a060020a039283168114945091161490508180613e835750805b80613f1357506007546040805160e060020a638658b8b9028152336004820152306024820152604481018690529051600160a060020a0390921691638658b8b9916064808201926020929091908290030181600087803b158015613ee657600080fd5b505af1158015613efa573d6000803e3d6000fd5b505050506040513d6020811015613f1057600080fd5b50515b1515613f57576040805160e560020a62461bcd0281526020600482015260176024820152600080516020615cd8833981519152604482015290519081900360640190fd5b60025486511115613fb2576040805160e560020a62461bcd02815260206004820152601b60248201527f546f6f206d616e79206578636c75646564206164647265737365730000000000604482015290519081900360640190fd5b600094505b85518510156140f8578551600090879087908110613fd157fe5b60209081029091010151600160a060020a0316141561403a576040805160e560020a62461bcd02815260206004820152600f60248201527f496e76616c696420616464726573730000000000000000000000000000000000604482015290519081900360640190fd5b8460010193505b85518410156140ed57858481518110151561405857fe5b90602001906020020151600160a060020a0316868681518110151561407957fe5b60209081029091010151600160a060020a031614156140e2576040805160e560020a62461bcd02815260206004820152601960248201527f4475706c6963617465206578636c756465206164647265737300000000000000604482015290519081900360640190fd5b600190930192614041565b600190940193613fb7565b855161410b906004906020890190615bfe565b507f6f7d61057c8835d8bd9272c926f638242a70f6441466ae91cd272872ed84151f6004426040518080602001838152602001828103825284818154815260200191508054801561418557602002820191906000526020600020905b8154600160a060020a03168152600190910190602001808311614167575b5050935050505060405180910390a1505050505050565b7f4645455f41444d494e000000000000000000000000000000000000000000000081565b60008060606000806000600080516020615cb8833981519152600080600760009054906101000a9004600160a060020a0316600160a060020a0316638da5cb5b6040518163ffffffff1660e060020a028152600401602060405180830381600087803b15801561422f57600080fd5b505af1158015614243573d6000803e3d6000fd5b505050506040513d602081101561425957600080fd5b505160065433600160a060020a03928316811494509116149050818061427c5750805b8061430c57506007546040805160e060020a638658b8b9028152336004820152306024820152604481018690529051600160a060020a0390921691638658b8b9916064808201926020929091908290030181600087803b1580156142df57600080fd5b505af11580156142f3573d6000803e3d6000fd5b505050506040513d602081101561430957600080fd5b50515b1515614350576040805160e560020a62461bcd0281526020600482015260176024820152600080516020615cd8833981519152604482015290519081900360640190fd5b8b61435a8161556f565b600380548e90811061436857fe5b600091825260208220600e909102018054600754604080517f3f553586000000000000000000000000000000000000000000000000000000008152600481018490529051939e50919c50600160a060020a031692633f5535869260248084019382900301818387803b1580156143dd57600080fd5b505af11580156143f1573d6000803e3d6000fd5b505050506040513d6000823e601f3d908101601f19168201604052602081101561441a57600080fd5b81019080805164010000000081111561443257600080fd5b8201602081018481111561444557600080fd5b815185602082028301116401000000008211171561446257600080fd5b50508051909b506144879350915061448290508e8e63ffffffff615b6416565b615b71565b96508b95505b868610156145135787868151811015156144a357fe5b6020908102909101810151600160a060020a0381166000908152600a8d0190925260409091205490955060ff161580156144f85750600160a060020a0385166000908152600b8b01602052604090205460ff16155b1561450857614508858b8f615721565b60019095019461448d565b50505050505050505050505050565b6060600480548060200260200160405190810160405280929190818152602001828054801561457a57602002820191906000526020600020905b8154600160a060020a0316815260019091019060200180831161455c575b5050505050905090565b60608060608060608060008060008060006003805490508c1015156145e1576040805160e560020a62461bcd0281526020600482015260106024820152600080516020615c98833981519152604482015290519081900360640190fd5b600380548d9081106145ef57fe5b600091825260208220600e909102018054600754604080517f3f553586000000000000000000000000000000000000000000000000000000008152600481018490529051939950919750600160a060020a031692633f5535869260248084019382900301818387803b15801561466457600080fd5b505af1158015614678573d6000803e3d6000fd5b505050506040513d6000823e601f3d908101601f1916820160405260208110156146a157600080fd5b8101908080516401000000008111156146b957600080fd5b820160208101848111156146cc57600080fd5b81518560208202830111640100000000821117156146e957600080fd5b50509291905050509a508a5160405190808252806020026020018201604052801561471e578160200160208202803883390190505b5099508a5160405190808252806020026020018201604052801561474c578160200160208202803883390190505b5098508a5160405190808252806020026020018201604052801561477a578160200160208202803883390190505b5097508a516040519080825280602002602001820160405280156147a8578160200160208202803883390190505b5096508a516040519080825280602002602001820160405280156147d6578160200160208202803883390190505b5095505b8a51831015614ade5784600a0160008c858151811015156147f757fe5b6020908102909101810151600160a060020a03168252810191909152604001600020548a5160ff909116908b908590811061482e57fe5b9115156020928302909101909101528a51600b8601906000908d908690811061485357fe5b6020908102909101810151600160a060020a0316825281019190915260400160002054895160ff909116908a908590811061488a57fe5b9115156020928302909101909101526007548b51600160a060020a0390911690634ee2cd7e908d90869081106148bc57fe5b9060200190602002015187600001546040518363ffffffff1660e060020a0281526004018083600160a060020a0316600160a060020a0316815260200182815260200192505050602060405180830381600087803b15801561491d57600080fd5b505af1158015614931573d6000803e3d6000fd5b505050506040513d602081101561494757600080fd5b5051865187908590811061495757fe5b60209081029091010152885189908490811061496f57fe5b906020019060200201511515614ad357898381518110151561498d57fe5b9060200190602002015115614a6c5784600c0160008c858151811015156149b057fe5b90602001906020020151600160a060020a0316600160a060020a031681526020019081526020016000205488848151811015156149e957fe5b602090810290910101528751614a4f90899085908110614a0557fe5b90602001906020020151614a438760060154611f9c89600401548b89815181101515614a2d57fe5b602090810290910101519063ffffffff6159e216565b9063ffffffff61591a16565b8784815181101515614a5d57fe5b60209081029091010152614ad3565b614a8d8c8c85815181101515614a7e57fe5b90602001906020020151611e14565b91509150808884815181101515614aa057fe5b60209081029091010152614aba828263ffffffff61591a16565b8784815181101515614ac857fe5b602090810290910101525b6001909201916147da565b505050505091939550919395565b60007f434845434b504f494e5400000000000000000000000000000000000000000000600080600760009054906101000a9004600160a060020a0316600160a060020a0316638da5cb5b6040518163ffffffff1660e060020a028152600401602060405180830381600087803b158015614b6557600080fd5b505af1158015614b79573d6000803e3d6000fd5b505050506040513d6020811015614b8f57600080fd5b505160065433600160a060020a039283168114945091161490508180614bb25750805b80614c4257506007546040805160e060020a638658b8b9028152336004820152306024820152604481018690529051600160a060020a0390921691638658b8b9916064808201926020929091908290030181600087803b158015614c1557600080fd5b505af1158015614c29573d6000803e3d6000fd5b505050506040513d6020811015614c3f57600080fd5b50515b1515614c86576040805160e560020a62461bcd0281526020600482015260176024820152600080516020615cd8833981519152604482015290519081900360640190fd5b600760009054906101000a9004600160a060020a0316600160a060020a031663ff0b9c906040518163ffffffff1660e060020a028152600401602060405180830381600087803b158015614cd957600080fd5b505af1158015614ced573d6000803e3d6000fd5b505050506040513d6020811015614d0357600080fd5b5051935050505090565b6007546002548351600160a060020a03909216916000918291829182911115614d80576040805160e560020a62461bcd02815260206004820152601b60248201527f546f6f206d616e7920616464726573736573206578636c756465640000000000604482015290519081900360640190fd5b8b8b11614dd7576040805160e560020a62461bcd02815260206004820152601660248201527f457870697279206265666f7265206d6174757269747900000000000000000000604482015290519081900360640190fd5b428b11614e2e576040805160e560020a62461bcd02815260206004820152600e60248201527f45787069727920696e2070617374000000000000000000000000000000000000604482015290519081900360640190fd5b60008911614e86576040805160e560020a62461bcd02815260206004820152601060248201527f4e6f206469766964656e642073656e7400000000000000000000000000000000604482015290519081900360640190fd5b600160a060020a038a161515614ee6576040805160e560020a62461bcd02815260206004820152600d60248201527f496e76616c696420746f6b656e00000000000000000000000000000000000000604482015290519081900360640190fd5b84600160a060020a0316635488cc806040518163ffffffff1660e060020a028152600401602060405180830381600087803b158015614f2457600080fd5b505af1158015614f38573d6000803e3d6000fd5b505050506040513d6020811015614f4e57600080fd5b5051881115614fa7576040805160e560020a62461bcd02815260206004820152601260248201527f496e76616c696420636865636b706f696e740000000000000000000000000000604482015290519081900360640190fd5b604080517f23b872dd000000000000000000000000000000000000000000000000000000008152336004820152306024820152604481018b90529051600160a060020a038c16916323b872dd9160648083019260209291908290030181600087803b15801561501557600080fd5b505af1158015615029573d6000803e3d6000fd5b505050506040513d602081101561503f57600080fd5b50511515615097576040805160e560020a62461bcd02815260206004820152601560248201527f696e737566666963656e7420616c6c6f77616e63650000000000000000000000604482015290519081900360640190fd5b7fff000000000000000000000000000000000000000000000000000000000000007f0100000000000000000000000000000000000000000000000000000000000000600088901a021615156150eb57600080fd5b600380549050935084600160a060020a031663981b24d0896040518263ffffffff1660e060020a02815260040180828152602001915050602060405180830381600087803b15801561513c57600080fd5b505af1158015615150573d6000803e3d6000fd5b505050506040513d602081101561516657600080fd5b81019080805190602001909291905050509250600091506003610160604051908101604052808a81526020014281526020018e81526020018d81526020018b81526020016000815260200160008152602001600015158152602001600081526020016000815260200188600019168152509080600181540180825580915050906001820390600052602060002090600e020160009091929091909150600082015181600001556020820151816001015560408201518160020155606082015181600301556080820151816004015560a0820151816005015560c0820151816006015560e08201518160070160006101000a81548160ff0219169083151502179055506101008201518160080155610120820151816009015561014082015181600d0190600019169055505050600090505b86518110156154e85786516000908890839081106152b157fe5b60209081029091010151600160a060020a0316141561531a576040805160e560020a62461bcd02815260206004820152600f60248201527f496e76616c696420616464726573730000000000000000000000000000000000604482015290519081900360640190fd5b600380548590811061532857fe5b90600052602060002090600e0201600b016000888381518110151561534957fe5b6020908102909101810151600160a060020a031682528101919091526040016000205460ff16156153c4576040805160e560020a62461bcd02815260206004820152601560248201527f6475706564206578636c75646520616464726573730000000000000000000000604482015290519081900360640190fd5b61547a85600160a060020a0316634ee2cd7e89848151811015156153e457fe5b906020019060200201518b6040518363ffffffff1660e060020a0281526004018083600160a060020a0316600160a060020a0316815260200182815260200192505050602060405180830381600087803b15801561544157600080fd5b505af1158015615455573d6000803e3d6000fd5b505050506040513d602081101561546b57600080fd5b5051839063ffffffff615b6416565b9150600160038581548110151561548d57fe5b90600052602060002090600e0201600b01600089848151811015156154ae57fe5b602090810291909101810151600160a060020a03168252810191909152604001600020805460ff1916911515919091179055600101615297565b6154f8838363ffffffff61591a16565b600380548690811061550657fe5b60009182526020808320600e92909202909101600601929092558581529081905260409020805473ffffffffffffffffffffffffffffffffffffffff1916600160a060020a038c16179055615561888d8d8d8d888a8d615b89565b505050505050505050505050565b60035481106155b6576040805160e560020a62461bcd0281526020600482015260106024820152600080516020615c98833981519152604482015290519081900360640190fd5b60038054829081106155c457fe5b600091825260209091206007600e90920201015460ff1615615630576040805160e560020a62461bcd02815260206004820152601260248201527f4469766964656e64207265636c61696d65640000000000000000000000000000604482015290519081900360640190fd5b600380548290811061563e57fe5b90600052602060002090600e02016002015442101515156156a9576040805160e560020a62461bcd02815260206004820152601b60248201527f4469766964656e64206d6174757269747920696e206675747572650000000000604482015290519081900360640190fd5b60038054829081106156b757fe5b90600052602060002090600e02016003015442101515611059576040805160e560020a62461bcd02815260206004820152601760248201527f4469766964656e642065787069727920696e2070617374000000000000000000604482015290519081900360640190fd5b60008060006157308487611e14565b600160a060020a0388166000908152600a880160205260409020805460ff191660011790556005870154919450925061577090849063ffffffff615b6416565b6005860155615785838363ffffffff61591a16565b905060008111156158765760008481526020818152604080832054815160e060020a63a9059cbb028152600160a060020a038b81166004830152602482018790529251929091169363a9059cbb9360448084019491939192918390030190829087803b1580156157f457600080fd5b505af1158015615808573d6000803e3d6000fd5b505050506040513d602081101561581e57600080fd5b50511515615876576040805160e560020a62461bcd02815260206004820152600f60248201527f7472616e73666572206661696c65640000000000000000000000000000000000604482015290519081900360640190fd5b60008211156158b7576008850154615894908363ffffffff615b6416565b6008860155600160a060020a0386166000908152600c8601602052604090208290555b600084815260208181526040918290205482518681529182018590528251600160a060020a03918216938893928b16927fced5aaa2960f7fd397627b6d68ccb25eae2d3db92a459182962e6f9b5786241a929081900390910190a4505050505050565b60008282111561592657fe5b50900390565b60085460a060020a900460ff16151561598f576040805160e560020a62461bcd02815260206004820152601660248201527f436f6e7472616374206973206e6f742070617573656400000000000000000000604482015290519081900360640190fd5b6008805474ff0000000000000000000000000000000000000000191690556040805142815290517faaa520fdd7d2c83061d632fa017b0432407e798818af63ea908589fceda39ab79181900360200190a1565b60008215156159f357506000611e0e565b50818102818382811515615a0357fe5b0414611e0e57fe5b60008183811515615a1857fe5b049392505050565b600160a060020a0381161515615a3557600080fd5b600154604080514281529051600160a060020a038085169316917ffc2c92d63470564c67e93b5d868cba9e923476aae9ad9718920da95f48eb8695919081900360200190a36001805473ffffffffffffffffffffffffffffffffffffffff1916600160a060020a0392909216919091179055565b60085460a060020a900460ff1615615b0b576040805160e560020a62461bcd02815260206004820152601260248201527f436f6e7472616374206973207061757365640000000000000000000000000000604482015290519081900360640190fd5b6008805474ff0000000000000000000000000000000000000000191660a060020a1790556040805142815290517f68b095021b1f40fe513109f513c66692f0b3219aee674a69f4efc57badb8201d9181900360200190a1565b81810182811015611e0e57fe5b6000818310615b805781615b82565b825b9392505050565b60408051898152426020820152808201899052606081018890526080810186905260a0810185905260c0810184905290518291600160a060020a0388169133917f66944b9b992875f1854a548c80939651e27d9b825c50b81aee55a2882807e116919081900360e00190a45050505050505050565b828054828255906000526020600020908101928215615c60579160200282015b82811115615c60578251825473ffffffffffffffffffffffffffffffffffffffff1916600160a060020a03909116178255602090920191600190910190615c1e565b50613dbd9261107e9250905b80821115613dbd57805473ffffffffffffffffffffffffffffffffffffffff19168155600101615c6c5600496e76616c6964206469766964656e640000000000000000000000000000000044495354524942555445000000000000000000000000000000000000000000005065726d697373696f6e20636865636b206661696c656400000000000000000053656e646572206973206e6f74206f776e657200000000000000000000000000a165627a7a723058208878aa619ba55e1e38c797de0b130f8e8ae8551c14acf55750de02b9be8cb75c0029",
  "source": "pragma solidity ^0.4.24;\r\n\r\nimport \"./DividendCheckpoint.sol\";\r\nimport \"./ERC20DividendCheckpointStorage.sol\";\r\nimport \"../../interfaces/IOwnable.sol\";\r\nimport \"../../interfaces/IERC20.sol\";\r\n\r\n/**\r\n * @title Checkpoint module for issuing ERC20 dividends\r\n */\r\ncontract ERC20DividendCheckpoint is ERC20DividendCheckpointStorage, DividendCheckpoint {\r\n    using SafeMath for uint256;\r\n\r\n    event ERC20DividendDeposited(\r\n        address indexed _depositor,\r\n        uint256 _checkpointId,\r\n        uint256 _created,\r\n        uint256 _maturity,\r\n        uint256 _expiry,\r\n        address indexed _token,\r\n        uint256 _amount,\r\n        uint256 _totalSupply,\r\n        uint256 _dividendIndex,\r\n        bytes32 indexed _name\r\n    );\r\n    event ERC20DividendClaimed(\r\n        address indexed _payee,\r\n        uint256 indexed _dividendIndex,\r\n        address indexed _token,\r\n        uint256 _amount,\r\n        uint256 _withheld\r\n    );\r\n    event ERC20DividendReclaimed(\r\n        address indexed _claimer,\r\n        uint256 indexed _dividendIndex,\r\n        address indexed _token,\r\n        uint256 _claimedAmount\r\n    );\r\n    event ERC20DividendWithholdingWithdrawn(\r\n        address indexed _claimer,\r\n        uint256 indexed _dividendIndex,\r\n        address indexed _token,\r\n        uint256 _withheldAmount\r\n    );\r\n\r\n    /**\r\n     * @notice Constructor\r\n     * @param _securityToken Address of the security token\r\n     * @param _polyAddress Address of the polytoken\r\n     */\r\n    constructor (address _securityToken, address _polyAddress) public\r\n    Module(_securityToken, _polyAddress)\r\n    {\r\n    }\r\n\r\n    /**\r\n     * @notice Creates a dividend and checkpoint for the dividend\r\n     * @param _maturity Time from which dividend can be paid\r\n     * @param _expiry Time until dividend can no longer be paid, and can be reclaimed by issuer\r\n     * @param _token Address of ERC20 token in which dividend is to be denominated\r\n     * @param _amount Amount of specified token for dividend\r\n     * @param _name Name/Title for identification\r\n     */\r\n    function createDividend(\r\n        uint256 _maturity,\r\n        uint256 _expiry,\r\n        address _token,\r\n        uint256 _amount,\r\n        bytes32 _name\r\n    )\r\n        external\r\n        withPerm(MANAGE)\r\n    {\r\n        createDividendWithExclusions(_maturity, _expiry, _token, _amount, excluded, _name);\r\n    }\r\n\r\n    /**\r\n     * @notice Creates a dividend with a provided checkpoint\r\n     * @param _maturity Time from which dividend can be paid\r\n     * @param _expiry Time until dividend can no longer be paid, and can be reclaimed by issuer\r\n     * @param _token Address of ERC20 token in which dividend is to be denominated\r\n     * @param _amount Amount of specified token for dividend\r\n     * @param _checkpointId Checkpoint id from which to create dividends\r\n     * @param _name Name/Title for identification\r\n     */\r\n    function createDividendWithCheckpoint(\r\n        uint256 _maturity,\r\n        uint256 _expiry,\r\n        address _token,\r\n        uint256 _amount,\r\n        uint256 _checkpointId,\r\n        bytes32 _name\r\n    )\r\n        external\r\n        withPerm(MANAGE)\r\n    {\r\n        _createDividendWithCheckpointAndExclusions(_maturity, _expiry, _token, _amount, _checkpointId, excluded, _name);\r\n    }\r\n\r\n    /**\r\n     * @notice Creates a dividend and checkpoint for the dividend\r\n     * @param _maturity Time from which dividend can be paid\r\n     * @param _expiry Time until dividend can no longer be paid, and can be reclaimed by issuer\r\n     * @param _token Address of ERC20 token in which dividend is to be denominated\r\n     * @param _amount Amount of specified token for dividend\r\n     * @param _excluded List of addresses to exclude\r\n     * @param _name Name/Title for identification\r\n     */\r\n    function createDividendWithExclusions(\r\n        uint256 _maturity,\r\n        uint256 _expiry,\r\n        address _token,\r\n        uint256 _amount,\r\n        address[] _excluded,\r\n        bytes32 _name\r\n    )\r\n        public\r\n        withPerm(MANAGE)\r\n    {\r\n        uint256 checkpointId = ISecurityToken(securityToken).createCheckpoint();\r\n        _createDividendWithCheckpointAndExclusions(_maturity, _expiry, _token, _amount, checkpointId, _excluded, _name);\r\n    }\r\n\r\n    /**\r\n     * @notice Creates a dividend with a provided checkpoint\r\n     * @param _maturity Time from which dividend can be paid\r\n     * @param _expiry Time until dividend can no longer be paid, and can be reclaimed by issuer\r\n     * @param _token Address of ERC20 token in which dividend is to be denominated\r\n     * @param _amount Amount of specified token for dividend\r\n     * @param _checkpointId Checkpoint id from which to create dividends\r\n     * @param _excluded List of addresses to exclude\r\n     * @param _name Name/Title for identification\r\n     */\r\n    function createDividendWithCheckpointAndExclusions(\r\n        uint256 _maturity,\r\n        uint256 _expiry,\r\n        address _token,\r\n        uint256 _amount,\r\n        uint256 _checkpointId,\r\n        address[] _excluded,\r\n        bytes32 _name\r\n    )\r\n        public\r\n        withPerm(MANAGE)\r\n    {\r\n        _createDividendWithCheckpointAndExclusions(_maturity, _expiry, _token, _amount, _checkpointId, _excluded, _name);\r\n    }\r\n\r\n    /**\r\n     * @notice Creates a dividend with a provided checkpoint\r\n     * @param _maturity Time from which dividend can be paid\r\n     * @param _expiry Time until dividend can no longer be paid, and can be reclaimed by issuer\r\n     * @param _token Address of ERC20 token in which dividend is to be denominated\r\n     * @param _amount Amount of specified token for dividend\r\n     * @param _checkpointId Checkpoint id from which to create dividends\r\n     * @param _excluded List of addresses to exclude\r\n     * @param _name Name/Title for identification\r\n     */\r\n    function _createDividendWithCheckpointAndExclusions(\r\n        uint256 _maturity,\r\n        uint256 _expiry,\r\n        address _token,\r\n        uint256 _amount,\r\n        uint256 _checkpointId,\r\n        address[] _excluded,\r\n        bytes32 _name\r\n    )\r\n        internal\r\n    {\r\n        ISecurityToken securityTokenInstance = ISecurityToken(securityToken);\r\n        require(_excluded.length <= EXCLUDED_ADDRESS_LIMIT, \"Too many addresses excluded\");\r\n        require(_expiry > _maturity, \"Expiry before maturity\");\r\n        /*solium-disable-next-line security/no-block-members*/\r\n        require(_expiry > now, \"Expiry in past\");\r\n        require(_amount > 0, \"No dividend sent\");\r\n        require(_token != address(0), \"Invalid token\");\r\n        require(_checkpointId <= securityTokenInstance.currentCheckpointId(), \"Invalid checkpoint\");\r\n        require(IERC20(_token).transferFrom(msg.sender, address(this), _amount), \"insufficent allowance\");\r\n        require(_name[0] != 0);\r\n        uint256 dividendIndex = dividends.length;\r\n        uint256 currentSupply = securityTokenInstance.totalSupplyAt(_checkpointId);\r\n        uint256 excludedSupply = 0;\r\n        dividends.push(\r\n          Dividend(\r\n            _checkpointId,\r\n            now, /*solium-disable-line security/no-block-members*/\r\n            _maturity,\r\n            _expiry,\r\n            _amount,\r\n            0,\r\n            0,\r\n            false,\r\n            0,\r\n            0,\r\n            _name\r\n          )\r\n        );\r\n\r\n        for (uint256 j = 0; j < _excluded.length; j++) {\r\n            require (_excluded[j] != address(0), \"Invalid address\");\r\n            require(!dividends[dividendIndex].dividendExcluded[_excluded[j]], \"duped exclude address\");\r\n            excludedSupply = excludedSupply.add(securityTokenInstance.balanceOfAt(_excluded[j], _checkpointId));\r\n            dividends[dividendIndex].dividendExcluded[_excluded[j]] = true;\r\n        }\r\n\r\n        dividends[dividendIndex].totalSupply = currentSupply.sub(excludedSupply);\r\n        dividendTokens[dividendIndex] = _token;\r\n        _emitERC20DividendDepositedEvent(_checkpointId, _maturity, _expiry, _token, _amount, currentSupply, dividendIndex, _name);\r\n    }\r\n\r\n    /**\r\n     * @notice Emits the ERC20DividendDeposited event.\r\n     * Seperated into a different function as a workaround for stack too deep error\r\n     */\r\n    function _emitERC20DividendDepositedEvent(\r\n        uint256 _checkpointId,\r\n        uint256 _maturity,\r\n        uint256 _expiry,\r\n        address _token,\r\n        uint256 _amount,\r\n        uint256 currentSupply,\r\n        uint256 dividendIndex,\r\n        bytes32 _name\r\n    )\r\n        internal\r\n    {\r\n        /*solium-disable-next-line security/no-block-members*/\r\n        emit ERC20DividendDeposited(msg.sender, _checkpointId, now, _maturity, _expiry, _token, _amount, currentSupply, dividendIndex, _name);\r\n    }\r\n\r\n    /**\r\n     * @notice Internal function for paying dividends\r\n     * @param _payee Address of investor\r\n     * @param _dividend Storage with previously issued dividends\r\n     * @param _dividendIndex Dividend to pay\r\n     */\r\n    function _payDividend(address _payee, Dividend storage _dividend, uint256 _dividendIndex) internal {\r\n        (uint256 claim, uint256 withheld) = calculateDividend(_dividendIndex, _payee);\r\n        _dividend.claimed[_payee] = true;\r\n        _dividend.claimedAmount = claim.add(_dividend.claimedAmount);\r\n        uint256 claimAfterWithheld = claim.sub(withheld);\r\n        if (claimAfterWithheld > 0) {\r\n            require(IERC20(dividendTokens[_dividendIndex]).transfer(_payee, claimAfterWithheld), \"transfer failed\");\r\n        }\r\n        if (withheld > 0) {\r\n            _dividend.totalWithheld = _dividend.totalWithheld.add(withheld);\r\n            _dividend.withheld[_payee] = withheld;\r\n        }\r\n        emit ERC20DividendClaimed(_payee, _dividendIndex, dividendTokens[_dividendIndex], claim, withheld);\r\n    }\r\n\r\n    /**\r\n     * @notice Issuer can reclaim remaining unclaimed dividend amounts, for expired dividends\r\n     * @param _dividendIndex Dividend to reclaim\r\n     */\r\n    function reclaimDividend(uint256 _dividendIndex) external withPerm(MANAGE) {\r\n        require(_dividendIndex < dividends.length, \"Invalid dividend\");\r\n        /*solium-disable-next-line security/no-block-members*/\r\n        require(now >= dividends[_dividendIndex].expiry, \"Dividend expiry in future\");\r\n        require(!dividends[_dividendIndex].reclaimed, \"already claimed\");\r\n        dividends[_dividendIndex].reclaimed = true;\r\n        Dividend storage dividend = dividends[_dividendIndex];\r\n        uint256 remainingAmount = dividend.amount.sub(dividend.claimedAmount);\r\n        require(IERC20(dividendTokens[_dividendIndex]).transfer(wallet, remainingAmount), \"transfer failed\");\r\n        emit ERC20DividendReclaimed(wallet, _dividendIndex, dividendTokens[_dividendIndex], remainingAmount);\r\n    }\r\n\r\n    /**\r\n     * @notice Allows issuer to withdraw withheld tax\r\n     * @param _dividendIndex Dividend to withdraw from\r\n     */\r\n    function withdrawWithholding(uint256 _dividendIndex) external withPerm(MANAGE) {\r\n        require(_dividendIndex < dividends.length, \"Invalid dividend\");\r\n        Dividend storage dividend = dividends[_dividendIndex];\r\n        uint256 remainingWithheld = dividend.totalWithheld.sub(dividend.totalWithheldWithdrawn);\r\n        dividend.totalWithheldWithdrawn = dividend.totalWithheld;\r\n        require(IERC20(dividendTokens[_dividendIndex]).transfer(wallet, remainingWithheld), \"transfer failed\");\r\n        emit ERC20DividendWithholdingWithdrawn(wallet, _dividendIndex, dividendTokens[_dividendIndex], remainingWithheld);\r\n    }\r\n\r\n}\r\n",
  "sourcePath": "/Users/federicoelgarte/Polymath/polymath-core/contracts/modules/Checkpoint/ERC20DividendCheckpoint.sol",
  "compiler": {
    "name": "solc",
    "version": "0.4.24+commit.e67f0147.Emscripten.clang"
  },
  "schemaVersion": "2.0.1",
  "updatedAt": "2019-03-22T13:54:14.770Z"
}