{
  "contractName": "ManualApprovalTransferManager",
  "abi": [
    {
      "constant": false,
      "inputs": [],
      "name": "unpause",
      "outputs": [],
      "payable": false,
      "stateMutability": "nonpayable",
      "type": "function"
    },
    {
      "constant": true,
      "inputs": [],
      "name": "paused",
      "outputs": [
        {
          "name": "",
          "type": "bool"
        }
      ],
      "payable": false,
      "stateMutability": "view",
      "type": "function"
    },
    {
      "constant": true,
      "inputs": [
        {
          "name": "",
          "type": "address"
        },
        {
          "name": "",
          "type": "address"
        }
      ],
      "name": "approvalIndex",
      "outputs": [
        {
          "name": "",
          "type": "uint256"
        }
      ],
      "payable": false,
      "stateMutability": "view",
      "type": "function"
    },
    {
      "constant": false,
      "inputs": [
        {
          "name": "_amount",
          "type": "uint256"
        }
      ],
      "name": "takeFee",
      "outputs": [
        {
          "name": "",
          "type": "bool"
        }
      ],
      "payable": false,
      "stateMutability": "nonpayable",
      "type": "function"
    },
    {
      "constant": true,
      "inputs": [
        {
          "name": "",
          "type": "uint256"
        }
      ],
      "name": "approvals",
      "outputs": [
        {
          "name": "from",
          "type": "address"
        },
        {
          "name": "to",
          "type": "address"
        },
        {
          "name": "allowance",
          "type": "uint256"
        },
        {
          "name": "expiryTime",
          "type": "uint256"
        },
        {
          "name": "description",
          "type": "bytes32"
        }
      ],
      "payable": false,
      "stateMutability": "view",
      "type": "function"
    },
    {
      "constant": true,
      "inputs": [],
      "name": "polyToken",
      "outputs": [
        {
          "name": "",
          "type": "address"
        }
      ],
      "payable": false,
      "stateMutability": "view",
      "type": "function"
    },
    {
      "constant": false,
      "inputs": [],
      "name": "pause",
      "outputs": [],
      "payable": false,
      "stateMutability": "nonpayable",
      "type": "function"
    },
    {
      "constant": true,
      "inputs": [],
      "name": "TRANSFER_APPROVAL",
      "outputs": [
        {
          "name": "",
          "type": "bytes32"
        }
      ],
      "payable": false,
      "stateMutability": "view",
      "type": "function"
    },
    {
      "constant": true,
      "inputs": [],
      "name": "securityToken",
      "outputs": [
        {
          "name": "",
          "type": "address"
        }
      ],
      "payable": false,
      "stateMutability": "view",
      "type": "function"
    },
    {
      "constant": true,
      "inputs": [],
      "name": "factory",
      "outputs": [
        {
          "name": "",
          "type": "address"
        }
      ],
      "payable": false,
      "stateMutability": "view",
      "type": "function"
    },
    {
      "constant": true,
      "inputs": [],
      "name": "FEE_ADMIN",
      "outputs": [
        {
          "name": "",
          "type": "bytes32"
        }
      ],
      "payable": false,
      "stateMutability": "view",
      "type": "function"
    },
    {
      "inputs": [
        {
          "name": "_securityToken",
          "type": "address"
        },
        {
          "name": "_polyAddress",
          "type": "address"
        }
      ],
      "payable": false,
      "stateMutability": "nonpayable",
      "type": "constructor"
    },
    {
      "anonymous": false,
      "inputs": [
        {
          "indexed": true,
          "name": "_from",
          "type": "address"
        },
        {
          "indexed": true,
          "name": "_to",
          "type": "address"
        },
        {
          "indexed": false,
          "name": "_allowance",
          "type": "uint256"
        },
        {
          "indexed": false,
          "name": "_expiryTime",
          "type": "uint256"
        },
        {
          "indexed": false,
          "name": "_description",
          "type": "bytes32"
        },
        {
          "indexed": true,
          "name": "_addedBy",
          "type": "address"
        }
      ],
      "name": "AddManualApproval",
      "type": "event"
    },
    {
      "anonymous": false,
      "inputs": [
        {
          "indexed": true,
          "name": "_from",
          "type": "address"
        },
        {
          "indexed": true,
          "name": "_to",
          "type": "address"
        },
        {
          "indexed": false,
          "name": "_expiryTime",
          "type": "uint256"
        },
        {
          "indexed": false,
          "name": "_allowance",
          "type": "uint256"
        },
        {
          "indexed": false,
          "name": "_description",
          "type": "bytes32"
        },
        {
          "indexed": true,
          "name": "_edittedBy",
          "type": "address"
        }
      ],
      "name": "ModifyManualApproval",
      "type": "event"
    },
    {
      "anonymous": false,
      "inputs": [
        {
          "indexed": true,
          "name": "_from",
          "type": "address"
        },
        {
          "indexed": true,
          "name": "_to",
          "type": "address"
        },
        {
          "indexed": true,
          "name": "_addedBy",
          "type": "address"
        }
      ],
      "name": "RevokeManualApproval",
      "type": "event"
    },
    {
      "anonymous": false,
      "inputs": [
        {
          "indexed": false,
          "name": "_timestammp",
          "type": "uint256"
        }
      ],
      "name": "Pause",
      "type": "event"
    },
    {
      "anonymous": false,
      "inputs": [
        {
          "indexed": false,
          "name": "_timestamp",
          "type": "uint256"
        }
      ],
      "name": "Unpause",
      "type": "event"
    },
    {
      "constant": true,
      "inputs": [],
      "name": "getInitFunction",
      "outputs": [
        {
          "name": "",
          "type": "bytes4"
        }
      ],
      "payable": false,
      "stateMutability": "pure",
      "type": "function"
    },
    {
      "constant": false,
      "inputs": [
        {
          "name": "_from",
          "type": "address"
        },
        {
          "name": "_to",
          "type": "address"
        },
        {
          "name": "_amount",
          "type": "uint256"
        },
        {
          "name": "",
          "type": "bytes"
        },
        {
          "name": "_isTransfer",
          "type": "bool"
        }
      ],
      "name": "verifyTransfer",
      "outputs": [
        {
          "name": "",
          "type": "uint8"
        }
      ],
      "payable": false,
      "stateMutability": "nonpayable",
      "type": "function"
    },
    {
      "constant": false,
      "inputs": [
        {
          "name": "_from",
          "type": "address"
        },
        {
          "name": "_to",
          "type": "address"
        },
        {
          "name": "_allowance",
          "type": "uint256"
        },
        {
          "name": "_expiryTime",
          "type": "uint256"
        },
        {
          "name": "_description",
          "type": "bytes32"
        }
      ],
      "name": "addManualApproval",
      "outputs": [],
      "payable": false,
      "stateMutability": "nonpayable",
      "type": "function"
    },
    {
      "constant": false,
      "inputs": [
        {
          "name": "_from",
          "type": "address[]"
        },
        {
          "name": "_to",
          "type": "address[]"
        },
        {
          "name": "_allowances",
          "type": "uint256[]"
        },
        {
          "name": "_expiryTimes",
          "type": "uint256[]"
        },
        {
          "name": "_descriptions",
          "type": "bytes32[]"
        }
      ],
      "name": "addManualApprovalMulti",
      "outputs": [],
      "payable": false,
      "stateMutability": "nonpayable",
      "type": "function"
    },
    {
      "constant": false,
      "inputs": [
        {
          "name": "_from",
          "type": "address"
        },
        {
          "name": "_to",
          "type": "address"
        },
        {
          "name": "_expiryTime",
          "type": "uint256"
        },
        {
          "name": "_changeInAllowance",
          "type": "uint256"
        },
        {
          "name": "_description",
          "type": "bytes32"
        },
        {
          "name": "_increase",
          "type": "bool"
        }
      ],
      "name": "modifyManualApproval",
      "outputs": [],
      "payable": false,
      "stateMutability": "nonpayable",
      "type": "function"
    },
    {
      "constant": false,
      "inputs": [
        {
          "name": "_from",
          "type": "address[]"
        },
        {
          "name": "_to",
          "type": "address[]"
        },
        {
          "name": "_expiryTimes",
          "type": "uint256[]"
        },
        {
          "name": "_changedAllowances",
          "type": "uint256[]"
        },
        {
          "name": "_descriptions",
          "type": "bytes32[]"
        },
        {
          "name": "_increase",
          "type": "bool[]"
        }
      ],
      "name": "modifyManualApprovalMulti",
      "outputs": [],
      "payable": false,
      "stateMutability": "nonpayable",
      "type": "function"
    },
    {
      "constant": false,
      "inputs": [
        {
          "name": "_from",
          "type": "address"
        },
        {
          "name": "_to",
          "type": "address"
        }
      ],
      "name": "revokeManualApproval",
      "outputs": [],
      "payable": false,
      "stateMutability": "nonpayable",
      "type": "function"
    },
    {
      "constant": false,
      "inputs": [
        {
          "name": "_from",
          "type": "address[]"
        },
        {
          "name": "_to",
          "type": "address[]"
        }
      ],
      "name": "revokeManualApprovalMulti",
      "outputs": [],
      "payable": false,
      "stateMutability": "nonpayable",
      "type": "function"
    },
    {
      "constant": true,
      "inputs": [
        {
          "name": "_user",
          "type": "address"
        }
      ],
      "name": "getActiveApprovalsToUser",
      "outputs": [
        {
          "name": "",
          "type": "address[]"
        },
        {
          "name": "",
          "type": "address[]"
        },
        {
          "name": "",
          "type": "uint256[]"
        },
        {
          "name": "",
          "type": "uint256[]"
        },
        {
          "name": "",
          "type": "bytes32[]"
        }
      ],
      "payable": false,
      "stateMutability": "view",
      "type": "function"
    },
    {
      "constant": true,
      "inputs": [
        {
          "name": "_from",
          "type": "address"
        },
        {
          "name": "_to",
          "type": "address"
        }
      ],
      "name": "getApprovalDetails",
      "outputs": [
        {
          "name": "",
          "type": "uint256"
        },
        {
          "name": "",
          "type": "uint256"
        },
        {
          "name": "",
          "type": "bytes32"
        }
      ],
      "payable": false,
      "stateMutability": "view",
      "type": "function"
    },
    {
      "constant": true,
      "inputs": [],
      "name": "getTotalApprovalsLength",
      "outputs": [
        {
          "name": "",
          "type": "uint256"
        }
      ],
      "payable": false,
      "stateMutability": "view",
      "type": "function"
    },
    {
      "constant": true,
      "inputs": [],
      "name": "getAllApprovals",
      "outputs": [
        {
          "name": "",
          "type": "address[]"
        },
        {
          "name": "",
          "type": "address[]"
        },
        {
          "name": "",
          "type": "uint256[]"
        },
        {
          "name": "",
          "type": "uint256[]"
        },
        {
          "name": "",
          "type": "bytes32[]"
        }
      ],
      "payable": false,
      "stateMutability": "view",
      "type": "function"
    },
    {
      "constant": true,
      "inputs": [],
      "name": "getPermissions",
      "outputs": [
        {
          "name": "",
          "type": "bytes32[]"
        }
      ],
      "payable": false,
      "stateMutability": "view",
      "type": "function"
    }
  ],
  "bytecode": "0x60806040526002805460a060020a60ff021916905534801561002057600080fd5b50604051604080612f2383398101604052805160209091015160018054600160a060020a03938416600160a060020a0319918216179091556000805482163317905560028054939092169216919091179055612ea2806100816000396000f3006080604052600436106101245763ffffffff60e060020a6000350416631613ec9d81146101295780633f4ba83a1461017357806348637f081461018a5780635677829f146103075780635c975abb146103375780635e6ebfc5146103605780635f7619a41461039957806363035f66146103b15780636faa22a5146104005780637dc32b0b146104315780638456cb59146104585780639f7cd0ef1461046d578063b2b808d514610482578063b84dfbd2146104c7578063c3a07df6146104dc578063c3a55f3a14610541578063c45a015514610591578063d70afa96146105a6578063d786e3ff146105bb578063d9195a2a1461072d578063de6ee1bc14610762578063e0d9d749146107f9578063e3c6a72b1461081a578063e7529d0d14610846575b600080fd5b34801561013557600080fd5b5061013e61085b565b604080517fffffffff000000000000000000000000000000000000000000000000000000009092168252519081900360200190f35b34801561017f57600080fd5b50610188610861565b005b34801561019657600080fd5b5061019f610949565b60405180806020018060200180602001806020018060200186810386528b818151815260200191508051906020019060200280838360005b838110156101ef5781810151838201526020016101d7565b5050505090500186810385528a818151815260200191508051906020019060200280838360005b8381101561022e578181015183820152602001610216565b50505050905001868103845289818151815260200191508051906020019060200280838360005b8381101561026d578181015183820152602001610255565b50505050905001868103835288818151815260200191508051906020019060200280838360005b838110156102ac578181015183820152602001610294565b50505050905001868103825287818151815260200191508051906020019060200280838360005b838110156102eb5781810151838201526020016102d3565b505050509050019a505050505050505050505060405180910390f35b34801561031357600080fd5b50610188600160a060020a0360043581169060243516604435606435608435610bc1565b34801561034357600080fd5b5061034c610d5e565b604080519115158252519081900360200190f35b34801561036c57600080fd5b50610387600160a060020a0360043581169060243516610d6e565b60408051918252519081900360200190f35b3480156103a557600080fd5b5061034c600435610d8b565b3480156103bd57600080fd5b506103c96004356110a7565b60408051600160a060020a039687168152949095166020850152838501929092526060830152608082015290519081900360a00190f35b34801561040c57600080fd5b506104156110f2565b60408051600160a060020a039092168252519081900360200190f35b34801561043d57600080fd5b50610188600160a060020a0360043581169060243516611101565b34801561046457600080fd5b50610188611298565b34801561047957600080fd5b5061038761137e565b34801561048e57600080fd5b506104a9600160a060020a0360043581169060243516611390565b60408051938452602084019290925282820152519081900360600190f35b3480156104d357600080fd5b50610415611411565b3480156104e857600080fd5b506104f1611420565b60408051602080825283518183015283519192839290830191858101910280838360005b8381101561052d578181015183820152602001610515565b505050509050019250505060405180910390f35b34801561054d57600080fd5b506101886024600480358281019290820135918135808301929082013591604435808301929082013591606435808301929082013591608435918201910135611475565b34801561059d57600080fd5b506104156117a0565b3480156105b257600080fd5b506103876117af565b3480156105c757600080fd5b506040805160206004803580820135838102808601850190965280855261018895369593946024949385019291829185019084908082843750506040805187358901803560208181028481018201909552818452989b9a998901989297509082019550935083925085019084908082843750506040805187358901803560208181028481018201909552818452989b9a998901989297509082019550935083925085019084908082843750506040805187358901803560208181028481018201909552818452989b9a998901989297509082019550935083925085019084908082843750506040805187358901803560208181028481018201909552818452989b9a998901989297509082019550935083925085019084908082843750506040805187358901803560208181028481018201909552818452989b9a9989019892975090820195509350839250850190849080828437509497506117d39650505050505050565b34801561073957600080fd5b50610188600160a060020a036004358116906024351660443560643560843560a4351515611a7e565b34801561076e57600080fd5b50604080516020601f6064356004818101359283018490048402850184019095528184526107d594600160a060020a038135811695602480359092169560443595369560849401918190840183828082843750949750505050913515159250611c1d915050565b604051808260038111156107e557fe5b60ff16815260200191505060405180910390f35b34801561080557600080fd5b5061019f600160a060020a0360043516611d44565b34801561082657600080fd5b506101886024600480358281019290820135918135918201910135612120565b34801561085257600080fd5b50610387612359565b60005b90565b600160009054906101000a9004600160a060020a0316600160a060020a0316638da5cb5b6040518163ffffffff1660e060020a028152600401602060405180830381600087803b1580156108b457600080fd5b505af11580156108c8573d6000803e3d6000fd5b505050506040513d60208110156108de57600080fd5b5051600160a060020a0316331461093f576040805160e560020a62461bcd02815260206004820152601360248201527f53656e646572206973206e6f74206f776e657200000000000000000000000000604482015290519081900360640190fd5b61094761235f565b565b60608060608060608060608060608060008060048054905060405190808252806020026020018201604052801561098a578160200160208202803883390190505b5060045460408051828152602080840282010190915291985080156109b9578160200160208202803883390190505b5060045460408051828152602080840282010190915291975080156109e8578160200160208202803883390190505b506004546040805182815260208084028201019091529196508015610a17578160200160208202803883390190505b506004546040805182815260208084028201019091529195508015610a46578160200160208202803883390190505b506004549093509150600090505b81811015610baf576004805482908110610a6a57fe5b60009182526020909120600590910201548751600160a060020a0390911690889083908110610a9557fe5b600160a060020a039092166020928302909101909101526004805482908110610aba57fe5b60009182526020909120600160059092020101548651600160a060020a0390911690879083908110610ae857fe5b600160a060020a039092166020928302909101909101526004805482908110610b0d57fe5b9060005260206000209060050201600201548582815181101515610b2d57fe5b602090810290910101526004805482908110610b4557fe5b9060005260206000209060050201600301548482815181101515610b6557fe5b602090810290910101526004805482908110610b7d57fe5b9060005260206000209060050201600401548382815181101515610b9d57fe5b60209081029091010152600101610a54565b50949a93995091975095509350915050565b600080516020612e37833981519152600080600160009054906101000a9004600160a060020a0316600160a060020a0316638da5cb5b6040518163ffffffff1660e060020a028152600401602060405180830381600087803b158015610c2657600080fd5b505af1158015610c3a573d6000803e3d6000fd5b505050506040513d6020811015610c5057600080fd5b505160005433600160a060020a039283168114945091161490508180610c735750805b80610d0357506001546040805160e060020a638658b8b9028152336004820152306024820152604481018690529051600160a060020a0390921691638658b8b9916064808201926020929091908290030181600087803b158015610cd657600080fd5b505af1158015610cea573d6000803e3d6000fd5b505050506040513d6020811015610d0057600080fd5b50515b1515610d47576040805160e560020a62461bcd0281526020600482015260176024820152600080516020612e57833981519152604482015290519081900360640190fd5b610d548888888888612415565b5050505050505050565b60025460a060020a900460ff1681565b600360209081526000928352604080842090915290825290205481565b60007f4645455f41444d494e0000000000000000000000000000000000000000000000600080600160009054906101000a9004600160a060020a0316600160a060020a0316638da5cb5b6040518163ffffffff1660e060020a028152600401602060405180830381600087803b158015610e0457600080fd5b505af1158015610e18573d6000803e3d6000fd5b505050506040513d6020811015610e2e57600080fd5b505160005433600160a060020a039283168114945091161490508180610e515750805b80610ee157506001546040805160e060020a638658b8b9028152336004820152306024820152604481018690529051600160a060020a0390921691638658b8b9916064808201926020929091908290030181600087803b158015610eb457600080fd5b505af1158015610ec8573d6000803e3d6000fd5b505050506040513d6020811015610ede57600080fd5b50515b1515610f25576040805160e560020a62461bcd0281526020600482015260176024820152600080516020612e57833981519152604482015290519081900360640190fd5b60025460015460008054604080517f8da5cb5b0000000000000000000000000000000000000000000000000000000081529051600160a060020a03958616956323b872dd95811694931692638da5cb5b92600480820193602093909283900390910190829087803b158015610f9957600080fd5b505af1158015610fad573d6000803e3d6000fd5b505050506040513d6020811015610fc357600080fd5b50516040805160e060020a63ffffffff8616028152600160a060020a039384166004820152929091166024830152604482018990525160648083019260209291908290030181600087803b15801561101a57600080fd5b505af115801561102e573d6000803e3d6000fd5b505050506040513d602081101561104457600080fd5b5051151561109c576040805160e560020a62461bcd02815260206004820152601260248201527f556e61626c6520746f2074616b65206665650000000000000000000000000000604482015290519081900360640190fd5b506001949350505050565b60048054829081106110b557fe5b600091825260209091206005909102018054600182015460028301546003840154600490940154600160a060020a03938416955091909216929085565b600254600160a060020a031681565b600080516020612e37833981519152600080600160009054906101000a9004600160a060020a0316600160a060020a0316638da5cb5b6040518163ffffffff1660e060020a028152600401602060405180830381600087803b15801561116657600080fd5b505af115801561117a573d6000803e3d6000fd5b505050506040513d602081101561119057600080fd5b505160005433600160a060020a0392831681149450911614905081806111b35750805b8061124357506001546040805160e060020a638658b8b9028152336004820152306024820152604481018690529051600160a060020a0390921691638658b8b9916064808201926020929091908290030181600087803b15801561121657600080fd5b505af115801561122a573d6000803e3d6000fd5b505050506040513d602081101561124057600080fd5b50515b1515611287576040805160e560020a62461bcd0281526020600482015260176024820152600080516020612e57833981519152604482015290519081900360640190fd5b61129185856127a1565b5050505050565b600160009054906101000a9004600160a060020a0316600160a060020a0316638da5cb5b6040518163ffffffff1660e060020a028152600401602060405180830381600087803b1580156112eb57600080fd5b505af11580156112ff573d6000803e3d6000fd5b505050506040513d602081101561131557600080fd5b5051600160a060020a03163314611376576040805160e560020a62461bcd02815260206004820152601360248201527f53656e646572206973206e6f74206f776e657200000000000000000000000000604482015290519081900360640190fd5b6109476129c9565b600080516020612e3783398151915281565b600160a060020a0380831660009081526003602090815260408083209385168352929052908120548190819081811561140857600454600019909201918210156114085760048054839081106113e257fe5b906000526020600020906005020190508060030154816002015482600401549450945094505b50509250925092565b600154600160a060020a031681565b60408051600180825281830190925260609182919060208083019080388339019050509050600080516020612e3783398151915281600081518110151561146357fe5b602090810290910101529050805b5090565b6000600080516020612e37833981519152600080600160009054906101000a9004600160a060020a0316600160a060020a0316638da5cb5b6040518163ffffffff1660e060020a028152600401602060405180830381600087803b1580156114dc57600080fd5b505af11580156114f0573d6000803e3d6000fd5b505050506040513d602081101561150657600080fd5b505160005433600160a060020a0392831681149450911614905081806115295750805b806115b957506001546040805160e060020a638658b8b9028152336004820152306024820152604481018690529051600160a060020a0390921691638658b8b9916064808201926020929091908290030181600087803b15801561158c57600080fd5b505af11580156115a0573d6000803e3d6000fd5b505050506040513d60208110156115b657600080fd5b50515b15156115fd576040805160e560020a62461bcd0281526020600482015260176024820152600080516020612e57833981519152604482015290519081900360640190fd5b6116f38e8e808060200260200160405190810160405280939291908181526020018383602002808284378201915050505050508d8d808060200260200160405190810160405280939291908181526020018383602002808284378201915050505050508c8c808060200260200160405190810160405280939291908181526020018383602002808284378201915050505050508b8b808060200260200160405190810160405280939291908181526020018383602002808284378201915050505050508a8a8080602002602001604051908101604052809392919081815260200183836020028082843750612a84945050505050565b600093505b8c841015611790576117858e8e8681811061170f57fe5b90506020020135600160a060020a03168d8d87818110151561172d57fe5b90506020020135600160a060020a03168c8c88818110151561174b57fe5b905060200201358b8b89818110151561176057fe5b905060200201358a8a8a818110151561177557fe5b9050602002013560001916612415565b6001909301926116f8565b5050505050505050505050505050565b600054600160a060020a031681565b7f4645455f41444d494e000000000000000000000000000000000000000000000081565b6000600080516020612e37833981519152600080600160009054906101000a9004600160a060020a0316600160a060020a0316638da5cb5b6040518163ffffffff1660e060020a028152600401602060405180830381600087803b15801561183a57600080fd5b505af115801561184e573d6000803e3d6000fd5b505050506040513d602081101561186457600080fd5b505160005433600160a060020a0392831681149450911614905081806118875750805b8061191757506001546040805160e060020a638658b8b9028152336004820152306024820152604481018690529051600160a060020a0390921691638658b8b9916064808201926020929091908290030181600087803b1580156118ea57600080fd5b505af11580156118fe573d6000803e3d6000fd5b505050506040513d602081101561191457600080fd5b50515b151561195b576040805160e560020a62461bcd0281526020600482015260176024820152600080516020612e57833981519152604482015290519081900360640190fd5b6119688a8a898b8a612a84565b86518551146119c1576040805160e560020a62461bcd02815260206004820152601b60248201527f496e707574206c656e677468206172726179206d69736d617463680000000000604482015290519081900360640190fd5b600093505b8951841015611a7257611a678a858151811015156119e057fe5b906020019060200201518a868151811015156119f857fe5b906020019060200201518a87815181101515611a1057fe5b906020019060200201518a88815181101515611a2857fe5b906020019060200201518a89815181101515611a4057fe5b906020019060200201518a8a815181101515611a5857fe5b90602001906020020151612b06565b6001909301926119c6565b50505050505050505050565b600080516020612e37833981519152600080600160009054906101000a9004600160a060020a0316600160a060020a0316638da5cb5b6040518163ffffffff1660e060020a028152600401602060405180830381600087803b158015611ae357600080fd5b505af1158015611af7573d6000803e3d6000fd5b505050506040513d6020811015611b0d57600080fd5b505160005433600160a060020a039283168114945091161490508180611b305750805b80611bc057506001546040805160e060020a638658b8b9028152336004820152306024820152604481018690529051600160a060020a0390921691638658b8b9916064808201926020929091908290030181600087803b158015611b9357600080fd5b505af1158015611ba7573d6000803e3d6000fd5b505050506040513d6020811015611bbd57600080fd5b50515b1515611c04576040805160e560020a62461bcd0281526020600482015260176024820152600080516020612e57833981519152604482015290519081900360640190fd5b611c12898989898989612b06565b505050505050505050565b6000808080841580611c395750600154600160a060020a031633145b1515611c8f576040805160e560020a62461bcd02815260206004820152601760248201527f53656e646572206973206e6f7420746865206f776e6572000000000000000000604482015290519081900360640190fd5b600160a060020a038981166000908152600360209081526040808320938c168352929052205460025490935060a060020a900460ff16158015611cd157508215155b15611d3357600480546000199094019384908110611ceb57fe5b906000526020600020906005020191508160020154905042826003015410158015611d165750868110155b15611d33578415611d2a5786810360028301555b60029350611d38565b600193505b50505095945050505050565b60045460609081908190819081906000908183808080805b86861015611e19578d600160a060020a0316600487815481101515611d7d57fe5b6000918252602090912060059091020154600160a060020a03161480611dd657508d600160a060020a0316600487815481101515611db757fe5b6000918252602090912060016005909202010154600160a060020a0316145b8015611e02575042600487815481101515611ded57fe5b90600052602060002090600502016003015410155b15611e0e576001909701965b600190950194611d5c565b87604051908082528060200260200182016040528015611e43578160200160208202803883390190505b50945087604051908082528060200260200182016040528015611e70578160200160208202803883390190505b50935087604051908082528060200260200182016040528015611e9d578160200160208202803883390190505b50925087604051908082528060200260200182016040528015611eca578160200160208202803883390190505b50915087604051908082528060200260200182016040528015611ef7578160200160208202803883390190505b50905060009750600095505b8686101561210b578d600160a060020a0316600487815481101515611f2457fe5b6000918252602090912060059091020154600160a060020a03161480611f7d57508d600160a060020a0316600487815481101515611f5e57fe5b6000918252602090912060016005909202010154600160a060020a0316145b8015611fa9575042600487815481101515611f9457fe5b90600052602060002090600502016003015410155b15612100576004805487908110611fbc57fe5b60009182526020909120600590910201548551600160a060020a039091169086908a908110611fe757fe5b600160a060020a03909216602092830290910190910152600480548790811061200c57fe5b60009182526020909120600160059092020101548451600160a060020a039091169085908a90811061203a57fe5b600160a060020a03909216602092830290910190910152600480548790811061205f57fe5b906000526020600020906005020160020154838981518110151561207f57fe5b60209081029091010152600480548790811061209757fe5b90600052602060002090600502016003015482898151811015156120b757fe5b6020908102909101015260048054879081106120cf57fe5b90600052602060002090600502016004015481898151811015156120ef57fe5b602090810290910101526001909701965b600190950194611f03565b939d929c50909a509850909650945050505050565b6000600080516020612e37833981519152600080600160009054906101000a9004600160a060020a0316600160a060020a0316638da5cb5b6040518163ffffffff1660e060020a028152600401602060405180830381600087803b15801561218757600080fd5b505af115801561219b573d6000803e3d6000fd5b505050506040513d60208110156121b157600080fd5b505160005433600160a060020a0392831681149450911614905081806121d45750805b8061226457506001546040805160e060020a638658b8b9028152336004820152306024820152604481018690529051600160a060020a0390921691638658b8b9916064808201926020929091908290030181600087803b15801561223757600080fd5b505af115801561224b573d6000803e3d6000fd5b505050506040513d602081101561226157600080fd5b50515b15156122a8576040805160e560020a62461bcd0281526020600482015260176024820152600080516020612e57833981519152604482015290519081900360640190fd5b8685146122ff576040805160e560020a62461bcd02815260206004820152601b60248201527f496e707574206172726179206c656e677468206d69736d617463680000000000604482015290519081900360640190fd5b600093505b86841015610d545761234e88888681811061231b57fe5b90506020020135600160a060020a0316878787818110151561233957fe5b90506020020135600160a060020a03166127a1565b600190930192612304565b60045490565b60025460a060020a900460ff1615156123c2576040805160e560020a62461bcd02815260206004820152601660248201527f436f6e7472616374206973206e6f742070617573656400000000000000000000604482015290519081900360640190fd5b6002805474ff0000000000000000000000000000000000000000191690556040805142815290517faaa520fdd7d2c83061d632fa017b0432407e798818af63ea908589fceda39ab79181900360200190a1565b6000600160a060020a0385161515612477576040805160e560020a62461bcd02815260206004820152601260248201527f496e76616c696420746f20616464726573730000000000000000000000000000604482015290519081900360640190fd5b4283116124ce576040805160e560020a62461bcd02815260206004820152601360248201527f496e76616c6964206578706972792074696d6500000000000000000000000000604482015290519081900360640190fd5b60008411612526576040805160e560020a62461bcd02815260206004820152601160248201527f496e76616c696420616c6c6f77616e6365000000000000000000000000000000604482015290519081900360640190fd5b50600160a060020a0380861660009081526003602090815260408083209388168352929052205480156126085760048054600019909201914291908390811061256b57fe5b90600052602060002090600502016003015410806125a85750600480548290811061259257fe5b9060005260206000209060050201600201546000145b15156125fe576040805160e560020a62461bcd02815260206004820152601760248201527f417070726f76616c20616c726561647920657869737473000000000000000000604482015290519081900360640190fd5b61260886866127a1565b6040805160a081018252600160a060020a0380891680835288821660208085018281528587018b815260608088018c8152608089018c81526004805460018101825560008281529b5160059091027f8a35acfbc15ff81a39ae7d344fd709f28e8600b4aa8c65c6b64bfe7fe36bd19b81018054928d1673ffffffffffffffffffffffffffffffffffffffff1993841617905596517f8a35acfbc15ff81a39ae7d344fd709f28e8600b4aa8c65c6b64bfe7fe36bd19c8801805491909c1691161790995592517f8a35acfbc15ff81a39ae7d344fd709f28e8600b4aa8c65c6b64bfe7fe36bd19d850155517f8a35acfbc15ff81a39ae7d344fd709f28e8600b4aa8c65c6b64bfe7fe36bd19e84015590517f8a35acfbc15ff81a39ae7d344fd709f28e8600b4aa8c65c6b64bfe7fe36bd19f90920191909155935483865260038252868620838752825294869020949094558451898152938401889052838501879052935133949391927f694086b7577eae5577f90c1aa90ff38280eacd0709a8c7be707a219e92a150c9928290030190a4505050505050565b600160a060020a03808316600090815260036020908152604080832093851683529290529081205490811515612821576040805160e560020a62461bcd02815260206004820152601760248201527f417070726f76616c20646f6573206e6f74206578697374000000000000000000604482015290519081900360640190fd5b50600454600019918201910180821461294c57600480548290811061284257fe5b906000526020600020906005020160048381548110151561285f57fe5b6000918252602082208354600590920201805473ffffffffffffffffffffffffffffffffffffffff19908116600160a060020a0393841617825560018086015481840180549093169416939093179055600280850154908201556003808501548183015560049485015491850191909155835491860193909291869081106128e357fe5b60009182526020808320600590920290910154600160a060020a031683528201929092526040018120600480549192918690811061291d57fe5b6000918252602080832060016005909302019190910154600160a060020a031683528201929092526040019020555b600160a060020a0380851660009081526003602090815260408083209387168352929052908120556004805490612987906000198301612db2565b506040513390600160a060020a0385811691908716907fbe7baba984867cb2bb52a4035357b30f05c7e480fc9daf78a7b718ae6ee4a4fe90600090a450505050565b60025460a060020a900460ff1615612a2b576040805160e560020a62461bcd02815260206004820152601260248201527f436f6e7472616374206973207061757365640000000000000000000000000000604482015290519081900360640190fd5b6002805474ff0000000000000000000000000000000000000000191660a060020a1790556040805142815290517f68b095021b1f40fe513109f513c66692f0b3219aee674a69f4efc57badb8201d9181900360200190a1565b83518551148015612a96575081518451145b8015612aa3575082518251145b8015612ab0575080518351145b1515611291576040805160e560020a62461bcd02815260206004820152601b60248201527f496e707574206172726179206c656e677468206d69736d617463680000000000604482015290519081900360640190fd5b6000808080600160a060020a0389161515612b6b576040805160e560020a62461bcd02815260206004820152601260248201527f496e76616c696420746f20616464726573730000000000000000000000000000604482015290519081900360640190fd5b428811612bc2576040805160e560020a62461bcd02815260206004820152601360248201527f496e76616c6964206578706972792074696d6500000000000000000000000000604482015290519081900360640190fd5b600160a060020a03808b166000908152600360209081526040808320938d16835292905220549350831515612c41576040805160e560020a62461bcd02815260206004820152601460248201527f417070726f76616c206e6f742070726573656e74000000000000000000000000604482015290519081900360640190fd5b600480546000199095019485908110612c5657fe5b90600052602060002090600502019250826002015491508260030154905081600014158015612c8457504281115b1515612cda576040805160e560020a62461bcd02815260206004820152600b60248201527f4e6f7420616c6c6f776564000000000000000000000000000000000000000000604482015290519081900360640190fd5b6000871115612d1e578415612d0057612cf9828863ffffffff612d9f16565b9150612d16565b818710612d105760009150612d16565b86820391505b600283018290555b808814612d2d57600383018890555b60048301548614612d4057600483018690555b604080518981526020810184905280820188905290513391600160a060020a038c811692908e16917f0f3f478ce6278e66ad974b3190c8cb89c93292c1620c40408fee8b64c09ac52e919081900360600190a450505050505050505050565b81810182811015612dac57fe5b92915050565b815481835581811115612dde57600502816005028360005260206000209182019101612dde9190612de3565b505050565b61085e91905b8082111561147157805473ffffffffffffffffffffffffffffffffffffffff1990811682556001820180549091169055600060028201819055600382018190556004820155600501612de956005452414e534645525f415050524f56414c0000000000000000000000000000005065726d697373696f6e20636865636b206661696c6564000000000000000000a165627a7a723058204fca07980afec92094db14c2be49d4c81d07450f5d6b16aa63cab7a71eff42780029",
  "source": "pragma solidity ^0.4.24;\n\nimport \"./ITransferManager.sol\";\nimport \"openzeppelin-solidity/contracts/math/SafeMath.sol\";\n\n/**\n * @title Transfer Manager module for manually approving transactions between accounts\n */\ncontract ManualApprovalTransferManager is ITransferManager {\n    using SafeMath for uint256;\n\n    bytes32 public constant TRANSFER_APPROVAL = \"TRANSFER_APPROVAL\";\n\n    //Manual approval is an allowance (that has been approved) with an expiry time\n    struct ManualApproval {\n        address from;\n        address to;\n        uint256 allowance;\n        uint256 expiryTime;\n        bytes32 description;\n    }\n\n    mapping (address => mapping (address => uint256)) public approvalIndex;\n\n    // An array to track all approvals. It is an unbounded array but it's not a problem as\n    // it is never looped through in an onchain call. It is defined as an Array instead of mapping\n    // just to make it easier for users to fetch list of all approvals through constant functions.\n    ManualApproval[] public approvals;\n\n    event AddManualApproval(\n        address indexed _from,\n        address indexed _to,\n        uint256 _allowance,\n        uint256 _expiryTime,\n        bytes32 _description,\n        address indexed _addedBy\n    );\n\n    event ModifyManualApproval(\n        address indexed _from,\n        address indexed _to,\n        uint256 _expiryTime,\n        uint256 _allowance,\n        bytes32 _description,\n        address indexed _edittedBy\n    );\n\n    event RevokeManualApproval(\n        address indexed _from,\n        address indexed _to,\n        address indexed _addedBy\n    );\n\n    /**\n     * @notice Constructor\n     * @param _securityToken Address of the security token\n     * @param _polyAddress Address of the polytoken\n     */\n    constructor (address _securityToken, address _polyAddress)\n    public\n    Module(_securityToken, _polyAddress)\n    {\n    }\n\n    /**\n     * @notice This function returns the signature of configure function\n     */\n    function getInitFunction() public pure returns (bytes4) {\n        return bytes4(0);\n    }\n\n    /**\n     * @notice Used to verify the transfer transaction and allow a manually approved transqaction to bypass other restrictions\n     * @param _from Address of the sender\n     * @param _to Address of the receiver\n     * @param _amount The amount of tokens to transfer\n     * @param _isTransfer Whether or not this is an actual transfer or just a test to see if the tokens would be transferrable\n     */\n    function verifyTransfer(address _from, address _to, uint256 _amount, bytes /* _data */, bool _isTransfer) public returns(Result) {\n        // function must only be called by the associated security token if _isTransfer == true\n        require(_isTransfer == false || msg.sender == securityToken, \"Sender is not the owner\");\n        uint256 index = approvalIndex[_from][_to];\n        if (!paused && index != 0) {\n            index--; //Actual index is stored index - 1.\n            ManualApproval storage approval = approvals[index];\n            uint256 allowance = approval.allowance;\n            if ((approval.expiryTime >= now) && (allowance >= _amount)) {\n                if (_isTransfer) {\n                    approval.allowance = allowance - _amount;\n                }\n                return Result.VALID;\n            }\n        }\n        return Result.NA;\n    }\n\n    /**\n    * @notice Adds a pair of addresses to manual approvals\n    * @param _from is the address from which transfers are approved\n    * @param _to is the address to which transfers are approved\n    * @param _allowance is the approved amount of tokens\n    * @param _expiryTime is the time until which the transfer is allowed\n    * @param _description Description about the manual approval\n    */\n    function addManualApproval(\n        address _from,\n        address _to,\n        uint256 _allowance,\n        uint256 _expiryTime,\n        bytes32 _description\n    )\n        external\n        withPerm(TRANSFER_APPROVAL)\n    {\n        _addManualApproval(_from, _to, _allowance, _expiryTime, _description);\n    }\n\n    function _addManualApproval(address _from, address _to, uint256 _allowance, uint256 _expiryTime, bytes32 _description) internal {\n        require(_to != address(0), \"Invalid to address\");\n        require(_expiryTime > now, \"Invalid expiry time\");\n        require(_allowance > 0, \"Invalid allowance\");\n        uint256 index = approvalIndex[_from][_to];\n        if (index != 0) {\n            index--; //Actual index is stored index - 1.\n            require(approvals[index].expiryTime < now || approvals[index].allowance == 0, \"Approval already exists\");\n            _revokeManualApproval(_from, _to);\n        }\n        approvals.push(ManualApproval(_from, _to, _allowance, _expiryTime, _description));\n        approvalIndex[_from][_to] = approvals.length;\n        emit AddManualApproval(_from, _to, _allowance, _expiryTime, _description, msg.sender);\n    }\n\n    /**\n    * @notice Adds mutiple manual approvals in batch\n    * @param _from is the address array from which transfers are approved\n    * @param _to is the address array to which transfers are approved\n    * @param _allowances is the array of approved amounts\n    * @param _expiryTimes is the array of the times until which eath transfer is allowed\n    * @param _descriptions is the description array for these manual approvals\n    */\n    function addManualApprovalMulti(\n        address[] _from,\n        address[] _to,\n        uint256[] _allowances,\n        uint256[] _expiryTimes,\n        bytes32[] _descriptions\n    )\n        external\n        withPerm(TRANSFER_APPROVAL)\n    {\n        _checkInputLengthArray(_from, _to, _allowances, _expiryTimes, _descriptions);\n        for (uint256 i = 0; i < _from.length; i++){\n            _addManualApproval(_from[i], _to[i], _allowances[i], _expiryTimes[i], _descriptions[i]);\n        }\n    }\n\n    /**\n    * @notice Modify the existing manual approvals\n    * @param _from is the address from which transfers are approved\n    * @param _to is the address to which transfers are approved\n    * @param _expiryTime is the time until which the transfer is allowed\n    * @param _changeInAllowance is the change in allowance\n    * @param _description Description about the manual approval\n    * @param _increase tells whether the allowances will be increased (true) or decreased (false).\n    * or any value when there is no change in allowances\n    */\n    function modifyManualApproval(\n        address _from,\n        address _to,\n        uint256 _expiryTime,\n        uint256 _changeInAllowance,\n        bytes32 _description,\n        bool _increase\n    )\n        external\n        withPerm(TRANSFER_APPROVAL)\n    {\n        _modifyManualApproval(_from, _to, _expiryTime, _changeInAllowance, _description, _increase);\n    }\n\n    function _modifyManualApproval(\n        address _from,\n        address _to,\n        uint256 _expiryTime,\n        uint256 _changeInAllowance,\n        bytes32 _description,\n        bool _increase\n    )\n        internal\n    {\n        require(_to != address(0), \"Invalid to address\");\n        /*solium-disable-next-line security/no-block-members*/\n        require(_expiryTime > now, \"Invalid expiry time\");\n        uint256 index = approvalIndex[_from][_to];\n        require(index != 0, \"Approval not present\");\n        index--; //Index is stored in an incremented form. 0 represnts non existant.\n        ManualApproval storage approval = approvals[index];\n        uint256 allowance = approval.allowance;\n        uint256 expiryTime = approval.expiryTime;\n        require(allowance != 0 && expiryTime > now, \"Not allowed\");\n\n        if (_changeInAllowance > 0) {\n            if (_increase) {\n                // Allowance get increased\n                allowance = allowance.add(_changeInAllowance);\n            } else {\n                // Allowance get decreased\n                if (_changeInAllowance >= allowance) {\n                    allowance = 0;\n                } else {\n                    allowance = allowance - _changeInAllowance;\n                }\n            }\n            approval.allowance = allowance;\n        }\n\n        // Greedy storage technique\n        if (expiryTime != _expiryTime) {\n            approval.expiryTime = _expiryTime;\n        }\n        if (approval.description != _description) {\n            approval.description = _description;\n        }\n\n        emit ModifyManualApproval(_from, _to, _expiryTime, allowance, _description, msg.sender);\n    }\n\n    /**\n     * @notice Adds mutiple manual approvals in batch\n     * @param _from is the address array from which transfers are approved\n     * @param _to is the address array to which transfers are approved\n     * @param _expiryTimes is the array of the times until which eath transfer is allowed\n     * @param _changedAllowances is the array of approved amounts\n     * @param _descriptions is the description array for these manual approvals\n     * @param _increase Array of bool values which tells whether the allowances will be increased (true) or decreased (false)\n     * or any value when there is no change in allowances\n     */\n    function modifyManualApprovalMulti(\n        address[] _from,\n        address[] _to,\n        uint256[] _expiryTimes,\n        uint256[] _changedAllowances,\n        bytes32[] _descriptions,\n        bool[] _increase\n    )\n        public\n        withPerm(TRANSFER_APPROVAL)\n    {\n        _checkInputLengthArray(_from, _to, _changedAllowances, _expiryTimes, _descriptions);\n        require(_increase.length == _changedAllowances.length, \"Input length array mismatch\");\n        for (uint256 i = 0; i < _from.length; i++) {\n            _modifyManualApproval(_from[i], _to[i], _expiryTimes[i], _changedAllowances[i], _descriptions[i], _increase[i]);\n        }\n    }\n\n    /**\n    * @notice Removes a pairs of addresses from manual approvals\n    * @param _from is the address from which transfers are approved\n    * @param _to is the address to which transfers are approved\n    */\n    function revokeManualApproval(address _from, address _to) external withPerm(TRANSFER_APPROVAL) {\n        _revokeManualApproval(_from, _to);\n    }\n\n    function _revokeManualApproval(address _from, address _to) internal {\n        uint256 index = approvalIndex[_from][_to];\n        require(index != 0, \"Approval does not exist\");\n        index--; //Actual index is stored index - 1.\n        uint256 lastApprovalIndex = approvals.length - 1;\n        // find the record in active approvals array & delete it\n        if (index != lastApprovalIndex) {\n            approvals[index] = approvals[lastApprovalIndex];\n            approvalIndex[approvals[index].from][approvals[index].to] = index + 1;\n        }\n        delete approvalIndex[_from][_to];\n        approvals.length--;\n        emit RevokeManualApproval(_from, _to, msg.sender);\n    }\n\n    /**\n    * @notice Removes mutiple pairs of addresses from manual approvals\n    * @param _from is the address array from which transfers are approved\n    * @param _to is the address array to which transfers are approved\n    */\n    function revokeManualApprovalMulti(address[] _from, address[] _to) external withPerm(TRANSFER_APPROVAL) {\n        require(_from.length == _to.length, \"Input array length mismatch\");\n        for(uint256 i = 0; i < _from.length; i++){\n            _revokeManualApproval(_from[i], _to[i]);\n        }\n    }\n\n    function _checkInputLengthArray(\n        address[] _from,\n        address[] _to,\n        uint256[] _expiryTimes,\n        uint256[] _allowances,\n        bytes32[] _descriptions\n    )\n        internal\n        pure\n    {\n        require(_from.length == _to.length &&\n        _to.length == _allowances.length &&\n        _allowances.length == _expiryTimes.length &&\n        _expiryTimes.length == _descriptions.length,\n        \"Input array length mismatch\"\n        );\n    }\n\n    /**\n     * @notice Returns the all active approvals corresponds to an address\n     * @param _user Address of the holder corresponds to whom list of manual approvals\n     * need to return\n     * @return address[] addresses from\n     * @return address[] addresses to\n     * @return uint256[] allowances provided to the approvals\n     * @return uint256[] expiry times provided to the approvals\n     * @return bytes32[] descriptions provided to the approvals\n     */\n    function getActiveApprovalsToUser(address _user) external view returns(address[], address[], uint256[], uint256[], bytes32[]) {\n        uint256 counter = 0;\n        uint256 approvalsLength = approvals.length;\n        for (uint256 i = 0; i < approvalsLength; i++) {\n            if ((approvals[i].from == _user || approvals[i].to == _user)\n                && approvals[i].expiryTime >= now)\n                counter ++;\n        }\n\n        address[] memory from = new address[](counter);\n        address[] memory to = new address[](counter);\n        uint256[] memory allowance = new uint256[](counter);\n        uint256[] memory expiryTime = new uint256[](counter);\n        bytes32[] memory description = new bytes32[](counter);\n\n        counter = 0;\n        for (i = 0; i < approvalsLength; i++) {\n            if ((approvals[i].from == _user || approvals[i].to == _user)\n                && approvals[i].expiryTime >= now) {\n\n                from[counter]=approvals[i].from;\n                to[counter]=approvals[i].to;\n                allowance[counter]=approvals[i].allowance;\n                expiryTime[counter]=approvals[i].expiryTime;\n                description[counter]=approvals[i].description;\n                counter ++;\n            }\n        }\n        return (from, to, allowance, expiryTime, description);\n    }\n\n    /**\n     * @notice Get the details of the approval corresponds to _from & _to addresses\n     * @param _from Address of the sender\n     * @param _to Address of the receiver\n     * @return uint256 expiryTime of the approval\n     * @return uint256 allowance provided to the approval\n     * @return uint256 Description provided to the approval\n     */\n    function getApprovalDetails(address _from, address _to) external view returns(uint256, uint256, bytes32) {\n        uint256 index = approvalIndex[_from][_to];\n        if (index != 0) {\n            index--;\n            if (index < approvals.length) {\n                ManualApproval storage approval = approvals[index];\n                return(\n                    approval.expiryTime,\n                    approval.allowance,\n                    approval.description\n                );\n            }\n        }\n    }\n\n    /**\n    * @notice Returns the current number of active approvals\n    */\n    function getTotalApprovalsLength() external view returns(uint256) {\n        return approvals.length;\n    }\n\n    /**\n     * @notice Get the details of all approvals\n     * @return address[] addresses from\n     * @return address[] addresses to\n     * @return uint256[] allowances provided to the approvals\n     * @return uint256[] expiry times provided to the approvals\n     * @return bytes32[] descriptions provided to the approvals\n     */\n    function getAllApprovals() external view returns(address[], address[], uint256[], uint256[], bytes32[]) {\n        address[] memory from = new address[](approvals.length);\n        address[] memory to = new address[](approvals.length);\n        uint256[] memory allowance = new uint256[](approvals.length);\n        uint256[] memory expiryTime = new uint256[](approvals.length);\n        bytes32[] memory description = new bytes32[](approvals.length);\n        uint256 approvalsLength = approvals.length;\n\n        for (uint256 i = 0; i < approvalsLength; i++) {\n\n            from[i]=approvals[i].from;\n            to[i]=approvals[i].to;\n            allowance[i]=approvals[i].allowance;\n            expiryTime[i]=approvals[i].expiryTime;\n            description[i]=approvals[i].description;\n\n        }\n\n        return (from, to, allowance, expiryTime, description);\n\n    }\n\n    /**\n     * @notice Returns the permissions flag that are associated with ManualApproval transfer manager\n     */\n    function getPermissions() public view returns(bytes32[]) {\n        bytes32[] memory allPermissions = new bytes32[](1);\n        allPermissions[0] = TRANSFER_APPROVAL;\n        return allPermissions;\n    }\n}\n",
  "sourcePath": "/Users/federicoelgarte/Polymath/polymath-core/contracts/modules/TransferManager/ManualApprovalTransferManager.sol",
  "compiler": {
    "name": "solc",
    "version": "0.4.24+commit.e67f0147.Emscripten.clang"
  },
  "schemaVersion": "2.0.1",
  "updatedAt": "2019-03-22T12:01:56.271Z"
}