{
  "contractName": "ManualApprovalTransferManager",
  "abi": [
    {
      "constant": false,
      "inputs": [],
      "name": "unpause",
      "outputs": [],
      "payable": false,
      "stateMutability": "nonpayable",
      "type": "function"
    },
    {
      "constant": true,
      "inputs": [],
      "name": "paused",
      "outputs": [
        {
          "name": "",
          "type": "bool"
        }
      ],
      "payable": false,
      "stateMutability": "view",
      "type": "function"
    },
    {
      "constant": true,
      "inputs": [
        {
          "name": "",
          "type": "address"
        },
        {
          "name": "",
          "type": "address"
        }
      ],
      "name": "approvalIndex",
      "outputs": [
        {
          "name": "",
          "type": "uint256"
        }
      ],
      "payable": false,
      "stateMutability": "view",
      "type": "function"
    },
    {
      "constant": false,
      "inputs": [
        {
          "name": "_amount",
          "type": "uint256"
        }
      ],
      "name": "takeFee",
      "outputs": [
        {
          "name": "",
          "type": "bool"
        }
      ],
      "payable": false,
      "stateMutability": "nonpayable",
      "type": "function"
    },
    {
      "constant": true,
      "inputs": [
        {
          "name": "",
          "type": "uint256"
        }
      ],
      "name": "approvals",
      "outputs": [
        {
          "name": "from",
          "type": "address"
        },
        {
          "name": "to",
          "type": "address"
        },
        {
          "name": "allowance",
          "type": "uint256"
        },
        {
          "name": "expiryTime",
          "type": "uint256"
        },
        {
          "name": "description",
          "type": "bytes32"
        }
      ],
      "payable": false,
      "stateMutability": "view",
      "type": "function"
    },
    {
      "constant": true,
      "inputs": [],
      "name": "polyToken",
      "outputs": [
        {
          "name": "",
          "type": "address"
        }
      ],
      "payable": false,
      "stateMutability": "view",
      "type": "function"
    },
    {
      "constant": false,
      "inputs": [],
      "name": "pause",
      "outputs": [],
      "payable": false,
      "stateMutability": "nonpayable",
      "type": "function"
    },
    {
      "constant": true,
      "inputs": [],
      "name": "TRANSFER_APPROVAL",
      "outputs": [
        {
          "name": "",
          "type": "bytes32"
        }
      ],
      "payable": false,
      "stateMutability": "view",
      "type": "function"
    },
    {
      "constant": true,
      "inputs": [],
      "name": "signingAddress",
      "outputs": [
        {
          "name": "",
          "type": "address"
        }
      ],
      "payable": false,
      "stateMutability": "view",
      "type": "function"
    },
    {
      "constant": true,
      "inputs": [],
      "name": "issuanceAddress",
      "outputs": [
        {
          "name": "",
          "type": "address"
        }
      ],
      "payable": false,
      "stateMutability": "view",
      "type": "function"
    },
    {
      "constant": true,
      "inputs": [],
      "name": "securityToken",
      "outputs": [
        {
          "name": "",
          "type": "address"
        }
      ],
      "payable": false,
      "stateMutability": "view",
      "type": "function"
    },
    {
      "constant": true,
      "inputs": [],
      "name": "factory",
      "outputs": [
        {
          "name": "",
          "type": "address"
        }
      ],
      "payable": false,
      "stateMutability": "view",
      "type": "function"
    },
    {
      "constant": true,
      "inputs": [],
      "name": "FEE_ADMIN",
      "outputs": [
        {
          "name": "",
          "type": "bytes32"
        }
      ],
      "payable": false,
      "stateMutability": "view",
      "type": "function"
    },
    {
      "inputs": [
        {
          "name": "_securityToken",
          "type": "address"
        },
        {
          "name": "_polyAddress",
          "type": "address"
        }
      ],
      "payable": false,
      "stateMutability": "nonpayable",
      "type": "constructor"
    },
    {
      "anonymous": false,
      "inputs": [
        {
          "indexed": true,
          "name": "_from",
          "type": "address"
        },
        {
          "indexed": true,
          "name": "_to",
          "type": "address"
        },
        {
          "indexed": false,
          "name": "_allowance",
          "type": "uint256"
        },
        {
          "indexed": false,
          "name": "_expiryTime",
          "type": "uint256"
        },
        {
          "indexed": false,
          "name": "_description",
          "type": "bytes32"
        },
        {
          "indexed": true,
          "name": "_addedBy",
          "type": "address"
        }
      ],
      "name": "AddManualApproval",
      "type": "event"
    },
    {
      "anonymous": false,
      "inputs": [
        {
          "indexed": true,
          "name": "_from",
          "type": "address"
        },
        {
          "indexed": true,
          "name": "_to",
          "type": "address"
        },
        {
          "indexed": false,
          "name": "_expiryTime",
          "type": "uint256"
        },
        {
          "indexed": false,
          "name": "_allowance",
          "type": "uint256"
        },
        {
          "indexed": false,
          "name": "_description",
          "type": "bytes32"
        },
        {
          "indexed": true,
          "name": "_edittedBy",
          "type": "address"
        }
      ],
      "name": "ModifyManualApproval",
      "type": "event"
    },
    {
      "anonymous": false,
      "inputs": [
        {
          "indexed": true,
          "name": "_from",
          "type": "address"
        },
        {
          "indexed": true,
          "name": "_to",
          "type": "address"
        },
        {
          "indexed": true,
          "name": "_addedBy",
          "type": "address"
        }
      ],
      "name": "RevokeManualApproval",
      "type": "event"
    },
    {
      "anonymous": false,
      "inputs": [
        {
          "indexed": false,
          "name": "_timestammp",
          "type": "uint256"
        }
      ],
      "name": "Pause",
      "type": "event"
    },
    {
      "anonymous": false,
      "inputs": [
        {
          "indexed": false,
          "name": "_timestamp",
          "type": "uint256"
        }
      ],
      "name": "Unpause",
      "type": "event"
    },
    {
      "constant": true,
      "inputs": [],
      "name": "getInitFunction",
      "outputs": [
        {
          "name": "",
          "type": "bytes4"
        }
      ],
      "payable": false,
      "stateMutability": "pure",
      "type": "function"
    },
    {
      "constant": false,
      "inputs": [
        {
          "name": "_from",
          "type": "address"
        },
        {
          "name": "_to",
          "type": "address"
        },
        {
          "name": "_amount",
          "type": "uint256"
        },
        {
          "name": "",
          "type": "bytes"
        },
        {
          "name": "_isTransfer",
          "type": "bool"
        }
      ],
      "name": "verifyTransfer",
      "outputs": [
        {
          "name": "",
          "type": "uint8"
        }
      ],
      "payable": false,
      "stateMutability": "nonpayable",
      "type": "function"
    },
    {
      "constant": false,
      "inputs": [
        {
          "name": "_from",
          "type": "address"
        },
        {
          "name": "_to",
          "type": "address"
        },
        {
          "name": "_allowance",
          "type": "uint256"
        },
        {
          "name": "_expiryTime",
          "type": "uint256"
        },
        {
          "name": "_description",
          "type": "bytes32"
        }
      ],
      "name": "addManualApproval",
      "outputs": [],
      "payable": false,
      "stateMutability": "nonpayable",
      "type": "function"
    },
    {
      "constant": false,
      "inputs": [
        {
          "name": "_from",
          "type": "address[]"
        },
        {
          "name": "_to",
          "type": "address[]"
        },
        {
          "name": "_allowances",
          "type": "uint256[]"
        },
        {
          "name": "_expiryTimes",
          "type": "uint256[]"
        },
        {
          "name": "_descriptions",
          "type": "bytes32[]"
        }
      ],
      "name": "addManualApprovalMulti",
      "outputs": [],
      "payable": false,
      "stateMutability": "nonpayable",
      "type": "function"
    },
    {
      "constant": false,
      "inputs": [
        {
          "name": "_from",
          "type": "address"
        },
        {
          "name": "_to",
          "type": "address"
        },
        {
          "name": "_expiryTime",
          "type": "uint256"
        },
        {
          "name": "_changedAllowance",
          "type": "uint256"
        },
        {
          "name": "_description",
          "type": "bytes32"
        },
        {
          "name": "_change",
          "type": "uint8"
        }
      ],
      "name": "modifyManualApproval",
      "outputs": [],
      "payable": false,
      "stateMutability": "nonpayable",
      "type": "function"
    },
    {
      "constant": false,
      "inputs": [
        {
          "name": "_from",
          "type": "address[]"
        },
        {
          "name": "_to",
          "type": "address[]"
        },
        {
          "name": "_expiryTimes",
          "type": "uint256[]"
        },
        {
          "name": "_changedAllowances",
          "type": "uint256[]"
        },
        {
          "name": "_descriptions",
          "type": "bytes32[]"
        },
        {
          "name": "_changes",
          "type": "uint8[]"
        }
      ],
      "name": "modifyManualApprovalMulti",
      "outputs": [],
      "payable": false,
      "stateMutability": "nonpayable",
      "type": "function"
    },
    {
      "constant": false,
      "inputs": [
        {
          "name": "_from",
          "type": "address"
        },
        {
          "name": "_to",
          "type": "address"
        }
      ],
      "name": "revokeManualApproval",
      "outputs": [],
      "payable": false,
      "stateMutability": "nonpayable",
      "type": "function"
    },
    {
      "constant": false,
      "inputs": [
        {
          "name": "_from",
          "type": "address[]"
        },
        {
          "name": "_to",
          "type": "address[]"
        }
      ],
      "name": "revokeManualApprovalMulti",
      "outputs": [],
      "payable": false,
      "stateMutability": "nonpayable",
      "type": "function"
    },
    {
      "constant": true,
      "inputs": [
        {
          "name": "_user",
          "type": "address"
        }
      ],
      "name": "getActiveApprovalsToUser",
      "outputs": [
        {
          "name": "",
          "type": "address[]"
        },
        {
          "name": "",
          "type": "address[]"
        },
        {
          "name": "",
          "type": "uint256[]"
        },
        {
          "name": "",
          "type": "uint256[]"
        },
        {
          "name": "",
          "type": "bytes32[]"
        }
      ],
      "payable": false,
      "stateMutability": "view",
      "type": "function"
    },
    {
      "constant": true,
      "inputs": [
        {
          "name": "_from",
          "type": "address"
        },
        {
          "name": "_to",
          "type": "address"
        }
      ],
      "name": "getApprovalDetails",
      "outputs": [
        {
          "name": "",
          "type": "uint256"
        },
        {
          "name": "",
          "type": "uint256"
        },
        {
          "name": "",
          "type": "bytes32"
        }
      ],
      "payable": false,
      "stateMutability": "view",
      "type": "function"
    },
    {
      "constant": true,
      "inputs": [],
      "name": "getTotalApprovalsLength",
      "outputs": [
        {
          "name": "",
          "type": "uint256"
        }
      ],
      "payable": false,
      "stateMutability": "view",
      "type": "function"
    },
    {
      "constant": true,
      "inputs": [],
      "name": "getAllApprovals",
      "outputs": [
        {
          "name": "",
          "type": "address[]"
        },
        {
          "name": "",
          "type": "address[]"
        },
        {
          "name": "",
          "type": "uint256[]"
        },
        {
          "name": "",
          "type": "uint256[]"
        },
        {
          "name": "",
          "type": "bytes32[]"
        }
      ],
      "payable": false,
      "stateMutability": "view",
      "type": "function"
    },
    {
      "constant": true,
      "inputs": [],
      "name": "getPermissions",
      "outputs": [
        {
          "name": "",
          "type": "bytes32[]"
        }
      ],
      "payable": false,
      "stateMutability": "view",
      "type": "function"
    }
  ],
  "bytecode": "0x60806040526002805460a060020a60ff021916905560038054600160a060020a031990811690915560048054909116905534801561003c57600080fd5b506040516040806130a483398101604052805160209091015160018054600160a060020a03938416600160a060020a03199182161790915560008054821633179055600280549390921692169190911790556130078061009d6000396000f30060806040526004361061013a5763ffffffff60e060020a6000350416631613ec9d811461013f5780633f4ba83a1461018957806348637f08146101a05780635677829f1461031d5780635c975abb1461034d5780635e6ebfc5146103765780635f7619a4146103af57806363035f66146103c75780636faa22a5146104165780637dc32b0b146104475780638456cb591461046e5780639f7cd0ef14610483578063b2b808d514610498578063b3e82dc9146104dd578063b3fac8ce146104f2578063b84dfbd214610507578063c3a07df61461051c578063c3a55f3a14610581578063c45a0155146105d1578063d5ca1f86146105e6578063d70afa9614610758578063de6ee1bc1461076d578063e0d9d74914610804578063e3c6a72b14610825578063e7529d0d14610851578063e908c04714610866575b600080fd5b34801561014b57600080fd5b5061015461089c565b604080517fffffffff000000000000000000000000000000000000000000000000000000009092168252519081900360200190f35b34801561019557600080fd5b5061019e6108a2565b005b3480156101ac57600080fd5b506101b561098a565b60405180806020018060200180602001806020018060200186810386528b818151815260200191508051906020019060200280838360005b838110156102055781810151838201526020016101ed565b5050505090500186810385528a818151815260200191508051906020019060200280838360005b8381101561024457818101518382015260200161022c565b50505050905001868103845289818151815260200191508051906020019060200280838360005b8381101561028357818101518382015260200161026b565b50505050905001868103835288818151815260200191508051906020019060200280838360005b838110156102c25781810151838201526020016102aa565b50505050905001868103825287818151815260200191508051906020019060200280838360005b838110156103015781810151838201526020016102e9565b505050509050019a505050505050505050505060405180910390f35b34801561032957600080fd5b5061019e600160a060020a0360043581169060243516604435606435608435610bfd565b34801561035957600080fd5b50610362610d9a565b604080519115158252519081900360200190f35b34801561038257600080fd5b5061039d600160a060020a0360043581169060243516610daa565b60408051918252519081900360200190f35b3480156103bb57600080fd5b50610362600435610dc7565b3480156103d357600080fd5b506103df6004356110e3565b60408051600160a060020a039687168152949095166020850152838501929092526060830152608082015290519081900360a00190f35b34801561042257600080fd5b5061042b61112e565b60408051600160a060020a039092168252519081900360200190f35b34801561045357600080fd5b5061019e600160a060020a036004358116906024351661113d565b34801561047a57600080fd5b5061019e6112d4565b34801561048f57600080fd5b5061039d6113ba565b3480156104a457600080fd5b506104bf600160a060020a03600435811690602435166113cc565b60408051938452602084019290925282820152519081900360600190f35b3480156104e957600080fd5b5061042b611485565b3480156104fe57600080fd5b5061042b611494565b34801561051357600080fd5b5061042b6114a3565b34801561052857600080fd5b506105316114b2565b60408051602080825283518183015283519192839290830191858101910280838360005b8381101561056d578181015183820152602001610555565b505050509050019250505060405180910390f35b34801561058d57600080fd5b5061019e6024600480358281019290820135918135808301929082013591604435808301929082013591606435808301929082013591608435918201910135611507565b3480156105dd57600080fd5b5061042b611832565b3480156105f257600080fd5b506040805160206004803580820135838102808601850190965280855261019e95369593946024949385019291829185019084908082843750506040805187358901803560208181028481018201909552818452989b9a998901989297509082019550935083925085019084908082843750506040805187358901803560208181028481018201909552818452989b9a998901989297509082019550935083925085019084908082843750506040805187358901803560208181028481018201909552818452989b9a998901989297509082019550935083925085019084908082843750506040805187358901803560208181028481018201909552818452989b9a998901989297509082019550935083925085019084908082843750506040805187358901803560208181028481018201909552818452989b9a9989019892975090820195509350839250850190849080828437509497506118419650505050505050565b34801561076457600080fd5b5061039d611aec565b34801561077957600080fd5b50604080516020601f6064356004818101359283018490048402850184019095528184526107e094600160a060020a038135811695602480359092169560443595369560849401918190840183828082843750949750505050913515159250611b10915050565b604051808260038111156107f057fe5b60ff16815260200191505060405180910390f35b34801561081057600080fd5b506101b5600160a060020a0360043516611c68565b34801561083157600080fd5b5061019e602460048035828101929082013591813591820191013561203e565b34801561085d57600080fd5b5061039d612277565b34801561087257600080fd5b5061019e600160a060020a036004358116906024351660443560643560843560ff60a4351661227d565b60005b90565b600160009054906101000a9004600160a060020a0316600160a060020a0316638da5cb5b6040518163ffffffff1660e060020a028152600401602060405180830381600087803b1580156108f557600080fd5b505af1158015610909573d6000803e3d6000fd5b505050506040513d602081101561091f57600080fd5b5051600160a060020a03163314610980576040805160e560020a62461bcd02815260206004820152601360248201527f53656e646572206973206e6f74206f776e657200000000000000000000000000604482015290519081900360640190fd5b61098861241c565b565b60608060608060608060608060608060006006805490506040519080825280602002602001820160405280156109ca578160200160208202803883390190505b5060065460408051828152602080840282010190915291975080156109f9578160200160208202803883390190505b506006546040805182815260208084028201019091529196508015610a28578160200160208202803883390190505b506006546040805182815260208084028201019091529195508015610a57578160200160208202803883390190505b506006546040805182815260208084028201019091529194508015610a86578160200160208202803883390190505b509150600090505b600654811015610beb576006805482908110610aa657fe5b60009182526020909120600590910201548651600160a060020a0390911690879083908110610ad157fe5b600160a060020a039092166020928302909101909101526006805482908110610af657fe5b60009182526020909120600160059092020101548551600160a060020a0390911690869083908110610b2457fe5b600160a060020a039092166020928302909101909101526006805482908110610b4957fe5b9060005260206000209060050201600201548482815181101515610b6957fe5b602090810290910101526006805482908110610b8157fe5b9060005260206000209060050201600301548382815181101515610ba157fe5b602090810290910101526006805482908110610bb957fe5b9060005260206000209060050201600401548282815181101515610bd957fe5b60209081029091010152600101610a8e565b50939992985090965094509092509050565b600080516020612f9c833981519152600080600160009054906101000a9004600160a060020a0316600160a060020a0316638da5cb5b6040518163ffffffff1660e060020a028152600401602060405180830381600087803b158015610c6257600080fd5b505af1158015610c76573d6000803e3d6000fd5b505050506040513d6020811015610c8c57600080fd5b505160005433600160a060020a039283168114945091161490508180610caf5750805b80610d3f57506001546040805160e060020a638658b8b9028152336004820152306024820152604481018690529051600160a060020a0390921691638658b8b9916064808201926020929091908290030181600087803b158015610d1257600080fd5b505af1158015610d26573d6000803e3d6000fd5b505050506040513d6020811015610d3c57600080fd5b50515b1515610d83576040805160e560020a62461bcd0281526020600482015260176024820152600080516020612fbc833981519152604482015290519081900360640190fd5b610d9088888888886124d2565b5050505050505050565b60025460a060020a900460ff1681565b600560209081526000928352604080842090915290825290205481565b60007f4645455f41444d494e0000000000000000000000000000000000000000000000600080600160009054906101000a9004600160a060020a0316600160a060020a0316638da5cb5b6040518163ffffffff1660e060020a028152600401602060405180830381600087803b158015610e4057600080fd5b505af1158015610e54573d6000803e3d6000fd5b505050506040513d6020811015610e6a57600080fd5b505160005433600160a060020a039283168114945091161490508180610e8d5750805b80610f1d57506001546040805160e060020a638658b8b9028152336004820152306024820152604481018690529051600160a060020a0390921691638658b8b9916064808201926020929091908290030181600087803b158015610ef057600080fd5b505af1158015610f04573d6000803e3d6000fd5b505050506040513d6020811015610f1a57600080fd5b50515b1515610f61576040805160e560020a62461bcd0281526020600482015260176024820152600080516020612fbc833981519152604482015290519081900360640190fd5b60025460015460008054604080517f8da5cb5b0000000000000000000000000000000000000000000000000000000081529051600160a060020a03958616956323b872dd95811694931692638da5cb5b92600480820193602093909283900390910190829087803b158015610fd557600080fd5b505af1158015610fe9573d6000803e3d6000fd5b505050506040513d6020811015610fff57600080fd5b50516040805160e060020a63ffffffff8616028152600160a060020a039384166004820152929091166024830152604482018990525160648083019260209291908290030181600087803b15801561105657600080fd5b505af115801561106a573d6000803e3d6000fd5b505050506040513d602081101561108057600080fd5b505115156110d8576040805160e560020a62461bcd02815260206004820152601260248201527f556e61626c6520746f2074616b65206665650000000000000000000000000000604482015290519081900360640190fd5b506001949350505050565b60068054829081106110f157fe5b600091825260209091206005909102018054600182015460028301546003840154600490940154600160a060020a03938416955091909216929085565b600254600160a060020a031681565b600080516020612f9c833981519152600080600160009054906101000a9004600160a060020a0316600160a060020a0316638da5cb5b6040518163ffffffff1660e060020a028152600401602060405180830381600087803b1580156111a257600080fd5b505af11580156111b6573d6000803e3d6000fd5b505050506040513d60208110156111cc57600080fd5b505160005433600160a060020a0392831681149450911614905081806111ef5750805b8061127f57506001546040805160e060020a638658b8b9028152336004820152306024820152604481018690529051600160a060020a0390921691638658b8b9916064808201926020929091908290030181600087803b15801561125257600080fd5b505af1158015611266573d6000803e3d6000fd5b505050506040513d602081101561127c57600080fd5b50515b15156112c3576040805160e560020a62461bcd0281526020600482015260176024820152600080516020612fbc833981519152604482015290519081900360640190fd5b6112cd8585612882565b5050505050565b600160009054906101000a9004600160a060020a0316600160a060020a0316638da5cb5b6040518163ffffffff1660e060020a028152600401602060405180830381600087803b15801561132757600080fd5b505af115801561133b573d6000803e3d6000fd5b505050506040513d602081101561135157600080fd5b5051600160a060020a031633146113b2576040805160e560020a62461bcd02815260206004820152601360248201527f53656e646572206973206e6f74206f776e657200000000000000000000000000604482015290519081900360640190fd5b610988612ad3565b600080516020612f9c83398151915281565b600160a060020a03808316600090815260056020908152604080832093851683529290529081205481908190819081901561147157600160a060020a038088166000908152600560209081526040808320938a1683529290522054600654600019909101925082101561147157600680548390811061144757fe5b9060005260206000209060050201905080600301548160020154826004015494509450945061147c565b600094508493508392505b50509250925092565b600454600160a060020a031681565b600354600160a060020a031681565b600154600160a060020a031681565b60408051600180825281830190925260609182919060208083019080388339019050509050600080516020612f9c8339815191528160008151811015156114f557fe5b602090810290910101529050805b5090565b6000600080516020612f9c833981519152600080600160009054906101000a9004600160a060020a0316600160a060020a0316638da5cb5b6040518163ffffffff1660e060020a028152600401602060405180830381600087803b15801561156e57600080fd5b505af1158015611582573d6000803e3d6000fd5b505050506040513d602081101561159857600080fd5b505160005433600160a060020a0392831681149450911614905081806115bb5750805b8061164b57506001546040805160e060020a638658b8b9028152336004820152306024820152604481018690529051600160a060020a0390921691638658b8b9916064808201926020929091908290030181600087803b15801561161e57600080fd5b505af1158015611632573d6000803e3d6000fd5b505050506040513d602081101561164857600080fd5b50515b151561168f576040805160e560020a62461bcd0281526020600482015260176024820152600080516020612fbc833981519152604482015290519081900360640190fd5b6117858e8e808060200260200160405190810160405280939291908181526020018383602002808284378201915050505050508d8d808060200260200160405190810160405280939291908181526020018383602002808284378201915050505050508c8c808060200260200160405190810160405280939291908181526020018383602002808284378201915050505050508b8b808060200260200160405190810160405280939291908181526020018383602002808284378201915050505050508a8a8080602002602001604051908101604052809392919081815260200183836020028082843750612b8e945050505050565b600093505b8c841015611822576118178e8e868181106117a157fe5b90506020020135600160a060020a03168d8d8781811015156117bf57fe5b90506020020135600160a060020a03168c8c8881811015156117dd57fe5b905060200201358b8b8981811015156117f257fe5b905060200201358a8a8a818110151561180757fe5b90506020020135600019166124d2565b60019093019261178a565b5050505050505050505050505050565b600054600160a060020a031681565b6000600080516020612f9c833981519152600080600160009054906101000a9004600160a060020a0316600160a060020a0316638da5cb5b6040518163ffffffff1660e060020a028152600401602060405180830381600087803b1580156118a857600080fd5b505af11580156118bc573d6000803e3d6000fd5b505050506040513d60208110156118d257600080fd5b505160005433600160a060020a0392831681149450911614905081806118f55750805b8061198557506001546040805160e060020a638658b8b9028152336004820152306024820152604481018690529051600160a060020a0390921691638658b8b9916064808201926020929091908290030181600087803b15801561195857600080fd5b505af115801561196c573d6000803e3d6000fd5b505050506040513d602081101561198257600080fd5b50515b15156119c9576040805160e560020a62461bcd0281526020600482015260176024820152600080516020612fbc833981519152604482015290519081900360640190fd5b6119d68a8a898b8a612b8e565b8651855114611a2f576040805160e560020a62461bcd02815260206004820152601b60248201527f496e707574206c656e677468206172726179206d69736d617463680000000000604482015290519081900360640190fd5b600093505b8951841015611ae057611ad58a85815181101515611a4e57fe5b906020019060200201518a86815181101515611a6657fe5b906020019060200201518a87815181101515611a7e57fe5b906020019060200201518a88815181101515611a9657fe5b906020019060200201518a89815181101515611aae57fe5b906020019060200201518a8a815181101515611ac657fe5b90602001906020020151612c10565b600190930192611a34565b50505050505050505050565b7f4645455f41444d494e000000000000000000000000000000000000000000000081565b60008080831580611b2b5750600154600160a060020a031633145b1515611b81576040805160e560020a62461bcd02815260206004820152601760248201527f53656e646572206973206e6f7420746865206f776e6572000000000000000000604482015290519081900360640190fd5b60025460a060020a900460ff16158015611bbf5750600160a060020a038089166000908152600560209081526040808320938b168352929052205415155b15611c5857600160a060020a038089166000908152600560209081526040808320938b16835292905220546006805460001990920193509083908110611c0157fe5b9060005260206000209060050201905042816003015410158015611c29575085816002015410155b15611c58578315611c4f576002810154611c49908763ffffffff612ef216565b60028201555b60029250611c5d565b600192505b505095945050505050565b60608080808060008082808080805b600654861015611d36578c600160a060020a0316600687815481101515611c9a57fe5b6000918252602090912060059091020154600160a060020a03161480611cf357508c600160a060020a0316600687815481101515611cd457fe5b6000918252602090912060016005909202010154600160a060020a0316145b8015611d1f575042600687815481101515611d0a57fe5b90600052602060002090600502016003015410155b15611d2b576001909601955b600190950194611c77565b86604051908082528060200260200182016040528015611d60578160200160208202803883390190505b50945086604051908082528060200260200182016040528015611d8d578160200160208202803883390190505b50935086604051908082528060200260200182016040528015611dba578160200160208202803883390190505b50925086604051908082528060200260200182016040528015611de7578160200160208202803883390190505b50915086604051908082528060200260200182016040528015611e14578160200160208202803883390190505b50905060009650600095505b60065486101561202a578c600160a060020a0316600687815481101515611e4357fe5b6000918252602090912060059091020154600160a060020a03161480611e9c57508c600160a060020a0316600687815481101515611e7d57fe5b6000918252602090912060016005909202010154600160a060020a0316145b8015611ec8575042600687815481101515611eb357fe5b90600052602060002090600502016003015410155b1561201f576006805487908110611edb57fe5b60009182526020909120600590910201548551600160a060020a0390911690869089908110611f0657fe5b600160a060020a039092166020928302909101909101526006805487908110611f2b57fe5b60009182526020909120600160059092020101548451600160a060020a0390911690859089908110611f5957fe5b600160a060020a039092166020928302909101909101526006805487908110611f7e57fe5b9060005260206000209060050201600201548388815181101515611f9e57fe5b602090810290910101526006805487908110611fb657fe5b9060005260206000209060050201600301548288815181101515611fd657fe5b602090810290910101526006805487908110611fee57fe5b906000526020600020906005020160040154818881518110151561200e57fe5b602090810290910101526001909601955b600190950194611e20565b939c929b5090995097509095509350505050565b6000600080516020612f9c833981519152600080600160009054906101000a9004600160a060020a0316600160a060020a0316638da5cb5b6040518163ffffffff1660e060020a028152600401602060405180830381600087803b1580156120a557600080fd5b505af11580156120b9573d6000803e3d6000fd5b505050506040513d60208110156120cf57600080fd5b505160005433600160a060020a0392831681149450911614905081806120f25750805b8061218257506001546040805160e060020a638658b8b9028152336004820152306024820152604481018690529051600160a060020a0390921691638658b8b9916064808201926020929091908290030181600087803b15801561215557600080fd5b505af1158015612169573d6000803e3d6000fd5b505050506040513d602081101561217f57600080fd5b50515b15156121c6576040805160e560020a62461bcd0281526020600482015260176024820152600080516020612fbc833981519152604482015290519081900360640190fd5b86851461221d576040805160e560020a62461bcd02815260206004820152601b60248201527f496e707574206172726179206c656e677468206d69736d617463680000000000604482015290519081900360640190fd5b600093505b86841015610d905761226c88888681811061223957fe5b90506020020135600160a060020a0316878787818110151561225757fe5b90506020020135600160a060020a0316612882565b600190930192612222565b60065490565b600080516020612f9c833981519152600080600160009054906101000a9004600160a060020a0316600160a060020a0316638da5cb5b6040518163ffffffff1660e060020a028152600401602060405180830381600087803b1580156122e257600080fd5b505af11580156122f6573d6000803e3d6000fd5b505050506040513d602081101561230c57600080fd5b505160005433600160a060020a03928316811494509116149050818061232f5750805b806123bf57506001546040805160e060020a638658b8b9028152336004820152306024820152604481018690529051600160a060020a0390921691638658b8b9916064808201926020929091908290030181600087803b15801561239257600080fd5b505af11580156123a6573d6000803e3d6000fd5b505050506040513d60208110156123bc57600080fd5b50515b1515612403576040805160e560020a62461bcd0281526020600482015260176024820152600080516020612fbc833981519152604482015290519081900360640190fd5b612411898989898989612c10565b505050505050505050565b60025460a060020a900460ff16151561247f576040805160e560020a62461bcd02815260206004820152601660248201527f436f6e7472616374206973206e6f742070617573656400000000000000000000604482015290519081900360640190fd5b6002805474ff0000000000000000000000000000000000000000191690556040805142815290517faaa520fdd7d2c83061d632fa017b0432407e798818af63ea908589fceda39ab79181900360200190a1565b6000600160a060020a0385161515612534576040805160e560020a62461bcd02815260206004820152601260248201527f496e76616c696420746f20616464726573730000000000000000000000000000604482015290519081900360640190fd5b42831161258b576040805160e560020a62461bcd02815260206004820152601360248201527f496e76616c6964206578706972792074696d6500000000000000000000000000604482015290519081900360640190fd5b600084116125e3576040805160e560020a62461bcd02815260206004820152601160248201527f496e76616c696420616c6c6f77616e6365000000000000000000000000000000604482015290519081900360640190fd5b600160a060020a03808716600090815260056020908152604080832093891683529290522054156126ea5750600160a060020a0380861660009081526005602090815260408083209388168352929052205460068054600019909201914291908390811061264d57fe5b906000526020600020906005020160030154108061268a5750600680548290811061267457fe5b9060005260206000209060050201600201546000145b15156126e0576040805160e560020a62461bcd02815260206004820152601760248201527f417070726f76616c20616c726561647920657869737473000000000000000000604482015290519081900360640190fd5b6126ea8686612882565b6040805160a081018252600160a060020a0380891680835288821660208085018281528587018b815260608088018c8152608089018c81526006805460018101825560008281529b5160059182027ff652222313e28459528d920b65115c16c04f3efc82aaedc97be59f3f377c0d3f81018054928e1673ffffffffffffffffffffffffffffffffffffffff1993841617905597517ff652222313e28459528d920b65115c16c04f3efc82aaedc97be59f3f377c0d408901805491909d16911617909a5593517ff652222313e28459528d920b65115c16c04f3efc82aaedc97be59f3f377c0d4186015590517ff652222313e28459528d920b65115c16c04f3efc82aaedc97be59f3f377c0d42850155517ff652222313e28459528d920b65115c16c04f3efc82aaedc97be59f3f377c0d439093019290925554848752948252868620838752825294869020939093558451898152928301889052828501879052935133949391927f694086b7577eae5577f90c1aa90ff38280eacd0709a8c7be707a219e92a150c992908290030190a4505050505050565b600160a060020a0380831660009081526005602090815260408083209385168352929052908120541515612900576040805160e560020a62461bcd02815260206004820152601260248201527f417070726f76616c206e6f742065786973740000000000000000000000000000604482015290519081900360640190fd5b50600160a060020a0380831660009081526005602090815260408083209385168352929052205460065460001991820191018114612a575760068054600019810190811061294a57fe5b906000526020600020906005020160068281548110151561296757fe5b60009182526020822083546005928302909101805473ffffffffffffffffffffffffffffffffffffffff19908116600160a060020a039384161782556001808701548184018054909316941693909317905560028086015490820155600380860154908201556004948501549401939093556006805493850193919291859081106129ee57fe5b60009182526020808320600590920290910154600160a060020a0316835282019290925260400181206006805491929185908110612a2857fe5b6000918252602080832060016005909302019190910154600160a060020a031683528201929092526040019020555b600160a060020a0380841660009081526005602090815260408083209386168352929052908120556006805490612a92906000198301612f17565b506040513390600160a060020a0384811691908616907fbe7baba984867cb2bb52a4035357b30f05c7e480fc9daf78a7b718ae6ee4a4fe90600090a4505050565b60025460a060020a900460ff1615612b35576040805160e560020a62461bcd02815260206004820152601260248201527f436f6e7472616374206973207061757365640000000000000000000000000000604482015290519081900360640190fd5b6002805474ff0000000000000000000000000000000000000000191660a060020a1790556040805142815290517f68b095021b1f40fe513109f513c66692f0b3219aee674a69f4efc57badb8201d9181900360200190a1565b83518551148015612ba0575081518451145b8015612bad575082518251145b8015612bba575080518351145b15156112cd576040805160e560020a62461bcd02815260206004820152601b60248201527f496e707574206172726179206c656e677468206d69736d617463680000000000604482015290519081900360640190fd5b6000808080600160a060020a0389161515612c75576040805160e560020a62461bcd02815260206004820152601260248201527f496e76616c696420746f20616464726573730000000000000000000000000000604482015290519081900360640190fd5b428811612ccc576040805160e560020a62461bcd02815260206004820152601360248201527f496e76616c6964206578706972792074696d6500000000000000000000000000604482015290519081900360640190fd5b600160a060020a03808b166000908152600560209081526040808320938d16835292905220541515612d48576040805160e560020a62461bcd02815260206004820152601460248201527f417070726f76616c206e6f742070726573656e74000000000000000000000000604482015290519081900360640190fd5b600160a060020a03808b166000908152600560209081526040808320938d16835292905220546006805460001990920195509085908110612d8557fe5b906000526020600020906005020192508260020154600014158015612dad5750428360030154115b1515612e03576040805160e560020a62461bcd02815260206004820152600b60248201527f4e6f7420616c6c6f776564000000000000000000000000000000000000000000604482015290519081900360640190fd5b826002015491508460ff1660011415612e3457612e26828863ffffffff612f0416565b600284018190559050612e6d565b60ff85161515612e6a5781871115612e555750600060028301819055612e65565b612e26828863ffffffff612ef216565b612e6d565b50805b60038301548814612e8057600383018890555b60048301548614612e9357600483018690555b604080518981526020810183905280820188905290513391600160a060020a038c811692908e16917f0f3f478ce6278e66ad974b3190c8cb89c93292c1620c40408fee8b64c09ac52e919081900360600190a450505050505050505050565b600082821115612efe57fe5b50900390565b81810182811015612f1157fe5b92915050565b815481835581811115612f4357600502816005028360005260206000209182019101612f439190612f48565b505050565b61089f91905b8082111561150357805473ffffffffffffffffffffffffffffffffffffffff1990811682556001820180549091169055600060028201819055600382018190556004820155600501612f4e56005452414e534645525f415050524f56414c0000000000000000000000000000005065726d697373696f6e20636865636b206661696c6564000000000000000000a165627a7a72305820dfd18de69638d2ae45d7fb7016c29f0e9177c457ce87e59f29e09bd80c931bc30029",
  "source": "pragma solidity ^0.4.24;\n\nimport \"./ITransferManager.sol\";\nimport \"openzeppelin-solidity/contracts/math/SafeMath.sol\";\n\n/**\n * @title Transfer Manager module for manually approving transactions between accounts\n */\ncontract ManualApprovalTransferManager is ITransferManager {\n    using SafeMath for uint256;\n\n    //Address from which issuances come\n    address public issuanceAddress = address(0);\n\n    //Address which can sign whitelist changes\n    address public signingAddress = address(0);\n\n    bytes32 public constant TRANSFER_APPROVAL = \"TRANSFER_APPROVAL\";\n\n    //Manual approval is an allowance (that has been approved) with an expiry time\n    struct ManualApproval {\n        address from;\n        address to;\n        uint256 allowance;\n        uint256 expiryTime;\n        bytes32 description;\n    }\n\n    mapping (address => mapping (address => uint256)) public approvalIndex;\n    // An array to track all approvals\n    ManualApproval[] public approvals;\n\n    event AddManualApproval(\n        address indexed _from,\n        address indexed _to,\n        uint256 _allowance,\n        uint256 _expiryTime,\n        bytes32 _description,\n        address indexed _addedBy\n    );\n\n    event ModifyManualApproval(\n        address indexed _from,\n        address indexed _to,\n        uint256 _expiryTime,\n        uint256 _allowance,\n        bytes32 _description,\n        address indexed _edittedBy\n    );\n\n    event RevokeManualApproval(\n        address indexed _from,\n        address indexed _to,\n        address indexed _addedBy\n    );\n\n    /**\n     * @notice Constructor\n     * @param _securityToken Address of the security token\n     * @param _polyAddress Address of the polytoken\n     */\n    constructor (address _securityToken, address _polyAddress)\n    public\n    Module(_securityToken, _polyAddress)\n    {\n    }\n\n    /**\n     * @notice This function returns the signature of configure function\n     */\n    function getInitFunction() public pure returns (bytes4) {\n        return bytes4(0);\n    }\n\n    /** \n     * @notice Used to verify the transfer transaction and allow a manually approved transqaction to bypass other restrictions\n     * @param _from Address of the sender\n     * @param _to Address of the receiver\n     * @param _amount The amount of tokens to transfer\n     * @param _isTransfer Whether or not this is an actual transfer or just a test to see if the tokens would be transferrable\n     */\n    function verifyTransfer(address _from, address _to, uint256 _amount, bytes /* _data */, bool _isTransfer) public returns(Result) {\n        // function must only be called by the associated security token if _isTransfer == true\n        require(_isTransfer == false || msg.sender == securityToken, \"Sender is not the owner\");\n       \n        if (!paused && approvalIndex[_from][_to] != 0) {\n            uint256 index = approvalIndex[_from][_to] - 1;\n            ManualApproval storage approval = approvals[index];\n            if ((approval.expiryTime >= now) && (approval.allowance >= _amount)) {\n                if (_isTransfer) {\n                    approval.allowance = approval.allowance.sub(_amount);\n                }\n                return Result.VALID;\n            }\n        }\n        return Result.NA;\n    }\n\n    /**\n    * @notice Adds a pair of addresses to manual approvals\n    * @param _from is the address from which transfers are approved\n    * @param _to is the address to which transfers are approved\n    * @param _allowance is the approved amount of tokens\n    * @param _expiryTime is the time until which the transfer is allowed\n    * @param _description Description about the manual approval\n    */\n    function addManualApproval(\n        address _from,\n        address _to,\n        uint256 _allowance,\n        uint256 _expiryTime,\n        bytes32 _description\n    ) \n        external \n        withPerm(TRANSFER_APPROVAL)\n    {\n        _addManualApproval(_from, _to, _allowance, _expiryTime, _description);\n    }\n\n    function _addManualApproval(address _from, address _to, uint256 _allowance, uint256 _expiryTime, bytes32 _description) internal {\n        require(_to != address(0), \"Invalid to address\");\n        require(_expiryTime > now, \"Invalid expiry time\");\n        require(_allowance > 0, \"Invalid allowance\");\n        if (approvalIndex[_from][_to] != 0) {\n            uint256 index = approvalIndex[_from][_to] - 1;\n            require(approvals[index].expiryTime < now || approvals[index].allowance == 0, \"Approval already exists\");\n            _revokeManualApproval(_from, _to);\n        }\n        approvals.push(ManualApproval(_from, _to, _allowance, _expiryTime, _description));\n        approvalIndex[_from][_to] = approvals.length;\n        emit AddManualApproval(_from, _to, _allowance, _expiryTime, _description, msg.sender);\n    }\n\n    /**\n    * @notice Adds mutiple manual approvals in batch\n    * @param _from is the address array from which transfers are approved\n    * @param _to is the address array to which transfers are approved\n    * @param _allowances is the array of approved amounts \n    * @param _expiryTimes is the array of the times until which eath transfer is allowed\n    * @param _descriptions is the description array for these manual approvals\n    */\n    function addManualApprovalMulti(\n        address[] _from,\n        address[] _to,\n        uint256[] _allowances,\n        uint256[] _expiryTimes,\n        bytes32[] _descriptions\n    ) \n        external \n        withPerm(TRANSFER_APPROVAL)\n    {\n        _checkInputLengthArray(_from, _to, _allowances, _expiryTimes, _descriptions);\n        for (uint256 i = 0; i < _from.length; i++){\n            _addManualApproval(_from[i], _to[i], _allowances[i], _expiryTimes[i], _descriptions[i]);\n        }\n    }\n\n    /**\n    * @notice Modify the existing manual approvals\n    * @param _from is the address from which transfers are approved\n    * @param _to is the address to which transfers are approved\n    * @param _expiryTime is the time until which the transfer is allowed\n    * @param _changedAllowance is the changed allowance\n    * @param _description Description about the manual approval\n    * @param _change uint values which tells whether the allowances will be increased (1) or decreased (0)\n    * or any value when there is no change in allowances\n    */\n    function modifyManualApproval(\n        address _from,\n        address _to,\n        uint256 _expiryTime,\n        uint256 _changedAllowance,\n        bytes32 _description,\n        uint8 _change\n    ) \n        external\n        withPerm(TRANSFER_APPROVAL)\n    {\n        _modifyManualApproval(_from, _to, _expiryTime, _changedAllowance, _description, _change);\n    }\n\n    function _modifyManualApproval(\n        address _from,\n        address _to,\n        uint256 _expiryTime,\n        uint256 _changedAllowance,\n        bytes32 _description,\n        uint8 _change\n    ) \n        internal \n    {\n        require(_to != address(0), \"Invalid to address\");\n        /*solium-disable-next-line security/no-block-members*/\n        require(_expiryTime > now, \"Invalid expiry time\");\n        require(approvalIndex[_from][_to] != 0, \"Approval not present\");\n        uint256 index = approvalIndex[_from][_to] - 1;\n        ManualApproval storage approval = approvals[index];\n        require(approval.allowance != 0 && approval.expiryTime > now, \"Not allowed\");\n        uint256 currentAllowance = approval.allowance;\n        uint256 newAllowance;\n        if (_change == 1) {\n            // Allowance get increased\n            newAllowance = currentAllowance.add(_changedAllowance);\n            approval.allowance = newAllowance;\n        } else if (_change == 0) {\n            // Allowance get decreased\n            if (_changedAllowance > currentAllowance) {\n                newAllowance = 0;\n                approval.allowance = newAllowance;\n            } else {\n                newAllowance = currentAllowance.sub(_changedAllowance);\n                approval.allowance = newAllowance;\n            }\n        } else {\n            // No change in the Allowance\n            newAllowance = currentAllowance;\n        }\n        // Greedy storage technique\n        if (approval.expiryTime != _expiryTime) {\n            approval.expiryTime = _expiryTime;\n        }\n        if (approval.description != _description) {\n            approval.description = _description;\n        }\n        emit ModifyManualApproval(_from, _to, _expiryTime, newAllowance, _description, msg.sender);\n    }\n\n    /**\n     * @notice Adds mutiple manual approvals in batch\n     * @param _from is the address array from which transfers are approved\n     * @param _to is the address array to which transfers are approved\n     * @param _expiryTimes is the array of the times until which eath transfer is allowed\n     * @param _changedAllowances is the array of approved amounts \n     * @param _descriptions is the description array for these manual approvals\n     * @param _changes Array of uint values which tells whether the allowances will be increased (1) or decreased (0)\n     * or any value when there is no change in allowances\n     */\n    function modifyManualApprovalMulti(\n        address[] _from,\n        address[] _to,\n        uint256[] _expiryTimes,\n        uint256[] _changedAllowances,\n        bytes32[] _descriptions,\n        uint8[] _changes\n    )\n        public\n        withPerm(TRANSFER_APPROVAL)\n    {\n        _checkInputLengthArray(_from, _to, _changedAllowances, _expiryTimes, _descriptions);\n        require(_changes.length == _changedAllowances.length, \"Input length array mismatch\");\n        for (uint256 i = 0; i < _from.length; i++) {\n            _modifyManualApproval(_from[i], _to[i], _expiryTimes[i], _changedAllowances[i], _descriptions[i], _changes[i]);\n        }\n    }\n\n    /**\n    * @notice Removes a pairs of addresses from manual approvals\n    * @param _from is the address from which transfers are approved\n    * @param _to is the address to which transfers are approved\n    */\n    function revokeManualApproval(address _from, address _to) external withPerm(TRANSFER_APPROVAL) {\n        _revokeManualApproval(_from, _to);\n    }\n\n    function _revokeManualApproval(address _from, address _to) internal {\n        require(approvalIndex[_from][_to] != 0, \"Approval not exist\"); \n\n        // find the record in active approvals array & delete it\n        uint256 index = approvalIndex[_from][_to] - 1;\n        if (index != approvals.length -1) {\n            approvals[index] = approvals[approvals.length -1];\n            approvalIndex[approvals[index].from][approvals[index].to] = index + 1; \n        }\n        delete approvalIndex[_from][_to];\n        approvals.length--;\n        emit RevokeManualApproval(_from, _to, msg.sender);\n    }\n\n    /**\n    * @notice Removes mutiple pairs of addresses from manual approvals\n    * @param _from is the address array from which transfers are approved\n    * @param _to is the address array to which transfers are approved\n    */\n    function revokeManualApprovalMulti(address[] _from, address[] _to) external withPerm(TRANSFER_APPROVAL) {\n        require(_from.length == _to.length, \"Input array length mismatch\");\n        for(uint256 i = 0; i < _from.length; i++){\n            _revokeManualApproval(_from[i], _to[i]);\n        }\n    }\n\n    function _checkInputLengthArray(\n        address[] _from,\n        address[] _to,\n        uint256[] _expiryTimes,\n        uint256[] _allowances,\n        bytes32[] _descriptions\n    ) \n        internal\n        pure \n    {\n        require(_from.length == _to.length &&\n        _to.length == _allowances.length &&\n        _allowances.length == _expiryTimes.length &&\n        _expiryTimes.length == _descriptions.length,\n        \"Input array length mismatch\"\n        );\n    }\n\n    /**\n     * @notice Returns the all active approvals corresponds to an address\n     * @param _user Address of the holder corresponds to whom list of manual approvals \n     * need to return\n     * @return address[] addresses from\n     * @return address[] addresses to\n     * @return uint256[] allowances provided to the approvals\n     * @return uint256[] expiry times provided to the approvals\n     * @return bytes32[] descriptions provided to the approvals\n     */\n    function getActiveApprovalsToUser(address _user) external view returns(address[], address[], uint256[], uint256[], bytes32[]) {\n        uint256 counter = 0;\n        for (uint256 i = 0; i < approvals.length; i++) {\n            if ((approvals[i].from == _user || approvals[i].to == _user)\n                && approvals[i].expiryTime >= now)\n                counter ++;\n        }\n\n        address[] memory from = new address[](counter);\n        address[] memory to = new address[](counter);\n        uint256[] memory allowance = new uint256[](counter);\n        uint256[] memory expiryTime = new uint256[](counter);\n        bytes32[] memory description = new bytes32[](counter);\n\n        counter = 0;\n        for (i = 0; i < approvals.length; i++) {\n            if ((approvals[i].from == _user || approvals[i].to == _user)\n                && approvals[i].expiryTime >= now) {\n\n                from[counter]=approvals[i].from;\n                to[counter]=approvals[i].to;\n                allowance[counter]=approvals[i].allowance;\n                expiryTime[counter]=approvals[i].expiryTime;\n                description[counter]=approvals[i].description;\n                counter ++;\n            } \n        }\n        return (from, to, allowance, expiryTime, description);\n    }\n\n    /**\n     * @notice Get the details of the approval corresponds to _from & _to addresses\n     * @param _from Address of the sender\n     * @param _to Address of the receiver\n     * @return uint256 expiryTime of the approval\n     * @return uint256 allowance provided to the approval\n     * @return uint256 Description provided to the approval\n     */\n    function getApprovalDetails(address _from, address _to) external view returns(uint256, uint256, bytes32) {\n        if (approvalIndex[_from][_to] != 0) {\n            uint256 index = approvalIndex[_from][_to] - 1;\n            if (index < approvals.length) {\n                ManualApproval storage approval = approvals[index];\n                return(\n                    approval.expiryTime,\n                    approval.allowance,\n                    approval.description\n                );\n            }\n        }\n        return (uint256(0), uint256(0), bytes32(0));\n    }\n\n    /**\n    * @notice Returns the current number of active approvals\n    */\n    function getTotalApprovalsLength() external view returns(uint256) {\n        return approvals.length;\n    }\n\n    /**\n     * @notice Get the details of all approvals\n     * @return address[] addresses from\n     * @return address[] addresses to\n     * @return uint256[] allowances provided to the approvals\n     * @return uint256[] expiry times provided to the approvals\n     * @return bytes32[] descriptions provided to the approvals\n     */\n    function getAllApprovals() external view returns(address[], address[], uint256[], uint256[], bytes32[]) {\n        address[] memory from = new address[](approvals.length);\n        address[] memory to = new address[](approvals.length);\n        uint256[] memory allowance = new uint256[](approvals.length);\n        uint256[] memory expiryTime = new uint256[](approvals.length);\n        bytes32[] memory description = new bytes32[](approvals.length);\n\n        for (uint256 i = 0; i < approvals.length; i++) {\n\n            from[i]=approvals[i].from;\n            to[i]=approvals[i].to;\n            allowance[i]=approvals[i].allowance;\n            expiryTime[i]=approvals[i].expiryTime;\n            description[i]=approvals[i].description;\n\n        }\n\n        return (from, to, allowance, expiryTime, description);\n        \n    }\n\n    /**\n     * @notice Returns the permissions flag that are associated with ManualApproval transfer manager\n     */\n    function getPermissions() public view returns(bytes32[]) {\n        bytes32[] memory allPermissions = new bytes32[](1);\n        allPermissions[0] = TRANSFER_APPROVAL;\n        return allPermissions;\n    }\n}\n",
  "sourcePath": "/Users/polymath/polymath-core/contracts/modules/TransferManager/ManualApprovalTransferManager.sol",
  "compiler": {
    "name": "solc",
    "version": "0.4.24+commit.e67f0147.Emscripten.clang"
  },
  "schemaVersion": "2.0.1",
  "updatedAt": "2019-01-08T14:53:25.054Z"
}