{
  "contractName": "ManualApprovalTransferManager",
  "abi": [
    {
      "constant": false,
      "inputs": [],
      "name": "unpause",
      "outputs": [],
      "payable": false,
      "stateMutability": "nonpayable",
      "type": "function"
    },
    {
      "constant": true,
      "inputs": [],
      "name": "paused",
      "outputs": [
        {
          "name": "",
          "type": "bool"
        }
      ],
      "payable": false,
      "stateMutability": "view",
      "type": "function"
    },
    {
      "constant": true,
      "inputs": [
        {
          "name": "",
          "type": "address"
        },
        {
          "name": "",
          "type": "address"
        }
      ],
      "name": "approvalIndex",
      "outputs": [
        {
          "name": "",
          "type": "uint256"
        }
      ],
      "payable": false,
      "stateMutability": "view",
      "type": "function"
    },
    {
      "constant": false,
      "inputs": [
        {
          "name": "_amount",
          "type": "uint256"
        }
      ],
      "name": "takeFee",
      "outputs": [
        {
          "name": "",
          "type": "bool"
        }
      ],
      "payable": false,
      "stateMutability": "nonpayable",
      "type": "function"
    },
    {
      "constant": true,
      "inputs": [
        {
          "name": "",
          "type": "uint256"
        }
      ],
      "name": "approvals",
      "outputs": [
        {
          "name": "from",
          "type": "address"
        },
        {
          "name": "to",
          "type": "address"
        },
        {
          "name": "allowance",
          "type": "uint256"
        },
        {
          "name": "expiryTime",
          "type": "uint256"
        },
        {
          "name": "description",
          "type": "bytes32"
        }
      ],
      "payable": false,
      "stateMutability": "view",
      "type": "function"
    },
    {
      "constant": true,
      "inputs": [],
      "name": "polyToken",
      "outputs": [
        {
          "name": "",
          "type": "address"
        }
      ],
      "payable": false,
      "stateMutability": "view",
      "type": "function"
    },
    {
      "constant": false,
      "inputs": [],
      "name": "pause",
      "outputs": [],
      "payable": false,
      "stateMutability": "nonpayable",
      "type": "function"
    },
    {
      "constant": true,
      "inputs": [],
      "name": "TRANSFER_APPROVAL",
      "outputs": [
        {
          "name": "",
          "type": "bytes32"
        }
      ],
      "payable": false,
      "stateMutability": "view",
      "type": "function"
    },
    {
      "constant": true,
      "inputs": [],
      "name": "signingAddress",
      "outputs": [
        {
          "name": "",
          "type": "address"
        }
      ],
      "payable": false,
      "stateMutability": "view",
      "type": "function"
    },
    {
      "constant": true,
      "inputs": [],
      "name": "issuanceAddress",
      "outputs": [
        {
          "name": "",
          "type": "address"
        }
      ],
      "payable": false,
      "stateMutability": "view",
      "type": "function"
    },
    {
      "constant": true,
      "inputs": [],
      "name": "securityToken",
      "outputs": [
        {
          "name": "",
          "type": "address"
        }
      ],
      "payable": false,
      "stateMutability": "view",
      "type": "function"
    },
    {
      "constant": true,
      "inputs": [],
      "name": "factory",
      "outputs": [
        {
          "name": "",
          "type": "address"
        }
      ],
      "payable": false,
      "stateMutability": "view",
      "type": "function"
    },
    {
      "constant": true,
      "inputs": [],
      "name": "FEE_ADMIN",
      "outputs": [
        {
          "name": "",
          "type": "bytes32"
        }
      ],
      "payable": false,
      "stateMutability": "view",
      "type": "function"
    },
    {
      "inputs": [
        {
          "name": "_securityToken",
          "type": "address"
        },
        {
          "name": "_polyAddress",
          "type": "address"
        }
      ],
      "payable": false,
      "stateMutability": "nonpayable",
      "type": "constructor"
    },
    {
      "anonymous": false,
      "inputs": [
        {
          "indexed": true,
          "name": "_from",
          "type": "address"
        },
        {
          "indexed": true,
          "name": "_to",
          "type": "address"
        },
        {
          "indexed": false,
          "name": "_allowance",
          "type": "uint256"
        },
        {
          "indexed": false,
          "name": "_expiryTime",
          "type": "uint256"
        },
        {
          "indexed": false,
          "name": "_description",
          "type": "bytes32"
        },
        {
          "indexed": true,
          "name": "_addedBy",
          "type": "address"
        }
      ],
      "name": "AddManualApproval",
      "type": "event"
    },
    {
      "anonymous": false,
      "inputs": [
        {
          "indexed": true,
          "name": "_from",
          "type": "address"
        },
        {
          "indexed": true,
          "name": "_to",
          "type": "address"
        },
        {
          "indexed": false,
          "name": "_expiryTime",
          "type": "uint256"
        },
        {
          "indexed": false,
          "name": "_allowance",
          "type": "uint256"
        },
        {
          "indexed": false,
          "name": "_description",
          "type": "bytes32"
        },
        {
          "indexed": true,
          "name": "_edittedBy",
          "type": "address"
        }
      ],
      "name": "ModifyManualApproval",
      "type": "event"
    },
    {
      "anonymous": false,
      "inputs": [
        {
          "indexed": true,
          "name": "_from",
          "type": "address"
        },
        {
          "indexed": true,
          "name": "_to",
          "type": "address"
        },
        {
          "indexed": true,
          "name": "_addedBy",
          "type": "address"
        }
      ],
      "name": "RevokeManualApproval",
      "type": "event"
    },
    {
      "anonymous": false,
      "inputs": [
        {
          "indexed": false,
          "name": "_timestammp",
          "type": "uint256"
        }
      ],
      "name": "Pause",
      "type": "event"
    },
    {
      "anonymous": false,
      "inputs": [
        {
          "indexed": false,
          "name": "_timestamp",
          "type": "uint256"
        }
      ],
      "name": "Unpause",
      "type": "event"
    },
    {
      "constant": true,
      "inputs": [],
      "name": "getInitFunction",
      "outputs": [
        {
          "name": "",
          "type": "bytes4"
        }
      ],
      "payable": false,
      "stateMutability": "pure",
      "type": "function"
    },
    {
      "constant": false,
      "inputs": [
        {
          "name": "_from",
          "type": "address"
        },
        {
          "name": "_to",
          "type": "address"
        },
        {
          "name": "_amount",
          "type": "uint256"
        },
        {
          "name": "",
          "type": "bytes"
        },
        {
          "name": "_isTransfer",
          "type": "bool"
        }
      ],
      "name": "verifyTransfer",
      "outputs": [
        {
          "name": "",
          "type": "uint8"
        }
      ],
      "payable": false,
      "stateMutability": "nonpayable",
      "type": "function"
    },
    {
      "constant": false,
      "inputs": [
        {
          "name": "_from",
          "type": "address"
        },
        {
          "name": "_to",
          "type": "address"
        },
        {
          "name": "_allowance",
          "type": "uint256"
        },
        {
          "name": "_expiryTime",
          "type": "uint256"
        },
        {
          "name": "_description",
          "type": "bytes32"
        }
      ],
      "name": "addManualApproval",
      "outputs": [],
      "payable": false,
      "stateMutability": "nonpayable",
      "type": "function"
    },
    {
      "constant": false,
      "inputs": [
        {
          "name": "_from",
          "type": "address[]"
        },
        {
          "name": "_to",
          "type": "address[]"
        },
        {
          "name": "_allowances",
          "type": "uint256[]"
        },
        {
          "name": "_expiryTimes",
          "type": "uint256[]"
        },
        {
          "name": "_descriptions",
          "type": "bytes32[]"
        }
      ],
      "name": "addManualApprovalMulti",
      "outputs": [],
      "payable": false,
      "stateMutability": "nonpayable",
      "type": "function"
    },
    {
      "constant": false,
      "inputs": [
        {
          "name": "_from",
          "type": "address"
        },
        {
          "name": "_to",
          "type": "address"
        },
        {
          "name": "_expiryTime",
          "type": "uint256"
        },
        {
          "name": "_changedAllowance",
          "type": "uint256"
        },
        {
          "name": "_description",
          "type": "bytes32"
        },
        {
          "name": "_change",
          "type": "uint8"
        }
      ],
      "name": "modifyManualApproval",
      "outputs": [],
      "payable": false,
      "stateMutability": "nonpayable",
      "type": "function"
    },
    {
      "constant": false,
      "inputs": [
        {
          "name": "_from",
          "type": "address[]"
        },
        {
          "name": "_to",
          "type": "address[]"
        },
        {
          "name": "_expiryTimes",
          "type": "uint256[]"
        },
        {
          "name": "_changedAllowances",
          "type": "uint256[]"
        },
        {
          "name": "_descriptions",
          "type": "bytes32[]"
        },
        {
          "name": "_changes",
          "type": "uint8[]"
        }
      ],
      "name": "modifyManualApprovalMulti",
      "outputs": [],
      "payable": false,
      "stateMutability": "nonpayable",
      "type": "function"
    },
    {
      "constant": false,
      "inputs": [
        {
          "name": "_from",
          "type": "address"
        },
        {
          "name": "_to",
          "type": "address"
        }
      ],
      "name": "revokeManualApproval",
      "outputs": [],
      "payable": false,
      "stateMutability": "nonpayable",
      "type": "function"
    },
    {
      "constant": false,
      "inputs": [
        {
          "name": "_from",
          "type": "address[]"
        },
        {
          "name": "_to",
          "type": "address[]"
        }
      ],
      "name": "revokeManualApprovalMulti",
      "outputs": [],
      "payable": false,
      "stateMutability": "nonpayable",
      "type": "function"
    },
    {
      "constant": true,
      "inputs": [
        {
          "name": "_user",
          "type": "address"
        }
      ],
      "name": "getActiveApprovalsToUser",
      "outputs": [
        {
          "name": "",
          "type": "uint256[]"
        }
      ],
      "payable": false,
      "stateMutability": "view",
      "type": "function"
    },
    {
      "constant": true,
      "inputs": [
        {
          "name": "_from",
          "type": "address"
        },
        {
          "name": "_to",
          "type": "address"
        }
      ],
      "name": "getApprovalDetails",
      "outputs": [
        {
          "name": "",
          "type": "uint256"
        },
        {
          "name": "",
          "type": "uint256"
        },
        {
          "name": "",
          "type": "bytes32"
        }
      ],
      "payable": false,
      "stateMutability": "view",
      "type": "function"
    },
    {
      "constant": true,
      "inputs": [],
      "name": "getTotalApprovalsLength",
      "outputs": [
        {
          "name": "",
          "type": "uint256"
        }
      ],
      "payable": false,
      "stateMutability": "view",
      "type": "function"
    },
    {
      "constant": true,
      "inputs": [],
      "name": "getPermissions",
      "outputs": [
        {
          "name": "",
          "type": "bytes32[]"
        }
      ],
      "payable": false,
      "stateMutability": "view",
      "type": "function"
    }
  ],
  "bytecode": "0x60806040526002805460a060020a60ff021916905560038054600160a060020a031990811690915560048054909116905534801561003c57600080fd5b50604051604080612aaf83398101604052805160209091015160018054600160a060020a03938416600160a060020a0319918216179091556000805482163317905560028054939092169216919091179055612a128061009d6000396000f30060806040526004361061012f5763ffffffff60e060020a6000350416631613ec9d81146101345780633f4ba83a1461017e5780635677829f146101955780635c975abb146101c55780635e6ebfc5146101ee5780635f7619a41461022757806363035f661461023f5780636faa22a51461028e5780637dc32b0b146102bf5780638456cb59146102e65780639f7cd0ef146102fb578063b2b808d514610310578063b3e82dc914610355578063b3fac8ce1461036a578063b84dfbd21461037f578063c3a07df614610394578063c3a55f3a146103f9578063c45a015514610449578063d5ca1f861461045e578063d70afa96146105d0578063de6ee1bc146105e5578063e0d9d7491461067c578063e3c6a72b1461069d578063e7529d0d146106c9578063e908c047146106de575b600080fd5b34801561014057600080fd5b50610149610714565b604080517fffffffff000000000000000000000000000000000000000000000000000000009092168252519081900360200190f35b34801561018a57600080fd5b5061019361071a565b005b3480156101a157600080fd5b50610193600160a060020a0360043581169060243516604435606435608435610802565b3480156101d157600080fd5b506101da61099f565b604080519115158252519081900360200190f35b3480156101fa57600080fd5b50610215600160a060020a03600435811690602435166109af565b60408051918252519081900360200190f35b34801561023357600080fd5b506101da6004356109cc565b34801561024b57600080fd5b50610257600435610ce8565b60408051600160a060020a039687168152949095166020850152838501929092526060830152608082015290519081900360a00190f35b34801561029a57600080fd5b506102a3610d33565b60408051600160a060020a039092168252519081900360200190f35b3480156102cb57600080fd5b50610193600160a060020a0360043581169060243516610d42565b3480156102f257600080fd5b50610193610ed9565b34801561030757600080fd5b50610215610fbf565b34801561031c57600080fd5b50610337600160a060020a0360043581169060243516610fd1565b60408051938452602084019290925282820152519081900360600190f35b34801561036157600080fd5b506102a361108a565b34801561037657600080fd5b506102a3611099565b34801561038b57600080fd5b506102a36110a8565b3480156103a057600080fd5b506103a96110b7565b60408051602080825283518183015283519192839290830191858101910280838360005b838110156103e55781810151838201526020016103cd565b505050509050019250505060405180910390f35b34801561040557600080fd5b50610193602460048035828101929082013591813580830192908201359160443580830192908201359160643580830192908201359160843591820191013561110c565b34801561045557600080fd5b506102a3611437565b34801561046a57600080fd5b506040805160206004803580820135838102808601850190965280855261019395369593946024949385019291829185019084908082843750506040805187358901803560208181028481018201909552818452989b9a998901989297509082019550935083925085019084908082843750506040805187358901803560208181028481018201909552818452989b9a998901989297509082019550935083925085019084908082843750506040805187358901803560208181028481018201909552818452989b9a998901989297509082019550935083925085019084908082843750506040805187358901803560208181028481018201909552818452989b9a998901989297509082019550935083925085019084908082843750506040805187358901803560208181028481018201909552818452989b9a9989019892975090820195509350839250850190849080828437509497506114469650505050505050565b3480156105dc57600080fd5b506102156116f1565b3480156105f157600080fd5b50604080516020601f60643560048181013592830184900484028501840190955281845261065894600160a060020a038135811695602480359092169560443595369560849401918190840183828082843750949750505050913515159250611715915050565b6040518082600381111561066857fe5b60ff16815260200191505060405180910390f35b34801561068857600080fd5b506103a9600160a060020a036004351661186d565b3480156106a957600080fd5b506101936024600480358281019290820135918135918201910135611a49565b3480156106d557600080fd5b50610215611c82565b3480156106ea57600080fd5b50610193600160a060020a036004358116906024351660443560643560843560ff60a43516611c88565b60005b90565b600160009054906101000a9004600160a060020a0316600160a060020a0316638da5cb5b6040518163ffffffff1660e060020a028152600401602060405180830381600087803b15801561076d57600080fd5b505af1158015610781573d6000803e3d6000fd5b505050506040513d602081101561079757600080fd5b5051600160a060020a031633146107f8576040805160e560020a62461bcd02815260206004820152601360248201527f53656e646572206973206e6f74206f776e657200000000000000000000000000604482015290519081900360640190fd5b610800611e27565b565b6000805160206129a7833981519152600080600160009054906101000a9004600160a060020a0316600160a060020a0316638da5cb5b6040518163ffffffff1660e060020a028152600401602060405180830381600087803b15801561086757600080fd5b505af115801561087b573d6000803e3d6000fd5b505050506040513d602081101561089157600080fd5b505160005433600160a060020a0392831681149450911614905081806108b45750805b8061094457506001546040805160e060020a638658b8b9028152336004820152306024820152604481018690529051600160a060020a0390921691638658b8b9916064808201926020929091908290030181600087803b15801561091757600080fd5b505af115801561092b573d6000803e3d6000fd5b505050506040513d602081101561094157600080fd5b50515b1515610988576040805160e560020a62461bcd02815260206004820152601760248201526000805160206129c7833981519152604482015290519081900360640190fd5b6109958888888888611edd565b5050505050505050565b60025460a060020a900460ff1681565b600560209081526000928352604080842090915290825290205481565b60007f4645455f41444d494e0000000000000000000000000000000000000000000000600080600160009054906101000a9004600160a060020a0316600160a060020a0316638da5cb5b6040518163ffffffff1660e060020a028152600401602060405180830381600087803b158015610a4557600080fd5b505af1158015610a59573d6000803e3d6000fd5b505050506040513d6020811015610a6f57600080fd5b505160005433600160a060020a039283168114945091161490508180610a925750805b80610b2257506001546040805160e060020a638658b8b9028152336004820152306024820152604481018690529051600160a060020a0390921691638658b8b9916064808201926020929091908290030181600087803b158015610af557600080fd5b505af1158015610b09573d6000803e3d6000fd5b505050506040513d6020811015610b1f57600080fd5b50515b1515610b66576040805160e560020a62461bcd02815260206004820152601760248201526000805160206129c7833981519152604482015290519081900360640190fd5b60025460015460008054604080517f8da5cb5b0000000000000000000000000000000000000000000000000000000081529051600160a060020a03958616956323b872dd95811694931692638da5cb5b92600480820193602093909283900390910190829087803b158015610bda57600080fd5b505af1158015610bee573d6000803e3d6000fd5b505050506040513d6020811015610c0457600080fd5b50516040805160e060020a63ffffffff8616028152600160a060020a039384166004820152929091166024830152604482018990525160648083019260209291908290030181600087803b158015610c5b57600080fd5b505af1158015610c6f573d6000803e3d6000fd5b505050506040513d6020811015610c8557600080fd5b50511515610cdd576040805160e560020a62461bcd02815260206004820152601260248201527f556e61626c6520746f2074616b65206665650000000000000000000000000000604482015290519081900360640190fd5b506001949350505050565b6006805482908110610cf657fe5b600091825260209091206005909102018054600182015460028301546003840154600490940154600160a060020a03938416955091909216929085565b600254600160a060020a031681565b6000805160206129a7833981519152600080600160009054906101000a9004600160a060020a0316600160a060020a0316638da5cb5b6040518163ffffffff1660e060020a028152600401602060405180830381600087803b158015610da757600080fd5b505af1158015610dbb573d6000803e3d6000fd5b505050506040513d6020811015610dd157600080fd5b505160005433600160a060020a039283168114945091161490508180610df45750805b80610e8457506001546040805160e060020a638658b8b9028152336004820152306024820152604481018690529051600160a060020a0390921691638658b8b9916064808201926020929091908290030181600087803b158015610e5757600080fd5b505af1158015610e6b573d6000803e3d6000fd5b505050506040513d6020811015610e8157600080fd5b50515b1515610ec8576040805160e560020a62461bcd02815260206004820152601760248201526000805160206129c7833981519152604482015290519081900360640190fd5b610ed2858561228d565b5050505050565b600160009054906101000a9004600160a060020a0316600160a060020a0316638da5cb5b6040518163ffffffff1660e060020a028152600401602060405180830381600087803b158015610f2c57600080fd5b505af1158015610f40573d6000803e3d6000fd5b505050506040513d6020811015610f5657600080fd5b5051600160a060020a03163314610fb7576040805160e560020a62461bcd02815260206004820152601360248201527f53656e646572206973206e6f74206f776e657200000000000000000000000000604482015290519081900360640190fd5b6108006124de565b6000805160206129a783398151915281565b600160a060020a03808316600090815260056020908152604080832093851683529290529081205481908190819081901561107657600160a060020a038088166000908152600560209081526040808320938a1683529290522054600654600019909101925082101561107657600680548390811061104c57fe5b90600052602060002090600502019050806003015481600201548260040154945094509450611081565b600094508493508392505b50509250925092565b600454600160a060020a031681565b600354600160a060020a031681565b600154600160a060020a031681565b604080516001808252818301909252606091829190602080830190803883390190505090506000805160206129a78339815191528160008151811015156110fa57fe5b602090810290910101529050805b5090565b60006000805160206129a7833981519152600080600160009054906101000a9004600160a060020a0316600160a060020a0316638da5cb5b6040518163ffffffff1660e060020a028152600401602060405180830381600087803b15801561117357600080fd5b505af1158015611187573d6000803e3d6000fd5b505050506040513d602081101561119d57600080fd5b505160005433600160a060020a0392831681149450911614905081806111c05750805b8061125057506001546040805160e060020a638658b8b9028152336004820152306024820152604481018690529051600160a060020a0390921691638658b8b9916064808201926020929091908290030181600087803b15801561122357600080fd5b505af1158015611237573d6000803e3d6000fd5b505050506040513d602081101561124d57600080fd5b50515b1515611294576040805160e560020a62461bcd02815260206004820152601760248201526000805160206129c7833981519152604482015290519081900360640190fd5b61138a8e8e808060200260200160405190810160405280939291908181526020018383602002808284378201915050505050508d8d808060200260200160405190810160405280939291908181526020018383602002808284378201915050505050508c8c808060200260200160405190810160405280939291908181526020018383602002808284378201915050505050508b8b808060200260200160405190810160405280939291908181526020018383602002808284378201915050505050508a8a8080602002602001604051908101604052809392919081815260200183836020028082843750612599945050505050565b600093505b8c8410156114275761141c8e8e868181106113a657fe5b90506020020135600160a060020a03168d8d8781811015156113c457fe5b90506020020135600160a060020a03168c8c8881811015156113e257fe5b905060200201358b8b8981811015156113f757fe5b905060200201358a8a8a818110151561140c57fe5b9050602002013560001916611edd565b60019093019261138f565b5050505050505050505050505050565b600054600160a060020a031681565b60006000805160206129a7833981519152600080600160009054906101000a9004600160a060020a0316600160a060020a0316638da5cb5b6040518163ffffffff1660e060020a028152600401602060405180830381600087803b1580156114ad57600080fd5b505af11580156114c1573d6000803e3d6000fd5b505050506040513d60208110156114d757600080fd5b505160005433600160a060020a0392831681149450911614905081806114fa5750805b8061158a57506001546040805160e060020a638658b8b9028152336004820152306024820152604481018690529051600160a060020a0390921691638658b8b9916064808201926020929091908290030181600087803b15801561155d57600080fd5b505af1158015611571573d6000803e3d6000fd5b505050506040513d602081101561158757600080fd5b50515b15156115ce576040805160e560020a62461bcd02815260206004820152601760248201526000805160206129c7833981519152604482015290519081900360640190fd5b6115db8a8a898b8a612599565b8651855114611634576040805160e560020a62461bcd02815260206004820152601b60248201527f496e707574206c656e677468206172726179206d69736d617463680000000000604482015290519081900360640190fd5b600093505b89518410156116e5576116da8a8581518110151561165357fe5b906020019060200201518a8681518110151561166b57fe5b906020019060200201518a8781518110151561168357fe5b906020019060200201518a8881518110151561169b57fe5b906020019060200201518a898151811015156116b357fe5b906020019060200201518a8a8151811015156116cb57fe5b9060200190602002015161261b565b600190930192611639565b50505050505050505050565b7f4645455f41444d494e000000000000000000000000000000000000000000000081565b600080808315806117305750600154600160a060020a031633145b1515611786576040805160e560020a62461bcd02815260206004820152601760248201527f53656e646572206973206e6f7420746865206f776e6572000000000000000000604482015290519081900360640190fd5b60025460a060020a900460ff161580156117c45750600160a060020a038089166000908152600560209081526040808320938b168352929052205415155b1561185d57600160a060020a038089166000908152600560209081526040808320938b1683529290522054600680546000199092019350908390811061180657fe5b906000526020600020906005020190504281600301541015801561182e575085816002015410155b1561185d57831561185457600281015461184e908763ffffffff6128fd16565b60028201555b60029250611862565b600192505b505095945050505050565b6060600080825b6006548210156119335784600160a060020a031660068381548110151561189757fe5b6000918252602090912060059091020154600160a060020a031614806118f0575084600160a060020a03166006838154811015156118d157fe5b6000918252602090912060016005909202010154600160a060020a0316145b801561191c57504260068381548110151561190757fe5b90600052602060002090600502016003015410155b15611928576001909201915b600190910190611874565b8260405190808252806020026020018201604052801561195d578160200160208202803883390190505b50905060009250600091505b600654821015611a415784600160a060020a031660068381548110151561198c57fe5b6000918252602090912060059091020154600160a060020a031614806119e5575084600160a060020a03166006838154811015156119c657fe5b6000918252602090912060016005909202010154600160a060020a0316145b8015611a115750426006838154811015156119fc57fe5b90600052602060002090600502016003015410155b15611a3657818184815181101515611a2557fe5b602090810290910101526001909201915b600190910190611969565b949350505050565b60006000805160206129a7833981519152600080600160009054906101000a9004600160a060020a0316600160a060020a0316638da5cb5b6040518163ffffffff1660e060020a028152600401602060405180830381600087803b158015611ab057600080fd5b505af1158015611ac4573d6000803e3d6000fd5b505050506040513d6020811015611ada57600080fd5b505160005433600160a060020a039283168114945091161490508180611afd5750805b80611b8d57506001546040805160e060020a638658b8b9028152336004820152306024820152604481018690529051600160a060020a0390921691638658b8b9916064808201926020929091908290030181600087803b158015611b6057600080fd5b505af1158015611b74573d6000803e3d6000fd5b505050506040513d6020811015611b8a57600080fd5b50515b1515611bd1576040805160e560020a62461bcd02815260206004820152601760248201526000805160206129c7833981519152604482015290519081900360640190fd5b868514611c28576040805160e560020a62461bcd02815260206004820152601b60248201527f496e707574206172726179206c656e677468206d69736d617463680000000000604482015290519081900360640190fd5b600093505b8684101561099557611c77888886818110611c4457fe5b90506020020135600160a060020a03168787878181101515611c6257fe5b90506020020135600160a060020a031661228d565b600190930192611c2d565b60065490565b6000805160206129a7833981519152600080600160009054906101000a9004600160a060020a0316600160a060020a0316638da5cb5b6040518163ffffffff1660e060020a028152600401602060405180830381600087803b158015611ced57600080fd5b505af1158015611d01573d6000803e3d6000fd5b505050506040513d6020811015611d1757600080fd5b505160005433600160a060020a039283168114945091161490508180611d3a5750805b80611dca57506001546040805160e060020a638658b8b9028152336004820152306024820152604481018690529051600160a060020a0390921691638658b8b9916064808201926020929091908290030181600087803b158015611d9d57600080fd5b505af1158015611db1573d6000803e3d6000fd5b505050506040513d6020811015611dc757600080fd5b50515b1515611e0e576040805160e560020a62461bcd02815260206004820152601760248201526000805160206129c7833981519152604482015290519081900360640190fd5b611e1c89898989898961261b565b505050505050505050565b60025460a060020a900460ff161515611e8a576040805160e560020a62461bcd02815260206004820152601660248201527f436f6e7472616374206973206e6f742070617573656400000000000000000000604482015290519081900360640190fd5b6002805474ff0000000000000000000000000000000000000000191690556040805142815290517faaa520fdd7d2c83061d632fa017b0432407e798818af63ea908589fceda39ab79181900360200190a1565b6000600160a060020a0385161515611f3f576040805160e560020a62461bcd02815260206004820152601260248201527f496e76616c696420746f20616464726573730000000000000000000000000000604482015290519081900360640190fd5b428311611f96576040805160e560020a62461bcd02815260206004820152601360248201527f496e76616c6964206578706972792074696d6500000000000000000000000000604482015290519081900360640190fd5b60008411611fee576040805160e560020a62461bcd02815260206004820152601160248201527f496e76616c696420616c6c6f77616e6365000000000000000000000000000000604482015290519081900360640190fd5b600160a060020a03808716600090815260056020908152604080832093891683529290522054156120f55750600160a060020a0380861660009081526005602090815260408083209388168352929052205460068054600019909201914291908390811061205857fe5b90600052602060002090600502016003015410806120955750600680548290811061207f57fe5b9060005260206000209060050201600201546000145b15156120eb576040805160e560020a62461bcd02815260206004820152601760248201527f417070726f76616c20616c726561647920657869737473000000000000000000604482015290519081900360640190fd5b6120f5868661228d565b6040805160a081018252600160a060020a0380891680835288821660208085018281528587018b815260608088018c8152608089018c81526006805460018101825560008281529b5160059182027ff652222313e28459528d920b65115c16c04f3efc82aaedc97be59f3f377c0d3f81018054928e1673ffffffffffffffffffffffffffffffffffffffff1993841617905597517ff652222313e28459528d920b65115c16c04f3efc82aaedc97be59f3f377c0d408901805491909d16911617909a5593517ff652222313e28459528d920b65115c16c04f3efc82aaedc97be59f3f377c0d4186015590517ff652222313e28459528d920b65115c16c04f3efc82aaedc97be59f3f377c0d42850155517ff652222313e28459528d920b65115c16c04f3efc82aaedc97be59f3f377c0d439093019290925554848752948252868620838752825294869020939093558451898152928301889052828501879052935133949391927f694086b7577eae5577f90c1aa90ff38280eacd0709a8c7be707a219e92a150c992908290030190a4505050505050565b600160a060020a038083166000908152600560209081526040808320938516835292905290812054151561230b576040805160e560020a62461bcd02815260206004820152601260248201527f417070726f76616c206e6f742065786973740000000000000000000000000000604482015290519081900360640190fd5b50600160a060020a03808316600090815260056020908152604080832093851683529290522054600654600019918201910181146124625760068054600019810190811061235557fe5b906000526020600020906005020160068281548110151561237257fe5b60009182526020822083546005928302909101805473ffffffffffffffffffffffffffffffffffffffff19908116600160a060020a039384161782556001808701548184018054909316941693909317905560028086015490820155600380860154908201556004948501549401939093556006805493850193919291859081106123f957fe5b60009182526020808320600590920290910154600160a060020a031683528201929092526040018120600680549192918590811061243357fe5b6000918252602080832060016005909302019190910154600160a060020a031683528201929092526040019020555b600160a060020a038084166000908152600560209081526040808320938616835292905290812055600680549061249d906000198301612922565b506040513390600160a060020a0384811691908616907fbe7baba984867cb2bb52a4035357b30f05c7e480fc9daf78a7b718ae6ee4a4fe90600090a4505050565b60025460a060020a900460ff1615612540576040805160e560020a62461bcd02815260206004820152601260248201527f436f6e7472616374206973207061757365640000000000000000000000000000604482015290519081900360640190fd5b6002805474ff0000000000000000000000000000000000000000191660a060020a1790556040805142815290517f68b095021b1f40fe513109f513c66692f0b3219aee674a69f4efc57badb8201d9181900360200190a1565b835185511480156125ab575081518451145b80156125b8575082518251145b80156125c5575080518351145b1515610ed2576040805160e560020a62461bcd02815260206004820152601b60248201527f496e707574206172726179206c656e677468206d69736d617463680000000000604482015290519081900360640190fd5b6000808080600160a060020a0389161515612680576040805160e560020a62461bcd02815260206004820152601260248201527f496e76616c696420746f20616464726573730000000000000000000000000000604482015290519081900360640190fd5b4288116126d7576040805160e560020a62461bcd02815260206004820152601360248201527f496e76616c6964206578706972792074696d6500000000000000000000000000604482015290519081900360640190fd5b600160a060020a03808b166000908152600560209081526040808320938d16835292905220541515612753576040805160e560020a62461bcd02815260206004820152601460248201527f417070726f76616c206e6f742070726573656e74000000000000000000000000604482015290519081900360640190fd5b600160a060020a03808b166000908152600560209081526040808320938d1683529290522054600680546000199092019550908590811061279057fe5b9060005260206000209060050201925082600201546000141580156127b85750428360030154115b151561280e576040805160e560020a62461bcd02815260206004820152600b60248201527f4e6f7420616c6c6f776564000000000000000000000000000000000000000000604482015290519081900360640190fd5b826002015491508460ff166001141561283f57612831828863ffffffff61290f16565b600284018190559050612878565b60ff8516151561287557818711156128605750600060028301819055612870565b612831828863ffffffff6128fd16565b612878565b50805b6003830154881461288b57600383018890555b6004830154861461289e57600483018690555b604080518981526020810183905280820188905290513391600160a060020a038c811692908e16917f0f3f478ce6278e66ad974b3190c8cb89c93292c1620c40408fee8b64c09ac52e919081900360600190a450505050505050505050565b60008282111561290957fe5b50900390565b8181018281101561291c57fe5b92915050565b81548183558181111561294e5760050281600502836000526020600020918201910161294e9190612953565b505050565b61071791905b8082111561110857805473ffffffffffffffffffffffffffffffffffffffff199081168255600182018054909116905560006002820181905560038201819055600482015560050161295956005452414e534645525f415050524f56414c0000000000000000000000000000005065726d697373696f6e20636865636b206661696c6564000000000000000000a165627a7a72305820a33fead16ca900f47da5712544fa001ed9d2e17904b94bfeffad76d4ed94ef850029",
  "source": "pragma solidity ^0.4.24;\n\nimport \"./ITransferManager.sol\";\nimport \"openzeppelin-solidity/contracts/math/SafeMath.sol\";\n\n/**\n * @title Transfer Manager module for manually approving transactions between accounts\n */\ncontract ManualApprovalTransferManager is ITransferManager {\n    using SafeMath for uint256;\n\n    //Address from which issuances come\n    address public issuanceAddress = address(0);\n\n    //Address which can sign whitelist changes\n    address public signingAddress = address(0);\n\n    bytes32 public constant TRANSFER_APPROVAL = \"TRANSFER_APPROVAL\";\n\n    //Manual approval is an allowance (that has been approved) with an expiry time\n    struct ManualApproval {\n        address from;\n        address to;\n        uint256 allowance;\n        uint256 expiryTime;\n        bytes32 description;\n    }\n\n    mapping (address => mapping (address => uint256)) public approvalIndex;\n    // An array to track all approvals\n    ManualApproval[] public approvals;\n\n    event AddManualApproval(\n        address indexed _from,\n        address indexed _to,\n        uint256 _allowance,\n        uint256 _expiryTime,\n        bytes32 _description,\n        address indexed _addedBy\n    );\n\n    event ModifyManualApproval(\n        address indexed _from,\n        address indexed _to,\n        uint256 _expiryTime,\n        uint256 _allowance,\n        bytes32 _description,\n        address indexed _edittedBy\n    );\n\n    event RevokeManualApproval(\n        address indexed _from,\n        address indexed _to,\n        address indexed _addedBy\n    );\n\n    /**\n     * @notice Constructor\n     * @param _securityToken Address of the security token\n     * @param _polyAddress Address of the polytoken\n     */\n    constructor (address _securityToken, address _polyAddress)\n    public\n    Module(_securityToken, _polyAddress)\n    {\n    }\n\n    /**\n     * @notice This function returns the signature of configure function\n     */\n    function getInitFunction() public pure returns (bytes4) {\n        return bytes4(0);\n    }\n\n    /** \n     * @notice Used to verify the transfer transaction and allow a manually approved transqaction to bypass other restrictions\n     * @param _from Address of the sender\n     * @param _to Address of the receiver\n     * @param _amount The amount of tokens to transfer\n     * @param _isTransfer Whether or not this is an actual transfer or just a test to see if the tokens would be transferrable\n     */\n    function verifyTransfer(address _from, address _to, uint256 _amount, bytes /* _data */, bool _isTransfer) public returns(Result) {\n        // function must only be called by the associated security token if _isTransfer == true\n        require(_isTransfer == false || msg.sender == securityToken, \"Sender is not the owner\");\n       \n        if (!paused && approvalIndex[_from][_to] != 0) {\n            uint256 index = approvalIndex[_from][_to] - 1;\n            ManualApproval storage approval = approvals[index];\n            if ((approval.expiryTime >= now) && (approval.allowance >= _amount)) {\n                if (_isTransfer) {\n                    approval.allowance = approval.allowance.sub(_amount);\n                }\n                return Result.VALID;\n            }\n        }\n        return Result.NA;\n    }\n\n    /**\n    * @notice Adds a pair of addresses to manual approvals\n    * @param _from is the address from which transfers are approved\n    * @param _to is the address to which transfers are approved\n    * @param _allowance is the approved amount of tokens\n    * @param _expiryTime is the time until which the transfer is allowed\n    * @param _description Description about the manual approval\n    */\n    function addManualApproval(\n        address _from,\n        address _to,\n        uint256 _allowance,\n        uint256 _expiryTime,\n        bytes32 _description\n    ) \n        external \n        withPerm(TRANSFER_APPROVAL)\n    {\n        _addManualApproval(_from, _to, _allowance, _expiryTime, _description);\n    }\n\n    function _addManualApproval(address _from, address _to, uint256 _allowance, uint256 _expiryTime, bytes32 _description) internal {\n        require(_to != address(0), \"Invalid to address\");\n        require(_expiryTime > now, \"Invalid expiry time\");\n        require(_allowance > 0, \"Invalid allowance\");\n        if (approvalIndex[_from][_to] != 0) {\n            uint256 index = approvalIndex[_from][_to] - 1;\n            require(approvals[index].expiryTime < now || approvals[index].allowance == 0, \"Approval already exists\");\n            _revokeManualApproval(_from, _to);\n        }\n        approvals.push(ManualApproval(_from, _to, _allowance, _expiryTime, _description));\n        approvalIndex[_from][_to] = approvals.length;\n        emit AddManualApproval(_from, _to, _allowance, _expiryTime, _description, msg.sender);\n    }\n\n    /**\n    * @notice Adds mutiple manual approvals in batch\n    * @param _from is the address array from which transfers are approved\n    * @param _to is the address array to which transfers are approved\n    * @param _allowances is the array of approved amounts \n    * @param _expiryTimes is the array of the times until which eath transfer is allowed\n    * @param _descriptions is the description array for these manual approvals\n    */\n    function addManualApprovalMulti(\n        address[] _from,\n        address[] _to,\n        uint256[] _allowances,\n        uint256[] _expiryTimes,\n        bytes32[] _descriptions\n    ) \n        external \n        withPerm(TRANSFER_APPROVAL)\n    {\n        _checkInputLengthArray(_from, _to, _allowances, _expiryTimes, _descriptions);\n        for (uint256 i = 0; i < _from.length; i++){\n            _addManualApproval(_from[i], _to[i], _allowances[i], _expiryTimes[i], _descriptions[i]);\n        }\n    }\n\n    /**\n    * @notice Modify the existing manual approvals\n    * @param _from is the address from which transfers are approved\n    * @param _to is the address to which transfers are approved\n    * @param _expiryTime is the time until which the transfer is allowed\n    * @param _changedAllowance is the changed allowance\n    * @param _description Description about the manual approval\n    * @param _change uint values which tells whether the allowances will be increased (1) or decreased (0)\n    * or any value when there is no change in allowances\n    */\n    function modifyManualApproval(\n        address _from,\n        address _to,\n        uint256 _expiryTime,\n        uint256 _changedAllowance,\n        bytes32 _description,\n        uint8 _change\n    ) \n        external\n        withPerm(TRANSFER_APPROVAL)\n    {\n        _modifyManualApproval(_from, _to, _expiryTime, _changedAllowance, _description, _change);\n    }\n\n    function _modifyManualApproval(\n        address _from,\n        address _to,\n        uint256 _expiryTime,\n        uint256 _changedAllowance,\n        bytes32 _description,\n        uint8 _change\n    ) \n        internal \n    {\n        require(_to != address(0), \"Invalid to address\");\n        /*solium-disable-next-line security/no-block-members*/\n        require(_expiryTime > now, \"Invalid expiry time\");\n        require(approvalIndex[_from][_to] != 0, \"Approval not present\");\n        uint256 index = approvalIndex[_from][_to] - 1;\n        ManualApproval storage approval = approvals[index];\n        require(approval.allowance != 0 && approval.expiryTime > now, \"Not allowed\");\n        uint256 currentAllowance = approval.allowance;\n        uint256 newAllowance;\n        if (_change == 1) {\n            // Allowance get increased\n            newAllowance = currentAllowance.add(_changedAllowance);\n            approval.allowance = newAllowance;\n        } else if (_change == 0) {\n            // Allowance get decreased\n            if (_changedAllowance > currentAllowance) {\n                newAllowance = 0;\n                approval.allowance = newAllowance;\n            } else {\n                newAllowance = currentAllowance.sub(_changedAllowance);\n                approval.allowance = newAllowance;\n            }\n        } else {\n            // No change in the Allowance\n            newAllowance = currentAllowance;\n        }\n        // Greedy storage technique\n        if (approval.expiryTime != _expiryTime) {\n            approval.expiryTime = _expiryTime;\n        }\n        if (approval.description != _description) {\n            approval.description = _description;\n        }\n        emit ModifyManualApproval(_from, _to, _expiryTime, newAllowance, _description, msg.sender);\n    }\n\n    /**\n     * @notice Adds mutiple manual approvals in batch\n     * @param _from is the address array from which transfers are approved\n     * @param _to is the address array to which transfers are approved\n     * @param _expiryTimes is the array of the times until which eath transfer is allowed\n     * @param _changedAllowances is the array of approved amounts \n     * @param _descriptions is the description array for these manual approvals\n     * @param _changes Array of uint values which tells whether the allowances will be increased (1) or decreased (0)\n     * or any value when there is no change in allowances\n     */\n    function modifyManualApprovalMulti(\n        address[] _from,\n        address[] _to,\n        uint256[] _expiryTimes,\n        uint256[] _changedAllowances,\n        bytes32[] _descriptions,\n        uint8[] _changes\n    )\n        public\n        withPerm(TRANSFER_APPROVAL)\n    {\n        _checkInputLengthArray(_from, _to, _changedAllowances, _expiryTimes, _descriptions);\n        require(_changes.length == _changedAllowances.length, \"Input length array mismatch\");\n        for (uint256 i = 0; i < _from.length; i++) {\n            _modifyManualApproval(_from[i], _to[i], _expiryTimes[i], _changedAllowances[i], _descriptions[i], _changes[i]);\n        }\n    }\n\n    /**\n    * @notice Removes a pairs of addresses from manual approvals\n    * @param _from is the address from which transfers are approved\n    * @param _to is the address to which transfers are approved\n    */\n    function revokeManualApproval(address _from, address _to) external withPerm(TRANSFER_APPROVAL) {\n        _revokeManualApproval(_from, _to);\n    }\n\n    function _revokeManualApproval(address _from, address _to) internal {\n        require(approvalIndex[_from][_to] != 0, \"Approval not exist\"); \n\n        // find the record in active approvals array & delete it\n        uint256 index = approvalIndex[_from][_to] - 1;\n        if (index != approvals.length -1) {\n            approvals[index] = approvals[approvals.length -1];\n            approvalIndex[approvals[index].from][approvals[index].to] = index + 1; \n        }\n        delete approvalIndex[_from][_to];\n        approvals.length--;\n        emit RevokeManualApproval(_from, _to, msg.sender);\n    }\n\n    /**\n    * @notice Removes mutiple pairs of addresses from manual approvals\n    * @param _from is the address array from which transfers are approved\n    * @param _to is the address array to which transfers are approved\n    */\n    function revokeManualApprovalMulti(address[] _from, address[] _to) external withPerm(TRANSFER_APPROVAL) {\n        require(_from.length == _to.length, \"Input array length mismatch\");\n        for(uint256 i = 0; i < _from.length; i++){\n            _revokeManualApproval(_from[i], _to[i]);\n        }\n    }\n\n    function _checkInputLengthArray(\n        address[] _from,\n        address[] _to,\n        uint256[] _expiryTimes,\n        uint256[] _allowances,\n        bytes32[] _descriptions\n    ) \n        internal\n        pure \n    {\n        require(_from.length == _to.length &&\n        _to.length == _allowances.length &&\n        _allowances.length == _expiryTimes.length &&\n        _expiryTimes.length == _descriptions.length,\n        \"Input array length mismatch\"\n        );\n    }\n\n    /**\n     * @notice Returns the all active approvals corresponds to an address\n     * @param _user Address of the holder corresponds to whom list of manual approvals \n     * need to return\n     * @return List of indexes\n     */\n    function getActiveApprovalsToUser(address _user) external view returns(uint256[]) {\n        uint256 counter = 0;\n        for (uint256 i = 0; i < approvals.length; i++) {\n            if ((approvals[i].from == _user || approvals[i].to == _user)\n                && approvals[i].expiryTime >= now)\n                counter ++;\n        }\n        uint256[] memory indexes = new uint256[](counter);\n        counter = 0;\n        for (i = 0; i < approvals.length; i++) {\n            if ((approvals[i].from == _user || approvals[i].to == _user)\n                && approvals[i].expiryTime >= now) {\n                indexes[counter] = i;\n                counter ++;\n            } \n        }\n        return indexes;\n    }\n\n    /**\n     * @notice Get the details of the approval corresponds to _from & _to addresses\n     * @param _from Address of the sender\n     * @param _to Address of the receiver\n     * @return uint256 expiryTime of the approval\n     * @return uint256 allowance provided to the approval\n     * @return uint256 Description provided to the approval\n     */\n    function getApprovalDetails(address _from, address _to) external view returns(uint256, uint256, bytes32) {\n        if (approvalIndex[_from][_to] != 0) {\n            uint256 index = approvalIndex[_from][_to] - 1;\n            if (index < approvals.length) {\n                ManualApproval storage approval = approvals[index];\n                return(\n                    approval.expiryTime,\n                    approval.allowance,\n                    approval.description\n                );\n            }\n        }\n        return (uint256(0), uint256(0), bytes32(0));\n    }\n\n    /**\n    * @notice Returns the current number of active approvals\n    */\n    function getTotalApprovalsLength() external view returns(uint256) {\n        return approvals.length;\n    }\n\n    /**\n     * @notice Returns the permissions flag that are associated with ManualApproval transfer manager\n     */\n    function getPermissions() public view returns(bytes32[]) {\n        bytes32[] memory allPermissions = new bytes32[](1);\n        allPermissions[0] = TRANSFER_APPROVAL;\n        return allPermissions;\n    }\n}\n",
  "sourcePath": "/Users/polymath/polymath-core/contracts/modules/TransferManager/ManualApprovalTransferManager.sol",
  "compiler": {
    "name": "solc",
    "version": "0.4.24+commit.e67f0147.Emscripten.clang"
  },
  "schemaVersion": "2.0.1",
  "updatedAt": "2018-12-12T11:17:41.720Z"
}