{
  "contractName": "ModuleRegistry",
  "abi": [
    {
      "constant": true,
      "inputs": [
        {
          "name": "_variable",
          "type": "bytes32"
        }
      ],
      "name": "getBoolValues",
      "outputs": [
        {
          "name": "",
          "type": "bool"
        }
      ],
      "payable": false,
      "stateMutability": "view",
      "type": "function"
    },
    {
      "constant": true,
      "inputs": [
        {
          "name": "_variable",
          "type": "bytes32"
        }
      ],
      "name": "getUintValues",
      "outputs": [
        {
          "name": "",
          "type": "uint256"
        }
      ],
      "payable": false,
      "stateMutability": "view",
      "type": "function"
    },
    {
      "constant": true,
      "inputs": [
        {
          "name": "_variable",
          "type": "bytes32"
        }
      ],
      "name": "getStringValues",
      "outputs": [
        {
          "name": "",
          "type": "string"
        }
      ],
      "payable": false,
      "stateMutability": "view",
      "type": "function"
    },
    {
      "constant": true,
      "inputs": [
        {
          "name": "_variable",
          "type": "bytes32"
        }
      ],
      "name": "getBytes32Values",
      "outputs": [
        {
          "name": "",
          "type": "bytes32"
        }
      ],
      "payable": false,
      "stateMutability": "view",
      "type": "function"
    },
    {
      "constant": true,
      "inputs": [
        {
          "name": "_variable",
          "type": "bytes32"
        }
      ],
      "name": "getAddressValues",
      "outputs": [
        {
          "name": "",
          "type": "address"
        }
      ],
      "payable": false,
      "stateMutability": "view",
      "type": "function"
    },
    {
      "constant": true,
      "inputs": [
        {
          "name": "_variable",
          "type": "bytes32"
        }
      ],
      "name": "getBytesValues",
      "outputs": [
        {
          "name": "",
          "type": "bytes"
        }
      ],
      "payable": false,
      "stateMutability": "view",
      "type": "function"
    },
    {
      "inputs": [],
      "payable": false,
      "stateMutability": "nonpayable",
      "type": "constructor"
    },
    {
      "anonymous": false,
      "inputs": [
        {
          "indexed": false,
          "name": "_timestammp",
          "type": "uint256"
        }
      ],
      "name": "Pause",
      "type": "event"
    },
    {
      "anonymous": false,
      "inputs": [
        {
          "indexed": false,
          "name": "_timestamp",
          "type": "uint256"
        }
      ],
      "name": "Unpause",
      "type": "event"
    },
    {
      "anonymous": false,
      "inputs": [
        {
          "indexed": true,
          "name": "_moduleFactory",
          "type": "address"
        },
        {
          "indexed": true,
          "name": "_securityToken",
          "type": "address"
        }
      ],
      "name": "ModuleUsed",
      "type": "event"
    },
    {
      "anonymous": false,
      "inputs": [
        {
          "indexed": true,
          "name": "_moduleFactory",
          "type": "address"
        },
        {
          "indexed": true,
          "name": "_owner",
          "type": "address"
        }
      ],
      "name": "ModuleRegistered",
      "type": "event"
    },
    {
      "anonymous": false,
      "inputs": [
        {
          "indexed": true,
          "name": "_moduleFactory",
          "type": "address"
        },
        {
          "indexed": false,
          "name": "_verified",
          "type": "bool"
        }
      ],
      "name": "ModuleVerified",
      "type": "event"
    },
    {
      "anonymous": false,
      "inputs": [
        {
          "indexed": true,
          "name": "_moduleFactory",
          "type": "address"
        },
        {
          "indexed": true,
          "name": "_decisionMaker",
          "type": "address"
        }
      ],
      "name": "ModuleRemoved",
      "type": "event"
    },
    {
      "anonymous": false,
      "inputs": [
        {
          "indexed": true,
          "name": "previousOwner",
          "type": "address"
        },
        {
          "indexed": true,
          "name": "newOwner",
          "type": "address"
        }
      ],
      "name": "OwnershipTransferred",
      "type": "event"
    },
    {
      "constant": false,
      "inputs": [
        {
          "name": "_polymathRegistry",
          "type": "address"
        },
        {
          "name": "_owner",
          "type": "address"
        }
      ],
      "name": "initialize",
      "outputs": [],
      "payable": true,
      "stateMutability": "payable",
      "type": "function"
    },
    {
      "constant": false,
      "inputs": [
        {
          "name": "_moduleFactory",
          "type": "address"
        }
      ],
      "name": "useModule",
      "outputs": [],
      "payable": false,
      "stateMutability": "nonpayable",
      "type": "function"
    },
    {
      "constant": false,
      "inputs": [
        {
          "name": "_moduleFactory",
          "type": "address"
        }
      ],
      "name": "registerModule",
      "outputs": [],
      "payable": false,
      "stateMutability": "nonpayable",
      "type": "function"
    },
    {
      "constant": false,
      "inputs": [
        {
          "name": "_moduleFactory",
          "type": "address"
        }
      ],
      "name": "removeModule",
      "outputs": [],
      "payable": false,
      "stateMutability": "nonpayable",
      "type": "function"
    },
    {
      "constant": false,
      "inputs": [
        {
          "name": "_moduleFactory",
          "type": "address"
        },
        {
          "name": "_verified",
          "type": "bool"
        }
      ],
      "name": "verifyModule",
      "outputs": [],
      "payable": false,
      "stateMutability": "nonpayable",
      "type": "function"
    },
    {
      "constant": true,
      "inputs": [
        {
          "name": "_moduleType",
          "type": "uint8"
        },
        {
          "name": "_securityToken",
          "type": "address"
        }
      ],
      "name": "getTagsByTypeAndToken",
      "outputs": [
        {
          "name": "",
          "type": "bytes32[]"
        },
        {
          "name": "",
          "type": "address[]"
        }
      ],
      "payable": false,
      "stateMutability": "view",
      "type": "function"
    },
    {
      "constant": true,
      "inputs": [
        {
          "name": "_moduleType",
          "type": "uint8"
        }
      ],
      "name": "getTagsByType",
      "outputs": [
        {
          "name": "",
          "type": "bytes32[]"
        },
        {
          "name": "",
          "type": "address[]"
        }
      ],
      "payable": false,
      "stateMutability": "view",
      "type": "function"
    },
    {
      "constant": true,
      "inputs": [
        {
          "name": "_factoryAddress",
          "type": "address"
        }
      ],
      "name": "getReputationByFactory",
      "outputs": [
        {
          "name": "",
          "type": "address[]"
        }
      ],
      "payable": false,
      "stateMutability": "view",
      "type": "function"
    },
    {
      "constant": true,
      "inputs": [
        {
          "name": "_moduleType",
          "type": "uint8"
        }
      ],
      "name": "getModulesByType",
      "outputs": [
        {
          "name": "",
          "type": "address[]"
        }
      ],
      "payable": false,
      "stateMutability": "view",
      "type": "function"
    },
    {
      "constant": true,
      "inputs": [
        {
          "name": "_moduleType",
          "type": "uint8"
        },
        {
          "name": "_securityToken",
          "type": "address"
        }
      ],
      "name": "getModulesByTypeAndToken",
      "outputs": [
        {
          "name": "",
          "type": "address[]"
        }
      ],
      "payable": false,
      "stateMutability": "view",
      "type": "function"
    },
    {
      "constant": false,
      "inputs": [
        {
          "name": "_tokenContract",
          "type": "address"
        }
      ],
      "name": "reclaimERC20",
      "outputs": [],
      "payable": false,
      "stateMutability": "nonpayable",
      "type": "function"
    },
    {
      "constant": false,
      "inputs": [],
      "name": "pause",
      "outputs": [],
      "payable": false,
      "stateMutability": "nonpayable",
      "type": "function"
    },
    {
      "constant": false,
      "inputs": [],
      "name": "unpause",
      "outputs": [],
      "payable": false,
      "stateMutability": "nonpayable",
      "type": "function"
    },
    {
      "constant": false,
      "inputs": [],
      "name": "updateFromRegistry",
      "outputs": [],
      "payable": false,
      "stateMutability": "nonpayable",
      "type": "function"
    },
    {
      "constant": false,
      "inputs": [
        {
          "name": "_newOwner",
          "type": "address"
        }
      ],
      "name": "transferOwnership",
      "outputs": [],
      "payable": false,
      "stateMutability": "nonpayable",
      "type": "function"
    },
    {
      "constant": true,
      "inputs": [],
      "name": "owner",
      "outputs": [
        {
          "name": "",
          "type": "address"
        }
      ],
      "payable": false,
      "stateMutability": "view",
      "type": "function"
    },
    {
      "constant": true,
      "inputs": [],
      "name": "isPaused",
      "outputs": [
        {
          "name": "",
          "type": "bool"
        }
      ],
      "payable": false,
      "stateMutability": "view",
      "type": "function"
    }
  ],
  "bytecode": "0x608060405234801561001057600080fd5b50614637806100206000396000f3006080604052600436106101195763ffffffff60e060020a6000350416630818a6f0811461011e5780631a83bff01461018f5780631d8acf1b1461024f57806326839e531461027b5780633f4ba83a146102a5578063485cc955146102bc5780634ac24a9a146102d657806369ba0fe9146102f15780638456cb591461037e5780638905fd4f146103935780638da5cb5b146103b4578063a0632461146103e5578063ac90b42214610406578063ad64ae4b14610421578063b187bd2614610442578063b3447ac914610457578063baed8bb11461046f578063c6cb7ab814610487578063dc6599071461049f578063ea393b75146104c0578063eac5ab43146104e7578063f2fde38b1461050d578063f433262f1461052e575b600080fd5b34801561012a57600080fd5b5061013f600160a060020a0360043516610543565b60408051602080825283518183015283519192839290830191858101910280838360005b8381101561017b578181015183820152602001610163565b505050509050019250505060405180910390f35b34801561019b57600080fd5b506101b660ff60043516600160a060020a0360243516610580565b604051808060200180602001838103835285818151815260200191508051906020019060200280838360005b838110156101fa5781810151838201526020016101e2565b50505050905001838103825284818151815260200191508051906020019060200280838360005b83811015610239578181015183820152602001610221565b5050505090500194505050505060405180910390f35b34801561025b57600080fd5b506102676004356105a6565b604080519115158252519081900360200190f35b34801561028757600080fd5b506102936004356105bb565b60408051918252519081900360200190f35b3480156102b157600080fd5b506102ba6105cd565b005b6102ba600160a060020a03600435811690602435166106eb565b3480156102e257600080fd5b506101b660ff60043516610905565b3480156102fd57600080fd5b50610309600435610928565b6040805160208082528351818301528351919283929083019185019080838360005b8381101561034357818101518382015260200161032b565b50505050905090810190601f1680156103705780820380516001836020036101000a031916815260200191505b509250505060405180910390f35b34801561038a57600080fd5b506102ba6109cb565b34801561039f57600080fd5b506102ba600160a060020a0360043516610ae1565b3480156103c057600080fd5b506103c9610d1c565b60408051600160a060020a039092168252519081900360200190f35b3480156103f157600080fd5b506102ba600160a060020a0360043516610d6a565b34801561041257600080fd5b5061013f60ff600435166115e6565b34801561042d57600080fd5b506102ba600160a060020a036004351661161b565b34801561044e57600080fd5b506102676124d8565b34801561046357600080fd5b50610293600435612509565b34801561047b57600080fd5b506103c960043561251b565b34801561049357600080fd5b50610309600435612536565b3480156104ab57600080fd5b506102ba600160a060020a03600435166125a0565b3480156104cc57600080fd5b5061013f60ff60043516600160a060020a0360243516612a8c565b3480156104f357600080fd5b506102ba600160a060020a0360043516602435151561305d565b34801561051957600080fd5b506102ba600160a060020a03600435166131db565b34801561053a57600080fd5b506102ba613318565b606061057a6105756040805190810160405280600a81526020016000805160206144ec8339815191528152508461363b565b61372f565b92915050565b606080606061058f8585612a8c565b905061059a8161379a565b92509250509250929050565b60009081526004602052604090205460ff1690565b60009081526020819052604090205490565b6105d56124d8565b151561062b576040805160e560020a62461bcd02815260206004820152601460248201527f53686f756c64206e6f7420626520706175736564000000000000000000000000604482015290519081900360640190fd5b610633610d1c565b600160a060020a03163314610680576040805160e560020a62461bcd028152602060048201526014602482015260008051602061450c833981519152604482015290519081900360640190fd5b6106b66106af6040805190810160405280600681526020016000805160206144cc833981519152815250613a90565b6000613b5a565b6040805142815290517faaa520fdd7d2c83061d632fa017b0432407e798818af63ea908589fceda39ab79181900360200190a1565b61073161072c6040805190810160405280600b81526020017f696e697469616c69736564000000000000000000000000000000000000000000815250613a90565b6105a6565b15610786576040805160e560020a62461bcd02815260206004820152601360248201527f616c726561647920696e697469616c697a656400000000000000000000000000604482015290519081900360640190fd5b600160a060020a038116158015906107a65750600160a060020a03821615155b15156107fc576040805160e560020a62461bcd02815260206004820152601560248201527f3078206164647265737320697320696e76616c69640000000000000000000000604482015290519081900360640190fd5b61084361083d6040805190810160405280601081526020017f706f6c796d617468526567697374727900000000000000000000000000000000815250613a90565b83613b7a565b61088a6108846040805190810160405280600581526020017f6f776e6572000000000000000000000000000000000000000000000000000000815250613a90565b82613b7a565b6108b96106af6040805190810160405280600681526020016000805160206144cc833981519152815250613a90565b6109016108fa6040805190810160405280600b81526020017f696e697469616c69736564000000000000000000000000000000000000000000815250613a90565b6001613b5a565b5050565b6060806060610913846115e6565b905061091e8161379a565b9250925050915091565b60008181526001602081815260409283902080548451600260001995831615610100029590950190911693909304601f810183900483028401830190945283835260609390918301828280156109bf5780601f10610994576101008083540402835291602001916109bf565b820191906000526020600020905b8154815290600101906020018083116109a257829003601f168201915b50505050509050919050565b6109d36124d8565b15610a28576040805160e560020a62461bcd02815260206004820152600e60248201527f416c726561647920706175736564000000000000000000000000000000000000604482015290519081900360640190fd5b610a30610d1c565b600160a060020a03163314610a7d576040805160e560020a62461bcd028152602060048201526014602482015260008051602061450c833981519152604482015290519081900360640190fd5b610aac6108fa6040805190810160405280600681526020016000805160206144cc833981519152815250613a90565b6040805142815290517f68b095021b1f40fe513109f513c66692f0b3219aee674a69f4efc57badb8201d9181900360200190a1565b600080610aec610d1c565b600160a060020a03163314610b39576040805160e560020a62461bcd028152602060048201526014602482015260008051602061450c833981519152604482015290519081900360640190fd5b600160a060020a0383161515610b99576040805160e560020a62461bcd02815260206004820152601560248201527f3078206164647265737320697320696e76616c69640000000000000000000000604482015290519081900360640190fd5b604080517f70a082310000000000000000000000000000000000000000000000000000000081523060048201529051849350600160a060020a038416916370a082319160248083019260209291908290030181600087803b158015610bfd57600080fd5b505af1158015610c11573d6000803e3d6000fd5b505050506040513d6020811015610c2757600080fd5b50519050600160a060020a03821663a9059cbb610c42610d1c565b836040518363ffffffff1660e060020a0281526004018083600160a060020a0316600160a060020a0316815260200182815260200192505050602060405180830381600087803b158015610c9557600080fd5b505af1158015610ca9573d6000803e3d6000fd5b505050506040513d6020811015610cbf57600080fd5b50511515610d17576040805160e560020a62461bcd02815260206004820152601560248201527f746f6b656e207472616e73666572206661696c65640000000000000000000000604482015290519081900360640190fd5b505050565b6000610d64610d5f6040805190810160405280600581526020017f6f776e6572000000000000000000000000000000000000000000000000000000815250613a90565b61251b565b90505b90565b600080600080610d78610d1c565b600160a060020a031633600160a060020a031614156111a557610dc6610dc160408051908101604052806008815260200160008051602061452c8339815191528152508761363b565b6105bb565b9350831515610e45576040805160e560020a62461bcd02815260206004820152602360248201527f4d6f64756c6520666163746f72792073686f756c64206265207265676973746560448201527f7265640000000000000000000000000000000000000000000000000000000000606482015290519081900360840190fd5b84600160a060020a0316638da5cb5b6040518163ffffffff1660e060020a028152600401602060405180830381600087803b158015610e8357600080fd5b505af1158015610e97573d6000803e3d6000fd5b505050506040513d6020811015610ead57600080fd5b5051600160a060020a0316331480610edd5750610ec8610d1c565b600160a060020a031633600160a060020a0316145b1515610f35576040805160e560020a62461bcd02815260206004820152603f602482015260008051602061458c83398151915260448201526000805160206145cc833981519152606482015290519081900360840190fd5b610f65610dc16040805190810160405280600f81526020016000805160206145ec8339815191528152508761363b565b92506001610f996105756040805190810160405280600a81526020016000805160206145ac83398151915281525087613bb5565b51039150610fcd6105756040805190810160405280600a81526020016000805160206145ac83398151915281525086613bb5565b805183908110610fd957fe5b6020908102909101015190508282146110595761102361101c6040805190810160405280600a81526020016000805160206145ac83398151915281525086613bb5565b8483613c4c565b6110596110536040805190810160405280600f81526020016000805160206145ec8339815191528152508361363b565b84613c9c565b61108f6110896040805190810160405280600a81526020016000805160206145ac83398151915281525086613bb5565b83613cae565b6110c66110bf60408051908101604052806008815260200160008051602061452c8339815191528152508761363b565b6000613c9c565b61110a6110f66040805190810160405280600a81526020016000805160206144ec8339815191528152508761363b565b604080516000815260208101909152613dbe565b61113a6106af60408051908101604052806008815260200160008051602061454c8339815191528152508761363b565b61116a6110bf6040805190810160405280600f81526020016000805160206145ec8339815191528152508761363b565b6040513390600160a060020a038716907fd66772358582078947c11fa70e2860b3ffa915277e6181a4aa293072cb57ed3c90600090a36115df565b6111ad6124d8565b15611202576040805160e560020a62461bcd02815260206004820152600e60248201527f416c726561647920706175736564000000000000000000000000000000000000604482015290519081900360640190fd5b611232610dc160408051908101604052806008815260200160008051602061452c8339815191528152508761363b565b93508315156112b1576040805160e560020a62461bcd02815260206004820152602360248201527f4d6f64756c6520666163746f72792073686f756c64206265207265676973746560448201527f7265640000000000000000000000000000000000000000000000000000000000606482015290519081900360840190fd5b84600160a060020a0316638da5cb5b6040518163ffffffff1660e060020a028152600401602060405180830381600087803b1580156112ef57600080fd5b505af1158015611303573d6000803e3d6000fd5b505050506040513d602081101561131957600080fd5b5051600160a060020a03163314806113495750611334610d1c565b600160a060020a031633600160a060020a0316145b15156113a1576040805160e560020a62461bcd02815260206004820152603f602482015260008051602061458c83398151915260448201526000805160206145cc833981519152606482015290519081900360840190fd5b6113d1610dc16040805190810160405280600f81526020016000805160206145ec8339815191528152508761363b565b925060016114056105756040805190810160405280600a81526020016000805160206145ac83398151915281525087613bb5565b510391506114396105756040805190810160405280600a81526020016000805160206145ac83398151915281525086613bb5565b80518390811061144557fe5b6020908102909101015190508282146114b85761148861101c6040805190810160405280600a81526020016000805160206145ac83398151915281525086613bb5565b6114b86110536040805190810160405280600f81526020016000805160206145ec8339815191528152508361363b565b6114e86110896040805190810160405280600a81526020016000805160206145ac83398151915281525086613bb5565b6115186110bf60408051908101604052806008815260200160008051602061452c8339815191528152508761363b565b6115486110f66040805190810160405280600a81526020016000805160206144ec8339815191528152508761363b565b6115786106af60408051908101604052806008815260200160008051602061454c8339815191528152508761363b565b6115a86110bf6040805190810160405280600f81526020016000805160206145ec8339815191528152508761363b565b6040513390600160a060020a038716907fd66772358582078947c11fa70e2860b3ffa915277e6181a4aa293072cb57ed3c90600090a35b5050505050565b606061057a6105756040805190810160405280600a81526020016000805160206145ac8339815191528152508460ff16613bb5565b60008060006060600061162c610d1c565b600160a060020a031633600160a060020a03161415611d8257611674610d5f6040805190810160405280600f81526020016000805160206144ac833981519152815250613a90565b600160a060020a0316632f0019f26040518163ffffffff1660e060020a02815260040180806020018281038252601481526020018060008051602061456c833981519152815250602001915050602060405180830381600087803b1580156116db57600080fd5b505af11580156116ef573d6000803e3d6000fd5b505050506040513d602081101561170557600080fd5b5051156118015785600160a060020a0316638da5cb5b6040518163ffffffff1660e060020a028152600401602060405180830381600087803b15801561174a57600080fd5b505af115801561175e573d6000803e3d6000fd5b505050506040513d602081101561177457600080fd5b5051600160a060020a03163314806117a4575061178f610d1c565b600160a060020a031633600160a060020a0316145b15156117fc576040805160e560020a62461bcd02815260206004820152603f602482015260008051602061458c83398151915260448201526000805160206145cc833981519152606482015290519081900360840190fd5b61188e565b611809610d1c565b600160a060020a0316331461188e576040805160e560020a62461bcd02815260206004820152602660248201527f4f6e6c79206f776e657220616c6c6f77656420746f207265676973746572206d60448201527f6f64756c65730000000000000000000000000000000000000000000000000000606482015290519081900360840190fd5b6118be610dc160408051908101604052806008815260200160008051602061452c8339815191528152508861363b565b15611939576040805160e560020a62461bcd02815260206004820152602b60248201527f4d6f64756c6520666163746f72792073686f756c64206e6f742062652070726560448201527f2d72656769737465726564000000000000000000000000000000000000000000606482015290519081900360840190fd5b85945084600160a060020a031663b4579d606040518163ffffffff1660e060020a028152600401600060405180830381600087803b15801561197a57600080fd5b505af115801561198e573d6000803e3d6000fd5b505050506040513d6000823e601f3d908101601f1916820160405260208110156119b757600080fd5b8101908080516401000000008111156119cf57600080fd5b820160208101848111156119e257600080fd5b81518560208202830111640100000000821117156119ff57600080fd5b5060019850909550505050505b8151841015611ac457600092505b83831015611ab9578183815181101515611a3057fe5b9060200190602002015160ff168285815181101515611a4b57fe5b6020908102909101015160ff161415611aae576040805160e560020a62461bcd02815260206004820152600d60248201527f54797065206d69736d6174636800000000000000000000000000000000000000604482015290519081900360640190fd5b600190920191611a1a565b600190930192611a0c565b81511515611b1c576040805160e560020a62461bcd02815260206004820152601660248201527f466163746f7279206d7573742068617665207479706500000000000000000000604482015290519081900360640190fd5b84600160a060020a031663b4579d606040518163ffffffff1660e060020a028152600401600060405180830381600087803b158015611b5a57600080fd5b505af1158015611b6e573d6000803e3d6000fd5b505050506040513d6000823e601f3d908101601f191682016040526020811015611b9757600080fd5b810190808051640100000000811115611baf57600080fd5b82016020810184811115611bc257600080fd5b8151856020820283011164010000000082111715611bdf57600080fd5b505080519093506000925082109050611bf457fe5b906020019060200201519050611c39611c3060408051908101604052806008815260200160008051602061452c8339815191528152508861363b565b8260ff16613c9c565b611ca2611c696040805190810160405280600f81526020016000805160206145ec8339815191528152508861363b565b611c9c6105756040805190810160405280600a81526020016000805160206145ac8339815191528152508560ff16613bb5565b51613c9c565b611cdb611cd56040805190810160405280600a81526020016000805160206145ac8339815191528152508360ff16613bb5565b87613ddd565b85600160a060020a0316638da5cb5b6040518163ffffffff1660e060020a028152600401602060405180830381600087803b158015611d1957600080fd5b505af1158015611d2d573d6000803e3d6000fd5b505050506040513d6020811015611d4357600080fd5b5051604051600160a060020a03918216918816907f49220d7268f6ac850e2f0d39ce956e56f086a18cfda1383c05f9c859fdef901290600090a36124d0565b611d8a6124d8565b15611ddf576040805160e560020a62461bcd02815260206004820152600e60248201527f416c726561647920706175736564000000000000000000000000000000000000604482015290519081900360640190fd5b611e0e610d5f6040805190810160405280600f81526020016000805160206144ac833981519152815250613a90565b600160a060020a0316632f0019f26040518163ffffffff1660e060020a02815260040180806020018281038252601481526020018060008051602061456c833981519152815250602001915050602060405180830381600087803b158015611e7557600080fd5b505af1158015611e89573d6000803e3d6000fd5b505050506040513d6020811015611e9f57600080fd5b505115611f9b5785600160a060020a0316638da5cb5b6040518163ffffffff1660e060020a028152600401602060405180830381600087803b158015611ee457600080fd5b505af1158015611ef8573d6000803e3d6000fd5b505050506040513d6020811015611f0e57600080fd5b5051600160a060020a0316331480611f3e5750611f29610d1c565b600160a060020a031633600160a060020a0316145b1515611f96576040805160e560020a62461bcd02815260206004820152603f602482015260008051602061458c83398151915260448201526000805160206145cc833981519152606482015290519081900360840190fd5b612028565b611fa3610d1c565b600160a060020a03163314612028576040805160e560020a62461bcd02815260206004820152602660248201527f4f6e6c79206f776e657220616c6c6f77656420746f207265676973746572206d60448201527f6f64756c65730000000000000000000000000000000000000000000000000000606482015290519081900360840190fd5b612058610dc160408051908101604052806008815260200160008051602061452c8339815191528152508861363b565b156120d3576040805160e560020a62461bcd02815260206004820152602b60248201527f4d6f64756c6520666163746f72792073686f756c64206e6f742062652070726560448201527f2d72656769737465726564000000000000000000000000000000000000000000606482015290519081900360840190fd5b85945084600160a060020a031663b4579d606040518163ffffffff1660e060020a028152600401600060405180830381600087803b15801561211457600080fd5b505af1158015612128573d6000803e3d6000fd5b505050506040513d6000823e601f3d908101601f19168201604052602081101561215157600080fd5b81019080805164010000000081111561216957600080fd5b8201602081018481111561217c57600080fd5b815185602082028301116401000000008211171561219957600080fd5b5060019850909550505050505b815184101561225e57600092505b838310156122535781838151811015156121ca57fe5b9060200190602002015160ff1682858151811015156121e557fe5b6020908102909101015160ff161415612248576040805160e560020a62461bcd02815260206004820152600d60248201527f54797065206d69736d6174636800000000000000000000000000000000000000604482015290519081900360640190fd5b6001909201916121b4565b6001909301926121a6565b815115156122b6576040805160e560020a62461bcd02815260206004820152601660248201527f466163746f7279206d7573742068617665207479706500000000000000000000604482015290519081900360640190fd5b84600160a060020a031663b4579d606040518163ffffffff1660e060020a028152600401600060405180830381600087803b1580156122f457600080fd5b505af1158015612308573d6000803e3d6000fd5b505050506040513d6000823e601f3d908101601f19168201604052602081101561233157600080fd5b81019080805164010000000081111561234957600080fd5b8201602081018481111561235c57600080fd5b815185602082028301116401000000008211171561237957600080fd5b50508051909350600092508210905061238e57fe5b9060200190602002015190506123ca611c3060408051908101604052806008815260200160008051602061452c8339815191528152508861363b565b6123fa611c696040805190810160405280600f81526020016000805160206145ec8339815191528152508861363b565b61242d611cd56040805190810160405280600a81526020016000805160206145ac8339815191528152508360ff16613bb5565b85600160a060020a0316638da5cb5b6040518163ffffffff1660e060020a028152600401602060405180830381600087803b15801561246b57600080fd5b505af115801561247f573d6000803e3d6000fd5b505050506040513d602081101561249557600080fd5b5051604051600160a060020a03918216918816907f49220d7268f6ac850e2f0d39ce956e56f086a18cfda1383c05f9c859fdef901290600090a35b505050505050565b6000610d6461072c6040805190810160405280600681526020016000805160206144cc833981519152815250613a90565b60009081526006602052604090205490565b600090815260026020526040902054600160a060020a031690565b60008181526003602090815260409182902080548351601f60026101006001851615026000190190931692909204918201849004840281018401909452808452606093928301828280156109bf5780601f10610994576101008083540402835291602001916109bf565b6125e1610d5f6040805190810160405280601581526020017f7365637572697479546f6b656e52656769737472790000000000000000000000815250613a90565b600160a060020a031663d300a968336040518263ffffffff1660e060020a0281526004018082600160a060020a0316600160a060020a03168152602001915050602060405180830381600087803b15801561263b57600080fd5b505af115801561264f573d6000803e3d6000fd5b505050506040513d602081101561266557600080fd5b505115612a895761269b610d5f6040805190810160405280600f81526020016000805160206144ac833981519152815250613a90565b600160a060020a0316632f0019f26040518163ffffffff1660e060020a02815260040180806020018281038252601481526020018060008051602061456c833981519152815250602001915050602060405180830381600087803b15801561270257600080fd5b505af1158015612716573d6000803e3d6000fd5b505050506040513d602081101561272c57600080fd5b5051156129105761276361072c60408051908101604052806008815260200160008051602061454c8339815191528152508361363b565b80612869575033600160a060020a0316638da5cb5b6040518163ffffffff1660e060020a028152600401602060405180830381600087803b1580156127a757600080fd5b505af11580156127bb573d6000803e3d6000fd5b505050506040513d60208110156127d157600080fd5b5051604080517f8da5cb5b0000000000000000000000000000000000000000000000000000000081529051600160a060020a0392831692841691638da5cb5b9160048083019260209291908290030181600087803b15801561283257600080fd5b505af1158015612846573d6000803e3d6000fd5b505050506040513d602081101561285c57600080fd5b5051600160a060020a0316145b151561290b576040805160e560020a62461bcd02815260206004820152605160248201527f4d6f64756c65466163746f7279206d757374206265207665726966696564206f60448201527f72205365637572697479546f6b656e206f776e6572206d757374206265204d6f60648201527f64756c65466163746f7279206f776e6572000000000000000000000000000000608482015290519081900360a40190fd5b612996565b61294061072c60408051908101604052806008815260200160008051602061454c8339815191528152508361363b565b1515612996576040805160e560020a62461bcd02815260206004820152601e60248201527f4d6f64756c65466163746f7279206d7573742062652076657269666965640000604482015290519081900360640190fd5b6129a08133613e29565b1515612a1c576040805160e560020a62461bcd02815260206004820152603060248201527f56657273696f6e2073686f756c642077697468696e2074686520636f6d70617460448201527f69626c652072616e6765206f6620535400000000000000000000000000000000606482015290519081900360840190fd5b612a52612a4c6040805190810160405280600a81526020016000805160206144ec8339815191528152508361363b565b33613ddd565b6040513390600160a060020a038316907ffd0013c5b822aafcc05b8cfdd6dfa336f40c31714b8bef8f2520e7036b9f079890600090a35b50565b606060006060600080600060606000612ace6105756040805190810160405280600a81526020016000805160206145ac8339815191528152508c60ff16613bb5565b519650612b046105756040805190810160405280600a81526020016000805160206145ac8339815191528152508c60ff16613bb5565b9550612b35610d5f6040805190810160405280600f81526020016000805160206144ac833981519152815250613a90565b600160a060020a0316632f0019f26040518163ffffffff1660e060020a02815260040180806020018281038252601481526020018060008051602061456c833981519152815250602001915050602060405180830381600087803b158015612b9c57600080fd5b505af1158015612bb0573d6000803e3d6000fd5b505050506040513d6020811015612bc657600080fd5b50519450600093508392505b86831015612dca578415612d655788600160a060020a0316638da5cb5b6040518163ffffffff1660e060020a028152600401602060405180830381600087803b158015612c1e57600080fd5b505af1158015612c32573d6000803e3d6000fd5b505050506040513d6020811015612c4857600080fd5b50518651600160a060020a0390911690879085908110612c6457fe5b90602001906020020151600160a060020a0316638da5cb5b6040518163ffffffff1660e060020a028152600401602060405180830381600087803b158015612cab57600080fd5b505af1158015612cbf573d6000803e3d6000fd5b505050506040513d6020811015612cd557600080fd5b5051600160a060020a03161480612d2e5750612d2e61072c60408051908101604052806008815260200160008051602061454c8339815191528152508886815181101515612d1f57fe5b9060200190602002015161363b565b15612d6057612d548684815181101515612d4457fe5b906020019060200201518a613e29565b15612d60576001909301925b612dbf565b612d9d61072c60408051908101604052806008815260200160008051602061454c8339815191528152508886815181101515612d1f57fe5b15612dbf57612db38684815181101515612d4457fe5b15612dbf576001909301925b600190920191612bd2565b83604051908082528060200260200182016040528015612df4578160200160208202803883390190505b50915060009350600090505b86811015613050578415612fb15788600160a060020a0316638da5cb5b6040518163ffffffff1660e060020a028152600401602060405180830381600087803b158015612e4c57600080fd5b505af1158015612e60573d6000803e3d6000fd5b505050506040513d6020811015612e7657600080fd5b50518651600160a060020a0390911690879083908110612e9257fe5b90602001906020020151600160a060020a0316638da5cb5b6040518163ffffffff1660e060020a028152600401602060405180830381600087803b158015612ed957600080fd5b505af1158015612eed573d6000803e3d6000fd5b505050506040513d6020811015612f0357600080fd5b5051600160a060020a03161480612f4d5750612f4d61072c60408051908101604052806008815260200160008051602061454c8339815191528152508884815181101515612d1f57fe5b15612fac57612f638682815181101515612d4457fe5b15612fac578581815181101515612f7657fe5b906020019060200201518285815181101515612f8e57fe5b600160a060020a039092166020928302909101909101526001909301925b613048565b612fe961072c60408051908101604052806008815260200160008051602061454c8339815191528152508884815181101515612d1f57fe5b1561304857612fff8682815181101515612d4457fe5b1561304857858181518110151561301257fe5b90602001906020020151828581518110151561302a57fe5b600160a060020a039092166020928302909101909101526001909301925b600101612e00565b5098975050505050505050565b613065610d1c565b600160a060020a031633146130b2576040805160e560020a62461bcd028152602060048201526014602482015260008051602061450c833981519152604482015290519081900360640190fd5b60006130e4610dc160408051908101604052806008815260200160008051602061452c8339815191528152508561363b565b1415613160576040805160e560020a62461bcd02815260206004820152602160248201527f4d6f64756c6520666163746f7279206d7573742062652072656769737465726560448201527f6400000000000000000000000000000000000000000000000000000000000000606482015290519081900360840190fd5b61319661319060408051908101604052806008815260200160008051602061454c8339815191528152508461363b565b82613b5a565b6040805182151581529051600160a060020a038416917f302d67e66dd951c29fca6e4f7099f292e8cc3537ad6bc4539b77e8b7a6404db2919081900360200190a25050565b6131e3610d1c565b600160a060020a03163314613230576040805160e560020a62461bcd028152602060048201526014602482015260008051602061450c833981519152604482015290519081900360640190fd5b600160a060020a0381161515613290576040805160e560020a62461bcd02815260206004820152600f60248201527f496e76616c696420616464726573730000000000000000000000000000000000604482015290519081900360640190fd5b80600160a060020a03166132a2610d1c565b600160a060020a03167f8be0079c531659141344cd1fd0a4f28419497f9722a3daafe3b4186f6b6457e060405160405180910390a3612a896108846040805190810160405280600581526020017f6f776e6572000000000000000000000000000000000000000000000000000000815250613a90565b6000613322610d1c565b600160a060020a0316331461336f576040805160e560020a62461bcd028152602060048201526014602482015260008051602061450c833981519152604482015290519081900360640190fd5b6133b0610d5f6040805190810160405280601081526020017f706f6c796d617468526567697374727900000000000000000000000000000000815250613a90565b90506134b16133f36040805190810160405280601581526020017f7365637572697479546f6b656e52656769737472790000000000000000000000815250613a90565b604080517fbf40fac1000000000000000000000000000000000000000000000000000000008152602060048201819052601560248301527f5365637572697479546f6b656e5265676973747279000000000000000000000060448301529151600160a060020a0386169263bf40fac192606480820193918290030181600087803b15801561348057600080fd5b505af1158015613494573d6000803e3d6000fd5b505050506040513d60208110156134aa57600080fd5b5051613b7a565b61356d6134e06040805190810160405280600f81526020016000805160206144ac833981519152815250613a90565b604080517fbf40fac1000000000000000000000000000000000000000000000000000000008152602060048201819052600f60248301527f466561747572655265676973747279000000000000000000000000000000000060448301529151600160a060020a0386169263bf40fac192606480820193918290030181600087803b15801561348057600080fd5b612a896135ae6040805190810160405280600981526020017f706f6c79546f6b656e0000000000000000000000000000000000000000000000815250613a90565b604080517fbf40fac1000000000000000000000000000000000000000000000000000000008152602060048201819052600960248301527f506f6c79546f6b656e000000000000000000000000000000000000000000000060448301529151600160a060020a0386169263bf40fac192606480820193918290030181600087803b15801561348057600080fd5b600082826040516020018083805190602001908083835b602083106136715780518252601f199092019160209182019101613652565b6001836020036101000a03801982511681845116808217855250505050505090500182600160a060020a0316600160a060020a03166c01000000000000000000000000028152601401925050506040516020818303038152906040526040518082805190602001908083835b602083106136fc5780518252601f1990920191602091820191016136dd565b5181516020939093036101000a600019018019909116921691909117905260405192018290039091209695505050505050565b6000818152600960209081526040918290208054835181840281018401909452808452606093928301828280156109bf57602002820191906000526020600020905b8154600160a060020a031681526001909101906020018083116137715750505050509050919050565b606080600080808380805b885185101561389e5788858151811015156137bc57fe5b90602001906020020151600160a060020a031663995d9ab76040518163ffffffff1660e060020a028152600401600060405180830381600087803b15801561380357600080fd5b505af1158015613817573d6000803e3d6000fd5b505050506040513d6000823e601f3d908101601f19168201604052602081101561384057600080fd5b81019080805164010000000081111561385857600080fd5b8201602081018481111561386b57600080fd5b815185602082028301116401000000008211171561388857600080fd5b50505198909801975050600190950194506137a5565b856040519080825280602002602001820160405280156138c8578160200160208202803883390190505b509250856040519080825280602002602001820160405280156138f5578160200160208202803883390190505b50915060009550600094505b8851851015613a8257888581518110151561391857fe5b90602001906020020151600160a060020a031663995d9ab76040518163ffffffff1660e060020a028152600401600060405180830381600087803b15801561395f57600080fd5b505af1158015613973573d6000803e3d6000fd5b505050506040513d6000823e601f3d908101601f19168201604052602081101561399c57600080fd5b8101908080516401000000008111156139b457600080fd5b820160208101848111156139c757600080fd5b81518560208202830111640100000000821117156139e457600080fd5b5060009850909450505050505b8051841015613a77578084815181101515613a0857fe5b906020019060200201518387815181101515613a2057fe5b602090810290910101528851899086908110613a3857fe5b906020019060200201518287815181101515613a5057fe5b600160a060020a0390921660209283029091019091015260019586019593909301926139f1565b600190940193613901565b509097909650945050505050565b6000816040516020018082805190602001908083835b60208310613ac55780518252601f199092019160209182019101613aa6565b6001836020036101000a0380198251168184511680821785525050505050509050019150506040516020818303038152906040526040518082805190602001908083835b60208310613b285780518252601f199092019160209182019101613b09565b5181516020939093036101000a6000190180199091169216919091179052604051920182900390912095945050505050565b600091825260046020526040909120805460ff1916911515919091179055565b600091825260026020526040909120805473ffffffffffffffffffffffffffffffffffffffff1916600160a060020a03909216919091179055565b600082826040516020018083805190602001908083835b60208310613beb5780518252601f199092019160209182019101613bcc565b51815160001960209485036101000a019081169019919091161790529201938452506040805180850381529382019081905283519394509283925090840190808383602083106136fc5780518252601f1990920191602091820191016136dd565b6000838152600960205260409020805482919084908110613c6957fe5b9060005260206000200160006101000a815481600160a060020a030219169083600160a060020a03160217905550505050565b60009182526020829052604090912055565b600082815260096020526040902080548210613d3a576040805160e560020a62461bcd02815260206004820152602a60248201527f496e6465782073686f756c64206c657373207468616e206c656e677468206f6660448201527f2074686520617272617900000000000000000000000000000000000000000000606482015290519081900360840190fd5b805481906000198101908110613d4c57fe5b6000918252602090912001548154600160a060020a0390911690829084908110613d7257fe5b6000918252602090912001805473ffffffffffffffffffffffffffffffffffffffff1916600160a060020a0392909216919091179055805460001901613db882826143ca565b50505050565b60008281526009602090815260409091208251610d17928401906143ee565b6000918252600960209081526040832080546001810182559084529220909101805473ffffffffffffffffffffffffffffffffffffffff1916600160a060020a03909216919091179055565b6000606080606060008086600160a060020a0316630d8e6e2c6040518163ffffffff1660e060020a028152600401600060405180830381600087803b158015613e7157600080fd5b505af1158015613e85573d6000803e3d6000fd5b505050506040513d6000823e601f3d908101601f191682016040526020811015613eae57600080fd5b810190808051640100000000811115613ec657600080fd5b82016020810184811115613ed957600080fd5b8151856020820283011164010000000082111715613ef657600080fd5b5050929190505050945087600160a060020a0316638677768f6040518163ffffffff1660e060020a028152600401600060405180830381600087803b158015613f3e57600080fd5b505af1158015613f52573d6000803e3d6000fd5b505050506040513d6000823e601f3d908101601f191682016040526020811015613f7b57600080fd5b810190808051640100000000811115613f9357600080fd5b82016020810184811115613fa657600080fd5b8151856020820283011164010000000082111715613fc357600080fd5b5050929190505050935087600160a060020a031663f78629996040518163ffffffff1660e060020a028152600401600060405180830381600087803b15801561400b57600080fd5b505af115801561401f573d6000803e3d6000fd5b505050506040513d6000823e601f3d908101601f19168201604052602081101561404857600080fd5b81019080805164010000000081111561406057600080fd5b8201602081018481111561407357600080fd5b815185602082028301116401000000008211171561409057600080fd5b505092919050505092506140a484866140c8565b91506140b0838661425f565b90508180156140bc5750805b98975050505050505050565b60008060008084518651141515614129576040805160e560020a62461bcd02815260206004820152601560248201527f496e707574206c656e677468206d69736d617463680000000000000000000000604482015290519081900360640190fd5b60009250600091505b85518260ff16101561417657858260ff1681518110151561414f57fe5b9060200190602002015160ff166000141561416b576001909201915b600190910190614132565b85518314614251575060009150815b85518160ff16101561423357858160ff168151811015156141a257fe5b9060200190602002015160ff16858260ff168151811015156141c057fe5b9060200190602002015160ff1611156141dc5760019350614256565b858160ff168151811015156141ed57fe5b9060200190602002015160ff16858260ff1681518110151561420b57fe5b9060200190602002015160ff1610156142275760009350614256565b60019283019201614185565b60018651038314156142485760019350614256565b60009350614256565b600193505b50505092915050565b600080600080845186511415156142c0576040805160e560020a62461bcd02815260206004820152601560248201527f496e707574206c656e677468206d69736d617463680000000000000000000000604482015290519081900360640190fd5b60009250600091505b85518260ff16101561430d57858260ff168151811015156142e657fe5b9060200190602002015160ff1660001415614302576001909201915b6001909101906142c9565b85518314614251575060009150815b85518160ff16101561423357848160ff1681518110151561433957fe5b9060200190602002015160ff16868260ff1681518110151561435757fe5b9060200190602002015160ff1611156143735760019350614256565b848160ff1681518110151561438457fe5b9060200190602002015160ff16868260ff168151811015156143a257fe5b9060200190602002015160ff1610156143be5760009350614256565b6001928301920161431c565b815481835581811115610d1757600083815260209020610d17918101908301614460565b828054828255906000526020600020908101928215614450579160200282015b82811115614450578251825473ffffffffffffffffffffffffffffffffffffffff1916600160a060020a0390911617825560209092019160019091019061440e565b5061445c92915061447a565b5090565b610d6791905b8082111561445c5760008155600101614466565b610d6791905b8082111561445c57805473ffffffffffffffffffffffffffffffffffffffff1916815560010161448056006665617475726552656769737472790000000000000000000000000000000000706175736564000000000000000000000000000000000000000000000000000072657075746174696f6e0000000000000000000000000000000000000000000073656e646572206d757374206265206f776e657200000000000000000000000072656769737472790000000000000000000000000000000000000000000000007665726966696564000000000000000000000000000000000000000000000000637573746f6d4d6f64756c6573416c6c6f7765640000000000000000000000006d73672e73656e646572206d75737420626520746865204d6f64756c652046616d6f64756c654c6973740000000000000000000000000000000000000000000063746f7279206f776e6572206f722072656769737472792063757261746f72006d6f64756c654c697374496e6465780000000000000000000000000000000000a165627a7a72305820bf06f2bff89f312800dcce3804d32093d234ce3f2dc0db38d89c50f98f0c71920029",
  "source": "pragma solidity ^0.4.24;\n\nimport \"./interfaces/IModuleRegistry.sol\";\nimport \"./interfaces/IModuleFactory.sol\";\nimport \"./interfaces/ISecurityTokenRegistry.sol\";\nimport \"./interfaces/IPolymathRegistry.sol\";\nimport \"./interfaces/IFeatureRegistry.sol\";\nimport \"./interfaces/IERC20.sol\";\nimport \"./libraries/VersionUtils.sol\";\nimport \"./storage/EternalStorage.sol\";\nimport \"./libraries/Encoder.sol\";\nimport \"./interfaces/IOwnable.sol\";\nimport \"./interfaces/ISecurityToken.sol\";\n\n/**\n* @title Registry contract to store registered modules\n* @notice Only Polymath can register and verify module factories to make them available for issuers to attach.\n*/\ncontract ModuleRegistry is IModuleRegistry, EternalStorage {\n    /*\n        // Mapping used to hold the type of module factory corresponds to the address of the Module factory contract\n        mapping (address => uint8) public registry;\n\n        // Mapping used to hold the reputation of the factory\n        mapping (address => address[]) public reputation;\n\n        // Mapping containing the list of addresses of Module Factories of a particular type\n        mapping (uint8 => address[]) public moduleList;\n\n        // Mapping to store the index of the Module Factory in the moduleList\n        mapping(address => uint8) private moduleListIndex;\n\n        // contains the list of verified modules\n        mapping (address => bool) public verified;\n\n    */\n\n    ///////////\n    // Events\n    //////////\n\n    // Emit when network becomes paused\n    event Pause(uint256 _timestammp);\n     // Emit when network becomes unpaused\n    event Unpause(uint256 _timestamp);\n    // Emit when Module is used by the SecurityToken\n    event ModuleUsed(address indexed _moduleFactory, address indexed _securityToken);\n    // Emit when the Module Factory gets registered on the ModuleRegistry contract\n    event ModuleRegistered(address indexed _moduleFactory, address indexed _owner);\n    // Emit when the module gets verified by Polymath\n    event ModuleVerified(address indexed _moduleFactory, bool _verified);\n    // Emit when a ModuleFactory is removed by Polymath\n    event ModuleRemoved(address indexed _moduleFactory, address indexed _decisionMaker);\n    // Emit when ownership gets transferred\n    event OwnershipTransferred(address indexed previousOwner, address indexed newOwner);\n\n    ///////////////\n    //// Modifiers\n    ///////////////\n\n    /**\n     * @dev Throws if called by any account other than the owner.\n     */\n    modifier onlyOwner() {\n        require(msg.sender == owner(),\"sender must be owner\");\n        _;\n    }\n\n    /**\n     * @notice Modifier to make a function callable only when the contract is not paused.\n     */\n    modifier whenNotPausedOrOwner() {\n        if (msg.sender == owner())\n            _;\n        else {\n            require(!isPaused(), \"Already paused\");\n            _;\n        }\n    }\n\n    /**\n     * @notice Modifier to make a function callable only when the contract is not paused and ignore is msg.sender is owner.\n     */\n    modifier whenNotPaused() {\n        require(!isPaused(), \"Already paused\");\n        _;\n    }\n\n    /**\n     * @notice Modifier to make a function callable only when the contract is paused.\n     */\n    modifier whenPaused() {\n        require(isPaused(), \"Should not be paused\");\n        _;\n    }\n\n    /////////////////////////////\n    // Initialization\n    /////////////////////////////\n\n    // Constructor\n    constructor () public\n    {\n\n    }\n\n    function initialize(address _polymathRegistry, address _owner) external payable {\n        require(!getBool(Encoder.getKey(\"initialised\")),\"already initialized\");\n        require(_owner != address(0) && _polymathRegistry != address(0), \"0x address is invalid\");\n        set(Encoder.getKey(\"polymathRegistry\"), _polymathRegistry);\n        set(Encoder.getKey(\"owner\"), _owner);\n        set(Encoder.getKey(\"paused\"), false);\n        set(Encoder.getKey(\"initialised\"), true);\n    }\n\n    /**\n     * @notice Called by a SecurityToken to check if the ModuleFactory is verified or appropriate custom module\n     * @dev ModuleFactory reputation increases by one every time it is deployed(used) by a ST.\n     * @dev Any module can be added during token creation without being registered if it is defined in the token proxy deployment contract\n     * @dev The feature switch for custom modules is labelled \"customModulesAllowed\"\n     * @param _moduleFactory is the address of the relevant module factory\n     */\n    function useModule(address _moduleFactory) external {\n        // This if statement is required to be able to add modules from the token proxy contract during deployment\n        if (ISecurityTokenRegistry(getAddress(Encoder.getKey(\"securityTokenRegistry\"))).isSecurityToken(msg.sender)) {\n            if (IFeatureRegistry(getAddress(Encoder.getKey(\"featureRegistry\"))).getFeatureStatus(\"customModulesAllowed\")) {\n                require(getBool(Encoder.getKey(\"verified\", _moduleFactory)) || IOwnable(_moduleFactory).owner() == IOwnable(msg.sender).owner(),\"ModuleFactory must be verified or SecurityToken owner must be ModuleFactory owner\");\n            } else {\n                require(getBool(Encoder.getKey(\"verified\", _moduleFactory)), \"ModuleFactory must be verified\");\n            }\n            require(_isCompatibleModule(_moduleFactory, msg.sender), \"Version should within the compatible range of ST\");\n            pushArray(Encoder.getKey(\"reputation\", _moduleFactory), msg.sender);\n            emit ModuleUsed(_moduleFactory, msg.sender);\n        }\n    }\n\n    function _isCompatibleModule(address _moduleFactory, address _securityToken) internal view returns(bool) {\n        uint8[] memory _latestVersion = ISecurityToken(_securityToken).getVersion();\n        uint8[] memory _lowerBound = IModuleFactory(_moduleFactory).getLowerSTVersionBounds();\n        uint8[] memory _upperBound = IModuleFactory(_moduleFactory).getUpperSTVersionBounds();\n        bool _isLowerAllowed = VersionUtils.compareLowerBound(_lowerBound, _latestVersion);\n        bool _isUpperAllowed = VersionUtils.compareUpperBound(_upperBound, _latestVersion);\n        return (_isLowerAllowed && _isUpperAllowed);\n    }\n\n    /**\n     * @notice Called by the ModuleFactory owner to register new modules for SecurityTokens to use\n     * @param _moduleFactory is the address of the module factory to be registered\n     */\n    function registerModule(address _moduleFactory) external whenNotPausedOrOwner {\n        if (IFeatureRegistry(getAddress(Encoder.getKey(\"featureRegistry\"))).getFeatureStatus(\"customModulesAllowed\")) {\n            require(msg.sender == IOwnable(_moduleFactory).owner() || msg.sender == owner(),\"msg.sender must be the Module Factory owner or registry curator\");\n        } else {\n            require(msg.sender == owner(), \"Only owner allowed to register modules\");\n        }\n        require(getUint(Encoder.getKey(\"registry\", _moduleFactory)) == 0, \"Module factory should not be pre-registered\");\n        IModuleFactory moduleFactory = IModuleFactory(_moduleFactory);\n        //Enforce type uniqueness\n        uint256 i;\n        uint256 j;\n        uint8[] memory moduleTypes = moduleFactory.getTypes();\n        for (i = 1; i < moduleTypes.length; i++) {\n            for (j = 0; j < i; j++) {\n                require(moduleTypes[i] != moduleTypes[j], \"Type mismatch\");\n            }\n        }\n        require(moduleTypes.length != 0, \"Factory must have type\");\n        // NB - here we index by the first type of the module.\n        uint8 moduleType = moduleFactory.getTypes()[0];\n        set(Encoder.getKey(\"registry\", _moduleFactory), uint256(moduleType));\n        set(\n            Encoder.getKey(\"moduleListIndex\", _moduleFactory),\n            uint256(getArrayAddress(Encoder.getKey(\"moduleList\", uint256(moduleType))).length)\n        );\n        pushArray(Encoder.getKey(\"moduleList\", uint256(moduleType)), _moduleFactory);\n        emit ModuleRegistered (_moduleFactory, IOwnable(_moduleFactory).owner());\n    }\n\n    /**\n     * @notice Called by the ModuleFactory owner or registry curator to delete a ModuleFactory from the registry\n     * @param _moduleFactory is the address of the module factory to be deleted from the registry\n     */\n    function removeModule(address _moduleFactory) external whenNotPausedOrOwner {\n        uint256 moduleType = getUint(Encoder.getKey(\"registry\", _moduleFactory));\n\n        require(moduleType != 0, \"Module factory should be registered\");\n        require(\n            msg.sender == IOwnable(_moduleFactory).owner() || msg.sender == owner(),\n            \"msg.sender must be the Module Factory owner or registry curator\"\n        );\n        uint256 index = getUint(Encoder.getKey(\"moduleListIndex\", _moduleFactory));\n        uint256 last = getArrayAddress(Encoder.getKey(\"moduleList\", moduleType)).length - 1;\n        address temp = getArrayAddress(Encoder.getKey(\"moduleList\", moduleType))[last];\n\n        // pop from array and re-order\n        if (index != last) {\n            // moduleList[moduleType][index] = temp;\n            setArrayIndexValue(Encoder.getKey(\"moduleList\", moduleType), index, temp);\n            set(Encoder.getKey(\"moduleListIndex\", temp), index);\n        }\n        deleteArrayAddress(Encoder.getKey(\"moduleList\", moduleType), last);\n\n        // delete registry[_moduleFactory];\n        set(Encoder.getKey(\"registry\", _moduleFactory), uint256(0));\n        // delete reputation[_moduleFactory];\n        setArray(Encoder.getKey(\"reputation\", _moduleFactory), new address[](0));\n        // delete verified[_moduleFactory];\n        set(Encoder.getKey(\"verified\", _moduleFactory), false);\n        // delete moduleListIndex[_moduleFactory];\n        set(Encoder.getKey(\"moduleListIndex\", _moduleFactory), uint256(0));\n        emit ModuleRemoved(_moduleFactory, msg.sender);\n    }\n\n    /**\n    * @notice Called by Polymath to verify Module Factories for SecurityTokens to use.\n    * @notice A module can not be used by an ST unless first approved/verified by Polymath\n    * @notice (The only exception to this is that the author of the module is the owner of the ST)\n    * @notice -> Only if Polymath enabled the feature.\n    * @param _moduleFactory is the address of the module factory to be verified\n    * @return bool\n    */\n    function verifyModule(address _moduleFactory, bool _verified) external onlyOwner {\n        require(getUint(Encoder.getKey(\"registry\", _moduleFactory)) != uint256(0), \"Module factory must be registered\");\n        set(Encoder.getKey(\"verified\", _moduleFactory), _verified);\n        emit ModuleVerified(_moduleFactory, _verified);\n    }\n\n    /**\n     * @notice Returns all the tags related to the a module type which are valid for the given token\n     * @param _moduleType is the module type\n     * @param _securityToken is the token\n     * @return list of tags\n     * @return corresponding list of module factories\n     */\n    function getTagsByTypeAndToken(uint8 _moduleType, address _securityToken) external view returns(bytes32[], address[]) {\n        address[] memory modules = getModulesByTypeAndToken(_moduleType, _securityToken);\n        return _tagsByModules(modules);\n    }\n\n    /**\n     * @notice Returns all the tags related to the a module type which are valid for the given token\n     * @param _moduleType is the module type\n     * @return list of tags\n     * @return corresponding list of module factories\n     */\n    function getTagsByType(uint8 _moduleType) external view returns(bytes32[], address[]) {\n        address[] memory modules = getModulesByType(_moduleType);\n        return _tagsByModules(modules);\n    }\n\n    /**\n     * @notice Returns all the tags related to the modules provided\n     * @param _modules modules to return tags for\n     * @return list of tags\n     * @return corresponding list of module factories\n     */\n    function _tagsByModules(address[] _modules) internal view returns(bytes32[], address[]) {\n        uint256 counter = 0;\n        uint256 i;\n        uint256 j;\n        for (i = 0; i < _modules.length; i++) {\n            counter = counter + IModuleFactory(_modules[i]).getTags().length;\n        }\n        bytes32[] memory tags = new bytes32[](counter);\n        address[] memory modules = new address[](counter);\n        bytes32[] memory tempTags;\n        counter = 0;\n        for (i = 0; i < _modules.length; i++) {\n            tempTags = IModuleFactory(_modules[i]).getTags();\n            for (j = 0; j < tempTags.length; j++) {\n                tags[counter] = tempTags[j];\n                modules[counter] = _modules[i];\n                counter++;\n            }\n        }\n        return (tags, modules);\n    }\n\n    /**\n     * @notice Returns the reputation of the entered Module Factory\n     * @param _factoryAddress is the address of the module factory\n     * @return address array which contains the list of securityTokens that use that module factory\n     */\n    function getReputationByFactory(address _factoryAddress) external view returns(address[]) {\n        return getArrayAddress(Encoder.getKey(\"reputation\", _factoryAddress));\n    }\n\n    /**\n     * @notice Returns the list of addresses of Module Factory of a particular type\n     * @param _moduleType Type of Module\n     * @return address array that contains the list of addresses of module factory contracts.\n     */\n    function getModulesByType(uint8 _moduleType) public view returns(address[]) {\n        return getArrayAddress(Encoder.getKey(\"moduleList\", uint256(_moduleType)));\n    }\n\n    /**\n     * @notice Returns the list of available Module factory addresses of a particular type for a given token.\n     * @param _moduleType is the module type to look for\n     * @param _securityToken is the address of SecurityToken\n     * @return address array that contains the list of available addresses of module factory contracts.\n     */\n    function getModulesByTypeAndToken(uint8 _moduleType, address _securityToken) public view returns (address[]) {\n        uint256 _len = getArrayAddress(Encoder.getKey(\"moduleList\", uint256(_moduleType))).length;\n        address[] memory _addressList = getArrayAddress(Encoder.getKey(\"moduleList\", uint256(_moduleType)));\n        bool _isCustomModuleAllowed = IFeatureRegistry(getAddress(Encoder.getKey(\"featureRegistry\"))).getFeatureStatus(\"customModulesAllowed\");\n        uint256 counter = 0;\n        for (uint256 i = 0; i < _len; i++) {\n            if (_isCustomModuleAllowed) {\n                if (IOwnable(_addressList[i]).owner() == IOwnable(_securityToken).owner() || getBool(Encoder.getKey(\"verified\", _addressList[i])))\n                    if(_isCompatibleModule(_addressList[i], _securityToken))\n                        counter++;\n            }\n            else if (getBool(Encoder.getKey(\"verified\", _addressList[i]))) {\n                if(_isCompatibleModule(_addressList[i], _securityToken))\n                    counter++;\n            }\n        }\n        address[] memory _tempArray = new address[](counter);\n        counter = 0;\n        for (uint256 j = 0; j < _len; j++) {\n            if (_isCustomModuleAllowed) {\n                if (IOwnable(_addressList[j]).owner() == IOwnable(_securityToken).owner() || getBool(Encoder.getKey(\"verified\", _addressList[j]))) {\n                    if(_isCompatibleModule(_addressList[j], _securityToken)) {\n                        _tempArray[counter] = _addressList[j];\n                        counter ++;\n                    }\n                }\n            }\n            else if (getBool(Encoder.getKey(\"verified\", _addressList[j]))) {\n                if(_isCompatibleModule(_addressList[j], _securityToken)) {\n                    _tempArray[counter] = _addressList[j];\n                    counter ++;\n                }\n            }\n        }\n        return _tempArray;\n    }\n\n    /**\n    * @notice Reclaims all ERC20Basic compatible tokens\n    * @param _tokenContract The address of the token contract\n    */\n    function reclaimERC20(address _tokenContract) external onlyOwner {\n        require(_tokenContract != address(0), \"0x address is invalid\");\n        IERC20 token = IERC20(_tokenContract);\n        uint256 balance = token.balanceOf(address(this));\n        require(token.transfer(owner(), balance),\"token transfer failed\");\n    }\n\n    /**\n     * @notice Called by the owner to pause, triggers stopped state\n     */\n    function pause() external whenNotPaused onlyOwner {\n        set(Encoder.getKey(\"paused\"), true);\n        /*solium-disable-next-line security/no-block-members*/\n        emit Pause(now);\n    }\n\n    /**\n     * @notice Called by the owner to unpause, returns to normal state\n     */\n    function unpause() external whenPaused onlyOwner {\n        set(Encoder.getKey(\"paused\"), false);\n        /*solium-disable-next-line security/no-block-members*/\n        emit Unpause(now);\n    }\n\n    /**\n     * @notice Stores the contract addresses of other key contracts from the PolymathRegistry\n     */\n    function updateFromRegistry() external onlyOwner {\n        address _polymathRegistry = getAddress(Encoder.getKey(\"polymathRegistry\"));\n        set(Encoder.getKey(\"securityTokenRegistry\"), IPolymathRegistry(_polymathRegistry).getAddress(\"SecurityTokenRegistry\"));\n        set(Encoder.getKey(\"featureRegistry\"), IPolymathRegistry(_polymathRegistry).getAddress(\"FeatureRegistry\"));\n        set(Encoder.getKey(\"polyToken\"), IPolymathRegistry(_polymathRegistry).getAddress(\"PolyToken\"));\n    }\n\n    /**\n    * @dev Allows the current owner to transfer control of the contract to a newOwner.\n    * @param _newOwner The address to transfer ownership to.\n    */\n    function transferOwnership(address _newOwner) external onlyOwner {\n        require(_newOwner != address(0), \"Invalid address\");\n        emit OwnershipTransferred(owner(), _newOwner);\n        set(Encoder.getKey(\"owner\"), _newOwner);\n    }\n\n    /**\n     * @notice Gets the owner of the contract\n     * @return address owner\n     */\n    function owner() public view returns(address) {\n        return getAddress(Encoder.getKey(\"owner\"));\n    }\n\n    /**\n     * @notice Checks whether the contract operations is paused or not\n     * @return bool\n     */\n    function isPaused() public view returns(bool) {\n        return getBool(Encoder.getKey(\"paused\"));\n    }\n}\n",
  "sourcePath": "/Users/polymath/polymath-core/contracts/ModuleRegistry.sol",
  "compiler": {
    "name": "solc",
    "version": "0.4.24+commit.e67f0147.Emscripten.clang"
  },
  "schemaVersion": "2.0.1",
  "updatedAt": "2018-12-12T11:18:59.952Z"
}