{
  "contractName": "ModuleRegistry",
  "abi": [
    {
      "constant": true,
      "inputs": [
        {
          "name": "_variable",
          "type": "bytes32"
        }
      ],
      "name": "getBytes32Value",
      "outputs": [
        {
          "name": "",
          "type": "bytes32"
        }
      ],
      "payable": false,
      "stateMutability": "view",
      "type": "function"
    },
    {
      "constant": true,
      "inputs": [
        {
          "name": "_variable",
          "type": "bytes32"
        }
      ],
      "name": "getBytesValue",
      "outputs": [
        {
          "name": "",
          "type": "bytes"
        }
      ],
      "payable": false,
      "stateMutability": "view",
      "type": "function"
    },
    {
      "constant": true,
      "inputs": [
        {
          "name": "_variable",
          "type": "bytes32"
        }
      ],
      "name": "getAddressValue",
      "outputs": [
        {
          "name": "",
          "type": "address"
        }
      ],
      "payable": false,
      "stateMutability": "view",
      "type": "function"
    },
    {
      "constant": true,
      "inputs": [
        {
          "name": "_key",
          "type": "bytes32"
        }
      ],
      "name": "getArrayAddress",
      "outputs": [
        {
          "name": "",
          "type": "address[]"
        }
      ],
      "payable": false,
      "stateMutability": "view",
      "type": "function"
    },
    {
      "constant": true,
      "inputs": [
        {
          "name": "_variable",
          "type": "bytes32"
        }
      ],
      "name": "getBoolValue",
      "outputs": [
        {
          "name": "",
          "type": "bool"
        }
      ],
      "payable": false,
      "stateMutability": "view",
      "type": "function"
    },
    {
      "constant": true,
      "inputs": [
        {
          "name": "_variable",
          "type": "bytes32"
        }
      ],
      "name": "getStringValue",
      "outputs": [
        {
          "name": "",
          "type": "string"
        }
      ],
      "payable": false,
      "stateMutability": "view",
      "type": "function"
    },
    {
      "constant": true,
      "inputs": [
        {
          "name": "_key",
          "type": "bytes32"
        }
      ],
      "name": "getArrayBytes32",
      "outputs": [
        {
          "name": "",
          "type": "bytes32[]"
        }
      ],
      "payable": false,
      "stateMutability": "view",
      "type": "function"
    },
    {
      "constant": true,
      "inputs": [
        {
          "name": "_variable",
          "type": "bytes32"
        }
      ],
      "name": "getUintValue",
      "outputs": [
        {
          "name": "",
          "type": "uint256"
        }
      ],
      "payable": false,
      "stateMutability": "view",
      "type": "function"
    },
    {
      "constant": true,
      "inputs": [
        {
          "name": "_key",
          "type": "bytes32"
        }
      ],
      "name": "getArrayUint",
      "outputs": [
        {
          "name": "",
          "type": "uint256[]"
        }
      ],
      "payable": false,
      "stateMutability": "view",
      "type": "function"
    },
    {
      "inputs": [],
      "payable": false,
      "stateMutability": "nonpayable",
      "type": "constructor"
    },
    {
      "anonymous": false,
      "inputs": [
        {
          "indexed": false,
          "name": "_timestammp",
          "type": "uint256"
        }
      ],
      "name": "Pause",
      "type": "event"
    },
    {
      "anonymous": false,
      "inputs": [
        {
          "indexed": false,
          "name": "_timestamp",
          "type": "uint256"
        }
      ],
      "name": "Unpause",
      "type": "event"
    },
    {
      "anonymous": false,
      "inputs": [
        {
          "indexed": true,
          "name": "_moduleFactory",
          "type": "address"
        },
        {
          "indexed": true,
          "name": "_securityToken",
          "type": "address"
        }
      ],
      "name": "ModuleUsed",
      "type": "event"
    },
    {
      "anonymous": false,
      "inputs": [
        {
          "indexed": true,
          "name": "_moduleFactory",
          "type": "address"
        },
        {
          "indexed": true,
          "name": "_owner",
          "type": "address"
        }
      ],
      "name": "ModuleRegistered",
      "type": "event"
    },
    {
      "anonymous": false,
      "inputs": [
        {
          "indexed": true,
          "name": "_moduleFactory",
          "type": "address"
        },
        {
          "indexed": false,
          "name": "_verified",
          "type": "bool"
        }
      ],
      "name": "ModuleVerified",
      "type": "event"
    },
    {
      "anonymous": false,
      "inputs": [
        {
          "indexed": true,
          "name": "_moduleFactory",
          "type": "address"
        },
        {
          "indexed": true,
          "name": "_decisionMaker",
          "type": "address"
        }
      ],
      "name": "ModuleRemoved",
      "type": "event"
    },
    {
      "anonymous": false,
      "inputs": [
        {
          "indexed": true,
          "name": "previousOwner",
          "type": "address"
        },
        {
          "indexed": true,
          "name": "newOwner",
          "type": "address"
        }
      ],
      "name": "OwnershipTransferred",
      "type": "event"
    },
    {
      "constant": false,
      "inputs": [
        {
          "name": "_polymathRegistry",
          "type": "address"
        },
        {
          "name": "_owner",
          "type": "address"
        }
      ],
      "name": "initialize",
      "outputs": [],
      "payable": true,
      "stateMutability": "payable",
      "type": "function"
    },
    {
      "constant": false,
      "inputs": [
        {
          "name": "_moduleFactory",
          "type": "address"
        }
      ],
      "name": "useModule",
      "outputs": [],
      "payable": false,
      "stateMutability": "nonpayable",
      "type": "function"
    },
    {
      "constant": false,
      "inputs": [
        {
          "name": "_moduleFactory",
          "type": "address"
        }
      ],
      "name": "registerModule",
      "outputs": [],
      "payable": false,
      "stateMutability": "nonpayable",
      "type": "function"
    },
    {
      "constant": false,
      "inputs": [
        {
          "name": "_moduleFactory",
          "type": "address"
        }
      ],
      "name": "removeModule",
      "outputs": [],
      "payable": false,
      "stateMutability": "nonpayable",
      "type": "function"
    },
    {
      "constant": false,
      "inputs": [
        {
          "name": "_moduleFactory",
          "type": "address"
        },
        {
          "name": "_verified",
          "type": "bool"
        }
      ],
      "name": "verifyModule",
      "outputs": [],
      "payable": false,
      "stateMutability": "nonpayable",
      "type": "function"
    },
    {
      "constant": true,
      "inputs": [
        {
          "name": "_moduleType",
          "type": "uint8"
        },
        {
          "name": "_securityToken",
          "type": "address"
        }
      ],
      "name": "getTagsByTypeAndToken",
      "outputs": [
        {
          "name": "",
          "type": "bytes32[]"
        },
        {
          "name": "",
          "type": "address[]"
        }
      ],
      "payable": false,
      "stateMutability": "view",
      "type": "function"
    },
    {
      "constant": true,
      "inputs": [
        {
          "name": "_moduleType",
          "type": "uint8"
        }
      ],
      "name": "getTagsByType",
      "outputs": [
        {
          "name": "",
          "type": "bytes32[]"
        },
        {
          "name": "",
          "type": "address[]"
        }
      ],
      "payable": false,
      "stateMutability": "view",
      "type": "function"
    },
    {
      "constant": true,
      "inputs": [
        {
          "name": "_factoryAddress",
          "type": "address"
        }
      ],
      "name": "getReputationByFactory",
      "outputs": [
        {
          "name": "",
          "type": "address[]"
        }
      ],
      "payable": false,
      "stateMutability": "view",
      "type": "function"
    },
    {
      "constant": true,
      "inputs": [
        {
          "name": "_moduleType",
          "type": "uint8"
        }
      ],
      "name": "getModulesByType",
      "outputs": [
        {
          "name": "",
          "type": "address[]"
        }
      ],
      "payable": false,
      "stateMutability": "view",
      "type": "function"
    },
    {
      "constant": true,
      "inputs": [
        {
          "name": "_moduleType",
          "type": "uint8"
        },
        {
          "name": "_securityToken",
          "type": "address"
        }
      ],
      "name": "getModulesByTypeAndToken",
      "outputs": [
        {
          "name": "",
          "type": "address[]"
        }
      ],
      "payable": false,
      "stateMutability": "view",
      "type": "function"
    },
    {
      "constant": false,
      "inputs": [
        {
          "name": "_tokenContract",
          "type": "address"
        }
      ],
      "name": "reclaimERC20",
      "outputs": [],
      "payable": false,
      "stateMutability": "nonpayable",
      "type": "function"
    },
    {
      "constant": false,
      "inputs": [],
      "name": "pause",
      "outputs": [],
      "payable": false,
      "stateMutability": "nonpayable",
      "type": "function"
    },
    {
      "constant": false,
      "inputs": [],
      "name": "unpause",
      "outputs": [],
      "payable": false,
      "stateMutability": "nonpayable",
      "type": "function"
    },
    {
      "constant": false,
      "inputs": [],
      "name": "updateFromRegistry",
      "outputs": [],
      "payable": false,
      "stateMutability": "nonpayable",
      "type": "function"
    },
    {
      "constant": false,
      "inputs": [
        {
          "name": "_newOwner",
          "type": "address"
        }
      ],
      "name": "transferOwnership",
      "outputs": [],
      "payable": false,
      "stateMutability": "nonpayable",
      "type": "function"
    },
    {
      "constant": true,
      "inputs": [],
      "name": "owner",
      "outputs": [
        {
          "name": "",
          "type": "address"
        }
      ],
      "payable": false,
      "stateMutability": "view",
      "type": "function"
    },
    {
      "constant": true,
      "inputs": [],
      "name": "isPaused",
      "outputs": [
        {
          "name": "",
          "type": "bool"
        }
      ],
      "payable": false,
      "stateMutability": "view",
      "type": "function"
    }
  ],
  "bytecode": "0x608060405234801561001057600080fd5b50614763806100206000396000f30060806040526004361061013a5763ffffffff60e060020a600035041663025ec81a811461013f5780630818a6f0146101695780631a83bff0146101da5780633f4ba83a1461029a57806344bfa56e146102b1578063485cc9551461033e5780634ac24a9a146103585780634c77e5ba146103735780636f3b8ce2146103a75780638456cb59146103bf5780638905fd4f146103d45780638da5cb5b146103f55780638ffa96901461040a578063a063246114610436578063a209a29c14610457578063a8f0d3a71461046f578063ac90b42214610487578063ad64ae4b146104a2578063b187bd26146104c3578063dc659907146104d8578063e82617fb146104f9578063ea393b7514610511578063eac5ab4314610538578063f2fde38b1461055e578063f433262f1461057f578063f6fcbee114610594575b600080fd5b34801561014b57600080fd5b506101576004356105ac565b60408051918252519081900360200190f35b34801561017557600080fd5b5061018a600160a060020a03600435166105be565b60408051602080825283518183015283519192839290830191858101910280838360005b838110156101c65781810151838201526020016101ae565b505050509050019250505060405180910390f35b3480156101e657600080fd5b5061020160ff60043516600160a060020a03602435166105fb565b604051808060200180602001838103835285818151815260200191508051906020019060200280838360005b8381101561024557818101518382015260200161022d565b50505050905001838103825284818151815260200191508051906020019060200280838360005b8381101561028457818101518382015260200161026c565b5050505090500194505050505060405180910390f35b3480156102a657600080fd5b506102af610621565b005b3480156102bd57600080fd5b506102c960043561073f565b6040805160208082528351818301528351919283929083019185019080838360005b838110156103035781810151838201526020016102eb565b50505050905090810190601f1680156103305780820380516001836020036101000a031916815260200191505b509250505060405180910390f35b6102af600160a060020a03600435811690602435166107e0565b34801561036457600080fd5b5061020160ff600435166109fa565b34801561037f57600080fd5b5061038b600435610a1d565b60408051600160a060020a039092168252519081900360200190f35b3480156103b357600080fd5b5061018a600435610a38565b3480156103cb57600080fd5b506102af610aa3565b3480156103e057600080fd5b506102af600160a060020a0360043516610bb9565b34801561040157600080fd5b5061038b610df4565b34801561041657600080fd5b50610422600435610e42565b604080519115158252519081900360200190f35b34801561044257600080fd5b506102af600160a060020a0360043516610e57565b34801561046357600080fd5b506102c96004356116d3565b34801561047b57600080fd5b5061018a60043561173f565b34801561049357600080fd5b5061018a60ff600435166117a1565b3480156104ae57600080fd5b506102af600160a060020a03600435166117d6565b3480156104cf57600080fd5b50610422612693565b3480156104e457600080fd5b506102af600160a060020a03600435166126c4565b34801561050557600080fd5b50610157600435612bb0565b34801561051d57600080fd5b5061018a60ff60043516600160a060020a0360243516612bc2565b34801561054457600080fd5b506102af600160a060020a03600435166024351515613193565b34801561056a57600080fd5b506102af600160a060020a0360043516613311565b34801561058b57600080fd5b506102af61344e565b3480156105a057600080fd5b5061018a600435613771565b60009081526006602052604090205490565b60606105f56105f06040805190810160405280600a8152602001600080516020614618833981519152815250846137d2565b610a38565b92915050565b606080606061060a8585612bc2565b9050610615816138c6565b92509250509250929050565b610629612693565b151561067f576040805160e560020a62461bcd02815260206004820152601460248201527f53686f756c64206e6f7420626520706175736564000000000000000000000000604482015290519081900360640190fd5b610687610df4565b600160a060020a031633146106d4576040805160e560020a62461bcd0281526020600482015260146024820152600080516020614638833981519152604482015290519081900360640190fd5b61070a6107036040805190810160405280600681526020016000805160206145f8833981519152815250613bbc565b6000613c86565b6040805142815290517faaa520fdd7d2c83061d632fa017b0432407e798818af63ea908589fceda39ab79181900360200190a1565b60008181526003602090815260409182902080548351601f60026101006001851615026000190190931692909204918201849004840281018401909452808452606093928301828280156107d45780601f106107a9576101008083540402835291602001916107d4565b820191906000526020600020905b8154815290600101906020018083116107b757829003601f168201915b50505050509050919050565b6108266108216040805190810160405280600b81526020017f696e697469616c69736564000000000000000000000000000000000000000000815250613bbc565b610e42565b1561087b576040805160e560020a62461bcd02815260206004820152601360248201527f616c726561647920696e697469616c697a656400000000000000000000000000604482015290519081900360640190fd5b600160a060020a0381161580159061089b5750600160a060020a03821615155b15156108f1576040805160e560020a62461bcd02815260206004820152601560248201527f3078206164647265737320697320696e76616c69640000000000000000000000604482015290519081900360640190fd5b6109386109326040805190810160405280601081526020017f706f6c796d617468526567697374727900000000000000000000000000000000815250613bbc565b83613ca6565b61097f6109796040805190810160405280600581526020017f6f776e6572000000000000000000000000000000000000000000000000000000815250613bbc565b82613ca6565b6109ae6107036040805190810160405280600681526020016000805160206145f8833981519152815250613bbc565b6109f66109ef6040805190810160405280600b81526020017f696e697469616c69736564000000000000000000000000000000000000000000815250613bbc565b6001613c86565b5050565b6060806060610a08846117a1565b9050610a13816138c6565b9250925050915091565b600090815260026020526040902054600160a060020a031690565b6000818152600960209081526040918290208054835181840281018401909452808452606093928301828280156107d457602002820191906000526020600020905b8154600160a060020a03168152600190910190602001808311610a7a5750505050509050919050565b610aab612693565b15610b00576040805160e560020a62461bcd02815260206004820152600e60248201527f416c726561647920706175736564000000000000000000000000000000000000604482015290519081900360640190fd5b610b08610df4565b600160a060020a03163314610b55576040805160e560020a62461bcd0281526020600482015260146024820152600080516020614638833981519152604482015290519081900360640190fd5b610b846109ef6040805190810160405280600681526020016000805160206145f8833981519152815250613bbc565b6040805142815290517f68b095021b1f40fe513109f513c66692f0b3219aee674a69f4efc57badb8201d9181900360200190a1565b600080610bc4610df4565b600160a060020a03163314610c11576040805160e560020a62461bcd0281526020600482015260146024820152600080516020614638833981519152604482015290519081900360640190fd5b600160a060020a0383161515610c71576040805160e560020a62461bcd02815260206004820152601560248201527f3078206164647265737320697320696e76616c69640000000000000000000000604482015290519081900360640190fd5b604080517f70a082310000000000000000000000000000000000000000000000000000000081523060048201529051849350600160a060020a038416916370a082319160248083019260209291908290030181600087803b158015610cd557600080fd5b505af1158015610ce9573d6000803e3d6000fd5b505050506040513d6020811015610cff57600080fd5b50519050600160a060020a03821663a9059cbb610d1a610df4565b836040518363ffffffff1660e060020a0281526004018083600160a060020a0316600160a060020a0316815260200182815260200192505050602060405180830381600087803b158015610d6d57600080fd5b505af1158015610d81573d6000803e3d6000fd5b505050506040513d6020811015610d9757600080fd5b50511515610def576040805160e560020a62461bcd02815260206004820152601560248201527f746f6b656e207472616e73666572206661696c65640000000000000000000000604482015290519081900360640190fd5b505050565b6000610e3c610e376040805190810160405280600581526020017f6f776e6572000000000000000000000000000000000000000000000000000000815250613bbc565b610a1d565b90505b90565b60009081526004602052604090205460ff1690565b600080600080610e65610df4565b600160a060020a031633600160a060020a0316141561129257610eb3610eae604080519081016040528060088152602001600080516020614658833981519152815250876137d2565b612bb0565b9350831515610f32576040805160e560020a62461bcd02815260206004820152602360248201527f4d6f64756c6520666163746f72792073686f756c64206265207265676973746560448201527f7265640000000000000000000000000000000000000000000000000000000000606482015290519081900360840190fd5b84600160a060020a0316638da5cb5b6040518163ffffffff1660e060020a028152600401602060405180830381600087803b158015610f7057600080fd5b505af1158015610f84573d6000803e3d6000fd5b505050506040513d6020811015610f9a57600080fd5b5051600160a060020a0316331480610fca5750610fb5610df4565b600160a060020a031633600160a060020a0316145b1515611022576040805160e560020a62461bcd02815260206004820152603f60248201526000805160206146b883398151915260448201526000805160206146f8833981519152606482015290519081900360840190fd5b611052610eae6040805190810160405280600f8152602001600080516020614718833981519152815250876137d2565b925060016110866105f06040805190810160405280600a81526020016000805160206146d883398151915281525087613ce1565b510391506110ba6105f06040805190810160405280600a81526020016000805160206146d883398151915281525086613ce1565b8051839081106110c657fe5b602090810290910101519050828214611146576111106111096040805190810160405280600a81526020016000805160206146d883398151915281525086613ce1565b8483613d78565b6111466111406040805190810160405280600f8152602001600080516020614718833981519152815250836137d2565b84613dc8565b61117c6111766040805190810160405280600a81526020016000805160206146d883398151915281525086613ce1565b83613dda565b6111b36111ac604080519081016040528060088152602001600080516020614658833981519152815250876137d2565b6000613dc8565b6111f76111e36040805190810160405280600a8152602001600080516020614618833981519152815250876137d2565b604080516000815260208101909152613eea565b611227610703604080519081016040528060088152602001600080516020614678833981519152815250876137d2565b6112576111ac6040805190810160405280600f8152602001600080516020614718833981519152815250876137d2565b6040513390600160a060020a038716907fd66772358582078947c11fa70e2860b3ffa915277e6181a4aa293072cb57ed3c90600090a36116cc565b61129a612693565b156112ef576040805160e560020a62461bcd02815260206004820152600e60248201527f416c726561647920706175736564000000000000000000000000000000000000604482015290519081900360640190fd5b61131f610eae604080519081016040528060088152602001600080516020614658833981519152815250876137d2565b935083151561139e576040805160e560020a62461bcd02815260206004820152602360248201527f4d6f64756c6520666163746f72792073686f756c64206265207265676973746560448201527f7265640000000000000000000000000000000000000000000000000000000000606482015290519081900360840190fd5b84600160a060020a0316638da5cb5b6040518163ffffffff1660e060020a028152600401602060405180830381600087803b1580156113dc57600080fd5b505af11580156113f0573d6000803e3d6000fd5b505050506040513d602081101561140657600080fd5b5051600160a060020a03163314806114365750611421610df4565b600160a060020a031633600160a060020a0316145b151561148e576040805160e560020a62461bcd02815260206004820152603f60248201526000805160206146b883398151915260448201526000805160206146f8833981519152606482015290519081900360840190fd5b6114be610eae6040805190810160405280600f8152602001600080516020614718833981519152815250876137d2565b925060016114f26105f06040805190810160405280600a81526020016000805160206146d883398151915281525087613ce1565b510391506115266105f06040805190810160405280600a81526020016000805160206146d883398151915281525086613ce1565b80518390811061153257fe5b6020908102909101015190508282146115a5576115756111096040805190810160405280600a81526020016000805160206146d883398151915281525086613ce1565b6115a56111406040805190810160405280600f8152602001600080516020614718833981519152815250836137d2565b6115d56111766040805190810160405280600a81526020016000805160206146d883398151915281525086613ce1565b6116056111ac604080519081016040528060088152602001600080516020614658833981519152815250876137d2565b6116356111e36040805190810160405280600a8152602001600080516020614618833981519152815250876137d2565b611665610703604080519081016040528060088152602001600080516020614678833981519152815250876137d2565b6116956111ac6040805190810160405280600f8152602001600080516020614718833981519152815250876137d2565b6040513390600160a060020a038716907fd66772358582078947c11fa70e2860b3ffa915277e6181a4aa293072cb57ed3c90600090a35b5050505050565b60008181526001602081815260409283902080548451600260001995831615610100029590950190911693909304601f810183900483028401830190945283835260609390918301828280156107d45780601f106107a9576101008083540402835291602001916107d4565b6000818152600760209081526040918290208054835181840281018401909452808452606093928301828280156107d457602002820191906000526020600020905b815481526001909101906020018083116117815750505050509050919050565b60606105f56105f06040805190810160405280600a81526020016000805160206146d88339815191528152508460ff16613ce1565b6000806000606060006117e7610df4565b600160a060020a031633600160a060020a03161415611f3d5761182f610e376040805190810160405280600f81526020016000805160206145d8833981519152815250613bbc565b600160a060020a0316632f0019f26040518163ffffffff1660e060020a028152600401808060200182810382526014815260200180600080516020614698833981519152815250602001915050602060405180830381600087803b15801561189657600080fd5b505af11580156118aa573d6000803e3d6000fd5b505050506040513d60208110156118c057600080fd5b5051156119bc5785600160a060020a0316638da5cb5b6040518163ffffffff1660e060020a028152600401602060405180830381600087803b15801561190557600080fd5b505af1158015611919573d6000803e3d6000fd5b505050506040513d602081101561192f57600080fd5b5051600160a060020a031633148061195f575061194a610df4565b600160a060020a031633600160a060020a0316145b15156119b7576040805160e560020a62461bcd02815260206004820152603f60248201526000805160206146b883398151915260448201526000805160206146f8833981519152606482015290519081900360840190fd5b611a49565b6119c4610df4565b600160a060020a03163314611a49576040805160e560020a62461bcd02815260206004820152602660248201527f4f6e6c79206f776e657220616c6c6f77656420746f207265676973746572206d60448201527f6f64756c65730000000000000000000000000000000000000000000000000000606482015290519081900360840190fd5b611a79610eae604080519081016040528060088152602001600080516020614658833981519152815250886137d2565b15611af4576040805160e560020a62461bcd02815260206004820152602b60248201527f4d6f64756c6520666163746f72792073686f756c64206e6f742062652070726560448201527f2d72656769737465726564000000000000000000000000000000000000000000606482015290519081900360840190fd5b85945084600160a060020a031663b4579d606040518163ffffffff1660e060020a028152600401600060405180830381600087803b158015611b3557600080fd5b505af1158015611b49573d6000803e3d6000fd5b505050506040513d6000823e601f3d908101601f191682016040526020811015611b7257600080fd5b810190808051640100000000811115611b8a57600080fd5b82016020810184811115611b9d57600080fd5b8151856020820283011164010000000082111715611bba57600080fd5b5060019850909550505050505b8151841015611c7f57600092505b83831015611c74578183815181101515611beb57fe5b9060200190602002015160ff168285815181101515611c0657fe5b6020908102909101015160ff161415611c69576040805160e560020a62461bcd02815260206004820152600d60248201527f54797065206d69736d6174636800000000000000000000000000000000000000604482015290519081900360640190fd5b600190920191611bd5565b600190930192611bc7565b81511515611cd7576040805160e560020a62461bcd02815260206004820152601660248201527f466163746f7279206d7573742068617665207479706500000000000000000000604482015290519081900360640190fd5b84600160a060020a031663b4579d606040518163ffffffff1660e060020a028152600401600060405180830381600087803b158015611d1557600080fd5b505af1158015611d29573d6000803e3d6000fd5b505050506040513d6000823e601f3d908101601f191682016040526020811015611d5257600080fd5b810190808051640100000000811115611d6a57600080fd5b82016020810184811115611d7d57600080fd5b8151856020820283011164010000000082111715611d9a57600080fd5b505080519093506000925082109050611daf57fe5b906020019060200201519050611df4611deb604080519081016040528060088152602001600080516020614658833981519152815250886137d2565b8260ff16613dc8565b611e5d611e246040805190810160405280600f8152602001600080516020614718833981519152815250886137d2565b611e576105f06040805190810160405280600a81526020016000805160206146d88339815191528152508560ff16613ce1565b51613dc8565b611e96611e906040805190810160405280600a81526020016000805160206146d88339815191528152508360ff16613ce1565b87613f09565b85600160a060020a0316638da5cb5b6040518163ffffffff1660e060020a028152600401602060405180830381600087803b158015611ed457600080fd5b505af1158015611ee8573d6000803e3d6000fd5b505050506040513d6020811015611efe57600080fd5b5051604051600160a060020a03918216918816907f49220d7268f6ac850e2f0d39ce956e56f086a18cfda1383c05f9c859fdef901290600090a361268b565b611f45612693565b15611f9a576040805160e560020a62461bcd02815260206004820152600e60248201527f416c726561647920706175736564000000000000000000000000000000000000604482015290519081900360640190fd5b611fc9610e376040805190810160405280600f81526020016000805160206145d8833981519152815250613bbc565b600160a060020a0316632f0019f26040518163ffffffff1660e060020a028152600401808060200182810382526014815260200180600080516020614698833981519152815250602001915050602060405180830381600087803b15801561203057600080fd5b505af1158015612044573d6000803e3d6000fd5b505050506040513d602081101561205a57600080fd5b5051156121565785600160a060020a0316638da5cb5b6040518163ffffffff1660e060020a028152600401602060405180830381600087803b15801561209f57600080fd5b505af11580156120b3573d6000803e3d6000fd5b505050506040513d60208110156120c957600080fd5b5051600160a060020a03163314806120f957506120e4610df4565b600160a060020a031633600160a060020a0316145b1515612151576040805160e560020a62461bcd02815260206004820152603f60248201526000805160206146b883398151915260448201526000805160206146f8833981519152606482015290519081900360840190fd5b6121e3565b61215e610df4565b600160a060020a031633146121e3576040805160e560020a62461bcd02815260206004820152602660248201527f4f6e6c79206f776e657220616c6c6f77656420746f207265676973746572206d60448201527f6f64756c65730000000000000000000000000000000000000000000000000000606482015290519081900360840190fd5b612213610eae604080519081016040528060088152602001600080516020614658833981519152815250886137d2565b1561228e576040805160e560020a62461bcd02815260206004820152602b60248201527f4d6f64756c6520666163746f72792073686f756c64206e6f742062652070726560448201527f2d72656769737465726564000000000000000000000000000000000000000000606482015290519081900360840190fd5b85945084600160a060020a031663b4579d606040518163ffffffff1660e060020a028152600401600060405180830381600087803b1580156122cf57600080fd5b505af11580156122e3573d6000803e3d6000fd5b505050506040513d6000823e601f3d908101601f19168201604052602081101561230c57600080fd5b81019080805164010000000081111561232457600080fd5b8201602081018481111561233757600080fd5b815185602082028301116401000000008211171561235457600080fd5b5060019850909550505050505b815184101561241957600092505b8383101561240e57818381518110151561238557fe5b9060200190602002015160ff1682858151811015156123a057fe5b6020908102909101015160ff161415612403576040805160e560020a62461bcd02815260206004820152600d60248201527f54797065206d69736d6174636800000000000000000000000000000000000000604482015290519081900360640190fd5b60019092019161236f565b600190930192612361565b81511515612471576040805160e560020a62461bcd02815260206004820152601660248201527f466163746f7279206d7573742068617665207479706500000000000000000000604482015290519081900360640190fd5b84600160a060020a031663b4579d606040518163ffffffff1660e060020a028152600401600060405180830381600087803b1580156124af57600080fd5b505af11580156124c3573d6000803e3d6000fd5b505050506040513d6000823e601f3d908101601f1916820160405260208110156124ec57600080fd5b81019080805164010000000081111561250457600080fd5b8201602081018481111561251757600080fd5b815185602082028301116401000000008211171561253457600080fd5b50508051909350600092508210905061254957fe5b906020019060200201519050612585611deb604080519081016040528060088152602001600080516020614658833981519152815250886137d2565b6125b5611e246040805190810160405280600f8152602001600080516020614718833981519152815250886137d2565b6125e8611e906040805190810160405280600a81526020016000805160206146d88339815191528152508360ff16613ce1565b85600160a060020a0316638da5cb5b6040518163ffffffff1660e060020a028152600401602060405180830381600087803b15801561262657600080fd5b505af115801561263a573d6000803e3d6000fd5b505050506040513d602081101561265057600080fd5b5051604051600160a060020a03918216918816907f49220d7268f6ac850e2f0d39ce956e56f086a18cfda1383c05f9c859fdef901290600090a35b505050505050565b6000610e3c6108216040805190810160405280600681526020016000805160206145f8833981519152815250613bbc565b612705610e376040805190810160405280601581526020017f7365637572697479546f6b656e52656769737472790000000000000000000000815250613bbc565b600160a060020a031663d300a968336040518263ffffffff1660e060020a0281526004018082600160a060020a0316600160a060020a03168152602001915050602060405180830381600087803b15801561275f57600080fd5b505af1158015612773573d6000803e3d6000fd5b505050506040513d602081101561278957600080fd5b505115612bad576127bf610e376040805190810160405280600f81526020016000805160206145d8833981519152815250613bbc565b600160a060020a0316632f0019f26040518163ffffffff1660e060020a028152600401808060200182810382526014815260200180600080516020614698833981519152815250602001915050602060405180830381600087803b15801561282657600080fd5b505af115801561283a573d6000803e3d6000fd5b505050506040513d602081101561285057600080fd5b505115612a3457612887610821604080519081016040528060088152602001600080516020614678833981519152815250836137d2565b8061298d575033600160a060020a0316638da5cb5b6040518163ffffffff1660e060020a028152600401602060405180830381600087803b1580156128cb57600080fd5b505af11580156128df573d6000803e3d6000fd5b505050506040513d60208110156128f557600080fd5b5051604080517f8da5cb5b0000000000000000000000000000000000000000000000000000000081529051600160a060020a0392831692841691638da5cb5b9160048083019260209291908290030181600087803b15801561295657600080fd5b505af115801561296a573d6000803e3d6000fd5b505050506040513d602081101561298057600080fd5b5051600160a060020a0316145b1515612a2f576040805160e560020a62461bcd02815260206004820152605160248201527f4d6f64756c65466163746f7279206d757374206265207665726966696564206f60448201527f72205365637572697479546f6b656e206f776e6572206d757374206265204d6f60648201527f64756c65466163746f7279206f776e6572000000000000000000000000000000608482015290519081900360a40190fd5b612aba565b612a64610821604080519081016040528060088152602001600080516020614678833981519152815250836137d2565b1515612aba576040805160e560020a62461bcd02815260206004820152601e60248201527f4d6f64756c65466163746f7279206d7573742062652076657269666965640000604482015290519081900360640190fd5b612ac48133613f55565b1515612b40576040805160e560020a62461bcd02815260206004820152603060248201527f56657273696f6e2073686f756c642077697468696e2074686520636f6d70617460448201527f69626c652072616e6765206f6620535400000000000000000000000000000000606482015290519081900360840190fd5b612b76612b706040805190810160405280600a8152602001600080516020614618833981519152815250836137d2565b33613f09565b6040513390600160a060020a038316907ffd0013c5b822aafcc05b8cfdd6dfa336f40c31714b8bef8f2520e7036b9f079890600090a35b50565b60009081526020819052604090205490565b606060006060600080600060606000612c046105f06040805190810160405280600a81526020016000805160206146d88339815191528152508c60ff16613ce1565b519650612c3a6105f06040805190810160405280600a81526020016000805160206146d88339815191528152508c60ff16613ce1565b9550612c6b610e376040805190810160405280600f81526020016000805160206145d8833981519152815250613bbc565b600160a060020a0316632f0019f26040518163ffffffff1660e060020a028152600401808060200182810382526014815260200180600080516020614698833981519152815250602001915050602060405180830381600087803b158015612cd257600080fd5b505af1158015612ce6573d6000803e3d6000fd5b505050506040513d6020811015612cfc57600080fd5b50519450600093508392505b86831015612f00578415612e9b5788600160a060020a0316638da5cb5b6040518163ffffffff1660e060020a028152600401602060405180830381600087803b158015612d5457600080fd5b505af1158015612d68573d6000803e3d6000fd5b505050506040513d6020811015612d7e57600080fd5b50518651600160a060020a0390911690879085908110612d9a57fe5b90602001906020020151600160a060020a0316638da5cb5b6040518163ffffffff1660e060020a028152600401602060405180830381600087803b158015612de157600080fd5b505af1158015612df5573d6000803e3d6000fd5b505050506040513d6020811015612e0b57600080fd5b5051600160a060020a03161480612e645750612e646108216040805190810160405280600881526020016000805160206146788339815191528152508886815181101515612e5557fe5b906020019060200201516137d2565b15612e9657612e8a8684815181101515612e7a57fe5b906020019060200201518a613f55565b15612e96576001909301925b612ef5565b612ed36108216040805190810160405280600881526020016000805160206146788339815191528152508886815181101515612e5557fe5b15612ef557612ee98684815181101515612e7a57fe5b15612ef5576001909301925b600190920191612d08565b83604051908082528060200260200182016040528015612f2a578160200160208202803883390190505b50915060009350600090505b868110156131865784156130e75788600160a060020a0316638da5cb5b6040518163ffffffff1660e060020a028152600401602060405180830381600087803b158015612f8257600080fd5b505af1158015612f96573d6000803e3d6000fd5b505050506040513d6020811015612fac57600080fd5b50518651600160a060020a0390911690879083908110612fc857fe5b90602001906020020151600160a060020a0316638da5cb5b6040518163ffffffff1660e060020a028152600401602060405180830381600087803b15801561300f57600080fd5b505af1158015613023573d6000803e3d6000fd5b505050506040513d602081101561303957600080fd5b5051600160a060020a0316148061308357506130836108216040805190810160405280600881526020016000805160206146788339815191528152508884815181101515612e5557fe5b156130e2576130998682815181101515612e7a57fe5b156130e25785818151811015156130ac57fe5b9060200190602002015182858151811015156130c457fe5b600160a060020a039092166020928302909101909101526001909301925b61317e565b61311f6108216040805190810160405280600881526020016000805160206146788339815191528152508884815181101515612e5557fe5b1561317e576131358682815181101515612e7a57fe5b1561317e57858181518110151561314857fe5b90602001906020020151828581518110151561316057fe5b600160a060020a039092166020928302909101909101526001909301925b600101612f36565b5098975050505050505050565b61319b610df4565b600160a060020a031633146131e8576040805160e560020a62461bcd0281526020600482015260146024820152600080516020614638833981519152604482015290519081900360640190fd5b600061321a610eae604080519081016040528060088152602001600080516020614658833981519152815250856137d2565b1415613296576040805160e560020a62461bcd02815260206004820152602160248201527f4d6f64756c6520666163746f7279206d7573742062652072656769737465726560448201527f6400000000000000000000000000000000000000000000000000000000000000606482015290519081900360840190fd5b6132cc6132c6604080519081016040528060088152602001600080516020614678833981519152815250846137d2565b82613c86565b6040805182151581529051600160a060020a038416917f302d67e66dd951c29fca6e4f7099f292e8cc3537ad6bc4539b77e8b7a6404db2919081900360200190a25050565b613319610df4565b600160a060020a03163314613366576040805160e560020a62461bcd0281526020600482015260146024820152600080516020614638833981519152604482015290519081900360640190fd5b600160a060020a03811615156133c6576040805160e560020a62461bcd02815260206004820152600f60248201527f496e76616c696420616464726573730000000000000000000000000000000000604482015290519081900360640190fd5b80600160a060020a03166133d8610df4565b600160a060020a03167f8be0079c531659141344cd1fd0a4f28419497f9722a3daafe3b4186f6b6457e060405160405180910390a3612bad6109796040805190810160405280600581526020017f6f776e6572000000000000000000000000000000000000000000000000000000815250613bbc565b6000613458610df4565b600160a060020a031633146134a5576040805160e560020a62461bcd0281526020600482015260146024820152600080516020614638833981519152604482015290519081900360640190fd5b6134e6610e376040805190810160405280601081526020017f706f6c796d617468526567697374727900000000000000000000000000000000815250613bbc565b90506135e76135296040805190810160405280601581526020017f7365637572697479546f6b656e52656769737472790000000000000000000000815250613bbc565b604080517fbf40fac1000000000000000000000000000000000000000000000000000000008152602060048201819052601560248301527f5365637572697479546f6b656e5265676973747279000000000000000000000060448301529151600160a060020a0386169263bf40fac192606480820193918290030181600087803b1580156135b657600080fd5b505af11580156135ca573d6000803e3d6000fd5b505050506040513d60208110156135e057600080fd5b5051613ca6565b6136a36136166040805190810160405280600f81526020016000805160206145d8833981519152815250613bbc565b604080517fbf40fac1000000000000000000000000000000000000000000000000000000008152602060048201819052600f60248301527f466561747572655265676973747279000000000000000000000000000000000060448301529151600160a060020a0386169263bf40fac192606480820193918290030181600087803b1580156135b657600080fd5b612bad6136e46040805190810160405280600981526020017f706f6c79546f6b656e0000000000000000000000000000000000000000000000815250613bbc565b604080517fbf40fac1000000000000000000000000000000000000000000000000000000008152602060048201819052600960248301527f506f6c79546f6b656e000000000000000000000000000000000000000000000060448301529151600160a060020a0386169263bf40fac192606480820193918290030181600087803b1580156135b657600080fd5b6000818152600860209081526040918290208054835181840281018401909452808452606093928301828280156107d457602002820191906000526020600020905b8154815260200190600101908083116137b35750505050509050919050565b600082826040516020018083805190602001908083835b602083106138085780518252601f1990920191602091820191016137e9565b6001836020036101000a03801982511681845116808217855250505050505090500182600160a060020a0316600160a060020a03166c01000000000000000000000000028152601401925050506040516020818303038152906040526040518082805190602001908083835b602083106138935780518252601f199092019160209182019101613874565b5181516020939093036101000a600019018019909116921691909117905260405192018290039091209695505050505050565b606080600080808380805b88518510156139ca5788858151811015156138e857fe5b90602001906020020151600160a060020a031663995d9ab76040518163ffffffff1660e060020a028152600401600060405180830381600087803b15801561392f57600080fd5b505af1158015613943573d6000803e3d6000fd5b505050506040513d6000823e601f3d908101601f19168201604052602081101561396c57600080fd5b81019080805164010000000081111561398457600080fd5b8201602081018481111561399757600080fd5b81518560208202830111640100000000821117156139b457600080fd5b50505198909801975050600190950194506138d1565b856040519080825280602002602001820160405280156139f4578160200160208202803883390190505b50925085604051908082528060200260200182016040528015613a21578160200160208202803883390190505b50915060009550600094505b8851851015613bae578885815181101515613a4457fe5b90602001906020020151600160a060020a031663995d9ab76040518163ffffffff1660e060020a028152600401600060405180830381600087803b158015613a8b57600080fd5b505af1158015613a9f573d6000803e3d6000fd5b505050506040513d6000823e601f3d908101601f191682016040526020811015613ac857600080fd5b810190808051640100000000811115613ae057600080fd5b82016020810184811115613af357600080fd5b8151856020820283011164010000000082111715613b1057600080fd5b5060009850909450505050505b8051841015613ba3578084815181101515613b3457fe5b906020019060200201518387815181101515613b4c57fe5b602090810290910101528851899086908110613b6457fe5b906020019060200201518287815181101515613b7c57fe5b600160a060020a039092166020928302909101909101526001958601959390930192613b1d565b600190940193613a2d565b509097909650945050505050565b6000816040516020018082805190602001908083835b60208310613bf15780518252601f199092019160209182019101613bd2565b6001836020036101000a0380198251168184511680821785525050505050509050019150506040516020818303038152906040526040518082805190602001908083835b60208310613c545780518252601f199092019160209182019101613c35565b5181516020939093036101000a6000190180199091169216919091179052604051920182900390912095945050505050565b600091825260046020526040909120805460ff1916911515919091179055565b600091825260026020526040909120805473ffffffffffffffffffffffffffffffffffffffff1916600160a060020a03909216919091179055565b600082826040516020018083805190602001908083835b60208310613d175780518252601f199092019160209182019101613cf8565b51815160001960209485036101000a019081169019919091161790529201938452506040805180850381529382019081905283519394509283925090840190808383602083106138935780518252601f199092019160209182019101613874565b6000838152600960205260409020805482919084908110613d9557fe5b9060005260206000200160006101000a815481600160a060020a030219169083600160a060020a03160217905550505050565b60009182526020829052604090912055565b600082815260096020526040902080548210613e66576040805160e560020a62461bcd02815260206004820152602a60248201527f496e6465782073686f756c64206c657373207468616e206c656e677468206f6660448201527f2074686520617272617900000000000000000000000000000000000000000000606482015290519081900360840190fd5b805481906000198101908110613e7857fe5b6000918252602090912001548154600160a060020a0390911690829084908110613e9e57fe5b6000918252602090912001805473ffffffffffffffffffffffffffffffffffffffff1916600160a060020a0392909216919091179055805460001901613ee482826144f6565b50505050565b60008281526009602090815260409091208251610def9284019061451a565b6000918252600960209081526040832080546001810182559084529220909101805473ffffffffffffffffffffffffffffffffffffffff1916600160a060020a03909216919091179055565b6000606080606060008086600160a060020a0316630d8e6e2c6040518163ffffffff1660e060020a028152600401600060405180830381600087803b158015613f9d57600080fd5b505af1158015613fb1573d6000803e3d6000fd5b505050506040513d6000823e601f3d908101601f191682016040526020811015613fda57600080fd5b810190808051640100000000811115613ff257600080fd5b8201602081018481111561400557600080fd5b815185602082028301116401000000008211171561402257600080fd5b5050929190505050945087600160a060020a0316638677768f6040518163ffffffff1660e060020a028152600401600060405180830381600087803b15801561406a57600080fd5b505af115801561407e573d6000803e3d6000fd5b505050506040513d6000823e601f3d908101601f1916820160405260208110156140a757600080fd5b8101908080516401000000008111156140bf57600080fd5b820160208101848111156140d257600080fd5b81518560208202830111640100000000821117156140ef57600080fd5b5050929190505050935087600160a060020a031663f78629996040518163ffffffff1660e060020a028152600401600060405180830381600087803b15801561413757600080fd5b505af115801561414b573d6000803e3d6000fd5b505050506040513d6000823e601f3d908101601f19168201604052602081101561417457600080fd5b81019080805164010000000081111561418c57600080fd5b8201602081018481111561419f57600080fd5b81518560208202830111640100000000821117156141bc57600080fd5b505092919050505092506141d084866141f4565b91506141dc838661438b565b90508180156141e85750805b98975050505050505050565b60008060008084518651141515614255576040805160e560020a62461bcd02815260206004820152601560248201527f496e707574206c656e677468206d69736d617463680000000000000000000000604482015290519081900360640190fd5b60009250600091505b85518260ff1610156142a257858260ff1681518110151561427b57fe5b9060200190602002015160ff1660001415614297576001909201915b60019091019061425e565b8551831461437d575060009150815b85518160ff16101561435f57858160ff168151811015156142ce57fe5b9060200190602002015160ff16858260ff168151811015156142ec57fe5b9060200190602002015160ff1611156143085760019350614382565b858160ff1681518110151561431957fe5b9060200190602002015160ff16858260ff1681518110151561433757fe5b9060200190602002015160ff1610156143535760009350614382565b600192830192016142b1565b60018651038314156143745760019350614382565b60009350614382565b600193505b50505092915050565b600080600080845186511415156143ec576040805160e560020a62461bcd02815260206004820152601560248201527f496e707574206c656e677468206d69736d617463680000000000000000000000604482015290519081900360640190fd5b60009250600091505b85518260ff16101561443957858260ff1681518110151561441257fe5b9060200190602002015160ff166000141561442e576001909201915b6001909101906143f5565b8551831461437d575060009150815b85518160ff16101561435f57848160ff1681518110151561446557fe5b9060200190602002015160ff16868260ff1681518110151561448357fe5b9060200190602002015160ff16111561449f5760019350614382565b848160ff168151811015156144b057fe5b9060200190602002015160ff16868260ff168151811015156144ce57fe5b9060200190602002015160ff1610156144ea5760009350614382565b60019283019201614448565b815481835581811115610def57600083815260209020610def91810190830161458c565b82805482825590600052602060002090810192821561457c579160200282015b8281111561457c578251825473ffffffffffffffffffffffffffffffffffffffff1916600160a060020a0390911617825560209092019160019091019061453a565b506145889291506145a6565b5090565b610e3f91905b808211156145885760008155600101614592565b610e3f91905b8082111561458857805473ffffffffffffffffffffffffffffffffffffffff191681556001016145ac56006665617475726552656769737472790000000000000000000000000000000000706175736564000000000000000000000000000000000000000000000000000072657075746174696f6e0000000000000000000000000000000000000000000073656e646572206d757374206265206f776e657200000000000000000000000072656769737472790000000000000000000000000000000000000000000000007665726966696564000000000000000000000000000000000000000000000000637573746f6d4d6f64756c6573416c6c6f7765640000000000000000000000006d73672e73656e646572206d75737420626520746865204d6f64756c652046616d6f64756c654c6973740000000000000000000000000000000000000000000063746f7279206f776e6572206f722072656769737472792063757261746f72006d6f64756c654c697374496e6465780000000000000000000000000000000000a165627a7a72305820e9a9861a468d9c730897b94a43851fe806eeb9b817a57f32f4d1b944f31e7fb10029",
  "source": "pragma solidity ^0.4.24;\n\nimport \"./interfaces/IModuleRegistry.sol\";\nimport \"./interfaces/IModuleFactory.sol\";\nimport \"./interfaces/ISecurityTokenRegistry.sol\";\nimport \"./interfaces/IPolymathRegistry.sol\";\nimport \"./interfaces/IFeatureRegistry.sol\";\nimport \"./interfaces/IERC20.sol\";\nimport \"./libraries/VersionUtils.sol\";\nimport \"./storage/EternalStorage.sol\";\nimport \"./libraries/Encoder.sol\";\nimport \"./interfaces/IOwnable.sol\";\nimport \"./interfaces/ISecurityToken.sol\";\n\n/**\n* @title Registry contract to store registered modules\n* @notice Only Polymath can register and verify module factories to make them available for issuers to attach.\n*/\ncontract ModuleRegistry is IModuleRegistry, EternalStorage {\n    /*\n        // Mapping used to hold the type of module factory corresponds to the address of the Module factory contract\n        mapping (address => uint8) public registry;\n\n        // Mapping used to hold the reputation of the factory\n        mapping (address => address[]) public reputation;\n\n        // Mapping containing the list of addresses of Module Factories of a particular type\n        mapping (uint8 => address[]) public moduleList;\n\n        // Mapping to store the index of the Module Factory in the moduleList\n        mapping(address => uint8) private moduleListIndex;\n\n        // contains the list of verified modules\n        mapping (address => bool) public verified;\n\n    */\n\n    ///////////\n    // Events\n    //////////\n\n    // Emit when network becomes paused\n    event Pause(uint256 _timestammp);\n     // Emit when network becomes unpaused\n    event Unpause(uint256 _timestamp);\n    // Emit when Module is used by the SecurityToken\n    event ModuleUsed(address indexed _moduleFactory, address indexed _securityToken);\n    // Emit when the Module Factory gets registered on the ModuleRegistry contract\n    event ModuleRegistered(address indexed _moduleFactory, address indexed _owner);\n    // Emit when the module gets verified by Polymath\n    event ModuleVerified(address indexed _moduleFactory, bool _verified);\n    // Emit when a ModuleFactory is removed by Polymath\n    event ModuleRemoved(address indexed _moduleFactory, address indexed _decisionMaker);\n    // Emit when ownership gets transferred\n    event OwnershipTransferred(address indexed previousOwner, address indexed newOwner);\n\n    ///////////////\n    //// Modifiers\n    ///////////////\n\n    /**\n     * @dev Throws if called by any account other than the owner.\n     */\n    modifier onlyOwner() {\n        require(msg.sender == owner(),\"sender must be owner\");\n        _;\n    }\n\n    /**\n     * @notice Modifier to make a function callable only when the contract is not paused.\n     */\n    modifier whenNotPausedOrOwner() {\n        if (msg.sender == owner())\n            _;\n        else {\n            require(!isPaused(), \"Already paused\");\n            _;\n        }\n    }\n\n    /**\n     * @notice Modifier to make a function callable only when the contract is not paused and ignore is msg.sender is owner.\n     */\n    modifier whenNotPaused() {\n        require(!isPaused(), \"Already paused\");\n        _;\n    }\n\n    /**\n     * @notice Modifier to make a function callable only when the contract is paused.\n     */\n    modifier whenPaused() {\n        require(isPaused(), \"Should not be paused\");\n        _;\n    }\n\n    /////////////////////////////\n    // Initialization\n    /////////////////////////////\n\n    // Constructor\n    constructor () public\n    {\n\n    }\n\n    function initialize(address _polymathRegistry, address _owner) external payable {\n        require(!getBoolValue(Encoder.getKey(\"initialised\")),\"already initialized\");\n        require(_owner != address(0) && _polymathRegistry != address(0), \"0x address is invalid\");\n        set(Encoder.getKey(\"polymathRegistry\"), _polymathRegistry);\n        set(Encoder.getKey(\"owner\"), _owner);\n        set(Encoder.getKey(\"paused\"), false);\n        set(Encoder.getKey(\"initialised\"), true);\n    }\n\n    /**\n     * @notice Called by a SecurityToken to check if the ModuleFactory is verified or appropriate custom module\n     * @dev ModuleFactory reputation increases by one every time it is deployed(used) by a ST.\n     * @dev Any module can be added during token creation without being registered if it is defined in the token proxy deployment contract\n     * @dev The feature switch for custom modules is labelled \"customModulesAllowed\"\n     * @param _moduleFactory is the address of the relevant module factory\n     */\n    function useModule(address _moduleFactory) external {\n        // This if statement is required to be able to add modules from the token proxy contract during deployment\n        if (ISecurityTokenRegistry(getAddressValue(Encoder.getKey(\"securityTokenRegistry\"))).isSecurityToken(msg.sender)) {\n            if (IFeatureRegistry(getAddressValue(Encoder.getKey(\"featureRegistry\"))).getFeatureStatus(\"customModulesAllowed\")) {\n                require(getBoolValue(Encoder.getKey(\"verified\", _moduleFactory)) || IOwnable(_moduleFactory).owner() == IOwnable(msg.sender).owner(),\"ModuleFactory must be verified or SecurityToken owner must be ModuleFactory owner\");\n            } else {\n                require(getBoolValue(Encoder.getKey(\"verified\", _moduleFactory)), \"ModuleFactory must be verified\");\n            }\n            require(_isCompatibleModule(_moduleFactory, msg.sender), \"Version should within the compatible range of ST\");\n            pushArray(Encoder.getKey(\"reputation\", _moduleFactory), msg.sender);\n            emit ModuleUsed(_moduleFactory, msg.sender);\n        }\n    }\n\n    function _isCompatibleModule(address _moduleFactory, address _securityToken) internal view returns(bool) {\n        uint8[] memory _latestVersion = ISecurityToken(_securityToken).getVersion();\n        uint8[] memory _lowerBound = IModuleFactory(_moduleFactory).getLowerSTVersionBounds();\n        uint8[] memory _upperBound = IModuleFactory(_moduleFactory).getUpperSTVersionBounds();\n        bool _isLowerAllowed = VersionUtils.compareLowerBound(_lowerBound, _latestVersion);\n        bool _isUpperAllowed = VersionUtils.compareUpperBound(_upperBound, _latestVersion);\n        return (_isLowerAllowed && _isUpperAllowed);\n    }\n\n    /**\n     * @notice Called by the ModuleFactory owner to register new modules for SecurityTokens to use\n     * @param _moduleFactory is the address of the module factory to be registered\n     */\n    function registerModule(address _moduleFactory) external whenNotPausedOrOwner {\n        if (IFeatureRegistry(getAddressValue(Encoder.getKey(\"featureRegistry\"))).getFeatureStatus(\"customModulesAllowed\")) {\n            require(msg.sender == IOwnable(_moduleFactory).owner() || msg.sender == owner(),\"msg.sender must be the Module Factory owner or registry curator\");\n        } else {\n            require(msg.sender == owner(), \"Only owner allowed to register modules\");\n        }\n        require(getUintValue(Encoder.getKey(\"registry\", _moduleFactory)) == 0, \"Module factory should not be pre-registered\");\n        IModuleFactory moduleFactory = IModuleFactory(_moduleFactory);\n        //Enforce type uniqueness\n        uint256 i;\n        uint256 j;\n        uint8[] memory moduleTypes = moduleFactory.getTypes();\n        for (i = 1; i < moduleTypes.length; i++) {\n            for (j = 0; j < i; j++) {\n                require(moduleTypes[i] != moduleTypes[j], \"Type mismatch\");\n            }\n        }\n        require(moduleTypes.length != 0, \"Factory must have type\");\n        // NB - here we index by the first type of the module.\n        uint8 moduleType = moduleFactory.getTypes()[0];\n        set(Encoder.getKey(\"registry\", _moduleFactory), uint256(moduleType));\n        set(\n            Encoder.getKey(\"moduleListIndex\", _moduleFactory),\n            uint256(getArrayAddress(Encoder.getKey(\"moduleList\", uint256(moduleType))).length)\n        );\n        pushArray(Encoder.getKey(\"moduleList\", uint256(moduleType)), _moduleFactory);\n        emit ModuleRegistered (_moduleFactory, IOwnable(_moduleFactory).owner());\n    }\n\n    /**\n     * @notice Called by the ModuleFactory owner or registry curator to delete a ModuleFactory from the registry\n     * @param _moduleFactory is the address of the module factory to be deleted from the registry\n     */\n    function removeModule(address _moduleFactory) external whenNotPausedOrOwner {\n        uint256 moduleType = getUintValue(Encoder.getKey(\"registry\", _moduleFactory));\n\n        require(moduleType != 0, \"Module factory should be registered\");\n        require(\n            msg.sender == IOwnable(_moduleFactory).owner() || msg.sender == owner(),\n            \"msg.sender must be the Module Factory owner or registry curator\"\n        );\n        uint256 index = getUintValue(Encoder.getKey(\"moduleListIndex\", _moduleFactory));\n        uint256 last = getArrayAddress(Encoder.getKey(\"moduleList\", moduleType)).length - 1;\n        address temp = getArrayAddress(Encoder.getKey(\"moduleList\", moduleType))[last];\n\n        // pop from array and re-order\n        if (index != last) {\n            // moduleList[moduleType][index] = temp;\n            setArrayIndexValue(Encoder.getKey(\"moduleList\", moduleType), index, temp);\n            set(Encoder.getKey(\"moduleListIndex\", temp), index);\n        }\n        deleteArrayAddress(Encoder.getKey(\"moduleList\", moduleType), last);\n\n        // delete registry[_moduleFactory];\n        set(Encoder.getKey(\"registry\", _moduleFactory), uint256(0));\n        // delete reputation[_moduleFactory];\n        setArray(Encoder.getKey(\"reputation\", _moduleFactory), new address[](0));\n        // delete verified[_moduleFactory];\n        set(Encoder.getKey(\"verified\", _moduleFactory), false);\n        // delete moduleListIndex[_moduleFactory];\n        set(Encoder.getKey(\"moduleListIndex\", _moduleFactory), uint256(0));\n        emit ModuleRemoved(_moduleFactory, msg.sender);\n    }\n\n    /**\n    * @notice Called by Polymath to verify Module Factories for SecurityTokens to use.\n    * @notice A module can not be used by an ST unless first approved/verified by Polymath\n    * @notice (The only exception to this is that the author of the module is the owner of the ST)\n    * @notice -> Only if Polymath enabled the feature.\n    * @param _moduleFactory is the address of the module factory to be verified\n    * @return bool\n    */\n    function verifyModule(address _moduleFactory, bool _verified) external onlyOwner {\n        require(getUintValue(Encoder.getKey(\"registry\", _moduleFactory)) != uint256(0), \"Module factory must be registered\");\n        set(Encoder.getKey(\"verified\", _moduleFactory), _verified);\n        emit ModuleVerified(_moduleFactory, _verified);\n    }\n\n    /**\n     * @notice Returns all the tags related to the a module type which are valid for the given token\n     * @param _moduleType is the module type\n     * @param _securityToken is the token\n     * @return list of tags\n     * @return corresponding list of module factories\n     */\n    function getTagsByTypeAndToken(uint8 _moduleType, address _securityToken) external view returns(bytes32[], address[]) {\n        address[] memory modules = getModulesByTypeAndToken(_moduleType, _securityToken);\n        return _tagsByModules(modules);\n    }\n\n    /**\n     * @notice Returns all the tags related to the a module type which are valid for the given token\n     * @param _moduleType is the module type\n     * @return list of tags\n     * @return corresponding list of module factories\n     */\n    function getTagsByType(uint8 _moduleType) external view returns(bytes32[], address[]) {\n        address[] memory modules = getModulesByType(_moduleType);\n        return _tagsByModules(modules);\n    }\n\n    /**\n     * @notice Returns all the tags related to the modules provided\n     * @param _modules modules to return tags for\n     * @return list of tags\n     * @return corresponding list of module factories\n     */\n    function _tagsByModules(address[] _modules) internal view returns(bytes32[], address[]) {\n        uint256 counter = 0;\n        uint256 i;\n        uint256 j;\n        for (i = 0; i < _modules.length; i++) {\n            counter = counter + IModuleFactory(_modules[i]).getTags().length;\n        }\n        bytes32[] memory tags = new bytes32[](counter);\n        address[] memory modules = new address[](counter);\n        bytes32[] memory tempTags;\n        counter = 0;\n        for (i = 0; i < _modules.length; i++) {\n            tempTags = IModuleFactory(_modules[i]).getTags();\n            for (j = 0; j < tempTags.length; j++) {\n                tags[counter] = tempTags[j];\n                modules[counter] = _modules[i];\n                counter++;\n            }\n        }\n        return (tags, modules);\n    }\n\n    /**\n     * @notice Returns the reputation of the entered Module Factory\n     * @param _factoryAddress is the address of the module factory\n     * @return address array which contains the list of securityTokens that use that module factory\n     */\n    function getReputationByFactory(address _factoryAddress) external view returns(address[]) {\n        return getArrayAddress(Encoder.getKey(\"reputation\", _factoryAddress));\n    }\n\n    /**\n     * @notice Returns the list of addresses of Module Factory of a particular type\n     * @param _moduleType Type of Module\n     * @return address array that contains the list of addresses of module factory contracts.\n     */\n    function getModulesByType(uint8 _moduleType) public view returns(address[]) {\n        return getArrayAddress(Encoder.getKey(\"moduleList\", uint256(_moduleType)));\n    }\n\n    /**\n     * @notice Returns the list of available Module factory addresses of a particular type for a given token.\n     * @param _moduleType is the module type to look for\n     * @param _securityToken is the address of SecurityToken\n     * @return address array that contains the list of available addresses of module factory contracts.\n     */\n    function getModulesByTypeAndToken(uint8 _moduleType, address _securityToken) public view returns (address[]) {\n        uint256 _len = getArrayAddress(Encoder.getKey(\"moduleList\", uint256(_moduleType))).length;\n        address[] memory _addressList = getArrayAddress(Encoder.getKey(\"moduleList\", uint256(_moduleType)));\n        bool _isCustomModuleAllowed = IFeatureRegistry(getAddressValue(Encoder.getKey(\"featureRegistry\"))).getFeatureStatus(\"customModulesAllowed\");\n        uint256 counter = 0;\n        for (uint256 i = 0; i < _len; i++) {\n            if (_isCustomModuleAllowed) {\n                if (IOwnable(_addressList[i]).owner() == IOwnable(_securityToken).owner() || getBoolValue(Encoder.getKey(\"verified\", _addressList[i])))\n                    if(_isCompatibleModule(_addressList[i], _securityToken))\n                        counter++;\n            }\n            else if (getBoolValue(Encoder.getKey(\"verified\", _addressList[i]))) {\n                if(_isCompatibleModule(_addressList[i], _securityToken))\n                    counter++;\n            }\n        }\n        address[] memory _tempArray = new address[](counter);\n        counter = 0;\n        for (uint256 j = 0; j < _len; j++) {\n            if (_isCustomModuleAllowed) {\n                if (IOwnable(_addressList[j]).owner() == IOwnable(_securityToken).owner() || getBoolValue(Encoder.getKey(\"verified\", _addressList[j]))) {\n                    if(_isCompatibleModule(_addressList[j], _securityToken)) {\n                        _tempArray[counter] = _addressList[j];\n                        counter ++;\n                    }\n                }\n            }\n            else if (getBoolValue(Encoder.getKey(\"verified\", _addressList[j]))) {\n                if(_isCompatibleModule(_addressList[j], _securityToken)) {\n                    _tempArray[counter] = _addressList[j];\n                    counter ++;\n                }\n            }\n        }\n        return _tempArray;\n    }\n\n    /**\n    * @notice Reclaims all ERC20Basic compatible tokens\n    * @param _tokenContract The address of the token contract\n    */\n    function reclaimERC20(address _tokenContract) external onlyOwner {\n        require(_tokenContract != address(0), \"0x address is invalid\");\n        IERC20 token = IERC20(_tokenContract);\n        uint256 balance = token.balanceOf(address(this));\n        require(token.transfer(owner(), balance),\"token transfer failed\");\n    }\n\n    /**\n     * @notice Called by the owner to pause, triggers stopped state\n     */\n    function pause() external whenNotPaused onlyOwner {\n        set(Encoder.getKey(\"paused\"), true);\n        /*solium-disable-next-line security/no-block-members*/\n        emit Pause(now);\n    }\n\n    /**\n     * @notice Called by the owner to unpause, returns to normal state\n     */\n    function unpause() external whenPaused onlyOwner {\n        set(Encoder.getKey(\"paused\"), false);\n        /*solium-disable-next-line security/no-block-members*/\n        emit Unpause(now);\n    }\n\n    /**\n     * @notice Stores the contract addresses of other key contracts from the PolymathRegistry\n     */\n    function updateFromRegistry() external onlyOwner {\n        address _polymathRegistry = getAddressValue(Encoder.getKey(\"polymathRegistry\"));\n        set(Encoder.getKey(\"securityTokenRegistry\"), IPolymathRegistry(_polymathRegistry).getAddress(\"SecurityTokenRegistry\"));\n        set(Encoder.getKey(\"featureRegistry\"), IPolymathRegistry(_polymathRegistry).getAddress(\"FeatureRegistry\"));\n        set(Encoder.getKey(\"polyToken\"), IPolymathRegistry(_polymathRegistry).getAddress(\"PolyToken\"));\n    }\n\n    /**\n    * @dev Allows the current owner to transfer control of the contract to a newOwner.\n    * @param _newOwner The address to transfer ownership to.\n    */\n    function transferOwnership(address _newOwner) external onlyOwner {\n        require(_newOwner != address(0), \"Invalid address\");\n        emit OwnershipTransferred(owner(), _newOwner);\n        set(Encoder.getKey(\"owner\"), _newOwner);\n    }\n\n    /**\n     * @notice Gets the owner of the contract\n     * @return address owner\n     */\n    function owner() public view returns(address) {\n        return getAddressValue(Encoder.getKey(\"owner\"));\n    }\n\n    /**\n     * @notice Checks whether the contract operations is paused or not\n     * @return bool\n     */\n    function isPaused() public view returns(bool) {\n        return getBoolValue(Encoder.getKey(\"paused\"));\n    }\n}\n",
  "sourcePath": "/Users/federicoelgarte/Polymath/polymath-core/contracts/ModuleRegistry.sol",
  "compiler": {
    "name": "solc",
    "version": "0.4.24+commit.e67f0147.Emscripten.clang"
  },
  "schemaVersion": "2.0.1",
  "updatedAt": "2019-03-22T13:54:14.801Z"
}