{
  "contractName": "PolymathRegistry",
  "abi": [
    {
      "constant": true,
      "inputs": [
        {
          "name": "",
          "type": "bytes32"
        }
      ],
      "name": "storedAddresses",
      "outputs": [
        {
          "name": "",
          "type": "address"
        }
      ],
      "payable": false,
      "stateMutability": "view",
      "type": "function"
    },
    {
      "constant": false,
      "inputs": [],
      "name": "renounceOwnership",
      "outputs": [],
      "payable": false,
      "stateMutability": "nonpayable",
      "type": "function"
    },
    {
      "constant": false,
      "inputs": [
        {
          "name": "_tokenContract",
          "type": "address"
        }
      ],
      "name": "reclaimERC20",
      "outputs": [],
      "payable": false,
      "stateMutability": "nonpayable",
      "type": "function"
    },
    {
      "constant": true,
      "inputs": [],
      "name": "owner",
      "outputs": [
        {
          "name": "",
          "type": "address"
        }
      ],
      "payable": false,
      "stateMutability": "view",
      "type": "function"
    },
    {
      "constant": false,
      "inputs": [
        {
          "name": "_newOwner",
          "type": "address"
        }
      ],
      "name": "transferOwnership",
      "outputs": [],
      "payable": false,
      "stateMutability": "nonpayable",
      "type": "function"
    },
    {
      "anonymous": false,
      "inputs": [
        {
          "indexed": false,
          "name": "_nameKey",
          "type": "string"
        },
        {
          "indexed": true,
          "name": "_oldAddress",
          "type": "address"
        },
        {
          "indexed": true,
          "name": "_newAddress",
          "type": "address"
        }
      ],
      "name": "ChangeAddress",
      "type": "event"
    },
    {
      "anonymous": false,
      "inputs": [
        {
          "indexed": true,
          "name": "previousOwner",
          "type": "address"
        }
      ],
      "name": "OwnershipRenounced",
      "type": "event"
    },
    {
      "anonymous": false,
      "inputs": [
        {
          "indexed": true,
          "name": "previousOwner",
          "type": "address"
        },
        {
          "indexed": true,
          "name": "newOwner",
          "type": "address"
        }
      ],
      "name": "OwnershipTransferred",
      "type": "event"
    },
    {
      "constant": true,
      "inputs": [
        {
          "name": "_nameKey",
          "type": "string"
        }
      ],
      "name": "getAddress",
      "outputs": [
        {
          "name": "",
          "type": "address"
        }
      ],
      "payable": false,
      "stateMutability": "view",
      "type": "function"
    },
    {
      "constant": false,
      "inputs": [
        {
          "name": "_nameKey",
          "type": "string"
        },
        {
          "name": "_newAddress",
          "type": "address"
        }
      ],
      "name": "changeAddress",
      "outputs": [],
      "payable": false,
      "stateMutability": "nonpayable",
      "type": "function"
    }
  ],
  "bytecode": "0x608060405260008054600160a060020a031916331790556106b3806100256000396000f3006080604052600436106100825763ffffffff7c01000000000000000000000000000000000000000000000000000000006000350416636c47e36f8114610087578063715018a6146100bb5780638905fd4f146100d25780638da5cb5b146100f3578063a7dbb40214610108578063bf40fac114610136578063f2fde38b14610156575b600080fd5b34801561009357600080fd5b5061009f600435610177565b60408051600160a060020a039092168252519081900360200190f35b3480156100c757600080fd5b506100d0610192565b005b3480156100de57600080fd5b506100d0600160a060020a03600435166101fe565b3480156100ff57600080fd5b5061009f610431565b34801561011457600080fd5b506100d06024600480358281019291013590600160a060020a03903516610440565b34801561014257600080fd5b5061009f600480356024810191013561051e565b34801561016257600080fd5b506100d0600160a060020a03600435166105e7565b600160205260009081526040902054600160a060020a031681565b600054600160a060020a031633146101a957600080fd5b60008054604051600160a060020a03909116917ff8df31144d9c2f0f6b59d69b8b98abd5459d07f2742c4df920b25aae33c6482091a26000805473ffffffffffffffffffffffffffffffffffffffff19169055565b600080548190600160a060020a0316331461021857600080fd5b600160a060020a038316151561028f57604080517f08c379a000000000000000000000000000000000000000000000000000000000815260206004820152600f60248201527f496e76616c696420616464726573730000000000000000000000000000000000604482015290519081900360640190fd5b604080517f70a082310000000000000000000000000000000000000000000000000000000081523060048201529051849350600160a060020a038416916370a082319160248083019260209291908290030181600087803b1580156102f357600080fd5b505af1158015610307573d6000803e3d6000fd5b505050506040513d602081101561031d57600080fd5b505160008054604080517fa9059cbb000000000000000000000000000000000000000000000000000000008152600160a060020a0392831660048201526024810185905290519394509085169263a9059cbb92604480840193602093929083900390910190829087803b15801561039357600080fd5b505af11580156103a7573d6000803e3d6000fd5b505050506040513d60208110156103bd57600080fd5b5051151561042c57604080517f08c379a000000000000000000000000000000000000000000000000000000000815260206004820152600f60248201527f5472616e73666572206661696c65640000000000000000000000000000000000604482015290519081900360640190fd5b505050565b600054600160a060020a031681565b60008054600160a060020a0316331461045857600080fd5b8383604051808383808284376040805191909301819003812060008181526001602090815290859020548184529083018b9052909750600160a060020a03808a1697501694507f685cb9667751e0a0d68e0ab5e737963ad9d2c743b0191f9aedfe037e723db0ad935089928992508190810184848082843760405192018290039550909350505050a36000908152600160205260409020805473ffffffffffffffffffffffffffffffffffffffff1916600160a060020a03929092169190911790555050565b6000808383604051808383808284376040805191909301819003902060008181526001602052929092205491955050600160a060020a0316151592506105c891505057604080517f08c379a000000000000000000000000000000000000000000000000000000000815260206004820152601360248201527f496e76616c69642061646472657373206b657900000000000000000000000000604482015290519081900360640190fd5b600090815260016020526040902054600160a060020a03169392505050565b600054600160a060020a031633146105fe57600080fd5b6106078161060a565b50565b600160a060020a038116151561061f57600080fd5b60008054604051600160a060020a03808516939216917f8be0079c531659141344cd1fd0a4f28419497f9722a3daafe3b4186f6b6457e091a36000805473ffffffffffffffffffffffffffffffffffffffff1916600160a060020a03929092169190911790555600a165627a7a72305820c96deac11ac686dc8ff9911b9664a5dbd35806b55ae3113412c0992c5ef375380029",
  "source": "pragma solidity ^0.4.24;\n\nimport \"./ReclaimTokens.sol\";\n\n/**\n * @title Core functionality for registry upgradability\n */\ncontract PolymathRegistry is ReclaimTokens {\n\n    mapping (bytes32 => address) public storedAddresses;\n\n    event ChangeAddress(string _nameKey, address indexed _oldAddress, address indexed _newAddress);\n\n    /**\n     * @notice Gets the contract address\n     * @param _nameKey is the key for the contract address mapping\n     * @return address\n     */\n    function getAddress(string _nameKey) external view returns(address) {\n        bytes32 key = keccak256(bytes(_nameKey));\n        require(storedAddresses[key] != address(0), \"Invalid address key\");\n        return storedAddresses[key];\n    }\n\n    /**\n     * @notice Changes the contract address\n     * @param _nameKey is the key for the contract address mapping\n     * @param _newAddress is the new contract address\n     */\n    function changeAddress(string _nameKey, address _newAddress) external onlyOwner {\n        bytes32 key = keccak256(bytes(_nameKey));\n        emit ChangeAddress(_nameKey, storedAddresses[key], _newAddress);\n        storedAddresses[key] = _newAddress;\n    }\n\n\n}\n",
  "sourcePath": "/Users/polymath/polymath-core/contracts/PolymathRegistry.sol",
  "compiler": {
    "name": "solc",
    "version": "0.4.24+commit.e67f0147.Emscripten.clang"
  },
  "schemaVersion": "2.0.1",
  "updatedAt": "2019-01-02T17:07:05.755Z"
}