{
  "contractName": "PolyTokenFaucet",
  "abi": [
    {
      "constant": true,
      "inputs": [],
      "name": "name",
      "outputs": [
        {
          "name": "",
          "type": "string"
        }
      ],
      "payable": false,
      "stateMutability": "view",
      "type": "function"
    },
    {
      "constant": true,
      "inputs": [],
      "name": "decimals",
      "outputs": [
        {
          "name": "",
          "type": "uint8"
        }
      ],
      "payable": false,
      "stateMutability": "view",
      "type": "function"
    },
    {
      "constant": true,
      "inputs": [],
      "name": "symbol",
      "outputs": [
        {
          "name": "",
          "type": "string"
        }
      ],
      "payable": false,
      "stateMutability": "view",
      "type": "function"
    },
    {
      "inputs": [],
      "payable": false,
      "stateMutability": "nonpayable",
      "type": "constructor"
    },
    {
      "anonymous": false,
      "inputs": [
        {
          "indexed": true,
          "name": "from",
          "type": "address"
        },
        {
          "indexed": true,
          "name": "to",
          "type": "address"
        },
        {
          "indexed": false,
          "name": "value",
          "type": "uint256"
        }
      ],
      "name": "Transfer",
      "type": "event"
    },
    {
      "anonymous": false,
      "inputs": [
        {
          "indexed": true,
          "name": "owner",
          "type": "address"
        },
        {
          "indexed": true,
          "name": "spender",
          "type": "address"
        },
        {
          "indexed": false,
          "name": "value",
          "type": "uint256"
        }
      ],
      "name": "Approval",
      "type": "event"
    },
    {
      "constant": false,
      "inputs": [
        {
          "name": "_amount",
          "type": "uint256"
        },
        {
          "name": "_recipient",
          "type": "address"
        }
      ],
      "name": "getTokens",
      "outputs": [
        {
          "name": "",
          "type": "bool"
        }
      ],
      "payable": false,
      "stateMutability": "nonpayable",
      "type": "function"
    },
    {
      "constant": false,
      "inputs": [
        {
          "name": "_to",
          "type": "address"
        },
        {
          "name": "_value",
          "type": "uint256"
        }
      ],
      "name": "transfer",
      "outputs": [
        {
          "name": "",
          "type": "bool"
        }
      ],
      "payable": false,
      "stateMutability": "nonpayable",
      "type": "function"
    },
    {
      "constant": false,
      "inputs": [
        {
          "name": "_from",
          "type": "address"
        },
        {
          "name": "_to",
          "type": "address"
        },
        {
          "name": "_value",
          "type": "uint256"
        }
      ],
      "name": "transferFrom",
      "outputs": [
        {
          "name": "",
          "type": "bool"
        }
      ],
      "payable": false,
      "stateMutability": "nonpayable",
      "type": "function"
    },
    {
      "constant": true,
      "inputs": [
        {
          "name": "_owner",
          "type": "address"
        }
      ],
      "name": "balanceOf",
      "outputs": [
        {
          "name": "balance",
          "type": "uint256"
        }
      ],
      "payable": false,
      "stateMutability": "view",
      "type": "function"
    },
    {
      "constant": false,
      "inputs": [
        {
          "name": "_spender",
          "type": "address"
        },
        {
          "name": "_value",
          "type": "uint256"
        }
      ],
      "name": "approve",
      "outputs": [
        {
          "name": "",
          "type": "bool"
        }
      ],
      "payable": false,
      "stateMutability": "nonpayable",
      "type": "function"
    },
    {
      "constant": true,
      "inputs": [
        {
          "name": "_owner",
          "type": "address"
        },
        {
          "name": "_spender",
          "type": "address"
        }
      ],
      "name": "allowance",
      "outputs": [
        {
          "name": "remaining",
          "type": "uint256"
        }
      ],
      "payable": false,
      "stateMutability": "view",
      "type": "function"
    },
    {
      "constant": true,
      "inputs": [],
      "name": "totalSupply",
      "outputs": [
        {
          "name": "",
          "type": "uint256"
        }
      ],
      "payable": false,
      "stateMutability": "view",
      "type": "function"
    },
    {
      "constant": false,
      "inputs": [
        {
          "name": "_spender",
          "type": "address"
        },
        {
          "name": "_addedValue",
          "type": "uint256"
        }
      ],
      "name": "increaseApproval",
      "outputs": [
        {
          "name": "",
          "type": "bool"
        }
      ],
      "payable": false,
      "stateMutability": "nonpayable",
      "type": "function"
    },
    {
      "constant": false,
      "inputs": [
        {
          "name": "_spender",
          "type": "address"
        },
        {
          "name": "_subtractedValue",
          "type": "uint256"
        }
      ],
      "name": "decreaseApproval",
      "outputs": [
        {
          "name": "",
          "type": "bool"
        }
      ],
      "payable": false,
      "stateMutability": "nonpayable",
      "type": "function"
    }
  ],
  "bytecode": "0x60c0604052601060808190527f506f6c796d617468204e6574776f726b0000000000000000000000000000000060a090815261003e91600191906100fd565b506040805180820190915260048082527f504f4c59000000000000000000000000000000000000000000000000000000006020909201918252610083916003916100fd565b5034801561009057600080fd5b5060028054601260ff19909116179081905560ff16600a0a620f42400260008181553380825260046020908152604080842085905580519485525191937fddf252ad1be2c89b69c2b068fc378daa952ba7f163c4a11628f55a4df523b3ef929081900390910190a3610198565b828054600181600116156101000203166002900490600052602060002090601f016020900481019282601f1061013e57805160ff191683800117855561016b565b8280016001018555821561016b579182015b8281111561016b578251825591602001919060010190610150565b5061017792915061017b565b5090565b61019591905b808211156101775760008155600101610181565b90565b610b28806101a76000396000f3006080604052600436106100b95763ffffffff7c010000000000000000000000000000000000000000000000000000000060003504166306fdde0381146100be578063095ea7b31461014857806318160ddd1461018057806323b872dd146101a75780632570e31e146101d1578063313ce567146101f5578063661884631461022057806370a082311461024457806395d89b4114610265578063a9059cbb1461027a578063d73dd6231461029e578063dd62ed3e146102c2575b600080fd5b3480156100ca57600080fd5b506100d36102e9565b6040805160208082528351818301528351919283929083019185019080838360005b8381101561010d5781810151838201526020016100f5565b50505050905090810190601f16801561013a5780820380516001836020036101000a031916815260200191505b509250505060405180910390f35b34801561015457600080fd5b5061016c600160a060020a0360043516602435610376565b604080519115158252519081900360200190f35b34801561018c57600080fd5b506101956103dc565b60408051918252519081900360200190f35b3480156101b357600080fd5b5061016c600160a060020a03600435811690602435166044356103e2565b3480156101dd57600080fd5b5061016c600435600160a060020a036024351661063c565b34801561020157600080fd5b5061020a6107f4565b6040805160ff9092168252519081900360200190f35b34801561022c57600080fd5b5061016c600160a060020a03600435166024356107fd565b34801561025057600080fd5b50610195600160a060020a03600435166108ed565b34801561027157600080fd5b506100d3610908565b34801561028657600080fd5b5061016c600160a060020a0360043516602435610963565b3480156102aa57600080fd5b5061016c600160a060020a0360043516602435610a13565b3480156102ce57600080fd5b50610195600160a060020a0360043581169060243516610aac565b60018054604080516020600284861615610100026000190190941693909304601f8101849004840282018401909252818152929183018282801561036e5780601f106103435761010080835404028352916020019161036e565b820191906000526020600020905b81548152906001019060200180831161035157829003601f168201915b505050505081565b336000818152600560209081526040808320600160a060020a038716808552908352818420869055815186815291519394909390927f8c5be1e5ebec7d5bd14f71427d1e84f3dd0314c0f7b2291e5b200ac8c7c3b925928290030190a350600192915050565b60005490565b6000600160a060020a0383161515610444576040805160e560020a62461bcd02815260206004820152600f60248201527f496e76616c696420616464726573730000000000000000000000000000000000604482015290519081900360640190fd5b600160a060020a0384166000908152600460205260409020548211156104b4576040805160e560020a62461bcd02815260206004820181905260248201527f496e73756666696369656e7420746f6b656e73207472616e7366657261626c65604482015290519081900360640190fd5b600160a060020a038416600090815260056020908152604080832033845290915290205482111561052f576040805160e560020a62461bcd02815260206004820152601d60248201527f496e73756666696369656e7420746f6b656e7320616c6c6f7761626c65000000604482015290519081900360640190fd5b600160a060020a038416600090815260046020526040902054610558908363ffffffff610ad716565b600160a060020a03808616600090815260046020526040808220939093559085168152205461058d908363ffffffff610ae916565b600160a060020a0380851660009081526004602090815260408083209490945591871681526005825282812033825290915220546105d1908363ffffffff610ad716565b600160a060020a03808616600081815260056020908152604080832033845282529182902094909455805186815290519287169391927fddf252ad1be2c89b69c2b068fc378daa952ba7f163c4a11628f55a4df523b3ef929181900390910190a35060019392505050565b60025460009060ff16600a0a620f4240028311156106ca576040805160e560020a62461bcd02815260206004820152602260248201527f416d6f756e742073686f756c64206e6f74206578636565642031206d696c6c6960448201527f6f6e000000000000000000000000000000000000000000000000000000000000606482015290519081900360840190fd5b600160a060020a0382161515610750576040805160e560020a62461bcd02815260206004820152602260248201527f526563697069656e7420616464726573732063616e206e6f7420626520656d7060448201527f7479000000000000000000000000000000000000000000000000000000000000606482015290519081900360840190fd5b600160a060020a038216600090815260046020526040902054610779908463ffffffff610ae916565b600160a060020a038316600090815260046020526040812091909155546107a6908463ffffffff610ae916565b6000908155604080518581529051600160a060020a03851692917fddf252ad1be2c89b69c2b068fc378daa952ba7f163c4a11628f55a4df523b3ef919081900360200190a350600192915050565b60025460ff1681565b336000908152600560209081526040808320600160a060020a03861684529091528120548083111561085257336000908152600560209081526040808320600160a060020a0388168452909152812055610887565b610862818463ffffffff610ad716565b336000908152600560209081526040808320600160a060020a03891684529091529020555b336000818152600560209081526040808320600160a060020a0389168085529083529281902054815190815290519293927f8c5be1e5ebec7d5bd14f71427d1e84f3dd0314c0f7b2291e5b200ac8c7c3b925929181900390910190a35060019392505050565b600160a060020a031660009081526004602052604090205490565b6003805460408051602060026001851615610100026000190190941693909304601f8101849004840282018401909252818152929183018282801561036e5780601f106103435761010080835404028352916020019161036e565b33600090815260046020526040812054610983908363ffffffff610ad716565b3360009081526004602052604080822092909255600160a060020a038516815220546109b5908363ffffffff610ae916565b600160a060020a0384166000818152600460209081526040918290209390935580518581529051919233927fddf252ad1be2c89b69c2b068fc378daa952ba7f163c4a11628f55a4df523b3ef9281900390910190a350600192915050565b336000908152600560209081526040808320600160a060020a0386168452909152812054610a47908363ffffffff610ae916565b336000818152600560209081526040808320600160a060020a0389168085529083529281902085905580519485525191937f8c5be1e5ebec7d5bd14f71427d1e84f3dd0314c0f7b2291e5b200ac8c7c3b925929081900390910190a350600192915050565b600160a060020a03918216600090815260056020908152604080832093909416825291909152205490565b600082821115610ae357fe5b50900390565b81810182811015610af657fe5b929150505600a165627a7a723058202608498216c153c636047d544677df0890e8c249a820f08f8a57d2e3cbcc5f7b0029",
  "source": "pragma solidity ^0.4.24;\n\nimport \"openzeppelin-solidity/contracts/math/SafeMath.sol\";\n\n/*\n POLY token faucet is only used on testnet for testing purposes\n !!!! NOT INTENDED TO BE USED ON MAINNET !!!\n*/\n\ncontract PolyTokenFaucet {\n\n    using SafeMath for uint256;\n    uint256 totalSupply_;\n    string public name = \"Polymath Network\";\n    uint8 public decimals;\n    string public symbol = \"POLY\";\n\n    mapping(address => uint256) balances;\n    mapping(address => mapping(address => uint256)) allowed;\n\n    event Transfer(address indexed from, address indexed to, uint256 value);\n    event Approval(address indexed owner, address indexed spender, uint256 value);\n\n    constructor() public {\n        decimals = 18;\n        totalSupply_ = 1000000 * uint256(10)**decimals;\n        balances[msg.sender] = totalSupply_;\n        emit Transfer(address(0), msg.sender, totalSupply_);\n    }\n\n    /* Token faucet - Not part of the ERC20 standard */\n    function getTokens(uint256 _amount, address _recipient) public returns (bool) {\n        require(_amount <= 1000000 * uint256(10)**decimals, \"Amount should not exceed 1 million\");\n        require(_recipient != address(0), \"Recipient address can not be empty\");\n        balances[_recipient] = balances[_recipient].add(_amount);\n        totalSupply_ = totalSupply_.add(_amount);\n        emit Transfer(address(0), _recipient, _amount);\n        return true;\n    }\n\n    /**\n     * @notice Sends `_value` tokens to `_to` from `msg.sender`\n     * @param _to The address of the recipient\n     * @param _value The amount of token to be transferred\n     * @return Whether the transfer was successful or not\n     */\n    function transfer(address _to, uint256 _value) public returns (bool) {\n        balances[msg.sender] = balances[msg.sender].sub(_value);\n        balances[_to] = balances[_to].add(_value);\n        emit Transfer(msg.sender, _to, _value);\n        return true;\n    }\n\n    /**\n     * @notice sends `_value` tokens to `_to` from `_from` with the condition it is approved by `_from`\n     * @param _from The address of the sender\n     * @param _to The address of the recipient\n     * @param _value The amount of token to be transferred\n     * @return Whether the transfer was successful or not\n     */\n    function transferFrom(address _from, address _to, uint256 _value) public returns (bool) {\n        require(_to != address(0), \"Invalid address\");\n        require(_value <= balances[_from], \"Insufficient tokens transferable\");\n        require(_value <= allowed[_from][msg.sender], \"Insufficient tokens allowable\");\n\n        balances[_from] = balances[_from].sub(_value);\n        balances[_to] = balances[_to].add(_value);\n        allowed[_from][msg.sender] = allowed[_from][msg.sender].sub(_value);\n        emit Transfer(_from, _to, _value);\n        return true;\n    }\n\n    /**\n     * @notice Returns the balance of a token holder\n     * @param _owner The address from which the balance will be retrieved\n     * @return The balance\n     */\n    function balanceOf(address _owner) public view returns (uint256 balance) {\n        return balances[_owner];\n    }\n\n    /**\n     * @notice Used by `msg.sender` to approve `_spender` to spend `_value` tokens\n     * @param _spender The address of the account able to transfer the tokens\n     * @param _value The amount of tokens to be approved for transfer\n     * @return Whether the approval was successful or not\n     */\n    function approve(address _spender, uint256 _value) public returns (bool) {\n        allowed[msg.sender][_spender] = _value;\n        emit Approval(msg.sender, _spender, _value);\n        return true;\n    }\n\n    /**\n     * @param _owner The address of the account owning tokens\n     * @param _spender The address of the account able to transfer the tokens\n     * @return Amount of remaining tokens allowed to be spent\n     */\n    function allowance(address _owner, address _spender) public view returns (uint256 remaining) {\n        return allowed[_owner][_spender];\n    }\n\n    function totalSupply() public view returns (uint256) {\n        return totalSupply_;\n    }\n\n    /**\n     * @dev Increases the amount of tokens that an owner allowed to a spender.\n     * approve should be called when allowed[_spender] == 0. To increment\n     * allowed value, it is better to use this function to avoid 2 calls (and wait until\n     * the first transaction is mined)\n     * From MonolithDAO Token.sol\n     * @param _spender The address which will spend the funds.\n     * @param _addedValue The amount of tokens to increase the allowance by.\n     */\n    function increaseApproval(\n        address _spender,\n        uint _addedValue\n    )\n        public\n        returns (bool)\n    {\n        allowed[msg.sender][_spender] = (\n        allowed[msg.sender][_spender].add(_addedValue));\n        emit Approval(msg.sender, _spender, allowed[msg.sender][_spender]);\n        return true;\n    }\n\n    /**\n    * @dev Decrease the amount of tokens that an owner allowed to a spender.\n    *\n    * approve should be called when allowed[_spender] == 0. To decrement\n    * allowed value, it is better to use this function to avoid 2 calls (and wait until\n    * the first transaction is mined)\n    * From MonolithDAO Token.sol\n    * @param _spender The address which will spend the funds.\n    * @param _subtractedValue The amount of tokens to decrease the allowance by.\n    */\n    function decreaseApproval(\n        address _spender,\n        uint _subtractedValue\n    )\n        public\n        returns (bool)\n    {\n        uint oldValue = allowed[msg.sender][_spender];\n        if (_subtractedValue > oldValue) {\n            allowed[msg.sender][_spender] = 0;\n        } else {\n            allowed[msg.sender][_spender] = oldValue.sub(_subtractedValue);\n        }\n        emit Approval(msg.sender, _spender, allowed[msg.sender][_spender]);\n        return true;\n    }\n\n}\n",
  "sourcePath": "/Users/polymath/polymath-core/contracts/mocks/PolyTokenFaucet.sol",
  "compiler": {
    "name": "solc",
    "version": "0.4.24+commit.e67f0147.Emscripten.clang"
  },
  "schemaVersion": "2.0.1",
  "updatedAt": "2019-01-08T14:32:01.258Z"
}