{
  "contractName": "SecurityToken",
  "abi": [
    {
      "constant": true,
      "inputs": [],
      "name": "name",
      "outputs": [
        {
          "name": "",
          "type": "string"
        }
      ],
      "payable": false,
      "stateMutability": "view",
      "type": "function"
    },
    {
      "constant": false,
      "inputs": [
        {
          "name": "_spender",
          "type": "address"
        },
        {
          "name": "_value",
          "type": "uint256"
        }
      ],
      "name": "approve",
      "outputs": [
        {
          "name": "",
          "type": "bool"
        }
      ],
      "payable": false,
      "stateMutability": "nonpayable",
      "type": "function"
    },
    {
      "constant": true,
      "inputs": [],
      "name": "totalSupply",
      "outputs": [
        {
          "name": "",
          "type": "uint256"
        }
      ],
      "payable": false,
      "stateMutability": "view",
      "type": "function"
    },
    {
      "constant": true,
      "inputs": [],
      "name": "decimals",
      "outputs": [
        {
          "name": "",
          "type": "uint8"
        }
      ],
      "payable": false,
      "stateMutability": "view",
      "type": "function"
    },
    {
      "constant": true,
      "inputs": [],
      "name": "currentCheckpointId",
      "outputs": [
        {
          "name": "",
          "type": "uint256"
        }
      ],
      "payable": false,
      "stateMutability": "view",
      "type": "function"
    },
    {
      "constant": true,
      "inputs": [],
      "name": "granularity",
      "outputs": [
        {
          "name": "",
          "type": "uint256"
        }
      ],
      "payable": false,
      "stateMutability": "view",
      "type": "function"
    },
    {
      "constant": false,
      "inputs": [
        {
          "name": "_spender",
          "type": "address"
        },
        {
          "name": "_subtractedValue",
          "type": "uint256"
        }
      ],
      "name": "decreaseApproval",
      "outputs": [
        {
          "name": "",
          "type": "bool"
        }
      ],
      "payable": false,
      "stateMutability": "nonpayable",
      "type": "function"
    },
    {
      "constant": true,
      "inputs": [],
      "name": "polyToken",
      "outputs": [
        {
          "name": "",
          "type": "address"
        }
      ],
      "payable": false,
      "stateMutability": "view",
      "type": "function"
    },
    {
      "constant": true,
      "inputs": [
        {
          "name": "_owner",
          "type": "address"
        }
      ],
      "name": "balanceOf",
      "outputs": [
        {
          "name": "",
          "type": "uint256"
        }
      ],
      "payable": false,
      "stateMutability": "view",
      "type": "function"
    },
    {
      "constant": false,
      "inputs": [],
      "name": "renounceOwnership",
      "outputs": [],
      "payable": false,
      "stateMutability": "nonpayable",
      "type": "function"
    },
    {
      "constant": true,
      "inputs": [],
      "name": "polymathRegistry",
      "outputs": [
        {
          "name": "",
          "type": "address"
        }
      ],
      "payable": false,
      "stateMutability": "view",
      "type": "function"
    },
    {
      "constant": true,
      "inputs": [],
      "name": "controllerDisabled",
      "outputs": [
        {
          "name": "",
          "type": "bool"
        }
      ],
      "payable": false,
      "stateMutability": "view",
      "type": "function"
    },
    {
      "constant": true,
      "inputs": [],
      "name": "owner",
      "outputs": [
        {
          "name": "",
          "type": "address"
        }
      ],
      "payable": false,
      "stateMutability": "view",
      "type": "function"
    },
    {
      "constant": true,
      "inputs": [],
      "name": "symbol",
      "outputs": [
        {
          "name": "",
          "type": "string"
        }
      ],
      "payable": false,
      "stateMutability": "view",
      "type": "function"
    },
    {
      "constant": true,
      "inputs": [],
      "name": "mintingFrozen",
      "outputs": [
        {
          "name": "",
          "type": "bool"
        }
      ],
      "payable": false,
      "stateMutability": "view",
      "type": "function"
    },
    {
      "constant": true,
      "inputs": [],
      "name": "moduleRegistry",
      "outputs": [
        {
          "name": "",
          "type": "address"
        }
      ],
      "payable": false,
      "stateMutability": "view",
      "type": "function"
    },
    {
      "constant": true,
      "inputs": [],
      "name": "featureRegistry",
      "outputs": [
        {
          "name": "",
          "type": "address"
        }
      ],
      "payable": false,
      "stateMutability": "view",
      "type": "function"
    },
    {
      "constant": true,
      "inputs": [],
      "name": "securityTokenRegistry",
      "outputs": [
        {
          "name": "",
          "type": "address"
        }
      ],
      "payable": false,
      "stateMutability": "view",
      "type": "function"
    },
    {
      "constant": true,
      "inputs": [],
      "name": "tokenDetails",
      "outputs": [
        {
          "name": "",
          "type": "string"
        }
      ],
      "payable": false,
      "stateMutability": "view",
      "type": "function"
    },
    {
      "constant": false,
      "inputs": [
        {
          "name": "_spender",
          "type": "address"
        },
        {
          "name": "_addedValue",
          "type": "uint256"
        }
      ],
      "name": "increaseApproval",
      "outputs": [
        {
          "name": "",
          "type": "bool"
        }
      ],
      "payable": false,
      "stateMutability": "nonpayable",
      "type": "function"
    },
    {
      "constant": true,
      "inputs": [
        {
          "name": "_owner",
          "type": "address"
        },
        {
          "name": "_spender",
          "type": "address"
        }
      ],
      "name": "allowance",
      "outputs": [
        {
          "name": "",
          "type": "uint256"
        }
      ],
      "payable": false,
      "stateMutability": "view",
      "type": "function"
    },
    {
      "constant": true,
      "inputs": [],
      "name": "transfersFrozen",
      "outputs": [
        {
          "name": "",
          "type": "bool"
        }
      ],
      "payable": false,
      "stateMutability": "view",
      "type": "function"
    },
    {
      "constant": false,
      "inputs": [
        {
          "name": "_newOwner",
          "type": "address"
        }
      ],
      "name": "transferOwnership",
      "outputs": [],
      "payable": false,
      "stateMutability": "nonpayable",
      "type": "function"
    },
    {
      "constant": false,
      "inputs": [],
      "name": "updateFromRegistry",
      "outputs": [],
      "payable": false,
      "stateMutability": "nonpayable",
      "type": "function"
    },
    {
      "constant": true,
      "inputs": [],
      "name": "controller",
      "outputs": [
        {
          "name": "",
          "type": "address"
        }
      ],
      "payable": false,
      "stateMutability": "view",
      "type": "function"
    },
    {
      "inputs": [
        {
          "name": "_name",
          "type": "string"
        },
        {
          "name": "_symbol",
          "type": "string"
        },
        {
          "name": "_decimals",
          "type": "uint8"
        },
        {
          "name": "_granularity",
          "type": "uint256"
        },
        {
          "name": "_tokenDetails",
          "type": "string"
        },
        {
          "name": "_polymathRegistry",
          "type": "address"
        }
      ],
      "payable": false,
      "stateMutability": "nonpayable",
      "type": "constructor"
    },
    {
      "anonymous": false,
      "inputs": [
        {
          "indexed": false,
          "name": "_types",
          "type": "uint8[]"
        },
        {
          "indexed": false,
          "name": "_name",
          "type": "bytes32"
        },
        {
          "indexed": false,
          "name": "_moduleFactory",
          "type": "address"
        },
        {
          "indexed": false,
          "name": "_module",
          "type": "address"
        },
        {
          "indexed": false,
          "name": "_moduleCost",
          "type": "uint256"
        },
        {
          "indexed": false,
          "name": "_budget",
          "type": "uint256"
        },
        {
          "indexed": false,
          "name": "_timestamp",
          "type": "uint256"
        }
      ],
      "name": "ModuleAdded",
      "type": "event"
    },
    {
      "anonymous": false,
      "inputs": [
        {
          "indexed": false,
          "name": "_oldDetails",
          "type": "string"
        },
        {
          "indexed": false,
          "name": "_newDetails",
          "type": "string"
        }
      ],
      "name": "UpdateTokenDetails",
      "type": "event"
    },
    {
      "anonymous": false,
      "inputs": [
        {
          "indexed": false,
          "name": "_oldGranularity",
          "type": "uint256"
        },
        {
          "indexed": false,
          "name": "_newGranularity",
          "type": "uint256"
        }
      ],
      "name": "GranularityChanged",
      "type": "event"
    },
    {
      "anonymous": false,
      "inputs": [
        {
          "indexed": false,
          "name": "_types",
          "type": "uint8[]"
        },
        {
          "indexed": false,
          "name": "_module",
          "type": "address"
        },
        {
          "indexed": false,
          "name": "_timestamp",
          "type": "uint256"
        }
      ],
      "name": "ModuleArchived",
      "type": "event"
    },
    {
      "anonymous": false,
      "inputs": [
        {
          "indexed": false,
          "name": "_types",
          "type": "uint8[]"
        },
        {
          "indexed": false,
          "name": "_module",
          "type": "address"
        },
        {
          "indexed": false,
          "name": "_timestamp",
          "type": "uint256"
        }
      ],
      "name": "ModuleUnarchived",
      "type": "event"
    },
    {
      "anonymous": false,
      "inputs": [
        {
          "indexed": false,
          "name": "_types",
          "type": "uint8[]"
        },
        {
          "indexed": false,
          "name": "_module",
          "type": "address"
        },
        {
          "indexed": false,
          "name": "_timestamp",
          "type": "uint256"
        }
      ],
      "name": "ModuleRemoved",
      "type": "event"
    },
    {
      "anonymous": false,
      "inputs": [
        {
          "indexed": false,
          "name": "_moduleTypes",
          "type": "uint8[]"
        },
        {
          "indexed": false,
          "name": "_module",
          "type": "address"
        },
        {
          "indexed": false,
          "name": "_oldBudget",
          "type": "uint256"
        },
        {
          "indexed": false,
          "name": "_budget",
          "type": "uint256"
        }
      ],
      "name": "ModuleBudgetChanged",
      "type": "event"
    },
    {
      "anonymous": false,
      "inputs": [
        {
          "indexed": false,
          "name": "_status",
          "type": "bool"
        },
        {
          "indexed": false,
          "name": "_timestamp",
          "type": "uint256"
        }
      ],
      "name": "FreezeTransfers",
      "type": "event"
    },
    {
      "anonymous": false,
      "inputs": [
        {
          "indexed": true,
          "name": "_checkpointId",
          "type": "uint256"
        },
        {
          "indexed": false,
          "name": "_timestamp",
          "type": "uint256"
        }
      ],
      "name": "CheckpointCreated",
      "type": "event"
    },
    {
      "anonymous": false,
      "inputs": [
        {
          "indexed": false,
          "name": "_timestamp",
          "type": "uint256"
        }
      ],
      "name": "FreezeMinting",
      "type": "event"
    },
    {
      "anonymous": false,
      "inputs": [
        {
          "indexed": true,
          "name": "_to",
          "type": "address"
        },
        {
          "indexed": false,
          "name": "_value",
          "type": "uint256"
        }
      ],
      "name": "Minted",
      "type": "event"
    },
    {
      "anonymous": false,
      "inputs": [
        {
          "indexed": true,
          "name": "_from",
          "type": "address"
        },
        {
          "indexed": false,
          "name": "_value",
          "type": "uint256"
        }
      ],
      "name": "Burnt",
      "type": "event"
    },
    {
      "anonymous": false,
      "inputs": [
        {
          "indexed": true,
          "name": "_oldController",
          "type": "address"
        },
        {
          "indexed": true,
          "name": "_newController",
          "type": "address"
        }
      ],
      "name": "SetController",
      "type": "event"
    },
    {
      "anonymous": false,
      "inputs": [
        {
          "indexed": true,
          "name": "_controller",
          "type": "address"
        },
        {
          "indexed": true,
          "name": "_from",
          "type": "address"
        },
        {
          "indexed": true,
          "name": "_to",
          "type": "address"
        },
        {
          "indexed": false,
          "name": "_value",
          "type": "uint256"
        },
        {
          "indexed": false,
          "name": "_verifyTransfer",
          "type": "bool"
        },
        {
          "indexed": false,
          "name": "_data",
          "type": "bytes"
        }
      ],
      "name": "ForceTransfer",
      "type": "event"
    },
    {
      "anonymous": false,
      "inputs": [
        {
          "indexed": true,
          "name": "_controller",
          "type": "address"
        },
        {
          "indexed": true,
          "name": "_from",
          "type": "address"
        },
        {
          "indexed": false,
          "name": "_value",
          "type": "uint256"
        },
        {
          "indexed": false,
          "name": "_verifyTransfer",
          "type": "bool"
        },
        {
          "indexed": false,
          "name": "_data",
          "type": "bytes"
        }
      ],
      "name": "ForceBurn",
      "type": "event"
    },
    {
      "anonymous": false,
      "inputs": [
        {
          "indexed": false,
          "name": "_timestamp",
          "type": "uint256"
        }
      ],
      "name": "DisableController",
      "type": "event"
    },
    {
      "anonymous": false,
      "inputs": [
        {
          "indexed": true,
          "name": "previousOwner",
          "type": "address"
        }
      ],
      "name": "OwnershipRenounced",
      "type": "event"
    },
    {
      "anonymous": false,
      "inputs": [
        {
          "indexed": true,
          "name": "previousOwner",
          "type": "address"
        },
        {
          "indexed": true,
          "name": "newOwner",
          "type": "address"
        }
      ],
      "name": "OwnershipTransferred",
      "type": "event"
    },
    {
      "anonymous": false,
      "inputs": [
        {
          "indexed": true,
          "name": "owner",
          "type": "address"
        },
        {
          "indexed": true,
          "name": "spender",
          "type": "address"
        },
        {
          "indexed": false,
          "name": "value",
          "type": "uint256"
        }
      ],
      "name": "Approval",
      "type": "event"
    },
    {
      "anonymous": false,
      "inputs": [
        {
          "indexed": true,
          "name": "from",
          "type": "address"
        },
        {
          "indexed": true,
          "name": "to",
          "type": "address"
        },
        {
          "indexed": false,
          "name": "value",
          "type": "uint256"
        }
      ],
      "name": "Transfer",
      "type": "event"
    },
    {
      "constant": false,
      "inputs": [
        {
          "name": "_moduleFactory",
          "type": "address"
        },
        {
          "name": "_data",
          "type": "bytes"
        },
        {
          "name": "_maxCost",
          "type": "uint256"
        },
        {
          "name": "_budget",
          "type": "uint256"
        }
      ],
      "name": "addModule",
      "outputs": [],
      "payable": false,
      "stateMutability": "nonpayable",
      "type": "function"
    },
    {
      "constant": false,
      "inputs": [
        {
          "name": "_module",
          "type": "address"
        }
      ],
      "name": "archiveModule",
      "outputs": [],
      "payable": false,
      "stateMutability": "nonpayable",
      "type": "function"
    },
    {
      "constant": false,
      "inputs": [
        {
          "name": "_module",
          "type": "address"
        }
      ],
      "name": "unarchiveModule",
      "outputs": [],
      "payable": false,
      "stateMutability": "nonpayable",
      "type": "function"
    },
    {
      "constant": false,
      "inputs": [
        {
          "name": "_module",
          "type": "address"
        }
      ],
      "name": "removeModule",
      "outputs": [],
      "payable": false,
      "stateMutability": "nonpayable",
      "type": "function"
    },
    {
      "constant": true,
      "inputs": [
        {
          "name": "_module",
          "type": "address"
        }
      ],
      "name": "getModule",
      "outputs": [
        {
          "name": "",
          "type": "bytes32"
        },
        {
          "name": "",
          "type": "address"
        },
        {
          "name": "",
          "type": "address"
        },
        {
          "name": "",
          "type": "bool"
        },
        {
          "name": "",
          "type": "uint8[]"
        }
      ],
      "payable": false,
      "stateMutability": "view",
      "type": "function"
    },
    {
      "constant": true,
      "inputs": [
        {
          "name": "_name",
          "type": "bytes32"
        }
      ],
      "name": "getModulesByName",
      "outputs": [
        {
          "name": "",
          "type": "address[]"
        }
      ],
      "payable": false,
      "stateMutability": "view",
      "type": "function"
    },
    {
      "constant": true,
      "inputs": [
        {
          "name": "_type",
          "type": "uint8"
        }
      ],
      "name": "getModulesByType",
      "outputs": [
        {
          "name": "",
          "type": "address[]"
        }
      ],
      "payable": false,
      "stateMutability": "view",
      "type": "function"
    },
    {
      "constant": false,
      "inputs": [
        {
          "name": "_tokenContract",
          "type": "address"
        },
        {
          "name": "_value",
          "type": "uint256"
        }
      ],
      "name": "withdrawERC20",
      "outputs": [],
      "payable": false,
      "stateMutability": "nonpayable",
      "type": "function"
    },
    {
      "constant": false,
      "inputs": [
        {
          "name": "_module",
          "type": "address"
        },
        {
          "name": "_change",
          "type": "uint256"
        },
        {
          "name": "_increase",
          "type": "bool"
        }
      ],
      "name": "changeModuleBudget",
      "outputs": [],
      "payable": false,
      "stateMutability": "nonpayable",
      "type": "function"
    },
    {
      "constant": false,
      "inputs": [
        {
          "name": "_newTokenDetails",
          "type": "string"
        }
      ],
      "name": "updateTokenDetails",
      "outputs": [],
      "payable": false,
      "stateMutability": "nonpayable",
      "type": "function"
    },
    {
      "constant": false,
      "inputs": [
        {
          "name": "_granularity",
          "type": "uint256"
        }
      ],
      "name": "changeGranularity",
      "outputs": [],
      "payable": false,
      "stateMutability": "nonpayable",
      "type": "function"
    },
    {
      "constant": true,
      "inputs": [],
      "name": "getInvestors",
      "outputs": [
        {
          "name": "",
          "type": "address[]"
        }
      ],
      "payable": false,
      "stateMutability": "view",
      "type": "function"
    },
    {
      "constant": true,
      "inputs": [
        {
          "name": "_checkpointId",
          "type": "uint256"
        }
      ],
      "name": "getInvestorsAt",
      "outputs": [
        {
          "name": "",
          "type": "address[]"
        }
      ],
      "payable": false,
      "stateMutability": "view",
      "type": "function"
    },
    {
      "constant": true,
      "inputs": [
        {
          "name": "_start",
          "type": "uint256"
        },
        {
          "name": "_end",
          "type": "uint256"
        }
      ],
      "name": "iterateInvestors",
      "outputs": [
        {
          "name": "",
          "type": "address[]"
        }
      ],
      "payable": false,
      "stateMutability": "view",
      "type": "function"
    },
    {
      "constant": true,
      "inputs": [],
      "name": "getInvestorCount",
      "outputs": [
        {
          "name": "",
          "type": "uint256"
        }
      ],
      "payable": false,
      "stateMutability": "view",
      "type": "function"
    },
    {
      "constant": false,
      "inputs": [],
      "name": "freezeTransfers",
      "outputs": [],
      "payable": false,
      "stateMutability": "nonpayable",
      "type": "function"
    },
    {
      "constant": false,
      "inputs": [],
      "name": "unfreezeTransfers",
      "outputs": [],
      "payable": false,
      "stateMutability": "nonpayable",
      "type": "function"
    },
    {
      "constant": false,
      "inputs": [
        {
          "name": "_to",
          "type": "address"
        },
        {
          "name": "_value",
          "type": "uint256"
        }
      ],
      "name": "transfer",
      "outputs": [
        {
          "name": "success",
          "type": "bool"
        }
      ],
      "payable": false,
      "stateMutability": "nonpayable",
      "type": "function"
    },
    {
      "constant": false,
      "inputs": [
        {
          "name": "_to",
          "type": "address"
        },
        {
          "name": "_value",
          "type": "uint256"
        },
        {
          "name": "_data",
          "type": "bytes"
        }
      ],
      "name": "transferWithData",
      "outputs": [
        {
          "name": "success",
          "type": "bool"
        }
      ],
      "payable": false,
      "stateMutability": "nonpayable",
      "type": "function"
    },
    {
      "constant": false,
      "inputs": [
        {
          "name": "_from",
          "type": "address"
        },
        {
          "name": "_to",
          "type": "address"
        },
        {
          "name": "_value",
          "type": "uint256"
        }
      ],
      "name": "transferFrom",
      "outputs": [
        {
          "name": "",
          "type": "bool"
        }
      ],
      "payable": false,
      "stateMutability": "nonpayable",
      "type": "function"
    },
    {
      "constant": false,
      "inputs": [
        {
          "name": "_from",
          "type": "address"
        },
        {
          "name": "_to",
          "type": "address"
        },
        {
          "name": "_value",
          "type": "uint256"
        },
        {
          "name": "_data",
          "type": "bytes"
        }
      ],
      "name": "transferFromWithData",
      "outputs": [
        {
          "name": "",
          "type": "bool"
        }
      ],
      "payable": false,
      "stateMutability": "nonpayable",
      "type": "function"
    },
    {
      "constant": false,
      "inputs": [
        {
          "name": "_from",
          "type": "address"
        },
        {
          "name": "_to",
          "type": "address"
        },
        {
          "name": "_value",
          "type": "uint256"
        },
        {
          "name": "_data",
          "type": "bytes"
        }
      ],
      "name": "verifyTransfer",
      "outputs": [
        {
          "name": "",
          "type": "bool"
        }
      ],
      "payable": false,
      "stateMutability": "nonpayable",
      "type": "function"
    },
    {
      "constant": false,
      "inputs": [],
      "name": "freezeMinting",
      "outputs": [],
      "payable": false,
      "stateMutability": "nonpayable",
      "type": "function"
    },
    {
      "constant": false,
      "inputs": [
        {
          "name": "_investor",
          "type": "address"
        },
        {
          "name": "_value",
          "type": "uint256"
        }
      ],
      "name": "mint",
      "outputs": [
        {
          "name": "success",
          "type": "bool"
        }
      ],
      "payable": false,
      "stateMutability": "nonpayable",
      "type": "function"
    },
    {
      "constant": false,
      "inputs": [
        {
          "name": "_investor",
          "type": "address"
        },
        {
          "name": "_value",
          "type": "uint256"
        },
        {
          "name": "_data",
          "type": "bytes"
        }
      ],
      "name": "mintWithData",
      "outputs": [
        {
          "name": "success",
          "type": "bool"
        }
      ],
      "payable": false,
      "stateMutability": "nonpayable",
      "type": "function"
    },
    {
      "constant": false,
      "inputs": [
        {
          "name": "_investors",
          "type": "address[]"
        },
        {
          "name": "_values",
          "type": "uint256[]"
        }
      ],
      "name": "mintMulti",
      "outputs": [
        {
          "name": "success",
          "type": "bool"
        }
      ],
      "payable": false,
      "stateMutability": "nonpayable",
      "type": "function"
    },
    {
      "constant": true,
      "inputs": [
        {
          "name": "_delegate",
          "type": "address"
        },
        {
          "name": "_module",
          "type": "address"
        },
        {
          "name": "_perm",
          "type": "bytes32"
        }
      ],
      "name": "checkPermission",
      "outputs": [
        {
          "name": "",
          "type": "bool"
        }
      ],
      "payable": false,
      "stateMutability": "view",
      "type": "function"
    },
    {
      "constant": false,
      "inputs": [
        {
          "name": "_value",
          "type": "uint256"
        },
        {
          "name": "_data",
          "type": "bytes"
        }
      ],
      "name": "burnWithData",
      "outputs": [],
      "payable": false,
      "stateMutability": "nonpayable",
      "type": "function"
    },
    {
      "constant": false,
      "inputs": [
        {
          "name": "_from",
          "type": "address"
        },
        {
          "name": "_value",
          "type": "uint256"
        },
        {
          "name": "_data",
          "type": "bytes"
        }
      ],
      "name": "burnFromWithData",
      "outputs": [],
      "payable": false,
      "stateMutability": "nonpayable",
      "type": "function"
    },
    {
      "constant": false,
      "inputs": [],
      "name": "createCheckpoint",
      "outputs": [
        {
          "name": "",
          "type": "uint256"
        }
      ],
      "payable": false,
      "stateMutability": "nonpayable",
      "type": "function"
    },
    {
      "constant": true,
      "inputs": [],
      "name": "getCheckpointTimes",
      "outputs": [
        {
          "name": "",
          "type": "uint256[]"
        }
      ],
      "payable": false,
      "stateMutability": "view",
      "type": "function"
    },
    {
      "constant": true,
      "inputs": [
        {
          "name": "_checkpointId",
          "type": "uint256"
        }
      ],
      "name": "totalSupplyAt",
      "outputs": [
        {
          "name": "",
          "type": "uint256"
        }
      ],
      "payable": false,
      "stateMutability": "view",
      "type": "function"
    },
    {
      "constant": true,
      "inputs": [
        {
          "name": "_investor",
          "type": "address"
        },
        {
          "name": "_checkpointId",
          "type": "uint256"
        }
      ],
      "name": "balanceOfAt",
      "outputs": [
        {
          "name": "",
          "type": "uint256"
        }
      ],
      "payable": false,
      "stateMutability": "view",
      "type": "function"
    },
    {
      "constant": false,
      "inputs": [
        {
          "name": "_controller",
          "type": "address"
        }
      ],
      "name": "setController",
      "outputs": [],
      "payable": false,
      "stateMutability": "nonpayable",
      "type": "function"
    },
    {
      "constant": false,
      "inputs": [],
      "name": "disableController",
      "outputs": [],
      "payable": false,
      "stateMutability": "nonpayable",
      "type": "function"
    },
    {
      "constant": false,
      "inputs": [
        {
          "name": "_from",
          "type": "address"
        },
        {
          "name": "_to",
          "type": "address"
        },
        {
          "name": "_value",
          "type": "uint256"
        },
        {
          "name": "_data",
          "type": "bytes"
        },
        {
          "name": "_log",
          "type": "bytes"
        }
      ],
      "name": "forceTransfer",
      "outputs": [],
      "payable": false,
      "stateMutability": "nonpayable",
      "type": "function"
    },
    {
      "constant": false,
      "inputs": [
        {
          "name": "_from",
          "type": "address"
        },
        {
          "name": "_value",
          "type": "uint256"
        },
        {
          "name": "_data",
          "type": "bytes"
        },
        {
          "name": "_log",
          "type": "bytes"
        }
      ],
      "name": "forceBurn",
      "outputs": [],
      "payable": false,
      "stateMutability": "nonpayable",
      "type": "function"
    },
    {
      "constant": true,
      "inputs": [],
      "name": "getVersion",
      "outputs": [
        {
          "name": "",
          "type": "uint8[]"
        }
      ],
      "payable": false,
      "stateMutability": "view",
      "type": "function"
    }
  ],
  "bytecode": "0x60806040526005805461ff00191690553480156200001c57600080fd5b5060405162005ca838038062005ca88339810160409081528151602080840151928401516060850151608086015160a0870151948701805190979687019693959294919093019282918891889188916200007d91600391908601906200053e565b508151620000939060049060208501906200053e565b506005805460ff191660ff92909216919091176201000060b060020a0319163362010000021790555050600160a060020a03811615156200013557604080517f08c379a000000000000000000000000000000000000000000000000000000000815260206004820152600f60248201527f496e76616c696420616464726573730000000000000000000000000000000000604482015290519081900360640190fd5b60068054600160a060020a031916600160a060020a039290921691909117905562000168640100000000620001bc810204565b81516200017d90600f9060208501906200053e565b50505060105550506040805160608101825260028082526000602083018190529190920152600e805460ff191690911762ffff001916905550620005e3565b600554620100009004600160a060020a03163314620001da57600080fd5b600654604080517fbf40fac1000000000000000000000000000000000000000000000000000000008152602060048201819052600e60248301527f4d6f64756c65526567697374727900000000000000000000000000000000000060448301529151600160a060020a039093169263bf40fac1926064808401939192918290030181600087803b1580156200026e57600080fd5b505af115801562000283573d6000803e3d6000fd5b505050506040513d60208110156200029a57600080fd5b505160078054600160a060020a031916600160a060020a03928316179055600654604080517fbf40fac1000000000000000000000000000000000000000000000000000000008152602060048201819052601560248301527f5365637572697479546f6b656e5265676973747279000000000000000000000060448301529151929093169263bf40fac192606480830193928290030181600087803b1580156200034357600080fd5b505af115801562000358573d6000803e3d6000fd5b505050506040513d60208110156200036f57600080fd5b505160088054600160a060020a031916600160a060020a03928316179055600654604080517fbf40fac1000000000000000000000000000000000000000000000000000000008152602060048201819052600f60248301527f466561747572655265676973747279000000000000000000000000000000000060448301529151929093169263bf40fac192606480830193928290030181600087803b1580156200041857600080fd5b505af11580156200042d573d6000803e3d6000fd5b505050506040513d60208110156200044457600080fd5b505160098054600160a060020a031916600160a060020a03928316178155600654604080517fbf40fac100000000000000000000000000000000000000000000000000000000815260206004820181905260248201949094527f506f6c79546f6b656e000000000000000000000000000000000000000000000060448201529051919093169263bf40fac19260648083019391928290030181600087803b158015620004ef57600080fd5b505af115801562000504573d6000803e3d6000fd5b505050506040513d60208110156200051b57600080fd5b5051600a8054600160a060020a031916600160a060020a03909216919091179055565b828054600181600116156101000203166002900490600052602060002090601f016020900481019282601f106200058157805160ff1916838001178555620005b1565b82800160010185558215620005b1579182015b82811115620005b157825182559160200191906001019062000594565b50620005bf929150620005c3565b5090565b620005e091905b80821115620005bf5760008155600101620005ca565b90565b6156b580620005f36000396000f3006080604052600436106102d15763ffffffff60e060020a6000350416630150246081146102d657806306fdde03146102ed578063095ea7b3146103775780630d8e6e2c146103af57806312ef7fe21461041457806318160ddd14610435578063210a8d0e1461045c57806323b872dd146104745780632535f7621461049e5780633052eed814610507578063313ce5671461052257806331c420d41461054d5780633576857e1461056257806338777af2146105835780633c9dcebe1461062a5780633f5535861461068857806340c10f19146106a057806346e4959d146106c45780634c6041d3146106f05780634ee2cd7e146107055780635488cc8014610729578063556f0dc71461073e5780635c49de5e1461075357806362b348c31461080057806366188463146108295780636faa22a51461084d57806370a082311461087e578063715018a61461089f57806373826a93146108b4578063764387bd146108d457806377282b70146108ec5780637a802c71146109015780637d6ae27b146109165780638658b8b91461097f578063869e50c7146109a95780638da5cb5b146109be57806392eefe9b146109d357806395d89b41146109f4578063960524e314610a0957806396adfe4214610a1e578063981b24d014610a87578063a063246114610a9f578063a1db978214610ac0578063a284de0214610ae4578063a9059cbb14610af9578063ac90b42214610b1d578063b2f5a54c14610b38578063b5de8d4c14610b4d578063b95459e414610bf3578063c013f30f14610c08578063caf90dab14610c1d578063ce4dbdff14610c32578063d6abe11014610c47578063d73dd62314610c5c578063dd62ed3e14610c80578063e45b813414610ca7578063ee532f3114610cbc578063f1d74b0f14610d2b578063f2fde38b14610d9a578063f433262f14610dbb578063f5efbd2d14610dd0578063f77c479114610e03578063ff0b9c9014610e18575b600080fd5b3480156102e257600080fd5b506102eb610e2d565b005b3480156102f957600080fd5b50610302610ef0565b6040805160208082528351818301528351919283929083019185019080838360005b8381101561033c578181015183820152602001610324565b50505050905090810190601f1680156103695780820380516001836020036101000a031916815260200191505b509250505060405180910390f35b34801561038357600080fd5b5061039b600160a060020a0360043516602435610f7e565b604080519115158252519081900360200190f35b3480156103bb57600080fd5b506103c4610fe4565b60408051602080825283518183015283519192839290830191858101910280838360005b838110156104005781810151838201526020016103e8565b505050509050019250505060405180910390f35b34801561042057600080fd5b506102eb600160a060020a036004351661108f565b34801561044157600080fd5b5061044a61114e565b60408051918252519081900360200190f35b34801561046857600080fd5b506102eb600435611155565b34801561048057600080fd5b5061039b600160a060020a036004358116906024351660443561120b565b3480156104aa57600080fd5b50604080516020600460443581810135601f810184900484028501840190955284845261039b948235600160a060020a03169460248035953695946064949201919081908401838280828437509497506112319650505050505050565b34801561051357600080fd5b506103c46004356024356112a2565b34801561052e57600080fd5b506105376113b3565b6040805160ff9092168252519081900360200190f35b34801561055957600080fd5b506102eb6113bc565b34801561056e57600080fd5b506102eb600160a060020a036004351661147c565b34801561058f57600080fd5b50604080516020600460443581810135601f81018490048402850184019095528484526102eb948235600160a060020a031694602480359536959460649492019190819084018382808284375050604080516020601f89358b018035918201839004830284018301909452808352979a9998810197919650918201945092508291508401838280828437509497506115209650505050505050565b34801561063657600080fd5b5060408051602060046024803582810135601f81018590048502860185019096528585526102eb9583359536956044949193909101919081908401838280828437509497506116c29650505050505050565b34801561069457600080fd5b506103c460043561173f565b3480156106ac57600080fd5b5061039b600160a060020a0360043516602435611850565b3480156106d057600080fd5b5061039b6024600480358281019290820135918135918201910135611874565b3480156106fc57600080fd5b506103c4611928565b34801561071157600080fd5b5061044a600160a060020a0360043516602435611980565b34801561073557600080fd5b5061044a611a48565b34801561074a57600080fd5b5061044a611a4e565b34801561075f57600080fd5b50604080516020601f6064356004818101359283018490048402850184019095528184526102eb94600160a060020a03813581169560248035909216956044359536956084940191819084018382808284375050604080516020601f89358b018035918201839004830284018301909452808352979a999881019791965091820194509250829150840183828082843750949750611a549650505050505050565b34801561080c57600080fd5b506102eb600160a060020a03600435166024356044351515611cfc565b34801561083557600080fd5b5061039b600160a060020a036004351660243561212b565b34801561085957600080fd5b5061086261221d565b60408051600160a060020a039092168252519081900360200190f35b34801561088a57600080fd5b5061044a600160a060020a036004351661222c565b3480156108ab57600080fd5b506102eb612247565b3480156108c057600080fd5b506102eb60048035602481019101356122c2565b3480156108e057600080fd5b506103c46004356123b9565b3480156108f857600080fd5b50610862612425565b34801561090d57600080fd5b5061039b612434565b34801561092257600080fd5b50604080516020600460443581810135601f81018490048402850184019095528484526102eb948235600160a060020a03169460248035953695946064949201919081908401838280828437509497506124439650505050505050565b34801561098b57600080fd5b5061039b600160a060020a0360043581169060243516604435612594565b3480156109b557600080fd5b506102eb61273a565b3480156109ca57600080fd5b506108626128fd565b3480156109df57600080fd5b506102eb600160a060020a0360043516612912565b348015610a0057600080fd5b506103026129bf565b348015610a1557600080fd5b5061044a612a1a565b348015610a2a57600080fd5b50604080516020600460443581810135601f810184900484028501840190955284845261039b948235600160a060020a0316946024803595369594606494920191908190840183828082843750949750612a209650505050505050565b348015610a9357600080fd5b5061044a600435612e16565b348015610aab57600080fd5b506102eb600160a060020a0360043516612ec4565b348015610acc57600080fd5b506102eb600160a060020a0360043516602435613339565b348015610af057600080fd5b5061039b61341b565b348015610b0557600080fd5b5061039b600160a060020a0360043516602435613429565b348015610b2957600080fd5b506103c460ff60043516613446565b348015610b4457600080fd5b506103c46134b4565b348015610b5957600080fd5b50610b6e600160a060020a0360043516613518565b60408051868152600160a060020a0380871660208084019190915290861692820192909252831515606082015260a06080820181815284519183019190915283519192909160c0840191858101910280838360005b83811015610bdb578181015183820152602001610bc3565b50505050905001965050505050505060405180910390f35b348015610bff57600080fd5b506108626135e2565b348015610c1457600080fd5b506102eb6135f1565b348015610c2957600080fd5b506108626137e0565b348015610c3e57600080fd5b506108626137ef565b348015610c5357600080fd5b506103026137fe565b348015610c6857600080fd5b5061039b600160a060020a0360043516602435613859565b348015610c8c57600080fd5b5061044a600160a060020a03600435811690602435166138f2565b348015610cb357600080fd5b5061039b61391d565b348015610cc857600080fd5b50604080516020601f60643560048181013592830184900484028501840190955281845261039b94600160a060020a0381358116956024803590921695604435953695608494019181908401838280828437509497506139269650505050505050565b348015610d3757600080fd5b50604080516020601f60643560048181013592830184900484028501840190955281845261039b94600160a060020a0381358116956024803590921695604435953695608494019181908401838280828437509497506139999650505050505050565b348015610da657600080fd5b506102eb600160a060020a03600435166139b2565b348015610dc757600080fd5b506102eb6139db565b348015610ddc57600080fd5b506102eb60048035600160a060020a03169060248035908101910135604435606435613cf8565b348015610e0f57600080fd5b506108626145e3565b348015610e2457600080fd5b5061044a6145f9565b600554620100009004600160a060020a03163314610e4a57600080fd5b60125460ff1615610ea5576040805160e560020a62461bcd02815260206004820152600e60248201527f416c72656164792066726f7a656e000000000000000000000000000000000000604482015290519081900360640190fd5b6012805460ff191660019081179091556040805191825242602083015280517f04f1ca1e602280d208c2c7ff2646257c29fd92371788c49a8a5c27de99a2bcda9281900390910190a1565b6003805460408051602060026001851615610100026000190190941693909304601f81018490048402820184019092528181529291830182828015610f765780601f10610f4b57610100808354040283529160200191610f76565b820191906000526020600020905b815481529060010190602001808311610f5957829003601f168201915b505050505081565b336000818152600260209081526040808320600160a060020a038716808552908352818420869055815186815291519394909390927f8c5be1e5ebec7d5bd14f71427d1e84f3dd0314c0f7b2291e5b200ac8c7c3b925928290030190a350600192915050565b604080516003808252608082019092526060918291906020820183803883395050600e54825192935060ff1691839150600090811061101f57fe5b60ff92831660209182029092010152600e548251610100909104909116908290600190811061104a57fe5b60ff92831660209182029092010152600e54825162010000909104909116908290600290811061107657fe5b60ff9092166020928302909101909101529050805b5090565b600554620100009004600160a060020a031633146110ac57600080fd5b600160a060020a03811660008181526014602052604080822081517f4e5ba926000000000000000000000000000000000000000000000000000000008152600481019190915260248101939093525173__TokenLib______________________________92634e5ba926926044808301939192829003018186803b15801561113357600080fd5b505af4158015611147573d6000803e3d6000fd5b5050505050565b6001545b90565b600554620100009004600160a060020a0316331461117257600080fd5b8015156111c9576040805160e560020a62461bcd02815260206004820152601360248201527f496e76616c6964206772616e756c617269747900000000000000000000000000604482015290519081900360640190fd5b601054604080519182526020820183905280517f7728e5c461dd94b32a33e149f4ef6b674a7eff704cac77b26937eaced90f00389281900390910190a1601055565b60006112298484846020604051908101604052806000815250613926565b949350505050565b600061123f3385858561474b565b1515611283576040805160e560020a62461bcd028152602060048201526010602482015260008051602061564a833981519152604482015290519081900360640190fd5b61128d84846147b5565b151561129857600080fd5b5060019392505050565b600c5460609081906000908190851115611306576040805160e560020a62461bcd02815260206004820152600b60248201527f496e76616c696420656e64000000000000000000000000000000000000000000604482015290519081900360640190fd5b611316858763ffffffff61488416565b60405190808252806020026020018201604052801561133f578160200160208202803883390190505b509250600091508590505b848110156113a957600c80548290811061136057fe5b6000918252602090912001548351600160a060020a039091169084908490811061138657fe5b600160a060020a039092166020928302909101909101526001918201910161134a565b5090949350505050565b60055460ff1681565b600554620100009004600160a060020a031633146113d957600080fd5b60125460ff161515611435576040805160e560020a62461bcd02815260206004820152600a60248201527f4e6f742066726f7a656e00000000000000000000000000000000000000000000604482015290519081900360640190fd5b6012805460ff19169055604080516000815242602082015281517f04f1ca1e602280d208c2c7ff2646257c29fd92371788c49a8a5c27de99a2bcda929181900390910190a1565b600554620100009004600160a060020a0316331461149957600080fd5b600160a060020a03811660008181526014602052604080822081517fe486dd3b000000000000000000000000000000000000000000000000000000008152600481019190915260248101939093525173__TokenLib______________________________9263e486dd3b926044808301939192829003018186803b15801561113357600080fd5b60125460009063010000009004600160a060020a0316331461158c576040805160e560020a62461bcd02815260206004820152600e60248201527f4e6f7420636f6e74726f6c6c6572000000000000000000000000000000000000604482015290519081900360640190fd5b60125462010000900460ff16156115ed576040805160e560020a62461bcd02815260206004820152601360248201527f436f6e74726f6c6c65722064697361626c656400000000000000000000000000604482015290519081900360640190fd5b6115f8858585614896565b905084600160a060020a031633600160a060020a03167f27e232e0b8b07b7d0a09164e51186c4fb62c881eb6327305713f40282a16caf3868486604051808481526020018315151515815260200180602001828103825283818151815260200191508051906020019080838360005b8381101561167f578181015183820152602001611667565b50505050905090810190601f1680156116ac5780820380516001836020036101000a031916815260200191505b5094505050505060405180910390a35050505050565b60056116ce33826149ed565b15156116d957600080fd5b6116e4338484614896565b151561173a576040805160e560020a62461bcd02815260206004820152600c60248201527f4275726e20696e76616c69640000000000000000000000000000000000000000604482015290519081900360640190fd5b505050565b6060600080825b600c5482101561179857600c8054600091611780918590811061176557fe5b600091825260209091200154600160a060020a031687611980565b111561178d576001909201915b600190910190611746565b826040519080825280602002602001820160405280156117c2578160200160208202803883390190505b50905060009250600091505b600c5482101561122957600c80546000916117ed918590811061176557fe5b111561184557600c80548390811061180157fe5b6000918252602090912001548151600160a060020a039091169082908590811061182757fe5b600160a060020a039092166020928302909101909101526001909201915b6001909101906117ce565b600061186d83836020604051908101604052806000815250612a20565b9392505050565b6000808483146118ce576040805160e560020a62461bcd02815260206004820152601060248201527f496e636f727265637420696e7075747300000000000000000000000000000000604482015290519081900360640190fd5b5060005b8481101561191c576119138686838181106118e957fe5b90506020020135600160a060020a0316858584818110151561190757fe5b90506020020135611850565b506001016118d2565b50600195945050505050565b6060601880548060200260200160405190810160405280929190818152602001828054801561197657602002820191906000526020600020905b815481526020019060010190808311611962575b5050505050905090565b60115460009082111561199257600080fd5b600160a060020a038316600090815260166020526040902073__TokenLib______________________________9063b58ae1e290846119d08761222c565b6040518463ffffffff1660e060020a02815260040180848152602001838152602001828152602001935050505060206040518083038186803b158015611a1557600080fd5b505af4158015611a29573d6000803e3d6000fd5b505050506040513d6020811015611a3f57600080fd5b50519392505050565b60115481565b60105481565b60125460009063010000009004600160a060020a03163314611ac0576040805160e560020a62461bcd02815260206004820152600e60248201527f4e6f7420636f6e74726f6c6c6572000000000000000000000000000000000000604482015290519081900360640190fd5b60125462010000900460ff1615611b21576040805160e560020a62461bcd02815260206004820152601360248201527f436f6e74726f6c6c65722064697361626c656400000000000000000000000000604482015290519081900360640190fd5b600160a060020a0385161515611b3657600080fd5b600160a060020a038616600090815260208190526040902054841115611b5b57600080fd5b611b678686868661474b565b600160a060020a038716600090815260208190526040902054909150611b93908563ffffffff61488416565b600160a060020a038088166000908152602081905260408082209390935590871681522054611bc8908563ffffffff614b7516565b60008087600160a060020a0316600160a060020a031681526020019081526020016000208190555084600160a060020a031686600160a060020a031633600160a060020a03167ff38eab8c5ef9ca0b5df51f887249efab0c1e0bb6272a62cc9d330800ee7ddf6b878587604051808481526020018315151515815260200180602001828103825283818151815260200191508051906020019080838360005b83811015611c7f578181015183820152602001611c67565b50505050905090810190601f168015611cac5780820380516001836020036101000a031916815260200191505b5094505050505060405180910390a484600160a060020a031686600160a060020a031660008051602061566a833981519152866040518082815260200191505060405180910390a3505050505050565b6005546000908190620100009004600160a060020a03163314611d1e57600080fd5b600160a060020a03858116600090815260146020526040902060010154161515611d92576040805160e560020a62461bcd02815260206004820152600e60248201527f4d6f64756c65206d697373696e67000000000000000000000000000000000000604482015290519081900360640190fd5b600a54604080517fdd62ed3e000000000000000000000000000000000000000000000000000000008152306004820152600160a060020a0388811660248301529151919092169163dd62ed3e9160448083019260209291908290030181600087803b158015611e0057600080fd5b505af1158015611e14573d6000803e3d6000fd5b505050506040513d6020811015611e2a57600080fd5b505191508215611f3c57600a54604080517fd73dd623000000000000000000000000000000000000000000000000000000008152600160a060020a038881166004830152602482018890529151919092169163d73dd6239160448083019260209291908290030181600087803b158015611ea357600080fd5b505af1158015611eb7573d6000803e3d6000fd5b505050506040513d6020811015611ecd57600080fd5b50511515611f25576040805160e560020a62461bcd02815260206004820152601560248201527f496e637265617365417070726f76616c206661696c0000000000000000000000604482015290519081900360640190fd5b611f35828563ffffffff614b7516565b9050612040565b600a54604080517f66188463000000000000000000000000000000000000000000000000000000008152600160a060020a038881166004830152602482018890529151919092169163661884639160448083019260209291908290030181600087803b158015611fab57600080fd5b505af1158015611fbf573d6000803e3d6000fd5b505050506040513d6020811015611fd557600080fd5b5051151561202d576040805160e560020a62461bcd02815260206004820152601660248201527f496e73756666696369656e7420616c6c6f77616e636500000000000000000000604482015290519081900360640190fd5b61203d828563ffffffff61488416565b90505b7fa00a1c33ebb7433724919cb1059328c16265f935ef84a13442045da3e81c0ccc6014600087600160a060020a0316600160a060020a03168152602001908152602001600020600301868484604051808060200185600160a060020a0316600160a060020a03168152602001848152602001838152602001828103825286818154815260200191508054801561211357602002820191906000526020600020906000905b825461010083900a900460ff168152602060019283018181049485019490930390920291018084116120e45790505b50509550505050505060405180910390a15050505050565b336000908152600260209081526040808320600160a060020a03861684529091528120548083111561218057336000908152600260209081526040808320600160a060020a03881684529091528120556121b5565b612190818463ffffffff61488416565b336000908152600260209081526040808320600160a060020a03891684529091529020555b336000818152600260209081526040808320600160a060020a0389168085529083529281902054815190815290519293927f8c5be1e5ebec7d5bd14f71427d1e84f3dd0314c0f7b2291e5b200ac8c7c3b925929181900390910190a3600191505b5092915050565b600a54600160a060020a031681565b600160a060020a031660009081526020819052604090205490565b600554620100009004600160a060020a0316331461226457600080fd5b60055460405162010000909104600160a060020a0316907ff8df31144d9c2f0f6b59d69b8b98abd5459d07f2742c4df920b25aae33c6482090600090a26005805475ffffffffffffffffffffffffffffffffffffffff000019169055565b600554620100009004600160a060020a031633146122df57600080fd5b60408051818152600f8054600260001961010060018416150201909116049282018390527f4f5dc3feea8c186b1481cfe57c28df8871a61e3be16f7d65c60504cfd63440679290918591859190819060208201906060830190879080156123875780601f1061235c57610100808354040283529160200191612387565b820191906000526020600020905b81548152906001019060200180831161236a57829003601f168201915b50508381038252848152602001858580828437604051920182900397509095505050505050a161173a600f8383615453565b60008181526015602090815260409182902080548351818402810184019094528084526060939283018282801561241957602002820191906000526020600020905b8154600160a060020a031681526001909101906020018083116123fb575b50505050509050919050565b600654600160a060020a031681565b60125462010000900460ff1681565b600561244f33826149ed565b151561245a57600080fd5b600160a060020a03841660009081526002602090815260408083203384529091529020548311156124d5576040805160e560020a62461bcd02815260206004820152600e60248201527f56616c756520746f6f2068696768000000000000000000000000000000000000604482015290519081900360640190fd5b600160a060020a0384166000908152600260209081526040808320338452909152902054612509908463ffffffff61488416565b600160a060020a0385166000908152600260209081526040808320338452909152902055612538848484614896565b151561258e576040805160e560020a62461bcd02815260206004820152600c60248201527f4275726e20696e76616c69640000000000000000000000000000000000000000604482015290519081900360640190fd5b50505050565b6000805b600160005260136020527f4155c2f711f2cdd34f8262ab8fb9b7020a700fe7b6948222152f7670d1fdf34d5481101561272d576001600090815260136020527f4155c2f711f2cdd34f8262ab8fb9b7020a700fe7b6948222152f7670d1fdf34d805460149291908490811061260957fe5b6000918252602080832090910154600160a060020a0316835282019290925260400190206002015460ff60a060020a90910416151561272557600160005260136020908152604080517f84c0b0ef0000000000000000000000000000000000000000000000000000000081527f4155c2f711f2cdd34f8262ab8fb9b7020a700fe7b6948222152f7670d1fdf34d6004820152600160a060020a0380891660248301528716604482015260648101869052905173__TokenLib______________________________926384c0b0ef9260848082019391829003018186803b1580156126f257600080fd5b505af4158015612706573d6000803e3d6000fd5b505050506040513d602081101561271c57600080fd5b50519150612732565b600101612598565b600091505b509392505050565b604080518082018252601881527f64697361626c65436f6e74726f6c6c6572416c6c6f7765640000000000000000602080830191825260095493517f2f0019f2000000000000000000000000000000000000000000000000000000008152600481019182528351602482015283519394600160a060020a031693632f0019f29386939283926044909101919080838360005b838110156127e45781810151838201526020016127cc565b50505050905090810190601f1680156128115780820380516001836020036101000a031916815260200191505b5092505050602060405180830381600087803b15801561283057600080fd5b505af1158015612844573d6000803e3d6000fd5b505050506040513d602081101561285a57600080fd5b5051151561286757600080fd5b600554620100009004600160a060020a0316331461288457600080fd5b60125462010000900460ff161561289a57600080fd5b6012805476ffffffffffffffffffffffffffffffffffffffff0000001962ff00001990911662010000171690556040805142815290517f6d4b279f1788f74ba2f47792247cede2c5081366419a8d2e0d4b651182edbe6a9181900360200190a150565b600554620100009004600160a060020a031681565b600554620100009004600160a060020a0316331461292f57600080fd5b60125462010000900460ff161561294557600080fd5b601254604051600160a060020a03808416926301000000900416907f9fdb07212c6f92fd298affc4000712177664bc3c4cae5f61098d42da6d05be1e90600090a360128054600160a060020a0390921663010000000276ffffffffffffffffffffffffffffffffffffffff00000019909216919091179055565b6004805460408051602060026001851615610100026000190190941693909304601f81018490048402820184019092528181529291830182828015610f765780601f10610f4b57610100808354040283529160200191610f76565b600d5490565b600554600090600390620100009004600160a060020a0316331415612c1f57601254610100900460ff1615612a9f576040805160e560020a62461bcd02815260206004820152600e60248201527f4d696e74696e672066726f7a656e000000000000000000000000000000000000604482015290519081900360640190fd5b600160a060020a0385161515612aff576040805160e560020a62461bcd02815260206004820152600d60248201527f496e766573746f72206973203000000000000000000000000000000000000000604482015290519081900360640190fd5b612b0c600086868661474b565b1515612b50576040805160e560020a62461bcd028152602060048201526010602482015260008051602061564a833981519152604482015290519081900360640190fd5b612b58614b88565b600154612b6b908563ffffffff614b7516565b600155600160a060020a038516600090815260208190526040902054612b97908563ffffffff614b7516565b600160a060020a03861660008181526020818152604091829020939093558051878152905191927f30385c845b448a36257a6a1716e6ad2e1bc2cbe333cde1e69fe849ad6511adfe92918290030190a2604080518581529051600160a060020a0387169160009160008051602061566a8339815191529181900360200190a360019150612732565b612c2933826149ed565b1515612c3457600080fd5b601254610100900460ff1615612c94576040805160e560020a62461bcd02815260206004820152600e60248201527f4d696e74696e672066726f7a656e000000000000000000000000000000000000604482015290519081900360640190fd5b600160a060020a0385161515612cf4576040805160e560020a62461bcd02815260206004820152600d60248201527f496e766573746f72206973203000000000000000000000000000000000000000604482015290519081900360640190fd5b612d01600086868661474b565b1515612d45576040805160e560020a62461bcd028152602060048201526010602482015260008051602061564a833981519152604482015290519081900360640190fd5b612d4d614b88565b600154612d60908563ffffffff614b7516565b600155600160a060020a038516600090815260208190526040902054612d8c908563ffffffff614b7516565b600160a060020a03861660008181526020818152604091829020939093558051878152905191927f30385c845b448a36257a6a1716e6ad2e1bc2cbe333cde1e69fe849ad6511adfe92918290030190a2604080518581529051600160a060020a0387169160009160008051602061566a8339815191529181900360200190a3506001949350505050565b601154600090821115612e2857600080fd5b73__TokenLib______________________________63b58ae1e2601784612e4d61114e565b6040518463ffffffff1660e060020a02815260040180848152602001838152602001828152602001935050505060206040518083038186803b158015612e9257600080fd5b505af4158015612ea6573d6000803e3d6000fd5b505050506040513d6020811015612ebc57600080fd5b505192915050565b600554606090600090819081908190620100009004600160a060020a03163314612eed57600080fd5b600160a060020a03861660009081526014602052604090206002015460a060020a900460ff161515612f69576040805160e560020a62461bcd02815260206004820152600c60248201527f4e6f742061726368697665640000000000000000000000000000000000000000604482015290519081900360640190fd5b600160a060020a03868116600090815260146020526040902060010154161515612fdd576040805160e560020a62461bcd02815260206004820152600e60248201527f4d6f64756c65206d697373696e67000000000000000000000000000000000000604482015290519081900360640190fd5b7f51b49bea2e14e62ed58a6d53c2a092b2f7a04dc7d826763ae2fa3301b982fc286014600088600160a060020a0316600160a060020a031681526020019081526020016000206003018742604051808060200184600160a060020a0316600160a060020a0316815260200183815260200182810382528581815481526020019150805480156130a957602002820191906000526020600020906000905b825461010083900a900460ff1681526020600192830181810494850194909303909202910180841161307a5790505b505094505050505060405180910390a1600160a060020a0386166000908152601460209081526040918290206003018054835181840281018401909452808452909183018282801561313857602002820191906000526020600020906000905b825461010083900a900460ff168152602060019283018181049485019490930390920291018084116131095790505b50505050509450600093505b84518410156131ac576131a1858581518110151561315e57fe5b6020908102909101810151600160a060020a03891660009081526014909252604090912060040180548790811061319157fe5b9060005260206000200154614c08565b600190930192613144565b505050600160a060020a0383166000908152601460209081526040808320600581015490548085526015909352922080549060001982018281106131ec57fe5b6000918252602080832090910154848352601590915260409091208054600160a060020a03909216918590811061321f57fe5b60009182526020808320919091018054600160a060020a031916600160a060020a03949094169390931790925583815260159091526040902060001982019061326890826154cd565b50600019810183146132be5760008281526015602052604081208054859260149290918490811061329557fe5b6000918252602080832090910154600160a060020a031683528201929092526040019020600501555b600160a060020a0386166000908152601460205260408120818155600181018054600160a060020a031916905560028101805474ffffffffffffffffffffffffffffffffffffffffff191690559061331960038301826154f1565b613327600483016000615516565b60058201600090555050505050505050565b600554600090620100009004600160a060020a0316331461335957600080fd5b600160a060020a038316151561336e57600080fd5b50600554604080517fa9059cbb000000000000000000000000000000000000000000000000000000008152600160a060020a036201000090930483166004820152602481018490529051849283169163a9059cbb9160448083019260209291908290030181600087803b1580156133e457600080fd5b505af11580156133f8573d6000803e3d6000fd5b505050506040513d602081101561340e57600080fd5b5051151561173a57600080fd5b601254610100900460ff1681565b600061186d83836020604051908101604052806000815250611231565b60ff811660009081526013602090815260409182902080548351818402810184019094528084526060939283018282801561241957602002820191906000526020600020908154600160a060020a031681526001909101906020018083116123fb5750505050509050919050565b6060600b60010180548060200260200160405190810160405280929190818152602001828054801561197657602002820191906000526020600020905b8154600160a060020a031681526001909101906020018083116134f1575050505050905090565b600160a060020a038181166000908152601460209081526040808320805460018201546002830154600390930180548551818802810188019096528086529697889788978897606097958416959384169460a060020a90940460ff16939290918391908301828280156135c857602002820191906000526020600020906000905b825461010083900a900460ff168152602060019283018181049485019490930390920291018084116135995790505b505050505090509450945094509450945091939590929450565b600754600160a060020a031681565b601254610100900460ff1615613651576040805160e560020a62461bcd02815260206004820152600e60248201527f4d696e74696e672066726f7a656e000000000000000000000000000000000000604482015290519081900360640190fd5b604080518082018252601481527f667265657a654d696e74696e67416c6c6f776564000000000000000000000000602080830191825260095493517f2f0019f2000000000000000000000000000000000000000000000000000000008152600481019182528351602482015283519394600160a060020a031693632f0019f29386939283926044909101919080838360005b838110156136fb5781810151838201526020016136e3565b50505050905090810190601f1680156137285780820380516001836020036101000a031916815260200191505b5092505050602060405180830381600087803b15801561374757600080fd5b505af115801561375b573d6000803e3d6000fd5b505050506040513d602081101561377157600080fd5b5051151561377e57600080fd5b600554620100009004600160a060020a0316331461379b57600080fd5b6012805461ff0019166101001790556040805142815290517fac303fba0a810d910a7ec5499d828c1bdc0b91117ee0d547ff7c59ff4ae3f11b9181900360200190a150565b600954600160a060020a031681565b600854600160a060020a031681565b600f805460408051602060026001851615610100026000190190941693909304601f81018490048402820184019092528181529291830182828015610f765780601f10610f4b57610100808354040283529160200191610f76565b336000908152600260209081526040808320600160a060020a038616845290915281205461388d908363ffffffff614b7516565b336000818152600260209081526040808320600160a060020a0389168085529083529281902085905580519485525191937f8c5be1e5ebec7d5bd14f71427d1e84f3dd0314c0f7b2291e5b200ac8c7c3b925929081900390910190a350600192915050565b600160a060020a03918216600090815260026020908152604080832093909416825291909152205490565b60125460ff1681565b60006139348585858561474b565b1515613978576040805160e560020a62461bcd028152602060048201526010602482015260008051602061564a833981519152604482015290519081900360640190fd5b613983858585614e13565b151561398e57600080fd5b506001949350505050565b60006139a9858585856000614f78565b95945050505050565b600554620100009004600160a060020a031633146139cf57600080fd5b6139d881615276565b50565b600554620100009004600160a060020a031633146139f857600080fd5b6006546040805160e060020a63bf40fac1028152602060048201819052600e60248301527f4d6f64756c65526567697374727900000000000000000000000000000000000060448301529151600160a060020a039093169263bf40fac1926064808401939192918290030181600087803b158015613a7557600080fd5b505af1158015613a89573d6000803e3d6000fd5b505050506040513d6020811015613a9f57600080fd5b505160078054600160a060020a031916600160a060020a039283161790556006546040805160e060020a63bf40fac1028152602060048201819052601560248301527f5365637572697479546f6b656e5265676973747279000000000000000000000060448301529151929093169263bf40fac192606480830193928290030181600087803b158015613b3157600080fd5b505af1158015613b45573d6000803e3d6000fd5b505050506040513d6020811015613b5b57600080fd5b505160088054600160a060020a031916600160a060020a039283161790556006546040805160e060020a63bf40fac1028152602060048201819052600f60248301527f466561747572655265676973747279000000000000000000000000000000000060448301529151929093169263bf40fac192606480830193928290030181600087803b158015613bed57600080fd5b505af1158015613c01573d6000803e3d6000fd5b505050506040513d6020811015613c1757600080fd5b505160098054600160a060020a031916600160a060020a039283161781556006546040805160e060020a63bf40fac102815260206004820181905260248201949094527f506f6c79546f6b656e000000000000000000000000000000000000000000000060448201529051919093169263bf40fac19260648083019391928290030181600087803b158015613cab57600080fd5b505af1158015613cbf573d6000803e3d6000fd5b505050506040513d6020811015613cd557600080fd5b5051600a8054600160a060020a031916600160a060020a03909216919091179055565b60006060600080600060606000600560029054906101000a9004600160a060020a0316600160a060020a031633600160a060020a0316141515613d3a57600080fd5b600554610100900460ff1615613d4f57600080fd5b6005805461ff001916610100179055600754604080517fdc659907000000000000000000000000000000000000000000000000000000008152600160a060020a038f811660048301529151919092169163dc65990791602480830192600092919082900301818387803b158015613dc557600080fd5b505af1158015613dd9573d6000803e3d6000fd5b505050508b965086600160a060020a031663b4579d606040518163ffffffff1660e060020a028152600401600060405180830381600087803b158015613e1e57600080fd5b505af1158015613e32573d6000803e3d6000fd5b505050506040513d6000823e601f3d908101601f191682016040526020811015613e5b57600080fd5b810190808051640100000000811115613e7357600080fd5b82016020810184811115613e8657600080fd5b8151856020820283011164010000000082111715613ea357600080fd5b5050929190505050955086600160a060020a031663a5e9d7c96040518163ffffffff1660e060020a028152600401602060405180830381600087803b158015613eeb57600080fd5b505af1158015613eff573d6000803e3d6000fd5b505050506040513d6020811015613f1557600080fd5b5051945088851115613f71576040805160e560020a62461bcd02815260206004820152600c60248201527f496e76616c696420636f73740000000000000000000000000000000000000000604482015290519081900360640190fd5b600a54604080517f095ea7b3000000000000000000000000000000000000000000000000000000008152600160a060020a038f81166004830152602482018990529151919092169163095ea7b39160448083019260209291908290030181600087803b158015613fe057600080fd5b505af1158015613ff4573d6000803e3d6000fd5b505050506040513d602081101561400a57600080fd5b50506040517e774360000000000000000000000000000000000000000000000000000000008152602060048201908152602482018c9052600160a060020a0389169162774360918e918e9190819060440184848082843782019150509350505050602060405180830381600087803b15801561408557600080fd5b505af1158015614099573d6000803e3d6000fd5b505050506040513d60208110156140af57600080fd5b5051600160a060020a038082166000908152601460205260409020600101549195501615614127576040805160e560020a62461bcd02815260206004820152600d60248201527f4d6f64756c652065786973747300000000000000000000000000000000000000604482015290519081900360640190fd5b600a54604080517f095ea7b3000000000000000000000000000000000000000000000000000000008152600160a060020a038781166004830152602482018c90529151919092169163095ea7b39160448083019260209291908290030181600087803b15801561419657600080fd5b505af11580156141aa573d6000803e3d6000fd5b505050506040513d60208110156141c057600080fd5b5050604080517f17d7de7c0000000000000000000000000000000000000000000000000000000081529051600160a060020a038916916317d7de7c9160048083019260209291908290030181600087803b15801561421d57600080fd5b505af1158015614231573d6000803e3d6000fd5b505050506040513d602081101561424757600080fd5b505186516040805182815260208381028201019091529194508015614276578160200160208202803883390190505b509150600090505b85518110156143345760136000878381518110151561429957fe5b602090810290910181015160ff1682528101919091526040016000205482518390839081106142c457fe5b6020908102909101015285516013906000908890849081106142e257fe5b60209081029190910181015160ff168252818101929092526040016000908120805460018082018355918352929091209091018054600160a060020a031916600160a060020a0387161790550161427e565b60e0604051908101604052808460001916815260200185600160a060020a031681526020018d600160a060020a03168152602001600015158152602001878152602001838152602001601560008660001916600019168152602001908152602001600020805490508152506014600086600160a060020a0316600160a060020a031681526020019081526020016000206000820151816000019060001916905560208201518160010160006101000a815481600160a060020a030219169083600160a060020a0316021790555060408201518160020160006101000a815481600160a060020a030219169083600160a060020a0316021790555060608201518160020160146101000a81548160ff021916908315150217905550608082015181600301908051906020019061446a929190615534565b5060a082015180516144869160048401916020909101906155d6565b5060c082015181600501559050506015600084600019166000191681526020019081526020016000208490806001815401808255809150509060018203906000526020600020016000909192909190916101000a815481600160a060020a030219169083600160a060020a03160217905550507fa902846e90aed52d2fbbaeb545287d4605aa25564cab74181fab117022d9eeb986848e87898d426040518080602001886000191660001916815260200187600160a060020a0316600160a060020a0316815260200186600160a060020a0316600160a060020a03168152602001858152602001848152602001838152602001828103825289818151815260200191508051906020019060200280838360005b838110156145b1578181015183820152602001614599565b505050509050019850505050505050505060405180910390a150506005805461ff001916905550505050505050505050565b60125463010000009004600160a060020a031681565b600554600090600490620100009004600160a060020a03163314156146a8576011546000191161462857600080fd5b6011805460019081018255601880549182018155600052427fb13d2d76d1f4b7be834882e410b3e3a8afaf69f83600ae24db354391d2378d2e9091018190559054604080519283525190917f624ea167e477f9d39f7f4094b9dfe2e6346eb4a7aada54338db51abd554c4b9f919081900360200190a2601154915061108b565b6146b233826149ed565b15156146bd57600080fd5b601154600019116146cd57600080fd5b6011805460019081018255601880549182018155600052427fb13d2d76d1f4b7be834882e410b3e3a8afaf69f83600ae24db354391d2378d2e9091018190559054604080519283525190917f624ea167e477f9d39f7f4094b9dfe2e6346eb4a7aada54338db51abd554c4b9f919081900360200190a2505060115490565b6005546000908190610100900460ff161561476557600080fd5b6005805461ff00191661010017905561477f868686615302565b61478d868686866001614f78565b9050614798866153ce565b6147a1856153ce565b6005805461ff001916905595945050505050565b6000600160a060020a03831615156147cc57600080fd5b336000908152602081905260409020548211156147e857600080fd5b33600090815260208190526040902054614808908363ffffffff61488416565b3360009081526020819052604080822092909255600160a060020a0385168152205461483a908363ffffffff614b7516565b600160a060020a0384166000818152602081815260409182902093909355805185815290519192339260008051602061566a8339815191529281900390910190a350600192915050565b60008282111561489057fe5b50900390565b600160a060020a0383166000908152602081905260408120548190841115614908576040805160e560020a62461bcd02815260206004820152600e60248201527f56616c756520746f6f2068696768000000000000000000000000000000000000604482015290519081900360640190fd5b614915856000868661474b565b905061491f614b88565b600160a060020a038516600090815260208190526040902054614948908563ffffffff61488416565b600160a060020a038616600090815260208190526040902055600154614974908563ffffffff61488416565b600155604080518581529051600160a060020a038716917f919f7e2092ffcc9d09f599be18d8152860b0c054df788a33bc549cdd9d0f15b1919081900360200190a2604080518581529051600091600160a060020a0388169160008051602061566a8339815191529181900360200190a3949350505050565b600160a060020a0380831660008181526014602052604081206001015490928392911614614a65576040805160e560020a62461bcd02815260206004820152600d60248201527f57726f6e67206164647265737300000000000000000000000000000000000000604482015290519081900360640190fd5b600160a060020a03841660009081526014602052604090206002015460a060020a900460ff1615614ae0576040805160e560020a62461bcd02815260206004820152600f60248201527f4d6f64756c652061726368697665640000000000000000000000000000000000604482015290519081900360640190fd5b5060005b600160a060020a038416600090815260146020526040902060030154811015614b6b57600160a060020a0384166000908152601460205260409020600301805460ff8516919083908110614b3457fe5b60009182526020918290209181049091015460ff601f9092166101000a9004161415614b635760019150612216565b600101614ae4565b5060009392505050565b81810182811015614b8257fe5b92915050565b73__TokenLib______________________________6307c20d976017614bac61114e565b6011546040518463ffffffff1660e060020a02815260040180848152602001838152602001828152602001935050505060006040518083038186803b158015614bf457600080fd5b505af415801561258e573d6000803e3d6000fd5b60ff821660009081526013602052604081208054916060916000198401848110614c2e57fe5b600091825260208083209091015460ff88168352601390915260409091208054600160a060020a039092169186908110614c6457fe5b60009182526020808320919091018054600160a060020a031916600160a060020a03949094169390931790925560ff87168152601390915260409020600019840190614cb090826154cd565b50600019830184146111475760ff851660009081526013602052604081208054601492919087908110614cdf57fe5b6000918252602080832090910154600160a060020a03168352828101939093526040918201902060030180548251818502810185019093528083529192909190830182828015614d6c57602002820191906000526020600020906000905b825461010083900a900460ff16815260206001928301818104948501949093039092029101808411614d3d5790505b50505050509150600090505b8151811015611147578460ff168282815181101515614d9357fe5b9060200190602002015160ff161415614e0b5760ff8516600090815260136020526040812080548692601492909184908110614dcb57fe5b6000918252602080832090910154600160a060020a031683528201929092526040019020600401805483908110614dfe57fe5b6000918252602090912001555b600101614d78565b6000600160a060020a0383161515614e2a57600080fd5b600160a060020a038416600090815260208190526040902054821115614e4f57600080fd5b600160a060020a0384166000908152600260209081526040808320338452909152902054821115614e7f57600080fd5b600160a060020a038416600090815260208190526040902054614ea8908363ffffffff61488416565b600160a060020a038086166000908152602081905260408082209390935590851681522054614edd908363ffffffff614b7516565b600160a060020a03808516600090815260208181526040808320949094559187168152600282528281203382529091522054614f1f908363ffffffff61488416565b600160a060020a038086166000818152600260209081526040808320338452825291829020949094558051868152905192871693919260008051602061566a833981519152929181900390910190a35060019392505050565b6000806000806000806000808a60105481811515614f9257fe5b0615614fe8576040805160e560020a62461bcd02815260206004820152601360248201527f496e76616c6964206772616e756c617269747900000000000000000000000000604482015290519081900360640190fd5b60125460ff1615156152605760009750600096506000955060009450600092505b600260005260136020527f0b9d2c0c271bb30544eb78c59bdaebdae2728e5f65814c07768a0abe90ed19235483101561523257600260005260136020527f0b9d2c0c271bb30544eb78c59bdaebdae2728e5f65814c07768a0abe90ed192380548490811061507357fe5b6000918252602080832090910154600160a060020a0316808352601490915260409091206002015490945060ff60a060020a909104161515615227576001945083600160a060020a031663de6ee1bc8f8f8f8f8f6040518663ffffffff1660e060020a0281526004018086600160a060020a0316600160a060020a0316815260200185600160a060020a0316600160a060020a031681526020018481526020018060200183151515158152602001828103825284818151815260200191508051906020019080838360005b8381101561515657818101518382015260200161513e565b50505050905090810190601f1680156151835780820380516001836020036101000a031916815260200191505b509650505050505050602060405180830381600087803b1580156151a657600080fd5b505af11580156151ba573d6000803e3d6000fd5b505050506040513d60208110156151d057600080fd5b5051915060008260038111156151e257fe5b14156151f15760019750615227565b60028260038111156151ff57fe5b141561520e5760019650615227565b600382600381111561521c57fe5b141561522757600195505b600190920191615009565b8461523e576001615259565b85615256578761524e5786615251565b60005b615259565b60015b9850615265565b600098505b505050505050505095945050505050565b600160a060020a038116151561528b57600080fd5b600554604051600160a060020a038084169262010000900416907f8be0079c531659141344cd1fd0a4f28419497f9722a3daafe3b4186f6b6457e090600090a360058054600160a060020a03909216620100000275ffffffffffffffffffffffffffffffffffffffff000019909216919091179055565b73__TokenLib______________________________6317dd222c600b85858561532a8861222c565b6153338a61222c565b6040518763ffffffff1660e060020a0281526004018087815260200186600160a060020a0316600160a060020a0316815260200185600160a060020a0316600160a060020a03168152602001848152602001838152602001828152602001965050505050505060006040518083038186803b1580156153b157600080fd5b505af41580156153c5573d6000803e3d6000fd5b50505050505050565b600160a060020a038116600090815260166020526040902073__TokenLib______________________________906307c20d979061540b8461222c565b6011546040518463ffffffff1660e060020a02815260040180848152602001838152602001828152602001935050505060006040518083038186803b15801561113357600080fd5b828054600181600116156101000203166002900490600052602060002090601f016020900481019282601f106154945782800160ff198235161785556154c1565b828001600101855582156154c1579182015b828111156154c15782358255916020019190600101906154a6565b5061108b929150615611565b81548183558181111561173a5760008381526020902061173a918101908301615611565b50805460008255601f0160209004906000526020600020908101906139d89190615611565b50805460008255906000526020600020908101906139d89190615611565b82805482825590600052602060002090601f016020900481019282156155ca5791602002820160005b8382111561559b57835183826101000a81548160ff021916908360ff160217905550926020019260010160208160000104928301926001030261555d565b80156155c85782816101000a81549060ff021916905560010160208160000104928301926001030261559b565b505b5061108b92915061562b565b8280548282559060005260206000209081019282156154c1579160200282015b828111156154c15782518255916020019190600101906155f6565b61115291905b8082111561108b5760008155600101615617565b61115291905b8082111561108b57805460ff1916815560010161563156005472616e7366657220696e76616c696400000000000000000000000000000000ddf252ad1be2c89b69c2b068fc378daa952ba7f163c4a11628f55a4df523b3efa165627a7a72305820e61b27d1644748414f31568b6cf961e64985c5b9c624688bb0b6eb5a4ce30ae40029",
  "source": "pragma solidity ^0.4.24;\n\nimport \"openzeppelin-solidity/contracts/math/Math.sol\";\nimport \"../interfaces/IERC20.sol\";\nimport \"../interfaces/IModule.sol\";\nimport \"../interfaces/IModuleFactory.sol\";\nimport \"../interfaces/IModuleRegistry.sol\";\nimport \"../interfaces/IFeatureRegistry.sol\";\nimport \"../modules/TransferManager/ITransferManager.sol\";\nimport \"../RegistryUpdater.sol\";\nimport \"../libraries/Util.sol\";\nimport \"openzeppelin-solidity/contracts/ReentrancyGuard.sol\";\nimport \"openzeppelin-solidity/contracts/token/ERC20/StandardToken.sol\";\nimport \"openzeppelin-solidity/contracts/token/ERC20/DetailedERC20.sol\";\nimport \"../libraries/TokenLib.sol\";\n\n/**\n* @title Security Token contract\n* @notice SecurityToken is an ERC20 token with added capabilities:\n* @notice - Implements the ST-20 Interface\n* @notice - Transfers are restricted\n* @notice - Modules can be attached to it to control its behaviour\n* @notice - ST should not be deployed directly, but rather the SecurityTokenRegistry should be used\n* @notice - ST does not inherit from ISecurityToken due to:\n* @notice - https://github.com/ethereum/solidity/issues/4847\n*/\ncontract SecurityToken is StandardToken, DetailedERC20, ReentrancyGuard, RegistryUpdater {\n    using SafeMath for uint256;\n\n    TokenLib.InvestorDataStorage investorData;\n\n    // Used to hold the semantic version data\n    struct SemanticVersion {\n        uint8 major;\n        uint8 minor;\n        uint8 patch;\n    }\n\n    SemanticVersion securityTokenVersion;\n\n    // off-chain data\n    string public tokenDetails;\n\n    uint8 constant PERMISSION_KEY = 1;\n    uint8 constant TRANSFER_KEY = 2;\n    uint8 constant MINT_KEY = 3;\n    uint8 constant CHECKPOINT_KEY = 4;\n    uint8 constant BURN_KEY = 5;\n\n    uint256 public granularity;\n\n    // Value of current checkpoint\n    uint256 public currentCheckpointId;\n\n    // Used to temporarily halt all transactions\n    bool public transfersFrozen;\n\n    // Used to permanently halt all minting\n    bool public mintingFrozen;\n\n    // Used to permanently halt controller actions\n    bool public controllerDisabled;\n\n    // Address whitelisted by issuer as controller\n    address public controller;\n\n    // Records added modules - module list should be order agnostic!\n    mapping (uint8 => address[]) modules;\n\n    // Records information about the module\n    mapping (address => TokenLib.ModuleData) modulesToData;\n\n    // Records added module names - module list should be order agnostic!\n    mapping (bytes32 => address[]) names;\n\n    // Map each investor to a series of checkpoints\n    mapping (address => TokenLib.Checkpoint[]) checkpointBalances;\n\n    // List of checkpoints that relate to total supply\n    TokenLib.Checkpoint[] checkpointTotalSupply;\n\n    // Times at which each checkpoint was created\n    uint256[] checkpointTimes;\n\n    // Emit at the time when module get added\n    event ModuleAdded(\n        uint8[] _types,\n        bytes32 _name,\n        address _moduleFactory,\n        address _module,\n        uint256 _moduleCost,\n        uint256 _budget,\n        uint256 _timestamp\n    );\n\n    // Emit when the token details get updated\n    event UpdateTokenDetails(string _oldDetails, string _newDetails);\n    // Emit when the granularity get changed\n    event GranularityChanged(uint256 _oldGranularity, uint256 _newGranularity);\n    // Emit when Module get archived from the securityToken\n    event ModuleArchived(uint8[] _types, address _module, uint256 _timestamp);\n    // Emit when Module get unarchived from the securityToken\n    event ModuleUnarchived(uint8[] _types, address _module, uint256 _timestamp);\n    // Emit when Module get removed from the securityToken\n    event ModuleRemoved(uint8[] _types, address _module, uint256 _timestamp);\n    // Emit when the budget allocated to a module is changed\n    event ModuleBudgetChanged(uint8[] _moduleTypes, address _module, uint256 _oldBudget, uint256 _budget);\n    // Emit when transfers are frozen or unfrozen\n    event FreezeTransfers(bool _status, uint256 _timestamp);\n    // Emit when new checkpoint created\n    event CheckpointCreated(uint256 indexed _checkpointId, uint256 _timestamp);\n    // Emit when is permanently frozen by the issuer\n    event FreezeMinting(uint256 _timestamp);\n    // Events to log minting and burning\n    event Minted(address indexed _to, uint256 _value);\n    event Burnt(address indexed _from, uint256 _value);\n\n    // Events to log controller actions\n    event SetController(address indexed _oldController, address indexed _newController);\n    event ForceTransfer(\n        address indexed _controller,\n        address indexed _from,\n        address indexed _to,\n        uint256 _value,\n        bool _verifyTransfer,\n        bytes _data\n    );\n    event ForceBurn(\n        address indexed _controller,\n        address indexed _from,\n        uint256 _value,\n        bool _verifyTransfer,\n        bytes _data\n    );\n    event DisableController(uint256 _timestamp);\n\n    function _isModule(address _module, uint8 _type) internal view returns (bool) {\n        require(modulesToData[_module].module == _module, \"Wrong address\");\n        require(!modulesToData[_module].isArchived, \"Module archived\");\n        for (uint256 i = 0; i < modulesToData[_module].moduleTypes.length; i++) {\n            if (modulesToData[_module].moduleTypes[i] == _type) {\n                return true;\n            }\n        }\n        return false;\n    }\n\n    // Require msg.sender to be the specified module type\n    modifier onlyModule(uint8 _type) {\n        require(_isModule(msg.sender, _type));\n        _;\n    }\n\n    // Require msg.sender to be the specified module type or the owner of the token\n    modifier onlyModuleOrOwner(uint8 _type) {\n        if (msg.sender == owner) {\n            _;\n        } else {\n            require(_isModule(msg.sender, _type));\n            _;\n        }\n    }\n\n    modifier checkGranularity(uint256 _value) {\n        require(_value % granularity == 0, \"Invalid granularity\");\n        _;\n    }\n\n    modifier isMintingAllowed() {\n        require(!mintingFrozen, \"Minting frozen\");\n        _;\n    }\n\n    modifier isEnabled(string _nameKey) {\n        require(IFeatureRegistry(featureRegistry).getFeatureStatus(_nameKey));\n        _;\n    }\n\n    /**\n     * @notice Revert if called by an account which is not a controller\n     */\n    modifier onlyController() {\n        require(msg.sender == controller, \"Not controller\");\n        require(!controllerDisabled, \"Controller disabled\");\n        _;\n    }\n\n    /**\n     * @notice Constructor\n     * @param _name Name of the SecurityToken\n     * @param _symbol Symbol of the Token\n     * @param _decimals Decimals for the securityToken\n     * @param _granularity granular level of the token\n     * @param _tokenDetails Details of the token that are stored off-chain\n     * @param _polymathRegistry Contract address of the polymath registry\n     */\n    constructor (\n        string _name,\n        string _symbol,\n        uint8 _decimals,\n        uint256 _granularity,\n        string _tokenDetails,\n        address _polymathRegistry\n    )\n    public\n    DetailedERC20(_name, _symbol, _decimals)\n    RegistryUpdater(_polymathRegistry)\n    {\n        //When it is created, the owner is the STR\n        updateFromRegistry();\n        tokenDetails = _tokenDetails;\n        granularity = _granularity;\n        securityTokenVersion = SemanticVersion(2,0,0);\n    }\n\n    /**\n     * @notice Attachs a module to the SecurityToken\n     * @dev  E.G.: On deployment (through the STR) ST gets a TransferManager module attached to it\n     * @dev to control restrictions on transfers.\n     * @param _moduleFactory is the address of the module factory to be added\n     * @param _data is data packed into bytes used to further configure the module (See STO usage)\n     * @param _maxCost max amount of POLY willing to pay to the module.\n     * @param _budget max amount of ongoing POLY willing to assign to the module.\n     */\n    function addModule(\n        address _moduleFactory,\n        bytes _data,\n        uint256 _maxCost,\n        uint256 _budget\n    ) external onlyOwner nonReentrant {\n        //Check that the module factory exists in the ModuleRegistry - will throw otherwise\n        IModuleRegistry(moduleRegistry).useModule(_moduleFactory);\n        IModuleFactory moduleFactory = IModuleFactory(_moduleFactory);\n        uint8[] memory moduleTypes = moduleFactory.getTypes();\n        uint256 moduleCost = moduleFactory.getSetupCost();\n        require(moduleCost <= _maxCost, \"Invalid cost\");\n        //Approve fee for module\n        ERC20(polyToken).approve(_moduleFactory, moduleCost);\n        //Creates instance of module from factory\n        address module = moduleFactory.deploy(_data);\n        require(modulesToData[module].module == address(0), \"Module exists\");\n        //Approve ongoing budget\n        ERC20(polyToken).approve(module, _budget);\n        //Add to SecurityToken module map\n        bytes32 moduleName = moduleFactory.getName();\n        uint256[] memory moduleIndexes = new uint256[](moduleTypes.length);\n        uint256 i;\n        for (i = 0; i < moduleTypes.length; i++) {\n            moduleIndexes[i] = modules[moduleTypes[i]].length;\n            modules[moduleTypes[i]].push(module);\n        }\n        modulesToData[module] = TokenLib.ModuleData(\n            moduleName, module, _moduleFactory, false, moduleTypes, moduleIndexes, names[moduleName].length\n        );\n        names[moduleName].push(module);\n        //Emit log event\n        /*solium-disable-next-line security/no-block-members*/\n        emit ModuleAdded(moduleTypes, moduleName, _moduleFactory, module, moduleCost, _budget, now);\n    }\n\n    /**\n    * @notice Archives a module attached to the SecurityToken\n    * @param _module address of module to archive\n    */\n    function archiveModule(address _module) external onlyOwner {\n        TokenLib.archiveModule(modulesToData[_module], _module);\n    }\n\n    /**\n    * @notice Unarchives a module attached to the SecurityToken\n    * @param _module address of module to unarchive\n    */\n    function unarchiveModule(address _module) external onlyOwner {\n        TokenLib.unarchiveModule(modulesToData[_module], _module);\n    }\n\n    /**\n    * @notice Removes a module attached to the SecurityToken\n    * @param _module address of module to unarchive\n    */\n    function removeModule(address _module) external onlyOwner {\n        require(modulesToData[_module].isArchived, \"Not archived\");\n        require(modulesToData[_module].module != address(0), \"Module missing\");\n        /*solium-disable-next-line security/no-block-members*/\n        emit ModuleRemoved(modulesToData[_module].moduleTypes, _module, now);\n        // Remove from module type list\n        uint8[] memory moduleTypes = modulesToData[_module].moduleTypes;\n        for (uint256 i = 0; i < moduleTypes.length; i++) {\n            _removeModuleWithIndex(moduleTypes[i], modulesToData[_module].moduleIndexes[i]);\n            /* modulesToData[_module].moduleType[moduleTypes[i]] = false; */\n        }\n        // Remove from module names list\n        uint256 index = modulesToData[_module].nameIndex;\n        bytes32 name = modulesToData[_module].name;\n        uint256 length = names[name].length;\n        names[name][index] = names[name][length - 1];\n        names[name].length = length - 1;\n        if ((length - 1) != index) {\n            modulesToData[names[name][index]].nameIndex = index;\n        }\n        // Remove from modulesToData\n        delete modulesToData[_module];\n    }\n\n    /**\n    * @notice Internal - Removes a module attached to the SecurityToken by index\n    */\n    function _removeModuleWithIndex(uint8 _type, uint256 _index) internal {\n        uint256 length = modules[_type].length;\n        modules[_type][_index] = modules[_type][length - 1];\n        modules[_type].length = length - 1;\n\n        if ((length - 1) != _index) {\n            //Need to find index of _type in moduleTypes of module we are moving\n            uint8[] memory newTypes = modulesToData[modules[_type][_index]].moduleTypes;\n            for (uint256 i = 0; i < newTypes.length; i++) {\n                if (newTypes[i] == _type) {\n                    modulesToData[modules[_type][_index]].moduleIndexes[i] = _index;\n                }\n            }\n        }\n    }\n\n    /**\n     * @notice Returns the data associated to a module\n     * @param _module address of the module\n     * @return bytes32 name\n     * @return address module address\n     * @return address module factory address\n     * @return bool module archived\n     * @return uint8 module type\n     */\n    function getModule(address _module) external view returns (bytes32, address, address, bool, uint8[]) {\n        return (modulesToData[_module].name,\n        modulesToData[_module].module,\n        modulesToData[_module].moduleFactory,\n        modulesToData[_module].isArchived,\n        modulesToData[_module].moduleTypes);\n    }\n\n    /**\n     * @notice Returns a list of modules that match the provided name\n     * @param _name name of the module\n     * @return address[] list of modules with this name\n     */\n    function getModulesByName(bytes32 _name) external view returns (address[]) {\n        return names[_name];\n    }\n\n    /**\n     * @notice Returns a list of modules that match the provided module type\n     * @param _type type of the module\n     * @return address[] list of modules with this type\n     */\n    function getModulesByType(uint8 _type) external view returns (address[]) {\n        return modules[_type];\n    }\n\n   /**\n    * @notice Allows the owner to withdraw unspent POLY stored by them on the ST or any ERC20 token.\n    * @dev Owner can transfer POLY to the ST which will be used to pay for modules that require a POLY fee.\n    * @param _tokenContract Address of the ERC20Basic compliance token\n    * @param _value amount of POLY to withdraw\n    */\n    function withdrawERC20(address _tokenContract, uint256 _value) external onlyOwner {\n        require(_tokenContract != address(0));\n        IERC20 token = IERC20(_tokenContract);\n        require(token.transfer(owner, _value));\n    }\n\n    /**\n\n    * @notice allows owner to increase/decrease POLY approval of one of the modules\n    * @param _module module address\n    * @param _change change in allowance\n    * @param _increase true if budget has to be increased, false if decrease\n    */\n    function changeModuleBudget(address _module, uint256 _change, bool _increase) external onlyOwner {\n        require(modulesToData[_module].module != address(0), \"Module missing\");\n        uint256 currentAllowance = IERC20(polyToken).allowance(address(this), _module);\n        uint256 newAllowance;\n        if (_increase) {\n            require(IERC20(polyToken).increaseApproval(_module, _change), \"IncreaseApproval fail\");\n            newAllowance = currentAllowance.add(_change);\n        } else {\n            require(IERC20(polyToken).decreaseApproval(_module, _change), \"Insufficient allowance\");\n            newAllowance = currentAllowance.sub(_change);\n        }\n        emit ModuleBudgetChanged(modulesToData[_module].moduleTypes, _module, currentAllowance, newAllowance);\n    }\n\n    /**\n     * @notice updates the tokenDetails associated with the token\n     * @param _newTokenDetails New token details\n     */\n    function updateTokenDetails(string _newTokenDetails) external onlyOwner {\n        emit UpdateTokenDetails(tokenDetails, _newTokenDetails);\n        tokenDetails = _newTokenDetails;\n    }\n\n    /**\n    * @notice Allows owner to change token granularity\n    * @param _granularity granularity level of the token\n    */\n    function changeGranularity(uint256 _granularity) external onlyOwner {\n        require(_granularity != 0, \"Invalid granularity\");\n        emit GranularityChanged(granularity, _granularity);\n        granularity = _granularity;\n    }\n\n    /**\n    * @notice Keeps track of the number of non-zero token holders\n    * @param _from sender of transfer\n    * @param _to receiver of transfer\n    * @param _value value of transfer\n    */\n    function _adjustInvestorCount(address _from, address _to, uint256 _value) internal {\n        TokenLib.adjustInvestorCount(investorData, _from, _to, _value, balanceOf(_to), balanceOf(_from));\n    }\n\n    /**\n     * @notice returns an array of investors\n     * NB - this length may differ from investorCount as it contains all investors that ever held tokens\n     * @return list of addresses\n     */\n    function getInvestors() external view returns(address[]) {\n        return investorData.investors;\n    }\n\n    /**\n     * @notice returns an array of investors at a given checkpoint\n     * NB - this length may differ from investorCount as it contains all investors that ever held tokens\n     * @param _checkpointId Checkpoint id at which investor list is to be populated\n     * @return list of investors\n     */\n    function getInvestorsAt(uint256 _checkpointId) external view returns(address[]) {\n        uint256 count = 0;\n        uint256 i;\n        for (i = 0; i < investorData.investors.length; i++) {\n            if (balanceOfAt(investorData.investors[i], _checkpointId) > 0) {\n                count++;\n            }\n        }\n        address[] memory investors = new address[](count);\n        count = 0;\n        for (i = 0; i < investorData.investors.length; i++) {\n            if (balanceOfAt(investorData.investors[i], _checkpointId) > 0) {\n                investors[count] = investorData.investors[i];\n                count++;\n            }\n        }\n        return investors;\n    }\n\n    /**\n     * @notice generates subset of investors\n     * NB - can be used in batches if investor list is large\n     * @param _start Position of investor to start iteration from\n     * @param _end Position of investor to stop iteration at\n     * @return list of investors\n     */\n    function iterateInvestors(uint256 _start, uint256 _end) external view returns(address[]) {\n        require(_end <= investorData.investors.length, \"Invalid end\");\n        address[] memory investors = new address[](_end.sub(_start));\n        uint256 index = 0;\n        for (uint256 i = _start; i < _end; i++) {\n            investors[index] = investorData.investors[i];\n            index++;\n        }\n        return investors;\n    }\n\n    /**\n     * @notice Returns the investor count\n     * @return Investor count\n     */\n    function getInvestorCount() external view returns(uint256) {\n        return investorData.investorCount;\n    }\n\n    /**\n     * @notice freezes transfers\n     */\n    function freezeTransfers() external onlyOwner {\n        require(!transfersFrozen, \"Already frozen\");\n        transfersFrozen = true;\n        /*solium-disable-next-line security/no-block-members*/\n        emit FreezeTransfers(true, now);\n    }\n\n    /**\n     * @notice Unfreeze transfers\n     */\n    function unfreezeTransfers() external onlyOwner {\n        require(transfersFrozen, \"Not frozen\");\n        transfersFrozen = false;\n        /*solium-disable-next-line security/no-block-members*/\n        emit FreezeTransfers(false, now);\n    }\n\n    /**\n     * @notice Internal - adjusts totalSupply at checkpoint after minting or burning tokens\n     */\n    function _adjustTotalSupplyCheckpoints() internal {\n        TokenLib.adjustCheckpoints(checkpointTotalSupply, totalSupply(), currentCheckpointId);\n    }\n\n    /**\n     * @notice Internal - adjusts token holder balance at checkpoint after a token transfer\n     * @param _investor address of the token holder affected\n     */\n    function _adjustBalanceCheckpoints(address _investor) internal {\n        TokenLib.adjustCheckpoints(checkpointBalances[_investor], balanceOf(_investor), currentCheckpointId);\n    }\n\n    /**\n     * @notice Overloaded version of the transfer function\n     * @param _to receiver of transfer\n     * @param _value value of transfer\n     * @return bool success\n     */\n    function transfer(address _to, uint256 _value) public returns (bool success) {\n        return transferWithData(_to, _value, \"\");\n    }\n\n    /**\n     * @notice Overloaded version of the transfer function\n     * @param _to receiver of transfer\n     * @param _value value of transfer\n     * @param _data data to indicate validation\n     * @return bool success\n     */\n    function transferWithData(address _to, uint256 _value, bytes _data) public returns (bool success) {\n        require(_updateTransfer(msg.sender, _to, _value, _data), \"Transfer invalid\");\n        require(super.transfer(_to, _value));\n        return true;\n    }\n\n    /**\n     * @notice Overloaded version of the transferFrom function\n     * @param _from sender of transfer\n     * @param _to receiver of transfer\n     * @param _value value of transfer\n     * @return bool success\n     */\n    function transferFrom(address _from, address _to, uint256 _value) public returns(bool) {\n        return transferFromWithData(_from, _to, _value, \"\");\n    }\n\n    /**\n     * @notice Overloaded version of the transferFrom function\n     * @param _from sender of transfer\n     * @param _to receiver of transfer\n     * @param _value value of transfer\n     * @param _data data to indicate validation\n     * @return bool success\n     */\n    function transferFromWithData(address _from, address _to, uint256 _value, bytes _data) public returns(bool) {\n        require(_updateTransfer(_from, _to, _value, _data), \"Transfer invalid\");\n        require(super.transferFrom(_from, _to, _value));\n        return true;\n    }\n\n    /**\n     * @notice Updates internal variables when performing a transfer\n     * @param _from sender of transfer\n     * @param _to receiver of transfer\n     * @param _value value of transfer\n     * @param _data data to indicate validation\n     * @return bool success\n     */\n    function _updateTransfer(address _from, address _to, uint256 _value, bytes _data) internal nonReentrant returns(bool) {\n        // NB - the ordering in this function implies the following:\n        //  - investor counts are updated before transfer managers are called - i.e. transfer managers will see\n        //investor counts including the current transfer.\n        //  - checkpoints are updated after the transfer managers are called. This allows TMs to create\n        //checkpoints as though they have been created before the current transactions,\n        //  - to avoid the situation where a transfer manager transfers tokens, and this function is called recursively,\n        //the function is marked as nonReentrant. This means that no TM can transfer (or mint / burn) tokens.\n        _adjustInvestorCount(_from, _to, _value);\n        bool verified = _verifyTransfer(_from, _to, _value, _data, true);\n        _adjustBalanceCheckpoints(_from);\n        _adjustBalanceCheckpoints(_to);\n        return verified;\n    }\n\n    /**\n     * @notice Validate transfer with TransferManager module if it exists\n     * @dev TransferManager module has a key of 2\n     * @dev _isTransfer boolean flag is the deciding factor for whether the\n     * state variables gets modified or not within the different modules. i.e isTransfer = true\n     * leads to change in the modules environment otherwise _verifyTransfer() works as a read-only\n     * function (no change in the state).\n     * @param _from sender of transfer\n     * @param _to receiver of transfer\n     * @param _value value of transfer\n     * @param _data data to indicate validation\n     * @param _isTransfer whether transfer is being executed\n     * @return bool\n     */\n    function _verifyTransfer(\n        address _from,\n        address _to,\n        uint256 _value,\n        bytes _data,\n        bool _isTransfer\n    ) internal checkGranularity(_value) returns (bool) {\n        if (!transfersFrozen) {\n            bool isInvalid = false;\n            bool isValid = false;\n            bool isForceValid = false;\n            bool unarchived = false;\n            address module;\n            for (uint256 i = 0; i < modules[TRANSFER_KEY].length; i++) {\n                module = modules[TRANSFER_KEY][i];\n                if (!modulesToData[module].isArchived) {\n                    unarchived = true;\n                    ITransferManager.Result valid = ITransferManager(module).verifyTransfer(_from, _to, _value, _data, _isTransfer);\n                    if (valid == ITransferManager.Result.INVALID) {\n                        isInvalid = true;\n                    } else if (valid == ITransferManager.Result.VALID) {\n                        isValid = true;\n                    } else if (valid == ITransferManager.Result.FORCE_VALID) {\n                        isForceValid = true;\n                    }\n                }\n            }\n            // If no unarchived modules, return true by default\n            return unarchived ? (isForceValid ? true : (isInvalid ? false : isValid)) : true;\n        }\n        return false;\n    }\n\n    /**\n     * @notice Validates a transfer with a TransferManager module if it exists\n     * @dev TransferManager module has a key of 2\n     * @param _from sender of transfer\n     * @param _to receiver of transfer\n     * @param _value value of transfer\n     * @param _data data to indicate validation\n     * @return bool\n     */\n    function verifyTransfer(address _from, address _to, uint256 _value, bytes _data) public returns (bool) {\n        return _verifyTransfer(_from, _to, _value, _data, false);\n    }\n\n    /**\n     * @notice Permanently freeze minting of this security token.\n     * @dev It MUST NOT be possible to increase `totalSuppy` after this function is called.\n     */\n    function freezeMinting() external isMintingAllowed() isEnabled(\"freezeMintingAllowed\") onlyOwner {\n        mintingFrozen = true;\n        /*solium-disable-next-line security/no-block-members*/\n        emit FreezeMinting(now);\n    }\n\n    /**\n     * @notice Mints new tokens and assigns them to the target _investor.\n     * @dev Can only be called by the issuer or STO attached to the token\n     * @param _investor Address where the minted tokens will be delivered\n     * @param _value Number of tokens be minted\n     * @return success\n     */\n    function mint(address _investor, uint256 _value) public returns (bool success) {\n        return mintWithData(_investor, _value, \"\");\n    }\n\n    /**\n     * @notice mints new tokens and assigns them to the target _investor.\n     * @dev Can only be called by the issuer or STO attached to the token\n     * @param _investor Address where the minted tokens will be delivered\n     * @param _value Number of tokens be minted\n     * @param _data data to indicate validation\n     * @return success\n     */\n    function mintWithData(\n        address _investor,\n        uint256 _value,\n        bytes _data\n        ) public onlyModuleOrOwner(MINT_KEY) isMintingAllowed() returns (bool success) {\n        require(_investor != address(0), \"Investor is 0\");\n        require(_updateTransfer(address(0), _investor, _value, _data), \"Transfer invalid\");\n        _adjustTotalSupplyCheckpoints();\n        totalSupply_ = totalSupply_.add(_value);\n        balances[_investor] = balances[_investor].add(_value);\n        emit Minted(_investor, _value);\n        emit Transfer(address(0), _investor, _value);\n        return true;\n    }\n\n    /**\n     * @notice Mints new tokens and assigns them to the target _investor.\n     * @dev Can only be called by the issuer or STO attached to the token.\n     * @param _investors A list of addresses to whom the minted tokens will be dilivered\n     * @param _values A list of number of tokens get minted and transfer to corresponding address of the investor from _investor[] list\n     * @return success\n     */\n    function mintMulti(address[] _investors, uint256[] _values) external returns (bool success) {\n        require(_investors.length == _values.length, \"Incorrect inputs\");\n        for (uint256 i = 0; i < _investors.length; i++) {\n            mint(_investors[i], _values[i]);\n        }\n        return true;\n    }\n\n    /**\n     * @notice Validate permissions with PermissionManager if it exists, If no Permission return false\n     * @dev Note that IModule withPerm will allow ST owner all permissions anyway\n     * @dev this allows individual modules to override this logic if needed (to not allow ST owner all permissions)\n     * @param _delegate address of delegate\n     * @param _module address of PermissionManager module\n     * @param _perm the permissions\n     * @return success\n     */\n    function checkPermission(address _delegate, address _module, bytes32 _perm) public view returns(bool) {\n        for (uint256 i = 0; i < modules[PERMISSION_KEY].length; i++) {\n            if (!modulesToData[modules[PERMISSION_KEY][i]].isArchived)\n                return TokenLib.checkPermission(modules[PERMISSION_KEY], _delegate, _module, _perm);\n        }\n        return false;\n    }\n\n    function _burn(address _from, uint256 _value, bytes _data) internal returns(bool) {\n        require(_value <= balances[_from], \"Value too high\");\n        bool verified = _updateTransfer(_from, address(0), _value, _data);\n        _adjustTotalSupplyCheckpoints();\n        balances[_from] = balances[_from].sub(_value);\n        totalSupply_ = totalSupply_.sub(_value);\n        emit Burnt(_from, _value);\n        emit Transfer(_from, address(0), _value);\n        return verified;\n    }\n\n    /**\n     * @notice Burn function used to burn the securityToken\n     * @param _value No. of tokens that get burned\n     * @param _data data to indicate validation\n     */\n    function burnWithData(uint256 _value, bytes _data) public onlyModule(BURN_KEY) {\n        require(_burn(msg.sender, _value, _data), \"Burn invalid\");\n    }\n\n    /**\n     * @notice Burn function used to burn the securityToken on behalf of someone else\n     * @param _from Address for whom to burn tokens\n     * @param _value No. of tokens that get burned\n     * @param _data data to indicate validation\n     */\n    function burnFromWithData(address _from, uint256 _value, bytes _data) public onlyModule(BURN_KEY) {\n        require(_value <= allowed[_from][msg.sender], \"Value too high\");\n        allowed[_from][msg.sender] = allowed[_from][msg.sender].sub(_value);\n        require(_burn(_from, _value, _data), \"Burn invalid\");\n    }\n\n    /**\n     * @notice Creates a checkpoint that can be used to query historical balances / totalSuppy\n     * @return uint256\n     */\n    function createCheckpoint() external onlyModuleOrOwner(CHECKPOINT_KEY) returns(uint256) {\n        require(currentCheckpointId < 2**256 - 1);\n        currentCheckpointId = currentCheckpointId + 1;\n        /*solium-disable-next-line security/no-block-members*/\n        checkpointTimes.push(now);\n        /*solium-disable-next-line security/no-block-members*/\n        emit CheckpointCreated(currentCheckpointId, now);\n        return currentCheckpointId;\n    }\n\n    /**\n     * @notice Gets list of times that checkpoints were created\n     * @return List of checkpoint times\n     */\n    function getCheckpointTimes() external view returns(uint256[]) {\n        return checkpointTimes;\n    }\n\n    /**\n     * @notice Queries totalSupply as of a defined checkpoint\n     * @param _checkpointId Checkpoint ID to query\n     * @return uint256\n     */\n    function totalSupplyAt(uint256 _checkpointId) external view returns(uint256) {\n        require(_checkpointId <= currentCheckpointId);\n        return TokenLib.getValueAt(checkpointTotalSupply, _checkpointId, totalSupply());\n    }\n\n    /**\n     * @notice Queries balances as of a defined checkpoint\n     * @param _investor Investor to query balance for\n     * @param _checkpointId Checkpoint ID to query as of\n     */\n    function balanceOfAt(address _investor, uint256 _checkpointId) public view returns(uint256) {\n        require(_checkpointId <= currentCheckpointId);\n        return TokenLib.getValueAt(checkpointBalances[_investor], _checkpointId, balanceOf(_investor));\n    }\n\n    /**\n     * @notice Used by the issuer to set the controller addresses\n     * @param _controller address of the controller\n     */\n    function setController(address _controller) public onlyOwner {\n        require(!controllerDisabled);\n        emit SetController(controller, _controller);\n        controller = _controller;\n    }\n\n    /**\n     * @notice Used by the issuer to permanently disable controller functionality\n     * @dev enabled via feature switch \"disableControllerAllowed\"\n     */\n    function disableController() external isEnabled(\"disableControllerAllowed\") onlyOwner {\n        require(!controllerDisabled);\n        controllerDisabled = true;\n        delete controller;\n        /*solium-disable-next-line security/no-block-members*/\n        emit DisableController(now);\n    }\n\n    /**\n     * @notice Used by a controller to execute a forced transfer\n     * @param _from address from which to take tokens\n     * @param _to address where to send tokens\n     * @param _value amount of tokens to transfer\n     * @param _data data to indicate validation\n     * @param _log data attached to the transfer by controller to emit in event\n     */\n    function forceTransfer(address _from, address _to, uint256 _value, bytes _data, bytes _log) public onlyController {\n        require(_to != address(0));\n        require(_value <= balances[_from]);\n        bool verified = _updateTransfer(_from, _to, _value, _data);\n        balances[_from] = balances[_from].sub(_value);\n        balances[_to] = balances[_to].add(_value);\n        emit ForceTransfer(msg.sender, _from, _to, _value, verified, _log);\n        emit Transfer(_from, _to, _value);\n    }\n\n    /**\n     * @notice Used by a controller to execute a forced burn\n     * @param _from address from which to take tokens\n     * @param _value amount of tokens to transfer\n     * @param _data data to indicate validation\n     * @param _log data attached to the transfer by controller to emit in event\n     */\n    function forceBurn(address _from, uint256 _value, bytes _data, bytes _log) public onlyController {\n        bool verified = _burn(_from, _value, _data);\n        emit ForceBurn(msg.sender, _from, _value, verified, _log);\n    }\n\n    /**\n     * @notice Returns the version of the SecurityToken\n     */\n    function getVersion() external view returns(uint8[]) {\n        uint8[] memory _version = new uint8[](3);\n        _version[0] = securityTokenVersion.major;\n        _version[1] = securityTokenVersion.minor;\n        _version[2] = securityTokenVersion.patch;\n        return _version;\n    }\n\n}\n",
  "sourcePath": "/Users/polymath/polymath-core/contracts/tokens/SecurityToken.sol",
  "compiler": {
    "name": "solc",
    "version": "0.4.24+commit.e67f0147.Emscripten.clang"
  },
  "schemaVersion": "2.0.1",
  "updatedAt": "2019-01-02T17:07:06.034Z"
}