{
  "contractName": "USDTieredSTO",
  "abi": [
    {
      "constant": true,
      "inputs": [
        {
          "name": "",
          "type": "uint256"
        }
      ],
      "name": "tiers",
      "outputs": [
        {
          "name": "rate",
          "type": "uint256"
        },
        {
          "name": "rateDiscountPoly",
          "type": "uint256"
        },
        {
          "name": "tokenTotal",
          "type": "uint256"
        },
        {
          "name": "tokensDiscountPoly",
          "type": "uint256"
        },
        {
          "name": "mintedTotal",
          "type": "uint256"
        },
        {
          "name": "mintedDiscountPoly",
          "type": "uint256"
        }
      ],
      "payable": false,
      "stateMutability": "view",
      "type": "function"
    },
    {
      "constant": false,
      "inputs": [],
      "name": "reclaimETH",
      "outputs": [],
      "payable": false,
      "stateMutability": "nonpayable",
      "type": "function"
    },
    {
      "constant": true,
      "inputs": [
        {
          "name": "",
          "type": "uint256"
        }
      ],
      "name": "investorsList",
      "outputs": [
        {
          "name": "",
          "type": "address"
        }
      ],
      "payable": false,
      "stateMutability": "view",
      "type": "function"
    },
    {
      "constant": true,
      "inputs": [],
      "name": "allowBeneficialInvestments",
      "outputs": [
        {
          "name": "",
          "type": "bool"
        }
      ],
      "payable": false,
      "stateMutability": "view",
      "type": "function"
    },
    {
      "constant": true,
      "inputs": [],
      "name": "endTime",
      "outputs": [
        {
          "name": "",
          "type": "uint256"
        }
      ],
      "payable": false,
      "stateMutability": "view",
      "type": "function"
    },
    {
      "constant": false,
      "inputs": [],
      "name": "unpause",
      "outputs": [],
      "payable": false,
      "stateMutability": "nonpayable",
      "type": "function"
    },
    {
      "constant": true,
      "inputs": [],
      "name": "nonAccreditedLimitUSD",
      "outputs": [
        {
          "name": "",
          "type": "uint256"
        }
      ],
      "payable": false,
      "stateMutability": "view",
      "type": "function"
    },
    {
      "constant": true,
      "inputs": [],
      "name": "wallet",
      "outputs": [
        {
          "name": "",
          "type": "address"
        }
      ],
      "payable": false,
      "stateMutability": "view",
      "type": "function"
    },
    {
      "constant": true,
      "inputs": [],
      "name": "paused",
      "outputs": [
        {
          "name": "",
          "type": "bool"
        }
      ],
      "payable": false,
      "stateMutability": "view",
      "type": "function"
    },
    {
      "constant": false,
      "inputs": [
        {
          "name": "_amount",
          "type": "uint256"
        }
      ],
      "name": "takeFee",
      "outputs": [
        {
          "name": "",
          "type": "bool"
        }
      ],
      "payable": false,
      "stateMutability": "nonpayable",
      "type": "function"
    },
    {
      "constant": true,
      "inputs": [],
      "name": "totalTokensSold",
      "outputs": [
        {
          "name": "",
          "type": "uint256"
        }
      ],
      "payable": false,
      "stateMutability": "view",
      "type": "function"
    },
    {
      "constant": true,
      "inputs": [],
      "name": "finalAmountReturned",
      "outputs": [
        {
          "name": "",
          "type": "uint256"
        }
      ],
      "payable": false,
      "stateMutability": "view",
      "type": "function"
    },
    {
      "constant": true,
      "inputs": [
        {
          "name": "",
          "type": "address"
        }
      ],
      "name": "investors",
      "outputs": [
        {
          "name": "accredited",
          "type": "uint8"
        },
        {
          "name": "seen",
          "type": "uint8"
        },
        {
          "name": "nonAccreditedLimitUSDOverride",
          "type": "uint256"
        }
      ],
      "payable": false,
      "stateMutability": "view",
      "type": "function"
    },
    {
      "constant": true,
      "inputs": [],
      "name": "polyToken",
      "outputs": [
        {
          "name": "",
          "type": "address"
        }
      ],
      "payable": false,
      "stateMutability": "view",
      "type": "function"
    },
    {
      "constant": true,
      "inputs": [
        {
          "name": "",
          "type": "address"
        }
      ],
      "name": "stableCoinsRaised",
      "outputs": [
        {
          "name": "",
          "type": "uint256"
        }
      ],
      "payable": false,
      "stateMutability": "view",
      "type": "function"
    },
    {
      "constant": true,
      "inputs": [],
      "name": "startTime",
      "outputs": [
        {
          "name": "",
          "type": "uint256"
        }
      ],
      "payable": false,
      "stateMutability": "view",
      "type": "function"
    },
    {
      "constant": false,
      "inputs": [],
      "name": "pause",
      "outputs": [],
      "payable": false,
      "stateMutability": "nonpayable",
      "type": "function"
    },
    {
      "constant": true,
      "inputs": [
        {
          "name": "",
          "type": "address"
        },
        {
          "name": "",
          "type": "uint8"
        }
      ],
      "name": "investorInvested",
      "outputs": [
        {
          "name": "",
          "type": "uint256"
        }
      ],
      "payable": false,
      "stateMutability": "view",
      "type": "function"
    },
    {
      "constant": false,
      "inputs": [
        {
          "name": "_tokenContract",
          "type": "address"
        }
      ],
      "name": "reclaimERC20",
      "outputs": [],
      "payable": false,
      "stateMutability": "nonpayable",
      "type": "function"
    },
    {
      "constant": true,
      "inputs": [
        {
          "name": "",
          "type": "address"
        }
      ],
      "name": "usdTokenEnabled",
      "outputs": [
        {
          "name": "",
          "type": "bool"
        }
      ],
      "payable": false,
      "stateMutability": "view",
      "type": "function"
    },
    {
      "constant": true,
      "inputs": [],
      "name": "isFinalized",
      "outputs": [
        {
          "name": "",
          "type": "bool"
        }
      ],
      "payable": false,
      "stateMutability": "view",
      "type": "function"
    },
    {
      "constant": true,
      "inputs": [],
      "name": "ETH_ORACLE",
      "outputs": [
        {
          "name": "",
          "type": "string"
        }
      ],
      "payable": false,
      "stateMutability": "view",
      "type": "function"
    },
    {
      "constant": true,
      "inputs": [
        {
          "name": "_fundRaiseType",
          "type": "uint8"
        }
      ],
      "name": "getRaised",
      "outputs": [
        {
          "name": "",
          "type": "uint256"
        }
      ],
      "payable": false,
      "stateMutability": "view",
      "type": "function"
    },
    {
      "constant": true,
      "inputs": [],
      "name": "POLY_ORACLE",
      "outputs": [
        {
          "name": "",
          "type": "string"
        }
      ],
      "payable": false,
      "stateMutability": "view",
      "type": "function"
    },
    {
      "constant": true,
      "inputs": [],
      "name": "pausedTime",
      "outputs": [
        {
          "name": "",
          "type": "uint256"
        }
      ],
      "payable": false,
      "stateMutability": "view",
      "type": "function"
    },
    {
      "constant": true,
      "inputs": [],
      "name": "securityToken",
      "outputs": [
        {
          "name": "",
          "type": "address"
        }
      ],
      "payable": false,
      "stateMutability": "view",
      "type": "function"
    },
    {
      "constant": true,
      "inputs": [
        {
          "name": "",
          "type": "uint256"
        }
      ],
      "name": "usdTokens",
      "outputs": [
        {
          "name": "",
          "type": "address"
        }
      ],
      "payable": false,
      "stateMutability": "view",
      "type": "function"
    },
    {
      "constant": true,
      "inputs": [],
      "name": "factory",
      "outputs": [
        {
          "name": "",
          "type": "address"
        }
      ],
      "payable": false,
      "stateMutability": "view",
      "type": "function"
    },
    {
      "constant": true,
      "inputs": [
        {
          "name": "",
          "type": "uint8"
        }
      ],
      "name": "fundsRaised",
      "outputs": [
        {
          "name": "",
          "type": "uint256"
        }
      ],
      "payable": false,
      "stateMutability": "view",
      "type": "function"
    },
    {
      "constant": true,
      "inputs": [
        {
          "name": "",
          "type": "address"
        }
      ],
      "name": "investorInvestedUSD",
      "outputs": [
        {
          "name": "",
          "type": "uint256"
        }
      ],
      "payable": false,
      "stateMutability": "view",
      "type": "function"
    },
    {
      "constant": true,
      "inputs": [
        {
          "name": "",
          "type": "uint8"
        }
      ],
      "name": "fundRaiseTypes",
      "outputs": [
        {
          "name": "",
          "type": "bool"
        }
      ],
      "payable": false,
      "stateMutability": "view",
      "type": "function"
    },
    {
      "constant": true,
      "inputs": [],
      "name": "currentTier",
      "outputs": [
        {
          "name": "",
          "type": "uint256"
        }
      ],
      "payable": false,
      "stateMutability": "view",
      "type": "function"
    },
    {
      "constant": true,
      "inputs": [],
      "name": "FEE_ADMIN",
      "outputs": [
        {
          "name": "",
          "type": "bytes32"
        }
      ],
      "payable": false,
      "stateMutability": "view",
      "type": "function"
    },
    {
      "constant": true,
      "inputs": [],
      "name": "reserveWallet",
      "outputs": [
        {
          "name": "",
          "type": "address"
        }
      ],
      "payable": false,
      "stateMutability": "view",
      "type": "function"
    },
    {
      "constant": true,
      "inputs": [],
      "name": "investorCount",
      "outputs": [
        {
          "name": "",
          "type": "uint256"
        }
      ],
      "payable": false,
      "stateMutability": "view",
      "type": "function"
    },
    {
      "constant": true,
      "inputs": [],
      "name": "minimumInvestmentUSD",
      "outputs": [
        {
          "name": "",
          "type": "uint256"
        }
      ],
      "payable": false,
      "stateMutability": "view",
      "type": "function"
    },
    {
      "constant": true,
      "inputs": [],
      "name": "fundsRaisedUSD",
      "outputs": [
        {
          "name": "",
          "type": "uint256"
        }
      ],
      "payable": false,
      "stateMutability": "view",
      "type": "function"
    },
    {
      "inputs": [
        {
          "name": "_securityToken",
          "type": "address"
        },
        {
          "name": "_polyAddress",
          "type": "address"
        }
      ],
      "payable": false,
      "stateMutability": "nonpayable",
      "type": "constructor"
    },
    {
      "payable": true,
      "stateMutability": "payable",
      "type": "fallback"
    },
    {
      "anonymous": false,
      "inputs": [
        {
          "indexed": false,
          "name": "_allowed",
          "type": "bool"
        }
      ],
      "name": "SetAllowBeneficialInvestments",
      "type": "event"
    },
    {
      "anonymous": false,
      "inputs": [
        {
          "indexed": false,
          "name": "_investor",
          "type": "address"
        },
        {
          "indexed": false,
          "name": "_limit",
          "type": "uint256"
        }
      ],
      "name": "SetNonAccreditedLimit",
      "type": "event"
    },
    {
      "anonymous": false,
      "inputs": [
        {
          "indexed": false,
          "name": "_investor",
          "type": "address"
        },
        {
          "indexed": false,
          "name": "_accredited",
          "type": "bool"
        }
      ],
      "name": "SetAccredited",
      "type": "event"
    },
    {
      "anonymous": false,
      "inputs": [
        {
          "indexed": true,
          "name": "_purchaser",
          "type": "address"
        },
        {
          "indexed": true,
          "name": "_beneficiary",
          "type": "address"
        },
        {
          "indexed": false,
          "name": "_tokens",
          "type": "uint256"
        },
        {
          "indexed": false,
          "name": "_usdAmount",
          "type": "uint256"
        },
        {
          "indexed": false,
          "name": "_tierPrice",
          "type": "uint256"
        },
        {
          "indexed": false,
          "name": "_tier",
          "type": "uint256"
        }
      ],
      "name": "TokenPurchase",
      "type": "event"
    },
    {
      "anonymous": false,
      "inputs": [
        {
          "indexed": true,
          "name": "_purchaser",
          "type": "address"
        },
        {
          "indexed": true,
          "name": "_beneficiary",
          "type": "address"
        },
        {
          "indexed": false,
          "name": "_usdAmount",
          "type": "uint256"
        },
        {
          "indexed": false,
          "name": "_fundRaiseType",
          "type": "uint8"
        },
        {
          "indexed": false,
          "name": "_receivedValue",
          "type": "uint256"
        },
        {
          "indexed": false,
          "name": "_spentValue",
          "type": "uint256"
        },
        {
          "indexed": false,
          "name": "_rate",
          "type": "uint256"
        }
      ],
      "name": "FundsReceived",
      "type": "event"
    },
    {
      "anonymous": false,
      "inputs": [
        {
          "indexed": true,
          "name": "_owner",
          "type": "address"
        },
        {
          "indexed": true,
          "name": "_wallet",
          "type": "address"
        },
        {
          "indexed": false,
          "name": "_tokens",
          "type": "uint256"
        },
        {
          "indexed": false,
          "name": "_latestTier",
          "type": "uint256"
        }
      ],
      "name": "ReserveTokenMint",
      "type": "event"
    },
    {
      "anonymous": false,
      "inputs": [
        {
          "indexed": true,
          "name": "_wallet",
          "type": "address"
        },
        {
          "indexed": true,
          "name": "_reserveWallet",
          "type": "address"
        },
        {
          "indexed": false,
          "name": "_usdTokens",
          "type": "address[]"
        }
      ],
      "name": "SetAddresses",
      "type": "event"
    },
    {
      "anonymous": false,
      "inputs": [
        {
          "indexed": false,
          "name": "_nonAccreditedLimitUSD",
          "type": "uint256"
        },
        {
          "indexed": false,
          "name": "_minimumInvestmentUSD",
          "type": "uint256"
        }
      ],
      "name": "SetLimits",
      "type": "event"
    },
    {
      "anonymous": false,
      "inputs": [
        {
          "indexed": false,
          "name": "_startTime",
          "type": "uint256"
        },
        {
          "indexed": false,
          "name": "_endTime",
          "type": "uint256"
        }
      ],
      "name": "SetTimes",
      "type": "event"
    },
    {
      "anonymous": false,
      "inputs": [
        {
          "indexed": false,
          "name": "_ratePerTier",
          "type": "uint256[]"
        },
        {
          "indexed": false,
          "name": "_ratePerTierDiscountPoly",
          "type": "uint256[]"
        },
        {
          "indexed": false,
          "name": "_tokensPerTierTotal",
          "type": "uint256[]"
        },
        {
          "indexed": false,
          "name": "_tokensPerTierDiscountPoly",
          "type": "uint256[]"
        }
      ],
      "name": "SetTiers",
      "type": "event"
    },
    {
      "anonymous": false,
      "inputs": [
        {
          "indexed": false,
          "name": "_fundRaiseTypes",
          "type": "uint8[]"
        }
      ],
      "name": "SetFundRaiseTypes",
      "type": "event"
    },
    {
      "anonymous": false,
      "inputs": [
        {
          "indexed": false,
          "name": "_timestammp",
          "type": "uint256"
        }
      ],
      "name": "Pause",
      "type": "event"
    },
    {
      "anonymous": false,
      "inputs": [
        {
          "indexed": false,
          "name": "_timestamp",
          "type": "uint256"
        }
      ],
      "name": "Unpause",
      "type": "event"
    },
    {
      "constant": false,
      "inputs": [
        {
          "name": "_startTime",
          "type": "uint256"
        },
        {
          "name": "_endTime",
          "type": "uint256"
        },
        {
          "name": "_ratePerTier",
          "type": "uint256[]"
        },
        {
          "name": "_ratePerTierDiscountPoly",
          "type": "uint256[]"
        },
        {
          "name": "_tokensPerTierTotal",
          "type": "uint256[]"
        },
        {
          "name": "_tokensPerTierDiscountPoly",
          "type": "uint256[]"
        },
        {
          "name": "_nonAccreditedLimitUSD",
          "type": "uint256"
        },
        {
          "name": "_minimumInvestmentUSD",
          "type": "uint256"
        },
        {
          "name": "_fundRaiseTypes",
          "type": "uint8[]"
        },
        {
          "name": "_wallet",
          "type": "address"
        },
        {
          "name": "_reserveWallet",
          "type": "address"
        },
        {
          "name": "_usdTokens",
          "type": "address[]"
        }
      ],
      "name": "configure",
      "outputs": [],
      "payable": false,
      "stateMutability": "nonpayable",
      "type": "function"
    },
    {
      "constant": false,
      "inputs": [
        {
          "name": "_fundRaiseTypes",
          "type": "uint8[]"
        }
      ],
      "name": "modifyFunding",
      "outputs": [],
      "payable": false,
      "stateMutability": "nonpayable",
      "type": "function"
    },
    {
      "constant": false,
      "inputs": [
        {
          "name": "_nonAccreditedLimitUSD",
          "type": "uint256"
        },
        {
          "name": "_minimumInvestmentUSD",
          "type": "uint256"
        }
      ],
      "name": "modifyLimits",
      "outputs": [],
      "payable": false,
      "stateMutability": "nonpayable",
      "type": "function"
    },
    {
      "constant": false,
      "inputs": [
        {
          "name": "_ratePerTier",
          "type": "uint256[]"
        },
        {
          "name": "_ratePerTierDiscountPoly",
          "type": "uint256[]"
        },
        {
          "name": "_tokensPerTierTotal",
          "type": "uint256[]"
        },
        {
          "name": "_tokensPerTierDiscountPoly",
          "type": "uint256[]"
        }
      ],
      "name": "modifyTiers",
      "outputs": [],
      "payable": false,
      "stateMutability": "nonpayable",
      "type": "function"
    },
    {
      "constant": false,
      "inputs": [
        {
          "name": "_startTime",
          "type": "uint256"
        },
        {
          "name": "_endTime",
          "type": "uint256"
        }
      ],
      "name": "modifyTimes",
      "outputs": [],
      "payable": false,
      "stateMutability": "nonpayable",
      "type": "function"
    },
    {
      "constant": false,
      "inputs": [
        {
          "name": "_wallet",
          "type": "address"
        },
        {
          "name": "_reserveWallet",
          "type": "address"
        },
        {
          "name": "_usdTokens",
          "type": "address[]"
        }
      ],
      "name": "modifyAddresses",
      "outputs": [],
      "payable": false,
      "stateMutability": "nonpayable",
      "type": "function"
    },
    {
      "constant": false,
      "inputs": [],
      "name": "finalize",
      "outputs": [],
      "payable": false,
      "stateMutability": "nonpayable",
      "type": "function"
    },
    {
      "constant": false,
      "inputs": [
        {
          "name": "_investors",
          "type": "address[]"
        },
        {
          "name": "_accredited",
          "type": "bool[]"
        }
      ],
      "name": "changeAccredited",
      "outputs": [],
      "payable": false,
      "stateMutability": "nonpayable",
      "type": "function"
    },
    {
      "constant": false,
      "inputs": [
        {
          "name": "_investors",
          "type": "address[]"
        },
        {
          "name": "_nonAccreditedLimit",
          "type": "uint256[]"
        }
      ],
      "name": "changeNonAccreditedLimit",
      "outputs": [],
      "payable": false,
      "stateMutability": "nonpayable",
      "type": "function"
    },
    {
      "constant": true,
      "inputs": [],
      "name": "getAccreditedData",
      "outputs": [
        {
          "name": "",
          "type": "address[]"
        },
        {
          "name": "",
          "type": "bool[]"
        },
        {
          "name": "",
          "type": "uint256[]"
        }
      ],
      "payable": false,
      "stateMutability": "view",
      "type": "function"
    },
    {
      "constant": false,
      "inputs": [
        {
          "name": "_allowBeneficialInvestments",
          "type": "bool"
        }
      ],
      "name": "changeAllowBeneficialInvestments",
      "outputs": [],
      "payable": false,
      "stateMutability": "nonpayable",
      "type": "function"
    },
    {
      "constant": false,
      "inputs": [
        {
          "name": "_beneficiary",
          "type": "address"
        }
      ],
      "name": "buyWithETH",
      "outputs": [],
      "payable": true,
      "stateMutability": "payable",
      "type": "function"
    },
    {
      "constant": false,
      "inputs": [
        {
          "name": "_beneficiary",
          "type": "address"
        },
        {
          "name": "_investedPOLY",
          "type": "uint256"
        }
      ],
      "name": "buyWithPOLY",
      "outputs": [],
      "payable": false,
      "stateMutability": "nonpayable",
      "type": "function"
    },
    {
      "constant": false,
      "inputs": [
        {
          "name": "_beneficiary",
          "type": "address"
        },
        {
          "name": "_investedSC",
          "type": "uint256"
        },
        {
          "name": "_usdToken",
          "type": "address"
        }
      ],
      "name": "buyWithUSD",
      "outputs": [],
      "payable": false,
      "stateMutability": "nonpayable",
      "type": "function"
    },
    {
      "constant": false,
      "inputs": [
        {
          "name": "_beneficiary",
          "type": "address"
        },
        {
          "name": "_minTokens",
          "type": "uint256"
        }
      ],
      "name": "buyWithETHRateLimited",
      "outputs": [],
      "payable": true,
      "stateMutability": "payable",
      "type": "function"
    },
    {
      "constant": false,
      "inputs": [
        {
          "name": "_beneficiary",
          "type": "address"
        },
        {
          "name": "_investedPOLY",
          "type": "uint256"
        },
        {
          "name": "_minTokens",
          "type": "uint256"
        }
      ],
      "name": "buyWithPOLYRateLimited",
      "outputs": [],
      "payable": false,
      "stateMutability": "nonpayable",
      "type": "function"
    },
    {
      "constant": false,
      "inputs": [
        {
          "name": "_beneficiary",
          "type": "address"
        },
        {
          "name": "_investedSC",
          "type": "uint256"
        },
        {
          "name": "_minTokens",
          "type": "uint256"
        },
        {
          "name": "_usdToken",
          "type": "address"
        }
      ],
      "name": "buyWithUSDRateLimited",
      "outputs": [],
      "payable": false,
      "stateMutability": "nonpayable",
      "type": "function"
    },
    {
      "constant": true,
      "inputs": [
        {
          "name": "_beneficiary",
          "type": "address"
        },
        {
          "name": "_investmentValue",
          "type": "uint256"
        },
        {
          "name": "_fundRaiseType",
          "type": "uint8"
        }
      ],
      "name": "buyTokensView",
      "outputs": [
        {
          "name": "spentUSD",
          "type": "uint256"
        },
        {
          "name": "spentValue",
          "type": "uint256"
        },
        {
          "name": "tokensMinted",
          "type": "uint256"
        }
      ],
      "payable": false,
      "stateMutability": "view",
      "type": "function"
    },
    {
      "constant": true,
      "inputs": [],
      "name": "isOpen",
      "outputs": [
        {
          "name": "",
          "type": "bool"
        }
      ],
      "payable": false,
      "stateMutability": "view",
      "type": "function"
    },
    {
      "constant": true,
      "inputs": [],
      "name": "capReached",
      "outputs": [
        {
          "name": "",
          "type": "bool"
        }
      ],
      "payable": false,
      "stateMutability": "view",
      "type": "function"
    },
    {
      "constant": true,
      "inputs": [
        {
          "name": "_fundRaiseType",
          "type": "uint8"
        }
      ],
      "name": "getRate",
      "outputs": [
        {
          "name": "",
          "type": "uint256"
        }
      ],
      "payable": false,
      "stateMutability": "view",
      "type": "function"
    },
    {
      "constant": true,
      "inputs": [
        {
          "name": "_fundRaiseType",
          "type": "uint8"
        },
        {
          "name": "_amount",
          "type": "uint256"
        }
      ],
      "name": "convertToUSD",
      "outputs": [
        {
          "name": "",
          "type": "uint256"
        }
      ],
      "payable": false,
      "stateMutability": "view",
      "type": "function"
    },
    {
      "constant": true,
      "inputs": [
        {
          "name": "_fundRaiseType",
          "type": "uint8"
        },
        {
          "name": "_amount",
          "type": "uint256"
        }
      ],
      "name": "convertFromUSD",
      "outputs": [
        {
          "name": "",
          "type": "uint256"
        }
      ],
      "payable": false,
      "stateMutability": "view",
      "type": "function"
    },
    {
      "constant": true,
      "inputs": [],
      "name": "getTokensSold",
      "outputs": [
        {
          "name": "",
          "type": "uint256"
        }
      ],
      "payable": false,
      "stateMutability": "view",
      "type": "function"
    },
    {
      "constant": true,
      "inputs": [],
      "name": "getTokensMinted",
      "outputs": [
        {
          "name": "",
          "type": "uint256"
        }
      ],
      "payable": false,
      "stateMutability": "view",
      "type": "function"
    },
    {
      "constant": true,
      "inputs": [
        {
          "name": "_fundRaiseType",
          "type": "uint8"
        }
      ],
      "name": "getTokensSoldFor",
      "outputs": [
        {
          "name": "",
          "type": "uint256"
        }
      ],
      "payable": false,
      "stateMutability": "view",
      "type": "function"
    },
    {
      "constant": true,
      "inputs": [
        {
          "name": "_tier",
          "type": "uint256"
        }
      ],
      "name": "getTokensMintedByTier",
      "outputs": [
        {
          "name": "",
          "type": "uint256[]"
        }
      ],
      "payable": false,
      "stateMutability": "view",
      "type": "function"
    },
    {
      "constant": true,
      "inputs": [
        {
          "name": "_tier",
          "type": "uint256"
        }
      ],
      "name": "getTokensSoldByTier",
      "outputs": [
        {
          "name": "",
          "type": "uint256"
        }
      ],
      "payable": false,
      "stateMutability": "view",
      "type": "function"
    },
    {
      "constant": true,
      "inputs": [],
      "name": "getNumberOfTiers",
      "outputs": [
        {
          "name": "",
          "type": "uint256"
        }
      ],
      "payable": false,
      "stateMutability": "view",
      "type": "function"
    },
    {
      "constant": true,
      "inputs": [],
      "name": "getUsdTokens",
      "outputs": [
        {
          "name": "",
          "type": "address[]"
        }
      ],
      "payable": false,
      "stateMutability": "view",
      "type": "function"
    },
    {
      "constant": true,
      "inputs": [],
      "name": "getPermissions",
      "outputs": [
        {
          "name": "",
          "type": "bytes32[]"
        }
      ],
      "payable": false,
      "stateMutability": "view",
      "type": "function"
    },
    {
      "constant": true,
      "inputs": [],
      "name": "getSTODetails",
      "outputs": [
        {
          "name": "",
          "type": "uint256"
        },
        {
          "name": "",
          "type": "uint256"
        },
        {
          "name": "",
          "type": "uint256"
        },
        {
          "name": "",
          "type": "uint256[]"
        },
        {
          "name": "",
          "type": "uint256[]"
        },
        {
          "name": "",
          "type": "uint256"
        },
        {
          "name": "",
          "type": "uint256"
        },
        {
          "name": "",
          "type": "uint256"
        },
        {
          "name": "",
          "type": "bool[]"
        }
      ],
      "payable": false,
      "stateMutability": "view",
      "type": "function"
    },
    {
      "constant": true,
      "inputs": [],
      "name": "getInitFunction",
      "outputs": [
        {
          "name": "",
          "type": "bytes4"
        }
      ],
      "payable": false,
      "stateMutability": "pure",
      "type": "function"
    }
  ],
  "bytecode": "0x60806040526001805460ff191690556019805460a060020a61ffff021916905534801561002b57600080fd5b506040516040806200602883398101604052805160209091015160188054600160a060020a03938416600160a060020a0319918216179091556017805482163317905560198054939092169216919091179055615f9a806200008e6000396000f30060806040526004361061031e5763ffffffff60e060020a6000350416630282a918811461032b578063039af9eb146103735780630845c46b146103be5780630f144a48146103e85780631040dc27146103fd5780631613ec9d1461051a57806316d5ae7f146105645780631915edc0146105cc5780632ccc8727146106bf5780632df413e2146106f35780633197cbb61461071c5780633a3adf87146107315780633a4fd45c1461074c5780633f4ba83a14610761578063441b9e4a14610776578063444aa92f1461079057806347535d7b146107a45780634b385a42146107b95780634bb278f3146107ce5780634f935945146107e3578063521eb273146107f85780635b66629d1461080d5780635c82d32e146108315780635c975abb146108585780635f7619a41461086d57806363b20117146108855780636ba6c0ed1461089a5780636c41027f146108af5780636dd053f4146108c45780636f7bc9be146108f35780636faa22a51461093857806370dc87521461094d57806377de90391461099157806378e97925146109b2578063795fe0af146109c75780638320fc4e146109f25780638456cb5914610a1e578063877baeaa14610a335780638784b1c214610a515780638905fd4f14610a785780638ac5f55e14610a995780638c9844cb14610aba5780638d4e408314610ad857806397a8feee14610aed5780639a7cc13514610b77578063a1530a4414610b92578063a8955ed614610bc7578063b2cca39d14610bdc578063b391844614610bf1578063b39f8ae414610c0c578063b7ebae0b14610c27578063b84dfbd214610c42578063b98035c114610c57578063bf11664814610c6f578063c3a07df614610c8f578063c45a015514610ca4578063c4d2c6bd14610cb9578063c513933814610cd4578063cf789d0b14610cf5578063d143a37914610d0c578063d679677a14610d27578063d69f6bae14610d3c578063d70afa9614610d51578063d72b11bd14610d66578063d7e64c0014610d7b578063eac2f9e414610d90578063ec47740f14610f36578063ee7c0db014610f4b578063fbe8d9fe14610f60578063ff18ead314610f8c575b610329336000610fa1565b005b34801561033757600080fd5b50610355600160a060020a036004351660243560ff604435166112f1565b60408051938452602084019290925282820152519081900360600190f35b34801561037f57600080fd5b5061038b600435611481565b604080519687526020870195909552858501939093526060850191909152608084015260a0830152519081900360c00190f35b3480156103ca57600080fd5b506103d66004356114c5565b60408051918252519081900360200190f35b3480156103f457600080fd5b506103296115ce565b34801561040957600080fd5b506104126116ca565b604051808a815260200189815260200188815260200180602001806020018781526020018681526020018581526020018060200184810384528a818151815260200191508051906020019060200280838360005b8381101561047e578181015183820152602001610466565b50505050905001848103835289818151815260200191508051906020019060200280838360005b838110156104bd5781810151838201526020016104a5565b50505050905001848103825285818151815260200191508051906020019060200280838360005b838110156104fc5781810151838201526020016104e4565b505050509050019c5050505050505050505050505060405180910390f35b34801561052657600080fd5b5061052f611912565b604080517fffffffff000000000000000000000000000000000000000000000000000000009092168252519081900360200190f35b34801561057057600080fd5b5061057c600435611937565b60408051602080825283518183015283519192839290830191858101910280838360005b838110156105b85781810151838201526020016105a0565b505050509050019250505060405180910390f35b3480156105d857600080fd5b506105e1611a92565b60405180806020018060200180602001848103845287818151815260200191508051906020019060200280838360005b83811015610629578181015183820152602001610611565b50505050905001848103835286818151815260200191508051906020019060200280838360005b83811015610668578181015183820152602001610650565b50505050905001848103825285818151815260200191508051906020019060200280838360005b838110156106a757818101518382015260200161068f565b50505050905001965050505050505060405180910390f35b3480156106cb57600080fd5b506106d7600435611c42565b60408051600160a060020a039092168252519081900360200190f35b3480156106ff57600080fd5b50610708611c6a565b604080519115158252519081900360200190f35b34801561072857600080fd5b506103d6611c73565b34801561073d57600080fd5b50610329600435602435611c79565b34801561075857600080fd5b506103d6611d9a565b34801561076d57600080fd5b50610329611da0565b34801561078257600080fd5b506103296004351515611e76565b610329600160a060020a0360043516611fa4565b3480156107b057600080fd5b50610708611faf565b3480156107c557600080fd5b506103d6612008565b3480156107da57600080fd5b5061032961200e565b3480156107ef57600080fd5b50610708612455565b34801561080457600080fd5b506106d76124c2565b34801561081957600080fd5b50610329600160a060020a03600435166024356124d1565b34801561083d57600080fd5b50610329600160a060020a03600435166024356044356124d9565b34801561086457600080fd5b50610708612615565b34801561087957600080fd5b50610708600435612625565b34801561089157600080fd5b506103d6612965565b3480156108a657600080fd5b5061057c61296b565b3480156108bb57600080fd5b506103d66129cd565b3480156108d057600080fd5b50610329600160a060020a036004358116906024359060443590606435166129d3565b3480156108ff57600080fd5b50610914600160a060020a0360043516612a93565b6040805160ff94851681529290931660208301528183015290519081900360600190f35b34801561094457600080fd5b506106d7612ab9565b34801561095957600080fd5b506103296024600480358281019290820135918135808301929082013591604435808301929082013591606435918201910135612ac8565b34801561099d57600080fd5b506103d6600160a060020a0360043516612c9c565b3480156109be57600080fd5b506103d6612cae565b3480156109d357600080fd5b50610329600160a060020a036004358116906024359060443516612cb4565b3480156109fe57600080fd5b506103296024600480358281019290820135918135918201910135612cc1565b348015610a2a57600080fd5b50610329612f77565b348015610a3f57600080fd5b506103d660ff600435166024356130a4565b348015610a5d57600080fd5b506103d6600160a060020a036004351660ff602435166130c4565b348015610a8457600080fd5b50610329600160a060020a03600435166130e1565b348015610aa557600080fd5b50610708600160a060020a036004351661338e565b348015610ac657600080fd5b506103d660ff600435166024356133a3565b348015610ae457600080fd5b506107086133bb565b348015610af957600080fd5b50610b026133c9565b6040805160208082528351818301528351919283929083019185019080838360005b83811015610b3c578181015183820152602001610b24565b50505050905090810190601f168015610b695780820380516001836020036101000a031916815260200191505b509250505060405180910390f35b348015610b8357600080fd5b506103d660ff60043516613400565b348015610b9e57600080fd5b50610329600160a060020a0360048035821691602480359091169160443591820191013561342f565b348015610bd357600080fd5b50610b02613539565b348015610be857600080fd5b506103d6613570565b348015610bfd57600080fd5b506103d660ff60043516613576565b348015610c1857600080fd5b506103296004356024356135e8565b348015610c3357600080fd5b506103d660ff60043516613705565b348015610c4e57600080fd5b506106d7613877565b348015610c6357600080fd5b506106d7600435613886565b348015610c7b57600080fd5b506103296004803560248101910135613894565b348015610c9b57600080fd5b5061057c6139dd565b348015610cb057600080fd5b506106d76139f2565b348015610cc557600080fd5b506103d660ff60043516613a01565b348015610ce057600080fd5b506103d6600160a060020a0360043516613a13565b610329600160a060020a0360043516602435610fa1565b348015610d1857600080fd5b5061070860ff60043516613a25565b348015610d3357600080fd5b506103d6613a3a565b348015610d4857600080fd5b506103d6613a40565b348015610d5d57600080fd5b506103d6613a92565b348015610d7257600080fd5b506106d7613ab6565b348015610d8757600080fd5b506103d6613acb565b348015610d9c57600080fd5b506040805160206004604435818101358381028086018501909652808552610329958335956024803596369695606495939492019291829185019084908082843750506040805187358901803560208181028481018201909552818452989b9a998901989297509082019550935083925085019084908082843750506040805187358901803560208181028481018201909552818452989b9a998901989297509082019550935083925085019084908082843750506040805187358901803560208181028481018201909552818452989b9a9989019892975090820195509350839250850190849080828437505060408051818801358901803560208181028481018201909552818452989b8a359b8a8c01359b919a909950606090910197509295509082019350918291850190849080828437505060408051818801358901803560208181028481018201909552818452989b600160a060020a038b3581169c8b8d01359091169b919a90995060609091019750929550908201935091829185019084908082843750949750613ad19650505050505050565b348015610f4257600080fd5b506103d6613cf7565b348015610f5757600080fd5b506103d6613cfd565b348015610f6c57600080fd5b506103296024600480358281019290820135918135918201910135613d28565b348015610f9857600080fd5b506103d6613f39565b600080808080610fda7f455448000000000000000000000000000000000000000000000000000000000060ea60020a621554d102613f3f565b600160a060020a03161415611039576040805160e560020a62461bcd02815260206004820152600e60248201527f496e76616c6964204f7261636c65000000000000000000000000000000000000604482015290519081900360640190fd5b60008052600f6020527ff4803e074bd026baaf6ed2e288c9515f68c72fb7216eebdd7cae1718a53ec3755460ff1615156110bd576040805160e560020a62461bcd02815260206004820152600f60248201527f455448206e6f7420616c6c6f7765640000000000000000000000000000000000604482015290519081900360640190fd5b6110c76000613705565b93506110d1613a40565b92506110e086348660006140ea565b91509150846110fd846110f1613a40565b9063ffffffff6143a216565b1015611153576040805160e560020a62461bcd02815260206004820152601360248201527f496e73756666696369656e74206d696e74656400000000000000000000000000604482015290519081900360640190fd5b600160a060020a038616600090815260076020526040812061119491839190805b60ff1681526020810191909152604001600020549063ffffffff6143b416565b600160a060020a03871660009081526007602090815260408083208380529091528120919091556111ca90829060109080611174565b600080805260106020527f6e0956cda88cad152e89927e53611735b61a5c762d1428573c6931b0a5efcb0191909155601554604051600160a060020a03909116916108fc841502918491818181858888f19350505050158015611231573d6000803e3d6000fd5b50336108fc611246348463ffffffff6143a216565b6040518115909202916000818181858888f1935050505015801561126e573d6000803e3d6000fd5b5085600160a060020a031633600160a060020a03167fa5a66b45c30fa6510eb2c3ccbe3c500d21863c7cc3e37d2dc85bb28db7775bd184600034868a604051808681526020018560028111156112c057fe5b60ff1681526020018481526020018381526020018281526020019550505050505060405180910390a3505050505050565b600080808080808080808060018b600281111561130a57fe5b1480611321575060028b600281111561131f57fe5b145b80611337575060008b600281111561133557fe5b145b151561138d576040805160e560020a62461bcd02815260206004820152601260248201527f496e76616c696420726169736520747970650000000000000000000000000000604482015290519081900360640190fd5b6113968b613705565b96506113a2878d6143c1565b95506113af8d8d886143f8565b945060035493505b600e5484101561146557600e8054859081106113cf57fe5b906000526020600020906007020160020154600e858154811015156113f057fe5b906000526020600020906007020160040154101561145a576114228461141c878d63ffffffff6143a216565b8d61469e565b909450909250905061143a8a8363ffffffff6143b416565b995061144c888263ffffffff6143b416565b975082151561145a57611465565b6001909301926113b7565b61146f8a88614843565b98505050505050505093509350939050565b600e80548290811061148f57fe5b60009182526020909120600790910201805460018201546002830154600384015460048501546006909501549395509193909286565b600e5460009081908310611523576040805160e560020a62461bcd02815260206004820152600e60248201527f496e636f72726563742074696572000000000000000000000000000000000000604482015290519081900360640190fd5b61156b600e8481548110151561153557fe5b60009182526020822060056007909202010190805b60ff168152602081019190915260400160002054829063ffffffff6143b416565b9050611599600e8481548110151561157f57fe5b60009182526020822060056007909202010190600161154a565b90506115c7600e848154811015156115ad57fe5b60009182526020822060056007909202010190600261154a565b9392505050565b601860009054906101000a9004600160a060020a0316600160a060020a0316638da5cb5b6040518163ffffffff1660e060020a028152600401602060405180830381600087803b15801561162157600080fd5b505af1158015611635573d6000803e3d6000fd5b505050506040513d602081101561164b57600080fd5b5051600160a060020a0316331461169a576040805160e560020a62461bcd0281526020600482015260136024820152600080516020615f4f833981519152604482015290519081900360640190fd5b6040513390303180156108fc02916000818181858888f193505050501580156116c7573d6000803e3d6000fd5b50565b60008060006060806000806000606080606060006060600e8054905060405190808252806020026020018201604052801561170f578160200160208202803883390190505b50600e54604080518281526020808402820101909152919550801561173e578160200160208202803883390190505b509250600091505b600e548210156117cb57600e80548390811061175e57fe5b906000526020600020906007020160020154848381518110151561177e57fe5b60209081029091010152600e80548390811061179657fe5b90600052602060002090600702016000015483838151811015156117b657fe5b60209081029091010152600190910190611746565b60408051600380825260808201909252906020820160608038833950506000808052600f6020527ff4803e074bd026baaf6ed2e288c9515f68c72fb7216eebdd7cae1718a53ec37554835193945060ff1692849250811061182857fe5b91151560209283029190910182015260016000819052600f9091527f169f97de0d9a84d840042b17d3c6b9638b3d6fd9024c9eb0c7a306a17b49f88f54825160ff909116918391811061187757fe5b91151560209283029190910182015260026000819052600f9091527fa74ba3945261e09fde15ba3db55005b205e61eeb4ad811ac0faa2b315bffeead54825160ff90911691839181106118c657fe5b911515602092830290910190910152601154601254600354600454601454889188916118f0613cfd565b889c509c509c509c509c509c509c509c509c5050505050909192939495969798565b7feac2f9e4000000000000000000000000000000000000000000000000000000005b90565b600e5460609081908310611995576040805160e560020a62461bcd02815260206004820152600c60248201527f496e76616c696420746965720000000000000000000000000000000000000000604482015290519081900360640190fd5b604080516003808252608082019092529060208201606080388339019050509050600e838154811015156119c557fe5b600091825260208083208380526007929092029091016005019052604081205482519091839181106119f357fe5b60209081029091010152600e805484908110611a0b57fe5b6000918252602080832060018085526007939093020160050190526040909120548251909183918110611a3a57fe5b60209081029091010152600e805484908110611a5257fe5b6000918252602080832060028085526007939093020160050190526040909120548251909183918110611a8157fe5b602090810290910101529050919050565b60608060608060606000600a80549050604051908082528060200260200182016040528015611acb578160200160208202803883390190505b50600a546040805182815260208084028201019091529194508015611afa578160200160208202803883390190505b509150600090505b600a54811015611bd457600060ff1660086000600a84815481101515611b2457fe5b6000918252602080832090910154600160a060020a0316835282019290925260400190205460ff1614611b58576001611b5b565b60005b8382815181101515611b6957fe5b911515602092830290910190910152600a805460089160009184908110611b8c57fe5b6000918252602080832090910154600160a060020a031683528201929092526040019020600101548251839083908110611bc257fe5b60209081029091010152600101611b02565b600a838382805480602002602001604051908101604052809291908181526020018280548015611c2d57602002820191906000526020600020905b8154600160a060020a03168152600190910190602001808311611c0f575b50505050509250955095509550505050909192565b600a805482908110611c5057fe5b600091825260209091200154600160a060020a0316905081565b60015460ff1681565b60125481565b601860009054906101000a9004600160a060020a0316600160a060020a0316638da5cb5b6040518163ffffffff1660e060020a028152600401602060405180830381600087803b158015611ccc57600080fd5b505af1158015611ce0573d6000803e3d6000fd5b505050506040513d6020811015611cf657600080fd5b5051600160a060020a03163314611d45576040805160e560020a62461bcd0281526020600482015260136024820152600080516020615f4f833981519152604482015290519081900360640190fd5b6011544210611d8c576040805160e560020a62461bcd0281526020600482015260136024820152600080516020615f2f833981519152604482015290519081900360640190fd5b611d968282614864565b5050565b600e5490565b601860009054906101000a9004600160a060020a0316600160a060020a0316638da5cb5b6040518163ffffffff1660e060020a028152600401602060405180830381600087803b158015611df357600080fd5b505af1158015611e07573d6000803e3d6000fd5b505050506040513d6020811015611e1d57600080fd5b5051600160a060020a03163314611e6c576040805160e560020a62461bcd0281526020600482015260136024820152600080516020615f4f833981519152604482015290519081900360640190fd5b611e746148ad565b565b601860009054906101000a9004600160a060020a0316600160a060020a0316638da5cb5b6040518163ffffffff1660e060020a028152600401602060405180830381600087803b158015611ec957600080fd5b505af1158015611edd573d6000803e3d6000fd5b505050506040513d6020811015611ef357600080fd5b5051600160a060020a03163314611f42576040805160e560020a62461bcd0281526020600482015260136024820152600080516020615f4f833981519152604482015290519081900360640190fd5b60015460ff1615158115151415611f5857600080fd5b6001805460ff191682151517908190556040805160ff90921615158252517fea6eddcb8f2bf55dfb29aef4bd48214ef0798b9eae2e1bbb25dac99ecf6da6ae916020908290030190a150565b6116c7816000610fa1565b600154600090610100900460ff1615611fca57506000611934565b601154421015611fdc57506000611934565b6012544210611fed57506000611934565b611ff5612455565b1561200257506000611934565b50600190565b600b5481565b6000806000806000601860009054906101000a9004600160a060020a0316600160a060020a0316638da5cb5b6040518163ffffffff1660e060020a028152600401602060405180830381600087803b15801561206957600080fd5b505af115801561207d573d6000803e3d6000fd5b505050506040513d602081101561209357600080fd5b5051600160a060020a031633146120e2576040805160e560020a62461bcd0281526020600482015260136024820152600080516020615f4f833981519152604482015290519081900360640190fd5b600154610100900460ff1615612142576040805160e560020a62461bcd02815260206004820152601060248201527f53544f2069732066696e616c697a656400000000000000000000000000000000604482015290519081900360640190fd5b6001805461ff001916610100179055600091505b600e54821015612255576121b3600e8381548110151561217257fe5b906000526020600020906007020160040154600e8481548110151561219357fe5b9060005260206000209060070201600201546143a290919063ffffffff16565b92506121c5858463ffffffff6143b416565b94506121fa600e838154811015156121d957fe5b906000526020600020906007020160040154856143b490919063ffffffff16565b9350600083111561224a57600e80548390811061221357fe5b906000526020600020906007020160020154600e8381548110151561223457fe5b9060005260206000209060070201600401819055505b600190910190612156565b601860009054906101000a9004600160a060020a0316600160a060020a031663556f0dc76040518163ffffffff1660e060020a028152600401602060405180830381600087803b1580156122a857600080fd5b505af11580156122bc573d6000803e3d6000fd5b505050506040513d60208110156122d257600080fd5b505190506122e6858263ffffffff61496316565b94506122f8858263ffffffff61497016565b601854600154604080517f40c10f19000000000000000000000000000000000000000000000000000000008152600160a060020a0362010000909304831660048201526024810185905290519398509116916340c10f19916044808201926020929091908290030181600087803b15801561237257600080fd5b505af1158015612386573d6000803e3d6000fd5b505050506040513d602081101561239c57600080fd5b505115156123f4576040805160e560020a62461bcd02815260206004820152601060248201527f4572726f7220696e206d696e74696e6700000000000000000000000000000000604482015290519081900360640190fd5b600154600354604080518881526020810192909252805162010000909304600160a060020a03169233927f2e16431844933795a4d33f27d6b8347133a6fb5fa7dcdf51d555906f6d8b705492908290030190a3505050600d91909155601655565b600154600090610100900460ff16156124725750600d5415611934565b600e8054600019810190811061248457fe5b6000918252602090912060026007909202010154600e805460001981019081106124aa57fe5b90600052602060002090600702016004015414905090565b601554600160a060020a031681565b611d96828260005b600061250e7f504f4c590000000000000000000000000000000000000000000000000000000060ea60020a621554d102613f3f565b600160a060020a0316141561256d576040805160e560020a62461bcd02815260206004820152600e60248201527f496e76616c6964204f7261636c65000000000000000000000000000000000000604482015290519081900360640190fd5b6001600052600f6020527f169f97de0d9a84d840042b17d3c6b9638b3d6fd9024c9eb0c7a306a17b49f88f5460ff1615156125f2576040805160e560020a62461bcd02815260206004820152601060248201527f504f4c59206e6f7420616c6c6f77656400000000000000000000000000000000604482015290519081900360640190fd5b60195461261090849084906001908590600160a060020a0316614999565b505050565b60195460a060020a900460ff1681565b60007f4645455f41444d494e0000000000000000000000000000000000000000000000600080601860009054906101000a9004600160a060020a0316600160a060020a0316638da5cb5b6040518163ffffffff1660e060020a028152600401602060405180830381600087803b15801561269e57600080fd5b505af11580156126b2573d6000803e3d6000fd5b505050506040513d60208110156126c857600080fd5b505160175433600160a060020a0392831681149450911614905081806126eb5750805b806127915750601854604080517f8658b8b9000000000000000000000000000000000000000000000000000000008152336004820152306024820152604481018690529051600160a060020a0390921691638658b8b9916064808201926020929091908290030181600087803b15801561276457600080fd5b505af1158015612778573d6000803e3d6000fd5b505050506040513d602081101561278e57600080fd5b50515b15156127e7576040805160e560020a62461bcd02815260206004820152601760248201527f5065726d697373696f6e20636865636b206661696c6564000000000000000000604482015290519081900360640190fd5b601954601854601754604080517f8da5cb5b0000000000000000000000000000000000000000000000000000000081529051600160a060020a03948516946323b872dd948116931691638da5cb5b9160048083019260209291908290030181600087803b15801561285757600080fd5b505af115801561286b573d6000803e3d6000fd5b505050506040513d602081101561288157600080fd5b50516040805160e060020a63ffffffff8616028152600160a060020a039384166004820152929091166024830152604482018990525160648083019260209291908290030181600087803b1580156128d857600080fd5b505af11580156128ec573d6000803e3d6000fd5b505050506040513d602081101561290257600080fd5b5051151561295a576040805160e560020a62461bcd02815260206004820152601260248201527f556e61626c6520746f2074616b65206665650000000000000000000000000000604482015290519081900360640190fd5b506001949350505050565b60165481565b606060028054806020026020016040519081016040528092919081815260200182805480156129c357602002820191906000526020600020905b8154600160a060020a031681526001909101906020018083116129a5575b5050505050905090565b600d5481565b6002600052600f6020527fa74ba3945261e09fde15ba3db55005b205e61eeb4ad811ac0faa2b315bffeead54819060ff168015612a285750600160a060020a03811660009081526009602052604090205460ff165b1515612a7e576040805160e560020a62461bcd02815260206004820152600f60248201527f555344206e6f7420616c6c6f7765640000000000000000000000000000000000604482015290519081900360640190fd5b612a8c858560028686614999565b5050505050565b6008602052600090815260409020805460019091015460ff808316926101009004169083565b601954600160a060020a031681565b601860009054906101000a9004600160a060020a0316600160a060020a0316638da5cb5b6040518163ffffffff1660e060020a028152600401602060405180830381600087803b158015612b1b57600080fd5b505af1158015612b2f573d6000803e3d6000fd5b505050506040513d6020811015612b4557600080fd5b5051600160a060020a03163314612b94576040805160e560020a62461bcd0281526020600482015260136024820152600080516020615f4f833981519152604482015290519081900360640190fd5b6011544210612bdb576040805160e560020a62461bcd0281526020600482015260136024820152600080516020615f2f833981519152604482015290519081900360640190fd5b612c928888808060200260200160405190810160405280939291908181526020018383602002808284375050604080516020808e0282810182019093528d82529095508d94508c93508392508501908490808284375050604080516020808d0282810182019093528c82529095508c94508b93508392508501908490808284375050604080516020808c0282810182019093528b82529095508b94508a935083925085019084908082843750614d14945050505050565b5050505050505050565b60056020526000908152604090205481565b60115481565b61261083836000846129d3565b601854604080517f8da5cb5b0000000000000000000000000000000000000000000000000000000081529051600092600160a060020a031691638da5cb5b91600480830192602092919082900301818787803b158015612d2057600080fd5b505af1158015612d34573d6000803e3d6000fd5b505050506040513d6020811015612d4a57600080fd5b5051600160a060020a03163314612d99576040805160e560020a62461bcd0281526020600482015260136024820152600080516020615f4f833981519152604482015290519081900360640190fd5b838214612df0576040805160e560020a62461bcd02815260206004820152600e60248201527f4172726179206d69736d61746368000000000000000000000000000000000000604482015290519081900360640190fd5b5060005b83811015612a8c57828282818110612e0857fe5b90506020020135151515612e7857600160086000878785818110612e2857fe5b90506020020135600160a060020a0316600160a060020a0316600160a060020a0316815260200190815260200160002060000160006101000a81548160ff021916908360ff160217905550612ed5565b6000600881878785818110612e8957fe5b90506020020135600160a060020a0316600160a060020a0316600160a060020a0316815260200190815260200160002060000160006101000a81548160ff021916908360ff1602179055505b612ef9858583818110612ee457fe5b90506020020135600160a060020a0316615218565b7f5bc4e4d4bde98d5a327e2a911b87c042b79ec57d32ddca3bf73e76cdc77de7eb858583818110612f2657fe5b90506020020135600160a060020a03168484848181101515612f4457fe5b60408051600160a060020a03909516855260209182029390930135151590840152508051918290030190a1600101612df4565b601860009054906101000a9004600160a060020a0316600160a060020a0316638da5cb5b6040518163ffffffff1660e060020a028152600401602060405180830381600087803b158015612fca57600080fd5b505af1158015612fde573d6000803e3d6000fd5b505050506040513d6020811015612ff457600080fd5b5051600160a060020a03163314613043576040805160e560020a62461bcd0281526020600482015260136024820152600080516020615f4f833981519152604482015290519081900360640190fd5b601254421061309c576040805160e560020a62461bcd02815260206004820152601660248201527f53544f20686173206265656e2066696e616c697a656400000000000000000000604482015290519081900360640190fd5b611e746152b3565b6000806130b084613705565b90506130bc83826143c1565b949350505050565b600760209081526000928352604080842090915290825290205481565b600080601860009054906101000a9004600160a060020a0316600160a060020a0316638da5cb5b6040518163ffffffff1660e060020a028152600401602060405180830381600087803b15801561313757600080fd5b505af115801561314b573d6000803e3d6000fd5b505050506040513d602081101561316157600080fd5b5051600160a060020a031633146131b0576040805160e560020a62461bcd0281526020600482015260136024820152600080516020615f4f833981519152604482015290519081900360640190fd5b600160a060020a0383161515613210576040805160e560020a62461bcd02815260206004820152600f60248201527f496e76616c696420616464726573730000000000000000000000000000000000604482015290519081900360640190fd5b604080517f70a082310000000000000000000000000000000000000000000000000000000081523060048201529051849350600160a060020a038416916370a082319160248083019260209291908290030181600087803b15801561327457600080fd5b505af1158015613288573d6000803e3d6000fd5b505050506040513d602081101561329e57600080fd5b5051604080517fa9059cbb000000000000000000000000000000000000000000000000000000008152336004820152602481018390529051919250600160a060020a0384169163a9059cbb916044808201926020929091908290030181600087803b15801561330c57600080fd5b505af1158015613320573d6000803e3d6000fd5b505050506040513d602081101561333657600080fd5b50511515612610576040805160e560020a62461bcd02815260206004820152600f60248201527f5472616e73666572206661696c65640000000000000000000000000000000000604482015290519081900360640190fd5b60096020526000908152604090205460ff1681565b6000806133af84613705565b90506130bc8382614843565b600154610100900460ff1681565b60408051808201909152600c81527f4574685573644f7261636c650000000000000000000000000000000000000000602082015281565b60006010600083600281111561341257fe5b60ff1660ff1681526020019081526020016000205490505b919050565b601860009054906101000a9004600160a060020a0316600160a060020a0316638da5cb5b6040518163ffffffff1660e060020a028152600401602060405180830381600087803b15801561348257600080fd5b505af1158015613496573d6000803e3d6000fd5b505050506040513d60208110156134ac57600080fd5b5051600160a060020a031633146134fb576040805160e560020a62461bcd0281526020600482015260136024820152600080516020615f4f833981519152604482015290519081900360640190fd5b61353384848484808060200260200160405190810160405280939291908181526020018383602002808284375061536e945050505050565b50505050565b60408051808201909152600d81527f506f6c795573644f7261636c6500000000000000000000000000000000000000602082015281565b60135481565b600080805b600e548110156135e1576135d7600e8281548110151561359757fe5b906000526020600020906007020160050160008660028111156135b657fe5b60ff168152602081019190915260400160002054839063ffffffff6143b416565b915060010161357b565b5092915050565b601860009054906101000a9004600160a060020a0316600160a060020a0316638da5cb5b6040518163ffffffff1660e060020a028152600401602060405180830381600087803b15801561363b57600080fd5b505af115801561364f573d6000803e3d6000fd5b505050506040513d602081101561366557600080fd5b5051600160a060020a031633146136b4576040805160e560020a62461bcd0281526020600482015260136024820152600080516020615f4f833981519152604482015290519081900360640190fd5b60115442106136fb576040805160e560020a62461bcd0281526020600482015260136024820152600080516020615f2f833981519152604482015290519081900360640190fd5b611d968282615448565b60008082600281111561371457fe5b14156137bd5761374d7f455448000000000000000000000000000000000000000000000000000000000060ea60020a621554d102613f3f565b600160a060020a03166398d5fdca6040518163ffffffff1660e060020a028152600401602060405180830381600087803b15801561378a57600080fd5b505af115801561379e573d6000803e3d6000fd5b505050506040513d60208110156137b457600080fd5b5051905061342a565b60018260028111156137cb57fe5b14156138045761374d7f504f4c590000000000000000000000000000000000000000000000000000000060ea60020a621554d102613f3f565b600282600281111561381257fe5b14156138275750670de0b6b3a764000061342a565b6040805160e560020a62461bcd02815260206004820152601160248201527f496e636f72726563742066756e64696e67000000000000000000000000000000604482015290519081900360640190fd5b601854600160a060020a031681565b6002805482908110611c5057fe5b601860009054906101000a9004600160a060020a0316600160a060020a0316638da5cb5b6040518163ffffffff1660e060020a028152600401602060405180830381600087803b1580156138e757600080fd5b505af11580156138fb573d6000803e3d6000fd5b505050506040513d602081101561391157600080fd5b5051600160a060020a03163314613960576040805160e560020a62461bcd0281526020600482015260136024820152600080516020615f4f833981519152604482015290519081900360640190fd5b60115442106139a7576040805160e560020a62461bcd0281526020600482015260136024820152600080516020615f2f833981519152604482015290519081900360640190fd5b611d96828280806020026020016040519081016040528093929190818152602001838360200280828437506154f5945050505050565b604080516000815260208101909152805b5090565b601754600160a060020a031681565b60106020526000908152604090205481565b60066020526000908152604090205481565b600f6020526000908152604090205460ff1681565b60035481565b600080805b600e54811015613a8c57613a82600e82815481101515613a6157fe5b906000526020600020906007020160040154836143b490919063ffffffff16565b9150600101613a45565b50919050565b7f4645455f41444d494e000000000000000000000000000000000000000000000081565b600154620100009004600160a060020a031681565b60145481565b601754600160a060020a03163314613b33576040805160e560020a62461bcd02815260206004820152601560248201527f53656e646572206973206e6f7420666163746f72790000000000000000000000604482015290519081900360640190fd5b60408051808201909152600c81527f4574685573644f7261636c650000000000000000000000000000000000000000602080830191825260ea60020a621554d1026000527f53ffa114ba2ce1ae2b33bea44459e521b4dcd90ecf5e26edc0c74207c71a4d3690529051613bc7917ff1554b02425cc2401298719fc1e32ee9893ec4780015443d3099a80a32182ca391615d9e565b5060408051808201909152600d81527f506f6c795573644f7261636c6500000000000000000000000000000000000000602080830191825260ea60020a621554d1026000527f82d6ebbc41f8fb09c49ed7614ca0dbb8a745daf467726f1773ca5d4ed029094390529051613c5c917fcbb6a8a44cd43e32acada640d97dc1df3765f23ba0b5a4e0bbc73fc1bfed20a791615d9e565b5060125415613cb5576040805160e560020a62461bcd02815260206004820152601260248201527f416c726561647920636f6e666967757265640000000000000000000000000000604482015290519081900360640190fd5b613cbf8c8c615448565b613ccb8a8a8a8a614d14565b613cd4846154f5565b613cdf83838361536e565b613ce98686614864565b505050505050505050505050565b600c5481565b600154600090610100900460ff1615613d195750601654611934565b613d21613a40565b9050611934565b601854604080517f8da5cb5b0000000000000000000000000000000000000000000000000000000081529051600092600160a060020a031691638da5cb5b91600480830192602092919082900301818787803b158015613d8757600080fd5b505af1158015613d9b573d6000803e3d6000fd5b505050506040513d6020811015613db157600080fd5b5051600160a060020a03163314613e00576040805160e560020a62461bcd0281526020600482015260136024820152600080516020615f4f833981519152604482015290519081900360640190fd5b838214613e57576040805160e560020a62461bcd02815260206004820152600e60248201527f4172726179206d69736d61746368000000000000000000000000000000000000604482015290519081900360640190fd5b5060005b83811015612a8c57828282818110613e6f57fe5b90506020020135600860008787858181101515613e8857fe5b60209081029290920135600160a060020a031683525081019190915260400160002060010155613ebd858583818110612ee457fe5b7fcde9ad1085e6403dc0f4aec5ed3e0e505e5cd00bc639943be2601cfedc6ce80f858583818110613eea57fe5b90506020020135600160a060020a03168484848181101515613f0857fe5b60408051600160a060020a0390951685526020918202939093013590840152508051918290030190a1600101613e5b565b60045481565b601854604080517f77282b700000000000000000000000000000000000000000000000000000000081529051600092600160a060020a0316916377282b7091600480830192602092919082900301818787803b158015613f9e57600080fd5b505af1158015613fb2573d6000803e3d6000fd5b505050506040513d6020811015613fc857600080fd5b505160008481526020818152604080832086845282529182902091517fbf40fac10000000000000000000000000000000000000000000000000000000081526004810191825282546002610100600183161502600019019091160460248201819052600160a060020a039094169363bf40fac19392918291604490910190849080156140955780601f1061406a57610100808354040283529160200191614095565b820191906000526020600020905b81548152906001019060200180831161407857829003601f168201915b505092505050602060405180830381600087803b1580156140b557600080fd5b505af11580156140c9573d6000803e3d6000fd5b505050506040513d60208110156140df57600080fd5b505190505b92915050565b6000806000806000806000601960159054906101000a900460ff1615151561411157600080fd5b6019805475ff00000000000000000000000000000000000000000019167501000000000000000000000000000000000000000000179081905560a060020a900460ff16156141a9576040805160e560020a62461bcd02815260206004820152601260248201527f436f6e7472616374206973207061757365640000000000000000000000000000604482015290519081900360640190fd5b60015460ff16151561421557600160a060020a038b163314614215576040805160e560020a62461bcd02815260206004820152601560248201527f42656e656669636961727920213d2066756e6465720000000000000000000000604482015290519081900360640190fd5b61421f898b6143c1565b945061422c8b8b876143f8565b935060035492505b600e548310156142dc57600354831461424d5760038390555b600e80548490811061425b57fe5b906000526020600020906007020160020154600e8481548110151561427c57fe5b90600052602060002090600702016004015410156142d1576142af8b846142a9878b63ffffffff6143a216565b8b6156c4565b925090506142c3878263ffffffff6143b416565b96508115156142d1576142dc565b600190920191614234565b600087111561436757600160a060020a038b16600090815260066020526040902054151561430e576014805460010190555b600160a060020a038b16600090815260066020526040902054614337908863ffffffff6143b416565b600160a060020a038c16600090815260066020526040902055600454614363908863ffffffff6143b416565b6004555b614371878a614843565b6019805475ff00000000000000000000000000000000000000000019169055969b969a509598505050505050505050565b6000828211156143ae57fe5b50900390565b818101828110156140e457fe5b6000670de0b6b3a76400006143e76143d98585614970565b6706f05b59d3b200006143b4565b8115156143f057fe5b049392505050565b600080614403611faf565b1515614459576040805160e560020a62461bcd02815260206004820152600c60248201527f53544f206e6f74206f70656e0000000000000000000000000000000000000000604482015290519081900360640190fd5b600084116144b1576040805160e560020a62461bcd02815260206004820152601260248201527f4e6f2066756e647320776572652073656e740000000000000000000000000000604482015290519081900360640190fd5b600c54600160a060020a0386166000908152600660205260409020546144de90859063ffffffff6143b416565b101561455a576040805160e560020a62461bcd02815260206004820152602160248201527f696e766573746d656e74203c206d696e696d756d496e766573746d656e74555360448201527f4400000000000000000000000000000000000000000000000000000000000000606482015290519081900360840190fd5b600160a060020a03851660009081526008602052604090205483925060ff16151561469657600160a060020a038516600090815260086020526040902060010154156145c157600160a060020a0385166000908152600860205260409020600101546145c5565b600b545b600160a060020a0386166000908152600660205260409020549091508111614637576040805160e560020a62461bcd02815260206004820152601360248201527f4f76657220696e766573746f72206c696d697400000000000000000000000000604482015290519081900360640190fd5b600160a060020a038516600090815260066020526040902054819061466390859063ffffffff6143b416565b111561469657600160a060020a03851660009081526006602052604090205461469390829063ffffffff6143a216565b91505b509392505050565b600080600080600080600080600e8b8154811015156146b957fe5b60009182526020909120600790910201925060018960028111156146d957fe5b1480156146ed575082600601548360030154115b15614779576006830154600384015461470b9163ffffffff6143a216565b9150614728836004015484600201546143a290919063ffffffff16565b90508181101561474e576147418360010154828c61591a565b9199509097509550614766565b61475d8360010154838c61591a565b91995090975095505b6147768a8963ffffffff6143a216565b99505b60008a1180156147b3575060006147b16147a08886600401546143b490919063ffffffff16565b60028601549063ffffffff6143a216565b115b80156147dd575060018960028111156147c857fe5b1415806147dd57508260060154836003015411155b15614835578254600484015460028501546148099291614803919063ffffffff6143a216565b8c61591a565b98509095509350614820888663ffffffff6143b416565b9750614832868563ffffffff6143b416565b95505b505050505093509350939050565b6000816143e761485b85670de0b6b3a7640000614970565b600285046143b4565b600c819055600b829055604080518281526020810184905281517f6edefa108617056bef120162b4dc9ced4920b9a10f2dcc512c4c60fee6e7e693929181900390910190a15050565b60195460a060020a900460ff161515614910576040805160e560020a62461bcd02815260206004820152601660248201527f436f6e7472616374206973206e6f742070617573656400000000000000000000604482015290519081900360640190fd5b6019805474ff0000000000000000000000000000000000000000191690556040805142815290517faaa520fdd7d2c83061d632fa017b0432407e798818af63ea908589fceda39ab79181900360200190a1565b600081838115156143f057fe5b6000821515614981575060006140e4565b5081810281838281151561499157fe5b04146140e457fe5b600080808060018760028111156149ac57fe5b14806149c3575060028760028111156149c157fe5b145b1515614a19576040805160e560020a62461bcd02815260206004820152600d60248201527f496e76616c696420726169736500000000000000000000000000000000000000604482015290519081900360640190fd5b614a21613a40565b9350614a2c87613705565b9250614a3a8989858a6140ea565b9150915085614a4b856110f1613a40565b1015614aa1576040805160e560020a62461bcd02815260206004820152601360248201527f496e73756666696369656e74206d696e74656400000000000000000000000000604482015290519081900360640190fd5b600160a060020a0389166000908152600760205260408120614acc918391908a600281111561117457fe5b600160a060020a038a16600090815260076020526040812090896002811115614af157fe5b60ff1660ff16815260200190815260200160002081905550614b1d81601060008a600281111561117457fe5b60106000896002811115614b2d57fe5b60ff168152602081019190915260400160002055601954600160a060020a03868116911614614b9957600160a060020a038516600090815260056020526040902054614b7f908263ffffffff6143b416565b600160a060020a0386166000908152600560205260409020555b601554604080517f23b872dd000000000000000000000000000000000000000000000000000000008152336004820152600160a060020a039283166024820152604481018490529051918716916323b872dd916064808201926020929091908290030181600087803b158015614c0e57600080fd5b505af1158015614c22573d6000803e3d6000fd5b505050506040513d6020811015614c3857600080fd5b50511515614c90576040805160e560020a62461bcd02815260206004820152600f60248201527f5472616e73666572206661696c65640000000000000000000000000000000000604482015290519081900360640190fd5b88600160a060020a031633600160a060020a03167fa5a66b45c30fa6510eb2c3ccbe3c500d21863c7cc3e37d2dc85bb28db7775bd1848a8c868960405180868152602001856002811115614ce057fe5b60ff1681526020018481526020018381526020018281526020019550505050505060405180910390a3505050505050505050565b6000808351111515614d70576040805160e560020a62461bcd02815260206004820152601160248201527f4e6f2074696572732070726f7669646564000000000000000000000000000000604482015290519081900360640190fd5b82518551148015614d82575082518451145b8015614d8f575082518251145b1515614de5576040805160e560020a62461bcd02815260206004820152601960248201527f546965722064617461206c656e677468206d69736d6174636800000000000000604482015290519081900360640190fd5b614df1600e6000615e18565b5060005b84518110156150ca5760008582815181101515614e0e57fe5b6020908102909101015111614e6d576040805160e560020a62461bcd02815260206004820152600c60248201527f496e76616c696420726174650000000000000000000000000000000000000000604482015290519081900360640190fd5b60008382815181101515614e7d57fe5b6020908102909101015111614edc576040805160e560020a62461bcd02815260206004820152601460248201527f496e76616c696420746f6b656e20616d6f756e74000000000000000000000000604482015290519081900360640190fd5b8281815181101515614eea57fe5b906020019060200201518282815181101515614f0257fe5b602090810290910101511115614f62576040805160e560020a62461bcd02815260206004820152601a60248201527f546f6f206d616e7920646973636f756e74656420746f6b656e73000000000000604482015290519081900360640190fd5b8481815181101515614f7057fe5b906020019060200201518482815181101515614f8857fe5b602090810290910101511115614fe8576040805160e560020a62461bcd02815260206004820152601060248201527f496e76616c696420646973636f756e7400000000000000000000000000000000604482015290519081900360640190fd5b600e60c060405190810160405280878481518110151561500457fe5b906020019060200201518152602001868481518110151561502157fe5b906020019060200201518152602001858481518110151561503e57fe5b906020019060200201518152602001848481518110151561505b57fe5b60209081029091018101518252600082820181905260409283018190528454600181810187559582529082902084516007909202019081559083015181850155908201516002820155606082015160038201556080820151600482015560a09091015160069091015501614df5565b7fbdbb624542b4a708b5fed87894a55c10945f2676a45a28f9da59597118247496858585856040518080602001806020018060200180602001858103855289818151815260200191508051906020019060200280838360005b8381101561513b578181015183820152602001615123565b50505050905001858103845288818151815260200191508051906020019060200280838360005b8381101561517a578181015183820152602001615162565b50505050905001858103835287818151815260200191508051906020019060200280838360005b838110156151b95781810151838201526020016151a1565b50505050905001858103825286818151815260200191508051906020019060200280838360005b838110156151f85781810151838201526020016151e0565b505050509050019850505050505050505060405180910390a15050505050565b600160a060020a038116600090815260086020526040902054610100900460ff1615156116c757600160a060020a0381166000818152600860205260408120805461ff001916610100179055600a805460018101825591527fc65a7bb8d6351c1cf70c95a316cc6a92839c986682d98bc35f958f4883f9d2a801805473ffffffffffffffffffffffffffffffffffffffff1916909117905550565b60195460a060020a900460ff1615615315576040805160e560020a62461bcd02815260206004820152601260248201527f436f6e7472616374206973207061757365640000000000000000000000000000604482015290519081900360640190fd5b6019805474ff0000000000000000000000000000000000000000191660a060020a1790556040805142815290517f68b095021b1f40fe513109f513c66692f0b3219aee674a69f4efc57badb8201d9181900360200190a1565b600160a060020a0383161580159061538e5750600160a060020a03821615155b15156153e4576040805160e560020a62461bcd02815260206004820152600e60248201527f496e76616c69642077616c6c6574000000000000000000000000000000000000604482015290519081900360640190fd5b6015805473ffffffffffffffffffffffffffffffffffffffff1916600160a060020a03858116919091179091556001805475ffffffffffffffffffffffffffffffffffffffff00001916620100009285169290920291909117905561261081615a17565b818111801561545657504282115b15156154ac576040805160e560020a62461bcd02815260206004820152600d60248201527f496e76616c69642074696d657300000000000000000000000000000000000000604482015290519081900360640190fd5b60118290556012819055604080518381526020810183905281517f2eae0d0a99cbf5ab05babf7ee1f4bdf6e9bb99ffdca04682fa54f6682d5d80fe929181900390910190a15050565b600080825111801561550957506003825111155b151561555f576040805160e560020a62461bcd02815260206004820152601b60248201527f52616973652074797065206973206e6f74207370656369666965640000000000604482015290519081900360640190fd5b50600f6020527ff4803e074bd026baaf6ed2e288c9515f68c72fb7216eebdd7cae1718a53ec375805460ff199081169091557f169f97de0d9a84d840042b17d3c6b9638b3d6fd9024c9eb0c7a306a17b49f88f805482169055600260009081527fa74ba3945261e09fde15ba3db55005b205e61eeb4ad811ac0faa2b315bffeead80549092169091555b81518160ff16101561564b576001600f6000848460ff1681518110151561560c57fe5b90602001906020020151600281111561562157fe5b60ff1681526020810191909152604001600020805460ff19169115159190911790556001016155e9565b7fe5724f42dd9f217c97b3768212ed6d6692c0135e252387d61b98af28fecd9b02826040518080602001828103825283818151815260200191508051906020019060200280838360005b838110156156ad578181015183820152602001615695565b505050509050019250505060405180910390a15050565b600080600080600080600080899350600e8b8154811015156156e257fe5b600091825260209091206007909102019250600189600281111561570257fe5b148015615716575082600601548360030154115b1561581757600683015460038401546157349163ffffffff6143a216565b9150615751836004015484600201546143a290919063ffffffff16565b9050818110156157795761576c8c846001015483878f615c2d565b9199509097509450615793565b61578a8c846001015484878f615c2d565b91995090975094505b6157a3848963ffffffff6143a216565b60068401549094506157bb908663ffffffff6143b416565b60068401556157d6856005850160008c600281111561117457fe5b8360050160008b60028111156157e857fe5b60ff1681526020810191909152604001600020556004830154615811908663ffffffff6143b416565b60048401555b6000841180156158415750600061583f846004015485600201546143a290919063ffffffff16565b115b801561586b5750600189600281111561585657fe5b14158061586b57508260060154836003015411155b1561590b5761589b8c8460000154615894866004015487600201546143a290919063ffffffff16565b878f615c2d565b985090965094506158b2888763ffffffff6143b416565b97506158ca858460050160008c600281111561117457fe5b8360050160008b60028111156158dc57fe5b60ff1681526020810191909152604001600020556004830154615905908663ffffffff6143b416565b60048401555b50505050505094509492505050565b60008060008061592a8588614843565b9250601860009054906101000a9004600160a060020a0316600160a060020a031663556f0dc76040518163ffffffff1660e060020a028152600401602060405180830381600087803b15801561597f57600080fd5b505af1158015615993573d6000803e3d6000fd5b505050506040513d60208110156159a957600080fd5b50519050858311156159d0576159c5868263ffffffff61496316565b9250600191506159e3565b6159e0838263ffffffff61496316565b92505b6159f3838263ffffffff61497016565b92506159ff83886143c1565b935084841115615a0d578493505b5093509350939050565b60005b600254811015615a7557600060096000600284815481101515615a3957fe5b600091825260208083209190910154600160a060020a031683528201929092526040019020805460ff1916911515919091179055600101615a1a565b8151615a88906002906020850190615e39565b50600090505b8151811015615b9b578151600090839083908110615aa857fe5b90602001906020020151600160a060020a031614158015615af757506019548251600160a060020a0390911690839083908110615ae157fe5b90602001906020020151600160a060020a031614155b1515615b4d576040805160e560020a62461bcd02815260206004820152601160248201527f496e76616c69642055534420746f6b656e000000000000000000000000000000604482015290519081900360640190fd5b6001600960008484815181101515615b6157fe5b602090810291909101810151600160a060020a03168252810191909152604001600020805460ff1916911515919091179055600101615a8e565b600154601554604080516020808252865181830152865162010000909504600160a060020a03908116959416937f8af18d174d22808e0f6d16e613f909f1b60caca2b1cbd2194eb098365c9a867893889392839291830191858201910280838360005b83811015615c16578181015183820152602001615bfe565b505050509050019250505060405180910390a35050565b6000806000615c3d87878761591a565b919450925090506000821115615d9357601854604080517f40c10f19000000000000000000000000000000000000000000000000000000008152600160a060020a038b8116600483015260248201869052915191909216916340c10f199160448083019260209291908290030181600087803b158015615cbc57600080fd5b505af1158015615cd0573d6000803e3d6000fd5b505050506040513d6020811015615ce657600080fd5b50511515615d3e576040805160e560020a62461bcd02815260206004820152601060248201527f4572726f7220696e206d696e74696e6700000000000000000000000000000000604482015290519081900360640190fd5b6040805183815260208101859052808201899052606081018690529051600160a060020a038a169133917fc29b8032387f267ddc010037627574acbf3b1a65a6022ca8ba6c25f0ba85ee759181900360800190a35b955095509592505050565b828054600181600116156101000203166002900490600052602060002090601f016020900481019282601f10615ddf57805160ff1916838001178555615e0c565b82800160010185558215615e0c579182015b82811115615e0c578251825591602001919060010190615df1565b506139ee929150615ea7565b50805460008255600702906000526020600020908101906116c79190615ec1565b828054828255906000526020600020908101928215615e9b579160200282015b82811115615e9b578251825473ffffffffffffffffffffffffffffffffffffffff1916600160a060020a03909116178255602090920191600190910190615e59565b506139ee929150615efd565b61193491905b808211156139ee5760008155600101615ead565b61193491905b808211156139ee576000808255600182018190556002820181905560038201819055600482018190556006820155600701615ec7565b61193491905b808211156139ee57805473ffffffffffffffffffffffffffffffffffffffff19168155600101615f03560053544f20616c726561647920737461727465640000000000000000000000000053656e646572206973206e6f74206f776e657200000000000000000000000000a165627a7a723058203b8fbff615046d9f6f9cf3958e21a2be812cd605edec82982360c656774957520029",
  "source": "pragma solidity ^0.4.24;\n\nimport \"./STO.sol\";\nimport \"../../interfaces/ISecurityToken.sol\";\nimport \"../../interfaces/IOracle.sol\";\nimport \"../../RegistryUpdater.sol\";\nimport \"../../libraries/DecimalMath.sol\";\nimport \"openzeppelin-solidity/contracts/math/SafeMath.sol\";\nimport \"openzeppelin-solidity/contracts/ReentrancyGuard.sol\";\nimport \"../../storage/USDTieredSTOStorage.sol\";\n\n/**\n * @title STO module for standard capped crowdsale\n */\ncontract USDTieredSTO is USDTieredSTOStorage, STO, ReentrancyGuard {\n    using SafeMath for uint256;\n\n    string public constant POLY_ORACLE = \"PolyUsdOracle\";\n    string public constant ETH_ORACLE = \"EthUsdOracle\";\n\n    ////////////\n    // Events //\n    ////////////\n\n    event SetAllowBeneficialInvestments(bool _allowed);\n    event SetNonAccreditedLimit(address _investor, uint256 _limit);\n    event SetAccredited(address _investor, bool _accredited);\n    event TokenPurchase(\n        address indexed _purchaser,\n        address indexed _beneficiary,\n        uint256 _tokens,\n        uint256 _usdAmount,\n        uint256 _tierPrice,\n        uint256 _tier\n    );\n    event FundsReceived(\n        address indexed _purchaser,\n        address indexed _beneficiary,\n        uint256 _usdAmount,\n        FundRaiseType _fundRaiseType,\n        uint256 _receivedValue,\n        uint256 _spentValue,\n        uint256 _rate\n    );\n    event ReserveTokenMint(address indexed _owner, address indexed _wallet, uint256 _tokens, uint256 _latestTier);\n    event SetAddresses(\n        address indexed _wallet,\n        address indexed _reserveWallet,\n        address[] _usdTokens\n    );\n    event SetLimits(\n        uint256 _nonAccreditedLimitUSD,\n        uint256 _minimumInvestmentUSD\n    );\n    event SetTimes(\n        uint256 _startTime,\n        uint256 _endTime\n    );\n    event SetTiers(\n        uint256[] _ratePerTier,\n        uint256[] _ratePerTierDiscountPoly,\n        uint256[] _tokensPerTierTotal,\n        uint256[] _tokensPerTierDiscountPoly\n    );\n\n    ///////////////\n    // Modifiers //\n    ///////////////\n\n    modifier validETH {\n        require(_getOracle(bytes32(\"ETH\"), bytes32(\"USD\")) != address(0), \"Invalid Oracle\");\n        require(fundRaiseTypes[uint8(FundRaiseType.ETH)], \"ETH not allowed\");\n        _;\n    }\n\n    modifier validPOLY {\n        require(_getOracle(bytes32(\"POLY\"), bytes32(\"USD\")) != address(0), \"Invalid Oracle\");\n        require(fundRaiseTypes[uint8(FundRaiseType.POLY)], \"POLY not allowed\");\n        _;\n    }\n\n    modifier validSC(address _usdToken) {\n        require(fundRaiseTypes[uint8(FundRaiseType.SC)] && usdTokenEnabled[_usdToken], \"USD not allowed\");\n        _;\n    }\n\n    ///////////////////////\n    // STO Configuration //\n    ///////////////////////\n\n    constructor (address _securityToken, address _polyAddress)\n    public\n    Module(_securityToken, _polyAddress)\n    {\n    }\n\n    /**\n     * @notice Function used to intialize the contract variables\n     * @param _startTime Unix timestamp at which offering get started\n     * @param _endTime Unix timestamp at which offering get ended\n     * @param _ratePerTier Rate (in USD) per tier (* 10**18)\n     * @param _tokensPerTierTotal Tokens available in each tier\n     * @param _nonAccreditedLimitUSD Limit in USD (* 10**18) for non-accredited investors\n     * @param _minimumInvestmentUSD Minimun investment in USD (* 10**18)\n     * @param _fundRaiseTypes Types of currency used to collect the funds\n     * @param _wallet Ethereum account address to hold the funds\n     * @param _reserveWallet Ethereum account address to receive unsold tokens\n     * @param _usdTokens Array of contract addressess of the stable coins\n     */\n    function configure(\n        uint256 _startTime,\n        uint256 _endTime,\n        uint256[] _ratePerTier,\n        uint256[] _ratePerTierDiscountPoly,\n        uint256[] _tokensPerTierTotal,\n        uint256[] _tokensPerTierDiscountPoly,\n        uint256 _nonAccreditedLimitUSD,\n        uint256 _minimumInvestmentUSD,\n        FundRaiseType[] _fundRaiseTypes,\n        address _wallet,\n        address _reserveWallet,\n        address[] _usdTokens\n    ) public onlyFactory {\n        oracleKeys[bytes32(\"ETH\")][bytes32(\"USD\")] = ETH_ORACLE;\n        oracleKeys[bytes32(\"POLY\")][bytes32(\"USD\")] = POLY_ORACLE;\n        require(endTime == 0, \"Already configured\");\n        _modifyTimes(_startTime, _endTime);\n        _modifyTiers(_ratePerTier, _ratePerTierDiscountPoly, _tokensPerTierTotal, _tokensPerTierDiscountPoly);\n        // NB - _setFundRaiseType must come before modifyAddresses\n        _setFundRaiseType(_fundRaiseTypes);\n        _modifyAddresses(_wallet, _reserveWallet, _usdTokens);\n        _modifyLimits(_nonAccreditedLimitUSD, _minimumInvestmentUSD);\n    }\n\n    /**\n     * @dev Modifies fund raise types\n     * @param _fundRaiseTypes Array of fund raise types to allow\n     */\n    function modifyFunding(FundRaiseType[] _fundRaiseTypes) external onlyOwner {\n        /*solium-disable-next-line security/no-block-members*/\n        require(now < startTime, \"STO already started\");\n        _setFundRaiseType(_fundRaiseTypes);\n    }\n\n    /**\n     * @dev modifies max non accredited invets limit and overall minimum investment limit\n     * @param _nonAccreditedLimitUSD max non accredited invets limit\n     * @param _minimumInvestmentUSD overall minimum investment limit\n     */\n    function modifyLimits(\n        uint256 _nonAccreditedLimitUSD,\n        uint256 _minimumInvestmentUSD\n    ) external onlyOwner {\n        /*solium-disable-next-line security/no-block-members*/\n        require(now < startTime, \"STO already started\");\n        _modifyLimits(_nonAccreditedLimitUSD, _minimumInvestmentUSD);\n    }\n\n    /**\n     * @dev modifiers STO tiers. All tiers must be passed, can not edit specific tiers.\n     * @param _ratePerTier Array of rates per tier\n     * @param _ratePerTierDiscountPoly Array of discounted poly rates per tier\n     * @param _tokensPerTierTotal Array of total tokens per tier\n     * @param _tokensPerTierDiscountPoly Array of discounted tokens per tier\n     */\n    function modifyTiers(\n        uint256[] _ratePerTier,\n        uint256[] _ratePerTierDiscountPoly,\n        uint256[] _tokensPerTierTotal,\n        uint256[] _tokensPerTierDiscountPoly\n    ) external onlyOwner {\n        /*solium-disable-next-line security/no-block-members*/\n        require(now < startTime, \"STO already started\");\n        _modifyTiers(_ratePerTier, _ratePerTierDiscountPoly, _tokensPerTierTotal, _tokensPerTierDiscountPoly);\n    }\n\n    /**\n     * @dev Modifies STO start and end times\n     * @param _startTime start time of sto\n     * @param _endTime end time of sto\n     */\n    function modifyTimes(\n        uint256 _startTime,\n        uint256 _endTime\n    ) external onlyOwner {\n        /*solium-disable-next-line security/no-block-members*/\n        require(now < startTime, \"STO already started\");\n        _modifyTimes(_startTime, _endTime);\n    }\n\n    /**\n     * @dev Modifies addresses used as wallet, reserve wallet and usd token\n     * @param _wallet Address of wallet where funds are sent\n     * @param _reserveWallet Address of wallet where unsold tokens are sent\n     * @param _usdTokens Address of usd tokens\n     */\n    function modifyAddresses(\n        address _wallet,\n        address _reserveWallet,\n        address[] _usdTokens\n    ) external onlyOwner {\n        _modifyAddresses(_wallet, _reserveWallet, _usdTokens);\n    }\n\n    function _modifyLimits(\n        uint256 _nonAccreditedLimitUSD,\n        uint256 _minimumInvestmentUSD\n    ) internal {\n        minimumInvestmentUSD = _minimumInvestmentUSD;\n        nonAccreditedLimitUSD = _nonAccreditedLimitUSD;\n        emit SetLimits(minimumInvestmentUSD, nonAccreditedLimitUSD);\n    }\n\n    function _modifyTiers(\n        uint256[] _ratePerTier,\n        uint256[] _ratePerTierDiscountPoly,\n        uint256[] _tokensPerTierTotal,\n        uint256[] _tokensPerTierDiscountPoly\n    ) internal {\n        require(_tokensPerTierTotal.length > 0, \"No tiers provided\");\n        require(_ratePerTier.length == _tokensPerTierTotal.length &&\n            _ratePerTierDiscountPoly.length == _tokensPerTierTotal.length &&\n            _tokensPerTierDiscountPoly.length == _tokensPerTierTotal.length,\n            \"Tier data length mismatch\"\n        );\n        delete tiers;\n        for (uint256 i = 0; i < _ratePerTier.length; i++) {\n            require(_ratePerTier[i] > 0, \"Invalid rate\");\n            require(_tokensPerTierTotal[i] > 0, \"Invalid token amount\");\n            require(_tokensPerTierDiscountPoly[i] <= _tokensPerTierTotal[i], \"Too many discounted tokens\");\n            require(_ratePerTierDiscountPoly[i] <= _ratePerTier[i], \"Invalid discount\");\n            tiers.push(Tier(_ratePerTier[i], _ratePerTierDiscountPoly[i], _tokensPerTierTotal[i], _tokensPerTierDiscountPoly[i], 0, 0));\n        }\n        emit SetTiers(_ratePerTier, _ratePerTierDiscountPoly, _tokensPerTierTotal, _tokensPerTierDiscountPoly);\n    }\n\n    function _modifyTimes(\n        uint256 _startTime,\n        uint256 _endTime\n    ) internal {\n        /*solium-disable-next-line security/no-block-members*/\n        require((_endTime > _startTime) && (_startTime > now), \"Invalid times\");\n        startTime = _startTime;\n        endTime = _endTime;\n        emit SetTimes(_startTime, _endTime);\n    }\n\n    function _modifyAddresses(\n        address _wallet,\n        address _reserveWallet,\n        address[] _usdTokens\n    ) internal {\n        require(_wallet != address(0) && _reserveWallet != address(0), \"Invalid wallet\");\n        wallet = _wallet;\n        reserveWallet = _reserveWallet;\n        _modifyUSDTokens(_usdTokens);\n    }\n\n    function _modifyUSDTokens(address[] _usdTokens) internal {\n        for(uint256 i = 0; i < usdTokens.length; i++) {\n            usdTokenEnabled[usdTokens[i]] = false;\n        }\n        usdTokens = _usdTokens;\n        for(i = 0; i < _usdTokens.length; i++) {\n            require(_usdTokens[i] != address(0) && _usdTokens[i] != address(polyToken), \"Invalid USD token\");\n            usdTokenEnabled[_usdTokens[i]] = true;\n        }\n        emit SetAddresses(wallet, reserveWallet, _usdTokens);\n    }\n\n    ////////////////////\n    // STO Management //\n    ////////////////////\n\n    /**\n     * @notice Finalizes the STO and mint remaining tokens to reserve address\n     * @notice Reserve address must be whitelisted to successfully finalize\n     */\n    function finalize() external onlyOwner {\n        require(!isFinalized, \"STO is finalized\");\n        isFinalized = true;\n        uint256 tempReturned;\n        uint256 tempSold;\n        uint256 remainingTokens;\n        for (uint256 i = 0; i < tiers.length; i++) {\n            remainingTokens = tiers[i].tokenTotal.sub(tiers[i].mintedTotal);\n            tempReturned = tempReturned.add(remainingTokens);\n            tempSold = tempSold.add(tiers[i].mintedTotal);\n            if (remainingTokens > 0) {\n                tiers[i].mintedTotal = tiers[i].tokenTotal;\n            }\n        }\n        uint256 granularity = ISecurityToken(securityToken).granularity();\n        tempReturned = tempReturned.div(granularity);\n        tempReturned = tempReturned.mul(granularity);\n        require(ISecurityToken(securityToken).mint(reserveWallet, tempReturned), \"Error in minting\");\n        emit ReserveTokenMint(msg.sender, reserveWallet, tempReturned, currentTier);\n        finalAmountReturned = tempReturned;\n        totalTokensSold = tempSold;\n    }\n\n    /**\n     * @notice Modifies the list of accredited addresses\n     * @param _investors Array of investor addresses to modify\n     * @param _accredited Array of bools specifying accreditation status\n     */\n    function changeAccredited(address[] _investors, bool[] _accredited) external onlyOwner {\n        require(_investors.length == _accredited.length, \"Array mismatch\");\n        for (uint256 i = 0; i < _investors.length; i++) {\n            if (_accredited[i]) {\n                investors[_investors[i]].accredited = uint8(1);\n            } else {\n                investors[_investors[i]].accredited = uint8(0);\n            }\n            _addToInvestorsList(_investors[i]);\n            emit SetAccredited(_investors[i], _accredited[i]);\n        }\n    }\n\n    /**\n     * @notice Modifies the list of overrides for non-accredited limits in USD\n     * @param _investors Array of investor addresses to modify\n     * @param _nonAccreditedLimit Array of uints specifying non-accredited limits\n     */\n    function changeNonAccreditedLimit(address[] _investors, uint256[] _nonAccreditedLimit) external onlyOwner {\n        //nonAccreditedLimitUSDOverride\n        require(_investors.length == _nonAccreditedLimit.length, \"Array mismatch\");\n        for (uint256 i = 0; i < _investors.length; i++) {\n            investors[_investors[i]].nonAccreditedLimitUSDOverride = _nonAccreditedLimit[i];\n            _addToInvestorsList(_investors[i]);\n            emit SetNonAccreditedLimit(_investors[i], _nonAccreditedLimit[i]);\n        }\n    }\n\n    function _addToInvestorsList(address _investor) internal {\n        if (investors[_investor].seen == uint8(0)) {\n            investors[_investor].seen = uint8(1);\n            investorsList.push(_investor);\n        }\n    }\n\n    /**\n     * @notice Returns investor accredited & non-accredited override informatiomn\n     * @return address[] list of all configured investors\n     * @return bool[] whether investor is accredited\n     * @return uint256[] any USD overrides for non-accredited limits for the investor\n     */\n    function getAccreditedData() external view returns (address[], bool[], uint256[]) {\n        bool[] memory accrediteds = new bool[](investorsList.length);\n        uint256[] memory nonAccreditedLimitUSDOverrides = new uint256[](investorsList.length);\n        uint256 i;\n        for (i = 0; i < investorsList.length; i++) {\n            accrediteds[i] = (investors[investorsList[i]].accredited == uint8(0)? false: true);\n            nonAccreditedLimitUSDOverrides[i] = investors[investorsList[i]].nonAccreditedLimitUSDOverride;\n        }\n        return (investorsList, accrediteds, nonAccreditedLimitUSDOverrides);\n    }\n\n    /**\n     * @notice Function to set allowBeneficialInvestments (allow beneficiary to be different to funder)\n     * @param _allowBeneficialInvestments Boolean to allow or disallow beneficial investments\n     */\n    function changeAllowBeneficialInvestments(bool _allowBeneficialInvestments) external onlyOwner {\n        require(_allowBeneficialInvestments != allowBeneficialInvestments);\n        allowBeneficialInvestments = _allowBeneficialInvestments;\n        emit SetAllowBeneficialInvestments(allowBeneficialInvestments);\n    }\n\n    //////////////////////////\n    // Investment Functions //\n    //////////////////////////\n\n    /**\n    * @notice fallback function - assumes ETH being invested\n    */\n    function () external payable {\n        buyWithETHRateLimited(msg.sender, 0);\n    }\n\n    // Buy functions without rate restriction\n    function buyWithETH(address _beneficiary) external payable {\n        buyWithETHRateLimited(_beneficiary, 0);\n    }\n\n    function buyWithPOLY(address _beneficiary, uint256 _investedPOLY) external {\n        buyWithPOLYRateLimited(_beneficiary, _investedPOLY, 0);\n    }\n\n    function buyWithUSD(address _beneficiary, uint256 _investedSC, IERC20 _usdToken) external {\n        buyWithUSDRateLimited(_beneficiary, _investedSC, 0, _usdToken);\n    }\n\n    /**\n      * @notice Purchase tokens using ETH\n      * @param _beneficiary Address where security tokens will be sent\n      * @param _minTokens Minumum number of tokens to buy or else revert\n      */\n    function buyWithETHRateLimited(address _beneficiary, uint256 _minTokens) public payable validETH {\n        uint256 rate = getRate(FundRaiseType.ETH);\n        uint256 initialMinted = getTokensMinted();\n        (uint256 spentUSD, uint256 spentValue) = _buyTokens(_beneficiary, msg.value, rate, FundRaiseType.ETH);\n        require(getTokensMinted().sub(initialMinted) >= _minTokens, \"Insufficient minted\");\n        // Modify storage\n        investorInvested[_beneficiary][uint8(FundRaiseType.ETH)] = investorInvested[_beneficiary][uint8(FundRaiseType.ETH)].add(spentValue);\n        fundsRaised[uint8(FundRaiseType.ETH)] = fundsRaised[uint8(FundRaiseType.ETH)].add(spentValue);\n        // Forward ETH to issuer wallet\n        wallet.transfer(spentValue);\n        // Refund excess ETH to investor wallet\n        msg.sender.transfer(msg.value.sub(spentValue));\n        emit FundsReceived(msg.sender, _beneficiary, spentUSD, FundRaiseType.ETH, msg.value, spentValue, rate);\n    }\n\n    /**\n      * @notice Purchase tokens using POLY\n      * @param _beneficiary Address where security tokens will be sent\n      * @param _investedPOLY Amount of POLY invested\n      * @param _minTokens Minumum number of tokens to buy or else revert\n      */\n    function buyWithPOLYRateLimited(address _beneficiary, uint256 _investedPOLY, uint256 _minTokens) public validPOLY {\n        _buyWithTokens(_beneficiary, _investedPOLY, FundRaiseType.POLY, _minTokens, polyToken);\n    }\n\n    /**\n      * @notice Purchase tokens using Stable coins\n      * @param _beneficiary Address where security tokens will be sent\n      * @param _investedSC Amount of Stable coins invested\n      * @param _minTokens Minumum number of tokens to buy or else revert\n      * @param _usdToken Address of USD stable coin to buy tokens with\n      */\n    function buyWithUSDRateLimited(address _beneficiary, uint256 _investedSC, uint256 _minTokens, IERC20 _usdToken)\n        public validSC(_usdToken)\n    {\n        _buyWithTokens(_beneficiary, _investedSC, FundRaiseType.SC, _minTokens, _usdToken);\n    }\n\n    function _buyWithTokens(address _beneficiary, uint256 _tokenAmount, FundRaiseType _fundRaiseType, uint256 _minTokens, IERC20 _token) internal {\n        require(_fundRaiseType == FundRaiseType.POLY || _fundRaiseType == FundRaiseType.SC, \"Invalid raise\");\n        uint256 initialMinted = getTokensMinted();\n        uint256 rate = getRate(_fundRaiseType);\n        (uint256 spentUSD, uint256 spentValue) = _buyTokens(_beneficiary, _tokenAmount, rate, _fundRaiseType);\n        require(getTokensMinted().sub(initialMinted) >= _minTokens, \"Insufficient minted\");\n        // Modify storage\n        investorInvested[_beneficiary][uint8(_fundRaiseType)] = investorInvested[_beneficiary][uint8(_fundRaiseType)].add(spentValue);\n        fundsRaised[uint8(_fundRaiseType)] = fundsRaised[uint8(_fundRaiseType)].add(spentValue);\n        if(address(_token) != address(polyToken))\n            stableCoinsRaised[address(_token)] = stableCoinsRaised[address(_token)].add(spentValue);\n        // Forward coins to issuer wallet\n        require(_token.transferFrom(msg.sender, wallet, spentValue), \"Transfer failed\");\n        emit FundsReceived(msg.sender, _beneficiary, spentUSD, _fundRaiseType, _tokenAmount, spentValue, rate);\n    }\n\n    /**\n      * @notice Low level token purchase\n      * @param _beneficiary Address where security tokens will be sent\n      * @param _investmentValue Amount of POLY, ETH or Stable coins invested\n      * @param _fundRaiseType Fund raise type (POLY, ETH, SC)\n      */\n    function _buyTokens(\n        address _beneficiary,\n        uint256 _investmentValue,\n        uint256 _rate,\n        FundRaiseType _fundRaiseType\n    )\n        internal\n        nonReentrant\n        whenNotPaused\n        returns(uint256 spentUSD, uint256 spentValue)\n    {\n        if (!allowBeneficialInvestments) {\n            require(_beneficiary == msg.sender, \"Beneficiary != funder\");\n        }\n\n        uint256 originalUSD = DecimalMath.mul(_rate, _investmentValue);\n        uint256 allowedUSD = _buyTokensChecks(_beneficiary, _investmentValue, originalUSD);\n\n        for (uint256 i = currentTier; i < tiers.length; i++) {\n            bool gotoNextTier;\n            uint256 tempSpentUSD;\n            // Update current tier if needed\n            if (currentTier != i)\n                currentTier = i;\n            // If there are tokens remaining, process investment\n            if (tiers[i].mintedTotal < tiers[i].tokenTotal) {\n                (tempSpentUSD, gotoNextTier) = _calculateTier(_beneficiary, i, allowedUSD.sub(spentUSD), _fundRaiseType);\n                spentUSD = spentUSD.add(tempSpentUSD);\n                // If all funds have been spent, exit the loop\n                if (!gotoNextTier)\n                    break;\n            }\n        }\n\n        // Modify storage\n        if (spentUSD > 0) {\n            if (investorInvestedUSD[_beneficiary] == 0)\n                investorCount = investorCount + 1;\n            investorInvestedUSD[_beneficiary] = investorInvestedUSD[_beneficiary].add(spentUSD);\n            fundsRaisedUSD = fundsRaisedUSD.add(spentUSD);\n        }\n\n        spentValue = DecimalMath.div(spentUSD, _rate);\n    }\n\n    /**\n      * @notice Getter function for buyer to calculate how many tokens will they get\n      * @param _beneficiary Address where security tokens are to be sent\n      * @param _investmentValue Amount of POLY, ETH or Stable coins invested\n      * @param _fundRaiseType Fund raise type (POLY, ETH, SC)\n      */\n    function buyTokensView(\n        address _beneficiary,\n        uint256 _investmentValue,\n        FundRaiseType _fundRaiseType\n    )\n        external\n        view\n        returns(uint256 spentUSD, uint256 spentValue, uint256 tokensMinted)\n    {\n        require(_fundRaiseType == FundRaiseType.POLY || _fundRaiseType == FundRaiseType.SC || _fundRaiseType == FundRaiseType.ETH, \"Invalid raise type\");\n        uint256 rate = getRate(_fundRaiseType);\n        uint256 originalUSD = DecimalMath.mul(rate, _investmentValue);\n        uint256 allowedUSD = _buyTokensChecks(_beneficiary, _investmentValue, originalUSD);\n\n        // Iterate over each tier and process payment\n        for (uint256 i = currentTier; i < tiers.length; i++) {\n            bool gotoNextTier;\n            uint256 tempSpentUSD;\n            uint256 tempTokensMinted;\n            // If there are tokens remaining, process investment\n            if (tiers[i].mintedTotal < tiers[i].tokenTotal) {\n                (tempSpentUSD, gotoNextTier, tempTokensMinted) = _calculateTierView(i, allowedUSD.sub(spentUSD), _fundRaiseType);\n                spentUSD = spentUSD.add(tempSpentUSD);\n                tokensMinted = tokensMinted.add(tempTokensMinted);\n                // If all funds have been spent, exit the loop\n                if (!gotoNextTier)\n                    break;\n            }\n        }\n\n        spentValue = DecimalMath.div(spentUSD, rate);\n    }\n\n    function _buyTokensChecks(\n        address _beneficiary,\n        uint256 _investmentValue,\n        uint256 investedUSD\n    )\n        internal\n        view\n        returns(uint256 netInvestedUSD)\n    {\n        require(isOpen(), \"STO not open\");\n        require(_investmentValue > 0, \"No funds were sent\");\n\n        // Check for minimum investment\n        require(investedUSD.add(investorInvestedUSD[_beneficiary]) >= minimumInvestmentUSD, \"investment < minimumInvestmentUSD\");\n        netInvestedUSD = investedUSD;\n        // Check for non-accredited cap\n        if (investors[_beneficiary].accredited == uint8(0)) {\n            uint256 investorLimitUSD = (investors[_beneficiary].nonAccreditedLimitUSDOverride == 0) ? nonAccreditedLimitUSD : investors[_beneficiary].nonAccreditedLimitUSDOverride;\n            require(investorInvestedUSD[_beneficiary] < investorLimitUSD, \"Over investor limit\");\n            if (investedUSD.add(investorInvestedUSD[_beneficiary]) > investorLimitUSD)\n                netInvestedUSD = investorLimitUSD.sub(investorInvestedUSD[_beneficiary]);\n        }\n    }\n\n    function _calculateTier(\n        address _beneficiary,\n        uint256 _tier,\n        uint256 _investedUSD,\n        FundRaiseType _fundRaiseType\n    )\n        internal\n        returns(uint256 spentUSD, bool gotoNextTier)\n     {\n        // First purchase any discounted tokens if POLY investment\n        uint256 tierSpentUSD;\n        uint256 tierPurchasedTokens;\n        uint256 investedUSD = _investedUSD;\n        Tier storage tierData = tiers[_tier];\n        // Check whether there are any remaining discounted tokens\n        if ((_fundRaiseType == FundRaiseType.POLY) && (tierData.tokensDiscountPoly > tierData.mintedDiscountPoly)) {\n            uint256 discountRemaining = tierData.tokensDiscountPoly.sub(tierData.mintedDiscountPoly);\n            uint256 totalRemaining = tierData.tokenTotal.sub(tierData.mintedTotal);\n            if (totalRemaining < discountRemaining)\n                (spentUSD, tierPurchasedTokens, gotoNextTier) = _purchaseTier(_beneficiary, tierData.rateDiscountPoly, totalRemaining, investedUSD, _tier);\n            else\n                (spentUSD, tierPurchasedTokens, gotoNextTier) = _purchaseTier(_beneficiary, tierData.rateDiscountPoly, discountRemaining, investedUSD, _tier);\n            investedUSD = investedUSD.sub(spentUSD);\n            tierData.mintedDiscountPoly = tierData.mintedDiscountPoly.add(tierPurchasedTokens);\n            tierData.minted[uint8(_fundRaiseType)] = tierData.minted[uint8(_fundRaiseType)].add(tierPurchasedTokens);\n            tierData.mintedTotal = tierData.mintedTotal.add(tierPurchasedTokens);\n        }\n        // Now, if there is any remaining USD to be invested, purchase at non-discounted rate\n        if (investedUSD > 0 &&\n            tierData.tokenTotal.sub(tierData.mintedTotal) > 0 &&\n            (_fundRaiseType != FundRaiseType.POLY || tierData.tokensDiscountPoly <= tierData.mintedDiscountPoly)\n        ) {\n            (tierSpentUSD, tierPurchasedTokens, gotoNextTier) = _purchaseTier(_beneficiary, tierData.rate, tierData.tokenTotal.sub(tierData.mintedTotal), investedUSD, _tier);\n            spentUSD = spentUSD.add(tierSpentUSD);\n            tierData.minted[uint8(_fundRaiseType)] = tierData.minted[uint8(_fundRaiseType)].add(tierPurchasedTokens);\n            tierData.mintedTotal = tierData.mintedTotal.add(tierPurchasedTokens);\n        }\n    }\n\n    function _calculateTierView(\n        uint256 _tier,\n        uint256 _investedUSD,\n        FundRaiseType _fundRaiseType\n    )\n        internal\n        view\n        returns(uint256 spentUSD, bool gotoNextTier, uint256 tokensMinted)\n    {\n        // First purchase any discounted tokens if POLY investment\n        uint256 tierSpentUSD;\n        uint256 tierPurchasedTokens;\n        Tier storage tierData = tiers[_tier];\n        // Check whether there are any remaining discounted tokens\n        if ((_fundRaiseType == FundRaiseType.POLY) && (tierData.tokensDiscountPoly > tierData.mintedDiscountPoly)) {\n            uint256 discountRemaining = tierData.tokensDiscountPoly.sub(tierData.mintedDiscountPoly);\n            uint256 totalRemaining = tierData.tokenTotal.sub(tierData.mintedTotal);\n            if (totalRemaining < discountRemaining)\n                (spentUSD, tokensMinted, gotoNextTier) = _purchaseTierAmount(tierData.rateDiscountPoly, totalRemaining, _investedUSD);\n            else\n                (spentUSD, tokensMinted, gotoNextTier) = _purchaseTierAmount(tierData.rateDiscountPoly, discountRemaining, _investedUSD);\n            _investedUSD = _investedUSD.sub(spentUSD);\n        }\n        // Now, if there is any remaining USD to be invested, purchase at non-discounted rate\n        if (_investedUSD > 0 &&\n            tierData.tokenTotal.sub(tierData.mintedTotal.add(tokensMinted)) > 0 &&\n            (_fundRaiseType != FundRaiseType.POLY || tierData.tokensDiscountPoly <= tierData.mintedDiscountPoly)\n        ) {\n            (tierSpentUSD, tierPurchasedTokens, gotoNextTier) = _purchaseTierAmount(tierData.rate, tierData.tokenTotal.sub(tierData.mintedTotal), _investedUSD);\n            spentUSD = spentUSD.add(tierSpentUSD);\n            tokensMinted = tokensMinted.add(tierPurchasedTokens);\n        }\n    }\n\n    function _purchaseTier(\n        address _beneficiary,\n        uint256 _tierPrice,\n        uint256 _tierRemaining,\n        uint256 _investedUSD,\n        uint256 _tier\n    )\n        internal\n        returns(uint256 spentUSD, uint256 purchasedTokens, bool gotoNextTier)\n    {\n        (spentUSD, purchasedTokens, gotoNextTier) = _purchaseTierAmount(_tierPrice, _tierRemaining, _investedUSD);\n        if (purchasedTokens > 0) {\n            require(ISecurityToken(securityToken).mint(_beneficiary, purchasedTokens), \"Error in minting\");\n            emit TokenPurchase(msg.sender, _beneficiary, purchasedTokens, spentUSD, _tierPrice, _tier);\n        }\n    }\n\n    function _purchaseTierAmount(\n        uint256 _tierPrice,\n        uint256 _tierRemaining,\n        uint256 _investedUSD\n    )\n        internal\n        view\n        returns(uint256 spentUSD, uint256 purchasedTokens, bool gotoNextTier)\n    {\n        purchasedTokens = DecimalMath.div(_investedUSD, _tierPrice);\n        uint256 granularity = ISecurityToken(securityToken).granularity();\n\n        if (purchasedTokens > _tierRemaining) {\n            purchasedTokens = _tierRemaining.div(granularity);\n            gotoNextTier = true;\n        } else {\n            purchasedTokens = purchasedTokens.div(granularity);\n        }\n\n        purchasedTokens = purchasedTokens.mul(granularity);\n        spentUSD = DecimalMath.mul(purchasedTokens, _tierPrice);\n\n        // In case of rounding issues, ensure that spentUSD is never more than investedUSD\n        if (spentUSD > _investedUSD) {\n            spentUSD = _investedUSD;\n        }\n    }\n\n    /////////////\n    // Getters //\n    /////////////\n\n    /**\n     * @notice This function returns whether or not the STO is in fundraising mode (open)\n     * @return bool Whether the STO is accepting investments\n     */\n    function isOpen() public view returns(bool) {\n        if (isFinalized)\n            return false;\n        /*solium-disable-next-line security/no-block-members*/\n        if (now < startTime)\n            return false;\n        /*solium-disable-next-line security/no-block-members*/\n        if (now >= endTime)\n            return false;\n        if (capReached())\n            return false;\n        return true;\n    }\n\n    /**\n     * @notice Checks whether the cap has been reached.\n     * @return bool Whether the cap was reached\n     */\n    function capReached() public view returns (bool) {\n        if (isFinalized) {\n            return (finalAmountReturned == 0);\n        }\n        return (tiers[tiers.length - 1].mintedTotal == tiers[tiers.length - 1].tokenTotal);\n    }\n\n    /**\n     * @dev returns current conversion rate of funds\n     * @param _fundRaiseType Fund raise type to get rate of\n     */\n    function getRate(FundRaiseType _fundRaiseType) public view returns (uint256) {\n        if (_fundRaiseType == FundRaiseType.ETH) {\n            return IOracle(_getOracle(bytes32(\"ETH\"), bytes32(\"USD\"))).getPrice();\n        } else if (_fundRaiseType == FundRaiseType.POLY) {\n            return IOracle(_getOracle(bytes32(\"POLY\"), bytes32(\"USD\"))).getPrice();\n        } else if (_fundRaiseType == FundRaiseType.SC) {\n            return 1 * 10**18;\n        } else {\n            revert(\"Incorrect funding\");\n        }\n    }\n\n    /**\n     * @notice This function converts from ETH or POLY to USD\n     * @param _fundRaiseType Currency key\n     * @param _amount Value to convert to USD\n     * @return uint256 Value in USD\n     */\n    function convertToUSD(FundRaiseType _fundRaiseType, uint256 _amount) external view returns(uint256) {\n        uint256 rate = getRate(_fundRaiseType);\n        return DecimalMath.mul(_amount, rate);\n    }\n\n    /**\n     * @notice This function converts from USD to ETH or POLY\n     * @param _fundRaiseType Currency key\n     * @param _amount Value to convert from USD\n     * @return uint256 Value in ETH or POLY\n     */\n    function convertFromUSD(FundRaiseType _fundRaiseType, uint256 _amount) external view returns(uint256) {\n        uint256 rate = getRate(_fundRaiseType);\n        return DecimalMath.div(_amount, rate);\n    }\n\n    /**\n     * @notice Return the total no. of tokens sold\n     * @return uint256 Total number of tokens sold\n     */\n    function getTokensSold() public view returns (uint256) {\n        if (isFinalized)\n            return totalTokensSold;\n        else\n            return getTokensMinted();\n    }\n\n    /**\n     * @notice Return the total no. of tokens minted\n     * @return uint256 Total number of tokens minted\n     */\n    function getTokensMinted() public view returns (uint256) {\n        uint256 tokensMinted;\n        for (uint256 i = 0; i < tiers.length; i++) {\n            tokensMinted = tokensMinted.add(tiers[i].mintedTotal);\n        }\n        return tokensMinted;\n    }\n\n    /**\n     * @notice Return the total no. of tokens sold for the given fund raise type\n     * param _fundRaiseType The fund raising currency (e.g. ETH, POLY, SC) to calculate sold tokens for\n     * @return uint256 Total number of tokens sold for ETH\n     */\n    function getTokensSoldFor(FundRaiseType _fundRaiseType) external view returns (uint256) {\n        uint256 tokensSold;\n        for (uint256 i = 0; i < tiers.length; i++) {\n            tokensSold = tokensSold.add(tiers[i].minted[uint8(_fundRaiseType)]);\n        }\n        return tokensSold;\n    }\n\n    /**\n     * @notice Return array of minted tokens in each fund raise type for given tier\n     * param _tier The tier to return minted tokens for\n     * @return uint256[] array of minted tokens in each fund raise type\n     */\n    function getTokensMintedByTier(uint256 _tier) external view returns (uint256[]) {\n        require(_tier < tiers.length, \"Invalid tier\");\n        uint256[] memory tokensMinted = new uint256[](3);\n        tokensMinted[0] = tiers[_tier].minted[uint8(FundRaiseType.ETH)];\n        tokensMinted[1] = tiers[_tier].minted[uint8(FundRaiseType.POLY)];\n        tokensMinted[2] = tiers[_tier].minted[uint8(FundRaiseType.SC)];\n        return tokensMinted;\n    }\n\n    /**\n     * @notice Return the total no. of tokens sold in a given tier\n     * param _tier The tier to calculate sold tokens for\n     * @return uint256 Total number of tokens sold in the tier\n     */\n    function getTokensSoldByTier(uint256 _tier) external view returns (uint256) {\n        require(_tier < tiers.length, \"Incorrect tier\");\n        uint256 tokensSold;\n        tokensSold = tokensSold.add(tiers[_tier].minted[uint8(FundRaiseType.ETH)]);\n        tokensSold = tokensSold.add(tiers[_tier].minted[uint8(FundRaiseType.POLY)]);\n        tokensSold = tokensSold.add(tiers[_tier].minted[uint8(FundRaiseType.SC)]);\n        return tokensSold;\n    }\n\n    /**\n     * @notice Return the total no. of tiers\n     * @return uint256 Total number of tiers\n     */\n    function getNumberOfTiers() external view returns (uint256) {\n        return tiers.length;\n    }\n\n    /**\n     * @notice Return the usd tokens accepted by the STO\n     * @return address[] usd tokens\n     */\n    function getUsdTokens() external view returns (address[]) {\n        return usdTokens;\n    }\n\n    /**\n     * @notice Return the permissions flag that are associated with STO\n     */\n    function getPermissions() public view returns(bytes32[]) {\n        bytes32[] memory allPermissions = new bytes32[](0);\n        return allPermissions;\n    }\n\n    /**\n     * @notice Return the STO details\n     * @return Unixtimestamp at which offering gets start.\n     * @return Unixtimestamp at which offering ends.\n     * @return Currently active tier\n     * @return Array of Number of tokens this STO will be allowed to sell at different tiers.\n     * @return Array Rate at which tokens are sold at different tiers\n     * @return Amount of funds raised\n     * @return Number of individual investors this STO have.\n     * @return Amount of tokens sold.\n     * @return Array of bools to show if funding is allowed in ETH, POLY, SC respectively\n     */\n    function getSTODetails() external view returns(uint256, uint256, uint256, uint256[], uint256[], uint256, uint256, uint256, bool[]) {\n        uint256[] memory cap = new uint256[](tiers.length);\n        uint256[] memory rate = new uint256[](tiers.length);\n        for(uint256 i = 0; i < tiers.length; i++) {\n            cap[i] = tiers[i].tokenTotal;\n            rate[i] = tiers[i].rate;\n        }\n        bool[] memory _fundRaiseTypes = new bool[](3);\n        _fundRaiseTypes[0] = fundRaiseTypes[uint8(FundRaiseType.ETH)];\n        _fundRaiseTypes[1] = fundRaiseTypes[uint8(FundRaiseType.POLY)];\n        _fundRaiseTypes[2] = fundRaiseTypes[uint8(FundRaiseType.SC)];\n        return (\n            startTime,\n            endTime,\n            currentTier,\n            cap,\n            rate,\n            fundsRaisedUSD,\n            investorCount,\n            getTokensSold(),\n            _fundRaiseTypes\n        );\n    }\n\n    /**\n     * @notice This function returns the signature of configure function\n     * @return bytes4 Configure function signature\n     */\n    function getInitFunction() public pure returns (bytes4) {\n        return 0xeac2f9e4;\n    }\n\n    function _getOracle(bytes32 _currency, bytes32 _denominatedCurrency) internal view returns (address) {\n        return PolymathRegistry(RegistryUpdater(securityToken).polymathRegistry()).getAddress(oracleKeys[_currency][_denominatedCurrency]);\n    }\n\n}\n",
  "sourcePath": "/Users/federicoelgarte/Polymath/polymath-core/contracts/modules/STO/USDTieredSTO.sol",
  "compiler": {
    "name": "solc",
    "version": "0.4.24+commit.e67f0147.Emscripten.clang"
  },
  "schemaVersion": "2.0.1",
  "updatedAt": "2019-03-22T13:54:14.950Z"
}