{
  "contractName": "USDTieredSTO",
  "abi": [
    {
      "constant": true,
      "inputs": [
        {
          "name": "",
          "type": "uint256"
        }
      ],
      "name": "tiers",
      "outputs": [
        {
          "name": "rate",
          "type": "uint256"
        },
        {
          "name": "rateDiscountPoly",
          "type": "uint256"
        },
        {
          "name": "tokenTotal",
          "type": "uint256"
        },
        {
          "name": "tokensDiscountPoly",
          "type": "uint256"
        },
        {
          "name": "mintedTotal",
          "type": "uint256"
        },
        {
          "name": "mintedDiscountPoly",
          "type": "uint256"
        }
      ],
      "payable": false,
      "stateMutability": "view",
      "type": "function"
    },
    {
      "constant": true,
      "inputs": [
        {
          "name": "",
          "type": "uint256"
        }
      ],
      "name": "investorsList",
      "outputs": [
        {
          "name": "",
          "type": "address"
        }
      ],
      "payable": false,
      "stateMutability": "view",
      "type": "function"
    },
    {
      "constant": true,
      "inputs": [],
      "name": "allowBeneficialInvestments",
      "outputs": [
        {
          "name": "",
          "type": "bool"
        }
      ],
      "payable": false,
      "stateMutability": "view",
      "type": "function"
    },
    {
      "constant": true,
      "inputs": [],
      "name": "endTime",
      "outputs": [
        {
          "name": "",
          "type": "uint256"
        }
      ],
      "payable": false,
      "stateMutability": "view",
      "type": "function"
    },
    {
      "constant": false,
      "inputs": [],
      "name": "unpause",
      "outputs": [],
      "payable": false,
      "stateMutability": "nonpayable",
      "type": "function"
    },
    {
      "constant": true,
      "inputs": [],
      "name": "nonAccreditedLimitUSD",
      "outputs": [
        {
          "name": "",
          "type": "uint256"
        }
      ],
      "payable": false,
      "stateMutability": "view",
      "type": "function"
    },
    {
      "constant": true,
      "inputs": [],
      "name": "wallet",
      "outputs": [
        {
          "name": "",
          "type": "address"
        }
      ],
      "payable": false,
      "stateMutability": "view",
      "type": "function"
    },
    {
      "constant": true,
      "inputs": [],
      "name": "paused",
      "outputs": [
        {
          "name": "",
          "type": "bool"
        }
      ],
      "payable": false,
      "stateMutability": "view",
      "type": "function"
    },
    {
      "constant": false,
      "inputs": [
        {
          "name": "_amount",
          "type": "uint256"
        }
      ],
      "name": "takeFee",
      "outputs": [
        {
          "name": "",
          "type": "bool"
        }
      ],
      "payable": false,
      "stateMutability": "nonpayable",
      "type": "function"
    },
    {
      "constant": true,
      "inputs": [],
      "name": "totalTokensSold",
      "outputs": [
        {
          "name": "",
          "type": "uint256"
        }
      ],
      "payable": false,
      "stateMutability": "view",
      "type": "function"
    },
    {
      "constant": true,
      "inputs": [],
      "name": "finalAmountReturned",
      "outputs": [
        {
          "name": "",
          "type": "uint256"
        }
      ],
      "payable": false,
      "stateMutability": "view",
      "type": "function"
    },
    {
      "constant": true,
      "inputs": [
        {
          "name": "",
          "type": "address"
        }
      ],
      "name": "investors",
      "outputs": [
        {
          "name": "accredited",
          "type": "uint8"
        },
        {
          "name": "seen",
          "type": "uint8"
        },
        {
          "name": "nonAccreditedLimitUSDOverride",
          "type": "uint256"
        }
      ],
      "payable": false,
      "stateMutability": "view",
      "type": "function"
    },
    {
      "constant": true,
      "inputs": [],
      "name": "polyToken",
      "outputs": [
        {
          "name": "",
          "type": "address"
        }
      ],
      "payable": false,
      "stateMutability": "view",
      "type": "function"
    },
    {
      "constant": true,
      "inputs": [
        {
          "name": "",
          "type": "address"
        }
      ],
      "name": "stableCoinsRaised",
      "outputs": [
        {
          "name": "",
          "type": "uint256"
        }
      ],
      "payable": false,
      "stateMutability": "view",
      "type": "function"
    },
    {
      "constant": true,
      "inputs": [],
      "name": "startTime",
      "outputs": [
        {
          "name": "",
          "type": "uint256"
        }
      ],
      "payable": false,
      "stateMutability": "view",
      "type": "function"
    },
    {
      "constant": false,
      "inputs": [],
      "name": "pause",
      "outputs": [],
      "payable": false,
      "stateMutability": "nonpayable",
      "type": "function"
    },
    {
      "constant": true,
      "inputs": [
        {
          "name": "",
          "type": "address"
        },
        {
          "name": "",
          "type": "uint8"
        }
      ],
      "name": "investorInvested",
      "outputs": [
        {
          "name": "",
          "type": "uint256"
        }
      ],
      "payable": false,
      "stateMutability": "view",
      "type": "function"
    },
    {
      "constant": false,
      "inputs": [
        {
          "name": "_tokenContract",
          "type": "address"
        }
      ],
      "name": "reclaimERC20",
      "outputs": [],
      "payable": false,
      "stateMutability": "nonpayable",
      "type": "function"
    },
    {
      "constant": true,
      "inputs": [
        {
          "name": "",
          "type": "address"
        }
      ],
      "name": "usdTokenEnabled",
      "outputs": [
        {
          "name": "",
          "type": "bool"
        }
      ],
      "payable": false,
      "stateMutability": "view",
      "type": "function"
    },
    {
      "constant": true,
      "inputs": [],
      "name": "isFinalized",
      "outputs": [
        {
          "name": "",
          "type": "bool"
        }
      ],
      "payable": false,
      "stateMutability": "view",
      "type": "function"
    },
    {
      "constant": true,
      "inputs": [],
      "name": "ETH_ORACLE",
      "outputs": [
        {
          "name": "",
          "type": "string"
        }
      ],
      "payable": false,
      "stateMutability": "view",
      "type": "function"
    },
    {
      "constant": true,
      "inputs": [
        {
          "name": "_fundRaiseType",
          "type": "uint8"
        }
      ],
      "name": "getRaised",
      "outputs": [
        {
          "name": "",
          "type": "uint256"
        }
      ],
      "payable": false,
      "stateMutability": "view",
      "type": "function"
    },
    {
      "constant": true,
      "inputs": [],
      "name": "POLY_ORACLE",
      "outputs": [
        {
          "name": "",
          "type": "string"
        }
      ],
      "payable": false,
      "stateMutability": "view",
      "type": "function"
    },
    {
      "constant": true,
      "inputs": [],
      "name": "pausedTime",
      "outputs": [
        {
          "name": "",
          "type": "uint256"
        }
      ],
      "payable": false,
      "stateMutability": "view",
      "type": "function"
    },
    {
      "constant": true,
      "inputs": [],
      "name": "securityToken",
      "outputs": [
        {
          "name": "",
          "type": "address"
        }
      ],
      "payable": false,
      "stateMutability": "view",
      "type": "function"
    },
    {
      "constant": true,
      "inputs": [
        {
          "name": "",
          "type": "uint256"
        }
      ],
      "name": "usdTokens",
      "outputs": [
        {
          "name": "",
          "type": "address"
        }
      ],
      "payable": false,
      "stateMutability": "view",
      "type": "function"
    },
    {
      "constant": true,
      "inputs": [],
      "name": "factory",
      "outputs": [
        {
          "name": "",
          "type": "address"
        }
      ],
      "payable": false,
      "stateMutability": "view",
      "type": "function"
    },
    {
      "constant": true,
      "inputs": [
        {
          "name": "",
          "type": "uint8"
        }
      ],
      "name": "fundsRaised",
      "outputs": [
        {
          "name": "",
          "type": "uint256"
        }
      ],
      "payable": false,
      "stateMutability": "view",
      "type": "function"
    },
    {
      "constant": true,
      "inputs": [
        {
          "name": "",
          "type": "address"
        }
      ],
      "name": "investorInvestedUSD",
      "outputs": [
        {
          "name": "",
          "type": "uint256"
        }
      ],
      "payable": false,
      "stateMutability": "view",
      "type": "function"
    },
    {
      "constant": true,
      "inputs": [
        {
          "name": "",
          "type": "uint8"
        }
      ],
      "name": "fundRaiseTypes",
      "outputs": [
        {
          "name": "",
          "type": "bool"
        }
      ],
      "payable": false,
      "stateMutability": "view",
      "type": "function"
    },
    {
      "constant": true,
      "inputs": [],
      "name": "currentTier",
      "outputs": [
        {
          "name": "",
          "type": "uint256"
        }
      ],
      "payable": false,
      "stateMutability": "view",
      "type": "function"
    },
    {
      "constant": true,
      "inputs": [],
      "name": "FEE_ADMIN",
      "outputs": [
        {
          "name": "",
          "type": "bytes32"
        }
      ],
      "payable": false,
      "stateMutability": "view",
      "type": "function"
    },
    {
      "constant": true,
      "inputs": [],
      "name": "reserveWallet",
      "outputs": [
        {
          "name": "",
          "type": "address"
        }
      ],
      "payable": false,
      "stateMutability": "view",
      "type": "function"
    },
    {
      "constant": true,
      "inputs": [],
      "name": "investorCount",
      "outputs": [
        {
          "name": "",
          "type": "uint256"
        }
      ],
      "payable": false,
      "stateMutability": "view",
      "type": "function"
    },
    {
      "constant": true,
      "inputs": [],
      "name": "minimumInvestmentUSD",
      "outputs": [
        {
          "name": "",
          "type": "uint256"
        }
      ],
      "payable": false,
      "stateMutability": "view",
      "type": "function"
    },
    {
      "constant": true,
      "inputs": [],
      "name": "fundsRaisedUSD",
      "outputs": [
        {
          "name": "",
          "type": "uint256"
        }
      ],
      "payable": false,
      "stateMutability": "view",
      "type": "function"
    },
    {
      "inputs": [
        {
          "name": "_securityToken",
          "type": "address"
        },
        {
          "name": "_polyAddress",
          "type": "address"
        }
      ],
      "payable": false,
      "stateMutability": "nonpayable",
      "type": "constructor"
    },
    {
      "payable": true,
      "stateMutability": "payable",
      "type": "fallback"
    },
    {
      "anonymous": false,
      "inputs": [
        {
          "indexed": false,
          "name": "_allowed",
          "type": "bool"
        }
      ],
      "name": "SetAllowBeneficialInvestments",
      "type": "event"
    },
    {
      "anonymous": false,
      "inputs": [
        {
          "indexed": false,
          "name": "_investor",
          "type": "address"
        },
        {
          "indexed": false,
          "name": "_limit",
          "type": "uint256"
        }
      ],
      "name": "SetNonAccreditedLimit",
      "type": "event"
    },
    {
      "anonymous": false,
      "inputs": [
        {
          "indexed": false,
          "name": "_investor",
          "type": "address"
        },
        {
          "indexed": false,
          "name": "_accredited",
          "type": "bool"
        }
      ],
      "name": "SetAccredited",
      "type": "event"
    },
    {
      "anonymous": false,
      "inputs": [
        {
          "indexed": true,
          "name": "_purchaser",
          "type": "address"
        },
        {
          "indexed": true,
          "name": "_beneficiary",
          "type": "address"
        },
        {
          "indexed": false,
          "name": "_tokens",
          "type": "uint256"
        },
        {
          "indexed": false,
          "name": "_usdAmount",
          "type": "uint256"
        },
        {
          "indexed": false,
          "name": "_tierPrice",
          "type": "uint256"
        },
        {
          "indexed": false,
          "name": "_tier",
          "type": "uint256"
        }
      ],
      "name": "TokenPurchase",
      "type": "event"
    },
    {
      "anonymous": false,
      "inputs": [
        {
          "indexed": true,
          "name": "_purchaser",
          "type": "address"
        },
        {
          "indexed": true,
          "name": "_beneficiary",
          "type": "address"
        },
        {
          "indexed": false,
          "name": "_usdAmount",
          "type": "uint256"
        },
        {
          "indexed": false,
          "name": "_fundRaiseType",
          "type": "uint8"
        },
        {
          "indexed": false,
          "name": "_receivedValue",
          "type": "uint256"
        },
        {
          "indexed": false,
          "name": "_spentValue",
          "type": "uint256"
        },
        {
          "indexed": false,
          "name": "_rate",
          "type": "uint256"
        }
      ],
      "name": "FundsReceived",
      "type": "event"
    },
    {
      "anonymous": false,
      "inputs": [
        {
          "indexed": true,
          "name": "_owner",
          "type": "address"
        },
        {
          "indexed": true,
          "name": "_wallet",
          "type": "address"
        },
        {
          "indexed": false,
          "name": "_tokens",
          "type": "uint256"
        },
        {
          "indexed": false,
          "name": "_latestTier",
          "type": "uint256"
        }
      ],
      "name": "ReserveTokenMint",
      "type": "event"
    },
    {
      "anonymous": false,
      "inputs": [
        {
          "indexed": true,
          "name": "_wallet",
          "type": "address"
        },
        {
          "indexed": true,
          "name": "_reserveWallet",
          "type": "address"
        },
        {
          "indexed": false,
          "name": "_usdTokens",
          "type": "address[]"
        }
      ],
      "name": "SetAddresses",
      "type": "event"
    },
    {
      "anonymous": false,
      "inputs": [
        {
          "indexed": false,
          "name": "_nonAccreditedLimitUSD",
          "type": "uint256"
        },
        {
          "indexed": false,
          "name": "_minimumInvestmentUSD",
          "type": "uint256"
        }
      ],
      "name": "SetLimits",
      "type": "event"
    },
    {
      "anonymous": false,
      "inputs": [
        {
          "indexed": false,
          "name": "_startTime",
          "type": "uint256"
        },
        {
          "indexed": false,
          "name": "_endTime",
          "type": "uint256"
        }
      ],
      "name": "SetTimes",
      "type": "event"
    },
    {
      "anonymous": false,
      "inputs": [
        {
          "indexed": false,
          "name": "_ratePerTier",
          "type": "uint256[]"
        },
        {
          "indexed": false,
          "name": "_ratePerTierDiscountPoly",
          "type": "uint256[]"
        },
        {
          "indexed": false,
          "name": "_tokensPerTierTotal",
          "type": "uint256[]"
        },
        {
          "indexed": false,
          "name": "_tokensPerTierDiscountPoly",
          "type": "uint256[]"
        }
      ],
      "name": "SetTiers",
      "type": "event"
    },
    {
      "anonymous": false,
      "inputs": [
        {
          "indexed": false,
          "name": "_fundRaiseTypes",
          "type": "uint8[]"
        }
      ],
      "name": "SetFundRaiseTypes",
      "type": "event"
    },
    {
      "anonymous": false,
      "inputs": [
        {
          "indexed": false,
          "name": "_timestammp",
          "type": "uint256"
        }
      ],
      "name": "Pause",
      "type": "event"
    },
    {
      "anonymous": false,
      "inputs": [
        {
          "indexed": false,
          "name": "_timestamp",
          "type": "uint256"
        }
      ],
      "name": "Unpause",
      "type": "event"
    },
    {
      "constant": false,
      "inputs": [
        {
          "name": "_startTime",
          "type": "uint256"
        },
        {
          "name": "_endTime",
          "type": "uint256"
        },
        {
          "name": "_ratePerTier",
          "type": "uint256[]"
        },
        {
          "name": "_ratePerTierDiscountPoly",
          "type": "uint256[]"
        },
        {
          "name": "_tokensPerTierTotal",
          "type": "uint256[]"
        },
        {
          "name": "_tokensPerTierDiscountPoly",
          "type": "uint256[]"
        },
        {
          "name": "_nonAccreditedLimitUSD",
          "type": "uint256"
        },
        {
          "name": "_minimumInvestmentUSD",
          "type": "uint256"
        },
        {
          "name": "_fundRaiseTypes",
          "type": "uint8[]"
        },
        {
          "name": "_wallet",
          "type": "address"
        },
        {
          "name": "_reserveWallet",
          "type": "address"
        },
        {
          "name": "_usdTokens",
          "type": "address[]"
        }
      ],
      "name": "configure",
      "outputs": [],
      "payable": false,
      "stateMutability": "nonpayable",
      "type": "function"
    },
    {
      "constant": false,
      "inputs": [
        {
          "name": "_fundRaiseTypes",
          "type": "uint8[]"
        }
      ],
      "name": "modifyFunding",
      "outputs": [],
      "payable": false,
      "stateMutability": "nonpayable",
      "type": "function"
    },
    {
      "constant": false,
      "inputs": [
        {
          "name": "_nonAccreditedLimitUSD",
          "type": "uint256"
        },
        {
          "name": "_minimumInvestmentUSD",
          "type": "uint256"
        }
      ],
      "name": "modifyLimits",
      "outputs": [],
      "payable": false,
      "stateMutability": "nonpayable",
      "type": "function"
    },
    {
      "constant": false,
      "inputs": [
        {
          "name": "_ratePerTier",
          "type": "uint256[]"
        },
        {
          "name": "_ratePerTierDiscountPoly",
          "type": "uint256[]"
        },
        {
          "name": "_tokensPerTierTotal",
          "type": "uint256[]"
        },
        {
          "name": "_tokensPerTierDiscountPoly",
          "type": "uint256[]"
        }
      ],
      "name": "modifyTiers",
      "outputs": [],
      "payable": false,
      "stateMutability": "nonpayable",
      "type": "function"
    },
    {
      "constant": false,
      "inputs": [
        {
          "name": "_startTime",
          "type": "uint256"
        },
        {
          "name": "_endTime",
          "type": "uint256"
        }
      ],
      "name": "modifyTimes",
      "outputs": [],
      "payable": false,
      "stateMutability": "nonpayable",
      "type": "function"
    },
    {
      "constant": false,
      "inputs": [
        {
          "name": "_wallet",
          "type": "address"
        },
        {
          "name": "_reserveWallet",
          "type": "address"
        },
        {
          "name": "_usdTokens",
          "type": "address[]"
        }
      ],
      "name": "modifyAddresses",
      "outputs": [],
      "payable": false,
      "stateMutability": "nonpayable",
      "type": "function"
    },
    {
      "constant": false,
      "inputs": [],
      "name": "finalize",
      "outputs": [],
      "payable": false,
      "stateMutability": "nonpayable",
      "type": "function"
    },
    {
      "constant": false,
      "inputs": [
        {
          "name": "_investors",
          "type": "address[]"
        },
        {
          "name": "_accredited",
          "type": "bool[]"
        }
      ],
      "name": "changeAccredited",
      "outputs": [],
      "payable": false,
      "stateMutability": "nonpayable",
      "type": "function"
    },
    {
      "constant": false,
      "inputs": [
        {
          "name": "_investors",
          "type": "address[]"
        },
        {
          "name": "_nonAccreditedLimit",
          "type": "uint256[]"
        }
      ],
      "name": "changeNonAccreditedLimit",
      "outputs": [],
      "payable": false,
      "stateMutability": "nonpayable",
      "type": "function"
    },
    {
      "constant": true,
      "inputs": [],
      "name": "getAccreditedData",
      "outputs": [
        {
          "name": "",
          "type": "address[]"
        },
        {
          "name": "",
          "type": "bool[]"
        },
        {
          "name": "",
          "type": "uint256[]"
        }
      ],
      "payable": false,
      "stateMutability": "view",
      "type": "function"
    },
    {
      "constant": false,
      "inputs": [
        {
          "name": "_allowBeneficialInvestments",
          "type": "bool"
        }
      ],
      "name": "changeAllowBeneficialInvestments",
      "outputs": [],
      "payable": false,
      "stateMutability": "nonpayable",
      "type": "function"
    },
    {
      "constant": false,
      "inputs": [
        {
          "name": "_beneficiary",
          "type": "address"
        }
      ],
      "name": "buyWithETH",
      "outputs": [],
      "payable": true,
      "stateMutability": "payable",
      "type": "function"
    },
    {
      "constant": false,
      "inputs": [
        {
          "name": "_beneficiary",
          "type": "address"
        },
        {
          "name": "_investedPOLY",
          "type": "uint256"
        }
      ],
      "name": "buyWithPOLY",
      "outputs": [],
      "payable": false,
      "stateMutability": "nonpayable",
      "type": "function"
    },
    {
      "constant": false,
      "inputs": [
        {
          "name": "_beneficiary",
          "type": "address"
        },
        {
          "name": "_investedSC",
          "type": "uint256"
        },
        {
          "name": "_usdToken",
          "type": "address"
        }
      ],
      "name": "buyWithUSD",
      "outputs": [],
      "payable": false,
      "stateMutability": "nonpayable",
      "type": "function"
    },
    {
      "constant": false,
      "inputs": [
        {
          "name": "_beneficiary",
          "type": "address"
        },
        {
          "name": "_minTokens",
          "type": "uint256"
        }
      ],
      "name": "buyWithETHRateLimited",
      "outputs": [],
      "payable": true,
      "stateMutability": "payable",
      "type": "function"
    },
    {
      "constant": false,
      "inputs": [
        {
          "name": "_beneficiary",
          "type": "address"
        },
        {
          "name": "_investedPOLY",
          "type": "uint256"
        },
        {
          "name": "_minTokens",
          "type": "uint256"
        }
      ],
      "name": "buyWithPOLYRateLimited",
      "outputs": [],
      "payable": false,
      "stateMutability": "nonpayable",
      "type": "function"
    },
    {
      "constant": false,
      "inputs": [
        {
          "name": "_beneficiary",
          "type": "address"
        },
        {
          "name": "_investedSC",
          "type": "uint256"
        },
        {
          "name": "_minTokens",
          "type": "uint256"
        },
        {
          "name": "_usdToken",
          "type": "address"
        }
      ],
      "name": "buyWithUSDRateLimited",
      "outputs": [],
      "payable": false,
      "stateMutability": "nonpayable",
      "type": "function"
    },
    {
      "constant": true,
      "inputs": [
        {
          "name": "_beneficiary",
          "type": "address"
        },
        {
          "name": "_investmentValue",
          "type": "uint256"
        },
        {
          "name": "_fundRaiseType",
          "type": "uint8"
        }
      ],
      "name": "buyTokensView",
      "outputs": [
        {
          "name": "spentUSD",
          "type": "uint256"
        },
        {
          "name": "spentValue",
          "type": "uint256"
        },
        {
          "name": "tokensMinted",
          "type": "uint256"
        }
      ],
      "payable": false,
      "stateMutability": "view",
      "type": "function"
    },
    {
      "constant": true,
      "inputs": [],
      "name": "isOpen",
      "outputs": [
        {
          "name": "",
          "type": "bool"
        }
      ],
      "payable": false,
      "stateMutability": "view",
      "type": "function"
    },
    {
      "constant": true,
      "inputs": [],
      "name": "capReached",
      "outputs": [
        {
          "name": "",
          "type": "bool"
        }
      ],
      "payable": false,
      "stateMutability": "view",
      "type": "function"
    },
    {
      "constant": true,
      "inputs": [
        {
          "name": "_fundRaiseType",
          "type": "uint8"
        }
      ],
      "name": "getRate",
      "outputs": [
        {
          "name": "",
          "type": "uint256"
        }
      ],
      "payable": false,
      "stateMutability": "view",
      "type": "function"
    },
    {
      "constant": true,
      "inputs": [
        {
          "name": "_fundRaiseType",
          "type": "uint8"
        },
        {
          "name": "_amount",
          "type": "uint256"
        }
      ],
      "name": "convertToUSD",
      "outputs": [
        {
          "name": "",
          "type": "uint256"
        }
      ],
      "payable": false,
      "stateMutability": "view",
      "type": "function"
    },
    {
      "constant": true,
      "inputs": [
        {
          "name": "_fundRaiseType",
          "type": "uint8"
        },
        {
          "name": "_amount",
          "type": "uint256"
        }
      ],
      "name": "convertFromUSD",
      "outputs": [
        {
          "name": "",
          "type": "uint256"
        }
      ],
      "payable": false,
      "stateMutability": "view",
      "type": "function"
    },
    {
      "constant": true,
      "inputs": [],
      "name": "getTokensSold",
      "outputs": [
        {
          "name": "",
          "type": "uint256"
        }
      ],
      "payable": false,
      "stateMutability": "view",
      "type": "function"
    },
    {
      "constant": true,
      "inputs": [],
      "name": "getTokensMinted",
      "outputs": [
        {
          "name": "",
          "type": "uint256"
        }
      ],
      "payable": false,
      "stateMutability": "view",
      "type": "function"
    },
    {
      "constant": true,
      "inputs": [
        {
          "name": "_fundRaiseType",
          "type": "uint8"
        }
      ],
      "name": "getTokensSoldFor",
      "outputs": [
        {
          "name": "",
          "type": "uint256"
        }
      ],
      "payable": false,
      "stateMutability": "view",
      "type": "function"
    },
    {
      "constant": true,
      "inputs": [
        {
          "name": "_tier",
          "type": "uint256"
        }
      ],
      "name": "getTokensMintedByTier",
      "outputs": [
        {
          "name": "",
          "type": "uint256[]"
        }
      ],
      "payable": false,
      "stateMutability": "view",
      "type": "function"
    },
    {
      "constant": true,
      "inputs": [
        {
          "name": "_tier",
          "type": "uint256"
        }
      ],
      "name": "getTokensSoldByTier",
      "outputs": [
        {
          "name": "",
          "type": "uint256"
        }
      ],
      "payable": false,
      "stateMutability": "view",
      "type": "function"
    },
    {
      "constant": true,
      "inputs": [],
      "name": "getNumberOfTiers",
      "outputs": [
        {
          "name": "",
          "type": "uint256"
        }
      ],
      "payable": false,
      "stateMutability": "view",
      "type": "function"
    },
    {
      "constant": true,
      "inputs": [],
      "name": "getUsdTokens",
      "outputs": [
        {
          "name": "",
          "type": "address[]"
        }
      ],
      "payable": false,
      "stateMutability": "view",
      "type": "function"
    },
    {
      "constant": true,
      "inputs": [],
      "name": "getPermissions",
      "outputs": [
        {
          "name": "",
          "type": "bytes32[]"
        }
      ],
      "payable": false,
      "stateMutability": "view",
      "type": "function"
    },
    {
      "constant": true,
      "inputs": [],
      "name": "getSTODetails",
      "outputs": [
        {
          "name": "",
          "type": "uint256"
        },
        {
          "name": "",
          "type": "uint256"
        },
        {
          "name": "",
          "type": "uint256"
        },
        {
          "name": "",
          "type": "uint256[]"
        },
        {
          "name": "",
          "type": "uint256[]"
        },
        {
          "name": "",
          "type": "uint256"
        },
        {
          "name": "",
          "type": "uint256"
        },
        {
          "name": "",
          "type": "uint256"
        },
        {
          "name": "",
          "type": "bool[]"
        }
      ],
      "payable": false,
      "stateMutability": "view",
      "type": "function"
    },
    {
      "constant": true,
      "inputs": [],
      "name": "getInitFunction",
      "outputs": [
        {
          "name": "",
          "type": "bytes4"
        }
      ],
      "payable": false,
      "stateMutability": "pure",
      "type": "function"
    }
  ],
  "bytecode": "0x60806040526001805460ff19169055601a805460a060020a61ffff021916905534801561002b57600080fd5b5060405160408062005efe83398101604052805160209091015160198054600160a060020a03938416600160a060020a03199182161790915560188054821633179055601a8054939092169216919091179055615e70806200008e6000396000f3006080604052600436106103135763ffffffff60e060020a6000350416630282a9188114610320578063039af9eb146103685780630845c46b146103b35780631040dc27146103dd5780631613ec9d146104fa57806316d5ae7f146105445780631915edc0146105ac5780632ccc87271461069f5780632df413e2146106d35780633197cbb6146106fc5780633a3adf87146107115780633a4fd45c1461072c5780633f4ba83a14610741578063441b9e4a14610756578063444aa92f1461077057806347535d7b146107845780634b385a42146107995780634bb278f3146107ae5780634f935945146107c3578063521eb273146107d85780635b66629d146107ed5780635c82d32e146108115780635c975abb146108385780635f7619a41461084d57806363b20117146108655780636ba6c0ed1461087a5780636c41027f1461088f5780636dd053f4146108a45780636f7bc9be146108d35780636faa22a51461091857806370dc87521461092d57806377de90391461097157806378e9792514610992578063795fe0af146109a75780638320fc4e146109d25780638456cb5914610a60578063877baeaa14610a755780638784b1c214610a935780638905fd4f14610aba5780638ac5f55e14610adb5780638c9844cb14610afc5780638d4e408314610b1a57806397a8feee14610b2f5780639a7cc13514610bb9578063a1530a4414610bd4578063a8955ed614610c09578063b2cca39d14610c1e578063b391844614610c33578063b39f8ae414610c4e578063b7ebae0b14610c69578063b84dfbd214610c84578063b98035c114610c99578063bf11664814610cb1578063c3a07df614610cd1578063c45a015514610ce6578063c4d2c6bd14610cfb578063c513933814610d16578063cf789d0b14610d37578063d143a37914610d4e578063d679677a14610d69578063d69f6bae14610d7e578063d70afa9614610d93578063d72b11bd14610da8578063d7e64c0014610dbd578063eac2f9e414610dd2578063ec47740f14610f78578063ee7c0db014610f8d578063fbe8d9fe14610fa2578063ff18ead314611030575b61031e336000611045565b005b34801561032c57600080fd5b5061034a600160a060020a036004351660243560ff60443516611395565b60408051938452602084019290925282820152519081900360600190f35b34801561037457600080fd5b50610380600435611525565b604080519687526020870195909552858501939093526060850191909152608084015260a0830152519081900360c00190f35b3480156103bf57600080fd5b506103cb600435611569565b60408051918252519081900360200190f35b3480156103e957600080fd5b506103f2611672565b604051808a815260200189815260200188815260200180602001806020018781526020018681526020018581526020018060200184810384528a818151815260200191508051906020019060200280838360005b8381101561045e578181015183820152602001610446565b50505050905001848103835289818151815260200191508051906020019060200280838360005b8381101561049d578181015183820152602001610485565b50505050905001848103825285818151815260200191508051906020019060200280838360005b838110156104dc5781810151838201526020016104c4565b505050509050019c5050505050505050505050505060405180910390f35b34801561050657600080fd5b5061050f6118ba565b604080517fffffffff000000000000000000000000000000000000000000000000000000009092168252519081900360200190f35b34801561055057600080fd5b5061055c6004356118df565b60408051602080825283518183015283519192839290830191858101910280838360005b83811015610598578181015183820152602001610580565b505050509050019250505060405180910390f35b3480156105b857600080fd5b506105c1611a3a565b60405180806020018060200180602001848103845287818151815260200191508051906020019060200280838360005b838110156106095781810151838201526020016105f1565b50505050905001848103835286818151815260200191508051906020019060200280838360005b83811015610648578181015183820152602001610630565b50505050905001848103825285818151815260200191508051906020019060200280838360005b8381101561068757818101518382015260200161066f565b50505050905001965050505050505060405180910390f35b3480156106ab57600080fd5b506106b7600435611bea565b60408051600160a060020a039092168252519081900360200190f35b3480156106df57600080fd5b506106e8611c12565b604080519115158252519081900360200190f35b34801561070857600080fd5b506103cb611c1b565b34801561071d57600080fd5b5061031e600435602435611c21565b34801561073857600080fd5b506103cb611d42565b34801561074d57600080fd5b5061031e611d48565b34801561076257600080fd5b5061031e6004351515611e1e565b61031e600160a060020a0360043516611f97565b34801561079057600080fd5b506106e8611fa5565b3480156107a557600080fd5b506103cb611ffe565b3480156107ba57600080fd5b5061031e612004565b3480156107cf57600080fd5b506106e8612394565b3480156107e457600080fd5b506106b7612401565b3480156107f957600080fd5b5061031e600160a060020a0360043516602435612410565b34801561081d57600080fd5b5061031e600160a060020a0360043516602435604435612418565b34801561084457600080fd5b506106e8612554565b34801561085957600080fd5b506106e8600435612564565b34801561087157600080fd5b506103cb6128a4565b34801561088657600080fd5b5061055c6128aa565b34801561089b57600080fd5b506103cb61290c565b3480156108b057600080fd5b5061031e600160a060020a03600435811690602435906044359060643516612912565b3480156108df57600080fd5b506108f4600160a060020a03600435166129d2565b6040805160ff94851681529290931660208301528183015290519081900360600190f35b34801561092457600080fd5b506106b76129f8565b34801561093957600080fd5b5061031e6024600480358281019290820135918135808301929082013591604435808301929082013591606435918201910135612a07565b34801561097d57600080fd5b506103cb600160a060020a0360043516612bdb565b34801561099e57600080fd5b506103cb612bed565b3480156109b357600080fd5b5061031e600160a060020a036004358116906024359060443516612bf3565b3480156109de57600080fd5b506040805160206004803580820135838102808601850190965280855261031e95369593946024949385019291829185019084908082843750506040805187358901803560208181028481018201909552818452989b9a998901989297509082019550935083925085019084908082843750949750612c009650505050505050565b348015610a6c57600080fd5b5061031e612e91565b348015610a8157600080fd5b506103cb60ff60043516602435612fbe565b348015610a9f57600080fd5b506103cb600160a060020a036004351660ff60243516612fde565b348015610ac657600080fd5b5061031e600160a060020a0360043516612ffb565b348015610ae757600080fd5b506106e8600160a060020a03600435166132a8565b348015610b0857600080fd5b506103cb60ff600435166024356132bd565b348015610b2657600080fd5b506106e86132d5565b348015610b3b57600080fd5b50610b446132e3565b6040805160208082528351818301528351919283929083019185019080838360005b83811015610b7e578181015183820152602001610b66565b50505050905090810190601f168015610bab5780820380516001836020036101000a031916815260200191505b509250505060405180910390f35b348015610bc557600080fd5b506103cb60ff6004351661331a565b348015610be057600080fd5b5061031e600160a060020a03600480358216916024803590911691604435918201910135613349565b348015610c1557600080fd5b50610b44613453565b348015610c2a57600080fd5b506103cb61348a565b348015610c3f57600080fd5b506103cb60ff60043516613490565b348015610c5a57600080fd5b5061031e600435602435613502565b348015610c7557600080fd5b506103cb60ff6004351661361f565b348015610c9057600080fd5b506106b7613791565b348015610ca557600080fd5b506106b76004356137a0565b348015610cbd57600080fd5b5061031e60048035602481019101356137ae565b348015610cdd57600080fd5b5061055c6138f7565b348015610cf257600080fd5b506106b761390c565b348015610d0757600080fd5b506103cb60ff6004351661391b565b348015610d2257600080fd5b506103cb600160a060020a036004351661392d565b61031e600160a060020a0360043516602435611045565b348015610d5a57600080fd5b506106e860ff6004351661393f565b348015610d7557600080fd5b506103cb613954565b348015610d8a57600080fd5b506103cb61395a565b348015610d9f57600080fd5b506103cb6139ac565b348015610db457600080fd5b506106b76139d0565b348015610dc957600080fd5b506103cb6139df565b348015610dde57600080fd5b50604080516020600460443581810135838102808601850190965280855261031e958335956024803596369695606495939492019291829185019084908082843750506040805187358901803560208181028481018201909552818452989b9a998901989297509082019550935083925085019084908082843750506040805187358901803560208181028481018201909552818452989b9a998901989297509082019550935083925085019084908082843750506040805187358901803560208181028481018201909552818452989b9a9989019892975090820195509350839250850190849080828437505060408051818801358901803560208181028481018201909552818452989b8a359b8a8c01359b919a909950606090910197509295509082019350918291850190849080828437505060408051818801358901803560208181028481018201909552818452989b600160a060020a038b3581169c8b8d01359091169b919a909950606090910197509295509082019350918291850190849080828437509497506139e59650505050505050565b348015610f8457600080fd5b506103cb613c0b565b348015610f9957600080fd5b506103cb613c11565b348015610fae57600080fd5b506040805160206004803580820135838102808601850190965280855261031e95369593946024949385019291829185019084908082843750506040805187358901803560208181028481018201909552818452989b9a998901989297509082019550935083925085019084908082843750949750613c3c9650505050505050565b34801561103c57600080fd5b506103cb613e54565b60008080808061107e7f455448000000000000000000000000000000000000000000000000000000000060ea60020a621554d102613e5a565b600160a060020a031614156110dd576040805160e560020a62461bcd02815260206004820152600e60248201527f496e76616c6964204f7261636c65000000000000000000000000000000000000604482015290519081900360640190fd5b6000805260106020527f6e0956cda88cad152e89927e53611735b61a5c762d1428573c6931b0a5efcb015460ff161515611161576040805160e560020a62461bcd02815260206004820152600f60248201527f455448206e6f7420616c6c6f7765640000000000000000000000000000000000604482015290519081900360640190fd5b61116b600061361f565b935061117561395a565b92506111848634866000614005565b91509150846111a18461119561395a565b9063ffffffff6142bd16565b10156111f7576040805160e560020a62461bcd02815260206004820152601a60248201527f496e73756666696369656e7420746f6b656e73206d696e746564000000000000604482015290519081900360640190fd5b600160a060020a038616600090815260086020526040812061123891839190805b60ff1681526020810191909152604001600020549063ffffffff6142cf16565b600160a060020a038716600090815260086020908152604080832083805290915281209190915561126e90829060119080611218565b600080805260116020527f4ad3b33220dddc71b994a52d72c06b10862965f7d926534c05c00fb7e819e7b791909155601654604051600160a060020a03909116916108fc841502918491818181858888f193505050501580156112d5573d6000803e3d6000fd5b50336108fc6112ea348463ffffffff6142bd16565b6040518115909202916000818181858888f19350505050158015611312573d6000803e3d6000fd5b5085600160a060020a031633600160a060020a03167fa5a66b45c30fa6510eb2c3ccbe3c500d21863c7cc3e37d2dc85bb28db7775bd184600034868a6040518086815260200185600281111561136457fe5b60ff1681526020018481526020018381526020018281526020019550505050505060405180910390a3505050505050565b600080808080808080808060018b60028111156113ae57fe5b14806113c5575060028b60028111156113c357fe5b145b806113db575060008b60028111156113d957fe5b145b1515611431576040805160e560020a62461bcd02815260206004820152601260248201527f496e76616c696420726169736520747970650000000000000000000000000000604482015290519081900360640190fd5b61143a8b61361f565b9650611446878d6142dc565b95506114538d8d88614313565b945060045493505b600f5484101561150957600f80548590811061147357fe5b906000526020600020906007020160020154600f8581548110151561149457fe5b90600052602060002090600702016004015410156114fe576114c6846114c0878d63ffffffff6142bd16565b8d6145df565b90945090925090506114de8a8363ffffffff6142cf16565b99506114f0888263ffffffff6142cf16565b97508215156114fe57611509565b60019093019261145b565b6115138a88614784565b98505050505050505093509350939050565b600f80548290811061153357fe5b60009182526020909120600790910201805460018201546002830154600384015460048501546006909501549395509193909286565b600f54600090819083106115c7576040805160e560020a62461bcd02815260206004820152600e60248201527f496e636f72726563742074696572000000000000000000000000000000000000604482015290519081900360640190fd5b61160f600f848154811015156115d957fe5b60009182526020822060056007909202010190805b60ff168152602081019190915260400160002054829063ffffffff6142cf16565b905061163d600f8481548110151561162357fe5b6000918252602082206005600790920201019060016115ee565b905061166b600f8481548110151561165157fe5b6000918252602082206005600790920201019060026115ee565b9392505050565b60008060006060806000806000606080606060006060600f805490506040519080825280602002602001820160405280156116b7578160200160208202803883390190505b50600f5460408051828152602080840282010190915291955080156116e6578160200160208202803883390190505b509250600091505b600f5482101561177357600f80548390811061170657fe5b906000526020600020906007020160020154848381518110151561172657fe5b60209081029091010152600f80548390811061173e57fe5b906000526020600020906007020160000154838381518110151561175e57fe5b602090810290910101526001909101906116ee565b6040805160038082526080820190925290602082016060803883395050600080805260106020527f6e0956cda88cad152e89927e53611735b61a5c762d1428573c6931b0a5efcb0154835193945060ff169284925081106117d057fe5b9115156020928302919091018201526001600081905260109091527f8c6065603763fec3f5742441d3833f3f43b982453612d76adb39a885e3006b5f54825160ff909116918391811061181f57fe5b9115156020928302919091018201526002600081905260109091527f853b2fefe141400fef543280f93d98bd49996069f632d0d20236afeeed8e46a254825160ff909116918391811061186e57fe5b91151560209283029091019091015260125460135460045460055460155488918891611898613c11565b889c509c509c509c509c509c509c509c509c5050505050909192939495969798565b7feac2f9e4000000000000000000000000000000000000000000000000000000005b90565b600f546060908190831061193d576040805160e560020a62461bcd02815260206004820152600c60248201527f496e76616c696420746965720000000000000000000000000000000000000000604482015290519081900360640190fd5b604080516003808252608082019092529060208201606080388339019050509050600f8381548110151561196d57fe5b6000918252602080832083805260079290920290910160050190526040812054825190918391811061199b57fe5b60209081029091010152600f8054849081106119b357fe5b60009182526020808320600180855260079390930201600501905260409091205482519091839181106119e257fe5b60209081029091010152600f8054849081106119fa57fe5b6000918252602080832060028085526007939093020160050190526040909120548251909183918110611a2957fe5b602090810290910101529050919050565b60608060608060606000600b80549050604051908082528060200260200182016040528015611a73578160200160208202803883390190505b50600b546040805182815260208084028201019091529194508015611aa2578160200160208202803883390190505b509150600090505b600b54811015611b7c57600060ff1660096000600b84815481101515611acc57fe5b6000918252602080832090910154600160a060020a0316835282019290925260400190205460ff1614611b00576001611b03565b60005b8382815181101515611b1157fe5b911515602092830290910190910152600b805460099160009184908110611b3457fe5b6000918252602080832090910154600160a060020a031683528201929092526040019020600101548251839083908110611b6a57fe5b60209081029091010152600101611aaa565b600b838382805480602002602001604051908101604052809291908181526020018280548015611bd557602002820191906000526020600020905b8154600160a060020a03168152600190910190602001808311611bb7575b50505050509250955095509550505050909192565b600b805482908110611bf857fe5b600091825260209091200154600160a060020a0316905081565b60015460ff1681565b60135481565b601960009054906101000a9004600160a060020a0316600160a060020a0316638da5cb5b6040518163ffffffff1660e060020a028152600401602060405180830381600087803b158015611c7457600080fd5b505af1158015611c88573d6000803e3d6000fd5b505050506040513d6020811015611c9e57600080fd5b5051600160a060020a03163314611ced576040805160e560020a62461bcd0281526020600482015260136024820152600080516020615e25833981519152604482015290519081900360640190fd5b6012544210611d34576040805160e560020a62461bcd0281526020600482015260136024820152600080516020615e05833981519152604482015290519081900360640190fd5b611d3e82826147a5565b5050565b600f5490565b601960009054906101000a9004600160a060020a0316600160a060020a0316638da5cb5b6040518163ffffffff1660e060020a028152600401602060405180830381600087803b158015611d9b57600080fd5b505af1158015611daf573d6000803e3d6000fd5b505050506040513d6020811015611dc557600080fd5b5051600160a060020a03163314611e14576040805160e560020a62461bcd0281526020600482015260136024820152600080516020615e25833981519152604482015290519081900360640190fd5b611e1c6147ee565b565b601960009054906101000a9004600160a060020a0316600160a060020a0316638da5cb5b6040518163ffffffff1660e060020a028152600401602060405180830381600087803b158015611e7157600080fd5b505af1158015611e85573d6000803e3d6000fd5b505050506040513d6020811015611e9b57600080fd5b5051600160a060020a03163314611eea576040805160e560020a62461bcd0281526020600482015260136024820152600080516020615e25833981519152604482015290519081900360640190fd5b60015460ff1615158115151415611f4b576040805160e560020a62461bcd02815260206004820152600f60248201527f56616c756520756e6368616e6765640000000000000000000000000000000000604482015290519081900360640190fd5b6001805460ff191682151517908190556040805160ff90921615158252517fea6eddcb8f2bf55dfb29aef4bd48214ef0798b9eae2e1bbb25dac99ecf6da6ae916020908290030190a150565b611fa2816000611045565b50565b600154600090610100900460ff1615611fc0575060006118dc565b601254421015611fd2575060006118dc565b6013544210611fe3575060006118dc565b611feb612394565b15611ff8575060006118dc565b50600190565b600c5481565b600080600080601960009054906101000a9004600160a060020a0316600160a060020a0316638da5cb5b6040518163ffffffff1660e060020a028152600401602060405180830381600087803b15801561205d57600080fd5b505af1158015612071573d6000803e3d6000fd5b505050506040513d602081101561208757600080fd5b5051600160a060020a031633146120d6576040805160e560020a62461bcd0281526020600482015260136024820152600080516020615e25833981519152604482015290519081900360640190fd5b600154610100900460ff1615612136576040805160e560020a62461bcd02815260206004820152601860248201527f53544f20697320616c72656164792066696e616c697a65640000000000000000604482015290519081900360640190fd5b506001805461ff00191661010017905560005b600f54811015612245576121a6600f8281548110151561216557fe5b906000526020600020906007020160040154600f8381548110151561218657fe5b9060005260206000209060070201600201546142bd90919063ffffffff16565b91506121b8848363ffffffff6142cf16565b93506121ed600f828154811015156121cc57fe5b906000526020600020906007020160040154846142cf90919063ffffffff16565b9250600082111561223d57600f80548290811061220657fe5b906000526020600020906007020160020154600f8281548110151561222757fe5b9060005260206000209060070201600401819055505b600101612149565b601954600254604080517f40c10f19000000000000000000000000000000000000000000000000000000008152600160a060020a03928316600482015260248101889052905191909216916340c10f199160448083019260209291908290030181600087803b1580156122b757600080fd5b505af11580156122cb573d6000803e3d6000fd5b505050506040513d60208110156122e157600080fd5b50511515612339576040805160e560020a62461bcd02815260206004820152601060248201527f4572726f7220696e206d696e74696e6700000000000000000000000000000000604482015290519081900360640190fd5b6002546004546040805187815260208101929092528051600160a060020a039093169233927f2e16431844933795a4d33f27d6b8347133a6fb5fa7dcdf51d555906f6d8b705492908290030190a35050600e91909155601755565b600154600090610100900460ff16156123b15750600e54156118dc565b600f805460001981019081106123c357fe5b6000918252602090912060026007909202010154600f805460001981019081106123e957fe5b90600052602060002090600702016004015414905090565b601654600160a060020a031681565b611d3e828260005b600061244d7f504f4c590000000000000000000000000000000000000000000000000000000060ea60020a621554d102613e5a565b600160a060020a031614156124ac576040805160e560020a62461bcd02815260206004820152600e60248201527f496e76616c6964204f7261636c65000000000000000000000000000000000000604482015290519081900360640190fd5b600160005260106020527f8c6065603763fec3f5742441d3833f3f43b982453612d76adb39a885e3006b5f5460ff161515612531576040805160e560020a62461bcd02815260206004820152601060248201527f504f4c59206e6f7420616c6c6f77656400000000000000000000000000000000604482015290519081900360640190fd5b601a5461254f90849084906001908590600160a060020a03166148a4565b505050565b601a5460a060020a900460ff1681565b60007f4645455f41444d494e0000000000000000000000000000000000000000000000600080601960009054906101000a9004600160a060020a0316600160a060020a0316638da5cb5b6040518163ffffffff1660e060020a028152600401602060405180830381600087803b1580156125dd57600080fd5b505af11580156125f1573d6000803e3d6000fd5b505050506040513d602081101561260757600080fd5b505160185433600160a060020a03928316811494509116149050818061262a5750805b806126d05750601954604080517f8658b8b9000000000000000000000000000000000000000000000000000000008152336004820152306024820152604481018690529051600160a060020a0390921691638658b8b9916064808201926020929091908290030181600087803b1580156126a357600080fd5b505af11580156126b7573d6000803e3d6000fd5b505050506040513d60208110156126cd57600080fd5b50515b1515612726576040805160e560020a62461bcd02815260206004820152601760248201527f5065726d697373696f6e20636865636b206661696c6564000000000000000000604482015290519081900360640190fd5b601a54601954601854604080517f8da5cb5b0000000000000000000000000000000000000000000000000000000081529051600160a060020a03948516946323b872dd948116931691638da5cb5b9160048083019260209291908290030181600087803b15801561279657600080fd5b505af11580156127aa573d6000803e3d6000fd5b505050506040513d60208110156127c057600080fd5b50516040805160e060020a63ffffffff8616028152600160a060020a039384166004820152929091166024830152604482018990525160648083019260209291908290030181600087803b15801561281757600080fd5b505af115801561282b573d6000803e3d6000fd5b505050506040513d602081101561284157600080fd5b50511515612899576040805160e560020a62461bcd02815260206004820152601260248201527f556e61626c6520746f2074616b65206665650000000000000000000000000000604482015290519081900360640190fd5b506001949350505050565b60175481565b6060600380548060200260200160405190810160405280929190818152602001828054801561290257602002820191906000526020600020905b8154600160a060020a031681526001909101906020018083116128e4575b5050505050905090565b600e5481565b600260005260106020527f853b2fefe141400fef543280f93d98bd49996069f632d0d20236afeeed8e46a254819060ff1680156129675750600160a060020a0381166000908152600a602052604090205460ff165b15156129bd576040805160e560020a62461bcd02815260206004820152600f60248201527f555344206e6f7420616c6c6f7765640000000000000000000000000000000000604482015290519081900360640190fd5b6129cb8585600286866148a4565b5050505050565b6009602052600090815260409020805460019091015460ff808316926101009004169083565b601a54600160a060020a031681565b601960009054906101000a9004600160a060020a0316600160a060020a0316638da5cb5b6040518163ffffffff1660e060020a028152600401602060405180830381600087803b158015612a5a57600080fd5b505af1158015612a6e573d6000803e3d6000fd5b505050506040513d6020811015612a8457600080fd5b5051600160a060020a03163314612ad3576040805160e560020a62461bcd0281526020600482015260136024820152600080516020615e25833981519152604482015290519081900360640190fd5b6012544210612b1a576040805160e560020a62461bcd0281526020600482015260136024820152600080516020615e05833981519152604482015290519081900360640190fd5b612bd18888808060200260200160405190810160405280939291908181526020018383602002808284375050604080516020808e0282810182019093528d82529095508d94508c93508392508501908490808284375050604080516020808d0282810182019093528c82529095508c94508b93508392508501908490808284375050604080516020808c0282810182019093528b82529095508b94508a935083925085019084908082843750614c1f945050505050565b5050505050505050565b60066020526000908152604090205481565b60125481565b61254f8383600084612912565b601954604080517f8da5cb5b0000000000000000000000000000000000000000000000000000000081529051600092600160a060020a031691638da5cb5b91600480830192602092919082900301818787803b158015612c5f57600080fd5b505af1158015612c73573d6000803e3d6000fd5b505050506040513d6020811015612c8957600080fd5b5051600160a060020a03163314612cd8576040805160e560020a62461bcd0281526020600482015260136024820152600080516020615e25833981519152604482015290519081900360640190fd5b8151835114612d31576040805160e560020a62461bcd02815260206004820152601560248201527f4172726179206c656e677468206d69736d617463680000000000000000000000604482015290519081900360640190fd5b5060005b825181101561254f578181815181101515612d4c57fe5b9060200190602002015115612da9576001600960008584815181101515612d6f57fe5b602090810291909101810151600160a060020a03168252810191909152604001600020805460ff191660ff92909216919091179055612df3565b6000600960008584815181101515612dbd57fe5b602090810291909101810151600160a060020a03168252810191909152604001600020805460ff191660ff929092169190911790555b612e138382815181101515612e0457fe5b90602001906020020151615123565b7f5bc4e4d4bde98d5a327e2a911b87c042b79ec57d32ddca3bf73e76cdc77de7eb8382815181101515612e4257fe5b906020019060200201518383815181101515612e5a57fe5b602090810290910181015160408051600160a060020a039094168452901515918301919091528051918290030190a1600101612d35565b601960009054906101000a9004600160a060020a0316600160a060020a0316638da5cb5b6040518163ffffffff1660e060020a028152600401602060405180830381600087803b158015612ee457600080fd5b505af1158015612ef8573d6000803e3d6000fd5b505050506040513d6020811015612f0e57600080fd5b5051600160a060020a03163314612f5d576040805160e560020a62461bcd0281526020600482015260136024820152600080516020615e25833981519152604482015290519081900360640190fd5b6013544210612fb6576040805160e560020a62461bcd02815260206004820152601660248201527f53544f20686173206265656e2066696e616c697a656400000000000000000000604482015290519081900360640190fd5b611e1c6151be565b600080612fca8461361f565b9050612fd683826142dc565b949350505050565b600860209081526000928352604080842090915290825290205481565b600080601960009054906101000a9004600160a060020a0316600160a060020a0316638da5cb5b6040518163ffffffff1660e060020a028152600401602060405180830381600087803b15801561305157600080fd5b505af1158015613065573d6000803e3d6000fd5b505050506040513d602081101561307b57600080fd5b5051600160a060020a031633146130ca576040805160e560020a62461bcd0281526020600482015260136024820152600080516020615e25833981519152604482015290519081900360640190fd5b600160a060020a038316151561312a576040805160e560020a62461bcd02815260206004820152600f60248201527f496e76616c696420616464726573730000000000000000000000000000000000604482015290519081900360640190fd5b604080517f70a082310000000000000000000000000000000000000000000000000000000081523060048201529051849350600160a060020a038416916370a082319160248083019260209291908290030181600087803b15801561318e57600080fd5b505af11580156131a2573d6000803e3d6000fd5b505050506040513d60208110156131b857600080fd5b5051604080517fa9059cbb000000000000000000000000000000000000000000000000000000008152336004820152602481018390529051919250600160a060020a0384169163a9059cbb916044808201926020929091908290030181600087803b15801561322657600080fd5b505af115801561323a573d6000803e3d6000fd5b505050506040513d602081101561325057600080fd5b5051151561254f576040805160e560020a62461bcd02815260206004820152600f60248201527f5472616e73666572206661696c65640000000000000000000000000000000000604482015290519081900360640190fd5b600a6020526000908152604090205460ff1681565b6000806132c98461361f565b9050612fd68382614784565b600154610100900460ff1681565b60408051808201909152600c81527f4574685573644f7261636c650000000000000000000000000000000000000000602082015281565b60006011600083600281111561332c57fe5b60ff1660ff1681526020019081526020016000205490505b919050565b601960009054906101000a9004600160a060020a0316600160a060020a0316638da5cb5b6040518163ffffffff1660e060020a028152600401602060405180830381600087803b15801561339c57600080fd5b505af11580156133b0573d6000803e3d6000fd5b505050506040513d60208110156133c657600080fd5b5051600160a060020a03163314613415576040805160e560020a62461bcd0281526020600482015260136024820152600080516020615e25833981519152604482015290519081900360640190fd5b61344d848484848080602002602001604051908101604052809392919081815260200183836020028082843750615279945050505050565b50505050565b60408051808201909152600d81527f506f6c795573644f7261636c6500000000000000000000000000000000000000602082015281565b60145481565b600080805b600f548110156134fb576134f1600f828154811015156134b157fe5b906000526020600020906007020160050160008660028111156134d057fe5b60ff168152602081019190915260400160002054839063ffffffff6142cf16565b9150600101613495565b5092915050565b601960009054906101000a9004600160a060020a0316600160a060020a0316638da5cb5b6040518163ffffffff1660e060020a028152600401602060405180830381600087803b15801561355557600080fd5b505af1158015613569573d6000803e3d6000fd5b505050506040513d602081101561357f57600080fd5b5051600160a060020a031633146135ce576040805160e560020a62461bcd0281526020600482015260136024820152600080516020615e25833981519152604482015290519081900360640190fd5b6012544210613615576040805160e560020a62461bcd0281526020600482015260136024820152600080516020615e05833981519152604482015290519081900360640190fd5b611d3e8282615335565b60008082600281111561362e57fe5b14156136d7576136677f455448000000000000000000000000000000000000000000000000000000000060ea60020a621554d102613e5a565b600160a060020a03166398d5fdca6040518163ffffffff1660e060020a028152600401602060405180830381600087803b1580156136a457600080fd5b505af11580156136b8573d6000803e3d6000fd5b505050506040513d60208110156136ce57600080fd5b50519050613344565b60018260028111156136e557fe5b141561371e576136677f504f4c590000000000000000000000000000000000000000000000000000000060ea60020a621554d102613e5a565b600282600281111561372c57fe5b14156137415750670de0b6b3a7640000613344565b6040805160e560020a62461bcd02815260206004820152601160248201527f496e636f72726563742066756e64696e67000000000000000000000000000000604482015290519081900360640190fd5b601954600160a060020a031681565b6003805482908110611bf857fe5b601960009054906101000a9004600160a060020a0316600160a060020a0316638da5cb5b6040518163ffffffff1660e060020a028152600401602060405180830381600087803b15801561380157600080fd5b505af1158015613815573d6000803e3d6000fd5b505050506040513d602081101561382b57600080fd5b5051600160a060020a0316331461387a576040805160e560020a62461bcd0281526020600482015260136024820152600080516020615e25833981519152604482015290519081900360640190fd5b60125442106138c1576040805160e560020a62461bcd0281526020600482015260136024820152600080516020615e05833981519152604482015290519081900360640190fd5b611d3e828280806020026020016040519081016040528093929190818152602001838360200280828437506153e2945050505050565b604080516000815260208101909152805b5090565b601854600160a060020a031681565b60116020526000908152604090205481565b60076020526000908152604090205481565b60106020526000908152604090205460ff1681565b60045481565b600080805b600f548110156139a65761399c600f8281548110151561397b57fe5b906000526020600020906007020160040154836142cf90919063ffffffff16565b915060010161395f565b50919050565b7f4645455f41444d494e000000000000000000000000000000000000000000000081565b600254600160a060020a031681565b60155481565b601854600160a060020a03163314613a47576040805160e560020a62461bcd02815260206004820152601560248201527f53656e646572206973206e6f7420666163746f72790000000000000000000000604482015290519081900360640190fd5b60408051808201909152600c81527f4574685573644f7261636c650000000000000000000000000000000000000000602080830191825260ea60020a621554d1026000527f53ffa114ba2ce1ae2b33bea44459e521b4dcd90ecf5e26edc0c74207c71a4d3690529051613adb917ff1554b02425cc2401298719fc1e32ee9893ec4780015443d3099a80a32182ca391615c74565b5060408051808201909152600d81527f506f6c795573644f7261636c6500000000000000000000000000000000000000602080830191825260ea60020a621554d1026000527f82d6ebbc41f8fb09c49ed7614ca0dbb8a745daf467726f1773ca5d4ed029094390529051613b70917fcbb6a8a44cd43e32acada640d97dc1df3765f23ba0b5a4e0bbc73fc1bfed20a791615c74565b5060135415613bc9576040805160e560020a62461bcd02815260206004820152601260248201527f416c726561647920636f6e666967757265640000000000000000000000000000604482015290519081900360640190fd5b613bd38c8c615335565b613bdf8a8a8a8a614c1f565b613be8846153e2565b613bf3838383615279565b613bfd86866147a5565b505050505050505050505050565b600d5481565b600154600090610100900460ff1615613c2d57506017546118dc565b613c3561395a565b90506118dc565b601954604080517f8da5cb5b0000000000000000000000000000000000000000000000000000000081529051600092600160a060020a031691638da5cb5b91600480830192602092919082900301818787803b158015613c9b57600080fd5b505af1158015613caf573d6000803e3d6000fd5b505050506040513d6020811015613cc557600080fd5b5051600160a060020a03163314613d14576040805160e560020a62461bcd0281526020600482015260136024820152600080516020615e25833981519152604482015290519081900360640190fd5b8151835114613d6d576040805160e560020a62461bcd02815260206004820152601560248201527f4172726179206c656e677468206d69736d617463680000000000000000000000604482015290519081900360640190fd5b5060005b825181101561254f578181815181101515613d8857fe5b90602001906020020151600960008584815181101515613da457fe5b6020908102909101810151600160a060020a03168252810191909152604001600020600101558251613ddc90849083908110612e0457fe5b7fcde9ad1085e6403dc0f4aec5ed3e0e505e5cd00bc639943be2601cfedc6ce80f8382815181101515613e0b57fe5b906020019060200201518383815181101515613e2357fe5b602090810290910181015160408051600160a060020a039094168452918301528051918290030190a1600101613d71565b60055481565b601954604080517f77282b700000000000000000000000000000000000000000000000000000000081529051600092600160a060020a0316916377282b7091600480830192602092919082900301818787803b158015613eb957600080fd5b505af1158015613ecd573d6000803e3d6000fd5b505050506040513d6020811015613ee357600080fd5b505160008481526020818152604080832086845282529182902091517fbf40fac10000000000000000000000000000000000000000000000000000000081526004810191825282546002610100600183161502600019019091160460248201819052600160a060020a039094169363bf40fac1939291829160449091019084908015613fb05780601f10613f8557610100808354040283529160200191613fb0565b820191906000526020600020905b815481529060010190602001808311613f9357829003601f168201915b505092505050602060405180830381600087803b158015613fd057600080fd5b505af1158015613fe4573d6000803e3d6000fd5b505050506040513d6020811015613ffa57600080fd5b505190505b92915050565b6000806000806000806000601a60159054906101000a900460ff1615151561402c57600080fd5b601a805475ff00000000000000000000000000000000000000000019167501000000000000000000000000000000000000000000179081905560a060020a900460ff16156140c4576040805160e560020a62461bcd02815260206004820152601260248201527f436f6e7472616374206973207061757365640000000000000000000000000000604482015290519081900360640190fd5b60015460ff16151561413057600160a060020a038b163314614130576040805160e560020a62461bcd02815260206004820152601560248201527f42656e656669636961727920213d2066756e6465720000000000000000000000604482015290519081900360640190fd5b61413a898b6142dc565b94506141478b8b87614313565b935060045492505b600f548310156141f75760045483146141685760048390555b600f80548490811061417657fe5b906000526020600020906007020160020154600f8481548110151561419757fe5b90600052602060002090600702016004015410156141ec576141ca8b846141c4878b63ffffffff6142bd16565b8b6155a3565b925090506141de878263ffffffff6142cf16565b96508115156141ec576141f7565b60019092019161414f565b600087111561428257600160a060020a038b166000908152600760205260409020541515614229576015805460010190555b600160a060020a038b16600090815260076020526040902054614252908863ffffffff6142cf16565b600160a060020a038c1660009081526007602052604090205560055461427e908863ffffffff6142cf16565b6005555b61428c878a614784565b601a805475ff00000000000000000000000000000000000000000019169055969b969a509598505050505050505050565b6000828211156142c957fe5b50900390565b81810182811015613fff57fe5b6000670de0b6b3a76400006143026142f485856157f9565b6706f05b59d3b200006142cf565b81151561430b57fe5b049392505050565b60008061431e611fa5565b1515614374576040805160e560020a62461bcd02815260206004820152600c60248201527f53544f206e6f74206f70656e0000000000000000000000000000000000000000604482015290519081900360640190fd5b600084116143cc576040805160e560020a62461bcd02815260206004820152601260248201527f4e6f2066756e647320776572652073656e740000000000000000000000000000604482015290519081900360640190fd5b600d54600160a060020a0386166000908152600760205260409020546143f990859063ffffffff6142cf16565b1015614475576040805160e560020a62461bcd02815260206004820152602760248201527f546f74616c20696e766573746d656e74203c206d696e696d756d496e7665737460448201527f6d656e7455534400000000000000000000000000000000000000000000000000606482015290519081900360840190fd5b600160a060020a03851660009081526009602052604090205483925060ff1615156145d757600160a060020a038516600090815260096020526040902060010154156144dc57600160a060020a0385166000908152600960205260409020600101546144e0565b600c545b600160a060020a0386166000908152600760205260409020549091508111614578576040805160e560020a62461bcd02815260206004820152602260248201527f4f766572204e6f6e2d6163637265646974656420696e766573746f72206c696d60448201527f6974000000000000000000000000000000000000000000000000000000000000606482015290519081900360840190fd5b600160a060020a03851660009081526007602052604090205481906145a490859063ffffffff6142cf16565b11156145d757600160a060020a0385166000908152600760205260409020546145d490829063ffffffff6142bd16565b91505b509392505050565b600080600080600080600080600f8b8154811015156145fa57fe5b600091825260209091206007909102019250600189600281111561461a57fe5b14801561462e575082600601548360030154115b156146ba576006830154600384015461464c9163ffffffff6142bd16565b9150614669836004015484600201546142bd90919063ffffffff16565b90508181101561468f576146828360010154828c615822565b91995090975095506146a7565b61469e8360010154838c615822565b91995090975095505b6146b78a8963ffffffff6142bd16565b99505b60008a1180156146f4575060006146f26146e18886600401546142cf90919063ffffffff16565b60028601549063ffffffff6142bd16565b115b801561471e5750600189600281111561470957fe5b14158061471e57508260060154836003015411155b156147765782546004840154600285015461474a9291614744919063ffffffff6142bd16565b8c615822565b98509095509350614761888663ffffffff6142cf16565b9750614773868563ffffffff6142cf16565b95505b505050505093509350939050565b60008161430261479c85670de0b6b3a76400006157f9565b600285046142cf565b600d819055600c829055604080518281526020810184905281517f6edefa108617056bef120162b4dc9ced4920b9a10f2dcc512c4c60fee6e7e693929181900390910190a15050565b601a5460a060020a900460ff161515614851576040805160e560020a62461bcd02815260206004820152601660248201527f436f6e7472616374206973206e6f742070617573656400000000000000000000604482015290519081900360640190fd5b601a805474ff0000000000000000000000000000000000000000191690556040805142815290517faaa520fdd7d2c83061d632fa017b0432407e798818af63ea908589fceda39ab79181900360200190a1565b600080808060018760028111156148b757fe5b14806148ce575060028760028111156148cc57fe5b145b1515614924576040805160e560020a62461bcd02815260206004820152601260248201527f496e76616c696420726169736520747970650000000000000000000000000000604482015290519081900360640190fd5b61492c61395a565b93506149378761361f565b92506149458989858a614005565b91509150856149568561119561395a565b10156149ac576040805160e560020a62461bcd02815260206004820152601a60248201527f496e73756666696369656e7420746f6b656e73206d696e746564000000000000604482015290519081900360640190fd5b600160a060020a03891660009081526008602052604081206149d7918391908a600281111561121857fe5b600160a060020a038a166000908152600860205260408120908960028111156149fc57fe5b60ff1660ff16815260200190815260200160002081905550614a2881601160008a600281111561121857fe5b60116000896002811115614a3857fe5b60ff168152602081019190915260400160002055601a54600160a060020a03868116911614614aa457600160a060020a038516600090815260066020526040902054614a8a908263ffffffff6142cf16565b600160a060020a0386166000908152600660205260409020555b601654604080517f23b872dd000000000000000000000000000000000000000000000000000000008152336004820152600160a060020a039283166024820152604481018490529051918716916323b872dd916064808201926020929091908290030181600087803b158015614b1957600080fd5b505af1158015614b2d573d6000803e3d6000fd5b505050506040513d6020811015614b4357600080fd5b50511515614b9b576040805160e560020a62461bcd02815260206004820152600f60248201527f5472616e73666572206661696c65640000000000000000000000000000000000604482015290519081900360640190fd5b88600160a060020a031633600160a060020a03167fa5a66b45c30fa6510eb2c3ccbe3c500d21863c7cc3e37d2dc85bb28db7775bd1848a8c868960405180868152602001856002811115614beb57fe5b60ff1681526020018481526020018381526020018281526020019550505050505060405180910390a3505050505050505050565b6000808351111515614c7b576040805160e560020a62461bcd02815260206004820152601160248201527f4e6f2074696572732070726f7669646564000000000000000000000000000000604482015290519081900360640190fd5b82518551148015614c8d575082518451145b8015614c9a575082518251145b1515614cf0576040805160e560020a62461bcd02815260206004820152601960248201527f546965722064617461206c656e677468206d69736d6174636800000000000000604482015290519081900360640190fd5b614cfc600f6000615cee565b5060005b8451811015614fd55760008582815181101515614d1957fe5b6020908102909101015111614d78576040805160e560020a62461bcd02815260206004820152600c60248201527f496e76616c696420726174650000000000000000000000000000000000000000604482015290519081900360640190fd5b60008382815181101515614d8857fe5b6020908102909101015111614de7576040805160e560020a62461bcd02815260206004820152601460248201527f496e76616c696420746f6b656e20616d6f756e74000000000000000000000000604482015290519081900360640190fd5b8281815181101515614df557fe5b906020019060200201518282815181101515614e0d57fe5b602090810290910101511115614e6d576040805160e560020a62461bcd02815260206004820152601a60248201527f546f6f206d616e7920646973636f756e74656420746f6b656e73000000000000604482015290519081900360640190fd5b8481815181101515614e7b57fe5b906020019060200201518482815181101515614e9357fe5b602090810290910101511115614ef3576040805160e560020a62461bcd02815260206004820152601060248201527f496e76616c696420646973636f756e7400000000000000000000000000000000604482015290519081900360640190fd5b600f60c0604051908101604052808784815181101515614f0f57fe5b9060200190602002015181526020018684815181101515614f2c57fe5b9060200190602002015181526020018584815181101515614f4957fe5b9060200190602002015181526020018484815181101515614f6657fe5b60209081029091018101518252600082820181905260409283018190528454600181810187559582529082902084516007909202019081559083015181850155908201516002820155606082015160038201556080820151600482015560a09091015160069091015501614d00565b7fbdbb624542b4a708b5fed87894a55c10945f2676a45a28f9da59597118247496858585856040518080602001806020018060200180602001858103855289818151815260200191508051906020019060200280838360005b8381101561504657818101518382015260200161502e565b50505050905001858103845288818151815260200191508051906020019060200280838360005b8381101561508557818101518382015260200161506d565b50505050905001858103835287818151815260200191508051906020019060200280838360005b838110156150c45781810151838201526020016150ac565b50505050905001858103825286818151815260200191508051906020019060200280838360005b838110156151035781810151838201526020016150eb565b505050509050019850505050505050505060405180910390a15050505050565b600160a060020a038116600090815260096020526040902054610100900460ff161515611fa257600160a060020a0381166000818152600960205260408120805461ff001916610100179055600b805460018101825591527f0175b7a638427703f0dbe7bb9bbf987a2551717b34e79f33b5b1008d1fa01db901805473ffffffffffffffffffffffffffffffffffffffff1916909117905550565b601a5460a060020a900460ff1615615220576040805160e560020a62461bcd02815260206004820152601260248201527f436f6e7472616374206973207061757365640000000000000000000000000000604482015290519081900360640190fd5b601a805474ff0000000000000000000000000000000000000000191660a060020a1790556040805142815290517f68b095021b1f40fe513109f513c66692f0b3219aee674a69f4efc57badb8201d9181900360200190a1565b600160a060020a038316158015906152995750600160a060020a03821615155b15156152ef576040805160e560020a62461bcd02815260206004820152600e60248201527f496e76616c69642077616c6c6574000000000000000000000000000000000000604482015290519081900360640190fd5b60168054600160a060020a0380861673ffffffffffffffffffffffffffffffffffffffff1992831617909255600280549285169290911691909117905561254f81615922565b818111801561534357504282115b1515615399576040805160e560020a62461bcd02815260206004820152600d60248201527f496e76616c69642074696d657300000000000000000000000000000000000000604482015290519081900360640190fd5b60128290556013819055604080518381526020810183905281517f2eae0d0a99cbf5ab05babf7ee1f4bdf6e9bb99ffdca04682fa54f6682d5d80fe929181900390910190a15050565b600080825111151561543e576040805160e560020a62461bcd02815260206004820152601b60248201527f52616973652074797065206973206e6f74207370656369666965640000000000604482015290519081900360640190fd5b5060106020527f6e0956cda88cad152e89927e53611735b61a5c762d1428573c6931b0a5efcb01805460ff199081169091557f8c6065603763fec3f5742441d3833f3f43b982453612d76adb39a885e3006b5f805482169055600260009081527f853b2fefe141400fef543280f93d98bd49996069f632d0d20236afeeed8e46a280549092169091555b81518160ff16101561552a57600160106000848460ff168151811015156154eb57fe5b90602001906020020151600281111561550057fe5b60ff1681526020810191909152604001600020805460ff19169115159190911790556001016154c8565b7fe5724f42dd9f217c97b3768212ed6d6692c0135e252387d61b98af28fecd9b02826040518080602001828103825283818151815260200191508051906020019060200280838360005b8381101561558c578181015183820152602001615574565b505050509050019250505060405180910390a15050565b600080600080600080600080899350600f8b8154811015156155c157fe5b60009182526020909120600790910201925060018960028111156155e157fe5b1480156155f5575082600601548360030154115b156156f657600683015460038401546156139163ffffffff6142bd16565b9150615630836004015484600201546142bd90919063ffffffff16565b9050818110156156585761564b8c846001015483878f615af6565b9199509097509450615672565b6156698c846001015484878f615af6565b91995090975094505b615682848963ffffffff6142bd16565b600684015490945061569a908663ffffffff6142cf16565b60068401556156b5856005850160008c600281111561121857fe5b8360050160008b60028111156156c757fe5b60ff16815260208101919091526040016000205560048301546156f0908663ffffffff6142cf16565b60048401555b6000841180156157205750600061571e846004015485600201546142bd90919063ffffffff16565b115b801561574a5750600189600281111561573557fe5b14158061574a57508260060154836003015411155b156157ea5761577a8c8460000154615773866004015487600201546142bd90919063ffffffff16565b878f615af6565b98509096509450615791888763ffffffff6142cf16565b97506157a9858460050160008c600281111561121857fe5b8360050160008b60028111156157bb57fe5b60ff16815260208101919091526040016000205560048301546157e4908663ffffffff6142cf16565b60048401555b50505050505094509492505050565b600082151561580a57506000613fff565b5081810281838281151561581a57fe5b0414613fff57fe5b60008060008060006158348689614784565b9150601960009054906101000a9004600160a060020a0316600160a060020a031663556f0dc76040518163ffffffff1660e060020a028152600401602060405180830381600087803b15801561588957600080fd5b505af115801561589d573d6000803e3d6000fd5b505050506040513d60208110156158b357600080fd5b505190506158c7828263ffffffff615c6716565b91506158d9828263ffffffff6157f916565b915086821115615907576158ed87896142dc565b9450858511156158fb578594505b86935060019250615917565b61591182896142dc565b94508193505b505093509350939050565b60005b600354811015615980576000600a600060038481548110151561594457fe5b600091825260208083209190910154600160a060020a031683528201929092526040019020805460ff1916911515919091179055600101615925565b8151615993906003906020850190615d0f565b50600090505b8151811015615a6a5781516000908390839081106159b357fe5b60209081029091010151600160a060020a03161415615a1c576040805160e560020a62461bcd02815260206004820152601160248201527f496e76616c69642055534420746f6b656e000000000000000000000000000000604482015290519081900360640190fd5b6001600a60008484815181101515615a3057fe5b602090810291909101810151600160a060020a03168252810191909152604001600020805460ff1916911515919091179055600101615999565b6002546016546040805160208082528651818301528651600160a060020a0395861695909416937f8af18d174d22808e0f6d16e613f909f1b60caca2b1cbd2194eb098365c9a867893889392839291830191858201910280838360005b83811015615adf578181015183820152602001615ac7565b505050509050019250505060405180910390a35050565b6000806000615b06878787615822565b919450925090506000821115615c5c57601954604080517f40c10f19000000000000000000000000000000000000000000000000000000008152600160a060020a038b8116600483015260248201869052915191909216916340c10f199160448083019260209291908290030181600087803b158015615b8557600080fd5b505af1158015615b99573d6000803e3d6000fd5b505050506040513d6020811015615baf57600080fd5b50511515615c07576040805160e560020a62461bcd02815260206004820152601060248201527f4572726f7220696e206d696e74696e6700000000000000000000000000000000604482015290519081900360640190fd5b6040805183815260208101859052808201899052606081018690529051600160a060020a038a169133917fc29b8032387f267ddc010037627574acbf3b1a65a6022ca8ba6c25f0ba85ee759181900360800190a35b955095509592505050565b6000818381151561430b57fe5b828054600181600116156101000203166002900490600052602060002090601f016020900481019282601f10615cb557805160ff1916838001178555615ce2565b82800160010185558215615ce2579182015b82811115615ce2578251825591602001919060010190615cc7565b50613908929150615d7d565b5080546000825560070290600052602060002090810190611fa29190615d97565b828054828255906000526020600020908101928215615d71579160200282015b82811115615d71578251825473ffffffffffffffffffffffffffffffffffffffff1916600160a060020a03909116178255602090920191600190910190615d2f565b50613908929150615dd3565b6118dc91905b808211156139085760008155600101615d83565b6118dc91905b80821115613908576000808255600182018190556002820181905560038201819055600482018190556006820155600701615d9d565b6118dc91905b8082111561390857805473ffffffffffffffffffffffffffffffffffffffff19168155600101615dd9560053544f20616c726561647920737461727465640000000000000000000000000053656e646572206973206e6f74206f776e657200000000000000000000000000a165627a7a7230582055597e3336b31274a6012adbc87be25907cb74205f0eacf2687f69b2c3875e880029",
  "source": "pragma solidity ^0.4.24;\n\nimport \"./ISTO.sol\";\nimport \"../../interfaces/ISecurityToken.sol\";\nimport \"../../interfaces/IOracle.sol\";\nimport \"../../RegistryUpdater.sol\";\nimport \"../../libraries/DecimalMath.sol\";\nimport \"openzeppelin-solidity/contracts/math/SafeMath.sol\";\nimport \"openzeppelin-solidity/contracts/ReentrancyGuard.sol\";\nimport \"./USDTieredSTOStorage.sol\";\n\n/**\n * @title STO module for standard capped crowdsale\n */\ncontract USDTieredSTO is USDTieredSTOStorage, ISTO, ReentrancyGuard {\n    using SafeMath for uint256;\n\n    string public constant POLY_ORACLE = \"PolyUsdOracle\";\n    string public constant ETH_ORACLE = \"EthUsdOracle\";\n\n    ////////////\n    // Events //\n    ////////////\n\n    event SetAllowBeneficialInvestments(bool _allowed);\n    event SetNonAccreditedLimit(address _investor, uint256 _limit);\n    event SetAccredited(address _investor, bool _accredited);\n    event TokenPurchase(\n        address indexed _purchaser,\n        address indexed _beneficiary,\n        uint256 _tokens,\n        uint256 _usdAmount,\n        uint256 _tierPrice,\n        uint256 _tier\n    );\n    event FundsReceived(\n        address indexed _purchaser,\n        address indexed _beneficiary,\n        uint256 _usdAmount,\n        FundRaiseType _fundRaiseType,\n        uint256 _receivedValue,\n        uint256 _spentValue,\n        uint256 _rate\n    );\n    event ReserveTokenMint(address indexed _owner, address indexed _wallet, uint256 _tokens, uint256 _latestTier);\n    event SetAddresses(\n        address indexed _wallet,\n        address indexed _reserveWallet,\n        address[] _usdTokens\n    );\n    event SetLimits(\n        uint256 _nonAccreditedLimitUSD,\n        uint256 _minimumInvestmentUSD\n    );\n    event SetTimes(\n        uint256 _startTime,\n        uint256 _endTime\n    );\n    event SetTiers(\n        uint256[] _ratePerTier,\n        uint256[] _ratePerTierDiscountPoly,\n        uint256[] _tokensPerTierTotal,\n        uint256[] _tokensPerTierDiscountPoly\n    );\n\n    ///////////////\n    // Modifiers //\n    ///////////////\n\n    modifier validETH {\n        require(_getOracle(bytes32(\"ETH\"), bytes32(\"USD\")) != address(0), \"Invalid Oracle\");\n        require(fundRaiseTypes[uint8(FundRaiseType.ETH)], \"ETH not allowed\");\n        _;\n    }\n\n    modifier validPOLY {\n        require(_getOracle(bytes32(\"POLY\"), bytes32(\"USD\")) != address(0), \"Invalid Oracle\");\n        require(fundRaiseTypes[uint8(FundRaiseType.POLY)], \"POLY not allowed\");\n        _;\n    }\n\n    modifier validSC(address _usdToken) {\n        require(fundRaiseTypes[uint8(FundRaiseType.SC)] && usdTokenEnabled[_usdToken], \"USD not allowed\");\n        _;\n    }\n\n    ///////////////////////\n    // STO Configuration //\n    ///////////////////////\n\n    constructor (address _securityToken, address _polyAddress)\n    public\n    Module(_securityToken, _polyAddress)\n    {\n    }\n\n    /**\n     * @notice Function used to intialize the contract variables\n     * @param _startTime Unix timestamp at which offering get started\n     * @param _endTime Unix timestamp at which offering get ended\n     * @param _ratePerTier Rate (in USD) per tier (* 10**18)\n     * @param _tokensPerTierTotal Tokens available in each tier\n     * @param _nonAccreditedLimitUSD Limit in USD (* 10**18) for non-accredited investors\n     * @param _minimumInvestmentUSD Minimun investment in USD (* 10**18)\n     * @param _fundRaiseTypes Types of currency used to collect the funds\n     * @param _wallet Ethereum account address to hold the funds\n     * @param _reserveWallet Ethereum account address to receive unsold tokens\n     * @param _usdTokens Array of contract addressess of the stable coins\n     */\n    function configure(\n        uint256 _startTime,\n        uint256 _endTime,\n        uint256[] _ratePerTier,\n        uint256[] _ratePerTierDiscountPoly,\n        uint256[] _tokensPerTierTotal,\n        uint256[] _tokensPerTierDiscountPoly,\n        uint256 _nonAccreditedLimitUSD,\n        uint256 _minimumInvestmentUSD,\n        FundRaiseType[] _fundRaiseTypes,\n        address _wallet,\n        address _reserveWallet,\n        address[] _usdTokens\n    ) public onlyFactory {\n        oracleKeys[bytes32(\"ETH\")][bytes32(\"USD\")] = ETH_ORACLE;\n        oracleKeys[bytes32(\"POLY\")][bytes32(\"USD\")] = POLY_ORACLE;\n        require(endTime == 0, \"Already configured\");\n        _modifyTimes(_startTime, _endTime);\n        _modifyTiers(_ratePerTier, _ratePerTierDiscountPoly, _tokensPerTierTotal, _tokensPerTierDiscountPoly);\n        // NB - _setFundRaiseType must come before modifyAddresses\n        _setFundRaiseType(_fundRaiseTypes);\n        _modifyAddresses(_wallet, _reserveWallet, _usdTokens);\n        _modifyLimits(_nonAccreditedLimitUSD, _minimumInvestmentUSD);\n    }\n\n    /**\n     * @dev Modifies fund raise types\n     * @param _fundRaiseTypes Array of fund raise types to allow\n     */\n    function modifyFunding(FundRaiseType[] _fundRaiseTypes) external onlyOwner {\n        /*solium-disable-next-line security/no-block-members*/\n        require(now < startTime, \"STO already started\");\n        _setFundRaiseType(_fundRaiseTypes);\n    }\n\n    /**\n     * @dev modifies max non accredited invets limit and overall minimum investment limit\n     * @param _nonAccreditedLimitUSD max non accredited invets limit\n     * @param _minimumInvestmentUSD overall minimum investment limit\n     */\n    function modifyLimits(\n        uint256 _nonAccreditedLimitUSD,\n        uint256 _minimumInvestmentUSD\n    ) external onlyOwner {\n        /*solium-disable-next-line security/no-block-members*/\n        require(now < startTime, \"STO already started\");\n        _modifyLimits(_nonAccreditedLimitUSD, _minimumInvestmentUSD);\n    }\n\n    /**\n     * @dev modifiers STO tiers. All tiers must be passed, can not edit specific tiers.\n     * @param _ratePerTier Array of rates per tier\n     * @param _ratePerTierDiscountPoly Array of discounted poly rates per tier\n     * @param _tokensPerTierTotal Array of total tokens per tier\n     * @param _tokensPerTierDiscountPoly Array of discounted tokens per tier\n     */\n    function modifyTiers(\n        uint256[] _ratePerTier,\n        uint256[] _ratePerTierDiscountPoly,\n        uint256[] _tokensPerTierTotal,\n        uint256[] _tokensPerTierDiscountPoly\n    ) external onlyOwner {\n        /*solium-disable-next-line security/no-block-members*/\n        require(now < startTime, \"STO already started\");\n        _modifyTiers(_ratePerTier, _ratePerTierDiscountPoly, _tokensPerTierTotal, _tokensPerTierDiscountPoly);\n    }\n\n    /**\n     * @dev Modifies STO start and end times\n     * @param _startTime start time of sto\n     * @param _endTime end time of sto\n     */\n    function modifyTimes(\n        uint256 _startTime,\n        uint256 _endTime\n    ) external onlyOwner {\n        /*solium-disable-next-line security/no-block-members*/\n        require(now < startTime, \"STO already started\");\n        _modifyTimes(_startTime, _endTime);\n    }\n\n    /**\n     * @dev Modifies addresses used as wallet, reserve wallet and usd token\n     * @param _wallet Address of wallet where funds are sent\n     * @param _reserveWallet Address of wallet where unsold tokens are sent\n     * @param _usdTokens Address of usd tokens\n     */\n    function modifyAddresses(\n        address _wallet,\n        address _reserveWallet,\n        address[] _usdTokens\n    ) external onlyOwner {\n        /*solium-disable-next-line security/no-block-members*/\n        // require(now < startTime, \"STO already started\");\n        _modifyAddresses(_wallet, _reserveWallet, _usdTokens);\n    }\n\n    function _modifyLimits(\n        uint256 _nonAccreditedLimitUSD,\n        uint256 _minimumInvestmentUSD\n    ) internal {\n        minimumInvestmentUSD = _minimumInvestmentUSD;\n        nonAccreditedLimitUSD = _nonAccreditedLimitUSD;\n        emit SetLimits(minimumInvestmentUSD, nonAccreditedLimitUSD);\n    }\n\n    function _modifyTiers(\n        uint256[] _ratePerTier,\n        uint256[] _ratePerTierDiscountPoly,\n        uint256[] _tokensPerTierTotal,\n        uint256[] _tokensPerTierDiscountPoly\n    ) internal {\n        require(_tokensPerTierTotal.length > 0, \"No tiers provided\");\n        require(_ratePerTier.length == _tokensPerTierTotal.length &&\n            _ratePerTierDiscountPoly.length == _tokensPerTierTotal.length &&\n            _tokensPerTierDiscountPoly.length == _tokensPerTierTotal.length,\n            \"Tier data length mismatch\"\n        );\n        delete tiers;\n        for (uint256 i = 0; i < _ratePerTier.length; i++) {\n            require(_ratePerTier[i] > 0, \"Invalid rate\");\n            require(_tokensPerTierTotal[i] > 0, \"Invalid token amount\");\n            require(_tokensPerTierDiscountPoly[i] <= _tokensPerTierTotal[i], \"Too many discounted tokens\");\n            require(_ratePerTierDiscountPoly[i] <= _ratePerTier[i], \"Invalid discount\");\n            tiers.push(Tier(_ratePerTier[i], _ratePerTierDiscountPoly[i], _tokensPerTierTotal[i], _tokensPerTierDiscountPoly[i], 0, 0));\n        }\n        emit SetTiers(_ratePerTier, _ratePerTierDiscountPoly, _tokensPerTierTotal, _tokensPerTierDiscountPoly);\n    }\n\n    function _modifyTimes(\n        uint256 _startTime,\n        uint256 _endTime\n    ) internal {\n        /*solium-disable-next-line security/no-block-members*/\n        require((_endTime > _startTime) && (_startTime > now), \"Invalid times\");\n        startTime = _startTime;\n        endTime = _endTime;\n        emit SetTimes(_startTime, _endTime);\n    }\n\n    function _modifyAddresses(\n        address _wallet,\n        address _reserveWallet,\n        address[] _usdTokens\n    ) internal {\n        require(_wallet != address(0) && _reserveWallet != address(0), \"Invalid wallet\");\n        wallet = _wallet;\n        reserveWallet = _reserveWallet;\n        _modifyUSDTokens(_usdTokens);\n    }\n\n    function _modifyUSDTokens(address[] _usdTokens) internal {\n        for(uint256 i = 0; i < usdTokens.length; i++) {\n            usdTokenEnabled[usdTokens[i]] = false;\n        }\n        usdTokens = _usdTokens;\n        for(i = 0; i < _usdTokens.length; i++) {\n            require(_usdTokens[i] != address(0), \"Invalid USD token\");\n            usdTokenEnabled[_usdTokens[i]] = true;\n        }\n        emit SetAddresses(wallet, reserveWallet, _usdTokens);\n    }\n\n    ////////////////////\n    // STO Management //\n    ////////////////////\n\n    /**\n     * @notice Finalizes the STO and mint remaining tokens to reserve address\n     * @notice Reserve address must be whitelisted to successfully finalize\n     */\n    function finalize() public onlyOwner {\n        require(!isFinalized, \"STO is already finalized\");\n        isFinalized = true;\n        uint256 tempReturned;\n        uint256 tempSold;\n        uint256 remainingTokens;\n        for (uint256 i = 0; i < tiers.length; i++) {\n            remainingTokens = tiers[i].tokenTotal.sub(tiers[i].mintedTotal);\n            tempReturned = tempReturned.add(remainingTokens);\n            tempSold = tempSold.add(tiers[i].mintedTotal);\n            if (remainingTokens > 0) {\n                tiers[i].mintedTotal = tiers[i].tokenTotal;\n            }\n        }\n        require(ISecurityToken(securityToken).mint(reserveWallet, tempReturned), \"Error in minting\");\n        emit ReserveTokenMint(msg.sender, reserveWallet, tempReturned, currentTier);\n        finalAmountReturned = tempReturned;\n        totalTokensSold = tempSold;\n    }\n\n    /**\n     * @notice Modifies the list of accredited addresses\n     * @param _investors Array of investor addresses to modify\n     * @param _accredited Array of bools specifying accreditation status\n     */\n    function changeAccredited(address[] _investors, bool[] _accredited) public onlyOwner {\n        require(_investors.length == _accredited.length, \"Array length mismatch\");\n        for (uint256 i = 0; i < _investors.length; i++) {\n            if (_accredited[i]) {\n                investors[_investors[i]].accredited = uint8(1);\n            } else {\n                investors[_investors[i]].accredited = uint8(0);\n            }\n            _addToInvestorsList(_investors[i]);\n            emit SetAccredited(_investors[i], _accredited[i]);\n        }\n    }\n\n    /**\n     * @notice Modifies the list of overrides for non-accredited limits in USD\n     * @param _investors Array of investor addresses to modify\n     * @param _nonAccreditedLimit Array of uints specifying non-accredited limits\n     */\n    function changeNonAccreditedLimit(address[] _investors, uint256[] _nonAccreditedLimit) public onlyOwner {\n        //nonAccreditedLimitUSDOverride\n        require(_investors.length == _nonAccreditedLimit.length, \"Array length mismatch\");\n        for (uint256 i = 0; i < _investors.length; i++) {\n            investors[_investors[i]].nonAccreditedLimitUSDOverride = _nonAccreditedLimit[i];\n            _addToInvestorsList(_investors[i]);\n            emit SetNonAccreditedLimit(_investors[i], _nonAccreditedLimit[i]);\n        }\n    }\n\n    function _addToInvestorsList(address _investor) internal {\n        if (investors[_investor].seen == uint8(0)) {\n            investors[_investor].seen = uint8(1);\n            investorsList.push(_investor);\n        }\n    }\n\n    /**\n     * @notice Returns investor accredited & non-accredited override informatiomn\n     * @return address[] list of all configured investors\n     * @return bool[] whether investor is accredited\n     * @return uint256[] any USD overrides for non-accredited limits for the investor\n     */\n    function getAccreditedData() external view returns (address[], bool[], uint256[]) {\n        bool[] memory accrediteds = new bool[](investorsList.length);\n        uint256[] memory nonAccreditedLimitUSDOverrides = new uint256[](investorsList.length);\n        uint256 i;\n        for (i = 0; i < investorsList.length; i++) {\n            accrediteds[i] = (investors[investorsList[i]].accredited == uint8(0)? false: true);\n            nonAccreditedLimitUSDOverrides[i] = investors[investorsList[i]].nonAccreditedLimitUSDOverride;\n        }\n        return (investorsList, accrediteds, nonAccreditedLimitUSDOverrides);\n    }\n\n    /**\n     * @notice Function to set allowBeneficialInvestments (allow beneficiary to be different to funder)\n     * @param _allowBeneficialInvestments Boolean to allow or disallow beneficial investments\n     */\n    function changeAllowBeneficialInvestments(bool _allowBeneficialInvestments) public onlyOwner {\n        require(_allowBeneficialInvestments != allowBeneficialInvestments, \"Value unchanged\");\n        allowBeneficialInvestments = _allowBeneficialInvestments;\n        emit SetAllowBeneficialInvestments(allowBeneficialInvestments);\n    }\n\n    //////////////////////////\n    // Investment Functions //\n    //////////////////////////\n\n    /**\n    * @notice fallback function - assumes ETH being invested\n    */\n    function () external payable {\n        buyWithETHRateLimited(msg.sender, 0);\n    }\n\n    // Buy functions without rate restriction\n    function buyWithETH(address _beneficiary) external payable {\n        buyWithETHRateLimited(_beneficiary, 0);\n    }\n\n    function buyWithPOLY(address _beneficiary, uint256 _investedPOLY) external {\n        buyWithPOLYRateLimited(_beneficiary, _investedPOLY, 0);\n    }\n\n    function buyWithUSD(address _beneficiary, uint256 _investedSC, IERC20 _usdToken) external {\n        buyWithUSDRateLimited(_beneficiary, _investedSC, 0, _usdToken);\n    }\n\n    /**\n      * @notice Purchase tokens using ETH\n      * @param _beneficiary Address where security tokens will be sent\n      * @param _minTokens Minumum number of tokens to buy or else revert\n      */\n    function buyWithETHRateLimited(address _beneficiary, uint256 _minTokens) public payable validETH {\n        uint256 rate = getRate(FundRaiseType.ETH);\n        uint256 initialMinted = getTokensMinted();\n        (uint256 spentUSD, uint256 spentValue) = _buyTokens(_beneficiary, msg.value, rate, FundRaiseType.ETH);\n        require(getTokensMinted().sub(initialMinted) >= _minTokens, \"Insufficient tokens minted\");\n        // Modify storage\n        investorInvested[_beneficiary][uint8(FundRaiseType.ETH)] = investorInvested[_beneficiary][uint8(FundRaiseType.ETH)].add(spentValue);\n        fundsRaised[uint8(FundRaiseType.ETH)] = fundsRaised[uint8(FundRaiseType.ETH)].add(spentValue);\n        // Forward ETH to issuer wallet\n        wallet.transfer(spentValue);\n        // Refund excess ETH to investor wallet\n        msg.sender.transfer(msg.value.sub(spentValue));\n        emit FundsReceived(msg.sender, _beneficiary, spentUSD, FundRaiseType.ETH, msg.value, spentValue, rate);\n    }\n\n    /**\n      * @notice Purchase tokens using POLY\n      * @param _beneficiary Address where security tokens will be sent\n      * @param _investedPOLY Amount of POLY invested\n      * @param _minTokens Minumum number of tokens to buy or else revert\n      */\n    function buyWithPOLYRateLimited(address _beneficiary, uint256 _investedPOLY, uint256 _minTokens) public validPOLY {\n        _buyWithTokens(_beneficiary, _investedPOLY, FundRaiseType.POLY, _minTokens, polyToken);\n    }\n\n    /**\n      * @notice Purchase tokens using Stable coins\n      * @param _beneficiary Address where security tokens will be sent\n      * @param _investedSC Amount of Stable coins invested\n      * @param _minTokens Minumum number of tokens to buy or else revert\n      * @param _usdToken Address of USD stable coin to buy tokens with\n      */\n    function buyWithUSDRateLimited(address _beneficiary, uint256 _investedSC, uint256 _minTokens, IERC20 _usdToken)\n        public validSC(_usdToken)\n    {\n        _buyWithTokens(_beneficiary, _investedSC, FundRaiseType.SC, _minTokens, _usdToken);\n    }\n\n    function _buyWithTokens(address _beneficiary, uint256 _tokenAmount, FundRaiseType _fundRaiseType, uint256 _minTokens, IERC20 _token) internal {\n        require(_fundRaiseType == FundRaiseType.POLY || _fundRaiseType == FundRaiseType.SC, \"Invalid raise type\");\n        uint256 initialMinted = getTokensMinted();\n        uint256 rate = getRate(_fundRaiseType);\n        (uint256 spentUSD, uint256 spentValue) = _buyTokens(_beneficiary, _tokenAmount, rate, _fundRaiseType);\n        require(getTokensMinted().sub(initialMinted) >= _minTokens, \"Insufficient tokens minted\");\n        // Modify storage\n        investorInvested[_beneficiary][uint8(_fundRaiseType)] = investorInvested[_beneficiary][uint8(_fundRaiseType)].add(spentValue);\n        fundsRaised[uint8(_fundRaiseType)] = fundsRaised[uint8(_fundRaiseType)].add(spentValue);\n        if(address(_token) != address(polyToken))\n            stableCoinsRaised[address(_token)] = stableCoinsRaised[address(_token)].add(spentValue);\n        // Forward coins to issuer wallet\n        require(_token.transferFrom(msg.sender, wallet, spentValue), \"Transfer failed\");\n        emit FundsReceived(msg.sender, _beneficiary, spentUSD, _fundRaiseType, _tokenAmount, spentValue, rate);\n    }\n\n    /**\n      * @notice Low level token purchase\n      * @param _beneficiary Address where security tokens will be sent\n      * @param _investmentValue Amount of POLY, ETH or Stable coins invested\n      * @param _fundRaiseType Fund raise type (POLY, ETH, SC)\n      */\n    function _buyTokens(\n        address _beneficiary,\n        uint256 _investmentValue,\n        uint256 _rate,\n        FundRaiseType _fundRaiseType\n    )\n        internal\n        nonReentrant\n        whenNotPaused\n        returns(uint256 spentUSD, uint256 spentValue)\n    {\n        if (!allowBeneficialInvestments) {\n            require(_beneficiary == msg.sender, \"Beneficiary != funder\");\n        }\n\n        uint256 originalUSD = DecimalMath.mul(_rate, _investmentValue);\n        uint256 allowedUSD = _buyTokensChecks(_beneficiary, _investmentValue, originalUSD);\n\n        for (uint256 i = currentTier; i < tiers.length; i++) {\n            bool gotoNextTier;\n            uint256 tempSpentUSD;\n            // Update current tier if needed\n            if (currentTier != i)\n                currentTier = i;\n            // If there are tokens remaining, process investment\n            if (tiers[i].mintedTotal < tiers[i].tokenTotal) {\n                (tempSpentUSD, gotoNextTier) = _calculateTier(_beneficiary, i, allowedUSD.sub(spentUSD), _fundRaiseType);\n                spentUSD = spentUSD.add(tempSpentUSD);\n                // If all funds have been spent, exit the loop\n                if (!gotoNextTier)\n                    break;\n            }\n        }\n\n        // Modify storage\n        if (spentUSD > 0) {\n            if (investorInvestedUSD[_beneficiary] == 0)\n                investorCount = investorCount + 1;\n            investorInvestedUSD[_beneficiary] = investorInvestedUSD[_beneficiary].add(spentUSD);\n            fundsRaisedUSD = fundsRaisedUSD.add(spentUSD);\n        }\n\n        spentValue = DecimalMath.div(spentUSD, _rate);\n    }\n\n    /**\n      * @notice Getter function for buyer to calculate how many tokens will they get\n      * @param _beneficiary Address where security tokens are to be sent\n      * @param _investmentValue Amount of POLY, ETH or Stable coins invested\n      * @param _fundRaiseType Fund raise type (POLY, ETH, SC)\n      */\n    function buyTokensView(\n        address _beneficiary,\n        uint256 _investmentValue,\n        FundRaiseType _fundRaiseType\n    )\n        public\n        view\n        returns(uint256 spentUSD, uint256 spentValue, uint256 tokensMinted)\n    {\n        require(_fundRaiseType == FundRaiseType.POLY || _fundRaiseType == FundRaiseType.SC || _fundRaiseType == FundRaiseType.ETH, \"Invalid raise type\");\n        uint256 rate = getRate(_fundRaiseType);\n        uint256 originalUSD = DecimalMath.mul(rate, _investmentValue);\n        uint256 allowedUSD = _buyTokensChecks(_beneficiary, _investmentValue, originalUSD);\n\n        // Iterate over each tier and process payment\n        for (uint256 i = currentTier; i < tiers.length; i++) {\n            bool gotoNextTier;\n            uint256 tempSpentUSD;\n            uint256 tempTokensMinted;\n            // If there are tokens remaining, process investment\n            if (tiers[i].mintedTotal < tiers[i].tokenTotal) {\n                (tempSpentUSD, gotoNextTier, tempTokensMinted) = _calculateTierView(i, allowedUSD.sub(spentUSD), _fundRaiseType);\n                spentUSD = spentUSD.add(tempSpentUSD);\n                tokensMinted = tokensMinted.add(tempTokensMinted);\n                // If all funds have been spent, exit the loop\n                if (!gotoNextTier)\n                    break;\n            }\n        }\n\n        spentValue = DecimalMath.div(spentUSD, rate);\n    }\n\n    function _buyTokensChecks(\n        address _beneficiary,\n        uint256 _investmentValue,\n        uint256 investedUSD\n    )\n        internal\n        view\n        returns(uint256 netInvestedUSD)\n    {\n        require(isOpen(), \"STO not open\");\n        require(_investmentValue > 0, \"No funds were sent\");\n\n        // Check for minimum investment\n        require(investedUSD.add(investorInvestedUSD[_beneficiary]) >= minimumInvestmentUSD, \"Total investment < minimumInvestmentUSD\");\n        netInvestedUSD = investedUSD;\n        // Check for non-accredited cap\n        if (investors[_beneficiary].accredited == uint8(0)) {\n            uint256 investorLimitUSD = (investors[_beneficiary].nonAccreditedLimitUSDOverride == 0) ? nonAccreditedLimitUSD : investors[_beneficiary].nonAccreditedLimitUSDOverride;\n            require(investorInvestedUSD[_beneficiary] < investorLimitUSD, \"Over Non-accredited investor limit\");\n            if (investedUSD.add(investorInvestedUSD[_beneficiary]) > investorLimitUSD)\n                netInvestedUSD = investorLimitUSD.sub(investorInvestedUSD[_beneficiary]);\n        }\n    }\n\n    function _calculateTier(\n        address _beneficiary,\n        uint256 _tier,\n        uint256 _investedUSD,\n        FundRaiseType _fundRaiseType\n    )\n        internal\n        returns(uint256 spentUSD, bool gotoNextTier)\n     {\n        // First purchase any discounted tokens if POLY investment\n        uint256 tierSpentUSD;\n        uint256 tierPurchasedTokens;\n        uint256 investedUSD = _investedUSD;\n        Tier storage tierData = tiers[_tier];\n        // Check whether there are any remaining discounted tokens\n        if ((_fundRaiseType == FundRaiseType.POLY) && (tierData.tokensDiscountPoly > tierData.mintedDiscountPoly)) {\n            uint256 discountRemaining = tierData.tokensDiscountPoly.sub(tierData.mintedDiscountPoly);\n            uint256 totalRemaining = tierData.tokenTotal.sub(tierData.mintedTotal);\n            if (totalRemaining < discountRemaining)\n                (spentUSD, tierPurchasedTokens, gotoNextTier) = _purchaseTier(_beneficiary, tierData.rateDiscountPoly, totalRemaining, investedUSD, _tier);\n            else\n                (spentUSD, tierPurchasedTokens, gotoNextTier) = _purchaseTier(_beneficiary, tierData.rateDiscountPoly, discountRemaining, investedUSD, _tier);\n            investedUSD = investedUSD.sub(spentUSD);\n            tierData.mintedDiscountPoly = tierData.mintedDiscountPoly.add(tierPurchasedTokens);\n            tierData.minted[uint8(_fundRaiseType)] = tierData.minted[uint8(_fundRaiseType)].add(tierPurchasedTokens);\n            tierData.mintedTotal = tierData.mintedTotal.add(tierPurchasedTokens);\n        }\n        // Now, if there is any remaining USD to be invested, purchase at non-discounted rate\n        if (investedUSD > 0 &&\n            tierData.tokenTotal.sub(tierData.mintedTotal) > 0 &&\n            (_fundRaiseType != FundRaiseType.POLY || tierData.tokensDiscountPoly <= tierData.mintedDiscountPoly)\n        ) {\n            (tierSpentUSD, tierPurchasedTokens, gotoNextTier) = _purchaseTier(_beneficiary, tierData.rate, tierData.tokenTotal.sub(tierData.mintedTotal), investedUSD, _tier);\n            spentUSD = spentUSD.add(tierSpentUSD);\n            tierData.minted[uint8(_fundRaiseType)] = tierData.minted[uint8(_fundRaiseType)].add(tierPurchasedTokens);\n            tierData.mintedTotal = tierData.mintedTotal.add(tierPurchasedTokens);\n        }\n    }\n\n    function _calculateTierView(\n        uint256 _tier,\n        uint256 _investedUSD,\n        FundRaiseType _fundRaiseType\n    )\n        internal\n        view\n        returns(uint256 spentUSD, bool gotoNextTier, uint256 tokensMinted)\n    {\n        // First purchase any discounted tokens if POLY investment\n        uint256 tierSpentUSD;\n        uint256 tierPurchasedTokens;\n        Tier storage tierData = tiers[_tier];\n        // Check whether there are any remaining discounted tokens\n        if ((_fundRaiseType == FundRaiseType.POLY) && (tierData.tokensDiscountPoly > tierData.mintedDiscountPoly)) {\n            uint256 discountRemaining = tierData.tokensDiscountPoly.sub(tierData.mintedDiscountPoly);\n            uint256 totalRemaining = tierData.tokenTotal.sub(tierData.mintedTotal);\n            if (totalRemaining < discountRemaining)\n                (spentUSD, tokensMinted, gotoNextTier) = _purchaseTierAmount(tierData.rateDiscountPoly, totalRemaining, _investedUSD);\n            else\n                (spentUSD, tokensMinted, gotoNextTier) = _purchaseTierAmount(tierData.rateDiscountPoly, discountRemaining, _investedUSD);\n            _investedUSD = _investedUSD.sub(spentUSD);\n        }\n        // Now, if there is any remaining USD to be invested, purchase at non-discounted rate\n        if (_investedUSD > 0 &&\n            tierData.tokenTotal.sub(tierData.mintedTotal.add(tokensMinted)) > 0 &&\n            (_fundRaiseType != FundRaiseType.POLY || tierData.tokensDiscountPoly <= tierData.mintedDiscountPoly)\n        ) {\n            (tierSpentUSD, tierPurchasedTokens, gotoNextTier) = _purchaseTierAmount(tierData.rate, tierData.tokenTotal.sub(tierData.mintedTotal), _investedUSD);\n            spentUSD = spentUSD.add(tierSpentUSD);\n            tokensMinted = tokensMinted.add(tierPurchasedTokens);\n        }\n    }\n\n    function _purchaseTier(\n        address _beneficiary,\n        uint256 _tierPrice,\n        uint256 _tierRemaining,\n        uint256 _investedUSD,\n        uint256 _tier\n    )\n        internal\n        returns(uint256 spentUSD, uint256 purchasedTokens, bool gotoNextTier)\n    {\n        (spentUSD, purchasedTokens, gotoNextTier) = _purchaseTierAmount(_tierPrice, _tierRemaining, _investedUSD);\n        if (purchasedTokens > 0) {\n            require(ISecurityToken(securityToken).mint(_beneficiary, purchasedTokens), \"Error in minting\");\n            emit TokenPurchase(msg.sender, _beneficiary, purchasedTokens, spentUSD, _tierPrice, _tier);\n        }\n    }\n\n    function _purchaseTierAmount(\n        uint256 _tierPrice,\n        uint256 _tierRemaining,\n        uint256 _investedUSD\n    )\n        internal\n        view\n        returns(uint256 spentUSD, uint256 purchasedTokens, bool gotoNextTier)\n    {\n        uint256 maximumTokens = DecimalMath.div(_investedUSD, _tierPrice);\n        uint256 granularity = ISecurityToken(securityToken).granularity();\n        maximumTokens = maximumTokens.div(granularity);\n        maximumTokens = maximumTokens.mul(granularity);\n        if (maximumTokens > _tierRemaining) {\n            spentUSD = DecimalMath.mul(_tierRemaining, _tierPrice);\n            // In case of rounding issues, ensure that spentUSD is never more than investedUSD\n            if (spentUSD > _investedUSD) {\n                spentUSD = _investedUSD;\n            }\n            purchasedTokens = _tierRemaining;\n            gotoNextTier = true;\n        } else {\n            spentUSD = DecimalMath.mul(maximumTokens, _tierPrice);\n            purchasedTokens = maximumTokens;\n        }\n    }\n\n    /////////////\n    // Getters //\n    /////////////\n\n    /**\n     * @notice This function returns whether or not the STO is in fundraising mode (open)\n     * @return bool Whether the STO is accepting investments\n     */\n    function isOpen() public view returns(bool) {\n        if (isFinalized)\n            return false;\n        /*solium-disable-next-line security/no-block-members*/\n        if (now < startTime)\n            return false;\n        /*solium-disable-next-line security/no-block-members*/\n        if (now >= endTime)\n            return false;\n        if (capReached())\n            return false;\n        return true;\n    }\n\n    /**\n     * @notice Checks whether the cap has been reached.\n     * @return bool Whether the cap was reached\n     */\n    function capReached() public view returns (bool) {\n        if (isFinalized) {\n            return (finalAmountReturned == 0);\n        }\n        return (tiers[tiers.length - 1].mintedTotal == tiers[tiers.length - 1].tokenTotal);\n    }\n\n    /**\n     * @dev returns current conversion rate of funds\n     * @param _fundRaiseType Fund raise type to get rate of\n     */\n    function getRate(FundRaiseType _fundRaiseType) public view returns (uint256) {\n        if (_fundRaiseType == FundRaiseType.ETH) {\n            return IOracle(_getOracle(bytes32(\"ETH\"), bytes32(\"USD\"))).getPrice();\n        } else if (_fundRaiseType == FundRaiseType.POLY) {\n            return IOracle(_getOracle(bytes32(\"POLY\"), bytes32(\"USD\"))).getPrice();\n        } else if (_fundRaiseType == FundRaiseType.SC) {\n            return 1 * 10**18;\n        } else {\n            revert(\"Incorrect funding\");\n        }\n    }\n\n    /**\n     * @notice This function converts from ETH or POLY to USD\n     * @param _fundRaiseType Currency key\n     * @param _amount Value to convert to USD\n     * @return uint256 Value in USD\n     */\n    function convertToUSD(FundRaiseType _fundRaiseType, uint256 _amount) public view returns(uint256) {\n        uint256 rate = getRate(_fundRaiseType);\n        return DecimalMath.mul(_amount, rate);\n    }\n\n    /**\n     * @notice This function converts from USD to ETH or POLY\n     * @param _fundRaiseType Currency key\n     * @param _amount Value to convert from USD\n     * @return uint256 Value in ETH or POLY\n     */\n    function convertFromUSD(FundRaiseType _fundRaiseType, uint256 _amount) public view returns(uint256) {\n        uint256 rate = getRate(_fundRaiseType);\n        return DecimalMath.div(_amount, rate);\n    }\n\n    /**\n     * @notice Return the total no. of tokens sold\n     * @return uint256 Total number of tokens sold\n     */\n    function getTokensSold() public view returns (uint256) {\n        if (isFinalized)\n            return totalTokensSold;\n        else\n            return getTokensMinted();\n    }\n\n    /**\n     * @notice Return the total no. of tokens minted\n     * @return uint256 Total number of tokens minted\n     */\n    function getTokensMinted() public view returns (uint256) {\n        uint256 tokensMinted;\n        for (uint256 i = 0; i < tiers.length; i++) {\n            tokensMinted = tokensMinted.add(tiers[i].mintedTotal);\n        }\n        return tokensMinted;\n    }\n\n    /**\n     * @notice Return the total no. of tokens sold for the given fund raise type\n     * param _fundRaiseType The fund raising currency (e.g. ETH, POLY, SC) to calculate sold tokens for\n     * @return uint256 Total number of tokens sold for ETH\n     */\n    function getTokensSoldFor(FundRaiseType _fundRaiseType) public view returns (uint256) {\n        uint256 tokensSold;\n        for (uint256 i = 0; i < tiers.length; i++) {\n            tokensSold = tokensSold.add(tiers[i].minted[uint8(_fundRaiseType)]);\n        }\n        return tokensSold;\n    }\n\n    /**\n     * @notice Return array of minted tokens in each fund raise type for given tier\n     * param _tier The tier to return minted tokens for\n     * @return uint256[] array of minted tokens in each fund raise type\n     */\n    function getTokensMintedByTier(uint256 _tier) public view returns (uint256[]) {\n        require(_tier < tiers.length, \"Invalid tier\");\n        uint256[] memory tokensMinted = new uint256[](3);\n        tokensMinted[0] = tiers[_tier].minted[uint8(FundRaiseType.ETH)];\n        tokensMinted[1] = tiers[_tier].minted[uint8(FundRaiseType.POLY)];\n        tokensMinted[2] = tiers[_tier].minted[uint8(FundRaiseType.SC)];\n        return tokensMinted;\n    }\n\n    /**\n     * @notice Return the total no. of tokens sold in a given tier\n     * param _tier The tier to calculate sold tokens for\n     * @return uint256 Total number of tokens sold in the tier\n     */\n    function getTokensSoldByTier(uint256 _tier) public view returns (uint256) {\n        require(_tier < tiers.length, \"Incorrect tier\");\n        uint256 tokensSold;\n        tokensSold = tokensSold.add(tiers[_tier].minted[uint8(FundRaiseType.ETH)]);\n        tokensSold = tokensSold.add(tiers[_tier].minted[uint8(FundRaiseType.POLY)]);\n        tokensSold = tokensSold.add(tiers[_tier].minted[uint8(FundRaiseType.SC)]);\n        return tokensSold;\n    }\n\n    /**\n     * @notice Return the total no. of tiers\n     * @return uint256 Total number of tiers\n     */\n    function getNumberOfTiers() public view returns (uint256) {\n        return tiers.length;\n    }\n\n    /**\n     * @notice Return the usd tokens accepted by the STO\n     * @return address[] usd tokens\n     */\n    function getUsdTokens() public view returns (address[]) {\n        return usdTokens;\n    }\n\n    /**\n     * @notice Return the permissions flag that are associated with STO\n     */\n    function getPermissions() public view returns(bytes32[]) {\n        bytes32[] memory allPermissions = new bytes32[](0);\n        return allPermissions;\n    }\n\n    /**\n     * @notice Return the STO details\n     * @return Unixtimestamp at which offering gets start.\n     * @return Unixtimestamp at which offering ends.\n     * @return Currently active tier\n     * @return Array of Number of tokens this STO will be allowed to sell at different tiers.\n     * @return Array Rate at which tokens are sold at different tiers\n     * @return Amount of funds raised\n     * @return Number of individual investors this STO have.\n     * @return Amount of tokens sold.\n     * @return Array of bools to show if funding is allowed in ETH, POLY, SC respectively\n     */\n    function getSTODetails() public view returns(uint256, uint256, uint256, uint256[], uint256[], uint256, uint256, uint256, bool[]) {\n        uint256[] memory cap = new uint256[](tiers.length);\n        uint256[] memory rate = new uint256[](tiers.length);\n        for(uint256 i = 0; i < tiers.length; i++) {\n            cap[i] = tiers[i].tokenTotal;\n            rate[i] = tiers[i].rate;\n        }\n        bool[] memory _fundRaiseTypes = new bool[](3);\n        _fundRaiseTypes[0] = fundRaiseTypes[uint8(FundRaiseType.ETH)];\n        _fundRaiseTypes[1] = fundRaiseTypes[uint8(FundRaiseType.POLY)];\n        _fundRaiseTypes[2] = fundRaiseTypes[uint8(FundRaiseType.SC)];\n        return (\n            startTime,\n            endTime,\n            currentTier,\n            cap,\n            rate,\n            fundsRaisedUSD,\n            investorCount,\n            getTokensSold(),\n            _fundRaiseTypes\n        );\n    }\n\n    /**\n     * @notice This function returns the signature of configure function\n     * @return bytes4 Configure function signature\n     */\n    function getInitFunction() public pure returns (bytes4) {\n        return 0xeac2f9e4;\n    }\n\n    function _getOracle(bytes32 _currency, bytes32 _denominatedCurrency) internal view returns (address) {\n        return PolymathRegistry(RegistryUpdater(securityToken).polymathRegistry()).getAddress(oracleKeys[_currency][_denominatedCurrency]);\n    }\n\n}\n",
  "sourcePath": "/Users/polymath/polymath-core/contracts/modules/STO/USDTieredSTO.sol",
  "compiler": {
    "name": "solc",
    "version": "0.4.24+commit.e67f0147.Emscripten.clang"
  },
  "schemaVersion": "2.0.1",
  "updatedAt": "2019-01-07T17:35:19.005Z"
}