{
  "contractName": "USDTieredSTO",
  "abi": [
    {
      "constant": true,
      "inputs": [
        {
          "name": "",
          "type": "uint256"
        }
      ],
      "name": "tiers",
      "outputs": [
        {
          "name": "rate",
          "type": "uint256"
        },
        {
          "name": "rateDiscountPoly",
          "type": "uint256"
        },
        {
          "name": "tokenTotal",
          "type": "uint256"
        },
        {
          "name": "tokensDiscountPoly",
          "type": "uint256"
        },
        {
          "name": "mintedTotal",
          "type": "uint256"
        },
        {
          "name": "mintedDiscountPoly",
          "type": "uint256"
        }
      ],
      "payable": false,
      "stateMutability": "view",
      "type": "function"
    },
    {
      "constant": true,
      "inputs": [],
      "name": "allowBeneficialInvestments",
      "outputs": [
        {
          "name": "",
          "type": "bool"
        }
      ],
      "payable": false,
      "stateMutability": "view",
      "type": "function"
    },
    {
      "constant": true,
      "inputs": [],
      "name": "endTime",
      "outputs": [
        {
          "name": "",
          "type": "uint256"
        }
      ],
      "payable": false,
      "stateMutability": "view",
      "type": "function"
    },
    {
      "constant": false,
      "inputs": [],
      "name": "unpause",
      "outputs": [],
      "payable": false,
      "stateMutability": "nonpayable",
      "type": "function"
    },
    {
      "constant": true,
      "inputs": [],
      "name": "nonAccreditedLimitUSD",
      "outputs": [
        {
          "name": "",
          "type": "uint256"
        }
      ],
      "payable": false,
      "stateMutability": "view",
      "type": "function"
    },
    {
      "constant": true,
      "inputs": [],
      "name": "wallet",
      "outputs": [
        {
          "name": "",
          "type": "address"
        }
      ],
      "payable": false,
      "stateMutability": "view",
      "type": "function"
    },
    {
      "constant": true,
      "inputs": [],
      "name": "paused",
      "outputs": [
        {
          "name": "",
          "type": "bool"
        }
      ],
      "payable": false,
      "stateMutability": "view",
      "type": "function"
    },
    {
      "constant": false,
      "inputs": [
        {
          "name": "_amount",
          "type": "uint256"
        }
      ],
      "name": "takeFee",
      "outputs": [
        {
          "name": "",
          "type": "bool"
        }
      ],
      "payable": false,
      "stateMutability": "nonpayable",
      "type": "function"
    },
    {
      "constant": true,
      "inputs": [],
      "name": "totalTokensSold",
      "outputs": [
        {
          "name": "",
          "type": "uint256"
        }
      ],
      "payable": false,
      "stateMutability": "view",
      "type": "function"
    },
    {
      "constant": true,
      "inputs": [],
      "name": "finalAmountReturned",
      "outputs": [
        {
          "name": "",
          "type": "uint256"
        }
      ],
      "payable": false,
      "stateMutability": "view",
      "type": "function"
    },
    {
      "constant": true,
      "inputs": [],
      "name": "polyToken",
      "outputs": [
        {
          "name": "",
          "type": "address"
        }
      ],
      "payable": false,
      "stateMutability": "view",
      "type": "function"
    },
    {
      "constant": true,
      "inputs": [
        {
          "name": "",
          "type": "address"
        }
      ],
      "name": "stableCoinsRaised",
      "outputs": [
        {
          "name": "",
          "type": "uint256"
        }
      ],
      "payable": false,
      "stateMutability": "view",
      "type": "function"
    },
    {
      "constant": true,
      "inputs": [],
      "name": "startTime",
      "outputs": [
        {
          "name": "",
          "type": "uint256"
        }
      ],
      "payable": false,
      "stateMutability": "view",
      "type": "function"
    },
    {
      "constant": true,
      "inputs": [
        {
          "name": "",
          "type": "address"
        }
      ],
      "name": "accredited",
      "outputs": [
        {
          "name": "",
          "type": "bool"
        }
      ],
      "payable": false,
      "stateMutability": "view",
      "type": "function"
    },
    {
      "constant": false,
      "inputs": [],
      "name": "pause",
      "outputs": [],
      "payable": false,
      "stateMutability": "nonpayable",
      "type": "function"
    },
    {
      "constant": true,
      "inputs": [
        {
          "name": "",
          "type": "address"
        },
        {
          "name": "",
          "type": "uint8"
        }
      ],
      "name": "investorInvested",
      "outputs": [
        {
          "name": "",
          "type": "uint256"
        }
      ],
      "payable": false,
      "stateMutability": "view",
      "type": "function"
    },
    {
      "constant": false,
      "inputs": [
        {
          "name": "_tokenContract",
          "type": "address"
        }
      ],
      "name": "reclaimERC20",
      "outputs": [],
      "payable": false,
      "stateMutability": "nonpayable",
      "type": "function"
    },
    {
      "constant": true,
      "inputs": [
        {
          "name": "",
          "type": "address"
        }
      ],
      "name": "usdTokenEnabled",
      "outputs": [
        {
          "name": "",
          "type": "bool"
        }
      ],
      "payable": false,
      "stateMutability": "view",
      "type": "function"
    },
    {
      "constant": true,
      "inputs": [],
      "name": "isFinalized",
      "outputs": [
        {
          "name": "",
          "type": "bool"
        }
      ],
      "payable": false,
      "stateMutability": "view",
      "type": "function"
    },
    {
      "constant": true,
      "inputs": [],
      "name": "ETH_ORACLE",
      "outputs": [
        {
          "name": "",
          "type": "string"
        }
      ],
      "payable": false,
      "stateMutability": "view",
      "type": "function"
    },
    {
      "constant": true,
      "inputs": [
        {
          "name": "_fundRaiseType",
          "type": "uint8"
        }
      ],
      "name": "getRaised",
      "outputs": [
        {
          "name": "",
          "type": "uint256"
        }
      ],
      "payable": false,
      "stateMutability": "view",
      "type": "function"
    },
    {
      "constant": true,
      "inputs": [],
      "name": "POLY_ORACLE",
      "outputs": [
        {
          "name": "",
          "type": "string"
        }
      ],
      "payable": false,
      "stateMutability": "view",
      "type": "function"
    },
    {
      "constant": true,
      "inputs": [],
      "name": "pausedTime",
      "outputs": [
        {
          "name": "",
          "type": "uint256"
        }
      ],
      "payable": false,
      "stateMutability": "view",
      "type": "function"
    },
    {
      "constant": true,
      "inputs": [],
      "name": "securityToken",
      "outputs": [
        {
          "name": "",
          "type": "address"
        }
      ],
      "payable": false,
      "stateMutability": "view",
      "type": "function"
    },
    {
      "constant": true,
      "inputs": [
        {
          "name": "",
          "type": "uint256"
        }
      ],
      "name": "usdTokens",
      "outputs": [
        {
          "name": "",
          "type": "address"
        }
      ],
      "payable": false,
      "stateMutability": "view",
      "type": "function"
    },
    {
      "constant": true,
      "inputs": [],
      "name": "factory",
      "outputs": [
        {
          "name": "",
          "type": "address"
        }
      ],
      "payable": false,
      "stateMutability": "view",
      "type": "function"
    },
    {
      "constant": true,
      "inputs": [
        {
          "name": "",
          "type": "uint8"
        }
      ],
      "name": "fundsRaised",
      "outputs": [
        {
          "name": "",
          "type": "uint256"
        }
      ],
      "payable": false,
      "stateMutability": "view",
      "type": "function"
    },
    {
      "constant": true,
      "inputs": [
        {
          "name": "",
          "type": "address"
        }
      ],
      "name": "investorInvestedUSD",
      "outputs": [
        {
          "name": "",
          "type": "uint256"
        }
      ],
      "payable": false,
      "stateMutability": "view",
      "type": "function"
    },
    {
      "constant": true,
      "inputs": [
        {
          "name": "",
          "type": "uint8"
        }
      ],
      "name": "fundRaiseTypes",
      "outputs": [
        {
          "name": "",
          "type": "bool"
        }
      ],
      "payable": false,
      "stateMutability": "view",
      "type": "function"
    },
    {
      "constant": true,
      "inputs": [],
      "name": "currentTier",
      "outputs": [
        {
          "name": "",
          "type": "uint256"
        }
      ],
      "payable": false,
      "stateMutability": "view",
      "type": "function"
    },
    {
      "constant": true,
      "inputs": [],
      "name": "FEE_ADMIN",
      "outputs": [
        {
          "name": "",
          "type": "bytes32"
        }
      ],
      "payable": false,
      "stateMutability": "view",
      "type": "function"
    },
    {
      "constant": true,
      "inputs": [],
      "name": "reserveWallet",
      "outputs": [
        {
          "name": "",
          "type": "address"
        }
      ],
      "payable": false,
      "stateMutability": "view",
      "type": "function"
    },
    {
      "constant": true,
      "inputs": [],
      "name": "investorCount",
      "outputs": [
        {
          "name": "",
          "type": "uint256"
        }
      ],
      "payable": false,
      "stateMutability": "view",
      "type": "function"
    },
    {
      "constant": true,
      "inputs": [
        {
          "name": "",
          "type": "address"
        }
      ],
      "name": "nonAccreditedLimitUSDOverride",
      "outputs": [
        {
          "name": "",
          "type": "uint256"
        }
      ],
      "payable": false,
      "stateMutability": "view",
      "type": "function"
    },
    {
      "constant": true,
      "inputs": [],
      "name": "minimumInvestmentUSD",
      "outputs": [
        {
          "name": "",
          "type": "uint256"
        }
      ],
      "payable": false,
      "stateMutability": "view",
      "type": "function"
    },
    {
      "constant": true,
      "inputs": [],
      "name": "fundsRaisedUSD",
      "outputs": [
        {
          "name": "",
          "type": "uint256"
        }
      ],
      "payable": false,
      "stateMutability": "view",
      "type": "function"
    },
    {
      "inputs": [
        {
          "name": "_securityToken",
          "type": "address"
        },
        {
          "name": "_polyAddress",
          "type": "address"
        }
      ],
      "payable": false,
      "stateMutability": "nonpayable",
      "type": "constructor"
    },
    {
      "payable": true,
      "stateMutability": "payable",
      "type": "fallback"
    },
    {
      "anonymous": false,
      "inputs": [
        {
          "indexed": false,
          "name": "_allowed",
          "type": "bool"
        }
      ],
      "name": "SetAllowBeneficialInvestments",
      "type": "event"
    },
    {
      "anonymous": false,
      "inputs": [
        {
          "indexed": false,
          "name": "_investor",
          "type": "address"
        },
        {
          "indexed": false,
          "name": "_limit",
          "type": "uint256"
        }
      ],
      "name": "SetNonAccreditedLimit",
      "type": "event"
    },
    {
      "anonymous": false,
      "inputs": [
        {
          "indexed": false,
          "name": "_investor",
          "type": "address"
        },
        {
          "indexed": false,
          "name": "_accredited",
          "type": "bool"
        }
      ],
      "name": "SetAccredited",
      "type": "event"
    },
    {
      "anonymous": false,
      "inputs": [
        {
          "indexed": true,
          "name": "_purchaser",
          "type": "address"
        },
        {
          "indexed": true,
          "name": "_beneficiary",
          "type": "address"
        },
        {
          "indexed": false,
          "name": "_tokens",
          "type": "uint256"
        },
        {
          "indexed": false,
          "name": "_usdAmount",
          "type": "uint256"
        },
        {
          "indexed": false,
          "name": "_tierPrice",
          "type": "uint256"
        },
        {
          "indexed": false,
          "name": "_tier",
          "type": "uint256"
        }
      ],
      "name": "TokenPurchase",
      "type": "event"
    },
    {
      "anonymous": false,
      "inputs": [
        {
          "indexed": true,
          "name": "_purchaser",
          "type": "address"
        },
        {
          "indexed": true,
          "name": "_beneficiary",
          "type": "address"
        },
        {
          "indexed": false,
          "name": "_usdAmount",
          "type": "uint256"
        },
        {
          "indexed": false,
          "name": "_fundRaiseType",
          "type": "uint8"
        },
        {
          "indexed": false,
          "name": "_receivedValue",
          "type": "uint256"
        },
        {
          "indexed": false,
          "name": "_spentValue",
          "type": "uint256"
        },
        {
          "indexed": false,
          "name": "_rate",
          "type": "uint256"
        }
      ],
      "name": "FundsReceived",
      "type": "event"
    },
    {
      "anonymous": false,
      "inputs": [
        {
          "indexed": true,
          "name": "_owner",
          "type": "address"
        },
        {
          "indexed": true,
          "name": "_wallet",
          "type": "address"
        },
        {
          "indexed": false,
          "name": "_tokens",
          "type": "uint256"
        },
        {
          "indexed": false,
          "name": "_latestTier",
          "type": "uint256"
        }
      ],
      "name": "ReserveTokenMint",
      "type": "event"
    },
    {
      "anonymous": false,
      "inputs": [
        {
          "indexed": true,
          "name": "_wallet",
          "type": "address"
        },
        {
          "indexed": true,
          "name": "_reserveWallet",
          "type": "address"
        },
        {
          "indexed": false,
          "name": "_usdTokens",
          "type": "address[]"
        }
      ],
      "name": "SetAddresses",
      "type": "event"
    },
    {
      "anonymous": false,
      "inputs": [
        {
          "indexed": false,
          "name": "_nonAccreditedLimitUSD",
          "type": "uint256"
        },
        {
          "indexed": false,
          "name": "_minimumInvestmentUSD",
          "type": "uint256"
        }
      ],
      "name": "SetLimits",
      "type": "event"
    },
    {
      "anonymous": false,
      "inputs": [
        {
          "indexed": false,
          "name": "_startTime",
          "type": "uint256"
        },
        {
          "indexed": false,
          "name": "_endTime",
          "type": "uint256"
        }
      ],
      "name": "SetTimes",
      "type": "event"
    },
    {
      "anonymous": false,
      "inputs": [
        {
          "indexed": false,
          "name": "_ratePerTier",
          "type": "uint256[]"
        },
        {
          "indexed": false,
          "name": "_ratePerTierDiscountPoly",
          "type": "uint256[]"
        },
        {
          "indexed": false,
          "name": "_tokensPerTierTotal",
          "type": "uint256[]"
        },
        {
          "indexed": false,
          "name": "_tokensPerTierDiscountPoly",
          "type": "uint256[]"
        }
      ],
      "name": "SetTiers",
      "type": "event"
    },
    {
      "anonymous": false,
      "inputs": [
        {
          "indexed": false,
          "name": "_fundRaiseTypes",
          "type": "uint8[]"
        }
      ],
      "name": "SetFundRaiseTypes",
      "type": "event"
    },
    {
      "anonymous": false,
      "inputs": [
        {
          "indexed": false,
          "name": "_timestammp",
          "type": "uint256"
        }
      ],
      "name": "Pause",
      "type": "event"
    },
    {
      "anonymous": false,
      "inputs": [
        {
          "indexed": false,
          "name": "_timestamp",
          "type": "uint256"
        }
      ],
      "name": "Unpause",
      "type": "event"
    },
    {
      "constant": false,
      "inputs": [
        {
          "name": "_startTime",
          "type": "uint256"
        },
        {
          "name": "_endTime",
          "type": "uint256"
        },
        {
          "name": "_ratePerTier",
          "type": "uint256[]"
        },
        {
          "name": "_ratePerTierDiscountPoly",
          "type": "uint256[]"
        },
        {
          "name": "_tokensPerTierTotal",
          "type": "uint256[]"
        },
        {
          "name": "_tokensPerTierDiscountPoly",
          "type": "uint256[]"
        },
        {
          "name": "_nonAccreditedLimitUSD",
          "type": "uint256"
        },
        {
          "name": "_minimumInvestmentUSD",
          "type": "uint256"
        },
        {
          "name": "_fundRaiseTypes",
          "type": "uint8[]"
        },
        {
          "name": "_wallet",
          "type": "address"
        },
        {
          "name": "_reserveWallet",
          "type": "address"
        },
        {
          "name": "_usdTokens",
          "type": "address[]"
        }
      ],
      "name": "configure",
      "outputs": [],
      "payable": false,
      "stateMutability": "nonpayable",
      "type": "function"
    },
    {
      "constant": false,
      "inputs": [
        {
          "name": "_fundRaiseTypes",
          "type": "uint8[]"
        }
      ],
      "name": "modifyFunding",
      "outputs": [],
      "payable": false,
      "stateMutability": "nonpayable",
      "type": "function"
    },
    {
      "constant": false,
      "inputs": [
        {
          "name": "_nonAccreditedLimitUSD",
          "type": "uint256"
        },
        {
          "name": "_minimumInvestmentUSD",
          "type": "uint256"
        }
      ],
      "name": "modifyLimits",
      "outputs": [],
      "payable": false,
      "stateMutability": "nonpayable",
      "type": "function"
    },
    {
      "constant": false,
      "inputs": [
        {
          "name": "_ratePerTier",
          "type": "uint256[]"
        },
        {
          "name": "_ratePerTierDiscountPoly",
          "type": "uint256[]"
        },
        {
          "name": "_tokensPerTierTotal",
          "type": "uint256[]"
        },
        {
          "name": "_tokensPerTierDiscountPoly",
          "type": "uint256[]"
        }
      ],
      "name": "modifyTiers",
      "outputs": [],
      "payable": false,
      "stateMutability": "nonpayable",
      "type": "function"
    },
    {
      "constant": false,
      "inputs": [
        {
          "name": "_startTime",
          "type": "uint256"
        },
        {
          "name": "_endTime",
          "type": "uint256"
        }
      ],
      "name": "modifyTimes",
      "outputs": [],
      "payable": false,
      "stateMutability": "nonpayable",
      "type": "function"
    },
    {
      "constant": false,
      "inputs": [
        {
          "name": "_wallet",
          "type": "address"
        },
        {
          "name": "_reserveWallet",
          "type": "address"
        },
        {
          "name": "_usdTokens",
          "type": "address[]"
        }
      ],
      "name": "modifyAddresses",
      "outputs": [],
      "payable": false,
      "stateMutability": "nonpayable",
      "type": "function"
    },
    {
      "constant": false,
      "inputs": [],
      "name": "finalize",
      "outputs": [],
      "payable": false,
      "stateMutability": "nonpayable",
      "type": "function"
    },
    {
      "constant": false,
      "inputs": [
        {
          "name": "_investors",
          "type": "address[]"
        },
        {
          "name": "_accredited",
          "type": "bool[]"
        }
      ],
      "name": "changeAccredited",
      "outputs": [],
      "payable": false,
      "stateMutability": "nonpayable",
      "type": "function"
    },
    {
      "constant": false,
      "inputs": [
        {
          "name": "_investors",
          "type": "address[]"
        },
        {
          "name": "_nonAccreditedLimit",
          "type": "uint256[]"
        }
      ],
      "name": "changeNonAccreditedLimit",
      "outputs": [],
      "payable": false,
      "stateMutability": "nonpayable",
      "type": "function"
    },
    {
      "constant": false,
      "inputs": [
        {
          "name": "_allowBeneficialInvestments",
          "type": "bool"
        }
      ],
      "name": "changeAllowBeneficialInvestments",
      "outputs": [],
      "payable": false,
      "stateMutability": "nonpayable",
      "type": "function"
    },
    {
      "constant": false,
      "inputs": [
        {
          "name": "_beneficiary",
          "type": "address"
        }
      ],
      "name": "buyWithETH",
      "outputs": [],
      "payable": true,
      "stateMutability": "payable",
      "type": "function"
    },
    {
      "constant": false,
      "inputs": [
        {
          "name": "_beneficiary",
          "type": "address"
        },
        {
          "name": "_investedPOLY",
          "type": "uint256"
        }
      ],
      "name": "buyWithPOLY",
      "outputs": [],
      "payable": false,
      "stateMutability": "nonpayable",
      "type": "function"
    },
    {
      "constant": false,
      "inputs": [
        {
          "name": "_beneficiary",
          "type": "address"
        },
        {
          "name": "_investedSC",
          "type": "uint256"
        },
        {
          "name": "_usdToken",
          "type": "address"
        }
      ],
      "name": "buyWithUSD",
      "outputs": [],
      "payable": false,
      "stateMutability": "nonpayable",
      "type": "function"
    },
    {
      "constant": false,
      "inputs": [
        {
          "name": "_beneficiary",
          "type": "address"
        },
        {
          "name": "_minTokens",
          "type": "uint256"
        }
      ],
      "name": "buyWithETHRateLimited",
      "outputs": [],
      "payable": true,
      "stateMutability": "payable",
      "type": "function"
    },
    {
      "constant": false,
      "inputs": [
        {
          "name": "_beneficiary",
          "type": "address"
        },
        {
          "name": "_investedPOLY",
          "type": "uint256"
        },
        {
          "name": "_minTokens",
          "type": "uint256"
        }
      ],
      "name": "buyWithPOLYRateLimited",
      "outputs": [],
      "payable": false,
      "stateMutability": "nonpayable",
      "type": "function"
    },
    {
      "constant": false,
      "inputs": [
        {
          "name": "_beneficiary",
          "type": "address"
        },
        {
          "name": "_investedSC",
          "type": "uint256"
        },
        {
          "name": "_minTokens",
          "type": "uint256"
        },
        {
          "name": "_usdToken",
          "type": "address"
        }
      ],
      "name": "buyWithUSDRateLimited",
      "outputs": [],
      "payable": false,
      "stateMutability": "nonpayable",
      "type": "function"
    },
    {
      "constant": true,
      "inputs": [
        {
          "name": "_beneficiary",
          "type": "address"
        },
        {
          "name": "_investmentValue",
          "type": "uint256"
        },
        {
          "name": "_fundRaiseType",
          "type": "uint8"
        }
      ],
      "name": "buyTokensView",
      "outputs": [
        {
          "name": "spentUSD",
          "type": "uint256"
        },
        {
          "name": "spentValue",
          "type": "uint256"
        },
        {
          "name": "tokensMinted",
          "type": "uint256"
        }
      ],
      "payable": false,
      "stateMutability": "view",
      "type": "function"
    },
    {
      "constant": true,
      "inputs": [],
      "name": "isOpen",
      "outputs": [
        {
          "name": "",
          "type": "bool"
        }
      ],
      "payable": false,
      "stateMutability": "view",
      "type": "function"
    },
    {
      "constant": true,
      "inputs": [],
      "name": "capReached",
      "outputs": [
        {
          "name": "",
          "type": "bool"
        }
      ],
      "payable": false,
      "stateMutability": "view",
      "type": "function"
    },
    {
      "constant": true,
      "inputs": [
        {
          "name": "_fundRaiseType",
          "type": "uint8"
        }
      ],
      "name": "getRate",
      "outputs": [
        {
          "name": "",
          "type": "uint256"
        }
      ],
      "payable": false,
      "stateMutability": "view",
      "type": "function"
    },
    {
      "constant": true,
      "inputs": [
        {
          "name": "_fundRaiseType",
          "type": "uint8"
        },
        {
          "name": "_amount",
          "type": "uint256"
        }
      ],
      "name": "convertToUSD",
      "outputs": [
        {
          "name": "",
          "type": "uint256"
        }
      ],
      "payable": false,
      "stateMutability": "view",
      "type": "function"
    },
    {
      "constant": true,
      "inputs": [
        {
          "name": "_fundRaiseType",
          "type": "uint8"
        },
        {
          "name": "_amount",
          "type": "uint256"
        }
      ],
      "name": "convertFromUSD",
      "outputs": [
        {
          "name": "",
          "type": "uint256"
        }
      ],
      "payable": false,
      "stateMutability": "view",
      "type": "function"
    },
    {
      "constant": true,
      "inputs": [],
      "name": "getTokensSold",
      "outputs": [
        {
          "name": "",
          "type": "uint256"
        }
      ],
      "payable": false,
      "stateMutability": "view",
      "type": "function"
    },
    {
      "constant": true,
      "inputs": [],
      "name": "getTokensMinted",
      "outputs": [
        {
          "name": "",
          "type": "uint256"
        }
      ],
      "payable": false,
      "stateMutability": "view",
      "type": "function"
    },
    {
      "constant": true,
      "inputs": [
        {
          "name": "_fundRaiseType",
          "type": "uint8"
        }
      ],
      "name": "getTokensSoldFor",
      "outputs": [
        {
          "name": "",
          "type": "uint256"
        }
      ],
      "payable": false,
      "stateMutability": "view",
      "type": "function"
    },
    {
      "constant": true,
      "inputs": [
        {
          "name": "_tier",
          "type": "uint256"
        }
      ],
      "name": "getTokensMintedByTier",
      "outputs": [
        {
          "name": "",
          "type": "uint256[]"
        }
      ],
      "payable": false,
      "stateMutability": "view",
      "type": "function"
    },
    {
      "constant": true,
      "inputs": [
        {
          "name": "_tier",
          "type": "uint256"
        }
      ],
      "name": "getTokensSoldByTier",
      "outputs": [
        {
          "name": "",
          "type": "uint256"
        }
      ],
      "payable": false,
      "stateMutability": "view",
      "type": "function"
    },
    {
      "constant": true,
      "inputs": [],
      "name": "getNumberOfTiers",
      "outputs": [
        {
          "name": "",
          "type": "uint256"
        }
      ],
      "payable": false,
      "stateMutability": "view",
      "type": "function"
    },
    {
      "constant": true,
      "inputs": [],
      "name": "getUsdTokens",
      "outputs": [
        {
          "name": "",
          "type": "address[]"
        }
      ],
      "payable": false,
      "stateMutability": "view",
      "type": "function"
    },
    {
      "constant": true,
      "inputs": [],
      "name": "getPermissions",
      "outputs": [
        {
          "name": "",
          "type": "bytes32[]"
        }
      ],
      "payable": false,
      "stateMutability": "view",
      "type": "function"
    },
    {
      "constant": true,
      "inputs": [],
      "name": "getSTODetails",
      "outputs": [
        {
          "name": "",
          "type": "uint256"
        },
        {
          "name": "",
          "type": "uint256"
        },
        {
          "name": "",
          "type": "uint256"
        },
        {
          "name": "",
          "type": "uint256[]"
        },
        {
          "name": "",
          "type": "uint256[]"
        },
        {
          "name": "",
          "type": "uint256"
        },
        {
          "name": "",
          "type": "uint256"
        },
        {
          "name": "",
          "type": "uint256"
        },
        {
          "name": "",
          "type": "bool[]"
        }
      ],
      "payable": false,
      "stateMutability": "view",
      "type": "function"
    },
    {
      "constant": true,
      "inputs": [],
      "name": "getInitFunction",
      "outputs": [
        {
          "name": "",
          "type": "bytes4"
        }
      ],
      "payable": false,
      "stateMutability": "pure",
      "type": "function"
    }
  ],
  "bytecode": "0x60806040526001805460ff19169055601a805460a060020a61ffff021916905534801561002b57600080fd5b5060405160408062005b6a83398101604052805160209091015160198054600160a060020a03938416600160a060020a03199182161790915560188054821633179055601a8054939092169216919091179055615adc806200008e6000396000f3006080604052600436106103085763ffffffff60e060020a6000350416630282a9188114610315578063039af9eb1461035d5780630845c46b146103a85780631040dc27146103d25780631613ec9d146104ef57806316d5ae7f146105395780632df413e2146105a15780633197cbb6146105ca5780633a3adf87146105df5780633a4fd45c146105fa5780633f4ba83a1461060f578063441b9e4a14610624578063444aa92f1461063e57806347535d7b146106525780634b385a42146106675780634bb278f31461067c5780634f93594514610691578063521eb273146106a65780635b66629d146106d75780635c82d32e146106fb5780635c975abb146107225780635f7619a41461073757806363b201171461074f5780636ba6c0ed146107645780636c41027f146107795780636dd053f41461078e5780636faa22a5146107bd57806370dc8752146107d257806377de90391461081657806378e9792514610837578063795fe0af1461084c5780637b06bc7c146108775780638320fc4e146108985780638456cb5914610926578063877baeaa1461093b5780638784b1c2146109595780638905fd4f146109805780638ac5f55e146109a15780638c9844cb146109c25780638d4e4083146109e057806397a8feee146109f55780639a7cc13514610a7f578063a1530a4414610a9a578063a8955ed614610acf578063b2cca39d14610ae4578063b391844614610af9578063b39f8ae414610b14578063b7ebae0b14610b2f578063b84dfbd214610b4a578063b98035c114610b5f578063bf11664814610b77578063c3a07df614610b97578063c45a015514610bac578063c4d2c6bd14610bc1578063c513933814610bdc578063cf789d0b14610bfd578063d143a37914610c14578063d679677a14610c2f578063d69f6bae14610c44578063d70afa9614610c59578063d72b11bd14610c6e578063d7e64c0014610c83578063eaa32c4014610c98578063eac2f9e414610cb9578063ec47740f14610e5f578063ee7c0db014610e74578063fbe8d9fe14610e89578063ff18ead314610f17575b610313336000610f2c565b005b34801561032157600080fd5b5061033f600160a060020a036004351660243560ff6044351661127c565b60408051938452602084019290925282820152519081900360600190f35b34801561036957600080fd5b5061037560043561140c565b604080519687526020870195909552858501939093526060850191909152608084015260a0830152519081900360c00190f35b3480156103b457600080fd5b506103c0600435611450565b60408051918252519081900360200190f35b3480156103de57600080fd5b506103e7611559565b604051808a815260200189815260200188815260200180602001806020018781526020018681526020018581526020018060200184810384528a818151815260200191508051906020019060200280838360005b8381101561045357818101518382015260200161043b565b50505050905001848103835289818151815260200191508051906020019060200280838360005b8381101561049257818101518382015260200161047a565b50505050905001848103825285818151815260200191508051906020019060200280838360005b838110156104d15781810151838201526020016104b9565b505050509050019c5050505050505050505050505060405180910390f35b3480156104fb57600080fd5b506105046117a1565b604080517fffffffff000000000000000000000000000000000000000000000000000000009092168252519081900360200190f35b34801561054557600080fd5b506105516004356117c6565b60408051602080825283518183015283519192839290830191858101910280838360005b8381101561058d578181015183820152602001610575565b505050509050019250505060405180910390f35b3480156105ad57600080fd5b506105b6611921565b604080519115158252519081900360200190f35b3480156105d657600080fd5b506103c061192a565b3480156105eb57600080fd5b50610313600435602435611930565b34801561060657600080fd5b506103c0611a51565b34801561061b57600080fd5b50610313611a57565b34801561063057600080fd5b506103136004351515611b2d565b610313600160a060020a0360043516611ca6565b34801561065e57600080fd5b506105b6611cb4565b34801561067357600080fd5b506103c0611d0d565b34801561068857600080fd5b50610313611d13565b34801561069d57600080fd5b506105b66120a3565b3480156106b257600080fd5b506106bb612110565b60408051600160a060020a039092168252519081900360200190f35b3480156106e357600080fd5b50610313600160a060020a036004351660243561211f565b34801561070757600080fd5b50610313600160a060020a0360043516602435604435612127565b34801561072e57600080fd5b506105b6612263565b34801561074357600080fd5b506105b6600435612273565b34801561075b57600080fd5b506103c06125b3565b34801561077057600080fd5b506105516125b9565b34801561078557600080fd5b506103c061261b565b34801561079a57600080fd5b50610313600160a060020a03600435811690602435906044359060643516612621565b3480156107c957600080fd5b506106bb6126e1565b3480156107de57600080fd5b5061031360246004803582810192908201359181358083019290820135916044358083019290820135916064359182019101356126f0565b34801561082257600080fd5b506103c0600160a060020a03600435166128c4565b34801561084357600080fd5b506103c06128d6565b34801561085857600080fd5b50610313600160a060020a0360043581169060243590604435166128dc565b34801561088357600080fd5b506105b6600160a060020a03600435166128e9565b3480156108a457600080fd5b506040805160206004803580820135838102808601850190965280855261031395369593946024949385019291829185019084908082843750506040805187358901803560208181028481018201909552818452989b9a9989019892975090820195509350839250850190849080828437509497506128fe9650505050505050565b34801561093257600080fd5b50610313612b17565b34801561094757600080fd5b506103c060ff60043516602435612c44565b34801561096557600080fd5b506103c0600160a060020a036004351660ff60243516612c64565b34801561098c57600080fd5b50610313600160a060020a0360043516612c81565b3480156109ad57600080fd5b506105b6600160a060020a0360043516612f2e565b3480156109ce57600080fd5b506103c060ff60043516602435612f43565b3480156109ec57600080fd5b506105b6612f5b565b348015610a0157600080fd5b50610a0a612f69565b6040805160208082528351818301528351919283929083019185019080838360005b83811015610a44578181015183820152602001610a2c565b50505050905090810190601f168015610a715780820380516001836020036101000a031916815260200191505b509250505060405180910390f35b348015610a8b57600080fd5b506103c060ff60043516612fa0565b348015610aa657600080fd5b50610313600160a060020a03600480358216916024803590911691604435918201910135612fcf565b348015610adb57600080fd5b50610a0a6130d9565b348015610af057600080fd5b506103c0613110565b348015610b0557600080fd5b506103c060ff60043516613116565b348015610b2057600080fd5b50610313600435602435613188565b348015610b3b57600080fd5b506103c060ff600435166132a5565b348015610b5657600080fd5b506106bb613417565b348015610b6b57600080fd5b506106bb600435613426565b348015610b8357600080fd5b50610313600480356024810191013561344e565b348015610ba357600080fd5b50610551613597565b348015610bb857600080fd5b506106bb6135ac565b348015610bcd57600080fd5b506103c060ff600435166135bb565b348015610be857600080fd5b506103c0600160a060020a03600435166135cd565b610313600160a060020a0360043516602435610f2c565b348015610c2057600080fd5b506105b660ff600435166135df565b348015610c3b57600080fd5b506103c06135f4565b348015610c5057600080fd5b506103c06135fa565b348015610c6557600080fd5b506103c061364c565b348015610c7a57600080fd5b506106bb613670565b348015610c8f57600080fd5b506103c061367f565b348015610ca457600080fd5b506103c0600160a060020a0360043516613685565b348015610cc557600080fd5b506040805160206004604435818101358381028086018501909652808552610313958335956024803596369695606495939492019291829185019084908082843750506040805187358901803560208181028481018201909552818452989b9a998901989297509082019550935083925085019084908082843750506040805187358901803560208181028481018201909552818452989b9a998901989297509082019550935083925085019084908082843750506040805187358901803560208181028481018201909552818452989b9a9989019892975090820195509350839250850190849080828437505060408051818801358901803560208181028481018201909552818452989b8a359b8a8c01359b919a909950606090910197509295509082019350918291850190849080828437505060408051818801358901803560208181028481018201909552818452989b600160a060020a038b3581169c8b8d01359091169b919a909950606090910197509295509082019350918291850190849080828437509497506136979650505050505050565b348015610e6b57600080fd5b506103c06138bd565b348015610e8057600080fd5b506103c06138c3565b348015610e9557600080fd5b506040805160206004803580820135838102808601850190965280855261031395369593946024949385019291829185019084908082843750506040805187358901803560208181028481018201909552818452989b9a9989019892975090820195509350839250850190849080828437509497506138ee9650505050505050565b348015610f2357600080fd5b506103c0613b61565b600080808080610f657f455448000000000000000000000000000000000000000000000000000000000060ea60020a621554d102613b67565b600160a060020a03161415610fc4576040805160e560020a62461bcd02815260206004820152600e60248201527f496e76616c6964204f7261636c65000000000000000000000000000000000000604482015290519081900360640190fd5b6000805260106020527f6e0956cda88cad152e89927e53611735b61a5c762d1428573c6931b0a5efcb015460ff161515611048576040805160e560020a62461bcd02815260206004820152600f60248201527f455448206e6f7420616c6c6f7765640000000000000000000000000000000000604482015290519081900360640190fd5b61105260006132a5565b935061105c6135fa565b925061106b8634866000613d12565b91509150846110888461107c6135fa565b9063ffffffff613fca16565b10156110de576040805160e560020a62461bcd02815260206004820152601a60248201527f496e73756666696369656e7420746f6b656e73206d696e746564000000000000604482015290519081900360640190fd5b600160a060020a038616600090815260086020526040812061111f91839190805b60ff1681526020810191909152604001600020549063ffffffff613fdc16565b600160a060020a0387166000908152600860209081526040808320838052909152812091909155611155908290601190806110ff565b600080805260116020527f4ad3b33220dddc71b994a52d72c06b10862965f7d926534c05c00fb7e819e7b791909155601654604051600160a060020a03909116916108fc841502918491818181858888f193505050501580156111bc573d6000803e3d6000fd5b50336108fc6111d1348463ffffffff613fca16565b6040518115909202916000818181858888f193505050501580156111f9573d6000803e3d6000fd5b5085600160a060020a031633600160a060020a03167fa5a66b45c30fa6510eb2c3ccbe3c500d21863c7cc3e37d2dc85bb28db7775bd184600034868a6040518086815260200185600281111561124b57fe5b60ff1681526020018481526020018381526020018281526020019550505050505060405180910390a3505050505050565b600080808080808080808060018b600281111561129557fe5b14806112ac575060028b60028111156112aa57fe5b145b806112c2575060008b60028111156112c057fe5b145b1515611318576040805160e560020a62461bcd02815260206004820152601260248201527f496e76616c696420726169736520747970650000000000000000000000000000604482015290519081900360640190fd5b6113218b6132a5565b965061132d878d613fe9565b955061133a8d8d88614020565b945060045493505b600f548410156113f057600f80548590811061135a57fe5b906000526020600020906007020160020154600f8581548110151561137b57fe5b90600052602060002090600702016004015410156113e5576113ad846113a7878d63ffffffff613fca16565b8d6142e6565b90945090925090506113c58a8363ffffffff613fdc16565b99506113d7888263ffffffff613fdc16565b97508215156113e5576113f0565b600190930192611342565b6113fa8a8861448b565b98505050505050505093509350939050565b600f80548290811061141a57fe5b60009182526020909120600790910201805460018201546002830154600384015460048501546006909501549395509193909286565b600f54600090819083106114ae576040805160e560020a62461bcd02815260206004820152600e60248201527f496e636f72726563742074696572000000000000000000000000000000000000604482015290519081900360640190fd5b6114f6600f848154811015156114c057fe5b60009182526020822060056007909202010190805b60ff168152602081019190915260400160002054829063ffffffff613fdc16565b9050611524600f8481548110151561150a57fe5b6000918252602082206005600790920201019060016114d5565b9050611552600f8481548110151561153857fe5b6000918252602082206005600790920201019060026114d5565b9392505050565b60008060006060806000806000606080606060006060600f8054905060405190808252806020026020018201604052801561159e578160200160208202803883390190505b50600f5460408051828152602080840282010190915291955080156115cd578160200160208202803883390190505b509250600091505b600f5482101561165a57600f8054839081106115ed57fe5b906000526020600020906007020160020154848381518110151561160d57fe5b60209081029091010152600f80548390811061162557fe5b906000526020600020906007020160000154838381518110151561164557fe5b602090810290910101526001909101906115d5565b6040805160038082526080820190925290602082016060803883395050600080805260106020527f6e0956cda88cad152e89927e53611735b61a5c762d1428573c6931b0a5efcb0154835193945060ff169284925081106116b757fe5b9115156020928302919091018201526001600081905260109091527f8c6065603763fec3f5742441d3833f3f43b982453612d76adb39a885e3006b5f54825160ff909116918391811061170657fe5b9115156020928302919091018201526002600081905260109091527f853b2fefe141400fef543280f93d98bd49996069f632d0d20236afeeed8e46a254825160ff909116918391811061175557fe5b9115156020928302909101909101526012546013546004546005546015548891889161177f6138c3565b889c509c509c509c509c509c509c509c509c5050505050909192939495969798565b7feac2f9e4000000000000000000000000000000000000000000000000000000005b90565b600f5460609081908310611824576040805160e560020a62461bcd02815260206004820152600c60248201527f496e76616c696420746965720000000000000000000000000000000000000000604482015290519081900360640190fd5b604080516003808252608082019092529060208201606080388339019050509050600f8381548110151561185457fe5b6000918252602080832083805260079290920290910160050190526040812054825190918391811061188257fe5b60209081029091010152600f80548490811061189a57fe5b60009182526020808320600180855260079390930201600501905260409091205482519091839181106118c957fe5b60209081029091010152600f8054849081106118e157fe5b600091825260208083206002808552600793909302016005019052604090912054825190918391811061191057fe5b602090810290910101529050919050565b60015460ff1681565b60135481565b601960009054906101000a9004600160a060020a0316600160a060020a0316638da5cb5b6040518163ffffffff1660e060020a028152600401602060405180830381600087803b15801561198357600080fd5b505af1158015611997573d6000803e3d6000fd5b505050506040513d60208110156119ad57600080fd5b5051600160a060020a031633146119fc576040805160e560020a62461bcd0281526020600482015260136024820152600080516020615a91833981519152604482015290519081900360640190fd5b6012544210611a43576040805160e560020a62461bcd0281526020600482015260136024820152600080516020615a71833981519152604482015290519081900360640190fd5b611a4d82826144ac565b5050565b600f5490565b601960009054906101000a9004600160a060020a0316600160a060020a0316638da5cb5b6040518163ffffffff1660e060020a028152600401602060405180830381600087803b158015611aaa57600080fd5b505af1158015611abe573d6000803e3d6000fd5b505050506040513d6020811015611ad457600080fd5b5051600160a060020a03163314611b23576040805160e560020a62461bcd0281526020600482015260136024820152600080516020615a91833981519152604482015290519081900360640190fd5b611b2b6144f5565b565b601960009054906101000a9004600160a060020a0316600160a060020a0316638da5cb5b6040518163ffffffff1660e060020a028152600401602060405180830381600087803b158015611b8057600080fd5b505af1158015611b94573d6000803e3d6000fd5b505050506040513d6020811015611baa57600080fd5b5051600160a060020a03163314611bf9576040805160e560020a62461bcd0281526020600482015260136024820152600080516020615a91833981519152604482015290519081900360640190fd5b60015460ff1615158115151415611c5a576040805160e560020a62461bcd02815260206004820152600f60248201527f56616c756520756e6368616e6765640000000000000000000000000000000000604482015290519081900360640190fd5b6001805460ff191682151517908190556040805160ff90921615158252517fea6eddcb8f2bf55dfb29aef4bd48214ef0798b9eae2e1bbb25dac99ecf6da6ae916020908290030190a150565b611cb1816000610f2c565b50565b600154600090610100900460ff1615611ccf575060006117c3565b601254421015611ce1575060006117c3565b6013544210611cf2575060006117c3565b611cfa6120a3565b15611d07575060006117c3565b50600190565b600b5481565b600080600080601960009054906101000a9004600160a060020a0316600160a060020a0316638da5cb5b6040518163ffffffff1660e060020a028152600401602060405180830381600087803b158015611d6c57600080fd5b505af1158015611d80573d6000803e3d6000fd5b505050506040513d6020811015611d9657600080fd5b5051600160a060020a03163314611de5576040805160e560020a62461bcd0281526020600482015260136024820152600080516020615a91833981519152604482015290519081900360640190fd5b600154610100900460ff1615611e45576040805160e560020a62461bcd02815260206004820152601860248201527f53544f20697320616c72656164792066696e616c697a65640000000000000000604482015290519081900360640190fd5b506001805461ff00191661010017905560005b600f54811015611f5457611eb5600f82815481101515611e7457fe5b906000526020600020906007020160040154600f83815481101515611e9557fe5b906000526020600020906007020160020154613fca90919063ffffffff16565b9150611ec7848363ffffffff613fdc16565b9350611efc600f82815481101515611edb57fe5b90600052602060002090600702016004015484613fdc90919063ffffffff16565b92506000821115611f4c57600f805482908110611f1557fe5b906000526020600020906007020160020154600f82815481101515611f3657fe5b9060005260206000209060070201600401819055505b600101611e58565b601954600254604080517f40c10f19000000000000000000000000000000000000000000000000000000008152600160a060020a03928316600482015260248101889052905191909216916340c10f199160448083019260209291908290030181600087803b158015611fc657600080fd5b505af1158015611fda573d6000803e3d6000fd5b505050506040513d6020811015611ff057600080fd5b50511515612048576040805160e560020a62461bcd02815260206004820152601060248201527f4572726f7220696e206d696e74696e6700000000000000000000000000000000604482015290519081900360640190fd5b6002546004546040805187815260208101929092528051600160a060020a039093169233927f2e16431844933795a4d33f27d6b8347133a6fb5fa7dcdf51d555906f6d8b705492908290030190a35050600e91909155601755565b600154600090610100900460ff16156120c05750600e54156117c3565b600f805460001981019081106120d257fe5b6000918252602090912060026007909202010154600f805460001981019081106120f857fe5b90600052602060002090600702016004015414905090565b601654600160a060020a031681565b611a4d828260005b600061215c7f504f4c590000000000000000000000000000000000000000000000000000000060ea60020a621554d102613b67565b600160a060020a031614156121bb576040805160e560020a62461bcd02815260206004820152600e60248201527f496e76616c6964204f7261636c65000000000000000000000000000000000000604482015290519081900360640190fd5b600160005260106020527f8c6065603763fec3f5742441d3833f3f43b982453612d76adb39a885e3006b5f5460ff161515612240576040805160e560020a62461bcd02815260206004820152601060248201527f504f4c59206e6f7420616c6c6f77656400000000000000000000000000000000604482015290519081900360640190fd5b601a5461225e90849084906001908590600160a060020a03166145ab565b505050565b601a5460a060020a900460ff1681565b60007f4645455f41444d494e0000000000000000000000000000000000000000000000600080601960009054906101000a9004600160a060020a0316600160a060020a0316638da5cb5b6040518163ffffffff1660e060020a028152600401602060405180830381600087803b1580156122ec57600080fd5b505af1158015612300573d6000803e3d6000fd5b505050506040513d602081101561231657600080fd5b505160185433600160a060020a0392831681149450911614905081806123395750805b806123df5750601954604080517f8658b8b9000000000000000000000000000000000000000000000000000000008152336004820152306024820152604481018690529051600160a060020a0390921691638658b8b9916064808201926020929091908290030181600087803b1580156123b257600080fd5b505af11580156123c6573d6000803e3d6000fd5b505050506040513d60208110156123dc57600080fd5b50515b1515612435576040805160e560020a62461bcd02815260206004820152601760248201527f5065726d697373696f6e20636865636b206661696c6564000000000000000000604482015290519081900360640190fd5b601a54601954601854604080517f8da5cb5b0000000000000000000000000000000000000000000000000000000081529051600160a060020a03948516946323b872dd948116931691638da5cb5b9160048083019260209291908290030181600087803b1580156124a557600080fd5b505af11580156124b9573d6000803e3d6000fd5b505050506040513d60208110156124cf57600080fd5b50516040805160e060020a63ffffffff8616028152600160a060020a039384166004820152929091166024830152604482018990525160648083019260209291908290030181600087803b15801561252657600080fd5b505af115801561253a573d6000803e3d6000fd5b505050506040513d602081101561255057600080fd5b505115156125a8576040805160e560020a62461bcd02815260206004820152601260248201527f556e61626c6520746f2074616b65206665650000000000000000000000000000604482015290519081900360640190fd5b506001949350505050565b60175481565b6060600380548060200260200160405190810160405280929190818152602001828054801561261157602002820191906000526020600020905b8154600160a060020a031681526001909101906020018083116125f3575b5050505050905090565b600e5481565b600260005260106020527f853b2fefe141400fef543280f93d98bd49996069f632d0d20236afeeed8e46a254819060ff1680156126765750600160a060020a0381166000908152600a602052604090205460ff165b15156126cc576040805160e560020a62461bcd02815260206004820152600f60248201527f555344206e6f7420616c6c6f7765640000000000000000000000000000000000604482015290519081900360640190fd5b6126da8585600286866145ab565b5050505050565b601a54600160a060020a031681565b601960009054906101000a9004600160a060020a0316600160a060020a0316638da5cb5b6040518163ffffffff1660e060020a028152600401602060405180830381600087803b15801561274357600080fd5b505af1158015612757573d6000803e3d6000fd5b505050506040513d602081101561276d57600080fd5b5051600160a060020a031633146127bc576040805160e560020a62461bcd0281526020600482015260136024820152600080516020615a91833981519152604482015290519081900360640190fd5b6012544210612803576040805160e560020a62461bcd0281526020600482015260136024820152600080516020615a71833981519152604482015290519081900360640190fd5b6128ba8888808060200260200160405190810160405280939291908181526020018383602002808284375050604080516020808e0282810182019093528d82529095508d94508c93508392508501908490808284375050604080516020808d0282810182019093528c82529095508c94508b93508392508501908490808284375050604080516020808c0282810182019093528b82529095508b94508a935083925085019084908082843750614926945050505050565b5050505050505050565b60066020526000908152604090205481565b60125481565b61225e8383600084612621565b60096020526000908152604090205460ff1681565b601954604080517f8da5cb5b0000000000000000000000000000000000000000000000000000000081529051600092600160a060020a031691638da5cb5b91600480830192602092919082900301818787803b15801561295d57600080fd5b505af1158015612971573d6000803e3d6000fd5b505050506040513d602081101561298757600080fd5b5051600160a060020a031633146129d6576040805160e560020a62461bcd0281526020600482015260136024820152600080516020615a91833981519152604482015290519081900360640190fd5b8151835114612a2f576040805160e560020a62461bcd02815260206004820152601560248201527f4172726179206c656e677468206d69736d617463680000000000000000000000604482015290519081900360640190fd5b5060005b825181101561225e578181815181101515612a4a57fe5b90602001906020020151600960008584815181101515612a6657fe5b602090810291909101810151600160a060020a03168252810191909152604001600020805460ff191691151591909117905582517f5bc4e4d4bde98d5a327e2a911b87c042b79ec57d32ddca3bf73e76cdc77de7eb90849083908110612ac857fe5b906020019060200201518383815181101515612ae057fe5b602090810290910181015160408051600160a060020a039094168452901515918301919091528051918290030190a1600101612a33565b601960009054906101000a9004600160a060020a0316600160a060020a0316638da5cb5b6040518163ffffffff1660e060020a028152600401602060405180830381600087803b158015612b6a57600080fd5b505af1158015612b7e573d6000803e3d6000fd5b505050506040513d6020811015612b9457600080fd5b5051600160a060020a03163314612be3576040805160e560020a62461bcd0281526020600482015260136024820152600080516020615a91833981519152604482015290519081900360640190fd5b6013544210612c3c576040805160e560020a62461bcd02815260206004820152601660248201527f53544f20686173206265656e2066696e616c697a656400000000000000000000604482015290519081900360640190fd5b611b2b614e2a565b600080612c50846132a5565b9050612c5c8382613fe9565b949350505050565b600860209081526000928352604080842090915290825290205481565b600080601960009054906101000a9004600160a060020a0316600160a060020a0316638da5cb5b6040518163ffffffff1660e060020a028152600401602060405180830381600087803b158015612cd757600080fd5b505af1158015612ceb573d6000803e3d6000fd5b505050506040513d6020811015612d0157600080fd5b5051600160a060020a03163314612d50576040805160e560020a62461bcd0281526020600482015260136024820152600080516020615a91833981519152604482015290519081900360640190fd5b600160a060020a0383161515612db0576040805160e560020a62461bcd02815260206004820152600f60248201527f496e76616c696420616464726573730000000000000000000000000000000000604482015290519081900360640190fd5b604080517f70a082310000000000000000000000000000000000000000000000000000000081523060048201529051849350600160a060020a038416916370a082319160248083019260209291908290030181600087803b158015612e1457600080fd5b505af1158015612e28573d6000803e3d6000fd5b505050506040513d6020811015612e3e57600080fd5b5051604080517fa9059cbb000000000000000000000000000000000000000000000000000000008152336004820152602481018390529051919250600160a060020a0384169163a9059cbb916044808201926020929091908290030181600087803b158015612eac57600080fd5b505af1158015612ec0573d6000803e3d6000fd5b505050506040513d6020811015612ed657600080fd5b5051151561225e576040805160e560020a62461bcd02815260206004820152600f60248201527f5472616e73666572206661696c65640000000000000000000000000000000000604482015290519081900360640190fd5b600a6020526000908152604090205460ff1681565b600080612f4f846132a5565b9050612c5c838261448b565b600154610100900460ff1681565b60408051808201909152600c81527f4574685573644f7261636c650000000000000000000000000000000000000000602082015281565b600060116000836002811115612fb257fe5b60ff1660ff1681526020019081526020016000205490505b919050565b601960009054906101000a9004600160a060020a0316600160a060020a0316638da5cb5b6040518163ffffffff1660e060020a028152600401602060405180830381600087803b15801561302257600080fd5b505af1158015613036573d6000803e3d6000fd5b505050506040513d602081101561304c57600080fd5b5051600160a060020a0316331461309b576040805160e560020a62461bcd0281526020600482015260136024820152600080516020615a91833981519152604482015290519081900360640190fd5b6130d3848484848080602002602001604051908101604052809392919081815260200183836020028082843750614ee5945050505050565b50505050565b60408051808201909152600d81527f506f6c795573644f7261636c6500000000000000000000000000000000000000602082015281565b60145481565b600080805b600f5481101561318157613177600f8281548110151561313757fe5b9060005260206000209060070201600501600086600281111561315657fe5b60ff168152602081019190915260400160002054839063ffffffff613fdc16565b915060010161311b565b5092915050565b601960009054906101000a9004600160a060020a0316600160a060020a0316638da5cb5b6040518163ffffffff1660e060020a028152600401602060405180830381600087803b1580156131db57600080fd5b505af11580156131ef573d6000803e3d6000fd5b505050506040513d602081101561320557600080fd5b5051600160a060020a03163314613254576040805160e560020a62461bcd0281526020600482015260136024820152600080516020615a91833981519152604482015290519081900360640190fd5b601254421061329b576040805160e560020a62461bcd0281526020600482015260136024820152600080516020615a71833981519152604482015290519081900360640190fd5b611a4d8282614fa1565b6000808260028111156132b457fe5b141561335d576132ed7f455448000000000000000000000000000000000000000000000000000000000060ea60020a621554d102613b67565b600160a060020a03166398d5fdca6040518163ffffffff1660e060020a028152600401602060405180830381600087803b15801561332a57600080fd5b505af115801561333e573d6000803e3d6000fd5b505050506040513d602081101561335457600080fd5b50519050612fca565b600182600281111561336b57fe5b14156133a4576132ed7f504f4c590000000000000000000000000000000000000000000000000000000060ea60020a621554d102613b67565b60028260028111156133b257fe5b14156133c75750670de0b6b3a7640000612fca565b6040805160e560020a62461bcd02815260206004820152601160248201527f496e636f72726563742066756e64696e67000000000000000000000000000000604482015290519081900360640190fd5b601954600160a060020a031681565b600380548290811061343457fe5b600091825260209091200154600160a060020a0316905081565b601960009054906101000a9004600160a060020a0316600160a060020a0316638da5cb5b6040518163ffffffff1660e060020a028152600401602060405180830381600087803b1580156134a157600080fd5b505af11580156134b5573d6000803e3d6000fd5b505050506040513d60208110156134cb57600080fd5b5051600160a060020a0316331461351a576040805160e560020a62461bcd0281526020600482015260136024820152600080516020615a91833981519152604482015290519081900360640190fd5b6012544210613561576040805160e560020a62461bcd0281526020600482015260136024820152600080516020615a71833981519152604482015290519081900360640190fd5b611a4d8282808060200260200160405190810160405280939291908181526020018383602002808284375061504e945050505050565b604080516000815260208101909152805b5090565b601854600160a060020a031681565b60116020526000908152604090205481565b60076020526000908152604090205481565b60106020526000908152604090205460ff1681565b60045481565b600080805b600f548110156136465761363c600f8281548110151561361b57fe5b90600052602060002090600702016004015483613fdc90919063ffffffff16565b91506001016135ff565b50919050565b7f4645455f41444d494e000000000000000000000000000000000000000000000081565b600254600160a060020a031681565b60155481565b600c6020526000908152604090205481565b601854600160a060020a031633146136f9576040805160e560020a62461bcd02815260206004820152601560248201527f53656e646572206973206e6f7420666163746f72790000000000000000000000604482015290519081900360640190fd5b60408051808201909152600c81527f4574685573644f7261636c650000000000000000000000000000000000000000602080830191825260ea60020a621554d1026000527f53ffa114ba2ce1ae2b33bea44459e521b4dcd90ecf5e26edc0c74207c71a4d369052905161378d917ff1554b02425cc2401298719fc1e32ee9893ec4780015443d3099a80a32182ca3916158e0565b5060408051808201909152600d81527f506f6c795573644f7261636c6500000000000000000000000000000000000000602080830191825260ea60020a621554d1026000527f82d6ebbc41f8fb09c49ed7614ca0dbb8a745daf467726f1773ca5d4ed029094390529051613822917fcbb6a8a44cd43e32acada640d97dc1df3765f23ba0b5a4e0bbc73fc1bfed20a7916158e0565b506013541561387b576040805160e560020a62461bcd02815260206004820152601260248201527f416c726561647920636f6e666967757265640000000000000000000000000000604482015290519081900360640190fd5b6138858c8c614fa1565b6138918a8a8a8a614926565b61389a8461504e565b6138a5838383614ee5565b6138af86866144ac565b505050505050505050505050565b600d5481565b600154600090610100900460ff16156138df57506017546117c3565b6138e76135fa565b90506117c3565b601954604080517f8da5cb5b0000000000000000000000000000000000000000000000000000000081529051600092600160a060020a031691638da5cb5b91600480830192602092919082900301818787803b15801561394d57600080fd5b505af1158015613961573d6000803e3d6000fd5b505050506040513d602081101561397757600080fd5b5051600160a060020a031633146139c6576040805160e560020a62461bcd0281526020600482015260136024820152600080516020615a91833981519152604482015290519081900360640190fd5b8151835114613a1f576040805160e560020a62461bcd02815260206004820152601560248201527f4172726179206c656e677468206d69736d617463680000000000000000000000604482015290519081900360640190fd5b5060005b825181101561225e5760008282815181101515613a3c57fe5b6020908102909101015111613a9b576040805160e560020a62461bcd02815260206004820152600960248201527f4c696d6974203d20300000000000000000000000000000000000000000000000604482015290519081900360640190fd5b8181815181101515613aa957fe5b90602001906020020151600c60008584815181101515613ac557fe5b6020908102909101810151600160a060020a031682528101919091526040016000205582517fcde9ad1085e6403dc0f4aec5ed3e0e505e5cd00bc639943be2601cfedc6ce80f90849083908110613b1857fe5b906020019060200201518383815181101515613b3057fe5b602090810290910181015160408051600160a060020a039094168452918301528051918290030190a1600101613a23565b60055481565b601954604080517f77282b700000000000000000000000000000000000000000000000000000000081529051600092600160a060020a0316916377282b7091600480830192602092919082900301818787803b158015613bc657600080fd5b505af1158015613bda573d6000803e3d6000fd5b505050506040513d6020811015613bf057600080fd5b505160008481526020818152604080832086845282529182902091517fbf40fac10000000000000000000000000000000000000000000000000000000081526004810191825282546002610100600183161502600019019091160460248201819052600160a060020a039094169363bf40fac1939291829160449091019084908015613cbd5780601f10613c9257610100808354040283529160200191613cbd565b820191906000526020600020905b815481529060010190602001808311613ca057829003601f168201915b505092505050602060405180830381600087803b158015613cdd57600080fd5b505af1158015613cf1573d6000803e3d6000fd5b505050506040513d6020811015613d0757600080fd5b505190505b92915050565b6000806000806000806000601a60159054906101000a900460ff16151515613d3957600080fd5b601a805475ff00000000000000000000000000000000000000000019167501000000000000000000000000000000000000000000179081905560a060020a900460ff1615613dd1576040805160e560020a62461bcd02815260206004820152601260248201527f436f6e7472616374206973207061757365640000000000000000000000000000604482015290519081900360640190fd5b60015460ff161515613e3d57600160a060020a038b163314613e3d576040805160e560020a62461bcd02815260206004820152601560248201527f42656e656669636961727920213d2066756e6465720000000000000000000000604482015290519081900360640190fd5b613e47898b613fe9565b9450613e548b8b87614020565b935060045492505b600f54831015613f04576004548314613e755760048390555b600f805484908110613e8357fe5b906000526020600020906007020160020154600f84815481101515613ea457fe5b9060005260206000209060070201600401541015613ef957613ed78b84613ed1878b63ffffffff613fca16565b8b61520f565b92509050613eeb878263ffffffff613fdc16565b9650811515613ef957613f04565b600190920191613e5c565b6000871115613f8f57600160a060020a038b166000908152600760205260409020541515613f36576015805460010190555b600160a060020a038b16600090815260076020526040902054613f5f908863ffffffff613fdc16565b600160a060020a038c16600090815260076020526040902055600554613f8b908863ffffffff613fdc16565b6005555b613f99878a61448b565b601a805475ff00000000000000000000000000000000000000000019169055969b969a509598505050505050505050565b600082821115613fd657fe5b50900390565b81810182811015613d0c57fe5b6000670de0b6b3a764000061400f6140018585615465565b6706f05b59d3b20000613fdc565b81151561401857fe5b049392505050565b60008061402b611cb4565b1515614081576040805160e560020a62461bcd02815260206004820152600c60248201527f53544f206e6f74206f70656e0000000000000000000000000000000000000000604482015290519081900360640190fd5b600084116140d9576040805160e560020a62461bcd02815260206004820152601260248201527f4e6f2066756e647320776572652073656e740000000000000000000000000000604482015290519081900360640190fd5b600d54600160a060020a03861660009081526007602052604090205461410690859063ffffffff613fdc16565b1015614182576040805160e560020a62461bcd02815260206004820152602760248201527f546f74616c20696e766573746d656e74203c206d696e696d756d496e7665737460448201527f6d656e7455534400000000000000000000000000000000000000000000000000606482015290519081900360840190fd5b600160a060020a03851660009081526009602052604090205483925060ff1615156142de57600160a060020a0385166000908152600c6020526040902054156141e357600160a060020a0385166000908152600c60205260409020546141e7565b600b545b600160a060020a038616600090815260076020526040902054909150811161427f576040805160e560020a62461bcd02815260206004820152602260248201527f4f766572204e6f6e2d6163637265646974656420696e766573746f72206c696d60448201527f6974000000000000000000000000000000000000000000000000000000000000606482015290519081900360840190fd5b600160a060020a03851660009081526007602052604090205481906142ab90859063ffffffff613fdc16565b11156142de57600160a060020a0385166000908152600760205260409020546142db90829063ffffffff613fca16565b91505b509392505050565b600080600080600080600080600f8b81548110151561430157fe5b600091825260209091206007909102019250600189600281111561432157fe5b148015614335575082600601548360030154115b156143c157600683015460038401546143539163ffffffff613fca16565b915061437083600401548460020154613fca90919063ffffffff16565b905081811015614396576143898360010154828c61548e565b91995090975095506143ae565b6143a58360010154838c61548e565b91995090975095505b6143be8a8963ffffffff613fca16565b99505b60008a1180156143fb575060006143f96143e8888660040154613fdc90919063ffffffff16565b60028601549063ffffffff613fca16565b115b80156144255750600189600281111561441057fe5b14158061442557508260060154836003015411155b1561447d57825460048401546002850154614451929161444b919063ffffffff613fca16565b8c61548e565b98509095509350614468888663ffffffff613fdc16565b975061447a868563ffffffff613fdc16565b95505b505050505093509350939050565b60008161400f6144a385670de0b6b3a7640000615465565b60028504613fdc565b600d819055600b829055604080518281526020810184905281517f6edefa108617056bef120162b4dc9ced4920b9a10f2dcc512c4c60fee6e7e693929181900390910190a15050565b601a5460a060020a900460ff161515614558576040805160e560020a62461bcd02815260206004820152601660248201527f436f6e7472616374206973206e6f742070617573656400000000000000000000604482015290519081900360640190fd5b601a805474ff0000000000000000000000000000000000000000191690556040805142815290517faaa520fdd7d2c83061d632fa017b0432407e798818af63ea908589fceda39ab79181900360200190a1565b600080808060018760028111156145be57fe5b14806145d5575060028760028111156145d357fe5b145b151561462b576040805160e560020a62461bcd02815260206004820152601260248201527f496e76616c696420726169736520747970650000000000000000000000000000604482015290519081900360640190fd5b6146336135fa565b935061463e876132a5565b925061464c8989858a613d12565b915091508561465d8561107c6135fa565b10156146b3576040805160e560020a62461bcd02815260206004820152601a60248201527f496e73756666696369656e7420746f6b656e73206d696e746564000000000000604482015290519081900360640190fd5b600160a060020a03891660009081526008602052604081206146de918391908a60028111156110ff57fe5b600160a060020a038a1660009081526008602052604081209089600281111561470357fe5b60ff1660ff1681526020019081526020016000208190555061472f81601160008a60028111156110ff57fe5b6011600089600281111561473f57fe5b60ff168152602081019190915260400160002055601a54600160a060020a038681169116146147ab57600160a060020a038516600090815260066020526040902054614791908263ffffffff613fdc16565b600160a060020a0386166000908152600660205260409020555b601654604080517f23b872dd000000000000000000000000000000000000000000000000000000008152336004820152600160a060020a039283166024820152604481018490529051918716916323b872dd916064808201926020929091908290030181600087803b15801561482057600080fd5b505af1158015614834573d6000803e3d6000fd5b505050506040513d602081101561484a57600080fd5b505115156148a2576040805160e560020a62461bcd02815260206004820152600f60248201527f5472616e73666572206661696c65640000000000000000000000000000000000604482015290519081900360640190fd5b88600160a060020a031633600160a060020a03167fa5a66b45c30fa6510eb2c3ccbe3c500d21863c7cc3e37d2dc85bb28db7775bd1848a8c8689604051808681526020018560028111156148f257fe5b60ff1681526020018481526020018381526020018281526020019550505050505060405180910390a3505050505050505050565b6000808351111515614982576040805160e560020a62461bcd02815260206004820152601160248201527f4e6f2074696572732070726f7669646564000000000000000000000000000000604482015290519081900360640190fd5b82518551148015614994575082518451145b80156149a1575082518251145b15156149f7576040805160e560020a62461bcd02815260206004820152601960248201527f546965722064617461206c656e677468206d69736d6174636800000000000000604482015290519081900360640190fd5b614a03600f600061595a565b5060005b8451811015614cdc5760008582815181101515614a2057fe5b6020908102909101015111614a7f576040805160e560020a62461bcd02815260206004820152600c60248201527f496e76616c696420726174650000000000000000000000000000000000000000604482015290519081900360640190fd5b60008382815181101515614a8f57fe5b6020908102909101015111614aee576040805160e560020a62461bcd02815260206004820152601460248201527f496e76616c696420746f6b656e20616d6f756e74000000000000000000000000604482015290519081900360640190fd5b8281815181101515614afc57fe5b906020019060200201518282815181101515614b1457fe5b602090810290910101511115614b74576040805160e560020a62461bcd02815260206004820152601a60248201527f546f6f206d616e7920646973636f756e74656420746f6b656e73000000000000604482015290519081900360640190fd5b8481815181101515614b8257fe5b906020019060200201518482815181101515614b9a57fe5b602090810290910101511115614bfa576040805160e560020a62461bcd02815260206004820152601060248201527f496e76616c696420646973636f756e7400000000000000000000000000000000604482015290519081900360640190fd5b600f60c0604051908101604052808784815181101515614c1657fe5b9060200190602002015181526020018684815181101515614c3357fe5b9060200190602002015181526020018584815181101515614c5057fe5b9060200190602002015181526020018484815181101515614c6d57fe5b60209081029091018101518252600082820181905260409283018190528454600181810187559582529082902084516007909202019081559083015181850155908201516002820155606082015160038201556080820151600482015560a09091015160069091015501614a07565b7fbdbb624542b4a708b5fed87894a55c10945f2676a45a28f9da59597118247496858585856040518080602001806020018060200180602001858103855289818151815260200191508051906020019060200280838360005b83811015614d4d578181015183820152602001614d35565b50505050905001858103845288818151815260200191508051906020019060200280838360005b83811015614d8c578181015183820152602001614d74565b50505050905001858103835287818151815260200191508051906020019060200280838360005b83811015614dcb578181015183820152602001614db3565b50505050905001858103825286818151815260200191508051906020019060200280838360005b83811015614e0a578181015183820152602001614df2565b505050509050019850505050505050505060405180910390a15050505050565b601a5460a060020a900460ff1615614e8c576040805160e560020a62461bcd02815260206004820152601260248201527f436f6e7472616374206973207061757365640000000000000000000000000000604482015290519081900360640190fd5b601a805474ff0000000000000000000000000000000000000000191660a060020a1790556040805142815290517f68b095021b1f40fe513109f513c66692f0b3219aee674a69f4efc57badb8201d9181900360200190a1565b600160a060020a03831615801590614f055750600160a060020a03821615155b1515614f5b576040805160e560020a62461bcd02815260206004820152600e60248201527f496e76616c69642077616c6c6574000000000000000000000000000000000000604482015290519081900360640190fd5b60168054600160a060020a0380861673ffffffffffffffffffffffffffffffffffffffff1992831617909255600280549285169290911691909117905561225e8161558e565b8181118015614faf57504282115b1515615005576040805160e560020a62461bcd02815260206004820152600d60248201527f496e76616c69642074696d657300000000000000000000000000000000000000604482015290519081900360640190fd5b60128290556013819055604080518381526020810183905281517f2eae0d0a99cbf5ab05babf7ee1f4bdf6e9bb99ffdca04682fa54f6682d5d80fe929181900390910190a15050565b60008082511115156150aa576040805160e560020a62461bcd02815260206004820152601b60248201527f52616973652074797065206973206e6f74207370656369666965640000000000604482015290519081900360640190fd5b5060106020527f6e0956cda88cad152e89927e53611735b61a5c762d1428573c6931b0a5efcb01805460ff199081169091557f8c6065603763fec3f5742441d3833f3f43b982453612d76adb39a885e3006b5f805482169055600260009081527f853b2fefe141400fef543280f93d98bd49996069f632d0d20236afeeed8e46a280549092169091555b81518160ff16101561519657600160106000848460ff1681518110151561515757fe5b90602001906020020151600281111561516c57fe5b60ff1681526020810191909152604001600020805460ff1916911515919091179055600101615134565b7fe5724f42dd9f217c97b3768212ed6d6692c0135e252387d61b98af28fecd9b02826040518080602001828103825283818151815260200191508051906020019060200280838360005b838110156151f85781810151838201526020016151e0565b505050509050019250505060405180910390a15050565b600080600080600080600080899350600f8b81548110151561522d57fe5b600091825260209091206007909102019250600189600281111561524d57fe5b148015615261575082600601548360030154115b15615362576006830154600384015461527f9163ffffffff613fca16565b915061529c83600401548460020154613fca90919063ffffffff16565b9050818110156152c4576152b78c846001015483878f615762565b91995090975094506152de565b6152d58c846001015484878f615762565b91995090975094505b6152ee848963ffffffff613fca16565b6006840154909450615306908663ffffffff613fdc16565b6006840155615321856005850160008c60028111156110ff57fe5b8360050160008b600281111561533357fe5b60ff168152602081019190915260400160002055600483015461535c908663ffffffff613fdc16565b60048401555b60008411801561538c5750600061538a84600401548560020154613fca90919063ffffffff16565b115b80156153b6575060018960028111156153a157fe5b1415806153b657508260060154836003015411155b15615456576153e68c84600001546153df86600401548760020154613fca90919063ffffffff16565b878f615762565b985090965094506153fd888763ffffffff613fdc16565b9750615415858460050160008c60028111156110ff57fe5b8360050160008b600281111561542757fe5b60ff1681526020810191909152604001600020556004830154615450908663ffffffff613fdc16565b60048401555b50505050505094509492505050565b600082151561547657506000613d0c565b5081810281838281151561548657fe5b0414613d0c57fe5b60008060008060006154a0868961448b565b9150601960009054906101000a9004600160a060020a0316600160a060020a031663556f0dc76040518163ffffffff1660e060020a028152600401602060405180830381600087803b1580156154f557600080fd5b505af1158015615509573d6000803e3d6000fd5b505050506040513d602081101561551f57600080fd5b50519050615533828263ffffffff6158d316565b9150615545828263ffffffff61546516565b915086821115615573576155598789613fe9565b945085851115615567578594505b86935060019250615583565b61557d8289613fe9565b94508193505b505093509350939050565b60005b6003548110156155ec576000600a60006003848154811015156155b057fe5b600091825260208083209190910154600160a060020a031683528201929092526040019020805460ff1916911515919091179055600101615591565b81516155ff90600390602085019061597b565b50600090505b81518110156156d657815160009083908390811061561f57fe5b60209081029091010151600160a060020a03161415615688576040805160e560020a62461bcd02815260206004820152601160248201527f496e76616c69642055534420746f6b656e000000000000000000000000000000604482015290519081900360640190fd5b6001600a6000848481518110151561569c57fe5b602090810291909101810151600160a060020a03168252810191909152604001600020805460ff1916911515919091179055600101615605565b6002546016546040805160208082528651818301528651600160a060020a0395861695909416937f8af18d174d22808e0f6d16e613f909f1b60caca2b1cbd2194eb098365c9a867893889392839291830191858201910280838360005b8381101561574b578181015183820152602001615733565b505050509050019250505060405180910390a35050565b600080600061577287878761548e565b9194509250905060008211156158c857601954604080517f40c10f19000000000000000000000000000000000000000000000000000000008152600160a060020a038b8116600483015260248201869052915191909216916340c10f199160448083019260209291908290030181600087803b1580156157f157600080fd5b505af1158015615805573d6000803e3d6000fd5b505050506040513d602081101561581b57600080fd5b50511515615873576040805160e560020a62461bcd02815260206004820152601060248201527f4572726f7220696e206d696e74696e6700000000000000000000000000000000604482015290519081900360640190fd5b6040805183815260208101859052808201899052606081018690529051600160a060020a038a169133917fc29b8032387f267ddc010037627574acbf3b1a65a6022ca8ba6c25f0ba85ee759181900360800190a35b955095509592505050565b6000818381151561401857fe5b828054600181600116156101000203166002900490600052602060002090601f016020900481019282601f1061592157805160ff191683800117855561594e565b8280016001018555821561594e579182015b8281111561594e578251825591602001919060010190615933565b506135a89291506159e9565b5080546000825560070290600052602060002090810190611cb19190615a03565b8280548282559060005260206000209081019282156159dd579160200282015b828111156159dd578251825473ffffffffffffffffffffffffffffffffffffffff1916600160a060020a0390911617825560209092019160019091019061599b565b506135a8929150615a3f565b6117c391905b808211156135a857600081556001016159ef565b6117c391905b808211156135a8576000808255600182018190556002820181905560038201819055600482018190556006820155600701615a09565b6117c391905b808211156135a857805473ffffffffffffffffffffffffffffffffffffffff19168155600101615a45560053544f20616c726561647920737461727465640000000000000000000000000053656e646572206973206e6f74206f776e657200000000000000000000000000a165627a7a723058205a608ae707ce979b691686bd0d030366e77d88960cb552604c5f1b62427c037a0029",
  "source": "pragma solidity ^0.4.24;\n\nimport \"./ISTO.sol\";\nimport \"../../interfaces/ISecurityToken.sol\";\nimport \"../../interfaces/IOracle.sol\";\nimport \"../../RegistryUpdater.sol\";\nimport \"../../libraries/DecimalMath.sol\";\nimport \"openzeppelin-solidity/contracts/math/SafeMath.sol\";\nimport \"openzeppelin-solidity/contracts/ReentrancyGuard.sol\";\nimport \"./USDTieredSTOStorage.sol\";\n\n/**\n * @title STO module for standard capped crowdsale\n */\ncontract USDTieredSTO is USDTieredSTOStorage, ISTO, ReentrancyGuard {\n    using SafeMath for uint256;\n\n    string public constant POLY_ORACLE = \"PolyUsdOracle\";\n    string public constant ETH_ORACLE = \"EthUsdOracle\";\n\n    ////////////\n    // Events //\n    ////////////\n\n    event SetAllowBeneficialInvestments(bool _allowed);\n    event SetNonAccreditedLimit(address _investor, uint256 _limit);\n    event SetAccredited(address _investor, bool _accredited);\n    event TokenPurchase(\n        address indexed _purchaser,\n        address indexed _beneficiary,\n        uint256 _tokens,\n        uint256 _usdAmount,\n        uint256 _tierPrice,\n        uint256 _tier\n    );\n    event FundsReceived(\n        address indexed _purchaser,\n        address indexed _beneficiary,\n        uint256 _usdAmount,\n        FundRaiseType _fundRaiseType,\n        uint256 _receivedValue,\n        uint256 _spentValue,\n        uint256 _rate\n    );\n    event ReserveTokenMint(address indexed _owner, address indexed _wallet, uint256 _tokens, uint256 _latestTier);\n    event SetAddresses(\n        address indexed _wallet,\n        address indexed _reserveWallet,\n        address[] _usdTokens\n    );\n    event SetLimits(\n        uint256 _nonAccreditedLimitUSD,\n        uint256 _minimumInvestmentUSD\n    );\n    event SetTimes(\n        uint256 _startTime,\n        uint256 _endTime\n    );\n    event SetTiers(\n        uint256[] _ratePerTier,\n        uint256[] _ratePerTierDiscountPoly,\n        uint256[] _tokensPerTierTotal,\n        uint256[] _tokensPerTierDiscountPoly\n    );\n\n    ///////////////\n    // Modifiers //\n    ///////////////\n\n    modifier validETH {\n        require(_getOracle(bytes32(\"ETH\"), bytes32(\"USD\")) != address(0), \"Invalid Oracle\");\n        require(fundRaiseTypes[uint8(FundRaiseType.ETH)], \"ETH not allowed\");\n        _;\n    }\n\n    modifier validPOLY {\n        require(_getOracle(bytes32(\"POLY\"), bytes32(\"USD\")) != address(0), \"Invalid Oracle\");\n        require(fundRaiseTypes[uint8(FundRaiseType.POLY)], \"POLY not allowed\");\n        _;\n    }\n\n    modifier validSC(address _usdToken) {\n        require(fundRaiseTypes[uint8(FundRaiseType.SC)] && usdTokenEnabled[_usdToken], \"USD not allowed\");\n        _;\n    }\n\n    ///////////////////////\n    // STO Configuration //\n    ///////////////////////\n\n    constructor (address _securityToken, address _polyAddress)\n    public\n    Module(_securityToken, _polyAddress)\n    {\n    }\n\n    /**\n     * @notice Function used to intialize the contract variables\n     * @param _startTime Unix timestamp at which offering get started\n     * @param _endTime Unix timestamp at which offering get ended\n     * @param _ratePerTier Rate (in USD) per tier (* 10**18)\n     * @param _tokensPerTierTotal Tokens available in each tier\n     * @param _nonAccreditedLimitUSD Limit in USD (* 10**18) for non-accredited investors\n     * @param _minimumInvestmentUSD Minimun investment in USD (* 10**18)\n     * @param _fundRaiseTypes Types of currency used to collect the funds\n     * @param _wallet Ethereum account address to hold the funds\n     * @param _reserveWallet Ethereum account address to receive unsold tokens\n     * @param _usdTokens Array of contract addressess of the stable coins\n     */\n    function configure(\n        uint256 _startTime,\n        uint256 _endTime,\n        uint256[] _ratePerTier,\n        uint256[] _ratePerTierDiscountPoly,\n        uint256[] _tokensPerTierTotal,\n        uint256[] _tokensPerTierDiscountPoly,\n        uint256 _nonAccreditedLimitUSD,\n        uint256 _minimumInvestmentUSD,\n        FundRaiseType[] _fundRaiseTypes,\n        address _wallet,\n        address _reserveWallet,\n        address[] _usdTokens\n    ) public onlyFactory {\n        oracleKeys[bytes32(\"ETH\")][bytes32(\"USD\")] = ETH_ORACLE;\n        oracleKeys[bytes32(\"POLY\")][bytes32(\"USD\")] = POLY_ORACLE;\n        require(endTime == 0, \"Already configured\");\n        _modifyTimes(_startTime, _endTime);\n        _modifyTiers(_ratePerTier, _ratePerTierDiscountPoly, _tokensPerTierTotal, _tokensPerTierDiscountPoly);\n        // NB - _setFundRaiseType must come before modifyAddresses\n        _setFundRaiseType(_fundRaiseTypes);\n        _modifyAddresses(_wallet, _reserveWallet, _usdTokens);\n        _modifyLimits(_nonAccreditedLimitUSD, _minimumInvestmentUSD);\n    }\n\n    /**\n     * @dev Modifies fund raise types\n     * @param _fundRaiseTypes Array of fund raise types to allow\n     */\n    function modifyFunding(FundRaiseType[] _fundRaiseTypes) external onlyOwner {\n        /*solium-disable-next-line security/no-block-members*/\n        require(now < startTime, \"STO already started\");\n        _setFundRaiseType(_fundRaiseTypes);\n    }\n\n    /**\n     * @dev modifies max non accredited invets limit and overall minimum investment limit\n     * @param _nonAccreditedLimitUSD max non accredited invets limit\n     * @param _minimumInvestmentUSD overall minimum investment limit\n     */\n    function modifyLimits(\n        uint256 _nonAccreditedLimitUSD,\n        uint256 _minimumInvestmentUSD\n    ) external onlyOwner {\n        /*solium-disable-next-line security/no-block-members*/\n        require(now < startTime, \"STO already started\");\n        _modifyLimits(_nonAccreditedLimitUSD, _minimumInvestmentUSD);\n    }\n\n    /**\n     * @dev modifiers STO tiers. All tiers must be passed, can not edit specific tiers.\n     * @param _ratePerTier Array of rates per tier\n     * @param _ratePerTierDiscountPoly Array of discounted poly rates per tier\n     * @param _tokensPerTierTotal Array of total tokens per tier\n     * @param _tokensPerTierDiscountPoly Array of discounted tokens per tier\n     */\n    function modifyTiers(\n        uint256[] _ratePerTier,\n        uint256[] _ratePerTierDiscountPoly,\n        uint256[] _tokensPerTierTotal,\n        uint256[] _tokensPerTierDiscountPoly\n    ) external onlyOwner {\n        /*solium-disable-next-line security/no-block-members*/\n        require(now < startTime, \"STO already started\");\n        _modifyTiers(_ratePerTier, _ratePerTierDiscountPoly, _tokensPerTierTotal, _tokensPerTierDiscountPoly);\n    }\n\n    /**\n     * @dev Modifies STO start and end times\n     * @param _startTime start time of sto\n     * @param _endTime end time of sto\n     */\n    function modifyTimes(\n        uint256 _startTime,\n        uint256 _endTime\n    ) external onlyOwner {\n        /*solium-disable-next-line security/no-block-members*/\n        require(now < startTime, \"STO already started\");\n        _modifyTimes(_startTime, _endTime);\n    }\n\n    /**\n     * @dev Modifies addresses used as wallet, reserve wallet and usd token\n     * @param _wallet Address of wallet where funds are sent\n     * @param _reserveWallet Address of wallet where unsold tokens are sent\n     * @param _usdTokens Address of usd tokens\n     */\n    function modifyAddresses(\n        address _wallet,\n        address _reserveWallet,\n        address[] _usdTokens\n    ) external onlyOwner {\n        /*solium-disable-next-line security/no-block-members*/\n        // require(now < startTime, \"STO already started\");\n        _modifyAddresses(_wallet, _reserveWallet, _usdTokens);\n    }\n\n    function _modifyLimits(\n        uint256 _nonAccreditedLimitUSD,\n        uint256 _minimumInvestmentUSD\n    ) internal {\n        minimumInvestmentUSD = _minimumInvestmentUSD;\n        nonAccreditedLimitUSD = _nonAccreditedLimitUSD;\n        emit SetLimits(minimumInvestmentUSD, nonAccreditedLimitUSD);\n    }\n\n    function _modifyTiers(\n        uint256[] _ratePerTier,\n        uint256[] _ratePerTierDiscountPoly,\n        uint256[] _tokensPerTierTotal,\n        uint256[] _tokensPerTierDiscountPoly\n    ) internal {\n        require(_tokensPerTierTotal.length > 0, \"No tiers provided\");\n        require(_ratePerTier.length == _tokensPerTierTotal.length &&\n            _ratePerTierDiscountPoly.length == _tokensPerTierTotal.length &&\n            _tokensPerTierDiscountPoly.length == _tokensPerTierTotal.length,\n            \"Tier data length mismatch\"\n        );\n        delete tiers;\n        for (uint256 i = 0; i < _ratePerTier.length; i++) {\n            require(_ratePerTier[i] > 0, \"Invalid rate\");\n            require(_tokensPerTierTotal[i] > 0, \"Invalid token amount\");\n            require(_tokensPerTierDiscountPoly[i] <= _tokensPerTierTotal[i], \"Too many discounted tokens\");\n            require(_ratePerTierDiscountPoly[i] <= _ratePerTier[i], \"Invalid discount\");\n            tiers.push(Tier(_ratePerTier[i], _ratePerTierDiscountPoly[i], _tokensPerTierTotal[i], _tokensPerTierDiscountPoly[i], 0, 0));\n        }\n        emit SetTiers(_ratePerTier, _ratePerTierDiscountPoly, _tokensPerTierTotal, _tokensPerTierDiscountPoly);\n    }\n\n    function _modifyTimes(\n        uint256 _startTime,\n        uint256 _endTime\n    ) internal {\n        /*solium-disable-next-line security/no-block-members*/\n        require((_endTime > _startTime) && (_startTime > now), \"Invalid times\");\n        startTime = _startTime;\n        endTime = _endTime;\n        emit SetTimes(_startTime, _endTime);\n    }\n\n    function _modifyAddresses(\n        address _wallet,\n        address _reserveWallet,\n        address[] _usdTokens\n    ) internal {\n        require(_wallet != address(0) && _reserveWallet != address(0), \"Invalid wallet\");\n        wallet = _wallet;\n        reserveWallet = _reserveWallet;\n        _modifyUSDTokens(_usdTokens);\n    }\n\n    function _modifyUSDTokens(address[] _usdTokens) internal {\n        for(uint256 i = 0; i < usdTokens.length; i++) {\n            usdTokenEnabled[usdTokens[i]] = false;\n        }\n        usdTokens = _usdTokens;\n        for(i = 0; i < _usdTokens.length; i++) {\n            require(_usdTokens[i] != address(0), \"Invalid USD token\");\n            usdTokenEnabled[_usdTokens[i]] = true;\n        }\n        emit SetAddresses(wallet, reserveWallet, _usdTokens);\n    }\n\n    ////////////////////\n    // STO Management //\n    ////////////////////\n\n    /**\n     * @notice Finalizes the STO and mint remaining tokens to reserve address\n     * @notice Reserve address must be whitelisted to successfully finalize\n     */\n    function finalize() public onlyOwner {\n        require(!isFinalized, \"STO is already finalized\");\n        isFinalized = true;\n        uint256 tempReturned;\n        uint256 tempSold;\n        uint256 remainingTokens;\n        for (uint256 i = 0; i < tiers.length; i++) {\n            remainingTokens = tiers[i].tokenTotal.sub(tiers[i].mintedTotal);\n            tempReturned = tempReturned.add(remainingTokens);\n            tempSold = tempSold.add(tiers[i].mintedTotal);\n            if (remainingTokens > 0) {\n                tiers[i].mintedTotal = tiers[i].tokenTotal;\n            }\n        }\n        require(ISecurityToken(securityToken).mint(reserveWallet, tempReturned), \"Error in minting\");\n        emit ReserveTokenMint(msg.sender, reserveWallet, tempReturned, currentTier);\n        finalAmountReturned = tempReturned;\n        totalTokensSold = tempSold;\n    }\n\n    /**\n     * @notice Modifies the list of accredited addresses\n     * @param _investors Array of investor addresses to modify\n     * @param _accredited Array of bools specifying accreditation status\n     */\n    function changeAccredited(address[] _investors, bool[] _accredited) public onlyOwner {\n        require(_investors.length == _accredited.length, \"Array length mismatch\");\n        for (uint256 i = 0; i < _investors.length; i++) {\n            accredited[_investors[i]] = _accredited[i];\n            emit SetAccredited(_investors[i], _accredited[i]);\n        }\n    }\n\n    /**\n     * @notice Modifies the list of overrides for non-accredited limits in USD\n     * @param _investors Array of investor addresses to modify\n     * @param _nonAccreditedLimit Array of uints specifying non-accredited limits\n     */\n    function changeNonAccreditedLimit(address[] _investors, uint256[] _nonAccreditedLimit) public onlyOwner {\n        //nonAccreditedLimitUSDOverride\n        require(_investors.length == _nonAccreditedLimit.length, \"Array length mismatch\");\n        for (uint256 i = 0; i < _investors.length; i++) {\n            require(_nonAccreditedLimit[i] > 0, \"Limit = 0\");\n            nonAccreditedLimitUSDOverride[_investors[i]] = _nonAccreditedLimit[i];\n            emit SetNonAccreditedLimit(_investors[i], _nonAccreditedLimit[i]);\n        }\n    }\n\n    /**\n     * @notice Function to set allowBeneficialInvestments (allow beneficiary to be different to funder)\n     * @param _allowBeneficialInvestments Boolean to allow or disallow beneficial investments\n     */\n    function changeAllowBeneficialInvestments(bool _allowBeneficialInvestments) public onlyOwner {\n        require(_allowBeneficialInvestments != allowBeneficialInvestments, \"Value unchanged\");\n        allowBeneficialInvestments = _allowBeneficialInvestments;\n        emit SetAllowBeneficialInvestments(allowBeneficialInvestments);\n    }\n\n    //////////////////////////\n    // Investment Functions //\n    //////////////////////////\n\n    /**\n    * @notice fallback function - assumes ETH being invested\n    */\n    function () external payable {\n        buyWithETHRateLimited(msg.sender, 0);\n    }\n\n    // Buy functions without rate restriction\n    function buyWithETH(address _beneficiary) external payable {\n        buyWithETHRateLimited(_beneficiary, 0);\n    }\n\n    function buyWithPOLY(address _beneficiary, uint256 _investedPOLY) external {\n        buyWithPOLYRateLimited(_beneficiary, _investedPOLY, 0);\n    }\n\n    function buyWithUSD(address _beneficiary, uint256 _investedSC, IERC20 _usdToken) external {\n        buyWithUSDRateLimited(_beneficiary, _investedSC, 0, _usdToken);\n    }\n\n    /**\n      * @notice Purchase tokens using ETH\n      * @param _beneficiary Address where security tokens will be sent\n      * @param _minTokens Minumum number of tokens to buy or else revert\n      */\n    function buyWithETHRateLimited(address _beneficiary, uint256 _minTokens) public payable validETH {\n        uint256 rate = getRate(FundRaiseType.ETH);\n        uint256 initialMinted = getTokensMinted();\n        (uint256 spentUSD, uint256 spentValue) = _buyTokens(_beneficiary, msg.value, rate, FundRaiseType.ETH);\n        require(getTokensMinted().sub(initialMinted) >= _minTokens, \"Insufficient tokens minted\");\n        // Modify storage\n        investorInvested[_beneficiary][uint8(FundRaiseType.ETH)] = investorInvested[_beneficiary][uint8(FundRaiseType.ETH)].add(spentValue);\n        fundsRaised[uint8(FundRaiseType.ETH)] = fundsRaised[uint8(FundRaiseType.ETH)].add(spentValue);\n        // Forward ETH to issuer wallet\n        wallet.transfer(spentValue);\n        // Refund excess ETH to investor wallet\n        msg.sender.transfer(msg.value.sub(spentValue));\n        emit FundsReceived(msg.sender, _beneficiary, spentUSD, FundRaiseType.ETH, msg.value, spentValue, rate);\n    }\n\n    /**\n      * @notice Purchase tokens using POLY\n      * @param _beneficiary Address where security tokens will be sent\n      * @param _investedPOLY Amount of POLY invested\n      * @param _minTokens Minumum number of tokens to buy or else revert\n      */\n    function buyWithPOLYRateLimited(address _beneficiary, uint256 _investedPOLY, uint256 _minTokens) public validPOLY {\n        _buyWithTokens(_beneficiary, _investedPOLY, FundRaiseType.POLY, _minTokens, polyToken);\n    }\n\n    /**\n      * @notice Purchase tokens using Stable coins\n      * @param _beneficiary Address where security tokens will be sent\n      * @param _investedSC Amount of Stable coins invested\n      * @param _minTokens Minumum number of tokens to buy or else revert\n      * @param _usdToken Address of USD stable coin to buy tokens with\n      */\n    function buyWithUSDRateLimited(address _beneficiary, uint256 _investedSC, uint256 _minTokens, IERC20 _usdToken)\n        public validSC(_usdToken)\n    {\n        _buyWithTokens(_beneficiary, _investedSC, FundRaiseType.SC, _minTokens, _usdToken);\n    }\n\n    function _buyWithTokens(address _beneficiary, uint256 _tokenAmount, FundRaiseType _fundRaiseType, uint256 _minTokens, IERC20 _token) internal {\n        require(_fundRaiseType == FundRaiseType.POLY || _fundRaiseType == FundRaiseType.SC, \"Invalid raise type\");\n        uint256 initialMinted = getTokensMinted();\n        uint256 rate = getRate(_fundRaiseType);\n        (uint256 spentUSD, uint256 spentValue) = _buyTokens(_beneficiary, _tokenAmount, rate, _fundRaiseType);\n        require(getTokensMinted().sub(initialMinted) >= _minTokens, \"Insufficient tokens minted\");\n        // Modify storage\n        investorInvested[_beneficiary][uint8(_fundRaiseType)] = investorInvested[_beneficiary][uint8(_fundRaiseType)].add(spentValue);\n        fundsRaised[uint8(_fundRaiseType)] = fundsRaised[uint8(_fundRaiseType)].add(spentValue);\n        if(address(_token) != address(polyToken))\n            stableCoinsRaised[address(_token)] = stableCoinsRaised[address(_token)].add(spentValue);\n        // Forward coins to issuer wallet\n        require(_token.transferFrom(msg.sender, wallet, spentValue), \"Transfer failed\");\n        emit FundsReceived(msg.sender, _beneficiary, spentUSD, _fundRaiseType, _tokenAmount, spentValue, rate);\n    }\n\n    /**\n      * @notice Low level token purchase\n      * @param _beneficiary Address where security tokens will be sent\n      * @param _investmentValue Amount of POLY, ETH or Stable coins invested\n      * @param _fundRaiseType Fund raise type (POLY, ETH, SC)\n      */\n    function _buyTokens(\n        address _beneficiary,\n        uint256 _investmentValue,\n        uint256 _rate,\n        FundRaiseType _fundRaiseType\n    )\n        internal\n        nonReentrant\n        whenNotPaused\n        returns(uint256 spentUSD, uint256 spentValue)\n    {\n        if (!allowBeneficialInvestments) {\n            require(_beneficiary == msg.sender, \"Beneficiary != funder\");\n        }\n\n        uint256 originalUSD = DecimalMath.mul(_rate, _investmentValue);\n        uint256 allowedUSD = _buyTokensChecks(_beneficiary, _investmentValue, originalUSD);\n\n        for (uint256 i = currentTier; i < tiers.length; i++) {\n            bool gotoNextTier;\n            uint256 tempSpentUSD;\n            // Update current tier if needed\n            if (currentTier != i)\n                currentTier = i;\n            // If there are tokens remaining, process investment\n            if (tiers[i].mintedTotal < tiers[i].tokenTotal) {\n                (tempSpentUSD, gotoNextTier) = _calculateTier(_beneficiary, i, allowedUSD.sub(spentUSD), _fundRaiseType);\n                spentUSD = spentUSD.add(tempSpentUSD);\n                // If all funds have been spent, exit the loop\n                if (!gotoNextTier)\n                    break;\n            }\n        }\n\n        // Modify storage\n        if (spentUSD > 0) {\n            if (investorInvestedUSD[_beneficiary] == 0)\n                investorCount = investorCount + 1;\n            investorInvestedUSD[_beneficiary] = investorInvestedUSD[_beneficiary].add(spentUSD);\n            fundsRaisedUSD = fundsRaisedUSD.add(spentUSD);\n        }\n\n        spentValue = DecimalMath.div(spentUSD, _rate);\n    }\n\n    /**\n      * @notice Getter function for buyer to calculate how many tokens will they get\n      * @param _beneficiary Address where security tokens are to be sent\n      * @param _investmentValue Amount of POLY, ETH or Stable coins invested\n      * @param _fundRaiseType Fund raise type (POLY, ETH, SC)\n      */\n    function buyTokensView(\n        address _beneficiary,\n        uint256 _investmentValue,\n        FundRaiseType _fundRaiseType\n    )\n        public\n        view\n        returns(uint256 spentUSD, uint256 spentValue, uint256 tokensMinted)\n    {\n        require(_fundRaiseType == FundRaiseType.POLY || _fundRaiseType == FundRaiseType.SC || _fundRaiseType == FundRaiseType.ETH, \"Invalid raise type\");\n        uint256 rate = getRate(_fundRaiseType);\n        uint256 originalUSD = DecimalMath.mul(rate, _investmentValue);\n        uint256 allowedUSD = _buyTokensChecks(_beneficiary, _investmentValue, originalUSD);\n\n        // Iterate over each tier and process payment\n        for (uint256 i = currentTier; i < tiers.length; i++) {\n            bool gotoNextTier;\n            uint256 tempSpentUSD;\n            uint256 tempTokensMinted;\n            // If there are tokens remaining, process investment\n            if (tiers[i].mintedTotal < tiers[i].tokenTotal) {\n                (tempSpentUSD, gotoNextTier, tempTokensMinted) = _calculateTierView(i, allowedUSD.sub(spentUSD), _fundRaiseType);\n                spentUSD = spentUSD.add(tempSpentUSD);\n                tokensMinted = tokensMinted.add(tempTokensMinted);\n                // If all funds have been spent, exit the loop\n                if (!gotoNextTier)\n                    break;\n            }\n        }\n\n        spentValue = DecimalMath.div(spentUSD, rate);\n    }\n\n    function _buyTokensChecks(\n        address _beneficiary,\n        uint256 _investmentValue,\n        uint256 investedUSD\n    )\n        internal\n        view\n        returns(uint256 netInvestedUSD)\n    {\n        require(isOpen(), \"STO not open\");\n        require(_investmentValue > 0, \"No funds were sent\");\n\n        // Check for minimum investment\n        require(investedUSD.add(investorInvestedUSD[_beneficiary]) >= minimumInvestmentUSD, \"Total investment < minimumInvestmentUSD\");\n        netInvestedUSD = investedUSD;\n        // Check for non-accredited cap\n        if (!accredited[_beneficiary]) {\n            uint256 investorLimitUSD = (nonAccreditedLimitUSDOverride[_beneficiary] == 0) ? nonAccreditedLimitUSD : nonAccreditedLimitUSDOverride[_beneficiary];\n            require(investorInvestedUSD[_beneficiary] < investorLimitUSD, \"Over Non-accredited investor limit\");\n            if (investedUSD.add(investorInvestedUSD[_beneficiary]) > investorLimitUSD)\n                netInvestedUSD = investorLimitUSD.sub(investorInvestedUSD[_beneficiary]);\n        }\n    }\n\n    function _calculateTier(\n        address _beneficiary,\n        uint256 _tier,\n        uint256 _investedUSD,\n        FundRaiseType _fundRaiseType\n    )\n        internal\n        returns(uint256 spentUSD, bool gotoNextTier)\n     {\n        // First purchase any discounted tokens if POLY investment\n        uint256 tierSpentUSD;\n        uint256 tierPurchasedTokens;\n        uint256 investedUSD = _investedUSD;\n        Tier storage tierData = tiers[_tier];\n        // Check whether there are any remaining discounted tokens\n        if ((_fundRaiseType == FundRaiseType.POLY) && (tierData.tokensDiscountPoly > tierData.mintedDiscountPoly)) {\n            uint256 discountRemaining = tierData.tokensDiscountPoly.sub(tierData.mintedDiscountPoly);\n            uint256 totalRemaining = tierData.tokenTotal.sub(tierData.mintedTotal);\n            if (totalRemaining < discountRemaining)\n                (spentUSD, tierPurchasedTokens, gotoNextTier) = _purchaseTier(_beneficiary, tierData.rateDiscountPoly, totalRemaining, investedUSD, _tier);\n            else\n                (spentUSD, tierPurchasedTokens, gotoNextTier) = _purchaseTier(_beneficiary, tierData.rateDiscountPoly, discountRemaining, investedUSD, _tier);\n            investedUSD = investedUSD.sub(spentUSD);\n            tierData.mintedDiscountPoly = tierData.mintedDiscountPoly.add(tierPurchasedTokens);\n            tierData.minted[uint8(_fundRaiseType)] = tierData.minted[uint8(_fundRaiseType)].add(tierPurchasedTokens);\n            tierData.mintedTotal = tierData.mintedTotal.add(tierPurchasedTokens);\n        }\n        // Now, if there is any remaining USD to be invested, purchase at non-discounted rate\n        if (investedUSD > 0 &&\n            tierData.tokenTotal.sub(tierData.mintedTotal) > 0 &&\n            (_fundRaiseType != FundRaiseType.POLY || tierData.tokensDiscountPoly <= tierData.mintedDiscountPoly)\n        ) {\n            (tierSpentUSD, tierPurchasedTokens, gotoNextTier) = _purchaseTier(_beneficiary, tierData.rate, tierData.tokenTotal.sub(tierData.mintedTotal), investedUSD, _tier);\n            spentUSD = spentUSD.add(tierSpentUSD);\n            tierData.minted[uint8(_fundRaiseType)] = tierData.minted[uint8(_fundRaiseType)].add(tierPurchasedTokens);\n            tierData.mintedTotal = tierData.mintedTotal.add(tierPurchasedTokens);\n        }\n    }\n\n    function _calculateTierView(\n        uint256 _tier,\n        uint256 _investedUSD,\n        FundRaiseType _fundRaiseType\n    )\n        internal\n        view\n        returns(uint256 spentUSD, bool gotoNextTier, uint256 tokensMinted)\n    {\n        // First purchase any discounted tokens if POLY investment\n        uint256 tierSpentUSD;\n        uint256 tierPurchasedTokens;\n        Tier storage tierData = tiers[_tier];\n        // Check whether there are any remaining discounted tokens\n        if ((_fundRaiseType == FundRaiseType.POLY) && (tierData.tokensDiscountPoly > tierData.mintedDiscountPoly)) {\n            uint256 discountRemaining = tierData.tokensDiscountPoly.sub(tierData.mintedDiscountPoly);\n            uint256 totalRemaining = tierData.tokenTotal.sub(tierData.mintedTotal);\n            if (totalRemaining < discountRemaining)\n                (spentUSD, tokensMinted, gotoNextTier) = _purchaseTierAmount(tierData.rateDiscountPoly, totalRemaining, _investedUSD);\n            else\n                (spentUSD, tokensMinted, gotoNextTier) = _purchaseTierAmount(tierData.rateDiscountPoly, discountRemaining, _investedUSD);\n            _investedUSD = _investedUSD.sub(spentUSD);\n        }\n        // Now, if there is any remaining USD to be invested, purchase at non-discounted rate\n        if (_investedUSD > 0 &&\n            tierData.tokenTotal.sub(tierData.mintedTotal.add(tokensMinted)) > 0 &&\n            (_fundRaiseType != FundRaiseType.POLY || tierData.tokensDiscountPoly <= tierData.mintedDiscountPoly)\n        ) {\n            (tierSpentUSD, tierPurchasedTokens, gotoNextTier) = _purchaseTierAmount(tierData.rate, tierData.tokenTotal.sub(tierData.mintedTotal), _investedUSD);\n            spentUSD = spentUSD.add(tierSpentUSD);\n            tokensMinted = tokensMinted.add(tierPurchasedTokens);\n        }\n    }\n\n    function _purchaseTier(\n        address _beneficiary,\n        uint256 _tierPrice,\n        uint256 _tierRemaining,\n        uint256 _investedUSD,\n        uint256 _tier\n    )\n        internal\n        returns(uint256 spentUSD, uint256 purchasedTokens, bool gotoNextTier)\n    {\n        (spentUSD, purchasedTokens, gotoNextTier) = _purchaseTierAmount(_tierPrice, _tierRemaining, _investedUSD);\n        if (purchasedTokens > 0) {\n            require(ISecurityToken(securityToken).mint(_beneficiary, purchasedTokens), \"Error in minting\");\n            emit TokenPurchase(msg.sender, _beneficiary, purchasedTokens, spentUSD, _tierPrice, _tier);\n        }\n    }\n\n    function _purchaseTierAmount(\n        uint256 _tierPrice,\n        uint256 _tierRemaining,\n        uint256 _investedUSD\n    )\n        internal\n        view\n        returns(uint256 spentUSD, uint256 purchasedTokens, bool gotoNextTier)\n    {\n        uint256 maximumTokens = DecimalMath.div(_investedUSD, _tierPrice);\n        uint256 granularity = ISecurityToken(securityToken).granularity();\n        maximumTokens = maximumTokens.div(granularity);\n        maximumTokens = maximumTokens.mul(granularity);\n        if (maximumTokens > _tierRemaining) {\n            spentUSD = DecimalMath.mul(_tierRemaining, _tierPrice);\n            // In case of rounding issues, ensure that spentUSD is never more than investedUSD\n            if (spentUSD > _investedUSD) {\n                spentUSD = _investedUSD;\n            }\n            purchasedTokens = _tierRemaining;\n            gotoNextTier = true;\n        } else {\n            spentUSD = DecimalMath.mul(maximumTokens, _tierPrice);\n            purchasedTokens = maximumTokens;\n        }\n    }\n\n    /////////////\n    // Getters //\n    /////////////\n\n    /**\n     * @notice This function returns whether or not the STO is in fundraising mode (open)\n     * @return bool Whether the STO is accepting investments\n     */\n    function isOpen() public view returns(bool) {\n        if (isFinalized)\n            return false;\n        /*solium-disable-next-line security/no-block-members*/\n        if (now < startTime)\n            return false;\n        /*solium-disable-next-line security/no-block-members*/\n        if (now >= endTime)\n            return false;\n        if (capReached())\n            return false;\n        return true;\n    }\n\n    /**\n     * @notice Checks whether the cap has been reached.\n     * @return bool Whether the cap was reached\n     */\n    function capReached() public view returns (bool) {\n        if (isFinalized) {\n            return (finalAmountReturned == 0);\n        }\n        return (tiers[tiers.length - 1].mintedTotal == tiers[tiers.length - 1].tokenTotal);\n    }\n\n    /**\n     * @dev returns current conversion rate of funds\n     * @param _fundRaiseType Fund raise type to get rate of\n     */\n    function getRate(FundRaiseType _fundRaiseType) public view returns (uint256) {\n        if (_fundRaiseType == FundRaiseType.ETH) {\n            return IOracle(_getOracle(bytes32(\"ETH\"), bytes32(\"USD\"))).getPrice();\n        } else if (_fundRaiseType == FundRaiseType.POLY) {\n            return IOracle(_getOracle(bytes32(\"POLY\"), bytes32(\"USD\"))).getPrice();\n        } else if (_fundRaiseType == FundRaiseType.SC) {\n            return 1 * 10**18;\n        } else {\n            revert(\"Incorrect funding\");\n        }\n    }\n\n    /**\n     * @notice This function converts from ETH or POLY to USD\n     * @param _fundRaiseType Currency key\n     * @param _amount Value to convert to USD\n     * @return uint256 Value in USD\n     */\n    function convertToUSD(FundRaiseType _fundRaiseType, uint256 _amount) public view returns(uint256) {\n        uint256 rate = getRate(_fundRaiseType);\n        return DecimalMath.mul(_amount, rate);\n    }\n\n    /**\n     * @notice This function converts from USD to ETH or POLY\n     * @param _fundRaiseType Currency key\n     * @param _amount Value to convert from USD\n     * @return uint256 Value in ETH or POLY\n     */\n    function convertFromUSD(FundRaiseType _fundRaiseType, uint256 _amount) public view returns(uint256) {\n        uint256 rate = getRate(_fundRaiseType);\n        return DecimalMath.div(_amount, rate);\n    }\n\n    /**\n     * @notice Return the total no. of tokens sold\n     * @return uint256 Total number of tokens sold\n     */\n    function getTokensSold() public view returns (uint256) {\n        if (isFinalized)\n            return totalTokensSold;\n        else\n            return getTokensMinted();\n    }\n\n    /**\n     * @notice Return the total no. of tokens minted\n     * @return uint256 Total number of tokens minted\n     */\n    function getTokensMinted() public view returns (uint256) {\n        uint256 tokensMinted;\n        for (uint256 i = 0; i < tiers.length; i++) {\n            tokensMinted = tokensMinted.add(tiers[i].mintedTotal);\n        }\n        return tokensMinted;\n    }\n\n    /**\n     * @notice Return the total no. of tokens sold for the given fund raise type\n     * param _fundRaiseType The fund raising currency (e.g. ETH, POLY, SC) to calculate sold tokens for\n     * @return uint256 Total number of tokens sold for ETH\n     */\n    function getTokensSoldFor(FundRaiseType _fundRaiseType) public view returns (uint256) {\n        uint256 tokensSold;\n        for (uint256 i = 0; i < tiers.length; i++) {\n            tokensSold = tokensSold.add(tiers[i].minted[uint8(_fundRaiseType)]);\n        }\n        return tokensSold;\n    }\n\n    /**\n     * @notice Return array of minted tokens in each fund raise type for given tier\n     * param _tier The tier to return minted tokens for\n     * @return uint256[] array of minted tokens in each fund raise type\n     */\n    function getTokensMintedByTier(uint256 _tier) public view returns (uint256[]) {\n        require(_tier < tiers.length, \"Invalid tier\");\n        uint256[] memory tokensMinted = new uint256[](3);\n        tokensMinted[0] = tiers[_tier].minted[uint8(FundRaiseType.ETH)];\n        tokensMinted[1] = tiers[_tier].minted[uint8(FundRaiseType.POLY)];\n        tokensMinted[2] = tiers[_tier].minted[uint8(FundRaiseType.SC)];\n        return tokensMinted;\n    }\n\n    /**\n     * @notice Return the total no. of tokens sold in a given tier\n     * param _tier The tier to calculate sold tokens for\n     * @return uint256 Total number of tokens sold in the tier\n     */\n    function getTokensSoldByTier(uint256 _tier) public view returns (uint256) {\n        require(_tier < tiers.length, \"Incorrect tier\");\n        uint256 tokensSold;\n        tokensSold = tokensSold.add(tiers[_tier].minted[uint8(FundRaiseType.ETH)]);\n        tokensSold = tokensSold.add(tiers[_tier].minted[uint8(FundRaiseType.POLY)]);\n        tokensSold = tokensSold.add(tiers[_tier].minted[uint8(FundRaiseType.SC)]);\n        return tokensSold;\n    }\n\n    /**\n     * @notice Return the total no. of tiers\n     * @return uint256 Total number of tiers\n     */\n    function getNumberOfTiers() public view returns (uint256) {\n        return tiers.length;\n    }\n\n    /**\n     * @notice Return the usd tokens accepted by the STO\n     * @return address[] usd tokens\n     */\n    function getUsdTokens() public view returns (address[]) {\n        return usdTokens;\n    }\n\n    /**\n     * @notice Return the permissions flag that are associated with STO\n     */\n    function getPermissions() public view returns(bytes32[]) {\n        bytes32[] memory allPermissions = new bytes32[](0);\n        return allPermissions;\n    }\n\n    /**\n     * @notice Return the STO details\n     * @return Unixtimestamp at which offering gets start.\n     * @return Unixtimestamp at which offering ends.\n     * @return Currently active tier\n     * @return Array of Number of tokens this STO will be allowed to sell at different tiers.\n     * @return Array Rate at which tokens are sold at different tiers\n     * @return Amount of funds raised\n     * @return Number of individual investors this STO have.\n     * @return Amount of tokens sold.\n     * @return Array of bools to show if funding is allowed in ETH, POLY, SC respectively\n     */\n    function getSTODetails() public view returns(uint256, uint256, uint256, uint256[], uint256[], uint256, uint256, uint256, bool[]) {\n        uint256[] memory cap = new uint256[](tiers.length);\n        uint256[] memory rate = new uint256[](tiers.length);\n        for(uint256 i = 0; i < tiers.length; i++) {\n            cap[i] = tiers[i].tokenTotal;\n            rate[i] = tiers[i].rate;\n        }\n        bool[] memory _fundRaiseTypes = new bool[](3);\n        _fundRaiseTypes[0] = fundRaiseTypes[uint8(FundRaiseType.ETH)];\n        _fundRaiseTypes[1] = fundRaiseTypes[uint8(FundRaiseType.POLY)];\n        _fundRaiseTypes[2] = fundRaiseTypes[uint8(FundRaiseType.SC)];\n        return (\n            startTime,\n            endTime,\n            currentTier,\n            cap,\n            rate,\n            fundsRaisedUSD,\n            investorCount,\n            getTokensSold(),\n            _fundRaiseTypes\n        );\n    }\n\n    /**\n     * @notice This function returns the signature of configure function\n     * @return bytes4 Configure function signature\n     */\n    function getInitFunction() public pure returns (bytes4) {\n        return 0xeac2f9e4;\n    }\n\n    function _getOracle(bytes32 _currency, bytes32 _denominatedCurrency) internal view returns (address) {\n        return PolymathRegistry(RegistryUpdater(securityToken).polymathRegistry()).getAddress(oracleKeys[_currency][_denominatedCurrency]);\n    }\n\n}\n",
  "sourcePath": "/Users/polymath/polymath-core/contracts/modules/STO/USDTieredSTO.sol",
  "compiler": {
    "name": "solc",
    "version": "0.4.24+commit.e67f0147.Emscripten.clang"
  },
  "schemaVersion": "2.0.1",
  "updatedAt": "2019-01-02T17:07:05.816Z"
}