{
  "contractName": "USDTieredSTO",
  "abi": [
    {
      "constant": true,
      "inputs": [
        {
          "name": "",
          "type": "uint256"
        }
      ],
      "name": "tiers",
      "outputs": [
        {
          "name": "rate",
          "type": "uint256"
        },
        {
          "name": "rateDiscountPoly",
          "type": "uint256"
        },
        {
          "name": "tokenTotal",
          "type": "uint256"
        },
        {
          "name": "tokensDiscountPoly",
          "type": "uint256"
        },
        {
          "name": "mintedTotal",
          "type": "uint256"
        },
        {
          "name": "mintedDiscountPoly",
          "type": "uint256"
        }
      ],
      "payable": false,
      "stateMutability": "view",
      "type": "function"
    },
    {
      "constant": true,
      "inputs": [],
      "name": "allowBeneficialInvestments",
      "outputs": [
        {
          "name": "",
          "type": "bool"
        }
      ],
      "payable": false,
      "stateMutability": "view",
      "type": "function"
    },
    {
      "constant": true,
      "inputs": [],
      "name": "endTime",
      "outputs": [
        {
          "name": "",
          "type": "uint256"
        }
      ],
      "payable": false,
      "stateMutability": "view",
      "type": "function"
    },
    {
      "constant": false,
      "inputs": [],
      "name": "unpause",
      "outputs": [],
      "payable": false,
      "stateMutability": "nonpayable",
      "type": "function"
    },
    {
      "constant": true,
      "inputs": [],
      "name": "nonAccreditedLimitUSD",
      "outputs": [
        {
          "name": "",
          "type": "uint256"
        }
      ],
      "payable": false,
      "stateMutability": "view",
      "type": "function"
    },
    {
      "constant": true,
      "inputs": [],
      "name": "wallet",
      "outputs": [
        {
          "name": "",
          "type": "address"
        }
      ],
      "payable": false,
      "stateMutability": "view",
      "type": "function"
    },
    {
      "constant": true,
      "inputs": [],
      "name": "paused",
      "outputs": [
        {
          "name": "",
          "type": "bool"
        }
      ],
      "payable": false,
      "stateMutability": "view",
      "type": "function"
    },
    {
      "constant": false,
      "inputs": [
        {
          "name": "_amount",
          "type": "uint256"
        }
      ],
      "name": "takeFee",
      "outputs": [
        {
          "name": "",
          "type": "bool"
        }
      ],
      "payable": false,
      "stateMutability": "nonpayable",
      "type": "function"
    },
    {
      "constant": true,
      "inputs": [],
      "name": "totalTokensSold",
      "outputs": [
        {
          "name": "",
          "type": "uint256"
        }
      ],
      "payable": false,
      "stateMutability": "view",
      "type": "function"
    },
    {
      "constant": true,
      "inputs": [],
      "name": "finalAmountReturned",
      "outputs": [
        {
          "name": "",
          "type": "uint256"
        }
      ],
      "payable": false,
      "stateMutability": "view",
      "type": "function"
    },
    {
      "constant": true,
      "inputs": [],
      "name": "polyToken",
      "outputs": [
        {
          "name": "",
          "type": "address"
        }
      ],
      "payable": false,
      "stateMutability": "view",
      "type": "function"
    },
    {
      "constant": true,
      "inputs": [],
      "name": "startTime",
      "outputs": [
        {
          "name": "",
          "type": "uint256"
        }
      ],
      "payable": false,
      "stateMutability": "view",
      "type": "function"
    },
    {
      "constant": true,
      "inputs": [
        {
          "name": "",
          "type": "address"
        }
      ],
      "name": "accredited",
      "outputs": [
        {
          "name": "",
          "type": "bool"
        }
      ],
      "payable": false,
      "stateMutability": "view",
      "type": "function"
    },
    {
      "constant": false,
      "inputs": [],
      "name": "pause",
      "outputs": [],
      "payable": false,
      "stateMutability": "nonpayable",
      "type": "function"
    },
    {
      "constant": true,
      "inputs": [
        {
          "name": "",
          "type": "address"
        },
        {
          "name": "",
          "type": "uint8"
        }
      ],
      "name": "investorInvested",
      "outputs": [
        {
          "name": "",
          "type": "uint256"
        }
      ],
      "payable": false,
      "stateMutability": "view",
      "type": "function"
    },
    {
      "constant": false,
      "inputs": [
        {
          "name": "_tokenContract",
          "type": "address"
        }
      ],
      "name": "reclaimERC20",
      "outputs": [],
      "payable": false,
      "stateMutability": "nonpayable",
      "type": "function"
    },
    {
      "constant": true,
      "inputs": [],
      "name": "isFinalized",
      "outputs": [
        {
          "name": "",
          "type": "bool"
        }
      ],
      "payable": false,
      "stateMutability": "view",
      "type": "function"
    },
    {
      "constant": true,
      "inputs": [],
      "name": "ETH_ORACLE",
      "outputs": [
        {
          "name": "",
          "type": "string"
        }
      ],
      "payable": false,
      "stateMutability": "view",
      "type": "function"
    },
    {
      "constant": true,
      "inputs": [
        {
          "name": "_fundRaiseType",
          "type": "uint8"
        }
      ],
      "name": "getRaised",
      "outputs": [
        {
          "name": "",
          "type": "uint256"
        }
      ],
      "payable": false,
      "stateMutability": "view",
      "type": "function"
    },
    {
      "constant": true,
      "inputs": [],
      "name": "POLY_ORACLE",
      "outputs": [
        {
          "name": "",
          "type": "string"
        }
      ],
      "payable": false,
      "stateMutability": "view",
      "type": "function"
    },
    {
      "constant": true,
      "inputs": [],
      "name": "pausedTime",
      "outputs": [
        {
          "name": "",
          "type": "uint256"
        }
      ],
      "payable": false,
      "stateMutability": "view",
      "type": "function"
    },
    {
      "constant": true,
      "inputs": [],
      "name": "securityToken",
      "outputs": [
        {
          "name": "",
          "type": "address"
        }
      ],
      "payable": false,
      "stateMutability": "view",
      "type": "function"
    },
    {
      "constant": true,
      "inputs": [],
      "name": "factory",
      "outputs": [
        {
          "name": "",
          "type": "address"
        }
      ],
      "payable": false,
      "stateMutability": "view",
      "type": "function"
    },
    {
      "constant": true,
      "inputs": [
        {
          "name": "",
          "type": "uint8"
        }
      ],
      "name": "fundsRaised",
      "outputs": [
        {
          "name": "",
          "type": "uint256"
        }
      ],
      "payable": false,
      "stateMutability": "view",
      "type": "function"
    },
    {
      "constant": true,
      "inputs": [
        {
          "name": "",
          "type": "address"
        }
      ],
      "name": "investorInvestedUSD",
      "outputs": [
        {
          "name": "",
          "type": "uint256"
        }
      ],
      "payable": false,
      "stateMutability": "view",
      "type": "function"
    },
    {
      "constant": true,
      "inputs": [
        {
          "name": "",
          "type": "uint8"
        }
      ],
      "name": "fundRaiseTypes",
      "outputs": [
        {
          "name": "",
          "type": "bool"
        }
      ],
      "payable": false,
      "stateMutability": "view",
      "type": "function"
    },
    {
      "constant": true,
      "inputs": [],
      "name": "currentTier",
      "outputs": [
        {
          "name": "",
          "type": "uint256"
        }
      ],
      "payable": false,
      "stateMutability": "view",
      "type": "function"
    },
    {
      "constant": true,
      "inputs": [],
      "name": "FEE_ADMIN",
      "outputs": [
        {
          "name": "",
          "type": "bytes32"
        }
      ],
      "payable": false,
      "stateMutability": "view",
      "type": "function"
    },
    {
      "constant": true,
      "inputs": [],
      "name": "reserveWallet",
      "outputs": [
        {
          "name": "",
          "type": "address"
        }
      ],
      "payable": false,
      "stateMutability": "view",
      "type": "function"
    },
    {
      "constant": true,
      "inputs": [],
      "name": "investorCount",
      "outputs": [
        {
          "name": "",
          "type": "uint256"
        }
      ],
      "payable": false,
      "stateMutability": "view",
      "type": "function"
    },
    {
      "constant": true,
      "inputs": [
        {
          "name": "",
          "type": "address"
        }
      ],
      "name": "nonAccreditedLimitUSDOverride",
      "outputs": [
        {
          "name": "",
          "type": "uint256"
        }
      ],
      "payable": false,
      "stateMutability": "view",
      "type": "function"
    },
    {
      "constant": true,
      "inputs": [],
      "name": "minimumInvestmentUSD",
      "outputs": [
        {
          "name": "",
          "type": "uint256"
        }
      ],
      "payable": false,
      "stateMutability": "view",
      "type": "function"
    },
    {
      "constant": true,
      "inputs": [],
      "name": "usdToken",
      "outputs": [
        {
          "name": "",
          "type": "address"
        }
      ],
      "payable": false,
      "stateMutability": "view",
      "type": "function"
    },
    {
      "constant": true,
      "inputs": [],
      "name": "fundsRaisedUSD",
      "outputs": [
        {
          "name": "",
          "type": "uint256"
        }
      ],
      "payable": false,
      "stateMutability": "view",
      "type": "function"
    },
    {
      "inputs": [
        {
          "name": "_securityToken",
          "type": "address"
        },
        {
          "name": "_polyAddress",
          "type": "address"
        }
      ],
      "payable": false,
      "stateMutability": "nonpayable",
      "type": "constructor"
    },
    {
      "payable": true,
      "stateMutability": "payable",
      "type": "fallback"
    },
    {
      "anonymous": false,
      "inputs": [
        {
          "indexed": false,
          "name": "_allowed",
          "type": "bool"
        }
      ],
      "name": "SetAllowBeneficialInvestments",
      "type": "event"
    },
    {
      "anonymous": false,
      "inputs": [
        {
          "indexed": false,
          "name": "_investor",
          "type": "address"
        },
        {
          "indexed": false,
          "name": "_limit",
          "type": "uint256"
        }
      ],
      "name": "SetNonAccreditedLimit",
      "type": "event"
    },
    {
      "anonymous": false,
      "inputs": [
        {
          "indexed": false,
          "name": "_investor",
          "type": "address"
        },
        {
          "indexed": false,
          "name": "_accredited",
          "type": "bool"
        }
      ],
      "name": "SetAccredited",
      "type": "event"
    },
    {
      "anonymous": false,
      "inputs": [
        {
          "indexed": true,
          "name": "_purchaser",
          "type": "address"
        },
        {
          "indexed": true,
          "name": "_beneficiary",
          "type": "address"
        },
        {
          "indexed": false,
          "name": "_tokens",
          "type": "uint256"
        },
        {
          "indexed": false,
          "name": "_usdAmount",
          "type": "uint256"
        },
        {
          "indexed": false,
          "name": "_tierPrice",
          "type": "uint256"
        },
        {
          "indexed": false,
          "name": "_tier",
          "type": "uint256"
        }
      ],
      "name": "TokenPurchase",
      "type": "event"
    },
    {
      "anonymous": false,
      "inputs": [
        {
          "indexed": true,
          "name": "_purchaser",
          "type": "address"
        },
        {
          "indexed": true,
          "name": "_beneficiary",
          "type": "address"
        },
        {
          "indexed": false,
          "name": "_usdAmount",
          "type": "uint256"
        },
        {
          "indexed": false,
          "name": "_fundRaiseType",
          "type": "uint8"
        },
        {
          "indexed": false,
          "name": "_receivedValue",
          "type": "uint256"
        },
        {
          "indexed": false,
          "name": "_spentValue",
          "type": "uint256"
        },
        {
          "indexed": false,
          "name": "_rate",
          "type": "uint256"
        }
      ],
      "name": "FundsReceived",
      "type": "event"
    },
    {
      "anonymous": false,
      "inputs": [
        {
          "indexed": true,
          "name": "_owner",
          "type": "address"
        },
        {
          "indexed": true,
          "name": "_wallet",
          "type": "address"
        },
        {
          "indexed": false,
          "name": "_tokens",
          "type": "uint256"
        },
        {
          "indexed": false,
          "name": "_latestTier",
          "type": "uint256"
        }
      ],
      "name": "ReserveTokenMint",
      "type": "event"
    },
    {
      "anonymous": false,
      "inputs": [
        {
          "indexed": true,
          "name": "_wallet",
          "type": "address"
        },
        {
          "indexed": true,
          "name": "_reserveWallet",
          "type": "address"
        },
        {
          "indexed": true,
          "name": "_usdToken",
          "type": "address"
        }
      ],
      "name": "SetAddresses",
      "type": "event"
    },
    {
      "anonymous": false,
      "inputs": [
        {
          "indexed": false,
          "name": "_nonAccreditedLimitUSD",
          "type": "uint256"
        },
        {
          "indexed": false,
          "name": "_minimumInvestmentUSD",
          "type": "uint256"
        }
      ],
      "name": "SetLimits",
      "type": "event"
    },
    {
      "anonymous": false,
      "inputs": [
        {
          "indexed": false,
          "name": "_startTime",
          "type": "uint256"
        },
        {
          "indexed": false,
          "name": "_endTime",
          "type": "uint256"
        }
      ],
      "name": "SetTimes",
      "type": "event"
    },
    {
      "anonymous": false,
      "inputs": [
        {
          "indexed": false,
          "name": "_ratePerTier",
          "type": "uint256[]"
        },
        {
          "indexed": false,
          "name": "_ratePerTierDiscountPoly",
          "type": "uint256[]"
        },
        {
          "indexed": false,
          "name": "_tokensPerTierTotal",
          "type": "uint256[]"
        },
        {
          "indexed": false,
          "name": "_tokensPerTierDiscountPoly",
          "type": "uint256[]"
        }
      ],
      "name": "SetTiers",
      "type": "event"
    },
    {
      "anonymous": false,
      "inputs": [
        {
          "indexed": false,
          "name": "_fundRaiseTypes",
          "type": "uint8[]"
        }
      ],
      "name": "SetFundRaiseTypes",
      "type": "event"
    },
    {
      "anonymous": false,
      "inputs": [
        {
          "indexed": false,
          "name": "_timestammp",
          "type": "uint256"
        }
      ],
      "name": "Pause",
      "type": "event"
    },
    {
      "anonymous": false,
      "inputs": [
        {
          "indexed": false,
          "name": "_timestamp",
          "type": "uint256"
        }
      ],
      "name": "Unpause",
      "type": "event"
    },
    {
      "constant": false,
      "inputs": [
        {
          "name": "_startTime",
          "type": "uint256"
        },
        {
          "name": "_endTime",
          "type": "uint256"
        },
        {
          "name": "_ratePerTier",
          "type": "uint256[]"
        },
        {
          "name": "_ratePerTierDiscountPoly",
          "type": "uint256[]"
        },
        {
          "name": "_tokensPerTierTotal",
          "type": "uint256[]"
        },
        {
          "name": "_tokensPerTierDiscountPoly",
          "type": "uint256[]"
        },
        {
          "name": "_nonAccreditedLimitUSD",
          "type": "uint256"
        },
        {
          "name": "_minimumInvestmentUSD",
          "type": "uint256"
        },
        {
          "name": "_fundRaiseTypes",
          "type": "uint8[]"
        },
        {
          "name": "_wallet",
          "type": "address"
        },
        {
          "name": "_reserveWallet",
          "type": "address"
        },
        {
          "name": "_usdToken",
          "type": "address"
        }
      ],
      "name": "configure",
      "outputs": [],
      "payable": false,
      "stateMutability": "nonpayable",
      "type": "function"
    },
    {
      "constant": false,
      "inputs": [
        {
          "name": "_fundRaiseTypes",
          "type": "uint8[]"
        }
      ],
      "name": "modifyFunding",
      "outputs": [],
      "payable": false,
      "stateMutability": "nonpayable",
      "type": "function"
    },
    {
      "constant": false,
      "inputs": [
        {
          "name": "_nonAccreditedLimitUSD",
          "type": "uint256"
        },
        {
          "name": "_minimumInvestmentUSD",
          "type": "uint256"
        }
      ],
      "name": "modifyLimits",
      "outputs": [],
      "payable": false,
      "stateMutability": "nonpayable",
      "type": "function"
    },
    {
      "constant": false,
      "inputs": [
        {
          "name": "_ratePerTier",
          "type": "uint256[]"
        },
        {
          "name": "_ratePerTierDiscountPoly",
          "type": "uint256[]"
        },
        {
          "name": "_tokensPerTierTotal",
          "type": "uint256[]"
        },
        {
          "name": "_tokensPerTierDiscountPoly",
          "type": "uint256[]"
        }
      ],
      "name": "modifyTiers",
      "outputs": [],
      "payable": false,
      "stateMutability": "nonpayable",
      "type": "function"
    },
    {
      "constant": false,
      "inputs": [
        {
          "name": "_startTime",
          "type": "uint256"
        },
        {
          "name": "_endTime",
          "type": "uint256"
        }
      ],
      "name": "modifyTimes",
      "outputs": [],
      "payable": false,
      "stateMutability": "nonpayable",
      "type": "function"
    },
    {
      "constant": false,
      "inputs": [
        {
          "name": "_wallet",
          "type": "address"
        },
        {
          "name": "_reserveWallet",
          "type": "address"
        },
        {
          "name": "_usdToken",
          "type": "address"
        }
      ],
      "name": "modifyAddresses",
      "outputs": [],
      "payable": false,
      "stateMutability": "nonpayable",
      "type": "function"
    },
    {
      "constant": false,
      "inputs": [],
      "name": "finalize",
      "outputs": [],
      "payable": false,
      "stateMutability": "nonpayable",
      "type": "function"
    },
    {
      "constant": false,
      "inputs": [
        {
          "name": "_investors",
          "type": "address[]"
        },
        {
          "name": "_accredited",
          "type": "bool[]"
        }
      ],
      "name": "changeAccredited",
      "outputs": [],
      "payable": false,
      "stateMutability": "nonpayable",
      "type": "function"
    },
    {
      "constant": false,
      "inputs": [
        {
          "name": "_investors",
          "type": "address[]"
        },
        {
          "name": "_nonAccreditedLimit",
          "type": "uint256[]"
        }
      ],
      "name": "changeNonAccreditedLimit",
      "outputs": [],
      "payable": false,
      "stateMutability": "nonpayable",
      "type": "function"
    },
    {
      "constant": false,
      "inputs": [
        {
          "name": "_allowBeneficialInvestments",
          "type": "bool"
        }
      ],
      "name": "changeAllowBeneficialInvestments",
      "outputs": [],
      "payable": false,
      "stateMutability": "nonpayable",
      "type": "function"
    },
    {
      "constant": false,
      "inputs": [
        {
          "name": "_beneficiary",
          "type": "address"
        }
      ],
      "name": "buyWithETH",
      "outputs": [],
      "payable": true,
      "stateMutability": "payable",
      "type": "function"
    },
    {
      "constant": false,
      "inputs": [
        {
          "name": "_beneficiary",
          "type": "address"
        },
        {
          "name": "_investedPOLY",
          "type": "uint256"
        }
      ],
      "name": "buyWithPOLY",
      "outputs": [],
      "payable": false,
      "stateMutability": "nonpayable",
      "type": "function"
    },
    {
      "constant": false,
      "inputs": [
        {
          "name": "_beneficiary",
          "type": "address"
        },
        {
          "name": "_investedDAI",
          "type": "uint256"
        }
      ],
      "name": "buyWithUSD",
      "outputs": [],
      "payable": false,
      "stateMutability": "nonpayable",
      "type": "function"
    },
    {
      "constant": false,
      "inputs": [
        {
          "name": "_beneficiary",
          "type": "address"
        },
        {
          "name": "_minTokens",
          "type": "uint256"
        }
      ],
      "name": "buyWithETHRateLimited",
      "outputs": [],
      "payable": true,
      "stateMutability": "payable",
      "type": "function"
    },
    {
      "constant": false,
      "inputs": [
        {
          "name": "_beneficiary",
          "type": "address"
        },
        {
          "name": "_investedPOLY",
          "type": "uint256"
        },
        {
          "name": "_minTokens",
          "type": "uint256"
        }
      ],
      "name": "buyWithPOLYRateLimited",
      "outputs": [],
      "payable": false,
      "stateMutability": "nonpayable",
      "type": "function"
    },
    {
      "constant": false,
      "inputs": [
        {
          "name": "_beneficiary",
          "type": "address"
        },
        {
          "name": "_investedDAI",
          "type": "uint256"
        },
        {
          "name": "_minTokens",
          "type": "uint256"
        }
      ],
      "name": "buyWithUSDRateLimited",
      "outputs": [],
      "payable": false,
      "stateMutability": "nonpayable",
      "type": "function"
    },
    {
      "constant": true,
      "inputs": [
        {
          "name": "_beneficiary",
          "type": "address"
        },
        {
          "name": "_investmentValue",
          "type": "uint256"
        },
        {
          "name": "_fundRaiseType",
          "type": "uint8"
        }
      ],
      "name": "buyTokensView",
      "outputs": [
        {
          "name": "spentUSD",
          "type": "uint256"
        },
        {
          "name": "spentValue",
          "type": "uint256"
        },
        {
          "name": "tokensMinted",
          "type": "uint256"
        }
      ],
      "payable": false,
      "stateMutability": "view",
      "type": "function"
    },
    {
      "constant": true,
      "inputs": [],
      "name": "isOpen",
      "outputs": [
        {
          "name": "",
          "type": "bool"
        }
      ],
      "payable": false,
      "stateMutability": "view",
      "type": "function"
    },
    {
      "constant": true,
      "inputs": [],
      "name": "capReached",
      "outputs": [
        {
          "name": "",
          "type": "bool"
        }
      ],
      "payable": false,
      "stateMutability": "view",
      "type": "function"
    },
    {
      "constant": true,
      "inputs": [
        {
          "name": "_fundRaiseType",
          "type": "uint8"
        }
      ],
      "name": "getRate",
      "outputs": [
        {
          "name": "",
          "type": "uint256"
        }
      ],
      "payable": false,
      "stateMutability": "view",
      "type": "function"
    },
    {
      "constant": true,
      "inputs": [
        {
          "name": "_fundRaiseType",
          "type": "uint8"
        },
        {
          "name": "_amount",
          "type": "uint256"
        }
      ],
      "name": "convertToUSD",
      "outputs": [
        {
          "name": "",
          "type": "uint256"
        }
      ],
      "payable": false,
      "stateMutability": "view",
      "type": "function"
    },
    {
      "constant": true,
      "inputs": [
        {
          "name": "_fundRaiseType",
          "type": "uint8"
        },
        {
          "name": "_amount",
          "type": "uint256"
        }
      ],
      "name": "convertFromUSD",
      "outputs": [
        {
          "name": "",
          "type": "uint256"
        }
      ],
      "payable": false,
      "stateMutability": "view",
      "type": "function"
    },
    {
      "constant": true,
      "inputs": [],
      "name": "getTokensSold",
      "outputs": [
        {
          "name": "",
          "type": "uint256"
        }
      ],
      "payable": false,
      "stateMutability": "view",
      "type": "function"
    },
    {
      "constant": true,
      "inputs": [],
      "name": "getTokensMinted",
      "outputs": [
        {
          "name": "",
          "type": "uint256"
        }
      ],
      "payable": false,
      "stateMutability": "view",
      "type": "function"
    },
    {
      "constant": true,
      "inputs": [
        {
          "name": "_fundRaiseType",
          "type": "uint8"
        }
      ],
      "name": "getTokensSoldFor",
      "outputs": [
        {
          "name": "",
          "type": "uint256"
        }
      ],
      "payable": false,
      "stateMutability": "view",
      "type": "function"
    },
    {
      "constant": true,
      "inputs": [
        {
          "name": "_tier",
          "type": "uint256"
        }
      ],
      "name": "getTokensMintedByTier",
      "outputs": [
        {
          "name": "",
          "type": "uint256[]"
        }
      ],
      "payable": false,
      "stateMutability": "view",
      "type": "function"
    },
    {
      "constant": true,
      "inputs": [
        {
          "name": "_tier",
          "type": "uint256"
        }
      ],
      "name": "getTokensSoldByTier",
      "outputs": [
        {
          "name": "",
          "type": "uint256"
        }
      ],
      "payable": false,
      "stateMutability": "view",
      "type": "function"
    },
    {
      "constant": true,
      "inputs": [],
      "name": "getNumberOfTiers",
      "outputs": [
        {
          "name": "",
          "type": "uint256"
        }
      ],
      "payable": false,
      "stateMutability": "view",
      "type": "function"
    },
    {
      "constant": true,
      "inputs": [],
      "name": "getPermissions",
      "outputs": [
        {
          "name": "",
          "type": "bytes32[]"
        }
      ],
      "payable": false,
      "stateMutability": "view",
      "type": "function"
    },
    {
      "constant": true,
      "inputs": [],
      "name": "getSTODetails",
      "outputs": [
        {
          "name": "",
          "type": "uint256"
        },
        {
          "name": "",
          "type": "uint256"
        },
        {
          "name": "",
          "type": "uint256"
        },
        {
          "name": "",
          "type": "uint256[]"
        },
        {
          "name": "",
          "type": "uint256[]"
        },
        {
          "name": "",
          "type": "uint256"
        },
        {
          "name": "",
          "type": "uint256"
        },
        {
          "name": "",
          "type": "uint256"
        },
        {
          "name": "",
          "type": "bool[]"
        }
      ],
      "payable": false,
      "stateMutability": "view",
      "type": "function"
    },
    {
      "constant": true,
      "inputs": [],
      "name": "getInitFunction",
      "outputs": [
        {
          "name": "",
          "type": "bytes4"
        }
      ],
      "payable": false,
      "stateMutability": "pure",
      "type": "function"
    }
  ],
  "bytecode": "0x60806040526001805460a060020a60ff02191690556018805460a060020a61ffff021916905534801561003157600080fd5b506040516040806200583883398101604052805160209091015160178054600160a060020a03938416600160a060020a03199182161790915560168054821633179055601880549390921692169190911790556157a480620000946000396000f3006080604052600436106102e75763ffffffff60e060020a6000350416630282a91881146102f4578063039af9eb1461033c5780630845c46b146103875780631040dc27146103b15780631613ec9d146104ce57806316d5ae7f146105185780631998af96146105805780632df413e2146105ad5780633197cbb6146105d657806337f6b82d146105eb5780633a3adf87146106125780633a4fd45c1461062d5780633e2769a1146106425780633f4ba83a14610666578063441b9e4a1461067b578063444aa92f1461069557806347535d7b146106a95780634b385a42146106be5780634bb278f3146106d35780634f935945146106e8578063521eb273146106fd5780635b66629d1461072e5780635c82d32e146107525780635c975abb146107795780635f7619a41461078e57806363b20117146107a65780636c41027f146107bb5780636faa22a5146107d057806370dc8752146107e557806378e97925146108295780637b06bc7c1461083e5780638320fc4e1461085f5780638456cb59146108ed578063877baeaa146109025780638784b1c2146109205780638905fd4f146109475780638c9844cb146109685780638d4e40831461098657806397a8feee1461099b5780639a7cc13514610a25578063a8955ed614610a40578063b0ff041e14610a55578063b2cca39d14610bc0578063b391844614610bd5578063b39f8ae414610bf0578063b7ebae0b14610c0b578063b84dfbd214610c26578063bf11664814610c3b578063c3a07df614610c5b578063c45a015514610c70578063c4d2c6bd14610c85578063c513933814610ca0578063cf789d0b14610cc1578063d143a37914610cd8578063d679677a14610cf3578063d69f6bae14610d08578063d70afa9614610d1d578063d72b11bd14610d32578063d7e64c0014610d47578063eaa32c4014610d5c578063ec47740f14610d7d578063ee7c0db014610d92578063f897a22b14610da7578063fbe8d9fe14610dbc578063ff18ead314610e4a575b6102f2336000610e5f565b005b34801561030057600080fd5b5061031e600160a060020a036004351660243560ff604435166111af565b60408051938452602084019290925282820152519081900360600190f35b34801561034857600080fd5b50610354600435611348565b604080519687526020870195909552858501939093526060850191909152608084015260a0830152519081900360c00190f35b34801561039357600080fd5b5061039f60043561138c565b60408051918252519081900360200190f35b3480156103bd57600080fd5b506103c6611495565b604051808a815260200189815260200188815260200180602001806020018781526020018681526020018581526020018060200184810384528a818151815260200191508051906020019060200280838360005b8381101561043257818101518382015260200161041a565b50505050905001848103835289818151815260200191508051906020019060200280838360005b83811015610471578181015183820152602001610459565b50505050905001848103825285818151815260200191508051906020019060200280838360005b838110156104b0578181015183820152602001610498565b505050509050019c5050505050505050505050505060405180910390f35b3480156104da57600080fd5b506104e36116cb565b604080517fffffffff000000000000000000000000000000000000000000000000000000009092168252519081900360200190f35b34801561052457600080fd5b506105306004356116f0565b60408051602080825283518183015283519192839290830191858101910280838360005b8381101561056c578181015183820152602001610554565b505050509050019250505060405180910390f35b34801561058c57600080fd5b506102f2600160a060020a036004358116906024358116906044351661184b565b3480156105b957600080fd5b506105c261196e565b604080519115158252519081900360200190f35b3480156105e257600080fd5b5061039f61197e565b3480156105f757600080fd5b506102f2600160a060020a0360043516602435604435611984565b34801561061e57600080fd5b506102f2600435602435611a04565b34801561063957600080fd5b5061039f611b25565b34801561064e57600080fd5b506102f2600160a060020a0360043516602435611b2b565b34801561067257600080fd5b506102f2611b37565b34801561068757600080fd5b506102f26004351515611c0d565b6102f2600160a060020a0360043516611db0565b3480156106b557600080fd5b506105c2611dbe565b3480156106ca57600080fd5b5061039f611e19565b3480156106df57600080fd5b506102f2611e1f565b3480156106f457600080fd5b506105c26121c7565b34801561070957600080fd5b50610712612236565b60408051600160a060020a039092168252519081900360200190f35b34801561073a57600080fd5b506102f2600160a060020a0360043516602435612245565b34801561075e57600080fd5b506102f2600160a060020a036004351660243560443561224d565b34801561078557600080fd5b506105c2612373565b34801561079a57600080fd5b506105c2600435612383565b3480156107b257600080fd5b5061039f6126c3565b3480156107c757600080fd5b5061039f6126c9565b3480156107dc57600080fd5b506107126126cf565b3480156107f157600080fd5b506102f260246004803582810192908201359181358083019290820135916044358083019290820135916064359182019101356126de565b34801561083557600080fd5b5061039f6128b2565b34801561084a57600080fd5b506105c2600160a060020a03600435166128b8565b34801561086b57600080fd5b50604080516020600480358082013583810280860185019096528085526102f295369593946024949385019291829185019084908082843750506040805187358901803560208181028481018201909552818452989b9a9989019892975090820195509350839250850190849080828437509497506128cd9650505050505050565b3480156108f957600080fd5b506102f2612ae6565b34801561090e57600080fd5b5061039f60ff60043516602435612c13565b34801561092c57600080fd5b5061039f600160a060020a036004351660ff60243516612c33565b34801561095357600080fd5b506102f2600160a060020a0360043516612c50565b34801561097457600080fd5b5061039f60ff60043516602435612efd565b34801561099257600080fd5b506105c2612f15565b3480156109a757600080fd5b506109b0612f25565b6040805160208082528351818301528351919283929083019185019080838360005b838110156109ea5781810151838201526020016109d2565b50505050905090810190601f168015610a175780820380516001836020036101000a031916815260200191505b509250505060405180910390f35b348015610a3157600080fd5b5061039f60ff60043516612f5c565b348015610a4c57600080fd5b506109b0612f8b565b348015610a6157600080fd5b5060408051602060046044358181013583810280860185019096528085526102f2958335956024803596369695606495939492019291829185019084908082843750506040805187358901803560208181028481018201909552818452989b9a998901989297509082019550935083925085019084908082843750506040805187358901803560208181028481018201909552818452989b9a998901989297509082019550935083925085019084908082843750506040805187358901803560208181028481018201909552818452989b9a9989019892975090820195509350839250850190849080828437505060408051818801358901803560208181028481018201909552818452989b8a359b8a8c01359b919a9099506060909101975092955090820193509182918501908490808284375094975050600160a060020a03853581169650602086013581169560400135169350612fc292505050565b348015610bcc57600080fd5b5061039f6131e8565b348015610be157600080fd5b5061039f60ff600435166131ee565b348015610bfc57600080fd5b506102f2600435602435613260565b348015610c1757600080fd5b5061039f60ff6004351661337d565b348015610c3257600080fd5b506107126134ef565b348015610c4757600080fd5b506102f260048035602481019101356134fe565b348015610c6757600080fd5b50610530613647565b348015610c7c57600080fd5b5061071261365c565b348015610c9157600080fd5b5061039f60ff6004351661366b565b348015610cac57600080fd5b5061039f600160a060020a036004351661367d565b6102f2600160a060020a0360043516602435610e5f565b348015610ce457600080fd5b506105c260ff6004351661368f565b348015610cff57600080fd5b5061039f6136a4565b348015610d1457600080fd5b5061039f6136aa565b348015610d2957600080fd5b5061039f6136fc565b348015610d3e57600080fd5b50610712613720565b348015610d5357600080fd5b5061039f61372f565b348015610d6857600080fd5b5061039f600160a060020a0360043516613735565b348015610d8957600080fd5b5061039f613747565b348015610d9e57600080fd5b5061039f61374d565b348015610db357600080fd5b5061071261377a565b348015610dc857600080fd5b50604080516020600480358082013583810280860185019096528085526102f295369593946024949385019291829185019084908082843750506040805187358901803560208181028481018201909552818452989b9a9989019892975090820195509350839250850190849080828437509497506137899650505050505050565b348015610e5657600080fd5b5061039f6139fc565b600080808080610e987f455448000000000000000000000000000000000000000000000000000000000060ea60020a621554d102613a02565b600160a060020a03161415610ef7576040805160e560020a62461bcd02815260206004820152600e60248201527f496e76616c6964204f7261636c65000000000000000000000000000000000000604482015290519081900360640190fd5b60008052600e6020527fe710864318d4a32f37d6ce54cb3fadbef648dd12d8dbdf53973564d56b7f881c5460ff161515610f7b576040805160e560020a62461bcd02815260206004820152600f60248201527f455448206e6f7420616c6c6f7765640000000000000000000000000000000000604482015290519081900360640190fd5b610f85600061337d565b9350610f8f6136aa565b9250610f9e8634866000613bad565b9150915084610fbb84610faf6136aa565b9063ffffffff613e6316565b1015611011576040805160e560020a62461bcd02815260206004820152601a60248201527f496e73756666696369656e7420746f6b656e73206d696e746564000000000000604482015290519081900360640190fd5b600160a060020a038616600090815260076020526040812061105291839190805b60ff1681526020810191909152604001600020549063ffffffff613e7516565b600160a060020a0387166000908152600760209081526040808320838052909152812091909155611088908290600f9080611032565b6000808052600f6020527ff4803e074bd026baaf6ed2e288c9515f68c72fb7216eebdd7cae1718a53ec37591909155601454604051600160a060020a03909116916108fc841502918491818181858888f193505050501580156110ef573d6000803e3d6000fd5b50336108fc611104348463ffffffff613e6316565b6040518115909202916000818181858888f1935050505015801561112c573d6000803e3d6000fd5b5085600160a060020a031633600160a060020a03167fa5a66b45c30fa6510eb2c3ccbe3c500d21863c7cc3e37d2dc85bb28db7775bd184600034868a6040518086815260200185600281111561117e57fe5b60ff1681526020018481526020018381526020018281526020019550505050505060405180910390a3505050505050565b600080808080808080808060018b60028111156111c857fe5b14806111df575060028b60028111156111dd57fe5b145b806111f5575060008b60028111156111f357fe5b145b151561124b576040805160e560020a62461bcd02815260206004820152601260248201527f496e76616c696420726169736520747970650000000000000000000000000000604482015290519081900360640190fd5b6112548b61337d565b9650611260878d613e82565b955061126d8d8d88613eb9565b945060045493505b600d5484101561132357600d80548590811061128d57fe5b906000526020600020906007020160020154600d858154811015156112ae57fe5b9060005260206000209060070201600401541015611318576112e0846112da878d63ffffffff613e6316565b8d61417f565b90945090925090506112f88a8363ffffffff613e7516565b995061130a888263ffffffff613e7516565b975082151561131857611323565b600190930192611275565b6113366113308b88614324565b8d613e82565b98505050505050505093509350939050565b600d80548290811061135657fe5b60009182526020909120600790910201805460018201546002830154600384015460048501546006909501549395509193909286565b600d54600090819083106113ea576040805160e560020a62461bcd02815260206004820152600e60248201527f496e636f72726563742074696572000000000000000000000000000000000000604482015290519081900360640190fd5b611432600d848154811015156113fc57fe5b60009182526020822060056007909202010190805b60ff168152602081019190915260400160002054829063ffffffff613e7516565b9050611460600d8481548110151561144657fe5b600091825260208220600560079092020101906001611411565b905061148e600d8481548110151561147457fe5b600091825260208220600560079092020101906002611411565b9392505050565b60008060006060806000806000606080606060006060600d805490506040519080825280602002602001820160405280156114da578160200160208202803883390190505b50600d546040805182815260208084028201019091529195508015611509578160200160208202803883390190505b509250600091505b600d5482101561159657600d80548390811061152957fe5b906000526020600020906007020160020154848381518110151561154957fe5b60209081029091010152600d80548390811061156157fe5b906000526020600020906007020160000154838381518110151561158157fe5b60209081029091010152600190910190611511565b60408051600380825260808201909252906020820160608038833950506000808052600e6020527fe710864318d4a32f37d6ce54cb3fadbef648dd12d8dbdf53973564d56b7f881c54835193945060ff169284925081106115f357fe5b91151560209283029190910182015260016000819052600e9091527fa7c5ba7114a813b50159add3a36832908dc83db71d0b9a24c2ad0f83be95820754825160ff909116918391811061164257fe5b91151560209283029190910182015260026000819052600e90915260008051602061573983398151915254825160ff909116918391811061167f57fe5b911515602092830290910190910152601054601154600454600554601354889188916116a961374d565b889c509c509c509c509c509c509c509c509c5050505050909192939495969798565b7fb0ff041e000000000000000000000000000000000000000000000000000000005b90565b600d546060908190831061174e576040805160e560020a62461bcd02815260206004820152600c60248201527f496e76616c696420746965720000000000000000000000000000000000000000604482015290519081900360640190fd5b604080516003808252608082019092529060208201606080388339019050509050600d8381548110151561177e57fe5b600091825260208083208380526007929092029091016005019052604081205482519091839181106117ac57fe5b60209081029091010152600d8054849081106117c457fe5b60009182526020808320600180855260079390930201600501905260409091205482519091839181106117f357fe5b60209081029091010152600d80548490811061180b57fe5b600091825260208083206002808552600793909302016005019052604090912054825190918391811061183a57fe5b602090810290910101529050919050565b601760009054906101000a9004600160a060020a0316600160a060020a0316638da5cb5b6040518163ffffffff1660e060020a028152600401602060405180830381600087803b15801561189e57600080fd5b505af11580156118b2573d6000803e3d6000fd5b505050506040513d60208110156118c857600080fd5b5051600160a060020a03163314611917576040805160e560020a62461bcd0281526020600482015260136024820152600080516020615759833981519152604482015290519081900360640190fd5b601054421061195e576040805160e560020a62461bcd0281526020600482015260136024820152600080516020615719833981519152604482015290519081900360640190fd5b611969838383614345565b505050565b60015460a060020a900460ff1681565b60115481565b6002600052600e6020526000805160206157398339815191525460ff1615156119f7576040805160e560020a62461bcd02815260206004820152600f60248201527f444149206e6f7420616c6c6f7765640000000000000000000000000000000000604482015290519081900360640190fd5b61196983836002846144b8565b601760009054906101000a9004600160a060020a0316600160a060020a0316638da5cb5b6040518163ffffffff1660e060020a028152600401602060405180830381600087803b158015611a5757600080fd5b505af1158015611a6b573d6000803e3d6000fd5b505050506040513d6020811015611a8157600080fd5b5051600160a060020a03163314611ad0576040805160e560020a62461bcd0281526020600482015260136024820152600080516020615759833981519152604482015290519081900360640190fd5b6010544210611b17576040805160e560020a62461bcd0281526020600482015260136024820152600080516020615719833981519152604482015290519081900360640190fd5b611b218282614810565b5050565b600d5490565b611b2182826000611984565b601760009054906101000a9004600160a060020a0316600160a060020a0316638da5cb5b6040518163ffffffff1660e060020a028152600401602060405180830381600087803b158015611b8a57600080fd5b505af1158015611b9e573d6000803e3d6000fd5b505050506040513d6020811015611bb457600080fd5b5051600160a060020a03163314611c03576040805160e560020a62461bcd0281526020600482015260136024820152600080516020615759833981519152604482015290519081900360640190fd5b611c0b614859565b565b601760009054906101000a9004600160a060020a0316600160a060020a0316638da5cb5b6040518163ffffffff1660e060020a028152600401602060405180830381600087803b158015611c6057600080fd5b505af1158015611c74573d6000803e3d6000fd5b505050506040513d6020811015611c8a57600080fd5b5051600160a060020a03163314611cd9576040805160e560020a62461bcd0281526020600482015260136024820152600080516020615759833981519152604482015290519081900360640190fd5b60015460a060020a900460ff1615158115151415611d41576040805160e560020a62461bcd02815260206004820152600f60248201527f56616c756520756e6368616e6765640000000000000000000000000000000000604482015290519081900360640190fd5b6001805482151560a060020a90810274ff0000000000000000000000000000000000000000199092169190911791829055604080519190920460ff161515815290517fea6eddcb8f2bf55dfb29aef4bd48214ef0798b9eae2e1bbb25dac99ecf6da6ae9181900360200190a150565b611dbb816000610e5f565b50565b60015460009060a860020a900460ff1615611ddb575060006116ed565b601054421015611ded575060006116ed565b6011544210611dfe575060006116ed565b611e066121c7565b15611e13575060006116ed565b50600190565b60095481565b600080600080601760009054906101000a9004600160a060020a0316600160a060020a0316638da5cb5b6040518163ffffffff1660e060020a028152600401602060405180830381600087803b158015611e7857600080fd5b505af1158015611e8c573d6000803e3d6000fd5b505050506040513d6020811015611ea257600080fd5b5051600160a060020a03163314611ef1576040805160e560020a62461bcd0281526020600482015260136024820152600080516020615759833981519152604482015290519081900360640190fd5b60015460a860020a900460ff1615611f53576040805160e560020a62461bcd02815260206004820152601860248201527f53544f20697320616c72656164792066696e616c697a65640000000000000000604482015290519081900360640190fd5b506001805475ff000000000000000000000000000000000000000000191660a860020a17905560005b600d5481101561207857611fd9600d82815481101515611f9857fe5b906000526020600020906007020160040154600d83815481101515611fb957fe5b906000526020600020906007020160020154613e6390919063ffffffff16565b9150611feb848363ffffffff613e7516565b9350612020600d82815481101515611fff57fe5b90600052602060002090600702016004015484613e7590919063ffffffff16565b9250600082111561207057600d80548290811061203957fe5b906000526020600020906007020160020154600d8281548110151561205a57fe5b9060005260206000209060070201600401819055505b600101611f7c565b601754600354604080517f40c10f19000000000000000000000000000000000000000000000000000000008152600160a060020a03928316600482015260248101889052905191909216916340c10f199160448083019260209291908290030181600087803b1580156120ea57600080fd5b505af11580156120fe573d6000803e3d6000fd5b505050506040513d602081101561211457600080fd5b5051151561216c576040805160e560020a62461bcd02815260206004820152601060248201527f4572726f7220696e206d696e74696e6700000000000000000000000000000000604482015290519081900360640190fd5b6003546004546040805187815260208101929092528051600160a060020a039093169233927f2e16431844933795a4d33f27d6b8347133a6fb5fa7dcdf51d555906f6d8b705492908290030190a35050600c91909155601555565b60015460009060a860020a900460ff16156121e65750600c54156116ed565b600d805460001981019081106121f857fe5b6000918252602090912060026007909202010154600d8054600019810190811061221e57fe5b90600052602060002090600702016004015414905090565b601454600160a060020a031681565b611b21828260005b60006122827f504f4c590000000000000000000000000000000000000000000000000000000060ea60020a621554d102613a02565b600160a060020a031614156122e1576040805160e560020a62461bcd02815260206004820152600e60248201527f496e76616c6964204f7261636c65000000000000000000000000000000000000604482015290519081900360640190fd5b6001600052600e6020527fa7c5ba7114a813b50159add3a36832908dc83db71d0b9a24c2ad0f83be9582075460ff161515612366576040805160e560020a62461bcd02815260206004820152601060248201527f504f4c59206e6f7420616c6c6f77656400000000000000000000000000000000604482015290519081900360640190fd5b61196983836001846144b8565b60185460a060020a900460ff1681565b60007f4645455f41444d494e0000000000000000000000000000000000000000000000600080601760009054906101000a9004600160a060020a0316600160a060020a0316638da5cb5b6040518163ffffffff1660e060020a028152600401602060405180830381600087803b1580156123fc57600080fd5b505af1158015612410573d6000803e3d6000fd5b505050506040513d602081101561242657600080fd5b505160165433600160a060020a0392831681149450911614905081806124495750805b806124ef5750601754604080517f8658b8b9000000000000000000000000000000000000000000000000000000008152336004820152306024820152604481018690529051600160a060020a0390921691638658b8b9916064808201926020929091908290030181600087803b1580156124c257600080fd5b505af11580156124d6573d6000803e3d6000fd5b505050506040513d60208110156124ec57600080fd5b50515b1515612545576040805160e560020a62461bcd02815260206004820152601760248201527f5065726d697373696f6e20636865636b206661696c6564000000000000000000604482015290519081900360640190fd5b601854601754601654604080517f8da5cb5b0000000000000000000000000000000000000000000000000000000081529051600160a060020a03948516946323b872dd948116931691638da5cb5b9160048083019260209291908290030181600087803b1580156125b557600080fd5b505af11580156125c9573d6000803e3d6000fd5b505050506040513d60208110156125df57600080fd5b50516040805160e060020a63ffffffff8616028152600160a060020a039384166004820152929091166024830152604482018990525160648083019260209291908290030181600087803b15801561263657600080fd5b505af115801561264a573d6000803e3d6000fd5b505050506040513d602081101561266057600080fd5b505115156126b8576040805160e560020a62461bcd02815260206004820152601260248201527f556e61626c6520746f2074616b65206665650000000000000000000000000000604482015290519081900360640190fd5b506001949350505050565b60155481565b600c5481565b601854600160a060020a031681565b601760009054906101000a9004600160a060020a0316600160a060020a0316638da5cb5b6040518163ffffffff1660e060020a028152600401602060405180830381600087803b15801561273157600080fd5b505af1158015612745573d6000803e3d6000fd5b505050506040513d602081101561275b57600080fd5b5051600160a060020a031633146127aa576040805160e560020a62461bcd0281526020600482015260136024820152600080516020615759833981519152604482015290519081900360640190fd5b60105442106127f1576040805160e560020a62461bcd0281526020600482015260136024820152600080516020615719833981519152604482015290519081900360640190fd5b6128a88888808060200260200160405190810160405280939291908181526020018383602002808284375050604080516020808e0282810182019093528d82529095508d94508c93508392508501908490808284375050604080516020808d0282810182019093528c82529095508c94508b93508392508501908490808284375050604080516020808c0282810182019093528b82529095508b94508a93508392508501908490808284375061490f945050505050565b5050505050505050565b60105481565b60086020526000908152604090205460ff1681565b601754604080517f8da5cb5b0000000000000000000000000000000000000000000000000000000081529051600092600160a060020a031691638da5cb5b91600480830192602092919082900301818787803b15801561292c57600080fd5b505af1158015612940573d6000803e3d6000fd5b505050506040513d602081101561295657600080fd5b5051600160a060020a031633146129a5576040805160e560020a62461bcd0281526020600482015260136024820152600080516020615759833981519152604482015290519081900360640190fd5b81518351146129fe576040805160e560020a62461bcd02815260206004820152601560248201527f4172726179206c656e677468206d69736d617463680000000000000000000000604482015290519081900360640190fd5b5060005b8251811015611969578181815181101515612a1957fe5b90602001906020020151600860008584815181101515612a3557fe5b602090810291909101810151600160a060020a03168252810191909152604001600020805460ff191691151591909117905582517f5bc4e4d4bde98d5a327e2a911b87c042b79ec57d32ddca3bf73e76cdc77de7eb90849083908110612a9757fe5b906020019060200201518383815181101515612aaf57fe5b602090810290910181015160408051600160a060020a039094168452901515918301919091528051918290030190a1600101612a02565b601760009054906101000a9004600160a060020a0316600160a060020a0316638da5cb5b6040518163ffffffff1660e060020a028152600401602060405180830381600087803b158015612b3957600080fd5b505af1158015612b4d573d6000803e3d6000fd5b505050506040513d6020811015612b6357600080fd5b5051600160a060020a03163314612bb2576040805160e560020a62461bcd0281526020600482015260136024820152600080516020615759833981519152604482015290519081900360640190fd5b6011544210612c0b576040805160e560020a62461bcd02815260206004820152601660248201527f53544f20686173206265656e2066696e616c697a656400000000000000000000604482015290519081900360640190fd5b611c0b614e13565b600080612c1f8461337d565b9050612c2b8382613e82565b949350505050565b600760209081526000928352604080842090915290825290205481565b600080601760009054906101000a9004600160a060020a0316600160a060020a0316638da5cb5b6040518163ffffffff1660e060020a028152600401602060405180830381600087803b158015612ca657600080fd5b505af1158015612cba573d6000803e3d6000fd5b505050506040513d6020811015612cd057600080fd5b5051600160a060020a03163314612d1f576040805160e560020a62461bcd0281526020600482015260136024820152600080516020615759833981519152604482015290519081900360640190fd5b600160a060020a0383161515612d7f576040805160e560020a62461bcd02815260206004820152600f60248201527f496e76616c696420616464726573730000000000000000000000000000000000604482015290519081900360640190fd5b604080517f70a082310000000000000000000000000000000000000000000000000000000081523060048201529051849350600160a060020a038416916370a082319160248083019260209291908290030181600087803b158015612de357600080fd5b505af1158015612df7573d6000803e3d6000fd5b505050506040513d6020811015612e0d57600080fd5b5051604080517fa9059cbb000000000000000000000000000000000000000000000000000000008152336004820152602481018390529051919250600160a060020a0384169163a9059cbb916044808201926020929091908290030181600087803b158015612e7b57600080fd5b505af1158015612e8f573d6000803e3d6000fd5b505050506040513d6020811015612ea557600080fd5b50511515611969576040805160e560020a62461bcd02815260206004820152600f60248201527f5472616e73666572206661696c65640000000000000000000000000000000000604482015290519081900360640190fd5b600080612f098461337d565b9050612c2b8382614324565b60015460a860020a900460ff1681565b60408051808201909152600c81527f4574685573644f7261636c650000000000000000000000000000000000000000602082015281565b6000600f6000836002811115612f6e57fe5b60ff1660ff1681526020019081526020016000205490505b919050565b60408051808201909152600d81527f506f6c795573644f7261636c6500000000000000000000000000000000000000602082015281565b601654600160a060020a03163314613024576040805160e560020a62461bcd02815260206004820152601560248201527f53656e646572206973206e6f7420666163746f72790000000000000000000000604482015290519081900360640190fd5b60408051808201909152600c81527f4574685573644f7261636c650000000000000000000000000000000000000000602080830191825260ea60020a621554d1026000527f53ffa114ba2ce1ae2b33bea44459e521b4dcd90ecf5e26edc0c74207c71a4d36905290516130b8917ff1554b02425cc2401298719fc1e32ee9893ec4780015443d3099a80a32182ca391615627565b5060408051808201909152600d81527f506f6c795573644f7261636c6500000000000000000000000000000000000000602080830191825260ea60020a621554d1026000527f82d6ebbc41f8fb09c49ed7614ca0dbb8a745daf467726f1773ca5d4ed02909439052905161314d917fcbb6a8a44cd43e32acada640d97dc1df3765f23ba0b5a4e0bbc73fc1bfed20a791615627565b50601154156131a6576040805160e560020a62461bcd02815260206004820152601260248201527f416c726561647920636f6e666967757265640000000000000000000000000000604482015290519081900360640190fd5b6131b08c8c614ece565b6131bc8a8a8a8a61490f565b6131c584614f7b565b6131d0838383614345565b6131da8686614810565b505050505050505050505050565b60125481565b600080805b600d548110156132595761324f600d8281548110151561320f57fe5b9060005260206000209060070201600501600086600281111561322e57fe5b60ff168152602081019190915260400160002054839063ffffffff613e7516565b91506001016131f3565b5092915050565b601760009054906101000a9004600160a060020a0316600160a060020a0316638da5cb5b6040518163ffffffff1660e060020a028152600401602060405180830381600087803b1580156132b357600080fd5b505af11580156132c7573d6000803e3d6000fd5b505050506040513d60208110156132dd57600080fd5b5051600160a060020a0316331461332c576040805160e560020a62461bcd0281526020600482015260136024820152600080516020615759833981519152604482015290519081900360640190fd5b6010544210613373576040805160e560020a62461bcd0281526020600482015260136024820152600080516020615719833981519152604482015290519081900360640190fd5b611b218282614ece565b60008082600281111561338c57fe5b1415613435576133c57f455448000000000000000000000000000000000000000000000000000000000060ea60020a621554d102613a02565b600160a060020a03166398d5fdca6040518163ffffffff1660e060020a028152600401602060405180830381600087803b15801561340257600080fd5b505af1158015613416573d6000803e3d6000fd5b505050506040513d602081101561342c57600080fd5b50519050612f86565b600182600281111561344357fe5b141561347c576133c57f504f4c590000000000000000000000000000000000000000000000000000000060ea60020a621554d102613a02565b600282600281111561348a57fe5b141561349f5750670de0b6b3a7640000612f86565b6040805160e560020a62461bcd02815260206004820152601160248201527f496e636f72726563742066756e64696e67000000000000000000000000000000604482015290519081900360640190fd5b601754600160a060020a031681565b601760009054906101000a9004600160a060020a0316600160a060020a0316638da5cb5b6040518163ffffffff1660e060020a028152600401602060405180830381600087803b15801561355157600080fd5b505af1158015613565573d6000803e3d6000fd5b505050506040513d602081101561357b57600080fd5b5051600160a060020a031633146135ca576040805160e560020a62461bcd0281526020600482015260136024820152600080516020615759833981519152604482015290519081900360640190fd5b6010544210613611576040805160e560020a62461bcd0281526020600482015260136024820152600080516020615719833981519152604482015290519081900360640190fd5b611b2182828080602002602001604051908101604052809392919081815260200183836020028082843750614f7b945050505050565b604080516000815260208101909152805b5090565b601654600160a060020a031681565b600f6020526000908152604090205481565b60066020526000908152604090205481565b600e6020526000908152604090205460ff1681565b60045481565b600080805b600d548110156136f6576136ec600d828154811015156136cb57fe5b90600052602060002090600702016004015483613e7590919063ffffffff16565b91506001016136af565b50919050565b7f4645455f41444d494e000000000000000000000000000000000000000000000081565b600354600160a060020a031681565b60135481565b600a6020526000908152604090205481565b600b5481565b60015460009060a860020a900460ff161561376b57506015546116ed565b6137736136aa565b90506116ed565b600154600160a060020a031681565b601754604080517f8da5cb5b0000000000000000000000000000000000000000000000000000000081529051600092600160a060020a031691638da5cb5b91600480830192602092919082900301818787803b1580156137e857600080fd5b505af11580156137fc573d6000803e3d6000fd5b505050506040513d602081101561381257600080fd5b5051600160a060020a03163314613861576040805160e560020a62461bcd0281526020600482015260136024820152600080516020615759833981519152604482015290519081900360640190fd5b81518351146138ba576040805160e560020a62461bcd02815260206004820152601560248201527f4172726179206c656e677468206d69736d617463680000000000000000000000604482015290519081900360640190fd5b5060005b825181101561196957600082828151811015156138d757fe5b6020908102909101015111613936576040805160e560020a62461bcd02815260206004820152600960248201527f4c696d6974203d20300000000000000000000000000000000000000000000000604482015290519081900360640190fd5b818181518110151561394457fe5b90602001906020020151600a6000858481518110151561396057fe5b6020908102909101810151600160a060020a031682528101919091526040016000205582517fcde9ad1085e6403dc0f4aec5ed3e0e505e5cd00bc639943be2601cfedc6ce80f908490839081106139b357fe5b9060200190602002015183838151811015156139cb57fe5b602090810290910181015160408051600160a060020a039094168452918301528051918290030190a16001016138be565b60055481565b601754604080517f77282b700000000000000000000000000000000000000000000000000000000081529051600092600160a060020a0316916377282b7091600480830192602092919082900301818787803b158015613a6157600080fd5b505af1158015613a75573d6000803e3d6000fd5b505050506040513d6020811015613a8b57600080fd5b505160008481526020818152604080832086845282529182902091517fbf40fac10000000000000000000000000000000000000000000000000000000081526004810191825282546002610100600183161502600019019091160460248201819052600160a060020a039094169363bf40fac1939291829160449091019084908015613b585780601f10613b2d57610100808354040283529160200191613b58565b820191906000526020600020905b815481529060010190602001808311613b3b57829003601f168201915b505092505050602060405180830381600087803b158015613b7857600080fd5b505af1158015613b8c573d6000803e3d6000fd5b505050506040513d6020811015613ba257600080fd5b505190505b92915050565b6000806000806000806000601860159054906101000a900460ff16151515613bd457600080fd5b6018805475ff000000000000000000000000000000000000000000191660a860020a179081905560a060020a900460ff1615613c5a576040805160e560020a62461bcd02815260206004820152601260248201527f436f6e7472616374206973207061757365640000000000000000000000000000604482015290519081900360640190fd5b60015460a060020a900460ff161515613ccd57600160a060020a038b163314613ccd576040805160e560020a62461bcd02815260206004820152601560248201527f42656e656669636961727920213d2066756e6465720000000000000000000000604482015290519081900360640190fd5b613cd7898b613e82565b9450613ce48b8b87613eb9565b935060045492505b600d54831015613d94576004548314613d055760048390555b600d805484908110613d1357fe5b906000526020600020906007020160020154600d84815481101515613d3457fe5b9060005260206000209060070201600401541015613d8957613d678b84613d61878b63ffffffff613e6316565b8b61512a565b92509050613d7b878263ffffffff613e7516565b9650811515613d8957613d94565b600190920191613cec565b6000871115613e1f57600160a060020a038b166000908152600660205260409020541515613dc6576013805460010190555b600160a060020a038b16600090815260066020526040902054613def908863ffffffff613e7516565b600160a060020a038c16600090815260066020526040902055600554613e1b908863ffffffff613e7516565b6005555b613e32613e2c8887614324565b8b613e82565b6018805475ff00000000000000000000000000000000000000000019169055969b969a509598505050505050505050565b600082821115613e6f57fe5b50900390565b81810182811015613ba757fe5b6000670de0b6b3a7640000613ea8613e9a8585615380565b6706f05b59d3b20000613e75565b811515613eb157fe5b049392505050565b600080613ec4611dbe565b1515613f1a576040805160e560020a62461bcd02815260206004820152600c60248201527f53544f206e6f74206f70656e0000000000000000000000000000000000000000604482015290519081900360640190fd5b60008411613f72576040805160e560020a62461bcd02815260206004820152601260248201527f4e6f2066756e647320776572652073656e740000000000000000000000000000604482015290519081900360640190fd5b600b54600160a060020a038616600090815260066020526040902054613f9f90859063ffffffff613e7516565b101561401b576040805160e560020a62461bcd02815260206004820152602760248201527f546f74616c20696e766573746d656e74203c206d696e696d756d496e7665737460448201527f6d656e7455534400000000000000000000000000000000000000000000000000606482015290519081900360840190fd5b600160a060020a03851660009081526008602052604090205483925060ff16151561417757600160a060020a0385166000908152600a60205260409020541561407c57600160a060020a0385166000908152600a6020526040902054614080565b6009545b600160a060020a0386166000908152600660205260409020549091508111614118576040805160e560020a62461bcd02815260206004820152602260248201527f4f766572204e6f6e2d6163637265646974656420696e766573746f72206c696d60448201527f6974000000000000000000000000000000000000000000000000000000000000606482015290519081900360840190fd5b600160a060020a038516600090815260066020526040902054819061414490859063ffffffff613e7516565b111561417757600160a060020a03851660009081526006602052604090205461417490829063ffffffff613e6316565b91505b509392505050565b600080600080600080600080600d8b81548110151561419a57fe5b60009182526020909120600790910201925060018960028111156141ba57fe5b1480156141ce575082600601548360030154115b1561425a57600683015460038401546141ec9163ffffffff613e6316565b915061420983600401548460020154613e6390919063ffffffff16565b90508181101561422f576142228360010154828c6153a9565b9199509097509550614247565b61423e8360010154838c6153a9565b91995090975095505b6142578a8963ffffffff613e6316565b99505b60008a11801561429457506000614292614281888660040154613e7590919063ffffffff16565b60028601549063ffffffff613e6316565b115b80156142be575060018960028111156142a957fe5b1415806142be57508260060154836003015411155b15614316578254600484015460028501546142ea92916142e4919063ffffffff613e6316565b8c6153a9565b98509095509350614301888663ffffffff613e7516565b9750614313868563ffffffff613e7516565b95505b505050505093509350939050565b600081613ea861433c85670de0b6b3a7640000615380565b60028504613e75565b600160a060020a038316158015906143655750600160a060020a03821615155b15156143bb576040805160e560020a62461bcd02815260206004820152600e60248201527f496e76616c69642077616c6c6574000000000000000000000000000000000000604482015290519081900360640190fd5b6002600052600e6020526000805160206157398339815191525460ff161561443d57600160a060020a038116151561443d576040805160e560020a62461bcd02815260206004820152601060248201527f496e76616c696420757364546f6b656e00000000000000000000000000000000604482015290519081900360640190fd5b6014805473ffffffffffffffffffffffffffffffffffffffff19908116600160a060020a03868116918217909355600380548316868516908117909155600180549093169385169384179092556040517fbbfb274df95bebde0669697bf0d15986b4ad73e11c495ae4e2d08d1bc5c90bad90600090a4505050565b60008080808060018760028111156144cc57fe5b14806144e3575060028760028111156144e157fe5b145b1515614539576040805160e560020a62461bcd02815260206004820152601260248201527f496e76616c696420726169736520747970650000000000000000000000000000604482015290519081900360640190fd5b6145416136aa565b945061454c8761337d565b935061455a8989868a613bad565b925092508561456b86610faf6136aa565b10156145c1576040805160e560020a62461bcd02815260206004820152601a60248201527f496e73756666696369656e7420746f6b656e73206d696e746564000000000000604482015290519081900360640190fd5b600160a060020a03891660009081526007602052604081206145ec918491908a600281111561103257fe5b600160a060020a038a1660009081526007602052604081209089600281111561461157fe5b60ff1660ff1681526020019081526020016000208190555061463d82600f60008a600281111561103257fe5b600f600089600281111561464d57fe5b60ff168152602081019190915260400160002055600187600281111561466f57fe5b1461468557600154600160a060020a0316614692565b601854600160a060020a03165b601454604080517f23b872dd000000000000000000000000000000000000000000000000000000008152336004820152600160a060020a039283166024820152604481018690529051929350908316916323b872dd916064808201926020929091908290030181600087803b15801561470a57600080fd5b505af115801561471e573d6000803e3d6000fd5b505050506040513d602081101561473457600080fd5b5051151561478c576040805160e560020a62461bcd02815260206004820152600f60248201527f5472616e73666572206661696c65640000000000000000000000000000000000604482015290519081900360640190fd5b88600160a060020a031633600160a060020a03167fa5a66b45c30fa6510eb2c3ccbe3c500d21863c7cc3e37d2dc85bb28db7775bd1858a8c878a604051808681526020018560028111156147dc57fe5b60ff1681526020018481526020018381526020018281526020019550505050505060405180910390a3505050505050505050565b600b8190556009829055604080518281526020810184905281517f6edefa108617056bef120162b4dc9ced4920b9a10f2dcc512c4c60fee6e7e693929181900390910190a15050565b60185460a060020a900460ff1615156148bc576040805160e560020a62461bcd02815260206004820152601660248201527f436f6e7472616374206973206e6f742070617573656400000000000000000000604482015290519081900360640190fd5b6018805474ff0000000000000000000000000000000000000000191690556040805142815290517faaa520fdd7d2c83061d632fa017b0432407e798818af63ea908589fceda39ab79181900360200190a1565b600080835111151561496b576040805160e560020a62461bcd02815260206004820152601160248201527f4e6f2074696572732070726f7669646564000000000000000000000000000000604482015290519081900360640190fd5b8251855114801561497d575082518451145b801561498a575082518251145b15156149e0576040805160e560020a62461bcd02815260206004820152601960248201527f546965722064617461206c656e677468206d69736d6174636800000000000000604482015290519081900360640190fd5b6149ec600d60006156a1565b5060005b8451811015614cc55760008582815181101515614a0957fe5b6020908102909101015111614a68576040805160e560020a62461bcd02815260206004820152600c60248201527f496e76616c696420726174650000000000000000000000000000000000000000604482015290519081900360640190fd5b60008382815181101515614a7857fe5b6020908102909101015111614ad7576040805160e560020a62461bcd02815260206004820152601460248201527f496e76616c696420746f6b656e20616d6f756e74000000000000000000000000604482015290519081900360640190fd5b8281815181101515614ae557fe5b906020019060200201518282815181101515614afd57fe5b602090810290910101511115614b5d576040805160e560020a62461bcd02815260206004820152601a60248201527f546f6f206d616e7920646973636f756e74656420746f6b656e73000000000000604482015290519081900360640190fd5b8481815181101515614b6b57fe5b906020019060200201518482815181101515614b8357fe5b602090810290910101511115614be3576040805160e560020a62461bcd02815260206004820152601060248201527f496e76616c696420646973636f756e7400000000000000000000000000000000604482015290519081900360640190fd5b600d60c0604051908101604052808784815181101515614bff57fe5b9060200190602002015181526020018684815181101515614c1c57fe5b9060200190602002015181526020018584815181101515614c3957fe5b9060200190602002015181526020018484815181101515614c5657fe5b60209081029091018101518252600082820181905260409283018190528454600181810187559582529082902084516007909202019081559083015181850155908201516002820155606082015160038201556080820151600482015560a090910151600690910155016149f0565b7fbdbb624542b4a708b5fed87894a55c10945f2676a45a28f9da59597118247496858585856040518080602001806020018060200180602001858103855289818151815260200191508051906020019060200280838360005b83811015614d36578181015183820152602001614d1e565b50505050905001858103845288818151815260200191508051906020019060200280838360005b83811015614d75578181015183820152602001614d5d565b50505050905001858103835287818151815260200191508051906020019060200280838360005b83811015614db4578181015183820152602001614d9c565b50505050905001858103825286818151815260200191508051906020019060200280838360005b83811015614df3578181015183820152602001614ddb565b505050509050019850505050505050505060405180910390a15050505050565b60185460a060020a900460ff1615614e75576040805160e560020a62461bcd02815260206004820152601260248201527f436f6e7472616374206973207061757365640000000000000000000000000000604482015290519081900360640190fd5b6018805474ff0000000000000000000000000000000000000000191660a060020a1790556040805142815290517f68b095021b1f40fe513109f513c66692f0b3219aee674a69f4efc57badb8201d9181900360200190a1565b8181118015614edc57504282115b1515614f32576040805160e560020a62461bcd02815260206004820152600d60248201527f496e76616c69642074696d657300000000000000000000000000000000000000604482015290519081900360640190fd5b60108290556011819055604080518381526020810183905281517f2eae0d0a99cbf5ab05babf7ee1f4bdf6e9bb99ffdca04682fa54f6682d5d80fe929181900390910190a15050565b6000808251111515614fd7576040805160e560020a62461bcd02815260206004820152601b60248201527f52616973652074797065206973206e6f74207370656369666965640000000000604482015290519081900360640190fd5b50600e6020527fe710864318d4a32f37d6ce54cb3fadbef648dd12d8dbdf53973564d56b7f881c805460ff199081169091557fa7c5ba7114a813b50159add3a36832908dc83db71d0b9a24c2ad0f83be9582078054821690556002600090815260008051602061573983398151915280549092169091555b81518160ff1610156150b1576001600e6000848460ff1681518110151561507257fe5b90602001906020020151600281111561508757fe5b60ff1681526020810191909152604001600020805460ff191691151591909117905560010161504f565b7fe5724f42dd9f217c97b3768212ed6d6692c0135e252387d61b98af28fecd9b02826040518080602001828103825283818151815260200191508051906020019060200280838360005b838110156151135781810151838201526020016150fb565b505050509050019250505060405180910390a15050565b600080600080600080600080899350600d8b81548110151561514857fe5b600091825260209091206007909102019250600189600281111561516857fe5b14801561517c575082600601548360030154115b1561527d576006830154600384015461519a9163ffffffff613e6316565b91506151b783600401548460020154613e6390919063ffffffff16565b9050818110156151df576151d28c846001015483878f6154a9565b91995090975094506151f9565b6151f08c846001015484878f6154a9565b91995090975094505b615209848963ffffffff613e6316565b6006840154909450615221908663ffffffff613e7516565b600684015561523c856005850160008c600281111561103257fe5b8360050160008b600281111561524e57fe5b60ff1681526020810191909152604001600020556004830154615277908663ffffffff613e7516565b60048401555b6000841180156152a7575060006152a584600401548560020154613e6390919063ffffffff16565b115b80156152d1575060018960028111156152bc57fe5b1415806152d157508260060154836003015411155b15615371576153018c84600001546152fa86600401548760020154613e6390919063ffffffff16565b878f6154a9565b98509096509450615318888763ffffffff613e7516565b9750615330858460050160008c600281111561103257fe5b8360050160008b600281111561534257fe5b60ff168152602081019190915260400160002055600483015461536b908663ffffffff613e7516565b60048401555b50505050505094509492505050565b600082151561539157506000613ba7565b508181028183828115156153a157fe5b0414613ba757fe5b60008060008060006153bb8689614324565b9150601760009054906101000a9004600160a060020a0316600160a060020a031663556f0dc76040518163ffffffff1660e060020a028152600401602060405180830381600087803b15801561541057600080fd5b505af1158015615424573d6000803e3d6000fd5b505050506040513d602081101561543a57600080fd5b5051905061544e828263ffffffff61561a16565b9150615460828263ffffffff61538016565b91508682111561548e576154748789613e82565b945085851115615482578594505b8693506001925061549e565b6154988289613e82565b94508193505b505093509350939050565b60008060006154b98787876153a9565b91945092509050600082111561560f57601754604080517f40c10f19000000000000000000000000000000000000000000000000000000008152600160a060020a038b8116600483015260248201869052915191909216916340c10f199160448083019260209291908290030181600087803b15801561553857600080fd5b505af115801561554c573d6000803e3d6000fd5b505050506040513d602081101561556257600080fd5b505115156155ba576040805160e560020a62461bcd02815260206004820152601060248201527f4572726f7220696e206d696e74696e6700000000000000000000000000000000604482015290519081900360640190fd5b6040805183815260208101859052808201899052606081018690529051600160a060020a038a169133917fc29b8032387f267ddc010037627574acbf3b1a65a6022ca8ba6c25f0ba85ee759181900360800190a35b955095509592505050565b60008183811515613eb157fe5b828054600181600116156101000203166002900490600052602060002090601f016020900481019282601f1061566857805160ff1916838001178555615695565b82800160010185558215615695579182015b8281111561569557825182559160200191906001019061567a565b506136589291506156c2565b5080546000825560070290600052602060002090810190611dbb91906156dc565b6116ed91905b8082111561365857600081556001016156c8565b6116ed91905b808211156136585760008082556001820181905560028201819055600382018190556004820181905560068201556007016156e2560053544f20616c72656164792073746172746564000000000000000000000000009adb202b1492743bc00c81d33cdc6423fa8c79109027eb6a845391e8fc1f048153656e646572206973206e6f74206f776e657200000000000000000000000000a165627a7a72305820a6355611ed28bc19bc003cdbc415bffa2bca033293eb97388d071ccc0a372c410029",
  "source": "pragma solidity ^0.4.24;\n\nimport \"./ISTO.sol\";\nimport \"../../interfaces/ISecurityToken.sol\";\nimport \"../../interfaces/IOracle.sol\";\nimport \"../../RegistryUpdater.sol\";\nimport \"../../libraries/DecimalMath.sol\";\nimport \"openzeppelin-solidity/contracts/math/SafeMath.sol\";\nimport \"openzeppelin-solidity/contracts/ReentrancyGuard.sol\";\nimport \"./USDTieredSTOStorage.sol\";\n\n/**\n * @title STO module for standard capped crowdsale\n */\ncontract USDTieredSTO is USDTieredSTOStorage, ISTO, ReentrancyGuard {\n    using SafeMath for uint256;\n\n    string public constant POLY_ORACLE = \"PolyUsdOracle\";\n    string public constant ETH_ORACLE = \"EthUsdOracle\";\n\n    ////////////\n    // Events //\n    ////////////\n\n    event SetAllowBeneficialInvestments(bool _allowed);\n    event SetNonAccreditedLimit(address _investor, uint256 _limit);\n    event SetAccredited(address _investor, bool _accredited);\n    event TokenPurchase(\n        address indexed _purchaser,\n        address indexed _beneficiary,\n        uint256 _tokens,\n        uint256 _usdAmount,\n        uint256 _tierPrice,\n        uint256 _tier\n    );\n    event FundsReceived(\n        address indexed _purchaser,\n        address indexed _beneficiary,\n        uint256 _usdAmount,\n        FundRaiseType _fundRaiseType,\n        uint256 _receivedValue,\n        uint256 _spentValue,\n        uint256 _rate\n    );\n    event ReserveTokenMint(address indexed _owner, address indexed _wallet, uint256 _tokens, uint256 _latestTier);\n    event SetAddresses(\n        address indexed _wallet,\n        address indexed _reserveWallet,\n        address indexed _usdToken\n    );\n    event SetLimits(\n        uint256 _nonAccreditedLimitUSD,\n        uint256 _minimumInvestmentUSD\n    );\n    event SetTimes(\n        uint256 _startTime,\n        uint256 _endTime\n    );\n    event SetTiers(\n        uint256[] _ratePerTier,\n        uint256[] _ratePerTierDiscountPoly,\n        uint256[] _tokensPerTierTotal,\n        uint256[] _tokensPerTierDiscountPoly\n    );\n\n    ///////////////\n    // Modifiers //\n    ///////////////\n\n    modifier validETH {\n        require(_getOracle(bytes32(\"ETH\"), bytes32(\"USD\")) != address(0), \"Invalid Oracle\");\n        require(fundRaiseTypes[uint8(FundRaiseType.ETH)], \"ETH not allowed\");\n        _;\n    }\n\n    modifier validPOLY {\n        require(_getOracle(bytes32(\"POLY\"), bytes32(\"USD\")) != address(0), \"Invalid Oracle\");\n        require(fundRaiseTypes[uint8(FundRaiseType.POLY)], \"POLY not allowed\");\n        _;\n    }\n\n    modifier validDAI {\n        require(fundRaiseTypes[uint8(FundRaiseType.DAI)], \"DAI not allowed\");\n        _;\n    }\n\n    ///////////////////////\n    // STO Configuration //\n    ///////////////////////\n\n    constructor (address _securityToken, address _polyAddress)\n    public\n    Module(_securityToken, _polyAddress)\n    {\n    }\n\n    /**\n     * @notice Function used to intialize the contract variables\n     * @param _startTime Unix timestamp at which offering get started\n     * @param _endTime Unix timestamp at which offering get ended\n     * @param _ratePerTier Rate (in USD) per tier (* 10**18)\n     * @param _tokensPerTierTotal Tokens available in each tier\n     * @param _nonAccreditedLimitUSD Limit in USD (* 10**18) for non-accredited investors\n     * @param _minimumInvestmentUSD Minimun investment in USD (* 10**18)\n     * @param _fundRaiseTypes Types of currency used to collect the funds\n     * @param _wallet Ethereum account address to hold the funds\n     * @param _reserveWallet Ethereum account address to receive unsold tokens\n     * @param _usdToken Contract address of the stable coin\n     */\n    function configure(\n        uint256 _startTime,\n        uint256 _endTime,\n        uint256[] _ratePerTier,\n        uint256[] _ratePerTierDiscountPoly,\n        uint256[] _tokensPerTierTotal,\n        uint256[] _tokensPerTierDiscountPoly,\n        uint256 _nonAccreditedLimitUSD,\n        uint256 _minimumInvestmentUSD,\n        FundRaiseType[] _fundRaiseTypes,\n        address _wallet,\n        address _reserveWallet,\n        address _usdToken\n    ) public onlyFactory {\n        oracleKeys[bytes32(\"ETH\")][bytes32(\"USD\")] = ETH_ORACLE;\n        oracleKeys[bytes32(\"POLY\")][bytes32(\"USD\")] = POLY_ORACLE;\n        require(endTime == 0, \"Already configured\");\n        _modifyTimes(_startTime, _endTime);\n        _modifyTiers(_ratePerTier, _ratePerTierDiscountPoly, _tokensPerTierTotal, _tokensPerTierDiscountPoly);\n        // NB - _setFundRaiseType must come before modifyAddresses\n        _setFundRaiseType(_fundRaiseTypes);\n        _modifyAddresses(_wallet, _reserveWallet, _usdToken);\n        _modifyLimits(_nonAccreditedLimitUSD, _minimumInvestmentUSD);\n    }\n\n    /**\n     * @dev Modifies fund raise types\n     * @param _fundRaiseTypes Array of fund raise types to allow\n     */\n    function modifyFunding(FundRaiseType[] _fundRaiseTypes) external onlyOwner {\n        /*solium-disable-next-line security/no-block-members*/\n        require(now < startTime, \"STO already started\");\n        _setFundRaiseType(_fundRaiseTypes);\n    }\n\n    /**\n     * @dev modifies max non accredited invets limit and overall minimum investment limit\n     * @param _nonAccreditedLimitUSD max non accredited invets limit\n     * @param _minimumInvestmentUSD overall minimum investment limit\n     */\n    function modifyLimits(\n        uint256 _nonAccreditedLimitUSD,\n        uint256 _minimumInvestmentUSD\n    ) external onlyOwner {\n        /*solium-disable-next-line security/no-block-members*/\n        require(now < startTime, \"STO already started\");\n        _modifyLimits(_nonAccreditedLimitUSD, _minimumInvestmentUSD);\n    }\n\n    /**\n     * @dev modifiers STO tiers. All tiers must be passed, can not edit specific tiers.\n     * @param _ratePerTier Array of rates per tier\n     * @param _ratePerTierDiscountPoly Array of discounted poly rates per tier\n     * @param _tokensPerTierTotal Array of total tokens per tier\n     * @param _tokensPerTierDiscountPoly Array of discounted tokens per tier\n     */\n    function modifyTiers(\n        uint256[] _ratePerTier,\n        uint256[] _ratePerTierDiscountPoly,\n        uint256[] _tokensPerTierTotal,\n        uint256[] _tokensPerTierDiscountPoly\n    ) external onlyOwner {\n        /*solium-disable-next-line security/no-block-members*/\n        require(now < startTime, \"STO already started\");\n        _modifyTiers(_ratePerTier, _ratePerTierDiscountPoly, _tokensPerTierTotal, _tokensPerTierDiscountPoly);\n    }\n\n    /**\n     * @dev Modifies STO start and end times\n     * @param _startTime start time of sto\n     * @param _endTime end time of sto\n     */\n    function modifyTimes(\n        uint256 _startTime,\n        uint256 _endTime\n    ) external onlyOwner {\n        /*solium-disable-next-line security/no-block-members*/\n        require(now < startTime, \"STO already started\");\n        _modifyTimes(_startTime, _endTime);\n    }\n\n    /**\n     * @dev Modifies addresses used as wallet, reserve wallet and usd token\n     * @param _wallet Address of wallet where funds are sent\n     * @param _reserveWallet Address of wallet where unsold tokens are sent\n     * @param _usdToken Address of usd token (DAI)\n     */\n    function modifyAddresses(\n        address _wallet,\n        address _reserveWallet,\n        address _usdToken\n    ) external onlyOwner {\n        /*solium-disable-next-line security/no-block-members*/\n        require(now < startTime, \"STO already started\");\n        _modifyAddresses(_wallet, _reserveWallet, _usdToken);\n    }\n\n    function _modifyLimits(\n        uint256 _nonAccreditedLimitUSD,\n        uint256 _minimumInvestmentUSD\n    ) internal {\n        minimumInvestmentUSD = _minimumInvestmentUSD;\n        nonAccreditedLimitUSD = _nonAccreditedLimitUSD;\n        emit SetLimits(minimumInvestmentUSD, nonAccreditedLimitUSD);\n    }\n\n    function _modifyTiers(\n        uint256[] _ratePerTier,\n        uint256[] _ratePerTierDiscountPoly,\n        uint256[] _tokensPerTierTotal,\n        uint256[] _tokensPerTierDiscountPoly\n    ) internal {\n        require(_tokensPerTierTotal.length > 0, \"No tiers provided\");\n        require(_ratePerTier.length == _tokensPerTierTotal.length &&\n            _ratePerTierDiscountPoly.length == _tokensPerTierTotal.length &&\n            _tokensPerTierDiscountPoly.length == _tokensPerTierTotal.length,\n            \"Tier data length mismatch\"\n        );\n        delete tiers;\n        for (uint256 i = 0; i < _ratePerTier.length; i++) {\n            require(_ratePerTier[i] > 0, \"Invalid rate\");\n            require(_tokensPerTierTotal[i] > 0, \"Invalid token amount\");\n            require(_tokensPerTierDiscountPoly[i] <= _tokensPerTierTotal[i], \"Too many discounted tokens\");\n            require(_ratePerTierDiscountPoly[i] <= _ratePerTier[i], \"Invalid discount\");\n            tiers.push(Tier(_ratePerTier[i], _ratePerTierDiscountPoly[i], _tokensPerTierTotal[i], _tokensPerTierDiscountPoly[i], 0, 0));\n        }\n        emit SetTiers(_ratePerTier, _ratePerTierDiscountPoly, _tokensPerTierTotal, _tokensPerTierDiscountPoly);\n    }\n\n    function _modifyTimes(\n        uint256 _startTime,\n        uint256 _endTime\n    ) internal {\n        /*solium-disable-next-line security/no-block-members*/\n        require((_endTime > _startTime) && (_startTime > now), \"Invalid times\");\n        startTime = _startTime;\n        endTime = _endTime;\n        emit SetTimes(_startTime, _endTime);\n    }\n\n    function _modifyAddresses(\n        address _wallet,\n        address _reserveWallet,\n        address _usdToken\n    ) internal {\n        require(_wallet != address(0) && _reserveWallet != address(0), \"Invalid wallet\");\n        if (fundRaiseTypes[uint8(FundRaiseType.DAI)]) {\n            require(_usdToken != address(0), \"Invalid usdToken\");\n        }\n        wallet = _wallet;\n        reserveWallet = _reserveWallet;\n        usdToken = IERC20(_usdToken);\n        emit SetAddresses(_wallet, _reserveWallet, _usdToken);\n    }\n\n    ////////////////////\n    // STO Management //\n    ////////////////////\n\n    /**\n     * @notice Finalizes the STO and mint remaining tokens to reserve address\n     * @notice Reserve address must be whitelisted to successfully finalize\n     */\n    function finalize() public onlyOwner {\n        require(!isFinalized, \"STO is already finalized\");\n        isFinalized = true;\n        uint256 tempReturned;\n        uint256 tempSold;\n        uint256 remainingTokens;\n        for (uint256 i = 0; i < tiers.length; i++) {\n            remainingTokens = tiers[i].tokenTotal.sub(tiers[i].mintedTotal);\n            tempReturned = tempReturned.add(remainingTokens);\n            tempSold = tempSold.add(tiers[i].mintedTotal);\n            if (remainingTokens > 0) {\n                tiers[i].mintedTotal = tiers[i].tokenTotal;\n            }\n        }\n        require(ISecurityToken(securityToken).mint(reserveWallet, tempReturned), \"Error in minting\");\n        emit ReserveTokenMint(msg.sender, reserveWallet, tempReturned, currentTier);\n        finalAmountReturned = tempReturned;\n        totalTokensSold = tempSold;\n    }\n\n    /**\n     * @notice Modifies the list of accredited addresses\n     * @param _investors Array of investor addresses to modify\n     * @param _accredited Array of bools specifying accreditation status\n     */\n    function changeAccredited(address[] _investors, bool[] _accredited) public onlyOwner {\n        require(_investors.length == _accredited.length, \"Array length mismatch\");\n        for (uint256 i = 0; i < _investors.length; i++) {\n            accredited[_investors[i]] = _accredited[i];\n            emit SetAccredited(_investors[i], _accredited[i]);\n        }\n    }\n\n    /**\n     * @notice Modifies the list of overrides for non-accredited limits in USD\n     * @param _investors Array of investor addresses to modify\n     * @param _nonAccreditedLimit Array of uints specifying non-accredited limits\n     */\n    function changeNonAccreditedLimit(address[] _investors, uint256[] _nonAccreditedLimit) public onlyOwner {\n        //nonAccreditedLimitUSDOverride\n        require(_investors.length == _nonAccreditedLimit.length, \"Array length mismatch\");\n        for (uint256 i = 0; i < _investors.length; i++) {\n            require(_nonAccreditedLimit[i] > 0, \"Limit = 0\");\n            nonAccreditedLimitUSDOverride[_investors[i]] = _nonAccreditedLimit[i];\n            emit SetNonAccreditedLimit(_investors[i], _nonAccreditedLimit[i]);\n        }\n    }\n\n    /**\n     * @notice Function to set allowBeneficialInvestments (allow beneficiary to be different to funder)\n     * @param _allowBeneficialInvestments Boolean to allow or disallow beneficial investments\n     */\n    function changeAllowBeneficialInvestments(bool _allowBeneficialInvestments) public onlyOwner {\n        require(_allowBeneficialInvestments != allowBeneficialInvestments, \"Value unchanged\");\n        allowBeneficialInvestments = _allowBeneficialInvestments;\n        emit SetAllowBeneficialInvestments(allowBeneficialInvestments);\n    }\n\n    //////////////////////////\n    // Investment Functions //\n    //////////////////////////\n\n    /**\n    * @notice fallback function - assumes ETH being invested\n    */\n    function () external payable {\n        buyWithETHRateLimited(msg.sender, 0);\n    }\n\n    // Buy functions without rate restriction\n    function buyWithETH(address _beneficiary) external payable {\n        buyWithETHRateLimited(_beneficiary, 0);\n    }\n\n    function buyWithPOLY(address _beneficiary, uint256 _investedPOLY) external {\n        buyWithPOLYRateLimited(_beneficiary, _investedPOLY, 0);\n    }\n\n    function buyWithUSD(address _beneficiary, uint256 _investedDAI) external {\n        buyWithUSDRateLimited(_beneficiary, _investedDAI, 0);\n    }\n\n    /**\n      * @notice Purchase tokens using ETH\n      * @param _beneficiary Address where security tokens will be sent\n      * @param _minTokens Minumum number of tokens to buy or else revert\n      */\n    function buyWithETHRateLimited(address _beneficiary, uint256 _minTokens) public payable validETH {\n        uint256 rate = getRate(FundRaiseType.ETH);\n        uint256 initialMinted = getTokensMinted();\n        (uint256 spentUSD, uint256 spentValue) = _buyTokens(_beneficiary, msg.value, rate, FundRaiseType.ETH);\n        require(getTokensMinted().sub(initialMinted) >= _minTokens, \"Insufficient tokens minted\");\n        // Modify storage\n        investorInvested[_beneficiary][uint8(FundRaiseType.ETH)] = investorInvested[_beneficiary][uint8(FundRaiseType.ETH)].add(spentValue);\n        fundsRaised[uint8(FundRaiseType.ETH)] = fundsRaised[uint8(FundRaiseType.ETH)].add(spentValue);\n        // Forward ETH to issuer wallet\n        wallet.transfer(spentValue);\n        // Refund excess ETH to investor wallet\n        msg.sender.transfer(msg.value.sub(spentValue));\n        emit FundsReceived(msg.sender, _beneficiary, spentUSD, FundRaiseType.ETH, msg.value, spentValue, rate);\n    }\n\n    /**\n      * @notice Purchase tokens using POLY\n      * @param _beneficiary Address where security tokens will be sent\n      * @param _investedPOLY Amount of POLY invested\n      * @param _minTokens Minumum number of tokens to buy or else revert\n      */\n    function buyWithPOLYRateLimited(address _beneficiary, uint256 _investedPOLY, uint256 _minTokens) public validPOLY {\n        _buyWithTokens(_beneficiary, _investedPOLY, FundRaiseType.POLY, _minTokens);\n    }\n\n    /**\n      * @notice Purchase tokens using DAI\n      * @param _beneficiary Address where security tokens will be sent\n      * @param _investedDAI Amount of DAI invested\n      * @param _minTokens Minumum number of tokens to buy or else revert\n      */\n    function buyWithUSDRateLimited(address _beneficiary, uint256 _investedDAI, uint256 _minTokens) public validDAI {\n        _buyWithTokens(_beneficiary, _investedDAI, FundRaiseType.DAI, _minTokens);\n    }\n\n    function _buyWithTokens(address _beneficiary, uint256 _tokenAmount, FundRaiseType _fundRaiseType, uint256 _minTokens) internal {\n        require(_fundRaiseType == FundRaiseType.POLY || _fundRaiseType == FundRaiseType.DAI, \"Invalid raise type\");\n        uint256 initialMinted = getTokensMinted();\n        uint256 rate = getRate(_fundRaiseType);\n        (uint256 spentUSD, uint256 spentValue) = _buyTokens(_beneficiary, _tokenAmount, rate, _fundRaiseType);\n        require(getTokensMinted().sub(initialMinted) >= _minTokens, \"Insufficient tokens minted\");\n        // Modify storage\n        investorInvested[_beneficiary][uint8(_fundRaiseType)] = investorInvested[_beneficiary][uint8(_fundRaiseType)].add(spentValue);\n        fundsRaised[uint8(_fundRaiseType)] = fundsRaised[uint8(_fundRaiseType)].add(spentValue);\n        // Forward DAI to issuer wallet\n        IERC20 token = _fundRaiseType == FundRaiseType.POLY ? polyToken : usdToken;\n        require(token.transferFrom(msg.sender, wallet, spentValue), \"Transfer failed\");\n        emit FundsReceived(msg.sender, _beneficiary, spentUSD, _fundRaiseType, _tokenAmount, spentValue, rate);\n    }\n\n    /**\n      * @notice Low level token purchase\n      * @param _beneficiary Address where security tokens will be sent\n      * @param _investmentValue Amount of POLY, ETH or DAI invested\n      * @param _fundRaiseType Fund raise type (POLY, ETH, DAI)\n      */\n    function _buyTokens(\n        address _beneficiary,\n        uint256 _investmentValue,\n        uint256 _rate,\n        FundRaiseType _fundRaiseType\n    )\n        internal\n        nonReentrant\n        whenNotPaused\n        returns(uint256 spentUSD, uint256 spentValue)\n    {\n        if (!allowBeneficialInvestments) {\n            require(_beneficiary == msg.sender, \"Beneficiary != funder\");\n        }\n        \n        uint256 originalUSD = DecimalMath.mul(_rate, _investmentValue);\n        uint256 allowedUSD = _buyTokensChecks(_beneficiary, _investmentValue, originalUSD);\n\n        for (uint256 i = currentTier; i < tiers.length; i++) {\n            bool gotoNextTier;\n            uint256 tempSpentUSD;\n            // Update current tier if needed\n            if (currentTier != i)\n                currentTier = i;\n            // If there are tokens remaining, process investment\n            if (tiers[i].mintedTotal < tiers[i].tokenTotal) {\n                (tempSpentUSD, gotoNextTier) = _calculateTier(_beneficiary, i, allowedUSD.sub(spentUSD), _fundRaiseType);\n                spentUSD = spentUSD.add(tempSpentUSD);\n                // If all funds have been spent, exit the loop\n                if (!gotoNextTier)\n                    break;\n            }\n        }\n\n        // Modify storage\n        if (spentUSD > 0) {\n            if (investorInvestedUSD[_beneficiary] == 0)\n                investorCount = investorCount + 1;\n            investorInvestedUSD[_beneficiary] = investorInvestedUSD[_beneficiary].add(spentUSD);\n            fundsRaisedUSD = fundsRaisedUSD.add(spentUSD);\n        }\n\n        spentValue = DecimalMath.mul(DecimalMath.div(spentUSD, originalUSD), _investmentValue);\n    }\n\n    /**\n      * @notice Getter function for buyer to calculate how many tokens will they get\n      * @param _beneficiary Address where security tokens are to be sent\n      * @param _investmentValue Amount of POLY, ETH or DAI invested\n      * @param _fundRaiseType Fund raise type (POLY, ETH, DAI)\n      */\n    function buyTokensView(\n        address _beneficiary,\n        uint256 _investmentValue,\n        FundRaiseType _fundRaiseType\n    )\n        public\n        view\n        returns(uint256 spentUSD, uint256 spentValue, uint256 tokensMinted)\n    {\n        require(_fundRaiseType == FundRaiseType.POLY || _fundRaiseType == FundRaiseType.DAI || _fundRaiseType == FundRaiseType.ETH, \"Invalid raise type\");\n        uint256 rate = getRate(_fundRaiseType);\n        uint256 originalUSD = DecimalMath.mul(rate, _investmentValue);\n        uint256 allowedUSD = _buyTokensChecks(_beneficiary, _investmentValue, originalUSD);\n\n        // Iterate over each tier and process payment\n        for (uint256 i = currentTier; i < tiers.length; i++) {\n            bool gotoNextTier;\n            uint256 tempSpentUSD;\n            uint256 tempTokensMinted;\n            // If there are tokens remaining, process investment\n            if (tiers[i].mintedTotal < tiers[i].tokenTotal) {\n                (tempSpentUSD, gotoNextTier, tempTokensMinted) = _calculateTierView(i, allowedUSD.sub(spentUSD), _fundRaiseType);\n                spentUSD = spentUSD.add(tempSpentUSD);\n                tokensMinted = tokensMinted.add(tempTokensMinted);\n                // If all funds have been spent, exit the loop\n                if (!gotoNextTier)\n                    break;\n            }\n        }\n\n        spentValue = DecimalMath.mul(DecimalMath.div(spentUSD, originalUSD), _investmentValue);\n    }\n\n    function _buyTokensChecks(\n        address _beneficiary,\n        uint256 _investmentValue,\n        uint256 investedUSD\n    )\n        internal\n        view\n        returns(uint256 netInvestedUSD)\n    {\n        require(isOpen(), \"STO not open\");\n        require(_investmentValue > 0, \"No funds were sent\");\n\n        // Check for minimum investment\n        require(investedUSD.add(investorInvestedUSD[_beneficiary]) >= minimumInvestmentUSD, \"Total investment < minimumInvestmentUSD\");\n        netInvestedUSD = investedUSD;\n        // Check for non-accredited cap\n        if (!accredited[_beneficiary]) {\n            uint256 investorLimitUSD = (nonAccreditedLimitUSDOverride[_beneficiary] == 0) ? nonAccreditedLimitUSD : nonAccreditedLimitUSDOverride[_beneficiary];\n            require(investorInvestedUSD[_beneficiary] < investorLimitUSD, \"Over Non-accredited investor limit\");\n            if (investedUSD.add(investorInvestedUSD[_beneficiary]) > investorLimitUSD)\n                netInvestedUSD = investorLimitUSD.sub(investorInvestedUSD[_beneficiary]);\n        }\n    }\n\n    function _calculateTier(\n        address _beneficiary,\n        uint256 _tier,\n        uint256 _investedUSD,\n        FundRaiseType _fundRaiseType\n    )\n        internal\n        returns(uint256 spentUSD, bool gotoNextTier)\n     {\n        // First purchase any discounted tokens if POLY investment\n        uint256 tierSpentUSD;\n        uint256 tierPurchasedTokens;\n        uint256 investedUSD = _investedUSD;\n        Tier storage tierData = tiers[_tier];\n        // Check whether there are any remaining discounted tokens\n        if ((_fundRaiseType == FundRaiseType.POLY) && (tierData.tokensDiscountPoly > tierData.mintedDiscountPoly)) {\n            uint256 discountRemaining = tierData.tokensDiscountPoly.sub(tierData.mintedDiscountPoly);\n            uint256 totalRemaining = tierData.tokenTotal.sub(tierData.mintedTotal);\n            if (totalRemaining < discountRemaining)\n                (spentUSD, tierPurchasedTokens, gotoNextTier) = _purchaseTier(_beneficiary, tierData.rateDiscountPoly, totalRemaining, investedUSD, _tier);\n            else\n                (spentUSD, tierPurchasedTokens, gotoNextTier) = _purchaseTier(_beneficiary, tierData.rateDiscountPoly, discountRemaining, investedUSD, _tier);\n            investedUSD = investedUSD.sub(spentUSD);\n            tierData.mintedDiscountPoly = tierData.mintedDiscountPoly.add(tierPurchasedTokens);\n            tierData.minted[uint8(_fundRaiseType)] = tierData.minted[uint8(_fundRaiseType)].add(tierPurchasedTokens);\n            tierData.mintedTotal = tierData.mintedTotal.add(tierPurchasedTokens);\n        }\n        // Now, if there is any remaining USD to be invested, purchase at non-discounted rate\n        if (investedUSD > 0 && \n            tierData.tokenTotal.sub(tierData.mintedTotal) > 0 &&\n            (_fundRaiseType != FundRaiseType.POLY || tierData.tokensDiscountPoly <= tierData.mintedDiscountPoly)\n        ) {\n            (tierSpentUSD, tierPurchasedTokens, gotoNextTier) = _purchaseTier(_beneficiary, tierData.rate, tierData.tokenTotal.sub(tierData.mintedTotal), investedUSD, _tier);\n            spentUSD = spentUSD.add(tierSpentUSD);\n            tierData.minted[uint8(_fundRaiseType)] = tierData.minted[uint8(_fundRaiseType)].add(tierPurchasedTokens);\n            tierData.mintedTotal = tierData.mintedTotal.add(tierPurchasedTokens);\n        }\n    }\n\n    function _calculateTierView(\n        uint256 _tier,\n        uint256 _investedUSD,\n        FundRaiseType _fundRaiseType\n    )\n        internal\n        view\n        returns(uint256 spentUSD, bool gotoNextTier, uint256 tokensMinted)\n    {\n        // First purchase any discounted tokens if POLY investment\n        uint256 tierSpentUSD;\n        uint256 tierPurchasedTokens;\n        Tier storage tierData = tiers[_tier];\n        // Check whether there are any remaining discounted tokens\n        if ((_fundRaiseType == FundRaiseType.POLY) && (tierData.tokensDiscountPoly > tierData.mintedDiscountPoly)) {\n            uint256 discountRemaining = tierData.tokensDiscountPoly.sub(tierData.mintedDiscountPoly);\n            uint256 totalRemaining = tierData.tokenTotal.sub(tierData.mintedTotal);\n            if (totalRemaining < discountRemaining)\n                (spentUSD, tokensMinted, gotoNextTier) = _purchaseTierAmount(tierData.rateDiscountPoly, totalRemaining, _investedUSD);\n            else\n                (spentUSD, tokensMinted, gotoNextTier) = _purchaseTierAmount(tierData.rateDiscountPoly, discountRemaining, _investedUSD);\n            _investedUSD = _investedUSD.sub(spentUSD);\n        }\n        // Now, if there is any remaining USD to be invested, purchase at non-discounted rate\n        if (_investedUSD > 0 && \n            tierData.tokenTotal.sub(tierData.mintedTotal.add(tokensMinted)) > 0 &&\n            (_fundRaiseType != FundRaiseType.POLY || tierData.tokensDiscountPoly <= tierData.mintedDiscountPoly)\n        ) {\n            (tierSpentUSD, tierPurchasedTokens, gotoNextTier) = _purchaseTierAmount(tierData.rate, tierData.tokenTotal.sub(tierData.mintedTotal), _investedUSD);\n            spentUSD = spentUSD.add(tierSpentUSD);\n            tokensMinted = tokensMinted.add(tierPurchasedTokens);\n        }\n    }\n\n    function _purchaseTier(\n        address _beneficiary,\n        uint256 _tierPrice,\n        uint256 _tierRemaining,\n        uint256 _investedUSD,\n        uint256 _tier\n    )\n        internal\n        returns(uint256 spentUSD, uint256 purchasedTokens, bool gotoNextTier)\n    {\n        (spentUSD, purchasedTokens, gotoNextTier) = _purchaseTierAmount(_tierPrice, _tierRemaining, _investedUSD);\n        if (purchasedTokens > 0) {\n            require(ISecurityToken(securityToken).mint(_beneficiary, purchasedTokens), \"Error in minting\");\n            emit TokenPurchase(msg.sender, _beneficiary, purchasedTokens, spentUSD, _tierPrice, _tier);\n        } \n    }\n\n    function _purchaseTierAmount(\n        uint256 _tierPrice,\n        uint256 _tierRemaining,\n        uint256 _investedUSD\n    )\n        internal\n        view\n        returns(uint256 spentUSD, uint256 purchasedTokens, bool gotoNextTier)\n    {\n        uint256 maximumTokens = DecimalMath.div(_investedUSD, _tierPrice);\n        uint256 granularity = ISecurityToken(securityToken).granularity();\n        maximumTokens = maximumTokens.div(granularity);\n        maximumTokens = maximumTokens.mul(granularity);\n        if (maximumTokens > _tierRemaining) {\n            spentUSD = DecimalMath.mul(_tierRemaining, _tierPrice);\n            // In case of rounding issues, ensure that spentUSD is never more than investedUSD\n            if (spentUSD > _investedUSD) {\n                spentUSD = _investedUSD;\n            }\n            purchasedTokens = _tierRemaining;\n            gotoNextTier = true;\n        } else {\n            spentUSD = DecimalMath.mul(maximumTokens, _tierPrice);\n            purchasedTokens = maximumTokens;\n        }\n    }\n\n    /////////////\n    // Getters //\n    /////////////\n\n    /**\n     * @notice This function returns whether or not the STO is in fundraising mode (open)\n     * @return bool Whether the STO is accepting investments\n     */\n    function isOpen() public view returns(bool) {\n        if (isFinalized)\n            return false;\n        /*solium-disable-next-line security/no-block-members*/\n        if (now < startTime)\n            return false;\n        /*solium-disable-next-line security/no-block-members*/\n        if (now >= endTime)\n            return false;\n        if (capReached())\n            return false;\n        return true;\n    }\n\n    /**\n     * @notice Checks whether the cap has been reached.\n     * @return bool Whether the cap was reached\n     */\n    function capReached() public view returns (bool) {\n        if (isFinalized) {\n            return (finalAmountReturned == 0);\n        }\n        return (tiers[tiers.length - 1].mintedTotal == tiers[tiers.length - 1].tokenTotal);\n    }\n\n    /**\n     * @dev returns current conversion rate of funds\n     * @param _fundRaiseType Fund raise type to get rate of\n     */\n    function getRate(FundRaiseType _fundRaiseType) public view returns (uint256) {\n        if (_fundRaiseType == FundRaiseType.ETH) {\n            return IOracle(_getOracle(bytes32(\"ETH\"), bytes32(\"USD\"))).getPrice();\n        } else if (_fundRaiseType == FundRaiseType.POLY) {\n            return IOracle(_getOracle(bytes32(\"POLY\"), bytes32(\"USD\"))).getPrice();\n        } else if (_fundRaiseType == FundRaiseType.DAI) {\n            return 1 * 10**18;\n        } else {\n            revert(\"Incorrect funding\");\n        }\n    }\n\n    /**\n     * @notice This function converts from ETH or POLY to USD\n     * @param _fundRaiseType Currency key\n     * @param _amount Value to convert to USD\n     * @return uint256 Value in USD\n     */\n    function convertToUSD(FundRaiseType _fundRaiseType, uint256 _amount) public view returns(uint256) {\n        uint256 rate = getRate(_fundRaiseType);\n        return DecimalMath.mul(_amount, rate);\n    }\n\n    /**\n     * @notice This function converts from USD to ETH or POLY\n     * @param _fundRaiseType Currency key\n     * @param _amount Value to convert from USD\n     * @return uint256 Value in ETH or POLY\n     */\n    function convertFromUSD(FundRaiseType _fundRaiseType, uint256 _amount) public view returns(uint256) {\n        uint256 rate = getRate(_fundRaiseType);\n        return DecimalMath.div(_amount, rate);\n    }\n\n    /**\n     * @notice Return the total no. of tokens sold\n     * @return uint256 Total number of tokens sold\n     */\n    function getTokensSold() public view returns (uint256) {\n        if (isFinalized)\n            return totalTokensSold;\n        else\n            return getTokensMinted();\n    }\n\n    /**\n     * @notice Return the total no. of tokens minted\n     * @return uint256 Total number of tokens minted\n     */\n    function getTokensMinted() public view returns (uint256) {\n        uint256 tokensMinted;\n        for (uint256 i = 0; i < tiers.length; i++) {\n            tokensMinted = tokensMinted.add(tiers[i].mintedTotal);\n        }\n        return tokensMinted;\n    }\n\n    /**\n     * @notice Return the total no. of tokens sold for the given fund raise type\n     * param _fundRaiseType The fund raising currency (e.g. ETH, POLY, DAI) to calculate sold tokens for\n     * @return uint256 Total number of tokens sold for ETH\n     */\n    function getTokensSoldFor(FundRaiseType _fundRaiseType) public view returns (uint256) {\n        uint256 tokensSold;\n        for (uint256 i = 0; i < tiers.length; i++) {\n            tokensSold = tokensSold.add(tiers[i].minted[uint8(_fundRaiseType)]);\n        }\n        return tokensSold;\n    }\n\n    /**\n     * @notice Return array of minted tokens in each fund raise type for given tier\n     * param _tier The tier to return minted tokens for\n     * @return uint256[] array of minted tokens in each fund raise type\n     */\n    function getTokensMintedByTier(uint256 _tier) public view returns (uint256[]) {\n        require(_tier < tiers.length, \"Invalid tier\");\n        uint256[] memory tokensMinted = new uint256[](3);\n        tokensMinted[0] = tiers[_tier].minted[uint8(FundRaiseType.ETH)];\n        tokensMinted[1] = tiers[_tier].minted[uint8(FundRaiseType.POLY)];\n        tokensMinted[2] = tiers[_tier].minted[uint8(FundRaiseType.DAI)];\n        return tokensMinted;\n    }\n\n    /**\n     * @notice Return the total no. of tokens sold in a given tier\n     * param _tier The tier to calculate sold tokens for\n     * @return uint256 Total number of tokens sold in the tier\n     */\n    function getTokensSoldByTier(uint256 _tier) public view returns (uint256) {\n        require(_tier < tiers.length, \"Incorrect tier\");\n        uint256 tokensSold;\n        tokensSold = tokensSold.add(tiers[_tier].minted[uint8(FundRaiseType.ETH)]);\n        tokensSold = tokensSold.add(tiers[_tier].minted[uint8(FundRaiseType.POLY)]);\n        tokensSold = tokensSold.add(tiers[_tier].minted[uint8(FundRaiseType.DAI)]);\n        return tokensSold;\n    }\n\n    /**\n     * @notice Return the total no. of tiers\n     * @return uint256 Total number of tiers\n     */\n    function getNumberOfTiers() public view returns (uint256) {\n        return tiers.length;\n    }\n\n    /**\n     * @notice Return the permissions flag that are associated with STO\n     */\n    function getPermissions() public view returns(bytes32[]) {\n        bytes32[] memory allPermissions = new bytes32[](0);\n        return allPermissions;\n    }\n\n    /**\n     * @notice Return the STO details\n     * @return Unixtimestamp at which offering gets start.\n     * @return Unixtimestamp at which offering ends.\n     * @return Currently active tier\n     * @return Array of Number of tokens this STO will be allowed to sell at different tiers.\n     * @return Array Rate at which tokens are sold at different tiers\n     * @return Amount of funds raised\n     * @return Number of individual investors this STO have.\n     * @return Amount of tokens sold.\n     * @return Array of bools to show if funding is allowed in ETH, POLY, DAI respectively\n     */\n    function getSTODetails() public view returns(uint256, uint256, uint256, uint256[], uint256[], uint256, uint256, uint256, bool[]) {\n        uint256[] memory cap = new uint256[](tiers.length);\n        uint256[] memory rate = new uint256[](tiers.length);\n        for(uint256 i = 0; i < tiers.length; i++) {\n            cap[i] = tiers[i].tokenTotal;\n            rate[i] = tiers[i].rate;\n        }\n        bool[] memory _fundRaiseTypes = new bool[](3);\n        _fundRaiseTypes[0] = fundRaiseTypes[uint8(FundRaiseType.ETH)];\n        _fundRaiseTypes[1] = fundRaiseTypes[uint8(FundRaiseType.POLY)];\n        _fundRaiseTypes[2] = fundRaiseTypes[uint8(FundRaiseType.DAI)];\n        return (\n            startTime,\n            endTime,\n            currentTier,\n            cap,\n            rate,\n            fundsRaisedUSD,\n            investorCount,\n            getTokensSold(),\n            _fundRaiseTypes\n        );\n    }\n\n    /**\n     * @notice This function returns the signature of configure function\n     * @return bytes4 Configure function signature\n     */\n    function getInitFunction() public pure returns (bytes4) {\n        return 0xb0ff041e;\n    }\n\n    function _getOracle(bytes32 _currency, bytes32 _denominatedCurrency) internal view returns (address) {\n        return PolymathRegistry(RegistryUpdater(securityToken).polymathRegistry()).getAddress(oracleKeys[_currency][_denominatedCurrency]);\n    }\n\n}\n",
  "sourcePath": "/Users/polymath/polymath-core/contracts/modules/STO/USDTieredSTO.sol",
  "compiler": {
    "name": "solc",
    "version": "0.4.24+commit.e67f0147.Emscripten.clang"
  },
  "schemaVersion": "2.0.1",
  "updatedAt": "2018-12-12T11:18:59.873Z"
}